{
  "transactions": [
    {
      "hash": "0xb86dd59451b1614df58a08f6bd0abf021fa38b05e8db38d24c9dfd879aa70be1",
      "transactionType": "CALL",
      "contractName": null,
      "contractAddress": "0x88f3bbca0ad217de7286c74c061652de40e26104",
      "function": "setYieldConfig(address,address,address,bool,uint256)",
      "arguments": [
        "0xAee2A87701aFEF956473d547bD02cD736729D8a7",
        "0x1fE9A4E25cAA2a22FC0B61010fDB0DB462FB5b29",
        "0x3f6b98B139482EF9c9d59E6311fECaF4D7854163",
        "true",
        "0"
      ],
      "transaction": {
        "from": "0x1234562eb0cd65e7d08e59f9f18d7c10b5df232a",
        "to": "0x88f3bbca0ad217de7286c74c061652de40e26104",
        "gas": "0x1a51b",
        "value": "0x0",
        "input": "0x0dfc76fa000000000000000000000000aee2a87701afef956473d547bd02cd736729d8a70000000000000000000000001fe9a4e25caa2a22fc0b61010fdb0db462fb5b290000000000000000000000003f6b98b139482ef9c9d59e6311fecaf4d785416300000000000000000000000000000000000000000000000000000000000000010000000000000000000000000000000000000000000000000000000000000000",
        "nonce": "0x1bb",
        "chainId": "0x14a34"
      },
      "additionalContracts": [],
      "isFixedGasLimit": false
    },
    {
      "hash": "0x54f70b81d7395476c70997a5b262fd6631526510da513ee308f57de501c16491",
      "transactionType": "CALL",
      "contractName": null,
      "contractAddress": "0x88f3bbca0ad217de7286c74c061652de40e26104",
      "function": "setYieldConfig(address,address,address,bool,uint256)",
      "arguments": [
        "0x6aaBE7258f09474e62E8BebB1cf90E15fbAAF777",
        "0x5e1E8043381F3A21a1A64f46073daF7E74fEdC1E",
        "0x3f6b98B139482EF9c9d59E6311fECaF4D7854163",
        "true",
        "0"
      ],
      "transaction": {
        "from": "0x1234562eb0cd65e7d08e59f9f18d7c10b5df232a",
        "to": "0x88f3bbca0ad217de7286c74c061652de40e26104",
        "gas": "0x1a51b",
        "value": "0x0",
        "input": "0x0dfc76fa0000000000000000000000006aabe7258f09474e62e8bebb1cf90e15fbaaf7770000000000000000000000005e1e8043381f3a21a1a64f46073daf7e74fedc1e0000000000000000000000003f6b98b139482ef9c9d59e6311fecaf4d785416300000000000000000000000000000000000000000000000000000000000000010000000000000000000000000000000000000000000000000000000000000000",
        "nonce": "0x1bc",
        "chainId": "0x14a34"
      },
      "additionalContracts": [],
      "isFixedGasLimit": false
    },
    {
      "hash": "0x4c219b25cea89dc03d0ee1e0b5d18e31d2569b9f8b6eb9971a0e25d68f83ad15",
      "transactionType": "CALL",
      "contractName": null,
      "contractAddress": "0x88f3bbca0ad217de7286c74c061652de40e26104",
      "function": "setYieldConfig(address,address,address,bool,uint256)",
      "arguments": [
        "0x5C70fB2a739e9e7Ad5c4311ABF99E0fB65c07eE9",
        "0x06C1e044D5BEb614faA6128001F519e6c693a044",
        "0x3f6b98B139482EF9c9d59E6311fECaF4D7854163",
        "true",
        "0"
      ],
      "transaction": {
        "from": "0x1234562eb0cd65e7d08e59f9f18d7c10b5df232a",
        "to": "0x88f3bbca0ad217de7286c74c061652de40e26104",
        "gas": "0x1a51b",
        "value": "0x0",
        "input": "0x0dfc76fa0000000000000000000000005c70fb2a739e9e7ad5c4311abf99e0fb65c07ee900000000000000000000000006c1e044d5beb614faa6128001f519e6c693a0440000000000000000000000003f6b98b139482ef9c9d59e6311fecaf4d785416300000000000000000000000000000000000000000000000000000000000000010000000000000000000000000000000000000000000000000000000000000000",
        "nonce": "0x1bd",
        "chainId": "0x14a34"
      },
      "additionalContracts": [],
      "isFixedGasLimit": false
    },
    {
      "hash": "0xebf86acea3b64ce4ecf0a2717f54b6e98bb0778ba620cd8922b8aede83f83d73",
      "transactionType": "CALL",
      "contractName": null,
      "contractAddress": "0x88f3bbca0ad217de7286c74c061652de40e26104",
      "function": "setYieldConfig(address,address,address,bool,uint256)",
      "arguments": [
        "0xbB6Dd87f1fe0483d9FFA90f7A163Caf21F40BA6c",
        "0x85B8Dc34C7Af35baC8a45CfF53353f39E6F732A2",
        "0x3f6b98B139482EF9c9d59E6311fECaF4D7854163",
        "true",
        "0"
      ],
      "transaction": {
        "from": "0x1234562eb0cd65e7d08e59f9f18d7c10b5df232a",
        "to": "0x88f3bbca0ad217de7286c74c061652de40e26104",
        "gas": "0x1a51b",
        "value": "0x0",
        "input": "0x0dfc76fa000000000000000000000000bb6dd87f1fe0483d9ffa90f7a163caf21f40ba6c00000000000000000000000085b8dc34c7af35bac8a45cff53353f39e6f732a20000000000000000000000003f6b98b139482ef9c9d59e6311fecaf4d785416300000000000000000000000000000000000000000000000000000000000000010000000000000000000000000000000000000000000000000000000000000000",
        "nonce": "0x1be",
        "chainId": "0x14a34"
      },
      "additionalContracts": [],
      "isFixedGasLimit": false
    },
    {
      "hash": "0x5f1e689265110667da8872929ff97cae88ee6a16fac9441489939c54c882db95",
      "transactionType": "CALL",
      "contractName": null,
      "contractAddress": "0x88f3bbca0ad217de7286c74c061652de40e26104",
      "function": "setYieldConfig(address,address,address,bool,uint256)",
      "arguments": [
        "0xcE74630446990AcF6Cd56facBbd6EE908eE55562",
        "0x7392e9E58f202Da3877776c41683AC457DFd4CD7",
        "0x3f6b98B139482EF9c9d59E6311fECaF4D7854163",
        "true",
        "0"
      ],
      "transaction": {
        "from": "0x1234562eb0cd65e7d08e59f9f18d7c10b5df232a",
        "to": "0x88f3bbca0ad217de7286c74c061652de40e26104",
        "gas": "0x1a51b",
        "value": "0x0",
        "input": "0x0dfc76fa000000000000000000000000ce74630446990acf6cd56facbbd6ee908ee555620000000000000000000000007392e9e58f202da3877776c41683ac457dfd4cd70000000000000000000000003f6b98b139482ef9c9d59e6311fecaf4d785416300000000000000000000000000000000000000000000000000000000000000010000000000000000000000000000000000000000000000000000000000000000",
        "nonce": "0x1bf",
        "chainId": "0x14a34"
      },
      "additionalContracts": [],
      "isFixedGasLimit": false
    },
    {
      "hash": null,
      "transactionType": "CALL",
      "contractName": null,
      "contractAddress": "0x88f3bbca0ad217de7286c74c061652de40e26104",
      "function": "setYieldConfig(address,address,address,bool,uint256)",
      "arguments": [
        "0xdCC41dee829C1246a936dC5E801cB24303445651",
        "0x1fE9A4E25cAA2a22FC0B61010fDB0DB462FB5b29",
        "0xfaD414c9d89B764093D031AC45298d6e443040Fa",
        "true",
        "0"
      ],
      "transaction": {
        "from": "0x1234562eb0cd65e7d08e59f9f18d7c10b5df232a",
        "to": "0x88f3bbca0ad217de7286c74c061652de40e26104",
        "gas": "0x1a51b",
        "value": "0x0",
        "input": "0x0dfc76fa000000000000000000000000dcc41dee829c1246a936dc5e801cb243034456510000000000000000000000001fe9a4e25caa2a22fc0b61010fdb0db462fb5b29000000000000000000000000fad414c9d89b764093d031ac45298d6e443040fa00000000000000000000000000000000000000000000000000000000000000010000000000000000000000000000000000000000000000000000000000000000",
        "nonce": "0x1c0",
        "chainId": "0x14a34"
      },
      "additionalContracts": [],
      "isFixedGasLimit": false
    },
    {
      "hash": null,
      "transactionType": "CALL",
      "contractName": null,
      "contractAddress": "0x88f3bbca0ad217de7286c74c061652de40e26104",
      "function": "setYieldConfig(address,address,address,bool,uint256)",
      "arguments": [
        "0x8f5816ca88ED2775305b154625744E36943Cc750",
        "0x5e1E8043381F3A21a1A64f46073daF7E74fEdC1E",
        "0xfaD414c9d89B764093D031AC45298d6e443040Fa",
        "true",
        "0"
      ],
      "transaction": {
        "from": "0x1234562eb0cd65e7d08e59f9f18d7c10b5df232a",
        "to": "0x88f3bbca0ad217de7286c74c061652de40e26104",
        "gas": "0x1a51b",
        "value": "0x0",
        "input": "0x0dfc76fa0000000000000000000000008f5816ca88ed2775305b154625744e36943cc7500000000000000000000000005e1e8043381f3a21a1a64f46073daf7e74fedc1e000000000000000000000000fad414c9d89b764093d031ac45298d6e443040fa00000000000000000000000000000000000000000000000000000000000000010000000000000000000000000000000000000000000000000000000000000000",
        "nonce": "0x1c1",
        "chainId": "0x14a34"
      },
      "additionalContracts": [],
      "isFixedGasLimit": false
    },
    {
      "hash": null,
      "transactionType": "CALL",
      "contractName": null,
      "contractAddress": "0x88f3bbca0ad217de7286c74c061652de40e26104",
      "function": "setYieldConfig(address,address,address,bool,uint256)",
      "arguments": [
        "0x2BB55f68fb05De13B04e5a2cadbAE5A05bCE277B",
        "0x06C1e044D5BEb614faA6128001F519e6c693a044",
        "0xfaD414c9d89B764093D031AC45298d6e443040Fa",
        "true",
        "0"
      ],
      "transaction": {
        "from": "0x1234562eb0cd65e7d08e59f9f18d7c10b5df232a",
        "to": "0x88f3bbca0ad217de7286c74c061652de40e26104",
        "gas": "0x1a51b",
        "value": "0x0",
        "input": "0x0dfc76fa0000000000000000000000002bb55f68fb05de13b04e5a2cadbae5a05bce277b00000000000000000000000006c1e044d5beb614faa6128001f519e6c693a044000000000000000000000000fad414c9d89b764093d031ac45298d6e443040fa00000000000000000000000000000000000000000000000000000000000000010000000000000000000000000000000000000000000000000000000000000000",
        "nonce": "0x1c2",
        "chainId": "0x14a34"
      },
      "additionalContracts": [],
      "isFixedGasLimit": false
    },
    {
      "hash": null,
      "transactionType": "CALL",
      "contractName": null,
      "contractAddress": "0x88f3bbca0ad217de7286c74c061652de40e26104",
      "function": "setYieldConfig(address,address,address,bool,uint256)",
      "arguments": [
        "0xa022FD1966577144fCb5Ed8aD5a134861aE5e138",
        "0x85B8Dc34C7Af35baC8a45CfF53353f39E6F732A2",
        "0xfaD414c9d89B764093D031AC45298d6e443040Fa",
        "true",
        "0"
      ],
      "transaction": {
        "from": "0x1234562eb0cd65e7d08e59f9f18d7c10b5df232a",
        "to": "0x88f3bbca0ad217de7286c74c061652de40e26104",
        "gas": "0x1a51b",
        "value": "0x0",
        "input": "0x0dfc76fa000000000000000000000000a022fd1966577144fcb5ed8ad5a134861ae5e13800000000000000000000000085b8dc34c7af35bac8a45cff53353f39e6f732a2000000000000000000000000fad414c9d89b764093d031ac45298d6e443040fa00000000000000000000000000000000000000000000000000000000000000010000000000000000000000000000000000000000000000000000000000000000",
        "nonce": "0x1c3",
        "chainId": "0x14a34"
      },
      "additionalContracts": [],
      "isFixedGasLimit": false
    },
    {
      "hash": null,
      "transactionType": "CALL",
      "contractName": null,
      "contractAddress": "0x88f3bbca0ad217de7286c74c061652de40e26104",
      "function": "setYieldConfig(address,address,address,bool,uint256)",
      "arguments": [
        "0xEC4c46F46191d77C3D8Ba3ddFafe71b58E2089Af",
        "0x7392e9E58f202Da3877776c41683AC457DFd4CD7",
        "0xfaD414c9d89B764093D031AC45298d6e443040Fa",
        "true",
        "0"
      ],
      "transaction": {
        "from": "0x1234562eb0cd65e7d08e59f9f18d7c10b5df232a",
        "to": "0x88f3bbca0ad217de7286c74c061652de40e26104",
        "gas": "0x1a51b",
        "value": "0x0",
        "input": "0x0dfc76fa000000000000000000000000ec4c46f46191d77c3d8ba3ddfafe71b58e2089af0000000000000000000000007392e9e58f202da3877776c41683ac457dfd4cd7000000000000000000000000fad414c9d89b764093d031ac45298d6e443040fa00000000000000000000000000000000000000000000000000000000000000010000000000000000000000000000000000000000000000000000000000000000",
        "nonce": "0x1c4",
        "chainId": "0x14a34"
      },
      "additionalContracts": [],
      "isFixedGasLimit": false
    },
    {
      "hash": null,
      "transactionType": "CALL",
      "contractName": null,
      "contractAddress": "0x88f3bbca0ad217de7286c74c061652de40e26104",
      "function": "setYieldConfig(address,address,address,bool,uint256)",
      "arguments": [
        "0xE47Eba0dBf716D99482Fb071ca04aDf4FCCd6b1f",
        "0x1fE9A4E25cAA2a22FC0B61010fDB0DB462FB5b29",
        "0x5f306B7c566BF64D2c199E9451C871855E5b456B",
        "true",
        "0"
      ],
      "transaction": {
        "from": "0x1234562eb0cd65e7d08e59f9f18d7c10b5df232a",
        "to": "0x88f3bbca0ad217de7286c74c061652de40e26104",
        "gas": "0x1a51b",
        "value": "0x0",
        "input": "0x0dfc76fa000000000000000000000000e47eba0dbf716d99482fb071ca04adf4fccd6b1f0000000000000000000000001fe9a4e25caa2a22fc0b61010fdb0db462fb5b290000000000000000000000005f306b7c566bf64d2c199e9451c871855e5b456b00000000000000000000000000000000000000000000000000000000000000010000000000000000000000000000000000000000000000000000000000000000",
        "nonce": "0x1c5",
        "chainId": "0x14a34"
      },
      "additionalContracts": [],
      "isFixedGasLimit": false
    },
    {
      "hash": null,
      "transactionType": "CALL",
      "contractName": null,
      "contractAddress": "0x88f3bbca0ad217de7286c74c061652de40e26104",
      "function": "setYieldConfig(address,address,address,bool,uint256)",
      "arguments": [
        "0x4E3A466BbA553Ace4Cd3a6149d574F3f034b5269",
        "0x5e1E8043381F3A21a1A64f46073daF7E74fEdC1E",
        "0x5f306B7c566BF64D2c199E9451C871855E5b456B",
        "true",
        "0"
      ],
      "transaction": {
        "from": "0x1234562eb0cd65e7d08e59f9f18d7c10b5df232a",
        "to": "0x88f3bbca0ad217de7286c74c061652de40e26104",
        "gas": "0x1a51b",
        "value": "0x0",
        "input": "0x0dfc76fa0000000000000000000000004e3a466bba553ace4cd3a6149d574f3f034b52690000000000000000000000005e1e8043381f3a21a1a64f46073daf7e74fedc1e0000000000000000000000005f306b7c566bf64d2c199e9451c871855e5b456b00000000000000000000000000000000000000000000000000000000000000010000000000000000000000000000000000000000000000000000000000000000",
        "nonce": "0x1c6",
        "chainId": "0x14a34"
      },
      "additionalContracts": [],
      "isFixedGasLimit": false
    },
    {
      "hash": null,
      "transactionType": "CALL",
      "contractName": null,
      "contractAddress": "0x88f3bbca0ad217de7286c74c061652de40e26104",
      "function": "setYieldConfig(address,address,address,bool,uint256)",
      "arguments": [
        "0x751A0E0147d10b8C21804AC88DCfa6837312ea35",
        "0x06C1e044D5BEb614faA6128001F519e6c693a044",
        "0x5f306B7c566BF64D2c199E9451C871855E5b456B",
        "true",
        "0"
      ],
      "transaction": {
        "from": "0x1234562eb0cd65e7d08e59f9f18d7c10b5df232a",
        "to": "0x88f3bbca0ad217de7286c74c061652de40e26104",
        "gas": "0x1a51b",
        "value": "0x0",
        "input": "0x0dfc76fa000000000000000000000000751a0e0147d10b8c21804ac88dcfa6837312ea3500000000000000000000000006c1e044d5beb614faa6128001f519e6c693a0440000000000000000000000005f306b7c566bf64d2c199e9451c871855e5b456b00000000000000000000000000000000000000000000000000000000000000010000000000000000000000000000000000000000000000000000000000000000",
        "nonce": "0x1c7",
        "chainId": "0x14a34"
      },
      "additionalContracts": [],
      "isFixedGasLimit": false
    },
    {
      "hash": null,
      "transactionType": "CALL",
      "contractName": null,
      "contractAddress": "0x88f3bbca0ad217de7286c74c061652de40e26104",
      "function": "setYieldConfig(address,address,address,bool,uint256)",
      "arguments": [
        "0xD8D362BADb84Cc1F97a00273ddC8845FD4148C80",
        "0x85B8Dc34C7Af35baC8a45CfF53353f39E6F732A2",
        "0x5f306B7c566BF64D2c199E9451C871855E5b456B",
        "true",
        "0"
      ],
      "transaction": {
        "from": "0x1234562eb0cd65e7d08e59f9f18d7c10b5df232a",
        "to": "0x88f3bbca0ad217de7286c74c061652de40e26104",
        "gas": "0x1a51b",
        "value": "0x0",
        "input": "0x0dfc76fa000000000000000000000000d8d362badb84cc1f97a00273ddc8845fd4148c8000000000000000000000000085b8dc34c7af35bac8a45cff53353f39e6f732a20000000000000000000000005f306b7c566bf64d2c199e9451c871855e5b456b00000000000000000000000000000000000000000000000000000000000000010000000000000000000000000000000000000000000000000000000000000000",
        "nonce": "0x1c8",
        "chainId": "0x14a34"
      },
      "additionalContracts": [],
      "isFixedGasLimit": false
    },
    {
      "hash": null,
      "transactionType": "CALL",
      "contractName": null,
      "contractAddress": "0x88f3bbca0ad217de7286c74c061652de40e26104",
      "function": "setYieldConfig(address,address,address,bool,uint256)",
      "arguments": [
        "0x1061473A78f6eb0a0BcBDE060a5EeA9d4273BB59",
        "0x7392e9E58f202Da3877776c41683AC457DFd4CD7",
        "0x5f306B7c566BF64D2c199E9451C871855E5b456B",
        "true",
        "0"
      ],
      "transaction": {
        "from": "0x1234562eb0cd65e7d08e59f9f18d7c10b5df232a",
        "to": "0x88f3bbca0ad217de7286c74c061652de40e26104",
        "gas": "0x1a51b",
        "value": "0x0",
        "input": "0x0dfc76fa0000000000000000000000001061473a78f6eb0a0bcbde060a5eea9d4273bb590000000000000000000000007392e9e58f202da3877776c41683ac457dfd4cd70000000000000000000000005f306b7c566bf64d2c199e9451c871855e5b456b00000000000000000000000000000000000000000000000000000000000000010000000000000000000000000000000000000000000000000000000000000000",
        "nonce": "0x1c9",
        "chainId": "0x14a34"
      },
      "additionalContracts": [],
      "isFixedGasLimit": false
    },
    {
      "hash": null,
      "transactionType": "CALL",
      "contractName": null,
      "contractAddress": "0x88f3bbca0ad217de7286c74c061652de40e26104",
      "function": "setYieldConfig(address,address,address,bool,uint256)",
      "arguments": [
        "0x824FB936D24B2BAaF92Fe87FD65fF22d01439ECE",
        "0x1fE9A4E25cAA2a22FC0B61010fDB0DB462FB5b29",
        "0x0FbC93fcfbCda63797E0f819195f79AA2E2bA478",
        "true",
        "0"
      ],
      "transaction": {
        "from": "0x1234562eb0cd65e7d08e59f9f18d7c10b5df232a",
        "to": "0x88f3bbca0ad217de7286c74c061652de40e26104",
        "gas": "0x1a51b",
        "value": "0x0",
        "input": "0x0dfc76fa000000000000000000000000824fb936d24b2baaf92fe87fd65ff22d01439ece0000000000000000000000001fe9a4e25caa2a22fc0b61010fdb0db462fb5b290000000000000000000000000fbc93fcfbcda63797e0f819195f79aa2e2ba47800000000000000000000000000000000000000000000000000000000000000010000000000000000000000000000000000000000000000000000000000000000",
        "nonce": "0x1ca",
        "chainId": "0x14a34"
      },
      "additionalContracts": [],
      "isFixedGasLimit": false
    },
    {
      "hash": null,
      "transactionType": "CALL",
      "contractName": null,
      "contractAddress": "0x88f3bbca0ad217de7286c74c061652de40e26104",
      "function": "setYieldConfig(address,address,address,bool,uint256)",
      "arguments": [
        "0x012bd7CD0AcC8cB696306B1aB7a537E85eF2056f",
        "0x5e1E8043381F3A21a1A64f46073daF7E74fEdC1E",
        "0x0FbC93fcfbCda63797E0f819195f79AA2E2bA478",
        "true",
        "0"
      ],
      "transaction": {
        "from": "0x1234562eb0cd65e7d08e59f9f18d7c10b5df232a",
        "to": "0x88f3bbca0ad217de7286c74c061652de40e26104",
        "gas": "0x1a51b",
        "value": "0x0",
        "input": "0x0dfc76fa000000000000000000000000012bd7cd0acc8cb696306b1ab7a537e85ef2056f0000000000000000000000005e1e8043381f3a21a1a64f46073daf7e74fedc1e0000000000000000000000000fbc93fcfbcda63797e0f819195f79aa2e2ba47800000000000000000000000000000000000000000000000000000000000000010000000000000000000000000000000000000000000000000000000000000000",
        "nonce": "0x1cb",
        "chainId": "0x14a34"
      },
      "additionalContracts": [],
      "isFixedGasLimit": false
    },
    {
      "hash": null,
      "transactionType": "CALL",
      "contractName": null,
      "contractAddress": "0x88f3bbca0ad217de7286c74c061652de40e26104",
      "function": "setYieldConfig(address,address,address,bool,uint256)",
      "arguments": [
        "0x4d8346F2F33FFBc7fa2E46bECF83C978943e69C8",
        "0x06C1e044D5BEb614faA6128001F519e6c693a044",
        "0x0FbC93fcfbCda63797E0f819195f79AA2E2bA478",
        "true",
        "0"
      ],
      "transaction": {
        "from": "0x1234562eb0cd65e7d08e59f9f18d7c10b5df232a",
        "to": "0x88f3bbca0ad217de7286c74c061652de40e26104",
        "gas": "0x1a51b",
        "value": "0x0",
        "input": "0x0dfc76fa0000000000000000000000004d8346f2f33ffbc7fa2e46becf83c978943e69c800000000000000000000000006c1e044d5beb614faa6128001f519e6c693a0440000000000000000000000000fbc93fcfbcda63797e0f819195f79aa2e2ba47800000000000000000000000000000000000000000000000000000000000000010000000000000000000000000000000000000000000000000000000000000000",
        "nonce": "0x1cc",
        "chainId": "0x14a34"
      },
      "additionalContracts": [],
      "isFixedGasLimit": false
    },
    {
      "hash": null,
      "transactionType": "CALL",
      "contractName": null,
      "contractAddress": "0x88f3bbca0ad217de7286c74c061652de40e26104",
      "function": "setYieldConfig(address,address,address,bool,uint256)",
      "arguments": [
        "0x2db087D43Fc8402aDE0706807d32d6EF72411ebd",
        "0x85B8Dc34C7Af35baC8a45CfF53353f39E6F732A2",
        "0x0FbC93fcfbCda63797E0f819195f79AA2E2bA478",
        "true",
        "0"
      ],
      "transaction": {
        "from": "0x1234562eb0cd65e7d08e59f9f18d7c10b5df232a",
        "to": "0x88f3bbca0ad217de7286c74c061652de40e26104",
        "gas": "0x1a51b",
        "value": "0x0",
        "input": "0x0dfc76fa0000000000000000000000002db087d43fc8402ade0706807d32d6ef72411ebd00000000000000000000000085b8dc34c7af35bac8a45cff53353f39e6f732a20000000000000000000000000fbc93fcfbcda63797e0f819195f79aa2e2ba47800000000000000000000000000000000000000000000000000000000000000010000000000000000000000000000000000000000000000000000000000000000",
        "nonce": "0x1cd",
        "chainId": "0x14a34"
      },
      "additionalContracts": [],
      "isFixedGasLimit": false
    },
    {
      "hash": null,
      "transactionType": "CALL",
      "contractName": null,
      "contractAddress": "0x88f3bbca0ad217de7286c74c061652de40e26104",
      "function": "setYieldConfig(address,address,address,bool,uint256)",
      "arguments": [
        "0xD14bD87b18dA3Ec84a9e098DF1c808d9cb7a9852",
        "0x7392e9E58f202Da3877776c41683AC457DFd4CD7",
        "0x0FbC93fcfbCda63797E0f819195f79AA2E2bA478",
        "true",
        "0"
      ],
      "transaction": {
        "from": "0x1234562eb0cd65e7d08e59f9f18d7c10b5df232a",
        "to": "0x88f3bbca0ad217de7286c74c061652de40e26104",
        "gas": "0x1a51b",
        "value": "0x0",
        "input": "0x0dfc76fa000000000000000000000000d14bd87b18da3ec84a9e098df1c808d9cb7a98520000000000000000000000007392e9e58f202da3877776c41683ac457dfd4cd70000000000000000000000000fbc93fcfbcda63797e0f819195f79aa2e2ba47800000000000000000000000000000000000000000000000000000000000000010000000000000000000000000000000000000000000000000000000000000000",
        "nonce": "0x1ce",
        "chainId": "0x14a34"
      },
      "additionalContracts": [],
      "isFixedGasLimit": false
    }
  ],
  "receipts": [],
  "libraries": [],
  "pending": [
    "0xb86dd59451b1614df58a08f6bd0abf021fa38b05e8db38d24c9dfd879aa70be1",
    "0x54f70b81d7395476c70997a5b262fd6631526510da513ee308f57de501c16491",
    "0x4c219b25cea89dc03d0ee1e0b5d18e31d2569b9f8b6eb9971a0e25d68f83ad15",
    "0xebf86acea3b64ce4ecf0a2717f54b6e98bb0778ba620cd8922b8aede83f83d73",
    "0x5f1e689265110667da8872929ff97cae88ee6a16fac9441489939c54c882db95"
  ],
  "returns": {},
  "timestamp": 1760967859642,
  "chain": 84532,
  "commit": "11bb562"
}