{
  "transactions": [
    {
      "hash": "0x36fd8be85aebc3b9d5c5a214121833490b790e7b897b3f85d2adbdd209644de8",
      "transactionType": "CALL",
      "contractName": null,
      "contractAddress": "0x88f3bbca0ad217de7286c74c061652de40e26104",
      "function": "setYieldConfig(address,address,address,bool,uint256)",
      "arguments": [
        "0xAee2A87701aFEF956473d547bD02cD736729D8a7",
        "0x1fE9A4E25cAA2a22FC0B61010fDB0DB462FB5b29",
        "0x3f6b98B139482EF9c9d59E6311fECaF4D7854163",
        "true",
        "0"
      ],
      "transaction": {
        "from": "0x1234562eb0cd65e7d08e59f9f18d7c10b5df232a",
        "to": "0x88f3bbca0ad217de7286c74c061652de40e26104",
        "gas": "0xce5d",
        "value": "0x0",
        "input": "0x0dfc76fa000000000000000000000000aee2a87701afef956473d547bd02cd736729d8a70000000000000000000000001fe9a4e25caa2a22fc0b61010fdb0db462fb5b290000000000000000000000003f6b98b139482ef9c9d59e6311fecaf4d785416300000000000000000000000000000000000000000000000000000000000000010000000000000000000000000000000000000000000000000000000000000000",
        "nonce": "0x1c7",
        "chainId": "0x14a34"
      },
      "additionalContracts": [],
      "isFixedGasLimit": false
    },
    {
      "hash": "0x3f2fa27f8f5ba99c8fe42238974581366656e2342348c0bc60737a0f07175f13",
      "transactionType": "CALL",
      "contractName": null,
      "contractAddress": "0x88f3bbca0ad217de7286c74c061652de40e26104",
      "function": "setYieldConfig(address,address,address,bool,uint256)",
      "arguments": [
        "0x6aaBE7258f09474e62E8BebB1cf90E15fbAAF777",
        "0x5e1E8043381F3A21a1A64f46073daF7E74fEdC1E",
        "0x3f6b98B139482EF9c9d59E6311fECaF4D7854163",
        "true",
        "0"
      ],
      "transaction": {
        "from": "0x1234562eb0cd65e7d08e59f9f18d7c10b5df232a",
        "to": "0x88f3bbca0ad217de7286c74c061652de40e26104",
        "gas": "0xce5d",
        "value": "0x0",
        "input": "0x0dfc76fa0000000000000000000000006aabe7258f09474e62e8bebb1cf90e15fbaaf7770000000000000000000000005e1e8043381f3a21a1a64f46073daf7e74fedc1e0000000000000000000000003f6b98b139482ef9c9d59e6311fecaf4d785416300000000000000000000000000000000000000000000000000000000000000010000000000000000000000000000000000000000000000000000000000000000",
        "nonce": "0x1c8",
        "chainId": "0x14a34"
      },
      "additionalContracts": [],
      "isFixedGasLimit": false
    },
    {
      "hash": "0xcc1d6caf5a53baf65636a4d71e7bff64a99b6bd50efe4147e1d7d2dbef234808",
      "transactionType": "CALL",
      "contractName": null,
      "contractAddress": "0x88f3bbca0ad217de7286c74c061652de40e26104",
      "function": "setYieldConfig(address,address,address,bool,uint256)",
      "arguments": [
        "0x5C70fB2a739e9e7Ad5c4311ABF99E0fB65c07eE9",
        "0x06C1e044D5BEb614faA6128001F519e6c693a044",
        "0x3f6b98B139482EF9c9d59E6311fECaF4D7854163",
        "true",
        "0"
      ],
      "transaction": {
        "from": "0x1234562eb0cd65e7d08e59f9f18d7c10b5df232a",
        "to": "0x88f3bbca0ad217de7286c74c061652de40e26104",
        "gas": "0xce5d",
        "value": "0x0",
        "input": "0x0dfc76fa0000000000000000000000005c70fb2a739e9e7ad5c4311abf99e0fb65c07ee900000000000000000000000006c1e044d5beb614faa6128001f519e6c693a0440000000000000000000000003f6b98b139482ef9c9d59e6311fecaf4d785416300000000000000000000000000000000000000000000000000000000000000010000000000000000000000000000000000000000000000000000000000000000",
        "nonce": "0x1c9",
        "chainId": "0x14a34"
      },
      "additionalContracts": [],
      "isFixedGasLimit": false
    },
    {
      "hash": "0x9fa0edf4c502788cab4207f81ba1a906b9e027d501648254cd1bdb100f0bf697",
      "transactionType": "CALL",
      "contractName": null,
      "contractAddress": "0x88f3bbca0ad217de7286c74c061652de40e26104",
      "function": "setYieldConfig(address,address,address,bool,uint256)",
      "arguments": [
        "0xbB6Dd87f1fe0483d9FFA90f7A163Caf21F40BA6c",
        "0x85B8Dc34C7Af35baC8a45CfF53353f39E6F732A2",
        "0x3f6b98B139482EF9c9d59E6311fECaF4D7854163",
        "true",
        "0"
      ],
      "transaction": {
        "from": "0x1234562eb0cd65e7d08e59f9f18d7c10b5df232a",
        "to": "0x88f3bbca0ad217de7286c74c061652de40e26104",
        "gas": "0xce5d",
        "value": "0x0",
        "input": "0x0dfc76fa000000000000000000000000bb6dd87f1fe0483d9ffa90f7a163caf21f40ba6c00000000000000000000000085b8dc34c7af35bac8a45cff53353f39e6f732a20000000000000000000000003f6b98b139482ef9c9d59e6311fecaf4d785416300000000000000000000000000000000000000000000000000000000000000010000000000000000000000000000000000000000000000000000000000000000",
        "nonce": "0x1ca",
        "chainId": "0x14a34"
      },
      "additionalContracts": [],
      "isFixedGasLimit": false
    },
    {
      "hash": "0x0c465083e38866e0b7486f4738b9aaa3df98dd9c52a58c380d2738b3ae8631b7",
      "transactionType": "CALL",
      "contractName": null,
      "contractAddress": "0x88f3bbca0ad217de7286c74c061652de40e26104",
      "function": "setYieldConfig(address,address,address,bool,uint256)",
      "arguments": [
        "0xcE74630446990AcF6Cd56facBbd6EE908eE55562",
        "0x7392e9E58f202Da3877776c41683AC457DFd4CD7",
        "0x3f6b98B139482EF9c9d59E6311fECaF4D7854163",
        "true",
        "0"
      ],
      "transaction": {
        "from": "0x1234562eb0cd65e7d08e59f9f18d7c10b5df232a",
        "to": "0x88f3bbca0ad217de7286c74c061652de40e26104",
        "gas": "0xce5d",
        "value": "0x0",
        "input": "0x0dfc76fa000000000000000000000000ce74630446990acf6cd56facbbd6ee908ee555620000000000000000000000007392e9e58f202da3877776c41683ac457dfd4cd70000000000000000000000003f6b98b139482ef9c9d59e6311fecaf4d785416300000000000000000000000000000000000000000000000000000000000000010000000000000000000000000000000000000000000000000000000000000000",
        "nonce": "0x1cb",
        "chainId": "0x14a34"
      },
      "additionalContracts": [],
      "isFixedGasLimit": false
    },
    {
      "hash": "0x497a6885201cfa15f40b2a9470479add4a509f5790200b201f68c2f7ec2157f1",
      "transactionType": "CALL",
      "contractName": null,
      "contractAddress": "0x88f3bbca0ad217de7286c74c061652de40e26104",
      "function": "setYieldConfig(address,address,address,bool,uint256)",
      "arguments": [
        "0xdCC41dee829C1246a936dC5E801cB24303445651",
        "0x1fE9A4E25cAA2a22FC0B61010fDB0DB462FB5b29",
        "0xfaD414c9d89B764093D031AC45298d6e443040Fa",
        "true",
        "0"
      ],
      "transaction": {
        "from": "0x1234562eb0cd65e7d08e59f9f18d7c10b5df232a",
        "to": "0x88f3bbca0ad217de7286c74c061652de40e26104",
        "gas": "0xce5d",
        "value": "0x0",
        "input": "0x0dfc76fa000000000000000000000000dcc41dee829c1246a936dc5e801cb243034456510000000000000000000000001fe9a4e25caa2a22fc0b61010fdb0db462fb5b29000000000000000000000000fad414c9d89b764093d031ac45298d6e443040fa00000000000000000000000000000000000000000000000000000000000000010000000000000000000000000000000000000000000000000000000000000000",
        "nonce": "0x1cc",
        "chainId": "0x14a34"
      },
      "additionalContracts": [],
      "isFixedGasLimit": false
    },
    {
      "hash": "0x0a46ab9085bd08741fae8e076813deaae085f9efcf105059880498ca18c72ddb",
      "transactionType": "CALL",
      "contractName": null,
      "contractAddress": "0x88f3bbca0ad217de7286c74c061652de40e26104",
      "function": "setYieldConfig(address,address,address,bool,uint256)",
      "arguments": [
        "0x8f5816ca88ED2775305b154625744E36943Cc750",
        "0x5e1E8043381F3A21a1A64f46073daF7E74fEdC1E",
        "0xfaD414c9d89B764093D031AC45298d6e443040Fa",
        "true",
        "0"
      ],
      "transaction": {
        "from": "0x1234562eb0cd65e7d08e59f9f18d7c10b5df232a",
        "to": "0x88f3bbca0ad217de7286c74c061652de40e26104",
        "gas": "0xce5d",
        "value": "0x0",
        "input": "0x0dfc76fa0000000000000000000000008f5816ca88ed2775305b154625744e36943cc7500000000000000000000000005e1e8043381f3a21a1a64f46073daf7e74fedc1e000000000000000000000000fad414c9d89b764093d031ac45298d6e443040fa00000000000000000000000000000000000000000000000000000000000000010000000000000000000000000000000000000000000000000000000000000000",
        "nonce": "0x1cd",
        "chainId": "0x14a34"
      },
      "additionalContracts": [],
      "isFixedGasLimit": false
    },
    {
      "hash": "0x7d5d9ac4d4240b5019ae130a3a551d0510df6ac6a7db9e686514e6e19101e85f",
      "transactionType": "CALL",
      "contractName": null,
      "contractAddress": "0x88f3bbca0ad217de7286c74c061652de40e26104",
      "function": "setYieldConfig(address,address,address,bool,uint256)",
      "arguments": [
        "0x2BB55f68fb05De13B04e5a2cadbAE5A05bCE277B",
        "0x06C1e044D5BEb614faA6128001F519e6c693a044",
        "0xfaD414c9d89B764093D031AC45298d6e443040Fa",
        "true",
        "0"
      ],
      "transaction": {
        "from": "0x1234562eb0cd65e7d08e59f9f18d7c10b5df232a",
        "to": "0x88f3bbca0ad217de7286c74c061652de40e26104",
        "gas": "0xce5d",
        "value": "0x0",
        "input": "0x0dfc76fa0000000000000000000000002bb55f68fb05de13b04e5a2cadbae5a05bce277b00000000000000000000000006c1e044d5beb614faa6128001f519e6c693a044000000000000000000000000fad414c9d89b764093d031ac45298d6e443040fa00000000000000000000000000000000000000000000000000000000000000010000000000000000000000000000000000000000000000000000000000000000",
        "nonce": "0x1ce",
        "chainId": "0x14a34"
      },
      "additionalContracts": [],
      "isFixedGasLimit": false
    },
    {
      "hash": "0x2896b179578519c2562dd2c6e7c8dc2f81c47e006043e6c3780fa8f511433545",
      "transactionType": "CALL",
      "contractName": null,
      "contractAddress": "0x88f3bbca0ad217de7286c74c061652de40e26104",
      "function": "setYieldConfig(address,address,address,bool,uint256)",
      "arguments": [
        "0xa022FD1966577144fCb5Ed8aD5a134861aE5e138",
        "0x85B8Dc34C7Af35baC8a45CfF53353f39E6F732A2",
        "0xfaD414c9d89B764093D031AC45298d6e443040Fa",
        "true",
        "0"
      ],
      "transaction": {
        "from": "0x1234562eb0cd65e7d08e59f9f18d7c10b5df232a",
        "to": "0x88f3bbca0ad217de7286c74c061652de40e26104",
        "gas": "0xce5d",
        "value": "0x0",
        "input": "0x0dfc76fa000000000000000000000000a022fd1966577144fcb5ed8ad5a134861ae5e13800000000000000000000000085b8dc34c7af35bac8a45cff53353f39e6f732a2000000000000000000000000fad414c9d89b764093d031ac45298d6e443040fa00000000000000000000000000000000000000000000000000000000000000010000000000000000000000000000000000000000000000000000000000000000",
        "nonce": "0x1cf",
        "chainId": "0x14a34"
      },
      "additionalContracts": [],
      "isFixedGasLimit": false
    },
    {
      "hash": "0x5c9cef63c6c0f2da9cb369dfdb6e595899a8a86d9712e9c59fd4a8f8f59dc65f",
      "transactionType": "CALL",
      "contractName": null,
      "contractAddress": "0x88f3bbca0ad217de7286c74c061652de40e26104",
      "function": "setYieldConfig(address,address,address,bool,uint256)",
      "arguments": [
        "0xEC4c46F46191d77C3D8Ba3ddFafe71b58E2089Af",
        "0x7392e9E58f202Da3877776c41683AC457DFd4CD7",
        "0xfaD414c9d89B764093D031AC45298d6e443040Fa",
        "true",
        "0"
      ],
      "transaction": {
        "from": "0x1234562eb0cd65e7d08e59f9f18d7c10b5df232a",
        "to": "0x88f3bbca0ad217de7286c74c061652de40e26104",
        "gas": "0xce5d",
        "value": "0x0",
        "input": "0x0dfc76fa000000000000000000000000ec4c46f46191d77c3d8ba3ddfafe71b58e2089af0000000000000000000000007392e9e58f202da3877776c41683ac457dfd4cd7000000000000000000000000fad414c9d89b764093d031ac45298d6e443040fa00000000000000000000000000000000000000000000000000000000000000010000000000000000000000000000000000000000000000000000000000000000",
        "nonce": "0x1d0",
        "chainId": "0x14a34"
      },
      "additionalContracts": [],
      "isFixedGasLimit": false
    },
    {
      "hash": "0x3eca47b420b58e9b474f364c7058f969a49ba9f55da245ea7d17029852b73a7a",
      "transactionType": "CALL",
      "contractName": null,
      "contractAddress": "0x88f3bbca0ad217de7286c74c061652de40e26104",
      "function": "setYieldConfig(address,address,address,bool,uint256)",
      "arguments": [
        "0xE47Eba0dBf716D99482Fb071ca04aDf4FCCd6b1f",
        "0x1fE9A4E25cAA2a22FC0B61010fDB0DB462FB5b29",
        "0x5f306B7c566BF64D2c199E9451C871855E5b456B",
        "true",
        "0"
      ],
      "transaction": {
        "from": "0x1234562eb0cd65e7d08e59f9f18d7c10b5df232a",
        "to": "0x88f3bbca0ad217de7286c74c061652de40e26104",
        "gas": "0xce5d",
        "value": "0x0",
        "input": "0x0dfc76fa000000000000000000000000e47eba0dbf716d99482fb071ca04adf4fccd6b1f0000000000000000000000001fe9a4e25caa2a22fc0b61010fdb0db462fb5b290000000000000000000000005f306b7c566bf64d2c199e9451c871855e5b456b00000000000000000000000000000000000000000000000000000000000000010000000000000000000000000000000000000000000000000000000000000000",
        "nonce": "0x1d1",
        "chainId": "0x14a34"
      },
      "additionalContracts": [],
      "isFixedGasLimit": false
    },
    {
      "hash": "0xe1d496e6ad397a8c85f06bcb300ccdfebb96ecb53251c1eafac764d41a4ca1a6",
      "transactionType": "CALL",
      "contractName": null,
      "contractAddress": "0x88f3bbca0ad217de7286c74c061652de40e26104",
      "function": "setYieldConfig(address,address,address,bool,uint256)",
      "arguments": [
        "0x4E3A466BbA553Ace4Cd3a6149d574F3f034b5269",
        "0x5e1E8043381F3A21a1A64f46073daF7E74fEdC1E",
        "0x5f306B7c566BF64D2c199E9451C871855E5b456B",
        "true",
        "0"
      ],
      "transaction": {
        "from": "0x1234562eb0cd65e7d08e59f9f18d7c10b5df232a",
        "to": "0x88f3bbca0ad217de7286c74c061652de40e26104",
        "gas": "0xce5d",
        "value": "0x0",
        "input": "0x0dfc76fa0000000000000000000000004e3a466bba553ace4cd3a6149d574f3f034b52690000000000000000000000005e1e8043381f3a21a1a64f46073daf7e74fedc1e0000000000000000000000005f306b7c566bf64d2c199e9451c871855e5b456b00000000000000000000000000000000000000000000000000000000000000010000000000000000000000000000000000000000000000000000000000000000",
        "nonce": "0x1d2",
        "chainId": "0x14a34"
      },
      "additionalContracts": [],
      "isFixedGasLimit": false
    },
    {
      "hash": "0x067a21787b71d3991ad52f0ba056a6256d327c9ea1a0aaf29ff845a1e03cbf8a",
      "transactionType": "CALL",
      "contractName": null,
      "contractAddress": "0x88f3bbca0ad217de7286c74c061652de40e26104",
      "function": "setYieldConfig(address,address,address,bool,uint256)",
      "arguments": [
        "0x751A0E0147d10b8C21804AC88DCfa6837312ea35",
        "0x06C1e044D5BEb614faA6128001F519e6c693a044",
        "0x5f306B7c566BF64D2c199E9451C871855E5b456B",
        "true",
        "0"
      ],
      "transaction": {
        "from": "0x1234562eb0cd65e7d08e59f9f18d7c10b5df232a",
        "to": "0x88f3bbca0ad217de7286c74c061652de40e26104",
        "gas": "0x1a51b",
        "value": "0x0",
        "input": "0x0dfc76fa000000000000000000000000751a0e0147d10b8c21804ac88dcfa6837312ea3500000000000000000000000006c1e044d5beb614faa6128001f519e6c693a0440000000000000000000000005f306b7c566bf64d2c199e9451c871855e5b456b00000000000000000000000000000000000000000000000000000000000000010000000000000000000000000000000000000000000000000000000000000000",
        "nonce": "0x1d3",
        "chainId": "0x14a34"
      },
      "additionalContracts": [],
      "isFixedGasLimit": false
    },
    {
      "hash": "0x2a01c03c47068bbf6f79a1068668139d7064b2cb9a160458f9d807478a30db79",
      "transactionType": "CALL",
      "contractName": null,
      "contractAddress": "0x88f3bbca0ad217de7286c74c061652de40e26104",
      "function": "setYieldConfig(address,address,address,bool,uint256)",
      "arguments": [
        "0xD8D362BADb84Cc1F97a00273ddC8845FD4148C80",
        "0x85B8Dc34C7Af35baC8a45CfF53353f39E6F732A2",
        "0x5f306B7c566BF64D2c199E9451C871855E5b456B",
        "true",
        "0"
      ],
      "transaction": {
        "from": "0x1234562eb0cd65e7d08e59f9f18d7c10b5df232a",
        "to": "0x88f3bbca0ad217de7286c74c061652de40e26104",
        "gas": "0x1a51b",
        "value": "0x0",
        "input": "0x0dfc76fa000000000000000000000000d8d362badb84cc1f97a00273ddc8845fd4148c8000000000000000000000000085b8dc34c7af35bac8a45cff53353f39e6f732a20000000000000000000000005f306b7c566bf64d2c199e9451c871855e5b456b00000000000000000000000000000000000000000000000000000000000000010000000000000000000000000000000000000000000000000000000000000000",
        "nonce": "0x1d4",
        "chainId": "0x14a34"
      },
      "additionalContracts": [],
      "isFixedGasLimit": false
    },
    {
      "hash": "0xbefd68e4f65754874a38aa7e3ef4fd7e67bb4eab5a9b1f362bcb9b825799dc75",
      "transactionType": "CALL",
      "contractName": null,
      "contractAddress": "0x88f3bbca0ad217de7286c74c061652de40e26104",
      "function": "setYieldConfig(address,address,address,bool,uint256)",
      "arguments": [
        "0x1061473A78f6eb0a0BcBDE060a5EeA9d4273BB59",
        "0x7392e9E58f202Da3877776c41683AC457DFd4CD7",
        "0x5f306B7c566BF64D2c199E9451C871855E5b456B",
        "true",
        "0"
      ],
      "transaction": {
        "from": "0x1234562eb0cd65e7d08e59f9f18d7c10b5df232a",
        "to": "0x88f3bbca0ad217de7286c74c061652de40e26104",
        "gas": "0x1a51b",
        "value": "0x0",
        "input": "0x0dfc76fa0000000000000000000000001061473a78f6eb0a0bcbde060a5eea9d4273bb590000000000000000000000007392e9e58f202da3877776c41683ac457dfd4cd70000000000000000000000005f306b7c566bf64d2c199e9451c871855e5b456b00000000000000000000000000000000000000000000000000000000000000010000000000000000000000000000000000000000000000000000000000000000",
        "nonce": "0x1d5",
        "chainId": "0x14a34"
      },
      "additionalContracts": [],
      "isFixedGasLimit": false
    },
    {
      "hash": "0x88191adb8f259d58ab430c0766742dc58be7076ba8b957ca6938daeef988ff2c",
      "transactionType": "CALL",
      "contractName": null,
      "contractAddress": "0x88f3bbca0ad217de7286c74c061652de40e26104",
      "function": "setYieldConfig(address,address,address,bool,uint256)",
      "arguments": [
        "0x824FB936D24B2BAaF92Fe87FD65fF22d01439ECE",
        "0x1fE9A4E25cAA2a22FC0B61010fDB0DB462FB5b29",
        "0x0FbC93fcfbCda63797E0f819195f79AA2E2bA478",
        "true",
        "0"
      ],
      "transaction": {
        "from": "0x1234562eb0cd65e7d08e59f9f18d7c10b5df232a",
        "to": "0x88f3bbca0ad217de7286c74c061652de40e26104",
        "gas": "0x1a51b",
        "value": "0x0",
        "input": "0x0dfc76fa000000000000000000000000824fb936d24b2baaf92fe87fd65ff22d01439ece0000000000000000000000001fe9a4e25caa2a22fc0b61010fdb0db462fb5b290000000000000000000000000fbc93fcfbcda63797e0f819195f79aa2e2ba47800000000000000000000000000000000000000000000000000000000000000010000000000000000000000000000000000000000000000000000000000000000",
        "nonce": "0x1d6",
        "chainId": "0x14a34"
      },
      "additionalContracts": [],
      "isFixedGasLimit": false
    },
    {
      "hash": "0x5eeb02c2d3d710dd0e8a2201178157eb3ac0c9f0a34ad55efd26e59d44a636ed",
      "transactionType": "CALL",
      "contractName": null,
      "contractAddress": "0x88f3bbca0ad217de7286c74c061652de40e26104",
      "function": "setYieldConfig(address,address,address,bool,uint256)",
      "arguments": [
        "0x012bd7CD0AcC8cB696306B1aB7a537E85eF2056f",
        "0x5e1E8043381F3A21a1A64f46073daF7E74fEdC1E",
        "0x0FbC93fcfbCda63797E0f819195f79AA2E2bA478",
        "true",
        "0"
      ],
      "transaction": {
        "from": "0x1234562eb0cd65e7d08e59f9f18d7c10b5df232a",
        "to": "0x88f3bbca0ad217de7286c74c061652de40e26104",
        "gas": "0x1a51b",
        "value": "0x0",
        "input": "0x0dfc76fa000000000000000000000000012bd7cd0acc8cb696306b1ab7a537e85ef2056f0000000000000000000000005e1e8043381f3a21a1a64f46073daf7e74fedc1e0000000000000000000000000fbc93fcfbcda63797e0f819195f79aa2e2ba47800000000000000000000000000000000000000000000000000000000000000010000000000000000000000000000000000000000000000000000000000000000",
        "nonce": "0x1d7",
        "chainId": "0x14a34"
      },
      "additionalContracts": [],
      "isFixedGasLimit": false
    },
    {
      "hash": "0x017262a95eb8a7c9820fd302a7fd3a2a89e6c4611fa26e78ae2c39c76bf6db9c",
      "transactionType": "CALL",
      "contractName": null,
      "contractAddress": "0x88f3bbca0ad217de7286c74c061652de40e26104",
      "function": "setYieldConfig(address,address,address,bool,uint256)",
      "arguments": [
        "0x4d8346F2F33FFBc7fa2E46bECF83C978943e69C8",
        "0x06C1e044D5BEb614faA6128001F519e6c693a044",
        "0x0FbC93fcfbCda63797E0f819195f79AA2E2bA478",
        "true",
        "0"
      ],
      "transaction": {
        "from": "0x1234562eb0cd65e7d08e59f9f18d7c10b5df232a",
        "to": "0x88f3bbca0ad217de7286c74c061652de40e26104",
        "gas": "0x1a51b",
        "value": "0x0",
        "input": "0x0dfc76fa0000000000000000000000004d8346f2f33ffbc7fa2e46becf83c978943e69c800000000000000000000000006c1e044d5beb614faa6128001f519e6c693a0440000000000000000000000000fbc93fcfbcda63797e0f819195f79aa2e2ba47800000000000000000000000000000000000000000000000000000000000000010000000000000000000000000000000000000000000000000000000000000000",
        "nonce": "0x1d8",
        "chainId": "0x14a34"
      },
      "additionalContracts": [],
      "isFixedGasLimit": false
    },
    {
      "hash": "0x6ff02f4c660b2a5f2cf6c155d3792dd678dc179274279dd00997bdb63fdacf82",
      "transactionType": "CALL",
      "contractName": null,
      "contractAddress": "0x88f3bbca0ad217de7286c74c061652de40e26104",
      "function": "setYieldConfig(address,address,address,bool,uint256)",
      "arguments": [
        "0x2db087D43Fc8402aDE0706807d32d6EF72411ebd",
        "0x85B8Dc34C7Af35baC8a45CfF53353f39E6F732A2",
        "0x0FbC93fcfbCda63797E0f819195f79AA2E2bA478",
        "true",
        "0"
      ],
      "transaction": {
        "from": "0x1234562eb0cd65e7d08e59f9f18d7c10b5df232a",
        "to": "0x88f3bbca0ad217de7286c74c061652de40e26104",
        "gas": "0x1a51b",
        "value": "0x0",
        "input": "0x0dfc76fa0000000000000000000000002db087d43fc8402ade0706807d32d6ef72411ebd00000000000000000000000085b8dc34c7af35bac8a45cff53353f39e6f732a20000000000000000000000000fbc93fcfbcda63797e0f819195f79aa2e2ba47800000000000000000000000000000000000000000000000000000000000000010000000000000000000000000000000000000000000000000000000000000000",
        "nonce": "0x1d9",
        "chainId": "0x14a34"
      },
      "additionalContracts": [],
      "isFixedGasLimit": false
    },
    {
      "hash": "0x0d88117a0dc530b403f8b0bfb9f73354c5a56c07453334e6302cf7cd18a62be3",
      "transactionType": "CALL",
      "contractName": null,
      "contractAddress": "0x88f3bbca0ad217de7286c74c061652de40e26104",
      "function": "setYieldConfig(address,address,address,bool,uint256)",
      "arguments": [
        "0xD14bD87b18dA3Ec84a9e098DF1c808d9cb7a9852",
        "0x7392e9E58f202Da3877776c41683AC457DFd4CD7",
        "0x0FbC93fcfbCda63797E0f819195f79AA2E2bA478",
        "true",
        "0"
      ],
      "transaction": {
        "from": "0x1234562eb0cd65e7d08e59f9f18d7c10b5df232a",
        "to": "0x88f3bbca0ad217de7286c74c061652de40e26104",
        "gas": "0x1a51b",
        "value": "0x0",
        "input": "0x0dfc76fa000000000000000000000000d14bd87b18da3ec84a9e098df1c808d9cb7a98520000000000000000000000007392e9e58f202da3877776c41683ac457dfd4cd70000000000000000000000000fbc93fcfbcda63797e0f819195f79aa2e2ba47800000000000000000000000000000000000000000000000000000000000000010000000000000000000000000000000000000000000000000000000000000000",
        "nonce": "0x1da",
        "chainId": "0x14a34"
      },
      "additionalContracts": [],
      "isFixedGasLimit": false
    }
  ],
  "receipts": [
    {
      "status": "0x1",
      "cumulativeGasUsed": "0x6056a7",
      "logs": [
        {
          "address": "0x88f3bbca0ad217de7286c74c061652de40e26104",
          "topics": [
            "0x682e752f2001b067baf47a9aec7e8c06bc0f88a7eafd006abe13c09defb2b73a",
            "0x000000000000000000000000aee2a87701afef956473d547bd02cd736729d8a7",
            "0x0000000000000000000000001fe9a4e25caa2a22fc0b61010fdb0db462fb5b29",
            "0x0000000000000000000000003f6b98b139482ef9c9d59e6311fecaf4d7854163"
          ],
          "data": "0x00000000000000000000000000000000000000000000000000000000000000010000000000000000000000000000000000000000000000000000000000000000",
          "blockHash": "0x47ac33d0904b3d5b0198cbec5310bef6a6bb7149275e959cf0b2f673adac20d6",
          "blockNumber": "0x1f16f10",
          "blockTimestamp": "0x68f63d00",
          "transactionHash": "0x36fd8be85aebc3b9d5c5a214121833490b790e7b897b3f85d2adbdd209644de8",
          "transactionIndex": "0x11",
          "logIndex": "0x45",
          "removed": false
        }
      ],
      "logsBloom": "0x00000000000000000000000000000000000000000000000000008000000000000000000000000000000000000000000000000000000000000000000000000001000000000000000000000080000000000000000000000000000000000000000000000000000000000000000000000000000000000000000000000000000000000000000000000020000000000010000000000000200000000000000000000000001000000000000000000000000000000000000000000000001000000000000000000000000000002000000000008000000000000000000000000000000000000000000000000000100100000000000080000000001400000000000000000000",
      "type": "0x2",
      "transactionHash": "0x36fd8be85aebc3b9d5c5a214121833490b790e7b897b3f85d2adbdd209644de8",
      "transactionIndex": "0x11",
      "blockHash": "0x47ac33d0904b3d5b0198cbec5310bef6a6bb7149275e959cf0b2f673adac20d6",
      "blockNumber": "0x1f16f10",
      "gasUsed": "0x9568",
      "effectiveGasPrice": "0xf4284",
      "from": "0x1234562eb0cd65e7d08e59f9f18d7c10b5df232a",
      "to": "0x88f3bbca0ad217de7286c74c061652de40e26104",
      "contractAddress": null,
      "l1BaseFeeScalar": "0x44d",
      "l1BlobBaseFee": "0x3be28f6",
      "l1BlobBaseFeeScalar": "0xa118b",
      "l1Fee": "0x14edd1c6f",
      "l1GasPrice": "0x9",
      "l1GasUsed": "0x879"
    },
    {
      "status": "0x1",
      "cumulativeGasUsed": "0x618492",
      "logs": [
        {
          "address": "0x88f3bbca0ad217de7286c74c061652de40e26104",
          "topics": [
            "0x682e752f2001b067baf47a9aec7e8c06bc0f88a7eafd006abe13c09defb2b73a",
            "0x0000000000000000000000006aabe7258f09474e62e8bebb1cf90e15fbaaf777",
            "0x0000000000000000000000005e1e8043381f3a21a1a64f46073daf7e74fedc1e",
            "0x0000000000000000000000003f6b98b139482ef9c9d59e6311fecaf4d7854163"
          ],
          "data": "0x00000000000000000000000000000000000000000000000000000000000000010000000000000000000000000000000000000000000000000000000000000000",
          "blockHash": "0x47ac33d0904b3d5b0198cbec5310bef6a6bb7149275e959cf0b2f673adac20d6",
          "blockNumber": "0x1f16f10",
          "blockTimestamp": "0x68f63d00",
          "transactionHash": "0x3f2fa27f8f5ba99c8fe42238974581366656e2342348c0bc60737a0f07175f13",
          "transactionIndex": "0x13",
          "logIndex": "0x47",
          "removed": false
        }
      ],
      "logsBloom": "0x00000000000000000000000000000000000000000000000000000000000000000000000000000000000000000000000000000000000000000000000000000000004000000000040000000000000000100000000000000000000000000000000000000000000000000000000000000000000000000000000000000000000000000000000020000000000000000010000000000000200000000000000000000000001000000000000000000000000000000000000000000000001000000000000000000020000000000000000000008000000000000000000000000000000000000000000000000000100000000000000081000000001400000000000000000000",
      "type": "0x2",
      "transactionHash": "0x3f2fa27f8f5ba99c8fe42238974581366656e2342348c0bc60737a0f07175f13",
      "transactionIndex": "0x13",
      "blockHash": "0x47ac33d0904b3d5b0198cbec5310bef6a6bb7149275e959cf0b2f673adac20d6",
      "blockNumber": "0x1f16f10",
      "gasUsed": "0x9568",
      "effectiveGasPrice": "0xf4284",
      "from": "0x1234562eb0cd65e7d08e59f9f18d7c10b5df232a",
      "to": "0x88f3bbca0ad217de7286c74c061652de40e26104",
      "contractAddress": null,
      "l1BaseFeeScalar": "0x44d",
      "l1BlobBaseFee": "0x3be28f6",
      "l1BlobBaseFeeScalar": "0xa118b",
      "l1Fee": "0x14edd1c6f",
      "l1GasPrice": "0x9",
      "l1GasUsed": "0x879"
    },
    {
      "status": "0x1",
      "cumulativeGasUsed": "0x6219fa",
      "logs": [
        {
          "address": "0x88f3bbca0ad217de7286c74c061652de40e26104",
          "topics": [
            "0x682e752f2001b067baf47a9aec7e8c06bc0f88a7eafd006abe13c09defb2b73a",
            "0x0000000000000000000000005c70fb2a739e9e7ad5c4311abf99e0fb65c07ee9",
            "0x00000000000000000000000006c1e044d5beb614faa6128001f519e6c693a044",
            "0x0000000000000000000000003f6b98b139482ef9c9d59e6311fecaf4d7854163"
          ],
          "data": "0x00000000000000000000000000000000000000000000000000000000000000010000000000000000000000000000000000000000000000000000000000000000",
          "blockHash": "0x47ac33d0904b3d5b0198cbec5310bef6a6bb7149275e959cf0b2f673adac20d6",
          "blockNumber": "0x1f16f10",
          "blockTimestamp": "0x68f63d00",
          "transactionHash": "0xcc1d6caf5a53baf65636a4d71e7bff64a99b6bd50efe4147e1d7d2dbef234808",
          "transactionIndex": "0x14",
          "logIndex": "0x48",
          "removed": false
        }
      ],
      "logsBloom": "0x00000000000000010000000000000000000000800000000000000000000000000000000000000000000000000000000000000000000000000000000000000000000000000000000000000000000000000000000000000000000000000000000000000000000000000000000000000000000000000000000000000000000000000000000000000000000000000010080000000000200000000000000000000000001000000000000000000000000000000000000008000000001000000000000000000000000000000000000000008000000000000000000000000000000000000000000000000000100000000000000080000000041400000000000000000000",
      "type": "0x2",
      "transactionHash": "0xcc1d6caf5a53baf65636a4d71e7bff64a99b6bd50efe4147e1d7d2dbef234808",
      "transactionIndex": "0x14",
      "blockHash": "0x47ac33d0904b3d5b0198cbec5310bef6a6bb7149275e959cf0b2f673adac20d6",
      "blockNumber": "0x1f16f10",
      "gasUsed": "0x9568",
      "effectiveGasPrice": "0xf4284",
      "from": "0x1234562eb0cd65e7d08e59f9f18d7c10b5df232a",
      "to": "0x88f3bbca0ad217de7286c74c061652de40e26104",
      "contractAddress": null,
      "l1BaseFeeScalar": "0x44d",
      "l1BlobBaseFee": "0x3be28f6",
      "l1BlobBaseFeeScalar": "0xa118b",
      "l1Fee": "0x14edd1c6f",
      "l1GasPrice": "0x9",
      "l1GasUsed": "0x879"
    },
    {
      "status": "0x1",
      "cumulativeGasUsed": "0x62af62",
      "logs": [
        {
          "address": "0x88f3bbca0ad217de7286c74c061652de40e26104",
          "topics": [
            "0x682e752f2001b067baf47a9aec7e8c06bc0f88a7eafd006abe13c09defb2b73a",
            "0x000000000000000000000000bb6dd87f1fe0483d9ffa90f7a163caf21f40ba6c",
            "0x00000000000000000000000085b8dc34c7af35bac8a45cff53353f39e6f732a2",
            "0x0000000000000000000000003f6b98b139482ef9c9d59e6311fecaf4d7854163"
          ],
          "data": "0x00000000000000000000000000000000000000000000000000000000000000010000000000000000000000000000000000000000000000000000000000000000",
          "blockHash": "0x47ac33d0904b3d5b0198cbec5310bef6a6bb7149275e959cf0b2f673adac20d6",
          "blockNumber": "0x1f16f10",
          "blockTimestamp": "0x68f63d00",
          "transactionHash": "0x9fa0edf4c502788cab4207f81ba1a906b9e027d501648254cd1bdb100f0bf697",
          "transactionIndex": "0x15",
          "logIndex": "0x49",
          "removed": false
        }
      ],
      "logsBloom": "0x00000000000000000000000000000000000000000000000000000000000000000000000000000000000040000000000000000000000000000000000000000000000000000010000000000000000000000000000000000000000000000000000000040000000000000000000000000000000000000000000000000000000000000000000000000000008000000010000000040000200000000000000000000000001000000000000000000000000000000000000000000000001000000000000000000000000000000000000000008000000000000000000001000000000000000000000000000000100000000000000080000000001400000000000000000000",
      "type": "0x2",
      "transactionHash": "0x9fa0edf4c502788cab4207f81ba1a906b9e027d501648254cd1bdb100f0bf697",
      "transactionIndex": "0x15",
      "blockHash": "0x47ac33d0904b3d5b0198cbec5310bef6a6bb7149275e959cf0b2f673adac20d6",
      "blockNumber": "0x1f16f10",
      "gasUsed": "0x9568",
      "effectiveGasPrice": "0xf4284",
      "from": "0x1234562eb0cd65e7d08e59f9f18d7c10b5df232a",
      "to": "0x88f3bbca0ad217de7286c74c061652de40e26104",
      "contractAddress": null,
      "l1BaseFeeScalar": "0x44d",
      "l1BlobBaseFee": "0x3be28f6",
      "l1BlobBaseFeeScalar": "0xa118b",
      "l1Fee": "0x14edd1c6f",
      "l1GasPrice": "0x9",
      "l1GasUsed": "0x879"
    },
    {
      "status": "0x1",
      "cumulativeGasUsed": "0x6344ca",
      "logs": [
        {
          "address": "0x88f3bbca0ad217de7286c74c061652de40e26104",
          "topics": [
            "0x682e752f2001b067baf47a9aec7e8c06bc0f88a7eafd006abe13c09defb2b73a",
            "0x000000000000000000000000ce74630446990acf6cd56facbbd6ee908ee55562",
            "0x0000000000000000000000007392e9e58f202da3877776c41683ac457dfd4cd7",
            "0x0000000000000000000000003f6b98b139482ef9c9d59e6311fecaf4d7854163"
          ],
          "data": "0x00000000000000000000000000000000000000000000000000000000000000010000000000000000000000000000000000000000000000000000000000000000",
          "blockHash": "0x47ac33d0904b3d5b0198cbec5310bef6a6bb7149275e959cf0b2f673adac20d6",
          "blockNumber": "0x1f16f10",
          "blockTimestamp": "0x68f63d00",
          "transactionHash": "0x0c465083e38866e0b7486f4738b9aaa3df98dd9c52a58c380d2738b3ae8631b7",
          "transactionIndex": "0x16",
          "logIndex": "0x4a",
          "removed": false
        }
      ],
      "logsBloom": "0x00000000000000000000000000000000000000000000000000000000000000000000000000000000000000000000000000000000000000000000000000000000000000000000000000000000000000000000000000000000000000000000000000000000000000000000000000000000000000000000000000000000000000000000008000000000000000000010000000000000200000000000000000000000001000000000000000000000000000000000000000000000001000000000000000000000001000000000000000008100000000000000000000000000000000000000000000200000100000000000000080000000001408000000004000000000",
      "type": "0x2",
      "transactionHash": "0x0c465083e38866e0b7486f4738b9aaa3df98dd9c52a58c380d2738b3ae8631b7",
      "transactionIndex": "0x16",
      "blockHash": "0x47ac33d0904b3d5b0198cbec5310bef6a6bb7149275e959cf0b2f673adac20d6",
      "blockNumber": "0x1f16f10",
      "gasUsed": "0x9568",
      "effectiveGasPrice": "0xf4284",
      "from": "0x1234562eb0cd65e7d08e59f9f18d7c10b5df232a",
      "to": "0x88f3bbca0ad217de7286c74c061652de40e26104",
      "contractAddress": null,
      "l1BaseFeeScalar": "0x44d",
      "l1BlobBaseFee": "0x3be28f6",
      "l1BlobBaseFeeScalar": "0xa118b",
      "l1Fee": "0x14edd1c6f",
      "l1GasPrice": "0x9",
      "l1GasUsed": "0x879"
    },
    {
      "status": "0x1",
      "cumulativeGasUsed": "0x63da32",
      "logs": [
        {
          "address": "0x88f3bbca0ad217de7286c74c061652de40e26104",
          "topics": [
            "0x682e752f2001b067baf47a9aec7e8c06bc0f88a7eafd006abe13c09defb2b73a",
            "0x000000000000000000000000dcc41dee829c1246a936dc5e801cb24303445651",
            "0x0000000000000000000000001fe9a4e25caa2a22fc0b61010fdb0db462fb5b29",
            "0x000000000000000000000000fad414c9d89b764093d031ac45298d6e443040fa"
          ],
          "data": "0x00000000000000000000000000000000000000000000000000000000000000010000000000000000000000000000000000000000000000000000000000000000",
          "blockHash": "0x47ac33d0904b3d5b0198cbec5310bef6a6bb7149275e959cf0b2f673adac20d6",
          "blockNumber": "0x1f16f10",
          "blockTimestamp": "0x68f63d00",
          "transactionHash": "0x497a6885201cfa15f40b2a9470479add4a509f5790200b201f68c2f7ec2157f1",
          "transactionIndex": "0x17",
          "logIndex": "0x4b",
          "removed": false
        }
      ],
      "logsBloom": "0x00000000000000000000000000000000000000000080000000008000000000000000000000000000000000000000000000000000000000000000004000000001000000000000000000000080000000000000000000000000000000000000000000000000000000000000000000000000000000000000000000000000000000000000000000000000000000000010000000000000200000000000000000000000000000000000000000000000000000000000000000000000001000000000000000000000000000000000000000108000000000000000000000000000000000000400040000000000100000000000000080000004000000000000000000000000",
      "type": "0x2",
      "transactionHash": "0x497a6885201cfa15f40b2a9470479add4a509f5790200b201f68c2f7ec2157f1",
      "transactionIndex": "0x17",
      "blockHash": "0x47ac33d0904b3d5b0198cbec5310bef6a6bb7149275e959cf0b2f673adac20d6",
      "blockNumber": "0x1f16f10",
      "gasUsed": "0x9568",
      "effectiveGasPrice": "0xf4284",
      "from": "0x1234562eb0cd65e7d08e59f9f18d7c10b5df232a",
      "to": "0x88f3bbca0ad217de7286c74c061652de40e26104",
      "contractAddress": null,
      "l1BaseFeeScalar": "0x44d",
      "l1BlobBaseFee": "0x3be28f6",
      "l1BlobBaseFeeScalar": "0xa118b",
      "l1Fee": "0x14ccc3d6c",
      "l1GasPrice": "0x9",
      "l1GasUsed": "0x86c"
    },
    {
      "status": "0x1",
      "cumulativeGasUsed": "0x646f9a",
      "logs": [
        {
          "address": "0x88f3bbca0ad217de7286c74c061652de40e26104",
          "topics": [
            "0x682e752f2001b067baf47a9aec7e8c06bc0f88a7eafd006abe13c09defb2b73a",
            "0x0000000000000000000000008f5816ca88ed2775305b154625744e36943cc750",
            "0x0000000000000000000000005e1e8043381f3a21a1a64f46073daf7e74fedc1e",
            "0x000000000000000000000000fad414c9d89b764093d031ac45298d6e443040fa"
          ],
          "data": "0x00000000000000000000000000000000000000000000000000000000000000010000000000000000000000000000000000000000000000000000000000000000",
          "blockHash": "0x47ac33d0904b3d5b0198cbec5310bef6a6bb7149275e959cf0b2f673adac20d6",
          "blockNumber": "0x1f16f10",
          "blockTimestamp": "0x68f63d00",
          "transactionHash": "0x0a46ab9085bd08741fae8e076813deaae085f9efcf105059880498ca18c72ddb",
          "transactionIndex": "0x18",
          "logIndex": "0x4c",
          "removed": false
        }
      ],
      "logsBloom": "0x00000000000000000000000000000000000000001080000000000000000000000000000000000000000000000000000000000000000000000000000000000000000000000000040000000000000000000000000000000040000000000000000000000000000000000000000000000000000000000000000000000000000000000000000000000000000000000010000000000000200000000000000000000000000000000000000000000000000000000000080000000000001000000000000000000020000000000000000000108000000000000000000000000000000000000000000000000000100000000000000081000004000000000000000000000000",
      "type": "0x2",
      "transactionHash": "0x0a46ab9085bd08741fae8e076813deaae085f9efcf105059880498ca18c72ddb",
      "transactionIndex": "0x18",
      "blockHash": "0x47ac33d0904b3d5b0198cbec5310bef6a6bb7149275e959cf0b2f673adac20d6",
      "blockNumber": "0x1f16f10",
      "gasUsed": "0x9568",
      "effectiveGasPrice": "0xf4284",
      "from": "0x1234562eb0cd65e7d08e59f9f18d7c10b5df232a",
      "to": "0x88f3bbca0ad217de7286c74c061652de40e26104",
      "contractAddress": null,
      "l1BaseFeeScalar": "0x44d",
      "l1BlobBaseFee": "0x3be28f6",
      "l1BlobBaseFeeScalar": "0xa118b",
      "l1Fee": "0x14ccc3d6c",
      "l1GasPrice": "0x9",
      "l1GasUsed": "0x86c"
    },
    {
      "status": "0x1",
      "cumulativeGasUsed": "0x7045b6",
      "logs": [
        {
          "address": "0x88f3bbca0ad217de7286c74c061652de40e26104",
          "topics": [
            "0x682e752f2001b067baf47a9aec7e8c06bc0f88a7eafd006abe13c09defb2b73a",
            "0x0000000000000000000000002bb55f68fb05de13b04e5a2cadbae5a05bce277b",
            "0x00000000000000000000000006c1e044d5beb614faa6128001f519e6c693a044",
            "0x000000000000000000000000fad414c9d89b764093d031ac45298d6e443040fa"
          ],
          "data": "0x00000000000000000000000000000000000000000000000000000000000000010000000000000000000000000000000000000000000000000000000000000000",
          "blockHash": "0x47ac33d0904b3d5b0198cbec5310bef6a6bb7149275e959cf0b2f673adac20d6",
          "blockNumber": "0x1f16f10",
          "blockTimestamp": "0x68f63d00",
          "transactionHash": "0x7d5d9ac4d4240b5019ae130a3a551d0510df6ac6a7db9e686514e6e19101e85f",
          "transactionIndex": "0x20",
          "logIndex": "0x56",
          "removed": false
        }
      ],
      "logsBloom": "0x00000000000000010000000000000004000000800080000000000000000000000000000000000000000000000000000000000000000000000000000000000000000000000000000000000000000000000000000000000000000000000000000000000000000000000000000000000000000000000001000000000000000000000000000000000000000000000010000000000000200000000000000000000000000000000000000000000000000000000000000000000000001000000000000000000000000000000000000000108000000000000000000000002000000000000000000000000000100000000000000080000004040000000000000000000000",
      "type": "0x2",
      "transactionHash": "0x7d5d9ac4d4240b5019ae130a3a551d0510df6ac6a7db9e686514e6e19101e85f",
      "transactionIndex": "0x20",
      "blockHash": "0x47ac33d0904b3d5b0198cbec5310bef6a6bb7149275e959cf0b2f673adac20d6",
      "blockNumber": "0x1f16f10",
      "gasUsed": "0x9568",
      "effectiveGasPrice": "0xf4284",
      "from": "0x1234562eb0cd65e7d08e59f9f18d7c10b5df232a",
      "to": "0x88f3bbca0ad217de7286c74c061652de40e26104",
      "contractAddress": null,
      "l1BaseFeeScalar": "0x44d",
      "l1BlobBaseFee": "0x3be28f6",
      "l1BlobBaseFeeScalar": "0xa118b",
      "l1Fee": "0x14ccc3d6c",
      "l1GasPrice": "0x9",
      "l1GasUsed": "0x86c"
    },
    {
      "status": "0x1",
      "cumulativeGasUsed": "0x72137d",
      "logs": [
        {
          "address": "0x88f3bbca0ad217de7286c74c061652de40e26104",
          "topics": [
            "0x682e752f2001b067baf47a9aec7e8c06bc0f88a7eafd006abe13c09defb2b73a",
            "0x000000000000000000000000a022fd1966577144fcb5ed8ad5a134861ae5e138",
            "0x00000000000000000000000085b8dc34c7af35bac8a45cff53353f39e6f732a2",
            "0x000000000000000000000000fad414c9d89b764093d031ac45298d6e443040fa"
          ],
          "data": "0x00000000000000000000000000000000000000000000000000000000000000010000000000000000000000000000000000000000000000000000000000000000",
          "blockHash": "0x47ac33d0904b3d5b0198cbec5310bef6a6bb7149275e959cf0b2f673adac20d6",
          "blockNumber": "0x1f16f10",
          "blockTimestamp": "0x68f63d00",
          "transactionHash": "0x2896b179578519c2562dd2c6e7c8dc2f81c47e006043e6c3780fa8f511433545",
          "transactionIndex": "0x23",
          "logIndex": "0x58",
          "removed": false
        }
      ],
      "logsBloom": "0x00000000000000000000000000000000000000000080000000000000000000000000000000000000000000000000000000000000000000000000000000000000000000000000000000000000000000000000000000000000000000010000000000040000000000000000000000000000000000000000000000000000000000000000000000000000000000000010000080040000200000000000000000000000000000000000000000000000000000000000000000000000001000000000000000000000000000000000000000108008000000000000000001000000000000000000000000000000100000000000000080000004000000000000000000000000",
      "type": "0x2",
      "transactionHash": "0x2896b179578519c2562dd2c6e7c8dc2f81c47e006043e6c3780fa8f511433545",
      "transactionIndex": "0x23",
      "blockHash": "0x47ac33d0904b3d5b0198cbec5310bef6a6bb7149275e959cf0b2f673adac20d6",
      "blockNumber": "0x1f16f10",
      "gasUsed": "0x9568",
      "effectiveGasPrice": "0xf4284",
      "from": "0x1234562eb0cd65e7d08e59f9f18d7c10b5df232a",
      "to": "0x88f3bbca0ad217de7286c74c061652de40e26104",
      "contractAddress": null,
      "l1BaseFeeScalar": "0x44d",
      "l1BlobBaseFee": "0x3be28f6",
      "l1BlobBaseFeeScalar": "0xa118b",
      "l1Fee": "0x14ccc3d6c",
      "l1GasPrice": "0x9",
      "l1GasUsed": "0x86c"
    },
    {
      "status": "0x1",
      "cumulativeGasUsed": "0x72a8e5",
      "logs": [
        {
          "address": "0x88f3bbca0ad217de7286c74c061652de40e26104",
          "topics": [
            "0x682e752f2001b067baf47a9aec7e8c06bc0f88a7eafd006abe13c09defb2b73a",
            "0x000000000000000000000000ec4c46f46191d77c3d8ba3ddfafe71b58e2089af",
            "0x0000000000000000000000007392e9e58f202da3877776c41683ac457dfd4cd7",
            "0x000000000000000000000000fad414c9d89b764093d031ac45298d6e443040fa"
          ],
          "data": "0x00000000000000000000000000000000000000000000000000000000000000010000000000000000000000000000000000000000000000000000000000000000",
          "blockHash": "0x47ac33d0904b3d5b0198cbec5310bef6a6bb7149275e959cf0b2f673adac20d6",
          "blockNumber": "0x1f16f10",
          "blockTimestamp": "0x68f63d00",
          "transactionHash": "0x5c9cef63c6c0f2da9cb369dfdb6e595899a8a86d9712e9c59fd4a8f8f59dc65f",
          "transactionIndex": "0x24",
          "logIndex": "0x59",
          "removed": false
        }
      ],
      "logsBloom": "0x00000000000020000000000000000000000000000080000000000001000000000000000000000000000000000000000000000000000000000000000000000000000000000000000000000000000000000000000000000000000000000000000000000000000000000000000000000000000000000000000000000000000000000000000000000000000000000010000000000000200000000000000000000000000000000000000000000000000000000000000000000000001000000000000000000400001000000000000000108100000000000000000000000000000000000000000000000000100000000000000080000004000000000000004000000000",
      "type": "0x2",
      "transactionHash": "0x5c9cef63c6c0f2da9cb369dfdb6e595899a8a86d9712e9c59fd4a8f8f59dc65f",
      "transactionIndex": "0x24",
      "blockHash": "0x47ac33d0904b3d5b0198cbec5310bef6a6bb7149275e959cf0b2f673adac20d6",
      "blockNumber": "0x1f16f10",
      "gasUsed": "0x9568",
      "effectiveGasPrice": "0xf4284",
      "from": "0x1234562eb0cd65e7d08e59f9f18d7c10b5df232a",
      "to": "0x88f3bbca0ad217de7286c74c061652de40e26104",
      "contractAddress": null,
      "l1BaseFeeScalar": "0x44d",
      "l1BlobBaseFee": "0x3be28f6",
      "l1BlobBaseFeeScalar": "0xa118b",
      "l1Fee": "0x14ccc3d6c",
      "l1GasPrice": "0x9",
      "l1GasUsed": "0x86c"
    },
    {
      "status": "0x1",
      "cumulativeGasUsed": "0x733e4d",
      "logs": [
        {
          "address": "0x88f3bbca0ad217de7286c74c061652de40e26104",
          "topics": [
            "0x682e752f2001b067baf47a9aec7e8c06bc0f88a7eafd006abe13c09defb2b73a",
            "0x000000000000000000000000e47eba0dbf716d99482fb071ca04adf4fccd6b1f",
            "0x0000000000000000000000001fe9a4e25caa2a22fc0b61010fdb0db462fb5b29",
            "0x0000000000000000000000005f306b7c566bf64d2c199e9451c871855e5b456b"
          ],
          "data": "0x00000000000000000000000000000000000000000000000000000000000000010000000000000000000000000000000000000000000000000000000000000000",
          "blockHash": "0x47ac33d0904b3d5b0198cbec5310bef6a6bb7149275e959cf0b2f673adac20d6",
          "blockNumber": "0x1f16f10",
          "blockTimestamp": "0x68f63d00",
          "transactionHash": "0x3eca47b420b58e9b474f364c7058f969a49ba9f55da245ea7d17029852b73a7a",
          "transactionIndex": "0x25",
          "logIndex": "0x5a",
          "removed": false
        }
      ],
      "logsBloom": "0x00000000000000000000000000000000000000000000000000008000000000000000000000000000000000004002000000000000000000040000000000000001000000000000000000000080800000000000000000000000000000000000000000000000000000000000000000000000000000000000000000000000000000000000000000000000000000000010000000000000200000000000000000000000000000000000000000000000000000000000000000000000001000000000000800000000000000000000000000008000000000000000000000000000000000000000000000000000100001000000000080000000000000000000000000000000",
      "type": "0x2",
      "transactionHash": "0x3eca47b420b58e9b474f364c7058f969a49ba9f55da245ea7d17029852b73a7a",
      "transactionIndex": "0x25",
      "blockHash": "0x47ac33d0904b3d5b0198cbec5310bef6a6bb7149275e959cf0b2f673adac20d6",
      "blockNumber": "0x1f16f10",
      "gasUsed": "0x9568",
      "effectiveGasPrice": "0xf4284",
      "from": "0x1234562eb0cd65e7d08e59f9f18d7c10b5df232a",
      "to": "0x88f3bbca0ad217de7286c74c061652de40e26104",
      "contractAddress": null,
      "l1BaseFeeScalar": "0x44d",
      "l1BlobBaseFee": "0x3be28f6",
      "l1BlobBaseFeeScalar": "0xa118b",
      "l1Fee": "0x14edd1c6f",
      "l1GasPrice": "0x9",
      "l1GasUsed": "0x879"
    },
    {
      "status": "0x1",
      "cumulativeGasUsed": "0x73d3b5",
      "logs": [
        {
          "address": "0x88f3bbca0ad217de7286c74c061652de40e26104",
          "topics": [
            "0x682e752f2001b067baf47a9aec7e8c06bc0f88a7eafd006abe13c09defb2b73a",
            "0x0000000000000000000000004e3a466bba553ace4cd3a6149d574f3f034b5269",
            "0x0000000000000000000000005e1e8043381f3a21a1a64f46073daf7e74fedc1e",
            "0x0000000000000000000000005f306b7c566bf64d2c199e9451c871855e5b456b"
          ],
          "data": "0x00000000000000000000000000000000000000000000000000000000000000010000000000000000000000000000000000000000000000000000000000000000",
          "blockHash": "0x47ac33d0904b3d5b0198cbec5310bef6a6bb7149275e959cf0b2f673adac20d6",
          "blockNumber": "0x1f16f10",
          "blockTimestamp": "0x68f63d00",
          "transactionHash": "0xe1d496e6ad397a8c85f06bcb300ccdfebb96ecb53251c1eafac764d41a4ca1a6",
          "transactionIndex": "0x26",
          "logIndex": "0x5b",
          "removed": false
        }
      ],
      "logsBloom": "0x00000000000000000000000000000000000000000000000000000000000000000000000000000000000000000000000000000000000000040000000000000000000000000000040000000000000000000000000000000000000000000010000000200000000000000000000000000000000000000000000000000000000000000000000000000000000000000010000000000000200000000000000000000000000000000000000000000000000000000000000001000000001000000000000800000020000000000000000000008000000000000000000000000000000000000000000000000000100001000000000081000000000000000000000000000000",
      "type": "0x2",
      "transactionHash": "0xe1d496e6ad397a8c85f06bcb300ccdfebb96ecb53251c1eafac764d41a4ca1a6",
      "transactionIndex": "0x26",
      "blockHash": "0x47ac33d0904b3d5b0198cbec5310bef6a6bb7149275e959cf0b2f673adac20d6",
      "blockNumber": "0x1f16f10",
      "gasUsed": "0x9568",
      "effectiveGasPrice": "0xf4284",
      "from": "0x1234562eb0cd65e7d08e59f9f18d7c10b5df232a",
      "to": "0x88f3bbca0ad217de7286c74c061652de40e26104",
      "contractAddress": null,
      "l1BaseFeeScalar": "0x44d",
      "l1BlobBaseFee": "0x3be28f6",
      "l1BlobBaseFeeScalar": "0xa118b",
      "l1Fee": "0x14edd1c6f",
      "l1GasPrice": "0x9",
      "l1GasUsed": "0x879"
    },
    {
      "status": "0x1",
      "cumulativeGasUsed": "0x9a6c3f",
      "logs": [
        {
          "address": "0x88f3bbca0ad217de7286c74c061652de40e26104",
          "topics": [
            "0x682e752f2001b067baf47a9aec7e8c06bc0f88a7eafd006abe13c09defb2b73a",
            "0x000000000000000000000000751a0e0147d10b8c21804ac88dcfa6837312ea35",
            "0x00000000000000000000000006c1e044d5beb614faa6128001f519e6c693a044",
            "0x0000000000000000000000005f306b7c566bf64d2c199e9451c871855e5b456b"
          ],
          "data": "0x00000000000000000000000000000000000000000000000000000000000000010000000000000000000000000000000000000000000000000000000000000000",
          "blockHash": "0x47ac33d0904b3d5b0198cbec5310bef6a6bb7149275e959cf0b2f673adac20d6",
          "blockNumber": "0x1f16f10",
          "blockTimestamp": "0x68f63d00",
          "transactionHash": "0x067a21787b71d3991ad52f0ba056a6256d327c9ea1a0aaf29ff845a1e03cbf8a",
          "transactionIndex": "0x41",
          "logIndex": "0xae",
          "removed": false
        }
      ],
      "logsBloom": "0x00000000000000010000000000000000000000800000000000000000000000000000040000000000000000000000000000000000000000040000000000000000000000000000000000000000000000000000000000000000000000000000000000001000000000000000000000000000000000000400000000000000000000000000000000000000000000000010000000000000200000000000000000000000000000000000000000000000000000000000000000000000001000000000000800000000000000000000000000008000000000000000000000000000000000000000000000000000100001000000000080000000040000000000000000000000",
      "type": "0x2",
      "transactionHash": "0x067a21787b71d3991ad52f0ba056a6256d327c9ea1a0aaf29ff845a1e03cbf8a",
      "transactionIndex": "0x41",
      "blockHash": "0x47ac33d0904b3d5b0198cbec5310bef6a6bb7149275e959cf0b2f673adac20d6",
      "blockNumber": "0x1f16f10",
      "gasUsed": "0x130e0",
      "effectiveGasPrice": "0xf4284",
      "from": "0x1234562eb0cd65e7d08e59f9f18d7c10b5df232a",
      "to": "0x88f3bbca0ad217de7286c74c061652de40e26104",
      "contractAddress": null,
      "l1BaseFeeScalar": "0x44d",
      "l1BlobBaseFee": "0x3be28f6",
      "l1BlobBaseFeeScalar": "0xa118b",
      "l1Fee": "0x150edfb71",
      "l1GasPrice": "0x9",
      "l1GasUsed": "0x886"
    },
    {
      "status": "0x1",
      "cumulativeGasUsed": "0x9b9d1f",
      "logs": [
        {
          "address": "0x88f3bbca0ad217de7286c74c061652de40e26104",
          "topics": [
            "0x682e752f2001b067baf47a9aec7e8c06bc0f88a7eafd006abe13c09defb2b73a",
            "0x000000000000000000000000d8d362badb84cc1f97a00273ddc8845fd4148c80",
            "0x00000000000000000000000085b8dc34c7af35bac8a45cff53353f39e6f732a2",
            "0x0000000000000000000000005f306b7c566bf64d2c199e9451c871855e5b456b"
          ],
          "data": "0x00000000000000000000000000000000000000000000000000000000000000010000000000000000000000000000000000000000000000000000000000000000",
          "blockHash": "0x47ac33d0904b3d5b0198cbec5310bef6a6bb7149275e959cf0b2f673adac20d6",
          "blockNumber": "0x1f16f10",
          "blockTimestamp": "0x68f63d00",
          "transactionHash": "0x2a01c03c47068bbf6f79a1068668139d7064b2cb9a160458f9d807478a30db79",
          "transactionIndex": "0x42",
          "logIndex": "0xaf",
          "removed": false
        }
      ],
      "logsBloom": "0x00000000000000000000000000000000000000000000000000000000000000000000000000000000000000000000000000000000000000040000000000000000000002000000000000000000000000000000000000000000000000000000000000040000000000000400000000000000000000000000000000000000000000000000000000000000000000000010000000040000200000000000000000000000000000000000000000000000000000000000000000000000001000000000000800000000000000000000000000008000000000000000000001000000000000000000000000200000100001000000000080000000000000000000000000000000",
      "type": "0x2",
      "transactionHash": "0x2a01c03c47068bbf6f79a1068668139d7064b2cb9a160458f9d807478a30db79",
      "transactionIndex": "0x42",
      "blockHash": "0x47ac33d0904b3d5b0198cbec5310bef6a6bb7149275e959cf0b2f673adac20d6",
      "blockNumber": "0x1f16f10",
      "gasUsed": "0x130e0",
      "effectiveGasPrice": "0xf4284",
      "from": "0x1234562eb0cd65e7d08e59f9f18d7c10b5df232a",
      "to": "0x88f3bbca0ad217de7286c74c061652de40e26104",
      "contractAddress": null,
      "l1BaseFeeScalar": "0x44d",
      "l1BlobBaseFee": "0x3be28f6",
      "l1BlobBaseFeeScalar": "0xa118b",
      "l1Fee": "0x150edfb71",
      "l1GasPrice": "0x9",
      "l1GasUsed": "0x886"
    },
    {
      "status": "0x1",
      "cumulativeGasUsed": "0x4ccf7",
      "logs": [
        {
          "address": "0x88f3bbca0ad217de7286c74c061652de40e26104",
          "topics": [
            "0x682e752f2001b067baf47a9aec7e8c06bc0f88a7eafd006abe13c09defb2b73a",
            "0x0000000000000000000000001061473a78f6eb0a0bcbde060a5eea9d4273bb59",
            "0x0000000000000000000000007392e9e58f202da3877776c41683ac457dfd4cd7",
            "0x0000000000000000000000005f306b7c566bf64d2c199e9451c871855e5b456b"
          ],
          "data": "0x00000000000000000000000000000000000000000000000000000000000000010000000000000000000000000000000000000000000000000000000000000000",
          "blockHash": "0x4977111bef566cc06fc426f1ba3fba5932f166653ef2121214364504cd9ef1d4",
          "blockNumber": "0x1f16f11",
          "blockTimestamp": "0x68f63d02",
          "transactionHash": "0xbefd68e4f65754874a38aa7e3ef4fd7e67bb4eab5a9b1f362bcb9b825799dc75",
          "transactionIndex": "0x6",
          "logIndex": "0x5",
          "removed": false
        }
      ],
      "logsBloom": "0x00000000000000000000000000000000000000000000000000000000000000000000000000000000000000000000000000000000000000040000000000000000000000000000000000000000000000000002000000000000000000000000000000000000000000000000000000000000000000000000000000000000000000000000000000000000000000000010000000000000200000000000000000000080000000000000000000000000000000000000000000000000001000000000000800000000001000000000000000008100000000000000000000000100000000000000000000000000100001000000000080000000000000000000004000000000",
      "type": "0x2",
      "transactionHash": "0xbefd68e4f65754874a38aa7e3ef4fd7e67bb4eab5a9b1f362bcb9b825799dc75",
      "transactionIndex": "0x6",
      "blockHash": "0x4977111bef566cc06fc426f1ba3fba5932f166653ef2121214364504cd9ef1d4",
      "blockNumber": "0x1f16f11",
      "gasUsed": "0x130e0",
      "effectiveGasPrice": "0xf4284",
      "from": "0x1234562eb0cd65e7d08e59f9f18d7c10b5df232a",
      "to": "0x88f3bbca0ad217de7286c74c061652de40e26104",
      "contractAddress": null,
      "l1BaseFeeScalar": "0x44d",
      "l1BlobBaseFee": "0x3be28f6",
      "l1BlobBaseFeeScalar": "0xa118b",
      "l1Fee": "0x150edfb71",
      "l1GasPrice": "0x9",
      "l1GasUsed": "0x886"
    },
    {
      "status": "0x1",
      "cumulativeGasUsed": "0x5fdd7",
      "logs": [
        {
          "address": "0x88f3bbca0ad217de7286c74c061652de40e26104",
          "topics": [
            "0x682e752f2001b067baf47a9aec7e8c06bc0f88a7eafd006abe13c09defb2b73a",
            "0x000000000000000000000000824fb936d24b2baaf92fe87fd65ff22d01439ece",
            "0x0000000000000000000000001fe9a4e25caa2a22fc0b61010fdb0db462fb5b29",
            "0x0000000000000000000000000fbc93fcfbcda63797e0f819195f79aa2e2ba478"
          ],
          "data": "0x00000000000000000000000000000000000000000000000000000000000000010000000000000000000000000000000000000000000000000000000000000000",
          "blockHash": "0x4977111bef566cc06fc426f1ba3fba5932f166653ef2121214364504cd9ef1d4",
          "blockNumber": "0x1f16f11",
          "blockTimestamp": "0x68f63d02",
          "transactionHash": "0x88191adb8f259d58ab430c0766742dc58be7076ba8b957ca6938daeef988ff2c",
          "transactionIndex": "0x7",
          "logIndex": "0x6",
          "removed": false
        }
      ],
      "logsBloom": "0x00000000000000000000000000000000000000000000000000008000040000000000000000000000000000000000000000000000000000000000080000000001000000000000000000000080000000000000000400000000002000000000000000000000000000000000000000000000000000000000000000000000000000000000000000000000000000008010000000000000200000000000000000000000000000000000000000000000000000000000000000000000001000080000000000000000000000000000000000008000000000000000000000000000000000000000000000000000100000000000000080000000000000000000000000000000",
      "type": "0x2",
      "transactionHash": "0x88191adb8f259d58ab430c0766742dc58be7076ba8b957ca6938daeef988ff2c",
      "transactionIndex": "0x7",
      "blockHash": "0x4977111bef566cc06fc426f1ba3fba5932f166653ef2121214364504cd9ef1d4",
      "blockNumber": "0x1f16f11",
      "gasUsed": "0x130e0",
      "effectiveGasPrice": "0xf4284",
      "from": "0x1234562eb0cd65e7d08e59f9f18d7c10b5df232a",
      "to": "0x88f3bbca0ad217de7286c74c061652de40e26104",
      "contractAddress": null,
      "l1BaseFeeScalar": "0x44d",
      "l1BlobBaseFee": "0x3be28f6",
      "l1BlobBaseFeeScalar": "0xa118b",
      "l1Fee": "0x150edfb71",
      "l1GasPrice": "0x9",
      "l1GasUsed": "0x886"
    },
    {
      "status": "0x1",
      "cumulativeGasUsed": "0x72eb7",
      "logs": [
        {
          "address": "0x88f3bbca0ad217de7286c74c061652de40e26104",
          "topics": [
            "0x682e752f2001b067baf47a9aec7e8c06bc0f88a7eafd006abe13c09defb2b73a",
            "0x000000000000000000000000012bd7cd0acc8cb696306b1ab7a537e85ef2056f",
            "0x0000000000000000000000005e1e8043381f3a21a1a64f46073daf7e74fedc1e",
            "0x0000000000000000000000000fbc93fcfbcda63797e0f819195f79aa2e2ba478"
          ],
          "data": "0x00000000000000000000000000000000000000000000000000000000000000010000000000000000000000000000000000000000000000000000000000000000",
          "blockHash": "0x4977111bef566cc06fc426f1ba3fba5932f166653ef2121214364504cd9ef1d4",
          "blockNumber": "0x1f16f11",
          "blockTimestamp": "0x68f63d02",
          "transactionHash": "0x5eeb02c2d3d710dd0e8a2201178157eb3ac0c9f0a34ad55efd26e59d44a636ed",
          "transactionIndex": "0x8",
          "logIndex": "0x7",
          "removed": false
        }
      ],
      "logsBloom": "0x00000000000000000000000000000000000000000000000000000000040000000000000000000000000000000000000000000000000000000000080100000000000000000000040000000000000000000000000400000000000000000000000000000000000000000000000000000004000000000000000000000000000000000000000000000000000000000010000000000000200000000000000000000000000000000000000000000000000000000000000000000000001000000000000000000020000000000000000000008000000000000000000000000000000000000004000000000000100000000000000081000000000000000000000000000000",
      "type": "0x2",
      "transactionHash": "0x5eeb02c2d3d710dd0e8a2201178157eb3ac0c9f0a34ad55efd26e59d44a636ed",
      "transactionIndex": "0x8",
      "blockHash": "0x4977111bef566cc06fc426f1ba3fba5932f166653ef2121214364504cd9ef1d4",
      "blockNumber": "0x1f16f11",
      "gasUsed": "0x130e0",
      "effectiveGasPrice": "0xf4284",
      "from": "0x1234562eb0cd65e7d08e59f9f18d7c10b5df232a",
      "to": "0x88f3bbca0ad217de7286c74c061652de40e26104",
      "contractAddress": null,
      "l1BaseFeeScalar": "0x44d",
      "l1BlobBaseFee": "0x3be28f6",
      "l1BlobBaseFeeScalar": "0xa118b",
      "l1Fee": "0x150edfb71",
      "l1GasPrice": "0x9",
      "l1GasUsed": "0x886"
    },
    {
      "status": "0x1",
      "cumulativeGasUsed": "0x85f97",
      "logs": [
        {
          "address": "0x88f3bbca0ad217de7286c74c061652de40e26104",
          "topics": [
            "0x682e752f2001b067baf47a9aec7e8c06bc0f88a7eafd006abe13c09defb2b73a",
            "0x0000000000000000000000004d8346f2f33ffbc7fa2e46becf83c978943e69c8",
            "0x00000000000000000000000006c1e044d5beb614faa6128001f519e6c693a044",
            "0x0000000000000000000000000fbc93fcfbcda63797e0f819195f79aa2e2ba478"
          ],
          "data": "0x00000000000000000000000000000000000000000000000000000000000000010000000000000000000000000000000000000000000000000000000000000000",
          "blockHash": "0x4977111bef566cc06fc426f1ba3fba5932f166653ef2121214364504cd9ef1d4",
          "blockNumber": "0x1f16f11",
          "blockTimestamp": "0x68f63d02",
          "transactionHash": "0x017262a95eb8a7c9820fd302a7fd3a2a89e6c4611fa26e78ae2c39c76bf6db9c",
          "transactionIndex": "0x9",
          "logIndex": "0x8",
          "removed": false
        }
      ],
      "logsBloom": "0x00000000000000010000000000000000000000800000000000000000040000000000000000000000000000000000000000000000000000000000080000000000000000000000000000000000000000000000000400000000000000000000000004000000000000000000000000000000000000000000000000000000000000000000000000000000000000000010000000000000200000000000000010000000000000000000000000000000000000000000000000000000001000000000000000000000000000001000000000008000000000000000000000000000000000000000000000000000100000000000000080000000040000000000000000000000",
      "type": "0x2",
      "transactionHash": "0x017262a95eb8a7c9820fd302a7fd3a2a89e6c4611fa26e78ae2c39c76bf6db9c",
      "transactionIndex": "0x9",
      "blockHash": "0x4977111bef566cc06fc426f1ba3fba5932f166653ef2121214364504cd9ef1d4",
      "blockNumber": "0x1f16f11",
      "gasUsed": "0x130e0",
      "effectiveGasPrice": "0xf4284",
      "from": "0x1234562eb0cd65e7d08e59f9f18d7c10b5df232a",
      "to": "0x88f3bbca0ad217de7286c74c061652de40e26104",
      "contractAddress": null,
      "l1BaseFeeScalar": "0x44d",
      "l1BlobBaseFee": "0x3be28f6",
      "l1BlobBaseFeeScalar": "0xa118b",
      "l1Fee": "0x150edfb71",
      "l1GasPrice": "0x9",
      "l1GasUsed": "0x886"
    },
    {
      "status": "0x1",
      "cumulativeGasUsed": "0x99077",
      "logs": [
        {
          "address": "0x88f3bbca0ad217de7286c74c061652de40e26104",
          "topics": [
            "0x682e752f2001b067baf47a9aec7e8c06bc0f88a7eafd006abe13c09defb2b73a",
            "0x0000000000000000000000002db087d43fc8402ade0706807d32d6ef72411ebd",
            "0x00000000000000000000000085b8dc34c7af35bac8a45cff53353f39e6f732a2",
            "0x0000000000000000000000000fbc93fcfbcda63797e0f819195f79aa2e2ba478"
          ],
          "data": "0x00000000000000000000000000000000000000000000000000000000000000010000000000000000000000000000000000000000000000000000000000000000",
          "blockHash": "0x4977111bef566cc06fc426f1ba3fba5932f166653ef2121214364504cd9ef1d4",
          "blockNumber": "0x1f16f11",
          "blockTimestamp": "0x68f63d02",
          "transactionHash": "0x6ff02f4c660b2a5f2cf6c155d3792dd678dc179274279dd00997bdb63fdacf82",
          "transactionIndex": "0xa",
          "logIndex": "0x9",
          "removed": false
        }
      ],
      "logsBloom": "0x0000000000000000000000000000000000000000000000000000000004000000000000000000000000000000000000000000000000000000000008000000000000000000000000000000000000000000010000040000000000000000000000000004000000000000000000000000000000000000000000000000000000000000000000000000000000000000001000000004000024000000000000000000000000000000000000000000000000000000000000000000000000100000000000000000000000000000000000000000a000000000000000000001000000000000000000000000000000100000000000000080000000000000000000000000000000",
      "type": "0x2",
      "transactionHash": "0x6ff02f4c660b2a5f2cf6c155d3792dd678dc179274279dd00997bdb63fdacf82",
      "transactionIndex": "0xa",
      "blockHash": "0x4977111bef566cc06fc426f1ba3fba5932f166653ef2121214364504cd9ef1d4",
      "blockNumber": "0x1f16f11",
      "gasUsed": "0x130e0",
      "effectiveGasPrice": "0xf4284",
      "from": "0x1234562eb0cd65e7d08e59f9f18d7c10b5df232a",
      "to": "0x88f3bbca0ad217de7286c74c061652de40e26104",
      "contractAddress": null,
      "l1BaseFeeScalar": "0x44d",
      "l1BlobBaseFee": "0x3be28f6",
      "l1BlobBaseFeeScalar": "0xa118b",
      "l1Fee": "0x150edfb71",
      "l1GasPrice": "0x9",
      "l1GasUsed": "0x886"
    },
    {
      "status": "0x1",
      "cumulativeGasUsed": "0xac157",
      "logs": [
        {
          "address": "0x88f3bbca0ad217de7286c74c061652de40e26104",
          "topics": [
            "0x682e752f2001b067baf47a9aec7e8c06bc0f88a7eafd006abe13c09defb2b73a",
            "0x000000000000000000000000d14bd87b18da3ec84a9e098df1c808d9cb7a9852",
            "0x0000000000000000000000007392e9e58f202da3877776c41683ac457dfd4cd7",
            "0x0000000000000000000000000fbc93fcfbcda63797e0f819195f79aa2e2ba478"
          ],
          "data": "0x00000000000000000000000000000000000000000000000000000000000000010000000000000000000000000000000000000000000000000000000000000000",
          "blockHash": "0x4977111bef566cc06fc426f1ba3fba5932f166653ef2121214364504cd9ef1d4",
          "blockNumber": "0x1f16f11",
          "blockTimestamp": "0x68f63d02",
          "transactionHash": "0x0d88117a0dc530b403f8b0bfb9f73354c5a56c07453334e6302cf7cd18a62be3",
          "transactionIndex": "0xb",
          "logIndex": "0xa",
          "removed": false
        }
      ],
      "logsBloom": "0x00000000000000000000000000000000000000000000000000000000040000000000000000000000000000000000000000000000000000000000080000000000000000000000000000000000000000000000000400000000000000000000000000000000000000000000000000000000000000000000000000000000000000000000000000000000000000000010000000000000200000000000000000000000000000000000000000000000000000002000000000000000001000000000000000000000001000000000000000008100000000000000000000000000000000000000000004000000100000800000000080000000000000000000004000000000",
      "type": "0x2",
      "transactionHash": "0x0d88117a0dc530b403f8b0bfb9f73354c5a56c07453334e6302cf7cd18a62be3",
      "transactionIndex": "0xb",
      "blockHash": "0x4977111bef566cc06fc426f1ba3fba5932f166653ef2121214364504cd9ef1d4",
      "blockNumber": "0x1f16f11",
      "gasUsed": "0x130e0",
      "effectiveGasPrice": "0xf4284",
      "from": "0x1234562eb0cd65e7d08e59f9f18d7c10b5df232a",
      "to": "0x88f3bbca0ad217de7286c74c061652de40e26104",
      "contractAddress": null,
      "l1BaseFeeScalar": "0x44d",
      "l1BlobBaseFee": "0x3be28f6",
      "l1BlobBaseFeeScalar": "0xa118b",
      "l1Fee": "0x150edfb71",
      "l1GasPrice": "0x9",
      "l1GasUsed": "0x886"
    }
  ],
  "libraries": [],
  "pending": [],
  "returns": {},
  "timestamp": 1760967938578,
  "chain": 84532,
  "commit": "11bb562"
}