{
  "transactions": [
    {
      "hash": "0x250e3b648f06a0c2efbc92fadc44c5ae389744a922ac942ab112a0d836b3f02c",
      "transactionType": "CREATE2",
      "contractName": "KubiStreamerDonation",
      "contractAddress": "0x3fabe29c75608fcf006ecc5068e354168e994b4e",
      "function": null,
      "arguments": [
        "0x94cC0AaC535CCDB3C01d6787D6413C739ae12bc4",
        "0x1234b50310fF79958509d1a9C8a92458ED1496D1",
        "250",
        "0x123454Ce54DEBE2cEbCe95740E9e0f65DFf9DBE2",
        "5003",
        "0x1234562eb0cD65E7D08E59f9f18d7c10B5DF232A"
      ],
      "transaction": {
        "from": "0x1234562eb0cd65e7d08e59f9f18d7c10b5df232a",
        "to": "0x4e59b44847b379578588920ca78fbf26c0b4956c",
        "gas": "0x38c307",
        "value": "0x0",
        "input": "0xc13a2a051c9b0e61081babd2583771331418c956319f89b00939e8a9fceebea2610100806040523461024b5760c08161313e80380380916100208285610326565b83398101031261024b576100338161035d565b906100406020820161035d565b60408201519061ffff82169283830361024b5761005f6060820161035d565b9060808101519063ffffffff8216820361024b5760a061007f910161035d565b9460018060a01b03195f5416963388175f5560405190335f5f51602061311e5f395f51905f528180a3600180556001600160a01b03169182158015610315575b8015610304575b80156102f3575b6102e4576103e8106102d557608082905263c45a015560e01b8152602081600481855afa908115610289575f91610294575b506001600160a01b031660a0526040516312a9293f60e21b815290602090829060049082905afa908115610289575f9161024f575b5060c05260028054600380546001600160a01b0319166001600160a01b0395861617905560e09290925260b09490941b61ffff60b01b166001600160c01b0319909116928216929092179190911790915516801561024b576040519181335f51602061311e5f395f51905f525f80a3336001600160a01b03191617175f55612dac908161037282396080518181816101f601528181612473015281816125500152818161280f0152612a6f015260a0518181816107b9015281816123d20152818161278601526129d2015260c05181818161084201528181610874015281816109460152818161172401528181611b6901528181611f0a015281816129230152612d14015260e0518181816106b1015261178a0152f35b5f80fd5b90506020813d602011610281575b8161026a60209383610326565b8101031261024b5761027b9061035d565b5f610134565b3d915061025d565b6040513d5f823e3d90fd5b90506020813d6020116102cd575b816102af60209383610326565b8101031261024b576004916102c560209261035d565b9150916100ff565b3d91506102a2565b63cd4e616760e01b5f5260045ffd5b63d92e233d60e01b5f5260045ffd5b506001600160a01b038816156100cd565b506001600160a01b038516156100c6565b506001600160a01b038616156100bf565b601f909101601f19168101906001600160401b0382119082101761034957604052565b634e487b7160e01b5f52604160045260245ffd5b51906001600160a01b038216820361024b5756fe6080806040526004361015610034575b50361561002557631021348160e01b5f5260045ffd5b631021348160e01b5f5260045ffd5b5f3560e01c9081630c495f96146111f95750806315b3c54c1461113857806324a9d8531461111457806325d86ced1461106957806329575f6a14611041578063469048401461101957806356d5d47514610f6157806365f6906914610f3c57806376cd0ac114610e5d5780637a6f1dcc14610ce05780637b955ebd14610c575780637f507f3f14610bcb5780638da5cb5b14610ba4578063a0d2d830146109cc578063a9563e4f14610975578063ad5c464814610931578063b45faa76146107e8578063c45a0155146107a4578063cd1b7d6c146106d5578063d3da333014610695578063d55be8c614610679578063ddb2a09614610624578063e051e81a146105ca578063e165fe3d14610573578063e9a4529114610501578063ee5e4fa3146104a7578063f019e6ed14610482578063f2fde38b1461040f578063f54efd7714610365578063f6fe94b014610225578063f887ea40146101e15763fef0c4a1146101a0575f61000f565b346101dd5760203660031901126101dd576001600160a01b036101c16113d2565b165f526004602052602060ff60405f2054166040519015158152f35b5f80fd5b346101dd575f3660031901126101dd576040517f00000000000000000000000000000000000000000000000000000000000000006001600160a01b03168152602090f35b346101dd5760603660031901126101dd5761023e6113d2565b6102466113e8565b9061024f6113fe565b6001600160a01b03909116913383141580610350575b8061033c575b61032d576001600160a01b03165f8181526004602052604090205460ff161561031e57825f5260076020528060405f2093815f52600185016020526102bf8460405f209060ff801983541691151516179055565b7f160aca386eecd6b8deb0127ecafcd60a1081e3f9dfa75de2cfd22ea186e8d3f1602060405195159586158152a38161030a575b506102fa57005b80546001600160a01b0319169055005b82546001600160a01b0316149050826102f3565b633ba12a1560e11b5f5260045ffd5b63641410b160e11b5f5260045ffd5b505f546001600160a01b031633141561026b565b506002546001600160a01b0316331415610265565b346101dd5760203660031901126101dd576004358015158091036101dd575f546001600160a01b031633036104005760025460ff8160a81c166103c25761ffff60a01b191660a09190911b60ff60a01b1617600160a81b17600255005b60405162461bcd60e51b81526020600482015260166024820152751a5cd21d5890da185a5b88185b1c9958591e481cd95d60521b6044820152606490fd5b635fc483c560e01b5f5260045ffd5b346101dd5760203660031901126101dd576104286113d2565b5f546001600160a01b0381169133839003610400576001600160a01b03169182156101dd5782907f8be0079c531659141344cd1fd0a4f28419497f9722a3daafe3b4186f6b6457e05f80a36001600160a01b031916175f55005b346101dd575f3660031901126101dd57602060ff60025460a01c166040519015158152f35b346101dd5760403660031901126101dd576104c06113d2565b6104c86113e8565b9060018060a01b03165f526007602052600160405f20019060018060a01b03165f52602052602060ff60405f2054166040519015158152f35b346101dd5760403660031901126101dd5761051a6113d2565b6105226113e8565b336001600160a01b03831614158061055e575b8061054a575b61032d5761054891611a10565b005b505f546001600160a01b031633141561053b565b506002546001600160a01b0316331415610535565b346101dd5760403660031901126101dd5761058c6113d2565b6105946113e8565b6001600160a01b039182165f90815260076020908152604080832093851683526002909301815290829020549151919092168152f35b346101dd5760203660031901126101dd576001600160a01b036105eb6113d2565b165f526006602052606060405f20600181549101546040519160ff81161515835260018060a01b039060081c1660208301526040820152f35b346101dd5760203660031901126101dd576001600160a01b036106456113d2565b165f90815260076020908152604091829020805460049091015483516001600160a01b039283168152911691810191909152f35b346101dd575f3660031901126101dd5760206040516103e88152f35b346101dd575f3660031901126101dd57602060405163ffffffff7f0000000000000000000000000000000000000000000000000000000000000000168152f35b346101dd5760403660031901126101dd5760043561ffff81168082036101dd576106fd6113e8565b9060018060a01b035f54163314158061078f575b610780576103e810610771576001600160a01b0316908115610762576002805461ffff60b01b191660b09290921b61ffff60b01b16919091179055600380546001600160a01b031916919091179055005b63d92e233d60e01b5f5260045ffd5b63cd4e616760e01b5f5260045ffd5b63127f16f360e31b5f5260045ffd5b506002546001600160a01b0316331415610711565b346101dd575f3660031901126101dd576040517f00000000000000000000000000000000000000000000000000000000000000006001600160a01b03168152602090f35b346101dd5760603660031901126101dd576108016113d2565b6108096113e8565b6044359162ffffff831683036101dd575f546001600160a01b03163314158061091c575b610780576001600160a01b03811661091657507f0000000000000000000000000000000000000000000000000000000000000000905b6001600160a01b03811661091057507f0000000000000000000000000000000000000000000000000000000000000000905b6001600160a01b031690811580156108ff575b610762575f8281526005602081815260408084206001600160a01b03959095168452938152838320805462ffffff9790971662ffffff19978816811790915591815283832094835293909352208054909216179055005b506001600160a01b038116156108a8565b90610895565b90610863565b506002546001600160a01b031633141561082d565b346101dd575f3660031901126101dd576040517f00000000000000000000000000000000000000000000000000000000000000006001600160a01b03168152602090f35b346101dd5760403660031901126101dd5761098e6113d2565b6109966113e8565b9060018060a01b03165f52600560205260405f209060018060a01b03165f52602052602062ffffff60405f205416604051908152f35b346101dd5760403660031901126101dd576109e56113d2565b6109ed6113e8565b906001600160a01b03163381141580610b8f575b80610b7b575b61032d575f818152600760205260409020916001600160a01b03168015610762575f8181526003840160208190526040909120546001600160a01b0316938415610b48576001600160a01b038581165f9081526002830160205260409020541683145b15610b395760049160018060a01b0386165f526002820160205260405f206001600160601b0360a01b8154169055835f5260205260405f206001600160601b0360a01b8154169055019060018060a01b0382541614610aff575b506040515f81526001600160a01b03909216917f07efacf833c0332f419c637a012a52fe4647777ec52b15b904c88856048dc94f90602090a3005b80546001600160a01b03191690556040515f81526001600160a01b0383169082905f516020612d575f395f51905f5290602090a382610ac4565b634209c0e360e01b5f5260045ffd5b5f8080526002820160205260409020549094906001600160a01b03168303610b7457505f936001610a6a565b935f610a6a565b505f546001600160a01b0316331415610a07565b506002546001600160a01b0316331415610a01565b346101dd575f3660031901126101dd575f546040516001600160a01b039091168152602090f35b60c03660031901126101dd57610bdf6113d2565b610be76113e8565b60643591906001600160a01b03831683036101dd576001805403610c2557610c1f92600260015560a435926084359260443591611520565b60018055005b60405162461bcd60e51b815260206004820152600a6024820152695245454e5452414e435960b01b6044820152606490fd5b346101dd5760203660031901126101dd576001600160a01b03610c786113d2565b165f90815260076020526040902060048101546001600160a01b03169081610cbb57505f905b604080516001600160a01b03928316815292909116602083015290f35b6001600160a01b038281165f9081526003929092016020526040909120541690610c9e565b346101dd5760403660031901126101dd57610cf96113d2565b610d016113e8565b6001600160a01b03909116903382141580610e48575b80610e34575b61032d576001600160a01b031690811561076257815f52600660205260405f205460ff811615610e255760081c6001600160a01b0316918215610e16575f8281526007602090815260408083206001600160a01b0387811680865260028301855283862080546001600160a01b0319908116891790915587875260038401865293909520805490931690941790915560040180547f07efacf833c0332f419c637a012a52fe4647777ec52b15b904c88856048dc94f9492931615610de6575b50604051908152a3005b816001600160601b0360a01b82541617905584845f516020612d575f395f51905f5284604051858152a385610ddc565b63634bb5e960e11b5f5260045ffd5b63ab68eff560e01b5f5260045ffd5b505f546001600160a01b0316331415610d1d565b506002546001600160a01b0316331415610d17565b346101dd5760403660031901126101dd57610e766113d2565b610e7e6113e8565b906001600160a01b03163381141580610f27575b80610f13575b61032d576001600160a01b0382165f9081526004602052604090205460ff161561031e575f52600760205260405f209060018060a01b0381165f526001820160205260ff60405f20541615610f045781546001600160a01b0319166001600160a01b0391909116179055005b631a1a638d60e01b5f5260045ffd5b505f546001600160a01b0316331415610e98565b506002546001600160a01b0316331415610e92565b346101dd575f3660031901126101dd57602060ff60025460a81c166040519015158152f35b346101dd5760603660031901126101dd57610f7a61140d565b6044359067ffffffffffffffff82116101dd57366023830112156101dd57816004013567ffffffffffffffff81116101dd5782013660248201116101dd57606090839003126101dd57610fcf602483016114ac565b906064610fde604485016114ac565b930135916001600160a01b0316801561076257821561100a57610548936001600160a01b031691611ac4565b631f2a200560e01b5f5260045ffd5b346101dd575f3660031901126101dd576003546040516001600160a01b039091168152602090f35b346101dd575f3660031901126101dd576002546040516001600160a01b039091168152602090f35b346101dd5760403660031901126101dd576110826113d2565b60243590811515908183036101dd575f546001600160a01b0316331415806110ff575b610780577fac90355684e2710fa34c2c7d500018678b146ea2d56ddc331c63d242ee8bf385916110f660209260018060a01b031694855f526004845260405f209060ff801983541691151516179055565b604051908152a2005b506002546001600160a01b03163314156110a5565b346101dd575f3660031901126101dd57602061ffff60025460b01c16604051908152f35b346101dd5760803660031901126101dd5761115161140d565b6111596113e8565b6044356001600160a01b03811692918382036101dd57606435926001600160a01b0382161561076257831561100a576020602495604051968780926370a0823160e01b82523060048301525afa80156111ee576111bb575b6105489450611ac4565b6020853d6020116111e6575b816111d46020938361148a565b810103126101dd5761054894506111b1565b3d91506111c7565b6040513d5f823e3d90fd5b346101dd5760803660031901126101dd576112126113d2565b9061121b6113e8565b6112236113fe565b916064359360018060a01b035f5416331415806113bd575b610780576001600160a01b0316928315610762571561132257506001600160a01b0316918215610e1657825f52600460205260ff60405f205416156113135760407f354f0817e377e1e9b2601a5fa1180df29e96ac246a5d02f817a6e3bb4b72a9049181516112a981611420565b6001815260016020820187815284830190848252875f5260066020526112e1865f2094511515859060ff801983541691151516179055565b518354906101008460a81b039060081b16906101008460a81b03191617835551910155815190600182526020820152a3005b634c3347d160e01b5f5260045ffd5b90505f925061133081611420565b828152600160208201848152604083019085825284865260066020526113696040872094511515859060ff801983541691151516179055565b518354906101008460a81b039060081b16906101008460a81b031916178355519101557f354f0817e377e1e9b2601a5fa1180df29e96ac246a5d02f817a6e3bb4b72a90460408051848152846020820152a3005b506002546001600160a01b031633141561123b565b600435906001600160a01b03821682036101dd57565b602435906001600160a01b03821682036101dd57565b6044359081151582036101dd57565b6004359063ffffffff821682036101dd57565b6060810190811067ffffffffffffffff82111761143c57604052565b634e487b7160e01b5f52604160045260245ffd5b610120810190811067ffffffffffffffff82111761143c57604052565b610100810190811067ffffffffffffffff82111761143c57604052565b90601f8019910116810190811067ffffffffffffffff82111761143c57604052565b35906001600160a01b03821682036101dd57565b919082039182116114cd57565b634e487b7160e01b5f52601160045260245ffd5b3d1561151b573d9067ffffffffffffffff821161143c5760405191611510601f8201601f19166020018461148a565b82523d5f602084013e565b606090565b9490926001600160a01b031690811561076257428110611a01576001600160a01b0384169485159384156119fb575034925b831561100a5784156119f5575f5b6001600160a01b03165f9081526004602052604090205460ff161561031e578415611940575b61ffff60025460b01c1680850290858204036114cd5761271090046115ab81866114c0565b94816118ef575b60ff60025460a01c161561171057825f52600760205260405f20986040519a6115da8c611450565b6001600160a01b03168b5260208b015260408a015260608901526080880193845260a088015260c087015260e0860152610100850182905261161c8585611df9565b916001600160a01b03821690816116b8575b505050505f146116b357505f5b6001600160a01b03165f90815260018201602052604090205460ff166116a957546001600160a01b0316801561169a57805f52600460205260ff60405f2054161561168b5761168991612320565b565b633fbb49c960e01b5f5260045ffd5b63555096e560e11b5f5260045ffd5b5061168990612249565b61163b565b6040915f526006602052815f2060018351916116d383611420565b805460ff811615158452828060a01b039060081c1660208401520154928391015251101561170257808061162e565b925092505061168992611f6b565b50509550505091909350835f146118e957507f0000000000000000000000000000000000000000000000000000000000000000905b604051935f80602087018681526020885261176160408961148a565b8382146118e25784905b6040516117f060c4826020810194635853cc1360e11b865263ffffffff7f0000000000000000000000000000000000000000000000000000000000000000169d8e60248401523060448401528b6064840152608060848401525180918160a48501528484015e87838284010152601f801991011681010301601f19810183528261148a565b5191875af1906117fe6114e1565b508115611888575b501561185357604080516001600160a01b039093168352602083019190915233917f32688e6ceefb585f3047e1032ff7547f8d4eb5c9c052855bc92bbc799d3f730091819081015b0390a4565b60405162461bcd60e51b815260206004820152600d60248201526c109c9a5919d94819985a5b1959609a1b6044820152606490fd5b1590506118da575f80825b604051602081019063206d3a2d60e21b8252886024820152306044820152856064820152606481526118c660848261148a565b5191865af16118d36114e1565b505f611806565b5f8080611893565b819061176b565b90611745565b8615611923575f8080808560018060a01b03600354165af161190f6114e1565b506115b25763671f7c4960e11b5f5260045ffd5b60035461193b9083906001600160a01b03168b611d43565b6115b2565b3015610762576040516323b872dd60e01b81526001600160a01b0389166004820152306024820152604481018590526020816064815f8c5af19081156111ee575f916119c6575b506115865760405162461bcd60e51b81526020600482015260126024820152711514905394d1915497d19493d357d190525360721b6044820152606490fd5b6119e8915060203d6020116119ee575b6119e0818361148a565b810190611d2b565b5f611987565b503d6119d6565b85611560565b92611552565b631ab7da6b60e01b5f5260045ffd5b6001600160a01b039081165f818152600760205260409020929091168015611a9557805f52600660205260ff60405f20541615610e25575f8181526003840160205260409020546001600160a01b0316928315610b395760040180546001600160a01b031916821790556040519081525f516020612d575f395f51905f5290602090a3565b5060045f92016001600160601b0360a01b81541690555f516020612d575f395f51905f526020604051848152a3565b929060018060a01b031692835f52600760205260405f20610e104201918242116114cd576040516001600160a01b038616957f0b139925e7430bdd80bd413a6fe6166fce98e3c4ab6c29d85588eaa2f0b99e519560a09563ffffffff9591939290611b2e84611450565b5f84528960208501528460408501525f606085015260808401908582528b898601525f60c086015260e08501526101008401906001808a1b037f0000000000000000000000000000000000000000000000000000000000000000168b148252611b978585611df9565b916001808c1b0382169081611ca7575b505050505115155f14611ca257505f5b600180881b03165f526001810160205260ff60405f205416611c6b57545f196001871b011680611c22575b50611bec90612249565b604051958652602086015260606040860152600f60608601526e6469726563745f66616c6c6261636b60881b60808601521692a3565b805f52600460205260ff60405f20541615611be257611c4091612320565b60405195865260208601526060604086015260046060860152630737761760e41b60808601521692a3565b50611c7590612249565b6040519586526020860152606060408601526006606086015265191a5c9958dd60d21b60808601521692a3565b611bb7565b6040915f526006602052815f206001835191611cc283611420565b805460ff8116151584528f8380911b039060081c16602084015201549283910152511015611cf1578080611ba7565b9250925050611cff92611f6b565b60405195865260208601526060604086015260056060860152641e5a595b1960da1b60808601521692a3565b908160209103126101dd575180151581036101dd5790565b916001600160a01b038216156107625760405163a9059cbb60e01b81526001600160a01b0390921660048301526024820152906020908290815f816044810103926001600160a01b03165af19081156111ee575f91611dda575b5015611da557565b60405162461bcd60e51b815260206004820152600d60248201526c1514905394d1915497d1905253609a1b6044820152606490fd5b611df3915060203d6020116119ee576119e0818361148a565b5f611d9d565b6101008201519092919015611f5957505f5b6001600160a01b03811615611ed5576001600160a01b038181165f90815260028501602052604090205416611e3f81612695565b611ed05750505b60048201546001600160a01b0316611e5d81612695565b611ead575081546001600160a01b03169182611e7c575b505f91508190565b6001600160a01b038381165f90815260029290920160205260409091205416611ea481612695565b15611e74579190565b6001600160a01b038082165f908152600390940160205260409093205490921690565b925090565b505f8080526002830160208190526040909120546001600160a01b0316611efb81612695565b611f5157506001600160a01b037f00000000000000000000000000000000000000000000000000000000000000008181165f90815260209390935260409092205416611f4681612695565b611ed0575050611e46565b92505f919050565b602001516001600160a01b0316611e0b565b915f9160018060a01b03811691825f52600660205260405f2060405190611f9182611420565b8054916040600160ff85161593841584526020840195828060a01b039060081c1686520154910152610e2557516001600160a01b0316908115610e16576001600160a01b0316810361223a57805f52600460205260ff60405f2054161561131357611ffc81866126d6565b60a0860180516040516370a0823160e01b81526001600160a01b03909116600482015290949190602081602481865afa9081156111ee575f91612208575b506120458585612b8c565b612050828686612c39565b85516001600160a01b0316833b156101dd5760405163d699618560e01b81526001600160a01b03919091166004820152602481018390525f8160448183885af180156111ee576121f3575b506120a68585612b8c565b85516040516370a0823160e01b81526001600160a01b03909116600482015290602082602481875afa80156121e85788906121b4575b6120e692506114c0565b9586156121a55760c088015187106121975750905f516020612d375f395f51905f529392917f8f7a6fecbaab1e04e31f80b9da6e08d7f55f854f660a910ddc7cce65036babd5604060018060a01b03885116928151908152896020820152a4845192516020808701516040808901516060998a01518251918252938101939093526001600160a01b039485169083015296810195909552426080860152948116948116939216918060a0810161184e565b6250c9b760e01b8152600490fd5b63360fef3560e01b8152600490fd5b506020823d6020116121e0575b816121ce6020938361148a565b810103126101dd576120e691516120dc565b3d91506121c1565b6040513d8a823e3d90fd5b6122009197505f9061148a565b5f955f61209b565b90506020813d602011612232575b816122236020938361148a565b810103126101dd57515f61203a565b3d9150612216565b632693f30360e11b5f5260045ffd5b610100810151156122f4575f80808060018060a01b0360a0860151166080860151905af16122756114e1565b50156122e5575b805160a0828101516020808501516040808701516060808901516080998a01518451938452958301526001600160a01b03938416928201839052810193909352429683019690965291821693909116915f516020612d375f395f51905f5291908190810161184e565b632b3b0c0960e11b5f5260045ffd5b602081015160a0820151608083015161231b9290916001600160a01b039081169116611d43565b61227c565b906101008201511515805f14612682575f5b608084015160c085015160a086019360018060a01b038551169161235a60e089015195612d03565b9461236488612d03565b9560018060a01b031693845f52600560205260405f2060018060a01b0388165f5260205262ffffff60405f205416801561267357604051630b4c774160e11b8152600481018790526001600160a01b03988916602482018190526044820183905298602090829060649082907f0000000000000000000000000000000000000000000000000000000000000000165afa9081156111ee575f91612631575b506001600160a01b031615612623576040519761241e8961146d565b86895260208901526040880152606087015260808601528360a086015260c08501525f60e08501525f1461254d575061246f91602091604051808095819463414bf38960e01b835260048301612c9a565b03917f00000000000000000000000000000000000000000000000000000000000000006001600160a01b03165af180156111ee575f9061250e575b5f516020612d375f395f51905f529150925b845192516020808701516040808901516060998a01518251918252938101939093526001600160a01b039485169083015296810195909552426080860152948116948116939216918060a0810161184e565b506020813d602011612545575b816125286020938361148a565b810103126101dd575f516020612d375f395f51905f5290516124aa565b3d915061251b565b937f00000000000000000000000000000000000000000000000000000000000000006001600160a01b03169290916125b19160209161259790612590878a612b8c565b8689612c39565b6040518093819263414bf38960e01b835260048301612c9a565b03815f875af19081156111ee575f916125e4575b505f516020612d375f395f51905f52926125df9195612b8c565b6124bc565b90506020813d60201161261b575b816125ff6020938361148a565b810103126101dd57515f516020612d375f395f51905f526125c5565b3d91506125f2565b6231a7b960e41b5f5260045ffd5b90506020813d60201161266b575b8161264c6020938361148a565b810103126101dd57516001600160a01b03811681036101dd575f612402565b3d915061263f565b630db08e3d60e01b5f5260045ffd5b60208301516001600160a01b0316612332565b6001600160a01b031680156126d1575f52600660205260405f205460ff811690816126be575090565b60081c6001600160a01b03161515919050565b505f90565b5f9061010081015161291f5760208101516001600160a01b039081169390811684146129145761271861271260e0608085015194015195612d03565b91612d03565b9060018060a01b03169384845260056020526040842060018060a01b0383165f5260205262ffffff60405f205416801561290557604051630b4c774160e11b8152600481018790526001600160a01b03938416602482018190526044820183905293602090829060649082907f0000000000000000000000000000000000000000000000000000000000000000165afa9081156128fa5786916128b4575b506001600160a01b0316156128a6579160209161284193604051926127da8461146d565b88845284840152604083015230606083015260808201528360a08201528460c08201528460e082015261259760018060a01b037f0000000000000000000000000000000000000000000000000000000000000000169461283a8689612b8c565b8588612c39565b038186865af192831561289a5792612864575b5081926128619250612b8c565b90565b91506020823d602011612892575b8161287f6020938361148a565b810103126101dd57612861915191612854565b3d9150612872565b604051903d90823e3d90fd5b6231a7b960e41b8552600485fd5b90506020813d6020116128f2575b816128cf6020938361148a565b810103126128ee57516001600160a01b03811681036128ee575f6127b6565b8580fd5b3d91506128c2565b6040513d88823e3d90fd5b630db08e3d60e01b8552600485fd5b506080015192915050565b90917f00000000000000000000000000000000000000000000000000000000000000006001600160a01b0381811693929081168414612b465761296d9060e060808501519401519250612d03565b83855260056020526040852060018060a01b0382165f5260205262ffffff60405f205416908115612b3757604051630b4c774160e11b8152600481018690526001600160a01b03918216602482018190526044820184905291602090829060649082907f0000000000000000000000000000000000000000000000000000000000000000165afa908115612b2c578791612ae6575b506001600160a01b031615612ad8579160209391612a6b959360405194612a288661146d565b855285850152604084015230606084015260808301528060a08301528460c08301528460e0830152604051808095819463414bf38960e01b835260048301612c9a565b03917f00000000000000000000000000000000000000000000000000000000000000006001600160a01b03165af191821561289a5791612aa9575090565b90506020813d602011612ad0575b81612ac46020938361148a565b810103126101dd575190565b3d9150612ab7565b6231a7b960e41b8652600486fd5b90506020813d602011612b24575b81612b016020938361148a565b81010312612b2057516001600160a01b0381168103612b20575f612a02565b8680fd5b3d9150612af4565b6040513d89823e3d90fd5b630db08e3d60e01b8652600486fd5b5050608001805190925090803b156101dd575f90600460405180948193630d0e30db60e41b83525af180156111ee57612b7e57505190565b5f612b889161148a565b5190565b906001600160a01b031680156107625760405163095ea7b360e01b815260048101919091525f602482018190529091602091839160449183916001600160a01b03165af19081156111ee575f91612c1a575b5015612be657565b60405162461bcd60e51b815260206004820152600c60248201526b1054141493d59157d190525360a21b6044820152606490fd5b612c33915060203d6020116119ee576119e0818361148a565b5f612bde565b916001600160a01b038216156107625760405163095ea7b360e01b81526001600160a01b0390921660048301526024820152906020908290815f816044810103926001600160a01b03165af19081156111ee575f91612c1a575015612be657565b81516001600160a01b03908116825260208084015182169083015260408084015162ffffff16908301526060808401518216908301526080808401519083015260a0808401519083015260c0808401519083015260e09283015116918101919091526101000190565b6001600160a01b03811661286157507f00000000000000000000000000000000000000000000000000000000000000009056fe49735f6dfce36092e4e60b47019be07f553ede2d89c84c80a84ad06883a2477752ce92b576c9e725f458101a8593fe331d4d2964c77a20f2b608b39cd95cf789a2646970667358221220140a37fa3ec5e530a3e18b48a46509b6da06c94e6db629c43a236c0f9f924b8064736f6c634300081e00338be0079c531659141344cd1fd0a4f28419497f9722a3daafe3b4186f6b6457e000000000000000000000000094cc0aac535ccdb3c01d6787d6413c739ae12bc40000000000000000000000001234b50310ff79958509d1a9c8a92458ed1496d100000000000000000000000000000000000000000000000000000000000000fa000000000000000000000000123454ce54debe2cebce95740e9e0f65dff9dbe2000000000000000000000000000000000000000000000000000000000000138b0000000000000000000000001234562eb0cd65e7d08e59f9f18d7c10b5df232a",
        "nonce": "0xbdf2",
        "chainId": "0x14a34"
      },
      "additionalContracts": [],
      "isFixedGasLimit": false
    },
    {
      "hash": "0x5c25c043e6f62709a05ca5f1e1ecfb45d1095b0c222042c017a69a44253ae3be",
      "transactionType": "CALL",
      "contractName": "KubiStreamerDonation",
      "contractAddress": "0x3fabe29c75608fcf006ecc5068e354168e994b4e",
      "function": "setIsHubChain(bool)",
      "arguments": [
        "false"
      ],
      "transaction": {
        "from": "0x1234562eb0cd65e7d08e59f9f18d7c10b5df232a",
        "to": "0x3fabe29c75608fcf006ecc5068e354168e994b4e",
        "gas": "0x9d91",
        "value": "0x0",
        "input": "0xf54efd770000000000000000000000000000000000000000000000000000000000000000",
        "nonce": "0xbdf3",
        "chainId": "0x14a34"
      },
      "additionalContracts": [],
      "isFixedGasLimit": false
    },
    {
      "hash": "0xc517024cd86788ddf094686815d3e2226bf6b22c33ba3795de39096985eade9b",
      "transactionType": "CALL",
      "contractName": "KubiStreamerDonation",
      "contractAddress": "0x3fabe29c75608fcf006ecc5068e354168e994b4e",
      "function": "setGlobalWhitelist(address,bool)",
      "arguments": [
        "0x33c6f26dA09502E6540043f030aE1F87f109cc99",
        "true"
      ],
      "transaction": {
        "from": "0x1234562eb0cd65e7d08e59f9f18d7c10b5df232a",
        "to": "0x3fabe29c75608fcf006ecc5068e354168e994b4e",
        "gas": "0x1013c",
        "value": "0x0",
        "input": "0x25d86ced00000000000000000000000033c6f26da09502e6540043f030ae1f87f109cc990000000000000000000000000000000000000000000000000000000000000001",
        "nonce": "0xbdf4",
        "chainId": "0x14a34"
      },
      "additionalContracts": [],
      "isFixedGasLimit": false
    },
    {
      "hash": "0x141f7e902b5c247a40fb2497eb2dff7df4bde5859d7f768558d42b2f011dcf33",
      "transactionType": "CALL",
      "contractName": "KubiStreamerDonation",
      "contractAddress": "0x3fabe29c75608fcf006ecc5068e354168e994b4e",
      "function": "setGlobalWhitelist(address,bool)",
      "arguments": [
        "0x7CB382Ce1AA40FA9F9A59a632090c05Dc28caE7b",
        "true"
      ],
      "transaction": {
        "from": "0x1234562eb0cd65e7d08e59f9f18d7c10b5df232a",
        "to": "0x3fabe29c75608fcf006ecc5068e354168e994b4e",
        "gas": "0x11071",
        "value": "0x0",
        "input": "0x25d86ced0000000000000000000000007cb382ce1aa40fa9f9a59a632090c05dc28cae7b0000000000000000000000000000000000000000000000000000000000000001",
        "nonce": "0xbdf5",
        "chainId": "0x14a34"
      },
      "additionalContracts": [],
      "isFixedGasLimit": false
    },
    {
      "hash": "0x498baee9fea712e6d1b796a8830d6bcbce8d80b03e7f9eb7c98878c4a8b16a1f",
      "transactionType": "CALL",
      "contractName": "KubiStreamerDonation",
      "contractAddress": "0x3fabe29c75608fcf006ecc5068e354168e994b4e",
      "function": "setGlobalWhitelist(address,bool)",
      "arguments": [
        "0xB288Ba5B5b80Dd0Fd83541ef2e5922f71121Fa13",
        "true"
      ],
      "transaction": {
        "from": "0x1234562eb0cd65e7d08e59f9f18d7c10b5df232a",
        "to": "0x3fabe29c75608fcf006ecc5068e354168e994b4e",
        "gas": "0x11071",
        "value": "0x0",
        "input": "0x25d86ced000000000000000000000000b288ba5b5b80dd0fd83541ef2e5922f71121fa130000000000000000000000000000000000000000000000000000000000000001",
        "nonce": "0xbdf6",
        "chainId": "0x14a34"
      },
      "additionalContracts": [],
      "isFixedGasLimit": false
    },
    {
      "hash": "0xf4cba1c1a2d4afd01c8399b2f9aa6eabe675d0cc39cc0261799a3bc267470c82",
      "transactionType": "CALL",
      "contractName": "KubiStreamerDonation",
      "contractAddress": "0x3fabe29c75608fcf006ecc5068e354168e994b4e",
      "function": "setGlobalWhitelist(address,bool)",
      "arguments": [
        "0xC4a53c466Cfb62AecED03008B0162baaf36E0B03",
        "true"
      ],
      "transaction": {
        "from": "0x1234562eb0cd65e7d08e59f9f18d7c10b5df232a",
        "to": "0x3fabe29c75608fcf006ecc5068e354168e994b4e",
        "gas": "0x11071",
        "value": "0x0",
        "input": "0x25d86ced000000000000000000000000c4a53c466cfb62aeced03008b0162baaf36e0b030000000000000000000000000000000000000000000000000000000000000001",
        "nonce": "0xbdf7",
        "chainId": "0x14a34"
      },
      "additionalContracts": [],
      "isFixedGasLimit": false
    },
    {
      "hash": "0xc9978c19ce0e18c321ec8d862e27f9b6e28c3633e150b59ad68c95d28f2166e8",
      "transactionType": "CALL",
      "contractName": "KubiStreamerDonation",
      "contractAddress": "0x3fabe29c75608fcf006ecc5068e354168e994b4e",
      "function": "setGlobalWhitelist(address,bool)",
      "arguments": [
        "0x70Db6eFB75c898Ad1e194FDA2B8C6e73dbC944d6",
        "true"
      ],
      "transaction": {
        "from": "0x1234562eb0cd65e7d08e59f9f18d7c10b5df232a",
        "to": "0x3fabe29c75608fcf006ecc5068e354168e994b4e",
        "gas": "0x11071",
        "value": "0x0",
        "input": "0x25d86ced00000000000000000000000070db6efb75c898ad1e194fda2b8c6e73dbc944d60000000000000000000000000000000000000000000000000000000000000001",
        "nonce": "0xbdf8",
        "chainId": "0x14a34"
      },
      "additionalContracts": [],
      "isFixedGasLimit": false
    },
    {
      "hash": "0x5566108684382d4140b6e8ec5a04f2105368876b022b5cdd37591160be3513b2",
      "transactionType": "CALL",
      "contractName": "KubiStreamerDonation",
      "contractAddress": "0x3fabe29c75608fcf006ecc5068e354168e994b4e",
      "function": "setGlobalWhitelist(address,bool)",
      "arguments": [
        "0xEE589FBF85128abA6f42696dB2F28eA9EBddE173",
        "true"
      ],
      "transaction": {
        "from": "0x1234562eb0cd65e7d08e59f9f18d7c10b5df232a",
        "to": "0x3fabe29c75608fcf006ecc5068e354168e994b4e",
        "gas": "0x11071",
        "value": "0x0",
        "input": "0x25d86ced000000000000000000000000ee589fbf85128aba6f42696db2f28ea9ebdde1730000000000000000000000000000000000000000000000000000000000000001",
        "nonce": "0xbdf9",
        "chainId": "0x14a34"
      },
      "additionalContracts": [],
      "isFixedGasLimit": false
    },
    {
      "hash": "0xf01a8797ef1ea73a2eeb9b7a6fe25a924591c651de9f385ae5dc37f72d36c8a9",
      "transactionType": "CALL",
      "contractName": "KubiStreamerDonation",
      "contractAddress": "0x3fabe29c75608fcf006ecc5068e354168e994b4e",
      "function": "setGlobalWhitelist(address,bool)",
      "arguments": [
        "0x2C036be74942c597e4d81D7050008dDc11becCEb",
        "true"
      ],
      "transaction": {
        "from": "0x1234562eb0cd65e7d08e59f9f18d7c10b5df232a",
        "to": "0x3fabe29c75608fcf006ecc5068e354168e994b4e",
        "gas": "0x1013c",
        "value": "0x0",
        "input": "0x25d86ced0000000000000000000000002c036be74942c597e4d81d7050008ddc11becceb0000000000000000000000000000000000000000000000000000000000000001",
        "nonce": "0xbdfa",
        "chainId": "0x14a34"
      },
      "additionalContracts": [],
      "isFixedGasLimit": false
    },
    {
      "hash": "0x0f21999c8c78621735e67cdfc1573c33c4da4cb4be66cac77977f22778a8e2ea",
      "transactionType": "CALL",
      "contractName": "KubiStreamerDonation",
      "contractAddress": "0x3fabe29c75608fcf006ecc5068e354168e994b4e",
      "function": "setGlobalWhitelist(address,bool)",
      "arguments": [
        "0x90CdcBF4c4bc78dC440252211EFd744d0A4Dc4A1",
        "true"
      ],
      "transaction": {
        "from": "0x1234562eb0cd65e7d08e59f9f18d7c10b5df232a",
        "to": "0x3fabe29c75608fcf006ecc5068e354168e994b4e",
        "gas": "0x11071",
        "value": "0x0",
        "input": "0x25d86ced00000000000000000000000090cdcbf4c4bc78dc440252211efd744d0a4dc4a10000000000000000000000000000000000000000000000000000000000000001",
        "nonce": "0xbdfb",
        "chainId": "0x14a34"
      },
      "additionalContracts": [],
      "isFixedGasLimit": false
    },
    {
      "hash": "0x51d04eeaf33d71c6eda6be6fa5e3c8a8a60e7fe6d17c4012748d142a52b69340",
      "transactionType": "CALL",
      "contractName": "KubiStreamerDonation",
      "contractAddress": "0x3fabe29c75608fcf006ecc5068e354168e994b4e",
      "function": "setGlobalWhitelist(address,bool)",
      "arguments": [
        "0xced6Ceb47301F268d57fF07879DF45Fda80e6974",
        "true"
      ],
      "transaction": {
        "from": "0x1234562eb0cd65e7d08e59f9f18d7c10b5df232a",
        "to": "0x3fabe29c75608fcf006ecc5068e354168e994b4e",
        "gas": "0x11071",
        "value": "0x0",
        "input": "0x25d86ced000000000000000000000000ced6ceb47301f268d57ff07879df45fda80e69740000000000000000000000000000000000000000000000000000000000000001",
        "nonce": "0xbdfc",
        "chainId": "0x14a34"
      },
      "additionalContracts": [],
      "isFixedGasLimit": false
    },
    {
      "hash": "0x7f1b1f58d802ab746ccdd120618b6980aff89d1779d2511646f7de8a599e37fc",
      "transactionType": "CALL",
      "contractName": "KubiStreamerDonation",
      "contractAddress": "0x3fabe29c75608fcf006ecc5068e354168e994b4e",
      "function": "setGlobalWhitelist(address,bool)",
      "arguments": [
        "0x782Ba48189AF93a0CF42766058DE83291f384bF3",
        "true"
      ],
      "transaction": {
        "from": "0x1234562eb0cd65e7d08e59f9f18d7c10b5df232a",
        "to": "0x3fabe29c75608fcf006ecc5068e354168e994b4e",
        "gas": "0x11071",
        "value": "0x0",
        "input": "0x25d86ced000000000000000000000000782ba48189af93a0cf42766058de83291f384bf30000000000000000000000000000000000000000000000000000000000000001",
        "nonce": "0xbdfd",
        "chainId": "0x14a34"
      },
      "additionalContracts": [],
      "isFixedGasLimit": false
    },
    {
      "hash": "0x23b8057085ddb949fe78a4d59452828062f213eb5b93d2ebb0a1d1d21432a0fb",
      "transactionType": "CALL",
      "contractName": "KubiStreamerDonation",
      "contractAddress": "0x3fabe29c75608fcf006ecc5068e354168e994b4e",
      "function": "setPoolFee(address,address,uint24)",
      "arguments": [
        "0x7CB382Ce1AA40FA9F9A59a632090c05Dc28caE7b",
        "0xB288Ba5B5b80Dd0Fd83541ef2e5922f71121Fa13",
        "3000"
      ],
      "transaction": {
        "from": "0x1234562eb0cd65e7d08e59f9f18d7c10b5df232a",
        "to": "0x3fabe29c75608fcf006ecc5068e354168e994b4e",
        "gas": "0x18d2c",
        "value": "0x0",
        "input": "0xb45faa760000000000000000000000007cb382ce1aa40fa9f9a59a632090c05dc28cae7b000000000000000000000000b288ba5b5b80dd0fd83541ef2e5922f71121fa130000000000000000000000000000000000000000000000000000000000000bb8",
        "nonce": "0xbdfe",
        "chainId": "0x14a34"
      },
      "additionalContracts": [],
      "isFixedGasLimit": false
    },
    {
      "hash": "0xb76c177e337153843078ff009ea0d08a66e9e2b8ab437593c2aff549ea463e43",
      "transactionType": "CALL",
      "contractName": "KubiStreamerDonation",
      "contractAddress": "0x3fabe29c75608fcf006ecc5068e354168e994b4e",
      "function": "setPoolFee(address,address,uint24)",
      "arguments": [
        "0x7CB382Ce1AA40FA9F9A59a632090c05Dc28caE7b",
        "0xC4a53c466Cfb62AecED03008B0162baaf36E0B03",
        "3000"
      ],
      "transaction": {
        "from": "0x1234562eb0cd65e7d08e59f9f18d7c10b5df232a",
        "to": "0x3fabe29c75608fcf006ecc5068e354168e994b4e",
        "gas": "0x18d2c",
        "value": "0x0",
        "input": "0xb45faa760000000000000000000000007cb382ce1aa40fa9f9a59a632090c05dc28cae7b000000000000000000000000c4a53c466cfb62aeced03008b0162baaf36e0b030000000000000000000000000000000000000000000000000000000000000bb8",
        "nonce": "0xbdff",
        "chainId": "0x14a34"
      },
      "additionalContracts": [],
      "isFixedGasLimit": false
    },
    {
      "hash": "0x0b087ca820b3eaa5098c58726da398f4683737b4b6af1d0a8d16e43fc4c1ac6d",
      "transactionType": "CALL",
      "contractName": "KubiStreamerDonation",
      "contractAddress": "0x3fabe29c75608fcf006ecc5068e354168e994b4e",
      "function": "setYieldConfig(address,address,bool,uint256)",
      "arguments": [
        "0x2007Cb1a90E71c18983F1d4091261816E9e9c2dA",
        "0xB288Ba5B5b80Dd0Fd83541ef2e5922f71121Fa13",
        "true",
        "0"
      ],
      "transaction": {
        "from": "0x1234562eb0cd65e7d08e59f9f18d7c10b5df232a",
        "to": "0x3fabe29c75608fcf006ecc5068e354168e994b4e",
        "gas": "0x12215",
        "value": "0x0",
        "input": "0x0c495f960000000000000000000000002007cb1a90e71c18983f1d4091261816e9e9c2da000000000000000000000000b288ba5b5b80dd0fd83541ef2e5922f71121fa1300000000000000000000000000000000000000000000000000000000000000010000000000000000000000000000000000000000000000000000000000000000",
        "nonce": "0xbe00",
        "chainId": "0x14a34"
      },
      "additionalContracts": [],
      "isFixedGasLimit": false
    },
    {
      "hash": "0x6d86eee93452f20cf563f86873444483bd2a5d6768d3c23743420b7ad36d10ea",
      "transactionType": "CALL",
      "contractName": "KubiStreamerDonation",
      "contractAddress": "0x3fabe29c75608fcf006ecc5068e354168e994b4e",
      "function": "setYieldConfig(address,address,bool,uint256)",
      "arguments": [
        "0x04F0aEf9cb921A8Ad848FA8B49aF7fc2E60DbcCb",
        "0xC4a53c466Cfb62AecED03008B0162baaf36E0B03",
        "true",
        "0"
      ],
      "transaction": {
        "from": "0x1234562eb0cd65e7d08e59f9f18d7c10b5df232a",
        "to": "0x3fabe29c75608fcf006ecc5068e354168e994b4e",
        "gas": "0x12215",
        "value": "0x0",
        "input": "0x0c495f9600000000000000000000000004f0aef9cb921a8ad848fa8b49af7fc2e60dbccb000000000000000000000000c4a53c466cfb62aeced03008b0162baaf36e0b0300000000000000000000000000000000000000000000000000000000000000010000000000000000000000000000000000000000000000000000000000000000",
        "nonce": "0xbe01",
        "chainId": "0x14a34"
      },
      "additionalContracts": [],
      "isFixedGasLimit": false
    },
    {
      "hash": "0xeab8ebad3448f7da971113c7e92757371fb36f6eb6bf2337aacb117f7fb5551c",
      "transactionType": "CALL",
      "contractName": "KubiStreamerDonation",
      "contractAddress": "0x3fabe29c75608fcf006ecc5068e354168e994b4e",
      "function": "setYieldConfig(address,address,bool,uint256)",
      "arguments": [
        "0x8c2B7136dDaF6129cE33f58d3E5475a0ed3F7b3C",
        "0x33c6f26dA09502E6540043f030aE1F87f109cc99",
        "true",
        "0"
      ],
      "transaction": {
        "from": "0x1234562eb0cd65e7d08e59f9f18d7c10b5df232a",
        "to": "0x3fabe29c75608fcf006ecc5068e354168e994b4e",
        "gas": "0x12204",
        "value": "0x0",
        "input": "0x0c495f960000000000000000000000008c2b7136ddaf6129ce33f58d3e5475a0ed3f7b3c00000000000000000000000033c6f26da09502e6540043f030ae1f87f109cc9900000000000000000000000000000000000000000000000000000000000000010000000000000000000000000000000000000000000000000000000000000000",
        "nonce": "0xbe02",
        "chainId": "0x14a34"
      },
      "additionalContracts": [],
      "isFixedGasLimit": false
    },
    {
      "hash": "0xc97701a2bad894c4e63cd1386bfd5fcb7eebb0083dd7c0708f64b7f9722fca49",
      "transactionType": "CALL",
      "contractName": "KubiStreamerDonation",
      "contractAddress": "0x3fabe29c75608fcf006ecc5068e354168e994b4e",
      "function": "setYieldConfig(address,address,bool,uint256)",
      "arguments": [
        "0x8e0dCfecDEEBb1da38DD1bbE9418FD7a4bdd4922",
        "0xced6Ceb47301F268d57fF07879DF45Fda80e6974",
        "true",
        "0"
      ],
      "transaction": {
        "from": "0x1234562eb0cd65e7d08e59f9f18d7c10b5df232a",
        "to": "0x3fabe29c75608fcf006ecc5068e354168e994b4e",
        "gas": "0x12215",
        "value": "0x0",
        "input": "0x0c495f960000000000000000000000008e0dcfecdeebb1da38dd1bbe9418fd7a4bdd4922000000000000000000000000ced6ceb47301f268d57ff07879df45fda80e697400000000000000000000000000000000000000000000000000000000000000010000000000000000000000000000000000000000000000000000000000000000",
        "nonce": "0xbe03",
        "chainId": "0x14a34"
      },
      "additionalContracts": [],
      "isFixedGasLimit": false
    },
    {
      "hash": "0xd7acffc7acb1d3e8548a591f406577a6fc4bd6d857618624b9ea594428427735",
      "transactionType": "CALL",
      "contractName": "KubiStreamerDonation",
      "contractAddress": "0x3fabe29c75608fcf006ecc5068e354168e994b4e",
      "function": "setYieldConfig(address,address,bool,uint256)",
      "arguments": [
        "0x89C0fa2BAE88752eC733922daa0c2Ff321bb5279",
        "0x7CB382Ce1AA40FA9F9A59a632090c05Dc28caE7b",
        "true",
        "0"
      ],
      "transaction": {
        "from": "0x1234562eb0cd65e7d08e59f9f18d7c10b5df232a",
        "to": "0x3fabe29c75608fcf006ecc5068e354168e994b4e",
        "gas": "0x12215",
        "value": "0x0",
        "input": "0x0c495f9600000000000000000000000089c0fa2bae88752ec733922daa0c2ff321bb52790000000000000000000000007cb382ce1aa40fa9f9a59a632090c05dc28cae7b00000000000000000000000000000000000000000000000000000000000000010000000000000000000000000000000000000000000000000000000000000000",
        "nonce": "0xbe04",
        "chainId": "0x14a34"
      },
      "additionalContracts": [],
      "isFixedGasLimit": false
    },
    {
      "hash": "0xe08cac3623041fa3eea35f63fa4f1c98fa0fe230415d796bba5b1220ec517263",
      "transactionType": "CALL",
      "contractName": "KubiStreamerDonation",
      "contractAddress": "0x3fabe29c75608fcf006ecc5068e354168e994b4e",
      "function": "setYieldConfig(address,address,bool,uint256)",
      "arguments": [
        "0xa6c9dD702B198Da46f9C5b21bBe65a2a31fdEB63",
        "0xB288Ba5B5b80Dd0Fd83541ef2e5922f71121Fa13",
        "true",
        "0"
      ],
      "transaction": {
        "from": "0x1234562eb0cd65e7d08e59f9f18d7c10b5df232a",
        "to": "0x3fabe29c75608fcf006ecc5068e354168e994b4e",
        "gas": "0x12215",
        "value": "0x0",
        "input": "0x0c495f96000000000000000000000000a6c9dd702b198da46f9c5b21bbe65a2a31fdeb63000000000000000000000000b288ba5b5b80dd0fd83541ef2e5922f71121fa1300000000000000000000000000000000000000000000000000000000000000010000000000000000000000000000000000000000000000000000000000000000",
        "nonce": "0xbe05",
        "chainId": "0x14a34"
      },
      "additionalContracts": [],
      "isFixedGasLimit": false
    },
    {
      "hash": "0x4c1678887c0cdeadba8ee10356c935d833827d45dde664ff3a201d50f25d8b89",
      "transactionType": "CALL",
      "contractName": "KubiStreamerDonation",
      "contractAddress": "0x3fabe29c75608fcf006ecc5068e354168e994b4e",
      "function": "setYieldConfig(address,address,bool,uint256)",
      "arguments": [
        "0x5c8b8caa55Af0d10ACc3ec95A614d26C90BD9b62",
        "0xC4a53c466Cfb62AecED03008B0162baaf36E0B03",
        "true",
        "0"
      ],
      "transaction": {
        "from": "0x1234562eb0cd65e7d08e59f9f18d7c10b5df232a",
        "to": "0x3fabe29c75608fcf006ecc5068e354168e994b4e",
        "gas": "0x12215",
        "value": "0x0",
        "input": "0x0c495f960000000000000000000000005c8b8caa55af0d10acc3ec95a614d26c90bd9b62000000000000000000000000c4a53c466cfb62aeced03008b0162baaf36e0b0300000000000000000000000000000000000000000000000000000000000000010000000000000000000000000000000000000000000000000000000000000000",
        "nonce": "0xbe06",
        "chainId": "0x14a34"
      },
      "additionalContracts": [],
      "isFixedGasLimit": false
    },
    {
      "hash": "0x3eda32b6ab1e338f80fed0eaaa2f06dbc04e32dd6dd644852d1563b936cc1807",
      "transactionType": "CALL",
      "contractName": "KubiStreamerDonation",
      "contractAddress": "0x3fabe29c75608fcf006ecc5068e354168e994b4e",
      "function": "setYieldConfig(address,address,bool,uint256)",
      "arguments": [
        "0xfCbFBaf16A7b392F5963232fC3d7bb81238a4Fc1",
        "0x33c6f26dA09502E6540043f030aE1F87f109cc99",
        "true",
        "0"
      ],
      "transaction": {
        "from": "0x1234562eb0cd65e7d08e59f9f18d7c10b5df232a",
        "to": "0x3fabe29c75608fcf006ecc5068e354168e994b4e",
        "gas": "0x12204",
        "value": "0x0",
        "input": "0x0c495f96000000000000000000000000fcbfbaf16a7b392f5963232fc3d7bb81238a4fc100000000000000000000000033c6f26da09502e6540043f030ae1f87f109cc9900000000000000000000000000000000000000000000000000000000000000010000000000000000000000000000000000000000000000000000000000000000",
        "nonce": "0xbe07",
        "chainId": "0x14a34"
      },
      "additionalContracts": [],
      "isFixedGasLimit": false
    },
    {
      "hash": "0x9f83f42f3c64f7db19fc6d44b2a93bcf3ebb2f3ef64b794f36b4fadfe1a97977",
      "transactionType": "CALL",
      "contractName": "KubiStreamerDonation",
      "contractAddress": "0x3fabe29c75608fcf006ecc5068e354168e994b4e",
      "function": "setYieldConfig(address,address,bool,uint256)",
      "arguments": [
        "0x0dF313cE12b511062eCe811e435F0729E7c9746f",
        "0xced6Ceb47301F268d57fF07879DF45Fda80e6974",
        "true",
        "0"
      ],
      "transaction": {
        "from": "0x1234562eb0cd65e7d08e59f9f18d7c10b5df232a",
        "to": "0x3fabe29c75608fcf006ecc5068e354168e994b4e",
        "gas": "0x12215",
        "value": "0x0",
        "input": "0x0c495f960000000000000000000000000df313ce12b511062ece811e435f0729e7c9746f000000000000000000000000ced6ceb47301f268d57ff07879df45fda80e697400000000000000000000000000000000000000000000000000000000000000010000000000000000000000000000000000000000000000000000000000000000",
        "nonce": "0xbe08",
        "chainId": "0x14a34"
      },
      "additionalContracts": [],
      "isFixedGasLimit": false
    },
    {
      "hash": "0x02d191e3cc4596a8b6a60fe2c9acfd8b64731d55758826ef6127d4493562219b",
      "transactionType": "CALL",
      "contractName": "KubiStreamerDonation",
      "contractAddress": "0x3fabe29c75608fcf006ecc5068e354168e994b4e",
      "function": "setYieldConfig(address,address,bool,uint256)",
      "arguments": [
        "0xB1eF139d2f4D56B126196D9FF712b67e120c0349",
        "0x7CB382Ce1AA40FA9F9A59a632090c05Dc28caE7b",
        "true",
        "0"
      ],
      "transaction": {
        "from": "0x1234562eb0cd65e7d08e59f9f18d7c10b5df232a",
        "to": "0x3fabe29c75608fcf006ecc5068e354168e994b4e",
        "gas": "0x12215",
        "value": "0x0",
        "input": "0x0c495f96000000000000000000000000b1ef139d2f4d56b126196d9ff712b67e120c03490000000000000000000000007cb382ce1aa40fa9f9a59a632090c05dc28cae7b00000000000000000000000000000000000000000000000000000000000000010000000000000000000000000000000000000000000000000000000000000000",
        "nonce": "0xbe09",
        "chainId": "0x14a34"
      },
      "additionalContracts": [],
      "isFixedGasLimit": false
    },
    {
      "hash": "0x9aeddb252705d738078cd29039f914645e5747c358508d9e6ecfaf0979a87408",
      "transactionType": "CALL",
      "contractName": "KubiStreamerDonation",
      "contractAddress": "0x3fabe29c75608fcf006ecc5068e354168e994b4e",
      "function": "setYieldConfig(address,address,bool,uint256)",
      "arguments": [
        "0x324Db0D78D0225431A2bD49470018b322a006833",
        "0xB288Ba5B5b80Dd0Fd83541ef2e5922f71121Fa13",
        "true",
        "0"
      ],
      "transaction": {
        "from": "0x1234562eb0cd65e7d08e59f9f18d7c10b5df232a",
        "to": "0x3fabe29c75608fcf006ecc5068e354168e994b4e",
        "gas": "0x12204",
        "value": "0x0",
        "input": "0x0c495f96000000000000000000000000324db0d78d0225431a2bd49470018b322a006833000000000000000000000000b288ba5b5b80dd0fd83541ef2e5922f71121fa1300000000000000000000000000000000000000000000000000000000000000010000000000000000000000000000000000000000000000000000000000000000",
        "nonce": "0xbe0a",
        "chainId": "0x14a34"
      },
      "additionalContracts": [],
      "isFixedGasLimit": false
    },
    {
      "hash": "0x80ff28979ba9574482b15879297c3c2e4412a64542c6afe68da4c3ad239e75c6",
      "transactionType": "CALL",
      "contractName": "KubiStreamerDonation",
      "contractAddress": "0x3fabe29c75608fcf006ecc5068e354168e994b4e",
      "function": "setYieldConfig(address,address,bool,uint256)",
      "arguments": [
        "0xbF1dC15Eaa6449d5bf81463578808313F5e208Ee",
        "0xC4a53c466Cfb62AecED03008B0162baaf36E0B03",
        "true",
        "0"
      ],
      "transaction": {
        "from": "0x1234562eb0cd65e7d08e59f9f18d7c10b5df232a",
        "to": "0x3fabe29c75608fcf006ecc5068e354168e994b4e",
        "gas": "0x12215",
        "value": "0x0",
        "input": "0x0c495f96000000000000000000000000bf1dc15eaa6449d5bf81463578808313f5e208ee000000000000000000000000c4a53c466cfb62aeced03008b0162baaf36e0b0300000000000000000000000000000000000000000000000000000000000000010000000000000000000000000000000000000000000000000000000000000000",
        "nonce": "0xbe0b",
        "chainId": "0x14a34"
      },
      "additionalContracts": [],
      "isFixedGasLimit": false
    },
    {
      "hash": "0xe01fb34de507476a92d3b5ae51b9a948210c5b09fa29d8f2470a7cae63453552",
      "transactionType": "CALL",
      "contractName": "KubiStreamerDonation",
      "contractAddress": "0x3fabe29c75608fcf006ecc5068e354168e994b4e",
      "function": "setYieldConfig(address,address,bool,uint256)",
      "arguments": [
        "0xc79F99285A0f4B640c552090eEab8CAbc4433C1D",
        "0x33c6f26dA09502E6540043f030aE1F87f109cc99",
        "true",
        "0"
      ],
      "transaction": {
        "from": "0x1234562eb0cd65e7d08e59f9f18d7c10b5df232a",
        "to": "0x3fabe29c75608fcf006ecc5068e354168e994b4e",
        "gas": "0x12204",
        "value": "0x0",
        "input": "0x0c495f96000000000000000000000000c79f99285a0f4b640c552090eeab8cabc4433c1d00000000000000000000000033c6f26da09502e6540043f030ae1f87f109cc9900000000000000000000000000000000000000000000000000000000000000010000000000000000000000000000000000000000000000000000000000000000",
        "nonce": "0xbe0c",
        "chainId": "0x14a34"
      },
      "additionalContracts": [],
      "isFixedGasLimit": false
    },
    {
      "hash": "0xe9888d8f52b12619cd8120d012175e47797cad7c70f9c32f848ada34c39b1f6e",
      "transactionType": "CALL",
      "contractName": "KubiStreamerDonation",
      "contractAddress": "0x3fabe29c75608fcf006ecc5068e354168e994b4e",
      "function": "setYieldConfig(address,address,bool,uint256)",
      "arguments": [
        "0xA5FC97D4eEE36Cf0CF5beE22cF78e74cE9882E81",
        "0xced6Ceb47301F268d57fF07879DF45Fda80e6974",
        "true",
        "0"
      ],
      "transaction": {
        "from": "0x1234562eb0cd65e7d08e59f9f18d7c10b5df232a",
        "to": "0x3fabe29c75608fcf006ecc5068e354168e994b4e",
        "gas": "0x12215",
        "value": "0x0",
        "input": "0x0c495f96000000000000000000000000a5fc97d4eee36cf0cf5bee22cf78e74ce9882e81000000000000000000000000ced6ceb47301f268d57ff07879df45fda80e697400000000000000000000000000000000000000000000000000000000000000010000000000000000000000000000000000000000000000000000000000000000",
        "nonce": "0xbe0d",
        "chainId": "0x14a34"
      },
      "additionalContracts": [],
      "isFixedGasLimit": false
    },
    {
      "hash": "0x3f166022bf714c046a70650cdca4f642f06f0bfd07e987d02ef45e362e55d68f",
      "transactionType": "CALL",
      "contractName": "KubiStreamerDonation",
      "contractAddress": "0x3fabe29c75608fcf006ecc5068e354168e994b4e",
      "function": "setYieldConfig(address,address,bool,uint256)",
      "arguments": [
        "0xdf3eBc828195ffBc71bB80c467cF70BfDEf0AC1E",
        "0x7CB382Ce1AA40FA9F9A59a632090c05Dc28caE7b",
        "true",
        "0"
      ],
      "transaction": {
        "from": "0x1234562eb0cd65e7d08e59f9f18d7c10b5df232a",
        "to": "0x3fabe29c75608fcf006ecc5068e354168e994b4e",
        "gas": "0x12215",
        "value": "0x0",
        "input": "0x0c495f96000000000000000000000000df3ebc828195ffbc71bb80c467cf70bfdef0ac1e0000000000000000000000007cb382ce1aa40fa9f9a59a632090c05dc28cae7b00000000000000000000000000000000000000000000000000000000000000010000000000000000000000000000000000000000000000000000000000000000",
        "nonce": "0xbe0e",
        "chainId": "0x14a34"
      },
      "additionalContracts": [],
      "isFixedGasLimit": false
    },
    {
      "hash": "0x95d77c5ba8bfe09222ba85bc3133f07a3e1145ea0019fd61a4bbd247b184c2f0",
      "transactionType": "CALL",
      "contractName": "KubiStreamerDonation",
      "contractAddress": "0x3fabe29c75608fcf006ecc5068e354168e994b4e",
      "function": "setYieldConfig(address,address,bool,uint256)",
      "arguments": [
        "0x8edafBaDe92450979DfF2F10449E7917c722AF50",
        "0xB288Ba5B5b80Dd0Fd83541ef2e5922f71121Fa13",
        "true",
        "0"
      ],
      "transaction": {
        "from": "0x1234562eb0cd65e7d08e59f9f18d7c10b5df232a",
        "to": "0x3fabe29c75608fcf006ecc5068e354168e994b4e",
        "gas": "0x12215",
        "value": "0x0",
        "input": "0x0c495f960000000000000000000000008edafbade92450979dff2f10449e7917c722af50000000000000000000000000b288ba5b5b80dd0fd83541ef2e5922f71121fa1300000000000000000000000000000000000000000000000000000000000000010000000000000000000000000000000000000000000000000000000000000000",
        "nonce": "0xbe0f",
        "chainId": "0x14a34"
      },
      "additionalContracts": [],
      "isFixedGasLimit": false
    },
    {
      "hash": "0xaad39cd19e91ccc69eaa00b9f5ed7683e8a7ebd0cb46745d784558214c5bb14b",
      "transactionType": "CALL",
      "contractName": "KubiStreamerDonation",
      "contractAddress": "0x3fabe29c75608fcf006ecc5068e354168e994b4e",
      "function": "setYieldConfig(address,address,bool,uint256)",
      "arguments": [
        "0xdf5Ca06845d1b2F3ddff5759a493fB5aff68d72d",
        "0xC4a53c466Cfb62AecED03008B0162baaf36E0B03",
        "true",
        "0"
      ],
      "transaction": {
        "from": "0x1234562eb0cd65e7d08e59f9f18d7c10b5df232a",
        "to": "0x3fabe29c75608fcf006ecc5068e354168e994b4e",
        "gas": "0x12215",
        "value": "0x0",
        "input": "0x0c495f96000000000000000000000000df5ca06845d1b2f3ddff5759a493fb5aff68d72d000000000000000000000000c4a53c466cfb62aeced03008b0162baaf36e0b0300000000000000000000000000000000000000000000000000000000000000010000000000000000000000000000000000000000000000000000000000000000",
        "nonce": "0xbe10",
        "chainId": "0x14a34"
      },
      "additionalContracts": [],
      "isFixedGasLimit": false
    },
    {
      "hash": "0x2b0eaf806656f7e3ae236470899f91fd113a155a6a475f0489b46b31fdb6ae7b",
      "transactionType": "CALL",
      "contractName": "KubiStreamerDonation",
      "contractAddress": "0x3fabe29c75608fcf006ecc5068e354168e994b4e",
      "function": "setYieldConfig(address,address,bool,uint256)",
      "arguments": [
        "0xBfc03BA44AcA79cFe6732968f99E9DB0B3880828",
        "0x33c6f26dA09502E6540043f030aE1F87f109cc99",
        "true",
        "0"
      ],
      "transaction": {
        "from": "0x1234562eb0cd65e7d08e59f9f18d7c10b5df232a",
        "to": "0x3fabe29c75608fcf006ecc5068e354168e994b4e",
        "gas": "0x12204",
        "value": "0x0",
        "input": "0x0c495f96000000000000000000000000bfc03ba44aca79cfe6732968f99e9db0b388082800000000000000000000000033c6f26da09502e6540043f030ae1f87f109cc9900000000000000000000000000000000000000000000000000000000000000010000000000000000000000000000000000000000000000000000000000000000",
        "nonce": "0xbe11",
        "chainId": "0x14a34"
      },
      "additionalContracts": [],
      "isFixedGasLimit": false
    },
    {
      "hash": "0xf2aaefb7f67756035e712e3e5ea4edcb4c278f80c2a7db77c1142089817f9417",
      "transactionType": "CALL",
      "contractName": "KubiStreamerDonation",
      "contractAddress": "0x3fabe29c75608fcf006ecc5068e354168e994b4e",
      "function": "setYieldConfig(address,address,bool,uint256)",
      "arguments": [
        "0x4E55B3951d334aF5a88474d252f789911E1EFc55",
        "0xced6Ceb47301F268d57fF07879DF45Fda80e6974",
        "true",
        "0"
      ],
      "transaction": {
        "from": "0x1234562eb0cd65e7d08e59f9f18d7c10b5df232a",
        "to": "0x3fabe29c75608fcf006ecc5068e354168e994b4e",
        "gas": "0x12215",
        "value": "0x0",
        "input": "0x0c495f960000000000000000000000004e55b3951d334af5a88474d252f789911e1efc55000000000000000000000000ced6ceb47301f268d57ff07879df45fda80e697400000000000000000000000000000000000000000000000000000000000000010000000000000000000000000000000000000000000000000000000000000000",
        "nonce": "0xbe12",
        "chainId": "0x14a34"
      },
      "additionalContracts": [],
      "isFixedGasLimit": false
    },
    {
      "hash": "0x168e45e5f900949e27cc3b409b8f55f578a4bb913e488a4702eec083b3a709b8",
      "transactionType": "CALL",
      "contractName": "KubiStreamerDonation",
      "contractAddress": "0x3fabe29c75608fcf006ecc5068e354168e994b4e",
      "function": "setYieldConfig(address,address,bool,uint256)",
      "arguments": [
        "0xE54116B3FA1623EB5aAC2ED4628002ceE620E9D8",
        "0x7CB382Ce1AA40FA9F9A59a632090c05Dc28caE7b",
        "true",
        "0"
      ],
      "transaction": {
        "from": "0x1234562eb0cd65e7d08e59f9f18d7c10b5df232a",
        "to": "0x3fabe29c75608fcf006ecc5068e354168e994b4e",
        "gas": "0x12215",
        "value": "0x0",
        "input": "0x0c495f96000000000000000000000000e54116b3fa1623eb5aac2ed4628002cee620e9d80000000000000000000000007cb382ce1aa40fa9f9a59a632090c05dc28cae7b00000000000000000000000000000000000000000000000000000000000000010000000000000000000000000000000000000000000000000000000000000000",
        "nonce": "0xbe13",
        "chainId": "0x14a34"
      },
      "additionalContracts": [],
      "isFixedGasLimit": false
    }
  ],
  "receipts": [
    {
      "status": "0x1",
      "cumulativeGasUsed": "0x3374e6",
      "logs": [
        {
          "address": "0x3fabe29c75608fcf006ecc5068e354168e994b4e",
          "topics": [
            "0x8be0079c531659141344cd1fd0a4f28419497f9722a3daafe3b4186f6b6457e0",
            "0x0000000000000000000000000000000000000000000000000000000000000000",
            "0x0000000000000000000000004e59b44847b379578588920ca78fbf26c0b4956c"
          ],
          "data": "0x",
          "blockHash": "0xef097799df314dbec02072e9165f1325892a6d1fe436abadeec04b9e69cb5b40",
          "blockNumber": "0x220e8dc",
          "blockTimestamp": "0x69553098",
          "transactionHash": "0x95d77c5ba8bfe09222ba85bc3133f07a3e1145ea0019fd61a4bbd247b184c2f0",
          "transactionIndex": "0x5",
          "logIndex": "0x7",
          "removed": false
        },
        {
          "address": "0x3fabe29c75608fcf006ecc5068e354168e994b4e",
          "topics": [
            "0x8be0079c531659141344cd1fd0a4f28419497f9722a3daafe3b4186f6b6457e0",
            "0x0000000000000000000000004e59b44847b379578588920ca78fbf26c0b4956c",
            "0x0000000000000000000000001234562eb0cd65e7d08e59f9f18d7c10b5df232a"
          ],
          "data": "0x",
          "blockHash": "0xef097799df314dbec02072e9165f1325892a6d1fe436abadeec04b9e69cb5b40",
          "blockNumber": "0x220e8dc",
          "blockTimestamp": "0x69553098",
          "transactionHash": "0x95d77c5ba8bfe09222ba85bc3133f07a3e1145ea0019fd61a4bbd247b184c2f0",
          "transactionIndex": "0x5",
          "logIndex": "0x8",
          "removed": false
        }
      ],
      "logsBloom": "0x00000000000000000000000000000000000000000000000000800000020000000000000000000000000080000000000000000000000000000000000000000000000000000000000020000000000000000001000000000000000000000000000000000000020000000000000000000800000000000000000000000000000000400000000000000000000000000000000000000000001200000000000000000000020000000001000000000000000000000000000000000000000000000000000000000000000000000000000000000000000000000000000000000000000020000000000000000000000000000000000080000000000080000000000000000000",
      "type": "0x2",
      "transactionHash": "0x95d77c5ba8bfe09222ba85bc3133f07a3e1145ea0019fd61a4bbd247b184c2f0",
      "transactionIndex": "0x5",
      "blockHash": "0xef097799df314dbec02072e9165f1325892a6d1fe436abadeec04b9e69cb5b40",
      "blockNumber": "0x220e8dc",
      "gasUsed": "0x291834",
      "effectiveGasPrice": "0x124f80",
      "blobGasUsed": "0x1fc4b8",
      "from": "0x1234562eb0cd65e7d08e59f9f18d7c10b5df232a",
      "to": "0x4e59b44847b379578588920ca78fbf26c0b4956c",
      "contractAddress": "0x3fabe29c75608fcf006ecc5068e354168e994b4e",
      "daFootprintGasScalar": "0x138",
      "l1BaseFeeScalar": "0x44d",
      "l1BlobBaseFee": "0x1",
      "l1BlobBaseFeeScalar": "0xa118b",
      "l1Fee": "0x50",
      "l1GasPrice": "0x8",
      "l1GasUsed": "0x1a11a"
    },
    {
      "status": "0x1",
      "cumulativeGasUsed": "0x33e6fa",
      "logs": [],
      "logsBloom": "0x00000000000000000000000000000000000000000000000000000000000000000000000000000000000000000000000000000000000000000000000000000000000000000000000000000000000000000000000000000000000000000000000000000000000000000000000000000000000000000000000000000000000000000000000000000000000000000000000000000000000000000000000000000000000000000000000000000000000000000000000000000000000000000000000000000000000000000000000000000000000000000000000000000000000000000000000000000000000000000000000000000000000000000000000000000000",
      "type": "0x2",
      "transactionHash": "0x0f21999c8c78621735e67cdfc1573c33c4da4cb4be66cac77977f22778a8e2ea",
      "transactionIndex": "0x6",
      "blockHash": "0xef097799df314dbec02072e9165f1325892a6d1fe436abadeec04b9e69cb5b40",
      "blockNumber": "0x220e8dc",
      "gasUsed": "0x7214",
      "effectiveGasPrice": "0x124f80",
      "blobGasUsed": "0x79e0",
      "from": "0x1234562eb0cd65e7d08e59f9f18d7c10b5df232a",
      "to": "0x3fabe29c75608fcf006ecc5068e354168e994b4e",
      "contractAddress": null,
      "daFootprintGasScalar": "0x138",
      "l1BaseFeeScalar": "0x44d",
      "l1BlobBaseFee": "0x1",
      "l1BlobBaseFeeScalar": "0xa118b",
      "l1Fee": "0x50",
      "l1GasPrice": "0x8",
      "l1GasUsed": "0x640"
    },
    {
      "status": "0x1",
      "cumulativeGasUsed": "0x34a137",
      "logs": [
        {
          "address": "0x3fabe29c75608fcf006ecc5068e354168e994b4e",
          "topics": [
            "0xac90355684e2710fa34c2c7d500018678b146ea2d56ddc331c63d242ee8bf385",
            "0x00000000000000000000000033c6f26da09502e6540043f030ae1f87f109cc99"
          ],
          "data": "0x0000000000000000000000000000000000000000000000000000000000000001",
          "blockHash": "0xef097799df314dbec02072e9165f1325892a6d1fe436abadeec04b9e69cb5b40",
          "blockNumber": "0x220e8dc",
          "blockTimestamp": "0x69553098",
          "transactionHash": "0x5c25c043e6f62709a05ca5f1e1ecfb45d1095b0c222042c017a69a44253ae3be",
          "transactionIndex": "0x7",
          "logIndex": "0x9",
          "removed": false
        }
      ],
      "logsBloom": "0x00000000000000000200000000000000000000000000000000000000020000000000000000000000000080000000000000000000000000000010000000000000000000000000000000000000000000000000000000000000000000000000000000000000000000000000000000000000000000000008000000000000002000000000000000000000000010000000000000000200000000000000000000000000000000000000000000000000000000000000000000000000000000000000000000000000000000000000000000000000000000000000000000000000000000000000000000000000000000000000000000000000000080000000000000000000",
      "type": "0x2",
      "transactionHash": "0x5c25c043e6f62709a05ca5f1e1ecfb45d1095b0c222042c017a69a44253ae3be",
      "transactionIndex": "0x7",
      "blockHash": "0xef097799df314dbec02072e9165f1325892a6d1fe436abadeec04b9e69cb5b40",
      "blockNumber": "0x220e8dc",
      "gasUsed": "0xba3d",
      "effectiveGasPrice": "0x124f80",
      "blobGasUsed": "0x79e0",
      "from": "0x1234562eb0cd65e7d08e59f9f18d7c10b5df232a",
      "to": "0x3fabe29c75608fcf006ecc5068e354168e994b4e",
      "contractAddress": null,
      "daFootprintGasScalar": "0x138",
      "l1BaseFeeScalar": "0x44d",
      "l1BlobBaseFee": "0x1",
      "l1BlobBaseFeeScalar": "0xa118b",
      "l1Fee": "0x50",
      "l1GasPrice": "0x8",
      "l1GasUsed": "0x640"
    },
    {
      "status": "0x1",
      "cumulativeGasUsed": "0x355b80",
      "logs": [
        {
          "address": "0x3fabe29c75608fcf006ecc5068e354168e994b4e",
          "topics": [
            "0xac90355684e2710fa34c2c7d500018678b146ea2d56ddc331c63d242ee8bf385",
            "0x0000000000000000000000007cb382ce1aa40fa9f9a59a632090c05dc28cae7b"
          ],
          "data": "0x0000000000000000000000000000000000000000000000000000000000000001",
          "blockHash": "0xef097799df314dbec02072e9165f1325892a6d1fe436abadeec04b9e69cb5b40",
          "blockNumber": "0x220e8dc",
          "blockTimestamp": "0x69553098",
          "transactionHash": "0x250e3b648f06a0c2efbc92fadc44c5ae389744a922ac942ab112a0d836b3f02c",
          "transactionIndex": "0x8",
          "logIndex": "0xa",
          "removed": false
        }
      ],
      "logsBloom": "0x00000000000000000200000000000000000000000000000000000000020000000000000000000000000880000000000000000000000000000010000000000000000000000000000000000000000000000000004000000000000002000000000000000000000000000000000000000000000000000000000000000000002000000000000000000000000000000000000000000000000000000000000000000000000000000000000000000000000000000000000000000000000000000000000000000000000000000000000000000000000000000000000000000000000000000000000000000000000000000000000000000000000080000000000000000000",
      "type": "0x2",
      "transactionHash": "0x250e3b648f06a0c2efbc92fadc44c5ae389744a922ac942ab112a0d836b3f02c",
      "transactionIndex": "0x8",
      "blockHash": "0xef097799df314dbec02072e9165f1325892a6d1fe436abadeec04b9e69cb5b40",
      "blockNumber": "0x220e8dc",
      "gasUsed": "0xba49",
      "effectiveGasPrice": "0x124f80",
      "blobGasUsed": "0x79e0",
      "from": "0x1234562eb0cd65e7d08e59f9f18d7c10b5df232a",
      "to": "0x3fabe29c75608fcf006ecc5068e354168e994b4e",
      "contractAddress": null,
      "daFootprintGasScalar": "0x138",
      "l1BaseFeeScalar": "0x44d",
      "l1BlobBaseFee": "0x1",
      "l1BlobBaseFeeScalar": "0xa118b",
      "l1Fee": "0x50",
      "l1GasPrice": "0x8",
      "l1GasUsed": "0x640"
    },
    {
      "status": "0x1",
      "cumulativeGasUsed": "0x3615c9",
      "logs": [
        {
          "address": "0x3fabe29c75608fcf006ecc5068e354168e994b4e",
          "topics": [
            "0xac90355684e2710fa34c2c7d500018678b146ea2d56ddc331c63d242ee8bf385",
            "0x000000000000000000000000b288ba5b5b80dd0fd83541ef2e5922f71121fa13"
          ],
          "data": "0x0000000000000000000000000000000000000000000000000000000000000001",
          "blockHash": "0xef097799df314dbec02072e9165f1325892a6d1fe436abadeec04b9e69cb5b40",
          "blockNumber": "0x220e8dc",
          "blockTimestamp": "0x69553098",
          "transactionHash": "0x498baee9fea712e6d1b796a8830d6bcbce8d80b03e7f9eb7c98878c4a8b16a1f",
          "transactionIndex": "0x9",
          "logIndex": "0xb",
          "removed": false
        }
      ],
      "logsBloom": "0x00000000000000000200000000000000000000000000000000000000020000000000000000000000000080000000000000000000000000000010000000000000000000000000000000000000000000000000000000000000000000000000000000000000000000000000000000000000000000000000000000000000002000000000000000000000000000000000000000000000000000000002000000000400000000000000000000000000000000000000000000000000000000000000000000000000000000000000000000000000000000000000000000000000000000000000000000000000000000000000000000000000000080800000000000000000",
      "type": "0x2",
      "transactionHash": "0x498baee9fea712e6d1b796a8830d6bcbce8d80b03e7f9eb7c98878c4a8b16a1f",
      "transactionIndex": "0x9",
      "blockHash": "0xef097799df314dbec02072e9165f1325892a6d1fe436abadeec04b9e69cb5b40",
      "blockNumber": "0x220e8dc",
      "gasUsed": "0xba49",
      "effectiveGasPrice": "0x124f80",
      "blobGasUsed": "0x79e0",
      "from": "0x1234562eb0cd65e7d08e59f9f18d7c10b5df232a",
      "to": "0x3fabe29c75608fcf006ecc5068e354168e994b4e",
      "contractAddress": null,
      "daFootprintGasScalar": "0x138",
      "l1BaseFeeScalar": "0x44d",
      "l1BlobBaseFee": "0x1",
      "l1BlobBaseFeeScalar": "0xa118b",
      "l1Fee": "0x50",
      "l1GasPrice": "0x8",
      "l1GasUsed": "0x640"
    },
    {
      "status": "0x1",
      "cumulativeGasUsed": "0x36d012",
      "logs": [
        {
          "address": "0x3fabe29c75608fcf006ecc5068e354168e994b4e",
          "topics": [
            "0xac90355684e2710fa34c2c7d500018678b146ea2d56ddc331c63d242ee8bf385",
            "0x000000000000000000000000c4a53c466cfb62aeced03008b0162baaf36e0b03"
          ],
          "data": "0x0000000000000000000000000000000000000000000000000000000000000001",
          "blockHash": "0xef097799df314dbec02072e9165f1325892a6d1fe436abadeec04b9e69cb5b40",
          "blockNumber": "0x220e8dc",
          "blockTimestamp": "0x69553098",
          "transactionHash": "0xc97701a2bad894c4e63cd1386bfd5fcb7eebb0083dd7c0708f64b7f9722fca49",
          "transactionIndex": "0xa",
          "logIndex": "0xc",
          "removed": false
        }
      ],
      "logsBloom": "0x00000000000000000200000000000000000000000000000000000000020000000000000000000000000080000000000000000000000000000010000000000000000000000000000000000000000000000000000000000000000000000000000000000004000000000000000000000000000000000000000000000000002000000000000000000000000000040000000000000000000000000000000000000000000000000000400000000000000000000000000000000000000000000000000000000000000000000000000000000000000000000000000000000000000000000000000000000000000000000000000000000000000080000000000000000000",
      "type": "0x2",
      "transactionHash": "0xc97701a2bad894c4e63cd1386bfd5fcb7eebb0083dd7c0708f64b7f9722fca49",
      "transactionIndex": "0xa",
      "blockHash": "0xef097799df314dbec02072e9165f1325892a6d1fe436abadeec04b9e69cb5b40",
      "blockNumber": "0x220e8dc",
      "gasUsed": "0xba49",
      "effectiveGasPrice": "0x124f80",
      "blobGasUsed": "0x79e0",
      "from": "0x1234562eb0cd65e7d08e59f9f18d7c10b5df232a",
      "to": "0x3fabe29c75608fcf006ecc5068e354168e994b4e",
      "contractAddress": null,
      "daFootprintGasScalar": "0x138",
      "l1BaseFeeScalar": "0x44d",
      "l1BlobBaseFee": "0x1",
      "l1BlobBaseFeeScalar": "0xa118b",
      "l1Fee": "0x50",
      "l1GasPrice": "0x8",
      "l1GasUsed": "0x640"
    },
    {
      "status": "0x1",
      "cumulativeGasUsed": "0x378a5b",
      "logs": [
        {
          "address": "0x3fabe29c75608fcf006ecc5068e354168e994b4e",
          "topics": [
            "0xac90355684e2710fa34c2c7d500018678b146ea2d56ddc331c63d242ee8bf385",
            "0x00000000000000000000000070db6efb75c898ad1e194fda2b8c6e73dbc944d6"
          ],
          "data": "0x0000000000000000000000000000000000000000000000000000000000000001",
          "blockHash": "0xef097799df314dbec02072e9165f1325892a6d1fe436abadeec04b9e69cb5b40",
          "blockNumber": "0x220e8dc",
          "blockTimestamp": "0x69553098",
          "transactionHash": "0x141f7e902b5c247a40fb2497eb2dff7df4bde5859d7f768558d42b2f011dcf33",
          "transactionIndex": "0xb",
          "logIndex": "0xd",
          "removed": false
        }
      ],
      "logsBloom": "0x00000000000000000200000000000000000000000000000000000000020000000000000000000000000080000000000000080000000000000010000000000000000000000000000000000000000000000000000000000000000000000000000000000000000000000000000000000000000000000000000000000000002000000000000000000000000000000000000000000000000400000000000000000000000000000000000000000000000000000000000000000000000000000000000000000000000000000000000000000000000000000000000000080000000000000000000000000000000000000000000000000000000080000000000000000000",
      "type": "0x2",
      "transactionHash": "0x141f7e902b5c247a40fb2497eb2dff7df4bde5859d7f768558d42b2f011dcf33",
      "transactionIndex": "0xb",
      "blockHash": "0xef097799df314dbec02072e9165f1325892a6d1fe436abadeec04b9e69cb5b40",
      "blockNumber": "0x220e8dc",
      "gasUsed": "0xba49",
      "effectiveGasPrice": "0x124f80",
      "blobGasUsed": "0x79e0",
      "from": "0x1234562eb0cd65e7d08e59f9f18d7c10b5df232a",
      "to": "0x3fabe29c75608fcf006ecc5068e354168e994b4e",
      "contractAddress": null,
      "daFootprintGasScalar": "0x138",
      "l1BaseFeeScalar": "0x44d",
      "l1BlobBaseFee": "0x1",
      "l1BlobBaseFeeScalar": "0xa118b",
      "l1Fee": "0x50",
      "l1GasPrice": "0x8",
      "l1GasUsed": "0x640"
    },
    {
      "status": "0x1",
      "cumulativeGasUsed": "0x3844a4",
      "logs": [
        {
          "address": "0x3fabe29c75608fcf006ecc5068e354168e994b4e",
          "topics": [
            "0xac90355684e2710fa34c2c7d500018678b146ea2d56ddc331c63d242ee8bf385",
            "0x000000000000000000000000ee589fbf85128aba6f42696db2f28ea9ebdde173"
          ],
          "data": "0x0000000000000000000000000000000000000000000000000000000000000001",
          "blockHash": "0xef097799df314dbec02072e9165f1325892a6d1fe436abadeec04b9e69cb5b40",
          "blockNumber": "0x220e8dc",
          "blockTimestamp": "0x69553098",
          "transactionHash": "0xc9978c19ce0e18c321ec8d862e27f9b6e28c3633e150b59ad68c95d28f2166e8",
          "transactionIndex": "0xc",
          "logIndex": "0xe",
          "removed": false
        }
      ],
      "logsBloom": "0x00000000000000000200000020000000000000000000000000000000020000000000000000000000000080000000000000000000000000000010000000000000000000000000000000000000000000000000000000000000000000000000000000000000000000000000000000000000000000000000000000000000002000000000000000000000000000000000000000000000000000000000000000000000000000000000000000000000000000000000000000000000000000000000000000000000000000000000000000000000000000000000400000000000000000000000000000000000000000000080000000000000000080000000000000000000",
      "type": "0x2",
      "transactionHash": "0xc9978c19ce0e18c321ec8d862e27f9b6e28c3633e150b59ad68c95d28f2166e8",
      "transactionIndex": "0xc",
      "blockHash": "0xef097799df314dbec02072e9165f1325892a6d1fe436abadeec04b9e69cb5b40",
      "blockNumber": "0x220e8dc",
      "gasUsed": "0xba49",
      "effectiveGasPrice": "0x124f80",
      "blobGasUsed": "0x79e0",
      "from": "0x1234562eb0cd65e7d08e59f9f18d7c10b5df232a",
      "to": "0x3fabe29c75608fcf006ecc5068e354168e994b4e",
      "contractAddress": null,
      "daFootprintGasScalar": "0x138",
      "l1BaseFeeScalar": "0x44d",
      "l1BlobBaseFee": "0x1",
      "l1BlobBaseFeeScalar": "0xa118b",
      "l1Fee": "0x50",
      "l1GasPrice": "0x8",
      "l1GasUsed": "0x640"
    },
    {
      "status": "0x1",
      "cumulativeGasUsed": "0x38fee1",
      "logs": [
        {
          "address": "0x3fabe29c75608fcf006ecc5068e354168e994b4e",
          "topics": [
            "0xac90355684e2710fa34c2c7d500018678b146ea2d56ddc331c63d242ee8bf385",
            "0x0000000000000000000000002c036be74942c597e4d81d7050008ddc11becceb"
          ],
          "data": "0x0000000000000000000000000000000000000000000000000000000000000001",
          "blockHash": "0xef097799df314dbec02072e9165f1325892a6d1fe436abadeec04b9e69cb5b40",
          "blockNumber": "0x220e8dc",
          "blockTimestamp": "0x69553098",
          "transactionHash": "0x5566108684382d4140b6e8ec5a04f2105368876b022b5cdd37591160be3513b2",
          "transactionIndex": "0xd",
          "logIndex": "0xf",
          "removed": false
        }
      ],
      "logsBloom": "0x00000000000000000200000000000000000000000000000000000000020000000000000000000000000080000000000000000000000000000010000000000000000000000000000000000000000000000000000000000000000010000000000000000000000000000000000000000000000000000000000000000000002000000000000000000000000000000000000000000000000000000000000000000000000000000000000000000000000000008000000000000000000000000000000000000000000000000000000000000000000000000000000000000000000000000000000000000000000000000000000000000000000080000000000000000002",
      "type": "0x2",
      "transactionHash": "0x5566108684382d4140b6e8ec5a04f2105368876b022b5cdd37591160be3513b2",
      "transactionIndex": "0xd",
      "blockHash": "0xef097799df314dbec02072e9165f1325892a6d1fe436abadeec04b9e69cb5b40",
      "blockNumber": "0x220e8dc",
      "gasUsed": "0xba3d",
      "effectiveGasPrice": "0x124f80",
      "blobGasUsed": "0x79e0",
      "from": "0x1234562eb0cd65e7d08e59f9f18d7c10b5df232a",
      "to": "0x3fabe29c75608fcf006ecc5068e354168e994b4e",
      "contractAddress": null,
      "daFootprintGasScalar": "0x138",
      "l1BaseFeeScalar": "0x44d",
      "l1BlobBaseFee": "0x1",
      "l1BlobBaseFeeScalar": "0xa118b",
      "l1Fee": "0x50",
      "l1GasPrice": "0x8",
      "l1GasUsed": "0x640"
    },
    {
      "status": "0x1",
      "cumulativeGasUsed": "0x39b92a",
      "logs": [
        {
          "address": "0x3fabe29c75608fcf006ecc5068e354168e994b4e",
          "topics": [
            "0xac90355684e2710fa34c2c7d500018678b146ea2d56ddc331c63d242ee8bf385",
            "0x00000000000000000000000090cdcbf4c4bc78dc440252211efd744d0a4dc4a1"
          ],
          "data": "0x0000000000000000000000000000000000000000000000000000000000000001",
          "blockHash": "0xef097799df314dbec02072e9165f1325892a6d1fe436abadeec04b9e69cb5b40",
          "blockNumber": "0x220e8dc",
          "blockTimestamp": "0x69553098",
          "transactionHash": "0xc517024cd86788ddf094686815d3e2226bf6b22c33ba3795de39096985eade9b",
          "transactionIndex": "0xe",
          "logIndex": "0x10",
          "removed": false
        }
      ],
      "logsBloom": "0x00000000000000000200000000000000000000000000000010000000020000000000000000000000000080000000000000000000000000200010000000000000000000000000000000000000000000000000000000000000000000000000000000000000000000000000000000000000000000000000000000000000002000000000000000000000000000000000000000000000000000000000000000000000000000000000000000000000000000000000000000000000000000000000000000000000000000000000000000000000000000000000000000000000000000000000000000000000000000080000000000000000000080000000000000000000",
      "type": "0x2",
      "transactionHash": "0xc517024cd86788ddf094686815d3e2226bf6b22c33ba3795de39096985eade9b",
      "transactionIndex": "0xe",
      "blockHash": "0xef097799df314dbec02072e9165f1325892a6d1fe436abadeec04b9e69cb5b40",
      "blockNumber": "0x220e8dc",
      "gasUsed": "0xba49",
      "effectiveGasPrice": "0x124f80",
      "blobGasUsed": "0x79e0",
      "from": "0x1234562eb0cd65e7d08e59f9f18d7c10b5df232a",
      "to": "0x3fabe29c75608fcf006ecc5068e354168e994b4e",
      "contractAddress": null,
      "daFootprintGasScalar": "0x138",
      "l1BaseFeeScalar": "0x44d",
      "l1BlobBaseFee": "0x1",
      "l1BlobBaseFeeScalar": "0xa118b",
      "l1Fee": "0x50",
      "l1GasPrice": "0x8",
      "l1GasUsed": "0x640"
    },
    {
      "status": "0x1",
      "cumulativeGasUsed": "0x3a7373",
      "logs": [
        {
          "address": "0x3fabe29c75608fcf006ecc5068e354168e994b4e",
          "topics": [
            "0xac90355684e2710fa34c2c7d500018678b146ea2d56ddc331c63d242ee8bf385",
            "0x000000000000000000000000ced6ceb47301f268d57ff07879df45fda80e6974"
          ],
          "data": "0x0000000000000000000000000000000000000000000000000000000000000001",
          "blockHash": "0xef097799df314dbec02072e9165f1325892a6d1fe436abadeec04b9e69cb5b40",
          "blockNumber": "0x220e8dc",
          "blockTimestamp": "0x69553098",
          "transactionHash": "0x9f83f42f3c64f7db19fc6d44b2a93bcf3ebb2f3ef64b794f36b4fadfe1a97977",
          "transactionIndex": "0xf",
          "logIndex": "0x11",
          "removed": false
        }
      ],
      "logsBloom": "0x00000000000000000200000800000000000000000000000000000000020000000000000000000000000080000080000000000000000000000010000000000000000000000000000000000000000000000000000000000000000000000000000000000000000000000000000000000000000000000000000000000000002000000000000000000000000000000000000000000000000000000000000000000000000000000000000000000000000000000000000000000000000000000000000000000000000000000000000000000000000000000000002000000000000000000000000000000000000000000000000000000000000080000000000000000000",
      "type": "0x2",
      "transactionHash": "0x9f83f42f3c64f7db19fc6d44b2a93bcf3ebb2f3ef64b794f36b4fadfe1a97977",
      "transactionIndex": "0xf",
      "blockHash": "0xef097799df314dbec02072e9165f1325892a6d1fe436abadeec04b9e69cb5b40",
      "blockNumber": "0x220e8dc",
      "gasUsed": "0xba49",
      "effectiveGasPrice": "0x124f80",
      "blobGasUsed": "0x79e0",
      "from": "0x1234562eb0cd65e7d08e59f9f18d7c10b5df232a",
      "to": "0x3fabe29c75608fcf006ecc5068e354168e994b4e",
      "contractAddress": null,
      "daFootprintGasScalar": "0x138",
      "l1BaseFeeScalar": "0x44d",
      "l1BlobBaseFee": "0x1",
      "l1BlobBaseFeeScalar": "0xa118b",
      "l1Fee": "0x50",
      "l1GasPrice": "0x8",
      "l1GasUsed": "0x640"
    },
    {
      "status": "0x1",
      "cumulativeGasUsed": "0x3b2dbc",
      "logs": [
        {
          "address": "0x3fabe29c75608fcf006ecc5068e354168e994b4e",
          "topics": [
            "0xac90355684e2710fa34c2c7d500018678b146ea2d56ddc331c63d242ee8bf385",
            "0x000000000000000000000000782ba48189af93a0cf42766058de83291f384bf3"
          ],
          "data": "0x0000000000000000000000000000000000000000000000000000000000000001",
          "blockHash": "0xef097799df314dbec02072e9165f1325892a6d1fe436abadeec04b9e69cb5b40",
          "blockNumber": "0x220e8dc",
          "blockTimestamp": "0x69553098",
          "transactionHash": "0x7f1b1f58d802ab746ccdd120618b6980aff89d1779d2511646f7de8a599e37fc",
          "transactionIndex": "0x10",
          "logIndex": "0x12",
          "removed": false
        }
      ],
      "logsBloom": "0x00000000000000000200000000000000000020000000000000000000020000000000000000000000000080000000000000000000000000000010000000000000000000000000000000000000000000000000000000000000000000000000000000000000000000000000000000000000000000000000000000000000002000000000000100000000000000000000000000000000000000000000000000000000000000000000000000008000000000000000000000000000000000000000000000000000000000000000000000000000000000000000000000000000000000000000000000000000000000000000000000000000000080000000000000000000",
      "type": "0x2",
      "transactionHash": "0x7f1b1f58d802ab746ccdd120618b6980aff89d1779d2511646f7de8a599e37fc",
      "transactionIndex": "0x10",
      "blockHash": "0xef097799df314dbec02072e9165f1325892a6d1fe436abadeec04b9e69cb5b40",
      "blockNumber": "0x220e8dc",
      "gasUsed": "0xba49",
      "effectiveGasPrice": "0x124f80",
      "blobGasUsed": "0x79e0",
      "from": "0x1234562eb0cd65e7d08e59f9f18d7c10b5df232a",
      "to": "0x3fabe29c75608fcf006ecc5068e354168e994b4e",
      "contractAddress": null,
      "daFootprintGasScalar": "0x138",
      "l1BaseFeeScalar": "0x44d",
      "l1BlobBaseFee": "0x1",
      "l1BlobBaseFeeScalar": "0xa118b",
      "l1Fee": "0x50",
      "l1GasPrice": "0x8",
      "l1GasUsed": "0x640"
    },
    {
      "status": "0x1",
      "cumulativeGasUsed": "0x3c3d4f",
      "logs": [],
      "logsBloom": "0x00000000000000000000000000000000000000000000000000000000000000000000000000000000000000000000000000000000000000000000000000000000000000000000000000000000000000000000000000000000000000000000000000000000000000000000000000000000000000000000000000000000000000000000000000000000000000000000000000000000000000000000000000000000000000000000000000000000000000000000000000000000000000000000000000000000000000000000000000000000000000000000000000000000000000000000000000000000000000000000000000000000000000000000000000000000",
      "type": "0x2",
      "transactionHash": "0xf4cba1c1a2d4afd01c8399b2f9aa6eabe675d0cc39cc0261799a3bc267470c82",
      "transactionIndex": "0x11",
      "blockHash": "0xef097799df314dbec02072e9165f1325892a6d1fe436abadeec04b9e69cb5b40",
      "blockNumber": "0x220e8dc",
      "gasUsed": "0x10f93",
      "effectiveGasPrice": "0x124f80",
      "blobGasUsed": "0x8268",
      "from": "0x1234562eb0cd65e7d08e59f9f18d7c10b5df232a",
      "to": "0x3fabe29c75608fcf006ecc5068e354168e994b4e",
      "contractAddress": null,
      "daFootprintGasScalar": "0x138",
      "l1BaseFeeScalar": "0x44d",
      "l1BlobBaseFee": "0x1",
      "l1BlobBaseFeeScalar": "0xa118b",
      "l1Fee": "0x50",
      "l1GasPrice": "0x8",
      "l1GasUsed": "0x6bf"
    },
    {
      "status": "0x1",
      "cumulativeGasUsed": "0x3d4ce2",
      "logs": [],
      "logsBloom": "0x00000000000000000000000000000000000000000000000000000000000000000000000000000000000000000000000000000000000000000000000000000000000000000000000000000000000000000000000000000000000000000000000000000000000000000000000000000000000000000000000000000000000000000000000000000000000000000000000000000000000000000000000000000000000000000000000000000000000000000000000000000000000000000000000000000000000000000000000000000000000000000000000000000000000000000000000000000000000000000000000000000000000000000000000000000000",
      "type": "0x2",
      "transactionHash": "0xf01a8797ef1ea73a2eeb9b7a6fe25a924591c651de9f385ae5dc37f72d36c8a9",
      "transactionIndex": "0x12",
      "blockHash": "0xef097799df314dbec02072e9165f1325892a6d1fe436abadeec04b9e69cb5b40",
      "blockNumber": "0x220e8dc",
      "gasUsed": "0x10f93",
      "effectiveGasPrice": "0x124f80",
      "blobGasUsed": "0x8268",
      "from": "0x1234562eb0cd65e7d08e59f9f18d7c10b5df232a",
      "to": "0x3fabe29c75608fcf006ecc5068e354168e994b4e",
      "contractAddress": null,
      "daFootprintGasScalar": "0x138",
      "l1BaseFeeScalar": "0x44d",
      "l1BlobBaseFee": "0x1",
      "l1BlobBaseFeeScalar": "0xa118b",
      "l1Fee": "0x50",
      "l1GasPrice": "0x8",
      "l1GasUsed": "0x6bf"
    },
    {
      "status": "0x1",
      "cumulativeGasUsed": "0x3e1ee6",
      "logs": [
        {
          "address": "0x3fabe29c75608fcf006ecc5068e354168e994b4e",
          "topics": [
            "0x354f0817e377e1e9b2601a5fa1180df29e96ac246a5d02f817a6e3bb4b72a904",
            "0x0000000000000000000000002007cb1a90e71c18983f1d4091261816e9e9c2da",
            "0x000000000000000000000000b288ba5b5b80dd0fd83541ef2e5922f71121fa13"
          ],
          "data": "0x00000000000000000000000000000000000000000000000000000000000000010000000000000000000000000000000000000000000000000000000000000000",
          "blockHash": "0xef097799df314dbec02072e9165f1325892a6d1fe436abadeec04b9e69cb5b40",
          "blockNumber": "0x220e8dc",
          "blockTimestamp": "0x69553098",
          "transactionHash": "0x51d04eeaf33d71c6eda6be6fa5e3c8a8a60e7fe6d17c4012748d142a52b69340",
          "transactionIndex": "0x13",
          "logIndex": "0x13",
          "removed": false
        }
      ],
      "logsBloom": "0x00004000000000000000000000000000000000000000000000000000020000000000000000000000800080000000000000000000000000000000000000000000000000000000000000000000000000000000000000000000000000000000000000000000000000000000000000000000000000000000000000000000000000000000000000000000000000000020000000000000000000000002000000000400000000000000000000000000000000000000000000000000000000000024000000000000000000000000000000000000000004000000000000000000000000000000000000000000000000000000000000000000000080800000000000000000",
      "type": "0x2",
      "transactionHash": "0x51d04eeaf33d71c6eda6be6fa5e3c8a8a60e7fe6d17c4012748d142a52b69340",
      "transactionIndex": "0x13",
      "blockHash": "0xef097799df314dbec02072e9165f1325892a6d1fe436abadeec04b9e69cb5b40",
      "blockNumber": "0x220e8dc",
      "gasUsed": "0xd204",
      "effectiveGasPrice": "0x124f80",
      "blobGasUsed": "0x8880",
      "from": "0x1234562eb0cd65e7d08e59f9f18d7c10b5df232a",
      "to": "0x3fabe29c75608fcf006ecc5068e354168e994b4e",
      "contractAddress": null,
      "daFootprintGasScalar": "0x138",
      "l1BaseFeeScalar": "0x44d",
      "l1BlobBaseFee": "0x1",
      "l1BlobBaseFeeScalar": "0xa118b",
      "l1Fee": "0x50",
      "l1GasPrice": "0x8",
      "l1GasUsed": "0x702"
    },
    {
      "status": "0x1",
      "cumulativeGasUsed": "0x3ef0ea",
      "logs": [
        {
          "address": "0x3fabe29c75608fcf006ecc5068e354168e994b4e",
          "topics": [
            "0x354f0817e377e1e9b2601a5fa1180df29e96ac246a5d02f817a6e3bb4b72a904",
            "0x00000000000000000000000004f0aef9cb921a8ad848fa8b49af7fc2e60dbccb",
            "0x000000000000000000000000c4a53c466cfb62aeced03008b0162baaf36e0b03"
          ],
          "data": "0x00000000000000000000000000000000000000000000000000000000000000010000000000000000000000000000000000000000000000000000000000000000",
          "blockHash": "0xef097799df314dbec02072e9165f1325892a6d1fe436abadeec04b9e69cb5b40",
          "blockNumber": "0x220e8dc",
          "blockTimestamp": "0x69553098",
          "transactionHash": "0x9aeddb252705d738078cd29039f914645e5747c358508d9e6ecfaf0979a87408",
          "transactionIndex": "0x14",
          "logIndex": "0x14",
          "removed": false
        }
      ],
      "logsBloom": "0x00000000000000000000000000000000008000000000000000000000020000000000000000000000800080000000000000000000000000000000000000000000000000000000000000000002000000000000000000000000000000000000000000000004000000000000000000000000000000000000000000000000000000000000000000000000000000040020000000000000000000000000000000000000000000000000400000000000000000000000000000000000000000000000000000000000000000000000000000000000000004000000000000000000000000000000000000000000002000000000000000000000000080000000000000000000",
      "type": "0x2",
      "transactionHash": "0x9aeddb252705d738078cd29039f914645e5747c358508d9e6ecfaf0979a87408",
      "transactionIndex": "0x14",
      "blockHash": "0xef097799df314dbec02072e9165f1325892a6d1fe436abadeec04b9e69cb5b40",
      "blockNumber": "0x220e8dc",
      "gasUsed": "0xd204",
      "effectiveGasPrice": "0x124f80",
      "blobGasUsed": "0x8880",
      "from": "0x1234562eb0cd65e7d08e59f9f18d7c10b5df232a",
      "to": "0x3fabe29c75608fcf006ecc5068e354168e994b4e",
      "contractAddress": null,
      "daFootprintGasScalar": "0x138",
      "l1BaseFeeScalar": "0x44d",
      "l1BlobBaseFee": "0x1",
      "l1BlobBaseFeeScalar": "0xa118b",
      "l1Fee": "0x50",
      "l1GasPrice": "0x8",
      "l1GasUsed": "0x702"
    },
    {
      "status": "0x1",
      "cumulativeGasUsed": "0x3fc2e2",
      "logs": [
        {
          "address": "0x3fabe29c75608fcf006ecc5068e354168e994b4e",
          "topics": [
            "0x354f0817e377e1e9b2601a5fa1180df29e96ac246a5d02f817a6e3bb4b72a904",
            "0x0000000000000000000000008c2b7136ddaf6129ce33f58d3e5475a0ed3f7b3c",
            "0x00000000000000000000000033c6f26da09502e6540043f030ae1f87f109cc99"
          ],
          "data": "0x00000000000000000000000000000000000000000000000000000000000000010000000000000000000000000000000000000000000000000000000000000000",
          "blockHash": "0xef097799df314dbec02072e9165f1325892a6d1fe436abadeec04b9e69cb5b40",
          "blockNumber": "0x220e8dc",
          "blockTimestamp": "0x69553098",
          "transactionHash": "0x23b8057085ddb949fe78a4d59452828062f213eb5b93d2ebb0a1d1d21432a0fb",
          "transactionIndex": "0x15",
          "logIndex": "0x15",
          "removed": false
        }
      ],
      "logsBloom": "0x00000000000000000000000000000000000000000000000000000000020000000000000000000000800080000000000000000000000000000000000000000000000000000000000000000000000000004000000000000000000000000000000000000000000000000000000000000000000000000008000000000000000000000000000000000000000010000020000000000200000000000000000000000000000000000000040000000000000000000000000000000000000000000000000000000000000000000000000000000000000004000000000000000002000000000000000000000000000000000000000000000000000080000000000000000000",
      "type": "0x2",
      "transactionHash": "0x23b8057085ddb949fe78a4d59452828062f213eb5b93d2ebb0a1d1d21432a0fb",
      "transactionIndex": "0x15",
      "blockHash": "0xef097799df314dbec02072e9165f1325892a6d1fe436abadeec04b9e69cb5b40",
      "blockNumber": "0x220e8dc",
      "gasUsed": "0xd1f8",
      "effectiveGasPrice": "0x124f80",
      "blobGasUsed": "0x8880",
      "from": "0x1234562eb0cd65e7d08e59f9f18d7c10b5df232a",
      "to": "0x3fabe29c75608fcf006ecc5068e354168e994b4e",
      "contractAddress": null,
      "daFootprintGasScalar": "0x138",
      "l1BaseFeeScalar": "0x44d",
      "l1BlobBaseFee": "0x1",
      "l1BlobBaseFeeScalar": "0xa118b",
      "l1Fee": "0x50",
      "l1GasPrice": "0x8",
      "l1GasUsed": "0x702"
    },
    {
      "status": "0x1",
      "cumulativeGasUsed": "0x57c4c0",
      "logs": [
        {
          "address": "0x3fabe29c75608fcf006ecc5068e354168e994b4e",
          "topics": [
            "0x354f0817e377e1e9b2601a5fa1180df29e96ac246a5d02f817a6e3bb4b72a904",
            "0x0000000000000000000000008e0dcfecdeebb1da38dd1bbe9418fd7a4bdd4922",
            "0x000000000000000000000000ced6ceb47301f268d57ff07879df45fda80e6974"
          ],
          "data": "0x00000000000000000000000000000000000000000000000000000000000000010000000000000000000000000000000000000000000000000000000000000000",
          "blockHash": "0xfdadb36e260e5a3e8976f6ca3ad419a1869a68191eadcdf29206b5c6dc0c3275",
          "blockNumber": "0x220e8dc",
          "blockTimestamp": "0x69553098",
          "transactionHash": "0xf2aaefb7f67756035e712e3e5ea4edcb4c278f80c2a7db77c1142089817f9417",
          "transactionIndex": "0x1b",
          "logIndex": "0x6d",
          "removed": false
        }
      ],
      "logsBloom": "0x00000000000000000000000800000000000000004000000000000000020000000000000000000000800080000080000000000000000000000000000000000000000000000000000000000000000000000000000000000000000000000000000000000000000000000000000000000000010000000000000000000000000000000000000000000000000000000020000000000000000000000000000000000000000000000000000000000000000000000000000000000000000000000000000000000000000000000000000000000000000004000040002000000000000000000000000000000000000000000000000000000000000080000000000000000000",
      "type": "0x2",
      "transactionHash": "0xf2aaefb7f67756035e712e3e5ea4edcb4c278f80c2a7db77c1142089817f9417",
      "transactionIndex": "0x1b",
      "blockHash": "0xfdadb36e260e5a3e8976f6ca3ad419a1869a68191eadcdf29206b5c6dc0c3275",
      "blockNumber": "0x220e8dc",
      "gasUsed": "0xd204",
      "effectiveGasPrice": "0x124f80",
      "blobGasUsed": "0x8880",
      "from": "0x1234562eb0cd65e7d08e59f9f18d7c10b5df232a",
      "to": "0x3fabe29c75608fcf006ecc5068e354168e994b4e",
      "contractAddress": null,
      "daFootprintGasScalar": "0x138",
      "l1BaseFeeScalar": "0x44d",
      "l1BlobBaseFee": "0x1",
      "l1BlobBaseFeeScalar": "0xa118b",
      "l1Fee": "0x50",
      "l1GasPrice": "0x8",
      "l1GasUsed": "0x702"
    },
    {
      "status": "0x1",
      "cumulativeGasUsed": "0x5896c4",
      "logs": [
        {
          "address": "0x3fabe29c75608fcf006ecc5068e354168e994b4e",
          "topics": [
            "0x354f0817e377e1e9b2601a5fa1180df29e96ac246a5d02f817a6e3bb4b72a904",
            "0x00000000000000000000000089c0fa2bae88752ec733922daa0c2ff321bb5279",
            "0x0000000000000000000000007cb382ce1aa40fa9f9a59a632090c05dc28cae7b"
          ],
          "data": "0x00000000000000000000000000000000000000000000000000000000000000010000000000000000000000000000000000000000000000000000000000000000",
          "blockHash": "0xfdadb36e260e5a3e8976f6ca3ad419a1869a68191eadcdf29206b5c6dc0c3275",
          "blockNumber": "0x220e8dc",
          "blockTimestamp": "0x69553098",
          "transactionHash": "0x0b087ca820b3eaa5098c58726da398f4683737b4b6af1d0a8d16e43fc4c1ac6d",
          "transactionIndex": "0x1c",
          "logIndex": "0x6e",
          "removed": false
        }
      ],
      "logsBloom": "0x00000000000000000000000000000000000000000000000000000000020000000000000000000000800880000000000000000000000000000000000000000000000000000000000000000000000000000000004000000000000002000000000000000400000000000000000000000001000000000000000000000000000000000000000000000000000000000020000000000000000000000000000000000000000000000000000000000000000000000000000000000000000000000400000000000000000000000000000000000000000004000000000000000000000000000000000000000000000000000000000000000000000080000000000000000000",
      "type": "0x2",
      "transactionHash": "0x0b087ca820b3eaa5098c58726da398f4683737b4b6af1d0a8d16e43fc4c1ac6d",
      "transactionIndex": "0x1c",
      "blockHash": "0xfdadb36e260e5a3e8976f6ca3ad419a1869a68191eadcdf29206b5c6dc0c3275",
      "blockNumber": "0x220e8dc",
      "gasUsed": "0xd204",
      "effectiveGasPrice": "0x124f80",
      "blobGasUsed": "0x8748",
      "from": "0x1234562eb0cd65e7d08e59f9f18d7c10b5df232a",
      "to": "0x3fabe29c75608fcf006ecc5068e354168e994b4e",
      "contractAddress": null,
      "daFootprintGasScalar": "0x138",
      "l1BaseFeeScalar": "0x44d",
      "l1BlobBaseFee": "0x1",
      "l1BlobBaseFeeScalar": "0xa118b",
      "l1Fee": "0x50",
      "l1GasPrice": "0x8",
      "l1GasUsed": "0x6f5"
    },
    {
      "status": "0x1",
      "cumulativeGasUsed": "0x5968c8",
      "logs": [
        {
          "address": "0x3fabe29c75608fcf006ecc5068e354168e994b4e",
          "topics": [
            "0x354f0817e377e1e9b2601a5fa1180df29e96ac246a5d02f817a6e3bb4b72a904",
            "0x000000000000000000000000a6c9dd702b198da46f9c5b21bbe65a2a31fdeb63",
            "0x000000000000000000000000b288ba5b5b80dd0fd83541ef2e5922f71121fa13"
          ],
          "data": "0x00000000000000000000000000000000000000000000000000000000000000010000000000000000000000000000000000000000000000000000000000000000",
          "blockHash": "0xfdadb36e260e5a3e8976f6ca3ad419a1869a68191eadcdf29206b5c6dc0c3275",
          "blockNumber": "0x220e8dc",
          "blockTimestamp": "0x69553098",
          "transactionHash": "0xb76c177e337153843078ff009ea0d08a66e9e2b8ab437593c2aff549ea463e43",
          "transactionIndex": "0x1d",
          "logIndex": "0x6f",
          "removed": false
        }
      ],
      "logsBloom": "0x00000000000000000000000000000000000000000000000000000000020040000000000000000000800080000000000000000000000000000000000000000000000000000000000000000000000000000000000000000000000204000000000000000000000000000000000000000000000000000000000000000000000000000000000000000000000000000020000000000000000000000002000000000400000000000000000000000000000000000000000000000000000000000000000000000000000000000000000000000000000004000000000000000000000000000000000000000000000000000000000000000000000080800000000000000000",
      "type": "0x2",
      "transactionHash": "0xb76c177e337153843078ff009ea0d08a66e9e2b8ab437593c2aff549ea463e43",
      "transactionIndex": "0x1d",
      "blockHash": "0xfdadb36e260e5a3e8976f6ca3ad419a1869a68191eadcdf29206b5c6dc0c3275",
      "blockNumber": "0x220e8dc",
      "gasUsed": "0xd204",
      "effectiveGasPrice": "0x124f80",
      "blobGasUsed": "0x8880",
      "from": "0x1234562eb0cd65e7d08e59f9f18d7c10b5df232a",
      "to": "0x3fabe29c75608fcf006ecc5068e354168e994b4e",
      "contractAddress": null,
      "daFootprintGasScalar": "0x138",
      "l1BaseFeeScalar": "0x44d",
      "l1BlobBaseFee": "0x1",
      "l1BlobBaseFeeScalar": "0xa118b",
      "l1Fee": "0x50",
      "l1GasPrice": "0x8",
      "l1GasUsed": "0x702"
    },
    {
      "status": "0x1",
      "cumulativeGasUsed": "0x5a3acc",
      "logs": [
        {
          "address": "0x3fabe29c75608fcf006ecc5068e354168e994b4e",
          "topics": [
            "0x354f0817e377e1e9b2601a5fa1180df29e96ac246a5d02f817a6e3bb4b72a904",
            "0x0000000000000000000000005c8b8caa55af0d10acc3ec95a614d26c90bd9b62",
            "0x000000000000000000000000c4a53c466cfb62aeced03008b0162baaf36e0b03"
          ],
          "data": "0x00000000000000000000000000000000000000000000000000000000000000010000000000000000000000000000000000000000000000000000000000000000",
          "blockHash": "0xfdadb36e260e5a3e8976f6ca3ad419a1869a68191eadcdf29206b5c6dc0c3275",
          "blockNumber": "0x220e8dc",
          "blockTimestamp": "0x69553098",
          "transactionHash": "0x168e45e5f900949e27cc3b409b8f55f578a4bb913e488a4702eec083b3a709b8",
          "transactionIndex": "0x1e",
          "logIndex": "0x70",
          "removed": false
        }
      ],
      "logsBloom": "0x000000000000000000000000000000000000000000000000000000000a0000000000000000000000800080000000000000000000000000000000000000000000000000000000000000000000000000000000000000000000000000000000000008000004000000000000000000000000000000000000000000000000000000000000000000000000000000040020000000000000000000000000000000000000000000000000400000000000000000000000000000000000000000000000000000000000800000000000000000000000000004000000000000000000000000000000000000000000000000000000000000000000000080000000000000000000",
      "type": "0x2",
      "transactionHash": "0x168e45e5f900949e27cc3b409b8f55f578a4bb913e488a4702eec083b3a709b8",
      "transactionIndex": "0x1e",
      "blockHash": "0xfdadb36e260e5a3e8976f6ca3ad419a1869a68191eadcdf29206b5c6dc0c3275",
      "blockNumber": "0x220e8dc",
      "gasUsed": "0xd204",
      "effectiveGasPrice": "0x124f80",
      "blobGasUsed": "0x8880",
      "from": "0x1234562eb0cd65e7d08e59f9f18d7c10b5df232a",
      "to": "0x3fabe29c75608fcf006ecc5068e354168e994b4e",
      "contractAddress": null,
      "daFootprintGasScalar": "0x138",
      "l1BaseFeeScalar": "0x44d",
      "l1BlobBaseFee": "0x1",
      "l1BlobBaseFeeScalar": "0xa118b",
      "l1Fee": "0x50",
      "l1GasPrice": "0x8",
      "l1GasUsed": "0x702"
    },
    {
      "status": "0x1",
      "cumulativeGasUsed": "0x5b0cc4",
      "logs": [
        {
          "address": "0x3fabe29c75608fcf006ecc5068e354168e994b4e",
          "topics": [
            "0x354f0817e377e1e9b2601a5fa1180df29e96ac246a5d02f817a6e3bb4b72a904",
            "0x000000000000000000000000fcbfbaf16a7b392f5963232fc3d7bb81238a4fc1",
            "0x00000000000000000000000033c6f26da09502e6540043f030ae1f87f109cc99"
          ],
          "data": "0x00000000000000000000000000000000000000000000000000000000000000010000000000000000000000000000000000000000000000000000000000000000",
          "blockHash": "0xfdadb36e260e5a3e8976f6ca3ad419a1869a68191eadcdf29206b5c6dc0c3275",
          "blockNumber": "0x220e8dc",
          "blockTimestamp": "0x69553098",
          "transactionHash": "0x80ff28979ba9574482b15879297c3c2e4412a64542c6afe68da4c3ad239e75c6",
          "transactionIndex": "0x1f",
          "logIndex": "0x71",
          "removed": false
        }
      ],
      "logsBloom": "0x00000000000000000000000000000000000000000000000000000000020000000000000000000000800480800000000000000000000000000000000000000000000000000000000000000000000000000000000000000000000000000000000000000000000000000000000000000000000000000008000000000000000000000000000000000000000010000020000000000200000000000000000000000000000000000000000000000000000000000000000000000000000000000000000000000000000000000002000000000000000004000000000000000000000000000000000000000000000000000000000000000000000080000000000000000000",
      "type": "0x2",
      "transactionHash": "0x80ff28979ba9574482b15879297c3c2e4412a64542c6afe68da4c3ad239e75c6",
      "transactionIndex": "0x1f",
      "blockHash": "0xfdadb36e260e5a3e8976f6ca3ad419a1869a68191eadcdf29206b5c6dc0c3275",
      "blockNumber": "0x220e8dc",
      "gasUsed": "0xd1f8",
      "effectiveGasPrice": "0x124f80",
      "blobGasUsed": "0x8880",
      "from": "0x1234562eb0cd65e7d08e59f9f18d7c10b5df232a",
      "to": "0x3fabe29c75608fcf006ecc5068e354168e994b4e",
      "contractAddress": null,
      "daFootprintGasScalar": "0x138",
      "l1BaseFeeScalar": "0x44d",
      "l1BlobBaseFee": "0x1",
      "l1BlobBaseFeeScalar": "0xa118b",
      "l1Fee": "0x50",
      "l1GasPrice": "0x8",
      "l1GasUsed": "0x702"
    },
    {
      "status": "0x1",
      "cumulativeGasUsed": "0x5bdec8",
      "logs": [
        {
          "address": "0x3fabe29c75608fcf006ecc5068e354168e994b4e",
          "topics": [
            "0x354f0817e377e1e9b2601a5fa1180df29e96ac246a5d02f817a6e3bb4b72a904",
            "0x0000000000000000000000000df313ce12b511062ece811e435f0729e7c9746f",
            "0x000000000000000000000000ced6ceb47301f268d57ff07879df45fda80e6974"
          ],
          "data": "0x00000000000000000000000000000000000000000000000000000000000000010000000000000000000000000000000000000000000000000000000000000000",
          "blockHash": "0xfdadb36e260e5a3e8976f6ca3ad419a1869a68191eadcdf29206b5c6dc0c3275",
          "blockNumber": "0x220e8dc",
          "blockTimestamp": "0x69553098",
          "transactionHash": "0xd7acffc7acb1d3e8548a591f406577a6fc4bd6d857618624b9ea594428427735",
          "transactionIndex": "0x20",
          "logIndex": "0x72",
          "removed": false
        }
      ],
      "logsBloom": "0x00000000000000000100000800000000000000000000000000000000020000000000000000000000800080000080000000000000002000000000000000000000000000000000000000000000000000000000000000000000000000000000000000000000000000000000000000000000000000000000000000000000000000000001000000000000000000000020000000000000000000000000000000000000000000000000000000000000000000000000000000000000000000000000000000000000000000000000000000000000000004000000002000000000000000000000000000000000000000000000000000000000000080000000000000000000",
      "type": "0x2",
      "transactionHash": "0xd7acffc7acb1d3e8548a591f406577a6fc4bd6d857618624b9ea594428427735",
      "transactionIndex": "0x20",
      "blockHash": "0xfdadb36e260e5a3e8976f6ca3ad419a1869a68191eadcdf29206b5c6dc0c3275",
      "blockNumber": "0x220e8dc",
      "gasUsed": "0xd204",
      "effectiveGasPrice": "0x124f80",
      "blobGasUsed": "0x8748",
      "from": "0x1234562eb0cd65e7d08e59f9f18d7c10b5df232a",
      "to": "0x3fabe29c75608fcf006ecc5068e354168e994b4e",
      "contractAddress": null,
      "daFootprintGasScalar": "0x138",
      "l1BaseFeeScalar": "0x44d",
      "l1BlobBaseFee": "0x1",
      "l1BlobBaseFeeScalar": "0xa118b",
      "l1Fee": "0x50",
      "l1GasPrice": "0x8",
      "l1GasUsed": "0x6f5"
    },
    {
      "status": "0x1",
      "cumulativeGasUsed": "0x5cb0cc",
      "logs": [
        {
          "address": "0x3fabe29c75608fcf006ecc5068e354168e994b4e",
          "topics": [
            "0x354f0817e377e1e9b2601a5fa1180df29e96ac246a5d02f817a6e3bb4b72a904",
            "0x000000000000000000000000b1ef139d2f4d56b126196d9ff712b67e120c0349",
            "0x0000000000000000000000007cb382ce1aa40fa9f9a59a632090c05dc28cae7b"
          ],
          "data": "0x00000000000000000000000000000000000000000000000000000000000000010000000000000000000000000000000000000000000000000000000000000000",
          "blockHash": "0xfdadb36e260e5a3e8976f6ca3ad419a1869a68191eadcdf29206b5c6dc0c3275",
          "blockNumber": "0x220e8dc",
          "blockTimestamp": "0x69553098",
          "transactionHash": "0x02d191e3cc4596a8b6a60fe2c9acfd8b64731d55758826ef6127d4493562219b",
          "transactionIndex": "0x21",
          "logIndex": "0x73",
          "removed": false
        }
      ],
      "logsBloom": "0x000000000000000000000000000000000000000000000000000000000a0000000000000000000000800880000000000000000000000000000000000000000000000000000000000000000000000000000000004000000000000002000000800000000000000000000000000000000000000000000000000000000000000000000000000000000000000000000020000000000000000000000000000000000000000000000000000000000000000000000000000000000000000000000000000000000000000000000000000000000000000004000000000000000000000000000000000000000040000000000000000000000000000080000000000000000000",
      "type": "0x2",
      "transactionHash": "0x02d191e3cc4596a8b6a60fe2c9acfd8b64731d55758826ef6127d4493562219b",
      "transactionIndex": "0x21",
      "blockHash": "0xfdadb36e260e5a3e8976f6ca3ad419a1869a68191eadcdf29206b5c6dc0c3275",
      "blockNumber": "0x220e8dc",
      "gasUsed": "0xd204",
      "effectiveGasPrice": "0x124f80",
      "blobGasUsed": "0x8880",
      "from": "0x1234562eb0cd65e7d08e59f9f18d7c10b5df232a",
      "to": "0x3fabe29c75608fcf006ecc5068e354168e994b4e",
      "contractAddress": null,
      "daFootprintGasScalar": "0x138",
      "l1BaseFeeScalar": "0x44d",
      "l1BlobBaseFee": "0x1",
      "l1BlobBaseFeeScalar": "0xa118b",
      "l1Fee": "0x50",
      "l1GasPrice": "0x8",
      "l1GasUsed": "0x702"
    },
    {
      "status": "0x1",
      "cumulativeGasUsed": "0x5d82c4",
      "logs": [
        {
          "address": "0x3fabe29c75608fcf006ecc5068e354168e994b4e",
          "topics": [
            "0x354f0817e377e1e9b2601a5fa1180df29e96ac246a5d02f817a6e3bb4b72a904",
            "0x000000000000000000000000324db0d78d0225431a2bd49470018b322a006833",
            "0x000000000000000000000000b288ba5b5b80dd0fd83541ef2e5922f71121fa13"
          ],
          "data": "0x00000000000000000000000000000000000000000000000000000000000000010000000000000000000000000000000000000000000000000000000000000000",
          "blockHash": "0xfdadb36e260e5a3e8976f6ca3ad419a1869a68191eadcdf29206b5c6dc0c3275",
          "blockNumber": "0x220e8dc",
          "blockTimestamp": "0x69553098",
          "transactionHash": "0xe01fb34de507476a92d3b5ae51b9a948210c5b09fa29d8f2470a7cae63453552",
          "transactionIndex": "0x22",
          "logIndex": "0x74",
          "removed": false
        }
      ],
      "logsBloom": "0x00000000000000000000000000000000000000000000000000000000020000000000000000000000800080000000000000000000000000000000000000000000000000000000000000000000000000000000000000000000000000000000000000000000000000000000000000000000000000000000000000000000000000000000000000000000000000000020000000000000000000000002000000000400000000000000000000000000000000000000000000000000000000000000000000000020000000000000000000000000000004000000000000000000000000000000000000080200000000000000000000000000000080800000000000000000",
      "type": "0x2",
      "transactionHash": "0xe01fb34de507476a92d3b5ae51b9a948210c5b09fa29d8f2470a7cae63453552",
      "transactionIndex": "0x22",
      "blockHash": "0xfdadb36e260e5a3e8976f6ca3ad419a1869a68191eadcdf29206b5c6dc0c3275",
      "blockNumber": "0x220e8dc",
      "gasUsed": "0xd1f8",
      "effectiveGasPrice": "0x124f80",
      "blobGasUsed": "0x8880",
      "from": "0x1234562eb0cd65e7d08e59f9f18d7c10b5df232a",
      "to": "0x3fabe29c75608fcf006ecc5068e354168e994b4e",
      "contractAddress": null,
      "daFootprintGasScalar": "0x138",
      "l1BaseFeeScalar": "0x44d",
      "l1BlobBaseFee": "0x1",
      "l1BlobBaseFeeScalar": "0xa118b",
      "l1Fee": "0x50",
      "l1GasPrice": "0x8",
      "l1GasUsed": "0x702"
    },
    {
      "status": "0x1",
      "cumulativeGasUsed": "0x5e54c8",
      "logs": [
        {
          "address": "0x3fabe29c75608fcf006ecc5068e354168e994b4e",
          "topics": [
            "0x354f0817e377e1e9b2601a5fa1180df29e96ac246a5d02f817a6e3bb4b72a904",
            "0x000000000000000000000000bf1dc15eaa6449d5bf81463578808313f5e208ee",
            "0x000000000000000000000000c4a53c466cfb62aeced03008b0162baaf36e0b03"
          ],
          "data": "0x00000000000000000000000000000000000000000000000000000000000000010000000000000000000000000000000000000000000000000000000000000000",
          "blockHash": "0xfdadb36e260e5a3e8976f6ca3ad419a1869a68191eadcdf29206b5c6dc0c3275",
          "blockNumber": "0x220e8dc",
          "blockTimestamp": "0x69553098",
          "transactionHash": "0x4c1678887c0cdeadba8ee10356c935d833827d45dde664ff3a201d50f25d8b89",
          "transactionIndex": "0x23",
          "logIndex": "0x75",
          "removed": false
        }
      ],
      "logsBloom": "0x00000000000000000000000000080000000000000000000000000000020000000000000000000000800080000000000000000000000000000000000000000000000000000000000000000000000000000000000000000000000000000000000000000024000000000000000000000000000000000000010000000000000000000000000000000000000000040020000000000000000000000000000000000000000000000000400000000000000000000000000000000000000000000000000000000000000000000000000000000000000004000000000000000000000000000000000000000000000000000000000000000000000080000000000000000000",
      "type": "0x2",
      "transactionHash": "0x4c1678887c0cdeadba8ee10356c935d833827d45dde664ff3a201d50f25d8b89",
      "transactionIndex": "0x23",
      "blockHash": "0xfdadb36e260e5a3e8976f6ca3ad419a1869a68191eadcdf29206b5c6dc0c3275",
      "blockNumber": "0x220e8dc",
      "gasUsed": "0xd204",
      "effectiveGasPrice": "0x124f80",
      "blobGasUsed": "0x8880",
      "from": "0x1234562eb0cd65e7d08e59f9f18d7c10b5df232a",
      "to": "0x3fabe29c75608fcf006ecc5068e354168e994b4e",
      "contractAddress": null,
      "daFootprintGasScalar": "0x138",
      "l1BaseFeeScalar": "0x44d",
      "l1BlobBaseFee": "0x1",
      "l1BlobBaseFeeScalar": "0xa118b",
      "l1Fee": "0x50",
      "l1GasPrice": "0x8",
      "l1GasUsed": "0x702"
    },
    {
      "status": "0x1",
      "cumulativeGasUsed": "0x5f26c0",
      "logs": [
        {
          "address": "0x3fabe29c75608fcf006ecc5068e354168e994b4e",
          "topics": [
            "0x354f0817e377e1e9b2601a5fa1180df29e96ac246a5d02f817a6e3bb4b72a904",
            "0x000000000000000000000000c79f99285a0f4b640c552090eeab8cabc4433c1d",
            "0x00000000000000000000000033c6f26da09502e6540043f030ae1f87f109cc99"
          ],
          "data": "0x00000000000000000000000000000000000000000000000000000000000000010000000000000000000000000000000000000000000000000000000000000000",
          "blockHash": "0xfdadb36e260e5a3e8976f6ca3ad419a1869a68191eadcdf29206b5c6dc0c3275",
          "blockNumber": "0x220e8dc",
          "blockTimestamp": "0x69553098",
          "transactionHash": "0xeab8ebad3448f7da971113c7e92757371fb36f6eb6bf2337aacb117f7fb5551c",
          "transactionIndex": "0x24",
          "logIndex": "0x76",
          "removed": false
        }
      ],
      "logsBloom": "0x00000000000000000000000000000000000004000000000000000000020002000000000000000000800080000000000000000000000000000000000000000000000000000000000000000000000000000000000000000000000000000000000000000000000000000000000000000000000000000008000000000000000000000000000000000000000010000020000000000200000000000000000000000000000000000000000000000000000000000000000000000000000000000000000000000000000000000000000000000000000004000000000000000000000000000000000000000000000000000000000000000000000080040000000000000000",
      "type": "0x2",
      "transactionHash": "0xeab8ebad3448f7da971113c7e92757371fb36f6eb6bf2337aacb117f7fb5551c",
      "transactionIndex": "0x24",
      "blockHash": "0xfdadb36e260e5a3e8976f6ca3ad419a1869a68191eadcdf29206b5c6dc0c3275",
      "blockNumber": "0x220e8dc",
      "gasUsed": "0xd1f8",
      "effectiveGasPrice": "0x124f80",
      "blobGasUsed": "0x8880",
      "from": "0x1234562eb0cd65e7d08e59f9f18d7c10b5df232a",
      "to": "0x3fabe29c75608fcf006ecc5068e354168e994b4e",
      "contractAddress": null,
      "daFootprintGasScalar": "0x138",
      "l1BaseFeeScalar": "0x44d",
      "l1BlobBaseFee": "0x1",
      "l1BlobBaseFeeScalar": "0xa118b",
      "l1Fee": "0x50",
      "l1GasPrice": "0x8",
      "l1GasUsed": "0x702"
    },
    {
      "status": "0x1",
      "cumulativeGasUsed": "0x5ff8c4",
      "logs": [
        {
          "address": "0x3fabe29c75608fcf006ecc5068e354168e994b4e",
          "topics": [
            "0x354f0817e377e1e9b2601a5fa1180df29e96ac246a5d02f817a6e3bb4b72a904",
            "0x000000000000000000000000a5fc97d4eee36cf0cf5bee22cf78e74ce9882e81",
            "0x000000000000000000000000ced6ceb47301f268d57ff07879df45fda80e6974"
          ],
          "data": "0x00000000000000000000000000000000000000000000000000000000000000010000000000000000000000000000000000000000000000000000000000000000",
          "blockHash": "0xfdadb36e260e5a3e8976f6ca3ad419a1869a68191eadcdf29206b5c6dc0c3275",
          "blockNumber": "0x220e8dc",
          "blockTimestamp": "0x69553098",
          "transactionHash": "0x3eda32b6ab1e338f80fed0eaaa2f06dbc04e32dd6dd644852d1563b936cc1807",
          "transactionIndex": "0x25",
          "logIndex": "0x77",
          "removed": false
        }
      ],
      "logsBloom": "0x00000000000000000000000800000000000000000000000000000000020000000000000000000000800080000080000000000000010000000000000000000000000000000000000000000000000000000000000000000000000000000000000000400000000000000000008000000000000000000000000000000000000000000000000000000000000000000020000000000000000000000000000000000000000000000000000000000000000000000000000000000000000000000000000000000000000000000000000000000000000004000000002000000000000000000000000000000000000000000000000000000000000080000000000000000000",
      "type": "0x2",
      "transactionHash": "0x3eda32b6ab1e338f80fed0eaaa2f06dbc04e32dd6dd644852d1563b936cc1807",
      "transactionIndex": "0x25",
      "blockHash": "0xfdadb36e260e5a3e8976f6ca3ad419a1869a68191eadcdf29206b5c6dc0c3275",
      "blockNumber": "0x220e8dc",
      "gasUsed": "0xd204",
      "effectiveGasPrice": "0x124f80",
      "blobGasUsed": "0x8880",
      "from": "0x1234562eb0cd65e7d08e59f9f18d7c10b5df232a",
      "to": "0x3fabe29c75608fcf006ecc5068e354168e994b4e",
      "contractAddress": null,
      "daFootprintGasScalar": "0x138",
      "l1BaseFeeScalar": "0x44d",
      "l1BlobBaseFee": "0x1",
      "l1BlobBaseFeeScalar": "0xa118b",
      "l1Fee": "0x50",
      "l1GasPrice": "0x8",
      "l1GasUsed": "0x702"
    },
    {
      "status": "0x1",
      "cumulativeGasUsed": "0x60cac8",
      "logs": [
        {
          "address": "0x3fabe29c75608fcf006ecc5068e354168e994b4e",
          "topics": [
            "0x354f0817e377e1e9b2601a5fa1180df29e96ac246a5d02f817a6e3bb4b72a904",
            "0x000000000000000000000000df3ebc828195ffbc71bb80c467cf70bfdef0ac1e",
            "0x0000000000000000000000007cb382ce1aa40fa9f9a59a632090c05dc28cae7b"
          ],
          "data": "0x00000000000000000000000000000000000000000000000000000000000000010000000000000000000000000000000000000000000000000000000000000000",
          "blockHash": "0xfdadb36e260e5a3e8976f6ca3ad419a1869a68191eadcdf29206b5c6dc0c3275",
          "blockNumber": "0x220e8dc",
          "blockTimestamp": "0x69553098",
          "transactionHash": "0x3f166022bf714c046a70650cdca4f642f06f0bfd07e987d02ef45e362e55d68f",
          "transactionIndex": "0x26",
          "logIndex": "0x78",
          "removed": false
        }
      ],
      "logsBloom": "0x00000000000000000000000000000000000000000000000000000000020000000000000000000000800882000000000000000000000000000000000000000000000000000000000000000000000000000000004000000000000002000000000000000000000000000000000000000000000000000000000000000000000000000000000000000000000000000020000001000000000000000000000000000000000000000000000000000000000000000000000000000000000000000000000000000000000000000400000000000000000004000000000000000000000000000000000000000000000000000000000000000000000080000000000000000000",
      "type": "0x2",
      "transactionHash": "0x3f166022bf714c046a70650cdca4f642f06f0bfd07e987d02ef45e362e55d68f",
      "transactionIndex": "0x26",
      "blockHash": "0xfdadb36e260e5a3e8976f6ca3ad419a1869a68191eadcdf29206b5c6dc0c3275",
      "blockNumber": "0x220e8dc",
      "gasUsed": "0xd204",
      "effectiveGasPrice": "0x124f80",
      "blobGasUsed": "0x8880",
      "from": "0x1234562eb0cd65e7d08e59f9f18d7c10b5df232a",
      "to": "0x3fabe29c75608fcf006ecc5068e354168e994b4e",
      "contractAddress": null,
      "daFootprintGasScalar": "0x138",
      "l1BaseFeeScalar": "0x44d",
      "l1BlobBaseFee": "0x1",
      "l1BlobBaseFeeScalar": "0xa118b",
      "l1Fee": "0x50",
      "l1GasPrice": "0x8",
      "l1GasUsed": "0x702"
    },
    {
      "status": "0x1",
      "cumulativeGasUsed": "0x619ccc",
      "logs": [
        {
          "address": "0x3fabe29c75608fcf006ecc5068e354168e994b4e",
          "topics": [
            "0x354f0817e377e1e9b2601a5fa1180df29e96ac246a5d02f817a6e3bb4b72a904",
            "0x0000000000000000000000008edafbade92450979dff2f10449e7917c722af50",
            "0x000000000000000000000000b288ba5b5b80dd0fd83541ef2e5922f71121fa13"
          ],
          "data": "0x00000000000000000000000000000000000000000000000000000000000000010000000000000000000000000000000000000000000000000000000000000000",
          "blockHash": "0xfdadb36e260e5a3e8976f6ca3ad419a1869a68191eadcdf29206b5c6dc0c3275",
          "blockNumber": "0x220e8dc",
          "blockTimestamp": "0x69553098",
          "transactionHash": "0x2b0eaf806656f7e3ae236470899f91fd113a155a6a475f0489b46b31fdb6ae7b",
          "transactionIndex": "0x27",
          "logIndex": "0x79",
          "removed": false
        }
      ],
      "logsBloom": "0x00000000000000000000000000000000000000000000000000000000020000000000000000000000800080000000000000000000000000000000000000000000000000000000000000000000000000000000000000000000000000000000000800000000000000000000000000000000000000000000000000000000000000000000000000000000000000000020000000000000000000000002000000000400000000000000020000000000000000000000000000000000000000000000000000000000000000000000000000000000000004000000200000000000000000000000000000000000000000000000000000000000000080800000000000000000",
      "type": "0x2",
      "transactionHash": "0x2b0eaf806656f7e3ae236470899f91fd113a155a6a475f0489b46b31fdb6ae7b",
      "transactionIndex": "0x27",
      "blockHash": "0xfdadb36e260e5a3e8976f6ca3ad419a1869a68191eadcdf29206b5c6dc0c3275",
      "blockNumber": "0x220e8dc",
      "gasUsed": "0xd204",
      "effectiveGasPrice": "0x124f80",
      "blobGasUsed": "0x8880",
      "from": "0x1234562eb0cd65e7d08e59f9f18d7c10b5df232a",
      "to": "0x3fabe29c75608fcf006ecc5068e354168e994b4e",
      "contractAddress": null,
      "daFootprintGasScalar": "0x138",
      "l1BaseFeeScalar": "0x44d",
      "l1BlobBaseFee": "0x1",
      "l1BlobBaseFeeScalar": "0xa118b",
      "l1Fee": "0x50",
      "l1GasPrice": "0x8",
      "l1GasUsed": "0x702"
    },
    {
      "status": "0x1",
      "cumulativeGasUsed": "0x626ed0",
      "logs": [
        {
          "address": "0x3fabe29c75608fcf006ecc5068e354168e994b4e",
          "topics": [
            "0x354f0817e377e1e9b2601a5fa1180df29e96ac246a5d02f817a6e3bb4b72a904",
            "0x000000000000000000000000df5ca06845d1b2f3ddff5759a493fb5aff68d72d",
            "0x000000000000000000000000c4a53c466cfb62aeced03008b0162baaf36e0b03"
          ],
          "data": "0x00000000000000000000000000000000000000000000000000000000000000010000000000000000000000000000000000000000000000000000000000000000",
          "blockHash": "0xfdadb36e260e5a3e8976f6ca3ad419a1869a68191eadcdf29206b5c6dc0c3275",
          "blockNumber": "0x220e8dc",
          "blockTimestamp": "0x69553098",
          "transactionHash": "0xe08cac3623041fa3eea35f63fa4f1c98fa0fe230415d796bba5b1220ec517263",
          "transactionIndex": "0x28",
          "logIndex": "0x7a",
          "removed": false
        }
      ],
      "logsBloom": "0x00000000000000000000000000000000000000000000000000000000020000000000000000000000800080000000000000000000000000000000000000000000000000002000000000000000000000000000000000000000000000000000000000200004000000000000000000000000000000000000000000000000000000000000000000000000000000040020000000000000000000000000000000000000000000000000400000000000000000000000000000000000000000000000000000000000000000000000000000000000000004000000000000000000000000000000000000000000000000000000000000000000000080002000000000000000",
      "type": "0x2",
      "transactionHash": "0xe08cac3623041fa3eea35f63fa4f1c98fa0fe230415d796bba5b1220ec517263",
      "transactionIndex": "0x28",
      "blockHash": "0xfdadb36e260e5a3e8976f6ca3ad419a1869a68191eadcdf29206b5c6dc0c3275",
      "blockNumber": "0x220e8dc",
      "gasUsed": "0xd204",
      "effectiveGasPrice": "0x124f80",
      "blobGasUsed": "0x8880",
      "from": "0x1234562eb0cd65e7d08e59f9f18d7c10b5df232a",
      "to": "0x3fabe29c75608fcf006ecc5068e354168e994b4e",
      "contractAddress": null,
      "daFootprintGasScalar": "0x138",
      "l1BaseFeeScalar": "0x44d",
      "l1BlobBaseFee": "0x1",
      "l1BlobBaseFeeScalar": "0xa118b",
      "l1Fee": "0x50",
      "l1GasPrice": "0x8",
      "l1GasUsed": "0x702"
    },
    {
      "status": "0x1",
      "cumulativeGasUsed": "0x6340c8",
      "logs": [
        {
          "address": "0x3fabe29c75608fcf006ecc5068e354168e994b4e",
          "topics": [
            "0x354f0817e377e1e9b2601a5fa1180df29e96ac246a5d02f817a6e3bb4b72a904",
            "0x000000000000000000000000bfc03ba44aca79cfe6732968f99e9db0b3880828",
            "0x00000000000000000000000033c6f26da09502e6540043f030ae1f87f109cc99"
          ],
          "data": "0x00000000000000000000000000000000000000000000000000000000000000010000000000000000000000000000000000000000000000000000000000000000",
          "blockHash": "0xfdadb36e260e5a3e8976f6ca3ad419a1869a68191eadcdf29206b5c6dc0c3275",
          "blockNumber": "0x220e8dc",
          "blockTimestamp": "0x69553098",
          "transactionHash": "0xaad39cd19e91ccc69eaa00b9f5ed7683e8a7ebd0cb46745d784558214c5bb14b",
          "transactionIndex": "0x29",
          "logIndex": "0x7b",
          "removed": false
        }
      ],
      "logsBloom": "0x00000000000000000000000000000000000000000000000000000000020000000000000000000000800080000000000000000000000000000000000000000000000000000000000000000000000000000000000000000000000000100000008000000000000000000000000000000000000000000008000000040000000000000000000000000000000010000020000000000200000000000000000000000000000000000000000000000000000000000000000000000000000000000000000000000000000000000000000000000000000004000000000000000000000000000000000000000000000000000000000000000000000080000000000000000000",
      "type": "0x2",
      "transactionHash": "0xaad39cd19e91ccc69eaa00b9f5ed7683e8a7ebd0cb46745d784558214c5bb14b",
      "transactionIndex": "0x29",
      "blockHash": "0xfdadb36e260e5a3e8976f6ca3ad419a1869a68191eadcdf29206b5c6dc0c3275",
      "blockNumber": "0x220e8dc",
      "gasUsed": "0xd1f8",
      "effectiveGasPrice": "0x124f80",
      "blobGasUsed": "0x8880",
      "from": "0x1234562eb0cd65e7d08e59f9f18d7c10b5df232a",
      "to": "0x3fabe29c75608fcf006ecc5068e354168e994b4e",
      "contractAddress": null,
      "daFootprintGasScalar": "0x138",
      "l1BaseFeeScalar": "0x44d",
      "l1BlobBaseFee": "0x1",
      "l1BlobBaseFeeScalar": "0xa118b",
      "l1Fee": "0x50",
      "l1GasPrice": "0x8",
      "l1GasUsed": "0x702"
    },
    {
      "status": "0x1",
      "cumulativeGasUsed": "0x6412cc",
      "logs": [
        {
          "address": "0x3fabe29c75608fcf006ecc5068e354168e994b4e",
          "topics": [
            "0x354f0817e377e1e9b2601a5fa1180df29e96ac246a5d02f817a6e3bb4b72a904",
            "0x0000000000000000000000004e55b3951d334af5a88474d252f789911e1efc55",
            "0x000000000000000000000000ced6ceb47301f268d57ff07879df45fda80e6974"
          ],
          "data": "0x00000000000000000000000000000000000000000000000000000000000000010000000000000000000000000000000000000000000000000000000000000000",
          "blockHash": "0xfdadb36e260e5a3e8976f6ca3ad419a1869a68191eadcdf29206b5c6dc0c3275",
          "blockNumber": "0x220e8dc",
          "blockTimestamp": "0x69553098",
          "transactionHash": "0xe9888d8f52b12619cd8120d012175e47797cad7c70f9c32f848ada34c39b1f6e",
          "transactionIndex": "0x2a",
          "logIndex": "0x7c",
          "removed": false
        }
      ],
      "logsBloom": "0x00000000000000000000000800000000000000000000000000000000020000000000000000000000800080000080000000000000000000200000000000000000000000000000000000000000000000000000000000000000000000000000000000000000000000000000000000000000000000000000000000000000000000000000000000000000000000000020000000000000000000000000000004000000000000000000000000000000000000000000000000000000000000000000000000000000000000000000000000000000000004000000002000000000000000000000000000000000000000000000000000000000000080008000000000000000",
      "type": "0x2",
      "transactionHash": "0xe9888d8f52b12619cd8120d012175e47797cad7c70f9c32f848ada34c39b1f6e",
      "transactionIndex": "0x2a",
      "blockHash": "0xfdadb36e260e5a3e8976f6ca3ad419a1869a68191eadcdf29206b5c6dc0c3275",
      "blockNumber": "0x220e8dc",
      "gasUsed": "0xd204",
      "effectiveGasPrice": "0x124f80",
      "blobGasUsed": "0x8880",
      "from": "0x1234562eb0cd65e7d08e59f9f18d7c10b5df232a",
      "to": "0x3fabe29c75608fcf006ecc5068e354168e994b4e",
      "contractAddress": null,
      "daFootprintGasScalar": "0x138",
      "l1BaseFeeScalar": "0x44d",
      "l1BlobBaseFee": "0x1",
      "l1BlobBaseFeeScalar": "0xa118b",
      "l1Fee": "0x50",
      "l1GasPrice": "0x8",
      "l1GasUsed": "0x702"
    },
    {
      "status": "0x1",
      "cumulativeGasUsed": "0x64e4d0",
      "logs": [
        {
          "address": "0x3fabe29c75608fcf006ecc5068e354168e994b4e",
          "topics": [
            "0x354f0817e377e1e9b2601a5fa1180df29e96ac246a5d02f817a6e3bb4b72a904",
            "0x000000000000000000000000e54116b3fa1623eb5aac2ed4628002cee620e9d8",
            "0x0000000000000000000000007cb382ce1aa40fa9f9a59a632090c05dc28cae7b"
          ],
          "data": "0x00000000000000000000000000000000000000000000000000000000000000010000000000000000000000000000000000000000000000000000000000000000",
          "blockHash": "0xfdadb36e260e5a3e8976f6ca3ad419a1869a68191eadcdf29206b5c6dc0c3275",
          "blockNumber": "0x220e8dc",
          "blockTimestamp": "0x69553098",
          "transactionHash": "0x6d86eee93452f20cf563f86873444483bd2a5d6768d3c23743420b7ad36d10ea",
          "transactionIndex": "0x2b",
          "logIndex": "0x7d",
          "removed": false
        }
      ],
      "logsBloom": "0x00000000000000000000000000000000000000000000000000000000020000000000000000000000800880000000000000000000000000000000000000000000000000000000000000000000000000000000004000000000000002400000000000000000000000000000000000000000000000000000000001000000000000000200000000000000000000000020000000000000000000000000000000000000000000000000000000000000000000000000000000000000000000000000000000000000000000000000000000000000000004000000000000000000000000000000000000000000000000000000000000000000000080000000000000000000",
      "type": "0x2",
      "transactionHash": "0x6d86eee93452f20cf563f86873444483bd2a5d6768d3c23743420b7ad36d10ea",
      "transactionIndex": "0x2b",
      "blockHash": "0xfdadb36e260e5a3e8976f6ca3ad419a1869a68191eadcdf29206b5c6dc0c3275",
      "blockNumber": "0x220e8dc",
      "gasUsed": "0xd204",
      "effectiveGasPrice": "0x124f80",
      "blobGasUsed": "0x8880",
      "from": "0x1234562eb0cd65e7d08e59f9f18d7c10b5df232a",
      "to": "0x3fabe29c75608fcf006ecc5068e354168e994b4e",
      "contractAddress": null,
      "daFootprintGasScalar": "0x138",
      "l1BaseFeeScalar": "0x44d",
      "l1BlobBaseFee": "0x1",
      "l1BlobBaseFeeScalar": "0xa118b",
      "l1Fee": "0x50",
      "l1GasPrice": "0x8",
      "l1GasUsed": "0x702"
    }
  ],
  "libraries": [],
  "pending": [],
  "returns": {},
  "timestamp": 1767190703470,
  "chain": 84532,
  "commit": "4137a80"
}