{
  "transactions": [
    {
      "hash": "0x704a8a955c798eb49f7fe9a7e42edf478aa705efde4bd769524b961031de14a2",
      "transactionType": "CREATE2",
      "contractName": "KubiStreamerDonation",
      "contractAddress": "0x1835913b8fdf0fadef187ef0e9e68bf499dce93c",
      "function": null,
      "arguments": [
        "0x94cC0AaC535CCDB3C01d6787D6413C739ae12bc4",
        "0x1234b50310fF79958509d1a9C8a92458ED1496D1",
        "250",
        "0x123454Ce54DEBE2cEbCe95740E9e0f65DFf9DBE2",
        "5003",
        "0x1234562eb0cD65E7D08E59f9f18d7c10B5DF232A"
      ],
      "transaction": {
        "from": "0x1234562eb0cd65e7d08e59f9f18d7c10b5df232a",
        "to": "0x4e59b44847b379578588920ca78fbf26c0b4956c",
        "gas": "0x3a89d3",
        "value": "0x0",
        "input": "0xc13a2a051c9b0e61081babd2583771331418c956319f89b00939e8a9fceebea261010080604052346102585760c08161326980380380916100208285610333565b833981010312610258576100338161036a565b906100406020820161036a565b60408201519061ffff8216928383036102585761005f6060820161036a565b60808201519163ffffffff831683036102585760a061007e910161036a565b9460018060a01b03195f5416963388175f5560405190335f5f5160206132495f395f51905f528180a3600180556001600160a01b03169182158015610322575b8015610311575b8015610300575b6102f1576103e8106102e257608082905263c45a015560e01b8152602081600481855afa908115610296575f916102a1575b506001600160a01b031660a0526040516312a9293f60e21b815290602090829060049082905afa908115610296575f9161025c575b5060c052600280546003805461ffff60a01b191660a09790971b61ffff60a01b1696909617909555600480546001600160a01b0319166001600160a01b0393841617905560e0929092526001600160b01b0319909316918316919091179055168015610258576040519181335f5160206132495f395f51905f525f80a3336001600160a01b03191617175f55612eca908161037f823960805181818161020c015281816125910152818161266e0152818161292d0152612b8d015260a0518181816107f7015281816124f0015281816128a40152612af0015260c051818181610880015281816108b201528181610984015281816117e601528181611c870152818161202801528181612a410152612e32015260e0518181816106ef01526118600152f35b5f80fd5b90506020813d60201161028e575b8161027760209383610333565b81010312610258576102889061036a565b5f610133565b3d915061026a565b6040513d5f823e3d90fd5b90506020813d6020116102da575b816102bc60209383610333565b81010312610258576004916102d260209261036a565b9150916100fe565b3d91506102af565b63cd4e616760e01b5f5260045ffd5b63d92e233d60e01b5f5260045ffd5b506001600160a01b038816156100cc565b506001600160a01b038416156100c5565b506001600160a01b038616156100be565b601f909101601f19168101906001600160401b0382119082101761035657604052565b634e487b7160e01b5f52604160045260245ffd5b51906001600160a01b03821682036102585756fe6080806040526004361015610034575b50361561002557631021348160e01b5f5260045ffd5b631021348160e01b5f5260045ffd5b5f3560e01c9081630c495f96146112bb5750806315b3c54c146111fa57806324a9d853146111d657806325d86ced1461112b57806329575f6a1461110357806346904840146110db57806356d5d4751461102357806365f6906914610ffe57806376cd0ac114610f1f5780637a6f1dcc14610da25780637b955ebd14610d195780637f507f3f14610c8d578063833ccb3514610c095780638da5cb5b14610be2578063a0d2d83014610a0a578063a9563e4f146109b3578063ad5c46481461096f578063b45faa7614610826578063c45a0155146107e2578063cd1b7d6c14610713578063d3da3330146106d3578063d55be8c6146106b7578063d8c71a921461068f578063ddb2a0961461063a578063e051e81a146105e0578063e165fe3d14610589578063e9a4529114610517578063ee5e4fa3146104bd578063f019e6ed14610498578063f2fde38b14610425578063f54efd771461037b578063f6fe94b01461023b578063f887ea40146101f75763fef0c4a1146101b6575f61000f565b346101f35760203660031901126101f3576001600160a01b036101d7611494565b165f526005602052602060ff60405f2054166040519015158152f35b5f80fd5b346101f3575f3660031901126101f3576040517f00000000000000000000000000000000000000000000000000000000000000006001600160a01b03168152602090f35b346101f35760603660031901126101f357610254611494565b61025c6114aa565b906102656114c0565b6001600160a01b03909116913383141580610366575b80610352575b610343576001600160a01b03165f8181526005602052604090205460ff161561033457825f5260086020528060405f2093815f52600185016020526102d58460405f209060ff801983541691151516179055565b7f160aca386eecd6b8deb0127ecafcd60a1081e3f9dfa75de2cfd22ea186e8d3f1602060405195159586158152a381610320575b5061031057005b80546001600160a01b0319169055005b82546001600160a01b031614905082610309565b633ba12a1560e11b5f5260045ffd5b63641410b160e11b5f5260045ffd5b505f546001600160a01b0316331415610281565b506002546001600160a01b031633141561027b565b346101f35760203660031901126101f3576004358015158091036101f3575f546001600160a01b031633036104165760025460ff8160a81c166103d85761ffff60a01b191660a09190911b60ff60a01b1617600160a81b17600255005b60405162461bcd60e51b81526020600482015260166024820152751a5cd21d5890da185a5b88185b1c9958591e481cd95d60521b6044820152606490fd5b635fc483c560e01b5f5260045ffd5b346101f35760203660031901126101f35761043e611494565b5f546001600160a01b0381169133839003610416576001600160a01b03169182156101f35782907f8be0079c531659141344cd1fd0a4f28419497f9722a3daafe3b4186f6b6457e05f80a36001600160a01b031916175f55005b346101f3575f3660031901126101f357602060ff60025460a01c166040519015158152f35b346101f35760403660031901126101f3576104d6611494565b6104de6114aa565b9060018060a01b03165f526008602052600160405f20019060018060a01b03165f52602052602060ff60405f2054166040519015158152f35b346101f35760403660031901126101f357610530611494565b6105386114aa565b336001600160a01b038316141580610574575b80610560575b6103435761055e91611b2e565b005b505f546001600160a01b0316331415610551565b506002546001600160a01b031633141561054b565b346101f35760403660031901126101f3576105a2611494565b6105aa6114aa565b6001600160a01b039182165f90815260086020908152604080832093851683526002909301815290829020549151919092168152f35b346101f35760203660031901126101f3576001600160a01b03610601611494565b165f526007602052606060405f20600181549101546040519160ff81161515835260018060a01b039060081c1660208301526040820152f35b346101f35760203660031901126101f3576001600160a01b0361065b611494565b165f90815260086020908152604091829020805460049091015483516001600160a01b039283168152911691810191909152f35b346101f3575f3660031901126101f3576003546040516001600160a01b039091168152602090f35b346101f3575f3660031901126101f35760206040516103e88152f35b346101f3575f3660031901126101f357602060405163ffffffff7f0000000000000000000000000000000000000000000000000000000000000000168152f35b346101f35760403660031901126101f35760043561ffff81168082036101f35761073b6114aa565b9060018060a01b035f5416331415806107cd575b6107be576103e8106107af576001600160a01b03169081156107a0576003805461ffff60a01b191660a09290921b61ffff60a01b16919091179055600480546001600160a01b031916919091179055005b63d92e233d60e01b5f5260045ffd5b63cd4e616760e01b5f5260045ffd5b63127f16f360e31b5f5260045ffd5b506002546001600160a01b031633141561074f565b346101f3575f3660031901126101f3576040517f00000000000000000000000000000000000000000000000000000000000000006001600160a01b03168152602090f35b346101f35760603660031901126101f35761083f611494565b6108476114aa565b6044359162ffffff831683036101f3575f546001600160a01b03163314158061095a575b6107be576001600160a01b03811661095457507f0000000000000000000000000000000000000000000000000000000000000000905b6001600160a01b03811661094e57507f0000000000000000000000000000000000000000000000000000000000000000905b6001600160a01b0316908115801561093d575b6107a0575f8281526006602081815260408084206001600160a01b03959095168452938152838320805462ffffff9790971662ffffff19978816811790915591815283832094835293909352208054909216179055005b506001600160a01b038116156108e6565b906108d3565b906108a1565b506002546001600160a01b031633141561086b565b346101f3575f3660031901126101f3576040517f00000000000000000000000000000000000000000000000000000000000000006001600160a01b03168152602090f35b346101f35760403660031901126101f3576109cc611494565b6109d46114aa565b9060018060a01b03165f52600660205260405f209060018060a01b03165f52602052602062ffffff60405f205416604051908152f35b346101f35760403660031901126101f357610a23611494565b610a2b6114aa565b906001600160a01b03163381141580610bcd575b80610bb9575b610343575f818152600860205260409020916001600160a01b031680156107a0575f8181526003840160208190526040909120546001600160a01b0316938415610b86576001600160a01b038581165f9081526002830160205260409020541683145b15610b775760049160018060a01b0386165f526002820160205260405f206001600160601b0360a01b8154169055835f5260205260405f206001600160601b0360a01b8154169055019060018060a01b0382541614610b3d575b506040515f81526001600160a01b03909216917f07efacf833c0332f419c637a012a52fe4647777ec52b15b904c88856048dc94f90602090a3005b80546001600160a01b03191690556040515f81526001600160a01b0383169082905f516020612e755f395f51905f5290602090a382610b02565b634209c0e360e01b5f5260045ffd5b5f8080526002820160205260409020549094906001600160a01b03168303610bb257505f936001610aa8565b935f610aa8565b505f546001600160a01b0316331415610a45565b506002546001600160a01b0316331415610a3f565b346101f3575f3660031901126101f3575f546040516001600160a01b039091168152602090f35b346101f35760203660031901126101f357610c22611494565b5f546001600160a01b03163303610416576001600160a01b03168015610c59576001600160601b0360a01b60035416176003555f80f35b60405162461bcd60e51b815260206004820152600c60248201526b5a65726f206164647265737360a01b6044820152606490fd5b60c03660031901126101f357610ca1611494565b610ca96114aa565b60643591906001600160a01b03831683036101f3576001805403610ce757610ce192600260015560a4359260843592604435916115e2565b60018055005b60405162461bcd60e51b815260206004820152600a6024820152695245454e5452414e435960b01b6044820152606490fd5b346101f35760203660031901126101f3576001600160a01b03610d3a611494565b165f90815260086020526040902060048101546001600160a01b03169081610d7d57505f905b604080516001600160a01b03928316815292909116602083015290f35b6001600160a01b038281165f9081526003929092016020526040909120541690610d60565b346101f35760403660031901126101f357610dbb611494565b610dc36114aa565b6001600160a01b03909116903382141580610f0a575b80610ef6575b610343576001600160a01b03169081156107a057815f52600760205260405f205460ff811615610ee75760081c6001600160a01b0316918215610ed8575f8281526008602090815260408083206001600160a01b0387811680865260028301855283862080546001600160a01b0319908116891790915587875260038401865293909520805490931690941790915560040180547f07efacf833c0332f419c637a012a52fe4647777ec52b15b904c88856048dc94f9492931615610ea8575b50604051908152a3005b816001600160601b0360a01b82541617905584845f516020612e755f395f51905f5284604051858152a385610e9e565b63634bb5e960e11b5f5260045ffd5b63ab68eff560e01b5f5260045ffd5b505f546001600160a01b0316331415610ddf565b506002546001600160a01b0316331415610dd9565b346101f35760403660031901126101f357610f38611494565b610f406114aa565b906001600160a01b03163381141580610fe9575b80610fd5575b610343576001600160a01b0382165f9081526005602052604090205460ff1615610334575f52600860205260405f209060018060a01b0381165f526001820160205260ff60405f20541615610fc65781546001600160a01b0319166001600160a01b0391909116179055005b631a1a638d60e01b5f5260045ffd5b505f546001600160a01b0316331415610f5a565b506002546001600160a01b0316331415610f54565b346101f3575f3660031901126101f357602060ff60025460a81c166040519015158152f35b346101f35760603660031901126101f35761103c6114cf565b6044359067ffffffffffffffff82116101f357366023830112156101f357816004013567ffffffffffffffff81116101f35782013660248201116101f357606090839003126101f3576110916024830161156e565b9060646110a06044850161156e565b930135916001600160a01b031680156107a05782156110cc5761055e936001600160a01b031691611be2565b631f2a200560e01b5f5260045ffd5b346101f3575f3660031901126101f3576004546040516001600160a01b039091168152602090f35b346101f3575f3660031901126101f3576002546040516001600160a01b039091168152602090f35b346101f35760403660031901126101f357611144611494565b60243590811515908183036101f3575f546001600160a01b0316331415806111c1575b6107be577fac90355684e2710fa34c2c7d500018678b146ea2d56ddc331c63d242ee8bf385916111b860209260018060a01b031694855f526005845260405f209060ff801983541691151516179055565b604051908152a2005b506002546001600160a01b0316331415611167565b346101f3575f3660031901126101f357602061ffff60035460a01c16604051908152f35b346101f35760803660031901126101f3576112136114cf565b61121b6114aa565b6044356001600160a01b03811692918382036101f357606435926001600160a01b038216156107a05783156110cc576020602495604051968780926370a0823160e01b82523060048301525afa80156112b05761127d575b61055e9450611be2565b6020853d6020116112a8575b816112966020938361154c565b810103126101f35761055e9450611273565b3d9150611289565b6040513d5f823e3d90fd5b346101f35760803660031901126101f3576112d4611494565b906112dd6114aa565b6112e56114c0565b916064359360018060a01b035f54163314158061147f575b6107be576001600160a01b03169283156107a057156113e457506001600160a01b0316918215610ed857825f52600560205260ff60405f205416156113d55760407f354f0817e377e1e9b2601a5fa1180df29e96ac246a5d02f817a6e3bb4b72a90491815161136b816114e2565b6001815260016020820187815284830190848252875f5260076020526113a3865f2094511515859060ff801983541691151516179055565b518354906101008460a81b039060081b16906101008460a81b03191617835551910155815190600182526020820152a3005b634c3347d160e01b5f5260045ffd5b90505f92506113f2816114e2565b8281526001602082018481526040830190858252848652600760205261142b6040872094511515859060ff801983541691151516179055565b518354906101008460a81b039060081b16906101008460a81b031916178355519101557f354f0817e377e1e9b2601a5fa1180df29e96ac246a5d02f817a6e3bb4b72a90460408051848152846020820152a3005b506002546001600160a01b03163314156112fd565b600435906001600160a01b03821682036101f357565b602435906001600160a01b03821682036101f357565b6044359081151582036101f357565b6004359063ffffffff821682036101f357565b6060810190811067ffffffffffffffff8211176114fe57604052565b634e487b7160e01b5f52604160045260245ffd5b610120810190811067ffffffffffffffff8211176114fe57604052565b610100810190811067ffffffffffffffff8211176114fe57604052565b90601f8019910116810190811067ffffffffffffffff8211176114fe57604052565b35906001600160a01b03821682036101f357565b9190820391821161158f57565b634e487b7160e01b5f52601160045260245ffd5b3d156115dd573d9067ffffffffffffffff82116114fe57604051916115d2601f8201601f19166020018461154c565b82523d5f602084013e565b606090565b9490926001600160a01b03169081156107a057428110611b1f576001600160a01b038416948515938415611b19575034925b83156110cc578415611b13575f5b6001600160a01b03165f9081526005602052604090205460ff1615610334578415611a5e575b61ffff60035460a01c16808502908582040361158f57612710900461166d8186611582565b9481611a0d575b60ff60025460a01c16156117d257825f52600860205260405f20986040519a61169c8c611512565b6001600160a01b03168b5260208b015260408a015260608901526080880193845260a088015260c087015260e086015261010085018290526116de8585611f17565b916001600160a01b038216908161177a575b505050505f1461177557505f5b6001600160a01b03165f90815260018201602052604090205460ff1661176b57546001600160a01b0316801561175c57805f52600560205260ff60405f2054161561174d5761174b9161243e565b565b633fbb49c960e01b5f5260045ffd5b63555096e560e11b5f5260045ffd5b5061174b90612367565b6116fd565b6040915f526007602052815f206001835191611795836114e2565b805460ff811615158452828060a01b039060081c166020840152015492839101525110156117c45780806116f0565b925092505061174b92612089565b50509550505091909350835f14611a0757507f0000000000000000000000000000000000000000000000000000000000000000905b60405193602085018481526020865261182160408761154c565b6003546001600160a01b03169081156119c2575f80918482146119bb5785905b6040516118c660c4826020810194635853cc1360e11b865263ffffffff7f0000000000000000000000000000000000000000000000000000000000000000169e8f60248401528a60448401528c6064840152608060848401525180918160a48501528484015e87838284010152601f801991011681010301601f19810183528261154c565b5191885af1916118d46115a3565b50821561195f575b50501561192a57604080516001600160a01b039093168352602083019190915233917f32688e6ceefb585f3047e1032ff7547f8d4eb5c9c052855bc92bbc799d3f730091819081015b0390a4565b60405162461bcd60e51b815260206004820152600d60248201526c109c9a5919d94819985a5b1959609a1b6044820152606490fd5b5f9250829190156119b45783905b604051602081019163206d3a2d60e21b835289602483015260448201528560648201526064815261199f60848261154c565b5191865af16119ac6115a3565b505f806118dc565b819061196d565b8190611841565b60405162461bcd60e51b815260206004820152601c60248201527f48756220636f6e74726163742061646472657373206e6f7420736574000000006044820152606490fd5b90611807565b8615611a41575f8080808560018060a01b03600454165af1611a2d6115a3565b506116745763671f7c4960e11b5f5260045ffd5b600454611a599083906001600160a01b03168b611e61565b611674565b30156107a0576040516323b872dd60e01b81526001600160a01b0389166004820152306024820152604481018590526020816064815f8c5af19081156112b0575f91611ae4575b506116485760405162461bcd60e51b81526020600482015260126024820152711514905394d1915497d19493d357d190525360721b6044820152606490fd5b611b06915060203d602011611b0c575b611afe818361154c565b810190611e49565b5f611aa5565b503d611af4565b85611622565b92611614565b631ab7da6b60e01b5f5260045ffd5b6001600160a01b039081165f818152600860205260409020929091168015611bb357805f52600760205260ff60405f20541615610ee7575f8181526003840160205260409020546001600160a01b0316928315610b775760040180546001600160a01b031916821790556040519081525f516020612e755f395f51905f5290602090a3565b5060045f92016001600160601b0360a01b81541690555f516020612e755f395f51905f526020604051848152a3565b929060018060a01b031692835f52600860205260405f20610e1042019182421161158f576040516001600160a01b038616957f0b139925e7430bdd80bd413a6fe6166fce98e3c4ab6c29d85588eaa2f0b99e519560a09563ffffffff9591939290611c4c84611512565b5f84528960208501528460408501525f606085015260808401908582528b898601525f60c086015260e08501526101008401906001808a1b037f0000000000000000000000000000000000000000000000000000000000000000168b148252611cb58585611f17565b916001808c1b0382169081611dc5575b505050505115155f14611dc057505f5b600180881b03165f526001810160205260ff60405f205416611d8957545f196001871b011680611d40575b50611d0a90612367565b604051958652602086015260606040860152600f60608601526e6469726563745f66616c6c6261636b60881b60808601521692a3565b805f52600560205260ff60405f20541615611d0057611d5e9161243e565b60405195865260208601526060604086015260046060860152630737761760e41b60808601521692a3565b50611d9390612367565b6040519586526020860152606060408601526006606086015265191a5c9958dd60d21b60808601521692a3565b611cd5565b6040915f526007602052815f206001835191611de0836114e2565b805460ff8116151584528f8380911b039060081c16602084015201549283910152511015611e0f578080611cc5565b9250925050611e1d92612089565b60405195865260208601526060604086015260056060860152641e5a595b1960da1b60808601521692a3565b908160209103126101f3575180151581036101f35790565b916001600160a01b038216156107a05760405163a9059cbb60e01b81526001600160a01b0390921660048301526024820152906020908290815f816044810103926001600160a01b03165af19081156112b0575f91611ef8575b5015611ec357565b60405162461bcd60e51b815260206004820152600d60248201526c1514905394d1915497d1905253609a1b6044820152606490fd5b611f11915060203d602011611b0c57611afe818361154c565b5f611ebb565b610100820151909291901561207757505f5b6001600160a01b03811615611ff3576001600160a01b038181165f90815260028501602052604090205416611f5d816127b3565b611fee5750505b60048201546001600160a01b0316611f7b816127b3565b611fcb575081546001600160a01b03169182611f9a575b505f91508190565b6001600160a01b038381165f90815260029290920160205260409091205416611fc2816127b3565b15611f92579190565b6001600160a01b038082165f908152600390940160205260409093205490921690565b925090565b505f8080526002830160208190526040909120546001600160a01b0316612019816127b3565b61206f57506001600160a01b037f00000000000000000000000000000000000000000000000000000000000000008181165f90815260209390935260409092205416612064816127b3565b611fee575050611f64565b92505f919050565b602001516001600160a01b0316611f29565b915f9160018060a01b03811691825f52600760205260405f20604051906120af826114e2565b8054916040600160ff85161593841584526020840195828060a01b039060081c1686520154910152610ee757516001600160a01b0316908115610ed8576001600160a01b0316810361235857805f52600560205260ff60405f205416156113d55761211a81866127f4565b60a0860180516040516370a0823160e01b81526001600160a01b03909116600482015290949190602081602481865afa9081156112b0575f91612326575b506121638585612caa565b61216e828686612d57565b85516001600160a01b0316833b156101f35760405163d699618560e01b81526001600160a01b03919091166004820152602481018390525f8160448183885af180156112b057612311575b506121c48585612caa565b85516040516370a0823160e01b81526001600160a01b03909116600482015290602082602481875afa80156123065788906122d2575b6122049250611582565b9586156122c35760c088015187106122b55750905f516020612e555f395f51905f529392917f8f7a6fecbaab1e04e31f80b9da6e08d7f55f854f660a910ddc7cce65036babd5604060018060a01b03885116928151908152896020820152a4845192516020808701516040808901516060998a01518251918252938101939093526001600160a01b039485169083015296810195909552426080860152948116948116939216918060a08101611925565b6250c9b760e01b8152600490fd5b63360fef3560e01b8152600490fd5b506020823d6020116122fe575b816122ec6020938361154c565b810103126101f35761220491516121fa565b3d91506122df565b6040513d8a823e3d90fd5b61231e9197505f9061154c565b5f955f6121b9565b90506020813d602011612350575b816123416020938361154c565b810103126101f357515f612158565b3d9150612334565b632693f30360e11b5f5260045ffd5b61010081015115612412575f80808060018060a01b0360a0860151166080860151905af16123936115a3565b5015612403575b805160a0828101516020808501516040808701516060808901516080998a01518451938452958301526001600160a01b03938416928201839052810193909352429683019690965291821693909116915f516020612e555f395f51905f52919081908101611925565b632b3b0c0960e11b5f5260045ffd5b602081015160a082015160808301516124399290916001600160a01b039081169116611e61565b61239a565b906101008201511515805f146127a0575f5b608084015160c085015160a086019360018060a01b038551169161247860e089015195612e21565b9461248288612e21565b9560018060a01b031693845f52600660205260405f2060018060a01b0388165f5260205262ffffff60405f205416801561279157604051630b4c774160e11b8152600481018790526001600160a01b03988916602482018190526044820183905298602090829060649082907f0000000000000000000000000000000000000000000000000000000000000000165afa9081156112b0575f9161274f575b506001600160a01b031615612741576040519761253c8961152f565b86895260208901526040880152606087015260808601528360a086015260c08501525f60e08501525f1461266b575061258d91602091604051808095819463414bf38960e01b835260048301612db8565b03917f00000000000000000000000000000000000000000000000000000000000000006001600160a01b03165af180156112b0575f9061262c575b5f516020612e555f395f51905f529150925b845192516020808701516040808901516060998a01518251918252938101939093526001600160a01b039485169083015296810195909552426080860152948116948116939216918060a08101611925565b506020813d602011612663575b816126466020938361154c565b810103126101f3575f516020612e555f395f51905f5290516125c8565b3d9150612639565b937f00000000000000000000000000000000000000000000000000000000000000006001600160a01b03169290916126cf916020916126b5906126ae878a612caa565b8689612d57565b6040518093819263414bf38960e01b835260048301612db8565b03815f875af19081156112b0575f91612702575b505f516020612e555f395f51905f52926126fd9195612caa565b6125da565b90506020813d602011612739575b8161271d6020938361154c565b810103126101f357515f516020612e555f395f51905f526126e3565b3d9150612710565b6231a7b960e41b5f5260045ffd5b90506020813d602011612789575b8161276a6020938361154c565b810103126101f357516001600160a01b03811681036101f3575f612520565b3d915061275d565b630db08e3d60e01b5f5260045ffd5b60208301516001600160a01b0316612450565b6001600160a01b031680156127ef575f52600760205260405f205460ff811690816127dc575090565b60081c6001600160a01b03161515919050565b505f90565b5f90610100810151612a3d5760208101516001600160a01b03908116939081168414612a325761283661283060e0608085015194015195612e21565b91612e21565b9060018060a01b03169384845260066020526040842060018060a01b0383165f5260205262ffffff60405f2054168015612a2357604051630b4c774160e11b8152600481018790526001600160a01b03938416602482018190526044820183905293602090829060649082907f0000000000000000000000000000000000000000000000000000000000000000165afa908115612a185786916129d2575b506001600160a01b0316156129c4579160209161295f93604051926128f88461152f565b88845284840152604083015230606083015260808201528360a08201528460c08201528460e08201526126b560018060a01b037f000000000000000000000000000000000000000000000000000000000000000016946129588689612caa565b8588612d57565b038186865af19283156129b85792612982575b50819261297f9250612caa565b90565b91506020823d6020116129b0575b8161299d6020938361154c565b810103126101f35761297f915191612972565b3d9150612990565b604051903d90823e3d90fd5b6231a7b960e41b8552600485fd5b90506020813d602011612a10575b816129ed6020938361154c565b81010312612a0c57516001600160a01b0381168103612a0c575f6128d4565b8580fd5b3d91506129e0565b6040513d88823e3d90fd5b630db08e3d60e01b8552600485fd5b506080015192915050565b90917f00000000000000000000000000000000000000000000000000000000000000006001600160a01b0381811693929081168414612c6457612a8b9060e060808501519401519250612e21565b83855260066020526040852060018060a01b0382165f5260205262ffffff60405f205416908115612c5557604051630b4c774160e11b8152600481018690526001600160a01b03918216602482018190526044820184905291602090829060649082907f0000000000000000000000000000000000000000000000000000000000000000165afa908115612c4a578791612c04575b506001600160a01b031615612bf6579160209391612b89959360405194612b468661152f565b855285850152604084015230606084015260808301528060a08301528460c08301528460e0830152604051808095819463414bf38960e01b835260048301612db8565b03917f00000000000000000000000000000000000000000000000000000000000000006001600160a01b03165af19182156129b85791612bc7575090565b90506020813d602011612bee575b81612be26020938361154c565b810103126101f3575190565b3d9150612bd5565b6231a7b960e41b8652600486fd5b90506020813d602011612c42575b81612c1f6020938361154c565b81010312612c3e57516001600160a01b0381168103612c3e575f612b20565b8680fd5b3d9150612c12565b6040513d89823e3d90fd5b630db08e3d60e01b8652600486fd5b5050608001805190925090803b156101f3575f90600460405180948193630d0e30db60e41b83525af180156112b057612c9c57505190565b5f612ca69161154c565b5190565b906001600160a01b031680156107a05760405163095ea7b360e01b815260048101919091525f602482018190529091602091839160449183916001600160a01b03165af19081156112b0575f91612d38575b5015612d0457565b60405162461bcd60e51b815260206004820152600c60248201526b1054141493d59157d190525360a21b6044820152606490fd5b612d51915060203d602011611b0c57611afe818361154c565b5f612cfc565b916001600160a01b038216156107a05760405163095ea7b360e01b81526001600160a01b0390921660048301526024820152906020908290815f816044810103926001600160a01b03165af19081156112b0575f91612d38575015612d0457565b81516001600160a01b03908116825260208084015182169083015260408084015162ffffff16908301526060808401518216908301526080808401519083015260a0808401519083015260c0808401519083015260e09283015116918101919091526101000190565b6001600160a01b03811661297f57507f00000000000000000000000000000000000000000000000000000000000000009056fe49735f6dfce36092e4e60b47019be07f553ede2d89c84c80a84ad06883a2477752ce92b576c9e725f458101a8593fe331d4d2964c77a20f2b608b39cd95cf789a2646970667358221220fdc9456d01177920fd043d3b74ddffeb06979c7dde6d13d059bad16c78843b1e64736f6c634300081e00338be0079c531659141344cd1fd0a4f28419497f9722a3daafe3b4186f6b6457e000000000000000000000000094cc0aac535ccdb3c01d6787d6413c739ae12bc40000000000000000000000001234b50310ff79958509d1a9c8a92458ed1496d100000000000000000000000000000000000000000000000000000000000000fa000000000000000000000000123454ce54debe2cebce95740e9e0f65dff9dbe2000000000000000000000000000000000000000000000000000000000000138b0000000000000000000000001234562eb0cd65e7d08e59f9f18d7c10b5df232a",
        "nonce": "0xbe31",
        "chainId": "0x14a34"
      },
      "additionalContracts": [],
      "isFixedGasLimit": false
    },
    {
      "hash": "0x15129096b9cf474c955148493b20c66e516c7e019b1601644973a41ac1145584",
      "transactionType": "CALL",
      "contractName": "KubiStreamerDonation",
      "contractAddress": "0x1835913b8fdf0fadef187ef0e9e68bf499dce93c",
      "function": "setIsHubChain(bool)",
      "arguments": [
        "false"
      ],
      "transaction": {
        "from": "0x1234562eb0cd65e7d08e59f9f18d7c10b5df232a",
        "to": "0x1835913b8fdf0fadef187ef0e9e68bf499dce93c",
        "gas": "0x9dce",
        "value": "0x0",
        "input": "0xf54efd770000000000000000000000000000000000000000000000000000000000000000",
        "nonce": "0xbe32",
        "chainId": "0x14a34"
      },
      "additionalContracts": [],
      "isFixedGasLimit": false
    },
    {
      "hash": "0x201fa9a74d8b6638a402d3093ccfbdc5b93dc8bc317e6e11f3a973e9bce1f9fa",
      "transactionType": "CALL",
      "contractName": "KubiStreamerDonation",
      "contractAddress": "0x1835913b8fdf0fadef187ef0e9e68bf499dce93c",
      "function": "setGlobalWhitelist(address,bool)",
      "arguments": [
        "0x33c6f26dA09502E6540043f030aE1F87f109cc99",
        "true"
      ],
      "transaction": {
        "from": "0x1234562eb0cd65e7d08e59f9f18d7c10b5df232a",
        "to": "0x1835913b8fdf0fadef187ef0e9e68bf499dce93c",
        "gas": "0x1013c",
        "value": "0x0",
        "input": "0x25d86ced00000000000000000000000033c6f26da09502e6540043f030ae1f87f109cc990000000000000000000000000000000000000000000000000000000000000001",
        "nonce": "0xbe33",
        "chainId": "0x14a34"
      },
      "additionalContracts": [],
      "isFixedGasLimit": false
    },
    {
      "hash": "0x5709a57f23b7ed1a44c48cb65d7cd8d4061c5c4e11b252677dbe2b2959f84758",
      "transactionType": "CALL",
      "contractName": "KubiStreamerDonation",
      "contractAddress": "0x1835913b8fdf0fadef187ef0e9e68bf499dce93c",
      "function": "setGlobalWhitelist(address,bool)",
      "arguments": [
        "0x7CB382Ce1AA40FA9F9A59a632090c05Dc28caE7b",
        "true"
      ],
      "transaction": {
        "from": "0x1234562eb0cd65e7d08e59f9f18d7c10b5df232a",
        "to": "0x1835913b8fdf0fadef187ef0e9e68bf499dce93c",
        "gas": "0x11071",
        "value": "0x0",
        "input": "0x25d86ced0000000000000000000000007cb382ce1aa40fa9f9a59a632090c05dc28cae7b0000000000000000000000000000000000000000000000000000000000000001",
        "nonce": "0xbe34",
        "chainId": "0x14a34"
      },
      "additionalContracts": [],
      "isFixedGasLimit": false
    },
    {
      "hash": "0xff794fa7ef357b8a0af715c55d525f2aa506eed0830b7f1fa7892d12c22cd78b",
      "transactionType": "CALL",
      "contractName": "KubiStreamerDonation",
      "contractAddress": "0x1835913b8fdf0fadef187ef0e9e68bf499dce93c",
      "function": "setGlobalWhitelist(address,bool)",
      "arguments": [
        "0xB288Ba5B5b80Dd0Fd83541ef2e5922f71121Fa13",
        "true"
      ],
      "transaction": {
        "from": "0x1234562eb0cd65e7d08e59f9f18d7c10b5df232a",
        "to": "0x1835913b8fdf0fadef187ef0e9e68bf499dce93c",
        "gas": "0x11071",
        "value": "0x0",
        "input": "0x25d86ced000000000000000000000000b288ba5b5b80dd0fd83541ef2e5922f71121fa130000000000000000000000000000000000000000000000000000000000000001",
        "nonce": "0xbe35",
        "chainId": "0x14a34"
      },
      "additionalContracts": [],
      "isFixedGasLimit": false
    },
    {
      "hash": "0xad7411ff58563453b7d0c30502ad0f4846fae1ba233bd70c6a8a859dbf4248d5",
      "transactionType": "CALL",
      "contractName": "KubiStreamerDonation",
      "contractAddress": "0x1835913b8fdf0fadef187ef0e9e68bf499dce93c",
      "function": "setGlobalWhitelist(address,bool)",
      "arguments": [
        "0xC4a53c466Cfb62AecED03008B0162baaf36E0B03",
        "true"
      ],
      "transaction": {
        "from": "0x1234562eb0cd65e7d08e59f9f18d7c10b5df232a",
        "to": "0x1835913b8fdf0fadef187ef0e9e68bf499dce93c",
        "gas": "0x11071",
        "value": "0x0",
        "input": "0x25d86ced000000000000000000000000c4a53c466cfb62aeced03008b0162baaf36e0b030000000000000000000000000000000000000000000000000000000000000001",
        "nonce": "0xbe36",
        "chainId": "0x14a34"
      },
      "additionalContracts": [],
      "isFixedGasLimit": false
    },
    {
      "hash": "0x7c75b27d313f3489e35d2667ab947f9d0830cddef716303b2bde7f54771ded56",
      "transactionType": "CALL",
      "contractName": "KubiStreamerDonation",
      "contractAddress": "0x1835913b8fdf0fadef187ef0e9e68bf499dce93c",
      "function": "setGlobalWhitelist(address,bool)",
      "arguments": [
        "0x70Db6eFB75c898Ad1e194FDA2B8C6e73dbC944d6",
        "true"
      ],
      "transaction": {
        "from": "0x1234562eb0cd65e7d08e59f9f18d7c10b5df232a",
        "to": "0x1835913b8fdf0fadef187ef0e9e68bf499dce93c",
        "gas": "0x11071",
        "value": "0x0",
        "input": "0x25d86ced00000000000000000000000070db6efb75c898ad1e194fda2b8c6e73dbc944d60000000000000000000000000000000000000000000000000000000000000001",
        "nonce": "0xbe37",
        "chainId": "0x14a34"
      },
      "additionalContracts": [],
      "isFixedGasLimit": false
    },
    {
      "hash": "0x0672015979dddeea0a46b2cddf9e58434be0b740a2b79e9a6f58f6981285b88c",
      "transactionType": "CALL",
      "contractName": "KubiStreamerDonation",
      "contractAddress": "0x1835913b8fdf0fadef187ef0e9e68bf499dce93c",
      "function": "setGlobalWhitelist(address,bool)",
      "arguments": [
        "0xEE589FBF85128abA6f42696dB2F28eA9EBddE173",
        "true"
      ],
      "transaction": {
        "from": "0x1234562eb0cd65e7d08e59f9f18d7c10b5df232a",
        "to": "0x1835913b8fdf0fadef187ef0e9e68bf499dce93c",
        "gas": "0x11071",
        "value": "0x0",
        "input": "0x25d86ced000000000000000000000000ee589fbf85128aba6f42696db2f28ea9ebdde1730000000000000000000000000000000000000000000000000000000000000001",
        "nonce": "0xbe38",
        "chainId": "0x14a34"
      },
      "additionalContracts": [],
      "isFixedGasLimit": false
    },
    {
      "hash": "0xe51226a4817277a3f328b73b2bff048e0a9250f9c9e54b84ca09c585cf0994ff",
      "transactionType": "CALL",
      "contractName": "KubiStreamerDonation",
      "contractAddress": "0x1835913b8fdf0fadef187ef0e9e68bf499dce93c",
      "function": "setGlobalWhitelist(address,bool)",
      "arguments": [
        "0x2C036be74942c597e4d81D7050008dDc11becCEb",
        "true"
      ],
      "transaction": {
        "from": "0x1234562eb0cd65e7d08e59f9f18d7c10b5df232a",
        "to": "0x1835913b8fdf0fadef187ef0e9e68bf499dce93c",
        "gas": "0x1013c",
        "value": "0x0",
        "input": "0x25d86ced0000000000000000000000002c036be74942c597e4d81d7050008ddc11becceb0000000000000000000000000000000000000000000000000000000000000001",
        "nonce": "0xbe39",
        "chainId": "0x14a34"
      },
      "additionalContracts": [],
      "isFixedGasLimit": false
    },
    {
      "hash": "0x54665ef14a857cb051cf9f43da0a79873875b22587267974ecf8b3da147da223",
      "transactionType": "CALL",
      "contractName": "KubiStreamerDonation",
      "contractAddress": "0x1835913b8fdf0fadef187ef0e9e68bf499dce93c",
      "function": "setGlobalWhitelist(address,bool)",
      "arguments": [
        "0x90CdcBF4c4bc78dC440252211EFd744d0A4Dc4A1",
        "true"
      ],
      "transaction": {
        "from": "0x1234562eb0cd65e7d08e59f9f18d7c10b5df232a",
        "to": "0x1835913b8fdf0fadef187ef0e9e68bf499dce93c",
        "gas": "0x11071",
        "value": "0x0",
        "input": "0x25d86ced00000000000000000000000090cdcbf4c4bc78dc440252211efd744d0a4dc4a10000000000000000000000000000000000000000000000000000000000000001",
        "nonce": "0xbe3a",
        "chainId": "0x14a34"
      },
      "additionalContracts": [],
      "isFixedGasLimit": false
    },
    {
      "hash": "0x9cae478406a87b4fbd70c355d9ff45199a2289cfda6e4766dd0e419951f03f60",
      "transactionType": "CALL",
      "contractName": "KubiStreamerDonation",
      "contractAddress": "0x1835913b8fdf0fadef187ef0e9e68bf499dce93c",
      "function": "setGlobalWhitelist(address,bool)",
      "arguments": [
        "0xced6Ceb47301F268d57fF07879DF45Fda80e6974",
        "true"
      ],
      "transaction": {
        "from": "0x1234562eb0cd65e7d08e59f9f18d7c10b5df232a",
        "to": "0x1835913b8fdf0fadef187ef0e9e68bf499dce93c",
        "gas": "0x11071",
        "value": "0x0",
        "input": "0x25d86ced000000000000000000000000ced6ceb47301f268d57ff07879df45fda80e69740000000000000000000000000000000000000000000000000000000000000001",
        "nonce": "0xbe3b",
        "chainId": "0x14a34"
      },
      "additionalContracts": [],
      "isFixedGasLimit": false
    },
    {
      "hash": "0x243027e04cbd7fbf8a8966128735c90b288ed96090ec12162b0060bf7114c253",
      "transactionType": "CALL",
      "contractName": "KubiStreamerDonation",
      "contractAddress": "0x1835913b8fdf0fadef187ef0e9e68bf499dce93c",
      "function": "setGlobalWhitelist(address,bool)",
      "arguments": [
        "0x782Ba48189AF93a0CF42766058DE83291f384bF3",
        "true"
      ],
      "transaction": {
        "from": "0x1234562eb0cd65e7d08e59f9f18d7c10b5df232a",
        "to": "0x1835913b8fdf0fadef187ef0e9e68bf499dce93c",
        "gas": "0x11071",
        "value": "0x0",
        "input": "0x25d86ced000000000000000000000000782ba48189af93a0cf42766058de83291f384bf30000000000000000000000000000000000000000000000000000000000000001",
        "nonce": "0xbe3c",
        "chainId": "0x14a34"
      },
      "additionalContracts": [],
      "isFixedGasLimit": false
    },
    {
      "hash": "0x48351be29749cc9ac097684b9714cf3aa89866b1109b659177bdd8cedcf97ed8",
      "transactionType": "CALL",
      "contractName": "KubiStreamerDonation",
      "contractAddress": "0x1835913b8fdf0fadef187ef0e9e68bf499dce93c",
      "function": "setPoolFee(address,address,uint24)",
      "arguments": [
        "0x7CB382Ce1AA40FA9F9A59a632090c05Dc28caE7b",
        "0xB288Ba5B5b80Dd0Fd83541ef2e5922f71121Fa13",
        "3000"
      ],
      "transaction": {
        "from": "0x1234562eb0cd65e7d08e59f9f18d7c10b5df232a",
        "to": "0x1835913b8fdf0fadef187ef0e9e68bf499dce93c",
        "gas": "0x18d4d",
        "value": "0x0",
        "input": "0xb45faa760000000000000000000000007cb382ce1aa40fa9f9a59a632090c05dc28cae7b000000000000000000000000b288ba5b5b80dd0fd83541ef2e5922f71121fa130000000000000000000000000000000000000000000000000000000000000bb8",
        "nonce": "0xbe3d",
        "chainId": "0x14a34"
      },
      "additionalContracts": [],
      "isFixedGasLimit": false
    },
    {
      "hash": "0x322b8f8caf2bf458600429b9c6b3f07d99188667c5be6cadab706fbc1e6bb727",
      "transactionType": "CALL",
      "contractName": "KubiStreamerDonation",
      "contractAddress": "0x1835913b8fdf0fadef187ef0e9e68bf499dce93c",
      "function": "setPoolFee(address,address,uint24)",
      "arguments": [
        "0x7CB382Ce1AA40FA9F9A59a632090c05Dc28caE7b",
        "0xC4a53c466Cfb62AecED03008B0162baaf36E0B03",
        "3000"
      ],
      "transaction": {
        "from": "0x1234562eb0cd65e7d08e59f9f18d7c10b5df232a",
        "to": "0x1835913b8fdf0fadef187ef0e9e68bf499dce93c",
        "gas": "0x18d4d",
        "value": "0x0",
        "input": "0xb45faa760000000000000000000000007cb382ce1aa40fa9f9a59a632090c05dc28cae7b000000000000000000000000c4a53c466cfb62aeced03008b0162baaf36e0b030000000000000000000000000000000000000000000000000000000000000bb8",
        "nonce": "0xbe3e",
        "chainId": "0x14a34"
      },
      "additionalContracts": [],
      "isFixedGasLimit": false
    },
    {
      "hash": "0xc2ff7cf4e0ac7cfd40a1a0e02a8609aafcda6cf697dac6ebeccebc1954087943",
      "transactionType": "CALL",
      "contractName": "KubiStreamerDonation",
      "contractAddress": "0x1835913b8fdf0fadef187ef0e9e68bf499dce93c",
      "function": "setYieldConfig(address,address,bool,uint256)",
      "arguments": [
        "0x2007Cb1a90E71c18983F1d4091261816E9e9c2dA",
        "0xB288Ba5B5b80Dd0Fd83541ef2e5922f71121Fa13",
        "true",
        "0"
      ],
      "transaction": {
        "from": "0x1234562eb0cd65e7d08e59f9f18d7c10b5df232a",
        "to": "0x1835913b8fdf0fadef187ef0e9e68bf499dce93c",
        "gas": "0x12215",
        "value": "0x0",
        "input": "0x0c495f960000000000000000000000002007cb1a90e71c18983f1d4091261816e9e9c2da000000000000000000000000b288ba5b5b80dd0fd83541ef2e5922f71121fa1300000000000000000000000000000000000000000000000000000000000000010000000000000000000000000000000000000000000000000000000000000000",
        "nonce": "0xbe3f",
        "chainId": "0x14a34"
      },
      "additionalContracts": [],
      "isFixedGasLimit": false
    },
    {
      "hash": "0x19f270d4374f58d624d69791e0ff8813e6d21eb5149e0a287ff9c3aa70c3ce39",
      "transactionType": "CALL",
      "contractName": "KubiStreamerDonation",
      "contractAddress": "0x1835913b8fdf0fadef187ef0e9e68bf499dce93c",
      "function": "setYieldConfig(address,address,bool,uint256)",
      "arguments": [
        "0x04F0aEf9cb921A8Ad848FA8B49aF7fc2E60DbcCb",
        "0xC4a53c466Cfb62AecED03008B0162baaf36E0B03",
        "true",
        "0"
      ],
      "transaction": {
        "from": "0x1234562eb0cd65e7d08e59f9f18d7c10b5df232a",
        "to": "0x1835913b8fdf0fadef187ef0e9e68bf499dce93c",
        "gas": "0x12215",
        "value": "0x0",
        "input": "0x0c495f9600000000000000000000000004f0aef9cb921a8ad848fa8b49af7fc2e60dbccb000000000000000000000000c4a53c466cfb62aeced03008b0162baaf36e0b0300000000000000000000000000000000000000000000000000000000000000010000000000000000000000000000000000000000000000000000000000000000",
        "nonce": "0xbe40",
        "chainId": "0x14a34"
      },
      "additionalContracts": [],
      "isFixedGasLimit": false
    },
    {
      "hash": "0x0fcae1e3d85e590519729311684a4cac353b6817f2f308248134078b5f569bb6",
      "transactionType": "CALL",
      "contractName": "KubiStreamerDonation",
      "contractAddress": "0x1835913b8fdf0fadef187ef0e9e68bf499dce93c",
      "function": "setYieldConfig(address,address,bool,uint256)",
      "arguments": [
        "0x8c2B7136dDaF6129cE33f58d3E5475a0ed3F7b3C",
        "0x33c6f26dA09502E6540043f030aE1F87f109cc99",
        "true",
        "0"
      ],
      "transaction": {
        "from": "0x1234562eb0cd65e7d08e59f9f18d7c10b5df232a",
        "to": "0x1835913b8fdf0fadef187ef0e9e68bf499dce93c",
        "gas": "0x12204",
        "value": "0x0",
        "input": "0x0c495f960000000000000000000000008c2b7136ddaf6129ce33f58d3e5475a0ed3f7b3c00000000000000000000000033c6f26da09502e6540043f030ae1f87f109cc9900000000000000000000000000000000000000000000000000000000000000010000000000000000000000000000000000000000000000000000000000000000",
        "nonce": "0xbe41",
        "chainId": "0x14a34"
      },
      "additionalContracts": [],
      "isFixedGasLimit": false
    },
    {
      "hash": "0x36ab239ff9768ec2e610ce83eba84edc1260f36b136ab3396574c6b3b2b6d288",
      "transactionType": "CALL",
      "contractName": "KubiStreamerDonation",
      "contractAddress": "0x1835913b8fdf0fadef187ef0e9e68bf499dce93c",
      "function": "setYieldConfig(address,address,bool,uint256)",
      "arguments": [
        "0x8e0dCfecDEEBb1da38DD1bbE9418FD7a4bdd4922",
        "0xced6Ceb47301F268d57fF07879DF45Fda80e6974",
        "true",
        "0"
      ],
      "transaction": {
        "from": "0x1234562eb0cd65e7d08e59f9f18d7c10b5df232a",
        "to": "0x1835913b8fdf0fadef187ef0e9e68bf499dce93c",
        "gas": "0x12215",
        "value": "0x0",
        "input": "0x0c495f960000000000000000000000008e0dcfecdeebb1da38dd1bbe9418fd7a4bdd4922000000000000000000000000ced6ceb47301f268d57ff07879df45fda80e697400000000000000000000000000000000000000000000000000000000000000010000000000000000000000000000000000000000000000000000000000000000",
        "nonce": "0xbe42",
        "chainId": "0x14a34"
      },
      "additionalContracts": [],
      "isFixedGasLimit": false
    },
    {
      "hash": "0x63e4c963e80b4a5873a1407d2947cf20422af100762e51eac3e876c6990bbd55",
      "transactionType": "CALL",
      "contractName": "KubiStreamerDonation",
      "contractAddress": "0x1835913b8fdf0fadef187ef0e9e68bf499dce93c",
      "function": "setYieldConfig(address,address,bool,uint256)",
      "arguments": [
        "0x89C0fa2BAE88752eC733922daa0c2Ff321bb5279",
        "0x7CB382Ce1AA40FA9F9A59a632090c05Dc28caE7b",
        "true",
        "0"
      ],
      "transaction": {
        "from": "0x1234562eb0cd65e7d08e59f9f18d7c10b5df232a",
        "to": "0x1835913b8fdf0fadef187ef0e9e68bf499dce93c",
        "gas": "0x12215",
        "value": "0x0",
        "input": "0x0c495f9600000000000000000000000089c0fa2bae88752ec733922daa0c2ff321bb52790000000000000000000000007cb382ce1aa40fa9f9a59a632090c05dc28cae7b00000000000000000000000000000000000000000000000000000000000000010000000000000000000000000000000000000000000000000000000000000000",
        "nonce": "0xbe43",
        "chainId": "0x14a34"
      },
      "additionalContracts": [],
      "isFixedGasLimit": false
    },
    {
      "hash": "0xfd6aa4d85eba0db005dad1bb103edd0488367e70524f98f244029386e7aaa5dd",
      "transactionType": "CALL",
      "contractName": "KubiStreamerDonation",
      "contractAddress": "0x1835913b8fdf0fadef187ef0e9e68bf499dce93c",
      "function": "setYieldConfig(address,address,bool,uint256)",
      "arguments": [
        "0xa6c9dD702B198Da46f9C5b21bBe65a2a31fdEB63",
        "0xB288Ba5B5b80Dd0Fd83541ef2e5922f71121Fa13",
        "true",
        "0"
      ],
      "transaction": {
        "from": "0x1234562eb0cd65e7d08e59f9f18d7c10b5df232a",
        "to": "0x1835913b8fdf0fadef187ef0e9e68bf499dce93c",
        "gas": "0x12215",
        "value": "0x0",
        "input": "0x0c495f96000000000000000000000000a6c9dd702b198da46f9c5b21bbe65a2a31fdeb63000000000000000000000000b288ba5b5b80dd0fd83541ef2e5922f71121fa1300000000000000000000000000000000000000000000000000000000000000010000000000000000000000000000000000000000000000000000000000000000",
        "nonce": "0xbe44",
        "chainId": "0x14a34"
      },
      "additionalContracts": [],
      "isFixedGasLimit": false
    },
    {
      "hash": "0x1e9f58489ab73f92cba203bab7200885afac979cb7845d09c03ce6f3e2e381a9",
      "transactionType": "CALL",
      "contractName": "KubiStreamerDonation",
      "contractAddress": "0x1835913b8fdf0fadef187ef0e9e68bf499dce93c",
      "function": "setYieldConfig(address,address,bool,uint256)",
      "arguments": [
        "0x5c8b8caa55Af0d10ACc3ec95A614d26C90BD9b62",
        "0xC4a53c466Cfb62AecED03008B0162baaf36E0B03",
        "true",
        "0"
      ],
      "transaction": {
        "from": "0x1234562eb0cd65e7d08e59f9f18d7c10b5df232a",
        "to": "0x1835913b8fdf0fadef187ef0e9e68bf499dce93c",
        "gas": "0x12215",
        "value": "0x0",
        "input": "0x0c495f960000000000000000000000005c8b8caa55af0d10acc3ec95a614d26c90bd9b62000000000000000000000000c4a53c466cfb62aeced03008b0162baaf36e0b0300000000000000000000000000000000000000000000000000000000000000010000000000000000000000000000000000000000000000000000000000000000",
        "nonce": "0xbe45",
        "chainId": "0x14a34"
      },
      "additionalContracts": [],
      "isFixedGasLimit": false
    },
    {
      "hash": "0x7e77cacbff9a5f50a8b80196655346efc7b8044daec2a3072d41517f55dad796",
      "transactionType": "CALL",
      "contractName": "KubiStreamerDonation",
      "contractAddress": "0x1835913b8fdf0fadef187ef0e9e68bf499dce93c",
      "function": "setYieldConfig(address,address,bool,uint256)",
      "arguments": [
        "0xfCbFBaf16A7b392F5963232fC3d7bb81238a4Fc1",
        "0x33c6f26dA09502E6540043f030aE1F87f109cc99",
        "true",
        "0"
      ],
      "transaction": {
        "from": "0x1234562eb0cd65e7d08e59f9f18d7c10b5df232a",
        "to": "0x1835913b8fdf0fadef187ef0e9e68bf499dce93c",
        "gas": "0x12204",
        "value": "0x0",
        "input": "0x0c495f96000000000000000000000000fcbfbaf16a7b392f5963232fc3d7bb81238a4fc100000000000000000000000033c6f26da09502e6540043f030ae1f87f109cc9900000000000000000000000000000000000000000000000000000000000000010000000000000000000000000000000000000000000000000000000000000000",
        "nonce": "0xbe46",
        "chainId": "0x14a34"
      },
      "additionalContracts": [],
      "isFixedGasLimit": false
    },
    {
      "hash": "0x653ec782ee12b7760b8be96b18a93f764e2070d89fb210a727f7d540722aac7b",
      "transactionType": "CALL",
      "contractName": "KubiStreamerDonation",
      "contractAddress": "0x1835913b8fdf0fadef187ef0e9e68bf499dce93c",
      "function": "setYieldConfig(address,address,bool,uint256)",
      "arguments": [
        "0x0dF313cE12b511062eCe811e435F0729E7c9746f",
        "0xced6Ceb47301F268d57fF07879DF45Fda80e6974",
        "true",
        "0"
      ],
      "transaction": {
        "from": "0x1234562eb0cd65e7d08e59f9f18d7c10b5df232a",
        "to": "0x1835913b8fdf0fadef187ef0e9e68bf499dce93c",
        "gas": "0x12215",
        "value": "0x0",
        "input": "0x0c495f960000000000000000000000000df313ce12b511062ece811e435f0729e7c9746f000000000000000000000000ced6ceb47301f268d57ff07879df45fda80e697400000000000000000000000000000000000000000000000000000000000000010000000000000000000000000000000000000000000000000000000000000000",
        "nonce": "0xbe47",
        "chainId": "0x14a34"
      },
      "additionalContracts": [],
      "isFixedGasLimit": false
    },
    {
      "hash": "0x12433beba94438eb22fcc663c6e73d0c5a640aee08fa0f50e477e5989b639c58",
      "transactionType": "CALL",
      "contractName": "KubiStreamerDonation",
      "contractAddress": "0x1835913b8fdf0fadef187ef0e9e68bf499dce93c",
      "function": "setYieldConfig(address,address,bool,uint256)",
      "arguments": [
        "0xB1eF139d2f4D56B126196D9FF712b67e120c0349",
        "0x7CB382Ce1AA40FA9F9A59a632090c05Dc28caE7b",
        "true",
        "0"
      ],
      "transaction": {
        "from": "0x1234562eb0cd65e7d08e59f9f18d7c10b5df232a",
        "to": "0x1835913b8fdf0fadef187ef0e9e68bf499dce93c",
        "gas": "0x12215",
        "value": "0x0",
        "input": "0x0c495f96000000000000000000000000b1ef139d2f4d56b126196d9ff712b67e120c03490000000000000000000000007cb382ce1aa40fa9f9a59a632090c05dc28cae7b00000000000000000000000000000000000000000000000000000000000000010000000000000000000000000000000000000000000000000000000000000000",
        "nonce": "0xbe48",
        "chainId": "0x14a34"
      },
      "additionalContracts": [],
      "isFixedGasLimit": false
    },
    {
      "hash": "0x75f6b4108c3ae639668fab67a232d43808b0aaee1e0a57112088239967f711d8",
      "transactionType": "CALL",
      "contractName": "KubiStreamerDonation",
      "contractAddress": "0x1835913b8fdf0fadef187ef0e9e68bf499dce93c",
      "function": "setYieldConfig(address,address,bool,uint256)",
      "arguments": [
        "0x324Db0D78D0225431A2bD49470018b322a006833",
        "0xB288Ba5B5b80Dd0Fd83541ef2e5922f71121Fa13",
        "true",
        "0"
      ],
      "transaction": {
        "from": "0x1234562eb0cd65e7d08e59f9f18d7c10b5df232a",
        "to": "0x1835913b8fdf0fadef187ef0e9e68bf499dce93c",
        "gas": "0x12204",
        "value": "0x0",
        "input": "0x0c495f96000000000000000000000000324db0d78d0225431a2bd49470018b322a006833000000000000000000000000b288ba5b5b80dd0fd83541ef2e5922f71121fa1300000000000000000000000000000000000000000000000000000000000000010000000000000000000000000000000000000000000000000000000000000000",
        "nonce": "0xbe49",
        "chainId": "0x14a34"
      },
      "additionalContracts": [],
      "isFixedGasLimit": false
    },
    {
      "hash": "0xdb462294622e6a7998a4d3174de0b643fe697746066f4b24983b3f37b208b6f9",
      "transactionType": "CALL",
      "contractName": "KubiStreamerDonation",
      "contractAddress": "0x1835913b8fdf0fadef187ef0e9e68bf499dce93c",
      "function": "setYieldConfig(address,address,bool,uint256)",
      "arguments": [
        "0xbF1dC15Eaa6449d5bf81463578808313F5e208Ee",
        "0xC4a53c466Cfb62AecED03008B0162baaf36E0B03",
        "true",
        "0"
      ],
      "transaction": {
        "from": "0x1234562eb0cd65e7d08e59f9f18d7c10b5df232a",
        "to": "0x1835913b8fdf0fadef187ef0e9e68bf499dce93c",
        "gas": "0x12215",
        "value": "0x0",
        "input": "0x0c495f96000000000000000000000000bf1dc15eaa6449d5bf81463578808313f5e208ee000000000000000000000000c4a53c466cfb62aeced03008b0162baaf36e0b0300000000000000000000000000000000000000000000000000000000000000010000000000000000000000000000000000000000000000000000000000000000",
        "nonce": "0xbe4a",
        "chainId": "0x14a34"
      },
      "additionalContracts": [],
      "isFixedGasLimit": false
    },
    {
      "hash": "0xc53f7400d0696106c2b84b46256952cf37de79b9b5c7bbeb845ac4e721ee1310",
      "transactionType": "CALL",
      "contractName": "KubiStreamerDonation",
      "contractAddress": "0x1835913b8fdf0fadef187ef0e9e68bf499dce93c",
      "function": "setYieldConfig(address,address,bool,uint256)",
      "arguments": [
        "0xc79F99285A0f4B640c552090eEab8CAbc4433C1D",
        "0x33c6f26dA09502E6540043f030aE1F87f109cc99",
        "true",
        "0"
      ],
      "transaction": {
        "from": "0x1234562eb0cd65e7d08e59f9f18d7c10b5df232a",
        "to": "0x1835913b8fdf0fadef187ef0e9e68bf499dce93c",
        "gas": "0x12204",
        "value": "0x0",
        "input": "0x0c495f96000000000000000000000000c79f99285a0f4b640c552090eeab8cabc4433c1d00000000000000000000000033c6f26da09502e6540043f030ae1f87f109cc9900000000000000000000000000000000000000000000000000000000000000010000000000000000000000000000000000000000000000000000000000000000",
        "nonce": "0xbe4b",
        "chainId": "0x14a34"
      },
      "additionalContracts": [],
      "isFixedGasLimit": false
    },
    {
      "hash": "0x2beaa9715afe8183fab978dcab85292912a891899016af2af5c6feb54b780970",
      "transactionType": "CALL",
      "contractName": "KubiStreamerDonation",
      "contractAddress": "0x1835913b8fdf0fadef187ef0e9e68bf499dce93c",
      "function": "setYieldConfig(address,address,bool,uint256)",
      "arguments": [
        "0xA5FC97D4eEE36Cf0CF5beE22cF78e74cE9882E81",
        "0xced6Ceb47301F268d57fF07879DF45Fda80e6974",
        "true",
        "0"
      ],
      "transaction": {
        "from": "0x1234562eb0cd65e7d08e59f9f18d7c10b5df232a",
        "to": "0x1835913b8fdf0fadef187ef0e9e68bf499dce93c",
        "gas": "0x12215",
        "value": "0x0",
        "input": "0x0c495f96000000000000000000000000a5fc97d4eee36cf0cf5bee22cf78e74ce9882e81000000000000000000000000ced6ceb47301f268d57ff07879df45fda80e697400000000000000000000000000000000000000000000000000000000000000010000000000000000000000000000000000000000000000000000000000000000",
        "nonce": "0xbe4c",
        "chainId": "0x14a34"
      },
      "additionalContracts": [],
      "isFixedGasLimit": false
    },
    {
      "hash": "0x133a31801d9bd752f5c480076f451635e5b08f304085535ce8191893ad7b60cd",
      "transactionType": "CALL",
      "contractName": "KubiStreamerDonation",
      "contractAddress": "0x1835913b8fdf0fadef187ef0e9e68bf499dce93c",
      "function": "setYieldConfig(address,address,bool,uint256)",
      "arguments": [
        "0xdf3eBc828195ffBc71bB80c467cF70BfDEf0AC1E",
        "0x7CB382Ce1AA40FA9F9A59a632090c05Dc28caE7b",
        "true",
        "0"
      ],
      "transaction": {
        "from": "0x1234562eb0cd65e7d08e59f9f18d7c10b5df232a",
        "to": "0x1835913b8fdf0fadef187ef0e9e68bf499dce93c",
        "gas": "0x12215",
        "value": "0x0",
        "input": "0x0c495f96000000000000000000000000df3ebc828195ffbc71bb80c467cf70bfdef0ac1e0000000000000000000000007cb382ce1aa40fa9f9a59a632090c05dc28cae7b00000000000000000000000000000000000000000000000000000000000000010000000000000000000000000000000000000000000000000000000000000000",
        "nonce": "0xbe4d",
        "chainId": "0x14a34"
      },
      "additionalContracts": [],
      "isFixedGasLimit": false
    },
    {
      "hash": "0x0580777c1ba1837e5cb7812c416643d1897cf206c1fc0f7484ec7418ab0a15ec",
      "transactionType": "CALL",
      "contractName": "KubiStreamerDonation",
      "contractAddress": "0x1835913b8fdf0fadef187ef0e9e68bf499dce93c",
      "function": "setYieldConfig(address,address,bool,uint256)",
      "arguments": [
        "0x8edafBaDe92450979DfF2F10449E7917c722AF50",
        "0xB288Ba5B5b80Dd0Fd83541ef2e5922f71121Fa13",
        "true",
        "0"
      ],
      "transaction": {
        "from": "0x1234562eb0cd65e7d08e59f9f18d7c10b5df232a",
        "to": "0x1835913b8fdf0fadef187ef0e9e68bf499dce93c",
        "gas": "0x12215",
        "value": "0x0",
        "input": "0x0c495f960000000000000000000000008edafbade92450979dff2f10449e7917c722af50000000000000000000000000b288ba5b5b80dd0fd83541ef2e5922f71121fa1300000000000000000000000000000000000000000000000000000000000000010000000000000000000000000000000000000000000000000000000000000000",
        "nonce": "0xbe4e",
        "chainId": "0x14a34"
      },
      "additionalContracts": [],
      "isFixedGasLimit": false
    },
    {
      "hash": "0x7b455b2d999220c1cebaa91207d25aec559bdcdbfe627fde50779db6385d315d",
      "transactionType": "CALL",
      "contractName": "KubiStreamerDonation",
      "contractAddress": "0x1835913b8fdf0fadef187ef0e9e68bf499dce93c",
      "function": "setYieldConfig(address,address,bool,uint256)",
      "arguments": [
        "0xdf5Ca06845d1b2F3ddff5759a493fB5aff68d72d",
        "0xC4a53c466Cfb62AecED03008B0162baaf36E0B03",
        "true",
        "0"
      ],
      "transaction": {
        "from": "0x1234562eb0cd65e7d08e59f9f18d7c10b5df232a",
        "to": "0x1835913b8fdf0fadef187ef0e9e68bf499dce93c",
        "gas": "0x12215",
        "value": "0x0",
        "input": "0x0c495f96000000000000000000000000df5ca06845d1b2f3ddff5759a493fb5aff68d72d000000000000000000000000c4a53c466cfb62aeced03008b0162baaf36e0b0300000000000000000000000000000000000000000000000000000000000000010000000000000000000000000000000000000000000000000000000000000000",
        "nonce": "0xbe4f",
        "chainId": "0x14a34"
      },
      "additionalContracts": [],
      "isFixedGasLimit": false
    },
    {
      "hash": "0xed8d0599c8e730140db233ee57aac5cdfd9ea2df23cf2b328c3f2d0b18cf178a",
      "transactionType": "CALL",
      "contractName": "KubiStreamerDonation",
      "contractAddress": "0x1835913b8fdf0fadef187ef0e9e68bf499dce93c",
      "function": "setYieldConfig(address,address,bool,uint256)",
      "arguments": [
        "0xBfc03BA44AcA79cFe6732968f99E9DB0B3880828",
        "0x33c6f26dA09502E6540043f030aE1F87f109cc99",
        "true",
        "0"
      ],
      "transaction": {
        "from": "0x1234562eb0cd65e7d08e59f9f18d7c10b5df232a",
        "to": "0x1835913b8fdf0fadef187ef0e9e68bf499dce93c",
        "gas": "0x12204",
        "value": "0x0",
        "input": "0x0c495f96000000000000000000000000bfc03ba44aca79cfe6732968f99e9db0b388082800000000000000000000000033c6f26da09502e6540043f030ae1f87f109cc9900000000000000000000000000000000000000000000000000000000000000010000000000000000000000000000000000000000000000000000000000000000",
        "nonce": "0xbe50",
        "chainId": "0x14a34"
      },
      "additionalContracts": [],
      "isFixedGasLimit": false
    },
    {
      "hash": "0xadb10f0d9616380f8a857b74adf162a849b56b191cba9f58697649dafd2358ce",
      "transactionType": "CALL",
      "contractName": "KubiStreamerDonation",
      "contractAddress": "0x1835913b8fdf0fadef187ef0e9e68bf499dce93c",
      "function": "setYieldConfig(address,address,bool,uint256)",
      "arguments": [
        "0x4E55B3951d334aF5a88474d252f789911E1EFc55",
        "0xced6Ceb47301F268d57fF07879DF45Fda80e6974",
        "true",
        "0"
      ],
      "transaction": {
        "from": "0x1234562eb0cd65e7d08e59f9f18d7c10b5df232a",
        "to": "0x1835913b8fdf0fadef187ef0e9e68bf499dce93c",
        "gas": "0x12215",
        "value": "0x0",
        "input": "0x0c495f960000000000000000000000004e55b3951d334af5a88474d252f789911e1efc55000000000000000000000000ced6ceb47301f268d57ff07879df45fda80e697400000000000000000000000000000000000000000000000000000000000000010000000000000000000000000000000000000000000000000000000000000000",
        "nonce": "0xbe51",
        "chainId": "0x14a34"
      },
      "additionalContracts": [],
      "isFixedGasLimit": false
    },
    {
      "hash": "0x3bff2dddf313ab732b3970078e0d90cc5c91195b4afd656dadbbedad1e5d5fa5",
      "transactionType": "CALL",
      "contractName": "KubiStreamerDonation",
      "contractAddress": "0x1835913b8fdf0fadef187ef0e9e68bf499dce93c",
      "function": "setYieldConfig(address,address,bool,uint256)",
      "arguments": [
        "0xE54116B3FA1623EB5aAC2ED4628002ceE620E9D8",
        "0x7CB382Ce1AA40FA9F9A59a632090c05Dc28caE7b",
        "true",
        "0"
      ],
      "transaction": {
        "from": "0x1234562eb0cd65e7d08e59f9f18d7c10b5df232a",
        "to": "0x1835913b8fdf0fadef187ef0e9e68bf499dce93c",
        "gas": "0x12215",
        "value": "0x0",
        "input": "0x0c495f96000000000000000000000000e54116b3fa1623eb5aac2ed4628002cee620e9d80000000000000000000000007cb382ce1aa40fa9f9a59a632090c05dc28cae7b00000000000000000000000000000000000000000000000000000000000000010000000000000000000000000000000000000000000000000000000000000000",
        "nonce": "0xbe52",
        "chainId": "0x14a34"
      },
      "additionalContracts": [],
      "isFixedGasLimit": false
    }
  ],
  "receipts": [
    {
      "status": "0x1",
      "cumulativeGasUsed": "0x91d9ca",
      "logs": [
        {
          "address": "0x1835913b8fdf0fadef187ef0e9e68bf499dce93c",
          "topics": [
            "0x8be0079c531659141344cd1fd0a4f28419497f9722a3daafe3b4186f6b6457e0",
            "0x0000000000000000000000000000000000000000000000000000000000000000",
            "0x0000000000000000000000004e59b44847b379578588920ca78fbf26c0b4956c"
          ],
          "data": "0x",
          "blockHash": "0xed7a53b34c2471576954dcc0ab1f22462220caf8efe94bad3a059f0cd29cdcce",
          "blockNumber": "0x220efca",
          "blockTimestamp": "0x69553e74",
          "transactionHash": "0x7e77cacbff9a5f50a8b80196655346efc7b8044daec2a3072d41517f55dad796",
          "transactionIndex": "0x15",
          "logIndex": "0x44",
          "removed": false
        },
        {
          "address": "0x1835913b8fdf0fadef187ef0e9e68bf499dce93c",
          "topics": [
            "0x8be0079c531659141344cd1fd0a4f28419497f9722a3daafe3b4186f6b6457e0",
            "0x0000000000000000000000004e59b44847b379578588920ca78fbf26c0b4956c",
            "0x0000000000000000000000001234562eb0cd65e7d08e59f9f18d7c10b5df232a"
          ],
          "data": "0x",
          "blockHash": "0xed7a53b34c2471576954dcc0ab1f22462220caf8efe94bad3a059f0cd29cdcce",
          "blockNumber": "0x220efca",
          "blockTimestamp": "0x69553e74",
          "transactionHash": "0x7e77cacbff9a5f50a8b80196655346efc7b8044daec2a3072d41517f55dad796",
          "transactionIndex": "0x15",
          "logIndex": "0x45",
          "removed": false
        }
      ],
      "logsBloom": "0x00000000000000000000100000000000000000000000000000800000000000000000000000000000000000000000000000000000000000000000000000000000000000000000000020000000000000000001000000000000000000000000000000000000020000000000000000000800000000000000000000000000000000400000000000000000000000000000000000000000001200000000000000000000020000000001000000000000000000000000000000000000000000000000000000000000000000000000000000000000000000900000000000000000000020000000000000000000000000000000000080000000000000000000000000000000",
      "type": "0x2",
      "transactionHash": "0x7e77cacbff9a5f50a8b80196655346efc7b8044daec2a3072d41517f55dad796",
      "transactionIndex": "0x15",
      "blockHash": "0xed7a53b34c2471576954dcc0ab1f22462220caf8efe94bad3a059f0cd29cdcce",
      "blockNumber": "0x220efca",
      "gasUsed": "0x2a6178",
      "effectiveGasPrice": "0x125e04",
      "blobGasUsed": "0x204ac8",
      "from": "0x1234562eb0cd65e7d08e59f9f18d7c10b5df232a",
      "to": "0x4e59b44847b379578588920ca78fbf26c0b4956c",
      "contractAddress": "0x1835913b8fdf0fadef187ef0e9e68bf499dce93c",
      "daFootprintGasScalar": "0x138",
      "l1BaseFeeScalar": "0x44d",
      "l1BlobBaseFee": "0x1",
      "l1BlobBaseFeeScalar": "0xa118b",
      "l1Fee": "0x21d2",
      "l1GasPrice": "0x23",
      "l1GasUsed": "0x1a7f4"
    },
    {
      "status": "0x1",
      "cumulativeGasUsed": "0x924c0a",
      "logs": [],
      "logsBloom": "0x00000000000000000000000000000000000000000000000000000000000000000000000000000000000000000000000000000000000000000000000000000000000000000000000000000000000000000000000000000000000000000000000000000000000000000000000000000000000000000000000000000000000000000000000000000000000000000000000000000000000000000000000000000000000000000000000000000000000000000000000000000000000000000000000000000000000000000000000000000000000000000000000000000000000000000000000000000000000000000000000000000000000000000000000000000000",
      "type": "0x2",
      "transactionHash": "0x5709a57f23b7ed1a44c48cb65d7cd8d4061c5c4e11b252677dbe2b2959f84758",
      "transactionIndex": "0x16",
      "blockHash": "0xed7a53b34c2471576954dcc0ab1f22462220caf8efe94bad3a059f0cd29cdcce",
      "blockNumber": "0x220efca",
      "gasUsed": "0x7240",
      "effectiveGasPrice": "0x125e04",
      "blobGasUsed": "0x79e0",
      "from": "0x1234562eb0cd65e7d08e59f9f18d7c10b5df232a",
      "to": "0x1835913b8fdf0fadef187ef0e9e68bf499dce93c",
      "contractAddress": null,
      "daFootprintGasScalar": "0x138",
      "l1BaseFeeScalar": "0x44d",
      "l1BlobBaseFee": "0x1",
      "l1BlobBaseFeeScalar": "0xa118b",
      "l1Fee": "0x7f",
      "l1GasPrice": "0x23",
      "l1GasUsed": "0x640"
    },
    {
      "status": "0x1",
      "cumulativeGasUsed": "0x930647",
      "logs": [
        {
          "address": "0x1835913b8fdf0fadef187ef0e9e68bf499dce93c",
          "topics": [
            "0xac90355684e2710fa34c2c7d500018678b146ea2d56ddc331c63d242ee8bf385",
            "0x00000000000000000000000033c6f26da09502e6540043f030ae1f87f109cc99"
          ],
          "data": "0x0000000000000000000000000000000000000000000000000000000000000001",
          "blockHash": "0xed7a53b34c2471576954dcc0ab1f22462220caf8efe94bad3a059f0cd29cdcce",
          "blockNumber": "0x220efca",
          "blockTimestamp": "0x69553e74",
          "transactionHash": "0xad7411ff58563453b7d0c30502ad0f4846fae1ba233bd70c6a8a859dbf4248d5",
          "transactionIndex": "0x17",
          "logIndex": "0x46",
          "removed": false
        }
      ],
      "logsBloom": "0x00000000000000000200100000000000000000000000000000000000000000000000000000000000000000000000000000000000000000000010000000000000000000000000000000000000000000000000000000000000000000000000000000000000000000000000000000000000000000000008000000000000002000000000000000000000000010000000000000000200000000000000000000000000000000000000000000000000000000000000000000000000000000000000000000000000000000000000000000000000000000900000000000000000000000000000000000000000000000000000000000000000000000000000000000000000",
      "type": "0x2",
      "transactionHash": "0xad7411ff58563453b7d0c30502ad0f4846fae1ba233bd70c6a8a859dbf4248d5",
      "transactionIndex": "0x17",
      "blockHash": "0xed7a53b34c2471576954dcc0ab1f22462220caf8efe94bad3a059f0cd29cdcce",
      "blockNumber": "0x220efca",
      "gasUsed": "0xba3d",
      "effectiveGasPrice": "0x125e04",
      "blobGasUsed": "0x79e0",
      "from": "0x1234562eb0cd65e7d08e59f9f18d7c10b5df232a",
      "to": "0x1835913b8fdf0fadef187ef0e9e68bf499dce93c",
      "contractAddress": null,
      "daFootprintGasScalar": "0x138",
      "l1BaseFeeScalar": "0x44d",
      "l1BlobBaseFee": "0x1",
      "l1BlobBaseFeeScalar": "0xa118b",
      "l1Fee": "0x7f",
      "l1GasPrice": "0x23",
      "l1GasUsed": "0x640"
    },
    {
      "status": "0x1",
      "cumulativeGasUsed": "0x93c090",
      "logs": [
        {
          "address": "0x1835913b8fdf0fadef187ef0e9e68bf499dce93c",
          "topics": [
            "0xac90355684e2710fa34c2c7d500018678b146ea2d56ddc331c63d242ee8bf385",
            "0x0000000000000000000000007cb382ce1aa40fa9f9a59a632090c05dc28cae7b"
          ],
          "data": "0x0000000000000000000000000000000000000000000000000000000000000001",
          "blockHash": "0xed7a53b34c2471576954dcc0ab1f22462220caf8efe94bad3a059f0cd29cdcce",
          "blockNumber": "0x220efca",
          "blockTimestamp": "0x69553e74",
          "transactionHash": "0x48351be29749cc9ac097684b9714cf3aa89866b1109b659177bdd8cedcf97ed8",
          "transactionIndex": "0x18",
          "logIndex": "0x47",
          "removed": false
        }
      ],
      "logsBloom": "0x00000000000000000200100000000000000000000000000000000000000000000000000000000000000800000000000000000000000000000010000000000000000000000000000000000000000000000000004000000000000002000000000000000000000000000000000000000000000000000000000000000000002000000000000000000000000000000000000000000000000000000000000000000000000000000000000000000000000000000000000000000000000000000000000000000000000000000000000000000000000000900000000000000000000000000000000000000000000000000000000000000000000000000000000000000000",
      "type": "0x2",
      "transactionHash": "0x48351be29749cc9ac097684b9714cf3aa89866b1109b659177bdd8cedcf97ed8",
      "transactionIndex": "0x18",
      "blockHash": "0xed7a53b34c2471576954dcc0ab1f22462220caf8efe94bad3a059f0cd29cdcce",
      "blockNumber": "0x220efca",
      "gasUsed": "0xba49",
      "effectiveGasPrice": "0x125e04",
      "blobGasUsed": "0x79e0",
      "from": "0x1234562eb0cd65e7d08e59f9f18d7c10b5df232a",
      "to": "0x1835913b8fdf0fadef187ef0e9e68bf499dce93c",
      "contractAddress": null,
      "daFootprintGasScalar": "0x138",
      "l1BaseFeeScalar": "0x44d",
      "l1BlobBaseFee": "0x1",
      "l1BlobBaseFeeScalar": "0xa118b",
      "l1Fee": "0x7f",
      "l1GasPrice": "0x23",
      "l1GasUsed": "0x640"
    },
    {
      "status": "0x1",
      "cumulativeGasUsed": "0x947ad9",
      "logs": [
        {
          "address": "0x1835913b8fdf0fadef187ef0e9e68bf499dce93c",
          "topics": [
            "0xac90355684e2710fa34c2c7d500018678b146ea2d56ddc331c63d242ee8bf385",
            "0x000000000000000000000000b288ba5b5b80dd0fd83541ef2e5922f71121fa13"
          ],
          "data": "0x0000000000000000000000000000000000000000000000000000000000000001",
          "blockHash": "0xed7a53b34c2471576954dcc0ab1f22462220caf8efe94bad3a059f0cd29cdcce",
          "blockNumber": "0x220efca",
          "blockTimestamp": "0x69553e74",
          "transactionHash": "0x0672015979dddeea0a46b2cddf9e58434be0b740a2b79e9a6f58f6981285b88c",
          "transactionIndex": "0x19",
          "logIndex": "0x48",
          "removed": false
        }
      ],
      "logsBloom": "0x00000000000000000200100000000000000000000000000000000000000000000000000000000000000000000000000000000000000000000010000000000000000000000000000000000000000000000000000000000000000000000000000000000000000000000000000000000000000000000000000000000000002000000000000000000000000000000000000000000000000000000002000000000400000000000000000000000000000000000000000000000000000000000000000000000000000000000000000000000000000000900000000000000000000000000000000000000000000000000000000000000000000000800000000000000000",
      "type": "0x2",
      "transactionHash": "0x0672015979dddeea0a46b2cddf9e58434be0b740a2b79e9a6f58f6981285b88c",
      "transactionIndex": "0x19",
      "blockHash": "0xed7a53b34c2471576954dcc0ab1f22462220caf8efe94bad3a059f0cd29cdcce",
      "blockNumber": "0x220efca",
      "gasUsed": "0xba49",
      "effectiveGasPrice": "0x125e04",
      "blobGasUsed": "0x79e0",
      "from": "0x1234562eb0cd65e7d08e59f9f18d7c10b5df232a",
      "to": "0x1835913b8fdf0fadef187ef0e9e68bf499dce93c",
      "contractAddress": null,
      "daFootprintGasScalar": "0x138",
      "l1BaseFeeScalar": "0x44d",
      "l1BlobBaseFee": "0x1",
      "l1BlobBaseFeeScalar": "0xa118b",
      "l1Fee": "0x7f",
      "l1GasPrice": "0x23",
      "l1GasUsed": "0x640"
    },
    {
      "status": "0x1",
      "cumulativeGasUsed": "0x953522",
      "logs": [
        {
          "address": "0x1835913b8fdf0fadef187ef0e9e68bf499dce93c",
          "topics": [
            "0xac90355684e2710fa34c2c7d500018678b146ea2d56ddc331c63d242ee8bf385",
            "0x000000000000000000000000c4a53c466cfb62aeced03008b0162baaf36e0b03"
          ],
          "data": "0x0000000000000000000000000000000000000000000000000000000000000001",
          "blockHash": "0xed7a53b34c2471576954dcc0ab1f22462220caf8efe94bad3a059f0cd29cdcce",
          "blockNumber": "0x220efca",
          "blockTimestamp": "0x69553e74",
          "transactionHash": "0x9cae478406a87b4fbd70c355d9ff45199a2289cfda6e4766dd0e419951f03f60",
          "transactionIndex": "0x1a",
          "logIndex": "0x49",
          "removed": false
        }
      ],
      "logsBloom": "0x00000000000000000200100000000000000000000000000000000000000000000000000000000000000000000000000000000000000000000010000000000000000000000000000000000000000000000000000000000000000000000000000000000004000000000000000000000000000000000000000000000000002000000000000000000000000000040000000000000000000000000000000000000000000000000000400000000000000000000000000000000000000000000000000000000000000000000000000000000000000000900000000000000000000000000000000000000000000000000000000000000000000000000000000000000000",
      "type": "0x2",
      "transactionHash": "0x9cae478406a87b4fbd70c355d9ff45199a2289cfda6e4766dd0e419951f03f60",
      "transactionIndex": "0x1a",
      "blockHash": "0xed7a53b34c2471576954dcc0ab1f22462220caf8efe94bad3a059f0cd29cdcce",
      "blockNumber": "0x220efca",
      "gasUsed": "0xba49",
      "effectiveGasPrice": "0x125e04",
      "blobGasUsed": "0x79e0",
      "from": "0x1234562eb0cd65e7d08e59f9f18d7c10b5df232a",
      "to": "0x1835913b8fdf0fadef187ef0e9e68bf499dce93c",
      "contractAddress": null,
      "daFootprintGasScalar": "0x138",
      "l1BaseFeeScalar": "0x44d",
      "l1BlobBaseFee": "0x1",
      "l1BlobBaseFeeScalar": "0xa118b",
      "l1Fee": "0x7f",
      "l1GasPrice": "0x23",
      "l1GasUsed": "0x640"
    },
    {
      "status": "0x1",
      "cumulativeGasUsed": "0x95ef6b",
      "logs": [
        {
          "address": "0x1835913b8fdf0fadef187ef0e9e68bf499dce93c",
          "topics": [
            "0xac90355684e2710fa34c2c7d500018678b146ea2d56ddc331c63d242ee8bf385",
            "0x00000000000000000000000070db6efb75c898ad1e194fda2b8c6e73dbc944d6"
          ],
          "data": "0x0000000000000000000000000000000000000000000000000000000000000001",
          "blockHash": "0xed7a53b34c2471576954dcc0ab1f22462220caf8efe94bad3a059f0cd29cdcce",
          "blockNumber": "0x220efca",
          "blockTimestamp": "0x69553e74",
          "transactionHash": "0x7c75b27d313f3489e35d2667ab947f9d0830cddef716303b2bde7f54771ded56",
          "transactionIndex": "0x1b",
          "logIndex": "0x4a",
          "removed": false
        }
      ],
      "logsBloom": "0x00000000000000000200100000000000000000000000000000000000000000000000000000000000000000000000000000080000000000000010000000000000000000000000000000000000000000000000000000000000000000000000000000000000000000000000000000000000000000000000000000000000002000000000000000000000000000000000000000000000000400000000000000000000000000000000000000000000000000000000000000000000000000000000000000000000000000000000000000000000000000900000000000080000000000000000000000000000000000000000000000000000000000000000000000000000",
      "type": "0x2",
      "transactionHash": "0x7c75b27d313f3489e35d2667ab947f9d0830cddef716303b2bde7f54771ded56",
      "transactionIndex": "0x1b",
      "blockHash": "0xed7a53b34c2471576954dcc0ab1f22462220caf8efe94bad3a059f0cd29cdcce",
      "blockNumber": "0x220efca",
      "gasUsed": "0xba49",
      "effectiveGasPrice": "0x125e04",
      "blobGasUsed": "0x79e0",
      "from": "0x1234562eb0cd65e7d08e59f9f18d7c10b5df232a",
      "to": "0x1835913b8fdf0fadef187ef0e9e68bf499dce93c",
      "contractAddress": null,
      "daFootprintGasScalar": "0x138",
      "l1BaseFeeScalar": "0x44d",
      "l1BlobBaseFee": "0x1",
      "l1BlobBaseFeeScalar": "0xa118b",
      "l1Fee": "0x7f",
      "l1GasPrice": "0x23",
      "l1GasUsed": "0x640"
    },
    {
      "status": "0x1",
      "cumulativeGasUsed": "0x652ae",
      "logs": [
        {
          "address": "0x1835913b8fdf0fadef187ef0e9e68bf499dce93c",
          "topics": [
            "0xac90355684e2710fa34c2c7d500018678b146ea2d56ddc331c63d242ee8bf385",
            "0x000000000000000000000000ee589fbf85128aba6f42696db2f28ea9ebdde173"
          ],
          "data": "0x0000000000000000000000000000000000000000000000000000000000000001",
          "blockHash": "0xf36a22df1792b82478b0d1b9968a21ea2d01fc691ceb425895e37b0a51f926be",
          "blockNumber": "0x220efcb",
          "blockTimestamp": "0x69553e76",
          "transactionHash": "0x0580777c1ba1837e5cb7812c416643d1897cf206c1fc0f7484ec7418ab0a15ec",
          "transactionIndex": "0x5",
          "logIndex": "0x3",
          "removed": false
        }
      ],
      "logsBloom": "0x00000000000000000200100020000000000000000000000000000000000000000000000000000000000000000000000000000000000000000010000000000000000000000000000000000000000000000000000000000000000000000000000000000000000000000000000000000000000000000000000000000000002000000000000000000000000000000000000000000000000000000000000000000000000000000000000000000000000000000000000000000000000000000000000000000000000000000000000000000000000000900000400000000000000000000000000000000000000000000080000000000000000000000000000000000000",
      "type": "0x2",
      "transactionHash": "0x0580777c1ba1837e5cb7812c416643d1897cf206c1fc0f7484ec7418ab0a15ec",
      "transactionIndex": "0x5",
      "blockHash": "0xf36a22df1792b82478b0d1b9968a21ea2d01fc691ceb425895e37b0a51f926be",
      "blockNumber": "0x220efcb",
      "gasUsed": "0xba49",
      "effectiveGasPrice": "0x125887",
      "blobGasUsed": "0x79e0",
      "from": "0x1234562eb0cd65e7d08e59f9f18d7c10b5df232a",
      "to": "0x1835913b8fdf0fadef187ef0e9e68bf499dce93c",
      "contractAddress": null,
      "daFootprintGasScalar": "0x138",
      "l1BaseFeeScalar": "0x44d",
      "l1BlobBaseFee": "0x1",
      "l1BlobBaseFeeScalar": "0xa118b",
      "l1Fee": "0x7f",
      "l1GasPrice": "0x23",
      "l1GasUsed": "0x640"
    },
    {
      "status": "0x1",
      "cumulativeGasUsed": "0x70ceb",
      "logs": [
        {
          "address": "0x1835913b8fdf0fadef187ef0e9e68bf499dce93c",
          "topics": [
            "0xac90355684e2710fa34c2c7d500018678b146ea2d56ddc331c63d242ee8bf385",
            "0x0000000000000000000000002c036be74942c597e4d81d7050008ddc11becceb"
          ],
          "data": "0x0000000000000000000000000000000000000000000000000000000000000001",
          "blockHash": "0xf36a22df1792b82478b0d1b9968a21ea2d01fc691ceb425895e37b0a51f926be",
          "blockNumber": "0x220efcb",
          "blockTimestamp": "0x69553e76",
          "transactionHash": "0x1e9f58489ab73f92cba203bab7200885afac979cb7845d09c03ce6f3e2e381a9",
          "transactionIndex": "0x6",
          "logIndex": "0x4",
          "removed": false
        }
      ],
      "logsBloom": "0x00000000000000000200100000000000000000000000000000000000000000000000000000000000000000000000000000000000000000000010000000000000000000000000000000000000000000000000000000000000000010000000000000000000000000000000000000000000000000000000000000000000002000000000000000000000000000000000000000000000000000000000000000000000000000000000000000000000000000008000000000000000000000000000000000000000000000000000000000000000000000900000000000000000000000000000000000000000000000000000000000000000000000000000000000000002",
      "type": "0x2",
      "transactionHash": "0x1e9f58489ab73f92cba203bab7200885afac979cb7845d09c03ce6f3e2e381a9",
      "transactionIndex": "0x6",
      "blockHash": "0xf36a22df1792b82478b0d1b9968a21ea2d01fc691ceb425895e37b0a51f926be",
      "blockNumber": "0x220efcb",
      "gasUsed": "0xba3d",
      "effectiveGasPrice": "0x125887",
      "blobGasUsed": "0x79e0",
      "from": "0x1234562eb0cd65e7d08e59f9f18d7c10b5df232a",
      "to": "0x1835913b8fdf0fadef187ef0e9e68bf499dce93c",
      "contractAddress": null,
      "daFootprintGasScalar": "0x138",
      "l1BaseFeeScalar": "0x44d",
      "l1BlobBaseFee": "0x1",
      "l1BlobBaseFeeScalar": "0xa118b",
      "l1Fee": "0x7f",
      "l1GasPrice": "0x23",
      "l1GasUsed": "0x640"
    },
    {
      "status": "0x1",
      "cumulativeGasUsed": "0x7c734",
      "logs": [
        {
          "address": "0x1835913b8fdf0fadef187ef0e9e68bf499dce93c",
          "topics": [
            "0xac90355684e2710fa34c2c7d500018678b146ea2d56ddc331c63d242ee8bf385",
            "0x00000000000000000000000090cdcbf4c4bc78dc440252211efd744d0a4dc4a1"
          ],
          "data": "0x0000000000000000000000000000000000000000000000000000000000000001",
          "blockHash": "0xf36a22df1792b82478b0d1b9968a21ea2d01fc691ceb425895e37b0a51f926be",
          "blockNumber": "0x220efcb",
          "blockTimestamp": "0x69553e76",
          "transactionHash": "0xc2ff7cf4e0ac7cfd40a1a0e02a8609aafcda6cf697dac6ebeccebc1954087943",
          "transactionIndex": "0x7",
          "logIndex": "0x5",
          "removed": false
        }
      ],
      "logsBloom": "0x00000000000000000200100000000000000000000000000010000000000000000000000000000000000000000000000000000000000000200010000000000000000000000000000000000000000000000000000000000000000000000000000000000000000000000000000000000000000000000000000000000000002000000000000000000000000000000000000000000000000000000000000000000000000000000000000000000000000000000000000000000000000000000000000000000000000000000000000000000000000000900000000000000000000000000000000000000000000000080000000000000000000000000000000000000000",
      "type": "0x2",
      "transactionHash": "0xc2ff7cf4e0ac7cfd40a1a0e02a8609aafcda6cf697dac6ebeccebc1954087943",
      "transactionIndex": "0x7",
      "blockHash": "0xf36a22df1792b82478b0d1b9968a21ea2d01fc691ceb425895e37b0a51f926be",
      "blockNumber": "0x220efcb",
      "gasUsed": "0xba49",
      "effectiveGasPrice": "0x125887",
      "blobGasUsed": "0x79e0",
      "from": "0x1234562eb0cd65e7d08e59f9f18d7c10b5df232a",
      "to": "0x1835913b8fdf0fadef187ef0e9e68bf499dce93c",
      "contractAddress": null,
      "daFootprintGasScalar": "0x138",
      "l1BaseFeeScalar": "0x44d",
      "l1BlobBaseFee": "0x1",
      "l1BlobBaseFeeScalar": "0xa118b",
      "l1Fee": "0x7f",
      "l1GasPrice": "0x23",
      "l1GasUsed": "0x640"
    },
    {
      "status": "0x1",
      "cumulativeGasUsed": "0x8817d",
      "logs": [
        {
          "address": "0x1835913b8fdf0fadef187ef0e9e68bf499dce93c",
          "topics": [
            "0xac90355684e2710fa34c2c7d500018678b146ea2d56ddc331c63d242ee8bf385",
            "0x000000000000000000000000ced6ceb47301f268d57ff07879df45fda80e6974"
          ],
          "data": "0x0000000000000000000000000000000000000000000000000000000000000001",
          "blockHash": "0xf36a22df1792b82478b0d1b9968a21ea2d01fc691ceb425895e37b0a51f926be",
          "blockNumber": "0x220efcb",
          "blockTimestamp": "0x69553e76",
          "transactionHash": "0x2beaa9715afe8183fab978dcab85292912a891899016af2af5c6feb54b780970",
          "transactionIndex": "0x8",
          "logIndex": "0x6",
          "removed": false
        }
      ],
      "logsBloom": "0x00000000000000000200100800000000000000000000000000000000000000000000000000000000000000000080000000000000000000000010000000000000000000000000000000000000000000000000000000000000000000000000000000000000000000000000000000000000000000000000000000000000002000000000000000000000000000000000000000000000000000000000000000000000000000000000000000000000000000000000000000000000000000000000000000000000000000000000000000000000000000900000002000000000000000000000000000000000000000000000000000000000000000000000000000000000",
      "type": "0x2",
      "transactionHash": "0x2beaa9715afe8183fab978dcab85292912a891899016af2af5c6feb54b780970",
      "transactionIndex": "0x8",
      "blockHash": "0xf36a22df1792b82478b0d1b9968a21ea2d01fc691ceb425895e37b0a51f926be",
      "blockNumber": "0x220efcb",
      "gasUsed": "0xba49",
      "effectiveGasPrice": "0x125887",
      "blobGasUsed": "0x79e0",
      "from": "0x1234562eb0cd65e7d08e59f9f18d7c10b5df232a",
      "to": "0x1835913b8fdf0fadef187ef0e9e68bf499dce93c",
      "contractAddress": null,
      "daFootprintGasScalar": "0x138",
      "l1BaseFeeScalar": "0x44d",
      "l1BlobBaseFee": "0x1",
      "l1BlobBaseFeeScalar": "0xa118b",
      "l1Fee": "0x7f",
      "l1GasPrice": "0x23",
      "l1GasUsed": "0x640"
    },
    {
      "status": "0x1",
      "cumulativeGasUsed": "0xdab6d",
      "logs": [
        {
          "address": "0x1835913b8fdf0fadef187ef0e9e68bf499dce93c",
          "topics": [
            "0xac90355684e2710fa34c2c7d500018678b146ea2d56ddc331c63d242ee8bf385",
            "0x000000000000000000000000782ba48189af93a0cf42766058de83291f384bf3"
          ],
          "data": "0x0000000000000000000000000000000000000000000000000000000000000001",
          "blockHash": "0x8c5bc97a6cd2ffaed2ee1efce153432c75f773a4a53fa4a595c5efe29a8b6c90",
          "blockNumber": "0x220efcb",
          "blockTimestamp": "0x69553e76",
          "transactionHash": "0xadb10f0d9616380f8a857b74adf162a849b56b191cba9f58697649dafd2358ce",
          "transactionIndex": "0xd",
          "logIndex": "0x13",
          "removed": false
        }
      ],
      "logsBloom": "0x00000000000000000200100000000000000020000000000000000000000000000000000000000000000000000000000000000000000000000010000000000000000000000000000000000000000000000000000000000000000000000000000000000000000000000000000000000000000000000000000000000000002000000000000100000000000000000000000000000000000000000000000000000000000000000000000000008000000000000000000000000000000000000000000000000000000000000000000000000000000000900000000000000000000000000000000000000000000000000000000000000000000000000000000000000000",
      "type": "0x2",
      "transactionHash": "0xadb10f0d9616380f8a857b74adf162a849b56b191cba9f58697649dafd2358ce",
      "transactionIndex": "0xd",
      "blockHash": "0x8c5bc97a6cd2ffaed2ee1efce153432c75f773a4a53fa4a595c5efe29a8b6c90",
      "blockNumber": "0x220efcb",
      "gasUsed": "0xba49",
      "effectiveGasPrice": "0x125887",
      "blobGasUsed": "0x79e0",
      "from": "0x1234562eb0cd65e7d08e59f9f18d7c10b5df232a",
      "to": "0x1835913b8fdf0fadef187ef0e9e68bf499dce93c",
      "contractAddress": null,
      "daFootprintGasScalar": "0x138",
      "l1BaseFeeScalar": "0x44d",
      "l1BlobBaseFee": "0x1",
      "l1BlobBaseFeeScalar": "0xa118b",
      "l1Fee": "0x7f",
      "l1GasPrice": "0x23",
      "l1GasUsed": "0x640"
    },
    {
      "status": "0x1",
      "cumulativeGasUsed": "0xebb16",
      "logs": [],
      "logsBloom": "0x00000000000000000000000000000000000000000000000000000000000000000000000000000000000000000000000000000000000000000000000000000000000000000000000000000000000000000000000000000000000000000000000000000000000000000000000000000000000000000000000000000000000000000000000000000000000000000000000000000000000000000000000000000000000000000000000000000000000000000000000000000000000000000000000000000000000000000000000000000000000000000000000000000000000000000000000000000000000000000000000000000000000000000000000000000000",
      "type": "0x2",
      "transactionHash": "0x3bff2dddf313ab732b3970078e0d90cc5c91195b4afd656dadbbedad1e5d5fa5",
      "transactionIndex": "0xe",
      "blockHash": "0x8c5bc97a6cd2ffaed2ee1efce153432c75f773a4a53fa4a595c5efe29a8b6c90",
      "blockNumber": "0x220efcb",
      "gasUsed": "0x10fa9",
      "effectiveGasPrice": "0x125887",
      "blobGasUsed": "0x8268",
      "from": "0x1234562eb0cd65e7d08e59f9f18d7c10b5df232a",
      "to": "0x1835913b8fdf0fadef187ef0e9e68bf499dce93c",
      "contractAddress": null,
      "daFootprintGasScalar": "0x138",
      "l1BaseFeeScalar": "0x44d",
      "l1BlobBaseFee": "0x1",
      "l1BlobBaseFeeScalar": "0xa118b",
      "l1Fee": "0x7f",
      "l1GasPrice": "0x23",
      "l1GasUsed": "0x6bf"
    },
    {
      "status": "0x1",
      "cumulativeGasUsed": "0xfcabf",
      "logs": [],
      "logsBloom": "0x00000000000000000000000000000000000000000000000000000000000000000000000000000000000000000000000000000000000000000000000000000000000000000000000000000000000000000000000000000000000000000000000000000000000000000000000000000000000000000000000000000000000000000000000000000000000000000000000000000000000000000000000000000000000000000000000000000000000000000000000000000000000000000000000000000000000000000000000000000000000000000000000000000000000000000000000000000000000000000000000000000000000000000000000000000000",
      "type": "0x2",
      "transactionHash": "0x243027e04cbd7fbf8a8966128735c90b288ed96090ec12162b0060bf7114c253",
      "transactionIndex": "0xf",
      "blockHash": "0x8c5bc97a6cd2ffaed2ee1efce153432c75f773a4a53fa4a595c5efe29a8b6c90",
      "blockNumber": "0x220efcb",
      "gasUsed": "0x10fa9",
      "effectiveGasPrice": "0x125887",
      "blobGasUsed": "0x8268",
      "from": "0x1234562eb0cd65e7d08e59f9f18d7c10b5df232a",
      "to": "0x1835913b8fdf0fadef187ef0e9e68bf499dce93c",
      "contractAddress": null,
      "daFootprintGasScalar": "0x138",
      "l1BaseFeeScalar": "0x44d",
      "l1BlobBaseFee": "0x1",
      "l1BlobBaseFeeScalar": "0xa118b",
      "l1Fee": "0x7f",
      "l1GasPrice": "0x23",
      "l1GasUsed": "0x6bf"
    },
    {
      "status": "0x1",
      "cumulativeGasUsed": "0x109cc3",
      "logs": [
        {
          "address": "0x1835913b8fdf0fadef187ef0e9e68bf499dce93c",
          "topics": [
            "0x354f0817e377e1e9b2601a5fa1180df29e96ac246a5d02f817a6e3bb4b72a904",
            "0x0000000000000000000000002007cb1a90e71c18983f1d4091261816e9e9c2da",
            "0x000000000000000000000000b288ba5b5b80dd0fd83541ef2e5922f71121fa13"
          ],
          "data": "0x00000000000000000000000000000000000000000000000000000000000000010000000000000000000000000000000000000000000000000000000000000000",
          "blockHash": "0x8c5bc97a6cd2ffaed2ee1efce153432c75f773a4a53fa4a595c5efe29a8b6c90",
          "blockNumber": "0x220efcb",
          "blockTimestamp": "0x69553e76",
          "transactionHash": "0xfd6aa4d85eba0db005dad1bb103edd0488367e70524f98f244029386e7aaa5dd",
          "transactionIndex": "0x10",
          "logIndex": "0x14",
          "removed": false
        }
      ],
      "logsBloom": "0x00004000000000000000100000000000000000000000000000000000000000000000000000000000800000000000000000000000000000000000000000000000000000000000000000000000000000000000000000000000000000000000000000000000000000000000000000000000000000000000000000000000000000000000000000000000000000000020000000000000000000000002000000000400000000000000000000000000000000000000000000000000000000000024000000000000000000000000000000000000000004900000000000000000000000000000000000000000000000000000000000000000000000800000000000000000",
      "type": "0x2",
      "transactionHash": "0xfd6aa4d85eba0db005dad1bb103edd0488367e70524f98f244029386e7aaa5dd",
      "transactionIndex": "0x10",
      "blockHash": "0x8c5bc97a6cd2ffaed2ee1efce153432c75f773a4a53fa4a595c5efe29a8b6c90",
      "blockNumber": "0x220efcb",
      "gasUsed": "0xd204",
      "effectiveGasPrice": "0x125887",
      "blobGasUsed": "0x8880",
      "from": "0x1234562eb0cd65e7d08e59f9f18d7c10b5df232a",
      "to": "0x1835913b8fdf0fadef187ef0e9e68bf499dce93c",
      "contractAddress": null,
      "daFootprintGasScalar": "0x138",
      "l1BaseFeeScalar": "0x44d",
      "l1BlobBaseFee": "0x1",
      "l1BlobBaseFeeScalar": "0xa118b",
      "l1Fee": "0x7f",
      "l1GasPrice": "0x23",
      "l1GasUsed": "0x702"
    },
    {
      "status": "0x1",
      "cumulativeGasUsed": "0x116ec7",
      "logs": [
        {
          "address": "0x1835913b8fdf0fadef187ef0e9e68bf499dce93c",
          "topics": [
            "0x354f0817e377e1e9b2601a5fa1180df29e96ac246a5d02f817a6e3bb4b72a904",
            "0x00000000000000000000000004f0aef9cb921a8ad848fa8b49af7fc2e60dbccb",
            "0x000000000000000000000000c4a53c466cfb62aeced03008b0162baaf36e0b03"
          ],
          "data": "0x00000000000000000000000000000000000000000000000000000000000000010000000000000000000000000000000000000000000000000000000000000000",
          "blockHash": "0x8c5bc97a6cd2ffaed2ee1efce153432c75f773a4a53fa4a595c5efe29a8b6c90",
          "blockNumber": "0x220efcb",
          "blockTimestamp": "0x69553e76",
          "transactionHash": "0xdb462294622e6a7998a4d3174de0b643fe697746066f4b24983b3f37b208b6f9",
          "transactionIndex": "0x11",
          "logIndex": "0x15",
          "removed": false
        }
      ],
      "logsBloom": "0x00000000000000000000100000000000008000000000000000000000000000000000000000000000800000000000000000000000000000000000000000000000000000000000000000000002000000000000000000000000000000000000000000000004000000000000000000000000000000000000000000000000000000000000000000000000000000040020000000000000000000000000000000000000000000000000400000000000000000000000000000000000000000000000000000000000000000000000000000000000000004900000000000000000000000000000000000000000002000000000000000000000000000000000000000000000",
      "type": "0x2",
      "transactionHash": "0xdb462294622e6a7998a4d3174de0b643fe697746066f4b24983b3f37b208b6f9",
      "transactionIndex": "0x11",
      "blockHash": "0x8c5bc97a6cd2ffaed2ee1efce153432c75f773a4a53fa4a595c5efe29a8b6c90",
      "blockNumber": "0x220efcb",
      "gasUsed": "0xd204",
      "effectiveGasPrice": "0x125887",
      "blobGasUsed": "0x8880",
      "from": "0x1234562eb0cd65e7d08e59f9f18d7c10b5df232a",
      "to": "0x1835913b8fdf0fadef187ef0e9e68bf499dce93c",
      "contractAddress": null,
      "daFootprintGasScalar": "0x138",
      "l1BaseFeeScalar": "0x44d",
      "l1BlobBaseFee": "0x1",
      "l1BlobBaseFeeScalar": "0xa118b",
      "l1Fee": "0x7f",
      "l1GasPrice": "0x23",
      "l1GasUsed": "0x702"
    },
    {
      "status": "0x1",
      "cumulativeGasUsed": "0x1240bf",
      "logs": [
        {
          "address": "0x1835913b8fdf0fadef187ef0e9e68bf499dce93c",
          "topics": [
            "0x354f0817e377e1e9b2601a5fa1180df29e96ac246a5d02f817a6e3bb4b72a904",
            "0x0000000000000000000000008c2b7136ddaf6129ce33f58d3e5475a0ed3f7b3c",
            "0x00000000000000000000000033c6f26da09502e6540043f030ae1f87f109cc99"
          ],
          "data": "0x00000000000000000000000000000000000000000000000000000000000000010000000000000000000000000000000000000000000000000000000000000000",
          "blockHash": "0x8c5bc97a6cd2ffaed2ee1efce153432c75f773a4a53fa4a595c5efe29a8b6c90",
          "blockNumber": "0x220efcb",
          "blockTimestamp": "0x69553e76",
          "transactionHash": "0xe51226a4817277a3f328b73b2bff048e0a9250f9c9e54b84ca09c585cf0994ff",
          "transactionIndex": "0x12",
          "logIndex": "0x16",
          "removed": false
        }
      ],
      "logsBloom": "0x00000000000000000000100000000000000000000000000000000000000000000000000000000000800000000000000000000000000000000000000000000000000000000000000000000000000000004000000000000000000000000000000000000000000000000000000000000000000000000008000000000000000000000000000000000000000010000020000000000200000000000000000000000000000000000000040000000000000000000000000000000000000000000000000000000000000000000000000000000000000004900000000000000002000000000000000000000000000000000000000000000000000000000000000000000000",
      "type": "0x2",
      "transactionHash": "0xe51226a4817277a3f328b73b2bff048e0a9250f9c9e54b84ca09c585cf0994ff",
      "transactionIndex": "0x12",
      "blockHash": "0x8c5bc97a6cd2ffaed2ee1efce153432c75f773a4a53fa4a595c5efe29a8b6c90",
      "blockNumber": "0x220efcb",
      "gasUsed": "0xd1f8",
      "effectiveGasPrice": "0x125887",
      "blobGasUsed": "0x8880",
      "from": "0x1234562eb0cd65e7d08e59f9f18d7c10b5df232a",
      "to": "0x1835913b8fdf0fadef187ef0e9e68bf499dce93c",
      "contractAddress": null,
      "daFootprintGasScalar": "0x138",
      "l1BaseFeeScalar": "0x44d",
      "l1BlobBaseFee": "0x1",
      "l1BlobBaseFeeScalar": "0xa118b",
      "l1Fee": "0x7f",
      "l1GasPrice": "0x23",
      "l1GasUsed": "0x702"
    },
    {
      "status": "0x1",
      "cumulativeGasUsed": "0x1312c3",
      "logs": [
        {
          "address": "0x1835913b8fdf0fadef187ef0e9e68bf499dce93c",
          "topics": [
            "0x354f0817e377e1e9b2601a5fa1180df29e96ac246a5d02f817a6e3bb4b72a904",
            "0x0000000000000000000000008e0dcfecdeebb1da38dd1bbe9418fd7a4bdd4922",
            "0x000000000000000000000000ced6ceb47301f268d57ff07879df45fda80e6974"
          ],
          "data": "0x00000000000000000000000000000000000000000000000000000000000000010000000000000000000000000000000000000000000000000000000000000000",
          "blockHash": "0x8c5bc97a6cd2ffaed2ee1efce153432c75f773a4a53fa4a595c5efe29a8b6c90",
          "blockNumber": "0x220efcb",
          "blockTimestamp": "0x69553e76",
          "transactionHash": "0x133a31801d9bd752f5c480076f451635e5b08f304085535ce8191893ad7b60cd",
          "transactionIndex": "0x13",
          "logIndex": "0x17",
          "removed": false
        }
      ],
      "logsBloom": "0x00000000000000000000100800000000000000004000000000000000000000000000000000000000800000000080000000000000000000000000000000000000000000000000000000000000000000000000000000000000000000000000000000000000000000000000000000000000010000000000000000000000000000000000000000000000000000000020000000000000000000000000000000000000000000000000000000000000000000000000000000000000000000000000000000000000000000000000000000000000000004900040002000000000000000000000000000000000000000000000000000000000000000000000000000000000",
      "type": "0x2",
      "transactionHash": "0x133a31801d9bd752f5c480076f451635e5b08f304085535ce8191893ad7b60cd",
      "transactionIndex": "0x13",
      "blockHash": "0x8c5bc97a6cd2ffaed2ee1efce153432c75f773a4a53fa4a595c5efe29a8b6c90",
      "blockNumber": "0x220efcb",
      "gasUsed": "0xd204",
      "effectiveGasPrice": "0x125887",
      "blobGasUsed": "0x8880",
      "from": "0x1234562eb0cd65e7d08e59f9f18d7c10b5df232a",
      "to": "0x1835913b8fdf0fadef187ef0e9e68bf499dce93c",
      "contractAddress": null,
      "daFootprintGasScalar": "0x138",
      "l1BaseFeeScalar": "0x44d",
      "l1BlobBaseFee": "0x1",
      "l1BlobBaseFeeScalar": "0xa118b",
      "l1Fee": "0x7f",
      "l1GasPrice": "0x23",
      "l1GasUsed": "0x702"
    },
    {
      "status": "0x1",
      "cumulativeGasUsed": "0x13e4c7",
      "logs": [
        {
          "address": "0x1835913b8fdf0fadef187ef0e9e68bf499dce93c",
          "topics": [
            "0x354f0817e377e1e9b2601a5fa1180df29e96ac246a5d02f817a6e3bb4b72a904",
            "0x00000000000000000000000089c0fa2bae88752ec733922daa0c2ff321bb5279",
            "0x0000000000000000000000007cb382ce1aa40fa9f9a59a632090c05dc28cae7b"
          ],
          "data": "0x00000000000000000000000000000000000000000000000000000000000000010000000000000000000000000000000000000000000000000000000000000000",
          "blockHash": "0x8c5bc97a6cd2ffaed2ee1efce153432c75f773a4a53fa4a595c5efe29a8b6c90",
          "blockNumber": "0x220efcb",
          "blockTimestamp": "0x69553e76",
          "transactionHash": "0xff794fa7ef357b8a0af715c55d525f2aa506eed0830b7f1fa7892d12c22cd78b",
          "transactionIndex": "0x14",
          "logIndex": "0x18",
          "removed": false
        }
      ],
      "logsBloom": "0x00000000000000000000100000000000000000000000000000000000000000000000000000000000800800000000000000000000000000000000000000000000000000000000000000000000000000000000004000000000000002000000000000000400000000000000000000000001000000000000000000000000000000000000000000000000000000000020000000000000000000000000000000000000000000000000000000000000000000000000000000000000000000000400000000000000000000000000000000000000000004900000000000000000000000000000000000000000000000000000000000000000000000000000000000000000",
      "type": "0x2",
      "transactionHash": "0xff794fa7ef357b8a0af715c55d525f2aa506eed0830b7f1fa7892d12c22cd78b",
      "transactionIndex": "0x14",
      "blockHash": "0x8c5bc97a6cd2ffaed2ee1efce153432c75f773a4a53fa4a595c5efe29a8b6c90",
      "blockNumber": "0x220efcb",
      "gasUsed": "0xd204",
      "effectiveGasPrice": "0x125887",
      "blobGasUsed": "0x8880",
      "from": "0x1234562eb0cd65e7d08e59f9f18d7c10b5df232a",
      "to": "0x1835913b8fdf0fadef187ef0e9e68bf499dce93c",
      "contractAddress": null,
      "daFootprintGasScalar": "0x138",
      "l1BaseFeeScalar": "0x44d",
      "l1BlobBaseFee": "0x1",
      "l1BlobBaseFeeScalar": "0xa118b",
      "l1Fee": "0x7f",
      "l1GasPrice": "0x23",
      "l1GasUsed": "0x702"
    },
    {
      "status": "0x1",
      "cumulativeGasUsed": "0x14b6cb",
      "logs": [
        {
          "address": "0x1835913b8fdf0fadef187ef0e9e68bf499dce93c",
          "topics": [
            "0x354f0817e377e1e9b2601a5fa1180df29e96ac246a5d02f817a6e3bb4b72a904",
            "0x000000000000000000000000a6c9dd702b198da46f9c5b21bbe65a2a31fdeb63",
            "0x000000000000000000000000b288ba5b5b80dd0fd83541ef2e5922f71121fa13"
          ],
          "data": "0x00000000000000000000000000000000000000000000000000000000000000010000000000000000000000000000000000000000000000000000000000000000",
          "blockHash": "0x8c5bc97a6cd2ffaed2ee1efce153432c75f773a4a53fa4a595c5efe29a8b6c90",
          "blockNumber": "0x220efcb",
          "blockTimestamp": "0x69553e76",
          "transactionHash": "0x653ec782ee12b7760b8be96b18a93f764e2070d89fb210a727f7d540722aac7b",
          "transactionIndex": "0x15",
          "logIndex": "0x19",
          "removed": false
        }
      ],
      "logsBloom": "0x00000000000000000000100000000000000000000000000000000000000040000000000000000000800000000000000000000000000000000000000000000000000000000000000000000000000000000000000000000000000204000000000000000000000000000000000000000000000000000000000000000000000000000000000000000000000000000020000000000000000000000002000000000400000000000000000000000000000000000000000000000000000000000000000000000000000000000000000000000000000004900000000000000000000000000000000000000000000000000000000000000000000000800000000000000000",
      "type": "0x2",
      "transactionHash": "0x653ec782ee12b7760b8be96b18a93f764e2070d89fb210a727f7d540722aac7b",
      "transactionIndex": "0x15",
      "blockHash": "0x8c5bc97a6cd2ffaed2ee1efce153432c75f773a4a53fa4a595c5efe29a8b6c90",
      "blockNumber": "0x220efcb",
      "gasUsed": "0xd204",
      "effectiveGasPrice": "0x125887",
      "blobGasUsed": "0x8880",
      "from": "0x1234562eb0cd65e7d08e59f9f18d7c10b5df232a",
      "to": "0x1835913b8fdf0fadef187ef0e9e68bf499dce93c",
      "contractAddress": null,
      "daFootprintGasScalar": "0x138",
      "l1BaseFeeScalar": "0x44d",
      "l1BlobBaseFee": "0x1",
      "l1BlobBaseFeeScalar": "0xa118b",
      "l1Fee": "0x7f",
      "l1GasPrice": "0x23",
      "l1GasUsed": "0x702"
    },
    {
      "status": "0x1",
      "cumulativeGasUsed": "0x1588cf",
      "logs": [
        {
          "address": "0x1835913b8fdf0fadef187ef0e9e68bf499dce93c",
          "topics": [
            "0x354f0817e377e1e9b2601a5fa1180df29e96ac246a5d02f817a6e3bb4b72a904",
            "0x0000000000000000000000005c8b8caa55af0d10acc3ec95a614d26c90bd9b62",
            "0x000000000000000000000000c4a53c466cfb62aeced03008b0162baaf36e0b03"
          ],
          "data": "0x00000000000000000000000000000000000000000000000000000000000000010000000000000000000000000000000000000000000000000000000000000000",
          "blockHash": "0x8c5bc97a6cd2ffaed2ee1efce153432c75f773a4a53fa4a595c5efe29a8b6c90",
          "blockNumber": "0x220efcb",
          "blockTimestamp": "0x69553e76",
          "transactionHash": "0x15129096b9cf474c955148493b20c66e516c7e019b1601644973a41ac1145584",
          "transactionIndex": "0x16",
          "logIndex": "0x1a",
          "removed": false
        }
      ],
      "logsBloom": "0x00000000000000000000100000000000000000000000000000000000080000000000000000000000800000000000000000000000000000000000000000000000000000000000000000000000000000000000000000000000000000000000000008000004000000000000000000000000000000000000000000000000000000000000000000000000000000040020000000000000000000000000000000000000000000000000400000000000000000000000000000000000000000000000000000000000800000000000000000000000000004900000000000000000000000000000000000000000000000000000000000000000000000000000000000000000",
      "type": "0x2",
      "transactionHash": "0x15129096b9cf474c955148493b20c66e516c7e019b1601644973a41ac1145584",
      "transactionIndex": "0x16",
      "blockHash": "0x8c5bc97a6cd2ffaed2ee1efce153432c75f773a4a53fa4a595c5efe29a8b6c90",
      "blockNumber": "0x220efcb",
      "gasUsed": "0xd204",
      "effectiveGasPrice": "0x125887",
      "blobGasUsed": "0x8880",
      "from": "0x1234562eb0cd65e7d08e59f9f18d7c10b5df232a",
      "to": "0x1835913b8fdf0fadef187ef0e9e68bf499dce93c",
      "contractAddress": null,
      "daFootprintGasScalar": "0x138",
      "l1BaseFeeScalar": "0x44d",
      "l1BlobBaseFee": "0x1",
      "l1BlobBaseFeeScalar": "0xa118b",
      "l1Fee": "0x7f",
      "l1GasPrice": "0x23",
      "l1GasUsed": "0x702"
    },
    {
      "status": "0x1",
      "cumulativeGasUsed": "0x165ac7",
      "logs": [
        {
          "address": "0x1835913b8fdf0fadef187ef0e9e68bf499dce93c",
          "topics": [
            "0x354f0817e377e1e9b2601a5fa1180df29e96ac246a5d02f817a6e3bb4b72a904",
            "0x000000000000000000000000fcbfbaf16a7b392f5963232fc3d7bb81238a4fc1",
            "0x00000000000000000000000033c6f26da09502e6540043f030ae1f87f109cc99"
          ],
          "data": "0x00000000000000000000000000000000000000000000000000000000000000010000000000000000000000000000000000000000000000000000000000000000",
          "blockHash": "0x8c5bc97a6cd2ffaed2ee1efce153432c75f773a4a53fa4a595c5efe29a8b6c90",
          "blockNumber": "0x220efcb",
          "blockTimestamp": "0x69553e76",
          "transactionHash": "0x12433beba94438eb22fcc663c6e73d0c5a640aee08fa0f50e477e5989b639c58",
          "transactionIndex": "0x17",
          "logIndex": "0x1b",
          "removed": false
        }
      ],
      "logsBloom": "0x00000000000000000000100000000000000000000000000000000000000000000000000000000000800400800000000000000000000000000000000000000000000000000000000000000000000000000000000000000000000000000000000000000000000000000000000000000000000000000008000000000000000000000000000000000000000010000020000000000200000000000000000000000000000000000000000000000000000000000000000000000000000000000000000000000000000000000002000000000000000004900000000000000000000000000000000000000000000000000000000000000000000000000000000000000000",
      "type": "0x2",
      "transactionHash": "0x12433beba94438eb22fcc663c6e73d0c5a640aee08fa0f50e477e5989b639c58",
      "transactionIndex": "0x17",
      "blockHash": "0x8c5bc97a6cd2ffaed2ee1efce153432c75f773a4a53fa4a595c5efe29a8b6c90",
      "blockNumber": "0x220efcb",
      "gasUsed": "0xd1f8",
      "effectiveGasPrice": "0x125887",
      "blobGasUsed": "0x8880",
      "from": "0x1234562eb0cd65e7d08e59f9f18d7c10b5df232a",
      "to": "0x1835913b8fdf0fadef187ef0e9e68bf499dce93c",
      "contractAddress": null,
      "daFootprintGasScalar": "0x138",
      "l1BaseFeeScalar": "0x44d",
      "l1BlobBaseFee": "0x1",
      "l1BlobBaseFeeScalar": "0xa118b",
      "l1Fee": "0x7f",
      "l1GasPrice": "0x23",
      "l1GasUsed": "0x702"
    },
    {
      "status": "0x1",
      "cumulativeGasUsed": "0x172ccb",
      "logs": [
        {
          "address": "0x1835913b8fdf0fadef187ef0e9e68bf499dce93c",
          "topics": [
            "0x354f0817e377e1e9b2601a5fa1180df29e96ac246a5d02f817a6e3bb4b72a904",
            "0x0000000000000000000000000df313ce12b511062ece811e435f0729e7c9746f",
            "0x000000000000000000000000ced6ceb47301f268d57ff07879df45fda80e6974"
          ],
          "data": "0x00000000000000000000000000000000000000000000000000000000000000010000000000000000000000000000000000000000000000000000000000000000",
          "blockHash": "0x8c5bc97a6cd2ffaed2ee1efce153432c75f773a4a53fa4a595c5efe29a8b6c90",
          "blockNumber": "0x220efcb",
          "blockTimestamp": "0x69553e76",
          "transactionHash": "0x704a8a955c798eb49f7fe9a7e42edf478aa705efde4bd769524b961031de14a2",
          "transactionIndex": "0x18",
          "logIndex": "0x1c",
          "removed": false
        }
      ],
      "logsBloom": "0x00000000000000000100100800000000000000000000000000000000000000000000000000000000800000000080000000000000002000000000000000000000000000000000000000000000000000000000000000000000000000000000000000000000000000000000000000000000000000000000000000000000000000000001000000000000000000000020000000000000000000000000000000000000000000000000000000000000000000000000000000000000000000000000000000000000000000000000000000000000000004900000002000000000000000000000000000000000000000000000000000000000000000000000000000000000",
      "type": "0x2",
      "transactionHash": "0x704a8a955c798eb49f7fe9a7e42edf478aa705efde4bd769524b961031de14a2",
      "transactionIndex": "0x18",
      "blockHash": "0x8c5bc97a6cd2ffaed2ee1efce153432c75f773a4a53fa4a595c5efe29a8b6c90",
      "blockNumber": "0x220efcb",
      "gasUsed": "0xd204",
      "effectiveGasPrice": "0x125887",
      "blobGasUsed": "0x8880",
      "from": "0x1234562eb0cd65e7d08e59f9f18d7c10b5df232a",
      "to": "0x1835913b8fdf0fadef187ef0e9e68bf499dce93c",
      "contractAddress": null,
      "daFootprintGasScalar": "0x138",
      "l1BaseFeeScalar": "0x44d",
      "l1BlobBaseFee": "0x1",
      "l1BlobBaseFeeScalar": "0xa118b",
      "l1Fee": "0x7f",
      "l1GasPrice": "0x23",
      "l1GasUsed": "0x702"
    },
    {
      "status": "0x1",
      "cumulativeGasUsed": "0x17fecf",
      "logs": [
        {
          "address": "0x1835913b8fdf0fadef187ef0e9e68bf499dce93c",
          "topics": [
            "0x354f0817e377e1e9b2601a5fa1180df29e96ac246a5d02f817a6e3bb4b72a904",
            "0x000000000000000000000000b1ef139d2f4d56b126196d9ff712b67e120c0349",
            "0x0000000000000000000000007cb382ce1aa40fa9f9a59a632090c05dc28cae7b"
          ],
          "data": "0x00000000000000000000000000000000000000000000000000000000000000010000000000000000000000000000000000000000000000000000000000000000",
          "blockHash": "0x8c5bc97a6cd2ffaed2ee1efce153432c75f773a4a53fa4a595c5efe29a8b6c90",
          "blockNumber": "0x220efcb",
          "blockTimestamp": "0x69553e76",
          "transactionHash": "0x201fa9a74d8b6638a402d3093ccfbdc5b93dc8bc317e6e11f3a973e9bce1f9fa",
          "transactionIndex": "0x19",
          "logIndex": "0x1d",
          "removed": false
        }
      ],
      "logsBloom": "0x00000000000000000000100000000000000000000000000000000000080000000000000000000000800800000000000000000000000000000000000000000000000000000000000000000000000000000000004000000000000002000000800000000000000000000000000000000000000000000000000000000000000000000000000000000000000000000020000000000000000000000000000000000000000000000000000000000000000000000000000000000000000000000000000000000000000000000000000000000000000004900000000000000000000000000000000000000040000000000000000000000000000000000000000000000000",
      "type": "0x2",
      "transactionHash": "0x201fa9a74d8b6638a402d3093ccfbdc5b93dc8bc317e6e11f3a973e9bce1f9fa",
      "transactionIndex": "0x19",
      "blockHash": "0x8c5bc97a6cd2ffaed2ee1efce153432c75f773a4a53fa4a595c5efe29a8b6c90",
      "blockNumber": "0x220efcb",
      "gasUsed": "0xd204",
      "effectiveGasPrice": "0x125887",
      "blobGasUsed": "0x8880",
      "from": "0x1234562eb0cd65e7d08e59f9f18d7c10b5df232a",
      "to": "0x1835913b8fdf0fadef187ef0e9e68bf499dce93c",
      "contractAddress": null,
      "daFootprintGasScalar": "0x138",
      "l1BaseFeeScalar": "0x44d",
      "l1BlobBaseFee": "0x1",
      "l1BlobBaseFeeScalar": "0xa118b",
      "l1Fee": "0x7f",
      "l1GasPrice": "0x23",
      "l1GasUsed": "0x702"
    },
    {
      "status": "0x1",
      "cumulativeGasUsed": "0x18d0c7",
      "logs": [
        {
          "address": "0x1835913b8fdf0fadef187ef0e9e68bf499dce93c",
          "topics": [
            "0x354f0817e377e1e9b2601a5fa1180df29e96ac246a5d02f817a6e3bb4b72a904",
            "0x000000000000000000000000324db0d78d0225431a2bd49470018b322a006833",
            "0x000000000000000000000000b288ba5b5b80dd0fd83541ef2e5922f71121fa13"
          ],
          "data": "0x00000000000000000000000000000000000000000000000000000000000000010000000000000000000000000000000000000000000000000000000000000000",
          "blockHash": "0x8c5bc97a6cd2ffaed2ee1efce153432c75f773a4a53fa4a595c5efe29a8b6c90",
          "blockNumber": "0x220efcb",
          "blockTimestamp": "0x69553e76",
          "transactionHash": "0x54665ef14a857cb051cf9f43da0a79873875b22587267974ecf8b3da147da223",
          "transactionIndex": "0x1a",
          "logIndex": "0x1e",
          "removed": false
        }
      ],
      "logsBloom": "0x00000000000000000000100000000000000000000000000000000000000000000000000000000000800000000000000000000000000000000000000000000000000000000000000000000000000000000000000000000000000000000000000000000000000000000000000000000000000000000000000000000000000000000000000000000000000000000020000000000000000000000002000000000400000000000000000000000000000000000000000000000000000000000000000000000020000000000000000000000000000004900000000000000000000000000000000000080200000000000000000000000000000000800000000000000000",
      "type": "0x2",
      "transactionHash": "0x54665ef14a857cb051cf9f43da0a79873875b22587267974ecf8b3da147da223",
      "transactionIndex": "0x1a",
      "blockHash": "0x8c5bc97a6cd2ffaed2ee1efce153432c75f773a4a53fa4a595c5efe29a8b6c90",
      "blockNumber": "0x220efcb",
      "gasUsed": "0xd1f8",
      "effectiveGasPrice": "0x125887",
      "blobGasUsed": "0x8880",
      "from": "0x1234562eb0cd65e7d08e59f9f18d7c10b5df232a",
      "to": "0x1835913b8fdf0fadef187ef0e9e68bf499dce93c",
      "contractAddress": null,
      "daFootprintGasScalar": "0x138",
      "l1BaseFeeScalar": "0x44d",
      "l1BlobBaseFee": "0x1",
      "l1BlobBaseFeeScalar": "0xa118b",
      "l1Fee": "0x7f",
      "l1GasPrice": "0x23",
      "l1GasUsed": "0x702"
    },
    {
      "status": "0x1",
      "cumulativeGasUsed": "0x19a2cb",
      "logs": [
        {
          "address": "0x1835913b8fdf0fadef187ef0e9e68bf499dce93c",
          "topics": [
            "0x354f0817e377e1e9b2601a5fa1180df29e96ac246a5d02f817a6e3bb4b72a904",
            "0x000000000000000000000000bf1dc15eaa6449d5bf81463578808313f5e208ee",
            "0x000000000000000000000000c4a53c466cfb62aeced03008b0162baaf36e0b03"
          ],
          "data": "0x00000000000000000000000000000000000000000000000000000000000000010000000000000000000000000000000000000000000000000000000000000000",
          "blockHash": "0x8c5bc97a6cd2ffaed2ee1efce153432c75f773a4a53fa4a595c5efe29a8b6c90",
          "blockNumber": "0x220efcb",
          "blockTimestamp": "0x69553e76",
          "transactionHash": "0x322b8f8caf2bf458600429b9c6b3f07d99188667c5be6cadab706fbc1e6bb727",
          "transactionIndex": "0x1b",
          "logIndex": "0x1f",
          "removed": false
        }
      ],
      "logsBloom": "0x00000000000000000000100000080000000000000000000000000000000000000000000000000000800000000000000000000000000000000000000000000000000000000000000000000000000000000000000000000000000000000000000000000024000000000000000000000000000000000000010000000000000000000000000000000000000000040020000000000000000000000000000000000000000000000000400000000000000000000000000000000000000000000000000000000000000000000000000000000000000004900000000000000000000000000000000000000000000000000000000000000000000000000000000000000000",
      "type": "0x2",
      "transactionHash": "0x322b8f8caf2bf458600429b9c6b3f07d99188667c5be6cadab706fbc1e6bb727",
      "transactionIndex": "0x1b",
      "blockHash": "0x8c5bc97a6cd2ffaed2ee1efce153432c75f773a4a53fa4a595c5efe29a8b6c90",
      "blockNumber": "0x220efcb",
      "gasUsed": "0xd204",
      "effectiveGasPrice": "0x125887",
      "blobGasUsed": "0x8880",
      "from": "0x1234562eb0cd65e7d08e59f9f18d7c10b5df232a",
      "to": "0x1835913b8fdf0fadef187ef0e9e68bf499dce93c",
      "contractAddress": null,
      "daFootprintGasScalar": "0x138",
      "l1BaseFeeScalar": "0x44d",
      "l1BlobBaseFee": "0x1",
      "l1BlobBaseFeeScalar": "0xa118b",
      "l1Fee": "0x7f",
      "l1GasPrice": "0x23",
      "l1GasUsed": "0x702"
    },
    {
      "status": "0x1",
      "cumulativeGasUsed": "0x1a74c3",
      "logs": [
        {
          "address": "0x1835913b8fdf0fadef187ef0e9e68bf499dce93c",
          "topics": [
            "0x354f0817e377e1e9b2601a5fa1180df29e96ac246a5d02f817a6e3bb4b72a904",
            "0x000000000000000000000000c79f99285a0f4b640c552090eeab8cabc4433c1d",
            "0x00000000000000000000000033c6f26da09502e6540043f030ae1f87f109cc99"
          ],
          "data": "0x00000000000000000000000000000000000000000000000000000000000000010000000000000000000000000000000000000000000000000000000000000000",
          "blockHash": "0x8c5bc97a6cd2ffaed2ee1efce153432c75f773a4a53fa4a595c5efe29a8b6c90",
          "blockNumber": "0x220efcb",
          "blockTimestamp": "0x69553e76",
          "transactionHash": "0x0fcae1e3d85e590519729311684a4cac353b6817f2f308248134078b5f569bb6",
          "transactionIndex": "0x1c",
          "logIndex": "0x20",
          "removed": false
        }
      ],
      "logsBloom": "0x00000000000000000000100000000000000004000000000000000000000002000000000000000000800000000000000000000000000000000000000000000000000000000000000000000000000000000000000000000000000000000000000000000000000000000000000000000000000000000008000000000000000000000000000000000000000010000020000000000200000000000000000000000000000000000000000000000000000000000000000000000000000000000000000000000000000000000000000000000000000004900000000000000000000000000000000000000000000000000000000000000000000000040000000000000000",
      "type": "0x2",
      "transactionHash": "0x0fcae1e3d85e590519729311684a4cac353b6817f2f308248134078b5f569bb6",
      "transactionIndex": "0x1c",
      "blockHash": "0x8c5bc97a6cd2ffaed2ee1efce153432c75f773a4a53fa4a595c5efe29a8b6c90",
      "blockNumber": "0x220efcb",
      "gasUsed": "0xd1f8",
      "effectiveGasPrice": "0x125887",
      "blobGasUsed": "0x8880",
      "from": "0x1234562eb0cd65e7d08e59f9f18d7c10b5df232a",
      "to": "0x1835913b8fdf0fadef187ef0e9e68bf499dce93c",
      "contractAddress": null,
      "daFootprintGasScalar": "0x138",
      "l1BaseFeeScalar": "0x44d",
      "l1BlobBaseFee": "0x1",
      "l1BlobBaseFeeScalar": "0xa118b",
      "l1Fee": "0x7f",
      "l1GasPrice": "0x23",
      "l1GasUsed": "0x702"
    },
    {
      "status": "0x1",
      "cumulativeGasUsed": "0x1b46c7",
      "logs": [
        {
          "address": "0x1835913b8fdf0fadef187ef0e9e68bf499dce93c",
          "topics": [
            "0x354f0817e377e1e9b2601a5fa1180df29e96ac246a5d02f817a6e3bb4b72a904",
            "0x000000000000000000000000a5fc97d4eee36cf0cf5bee22cf78e74ce9882e81",
            "0x000000000000000000000000ced6ceb47301f268d57ff07879df45fda80e6974"
          ],
          "data": "0x00000000000000000000000000000000000000000000000000000000000000010000000000000000000000000000000000000000000000000000000000000000",
          "blockHash": "0x8c5bc97a6cd2ffaed2ee1efce153432c75f773a4a53fa4a595c5efe29a8b6c90",
          "blockNumber": "0x220efcb",
          "blockTimestamp": "0x69553e76",
          "transactionHash": "0x63e4c963e80b4a5873a1407d2947cf20422af100762e51eac3e876c6990bbd55",
          "transactionIndex": "0x1d",
          "logIndex": "0x21",
          "removed": false
        }
      ],
      "logsBloom": "0x00000000000000000000100800000000000000000000000000000000000000000000000000000000800000000080000000000000010000000000000000000000000000000000000000000000000000000000000000000000000000000000000000400000000000000000008000000000000000000000000000000000000000000000000000000000000000000020000000000000000000000000000000000000000000000000000000000000000000000000000000000000000000000000000000000000000000000000000000000000000004900000002000000000000000000000000000000000000000000000000000000000000000000000000000000000",
      "type": "0x2",
      "transactionHash": "0x63e4c963e80b4a5873a1407d2947cf20422af100762e51eac3e876c6990bbd55",
      "transactionIndex": "0x1d",
      "blockHash": "0x8c5bc97a6cd2ffaed2ee1efce153432c75f773a4a53fa4a595c5efe29a8b6c90",
      "blockNumber": "0x220efcb",
      "gasUsed": "0xd204",
      "effectiveGasPrice": "0x125887",
      "blobGasUsed": "0x8880",
      "from": "0x1234562eb0cd65e7d08e59f9f18d7c10b5df232a",
      "to": "0x1835913b8fdf0fadef187ef0e9e68bf499dce93c",
      "contractAddress": null,
      "daFootprintGasScalar": "0x138",
      "l1BaseFeeScalar": "0x44d",
      "l1BlobBaseFee": "0x1",
      "l1BlobBaseFeeScalar": "0xa118b",
      "l1Fee": "0x7f",
      "l1GasPrice": "0x23",
      "l1GasUsed": "0x702"
    },
    {
      "status": "0x1",
      "cumulativeGasUsed": "0x1c18cb",
      "logs": [
        {
          "address": "0x1835913b8fdf0fadef187ef0e9e68bf499dce93c",
          "topics": [
            "0x354f0817e377e1e9b2601a5fa1180df29e96ac246a5d02f817a6e3bb4b72a904",
            "0x000000000000000000000000df3ebc828195ffbc71bb80c467cf70bfdef0ac1e",
            "0x0000000000000000000000007cb382ce1aa40fa9f9a59a632090c05dc28cae7b"
          ],
          "data": "0x00000000000000000000000000000000000000000000000000000000000000010000000000000000000000000000000000000000000000000000000000000000",
          "blockHash": "0x8c5bc97a6cd2ffaed2ee1efce153432c75f773a4a53fa4a595c5efe29a8b6c90",
          "blockNumber": "0x220efcb",
          "blockTimestamp": "0x69553e76",
          "transactionHash": "0x19f270d4374f58d624d69791e0ff8813e6d21eb5149e0a287ff9c3aa70c3ce39",
          "transactionIndex": "0x1e",
          "logIndex": "0x22",
          "removed": false
        }
      ],
      "logsBloom": "0x00000000000000000000100000000000000000000000000000000000000000000000000000000000800802000000000000000000000000000000000000000000000000000000000000000000000000000000004000000000000002000000000000000000000000000000000000000000000000000000000000000000000000000000000000000000000000000020000001000000000000000000000000000000000000000000000000000000000000000000000000000000000000000000000000000000000000000400000000000000000004900000000000000000000000000000000000000000000000000000000000000000000000000000000000000000",
      "type": "0x2",
      "transactionHash": "0x19f270d4374f58d624d69791e0ff8813e6d21eb5149e0a287ff9c3aa70c3ce39",
      "transactionIndex": "0x1e",
      "blockHash": "0x8c5bc97a6cd2ffaed2ee1efce153432c75f773a4a53fa4a595c5efe29a8b6c90",
      "blockNumber": "0x220efcb",
      "gasUsed": "0xd204",
      "effectiveGasPrice": "0x125887",
      "blobGasUsed": "0x8880",
      "from": "0x1234562eb0cd65e7d08e59f9f18d7c10b5df232a",
      "to": "0x1835913b8fdf0fadef187ef0e9e68bf499dce93c",
      "contractAddress": null,
      "daFootprintGasScalar": "0x138",
      "l1BaseFeeScalar": "0x44d",
      "l1BlobBaseFee": "0x1",
      "l1BlobBaseFeeScalar": "0xa118b",
      "l1Fee": "0x7f",
      "l1GasPrice": "0x23",
      "l1GasUsed": "0x702"
    },
    {
      "status": "0x1",
      "cumulativeGasUsed": "0x1ceacf",
      "logs": [
        {
          "address": "0x1835913b8fdf0fadef187ef0e9e68bf499dce93c",
          "topics": [
            "0x354f0817e377e1e9b2601a5fa1180df29e96ac246a5d02f817a6e3bb4b72a904",
            "0x0000000000000000000000008edafbade92450979dff2f10449e7917c722af50",
            "0x000000000000000000000000b288ba5b5b80dd0fd83541ef2e5922f71121fa13"
          ],
          "data": "0x00000000000000000000000000000000000000000000000000000000000000010000000000000000000000000000000000000000000000000000000000000000",
          "blockHash": "0x8c5bc97a6cd2ffaed2ee1efce153432c75f773a4a53fa4a595c5efe29a8b6c90",
          "blockNumber": "0x220efcb",
          "blockTimestamp": "0x69553e76",
          "transactionHash": "0xc53f7400d0696106c2b84b46256952cf37de79b9b5c7bbeb845ac4e721ee1310",
          "transactionIndex": "0x1f",
          "logIndex": "0x23",
          "removed": false
        }
      ],
      "logsBloom": "0x00000000000000000000100000000000000000000000000000000000000000000000000000000000800000000000000000000000000000000000000000000000000000000000000000000000000000000000000000000000000000000000000800000000000000000000000000000000000000000000000000000000000000000000000000000000000000000020000000000000000000000002000000000400000000000000020000000000000000000000000000000000000000000000000000000000000000000000000000000000000004900000200000000000000000000000000000000000000000000000000000000000000000800000000000000000",
      "type": "0x2",
      "transactionHash": "0xc53f7400d0696106c2b84b46256952cf37de79b9b5c7bbeb845ac4e721ee1310",
      "transactionIndex": "0x1f",
      "blockHash": "0x8c5bc97a6cd2ffaed2ee1efce153432c75f773a4a53fa4a595c5efe29a8b6c90",
      "blockNumber": "0x220efcb",
      "gasUsed": "0xd204",
      "effectiveGasPrice": "0x125887",
      "blobGasUsed": "0x8880",
      "from": "0x1234562eb0cd65e7d08e59f9f18d7c10b5df232a",
      "to": "0x1835913b8fdf0fadef187ef0e9e68bf499dce93c",
      "contractAddress": null,
      "daFootprintGasScalar": "0x138",
      "l1BaseFeeScalar": "0x44d",
      "l1BlobBaseFee": "0x1",
      "l1BlobBaseFeeScalar": "0xa118b",
      "l1Fee": "0x7f",
      "l1GasPrice": "0x23",
      "l1GasUsed": "0x702"
    },
    {
      "status": "0x1",
      "cumulativeGasUsed": "0x1dbcd3",
      "logs": [
        {
          "address": "0x1835913b8fdf0fadef187ef0e9e68bf499dce93c",
          "topics": [
            "0x354f0817e377e1e9b2601a5fa1180df29e96ac246a5d02f817a6e3bb4b72a904",
            "0x000000000000000000000000df5ca06845d1b2f3ddff5759a493fb5aff68d72d",
            "0x000000000000000000000000c4a53c466cfb62aeced03008b0162baaf36e0b03"
          ],
          "data": "0x00000000000000000000000000000000000000000000000000000000000000010000000000000000000000000000000000000000000000000000000000000000",
          "blockHash": "0x8c5bc97a6cd2ffaed2ee1efce153432c75f773a4a53fa4a595c5efe29a8b6c90",
          "blockNumber": "0x220efcb",
          "blockTimestamp": "0x69553e76",
          "transactionHash": "0xed8d0599c8e730140db233ee57aac5cdfd9ea2df23cf2b328c3f2d0b18cf178a",
          "transactionIndex": "0x20",
          "logIndex": "0x24",
          "removed": false
        }
      ],
      "logsBloom": "0x00000000000000000000100000000000000000000000000000000000000000000000000000000000800000000000000000000000000000000000000000000000000000002000000000000000000000000000000000000000000000000000000000200004000000000000000000000000000000000000000000000000000000000000000000000000000000040020000000000000000000000000000000000000000000000000400000000000000000000000000000000000000000000000000000000000000000000000000000000000000004900000000000000000000000000000000000000000000000000000000000000000000000002000000000000000",
      "type": "0x2",
      "transactionHash": "0xed8d0599c8e730140db233ee57aac5cdfd9ea2df23cf2b328c3f2d0b18cf178a",
      "transactionIndex": "0x20",
      "blockHash": "0x8c5bc97a6cd2ffaed2ee1efce153432c75f773a4a53fa4a595c5efe29a8b6c90",
      "blockNumber": "0x220efcb",
      "gasUsed": "0xd204",
      "effectiveGasPrice": "0x125887",
      "blobGasUsed": "0x8880",
      "from": "0x1234562eb0cd65e7d08e59f9f18d7c10b5df232a",
      "to": "0x1835913b8fdf0fadef187ef0e9e68bf499dce93c",
      "contractAddress": null,
      "daFootprintGasScalar": "0x138",
      "l1BaseFeeScalar": "0x44d",
      "l1BlobBaseFee": "0x1",
      "l1BlobBaseFeeScalar": "0xa118b",
      "l1Fee": "0x7f",
      "l1GasPrice": "0x23",
      "l1GasUsed": "0x702"
    },
    {
      "status": "0x1",
      "cumulativeGasUsed": "0x1e8ecb",
      "logs": [
        {
          "address": "0x1835913b8fdf0fadef187ef0e9e68bf499dce93c",
          "topics": [
            "0x354f0817e377e1e9b2601a5fa1180df29e96ac246a5d02f817a6e3bb4b72a904",
            "0x000000000000000000000000bfc03ba44aca79cfe6732968f99e9db0b3880828",
            "0x00000000000000000000000033c6f26da09502e6540043f030ae1f87f109cc99"
          ],
          "data": "0x00000000000000000000000000000000000000000000000000000000000000010000000000000000000000000000000000000000000000000000000000000000",
          "blockHash": "0x8c5bc97a6cd2ffaed2ee1efce153432c75f773a4a53fa4a595c5efe29a8b6c90",
          "blockNumber": "0x220efcb",
          "blockTimestamp": "0x69553e76",
          "transactionHash": "0x36ab239ff9768ec2e610ce83eba84edc1260f36b136ab3396574c6b3b2b6d288",
          "transactionIndex": "0x21",
          "logIndex": "0x25",
          "removed": false
        }
      ],
      "logsBloom": "0x00000000000000000000100000000000000000000000000000000000000000000000000000000000800000000000000000000000000000000000000000000000000000000000000000000000000000000000000000000000000000100000008000000000000000000000000000000000000000000008000000040000000000000000000000000000000010000020000000000200000000000000000000000000000000000000000000000000000000000000000000000000000000000000000000000000000000000000000000000000000004900000000000000000000000000000000000000000000000000000000000000000000000000000000000000000",
      "type": "0x2",
      "transactionHash": "0x36ab239ff9768ec2e610ce83eba84edc1260f36b136ab3396574c6b3b2b6d288",
      "transactionIndex": "0x21",
      "blockHash": "0x8c5bc97a6cd2ffaed2ee1efce153432c75f773a4a53fa4a595c5efe29a8b6c90",
      "blockNumber": "0x220efcb",
      "gasUsed": "0xd1f8",
      "effectiveGasPrice": "0x125887",
      "blobGasUsed": "0x8880",
      "from": "0x1234562eb0cd65e7d08e59f9f18d7c10b5df232a",
      "to": "0x1835913b8fdf0fadef187ef0e9e68bf499dce93c",
      "contractAddress": null,
      "daFootprintGasScalar": "0x138",
      "l1BaseFeeScalar": "0x44d",
      "l1BlobBaseFee": "0x1",
      "l1BlobBaseFeeScalar": "0xa118b",
      "l1Fee": "0x7f",
      "l1GasPrice": "0x23",
      "l1GasUsed": "0x702"
    },
    {
      "status": "0x1",
      "cumulativeGasUsed": "0x1f60cf",
      "logs": [
        {
          "address": "0x1835913b8fdf0fadef187ef0e9e68bf499dce93c",
          "topics": [
            "0x354f0817e377e1e9b2601a5fa1180df29e96ac246a5d02f817a6e3bb4b72a904",
            "0x0000000000000000000000004e55b3951d334af5a88474d252f789911e1efc55",
            "0x000000000000000000000000ced6ceb47301f268d57ff07879df45fda80e6974"
          ],
          "data": "0x00000000000000000000000000000000000000000000000000000000000000010000000000000000000000000000000000000000000000000000000000000000",
          "blockHash": "0x8c5bc97a6cd2ffaed2ee1efce153432c75f773a4a53fa4a595c5efe29a8b6c90",
          "blockNumber": "0x220efcb",
          "blockTimestamp": "0x69553e76",
          "transactionHash": "0x75f6b4108c3ae639668fab67a232d43808b0aaee1e0a57112088239967f711d8",
          "transactionIndex": "0x22",
          "logIndex": "0x26",
          "removed": false
        }
      ],
      "logsBloom": "0x00000000000000000000100800000000000000000000000000000000000000000000000000000000800000000080000000000000000000200000000000000000000000000000000000000000000000000000000000000000000000000000000000000000000000000000000000000000000000000000000000000000000000000000000000000000000000000020000000000000000000000000000004000000000000000000000000000000000000000000000000000000000000000000000000000000000000000000000000000000000004900000002000000000000000000000000000000000000000000000000000000000000000008000000000000000",
      "type": "0x2",
      "transactionHash": "0x75f6b4108c3ae639668fab67a232d43808b0aaee1e0a57112088239967f711d8",
      "transactionIndex": "0x22",
      "blockHash": "0x8c5bc97a6cd2ffaed2ee1efce153432c75f773a4a53fa4a595c5efe29a8b6c90",
      "blockNumber": "0x220efcb",
      "gasUsed": "0xd204",
      "effectiveGasPrice": "0x125887",
      "blobGasUsed": "0x8880",
      "from": "0x1234562eb0cd65e7d08e59f9f18d7c10b5df232a",
      "to": "0x1835913b8fdf0fadef187ef0e9e68bf499dce93c",
      "contractAddress": null,
      "daFootprintGasScalar": "0x138",
      "l1BaseFeeScalar": "0x44d",
      "l1BlobBaseFee": "0x1",
      "l1BlobBaseFeeScalar": "0xa118b",
      "l1Fee": "0x7f",
      "l1GasPrice": "0x23",
      "l1GasUsed": "0x702"
    },
    {
      "status": "0x1",
      "cumulativeGasUsed": "0x2032d3",
      "logs": [
        {
          "address": "0x1835913b8fdf0fadef187ef0e9e68bf499dce93c",
          "topics": [
            "0x354f0817e377e1e9b2601a5fa1180df29e96ac246a5d02f817a6e3bb4b72a904",
            "0x000000000000000000000000e54116b3fa1623eb5aac2ed4628002cee620e9d8",
            "0x0000000000000000000000007cb382ce1aa40fa9f9a59a632090c05dc28cae7b"
          ],
          "data": "0x00000000000000000000000000000000000000000000000000000000000000010000000000000000000000000000000000000000000000000000000000000000",
          "blockHash": "0x8c5bc97a6cd2ffaed2ee1efce153432c75f773a4a53fa4a595c5efe29a8b6c90",
          "blockNumber": "0x220efcb",
          "blockTimestamp": "0x69553e76",
          "transactionHash": "0x7b455b2d999220c1cebaa91207d25aec559bdcdbfe627fde50779db6385d315d",
          "transactionIndex": "0x23",
          "logIndex": "0x27",
          "removed": false
        }
      ],
      "logsBloom": "0x00000000000000000000100000000000000000000000000000000000000000000000000000000000800800000000000000000000000000000000000000000000000000000000000000000000000000000000004000000000000002400000000000000000000000000000000000000000000000000000000001000000000000000200000000000000000000000020000000000000000000000000000000000000000000000000000000000000000000000000000000000000000000000000000000000000000000000000000000000000000004900000000000000000000000000000000000000000000000000000000000000000000000000000000000000000",
      "type": "0x2",
      "transactionHash": "0x7b455b2d999220c1cebaa91207d25aec559bdcdbfe627fde50779db6385d315d",
      "transactionIndex": "0x23",
      "blockHash": "0x8c5bc97a6cd2ffaed2ee1efce153432c75f773a4a53fa4a595c5efe29a8b6c90",
      "blockNumber": "0x220efcb",
      "gasUsed": "0xd204",
      "effectiveGasPrice": "0x125887",
      "blobGasUsed": "0x8880",
      "from": "0x1234562eb0cd65e7d08e59f9f18d7c10b5df232a",
      "to": "0x1835913b8fdf0fadef187ef0e9e68bf499dce93c",
      "contractAddress": null,
      "daFootprintGasScalar": "0x138",
      "l1BaseFeeScalar": "0x44d",
      "l1BlobBaseFee": "0x1",
      "l1BlobBaseFeeScalar": "0xa118b",
      "l1Fee": "0x7f",
      "l1GasPrice": "0x23",
      "l1GasUsed": "0x702"
    }
  ],
  "libraries": [],
  "pending": [],
  "returns": {},
  "timestamp": 1767194252734,
  "chain": 84532,
  "commit": "987b623"
}