{
  "transactions": [
    {
      "hash": "0x4e258bcf0a0c22c37bf791e23f1506754f2f24dc2cfd84388740501a702cc564",
      "transactionType": "CREATE",
      "contractName": "KubiStreamerDonation",
      "contractAddress": "0xbe7f8973094b3095615f127ea621fc6d60a7e723",
      "function": null,
      "arguments": [
        "0x94cC0AaC535CCDB3C01d6787D6413C739ae12bc4",
        "0x1234b50310fF79958509d1a9C8a92458ED1496D1",
        "250",
        "0x123454Ce54DEBE2cEbCe95740E9e0f65DFf9DBE2"
      ],
      "transaction": {
        "from": "0x1234562eb0cd65e7d08e59f9f18d7c10b5df232a",
        "gas": "0x401431",
        "value": "0x0",
        "input": "0x60e0806040523461021a57608081613a89803803809161001f82856102b2565b83398101031261021a57610032816102e9565b9061003f602082016102e9565b9060408101519061ffff82169081830361021a57606061005f91016102e9565b5f80546001600160a01b0319163390811782556040519296917f8be0079c531659141344cd1fd0a4f28419497f9722a3daafe3b4186f6b6457e08180a3600180556001600160a01b031691821580156102a1575b8015610290575b610281576103e81061027257608082905263c45a015560e01b8152602081600481855afa908115610226575f91610231575b506001600160a01b031660a0526040516312a9293f60e21b815290602090829060049082905afa908115610226575f916101e8575b5060c052600280546001600160b01b0319166001600160a01b039384161760a09290921b61ffff60a01b16919091179055600380546001600160a01b0319169290911691909117905560405161378b90816102fe823960805181818161026f01528181612e3201528181612f0f0152818161318d01526133ed015260a051818181610a1401528181612d91015281816131040152613350015260c051818181610a9d01528181610acf01528181610c1d01528181612ba7015281816132a101526136d30152f35b90506020813d60201161021e575b81610203602093836102b2565b8101031261021a57610214906102e9565b5f610121565b5f80fd5b3d91506101f6565b6040513d5f823e3d90fd5b90506020813d60201161026a575b8161024c602093836102b2565b8101031261021a576004916102626020926102e9565b9150916100ec565b3d915061023f565b63cd4e616760e01b5f5260045ffd5b63d92e233d60e01b5f5260045ffd5b506001600160a01b038616156100ba565b506001600160a01b038516156100b3565b601f909101601f19168101906001600160401b038211908210176102d557604052565b634e487b7160e01b5f52604160045260245ffd5b51906001600160a01b038216820361021a5756fe6080806040526004361015610034575b50361561002557631021348160e01b5f5260045ffd5b631021348160e01b5f5260045ffd5b5f3560e01c9081630c495f96146119e057508063168b63d81461194f57806324a9d8531461192b57806325d86ced1461188057806329575f6a146118585780633b3b2d8c146117f357806345ea4a9c146117b3578063469048401461178b57806356d5d4751461144857806376cd0ac1146113695780637a6f1dcc146111ec5780637b955ebd146111635780637f507f3f14611105578063833ccb3514611081578063876a46ff14610f5357806388ba16ab14610f245780638da5cb5b14610efd5780639ab2f6b914610e7b578063a0d2d83014610ca3578063a9563e4f14610c4c578063ad5c464814610c08578063b0e0c12814610b8c578063b45faa7614610a43578063c45a0155146109ff578063cd1b7d6c1461094e578063d55be8c614610932578063d8c71a9214610906578063ddb2a096146108b1578063e051e81a14610857578063e165fe3d14610800578063e1f433471461072c578063e34d4ceb146106d7578063e9a4529114610665578063ec287506146105ec578063ee5e4fa314610592578063ee68870614610514578063f019e6ed146104f2578063f2708684146104cc578063f2fde38b1461044a578063f54efd77146103de578063f6fe94b01461029e578063f887ea401461025a5763fef0c4a114610219575f61000f565b34610256576020366003190112610256576001600160a01b0361023a611bb9565b165f526004602052602060ff60405f2054166040519015158152f35b5f80fd5b34610256575f366003190112610256576040517f00000000000000000000000000000000000000000000000000000000000000006001600160a01b03168152602090f35b34610256576060366003190112610256576102b7611bb9565b6102bf611bcf565b906102c8611c10565b6001600160a01b039091169133831415806103c9575b806103b5575b6103a6576001600160a01b03165f8181526004602052604090205460ff161561039757825f52600c6020528060405f2093815f52600185016020526103388460405f209060ff801983541691151516179055565b7f160aca386eecd6b8deb0127ecafcd60a1081e3f9dfa75de2cfd22ea186e8d3f1602060405195159586158152a381610383575b5061037357005b80546001600160a01b0319169055005b82546001600160a01b03161490508261036c565b633ba12a1560e11b5f5260045ffd5b63641410b160e11b5f5260045ffd5b505f546001600160a01b03163314156102e4565b506002546001600160a01b03163314156102de565b3461025657602036600319011261025657600435801515809103610256575f546001600160a01b031633141580610435575b6104265760ff8019600a5416911617600a555f80f35b63127f16f360e31b5f5260045ffd5b506002546001600160a01b0316331415610410565b3461025657602036600319011261025657610463611bb9565b5f546001600160a01b03811691338390036104bd576001600160a01b03169182156102565782907f8be0079c531659141344cd1fd0a4f28419497f9722a3daafe3b4186f6b6457e05f80a36001600160a01b031916175f55005b635fc483c560e01b5f5260045ffd5b34610256575f36600319011261025657602063ffffffff600a5460081c16604051908152f35b34610256575f36600319011261025657602060ff600a54166040519015158152f35b346102565760403660031901126102565761052d611bb9565b610535611bcf565b9060018060a01b035f54163314158061057d575b610426576001600160a01b039081165f908152600b6020526040902080546001600160a01b03191692909116919091179055005b506002546001600160a01b0316331415610549565b34610256576040366003190112610256576105ab611bb9565b6105b3611bcf565b9060018060a01b03165f52600c602052600160405f20019060018060a01b03165f52602052602060ff60405f2054166040519015158152f35b34610256576101403660031901126102565761060736611c97565b610612303314611d47565b61061b81612c08565b60018060a01b0360a08201511690608060018060a01b036020830151169101516040519182526020820152600160408201525f5160206137365f395f51905f5260606101243592a3005b346102565760403660031901126102565761067e611bb9565b610686611bcf565b336001600160a01b0383161415806106c2575b806106ae575b6103a6576106ac916122f4565b005b505f546001600160a01b031633141561069f565b506002546001600160a01b0316331415610699565b34610256576040366003190112610256576106f0611d34565b63ffffffff6106fd611bcf565b91165f52600860205260405f209060018060a01b03165f52602052602060ff60405f2054166040519015158152f35b3461025657606036600319011261025657610745611d34565b61074d611bcf565b610755611c10565b9060018060a01b035f5416331415806107eb575b610426576001600160a01b03169182156107dc57602063ffffffff7f4d49d3f3f3e2ec61b682ac1aa8adb9e1945c29b4df4aab45492b365a611b7b9f921692835f526008825260405f20855f5282526107d18160405f209060ff801983541691151516179055565b6040519015158152a3005b63d92e233d60e01b5f5260045ffd5b506002546001600160a01b0316331415610769565b3461025657604036600319011261025657610819611bb9565b610821611bcf565b6001600160a01b039182165f908152600c6020908152604080832093851683526002909301815290829020549151919092168152f35b34610256576020366003190112610256576001600160a01b03610878611bb9565b165f526006602052606060405f20600181549101546040519160ff81161515835260018060a01b039060081c1660208301526040820152f35b34610256576020366003190112610256576001600160a01b036108d2611bb9565b165f908152600c6020908152604091829020805460049091015483516001600160a01b039283168152911691810191909152f35b34610256575f36600319011261025657600a5460405160289190911c6001600160a01b03168152602090f35b34610256575f3660031901126102565760206040516103e88152f35b346102565760403660031901126102565760043561ffff811680820361025657610976611bcf565b9060018060a01b035f5416331415806109ea575b610426576103e8106109db576001600160a01b03169081156107dc576002805461ffff60a01b191660a09290921b61ffff60a01b16919091179055600380546001600160a01b031916919091179055005b63cd4e616760e01b5f5260045ffd5b506002546001600160a01b031633141561098a565b34610256575f366003190112610256576040517f00000000000000000000000000000000000000000000000000000000000000006001600160a01b03168152602090f35b3461025657606036600319011261025657610a5c611bb9565b610a64611bcf565b6044359162ffffff83168303610256575f546001600160a01b031633141580610b77575b610426576001600160a01b038116610b7157507f0000000000000000000000000000000000000000000000000000000000000000905b6001600160a01b038116610b6b57507f0000000000000000000000000000000000000000000000000000000000000000905b6001600160a01b03169081158015610b5a575b6107dc575f8281526005602081815260408084206001600160a01b03959095168452938152838320805462ffffff9790971662ffffff19978816811790915591815283832094835293909352208054909216179055005b506001600160a01b03811615610b03565b90610af0565b90610abe565b506002546001600160a01b0316331415610a88565b346102565761016036600319011261025657610ba736611c97565b610baf611be5565b610bba303314611d47565b610bc48183612cdf565b608060018060a01b0360a0840151169201516040519160018060a01b031682526020820152600160408201525f5160206137365f395f51905f5260606101443592a3005b34610256575f366003190112610256576040517f00000000000000000000000000000000000000000000000000000000000000006001600160a01b03168152602090f35b3461025657604036600319011261025657610c65611bb9565b610c6d611bcf565b9060018060a01b03165f52600560205260405f209060018060a01b03165f52602052602062ffffff60405f205416604051908152f35b3461025657604036600319011261025657610cbc611bb9565b610cc4611bcf565b906001600160a01b03163381141580610e66575b80610e52575b6103a6575f818152600c60205260409020916001600160a01b031680156107dc575f8181526003840160208190526040909120546001600160a01b0316938415610e1f576001600160a01b038581165f9081526002830160205260409020541683145b15610e105760049160018060a01b0386165f526002820160205260405f206001600160601b0360a01b8154169055835f5260205260405f206001600160601b0360a01b8154169055019060018060a01b0382541614610dd6575b506040515f81526001600160a01b03909216917f07efacf833c0332f419c637a012a52fe4647777ec52b15b904c88856048dc94f90602090a3005b80546001600160a01b03191690556040515f81526001600160a01b0383169082905f5160206137165f395f51905f5290602090a382610d9b565b634209c0e360e01b5f5260045ffd5b5f8080526002820160205260409020549094906001600160a01b03168303610e4b57505f936001610d41565b935f610d41565b505f546001600160a01b0316331415610cde565b506002546001600160a01b0316331415610cd8565b34610256576020366003190112610256576004355f52600960205260c060405f2060ff60018060a01b038254169160018060a01b036001820154169060018060a01b03600282015416600460038301549201549260405195865260208601526040850152606084015263ffffffff8116608084015260201c16151560a0820152f35b34610256575f366003190112610256575f546040516001600160a01b039091168152602090f35b34610256576020366003190112610256576004355f526007602052602060ff60405f2054166040519015158152f35b3461025657602036600319011261025657600435610f746001805414611d7f565b6002600155805f52600960205260405f20906003820191825490811561107257600481019182549260ff8460201c166110635782546001600160a01b03163314158061104c575b61103d5760026110349361100e926401000000007f6a2135e02ec806883835dbb59b92ede322c4f615397756ef4d0599c3cb3638549764ff00000000191617905501913360018060a01b038454166129e0565b549354604080516001600160a01b03909616865260208601919091523394918291820190565b0390a360018055005b630ecab8eb60e11b5f5260045ffd5b5060018301546001600160a01b0316331415610fbb565b63075d85e360e01b5f5260045ffd5b637bafa6c960e01b5f5260045ffd5b346102565760203660031901126102565761109a611bb9565b5f546001600160a01b0316331415806110f0575b610426576001600160a01b038116156107dc57600a805465010000000000600160c81b03191660289290921b65010000000000600160c81b0316919091179055005b506002546001600160a01b03163314156110ae565b60c036600319011261025657611119611bb9565b611121611bcf565b60643591906001600160a01b03831683036102565761115d926111476001805414611d7f565b600260015560a435926084359260443591611e18565b60018055005b34610256576020366003190112610256576001600160a01b03611184611bb9565b165f908152600c6020526040902060048101546001600160a01b031690816111c757505f905b604080516001600160a01b03928316815292909116602083015290f35b6001600160a01b038281165f90815260039290920160205260409091205416906111aa565b3461025657604036600319011261025657611205611bb9565b61120d611bcf565b6001600160a01b03909116903382141580611354575b80611340575b6103a6576001600160a01b03169081156107dc57815f52600660205260405f205460ff8116156113315760081c6001600160a01b0316918215611322575f828152600c602090815260408083206001600160a01b0387811680865260028301855283862080546001600160a01b0319908116891790915587875260038401865293909520805490931690941790915560040180547f07efacf833c0332f419c637a012a52fe4647777ec52b15b904c88856048dc94f94929316156112f2575b50604051908152a3005b816001600160601b0360a01b82541617905584845f5160206137165f395f51905f5284604051858152a3856112e8565b63634bb5e960e11b5f5260045ffd5b63ab68eff560e01b5f5260045ffd5b505f546001600160a01b0316331415611229565b506002546001600160a01b0316331415611223565b3461025657604036600319011261025657611382611bb9565b61138a611bcf565b906001600160a01b03163381141580611433575b8061141f575b6103a6576001600160a01b0382165f9081526004602052604090205460ff1615610397575f52600c60205260405f209060018060a01b0381165f526001820160205260ff60405f205416156114105781546001600160a01b0319166001600160a01b0391909116179055005b631a1a638d60e01b5f5260045ffd5b505f546001600160a01b03163314156113a4565b506002546001600160a01b031633141561139e565b3461025657606036600319011261025657611461611d34565b6024356044359167ffffffffffffffff831161025657366023840112156102565782600401359067ffffffffffffffff821161025657602484019082850190366024830111610256576114b76001805414611d7f565b600260015563ffffffff81165f8181526008602090815260408083206001600160a01b038a16845290915290205490959060ff161561177c5760405190602082019263ffffffff60e01b9060e01b1683526024820152848460448301376115306020604483888101438382015203018084520182611c75565b51902092835f52600760205260ff60405f20541661176d57608090845f52600760205260405f20600160ff198254161790551061175e57608090859003126102565761157b90611bfc565b9161158860448501611bfc565b92608461159760648701611bfc565b6001600160a01b0395861696928616959190920135911685156107dc57811561174f57805f52600460205260ff60405f2054161561039757604080516001600160a01b0383168152602081018490529081018590528690869085907f2385c9e581aa6338749593a091fc45991adb2cabe5e070614a388e318f52807090606090a461162584838389896126ee565b156116305760018055005b6040519260c084019380851067ffffffffffffffff86111761173b576040948552868152602080820189815282870185815260608401878152608085019586525f60a086018181528b825260098652908a9020955186546001600160a01b03199081166001600160a01b0392831617885594516001880180548716918316919091179055925160028701805490951690841617909355516003850155935160049093018054915164ffffffffff1990921663ffffffff90941693909317901515821b64ff0000000016179091558451919092168152908101919091527f1eba772d6e32861ac84f6d651181b2bc327724ca4854e984f7f2fa458ae165449190a480808080808061115d565b634e487b7160e01b5f52604160045260245ffd5b631f2a200560e01b5f5260045ffd5b63772496b160e01b5f5260045ffd5b637b04260960e01b5f5260045ffd5b633c7c9f8360e01b5f5260045ffd5b34610256575f366003190112610256576003546040516001600160a01b039091168152602090f35b34610256576020366003190112610256576001600160a01b036117d4611bb9565b165f52600b602052602060018060a01b0360405f205416604051908152f35b346102565760203660031901126102565761180c611d34565b5f546001600160a01b031633141580611843575b6104265764ffffffff00600a549160081b169064ffffffff00191617600a555f80f35b506002546001600160a01b0316331415611820565b34610256575f366003190112610256576002546040516001600160a01b039091168152602090f35b3461025657604036600319011261025657611899611bb9565b6024359081151590818303610256575f546001600160a01b031633141580611916575b610426577fac90355684e2710fa34c2c7d500018678b146ea2d56ddc331c63d242ee8bf3859161190d60209260018060a01b031694855f526004845260405f209060ff801983541691151516179055565b604051908152a2005b506002546001600160a01b03163314156118bc565b34610256575f36600319011261025657602061ffff60025460a01c16604051908152f35b34610256576101803660031901126102565761196a36611c97565b611972611be5565b610144356001600160a01b03811681036102565761199c90611995303314611d47565b82846123a8565b608060018060a01b0360a0840151169201516040519160018060a01b031682526020820152600160408201525f5160206137365f395f51905f5260606101643592a3005b34610256576080366003190112610256576119f9611bb9565b90611a02611bcf565b611a0a611c10565b916064359360018060a01b035f541633141580611ba4575b610426576001600160a01b03169283156107dc5715611b0957506001600160a01b031691821561132257825f52600460205260ff60405f20541615611afa5760407f354f0817e377e1e9b2601a5fa1180df29e96ac246a5d02f817a6e3bb4b72a904918151611a9081611c1f565b6001815260016020820187815284830190848252875f526006602052611ac8865f2094511515859060ff801983541691151516179055565b518354906101008460a81b039060081b16906101008460a81b03191617835551910155815190600182526020820152a3005b634c3347d160e01b5f5260045ffd5b90505f9250611b1781611c1f565b82815260016020820184815260408301908582528486526006602052611b506040872094511515859060ff801983541691151516179055565b518354906101008460a81b039060081b16906101008460a81b031916178355519101557f354f0817e377e1e9b2601a5fa1180df29e96ac246a5d02f817a6e3bb4b72a90460408051848152846020820152a3005b506002546001600160a01b0316331415611a22565b600435906001600160a01b038216820361025657565b602435906001600160a01b038216820361025657565b61012435906001600160a01b038216820361025657565b35906001600160a01b038216820361025657565b60443590811515820361025657565b6060810190811067ffffffffffffffff82111761173b57604052565b610120810190811067ffffffffffffffff82111761173b57604052565b610100810190811067ffffffffffffffff82111761173b57604052565b90601f8019910116810190811067ffffffffffffffff82111761173b57604052565b6101209060031901126102565760405190611cb182611c3b565b816004356001600160a01b03811681036102565781526024356001600160a01b038116810361025657602082015260443560408201526064356060820152608435608082015260a4356001600160a01b03811681036102565760a082015260c43560c082015260e43560e082015261010435908115158203610256576101000152565b6004359063ffffffff8216820361025657565b15611d4e57565b60405162461bcd60e51b815260206004820152600960248201526827b7363c9039b2b63360b91b6044820152606490fd5b15611d8657565b60405162461bcd60e51b815260206004820152600a6024820152695245454e5452414e435960b01b6044820152606490fd5b91908203918211611dc557565b634e487b7160e01b5f52601160045260245ffd5b3d15611e13573d9067ffffffffffffffff821161173b5760405191611e08601f8201601f191660200184611c75565b82523d5f602084013e565b606090565b9490926001600160a01b03169081156107dc574281106122e5576001600160a01b0384169485159384156122df575034925b831561174f5784156122d9575f5b6001600160a01b03165f9081526004602052604090205460ff16156103975784159384612224575b61ffff60025460a01c168082029082820403611dc557612710900490611ea68282611db8565b95826121d3575b600a549060ff82161590816121cb575b50612014575b50825f52600c60205260405f20986040519a611ede8c611c3b565b6001600160a01b03168b5260208b015260408a015260608901526080880193845260a088015260c087015260e08601526101008501829052611f208585612a96565b916001600160a01b0382169081611fbc575b505050505f14611fb757505f5b6001600160a01b03165f90815260018201602052604090205460ff16611fad57546001600160a01b03168015611f9e57805f52600460205260ff60405f20541615611f8f57611f8d91612cdf565b565b633fbb49c960e01b5f5260045ffd5b63555096e560e11b5f5260045ffd5b50611f8d90612c08565b611f3f565b6040915f526006602052815f206001835191611fd783611c1f565b805460ff811615158452828060a01b039060081c16602084015201549283910152511015612006578080611f32565b9250925050611f8d926123a8565b5f8a8152600b60205260409020546001600160a01b03169081151590816121b5575b5015611ec357935050509594929350602091506120548482876135b7565b604051908282019760018060a01b031695868952876040840152606083015260608252612082608083611c75565b600a545f60a4604051809b81968295635853cc1360e11b845263ffffffff8160081c16600485015260018060a01b039060281c1660248401528a6044840152608060648401525180918160848501528484015e8181018301849052601f01601f191681010301925af19485156121aa575f95612154575b50600a54604080516001600160a01b03909316835260208301939093529181019490945260081c63ffffffff16927f42a428e9d6cac8b93fb5138b57dbb1a7aac86d8a8b8ddec567cac4caab9eb0299080606081015b0390a4565b919094506020823d6020116121a2575b8161217160209383611c75565b81010312610256579051937f42a428e9d6cac8b93fb5138b57dbb1a7aac86d8a8b8ddec567cac4caab9eb0296120f9565b3d9150612164565b6040513d5f823e3d90fd5b60281c6001600160a01b0316151590505f612036565b90505f611ebd565b8715612207575f8080808660018060a01b03600354165af16121f3611dd9565b50611ead5763671f7c4960e11b5f5260045ffd5b60035461221f9084906001600160a01b03168c6129e0565b611ead565b30156107dc576040516323b872dd60e01b81526001600160a01b038a166004820152306024820152604481018290526020816064815f8d5af19081156121aa575f916122aa575b50611e805760405162461bcd60e51b81526020600482015260126024820152711514905394d1915497d19493d357d190525360721b6044820152606490fd5b6122cc915060203d6020116122d2575b6122c48183611c75565b8101906129c8565b5f61226b565b503d6122ba565b85611e58565b92611e4a565b631ab7da6b60e01b5f5260045ffd5b6001600160a01b039081165f818152600c6020526040902092909116801561237957805f52600660205260ff60405f20541615611331575f8181526003840160205260409020546001600160a01b0316928315610e105760040180546001600160a01b031916821790556040519081525f5160206137165f395f51905f5290602090a3565b5060045f92016001600160601b0360a01b81541690555f5160206137165f395f51905f526020604051848152a3565b915f9160018060a01b03811691825f52600660205260405f20604051906123ce82611c1f565b8054916040600160ff85161593841584526020840195828060a01b039060081c168652015491015261133157516001600160a01b0316908115611322576001600160a01b0316810361267757805f52600460205260ff60405f20541615611afa576124398186613054565b60a0860180516040516370a0823160e01b81526001600160a01b03909116600482015290949190602081602481865afa9081156121aa575f91612645575b50612482858561350a565b61248d8286866135b7565b85516001600160a01b0316833b156102565760405163d699618560e01b81526001600160a01b03919091166004820152602481018390525f8160448183885af180156121aa57612630575b506124e3858561350a565b85516040516370a0823160e01b81526001600160a01b03909116600482015290602082602481875afa80156126255788906125f1575b6125239250611db8565b9586156125e25760c088015187106125d45750905f5160206136f65f395f51905f529392917f8f7a6fecbaab1e04e31f80b9da6e08d7f55f854f660a910ddc7cce65036babd5604060018060a01b03885116928151908152896020820152a4845192516020808701516040808901516060998a01518251918252938101939093526001600160a01b039485169083015296810195909552426080860152948116948116939216918060a0810161214f565b6250c9b760e01b8152600490fd5b63360fef3560e01b8152600490fd5b506020823d60201161261d575b8161260b60209383611c75565b81010312610256576125239151612519565b3d91506125fe565b6040513d8a823e3d90fd5b61263d9197505f90611c75565b5f955f6124d8565b90506020813d60201161266f575b8161266060209383611c75565b8101031261025657515f612477565b3d9150612653565b632693f30360e11b5f5260045ffd5b80516001600160a01b03908116835260208083015182169084015260408083015190840152606080830151908401526080808301519084015260a0808301519091169083015260c0808201519083015260e08082015190830152610100908101511515910152565b6001600160a01b0382165f818152600c6020526040812042610e1081019893979295929491908910611dc5576040519161272783611c3b565b60018060a01b03169687835260018060a01b0316988960208401528560408401525f606084015260808301908682528960a08501525f60c085015260e08401525f6101008401526127788383612a96565b6001600160a01b0390911691826128fe575b505050885f526001810160205260ff60405f2054166128ae57546001600160a01b031680151580612898575b61282257505091855f5160206136f65f395f51905f5294926127db8360a0968b6129e0565b5f5160206137365f395f51905f5260606040518b815285602082015260016040820152a36040519181835260208301528660408301526060820152426080820152a4600190565b949750955050925050303b156128945760405163161c182560e31b81529261284e906004850190612686565b6101248301526101448201528180826101648183305af1918261287b575b50506128755790565b50600190565b8161288591611c75565b61289057815f61286c565b5080fd5b8380fd5b50808652600460205260ff6040872054166127b6565b509550509250509250303b156128fa576040516376143a8360e11b8152916128da906004840190612686565b6101248201528180826101448183305af1918261287b5750506128755790565b8280fd5b604090835f526006602052815f20600183519161291a83611c1f565b805460ff811615158452828060a01b039060081c16602084015201549283910152511015612949575b8061278a565b303b15610256576040516302d16c7b60e31b81529161296b6004840186612686565b6101248301526001600160a01b031661014482015261016481018590525f816101848183305af190816129b3575b506129a5575f80612943565b505050505050505050600190565b6129c09197505f90611c75565b5f955f612999565b90816020910312610256575180151581036102565790565b916001600160a01b038216156107dc5760405163a9059cbb60e01b81526001600160a01b0390921660048301526024820152906020908290815f816044810103926001600160a01b03165af19081156121aa575f91612a77575b5015612a4257565b60405162461bcd60e51b815260206004820152600d60248201526c1514905394d1915497d1905253609a1b6044820152606490fd5b612a90915060203d6020116122d2576122c48183611c75565b5f612a3a565b6101008201519092919015612bf657505f5b6001600160a01b03811615612b72576001600160a01b038181165f90815260028501602052604090205416612adc81613618565b612b6d5750505b60048201546001600160a01b0316612afa81613618565b612b4a575081546001600160a01b03169182612b19575b505f91508190565b6001600160a01b038381165f90815260029290920160205260409091205416612b4181613618565b15612b11579190565b6001600160a01b038082165f908152600390940160205260409093205490921690565b925090565b505f8080526002830160208190526040909120546001600160a01b0316612b9881613618565b612bee57506001600160a01b037f00000000000000000000000000000000000000000000000000000000000000008181165f90815260209390935260409092205416612be381613618565b612b6d575050612ae3565b92505f919050565b602001516001600160a01b0316612aa8565b61010081015115612cb3575f80808060018060a01b0360a0860151166080860151905af1612c34611dd9565b5015612ca4575b805160a0828101516020808501516040808701516060808901516080998a01518451938452958301526001600160a01b03938416928201839052810193909352429683019690965291821693909116915f5160206136f65f395f51905f5291908190810161214f565b632b3b0c0960e11b5f5260045ffd5b602081015160a08201516080830151612cda9290916001600160a01b0390811691166129e0565b612c3b565b906101008201511515805f14613041575f5b608084015160c085015160a086019360018060a01b0385511691612d1960e0890151956136c2565b94612d23886136c2565b9560018060a01b031693845f52600560205260405f2060018060a01b0388165f5260205262ffffff60405f205416801561303257604051630b4c774160e11b8152600481018790526001600160a01b03988916602482018190526044820183905298602090829060649082907f0000000000000000000000000000000000000000000000000000000000000000165afa9081156121aa575f91612ff0575b506001600160a01b031615612fe25760405197612ddd89611c58565b86895260208901526040880152606087015260808601528360a086015260c08501525f60e08501525f14612f0c5750612e2e91602091604051808095819463414bf38960e01b835260048301613659565b03917f00000000000000000000000000000000000000000000000000000000000000006001600160a01b03165af180156121aa575f90612ecd575b5f5160206136f65f395f51905f529150925b845192516020808701516040808901516060998a01518251918252938101939093526001600160a01b039485169083015296810195909552426080860152948116948116939216918060a0810161214f565b506020813d602011612f04575b81612ee760209383611c75565b81010312610256575f5160206136f65f395f51905f529051612e69565b3d9150612eda565b937f00000000000000000000000000000000000000000000000000000000000000006001600160a01b0316929091612f7091602091612f5690612f4f878a61350a565b86896135b7565b6040518093819263414bf38960e01b835260048301613659565b03815f875af19081156121aa575f91612fa3575b505f5160206136f65f395f51905f5292612f9e919561350a565b612e7b565b90506020813d602011612fda575b81612fbe60209383611c75565b8101031261025657515f5160206136f65f395f51905f52612f84565b3d9150612fb1565b6231a7b960e41b5f5260045ffd5b90506020813d60201161302a575b8161300b60209383611c75565b8101031261025657516001600160a01b0381168103610256575f612dc1565b3d9150612ffe565b630db08e3d60e01b5f5260045ffd5b60208301516001600160a01b0316612cf1565b5f9061010081015161329d5760208101516001600160a01b039081169390811684146132925761309661309060e06080850151940151956136c2565b916136c2565b9060018060a01b03169384845260056020526040842060018060a01b0383165f5260205262ffffff60405f205416801561328357604051630b4c774160e11b8152600481018790526001600160a01b03938416602482018190526044820183905293602090829060649082907f0000000000000000000000000000000000000000000000000000000000000000165afa908115613278578691613232575b506001600160a01b03161561322457916020916131bf936040519261315884611c58565b88845284840152604083015230606083015260808201528360a08201528460c08201528460e0820152612f5660018060a01b037f000000000000000000000000000000000000000000000000000000000000000016946131b8868961350a565b85886135b7565b038186865af192831561321857926131e2575b5081926131df925061350a565b90565b91506020823d602011613210575b816131fd60209383611c75565b81010312610256576131df9151916131d2565b3d91506131f0565b604051903d90823e3d90fd5b6231a7b960e41b8552600485fd5b90506020813d602011613270575b8161324d60209383611c75565b8101031261326c57516001600160a01b038116810361326c575f613134565b8580fd5b3d9150613240565b6040513d88823e3d90fd5b630db08e3d60e01b8552600485fd5b506080015192915050565b90917f00000000000000000000000000000000000000000000000000000000000000006001600160a01b03818116939290811684146134c4576132eb9060e0608085015194015192506136c2565b83855260056020526040852060018060a01b0382165f5260205262ffffff60405f2054169081156134b557604051630b4c774160e11b8152600481018690526001600160a01b03918216602482018190526044820184905291602090829060649082907f0000000000000000000000000000000000000000000000000000000000000000165afa9081156134aa578791613464575b506001600160a01b0316156134565791602093916133e99593604051946133a686611c58565b855285850152604084015230606084015260808301528060a08301528460c08301528460e0830152604051808095819463414bf38960e01b835260048301613659565b03917f00000000000000000000000000000000000000000000000000000000000000006001600160a01b03165af19182156132185791613427575090565b90506020813d60201161344e575b8161344260209383611c75565b81010312610256575190565b3d9150613435565b6231a7b960e41b8652600486fd5b90506020813d6020116134a2575b8161347f60209383611c75565b8101031261349e57516001600160a01b038116810361349e575f613380565b8680fd5b3d9150613472565b6040513d89823e3d90fd5b630db08e3d60e01b8652600486fd5b5050608001805190925090803b15610256575f90600460405180948193630d0e30db60e41b83525af180156121aa576134fc57505190565b5f61350691611c75565b5190565b906001600160a01b031680156107dc5760405163095ea7b360e01b815260048101919091525f602482018190529091602091839160449183916001600160a01b03165af19081156121aa575f91613598575b501561356457565b60405162461bcd60e51b815260206004820152600c60248201526b1054141493d59157d190525360a21b6044820152606490fd5b6135b1915060203d6020116122d2576122c48183611c75565b5f61355c565b916001600160a01b038216156107dc5760405163095ea7b360e01b81526001600160a01b0390921660048301526024820152906020908290815f816044810103926001600160a01b03165af19081156121aa575f9161359857501561356457565b6001600160a01b03168015613654575f52600660205260405f205460ff81169081613641575090565b60081c6001600160a01b03161515919050565b505f90565b81516001600160a01b03908116825260208084015182169083015260408084015162ffffff16908301526060808401518216908301526080808401519083015260a0808401519083015260c0808401519083015260e09283015116918101919091526101000190565b6001600160a01b0381166131df57507f00000000000000000000000000000000000000000000000000000000000000009056fe49735f6dfce36092e4e60b47019be07f553ede2d89c84c80a84ad06883a2477752ce92b576c9e725f458101a8593fe331d4d2964c77a20f2b608b39cd95cf7890b84237232bded30e1bbcacdfefe53e938b8581b540301f72506f32b3af37c88a264697066735822122085028a97fbc444797bdce0d695874e3bf38f57b25e9b79ee8f7895d35db2f28d64736f6c634300081e003300000000000000000000000094cc0aac535ccdb3c01d6787d6413c739ae12bc40000000000000000000000001234b50310ff79958509d1a9c8a92458ed1496d100000000000000000000000000000000000000000000000000000000000000fa000000000000000000000000123454ce54debe2cebce95740e9e0f65dff9dbe2",
        "nonce": "0xbf13",
        "chainId": "0x14a34"
      },
      "additionalContracts": [],
      "isFixedGasLimit": false
    },
    {
      "hash": "0x0d0bf5837d8f3b06fbfc51023e9123dbf9fb7045285cf98e25da516593f80fa8",
      "transactionType": "CALL",
      "contractName": "KubiStreamerDonation",
      "contractAddress": "0xbe7f8973094b3095615f127ea621fc6d60a7e723",
      "function": "setGlobalWhitelist(address,bool)",
      "arguments": [
        "0x57b78b98b9Dd06E06DE145b83aeDf6F04E4C5500",
        "true"
      ],
      "transaction": {
        "from": "0x1234562eb0cd65e7d08e59f9f18d7c10b5df232a",
        "to": "0xbe7f8973094b3095615f127ea621fc6d60a7e723",
        "gas": "0x1013c",
        "value": "0x0",
        "input": "0x25d86ced00000000000000000000000057b78b98b9dd06e06de145b83aedf6f04e4c55000000000000000000000000000000000000000000000000000000000000000001",
        "nonce": "0xbf14",
        "chainId": "0x14a34"
      },
      "additionalContracts": [],
      "isFixedGasLimit": false
    },
    {
      "hash": "0x02705cad554bc0904bd96c98073d5f5cd3978061bdaa2b70624740382b909a75",
      "transactionType": "CALL",
      "contractName": "KubiStreamerDonation",
      "contractAddress": "0xbe7f8973094b3095615f127ea621fc6d60a7e723",
      "function": "setGlobalWhitelist(address,bool)",
      "arguments": [
        "0x1fE9A4E25cAA2a22FC0B61010fDB0DB462FB5b29",
        "true"
      ],
      "transaction": {
        "from": "0x1234562eb0cd65e7d08e59f9f18d7c10b5df232a",
        "to": "0xbe7f8973094b3095615f127ea621fc6d60a7e723",
        "gas": "0x11071",
        "value": "0x0",
        "input": "0x25d86ced0000000000000000000000001fe9a4e25caa2a22fc0b61010fdb0db462fb5b290000000000000000000000000000000000000000000000000000000000000001",
        "nonce": "0xbf15",
        "chainId": "0x14a34"
      },
      "additionalContracts": [],
      "isFixedGasLimit": false
    },
    {
      "hash": "0xafae82f80e3b869fcd77b151ffe5eb7da470d1d9a24ca64e4dfc6a62aabb3c78",
      "transactionType": "CALL",
      "contractName": "KubiStreamerDonation",
      "contractAddress": "0xbe7f8973094b3095615f127ea621fc6d60a7e723",
      "function": "setGlobalWhitelist(address,bool)",
      "arguments": [
        "0x5e1E8043381F3A21a1A64f46073daF7E74fEdC1E",
        "true"
      ],
      "transaction": {
        "from": "0x1234562eb0cd65e7d08e59f9f18d7c10b5df232a",
        "to": "0xbe7f8973094b3095615f127ea621fc6d60a7e723",
        "gas": "0x11071",
        "value": "0x0",
        "input": "0x25d86ced0000000000000000000000005e1e8043381f3a21a1a64f46073daf7e74fedc1e0000000000000000000000000000000000000000000000000000000000000001",
        "nonce": "0xbf16",
        "chainId": "0x14a34"
      },
      "additionalContracts": [],
      "isFixedGasLimit": false
    },
    {
      "hash": "0xc5cc02d7c4a5702d701f29c5d40b46a37f4be799c25cf930e3398f2ce07971d5",
      "transactionType": "CALL",
      "contractName": "KubiStreamerDonation",
      "contractAddress": "0xbe7f8973094b3095615f127ea621fc6d60a7e723",
      "function": "setGlobalWhitelist(address,bool)",
      "arguments": [
        "0x06C1e044D5BEb614faA6128001F519e6c693a044",
        "true"
      ],
      "transaction": {
        "from": "0x1234562eb0cd65e7d08e59f9f18d7c10b5df232a",
        "to": "0xbe7f8973094b3095615f127ea621fc6d60a7e723",
        "gas": "0x11071",
        "value": "0x0",
        "input": "0x25d86ced00000000000000000000000006c1e044d5beb614faa6128001f519e6c693a0440000000000000000000000000000000000000000000000000000000000000001",
        "nonce": "0xbf17",
        "chainId": "0x14a34"
      },
      "additionalContracts": [],
      "isFixedGasLimit": false
    },
    {
      "hash": "0x4ea826dd4d73a06b851369b4c886a43f976d9b94156ecb3778c5298fa93dfdc7",
      "transactionType": "CALL",
      "contractName": "KubiStreamerDonation",
      "contractAddress": "0xbe7f8973094b3095615f127ea621fc6d60a7e723",
      "function": "setGlobalWhitelist(address,bool)",
      "arguments": [
        "0x85B8Dc34C7Af35baC8a45CfF53353f39E6F732A2",
        "true"
      ],
      "transaction": {
        "from": "0x1234562eb0cd65e7d08e59f9f18d7c10b5df232a",
        "to": "0xbe7f8973094b3095615f127ea621fc6d60a7e723",
        "gas": "0x11071",
        "value": "0x0",
        "input": "0x25d86ced00000000000000000000000085b8dc34c7af35bac8a45cff53353f39e6f732a20000000000000000000000000000000000000000000000000000000000000001",
        "nonce": "0xbf18",
        "chainId": "0x14a34"
      },
      "additionalContracts": [],
      "isFixedGasLimit": false
    },
    {
      "hash": "0x3c044fe0b42cd46007ee63da8426748de67e8cf575bc12563b0522ce7b91d1f5",
      "transactionType": "CALL",
      "contractName": "KubiStreamerDonation",
      "contractAddress": "0xbe7f8973094b3095615f127ea621fc6d60a7e723",
      "function": "setGlobalWhitelist(address,bool)",
      "arguments": [
        "0x7392e9E58f202Da3877776c41683AC457DFd4CD7",
        "true"
      ],
      "transaction": {
        "from": "0x1234562eb0cd65e7d08e59f9f18d7c10b5df232a",
        "to": "0xbe7f8973094b3095615f127ea621fc6d60a7e723",
        "gas": "0x11071",
        "value": "0x0",
        "input": "0x25d86ced0000000000000000000000007392e9e58f202da3877776c41683ac457dfd4cd70000000000000000000000000000000000000000000000000000000000000001",
        "nonce": "0xbf19",
        "chainId": "0x14a34"
      },
      "additionalContracts": [],
      "isFixedGasLimit": false
    },
    {
      "hash": "0x4b8d332356e119d13660dac506c7cbd5a422d70822322806d427d140b062e37e",
      "transactionType": "CALL",
      "contractName": "KubiStreamerDonation",
      "contractAddress": "0xbe7f8973094b3095615f127ea621fc6d60a7e723",
      "function": "setGlobalWhitelist(address,bool)",
      "arguments": [
        "0xB03a4Cf6EB030BbABd0452300b01C7DCb9584737",
        "true"
      ],
      "transaction": {
        "from": "0x1234562eb0cd65e7d08e59f9f18d7c10b5df232a",
        "to": "0xbe7f8973094b3095615f127ea621fc6d60a7e723",
        "gas": "0x11071",
        "value": "0x0",
        "input": "0x25d86ced000000000000000000000000b03a4cf6eb030bbabd0452300b01c7dcb95847370000000000000000000000000000000000000000000000000000000000000001",
        "nonce": "0xbf1a",
        "chainId": "0x14a34"
      },
      "additionalContracts": [],
      "isFixedGasLimit": false
    },
    {
      "hash": "0x412653543af354229b50e6169c82cf7fc8178a4d915ec346c32de0d7eb9235cf",
      "transactionType": "CALL",
      "contractName": "KubiStreamerDonation",
      "contractAddress": "0xbe7f8973094b3095615f127ea621fc6d60a7e723",
      "function": "setGlobalWhitelist(address,bool)",
      "arguments": [
        "0x2ffc2F655A26A4def63EFCD59930d1241EE0519a",
        "true"
      ],
      "transaction": {
        "from": "0x1234562eb0cd65e7d08e59f9f18d7c10b5df232a",
        "to": "0xbe7f8973094b3095615f127ea621fc6d60a7e723",
        "gas": "0x11071",
        "value": "0x0",
        "input": "0x25d86ced0000000000000000000000002ffc2f655a26a4def63efcd59930d1241ee0519a0000000000000000000000000000000000000000000000000000000000000001",
        "nonce": "0xbf1b",
        "chainId": "0x14a34"
      },
      "additionalContracts": [],
      "isFixedGasLimit": false
    },
    {
      "hash": "0x53d9c744dfc1dfabc56537f568c60c14f16f076ad6e3fdce06ad368d613118f2",
      "transactionType": "CALL",
      "contractName": "KubiStreamerDonation",
      "contractAddress": "0xbe7f8973094b3095615f127ea621fc6d60a7e723",
      "function": "setGlobalWhitelist(address,bool)",
      "arguments": [
        "0x14ac27F376b03b6C05F2189c4f03febB5d76432A",
        "true"
      ],
      "transaction": {
        "from": "0x1234562eb0cd65e7d08e59f9f18d7c10b5df232a",
        "to": "0xbe7f8973094b3095615f127ea621fc6d60a7e723",
        "gas": "0x11071",
        "value": "0x0",
        "input": "0x25d86ced00000000000000000000000014ac27f376b03b6c05f2189c4f03febb5d76432a0000000000000000000000000000000000000000000000000000000000000001",
        "nonce": "0xbf1c",
        "chainId": "0x14a34"
      },
      "additionalContracts": [],
      "isFixedGasLimit": false
    },
    {
      "hash": "0x3864041dc0d32a498aa2a8a1d3d0c623a53445ab86fc5ee1948e7102cc4c9c70",
      "transactionType": "CALL",
      "contractName": "KubiStreamerDonation",
      "contractAddress": "0xbe7f8973094b3095615f127ea621fc6d60a7e723",
      "function": "setGlobalWhitelist(address,bool)",
      "arguments": [
        "0xdac9107491b3c59A97d7f45CEfC97353f6aB46b2",
        "true"
      ],
      "transaction": {
        "from": "0x1234562eb0cd65e7d08e59f9f18d7c10b5df232a",
        "to": "0xbe7f8973094b3095615f127ea621fc6d60a7e723",
        "gas": "0x11071",
        "value": "0x0",
        "input": "0x25d86ced000000000000000000000000dac9107491b3c59a97d7f45cefc97353f6ab46b20000000000000000000000000000000000000000000000000000000000000001",
        "nonce": "0xbf1d",
        "chainId": "0x14a34"
      },
      "additionalContracts": [],
      "isFixedGasLimit": false
    },
    {
      "hash": "0xd9a3d2cc791f1415bd2914a271a18a408f0e9e3ab19625aaa0538574cfdaeba2",
      "transactionType": "CALL",
      "contractName": "KubiStreamerDonation",
      "contractAddress": "0xbe7f8973094b3095615f127ea621fc6d60a7e723",
      "function": "setGlobalWhitelist(address,bool)",
      "arguments": [
        "0x9b94108165eF58C9736F2C34B09e3b5b62cF5218",
        "true"
      ],
      "transaction": {
        "from": "0x1234562eb0cd65e7d08e59f9f18d7c10b5df232a",
        "to": "0xbe7f8973094b3095615f127ea621fc6d60a7e723",
        "gas": "0x11071",
        "value": "0x0",
        "input": "0x25d86ced0000000000000000000000009b94108165ef58c9736f2c34b09e3b5b62cf52180000000000000000000000000000000000000000000000000000000000000001",
        "nonce": "0xbf1e",
        "chainId": "0x14a34"
      },
      "additionalContracts": [],
      "isFixedGasLimit": false
    },
    {
      "hash": "0x6ec46d1b477555c19428eff81fc02f1fbaea9d20ece8b5dbe99027c3dc3a763f",
      "transactionType": "CALL",
      "contractName": "KubiStreamerDonation",
      "contractAddress": "0xbe7f8973094b3095615f127ea621fc6d60a7e723",
      "function": "setPoolFee(address,address,uint24)",
      "arguments": [
        "0x57b78b98b9Dd06E06DE145b83aeDf6F04E4C5500",
        "0x1fE9A4E25cAA2a22FC0B61010fDB0DB462FB5b29",
        "3000"
      ],
      "transaction": {
        "from": "0x1234562eb0cd65e7d08e59f9f18d7c10b5df232a",
        "to": "0xbe7f8973094b3095615f127ea621fc6d60a7e723",
        "gas": "0x18ddc",
        "value": "0x0",
        "input": "0xb45faa7600000000000000000000000057b78b98b9dd06e06de145b83aedf6f04e4c55000000000000000000000000001fe9a4e25caa2a22fc0b61010fdb0db462fb5b290000000000000000000000000000000000000000000000000000000000000bb8",
        "nonce": "0xbf1f",
        "chainId": "0x14a34"
      },
      "additionalContracts": [],
      "isFixedGasLimit": false
    },
    {
      "hash": "0xd6a65094900a2f96b2e232689b2867fcb4c49881f8a243accc278e672e9147de",
      "transactionType": "CALL",
      "contractName": "KubiStreamerDonation",
      "contractAddress": "0xbe7f8973094b3095615f127ea621fc6d60a7e723",
      "function": "setPoolFee(address,address,uint24)",
      "arguments": [
        "0x57b78b98b9Dd06E06DE145b83aeDf6F04E4C5500",
        "0x5e1E8043381F3A21a1A64f46073daF7E74fEdC1E",
        "3000"
      ],
      "transaction": {
        "from": "0x1234562eb0cd65e7d08e59f9f18d7c10b5df232a",
        "to": "0xbe7f8973094b3095615f127ea621fc6d60a7e723",
        "gas": "0x18ddc",
        "value": "0x0",
        "input": "0xb45faa7600000000000000000000000057b78b98b9dd06e06de145b83aedf6f04e4c55000000000000000000000000005e1e8043381f3a21a1a64f46073daf7e74fedc1e0000000000000000000000000000000000000000000000000000000000000bb8",
        "nonce": "0xbf20",
        "chainId": "0x14a34"
      },
      "additionalContracts": [],
      "isFixedGasLimit": false
    },
    {
      "hash": "0x33063d3291dbc47de2fbf9283669f015d563b728836db8d121ca54acf33a7592",
      "transactionType": "CALL",
      "contractName": "KubiStreamerDonation",
      "contractAddress": "0xbe7f8973094b3095615f127ea621fc6d60a7e723",
      "function": "setYieldConfig(address,address,bool,uint256)",
      "arguments": [
        "0xAee2A87701aFEF956473d547bD02cD736729D8a7",
        "0x1fE9A4E25cAA2a22FC0B61010fDB0DB462FB5b29",
        "true",
        "0"
      ],
      "transaction": {
        "from": "0x1234562eb0cd65e7d08e59f9f18d7c10b5df232a",
        "to": "0xbe7f8973094b3095615f127ea621fc6d60a7e723",
        "gas": "0x12215",
        "value": "0x0",
        "input": "0x0c495f96000000000000000000000000aee2a87701afef956473d547bd02cd736729d8a70000000000000000000000001fe9a4e25caa2a22fc0b61010fdb0db462fb5b2900000000000000000000000000000000000000000000000000000000000000010000000000000000000000000000000000000000000000000000000000000000",
        "nonce": "0xbf21",
        "chainId": "0x14a34"
      },
      "additionalContracts": [],
      "isFixedGasLimit": false
    },
    {
      "hash": "0x0ad12630d34133cc94c80739d86fadf0a93b585c756c5d8b627c3bff76b16fc5",
      "transactionType": "CALL",
      "contractName": "KubiStreamerDonation",
      "contractAddress": "0xbe7f8973094b3095615f127ea621fc6d60a7e723",
      "function": "setYieldConfig(address,address,bool,uint256)",
      "arguments": [
        "0x6aaBE7258f09474e62E8BebB1cf90E15fbAAF777",
        "0x5e1E8043381F3A21a1A64f46073daF7E74fEdC1E",
        "true",
        "0"
      ],
      "transaction": {
        "from": "0x1234562eb0cd65e7d08e59f9f18d7c10b5df232a",
        "to": "0xbe7f8973094b3095615f127ea621fc6d60a7e723",
        "gas": "0x12215",
        "value": "0x0",
        "input": "0x0c495f960000000000000000000000006aabe7258f09474e62e8bebb1cf90e15fbaaf7770000000000000000000000005e1e8043381f3a21a1a64f46073daf7e74fedc1e00000000000000000000000000000000000000000000000000000000000000010000000000000000000000000000000000000000000000000000000000000000",
        "nonce": "0xbf22",
        "chainId": "0x14a34"
      },
      "additionalContracts": [],
      "isFixedGasLimit": false
    },
    {
      "hash": "0x7a0a9b51e7dd803d95e6dfd715b58f2688efadd89941a011059505b69ddc3a4b",
      "transactionType": "CALL",
      "contractName": "KubiStreamerDonation",
      "contractAddress": "0xbe7f8973094b3095615f127ea621fc6d60a7e723",
      "function": "setYieldConfig(address,address,bool,uint256)",
      "arguments": [
        "0x5C70fB2a739e9e7Ad5c4311ABF99E0fB65c07eE9",
        "0x06C1e044D5BEb614faA6128001F519e6c693a044",
        "true",
        "0"
      ],
      "transaction": {
        "from": "0x1234562eb0cd65e7d08e59f9f18d7c10b5df232a",
        "to": "0xbe7f8973094b3095615f127ea621fc6d60a7e723",
        "gas": "0x12215",
        "value": "0x0",
        "input": "0x0c495f960000000000000000000000005c70fb2a739e9e7ad5c4311abf99e0fb65c07ee900000000000000000000000006c1e044d5beb614faa6128001f519e6c693a04400000000000000000000000000000000000000000000000000000000000000010000000000000000000000000000000000000000000000000000000000000000",
        "nonce": "0xbf23",
        "chainId": "0x14a34"
      },
      "additionalContracts": [],
      "isFixedGasLimit": false
    },
    {
      "hash": "0x857cec96174a1ac5ecd4a21196a031f4366f98b176ebd09d0520d329dba6abe7",
      "transactionType": "CALL",
      "contractName": "KubiStreamerDonation",
      "contractAddress": "0xbe7f8973094b3095615f127ea621fc6d60a7e723",
      "function": "setYieldConfig(address,address,bool,uint256)",
      "arguments": [
        "0xbB6Dd87f1fe0483d9FFA90f7A163Caf21F40BA6c",
        "0x85B8Dc34C7Af35baC8a45CfF53353f39E6F732A2",
        "true",
        "0"
      ],
      "transaction": {
        "from": "0x1234562eb0cd65e7d08e59f9f18d7c10b5df232a",
        "to": "0xbe7f8973094b3095615f127ea621fc6d60a7e723",
        "gas": "0x12215",
        "value": "0x0",
        "input": "0x0c495f96000000000000000000000000bb6dd87f1fe0483d9ffa90f7a163caf21f40ba6c00000000000000000000000085b8dc34c7af35bac8a45cff53353f39e6f732a200000000000000000000000000000000000000000000000000000000000000010000000000000000000000000000000000000000000000000000000000000000",
        "nonce": "0xbf24",
        "chainId": "0x14a34"
      },
      "additionalContracts": [],
      "isFixedGasLimit": false
    },
    {
      "hash": "0x1c09545c3afbdea34e4c0b17b40bcd88579deec0be7b76c553a88e62cb557934",
      "transactionType": "CALL",
      "contractName": "KubiStreamerDonation",
      "contractAddress": "0xbe7f8973094b3095615f127ea621fc6d60a7e723",
      "function": "setYieldConfig(address,address,bool,uint256)",
      "arguments": [
        "0xcE74630446990AcF6Cd56facBbd6EE908eE55562",
        "0x7392e9E58f202Da3877776c41683AC457DFd4CD7",
        "true",
        "0"
      ],
      "transaction": {
        "from": "0x1234562eb0cd65e7d08e59f9f18d7c10b5df232a",
        "to": "0xbe7f8973094b3095615f127ea621fc6d60a7e723",
        "gas": "0x12215",
        "value": "0x0",
        "input": "0x0c495f96000000000000000000000000ce74630446990acf6cd56facbbd6ee908ee555620000000000000000000000007392e9e58f202da3877776c41683ac457dfd4cd700000000000000000000000000000000000000000000000000000000000000010000000000000000000000000000000000000000000000000000000000000000",
        "nonce": "0xbf25",
        "chainId": "0x14a34"
      },
      "additionalContracts": [],
      "isFixedGasLimit": false
    },
    {
      "hash": "0x3cfbed01cb1a995ab0084259b72fd4d70023b00430efe0430f36429044e68d51",
      "transactionType": "CALL",
      "contractName": "KubiStreamerDonation",
      "contractAddress": "0xbe7f8973094b3095615f127ea621fc6d60a7e723",
      "function": "setYieldConfig(address,address,bool,uint256)",
      "arguments": [
        "0xdCC41dee829C1246a936dC5E801cB24303445651",
        "0x1fE9A4E25cAA2a22FC0B61010fDB0DB462FB5b29",
        "true",
        "0"
      ],
      "transaction": {
        "from": "0x1234562eb0cd65e7d08e59f9f18d7c10b5df232a",
        "to": "0xbe7f8973094b3095615f127ea621fc6d60a7e723",
        "gas": "0x12215",
        "value": "0x0",
        "input": "0x0c495f96000000000000000000000000dcc41dee829c1246a936dc5e801cb243034456510000000000000000000000001fe9a4e25caa2a22fc0b61010fdb0db462fb5b2900000000000000000000000000000000000000000000000000000000000000010000000000000000000000000000000000000000000000000000000000000000",
        "nonce": "0xbf26",
        "chainId": "0x14a34"
      },
      "additionalContracts": [],
      "isFixedGasLimit": false
    },
    {
      "hash": "0x74224eff53dcfffd3d1b9bfcef6cf05cc1a99cf5be1834cb81b0e3e41293a7bd",
      "transactionType": "CALL",
      "contractName": "KubiStreamerDonation",
      "contractAddress": "0xbe7f8973094b3095615f127ea621fc6d60a7e723",
      "function": "setYieldConfig(address,address,bool,uint256)",
      "arguments": [
        "0x8f5816ca88ED2775305b154625744E36943Cc750",
        "0x5e1E8043381F3A21a1A64f46073daF7E74fEdC1E",
        "true",
        "0"
      ],
      "transaction": {
        "from": "0x1234562eb0cd65e7d08e59f9f18d7c10b5df232a",
        "to": "0xbe7f8973094b3095615f127ea621fc6d60a7e723",
        "gas": "0x12215",
        "value": "0x0",
        "input": "0x0c495f960000000000000000000000008f5816ca88ed2775305b154625744e36943cc7500000000000000000000000005e1e8043381f3a21a1a64f46073daf7e74fedc1e00000000000000000000000000000000000000000000000000000000000000010000000000000000000000000000000000000000000000000000000000000000",
        "nonce": "0xbf27",
        "chainId": "0x14a34"
      },
      "additionalContracts": [],
      "isFixedGasLimit": false
    },
    {
      "hash": "0xacc6738afc3c56ed8e0dbc11fd5cd09379df60fa532988e92d0d9bc7d059d391",
      "transactionType": "CALL",
      "contractName": "KubiStreamerDonation",
      "contractAddress": "0xbe7f8973094b3095615f127ea621fc6d60a7e723",
      "function": "setYieldConfig(address,address,bool,uint256)",
      "arguments": [
        "0x2BB55f68fb05De13B04e5a2cadbAE5A05bCE277B",
        "0x06C1e044D5BEb614faA6128001F519e6c693a044",
        "true",
        "0"
      ],
      "transaction": {
        "from": "0x1234562eb0cd65e7d08e59f9f18d7c10b5df232a",
        "to": "0xbe7f8973094b3095615f127ea621fc6d60a7e723",
        "gas": "0x12215",
        "value": "0x0",
        "input": "0x0c495f960000000000000000000000002bb55f68fb05de13b04e5a2cadbae5a05bce277b00000000000000000000000006c1e044d5beb614faa6128001f519e6c693a04400000000000000000000000000000000000000000000000000000000000000010000000000000000000000000000000000000000000000000000000000000000",
        "nonce": "0xbf28",
        "chainId": "0x14a34"
      },
      "additionalContracts": [],
      "isFixedGasLimit": false
    },
    {
      "hash": "0x58b72d3554c97ff75aaef3cdd962a66e0f71c2efd23dc7da1395db48ec0ffe85",
      "transactionType": "CALL",
      "contractName": "KubiStreamerDonation",
      "contractAddress": "0xbe7f8973094b3095615f127ea621fc6d60a7e723",
      "function": "setYieldConfig(address,address,bool,uint256)",
      "arguments": [
        "0xa022FD1966577144fCb5Ed8aD5a134861aE5e138",
        "0x85B8Dc34C7Af35baC8a45CfF53353f39E6F732A2",
        "true",
        "0"
      ],
      "transaction": {
        "from": "0x1234562eb0cd65e7d08e59f9f18d7c10b5df232a",
        "to": "0xbe7f8973094b3095615f127ea621fc6d60a7e723",
        "gas": "0x12215",
        "value": "0x0",
        "input": "0x0c495f96000000000000000000000000a022fd1966577144fcb5ed8ad5a134861ae5e13800000000000000000000000085b8dc34c7af35bac8a45cff53353f39e6f732a200000000000000000000000000000000000000000000000000000000000000010000000000000000000000000000000000000000000000000000000000000000",
        "nonce": "0xbf29",
        "chainId": "0x14a34"
      },
      "additionalContracts": [],
      "isFixedGasLimit": false
    },
    {
      "hash": "0x97b11c005c287166cfd7d272afb9b2019f65c35b3824d4ac476d194aa35ac461",
      "transactionType": "CALL",
      "contractName": "KubiStreamerDonation",
      "contractAddress": "0xbe7f8973094b3095615f127ea621fc6d60a7e723",
      "function": "setYieldConfig(address,address,bool,uint256)",
      "arguments": [
        "0xEC4c46F46191d77C3D8Ba3ddFafe71b58E2089Af",
        "0x7392e9E58f202Da3877776c41683AC457DFd4CD7",
        "true",
        "0"
      ],
      "transaction": {
        "from": "0x1234562eb0cd65e7d08e59f9f18d7c10b5df232a",
        "to": "0xbe7f8973094b3095615f127ea621fc6d60a7e723",
        "gas": "0x12215",
        "value": "0x0",
        "input": "0x0c495f96000000000000000000000000ec4c46f46191d77c3d8ba3ddfafe71b58e2089af0000000000000000000000007392e9e58f202da3877776c41683ac457dfd4cd700000000000000000000000000000000000000000000000000000000000000010000000000000000000000000000000000000000000000000000000000000000",
        "nonce": "0xbf2a",
        "chainId": "0x14a34"
      },
      "additionalContracts": [],
      "isFixedGasLimit": false
    },
    {
      "hash": "0x565fabe8a7a6583eecb4e9cf6013b0f87c29aedd4d40ff5b76281ef10d10ef0b",
      "transactionType": "CALL",
      "contractName": "KubiStreamerDonation",
      "contractAddress": "0xbe7f8973094b3095615f127ea621fc6d60a7e723",
      "function": "setYieldConfig(address,address,bool,uint256)",
      "arguments": [
        "0xE47Eba0dBf716D99482Fb071ca04aDf4FCCd6b1f",
        "0x1fE9A4E25cAA2a22FC0B61010fDB0DB462FB5b29",
        "true",
        "0"
      ],
      "transaction": {
        "from": "0x1234562eb0cd65e7d08e59f9f18d7c10b5df232a",
        "to": "0xbe7f8973094b3095615f127ea621fc6d60a7e723",
        "gas": "0x12215",
        "value": "0x0",
        "input": "0x0c495f96000000000000000000000000e47eba0dbf716d99482fb071ca04adf4fccd6b1f0000000000000000000000001fe9a4e25caa2a22fc0b61010fdb0db462fb5b2900000000000000000000000000000000000000000000000000000000000000010000000000000000000000000000000000000000000000000000000000000000",
        "nonce": "0xbf2b",
        "chainId": "0x14a34"
      },
      "additionalContracts": [],
      "isFixedGasLimit": false
    },
    {
      "hash": "0x3caa9dd6690c105f2aec25a12ae170ace9d51b70119a1ac5d1bfc2c967ff74aa",
      "transactionType": "CALL",
      "contractName": "KubiStreamerDonation",
      "contractAddress": "0xbe7f8973094b3095615f127ea621fc6d60a7e723",
      "function": "setYieldConfig(address,address,bool,uint256)",
      "arguments": [
        "0x4E3A466BbA553Ace4Cd3a6149d574F3f034b5269",
        "0x5e1E8043381F3A21a1A64f46073daF7E74fEdC1E",
        "true",
        "0"
      ],
      "transaction": {
        "from": "0x1234562eb0cd65e7d08e59f9f18d7c10b5df232a",
        "to": "0xbe7f8973094b3095615f127ea621fc6d60a7e723",
        "gas": "0x12215",
        "value": "0x0",
        "input": "0x0c495f960000000000000000000000004e3a466bba553ace4cd3a6149d574f3f034b52690000000000000000000000005e1e8043381f3a21a1a64f46073daf7e74fedc1e00000000000000000000000000000000000000000000000000000000000000010000000000000000000000000000000000000000000000000000000000000000",
        "nonce": "0xbf2c",
        "chainId": "0x14a34"
      },
      "additionalContracts": [],
      "isFixedGasLimit": false
    },
    {
      "hash": "0x6a05c26cd934e457dd33938caa74b0f5d047d91a58edfe9b1a0a1fb42fdc4b55",
      "transactionType": "CALL",
      "contractName": "KubiStreamerDonation",
      "contractAddress": "0xbe7f8973094b3095615f127ea621fc6d60a7e723",
      "function": "setYieldConfig(address,address,bool,uint256)",
      "arguments": [
        "0x751A0E0147d10b8C21804AC88DCfa6837312ea35",
        "0x06C1e044D5BEb614faA6128001F519e6c693a044",
        "true",
        "0"
      ],
      "transaction": {
        "from": "0x1234562eb0cd65e7d08e59f9f18d7c10b5df232a",
        "to": "0xbe7f8973094b3095615f127ea621fc6d60a7e723",
        "gas": "0x12215",
        "value": "0x0",
        "input": "0x0c495f96000000000000000000000000751a0e0147d10b8c21804ac88dcfa6837312ea3500000000000000000000000006c1e044d5beb614faa6128001f519e6c693a04400000000000000000000000000000000000000000000000000000000000000010000000000000000000000000000000000000000000000000000000000000000",
        "nonce": "0xbf2d",
        "chainId": "0x14a34"
      },
      "additionalContracts": [],
      "isFixedGasLimit": false
    },
    {
      "hash": "0x2c7875c12d7ea1aec801bd334643ce3a15d921db189d8bd6a4cb211c4ff55661",
      "transactionType": "CALL",
      "contractName": "KubiStreamerDonation",
      "contractAddress": "0xbe7f8973094b3095615f127ea621fc6d60a7e723",
      "function": "setYieldConfig(address,address,bool,uint256)",
      "arguments": [
        "0xD8D362BADb84Cc1F97a00273ddC8845FD4148C80",
        "0x85B8Dc34C7Af35baC8a45CfF53353f39E6F732A2",
        "true",
        "0"
      ],
      "transaction": {
        "from": "0x1234562eb0cd65e7d08e59f9f18d7c10b5df232a",
        "to": "0xbe7f8973094b3095615f127ea621fc6d60a7e723",
        "gas": "0x12215",
        "value": "0x0",
        "input": "0x0c495f96000000000000000000000000d8d362badb84cc1f97a00273ddc8845fd4148c8000000000000000000000000085b8dc34c7af35bac8a45cff53353f39e6f732a200000000000000000000000000000000000000000000000000000000000000010000000000000000000000000000000000000000000000000000000000000000",
        "nonce": "0xbf2e",
        "chainId": "0x14a34"
      },
      "additionalContracts": [],
      "isFixedGasLimit": false
    },
    {
      "hash": "0x3d8885f8817e82208c9d5f2590f93195f28afb45674d365f67eb201588873d37",
      "transactionType": "CALL",
      "contractName": "KubiStreamerDonation",
      "contractAddress": "0xbe7f8973094b3095615f127ea621fc6d60a7e723",
      "function": "setYieldConfig(address,address,bool,uint256)",
      "arguments": [
        "0x1061473A78f6eb0a0BcBDE060a5EeA9d4273BB59",
        "0x7392e9E58f202Da3877776c41683AC457DFd4CD7",
        "true",
        "0"
      ],
      "transaction": {
        "from": "0x1234562eb0cd65e7d08e59f9f18d7c10b5df232a",
        "to": "0xbe7f8973094b3095615f127ea621fc6d60a7e723",
        "gas": "0x12215",
        "value": "0x0",
        "input": "0x0c495f960000000000000000000000001061473a78f6eb0a0bcbde060a5eea9d4273bb590000000000000000000000007392e9e58f202da3877776c41683ac457dfd4cd700000000000000000000000000000000000000000000000000000000000000010000000000000000000000000000000000000000000000000000000000000000",
        "nonce": "0xbf2f",
        "chainId": "0x14a34"
      },
      "additionalContracts": [],
      "isFixedGasLimit": false
    },
    {
      "hash": "0x57193d3f78575c83f1114159f7f6448c3282548fcf49e7df1619ae415b607e71",
      "transactionType": "CALL",
      "contractName": "KubiStreamerDonation",
      "contractAddress": "0xbe7f8973094b3095615f127ea621fc6d60a7e723",
      "function": "setYieldConfig(address,address,bool,uint256)",
      "arguments": [
        "0x824FB936D24B2BAaF92Fe87FD65fF22d01439ECE",
        "0x1fE9A4E25cAA2a22FC0B61010fDB0DB462FB5b29",
        "true",
        "0"
      ],
      "transaction": {
        "from": "0x1234562eb0cd65e7d08e59f9f18d7c10b5df232a",
        "to": "0xbe7f8973094b3095615f127ea621fc6d60a7e723",
        "gas": "0x12215",
        "value": "0x0",
        "input": "0x0c495f96000000000000000000000000824fb936d24b2baaf92fe87fd65ff22d01439ece0000000000000000000000001fe9a4e25caa2a22fc0b61010fdb0db462fb5b2900000000000000000000000000000000000000000000000000000000000000010000000000000000000000000000000000000000000000000000000000000000",
        "nonce": "0xbf30",
        "chainId": "0x14a34"
      },
      "additionalContracts": [],
      "isFixedGasLimit": false
    },
    {
      "hash": "0xf045b12fb5ddcc83a66e4a6d1d769e0d78680d202c37eac2e1322a6570528f5f",
      "transactionType": "CALL",
      "contractName": "KubiStreamerDonation",
      "contractAddress": "0xbe7f8973094b3095615f127ea621fc6d60a7e723",
      "function": "setYieldConfig(address,address,bool,uint256)",
      "arguments": [
        "0x012bd7CD0AcC8cB696306B1aB7a537E85eF2056f",
        "0x5e1E8043381F3A21a1A64f46073daF7E74fEdC1E",
        "true",
        "0"
      ],
      "transaction": {
        "from": "0x1234562eb0cd65e7d08e59f9f18d7c10b5df232a",
        "to": "0xbe7f8973094b3095615f127ea621fc6d60a7e723",
        "gas": "0x12215",
        "value": "0x0",
        "input": "0x0c495f96000000000000000000000000012bd7cd0acc8cb696306b1ab7a537e85ef2056f0000000000000000000000005e1e8043381f3a21a1a64f46073daf7e74fedc1e00000000000000000000000000000000000000000000000000000000000000010000000000000000000000000000000000000000000000000000000000000000",
        "nonce": "0xbf31",
        "chainId": "0x14a34"
      },
      "additionalContracts": [],
      "isFixedGasLimit": false
    },
    {
      "hash": "0xc33eff2c841565d3eb289d426cc86b93fd55521c8b5400f5c88b1dd909538977",
      "transactionType": "CALL",
      "contractName": "KubiStreamerDonation",
      "contractAddress": "0xbe7f8973094b3095615f127ea621fc6d60a7e723",
      "function": "setYieldConfig(address,address,bool,uint256)",
      "arguments": [
        "0x4d8346F2F33FFBc7fa2E46bECF83C978943e69C8",
        "0x06C1e044D5BEb614faA6128001F519e6c693a044",
        "true",
        "0"
      ],
      "transaction": {
        "from": "0x1234562eb0cd65e7d08e59f9f18d7c10b5df232a",
        "to": "0xbe7f8973094b3095615f127ea621fc6d60a7e723",
        "gas": "0x12215",
        "value": "0x0",
        "input": "0x0c495f960000000000000000000000004d8346f2f33ffbc7fa2e46becf83c978943e69c800000000000000000000000006c1e044d5beb614faa6128001f519e6c693a04400000000000000000000000000000000000000000000000000000000000000010000000000000000000000000000000000000000000000000000000000000000",
        "nonce": "0xbf32",
        "chainId": "0x14a34"
      },
      "additionalContracts": [],
      "isFixedGasLimit": false
    },
    {
      "hash": "0xc5e373b25860861c3f2286408b67f090442858c8075f7dad14e5f890ddf16894",
      "transactionType": "CALL",
      "contractName": "KubiStreamerDonation",
      "contractAddress": "0xbe7f8973094b3095615f127ea621fc6d60a7e723",
      "function": "setYieldConfig(address,address,bool,uint256)",
      "arguments": [
        "0x2db087D43Fc8402aDE0706807d32d6EF72411ebd",
        "0x85B8Dc34C7Af35baC8a45CfF53353f39E6F732A2",
        "true",
        "0"
      ],
      "transaction": {
        "from": "0x1234562eb0cd65e7d08e59f9f18d7c10b5df232a",
        "to": "0xbe7f8973094b3095615f127ea621fc6d60a7e723",
        "gas": "0x12215",
        "value": "0x0",
        "input": "0x0c495f960000000000000000000000002db087d43fc8402ade0706807d32d6ef72411ebd00000000000000000000000085b8dc34c7af35bac8a45cff53353f39e6f732a200000000000000000000000000000000000000000000000000000000000000010000000000000000000000000000000000000000000000000000000000000000",
        "nonce": "0xbf33",
        "chainId": "0x14a34"
      },
      "additionalContracts": [],
      "isFixedGasLimit": false
    },
    {
      "hash": "0x299d0ddf8f701386201efdb2ea887c2fe666b2372b6b94173d0485be8f0bf5bb",
      "transactionType": "CALL",
      "contractName": "KubiStreamerDonation",
      "contractAddress": "0xbe7f8973094b3095615f127ea621fc6d60a7e723",
      "function": "setYieldConfig(address,address,bool,uint256)",
      "arguments": [
        "0xD14bD87b18dA3Ec84a9e098DF1c808d9cb7a9852",
        "0x7392e9E58f202Da3877776c41683AC457DFd4CD7",
        "true",
        "0"
      ],
      "transaction": {
        "from": "0x1234562eb0cd65e7d08e59f9f18d7c10b5df232a",
        "to": "0xbe7f8973094b3095615f127ea621fc6d60a7e723",
        "gas": "0x12215",
        "value": "0x0",
        "input": "0x0c495f96000000000000000000000000d14bd87b18da3ec84a9e098df1c808d9cb7a98520000000000000000000000007392e9e58f202da3877776c41683ac457dfd4cd700000000000000000000000000000000000000000000000000000000000000010000000000000000000000000000000000000000000000000000000000000000",
        "nonce": "0xbf34",
        "chainId": "0x14a34"
      },
      "additionalContracts": [],
      "isFixedGasLimit": false
    }
  ],
  "receipts": [
    {
      "status": "0x1",
      "cumulativeGasUsed": "0x39dfc8",
      "logs": [
        {
          "address": "0xbe7f8973094b3095615f127ea621fc6d60a7e723",
          "topics": [
            "0x8be0079c531659141344cd1fd0a4f28419497f9722a3daafe3b4186f6b6457e0",
            "0x0000000000000000000000000000000000000000000000000000000000000000",
            "0x0000000000000000000000001234562eb0cd65e7d08e59f9f18d7c10b5df232a"
          ],
          "data": "0x",
          "blockHash": "0x5a9d952fca835304a0d4d641fa2be3a4c165291e0c089755ca76aac01c9f5ea7",
          "blockNumber": "0x223a3b3",
          "blockTimestamp": "0x695aa646",
          "transactionHash": "0x299d0ddf8f701386201efdb2ea887c2fe666b2372b6b94173d0485be8f0bf5bb",
          "transactionIndex": "0x5",
          "logIndex": "0x21",
          "removed": false
        }
      ],
      "logsBloom": "0x00000000000000000000000000000000000000000000000000800000000000000000000000000000000000000000000000000000000000000000000000000000000000000008000020000000000000000001000000000000000000000000000000000000020000000000000000000800000000000000000000000000000000400000000000000000000000000000000000000000000200000000000000000000020000000000000000000001000000000000000000000000000000000000000000000000000000000000000000000000000000000000000000000000000020000000000000000000000000000000000000000000000000000000000000000000",
      "type": "0x2",
      "transactionHash": "0x299d0ddf8f701386201efdb2ea887c2fe666b2372b6b94173d0485be8f0bf5bb",
      "transactionIndex": "0x5",
      "blockHash": "0x5a9d952fca835304a0d4d641fa2be3a4c165291e0c089755ca76aac01c9f5ea7",
      "blockNumber": "0x223a3b3",
      "gasUsed": "0x314a9c",
      "effectiveGasPrice": "0x124f80",
      "blobGasUsed": "0x25a850",
      "from": "0x1234562eb0cd65e7d08e59f9f18d7c10b5df232a",
      "to": null,
      "contractAddress": "0xbe7f8973094b3095615f127ea621fc6d60a7e723",
      "daFootprintGasScalar": "0x138",
      "l1BaseFeeScalar": "0x44d",
      "l1BlobBaseFee": "0x1",
      "l1BlobBaseFeeScalar": "0xa118b",
      "l1Fee": "0x18be",
      "l1GasPrice": "0x8",
      "l1GasUsed": "0x1ee60"
    },
    {
      "status": "0x1",
      "cumulativeGasUsed": "0x3a9a05",
      "logs": [
        {
          "address": "0xbe7f8973094b3095615f127ea621fc6d60a7e723",
          "topics": [
            "0xac90355684e2710fa34c2c7d500018678b146ea2d56ddc331c63d242ee8bf385",
            "0x00000000000000000000000057b78b98b9dd06e06de145b83aedf6f04e4c5500"
          ],
          "data": "0x0000000000000000000000000000000000000000000000000000000000000001",
          "blockHash": "0x5a9d952fca835304a0d4d641fa2be3a4c165291e0c089755ca76aac01c9f5ea7",
          "blockNumber": "0x223a3b3",
          "blockTimestamp": "0x695aa646",
          "transactionHash": "0xafae82f80e3b869fcd77b151ffe5eb7da470d1d9a24ca64e4dfc6a62aabb3c78",
          "transactionIndex": "0x6",
          "logIndex": "0x22",
          "removed": false
        }
      ],
      "logsBloom": "0x00000000000000000200000000000000000000000000000000000000000000000000000000000000000000000000000000000000000000040010000000000000000000000008000020000000000000000000000000000000000000000000000000000000000000000000000000000000000000000000000000000000002000000000000000000000000000000000000000000000000000000000000000000000000000000000000000000001000000000000000000000000000000000000000080020000000000000000000000000000000000000000000000000000000000000000000000000000000000000000000000000000000000000000000000000000",
      "type": "0x2",
      "transactionHash": "0xafae82f80e3b869fcd77b151ffe5eb7da470d1d9a24ca64e4dfc6a62aabb3c78",
      "transactionIndex": "0x6",
      "blockHash": "0x5a9d952fca835304a0d4d641fa2be3a4c165291e0c089755ca76aac01c9f5ea7",
      "blockNumber": "0x223a3b3",
      "gasUsed": "0xba3d",
      "effectiveGasPrice": "0x124f80",
      "blobGasUsed": "0x79e0",
      "from": "0x1234562eb0cd65e7d08e59f9f18d7c10b5df232a",
      "to": "0xbe7f8973094b3095615f127ea621fc6d60a7e723",
      "contractAddress": null,
      "daFootprintGasScalar": "0x138",
      "l1BaseFeeScalar": "0x44d",
      "l1BlobBaseFee": "0x1",
      "l1BlobBaseFeeScalar": "0xa118b",
      "l1Fee": "0x18be",
      "l1GasPrice": "0x8",
      "l1GasUsed": "0x640"
    },
    {
      "status": "0x1",
      "cumulativeGasUsed": "0x3b544e",
      "logs": [
        {
          "address": "0xbe7f8973094b3095615f127ea621fc6d60a7e723",
          "topics": [
            "0xac90355684e2710fa34c2c7d500018678b146ea2d56ddc331c63d242ee8bf385",
            "0x0000000000000000000000001fe9a4e25caa2a22fc0b61010fdb0db462fb5b29"
          ],
          "data": "0x0000000000000000000000000000000000000000000000000000000000000001",
          "blockHash": "0x5a9d952fca835304a0d4d641fa2be3a4c165291e0c089755ca76aac01c9f5ea7",
          "blockNumber": "0x223a3b3",
          "blockTimestamp": "0x695aa646",
          "transactionHash": "0x857cec96174a1ac5ecd4a21196a031f4366f98b176ebd09d0520d329dba6abe7",
          "transactionIndex": "0x7",
          "logIndex": "0x23",
          "removed": false
        }
      ],
      "logsBloom": "0x00000000000000000200000000000000000000000000000000008000000000000000000000000000000000000000000000000000000000000010000000000001000000000008000020000080000000000000000000000000000000000000000000000000000000000000000000000000000000000000000000000000002000000000000000000000000000000000000000000000000000000000000000000000000000000000000000000001000000000000000000000000000000000000000000000000000000000000000000000000000000000000000000000000000000000000000000000000000000000000000000000000000000000000000000000000",
      "type": "0x2",
      "transactionHash": "0x857cec96174a1ac5ecd4a21196a031f4366f98b176ebd09d0520d329dba6abe7",
      "transactionIndex": "0x7",
      "blockHash": "0x5a9d952fca835304a0d4d641fa2be3a4c165291e0c089755ca76aac01c9f5ea7",
      "blockNumber": "0x223a3b3",
      "gasUsed": "0xba49",
      "effectiveGasPrice": "0x124f80",
      "blobGasUsed": "0x79e0",
      "from": "0x1234562eb0cd65e7d08e59f9f18d7c10b5df232a",
      "to": "0xbe7f8973094b3095615f127ea621fc6d60a7e723",
      "contractAddress": null,
      "daFootprintGasScalar": "0x138",
      "l1BaseFeeScalar": "0x44d",
      "l1BlobBaseFee": "0x1",
      "l1BlobBaseFeeScalar": "0xa118b",
      "l1Fee": "0x18be",
      "l1GasPrice": "0x8",
      "l1GasUsed": "0x640"
    },
    {
      "status": "0x1",
      "cumulativeGasUsed": "0x3c0e97",
      "logs": [
        {
          "address": "0xbe7f8973094b3095615f127ea621fc6d60a7e723",
          "topics": [
            "0xac90355684e2710fa34c2c7d500018678b146ea2d56ddc331c63d242ee8bf385",
            "0x0000000000000000000000005e1e8043381f3a21a1a64f46073daf7e74fedc1e"
          ],
          "data": "0x0000000000000000000000000000000000000000000000000000000000000001",
          "blockHash": "0x5a9d952fca835304a0d4d641fa2be3a4c165291e0c089755ca76aac01c9f5ea7",
          "blockNumber": "0x223a3b3",
          "blockTimestamp": "0x695aa646",
          "transactionHash": "0x3c044fe0b42cd46007ee63da8426748de67e8cf575bc12563b0522ce7b91d1f5",
          "transactionIndex": "0x8",
          "logIndex": "0x24",
          "removed": false
        }
      ],
      "logsBloom": "0x00000000000000000200000000000000000000000000000000000000000000000000000000000000000000000000000000000000000000000010000000000000000000000008040020000000000000000000000000000000000000000000000000000000000000000000000000000000000000000000000000000000002000000000000000000000000000000000000000000000000000000000000000000000000000000000000000000001000000000000000000000000000000000000000000000020000000000000000000000000000000000000000000000000000000000000000000000000000000000000000001000000000000000000000000000000",
      "type": "0x2",
      "transactionHash": "0x3c044fe0b42cd46007ee63da8426748de67e8cf575bc12563b0522ce7b91d1f5",
      "transactionIndex": "0x8",
      "blockHash": "0x5a9d952fca835304a0d4d641fa2be3a4c165291e0c089755ca76aac01c9f5ea7",
      "blockNumber": "0x223a3b3",
      "gasUsed": "0xba49",
      "effectiveGasPrice": "0x124f80",
      "blobGasUsed": "0x79e0",
      "from": "0x1234562eb0cd65e7d08e59f9f18d7c10b5df232a",
      "to": "0xbe7f8973094b3095615f127ea621fc6d60a7e723",
      "contractAddress": null,
      "daFootprintGasScalar": "0x138",
      "l1BaseFeeScalar": "0x44d",
      "l1BlobBaseFee": "0x1",
      "l1BlobBaseFeeScalar": "0xa118b",
      "l1Fee": "0x18be",
      "l1GasPrice": "0x8",
      "l1GasUsed": "0x640"
    },
    {
      "status": "0x1",
      "cumulativeGasUsed": "0x3cc8e0",
      "logs": [
        {
          "address": "0xbe7f8973094b3095615f127ea621fc6d60a7e723",
          "topics": [
            "0xac90355684e2710fa34c2c7d500018678b146ea2d56ddc331c63d242ee8bf385",
            "0x00000000000000000000000006c1e044d5beb614faa6128001f519e6c693a044"
          ],
          "data": "0x0000000000000000000000000000000000000000000000000000000000000001",
          "blockHash": "0x5a9d952fca835304a0d4d641fa2be3a4c165291e0c089755ca76aac01c9f5ea7",
          "blockNumber": "0x223a3b3",
          "blockTimestamp": "0x695aa646",
          "transactionHash": "0x4ea826dd4d73a06b851369b4c886a43f976d9b94156ecb3778c5298fa93dfdc7",
          "transactionIndex": "0x9",
          "logIndex": "0x25",
          "removed": false
        }
      ],
      "logsBloom": "0x00000000000000010200000000000000000000800000000000000000000000000000000000000000000000000000000000000000000000000010000000000000000000000008000020000000000000000000000000000000000000000000000000000000000000000000000000000000000000000000000000000000002000000000000000000000000000000000000000000000000000000000000000000000000000000000000000000001000000000000000000000000000000000000000000000000000000000000000000000000000000000000000000000000000000000000000000000000000000000000000000000000040000000000000000000000",
      "type": "0x2",
      "transactionHash": "0x4ea826dd4d73a06b851369b4c886a43f976d9b94156ecb3778c5298fa93dfdc7",
      "transactionIndex": "0x9",
      "blockHash": "0x5a9d952fca835304a0d4d641fa2be3a4c165291e0c089755ca76aac01c9f5ea7",
      "blockNumber": "0x223a3b3",
      "gasUsed": "0xba49",
      "effectiveGasPrice": "0x124f80",
      "blobGasUsed": "0x79e0",
      "from": "0x1234562eb0cd65e7d08e59f9f18d7c10b5df232a",
      "to": "0xbe7f8973094b3095615f127ea621fc6d60a7e723",
      "contractAddress": null,
      "daFootprintGasScalar": "0x138",
      "l1BaseFeeScalar": "0x44d",
      "l1BlobBaseFee": "0x1",
      "l1BlobBaseFeeScalar": "0xa118b",
      "l1Fee": "0x18be",
      "l1GasPrice": "0x8",
      "l1GasUsed": "0x640"
    },
    {
      "status": "0x1",
      "cumulativeGasUsed": "0x3d8329",
      "logs": [
        {
          "address": "0xbe7f8973094b3095615f127ea621fc6d60a7e723",
          "topics": [
            "0xac90355684e2710fa34c2c7d500018678b146ea2d56ddc331c63d242ee8bf385",
            "0x00000000000000000000000085b8dc34c7af35bac8a45cff53353f39e6f732a2"
          ],
          "data": "0x0000000000000000000000000000000000000000000000000000000000000001",
          "blockHash": "0x5a9d952fca835304a0d4d641fa2be3a4c165291e0c089755ca76aac01c9f5ea7",
          "blockNumber": "0x223a3b3",
          "blockTimestamp": "0x695aa646",
          "transactionHash": "0x0ad12630d34133cc94c80739d86fadf0a93b585c756c5d8b627c3bff76b16fc5",
          "transactionIndex": "0xa",
          "logIndex": "0x26",
          "removed": false
        }
      ],
      "logsBloom": "0x00000000000000000200000000000000000000000000000000000000000000000000000000000000000000000000000000000000000000000010000000000000000000000008000020000000000000000000000000000000000000000000000000040000000000000000000000000000000000000000000000000000002000000000000000000000000000000000000000040000000000000000000000000000000000000000000000000001000000000000000000000000000000000000000000000000000000000000000000000000000000000000000001000000000000000000000000000000000000000000000000000000000000000000000000000000",
      "type": "0x2",
      "transactionHash": "0x0ad12630d34133cc94c80739d86fadf0a93b585c756c5d8b627c3bff76b16fc5",
      "transactionIndex": "0xa",
      "blockHash": "0x5a9d952fca835304a0d4d641fa2be3a4c165291e0c089755ca76aac01c9f5ea7",
      "blockNumber": "0x223a3b3",
      "gasUsed": "0xba49",
      "effectiveGasPrice": "0x124f80",
      "blobGasUsed": "0x79e0",
      "from": "0x1234562eb0cd65e7d08e59f9f18d7c10b5df232a",
      "to": "0xbe7f8973094b3095615f127ea621fc6d60a7e723",
      "contractAddress": null,
      "daFootprintGasScalar": "0x138",
      "l1BaseFeeScalar": "0x44d",
      "l1BlobBaseFee": "0x1",
      "l1BlobBaseFeeScalar": "0xa118b",
      "l1Fee": "0x18be",
      "l1GasPrice": "0x8",
      "l1GasUsed": "0x640"
    },
    {
      "status": "0x1",
      "cumulativeGasUsed": "0x3e3d72",
      "logs": [
        {
          "address": "0xbe7f8973094b3095615f127ea621fc6d60a7e723",
          "topics": [
            "0xac90355684e2710fa34c2c7d500018678b146ea2d56ddc331c63d242ee8bf385",
            "0x0000000000000000000000007392e9e58f202da3877776c41683ac457dfd4cd7"
          ],
          "data": "0x0000000000000000000000000000000000000000000000000000000000000001",
          "blockHash": "0x5a9d952fca835304a0d4d641fa2be3a4c165291e0c089755ca76aac01c9f5ea7",
          "blockNumber": "0x223a3b3",
          "blockTimestamp": "0x695aa646",
          "transactionHash": "0x02705cad554bc0904bd96c98073d5f5cd3978061bdaa2b70624740382b909a75",
          "transactionIndex": "0xb",
          "logIndex": "0x27",
          "removed": false
        }
      ],
      "logsBloom": "0x00000000000000000200000000000000000000000000000000000000000000000000000000000000000000000000000000000000000000000010000000000000000000000008000020000000000000000000000000000000000000000000000000000000000000000000000000000000000000000000000000000000002000000000000000000000000000000000000000000000000000000000000000000000000000000000000000000001000000000000000000000000000000000000000000000000001000000000000000000100000000000000000000000000000000000000000000000000000000000000000000000000000000000000004000000000",
      "type": "0x2",
      "transactionHash": "0x02705cad554bc0904bd96c98073d5f5cd3978061bdaa2b70624740382b909a75",
      "transactionIndex": "0xb",
      "blockHash": "0x5a9d952fca835304a0d4d641fa2be3a4c165291e0c089755ca76aac01c9f5ea7",
      "blockNumber": "0x223a3b3",
      "gasUsed": "0xba49",
      "effectiveGasPrice": "0x124f80",
      "blobGasUsed": "0x79e0",
      "from": "0x1234562eb0cd65e7d08e59f9f18d7c10b5df232a",
      "to": "0xbe7f8973094b3095615f127ea621fc6d60a7e723",
      "contractAddress": null,
      "daFootprintGasScalar": "0x138",
      "l1BaseFeeScalar": "0x44d",
      "l1BlobBaseFee": "0x1",
      "l1BlobBaseFeeScalar": "0xa118b",
      "l1Fee": "0x18be",
      "l1GasPrice": "0x8",
      "l1GasUsed": "0x640"
    },
    {
      "status": "0x1",
      "cumulativeGasUsed": "0x3ef7bb",
      "logs": [
        {
          "address": "0xbe7f8973094b3095615f127ea621fc6d60a7e723",
          "topics": [
            "0xac90355684e2710fa34c2c7d500018678b146ea2d56ddc331c63d242ee8bf385",
            "0x000000000000000000000000b03a4cf6eb030bbabd0452300b01c7dcb9584737"
          ],
          "data": "0x0000000000000000000000000000000000000000000000000000000000000001",
          "blockHash": "0x5a9d952fca835304a0d4d641fa2be3a4c165291e0c089755ca76aac01c9f5ea7",
          "blockNumber": "0x223a3b3",
          "blockTimestamp": "0x695aa646",
          "transactionHash": "0x0d0bf5837d8f3b06fbfc51023e9123dbf9fb7045285cf98e25da516593f80fa8",
          "transactionIndex": "0xc",
          "logIndex": "0x28",
          "removed": false
        }
      ],
      "logsBloom": "0x00000000000000000200000000000000080000000000000000000000000000000000000000000000000000000040000000000000000000000010000000000000000000000008000020000000000000000000000000000000000000000000000000000000000000000000000000000000000000000000000000000000002000000000000000000000000000000000000000000000000000000000000000000000000000000000000000000001000000000000000000000000000000000000000000000000000000000000000000000000000000000000000000000000000000000000000000100000000000000000000000000000000000000000000000000000",
      "type": "0x2",
      "transactionHash": "0x0d0bf5837d8f3b06fbfc51023e9123dbf9fb7045285cf98e25da516593f80fa8",
      "transactionIndex": "0xc",
      "blockHash": "0x5a9d952fca835304a0d4d641fa2be3a4c165291e0c089755ca76aac01c9f5ea7",
      "blockNumber": "0x223a3b3",
      "gasUsed": "0xba49",
      "effectiveGasPrice": "0x124f80",
      "blobGasUsed": "0x79e0",
      "from": "0x1234562eb0cd65e7d08e59f9f18d7c10b5df232a",
      "to": "0xbe7f8973094b3095615f127ea621fc6d60a7e723",
      "contractAddress": null,
      "daFootprintGasScalar": "0x138",
      "l1BaseFeeScalar": "0x44d",
      "l1BlobBaseFee": "0x1",
      "l1BlobBaseFeeScalar": "0xa118b",
      "l1Fee": "0x18be",
      "l1GasPrice": "0x8",
      "l1GasUsed": "0x640"
    },
    {
      "status": "0x1",
      "cumulativeGasUsed": "0x3fb204",
      "logs": [
        {
          "address": "0xbe7f8973094b3095615f127ea621fc6d60a7e723",
          "topics": [
            "0xac90355684e2710fa34c2c7d500018678b146ea2d56ddc331c63d242ee8bf385",
            "0x0000000000000000000000002ffc2f655a26a4def63efcd59930d1241ee0519a"
          ],
          "data": "0x0000000000000000000000000000000000000000000000000000000000000001",
          "blockHash": "0x5a9d952fca835304a0d4d641fa2be3a4c165291e0c089755ca76aac01c9f5ea7",
          "blockNumber": "0x223a3b3",
          "blockTimestamp": "0x695aa646",
          "transactionHash": "0x58b72d3554c97ff75aaef3cdd962a66e0f71c2efd23dc7da1395db48ec0ffe85",
          "transactionIndex": "0xd",
          "logIndex": "0x29",
          "removed": false
        }
      ],
      "logsBloom": "0x00000000000000000200000000000000000000000000000000000000000000000000000000000000000000000000000000000000000000000010000000000000000000002008000020000000000000000000010000000000000000000000000000000000000000000000000000000000000000000000000000000000002000000000000000000000000000000000000000000000000000000000000000000000000000000000000000000001000000000000000000000000000000000000000000000000000000000000000000000000000000000000000000000000000000000000000000000000000000000000000000000000000000000000000004000000",
      "type": "0x2",
      "transactionHash": "0x58b72d3554c97ff75aaef3cdd962a66e0f71c2efd23dc7da1395db48ec0ffe85",
      "transactionIndex": "0xd",
      "blockHash": "0x5a9d952fca835304a0d4d641fa2be3a4c165291e0c089755ca76aac01c9f5ea7",
      "blockNumber": "0x223a3b3",
      "gasUsed": "0xba49",
      "effectiveGasPrice": "0x124f80",
      "blobGasUsed": "0x79e0",
      "from": "0x1234562eb0cd65e7d08e59f9f18d7c10b5df232a",
      "to": "0xbe7f8973094b3095615f127ea621fc6d60a7e723",
      "contractAddress": null,
      "daFootprintGasScalar": "0x138",
      "l1BaseFeeScalar": "0x44d",
      "l1BlobBaseFee": "0x1",
      "l1BlobBaseFeeScalar": "0xa118b",
      "l1Fee": "0x18be",
      "l1GasPrice": "0x8",
      "l1GasUsed": "0x640"
    },
    {
      "status": "0x1",
      "cumulativeGasUsed": "0x406c4d",
      "logs": [
        {
          "address": "0xbe7f8973094b3095615f127ea621fc6d60a7e723",
          "topics": [
            "0xac90355684e2710fa34c2c7d500018678b146ea2d56ddc331c63d242ee8bf385",
            "0x00000000000000000000000014ac27f376b03b6c05f2189c4f03febb5d76432a"
          ],
          "data": "0x0000000000000000000000000000000000000000000000000000000000000001",
          "blockHash": "0x5a9d952fca835304a0d4d641fa2be3a4c165291e0c089755ca76aac01c9f5ea7",
          "blockNumber": "0x223a3b3",
          "blockTimestamp": "0x695aa646",
          "transactionHash": "0x3d8885f8817e82208c9d5f2590f93195f28afb45674d365f67eb201588873d37",
          "transactionIndex": "0xe",
          "logIndex": "0x2a",
          "removed": false
        }
      ],
      "logsBloom": "0x00000000000000000200000000000000000000000000000000000000000000000000000000000000000000000000000000000000000000000010000000000000000000000008000020000000000000000000000000000000000000000000000000000000000000000000000000000000000000000000000000000000002000000000000000000000000000000020000000000000000000000000000000000000000000000004000000000001000000000000000000000000000000000000000000000000000000000000000010000000000000000000000000000000000000000000000000000000000000000000000000000000000000000000000000000000",
      "type": "0x2",
      "transactionHash": "0x3d8885f8817e82208c9d5f2590f93195f28afb45674d365f67eb201588873d37",
      "transactionIndex": "0xe",
      "blockHash": "0x5a9d952fca835304a0d4d641fa2be3a4c165291e0c089755ca76aac01c9f5ea7",
      "blockNumber": "0x223a3b3",
      "gasUsed": "0xba49",
      "effectiveGasPrice": "0x124f80",
      "blobGasUsed": "0x79e0",
      "from": "0x1234562eb0cd65e7d08e59f9f18d7c10b5df232a",
      "to": "0xbe7f8973094b3095615f127ea621fc6d60a7e723",
      "contractAddress": null,
      "daFootprintGasScalar": "0x138",
      "l1BaseFeeScalar": "0x44d",
      "l1BlobBaseFee": "0x1",
      "l1BlobBaseFeeScalar": "0xa118b",
      "l1Fee": "0x18be",
      "l1GasPrice": "0x8",
      "l1GasUsed": "0x640"
    },
    {
      "status": "0x1",
      "cumulativeGasUsed": "0x412696",
      "logs": [
        {
          "address": "0xbe7f8973094b3095615f127ea621fc6d60a7e723",
          "topics": [
            "0xac90355684e2710fa34c2c7d500018678b146ea2d56ddc331c63d242ee8bf385",
            "0x000000000000000000000000dac9107491b3c59a97d7f45cefc97353f6ab46b2"
          ],
          "data": "0x0000000000000000000000000000000000000000000000000000000000000001",
          "blockHash": "0x5a9d952fca835304a0d4d641fa2be3a4c165291e0c089755ca76aac01c9f5ea7",
          "blockNumber": "0x223a3b3",
          "blockTimestamp": "0x695aa646",
          "transactionHash": "0xf045b12fb5ddcc83a66e4a6d1d769e0d78680d202c37eac2e1322a6570528f5f",
          "transactionIndex": "0xf",
          "logIndex": "0x2b",
          "removed": false
        }
      ],
      "logsBloom": "0x00000000000000000200000000000000000000000000000000000000000000000000000000000000000000000000000000000000000000000010000000000000000000000008000020000000000000000000000000000000000000000000000000000000000000000000000000000000000000000000000000000000002000000000000000000000000000000000000000000000000000000000800000000000000000000000000000000001000000000000000000000000000000000000000000000000000000000000000000000000000000000000000000000000000000000000000000000001000000000000000000000000000000000000000000000080",
      "type": "0x2",
      "transactionHash": "0xf045b12fb5ddcc83a66e4a6d1d769e0d78680d202c37eac2e1322a6570528f5f",
      "transactionIndex": "0xf",
      "blockHash": "0x5a9d952fca835304a0d4d641fa2be3a4c165291e0c089755ca76aac01c9f5ea7",
      "blockNumber": "0x223a3b3",
      "gasUsed": "0xba49",
      "effectiveGasPrice": "0x124f80",
      "blobGasUsed": "0x79e0",
      "from": "0x1234562eb0cd65e7d08e59f9f18d7c10b5df232a",
      "to": "0xbe7f8973094b3095615f127ea621fc6d60a7e723",
      "contractAddress": null,
      "daFootprintGasScalar": "0x138",
      "l1BaseFeeScalar": "0x44d",
      "l1BlobBaseFee": "0x1",
      "l1BlobBaseFeeScalar": "0xa118b",
      "l1Fee": "0x18be",
      "l1GasPrice": "0x8",
      "l1GasUsed": "0x640"
    },
    {
      "status": "0x1",
      "cumulativeGasUsed": "0x41e0df",
      "logs": [
        {
          "address": "0xbe7f8973094b3095615f127ea621fc6d60a7e723",
          "topics": [
            "0xac90355684e2710fa34c2c7d500018678b146ea2d56ddc331c63d242ee8bf385",
            "0x0000000000000000000000009b94108165ef58c9736f2c34b09e3b5b62cf5218"
          ],
          "data": "0x0000000000000000000000000000000000000000000000000000000000000001",
          "blockHash": "0x5a9d952fca835304a0d4d641fa2be3a4c165291e0c089755ca76aac01c9f5ea7",
          "blockNumber": "0x223a3b3",
          "blockTimestamp": "0x695aa646",
          "transactionHash": "0x3864041dc0d32a498aa2a8a1d3d0c623a53445ab86fc5ee1948e7102cc4c9c70",
          "transactionIndex": "0x10",
          "logIndex": "0x2c",
          "removed": false
        }
      ],
      "logsBloom": "0x00000000000000000200000000000000000000000000000000000000000000000000000000000000000000000000000000000000000000000010000000000000000000000008000020000000000000000000000000000000000000000000000000000000000000000000000000000000000000000000000000000000002000000000000280000000000000000000000000000000000000000000000000000000000000000000000000000001000000000000000000000000000000000000000000000000001000000000000000000000000000000000000000000000000000000000000000000000000000000000000000000000000000000000000000000000",
      "type": "0x2",
      "transactionHash": "0x3864041dc0d32a498aa2a8a1d3d0c623a53445ab86fc5ee1948e7102cc4c9c70",
      "transactionIndex": "0x10",
      "blockHash": "0x5a9d952fca835304a0d4d641fa2be3a4c165291e0c089755ca76aac01c9f5ea7",
      "blockNumber": "0x223a3b3",
      "gasUsed": "0xba49",
      "effectiveGasPrice": "0x124f80",
      "blobGasUsed": "0x79e0",
      "from": "0x1234562eb0cd65e7d08e59f9f18d7c10b5df232a",
      "to": "0xbe7f8973094b3095615f127ea621fc6d60a7e723",
      "contractAddress": null,
      "daFootprintGasScalar": "0x138",
      "l1BaseFeeScalar": "0x44d",
      "l1BlobBaseFee": "0x1",
      "l1BlobBaseFeeScalar": "0xa118b",
      "l1Fee": "0x18be",
      "l1GasPrice": "0x8",
      "l1GasUsed": "0x640"
    },
    {
      "status": "0x1",
      "cumulativeGasUsed": "0x42f0ea",
      "logs": [],
      "logsBloom": "0x00000000000000000000000000000000000000000000000000000000000000000000000000000000000000000000000000000000000000000000000000000000000000000000000000000000000000000000000000000000000000000000000000000000000000000000000000000000000000000000000000000000000000000000000000000000000000000000000000000000000000000000000000000000000000000000000000000000000000000000000000000000000000000000000000000000000000000000000000000000000000000000000000000000000000000000000000000000000000000000000000000000000000000000000000000000",
      "type": "0x2",
      "transactionHash": "0x3caa9dd6690c105f2aec25a12ae170ace9d51b70119a1ac5d1bfc2c967ff74aa",
      "transactionIndex": "0x11",
      "blockHash": "0x5a9d952fca835304a0d4d641fa2be3a4c165291e0c089755ca76aac01c9f5ea7",
      "blockNumber": "0x223a3b3",
      "gasUsed": "0x1100b",
      "effectiveGasPrice": "0x124f80",
      "blobGasUsed": "0x8268",
      "from": "0x1234562eb0cd65e7d08e59f9f18d7c10b5df232a",
      "to": "0xbe7f8973094b3095615f127ea621fc6d60a7e723",
      "contractAddress": null,
      "daFootprintGasScalar": "0x138",
      "l1BaseFeeScalar": "0x44d",
      "l1BlobBaseFee": "0x1",
      "l1BlobBaseFeeScalar": "0xa118b",
      "l1Fee": "0x18be",
      "l1GasPrice": "0x8",
      "l1GasUsed": "0x6bf"
    },
    {
      "status": "0x1",
      "cumulativeGasUsed": "0x4400f5",
      "logs": [],
      "logsBloom": "0x00000000000000000000000000000000000000000000000000000000000000000000000000000000000000000000000000000000000000000000000000000000000000000000000000000000000000000000000000000000000000000000000000000000000000000000000000000000000000000000000000000000000000000000000000000000000000000000000000000000000000000000000000000000000000000000000000000000000000000000000000000000000000000000000000000000000000000000000000000000000000000000000000000000000000000000000000000000000000000000000000000000000000000000000000000000",
      "type": "0x2",
      "transactionHash": "0x53d9c744dfc1dfabc56537f568c60c14f16f076ad6e3fdce06ad368d613118f2",
      "transactionIndex": "0x12",
      "blockHash": "0x5a9d952fca835304a0d4d641fa2be3a4c165291e0c089755ca76aac01c9f5ea7",
      "blockNumber": "0x223a3b3",
      "gasUsed": "0x1100b",
      "effectiveGasPrice": "0x124f80",
      "blobGasUsed": "0x8268",
      "from": "0x1234562eb0cd65e7d08e59f9f18d7c10b5df232a",
      "to": "0xbe7f8973094b3095615f127ea621fc6d60a7e723",
      "contractAddress": null,
      "daFootprintGasScalar": "0x138",
      "l1BaseFeeScalar": "0x44d",
      "l1BlobBaseFee": "0x1",
      "l1BlobBaseFeeScalar": "0xa118b",
      "l1Fee": "0x18be",
      "l1GasPrice": "0x8",
      "l1GasUsed": "0x6bf"
    },
    {
      "status": "0x1",
      "cumulativeGasUsed": "0x44d2f9",
      "logs": [
        {
          "address": "0xbe7f8973094b3095615f127ea621fc6d60a7e723",
          "topics": [
            "0x354f0817e377e1e9b2601a5fa1180df29e96ac246a5d02f817a6e3bb4b72a904",
            "0x000000000000000000000000aee2a87701afef956473d547bd02cd736729d8a7",
            "0x0000000000000000000000001fe9a4e25caa2a22fc0b61010fdb0db462fb5b29"
          ],
          "data": "0x00000000000000000000000000000000000000000000000000000000000000010000000000000000000000000000000000000000000000000000000000000000",
          "blockHash": "0x5a9d952fca835304a0d4d641fa2be3a4c165291e0c089755ca76aac01c9f5ea7",
          "blockNumber": "0x223a3b3",
          "blockTimestamp": "0x695aa646",
          "transactionHash": "0x4e258bcf0a0c22c37bf791e23f1506754f2f24dc2cfd84388740501a702cc564",
          "transactionIndex": "0x13",
          "logIndex": "0x2d",
          "removed": false
        }
      ],
      "logsBloom": "0x00000000000000000000000000000000000000000000000000008000000000000000000000000000800000000000000000000000000000000000000000000001000000000008000020000080000000000000000000000000000000000000000000000000000000000000000000000000000000000000000000000000000000000000000000000020000000000020000000000000000000000000000000000000000000000000000000000001000000000000000000000000000000000000000000000000000000002000000000000000000004000000000000000000000000000000000000000000000100000000000000000000000000000000000000000000",
      "type": "0x2",
      "transactionHash": "0x4e258bcf0a0c22c37bf791e23f1506754f2f24dc2cfd84388740501a702cc564",
      "transactionIndex": "0x13",
      "blockHash": "0x5a9d952fca835304a0d4d641fa2be3a4c165291e0c089755ca76aac01c9f5ea7",
      "blockNumber": "0x223a3b3",
      "gasUsed": "0xd204",
      "effectiveGasPrice": "0x124f80",
      "blobGasUsed": "0x8880",
      "from": "0x1234562eb0cd65e7d08e59f9f18d7c10b5df232a",
      "to": "0xbe7f8973094b3095615f127ea621fc6d60a7e723",
      "contractAddress": null,
      "daFootprintGasScalar": "0x138",
      "l1BaseFeeScalar": "0x44d",
      "l1BlobBaseFee": "0x1",
      "l1BlobBaseFeeScalar": "0xa118b",
      "l1Fee": "0x18be",
      "l1GasPrice": "0x8",
      "l1GasUsed": "0x702"
    },
    {
      "status": "0x1",
      "cumulativeGasUsed": "0x45a4fd",
      "logs": [
        {
          "address": "0xbe7f8973094b3095615f127ea621fc6d60a7e723",
          "topics": [
            "0x354f0817e377e1e9b2601a5fa1180df29e96ac246a5d02f817a6e3bb4b72a904",
            "0x0000000000000000000000006aabe7258f09474e62e8bebb1cf90e15fbaaf777",
            "0x0000000000000000000000005e1e8043381f3a21a1a64f46073daf7e74fedc1e"
          ],
          "data": "0x00000000000000000000000000000000000000000000000000000000000000010000000000000000000000000000000000000000000000000000000000000000",
          "blockHash": "0x5a9d952fca835304a0d4d641fa2be3a4c165291e0c089755ca76aac01c9f5ea7",
          "blockNumber": "0x223a3b3",
          "blockTimestamp": "0x695aa646",
          "transactionHash": "0x412653543af354229b50e6169c82cf7fc8178a4d915ec346c32de0d7eb9235cf",
          "transactionIndex": "0x14",
          "logIndex": "0x2e",
          "removed": false
        }
      ],
      "logsBloom": "0x00000000000000000000000000000000000000000000000000000000000000000000000000000000800000000000000000000000000000000000000000000000004000000008040020000000000000100000000000000000000000000000000000000000000000000000000000000000000000000000000000000000000000000000000020000000000000000020000000000000000000000000000000000000000000000000000000000001000000000000000000000000000000000000000000000020000000000000000000000000000004000000000000000000000000000000000000000000000000000000000001000000000000000000000000000000",
      "type": "0x2",
      "transactionHash": "0x412653543af354229b50e6169c82cf7fc8178a4d915ec346c32de0d7eb9235cf",
      "transactionIndex": "0x14",
      "blockHash": "0x5a9d952fca835304a0d4d641fa2be3a4c165291e0c089755ca76aac01c9f5ea7",
      "blockNumber": "0x223a3b3",
      "gasUsed": "0xd204",
      "effectiveGasPrice": "0x124f80",
      "blobGasUsed": "0x8880",
      "from": "0x1234562eb0cd65e7d08e59f9f18d7c10b5df232a",
      "to": "0xbe7f8973094b3095615f127ea621fc6d60a7e723",
      "contractAddress": null,
      "daFootprintGasScalar": "0x138",
      "l1BaseFeeScalar": "0x44d",
      "l1BlobBaseFee": "0x1",
      "l1BlobBaseFeeScalar": "0xa118b",
      "l1Fee": "0x18be",
      "l1GasPrice": "0x8",
      "l1GasUsed": "0x702"
    },
    {
      "status": "0x1",
      "cumulativeGasUsed": "0x467701",
      "logs": [
        {
          "address": "0xbe7f8973094b3095615f127ea621fc6d60a7e723",
          "topics": [
            "0x354f0817e377e1e9b2601a5fa1180df29e96ac246a5d02f817a6e3bb4b72a904",
            "0x0000000000000000000000005c70fb2a739e9e7ad5c4311abf99e0fb65c07ee9",
            "0x00000000000000000000000006c1e044d5beb614faa6128001f519e6c693a044"
          ],
          "data": "0x00000000000000000000000000000000000000000000000000000000000000010000000000000000000000000000000000000000000000000000000000000000",
          "blockHash": "0x5a9d952fca835304a0d4d641fa2be3a4c165291e0c089755ca76aac01c9f5ea7",
          "blockNumber": "0x223a3b3",
          "blockTimestamp": "0x695aa646",
          "transactionHash": "0x4b8d332356e119d13660dac506c7cbd5a422d70822322806d427d140b062e37e",
          "transactionIndex": "0x15",
          "logIndex": "0x2f",
          "removed": false
        }
      ],
      "logsBloom": "0x00000000000000010000000000000000000000800000000000000000000000000000000000000000800000000000000000000000000000000000000000000000000000000008000020000000000000000000000000000000000000000000000000000000000000000000000000000000000000000000000000000000000000000000000000000000000000000020080000000000000000000000000000000000000000000000000000000001000000000000000008000000000000000000000000000000000000000000000000000000000004000000000000000000000000000000000000000000000000000000000000000000040000000000000000000000",
      "type": "0x2",
      "transactionHash": "0x4b8d332356e119d13660dac506c7cbd5a422d70822322806d427d140b062e37e",
      "transactionIndex": "0x15",
      "blockHash": "0x5a9d952fca835304a0d4d641fa2be3a4c165291e0c089755ca76aac01c9f5ea7",
      "blockNumber": "0x223a3b3",
      "gasUsed": "0xd204",
      "effectiveGasPrice": "0x124f80",
      "blobGasUsed": "0x8880",
      "from": "0x1234562eb0cd65e7d08e59f9f18d7c10b5df232a",
      "to": "0xbe7f8973094b3095615f127ea621fc6d60a7e723",
      "contractAddress": null,
      "daFootprintGasScalar": "0x138",
      "l1BaseFeeScalar": "0x44d",
      "l1BlobBaseFee": "0x1",
      "l1BlobBaseFeeScalar": "0xa118b",
      "l1Fee": "0x18be",
      "l1GasPrice": "0x8",
      "l1GasUsed": "0x702"
    },
    {
      "status": "0x1",
      "cumulativeGasUsed": "0x474905",
      "logs": [
        {
          "address": "0xbe7f8973094b3095615f127ea621fc6d60a7e723",
          "topics": [
            "0x354f0817e377e1e9b2601a5fa1180df29e96ac246a5d02f817a6e3bb4b72a904",
            "0x000000000000000000000000bb6dd87f1fe0483d9ffa90f7a163caf21f40ba6c",
            "0x00000000000000000000000085b8dc34c7af35bac8a45cff53353f39e6f732a2"
          ],
          "data": "0x00000000000000000000000000000000000000000000000000000000000000010000000000000000000000000000000000000000000000000000000000000000",
          "blockHash": "0x5a9d952fca835304a0d4d641fa2be3a4c165291e0c089755ca76aac01c9f5ea7",
          "blockNumber": "0x223a3b3",
          "blockTimestamp": "0x695aa646",
          "transactionHash": "0x97b11c005c287166cfd7d272afb9b2019f65c35b3824d4ac476d194aa35ac461",
          "transactionIndex": "0x16",
          "logIndex": "0x30",
          "removed": false
        }
      ],
      "logsBloom": "0x00000000000000000000000000000000000000000000000000000000000000000000000000000000800040000000000000000000000000000000000000000000000000000018000020000000000000000000000000000000000000000000000000040000000000000000000000000000000000000000000000000000000000000000000000000000008000000020000000040000000000000000000000000000000000000000000000000001000000000000000000000000000000000000000000000000000000000000000000000000000004000000000001000000000000000000000000000000000000000000000000000000000000000000000000000000",
      "type": "0x2",
      "transactionHash": "0x97b11c005c287166cfd7d272afb9b2019f65c35b3824d4ac476d194aa35ac461",
      "transactionIndex": "0x16",
      "blockHash": "0x5a9d952fca835304a0d4d641fa2be3a4c165291e0c089755ca76aac01c9f5ea7",
      "blockNumber": "0x223a3b3",
      "gasUsed": "0xd204",
      "effectiveGasPrice": "0x124f80",
      "blobGasUsed": "0x8880",
      "from": "0x1234562eb0cd65e7d08e59f9f18d7c10b5df232a",
      "to": "0xbe7f8973094b3095615f127ea621fc6d60a7e723",
      "contractAddress": null,
      "daFootprintGasScalar": "0x138",
      "l1BaseFeeScalar": "0x44d",
      "l1BlobBaseFee": "0x1",
      "l1BlobBaseFeeScalar": "0xa118b",
      "l1Fee": "0x18be",
      "l1GasPrice": "0x8",
      "l1GasUsed": "0x702"
    },
    {
      "status": "0x1",
      "cumulativeGasUsed": "0x481b09",
      "logs": [
        {
          "address": "0xbe7f8973094b3095615f127ea621fc6d60a7e723",
          "topics": [
            "0x354f0817e377e1e9b2601a5fa1180df29e96ac246a5d02f817a6e3bb4b72a904",
            "0x000000000000000000000000ce74630446990acf6cd56facbbd6ee908ee55562",
            "0x0000000000000000000000007392e9e58f202da3877776c41683ac457dfd4cd7"
          ],
          "data": "0x00000000000000000000000000000000000000000000000000000000000000010000000000000000000000000000000000000000000000000000000000000000",
          "blockHash": "0x5a9d952fca835304a0d4d641fa2be3a4c165291e0c089755ca76aac01c9f5ea7",
          "blockNumber": "0x223a3b3",
          "blockTimestamp": "0x695aa646",
          "transactionHash": "0xacc6738afc3c56ed8e0dbc11fd5cd09379df60fa532988e92d0d9bc7d059d391",
          "transactionIndex": "0x17",
          "logIndex": "0x31",
          "removed": false
        }
      ],
      "logsBloom": "0x00000000000000000000000000000000000000000000000000000000000000000000000000000000800000000000000000000000000000000000000000000000000000000008000020000000000000000000000000000000000000000000000000000000000000000000000000000000000000000000000000000000000000000000008000000000000000000020000000000000000000000000000000000000000000000000000000000001000000000000000000000000000000000000000000000000001000000000000000000100000004000000000000000000000000000000000000200000000000000000000000000000000008000000004000000000",
      "type": "0x2",
      "transactionHash": "0xacc6738afc3c56ed8e0dbc11fd5cd09379df60fa532988e92d0d9bc7d059d391",
      "transactionIndex": "0x17",
      "blockHash": "0x5a9d952fca835304a0d4d641fa2be3a4c165291e0c089755ca76aac01c9f5ea7",
      "blockNumber": "0x223a3b3",
      "gasUsed": "0xd204",
      "effectiveGasPrice": "0x124f80",
      "blobGasUsed": "0x8880",
      "from": "0x1234562eb0cd65e7d08e59f9f18d7c10b5df232a",
      "to": "0xbe7f8973094b3095615f127ea621fc6d60a7e723",
      "contractAddress": null,
      "daFootprintGasScalar": "0x138",
      "l1BaseFeeScalar": "0x44d",
      "l1BlobBaseFee": "0x1",
      "l1BlobBaseFeeScalar": "0xa118b",
      "l1Fee": "0x18be",
      "l1GasPrice": "0x8",
      "l1GasUsed": "0x702"
    },
    {
      "status": "0x1",
      "cumulativeGasUsed": "0x48ed0d",
      "logs": [
        {
          "address": "0xbe7f8973094b3095615f127ea621fc6d60a7e723",
          "topics": [
            "0x354f0817e377e1e9b2601a5fa1180df29e96ac246a5d02f817a6e3bb4b72a904",
            "0x000000000000000000000000dcc41dee829c1246a936dc5e801cb24303445651",
            "0x0000000000000000000000001fe9a4e25caa2a22fc0b61010fdb0db462fb5b29"
          ],
          "data": "0x00000000000000000000000000000000000000000000000000000000000000010000000000000000000000000000000000000000000000000000000000000000",
          "blockHash": "0x5a9d952fca835304a0d4d641fa2be3a4c165291e0c089755ca76aac01c9f5ea7",
          "blockNumber": "0x223a3b3",
          "blockTimestamp": "0x695aa646",
          "transactionHash": "0xc5cc02d7c4a5702d701f29c5d40b46a37f4be799c25cf930e3398f2ce07971d5",
          "transactionIndex": "0x18",
          "logIndex": "0x32",
          "removed": false
        }
      ],
      "logsBloom": "0x00000000000000000000000000000000000000000000000000008000000000000000000000000000800000000000000000000000000000000000004000000001000000000008000020000080000000000000000000000000000000000000000000000000000000000000000000000000000000000000000000000000000000000000000000000000000000000020000000000000000000000000000000000000000000000000000000000001000000000000000000000000000000000000000000000000000000000000000000000000000004000000000000000000000000000400040000000000000000000000000000000000000000000000000000000000",
      "type": "0x2",
      "transactionHash": "0xc5cc02d7c4a5702d701f29c5d40b46a37f4be799c25cf930e3398f2ce07971d5",
      "transactionIndex": "0x18",
      "blockHash": "0x5a9d952fca835304a0d4d641fa2be3a4c165291e0c089755ca76aac01c9f5ea7",
      "blockNumber": "0x223a3b3",
      "gasUsed": "0xd204",
      "effectiveGasPrice": "0x124f80",
      "blobGasUsed": "0x8880",
      "from": "0x1234562eb0cd65e7d08e59f9f18d7c10b5df232a",
      "to": "0xbe7f8973094b3095615f127ea621fc6d60a7e723",
      "contractAddress": null,
      "daFootprintGasScalar": "0x138",
      "l1BaseFeeScalar": "0x44d",
      "l1BlobBaseFee": "0x1",
      "l1BlobBaseFeeScalar": "0xa118b",
      "l1Fee": "0x18be",
      "l1GasPrice": "0x8",
      "l1GasUsed": "0x702"
    },
    {
      "status": "0x1",
      "cumulativeGasUsed": "0x49bf11",
      "logs": [
        {
          "address": "0xbe7f8973094b3095615f127ea621fc6d60a7e723",
          "topics": [
            "0x354f0817e377e1e9b2601a5fa1180df29e96ac246a5d02f817a6e3bb4b72a904",
            "0x0000000000000000000000008f5816ca88ed2775305b154625744e36943cc750",
            "0x0000000000000000000000005e1e8043381f3a21a1a64f46073daf7e74fedc1e"
          ],
          "data": "0x00000000000000000000000000000000000000000000000000000000000000010000000000000000000000000000000000000000000000000000000000000000",
          "blockHash": "0x5a9d952fca835304a0d4d641fa2be3a4c165291e0c089755ca76aac01c9f5ea7",
          "blockNumber": "0x223a3b3",
          "blockTimestamp": "0x695aa646",
          "transactionHash": "0x7a0a9b51e7dd803d95e6dfd715b58f2688efadd89941a011059505b69ddc3a4b",
          "transactionIndex": "0x19",
          "logIndex": "0x33",
          "removed": false
        }
      ],
      "logsBloom": "0x00000000000000000000000000000000000000001000000000000000000000000000000000000000800000000000000000000000000000000000000000000000000000000008040020000000000000000000000000000040000000000000000000000000000000000000000000000000000000000000000000000000000000000000000000000000000000000020000000000000000000000000000000000000000000000000000000000001000000000000080000000000000000000000000000000020000000000000000000000000000004000000000000000000000000000000000000000000000000000000000001000000000000000000000000000000",
      "type": "0x2",
      "transactionHash": "0x7a0a9b51e7dd803d95e6dfd715b58f2688efadd89941a011059505b69ddc3a4b",
      "transactionIndex": "0x19",
      "blockHash": "0x5a9d952fca835304a0d4d641fa2be3a4c165291e0c089755ca76aac01c9f5ea7",
      "blockNumber": "0x223a3b3",
      "gasUsed": "0xd204",
      "effectiveGasPrice": "0x124f80",
      "blobGasUsed": "0x8880",
      "from": "0x1234562eb0cd65e7d08e59f9f18d7c10b5df232a",
      "to": "0xbe7f8973094b3095615f127ea621fc6d60a7e723",
      "contractAddress": null,
      "daFootprintGasScalar": "0x138",
      "l1BaseFeeScalar": "0x44d",
      "l1BlobBaseFee": "0x1",
      "l1BlobBaseFeeScalar": "0xa118b",
      "l1Fee": "0x18be",
      "l1GasPrice": "0x8",
      "l1GasUsed": "0x702"
    },
    {
      "status": "0x1",
      "cumulativeGasUsed": "0x4a9115",
      "logs": [
        {
          "address": "0xbe7f8973094b3095615f127ea621fc6d60a7e723",
          "topics": [
            "0x354f0817e377e1e9b2601a5fa1180df29e96ac246a5d02f817a6e3bb4b72a904",
            "0x0000000000000000000000002bb55f68fb05de13b04e5a2cadbae5a05bce277b",
            "0x00000000000000000000000006c1e044d5beb614faa6128001f519e6c693a044"
          ],
          "data": "0x00000000000000000000000000000000000000000000000000000000000000010000000000000000000000000000000000000000000000000000000000000000",
          "blockHash": "0x5a9d952fca835304a0d4d641fa2be3a4c165291e0c089755ca76aac01c9f5ea7",
          "blockNumber": "0x223a3b3",
          "blockTimestamp": "0x695aa646",
          "transactionHash": "0xc5e373b25860861c3f2286408b67f090442858c8075f7dad14e5f890ddf16894",
          "transactionIndex": "0x1a",
          "logIndex": "0x34",
          "removed": false
        }
      ],
      "logsBloom": "0x00000000000000010000000000000004000000800000000000000000000000000000000000000000800000000000000000000000000000000000000000000000000000000008000020000000000000000000000000000000000000000000000000000000000000000000000000000000000000000001000000000000000000000000000000000000000000000020000000000000000000000000000000000000000000000000000000000001000000000000000000000000000000000000000000000000000000000000000000000000000004000000000000002000000000000000000000000000000000000000000000000000040000000000000000000000",
      "type": "0x2",
      "transactionHash": "0xc5e373b25860861c3f2286408b67f090442858c8075f7dad14e5f890ddf16894",
      "transactionIndex": "0x1a",
      "blockHash": "0x5a9d952fca835304a0d4d641fa2be3a4c165291e0c089755ca76aac01c9f5ea7",
      "blockNumber": "0x223a3b3",
      "gasUsed": "0xd204",
      "effectiveGasPrice": "0x124f80",
      "blobGasUsed": "0x8880",
      "from": "0x1234562eb0cd65e7d08e59f9f18d7c10b5df232a",
      "to": "0xbe7f8973094b3095615f127ea621fc6d60a7e723",
      "contractAddress": null,
      "daFootprintGasScalar": "0x138",
      "l1BaseFeeScalar": "0x44d",
      "l1BlobBaseFee": "0x1",
      "l1BlobBaseFeeScalar": "0xa118b",
      "l1Fee": "0x18be",
      "l1GasPrice": "0x8",
      "l1GasUsed": "0x702"
    },
    {
      "status": "0x1",
      "cumulativeGasUsed": "0x4b6319",
      "logs": [
        {
          "address": "0xbe7f8973094b3095615f127ea621fc6d60a7e723",
          "topics": [
            "0x354f0817e377e1e9b2601a5fa1180df29e96ac246a5d02f817a6e3bb4b72a904",
            "0x000000000000000000000000a022fd1966577144fcb5ed8ad5a134861ae5e138",
            "0x00000000000000000000000085b8dc34c7af35bac8a45cff53353f39e6f732a2"
          ],
          "data": "0x00000000000000000000000000000000000000000000000000000000000000010000000000000000000000000000000000000000000000000000000000000000",
          "blockHash": "0x5a9d952fca835304a0d4d641fa2be3a4c165291e0c089755ca76aac01c9f5ea7",
          "blockNumber": "0x223a3b3",
          "blockTimestamp": "0x695aa646",
          "transactionHash": "0x1c09545c3afbdea34e4c0b17b40bcd88579deec0be7b76c553a88e62cb557934",
          "transactionIndex": "0x1b",
          "logIndex": "0x35",
          "removed": false
        }
      ],
      "logsBloom": "0x00000000000000000000000000000000000000000000000000000000000000000000000000000000800000000000000000000000000000000000000000000000000000000008000020000000000000000000000000000000000000010000000000040000000000000000000000000000000000000000000000000000000000000000000000000000000000000020000080040000000000000000000000000000000000000000000000000001000000000000000000000000000000000000000000000000000000000000000000000008000004000000000001000000000000000000000000000000000000000000000000000000000000000000000000000000",
      "type": "0x2",
      "transactionHash": "0x1c09545c3afbdea34e4c0b17b40bcd88579deec0be7b76c553a88e62cb557934",
      "transactionIndex": "0x1b",
      "blockHash": "0x5a9d952fca835304a0d4d641fa2be3a4c165291e0c089755ca76aac01c9f5ea7",
      "blockNumber": "0x223a3b3",
      "gasUsed": "0xd204",
      "effectiveGasPrice": "0x124f80",
      "blobGasUsed": "0x8880",
      "from": "0x1234562eb0cd65e7d08e59f9f18d7c10b5df232a",
      "to": "0xbe7f8973094b3095615f127ea621fc6d60a7e723",
      "contractAddress": null,
      "daFootprintGasScalar": "0x138",
      "l1BaseFeeScalar": "0x44d",
      "l1BlobBaseFee": "0x1",
      "l1BlobBaseFeeScalar": "0xa118b",
      "l1Fee": "0x18be",
      "l1GasPrice": "0x8",
      "l1GasUsed": "0x702"
    },
    {
      "status": "0x1",
      "cumulativeGasUsed": "0x4c351d",
      "logs": [
        {
          "address": "0xbe7f8973094b3095615f127ea621fc6d60a7e723",
          "topics": [
            "0x354f0817e377e1e9b2601a5fa1180df29e96ac246a5d02f817a6e3bb4b72a904",
            "0x000000000000000000000000ec4c46f46191d77c3d8ba3ddfafe71b58e2089af",
            "0x0000000000000000000000007392e9e58f202da3877776c41683ac457dfd4cd7"
          ],
          "data": "0x00000000000000000000000000000000000000000000000000000000000000010000000000000000000000000000000000000000000000000000000000000000",
          "blockHash": "0x5a9d952fca835304a0d4d641fa2be3a4c165291e0c089755ca76aac01c9f5ea7",
          "blockNumber": "0x223a3b3",
          "blockTimestamp": "0x695aa646",
          "transactionHash": "0x74224eff53dcfffd3d1b9bfcef6cf05cc1a99cf5be1834cb81b0e3e41293a7bd",
          "transactionIndex": "0x1c",
          "logIndex": "0x36",
          "removed": false
        }
      ],
      "logsBloom": "0x00000000000020000000000000000000000000000000000000000001000000000000000000000000800000000000000000000000000000000000000000000000000000000008000020000000000000000000000000000000000000000000000000000000000000000000000000000000000000000000000000000000000000000000000000000000000000000020000000000000000000000000000000000000000000000000000000000001000000000000000000000000000000000000000000000400001000000000000000000100000004000000000000000000000000000000000000000000000000000000000000000000000000000000004000000000",
      "type": "0x2",
      "transactionHash": "0x74224eff53dcfffd3d1b9bfcef6cf05cc1a99cf5be1834cb81b0e3e41293a7bd",
      "transactionIndex": "0x1c",
      "blockHash": "0x5a9d952fca835304a0d4d641fa2be3a4c165291e0c089755ca76aac01c9f5ea7",
      "blockNumber": "0x223a3b3",
      "gasUsed": "0xd204",
      "effectiveGasPrice": "0x124f80",
      "blobGasUsed": "0x8880",
      "from": "0x1234562eb0cd65e7d08e59f9f18d7c10b5df232a",
      "to": "0xbe7f8973094b3095615f127ea621fc6d60a7e723",
      "contractAddress": null,
      "daFootprintGasScalar": "0x138",
      "l1BaseFeeScalar": "0x44d",
      "l1BlobBaseFee": "0x1",
      "l1BlobBaseFeeScalar": "0xa118b",
      "l1Fee": "0x18be",
      "l1GasPrice": "0x8",
      "l1GasUsed": "0x702"
    },
    {
      "status": "0x1",
      "cumulativeGasUsed": "0x4d0721",
      "logs": [
        {
          "address": "0xbe7f8973094b3095615f127ea621fc6d60a7e723",
          "topics": [
            "0x354f0817e377e1e9b2601a5fa1180df29e96ac246a5d02f817a6e3bb4b72a904",
            "0x000000000000000000000000e47eba0dbf716d99482fb071ca04adf4fccd6b1f",
            "0x0000000000000000000000001fe9a4e25caa2a22fc0b61010fdb0db462fb5b29"
          ],
          "data": "0x00000000000000000000000000000000000000000000000000000000000000010000000000000000000000000000000000000000000000000000000000000000",
          "blockHash": "0x5a9d952fca835304a0d4d641fa2be3a4c165291e0c089755ca76aac01c9f5ea7",
          "blockNumber": "0x223a3b3",
          "blockTimestamp": "0x695aa646",
          "transactionHash": "0x6ec46d1b477555c19428eff81fc02f1fbaea9d20ece8b5dbe99027c3dc3a763f",
          "transactionIndex": "0x1d",
          "logIndex": "0x37",
          "removed": false
        }
      ],
      "logsBloom": "0x00000000000000000000000000000000000000000000000000008000000000000000000000000000800000004002000000000000000000000000000000000001000000000008000020000080800000000000000000000000000000000000000000000000000000000000000000000000000000000000000000000000000000000000000000000000000000000020000000000000000000000000000000000000000000000000000000000001000000000000000000000000000000000000000000000000000000000000000000000000000004000000000000000000000000000000000000000000000000000000000000000000000000000000000000000000",
      "type": "0x2",
      "transactionHash": "0x6ec46d1b477555c19428eff81fc02f1fbaea9d20ece8b5dbe99027c3dc3a763f",
      "transactionIndex": "0x1d",
      "blockHash": "0x5a9d952fca835304a0d4d641fa2be3a4c165291e0c089755ca76aac01c9f5ea7",
      "blockNumber": "0x223a3b3",
      "gasUsed": "0xd204",
      "effectiveGasPrice": "0x124f80",
      "blobGasUsed": "0x8880",
      "from": "0x1234562eb0cd65e7d08e59f9f18d7c10b5df232a",
      "to": "0xbe7f8973094b3095615f127ea621fc6d60a7e723",
      "contractAddress": null,
      "daFootprintGasScalar": "0x138",
      "l1BaseFeeScalar": "0x44d",
      "l1BlobBaseFee": "0x1",
      "l1BlobBaseFeeScalar": "0xa118b",
      "l1Fee": "0x18be",
      "l1GasPrice": "0x8",
      "l1GasUsed": "0x702"
    },
    {
      "status": "0x1",
      "cumulativeGasUsed": "0x4dd925",
      "logs": [
        {
          "address": "0xbe7f8973094b3095615f127ea621fc6d60a7e723",
          "topics": [
            "0x354f0817e377e1e9b2601a5fa1180df29e96ac246a5d02f817a6e3bb4b72a904",
            "0x0000000000000000000000004e3a466bba553ace4cd3a6149d574f3f034b5269",
            "0x0000000000000000000000005e1e8043381f3a21a1a64f46073daf7e74fedc1e"
          ],
          "data": "0x00000000000000000000000000000000000000000000000000000000000000010000000000000000000000000000000000000000000000000000000000000000",
          "blockHash": "0x5a9d952fca835304a0d4d641fa2be3a4c165291e0c089755ca76aac01c9f5ea7",
          "blockNumber": "0x223a3b3",
          "blockTimestamp": "0x695aa646",
          "transactionHash": "0xc33eff2c841565d3eb289d426cc86b93fd55521c8b5400f5c88b1dd909538977",
          "transactionIndex": "0x1e",
          "logIndex": "0x38",
          "removed": false
        }
      ],
      "logsBloom": "0x00000000000000000000000000000000000000000000000000000000000000000000000000000000800000000000000000000000000000000000000000000000000000000008040020000000000000000000000000000000000000000010000000200000000000000000000000000000000000000000000000000000000000000000000000000000000000000020000000000000000000000000000000000000000000000000000000000001000000000000000001000000000000000000000000000020000000000000000000000000000004000000000000000000000000000000000000000000000000000000000001000000000000000000000000000000",
      "type": "0x2",
      "transactionHash": "0xc33eff2c841565d3eb289d426cc86b93fd55521c8b5400f5c88b1dd909538977",
      "transactionIndex": "0x1e",
      "blockHash": "0x5a9d952fca835304a0d4d641fa2be3a4c165291e0c089755ca76aac01c9f5ea7",
      "blockNumber": "0x223a3b3",
      "gasUsed": "0xd204",
      "effectiveGasPrice": "0x124f80",
      "blobGasUsed": "0x8880",
      "from": "0x1234562eb0cd65e7d08e59f9f18d7c10b5df232a",
      "to": "0xbe7f8973094b3095615f127ea621fc6d60a7e723",
      "contractAddress": null,
      "daFootprintGasScalar": "0x138",
      "l1BaseFeeScalar": "0x44d",
      "l1BlobBaseFee": "0x1",
      "l1BlobBaseFeeScalar": "0xa118b",
      "l1Fee": "0x18be",
      "l1GasPrice": "0x8",
      "l1GasUsed": "0x702"
    },
    {
      "status": "0x1",
      "cumulativeGasUsed": "0x4eab29",
      "logs": [
        {
          "address": "0xbe7f8973094b3095615f127ea621fc6d60a7e723",
          "topics": [
            "0x354f0817e377e1e9b2601a5fa1180df29e96ac246a5d02f817a6e3bb4b72a904",
            "0x000000000000000000000000751a0e0147d10b8c21804ac88dcfa6837312ea35",
            "0x00000000000000000000000006c1e044d5beb614faa6128001f519e6c693a044"
          ],
          "data": "0x00000000000000000000000000000000000000000000000000000000000000010000000000000000000000000000000000000000000000000000000000000000",
          "blockHash": "0x5a9d952fca835304a0d4d641fa2be3a4c165291e0c089755ca76aac01c9f5ea7",
          "blockNumber": "0x223a3b3",
          "blockTimestamp": "0x695aa646",
          "transactionHash": "0x6a05c26cd934e457dd33938caa74b0f5d047d91a58edfe9b1a0a1fb42fdc4b55",
          "transactionIndex": "0x1f",
          "logIndex": "0x39",
          "removed": false
        }
      ],
      "logsBloom": "0x00000000000000010000000000000000000000800000000000000000000000000000040000000000800000000000000000000000000000000000000000000000000000000008000020000000000000000000000000000000000000000000000000001000000000000000000000000000000000000400000000000000000000000000000000000000000000000020000000000000000000000000000000000000000000000000000000000001000000000000000000000000000000000000000000000000000000000000000000000000000004000000000000000000000000000000000000000000000000000000000000000000040000000000000000000000",
      "type": "0x2",
      "transactionHash": "0x6a05c26cd934e457dd33938caa74b0f5d047d91a58edfe9b1a0a1fb42fdc4b55",
      "transactionIndex": "0x1f",
      "blockHash": "0x5a9d952fca835304a0d4d641fa2be3a4c165291e0c089755ca76aac01c9f5ea7",
      "blockNumber": "0x223a3b3",
      "gasUsed": "0xd204",
      "effectiveGasPrice": "0x124f80",
      "blobGasUsed": "0x8880",
      "from": "0x1234562eb0cd65e7d08e59f9f18d7c10b5df232a",
      "to": "0xbe7f8973094b3095615f127ea621fc6d60a7e723",
      "contractAddress": null,
      "daFootprintGasScalar": "0x138",
      "l1BaseFeeScalar": "0x44d",
      "l1BlobBaseFee": "0x1",
      "l1BlobBaseFeeScalar": "0xa118b",
      "l1Fee": "0x18be",
      "l1GasPrice": "0x8",
      "l1GasUsed": "0x702"
    },
    {
      "status": "0x1",
      "cumulativeGasUsed": "0x4f7d2d",
      "logs": [
        {
          "address": "0xbe7f8973094b3095615f127ea621fc6d60a7e723",
          "topics": [
            "0x354f0817e377e1e9b2601a5fa1180df29e96ac246a5d02f817a6e3bb4b72a904",
            "0x000000000000000000000000d8d362badb84cc1f97a00273ddc8845fd4148c80",
            "0x00000000000000000000000085b8dc34c7af35bac8a45cff53353f39e6f732a2"
          ],
          "data": "0x00000000000000000000000000000000000000000000000000000000000000010000000000000000000000000000000000000000000000000000000000000000",
          "blockHash": "0x5a9d952fca835304a0d4d641fa2be3a4c165291e0c089755ca76aac01c9f5ea7",
          "blockNumber": "0x223a3b3",
          "blockTimestamp": "0x695aa646",
          "transactionHash": "0x33063d3291dbc47de2fbf9283669f015d563b728836db8d121ca54acf33a7592",
          "transactionIndex": "0x20",
          "logIndex": "0x3a",
          "removed": false
        }
      ],
      "logsBloom": "0x00000000000000000000000000000000000000000000000000000000000000000000000000000000800000000000000000000000000000000000000000000000000002000008000020000000000000000000000000000000000000000000000000040000000000000400000000000000000000000000000000000000000000000000000000000000000000000020000000040000000000000000000000000000000000000000000000000001000000000000000000000000000000000000000000000000000000000000000000000000000004000000000001000000000000000000000000200000000000000000000000000000000000000000000000000000",
      "type": "0x2",
      "transactionHash": "0x33063d3291dbc47de2fbf9283669f015d563b728836db8d121ca54acf33a7592",
      "transactionIndex": "0x20",
      "blockHash": "0x5a9d952fca835304a0d4d641fa2be3a4c165291e0c089755ca76aac01c9f5ea7",
      "blockNumber": "0x223a3b3",
      "gasUsed": "0xd204",
      "effectiveGasPrice": "0x124f80",
      "blobGasUsed": "0x8880",
      "from": "0x1234562eb0cd65e7d08e59f9f18d7c10b5df232a",
      "to": "0xbe7f8973094b3095615f127ea621fc6d60a7e723",
      "contractAddress": null,
      "daFootprintGasScalar": "0x138",
      "l1BaseFeeScalar": "0x44d",
      "l1BlobBaseFee": "0x1",
      "l1BlobBaseFeeScalar": "0xa118b",
      "l1Fee": "0x18be",
      "l1GasPrice": "0x8",
      "l1GasUsed": "0x702"
    },
    {
      "status": "0x1",
      "cumulativeGasUsed": "0x504f31",
      "logs": [
        {
          "address": "0xbe7f8973094b3095615f127ea621fc6d60a7e723",
          "topics": [
            "0x354f0817e377e1e9b2601a5fa1180df29e96ac246a5d02f817a6e3bb4b72a904",
            "0x0000000000000000000000001061473a78f6eb0a0bcbde060a5eea9d4273bb59",
            "0x0000000000000000000000007392e9e58f202da3877776c41683ac457dfd4cd7"
          ],
          "data": "0x00000000000000000000000000000000000000000000000000000000000000010000000000000000000000000000000000000000000000000000000000000000",
          "blockHash": "0x5a9d952fca835304a0d4d641fa2be3a4c165291e0c089755ca76aac01c9f5ea7",
          "blockNumber": "0x223a3b3",
          "blockTimestamp": "0x695aa646",
          "transactionHash": "0x3cfbed01cb1a995ab0084259b72fd4d70023b00430efe0430f36429044e68d51",
          "transactionIndex": "0x21",
          "logIndex": "0x3b",
          "removed": false
        }
      ],
      "logsBloom": "0x00000000000000000000000000000000000000000000000000000000000000000000000000000000800000000000000000000000000000000000000000000000000000000008000020000000000000000002000000000000000000000000000000000000000000000000000000000000000000000000000000000000000000000000000000000000000000000020000000000000000000000000000000000080000000000000000000000001000000000000000000000000000000000000000000000000001000000000000000000100000004000000000000000100000000000000000000000000000000000000000000000000000000000000004000000000",
      "type": "0x2",
      "transactionHash": "0x3cfbed01cb1a995ab0084259b72fd4d70023b00430efe0430f36429044e68d51",
      "transactionIndex": "0x21",
      "blockHash": "0x5a9d952fca835304a0d4d641fa2be3a4c165291e0c089755ca76aac01c9f5ea7",
      "blockNumber": "0x223a3b3",
      "gasUsed": "0xd204",
      "effectiveGasPrice": "0x124f80",
      "blobGasUsed": "0x8880",
      "from": "0x1234562eb0cd65e7d08e59f9f18d7c10b5df232a",
      "to": "0xbe7f8973094b3095615f127ea621fc6d60a7e723",
      "contractAddress": null,
      "daFootprintGasScalar": "0x138",
      "l1BaseFeeScalar": "0x44d",
      "l1BlobBaseFee": "0x1",
      "l1BlobBaseFeeScalar": "0xa118b",
      "l1Fee": "0x18be",
      "l1GasPrice": "0x8",
      "l1GasUsed": "0x702"
    },
    {
      "status": "0x1",
      "cumulativeGasUsed": "0x512135",
      "logs": [
        {
          "address": "0xbe7f8973094b3095615f127ea621fc6d60a7e723",
          "topics": [
            "0x354f0817e377e1e9b2601a5fa1180df29e96ac246a5d02f817a6e3bb4b72a904",
            "0x000000000000000000000000824fb936d24b2baaf92fe87fd65ff22d01439ece",
            "0x0000000000000000000000001fe9a4e25caa2a22fc0b61010fdb0db462fb5b29"
          ],
          "data": "0x00000000000000000000000000000000000000000000000000000000000000010000000000000000000000000000000000000000000000000000000000000000",
          "blockHash": "0x5a9d952fca835304a0d4d641fa2be3a4c165291e0c089755ca76aac01c9f5ea7",
          "blockNumber": "0x223a3b3",
          "blockTimestamp": "0x695aa646",
          "transactionHash": "0x565fabe8a7a6583eecb4e9cf6013b0f87c29aedd4d40ff5b76281ef10d10ef0b",
          "transactionIndex": "0x22",
          "logIndex": "0x3c",
          "removed": false
        }
      ],
      "logsBloom": "0x00000000000000000000000000000000000000000000000000008000000000000000000000000000800000000000000000000000000000000000000000000001000000000008000020000080000000000000000000000000002000000000000000000000000000000000000000000000000000000000000000000000000000000000000000000000000000008020000000000000000000000000000000000000000000000000000000000001000000000000000000000000000000080000000000000000000000000000000000000000000004000000000000000000000000000000000000000000000000000000000000000000000000000000000000000000",
      "type": "0x2",
      "transactionHash": "0x565fabe8a7a6583eecb4e9cf6013b0f87c29aedd4d40ff5b76281ef10d10ef0b",
      "transactionIndex": "0x22",
      "blockHash": "0x5a9d952fca835304a0d4d641fa2be3a4c165291e0c089755ca76aac01c9f5ea7",
      "blockNumber": "0x223a3b3",
      "gasUsed": "0xd204",
      "effectiveGasPrice": "0x124f80",
      "blobGasUsed": "0x8880",
      "from": "0x1234562eb0cd65e7d08e59f9f18d7c10b5df232a",
      "to": "0xbe7f8973094b3095615f127ea621fc6d60a7e723",
      "contractAddress": null,
      "daFootprintGasScalar": "0x138",
      "l1BaseFeeScalar": "0x44d",
      "l1BlobBaseFee": "0x1",
      "l1BlobBaseFeeScalar": "0xa118b",
      "l1Fee": "0x18be",
      "l1GasPrice": "0x8",
      "l1GasUsed": "0x702"
    },
    {
      "status": "0x1",
      "cumulativeGasUsed": "0x51f339",
      "logs": [
        {
          "address": "0xbe7f8973094b3095615f127ea621fc6d60a7e723",
          "topics": [
            "0x354f0817e377e1e9b2601a5fa1180df29e96ac246a5d02f817a6e3bb4b72a904",
            "0x000000000000000000000000012bd7cd0acc8cb696306b1ab7a537e85ef2056f",
            "0x0000000000000000000000005e1e8043381f3a21a1a64f46073daf7e74fedc1e"
          ],
          "data": "0x00000000000000000000000000000000000000000000000000000000000000010000000000000000000000000000000000000000000000000000000000000000",
          "blockHash": "0x5a9d952fca835304a0d4d641fa2be3a4c165291e0c089755ca76aac01c9f5ea7",
          "blockNumber": "0x223a3b3",
          "blockTimestamp": "0x695aa646",
          "transactionHash": "0x57193d3f78575c83f1114159f7f6448c3282548fcf49e7df1619ae415b607e71",
          "transactionIndex": "0x23",
          "logIndex": "0x3d",
          "removed": false
        }
      ],
      "logsBloom": "0x00000000000000000000000000000000000000000000000000000000000000000000000000000000800000000000000000000000000000000000000100000000000000000008040020000000000000000000000000000000000000000000000000000000000000000000000000000004000000000000000000000000000000000000000000000000000000000020000000000000000000000000000000000000000000000000000000000001000000000000000000000000000000000000000000000020000000000000000000000000000004000000000000000000000000000004000000000000000000000000000001000000000000000000000000000000",
      "type": "0x2",
      "transactionHash": "0x57193d3f78575c83f1114159f7f6448c3282548fcf49e7df1619ae415b607e71",
      "transactionIndex": "0x23",
      "blockHash": "0x5a9d952fca835304a0d4d641fa2be3a4c165291e0c089755ca76aac01c9f5ea7",
      "blockNumber": "0x223a3b3",
      "gasUsed": "0xd204",
      "effectiveGasPrice": "0x124f80",
      "blobGasUsed": "0x8748",
      "from": "0x1234562eb0cd65e7d08e59f9f18d7c10b5df232a",
      "to": "0xbe7f8973094b3095615f127ea621fc6d60a7e723",
      "contractAddress": null,
      "daFootprintGasScalar": "0x138",
      "l1BaseFeeScalar": "0x44d",
      "l1BlobBaseFee": "0x1",
      "l1BlobBaseFeeScalar": "0xa118b",
      "l1Fee": "0x18be",
      "l1GasPrice": "0x8",
      "l1GasUsed": "0x6f5"
    },
    {
      "status": "0x1",
      "cumulativeGasUsed": "0x52c53d",
      "logs": [
        {
          "address": "0xbe7f8973094b3095615f127ea621fc6d60a7e723",
          "topics": [
            "0x354f0817e377e1e9b2601a5fa1180df29e96ac246a5d02f817a6e3bb4b72a904",
            "0x0000000000000000000000004d8346f2f33ffbc7fa2e46becf83c978943e69c8",
            "0x00000000000000000000000006c1e044d5beb614faa6128001f519e6c693a044"
          ],
          "data": "0x00000000000000000000000000000000000000000000000000000000000000010000000000000000000000000000000000000000000000000000000000000000",
          "blockHash": "0x5a9d952fca835304a0d4d641fa2be3a4c165291e0c089755ca76aac01c9f5ea7",
          "blockNumber": "0x223a3b3",
          "blockTimestamp": "0x695aa646",
          "transactionHash": "0xd6a65094900a2f96b2e232689b2867fcb4c49881f8a243accc278e672e9147de",
          "transactionIndex": "0x24",
          "logIndex": "0x3e",
          "removed": false
        }
      ],
      "logsBloom": "0x00000000000000010000000000000000000000800000000000000000000000000000000000000000800000000000000000000000000000000000000000000000000000000008000020000000000000000000000000000000000000000000000004000000000000000000000000000000000000000000000000000000000000000000000000000000000000000020000000000000000000000000000010000000000000000000000000000001000000000000000000000000000000000000000000000000000000001000000000000000000004000000000000000000000000000000000000000000000000000000000000000000040000000000000000000000",
      "type": "0x2",
      "transactionHash": "0xd6a65094900a2f96b2e232689b2867fcb4c49881f8a243accc278e672e9147de",
      "transactionIndex": "0x24",
      "blockHash": "0x5a9d952fca835304a0d4d641fa2be3a4c165291e0c089755ca76aac01c9f5ea7",
      "blockNumber": "0x223a3b3",
      "gasUsed": "0xd204",
      "effectiveGasPrice": "0x124f80",
      "blobGasUsed": "0x8880",
      "from": "0x1234562eb0cd65e7d08e59f9f18d7c10b5df232a",
      "to": "0xbe7f8973094b3095615f127ea621fc6d60a7e723",
      "contractAddress": null,
      "daFootprintGasScalar": "0x138",
      "l1BaseFeeScalar": "0x44d",
      "l1BlobBaseFee": "0x1",
      "l1BlobBaseFeeScalar": "0xa118b",
      "l1Fee": "0x18be",
      "l1GasPrice": "0x8",
      "l1GasUsed": "0x702"
    },
    {
      "status": "0x1",
      "cumulativeGasUsed": "0x539741",
      "logs": [
        {
          "address": "0xbe7f8973094b3095615f127ea621fc6d60a7e723",
          "topics": [
            "0x354f0817e377e1e9b2601a5fa1180df29e96ac246a5d02f817a6e3bb4b72a904",
            "0x0000000000000000000000002db087d43fc8402ade0706807d32d6ef72411ebd",
            "0x00000000000000000000000085b8dc34c7af35bac8a45cff53353f39e6f732a2"
          ],
          "data": "0x00000000000000000000000000000000000000000000000000000000000000010000000000000000000000000000000000000000000000000000000000000000",
          "blockHash": "0x5a9d952fca835304a0d4d641fa2be3a4c165291e0c089755ca76aac01c9f5ea7",
          "blockNumber": "0x223a3b3",
          "blockTimestamp": "0x695aa646",
          "transactionHash": "0x2c7875c12d7ea1aec801bd334643ce3a15d921db189d8bd6a4cb211c4ff55661",
          "transactionIndex": "0x25",
          "logIndex": "0x3f",
          "removed": false
        }
      ],
      "logsBloom": "0x00000000000000000000000000000000000000000000000000000000000000000000000000000000800000000000000000000000000000000000000000000000000000000008000020000000000000000100000000000000000000000000000000040000000000000000000000000000000000000000000000000000000000000000000000000000000000000020000000040000040000000000000000000000000000000000000000000001000000000000000000000000000000000000000000000000000000000000000000002000000004000000000001000000000000000000000000000000000000000000000000000000000000000000000000000000",
      "type": "0x2",
      "transactionHash": "0x2c7875c12d7ea1aec801bd334643ce3a15d921db189d8bd6a4cb211c4ff55661",
      "transactionIndex": "0x25",
      "blockHash": "0x5a9d952fca835304a0d4d641fa2be3a4c165291e0c089755ca76aac01c9f5ea7",
      "blockNumber": "0x223a3b3",
      "gasUsed": "0xd204",
      "effectiveGasPrice": "0x124f80",
      "blobGasUsed": "0x8880",
      "from": "0x1234562eb0cd65e7d08e59f9f18d7c10b5df232a",
      "to": "0xbe7f8973094b3095615f127ea621fc6d60a7e723",
      "contractAddress": null,
      "daFootprintGasScalar": "0x138",
      "l1BaseFeeScalar": "0x44d",
      "l1BlobBaseFee": "0x1",
      "l1BlobBaseFeeScalar": "0xa118b",
      "l1Fee": "0x18be",
      "l1GasPrice": "0x8",
      "l1GasUsed": "0x702"
    },
    {
      "status": "0x1",
      "cumulativeGasUsed": "0x546945",
      "logs": [
        {
          "address": "0xbe7f8973094b3095615f127ea621fc6d60a7e723",
          "topics": [
            "0x354f0817e377e1e9b2601a5fa1180df29e96ac246a5d02f817a6e3bb4b72a904",
            "0x000000000000000000000000d14bd87b18da3ec84a9e098df1c808d9cb7a9852",
            "0x0000000000000000000000007392e9e58f202da3877776c41683ac457dfd4cd7"
          ],
          "data": "0x00000000000000000000000000000000000000000000000000000000000000010000000000000000000000000000000000000000000000000000000000000000",
          "blockHash": "0x5a9d952fca835304a0d4d641fa2be3a4c165291e0c089755ca76aac01c9f5ea7",
          "blockNumber": "0x223a3b3",
          "blockTimestamp": "0x695aa646",
          "transactionHash": "0xd9a3d2cc791f1415bd2914a271a18a408f0e9e3ab19625aaa0538574cfdaeba2",
          "transactionIndex": "0x26",
          "logIndex": "0x40",
          "removed": false
        }
      ],
      "logsBloom": "0x00000000000000000000000000000000000000000000000000000000000000000000000000000000800000000000000000000000000000000000000000000000000000000008000020000000000000000000000000000000000000000000000000000000000000000000000000000000000000000000000000000000000000000000000000000000000000000020000000000000000000000000000000000000000000000000000000000001000000002000000000000000000000000000000000000000001000000000000000000100000004000000000000000000000000000000000004000000000000800000000000000000000000000000004000000000",
      "type": "0x2",
      "transactionHash": "0xd9a3d2cc791f1415bd2914a271a18a408f0e9e3ab19625aaa0538574cfdaeba2",
      "transactionIndex": "0x26",
      "blockHash": "0x5a9d952fca835304a0d4d641fa2be3a4c165291e0c089755ca76aac01c9f5ea7",
      "blockNumber": "0x223a3b3",
      "gasUsed": "0xd204",
      "effectiveGasPrice": "0x124f80",
      "blobGasUsed": "0x8880",
      "from": "0x1234562eb0cd65e7d08e59f9f18d7c10b5df232a",
      "to": "0xbe7f8973094b3095615f127ea621fc6d60a7e723",
      "contractAddress": null,
      "daFootprintGasScalar": "0x138",
      "l1BaseFeeScalar": "0x44d",
      "l1BlobBaseFee": "0x1",
      "l1BlobBaseFeeScalar": "0xa118b",
      "l1Fee": "0x18be",
      "l1GasPrice": "0x8",
      "l1GasUsed": "0x702"
    }
  ],
  "libraries": [],
  "pending": [],
  "returns": {},
  "timestamp": 1767548503871,
  "chain": 84532,
  "commit": "cd2a7c9"
}