{
  "transactions": [
    {
      "hash": "0x6ba3fa11b7b7b4fae07908696d895ef825858ae3e0928d37b6883f670e656d2b",
      "transactionType": "CREATE",
      "contractName": "KubiStreamerDonation",
      "contractAddress": "0xe938d69b23ff0e8ef24442736ecc6ec324022eab",
      "function": null,
      "arguments": [
        "0x1689E7B1F10000AE47eBfE339a4f69dECd19F602",
        "0x1234b50310fF79958509d1a9C8a92458ED1496D1",
        "250",
        "0x123454Ce54DEBE2cEbCe95740E9e0f65DFf9DBE2"
      ],
      "transaction": {
        "from": "0x1234562eb0cd65e7d08e59f9f18d7c10b5df232a",
        "gas": "0x69f995",
        "value": "0x0",
        "input": "0x60e060405260018055348015610013575f5ffd5b506040516163ce3803806163ce83398181016040528101906100359190610498565b335f5f6101000a81548173ffffffffffffffffffffffffffffffffffffffff021916908373ffffffffffffffffffffffffffffffffffffffff1602179055503373ffffffffffffffffffffffffffffffffffffffff165f73ffffffffffffffffffffffffffffffffffffffff167f8be0079c531659141344cd1fd0a4f28419497f9722a3daafe3b4186f6b6457e060405160405180910390a35f73ffffffffffffffffffffffffffffffffffffffff168473ffffffffffffffffffffffffffffffffffffffff16148061013357505f73ffffffffffffffffffffffffffffffffffffffff168373ffffffffffffffffffffffffffffffffffffffff16145b8061016957505f73ffffffffffffffffffffffffffffffffffffffff168173ffffffffffffffffffffffffffffffffffffffff16145b156101a0576040517fd92e233d00000000000000000000000000000000000000000000000000000000815260040160405180910390fd5b6103e861ffff168261ffff1611156101e4576040517fcd4e616700000000000000000000000000000000000000000000000000000000815260040160405180910390fd5b5f8490508073ffffffffffffffffffffffffffffffffffffffff1660808173ffffffffffffffffffffffffffffffffffffffff16815250508073ffffffffffffffffffffffffffffffffffffffff1663c45a01556040518163ffffffff1660e01b8152600401602060405180830381865afa158015610265573d5f5f3e3d5ffd5b505050506040513d601f19601f8201168201806040525081019061028991906104fc565b73ffffffffffffffffffffffffffffffffffffffff1660a08173ffffffffffffffffffffffffffffffffffffffff16815250508073ffffffffffffffffffffffffffffffffffffffff1663ad5c46486040518163ffffffff1660e01b8152600401602060405180830381865afa158015610305573d5f5f3e3d5ffd5b505050506040513d601f19601f8201168201806040525081019061032991906104fc565b73ffffffffffffffffffffffffffffffffffffffff1660c08173ffffffffffffffffffffffffffffffffffffffff16815250508360025f6101000a81548173ffffffffffffffffffffffffffffffffffffffff021916908373ffffffffffffffffffffffffffffffffffffffff16021790555082600260146101000a81548161ffff021916908361ffff1602179055508160035f6101000a81548173ffffffffffffffffffffffffffffffffffffffff021916908373ffffffffffffffffffffffffffffffffffffffff1602179055505050505050610527565b5f5ffd5b5f73ffffffffffffffffffffffffffffffffffffffff82169050919050565b5f61043082610407565b9050919050565b61044081610426565b811461044a575f5ffd5b50565b5f8151905061045b81610437565b92915050565b5f61ffff82169050919050565b61047781610461565b8114610481575f5ffd5b50565b5f815190506104928161046e565b92915050565b5f5f5f5f608085870312156104b0576104af610403565b5b5f6104bd8782880161044d565b94505060206104ce8782880161044d565b93505060406104df87828801610484565b92505060606104f08782880161044d565b91505092959194509250565b5f6020828403121561051157610510610403565b5b5f61051e8482850161044d565b91505092915050565b60805160a05160c051615de36105eb5f395f81816122f60152818161344b015281816134d601528181613e7b01528181613f930152818161471e0152818161477101528181614851015261496901525f818161231a01528181613e3f015281816141df015281816148150152614b6001525f818161306b01528181614051015281816143c30152818161440e0152818161445b0152818161451401528181614a2701528181614d4401528181614d8f01528181614ddc0152614e8d0152615de35ff3fe60806040526004361061014e575f3560e01c8063c45a0155116100b5578063e9a452911161006e578063e9a45291146104dd578063ee5e4fa314610505578063f2fde38b14610541578063f6fe94b014610569578063f887ea4014610591578063fef0c4a1146105bb57610185565b8063c45a0155146103aa578063cd1b7d6c146103d4578063d55be8c6146103fc578063ddb2a09614610426578063e051e81a14610463578063e165fe3d146104a157610185565b80637a6f1dcc116101075780637a6f1dcc146102ad5780637b955ebd146102d55780637f507f3f146103125780638da5cb5b1461032e578063a0d2d83014610358578063ad5c46481461038057610185565b80630c495f96146101b757806324a9d853146101df57806325d86ced1461020957806329575f6a14610231578063469048401461025b57806376cd0ac11461028557610185565b36610185576040517f1021348100000000000000000000000000000000000000000000000000000000815260040160405180910390fd5b6040517f1021348100000000000000000000000000000000000000000000000000000000815260040160405180910390fd5b3480156101c2575f5ffd5b506101dd60048036038101906101d891906150fe565b6105f7565b005b3480156101ea575f5ffd5b506101f3610ac3565b604051610200919061517e565b60405180910390f35b348015610214575f5ffd5b5061022f600480360381019061022a9190615197565b610ad7565b005b34801561023c575f5ffd5b50610245610c5d565b60405161025291906151e4565b60405180910390f35b348015610266575f5ffd5b5061026f610c82565b60405161027c91906151e4565b60405180910390f35b348015610290575f5ffd5b506102ab60048036038101906102a691906151fd565b610ca7565b005b3480156102b8575f5ffd5b506102d360048036038101906102ce91906151fd565b610f49565b005b3480156102e0575f5ffd5b506102fb60048036038101906102f6919061523b565b61147e565b604051610309929190615266565b60405180910390f35b61032c6004803603810190610327919061528d565b61158c565b005b348015610339575f5ffd5b50610342611caa565b60405161034f91906151e4565b60405180910390f35b348015610363575f5ffd5b5061037e600480360381019061037991906151fd565b611cce565b005b34801561038b575f5ffd5b506103946122f4565b6040516103a191906151e4565b60405180910390f35b3480156103b5575f5ffd5b506103be612318565b6040516103cb9190615371565b60405180910390f35b3480156103df575f5ffd5b506103fa60048036038101906103f591906153b4565b61233c565b005b348015610407575f5ffd5b50610410612526565b60405161041d919061517e565b60405180910390f35b348015610431575f5ffd5b5061044c6004803603810190610447919061523b565b61252c565b60405161045a929190615266565b60405180910390f35b34801561046e575f5ffd5b506104896004803603810190610484919061523b565b6125bf565b60405161049893929190615410565b60405180910390f35b3480156104ac575f5ffd5b506104c760048036038101906104c291906151fd565b612649565b6040516104d491906151e4565b60405180910390f35b3480156104e8575f5ffd5b5061050360048036038101906104fe91906151fd565b6126ed565b005b348015610510575f5ffd5b5061052b600480360381019061052691906151fd565b612b23565b6040516105389190615445565b60405180910390f35b34801561054c575f5ffd5b506105676004803603810190610562919061523b565b612bb4565b005b348015610574575f5ffd5b5061058f600480360381019061058a919061545e565b612d2c565b005b34801561059c575f5ffd5b506105a5613069565b6040516105b291906154ce565b60405180910390f35b3480156105c6575f5ffd5b506105e160048036038101906105dc919061523b565b61308d565b6040516105ee9190615445565b60405180910390f35b5f5f9054906101000a900473ffffffffffffffffffffffffffffffffffffffff1673ffffffffffffffffffffffffffffffffffffffff163373ffffffffffffffffffffffffffffffffffffffff16141580156106a0575060025f9054906101000a900473ffffffffffffffffffffffffffffffffffffffff1673ffffffffffffffffffffffffffffffffffffffff163373ffffffffffffffffffffffffffffffffffffffff1614155b156106d7576040517f93f8b79800000000000000000000000000000000000000000000000000000000815260040160405180910390fd5b5f73ffffffffffffffffffffffffffffffffffffffff168473ffffffffffffffffffffffffffffffffffffffff160361073c576040517fd92e233d00000000000000000000000000000000000000000000000000000000815260040160405180910390fd5b8115610975575f73ffffffffffffffffffffffffffffffffffffffff168373ffffffffffffffffffffffffffffffffffffffff16036107a7576040517fc6976bd200000000000000000000000000000000000000000000000000000000815260040160405180910390fd5b60045f8473ffffffffffffffffffffffffffffffffffffffff1673ffffffffffffffffffffffffffffffffffffffff1681526020019081526020015f205f9054906101000a900460ff16610827576040517f4c3347d100000000000000000000000000000000000000000000000000000000815260040160405180910390fd5b60405180606001604052806001151581526020018473ffffffffffffffffffffffffffffffffffffffff1681526020018281525060055f8673ffffffffffffffffffffffffffffffffffffffff1673ffffffffffffffffffffffffffffffffffffffff1681526020019081526020015f205f820151815f015f6101000a81548160ff0219169083151502179055506020820151815f0160016101000a81548173ffffffffffffffffffffffffffffffffffffffff021916908373ffffffffffffffffffffffffffffffffffffffff160217905550604082015181600101559050508273ffffffffffffffffffffffffffffffffffffffff168473ffffffffffffffffffffffffffffffffffffffff167f354f0817e377e1e9b2601a5fa1180df29e96ac246a5d02f817a6e3bb4b72a9046001846040516109689291906154e7565b60405180910390a3610abd565b60405180606001604052805f151581526020015f73ffffffffffffffffffffffffffffffffffffffff1681526020015f81525060055f8673ffffffffffffffffffffffffffffffffffffffff1673ffffffffffffffffffffffffffffffffffffffff1681526020019081526020015f205f820151815f015f6101000a81548160ff0219169083151502179055506020820151815f0160016101000a81548173ffffffffffffffffffffffffffffffffffffffff021916908373ffffffffffffffffffffffffffffffffffffffff160217905550604082015181600101559050505f73ffffffffffffffffffffffffffffffffffffffff168473ffffffffffffffffffffffffffffffffffffffff167f354f0817e377e1e9b2601a5fa1180df29e96ac246a5d02f817a6e3bb4b72a9045f5f604051610ab4929190615547565b60405180910390a35b50505050565b600260149054906101000a900461ffff1681565b5f5f9054906101000a900473ffffffffffffffffffffffffffffffffffffffff1673ffffffffffffffffffffffffffffffffffffffff163373ffffffffffffffffffffffffffffffffffffffff1614158015610b80575060025f9054906101000a900473ffffffffffffffffffffffffffffffffffffffff1673ffffffffffffffffffffffffffffffffffffffff163373ffffffffffffffffffffffffffffffffffffffff1614155b15610bb7576040517f93f8b79800000000000000000000000000000000000000000000000000000000815260040160405180910390fd5b8060045f8473ffffffffffffffffffffffffffffffffffffffff1673ffffffffffffffffffffffffffffffffffffffff1681526020019081526020015f205f6101000a81548160ff0219169083151502179055508173ffffffffffffffffffffffffffffffffffffffff167fac90355684e2710fa34c2c7d500018678b146ea2d56ddc331c63d242ee8bf38582604051610c519190615445565b60405180910390a25050565b60025f9054906101000a900473ffffffffffffffffffffffffffffffffffffffff1681565b60035f9054906101000a900473ffffffffffffffffffffffffffffffffffffffff1681565b818073ffffffffffffffffffffffffffffffffffffffff163373ffffffffffffffffffffffffffffffffffffffff1614158015610d31575060025f9054906101000a900473ffffffffffffffffffffffffffffffffffffffff1673ffffffffffffffffffffffffffffffffffffffff163373ffffffffffffffffffffffffffffffffffffffff1614155b8015610d8957505f5f9054906101000a900473ffffffffffffffffffffffffffffffffffffffff1673ffffffffffffffffffffffffffffffffffffffff163373ffffffffffffffffffffffffffffffffffffffff1614155b15610dc0576040517fc828216200000000000000000000000000000000000000000000000000000000815260040160405180910390fd5b60045f8373ffffffffffffffffffffffffffffffffffffffff1673ffffffffffffffffffffffffffffffffffffffff1681526020019081526020015f205f9054906101000a900460ff16610e40576040517f7742542a00000000000000000000000000000000000000000000000000000000815260040160405180910390fd5b5f60065f8573ffffffffffffffffffffffffffffffffffffffff1673ffffffffffffffffffffffffffffffffffffffff1681526020019081526020015f209050806001015f8473ffffffffffffffffffffffffffffffffffffffff1673ffffffffffffffffffffffffffffffffffffffff1681526020019081526020015f205f9054906101000a900460ff16610f02576040517f1a1a638d00000000000000000000000000000000000000000000000000000000815260040160405180910390fd5b82815f015f6101000a81548173ffffffffffffffffffffffffffffffffffffffff021916908373ffffffffffffffffffffffffffffffffffffffff16021790555050505050565b818073ffffffffffffffffffffffffffffffffffffffff163373ffffffffffffffffffffffffffffffffffffffff1614158015610fd3575060025f9054906101000a900473ffffffffffffffffffffffffffffffffffffffff1673ffffffffffffffffffffffffffffffffffffffff163373ffffffffffffffffffffffffffffffffffffffff1614155b801561102b57505f5f9054906101000a900473ffffffffffffffffffffffffffffffffffffffff1673ffffffffffffffffffffffffffffffffffffffff163373ffffffffffffffffffffffffffffffffffffffff1614155b15611062576040517fc828216200000000000000000000000000000000000000000000000000000000815260040160405180910390fd5b5f73ffffffffffffffffffffffffffffffffffffffff168273ffffffffffffffffffffffffffffffffffffffff16036110c7576040517fd92e233d00000000000000000000000000000000000000000000000000000000815260040160405180910390fd5b5f60055f8473ffffffffffffffffffffffffffffffffffffffff1673ffffffffffffffffffffffffffffffffffffffff1681526020019081526020015f209050805f015f9054906101000a900460ff1661114d576040517fab68eff500000000000000000000000000000000000000000000000000000000815260040160405180910390fd5b5f815f0160019054906101000a900473ffffffffffffffffffffffffffffffffffffffff1690505f73ffffffffffffffffffffffffffffffffffffffff168173ffffffffffffffffffffffffffffffffffffffff16036111d9576040517fc6976bd200000000000000000000000000000000000000000000000000000000815260040160405180910390fd5b5f60065f8773ffffffffffffffffffffffffffffffffffffffff1673ffffffffffffffffffffffffffffffffffffffff1681526020019081526020015f20905084816002015f8473ffffffffffffffffffffffffffffffffffffffff1673ffffffffffffffffffffffffffffffffffffffff1681526020019081526020015f205f6101000a81548173ffffffffffffffffffffffffffffffffffffffff021916908373ffffffffffffffffffffffffffffffffffffffff16021790555081816003015f8773ffffffffffffffffffffffffffffffffffffffff1673ffffffffffffffffffffffffffffffffffffffff1681526020019081526020015f205f6101000a81548173ffffffffffffffffffffffffffffffffffffffff021916908373ffffffffffffffffffffffffffffffffffffffff1602179055505f73ffffffffffffffffffffffffffffffffffffffff16816004015f9054906101000a900473ffffffffffffffffffffffffffffffffffffffff1673ffffffffffffffffffffffffffffffffffffffff16036114115784816004015f6101000a81548173ffffffffffffffffffffffffffffffffffffffff021916908373ffffffffffffffffffffffffffffffffffffffff1602179055508173ffffffffffffffffffffffffffffffffffffffff168673ffffffffffffffffffffffffffffffffffffffff167f52ce92b576c9e725f458101a8593fe331d4d2964c77a20f2b608b39cd95cf7898760405161140891906151e4565b60405180910390a35b8173ffffffffffffffffffffffffffffffffffffffff168673ffffffffffffffffffffffffffffffffffffffff167f07efacf833c0332f419c637a012a52fe4647777ec52b15b904c88856048dc94f8760405161146e91906151e4565b60405180910390a3505050505050565b5f5f5f60065f8573ffffffffffffffffffffffffffffffffffffffff1673ffffffffffffffffffffffffffffffffffffffff1681526020019081526020015f2090505f816004015f9054906101000a900473ffffffffffffffffffffffffffffffffffffffff169050805f73ffffffffffffffffffffffffffffffffffffffff168273ffffffffffffffffffffffffffffffffffffffff161461157f57826003015f8373ffffffffffffffffffffffffffffffffffffffff1673ffffffffffffffffffffffffffffffffffffffff1681526020019081526020015f205f9054906101000a900473ffffffffffffffffffffffffffffffffffffffff16611581565b5f5b935093505050915091565b60018054146115d0576040517f08c379a00000000000000000000000000000000000000000000000000000000081526004016115c7906155c8565b60405180910390fd5b60026001819055505f73ffffffffffffffffffffffffffffffffffffffff168373ffffffffffffffffffffffffffffffffffffffff160361163d576040517fd92e233d00000000000000000000000000000000000000000000000000000000815260040160405180910390fd5b42811015611677576040517f1ab7da6b00000000000000000000000000000000000000000000000000000000815260040160405180910390fd5b5f5f73ffffffffffffffffffffffffffffffffffffffff168673ffffffffffffffffffffffffffffffffffffffff161490505f816116b557856116b7565b345b90505f81036116f2576040517f1f2a200500000000000000000000000000000000000000000000000000000000815260040160405180910390fd5b60045f836117005788611702565b5f5b73ffffffffffffffffffffffffffffffffffffffff1673ffffffffffffffffffffffffffffffffffffffff1681526020019081526020015f205f9054906101000a900460ff1661177e576040517f7742542a00000000000000000000000000000000000000000000000000000000815260040160405180910390fd5b816117b1576117b08830838a73ffffffffffffffffffffffffffffffffffffffff166130aa909392919063ffffffff16565b5b5f612710600260149054906101000a900461ffff1661ffff16836117d59190615613565b6117df9190615681565b90505f81836117ee91906156b1565b90505f8211156119125783156118c4575f60035f9054906101000a900473ffffffffffffffffffffffffffffffffffffffff1673ffffffffffffffffffffffffffffffffffffffff168360405161184490615711565b5f6040518083038185875af1925050503d805f811461187e576040519150601f19603f3d011682016040523d82523d5f602084013e611883565b606091505b50509050806118be576040517fce3ef89200000000000000000000000000000000000000000000000000000000815260040160405180910390fd5b50611911565b61191060035f9054906101000a900473ffffffffffffffffffffffffffffffffffffffff16838b73ffffffffffffffffffffffffffffffffffffffff166131d19092919063ffffffff16565b5b5b5f60065f8973ffffffffffffffffffffffffffffffffffffffff1673ffffffffffffffffffffffffffffffffffffffff1681526020019081526020015f2090505f6040518061012001604052808d73ffffffffffffffffffffffffffffffffffffffff1681526020018c73ffffffffffffffffffffffffffffffffffffffff1681526020018681526020018581526020018481526020018a73ffffffffffffffffffffffffffffffffffffffff16815260200189815260200188815260200187151581525090505f5f6119e584846132f5565b915091505f73ffffffffffffffffffffffffffffffffffffffff168273ffffffffffffffffffffffffffffffffffffffff1614611b09575f60055f8473ffffffffffffffffffffffffffffffffffffffff1673ffffffffffffffffffffffffffffffffffffffff1681526020019081526020015f206040518060600160405290815f82015f9054906101000a900460ff161515151581526020015f820160019054906101000a900473ffffffffffffffffffffffffffffffffffffffff1673ffffffffffffffffffffffffffffffffffffffff1673ffffffffffffffffffffffffffffffffffffffff16815260200160018201548152505090508060400151846080015110611b0757611af9848484613694565b505050505050505050611c9b565b505b836001015f89611b19578e611b1b565b5f5b73ffffffffffffffffffffffffffffffffffffffff1673ffffffffffffffffffffffffffffffffffffffff1681526020019081526020015f205f9054906101000a900460ff1615611b7c57611b6f83613c89565b5050505050505050611c9b565b5f845f015f9054906101000a900473ffffffffffffffffffffffffffffffffffffffff1690505f73ffffffffffffffffffffffffffffffffffffffff168173ffffffffffffffffffffffffffffffffffffffff1603611c07576040517faaa12dca00000000000000000000000000000000000000000000000000000000815260040160405180910390fd5b60045f8273ffffffffffffffffffffffffffffffffffffffff1673ffffffffffffffffffffffffffffffffffffffff1681526020019081526020015f205f9054906101000a900460ff16611c87576040517f3fbb49c900000000000000000000000000000000000000000000000000000000815260040160405180910390fd5b611c918482613e1b565b5050505050505050505b60018081905550505050505050565b5f5f9054906101000a900473ffffffffffffffffffffffffffffffffffffffff1681565b818073ffffffffffffffffffffffffffffffffffffffff163373ffffffffffffffffffffffffffffffffffffffff1614158015611d58575060025f9054906101000a900473ffffffffffffffffffffffffffffffffffffffff1673ffffffffffffffffffffffffffffffffffffffff163373ffffffffffffffffffffffffffffffffffffffff1614155b8015611db057505f5f9054906101000a900473ffffffffffffffffffffffffffffffffffffffff1673ffffffffffffffffffffffffffffffffffffffff163373ffffffffffffffffffffffffffffffffffffffff1614155b15611de7576040517fc828216200000000000000000000000000000000000000000000000000000000815260040160405180910390fd5b5f60065f8573ffffffffffffffffffffffffffffffffffffffff1673ffffffffffffffffffffffffffffffffffffffff1681526020019081526020015f2090505f73ffffffffffffffffffffffffffffffffffffffff168373ffffffffffffffffffffffffffffffffffffffff1603611e8c576040517fd92e233d00000000000000000000000000000000000000000000000000000000815260040160405180910390fd5b5f816003015f8573ffffffffffffffffffffffffffffffffffffffff1673ffffffffffffffffffffffffffffffffffffffff1681526020019081526020015f205f9054906101000a900473ffffffffffffffffffffffffffffffffffffffff1690505f5f73ffffffffffffffffffffffffffffffffffffffff168273ffffffffffffffffffffffffffffffffffffffff1614611fb6578473ffffffffffffffffffffffffffffffffffffffff16836002015f8473ffffffffffffffffffffffffffffffffffffffff1673ffffffffffffffffffffffffffffffffffffffff1681526020019081526020015f205f9054906101000a900473ffffffffffffffffffffffffffffffffffffffff1673ffffffffffffffffffffffffffffffffffffffff16149050612058565b8473ffffffffffffffffffffffffffffffffffffffff16836002015f5f73ffffffffffffffffffffffffffffffffffffffff1673ffffffffffffffffffffffffffffffffffffffff1681526020019081526020015f205f9054906101000a900473ffffffffffffffffffffffffffffffffffffffff1673ffffffffffffffffffffffffffffffffffffffff160361205357600190505f9150612057565b5f90505b5b8061208f576040517f4209c0e300000000000000000000000000000000000000000000000000000000815260040160405180910390fd5b5f836002015f8473ffffffffffffffffffffffffffffffffffffffff1673ffffffffffffffffffffffffffffffffffffffff1681526020019081526020015f205f6101000a81548173ffffffffffffffffffffffffffffffffffffffff021916908373ffffffffffffffffffffffffffffffffffffffff1602179055505f836003015f8773ffffffffffffffffffffffffffffffffffffffff1673ffffffffffffffffffffffffffffffffffffffff1681526020019081526020015f205f6101000a81548173ffffffffffffffffffffffffffffffffffffffff021916908373ffffffffffffffffffffffffffffffffffffffff1602179055508473ffffffffffffffffffffffffffffffffffffffff16836004015f9054906101000a900473ffffffffffffffffffffffffffffffffffffffff1673ffffffffffffffffffffffffffffffffffffffff1603612287575f836004015f6101000a81548173ffffffffffffffffffffffffffffffffffffffff021916908373ffffffffffffffffffffffffffffffffffffffff1602179055508173ffffffffffffffffffffffffffffffffffffffff168673ffffffffffffffffffffffffffffffffffffffff167f52ce92b576c9e725f458101a8593fe331d4d2964c77a20f2b608b39cd95cf7895f60405161227e91906151e4565b60405180910390a35b8173ffffffffffffffffffffffffffffffffffffffff168673ffffffffffffffffffffffffffffffffffffffff167f07efacf833c0332f419c637a012a52fe4647777ec52b15b904c88856048dc94f5f6040516122e491906151e4565b60405180910390a3505050505050565b7f000000000000000000000000000000000000000000000000000000000000000081565b7f000000000000000000000000000000000000000000000000000000000000000081565b5f5f9054906101000a900473ffffffffffffffffffffffffffffffffffffffff1673ffffffffffffffffffffffffffffffffffffffff163373ffffffffffffffffffffffffffffffffffffffff16141580156123e5575060025f9054906101000a900473ffffffffffffffffffffffffffffffffffffffff1673ffffffffffffffffffffffffffffffffffffffff163373ffffffffffffffffffffffffffffffffffffffff1614155b1561241c576040517f93f8b79800000000000000000000000000000000000000000000000000000000815260040160405180910390fd5b6103e861ffff168261ffff161115612460576040517fcd4e616700000000000000000000000000000000000000000000000000000000815260040160405180910390fd5b5f73ffffffffffffffffffffffffffffffffffffffff168173ffffffffffffffffffffffffffffffffffffffff16036124c5576040517fd92e233d00000000000000000000000000000000000000000000000000000000815260040160405180910390fd5b81600260146101000a81548161ffff021916908361ffff1602179055508060035f6101000a81548173ffffffffffffffffffffffffffffffffffffffff021916908373ffffffffffffffffffffffffffffffffffffffff1602179055505050565b6103e881565b5f5f5f60065f8573ffffffffffffffffffffffffffffffffffffffff1673ffffffffffffffffffffffffffffffffffffffff1681526020019081526020015f209050805f015f9054906101000a900473ffffffffffffffffffffffffffffffffffffffff16816004015f9054906101000a900473ffffffffffffffffffffffffffffffffffffffff169250925050915091565b5f5f5f5f60055f8673ffffffffffffffffffffffffffffffffffffffff1673ffffffffffffffffffffffffffffffffffffffff1681526020019081526020015f209050805f015f9054906101000a900460ff16815f0160019054906101000a900473ffffffffffffffffffffffffffffffffffffffff168260010154935093509350509193909250565b5f60065f8473ffffffffffffffffffffffffffffffffffffffff1673ffffffffffffffffffffffffffffffffffffffff1681526020019081526020015f206002015f8373ffffffffffffffffffffffffffffffffffffffff1673ffffffffffffffffffffffffffffffffffffffff1681526020019081526020015f205f9054906101000a900473ffffffffffffffffffffffffffffffffffffffff16905092915050565b818073ffffffffffffffffffffffffffffffffffffffff163373ffffffffffffffffffffffffffffffffffffffff1614158015612777575060025f9054906101000a900473ffffffffffffffffffffffffffffffffffffffff1673ffffffffffffffffffffffffffffffffffffffff163373ffffffffffffffffffffffffffffffffffffffff1614155b80156127cf57505f5f9054906101000a900473ffffffffffffffffffffffffffffffffffffffff1673ffffffffffffffffffffffffffffffffffffffff163373ffffffffffffffffffffffffffffffffffffffff1614155b15612806576040517fc828216200000000000000000000000000000000000000000000000000000000815260040160405180910390fd5b5f60065f8573ffffffffffffffffffffffffffffffffffffffff1673ffffffffffffffffffffffffffffffffffffffff1681526020019081526020015f2090505f73ffffffffffffffffffffffffffffffffffffffff168373ffffffffffffffffffffffffffffffffffffffff1603612926575f816004015f6101000a81548173ffffffffffffffffffffffffffffffffffffffff021916908373ffffffffffffffffffffffffffffffffffffffff1602179055505f73ffffffffffffffffffffffffffffffffffffffff168473ffffffffffffffffffffffffffffffffffffffff167f52ce92b576c9e725f458101a8593fe331d4d2964c77a20f2b608b39cd95cf7895f60405161291891906151e4565b60405180910390a350612b1e565b5f60055f8573ffffffffffffffffffffffffffffffffffffffff1673ffffffffffffffffffffffffffffffffffffffff1681526020019081526020015f209050805f015f9054906101000a900460ff166129ac576040517fab68eff500000000000000000000000000000000000000000000000000000000815260040160405180910390fd5b5f826003015f8673ffffffffffffffffffffffffffffffffffffffff1673ffffffffffffffffffffffffffffffffffffffff1681526020019081526020015f205f9054906101000a900473ffffffffffffffffffffffffffffffffffffffff1690505f73ffffffffffffffffffffffffffffffffffffffff168173ffffffffffffffffffffffffffffffffffffffff1603612a73576040517f4209c0e300000000000000000000000000000000000000000000000000000000815260040160405180910390fd5b84836004015f6101000a81548173ffffffffffffffffffffffffffffffffffffffff021916908373ffffffffffffffffffffffffffffffffffffffff1602179055508073ffffffffffffffffffffffffffffffffffffffff168673ffffffffffffffffffffffffffffffffffffffff167f52ce92b576c9e725f458101a8593fe331d4d2964c77a20f2b608b39cd95cf78987604051612b1291906151e4565b60405180910390a35050505b505050565b5f60065f8473ffffffffffffffffffffffffffffffffffffffff1673ffffffffffffffffffffffffffffffffffffffff1681526020019081526020015f206001015f8373ffffffffffffffffffffffffffffffffffffffff1673ffffffffffffffffffffffffffffffffffffffff1681526020019081526020015f205f9054906101000a900460ff16905092915050565b5f5f9054906101000a900473ffffffffffffffffffffffffffffffffffffffff1673ffffffffffffffffffffffffffffffffffffffff163373ffffffffffffffffffffffffffffffffffffffff1614612c39576040517f5fc483c500000000000000000000000000000000000000000000000000000000815260040160405180910390fd5b5f73ffffffffffffffffffffffffffffffffffffffff168173ffffffffffffffffffffffffffffffffffffffff1603612c70575f5ffd5b8073ffffffffffffffffffffffffffffffffffffffff165f5f9054906101000a900473ffffffffffffffffffffffffffffffffffffffff1673ffffffffffffffffffffffffffffffffffffffff167f8be0079c531659141344cd1fd0a4f28419497f9722a3daafe3b4186f6b6457e060405160405180910390a3805f5f6101000a81548173ffffffffffffffffffffffffffffffffffffffff021916908373ffffffffffffffffffffffffffffffffffffffff16021790555050565b828073ffffffffffffffffffffffffffffffffffffffff163373ffffffffffffffffffffffffffffffffffffffff1614158015612db6575060025f9054906101000a900473ffffffffffffffffffffffffffffffffffffffff1673ffffffffffffffffffffffffffffffffffffffff163373ffffffffffffffffffffffffffffffffffffffff1614155b8015612e0e57505f5f9054906101000a900473ffffffffffffffffffffffffffffffffffffffff1673ffffffffffffffffffffffffffffffffffffffff163373ffffffffffffffffffffffffffffffffffffffff1614155b15612e45576040517fc828216200000000000000000000000000000000000000000000000000000000815260040160405180910390fd5b60045f8473ffffffffffffffffffffffffffffffffffffffff1673ffffffffffffffffffffffffffffffffffffffff1681526020019081526020015f205f9054906101000a900460ff16612ec5576040517f7742542a00000000000000000000000000000000000000000000000000000000815260040160405180910390fd5b5f60065f8673ffffffffffffffffffffffffffffffffffffffff1673ffffffffffffffffffffffffffffffffffffffff1681526020019081526020015f20905082816001015f8673ffffffffffffffffffffffffffffffffffffffff1673ffffffffffffffffffffffffffffffffffffffff1681526020019081526020015f205f6101000a81548160ff0219169083151502179055508373ffffffffffffffffffffffffffffffffffffffff168573ffffffffffffffffffffffffffffffffffffffff167f160aca386eecd6b8deb0127ecafcd60a1081e3f9dfa75de2cfd22ea186e8d3f185604051612fb89190615445565b60405180910390a38215801561301b57508373ffffffffffffffffffffffffffffffffffffffff16815f015f9054906101000a900473ffffffffffffffffffffffffffffffffffffffff1673ffffffffffffffffffffffffffffffffffffffff16145b15613062575f815f015f6101000a81548173ffffffffffffffffffffffffffffffffffffffff021916908373ffffffffffffffffffffffffffffffffffffffff1602179055505b5050505050565b7f000000000000000000000000000000000000000000000000000000000000000081565b6004602052805f5260405f205f915054906101000a900460ff1681565b5f73ffffffffffffffffffffffffffffffffffffffff168273ffffffffffffffffffffffffffffffffffffffff160361310f576040517fd92e233d00000000000000000000000000000000000000000000000000000000815260040160405180910390fd5b8373ffffffffffffffffffffffffffffffffffffffff166323b872dd8484846040518463ffffffff1660e01b815260040161314c93929190615725565b6020604051808303815f875af1158015613168573d5f5f3e3d5ffd5b505050506040513d601f19601f8201168201806040525081019061318c919061576e565b6131cb576040517f08c379a00000000000000000000000000000000000000000000000000000000081526004016131c2906157e3565b60405180910390fd5b50505050565b5f73ffffffffffffffffffffffffffffffffffffffff168273ffffffffffffffffffffffffffffffffffffffff1603613236576040517fd92e233d00000000000000000000000000000000000000000000000000000000815260040160405180910390fd5b8273ffffffffffffffffffffffffffffffffffffffff1663a9059cbb83836040518363ffffffff1660e01b8152600401613271929190615801565b6020604051808303815f875af115801561328d573d5f5f3e3d5ffd5b505050506040513d601f19601f820116820180604052508101906132b1919061576e565b6132f0576040517f08c379a00000000000000000000000000000000000000000000000000000000081526004016132e790615872565b60405180910390fd5b505050565b5f5f5f83610100015161330c57836020015161330e565b5f5b90505f73ffffffffffffffffffffffffffffffffffffffff168173ffffffffffffffffffffffffffffffffffffffff16146133c6575f856002015f8373ffffffffffffffffffffffffffffffffffffffff1673ffffffffffffffffffffffffffffffffffffffff1681526020019081526020015f205f9054906101000a900473ffffffffffffffffffffffffffffffffffffffff1690506133ae81614620565b156133c057808293509350505061368d565b50613504565b5f856002015f5f73ffffffffffffffffffffffffffffffffffffffff1673ffffffffffffffffffffffffffffffffffffffff1681526020019081526020015f205f9054906101000a900473ffffffffffffffffffffffffffffffffffffffff16905061343181614620565b1561344357805f93509350505061368d565b5f866002015f7f000000000000000000000000000000000000000000000000000000000000000073ffffffffffffffffffffffffffffffffffffffff1673ffffffffffffffffffffffffffffffffffffffff1681526020019081526020015f205f9054906101000a900473ffffffffffffffffffffffffffffffffffffffff1690506134ce81614620565b1561350157807f00000000000000000000000000000000000000000000000000000000000000009450945050505061368d565b50505b5f856004015f9054906101000a900473ffffffffffffffffffffffffffffffffffffffff16905061353481614620565b156135a9575f866003015f8373ffffffffffffffffffffffffffffffffffffffff1673ffffffffffffffffffffffffffffffffffffffff1681526020019081526020015f205f9054906101000a900473ffffffffffffffffffffffffffffffffffffffff16905081819450945050505061368d565b5f865f015f9054906101000a900473ffffffffffffffffffffffffffffffffffffffff1690505f73ffffffffffffffffffffffffffffffffffffffff168173ffffffffffffffffffffffffffffffffffffffff1614613683575f876002015f8373ffffffffffffffffffffffffffffffffffffffff1673ffffffffffffffffffffffffffffffffffffffff1681526020019081526020015f205f9054906101000a900473ffffffffffffffffffffffffffffffffffffffff16905061366d81614620565b15613681578082955095505050505061368d565b505b5f5f945094505050505b9250929050565b5f60055f8473ffffffffffffffffffffffffffffffffffffffff1673ffffffffffffffffffffffffffffffffffffffff1681526020019081526020015f206040518060600160405290815f82015f9054906101000a900460ff161515151581526020015f820160019054906101000a900473ffffffffffffffffffffffffffffffffffffffff1673ffffffffffffffffffffffffffffffffffffffff1673ffffffffffffffffffffffffffffffffffffffff1681526020016001820154815250509050805f0151613791576040517fab68eff500000000000000000000000000000000000000000000000000000000815260040160405180910390fd5b5f816020015190505f73ffffffffffffffffffffffffffffffffffffffff168173ffffffffffffffffffffffffffffffffffffffff16036137fe576040517fc6976bd200000000000000000000000000000000000000000000000000000000815260040160405180910390fd5b8273ffffffffffffffffffffffffffffffffffffffff168173ffffffffffffffffffffffffffffffffffffffff1614613863576040517f4d27e60600000000000000000000000000000000000000000000000000000000815260040160405180910390fd5b60045f8273ffffffffffffffffffffffffffffffffffffffff1673ffffffffffffffffffffffffffffffffffffffff1681526020019081526020015f205f9054906101000a900460ff166138e3576040517f4c3347d100000000000000000000000000000000000000000000000000000000815260040160405180910390fd5b5f6138ee8683614710565b90505f8590505f8173ffffffffffffffffffffffffffffffffffffffff166370a082318960a001516040518263ffffffff1660e01b815260040161393291906151e4565b602060405180830381865afa15801561394d573d5f5f3e3d5ffd5b505050506040513d601f19601f8201168201806040525081019061397191906158a4565b90505f8490506139a2885f8373ffffffffffffffffffffffffffffffffffffffff16614f079092919063ffffffff16565b6139cd88858373ffffffffffffffffffffffffffffffffffffffff16614f079092919063ffffffff16565b8773ffffffffffffffffffffffffffffffffffffffff1663d69961858a60a00151866040518363ffffffff1660e01b8152600401613a0c929190615801565b5f604051808303815f87803b158015613a23575f5ffd5b505af1158015613a35573d5f5f3e3d5ffd5b50505050613a64885f8373ffffffffffffffffffffffffffffffffffffffff16614f079092919063ffffffff16565b5f828473ffffffffffffffffffffffffffffffffffffffff166370a082318c60a001516040518263ffffffff1660e01b8152600401613aa391906151e4565b602060405180830381865afa158015613abe573d5f5f3e3d5ffd5b505050506040513d601f19601f82011682018060405250810190613ae291906158a4565b613aec91906156b1565b90505f8103613b27576040517f360fef3500000000000000000000000000000000000000000000000000000000815260040160405180910390fd5b8960c00151811015613b64576040517e50c9b700000000000000000000000000000000000000000000000000000000815260040160405180910390fd5b8573ffffffffffffffffffffffffffffffffffffffff168973ffffffffffffffffffffffffffffffffffffffff168b60a0015173ffffffffffffffffffffffffffffffffffffffff167f8f7a6fecbaab1e04e31f80b9da6e08d7f55f854f660a910ddc7cce65036babd58885604051613bde9291906158cf565b60405180910390a4896020015173ffffffffffffffffffffffffffffffffffffffff168a60a0015173ffffffffffffffffffffffffffffffffffffffff168b5f015173ffffffffffffffffffffffffffffffffffffffff167f49735f6dfce36092e4e60b47019be07f553ede2d89c84c80a84ad06883a247778d604001518e606001518e8742604051613c759594939291906158f6565b60405180910390a450505050505050505050565b80610100015115613d41575f8160a0015173ffffffffffffffffffffffffffffffffffffffff168260800151604051613cc190615711565b5f6040518083038185875af1925050503d805f8114613cfb576040519150601f19603f3d011682016040523d82523d5f602084013e613d00565b606091505b5050905080613d3b576040517f5676181200000000000000000000000000000000000000000000000000000000815260040160405180910390fd5b50613d79565b613d788160a001518260800151836020015173ffffffffffffffffffffffffffffffffffffffff166131d19092919063ffffffff16565b5b806020015173ffffffffffffffffffffffffffffffffffffffff168160a0015173ffffffffffffffffffffffffffffffffffffffff16825f015173ffffffffffffffffffffffffffffffffffffffff167f49735f6dfce36092e4e60b47019be07f553ede2d89c84c80a84ad06883a24777846040015185606001518660200151876080015142604051613e109594939291906158f6565b60405180910390a450565b816101000151156141c6575f73ffffffffffffffffffffffffffffffffffffffff167f000000000000000000000000000000000000000000000000000000000000000073ffffffffffffffffffffffffffffffffffffffff1663e6a439057f0000000000000000000000000000000000000000000000000000000000000000846040518363ffffffff1660e01b8152600401613eb8929190615266565b602060405180830381865afa158015613ed3573d5f5f3e3d5ffd5b505050506040513d601f19601f82011682018060405250810190613ef7919061595b565b73ffffffffffffffffffffffffffffffffffffffff1603613f44576040517f031a7b9000000000000000000000000000000000000000000000000000000000815260040160405180910390fd5b5f600267ffffffffffffffff811115613f6057613f5f615986565b5b604051908082528060200260200182016040528015613f8e5781602001602082028036833780820191505090505b5090507f0000000000000000000000000000000000000000000000000000000000000000815f81518110613fc557613fc46159b3565b5b602002602001019073ffffffffffffffffffffffffffffffffffffffff16908173ffffffffffffffffffffffffffffffffffffffff16815250508181600181518110614014576140136159b3565b5b602002602001019073ffffffffffffffffffffffffffffffffffffffff16908173ffffffffffffffffffffffffffffffffffffffff16815250505f7f000000000000000000000000000000000000000000000000000000000000000073ffffffffffffffffffffffffffffffffffffffff16637ff36ab585608001518660c00151858860a001518960e001516040518663ffffffff1660e01b81526004016140bf9493929190615a97565b5f6040518083038185885af11580156140da573d5f5f3e3d5ffd5b50505050506040513d5f823e3d601f19601f820116820180604052508101906141039190615c04565b90505f73ffffffffffffffffffffffffffffffffffffffff168460a0015173ffffffffffffffffffffffffffffffffffffffff16855f015173ffffffffffffffffffffffffffffffffffffffff167f49735f6dfce36092e4e60b47019be07f553ede2d89c84c80a84ad06883a247778760400151886060015188876001895161418c91906156b1565b8151811061419d5761419c6159b3565b5b6020026020010151426040516141b79594939291906158f6565b60405180910390a4505061461c565b5f73ffffffffffffffffffffffffffffffffffffffff167f000000000000000000000000000000000000000000000000000000000000000073ffffffffffffffffffffffffffffffffffffffff1663e6a439058460200151846040518363ffffffff1660e01b815260040161423c929190615266565b602060405180830381865afa158015614257573d5f5f3e3d5ffd5b505050506040513d601f19601f8201168201806040525081019061427b919061595b565b73ffffffffffffffffffffffffffffffffffffffff16036142c8576040517f031a7b9000000000000000000000000000000000000000000000000000000000815260040160405180910390fd5b5f600267ffffffffffffffff8111156142e4576142e3615986565b5b6040519080825280602002602001820160405280156143125781602001602082028036833780820191505090505b5090508260200151815f8151811061432d5761432c6159b3565b5b602002602001019073ffffffffffffffffffffffffffffffffffffffff16908173ffffffffffffffffffffffffffffffffffffffff1681525050818160018151811061437c5761437b6159b3565b5b602002602001019073ffffffffffffffffffffffffffffffffffffffff16908173ffffffffffffffffffffffffffffffffffffffff16815250505f836020015190506144097f00000000000000000000000000000000000000000000000000000000000000005f8373ffffffffffffffffffffffffffffffffffffffff16614f079092919063ffffffff16565b6144587f000000000000000000000000000000000000000000000000000000000000000085608001518373ffffffffffffffffffffffffffffffffffffffff16614f079092919063ffffffff16565b5f7f000000000000000000000000000000000000000000000000000000000000000073ffffffffffffffffffffffffffffffffffffffff166338ed173986608001518760c00151868960a001518a60e001516040518663ffffffff1660e01b81526004016144ca959493929190615c4b565b5f604051808303815f875af11580156144e5573d5f5f3e3d5ffd5b505050506040513d5f823e3d601f19601f8201168201806040525081019061450d9190615c04565b905061455a7f00000000000000000000000000000000000000000000000000000000000000005f8473ffffffffffffffffffffffffffffffffffffffff16614f079092919063ffffffff16565b846020015173ffffffffffffffffffffffffffffffffffffffff168560a0015173ffffffffffffffffffffffffffffffffffffffff16865f015173ffffffffffffffffffffffffffffffffffffffff167f49735f6dfce36092e4e60b47019be07f553ede2d89c84c80a84ad06883a24777886040015189606001518987600189516145e591906156b1565b815181106145f6576145f56159b3565b5b6020026020010151426040516146109594939291906158f6565b60405180910390a45050505b5050565b5f5f73ffffffffffffffffffffffffffffffffffffffff168273ffffffffffffffffffffffffffffffffffffffff160361465c575f905061470b565b5f60055f8473ffffffffffffffffffffffffffffffffffffffff1673ffffffffffffffffffffffffffffffffffffffff1681526020019081526020015f209050805f015f9054906101000a900460ff16801561470757505f73ffffffffffffffffffffffffffffffffffffffff16815f0160019054906101000a900473ffffffffffffffffffffffffffffffffffffffff1673ffffffffffffffffffffffffffffffffffffffff1614155b9150505b919050565b5f82610100015115614b04577f000000000000000000000000000000000000000000000000000000000000000073ffffffffffffffffffffffffffffffffffffffff168273ffffffffffffffffffffffffffffffffffffffff16036147fc577f000000000000000000000000000000000000000000000000000000000000000073ffffffffffffffffffffffffffffffffffffffff1663d0e30db084608001516040518263ffffffff1660e01b81526004015f604051808303818588803b1580156147d9575f5ffd5b505af11580156147eb573d5f5f3e3d5ffd5b505050505082608001519050614f01565b5f73ffffffffffffffffffffffffffffffffffffffff167f000000000000000000000000000000000000000000000000000000000000000073ffffffffffffffffffffffffffffffffffffffff1663e6a439057f0000000000000000000000000000000000000000000000000000000000000000856040518363ffffffff1660e01b815260040161488e929190615266565b602060405180830381865afa1580156148a9573d5f5f3e3d5ffd5b505050506040513d601f19601f820116820180604052508101906148cd919061595b565b73ffffffffffffffffffffffffffffffffffffffff160361491a576040517f031a7b9000000000000000000000000000000000000000000000000000000000815260040160405180910390fd5b5f600267ffffffffffffffff81111561493657614935615986565b5b6040519080825280602002602001820160405280156149645781602001602082028036833780820191505090505b5090507f0000000000000000000000000000000000000000000000000000000000000000815f8151811061499b5761499a6159b3565b5b602002602001019073ffffffffffffffffffffffffffffffffffffffff16908173ffffffffffffffffffffffffffffffffffffffff168152505082816001815181106149ea576149e96159b3565b5b602002602001019073ffffffffffffffffffffffffffffffffffffffff16908173ffffffffffffffffffffffffffffffffffffffff16815250505f7f000000000000000000000000000000000000000000000000000000000000000073ffffffffffffffffffffffffffffffffffffffff16637ff36ab586608001515f85308a60e001516040518663ffffffff1660e01b8152600401614a8d9493929190615ca3565b5f6040518083038185885af1158015614aa8573d5f5f3e3d5ffd5b50505050506040513d5f823e3d601f19601f82011682018060405250810190614ad19190615c04565b90508060018251614ae291906156b1565b81518110614af357614af26159b3565b5b602002602001015192505050614f01565b8173ffffffffffffffffffffffffffffffffffffffff16836020015173ffffffffffffffffffffffffffffffffffffffff1603614b475782608001519050614f01565b5f73ffffffffffffffffffffffffffffffffffffffff167f000000000000000000000000000000000000000000000000000000000000000073ffffffffffffffffffffffffffffffffffffffff1663e6a439058560200151856040518363ffffffff1660e01b8152600401614bbd929190615266565b602060405180830381865afa158015614bd8573d5f5f3e3d5ffd5b505050506040513d601f19601f82011682018060405250810190614bfc919061595b565b73ffffffffffffffffffffffffffffffffffffffff1603614c49576040517f031a7b9000000000000000000000000000000000000000000000000000000000815260040160405180910390fd5b5f600267ffffffffffffffff811115614c6557614c64615986565b5b604051908082528060200260200182016040528015614c935781602001602082028036833780820191505090505b5090508360200151815f81518110614cae57614cad6159b3565b5b602002602001019073ffffffffffffffffffffffffffffffffffffffff16908173ffffffffffffffffffffffffffffffffffffffff16815250508281600181518110614cfd57614cfc6159b3565b5b602002602001019073ffffffffffffffffffffffffffffffffffffffff16908173ffffffffffffffffffffffffffffffffffffffff16815250505f84602001519050614d8a7f00000000000000000000000000000000000000000000000000000000000000005f8373ffffffffffffffffffffffffffffffffffffffff16614f079092919063ffffffff16565b614dd97f000000000000000000000000000000000000000000000000000000000000000086608001518373ffffffffffffffffffffffffffffffffffffffff16614f079092919063ffffffff16565b5f7f000000000000000000000000000000000000000000000000000000000000000073ffffffffffffffffffffffffffffffffffffffff166338ed173987608001515f86308b60e001516040518663ffffffff1660e01b8152600401614e43959493929190615ced565b5f604051808303815f875af1158015614e5e573d5f5f3e3d5ffd5b505050506040513d5f823e3d601f19601f82011682018060405250810190614e869190615c04565b9050614ed37f00000000000000000000000000000000000000000000000000000000000000005f8473ffffffffffffffffffffffffffffffffffffffff16614f079092919063ffffffff16565b8060018251614ee291906156b1565b81518110614ef357614ef26159b3565b5b602002602001015193505050505b92915050565b5f73ffffffffffffffffffffffffffffffffffffffff168273ffffffffffffffffffffffffffffffffffffffff1603614f6c576040517fd92e233d00000000000000000000000000000000000000000000000000000000815260040160405180910390fd5b8273ffffffffffffffffffffffffffffffffffffffff1663095ea7b383836040518363ffffffff1660e01b8152600401614fa7929190615801565b6020604051808303815f875af1158015614fc3573d5f5f3e3d5ffd5b505050506040513d601f19601f82011682018060405250810190614fe7919061576e565b615026576040517f08c379a000000000000000000000000000000000000000000000000000000000815260040161501d90615d8f565b60405180910390fd5b505050565b5f604051905090565b5f5ffd5b5f5ffd5b5f73ffffffffffffffffffffffffffffffffffffffff82169050919050565b5f6150658261503c565b9050919050565b6150758161505b565b811461507f575f5ffd5b50565b5f813590506150908161506c565b92915050565b5f8115159050919050565b6150aa81615096565b81146150b4575f5ffd5b50565b5f813590506150c5816150a1565b92915050565b5f819050919050565b6150dd816150cb565b81146150e7575f5ffd5b50565b5f813590506150f8816150d4565b92915050565b5f5f5f5f6080858703121561511657615115615034565b5b5f61512387828801615082565b945050602061513487828801615082565b9350506040615145878288016150b7565b9250506060615156878288016150ea565b91505092959194509250565b5f61ffff82169050919050565b61517881615162565b82525050565b5f6020820190506151915f83018461516f565b92915050565b5f5f604083850312156151ad576151ac615034565b5b5f6151ba85828601615082565b92505060206151cb858286016150b7565b9150509250929050565b6151de8161505b565b82525050565b5f6020820190506151f75f8301846151d5565b92915050565b5f5f6040838503121561521357615212615034565b5b5f61522085828601615082565b925050602061523185828601615082565b9150509250929050565b5f602082840312156152505761524f615034565b5b5f61525d84828501615082565b91505092915050565b5f6040820190506152795f8301856151d5565b61528660208301846151d5565b9392505050565b5f5f5f5f5f5f60c087890312156152a7576152a6615034565b5b5f6152b489828a01615082565b96505060206152c589828a01615082565b95505060406152d689828a016150ea565b94505060606152e789828a01615082565b93505060806152f889828a016150ea565b92505060a061530989828a016150ea565b9150509295509295509295565b5f819050919050565b5f61533961533461532f8461503c565b615316565b61503c565b9050919050565b5f61534a8261531f565b9050919050565b5f61535b82615340565b9050919050565b61536b81615351565b82525050565b5f6020820190506153845f830184615362565b92915050565b61539381615162565b811461539d575f5ffd5b50565b5f813590506153ae8161538a565b92915050565b5f5f604083850312156153ca576153c9615034565b5b5f6153d7858286016153a0565b92505060206153e885828601615082565b9150509250929050565b6153fb81615096565b82525050565b61540a816150cb565b82525050565b5f6060820190506154235f8301866153f2565b61543060208301856151d5565b61543d6040830184615401565b949350505050565b5f6020820190506154585f8301846153f2565b92915050565b5f5f5f6060848603121561547557615474615034565b5b5f61548286828701615082565b935050602061549386828701615082565b92505060406154a4868287016150b7565b9150509250925092565b5f6154b882615340565b9050919050565b6154c8816154ae565b82525050565b5f6020820190506154e15f8301846154bf565b92915050565b5f6040820190506154fa5f8301856153f2565b6155076020830184615401565b9392505050565b5f819050919050565b5f61553161552c6155278461550e565b615316565b6150cb565b9050919050565b61554181615517565b82525050565b5f60408201905061555a5f8301856153f2565b6155676020830184615538565b9392505050565b5f82825260208201905092915050565b7f5245454e5452414e4359000000000000000000000000000000000000000000005f82015250565b5f6155b2600a8361556e565b91506155bd8261557e565b602082019050919050565b5f6020820190508181035f8301526155df816155a6565b9050919050565b7f4e487b71000000000000000000000000000000000000000000000000000000005f52601160045260245ffd5b5f61561d826150cb565b9150615628836150cb565b9250828202615636816150cb565b9150828204841483151761564d5761564c6155e6565b5b5092915050565b7f4e487b71000000000000000000000000000000000000000000000000000000005f52601260045260245ffd5b5f61568b826150cb565b9150615696836150cb565b9250826156a6576156a5615654565b5b828204905092915050565b5f6156bb826150cb565b91506156c6836150cb565b92508282039050818111156156de576156dd6155e6565b5b92915050565b5f81905092915050565b50565b5f6156fc5f836156e4565b9150615707826156ee565b5f82019050919050565b5f61571b826156f1565b9150819050919050565b5f6060820190506157385f8301866151d5565b61574560208301856151d5565b6157526040830184615401565b949350505050565b5f81519050615768816150a1565b92915050565b5f6020828403121561578357615782615034565b5b5f6157908482850161575a565b91505092915050565b7f5452414e534645525f46524f4d5f4641494c00000000000000000000000000005f82015250565b5f6157cd60128361556e565b91506157d882615799565b602082019050919050565b5f6020820190508181035f8301526157fa816157c1565b9050919050565b5f6040820190506158145f8301856151d5565b6158216020830184615401565b9392505050565b7f5452414e534645525f4641494c000000000000000000000000000000000000005f82015250565b5f61585c600d8361556e565b915061586782615828565b602082019050919050565b5f6020820190508181035f83015261588981615850565b9050919050565b5f8151905061589e816150d4565b92915050565b5f602082840312156158b9576158b8615034565b5b5f6158c684828501615890565b91505092915050565b5f6040820190506158e25f830185615401565b6158ef6020830184615401565b9392505050565b5f60a0820190506159095f830188615401565b6159166020830187615401565b61592360408301866151d5565b6159306060830185615401565b61593d6080830184615401565b9695505050505050565b5f815190506159558161506c565b92915050565b5f602082840312156159705761596f615034565b5b5f61597d84828501615947565b91505092915050565b7f4e487b71000000000000000000000000000000000000000000000000000000005f52604160045260245ffd5b7f4e487b71000000000000000000000000000000000000000000000000000000005f52603260045260245ffd5b5f81519050919050565b5f82825260208201905092915050565b5f819050602082019050919050565b615a128161505b565b82525050565b5f615a238383615a09565b60208301905092915050565b5f602082019050919050565b5f615a45826159e0565b615a4f81856159ea565b9350615a5a836159fa565b805f5b83811015615a8a578151615a718882615a18565b9750615a7c83615a2f565b925050600181019050615a5d565b5085935050505092915050565b5f608082019050615aaa5f830187615401565b8181036020830152615abc8186615a3b565b9050615acb60408301856151d5565b615ad86060830184615401565b95945050505050565b5f5ffd5b5f601f19601f8301169050919050565b615afe82615ae5565b810181811067ffffffffffffffff82111715615b1d57615b1c615986565b5b80604052505050565b5f615b2f61502b565b9050615b3b8282615af5565b919050565b5f67ffffffffffffffff821115615b5a57615b59615986565b5b602082029050602081019050919050565b5f5ffd5b5f615b81615b7c84615b40565b615b26565b90508083825260208201905060208402830185811115615ba457615ba3615b6b565b5b835b81811015615bcd5780615bb98882615890565b845260208401935050602081019050615ba6565b5050509392505050565b5f82601f830112615beb57615bea615ae1565b5b8151615bfb848260208601615b6f565b91505092915050565b5f60208284031215615c1957615c18615034565b5b5f82015167ffffffffffffffff811115615c3657615c35615038565b5b615c4284828501615bd7565b91505092915050565b5f60a082019050615c5e5f830188615401565b615c6b6020830187615401565b8181036040830152615c7d8186615a3b565b9050615c8c60608301856151d5565b615c996080830184615401565b9695505050505050565b5f608082019050615cb65f830187615538565b8181036020830152615cc88186615a3b565b9050615cd760408301856151d5565b615ce46060830184615401565b95945050505050565b5f60a082019050615d005f830188615401565b615d0d6020830187615538565b8181036040830152615d1f8186615a3b565b9050615d2e60608301856151d5565b615d3b6080830184615401565b9695505050505050565b7f415050524f56455f4641494c00000000000000000000000000000000000000005f82015250565b5f615d79600c8361556e565b9150615d8482615d45565b602082019050919050565b5f6020820190508181035f830152615da681615d6d565b905091905056fea26469706673582212207cf3ebe08db8af71d0382cf4c0a099ecdcf16253c0cc98b30ea0bd81f90a677d64736f6c634300081e00330000000000000000000000001689e7b1f10000ae47ebfe339a4f69decd19f6020000000000000000000000001234b50310ff79958509d1a9c8a92458ed1496d100000000000000000000000000000000000000000000000000000000000000fa000000000000000000000000123454ce54debe2cebce95740e9e0f65dff9dbe2",
        "nonce": "0x1db",
        "chainId": "0x14a34"
      },
      "additionalContracts": [],
      "isFixedGasLimit": false
    },
    {
      "hash": "0x15da8dd32079a95e731447431db735ffcfad082baf47f70dcd268fe83d6276d5",
      "transactionType": "CALL",
      "contractName": "KubiStreamerDonation",
      "contractAddress": "0xe938d69b23ff0e8ef24442736ecc6ec324022eab",
      "function": "setGlobalWhitelist(address,bool)",
      "arguments": [
        "0x57b78b98b9Dd06E06DE145b83aeDf6F04E4C5500",
        "true"
      ],
      "transaction": {
        "from": "0x1234562eb0cd65e7d08e59f9f18d7c10b5df232a",
        "to": "0xe938d69b23ff0e8ef24442736ecc6ec324022eab",
        "gas": "0x1047c",
        "value": "0x0",
        "input": "0x25d86ced00000000000000000000000057b78b98b9dd06e06de145b83aedf6f04e4c55000000000000000000000000000000000000000000000000000000000000000001",
        "nonce": "0x1dc",
        "chainId": "0x14a34"
      },
      "additionalContracts": [],
      "isFixedGasLimit": false
    },
    {
      "hash": "0x7aa707427c6bb82fc2977cd6214b1d814c722ddb24682b3a9a279af7ae59e95d",
      "transactionType": "CALL",
      "contractName": "KubiStreamerDonation",
      "contractAddress": "0xe938d69b23ff0e8ef24442736ecc6ec324022eab",
      "function": "setGlobalWhitelist(address,bool)",
      "arguments": [
        "0x1fE9A4E25cAA2a22FC0B61010fDB0DB462FB5b29",
        "true"
      ],
      "transaction": {
        "from": "0x1234562eb0cd65e7d08e59f9f18d7c10b5df232a",
        "to": "0xe938d69b23ff0e8ef24442736ecc6ec324022eab",
        "gas": "0x113e1",
        "value": "0x0",
        "input": "0x25d86ced0000000000000000000000001fe9a4e25caa2a22fc0b61010fdb0db462fb5b290000000000000000000000000000000000000000000000000000000000000001",
        "nonce": "0x1dd",
        "chainId": "0x14a34"
      },
      "additionalContracts": [],
      "isFixedGasLimit": false
    },
    {
      "hash": "0x819fec2e607ce6d2e96d9140f921e06614e7308fe26cdbad7ddcbc011060f0ca",
      "transactionType": "CALL",
      "contractName": "KubiStreamerDonation",
      "contractAddress": "0xe938d69b23ff0e8ef24442736ecc6ec324022eab",
      "function": "setGlobalWhitelist(address,bool)",
      "arguments": [
        "0x5e1E8043381F3A21a1A64f46073daF7E74fEdC1E",
        "true"
      ],
      "transaction": {
        "from": "0x1234562eb0cd65e7d08e59f9f18d7c10b5df232a",
        "to": "0xe938d69b23ff0e8ef24442736ecc6ec324022eab",
        "gas": "0x113e1",
        "value": "0x0",
        "input": "0x25d86ced0000000000000000000000005e1e8043381f3a21a1a64f46073daf7e74fedc1e0000000000000000000000000000000000000000000000000000000000000001",
        "nonce": "0x1de",
        "chainId": "0x14a34"
      },
      "additionalContracts": [],
      "isFixedGasLimit": false
    },
    {
      "hash": "0x53fe4316715ec58ac89d113a78c9e580adf0ba12cc4743f9fe2d5ec24da8df7e",
      "transactionType": "CALL",
      "contractName": "KubiStreamerDonation",
      "contractAddress": "0xe938d69b23ff0e8ef24442736ecc6ec324022eab",
      "function": "setGlobalWhitelist(address,bool)",
      "arguments": [
        "0x06C1e044D5BEb614faA6128001F519e6c693a044",
        "true"
      ],
      "transaction": {
        "from": "0x1234562eb0cd65e7d08e59f9f18d7c10b5df232a",
        "to": "0xe938d69b23ff0e8ef24442736ecc6ec324022eab",
        "gas": "0x113e1",
        "value": "0x0",
        "input": "0x25d86ced00000000000000000000000006c1e044d5beb614faa6128001f519e6c693a0440000000000000000000000000000000000000000000000000000000000000001",
        "nonce": "0x1df",
        "chainId": "0x14a34"
      },
      "additionalContracts": [],
      "isFixedGasLimit": false
    },
    {
      "hash": "0xb5eb17ae766d2635f63248620e821eec88a2eb1637b39a5e3b74ba08594d20de",
      "transactionType": "CALL",
      "contractName": "KubiStreamerDonation",
      "contractAddress": "0xe938d69b23ff0e8ef24442736ecc6ec324022eab",
      "function": "setGlobalWhitelist(address,bool)",
      "arguments": [
        "0x85B8Dc34C7Af35baC8a45CfF53353f39E6F732A2",
        "true"
      ],
      "transaction": {
        "from": "0x1234562eb0cd65e7d08e59f9f18d7c10b5df232a",
        "to": "0xe938d69b23ff0e8ef24442736ecc6ec324022eab",
        "gas": "0x113e1",
        "value": "0x0",
        "input": "0x25d86ced00000000000000000000000085b8dc34c7af35bac8a45cff53353f39e6f732a20000000000000000000000000000000000000000000000000000000000000001",
        "nonce": "0x1e0",
        "chainId": "0x14a34"
      },
      "additionalContracts": [],
      "isFixedGasLimit": false
    },
    {
      "hash": "0x14525ccfd5ba0056c919c975640e0fa0e094a9d9d74ec1454f6cd28e4cdf44d1",
      "transactionType": "CALL",
      "contractName": "KubiStreamerDonation",
      "contractAddress": "0xe938d69b23ff0e8ef24442736ecc6ec324022eab",
      "function": "setGlobalWhitelist(address,bool)",
      "arguments": [
        "0x7392e9E58f202Da3877776c41683AC457DFd4CD7",
        "true"
      ],
      "transaction": {
        "from": "0x1234562eb0cd65e7d08e59f9f18d7c10b5df232a",
        "to": "0xe938d69b23ff0e8ef24442736ecc6ec324022eab",
        "gas": "0x113e1",
        "value": "0x0",
        "input": "0x25d86ced0000000000000000000000007392e9e58f202da3877776c41683ac457dfd4cd70000000000000000000000000000000000000000000000000000000000000001",
        "nonce": "0x1e1",
        "chainId": "0x14a34"
      },
      "additionalContracts": [],
      "isFixedGasLimit": false
    },
    {
      "hash": "0x09a9eaae383f7a8cd1cc8a71f0c015583d3ccd306886f760195e161f283d84b2",
      "transactionType": "CALL",
      "contractName": "KubiStreamerDonation",
      "contractAddress": "0xe938d69b23ff0e8ef24442736ecc6ec324022eab",
      "function": "setGlobalWhitelist(address,bool)",
      "arguments": [
        "0xB03a4Cf6EB030BbABd0452300b01C7DCb9584737",
        "true"
      ],
      "transaction": {
        "from": "0x1234562eb0cd65e7d08e59f9f18d7c10b5df232a",
        "to": "0xe938d69b23ff0e8ef24442736ecc6ec324022eab",
        "gas": "0x113e1",
        "value": "0x0",
        "input": "0x25d86ced000000000000000000000000b03a4cf6eb030bbabd0452300b01c7dcb95847370000000000000000000000000000000000000000000000000000000000000001",
        "nonce": "0x1e2",
        "chainId": "0x14a34"
      },
      "additionalContracts": [],
      "isFixedGasLimit": false
    },
    {
      "hash": "0xa14956aaaa5bd815ad2ed25fe8df44f09af5a0668895c422b929b0a8f69099b2",
      "transactionType": "CALL",
      "contractName": "KubiStreamerDonation",
      "contractAddress": "0xe938d69b23ff0e8ef24442736ecc6ec324022eab",
      "function": "setGlobalWhitelist(address,bool)",
      "arguments": [
        "0x2ffc2F655A26A4def63EFCD59930d1241EE0519a",
        "true"
      ],
      "transaction": {
        "from": "0x1234562eb0cd65e7d08e59f9f18d7c10b5df232a",
        "to": "0xe938d69b23ff0e8ef24442736ecc6ec324022eab",
        "gas": "0x113e1",
        "value": "0x0",
        "input": "0x25d86ced0000000000000000000000002ffc2f655a26a4def63efcd59930d1241ee0519a0000000000000000000000000000000000000000000000000000000000000001",
        "nonce": "0x1e3",
        "chainId": "0x14a34"
      },
      "additionalContracts": [],
      "isFixedGasLimit": false
    },
    {
      "hash": "0x4559e1ee47d2b6092bcecbdcf0d94ff4992db106ed306d742ca849cb656c9bc4",
      "transactionType": "CALL",
      "contractName": "KubiStreamerDonation",
      "contractAddress": "0xe938d69b23ff0e8ef24442736ecc6ec324022eab",
      "function": "setGlobalWhitelist(address,bool)",
      "arguments": [
        "0x14ac27F376b03b6C05F2189c4f03febB5d76432A",
        "true"
      ],
      "transaction": {
        "from": "0x1234562eb0cd65e7d08e59f9f18d7c10b5df232a",
        "to": "0xe938d69b23ff0e8ef24442736ecc6ec324022eab",
        "gas": "0x113e1",
        "value": "0x0",
        "input": "0x25d86ced00000000000000000000000014ac27f376b03b6c05f2189c4f03febb5d76432a0000000000000000000000000000000000000000000000000000000000000001",
        "nonce": "0x1e4",
        "chainId": "0x14a34"
      },
      "additionalContracts": [],
      "isFixedGasLimit": false
    },
    {
      "hash": "0x0ea132c498e4703d1f34b3ad77fd0f53ca3d22e4b31648e9a325e6a883fe775e",
      "transactionType": "CALL",
      "contractName": "KubiStreamerDonation",
      "contractAddress": "0xe938d69b23ff0e8ef24442736ecc6ec324022eab",
      "function": "setGlobalWhitelist(address,bool)",
      "arguments": [
        "0xdac9107491b3c59A97d7f45CEfC97353f6aB46b2",
        "true"
      ],
      "transaction": {
        "from": "0x1234562eb0cd65e7d08e59f9f18d7c10b5df232a",
        "to": "0xe938d69b23ff0e8ef24442736ecc6ec324022eab",
        "gas": "0x113e1",
        "value": "0x0",
        "input": "0x25d86ced000000000000000000000000dac9107491b3c59a97d7f45cefc97353f6ab46b20000000000000000000000000000000000000000000000000000000000000001",
        "nonce": "0x1e5",
        "chainId": "0x14a34"
      },
      "additionalContracts": [],
      "isFixedGasLimit": false
    },
    {
      "hash": "0xb45f3cca20f7e7cc0430271b61ca87dcfb6a547804a30d77a22cf8c9dc56602b",
      "transactionType": "CALL",
      "contractName": "KubiStreamerDonation",
      "contractAddress": "0xe938d69b23ff0e8ef24442736ecc6ec324022eab",
      "function": "setGlobalWhitelist(address,bool)",
      "arguments": [
        "0x9b94108165eF58C9736F2C34B09e3b5b62cF5218",
        "true"
      ],
      "transaction": {
        "from": "0x1234562eb0cd65e7d08e59f9f18d7c10b5df232a",
        "to": "0xe938d69b23ff0e8ef24442736ecc6ec324022eab",
        "gas": "0x113e1",
        "value": "0x0",
        "input": "0x25d86ced0000000000000000000000009b94108165ef58c9736f2c34b09e3b5b62cf52180000000000000000000000000000000000000000000000000000000000000001",
        "nonce": "0x1e6",
        "chainId": "0x14a34"
      },
      "additionalContracts": [],
      "isFixedGasLimit": false
    },
    {
      "hash": "0x4bef7df34f21354aa96ef85dcc49ee7ce1ad30ea1f796566c7ffa54445c0566e",
      "transactionType": "CALL",
      "contractName": "KubiStreamerDonation",
      "contractAddress": "0xe938d69b23ff0e8ef24442736ecc6ec324022eab",
      "function": "setYieldConfig(address,address,bool,uint256)",
      "arguments": [
        "0xAee2A87701aFEF956473d547bD02cD736729D8a7",
        "0x1fE9A4E25cAA2a22FC0B61010fDB0DB462FB5b29",
        "true",
        "0"
      ],
      "transaction": {
        "from": "0x1234562eb0cd65e7d08e59f9f18d7c10b5df232a",
        "to": "0xe938d69b23ff0e8ef24442736ecc6ec324022eab",
        "gas": "0x1397b",
        "value": "0x0",
        "input": "0x0c495f96000000000000000000000000aee2a87701afef956473d547bd02cd736729d8a70000000000000000000000001fe9a4e25caa2a22fc0b61010fdb0db462fb5b2900000000000000000000000000000000000000000000000000000000000000010000000000000000000000000000000000000000000000000000000000000000",
        "nonce": "0x1e7",
        "chainId": "0x14a34"
      },
      "additionalContracts": [],
      "isFixedGasLimit": false
    },
    {
      "hash": "0x48bea8a780c42cffa0ebe5147b126b97a6e481d20fc88cfa7b004ee5297c7d57",
      "transactionType": "CALL",
      "contractName": "KubiStreamerDonation",
      "contractAddress": "0xe938d69b23ff0e8ef24442736ecc6ec324022eab",
      "function": "setYieldConfig(address,address,bool,uint256)",
      "arguments": [
        "0x6aaBE7258f09474e62E8BebB1cf90E15fbAAF777",
        "0x5e1E8043381F3A21a1A64f46073daF7E74fEdC1E",
        "true",
        "0"
      ],
      "transaction": {
        "from": "0x1234562eb0cd65e7d08e59f9f18d7c10b5df232a",
        "to": "0xe938d69b23ff0e8ef24442736ecc6ec324022eab",
        "gas": "0x1397b",
        "value": "0x0",
        "input": "0x0c495f960000000000000000000000006aabe7258f09474e62e8bebb1cf90e15fbaaf7770000000000000000000000005e1e8043381f3a21a1a64f46073daf7e74fedc1e00000000000000000000000000000000000000000000000000000000000000010000000000000000000000000000000000000000000000000000000000000000",
        "nonce": "0x1e8",
        "chainId": "0x14a34"
      },
      "additionalContracts": [],
      "isFixedGasLimit": false
    },
    {
      "hash": "0x5e60a169311c50ed8179dd3d643d54403f572dcd89a4c3b0f536ddfe58e01706",
      "transactionType": "CALL",
      "contractName": "KubiStreamerDonation",
      "contractAddress": "0xe938d69b23ff0e8ef24442736ecc6ec324022eab",
      "function": "setYieldConfig(address,address,bool,uint256)",
      "arguments": [
        "0x5C70fB2a739e9e7Ad5c4311ABF99E0fB65c07eE9",
        "0x06C1e044D5BEb614faA6128001F519e6c693a044",
        "true",
        "0"
      ],
      "transaction": {
        "from": "0x1234562eb0cd65e7d08e59f9f18d7c10b5df232a",
        "to": "0xe938d69b23ff0e8ef24442736ecc6ec324022eab",
        "gas": "0x1397b",
        "value": "0x0",
        "input": "0x0c495f960000000000000000000000005c70fb2a739e9e7ad5c4311abf99e0fb65c07ee900000000000000000000000006c1e044d5beb614faa6128001f519e6c693a04400000000000000000000000000000000000000000000000000000000000000010000000000000000000000000000000000000000000000000000000000000000",
        "nonce": "0x1e9",
        "chainId": "0x14a34"
      },
      "additionalContracts": [],
      "isFixedGasLimit": false
    },
    {
      "hash": "0xba2aaf87b5965496894f234769a04f4608854501d31235ad789022a0d4a928f9",
      "transactionType": "CALL",
      "contractName": "KubiStreamerDonation",
      "contractAddress": "0xe938d69b23ff0e8ef24442736ecc6ec324022eab",
      "function": "setYieldConfig(address,address,bool,uint256)",
      "arguments": [
        "0xbB6Dd87f1fe0483d9FFA90f7A163Caf21F40BA6c",
        "0x85B8Dc34C7Af35baC8a45CfF53353f39E6F732A2",
        "true",
        "0"
      ],
      "transaction": {
        "from": "0x1234562eb0cd65e7d08e59f9f18d7c10b5df232a",
        "to": "0xe938d69b23ff0e8ef24442736ecc6ec324022eab",
        "gas": "0x1397b",
        "value": "0x0",
        "input": "0x0c495f96000000000000000000000000bb6dd87f1fe0483d9ffa90f7a163caf21f40ba6c00000000000000000000000085b8dc34c7af35bac8a45cff53353f39e6f732a200000000000000000000000000000000000000000000000000000000000000010000000000000000000000000000000000000000000000000000000000000000",
        "nonce": "0x1ea",
        "chainId": "0x14a34"
      },
      "additionalContracts": [],
      "isFixedGasLimit": false
    },
    {
      "hash": "0x6829453efac451c58161c73d81a8a3d71beb3cd7cefad40ae586fb87b6d28094",
      "transactionType": "CALL",
      "contractName": "KubiStreamerDonation",
      "contractAddress": "0xe938d69b23ff0e8ef24442736ecc6ec324022eab",
      "function": "setYieldConfig(address,address,bool,uint256)",
      "arguments": [
        "0xcE74630446990AcF6Cd56facBbd6EE908eE55562",
        "0x7392e9E58f202Da3877776c41683AC457DFd4CD7",
        "true",
        "0"
      ],
      "transaction": {
        "from": "0x1234562eb0cd65e7d08e59f9f18d7c10b5df232a",
        "to": "0xe938d69b23ff0e8ef24442736ecc6ec324022eab",
        "gas": "0x1397b",
        "value": "0x0",
        "input": "0x0c495f96000000000000000000000000ce74630446990acf6cd56facbbd6ee908ee555620000000000000000000000007392e9e58f202da3877776c41683ac457dfd4cd700000000000000000000000000000000000000000000000000000000000000010000000000000000000000000000000000000000000000000000000000000000",
        "nonce": "0x1eb",
        "chainId": "0x14a34"
      },
      "additionalContracts": [],
      "isFixedGasLimit": false
    },
    {
      "hash": "0x9efd97a4767f00f230ff16919dbe641581002a86497d1608a2cb02a01e867db0",
      "transactionType": "CALL",
      "contractName": "KubiStreamerDonation",
      "contractAddress": "0xe938d69b23ff0e8ef24442736ecc6ec324022eab",
      "function": "setYieldConfig(address,address,bool,uint256)",
      "arguments": [
        "0xdCC41dee829C1246a936dC5E801cB24303445651",
        "0x1fE9A4E25cAA2a22FC0B61010fDB0DB462FB5b29",
        "true",
        "0"
      ],
      "transaction": {
        "from": "0x1234562eb0cd65e7d08e59f9f18d7c10b5df232a",
        "to": "0xe938d69b23ff0e8ef24442736ecc6ec324022eab",
        "gas": "0x1397b",
        "value": "0x0",
        "input": "0x0c495f96000000000000000000000000dcc41dee829c1246a936dc5e801cb243034456510000000000000000000000001fe9a4e25caa2a22fc0b61010fdb0db462fb5b2900000000000000000000000000000000000000000000000000000000000000010000000000000000000000000000000000000000000000000000000000000000",
        "nonce": "0x1ec",
        "chainId": "0x14a34"
      },
      "additionalContracts": [],
      "isFixedGasLimit": false
    },
    {
      "hash": "0xf889d3c9bc7358274ef1fef0192c2d4ca71d3cd213fd07c732fe7aae7b7bd75a",
      "transactionType": "CALL",
      "contractName": "KubiStreamerDonation",
      "contractAddress": "0xe938d69b23ff0e8ef24442736ecc6ec324022eab",
      "function": "setYieldConfig(address,address,bool,uint256)",
      "arguments": [
        "0x8f5816ca88ED2775305b154625744E36943Cc750",
        "0x5e1E8043381F3A21a1A64f46073daF7E74fEdC1E",
        "true",
        "0"
      ],
      "transaction": {
        "from": "0x1234562eb0cd65e7d08e59f9f18d7c10b5df232a",
        "to": "0xe938d69b23ff0e8ef24442736ecc6ec324022eab",
        "gas": "0x1397b",
        "value": "0x0",
        "input": "0x0c495f960000000000000000000000008f5816ca88ed2775305b154625744e36943cc7500000000000000000000000005e1e8043381f3a21a1a64f46073daf7e74fedc1e00000000000000000000000000000000000000000000000000000000000000010000000000000000000000000000000000000000000000000000000000000000",
        "nonce": "0x1ed",
        "chainId": "0x14a34"
      },
      "additionalContracts": [],
      "isFixedGasLimit": false
    },
    {
      "hash": "0xaa09f4610c41740f17d919470e344b8eb1e3a6ab566948ebe151052d1c09c476",
      "transactionType": "CALL",
      "contractName": "KubiStreamerDonation",
      "contractAddress": "0xe938d69b23ff0e8ef24442736ecc6ec324022eab",
      "function": "setYieldConfig(address,address,bool,uint256)",
      "arguments": [
        "0x2BB55f68fb05De13B04e5a2cadbAE5A05bCE277B",
        "0x06C1e044D5BEb614faA6128001F519e6c693a044",
        "true",
        "0"
      ],
      "transaction": {
        "from": "0x1234562eb0cd65e7d08e59f9f18d7c10b5df232a",
        "to": "0xe938d69b23ff0e8ef24442736ecc6ec324022eab",
        "gas": "0x1397b",
        "value": "0x0",
        "input": "0x0c495f960000000000000000000000002bb55f68fb05de13b04e5a2cadbae5a05bce277b00000000000000000000000006c1e044d5beb614faa6128001f519e6c693a04400000000000000000000000000000000000000000000000000000000000000010000000000000000000000000000000000000000000000000000000000000000",
        "nonce": "0x1ee",
        "chainId": "0x14a34"
      },
      "additionalContracts": [],
      "isFixedGasLimit": false
    },
    {
      "hash": "0x932d97a1b272b1159ff911894880375c940ad29d5901c11aee44a7094dc0891e",
      "transactionType": "CALL",
      "contractName": "KubiStreamerDonation",
      "contractAddress": "0xe938d69b23ff0e8ef24442736ecc6ec324022eab",
      "function": "setYieldConfig(address,address,bool,uint256)",
      "arguments": [
        "0xa022FD1966577144fCb5Ed8aD5a134861aE5e138",
        "0x85B8Dc34C7Af35baC8a45CfF53353f39E6F732A2",
        "true",
        "0"
      ],
      "transaction": {
        "from": "0x1234562eb0cd65e7d08e59f9f18d7c10b5df232a",
        "to": "0xe938d69b23ff0e8ef24442736ecc6ec324022eab",
        "gas": "0x1397b",
        "value": "0x0",
        "input": "0x0c495f96000000000000000000000000a022fd1966577144fcb5ed8ad5a134861ae5e13800000000000000000000000085b8dc34c7af35bac8a45cff53353f39e6f732a200000000000000000000000000000000000000000000000000000000000000010000000000000000000000000000000000000000000000000000000000000000",
        "nonce": "0x1ef",
        "chainId": "0x14a34"
      },
      "additionalContracts": [],
      "isFixedGasLimit": false
    },
    {
      "hash": "0x9ddeec582801b6b394ab33b24b042a3edde1ce63074ae284963189077987a019",
      "transactionType": "CALL",
      "contractName": "KubiStreamerDonation",
      "contractAddress": "0xe938d69b23ff0e8ef24442736ecc6ec324022eab",
      "function": "setYieldConfig(address,address,bool,uint256)",
      "arguments": [
        "0xEC4c46F46191d77C3D8Ba3ddFafe71b58E2089Af",
        "0x7392e9E58f202Da3877776c41683AC457DFd4CD7",
        "true",
        "0"
      ],
      "transaction": {
        "from": "0x1234562eb0cd65e7d08e59f9f18d7c10b5df232a",
        "to": "0xe938d69b23ff0e8ef24442736ecc6ec324022eab",
        "gas": "0x1397b",
        "value": "0x0",
        "input": "0x0c495f96000000000000000000000000ec4c46f46191d77c3d8ba3ddfafe71b58e2089af0000000000000000000000007392e9e58f202da3877776c41683ac457dfd4cd700000000000000000000000000000000000000000000000000000000000000010000000000000000000000000000000000000000000000000000000000000000",
        "nonce": "0x1f0",
        "chainId": "0x14a34"
      },
      "additionalContracts": [],
      "isFixedGasLimit": false
    },
    {
      "hash": "0x9d44b26c5878acb013bc13c4b4ed13e4e8abc8e1f047ff3dc2f9f2b8f62d3176",
      "transactionType": "CALL",
      "contractName": "KubiStreamerDonation",
      "contractAddress": "0xe938d69b23ff0e8ef24442736ecc6ec324022eab",
      "function": "setYieldConfig(address,address,bool,uint256)",
      "arguments": [
        "0xE47Eba0dBf716D99482Fb071ca04aDf4FCCd6b1f",
        "0x1fE9A4E25cAA2a22FC0B61010fDB0DB462FB5b29",
        "true",
        "0"
      ],
      "transaction": {
        "from": "0x1234562eb0cd65e7d08e59f9f18d7c10b5df232a",
        "to": "0xe938d69b23ff0e8ef24442736ecc6ec324022eab",
        "gas": "0x1397b",
        "value": "0x0",
        "input": "0x0c495f96000000000000000000000000e47eba0dbf716d99482fb071ca04adf4fccd6b1f0000000000000000000000001fe9a4e25caa2a22fc0b61010fdb0db462fb5b2900000000000000000000000000000000000000000000000000000000000000010000000000000000000000000000000000000000000000000000000000000000",
        "nonce": "0x1f1",
        "chainId": "0x14a34"
      },
      "additionalContracts": [],
      "isFixedGasLimit": false
    },
    {
      "hash": "0x968eec285967146c08c865fcb676654c00d920a0da0a43b64e9581732d818a1d",
      "transactionType": "CALL",
      "contractName": "KubiStreamerDonation",
      "contractAddress": "0xe938d69b23ff0e8ef24442736ecc6ec324022eab",
      "function": "setYieldConfig(address,address,bool,uint256)",
      "arguments": [
        "0x4E3A466BbA553Ace4Cd3a6149d574F3f034b5269",
        "0x5e1E8043381F3A21a1A64f46073daF7E74fEdC1E",
        "true",
        "0"
      ],
      "transaction": {
        "from": "0x1234562eb0cd65e7d08e59f9f18d7c10b5df232a",
        "to": "0xe938d69b23ff0e8ef24442736ecc6ec324022eab",
        "gas": "0x1397b",
        "value": "0x0",
        "input": "0x0c495f960000000000000000000000004e3a466bba553ace4cd3a6149d574f3f034b52690000000000000000000000005e1e8043381f3a21a1a64f46073daf7e74fedc1e00000000000000000000000000000000000000000000000000000000000000010000000000000000000000000000000000000000000000000000000000000000",
        "nonce": "0x1f2",
        "chainId": "0x14a34"
      },
      "additionalContracts": [],
      "isFixedGasLimit": false
    },
    {
      "hash": "0xb0d866ea50a90d8c77c7b324edcd5376cf667774fe340c716d37ff57680ec9d1",
      "transactionType": "CALL",
      "contractName": "KubiStreamerDonation",
      "contractAddress": "0xe938d69b23ff0e8ef24442736ecc6ec324022eab",
      "function": "setYieldConfig(address,address,bool,uint256)",
      "arguments": [
        "0x751A0E0147d10b8C21804AC88DCfa6837312ea35",
        "0x06C1e044D5BEb614faA6128001F519e6c693a044",
        "true",
        "0"
      ],
      "transaction": {
        "from": "0x1234562eb0cd65e7d08e59f9f18d7c10b5df232a",
        "to": "0xe938d69b23ff0e8ef24442736ecc6ec324022eab",
        "gas": "0x1397b",
        "value": "0x0",
        "input": "0x0c495f96000000000000000000000000751a0e0147d10b8c21804ac88dcfa6837312ea3500000000000000000000000006c1e044d5beb614faa6128001f519e6c693a04400000000000000000000000000000000000000000000000000000000000000010000000000000000000000000000000000000000000000000000000000000000",
        "nonce": "0x1f3",
        "chainId": "0x14a34"
      },
      "additionalContracts": [],
      "isFixedGasLimit": false
    },
    {
      "hash": "0xcfa6dc144ff07de01ea1c1c18b473a82e34257deff9555f172e02415ebc0a50b",
      "transactionType": "CALL",
      "contractName": "KubiStreamerDonation",
      "contractAddress": "0xe938d69b23ff0e8ef24442736ecc6ec324022eab",
      "function": "setYieldConfig(address,address,bool,uint256)",
      "arguments": [
        "0xD8D362BADb84Cc1F97a00273ddC8845FD4148C80",
        "0x85B8Dc34C7Af35baC8a45CfF53353f39E6F732A2",
        "true",
        "0"
      ],
      "transaction": {
        "from": "0x1234562eb0cd65e7d08e59f9f18d7c10b5df232a",
        "to": "0xe938d69b23ff0e8ef24442736ecc6ec324022eab",
        "gas": "0x1397b",
        "value": "0x0",
        "input": "0x0c495f96000000000000000000000000d8d362badb84cc1f97a00273ddc8845fd4148c8000000000000000000000000085b8dc34c7af35bac8a45cff53353f39e6f732a200000000000000000000000000000000000000000000000000000000000000010000000000000000000000000000000000000000000000000000000000000000",
        "nonce": "0x1f4",
        "chainId": "0x14a34"
      },
      "additionalContracts": [],
      "isFixedGasLimit": false
    },
    {
      "hash": "0x96002e96eceaa8d946fbdc7acfa00674230990af9134103c81c5efdb85f95960",
      "transactionType": "CALL",
      "contractName": "KubiStreamerDonation",
      "contractAddress": "0xe938d69b23ff0e8ef24442736ecc6ec324022eab",
      "function": "setYieldConfig(address,address,bool,uint256)",
      "arguments": [
        "0x1061473A78f6eb0a0BcBDE060a5EeA9d4273BB59",
        "0x7392e9E58f202Da3877776c41683AC457DFd4CD7",
        "true",
        "0"
      ],
      "transaction": {
        "from": "0x1234562eb0cd65e7d08e59f9f18d7c10b5df232a",
        "to": "0xe938d69b23ff0e8ef24442736ecc6ec324022eab",
        "gas": "0x1397b",
        "value": "0x0",
        "input": "0x0c495f960000000000000000000000001061473a78f6eb0a0bcbde060a5eea9d4273bb590000000000000000000000007392e9e58f202da3877776c41683ac457dfd4cd700000000000000000000000000000000000000000000000000000000000000010000000000000000000000000000000000000000000000000000000000000000",
        "nonce": "0x1f5",
        "chainId": "0x14a34"
      },
      "additionalContracts": [],
      "isFixedGasLimit": false
    },
    {
      "hash": "0x50f5aa82b83484387bdbb60c6e31d8b1d3e48191e8ce6097bf0f9ce0f3ea10ef",
      "transactionType": "CALL",
      "contractName": "KubiStreamerDonation",
      "contractAddress": "0xe938d69b23ff0e8ef24442736ecc6ec324022eab",
      "function": "setYieldConfig(address,address,bool,uint256)",
      "arguments": [
        "0x824FB936D24B2BAaF92Fe87FD65fF22d01439ECE",
        "0x1fE9A4E25cAA2a22FC0B61010fDB0DB462FB5b29",
        "true",
        "0"
      ],
      "transaction": {
        "from": "0x1234562eb0cd65e7d08e59f9f18d7c10b5df232a",
        "to": "0xe938d69b23ff0e8ef24442736ecc6ec324022eab",
        "gas": "0x1397b",
        "value": "0x0",
        "input": "0x0c495f96000000000000000000000000824fb936d24b2baaf92fe87fd65ff22d01439ece0000000000000000000000001fe9a4e25caa2a22fc0b61010fdb0db462fb5b2900000000000000000000000000000000000000000000000000000000000000010000000000000000000000000000000000000000000000000000000000000000",
        "nonce": "0x1f6",
        "chainId": "0x14a34"
      },
      "additionalContracts": [],
      "isFixedGasLimit": false
    },
    {
      "hash": "0x30f66bc5feed29d4cae81f32880be20f6708f0a8d7947c285038f8ac3041037f",
      "transactionType": "CALL",
      "contractName": "KubiStreamerDonation",
      "contractAddress": "0xe938d69b23ff0e8ef24442736ecc6ec324022eab",
      "function": "setYieldConfig(address,address,bool,uint256)",
      "arguments": [
        "0x012bd7CD0AcC8cB696306B1aB7a537E85eF2056f",
        "0x5e1E8043381F3A21a1A64f46073daF7E74fEdC1E",
        "true",
        "0"
      ],
      "transaction": {
        "from": "0x1234562eb0cd65e7d08e59f9f18d7c10b5df232a",
        "to": "0xe938d69b23ff0e8ef24442736ecc6ec324022eab",
        "gas": "0x1397b",
        "value": "0x0",
        "input": "0x0c495f96000000000000000000000000012bd7cd0acc8cb696306b1ab7a537e85ef2056f0000000000000000000000005e1e8043381f3a21a1a64f46073daf7e74fedc1e00000000000000000000000000000000000000000000000000000000000000010000000000000000000000000000000000000000000000000000000000000000",
        "nonce": "0x1f7",
        "chainId": "0x14a34"
      },
      "additionalContracts": [],
      "isFixedGasLimit": false
    },
    {
      "hash": "0xea537d93d86e034c1a6b73421fae3de3e0a74079e0ca2afaaca24474655d630b",
      "transactionType": "CALL",
      "contractName": "KubiStreamerDonation",
      "contractAddress": "0xe938d69b23ff0e8ef24442736ecc6ec324022eab",
      "function": "setYieldConfig(address,address,bool,uint256)",
      "arguments": [
        "0x4d8346F2F33FFBc7fa2E46bECF83C978943e69C8",
        "0x06C1e044D5BEb614faA6128001F519e6c693a044",
        "true",
        "0"
      ],
      "transaction": {
        "from": "0x1234562eb0cd65e7d08e59f9f18d7c10b5df232a",
        "to": "0xe938d69b23ff0e8ef24442736ecc6ec324022eab",
        "gas": "0x1397b",
        "value": "0x0",
        "input": "0x0c495f960000000000000000000000004d8346f2f33ffbc7fa2e46becf83c978943e69c800000000000000000000000006c1e044d5beb614faa6128001f519e6c693a04400000000000000000000000000000000000000000000000000000000000000010000000000000000000000000000000000000000000000000000000000000000",
        "nonce": "0x1f8",
        "chainId": "0x14a34"
      },
      "additionalContracts": [],
      "isFixedGasLimit": false
    },
    {
      "hash": "0x75d4e66857b9671f162ba95f869e784dc3048b09812fbb3cb9f85cc80eb71351",
      "transactionType": "CALL",
      "contractName": "KubiStreamerDonation",
      "contractAddress": "0xe938d69b23ff0e8ef24442736ecc6ec324022eab",
      "function": "setYieldConfig(address,address,bool,uint256)",
      "arguments": [
        "0x2db087D43Fc8402aDE0706807d32d6EF72411ebd",
        "0x85B8Dc34C7Af35baC8a45CfF53353f39E6F732A2",
        "true",
        "0"
      ],
      "transaction": {
        "from": "0x1234562eb0cd65e7d08e59f9f18d7c10b5df232a",
        "to": "0xe938d69b23ff0e8ef24442736ecc6ec324022eab",
        "gas": "0x1397b",
        "value": "0x0",
        "input": "0x0c495f960000000000000000000000002db087d43fc8402ade0706807d32d6ef72411ebd00000000000000000000000085b8dc34c7af35bac8a45cff53353f39e6f732a200000000000000000000000000000000000000000000000000000000000000010000000000000000000000000000000000000000000000000000000000000000",
        "nonce": "0x1f9",
        "chainId": "0x14a34"
      },
      "additionalContracts": [],
      "isFixedGasLimit": false
    },
    {
      "hash": "0x96a0dc8247e69901442052064d6864fb24fd05d0144fd17447afc946192a8f4b",
      "transactionType": "CALL",
      "contractName": "KubiStreamerDonation",
      "contractAddress": "0xe938d69b23ff0e8ef24442736ecc6ec324022eab",
      "function": "setYieldConfig(address,address,bool,uint256)",
      "arguments": [
        "0xD14bD87b18dA3Ec84a9e098DF1c808d9cb7a9852",
        "0x7392e9E58f202Da3877776c41683AC457DFd4CD7",
        "true",
        "0"
      ],
      "transaction": {
        "from": "0x1234562eb0cd65e7d08e59f9f18d7c10b5df232a",
        "to": "0xe938d69b23ff0e8ef24442736ecc6ec324022eab",
        "gas": "0x1397b",
        "value": "0x0",
        "input": "0x0c495f96000000000000000000000000d14bd87b18da3ec84a9e098df1c808d9cb7a98520000000000000000000000007392e9e58f202da3877776c41683ac457dfd4cd700000000000000000000000000000000000000000000000000000000000000010000000000000000000000000000000000000000000000000000000000000000",
        "nonce": "0x1fa",
        "chainId": "0x14a34"
      },
      "additionalContracts": [],
      "isFixedGasLimit": false
    }
  ],
  "receipts": [
    {
      "status": "0x1",
      "cumulativeGasUsed": "0x7a8010",
      "logs": [
        {
          "address": "0xe938d69b23ff0e8ef24442736ecc6ec324022eab",
          "topics": [
            "0x8be0079c531659141344cd1fd0a4f28419497f9722a3daafe3b4186f6b6457e0",
            "0x0000000000000000000000000000000000000000000000000000000000000000",
            "0x0000000000000000000000001234562eb0cd65e7d08e59f9f18d7c10b5df232a"
          ],
          "data": "0x",
          "blockHash": "0x6ea052ea8711133947e812260c6212b1a8ac3f8ce50ce2df9872b6316e0c162b",
          "blockNumber": "0x1f17298",
          "blockTimestamp": "0x68f64410",
          "transactionHash": "0x6ba3fa11b7b7b4fae07908696d895ef825858ae3e0928d37b6883f670e656d2b",
          "transactionIndex": "0x1c",
          "logIndex": "0x4e",
          "removed": false
        }
      ],
      "logsBloom": "0x00000000000000000000000000000000000000000000000000800000000000000000000000000000000000000000000000000000000000000000000000000000000000000000000020000000000000000001000000000000000000000000000000000000020000000000000000000800000000000000000400000000000000400000000000000000000000000000000000000000000200000000000000000000020000000000000000000000000000000000000000000000000000000000000000000080000000000000000000000000000000000000004000000000000020000000000000000000000000000000000000000000000000000000000000000000",
      "type": "0x2",
      "transactionHash": "0x6ba3fa11b7b7b4fae07908696d895ef825858ae3e0928d37b6883f670e656d2b",
      "transactionIndex": "0x1c",
      "blockHash": "0x6ea052ea8711133947e812260c6212b1a8ac3f8ce50ce2df9872b6316e0c162b",
      "blockNumber": "0x1f17298",
      "gasUsed": "0x5184e9",
      "effectiveGasPrice": "0xf4292",
      "from": "0x1234562eb0cd65e7d08e59f9f18d7c10b5df232a",
      "to": null,
      "contractAddress": "0xe938d69b23ff0e8ef24442736ecc6ec324022eab",
      "l1BaseFeeScalar": "0x44d",
      "l1BlobBaseFee": "0x46117a6",
      "l1BlobBaseFeeScalar": "0xa118b",
      "l1Fee": "0x5337093863",
      "l1GasPrice": "0xa",
      "l1GasUsed": "0x1ccc2"
    },
    {
      "status": "0x1",
      "cumulativeGasUsed": "0x7b3ca7",
      "logs": [
        {
          "address": "0xe938d69b23ff0e8ef24442736ecc6ec324022eab",
          "topics": [
            "0xac90355684e2710fa34c2c7d500018678b146ea2d56ddc331c63d242ee8bf385",
            "0x00000000000000000000000057b78b98b9dd06e06de145b83aedf6f04e4c5500"
          ],
          "data": "0x0000000000000000000000000000000000000000000000000000000000000001",
          "blockHash": "0x6ea052ea8711133947e812260c6212b1a8ac3f8ce50ce2df9872b6316e0c162b",
          "blockNumber": "0x1f17298",
          "blockTimestamp": "0x68f64410",
          "transactionHash": "0x15da8dd32079a95e731447431db735ffcfad082baf47f70dcd268fe83d6276d5",
          "transactionIndex": "0x1d",
          "logIndex": "0x4f",
          "removed": false
        }
      ],
      "logsBloom": "0x00000000000000000200000000000000000000000000000000000000000000000000000000000000000000000000000000000000000000040010000000000000000000000000000000000000000000000000000000000000000000000000000000000000000000000000000000000000000000000000000400000000002000000000000000000000000000000000000000000000000000000000000000000000000000000000000000000000000000000000000000000000000000000000000080020080000000000000000000000000000000000000004000000000000000000000000000000000000000000000000000000000000000000000000000000000",
      "type": "0x2",
      "transactionHash": "0x15da8dd32079a95e731447431db735ffcfad082baf47f70dcd268fe83d6276d5",
      "transactionIndex": "0x1d",
      "blockHash": "0x6ea052ea8711133947e812260c6212b1a8ac3f8ce50ce2df9872b6316e0c162b",
      "blockNumber": "0x1f17298",
      "gasUsed": "0xbc97",
      "effectiveGasPrice": "0xf4292",
      "from": "0x1234562eb0cd65e7d08e59f9f18d7c10b5df232a",
      "to": "0xe938d69b23ff0e8ef24442736ecc6ec324022eab",
      "contractAddress": null,
      "l1BaseFeeScalar": "0x44d",
      "l1BlobBaseFee": "0x46117a6",
      "l1BlobBaseFeeScalar": "0xa118b",
      "l1Fee": "0x120f76492",
      "l1GasPrice": "0xa",
      "l1GasUsed": "0x640"
    },
    {
      "status": "0x1",
      "cumulativeGasUsed": "0x7bf94a",
      "logs": [
        {
          "address": "0xe938d69b23ff0e8ef24442736ecc6ec324022eab",
          "topics": [
            "0xac90355684e2710fa34c2c7d500018678b146ea2d56ddc331c63d242ee8bf385",
            "0x0000000000000000000000001fe9a4e25caa2a22fc0b61010fdb0db462fb5b29"
          ],
          "data": "0x0000000000000000000000000000000000000000000000000000000000000001",
          "blockHash": "0x6ea052ea8711133947e812260c6212b1a8ac3f8ce50ce2df9872b6316e0c162b",
          "blockNumber": "0x1f17298",
          "blockTimestamp": "0x68f64410",
          "transactionHash": "0x7aa707427c6bb82fc2977cd6214b1d814c722ddb24682b3a9a279af7ae59e95d",
          "transactionIndex": "0x1e",
          "logIndex": "0x50",
          "removed": false
        }
      ],
      "logsBloom": "0x00000000000000000200000000000000000000000000000000008000000000000000000000000000000000000000000000000000000000000010000000000001000000000000000000000080000000000000000000000000000000000000000000000000000000000000000000000000000000000000000400000000002000000000000000000000000000000000000000000000000000000000000000000000000000000000000000000000000000000000000000000000000000000000000000000080000000000000000000000000000000000000004000000000000000000000000000000000000000000000000000000000000000000000000000000000",
      "type": "0x2",
      "transactionHash": "0x7aa707427c6bb82fc2977cd6214b1d814c722ddb24682b3a9a279af7ae59e95d",
      "transactionIndex": "0x1e",
      "blockHash": "0x6ea052ea8711133947e812260c6212b1a8ac3f8ce50ce2df9872b6316e0c162b",
      "blockNumber": "0x1f17298",
      "gasUsed": "0xbca3",
      "effectiveGasPrice": "0xf4292",
      "from": "0x1234562eb0cd65e7d08e59f9f18d7c10b5df232a",
      "to": "0xe938d69b23ff0e8ef24442736ecc6ec324022eab",
      "contractAddress": null,
      "l1BaseFeeScalar": "0x44d",
      "l1BlobBaseFee": "0x46117a6",
      "l1BlobBaseFeeScalar": "0xa118b",
      "l1Fee": "0x120f76492",
      "l1GasPrice": "0xa",
      "l1GasUsed": "0x640"
    },
    {
      "status": "0x1",
      "cumulativeGasUsed": "0x7cb5ed",
      "logs": [
        {
          "address": "0xe938d69b23ff0e8ef24442736ecc6ec324022eab",
          "topics": [
            "0xac90355684e2710fa34c2c7d500018678b146ea2d56ddc331c63d242ee8bf385",
            "0x0000000000000000000000005e1e8043381f3a21a1a64f46073daf7e74fedc1e"
          ],
          "data": "0x0000000000000000000000000000000000000000000000000000000000000001",
          "blockHash": "0x6ea052ea8711133947e812260c6212b1a8ac3f8ce50ce2df9872b6316e0c162b",
          "blockNumber": "0x1f17298",
          "blockTimestamp": "0x68f64410",
          "transactionHash": "0x819fec2e607ce6d2e96d9140f921e06614e7308fe26cdbad7ddcbc011060f0ca",
          "transactionIndex": "0x1f",
          "logIndex": "0x51",
          "removed": false
        }
      ],
      "logsBloom": "0x000000000000000002000000000000000000000000000000000000000000000000000000000000000000000000000000000000000000000000100000000000000000000000000400000000000000000000000000000000000000000000000000000000000000000000000000000000000000000000000004000000000020000000000000000000000000000000000000000000000000000000000000000000000000000000000000000000000000000000000000000000000000000000000000000000a0000000000000000000000000000000000000004000000000000000000000000000000000000000000000000001000000000000000000000000000000",
      "type": "0x2",
      "transactionHash": "0x819fec2e607ce6d2e96d9140f921e06614e7308fe26cdbad7ddcbc011060f0ca",
      "transactionIndex": "0x1f",
      "blockHash": "0x6ea052ea8711133947e812260c6212b1a8ac3f8ce50ce2df9872b6316e0c162b",
      "blockNumber": "0x1f17298",
      "gasUsed": "0xbca3",
      "effectiveGasPrice": "0xf4292",
      "from": "0x1234562eb0cd65e7d08e59f9f18d7c10b5df232a",
      "to": "0xe938d69b23ff0e8ef24442736ecc6ec324022eab",
      "contractAddress": null,
      "l1BaseFeeScalar": "0x44d",
      "l1BlobBaseFee": "0x46117a6",
      "l1BlobBaseFeeScalar": "0xa118b",
      "l1Fee": "0x120f76492",
      "l1GasPrice": "0xa",
      "l1GasUsed": "0x640"
    },
    {
      "status": "0x1",
      "cumulativeGasUsed": "0xa11efd",
      "logs": [
        {
          "address": "0xe938d69b23ff0e8ef24442736ecc6ec324022eab",
          "topics": [
            "0xac90355684e2710fa34c2c7d500018678b146ea2d56ddc331c63d242ee8bf385",
            "0x00000000000000000000000006c1e044d5beb614faa6128001f519e6c693a044"
          ],
          "data": "0x0000000000000000000000000000000000000000000000000000000000000001",
          "blockHash": "0x6ea052ea8711133947e812260c6212b1a8ac3f8ce50ce2df9872b6316e0c162b",
          "blockNumber": "0x1f17298",
          "blockTimestamp": "0x68f64410",
          "transactionHash": "0x53fe4316715ec58ac89d113a78c9e580adf0ba12cc4743f9fe2d5ec24da8df7e",
          "transactionIndex": "0x34",
          "logIndex": "0xb7",
          "removed": false
        }
      ],
      "logsBloom": "0x00000000000000010200000000000000000000800000000000000000000000000000000000000000000000000000000000000000000000000010000000000000000000000000000000000000000000000000000000000000000000000000000000000000000000000000000000000000000000000000000400000000002000000000000000000000000000000000000000000000000000000000000000000000000000000000000000000000000000000000000000000000000000000000000000000080000000000000000000000000000000000000004000000000000000000000000000000000000000000000000000000000040000000000000000000000",
      "type": "0x2",
      "transactionHash": "0x53fe4316715ec58ac89d113a78c9e580adf0ba12cc4743f9fe2d5ec24da8df7e",
      "transactionIndex": "0x34",
      "blockHash": "0x6ea052ea8711133947e812260c6212b1a8ac3f8ce50ce2df9872b6316e0c162b",
      "blockNumber": "0x1f17298",
      "gasUsed": "0xbca3",
      "effectiveGasPrice": "0xf4292",
      "from": "0x1234562eb0cd65e7d08e59f9f18d7c10b5df232a",
      "to": "0xe938d69b23ff0e8ef24442736ecc6ec324022eab",
      "contractAddress": null,
      "l1BaseFeeScalar": "0x44d",
      "l1BlobBaseFee": "0x46117a6",
      "l1BlobBaseFeeScalar": "0xa118b",
      "l1Fee": "0x120f76492",
      "l1GasPrice": "0xa",
      "l1GasUsed": "0x640"
    },
    {
      "status": "0x1",
      "cumulativeGasUsed": "0xa1dba0",
      "logs": [
        {
          "address": "0xe938d69b23ff0e8ef24442736ecc6ec324022eab",
          "topics": [
            "0xac90355684e2710fa34c2c7d500018678b146ea2d56ddc331c63d242ee8bf385",
            "0x00000000000000000000000085b8dc34c7af35bac8a45cff53353f39e6f732a2"
          ],
          "data": "0x0000000000000000000000000000000000000000000000000000000000000001",
          "blockHash": "0x6ea052ea8711133947e812260c6212b1a8ac3f8ce50ce2df9872b6316e0c162b",
          "blockNumber": "0x1f17298",
          "blockTimestamp": "0x68f64410",
          "transactionHash": "0xb5eb17ae766d2635f63248620e821eec88a2eb1637b39a5e3b74ba08594d20de",
          "transactionIndex": "0x35",
          "logIndex": "0xb8",
          "removed": false
        }
      ],
      "logsBloom": "0x00000000000000000200000000000000000000000000000000000000000000000000000000000000000000000000000000000000000000000010000000000000000000000000000000000000000000000000000000000000000000000000000000040000000000000000000000000000000000000000000400000000002000000000000000000000000000000000000000040000000000000000000000000000000000000000000000000000000000000000000000000000000000000000000000000080000000000000000000000000000000000000004001000000000000000000000000000000000000000000000000000000000000000000000000000000",
      "type": "0x2",
      "transactionHash": "0xb5eb17ae766d2635f63248620e821eec88a2eb1637b39a5e3b74ba08594d20de",
      "transactionIndex": "0x35",
      "blockHash": "0x6ea052ea8711133947e812260c6212b1a8ac3f8ce50ce2df9872b6316e0c162b",
      "blockNumber": "0x1f17298",
      "gasUsed": "0xbca3",
      "effectiveGasPrice": "0xf4292",
      "from": "0x1234562eb0cd65e7d08e59f9f18d7c10b5df232a",
      "to": "0xe938d69b23ff0e8ef24442736ecc6ec324022eab",
      "contractAddress": null,
      "l1BaseFeeScalar": "0x44d",
      "l1BlobBaseFee": "0x46117a6",
      "l1BlobBaseFeeScalar": "0xa118b",
      "l1Fee": "0x120f76492",
      "l1GasPrice": "0xa",
      "l1GasUsed": "0x640"
    },
    {
      "status": "0x1",
      "cumulativeGasUsed": "0xa29843",
      "logs": [
        {
          "address": "0xe938d69b23ff0e8ef24442736ecc6ec324022eab",
          "topics": [
            "0xac90355684e2710fa34c2c7d500018678b146ea2d56ddc331c63d242ee8bf385",
            "0x0000000000000000000000007392e9e58f202da3877776c41683ac457dfd4cd7"
          ],
          "data": "0x0000000000000000000000000000000000000000000000000000000000000001",
          "blockHash": "0x6ea052ea8711133947e812260c6212b1a8ac3f8ce50ce2df9872b6316e0c162b",
          "blockNumber": "0x1f17298",
          "blockTimestamp": "0x68f64410",
          "transactionHash": "0x14525ccfd5ba0056c919c975640e0fa0e094a9d9d74ec1454f6cd28e4cdf44d1",
          "transactionIndex": "0x36",
          "logIndex": "0xb9",
          "removed": false
        }
      ],
      "logsBloom": "0x00000000000000000200000000000000000000000000000000000000000000000000000000000000000000000000000000000000000000000010000000000000000000000000000000000000000000000000000000000000000000000000000000000000000000000000000000000000000000000000000400000000002000000000000000000000000000000000000000000000000000000000000000000000000000000000000000000000000000000000000000000000000000000000000000000080001000000000000000000100000000000000004000000000000000000000000000000000000000000000000000000000000000000000004000000000",
      "type": "0x2",
      "transactionHash": "0x14525ccfd5ba0056c919c975640e0fa0e094a9d9d74ec1454f6cd28e4cdf44d1",
      "transactionIndex": "0x36",
      "blockHash": "0x6ea052ea8711133947e812260c6212b1a8ac3f8ce50ce2df9872b6316e0c162b",
      "blockNumber": "0x1f17298",
      "gasUsed": "0xbca3",
      "effectiveGasPrice": "0xf4292",
      "from": "0x1234562eb0cd65e7d08e59f9f18d7c10b5df232a",
      "to": "0xe938d69b23ff0e8ef24442736ecc6ec324022eab",
      "contractAddress": null,
      "l1BaseFeeScalar": "0x44d",
      "l1BlobBaseFee": "0x46117a6",
      "l1BlobBaseFeeScalar": "0xa118b",
      "l1Fee": "0x120f76492",
      "l1GasPrice": "0xa",
      "l1GasUsed": "0x640"
    },
    {
      "status": "0x1",
      "cumulativeGasUsed": "0xa354e6",
      "logs": [
        {
          "address": "0xe938d69b23ff0e8ef24442736ecc6ec324022eab",
          "topics": [
            "0xac90355684e2710fa34c2c7d500018678b146ea2d56ddc331c63d242ee8bf385",
            "0x000000000000000000000000b03a4cf6eb030bbabd0452300b01c7dcb9584737"
          ],
          "data": "0x0000000000000000000000000000000000000000000000000000000000000001",
          "blockHash": "0x6ea052ea8711133947e812260c6212b1a8ac3f8ce50ce2df9872b6316e0c162b",
          "blockNumber": "0x1f17298",
          "blockTimestamp": "0x68f64410",
          "transactionHash": "0x09a9eaae383f7a8cd1cc8a71f0c015583d3ccd306886f760195e161f283d84b2",
          "transactionIndex": "0x37",
          "logIndex": "0xba",
          "removed": false
        }
      ],
      "logsBloom": "0x00000000000000000200000000000000080000000000000000000000000000000000000000000000000000000040000000000000000000000010000000000000000000000000000000000000000000000000000000000000000000000000000000000000000000000000000000000000000000000000000400000000002000000000000000000000000000000000000000000000000000000000000000000000000000000000000000000000000000000000000000000000000000000000000000000080000000000000000000000000000000000000004000000000000000000000000000100000000000000000000000000000000000000000000000000000",
      "type": "0x2",
      "transactionHash": "0x09a9eaae383f7a8cd1cc8a71f0c015583d3ccd306886f760195e161f283d84b2",
      "transactionIndex": "0x37",
      "blockHash": "0x6ea052ea8711133947e812260c6212b1a8ac3f8ce50ce2df9872b6316e0c162b",
      "blockNumber": "0x1f17298",
      "gasUsed": "0xbca3",
      "effectiveGasPrice": "0xf4292",
      "from": "0x1234562eb0cd65e7d08e59f9f18d7c10b5df232a",
      "to": "0xe938d69b23ff0e8ef24442736ecc6ec324022eab",
      "contractAddress": null,
      "l1BaseFeeScalar": "0x44d",
      "l1BlobBaseFee": "0x46117a6",
      "l1BlobBaseFeeScalar": "0xa118b",
      "l1Fee": "0x120f76492",
      "l1GasPrice": "0xa",
      "l1GasUsed": "0x640"
    },
    {
      "status": "0x1",
      "cumulativeGasUsed": "0xa41189",
      "logs": [
        {
          "address": "0xe938d69b23ff0e8ef24442736ecc6ec324022eab",
          "topics": [
            "0xac90355684e2710fa34c2c7d500018678b146ea2d56ddc331c63d242ee8bf385",
            "0x0000000000000000000000002ffc2f655a26a4def63efcd59930d1241ee0519a"
          ],
          "data": "0x0000000000000000000000000000000000000000000000000000000000000001",
          "blockHash": "0x6ea052ea8711133947e812260c6212b1a8ac3f8ce50ce2df9872b6316e0c162b",
          "blockNumber": "0x1f17298",
          "blockTimestamp": "0x68f64410",
          "transactionHash": "0xa14956aaaa5bd815ad2ed25fe8df44f09af5a0668895c422b929b0a8f69099b2",
          "transactionIndex": "0x38",
          "logIndex": "0xbb",
          "removed": false
        }
      ],
      "logsBloom": "0x00000000000000000200000000000000000000000000000000000000000000000000000000000000000000000000000000000000000000000010000000000000000000002000000000000000000000000000010000000000000000000000000000000000000000000000000000000000000000000000000400000000002000000000000000000000000000000000000000000000000000000000000000000000000000000000000000000000000000000000000000000000000000000000000000000080000000000000000000000000000000000000004000000000000000000000000000000000000000000000000000000000000000000000000004000000",
      "type": "0x2",
      "transactionHash": "0xa14956aaaa5bd815ad2ed25fe8df44f09af5a0668895c422b929b0a8f69099b2",
      "transactionIndex": "0x38",
      "blockHash": "0x6ea052ea8711133947e812260c6212b1a8ac3f8ce50ce2df9872b6316e0c162b",
      "blockNumber": "0x1f17298",
      "gasUsed": "0xbca3",
      "effectiveGasPrice": "0xf4292",
      "from": "0x1234562eb0cd65e7d08e59f9f18d7c10b5df232a",
      "to": "0xe938d69b23ff0e8ef24442736ecc6ec324022eab",
      "contractAddress": null,
      "l1BaseFeeScalar": "0x44d",
      "l1BlobBaseFee": "0x46117a6",
      "l1BlobBaseFeeScalar": "0xa118b",
      "l1Fee": "0x120f76492",
      "l1GasPrice": "0xa",
      "l1GasUsed": "0x640"
    },
    {
      "status": "0x1",
      "cumulativeGasUsed": "0xa4ce2c",
      "logs": [
        {
          "address": "0xe938d69b23ff0e8ef24442736ecc6ec324022eab",
          "topics": [
            "0xac90355684e2710fa34c2c7d500018678b146ea2d56ddc331c63d242ee8bf385",
            "0x00000000000000000000000014ac27f376b03b6c05f2189c4f03febb5d76432a"
          ],
          "data": "0x0000000000000000000000000000000000000000000000000000000000000001",
          "blockHash": "0x6ea052ea8711133947e812260c6212b1a8ac3f8ce50ce2df9872b6316e0c162b",
          "blockNumber": "0x1f17298",
          "blockTimestamp": "0x68f64410",
          "transactionHash": "0x4559e1ee47d2b6092bcecbdcf0d94ff4992db106ed306d742ca849cb656c9bc4",
          "transactionIndex": "0x39",
          "logIndex": "0xbc",
          "removed": false
        }
      ],
      "logsBloom": "0x00000000000000000200000000000000000000000000000000000000000000000000000000000000000000000000000000000000000000000010000000000000000000000000000000000000000000000000000000000000000000000000000000000000000000000000000000000000000000000000000400000000002000000000000000000000000000000020000000000000000000000000000000000000000000000004000000000000000000000000000000000000000000000000000000000080000000000000000010000000000000000000004000000000000000000000000000000000000000000000000000000000000000000000000000000000",
      "type": "0x2",
      "transactionHash": "0x4559e1ee47d2b6092bcecbdcf0d94ff4992db106ed306d742ca849cb656c9bc4",
      "transactionIndex": "0x39",
      "blockHash": "0x6ea052ea8711133947e812260c6212b1a8ac3f8ce50ce2df9872b6316e0c162b",
      "blockNumber": "0x1f17298",
      "gasUsed": "0xbca3",
      "effectiveGasPrice": "0xf4292",
      "from": "0x1234562eb0cd65e7d08e59f9f18d7c10b5df232a",
      "to": "0xe938d69b23ff0e8ef24442736ecc6ec324022eab",
      "contractAddress": null,
      "l1BaseFeeScalar": "0x44d",
      "l1BlobBaseFee": "0x46117a6",
      "l1BlobBaseFeeScalar": "0xa118b",
      "l1Fee": "0x120f76492",
      "l1GasPrice": "0xa",
      "l1GasUsed": "0x640"
    },
    {
      "status": "0x1",
      "cumulativeGasUsed": "0xa58acf",
      "logs": [
        {
          "address": "0xe938d69b23ff0e8ef24442736ecc6ec324022eab",
          "topics": [
            "0xac90355684e2710fa34c2c7d500018678b146ea2d56ddc331c63d242ee8bf385",
            "0x000000000000000000000000dac9107491b3c59a97d7f45cefc97353f6ab46b2"
          ],
          "data": "0x0000000000000000000000000000000000000000000000000000000000000001",
          "blockHash": "0x6ea052ea8711133947e812260c6212b1a8ac3f8ce50ce2df9872b6316e0c162b",
          "blockNumber": "0x1f17298",
          "blockTimestamp": "0x68f64410",
          "transactionHash": "0x0ea132c498e4703d1f34b3ad77fd0f53ca3d22e4b31648e9a325e6a883fe775e",
          "transactionIndex": "0x3a",
          "logIndex": "0xbd",
          "removed": false
        }
      ],
      "logsBloom": "0x00000000000000000200000000000000000000000000000000000000000000000000000000000000000000000000000000000000000000000010000000000000000000000000000000000000000000000000000000000000000000000000000000000000000000000000000000000000000000000000000400000000002000000000000000000000000000000000000000000000000000000000800000000000000000000000000000000000000000000000000000000000000000000000000000000080000000000000000000000000000000000000004000000000000000000000000000000001000000000000000000000000000000000000000000000080",
      "type": "0x2",
      "transactionHash": "0x0ea132c498e4703d1f34b3ad77fd0f53ca3d22e4b31648e9a325e6a883fe775e",
      "transactionIndex": "0x3a",
      "blockHash": "0x6ea052ea8711133947e812260c6212b1a8ac3f8ce50ce2df9872b6316e0c162b",
      "blockNumber": "0x1f17298",
      "gasUsed": "0xbca3",
      "effectiveGasPrice": "0xf4292",
      "from": "0x1234562eb0cd65e7d08e59f9f18d7c10b5df232a",
      "to": "0xe938d69b23ff0e8ef24442736ecc6ec324022eab",
      "contractAddress": null,
      "l1BaseFeeScalar": "0x44d",
      "l1BlobBaseFee": "0x46117a6",
      "l1BlobBaseFeeScalar": "0xa118b",
      "l1Fee": "0x120f76492",
      "l1GasPrice": "0xa",
      "l1GasUsed": "0x640"
    },
    {
      "status": "0x1",
      "cumulativeGasUsed": "0x130402",
      "logs": [
        {
          "address": "0xe938d69b23ff0e8ef24442736ecc6ec324022eab",
          "topics": [
            "0xac90355684e2710fa34c2c7d500018678b146ea2d56ddc331c63d242ee8bf385",
            "0x0000000000000000000000009b94108165ef58c9736f2c34b09e3b5b62cf5218"
          ],
          "data": "0x0000000000000000000000000000000000000000000000000000000000000001",
          "blockHash": "0xf09fc525d8db8ab26d56f7df59fbb101731f04dbb5bd789149cc59ef3d858c90",
          "blockNumber": "0x1f17299",
          "blockTimestamp": "0x68f64412",
          "transactionHash": "0xb45f3cca20f7e7cc0430271b61ca87dcfb6a547804a30d77a22cf8c9dc56602b",
          "transactionIndex": "0x9",
          "logIndex": "0x31",
          "removed": false
        }
      ],
      "logsBloom": "0x00000000000000000200000000000000000000000000000000000000000000000000000000000000000000000000000000000000000000000010000000000000000000000000000000000000000000000000000000000000000000000000000000000000000000000000000000000000000000000000000400000000002000000000000280000000000000000000000000000000000000000000000000000000000000000000000000000000000000000000000000000000000000000000000000000080001000000000000000000000000000000000004000000000000000000000000000000000000000000000000000000000000000000000000000000000",
      "type": "0x2",
      "transactionHash": "0xb45f3cca20f7e7cc0430271b61ca87dcfb6a547804a30d77a22cf8c9dc56602b",
      "transactionIndex": "0x9",
      "blockHash": "0xf09fc525d8db8ab26d56f7df59fbb101731f04dbb5bd789149cc59ef3d858c90",
      "blockNumber": "0x1f17299",
      "gasUsed": "0xbca3",
      "effectiveGasPrice": "0xf4292",
      "from": "0x1234562eb0cd65e7d08e59f9f18d7c10b5df232a",
      "to": "0xe938d69b23ff0e8ef24442736ecc6ec324022eab",
      "contractAddress": null,
      "l1BaseFeeScalar": "0x44d",
      "l1BlobBaseFee": "0x46117a6",
      "l1BlobBaseFeeScalar": "0xa118b",
      "l1Fee": "0x120f76492",
      "l1GasPrice": "0xa",
      "l1GasUsed": "0x640"
    },
    {
      "status": "0x1",
      "cumulativeGasUsed": "0x13da5b",
      "logs": [
        {
          "address": "0xe938d69b23ff0e8ef24442736ecc6ec324022eab",
          "topics": [
            "0x354f0817e377e1e9b2601a5fa1180df29e96ac246a5d02f817a6e3bb4b72a904",
            "0x000000000000000000000000aee2a87701afef956473d547bd02cd736729d8a7",
            "0x0000000000000000000000001fe9a4e25caa2a22fc0b61010fdb0db462fb5b29"
          ],
          "data": "0x00000000000000000000000000000000000000000000000000000000000000010000000000000000000000000000000000000000000000000000000000000000",
          "blockHash": "0xf09fc525d8db8ab26d56f7df59fbb101731f04dbb5bd789149cc59ef3d858c90",
          "blockNumber": "0x1f17299",
          "blockTimestamp": "0x68f64412",
          "transactionHash": "0x4bef7df34f21354aa96ef85dcc49ee7ce1ad30ea1f796566c7ffa54445c0566e",
          "transactionIndex": "0xa",
          "logIndex": "0x32",
          "removed": false
        }
      ],
      "logsBloom": "0x00000000000000000000000000000000000000000000000000008000000000000000000000000000800000000000000000000000000000000000000000000001000000000000000000000080000000000000000000000000000000000000000000000000000000000000000000000000000000000000000400000000000000000000000000000020000000000020000000000000000000000000000000000000000000000000000000000000000000000000000000000000000000000000000000000080000000002000000000000000000004000000004000000000000000000000000000000000000100000000000000000000000000000000000000000000",
      "type": "0x2",
      "transactionHash": "0x4bef7df34f21354aa96ef85dcc49ee7ce1ad30ea1f796566c7ffa54445c0566e",
      "transactionIndex": "0xa",
      "blockHash": "0xf09fc525d8db8ab26d56f7df59fbb101731f04dbb5bd789149cc59ef3d858c90",
      "blockNumber": "0x1f17299",
      "gasUsed": "0xd659",
      "effectiveGasPrice": "0xf4292",
      "from": "0x1234562eb0cd65e7d08e59f9f18d7c10b5df232a",
      "to": "0xe938d69b23ff0e8ef24442736ecc6ec324022eab",
      "contractAddress": null,
      "l1BaseFeeScalar": "0x44d",
      "l1BlobBaseFee": "0x46117a6",
      "l1BlobBaseFeeScalar": "0xa118b",
      "l1Fee": "0x1441fe7a9",
      "l1GasPrice": "0xa",
      "l1GasUsed": "0x702"
    },
    {
      "status": "0x1",
      "cumulativeGasUsed": "0x14b0b4",
      "logs": [
        {
          "address": "0xe938d69b23ff0e8ef24442736ecc6ec324022eab",
          "topics": [
            "0x354f0817e377e1e9b2601a5fa1180df29e96ac246a5d02f817a6e3bb4b72a904",
            "0x0000000000000000000000006aabe7258f09474e62e8bebb1cf90e15fbaaf777",
            "0x0000000000000000000000005e1e8043381f3a21a1a64f46073daf7e74fedc1e"
          ],
          "data": "0x00000000000000000000000000000000000000000000000000000000000000010000000000000000000000000000000000000000000000000000000000000000",
          "blockHash": "0xf09fc525d8db8ab26d56f7df59fbb101731f04dbb5bd789149cc59ef3d858c90",
          "blockNumber": "0x1f17299",
          "blockTimestamp": "0x68f64412",
          "transactionHash": "0x48bea8a780c42cffa0ebe5147b126b97a6e481d20fc88cfa7b004ee5297c7d57",
          "transactionIndex": "0xb",
          "logIndex": "0x33",
          "removed": false
        }
      ],
      "logsBloom": "0x000000000000000000000000000000000000000000000000000000000000000000000000000000008000000000000000000000000000000000000000000000000040000000000400000000000000001000000000000000000000000000000000000000000000000000000000000000000000000000000004000000000000000000000000200000000000000000200000000000000000000000000000000000000000000000000000000000000000000000000000000000000000000000000000000000a0000000000000000000000000000004000000004000000000000000000000000000000000000000000000000001000000000000000000000000000000",
      "type": "0x2",
      "transactionHash": "0x48bea8a780c42cffa0ebe5147b126b97a6e481d20fc88cfa7b004ee5297c7d57",
      "transactionIndex": "0xb",
      "blockHash": "0xf09fc525d8db8ab26d56f7df59fbb101731f04dbb5bd789149cc59ef3d858c90",
      "blockNumber": "0x1f17299",
      "gasUsed": "0xd659",
      "effectiveGasPrice": "0xf4292",
      "from": "0x1234562eb0cd65e7d08e59f9f18d7c10b5df232a",
      "to": "0xe938d69b23ff0e8ef24442736ecc6ec324022eab",
      "contractAddress": null,
      "l1BaseFeeScalar": "0x44d",
      "l1BlobBaseFee": "0x46117a6",
      "l1BlobBaseFeeScalar": "0xa118b",
      "l1Fee": "0x1441fe7a9",
      "l1GasPrice": "0xa",
      "l1GasUsed": "0x702"
    },
    {
      "status": "0x1",
      "cumulativeGasUsed": "0x5197f8",
      "logs": [
        {
          "address": "0xe938d69b23ff0e8ef24442736ecc6ec324022eab",
          "topics": [
            "0x354f0817e377e1e9b2601a5fa1180df29e96ac246a5d02f817a6e3bb4b72a904",
            "0x0000000000000000000000005c70fb2a739e9e7ad5c4311abf99e0fb65c07ee9",
            "0x00000000000000000000000006c1e044d5beb614faa6128001f519e6c693a044"
          ],
          "data": "0x00000000000000000000000000000000000000000000000000000000000000010000000000000000000000000000000000000000000000000000000000000000",
          "blockHash": "0xf09fc525d8db8ab26d56f7df59fbb101731f04dbb5bd789149cc59ef3d858c90",
          "blockNumber": "0x1f17299",
          "blockTimestamp": "0x68f64412",
          "transactionHash": "0x5e60a169311c50ed8179dd3d643d54403f572dcd89a4c3b0f536ddfe58e01706",
          "transactionIndex": "0x25",
          "logIndex": "0xc7",
          "removed": false
        }
      ],
      "logsBloom": "0x00000000000000010000000000000000000000800000000000000000000000000000000000000000800000000000000000000000000000000000000000000000000000000000000000000000000000000000000000000000000000000000000000000000000000000000000000000000000000000000000400000000000000000000000000000000000000000020080000000000000000000000000000000000000000000000000000000000000000000000000008000000000000000000000000000080000000000000000000000000000004000000004000000000000000000000000000000000000000000000000000000000040000000000000000000000",
      "type": "0x2",
      "transactionHash": "0x5e60a169311c50ed8179dd3d643d54403f572dcd89a4c3b0f536ddfe58e01706",
      "transactionIndex": "0x25",
      "blockHash": "0xf09fc525d8db8ab26d56f7df59fbb101731f04dbb5bd789149cc59ef3d858c90",
      "blockNumber": "0x1f17299",
      "gasUsed": "0xd659",
      "effectiveGasPrice": "0xf4292",
      "from": "0x1234562eb0cd65e7d08e59f9f18d7c10b5df232a",
      "to": "0xe938d69b23ff0e8ef24442736ecc6ec324022eab",
      "contractAddress": null,
      "l1BaseFeeScalar": "0x44d",
      "l1BlobBaseFee": "0x46117a6",
      "l1BlobBaseFeeScalar": "0xa118b",
      "l1Fee": "0x1441fe7a9",
      "l1GasPrice": "0xa",
      "l1GasUsed": "0x702"
    },
    {
      "status": "0x1",
      "cumulativeGasUsed": "0x526e51",
      "logs": [
        {
          "address": "0xe938d69b23ff0e8ef24442736ecc6ec324022eab",
          "topics": [
            "0x354f0817e377e1e9b2601a5fa1180df29e96ac246a5d02f817a6e3bb4b72a904",
            "0x000000000000000000000000bb6dd87f1fe0483d9ffa90f7a163caf21f40ba6c",
            "0x00000000000000000000000085b8dc34c7af35bac8a45cff53353f39e6f732a2"
          ],
          "data": "0x00000000000000000000000000000000000000000000000000000000000000010000000000000000000000000000000000000000000000000000000000000000",
          "blockHash": "0xf09fc525d8db8ab26d56f7df59fbb101731f04dbb5bd789149cc59ef3d858c90",
          "blockNumber": "0x1f17299",
          "blockTimestamp": "0x68f64412",
          "transactionHash": "0xba2aaf87b5965496894f234769a04f4608854501d31235ad789022a0d4a928f9",
          "transactionIndex": "0x26",
          "logIndex": "0xc8",
          "removed": false
        }
      ],
      "logsBloom": "0x00000000000000000000000000000000000000000000000000000000000000000000000000000000800040000000000000000000000000000000000000000000000000000010000000000000000000000000000000000000000000000000000000040000000000000000000000000000000000000000000400000000000000000000000000000000008000000020000000040000000000000000000000000000000000000000000000000000000000000000000000000000000000000000000000000080000000000000000000000000000004000000004001000000000000000000000000000000000000000000000000000000000000000000000000000000",
      "type": "0x2",
      "transactionHash": "0xba2aaf87b5965496894f234769a04f4608854501d31235ad789022a0d4a928f9",
      "transactionIndex": "0x26",
      "blockHash": "0xf09fc525d8db8ab26d56f7df59fbb101731f04dbb5bd789149cc59ef3d858c90",
      "blockNumber": "0x1f17299",
      "gasUsed": "0xd659",
      "effectiveGasPrice": "0xf4292",
      "from": "0x1234562eb0cd65e7d08e59f9f18d7c10b5df232a",
      "to": "0xe938d69b23ff0e8ef24442736ecc6ec324022eab",
      "contractAddress": null,
      "l1BaseFeeScalar": "0x44d",
      "l1BlobBaseFee": "0x46117a6",
      "l1BlobBaseFeeScalar": "0xa118b",
      "l1Fee": "0x1441fe7a9",
      "l1GasPrice": "0xa",
      "l1GasUsed": "0x702"
    },
    {
      "status": "0x1",
      "cumulativeGasUsed": "0x5344aa",
      "logs": [
        {
          "address": "0xe938d69b23ff0e8ef24442736ecc6ec324022eab",
          "topics": [
            "0x354f0817e377e1e9b2601a5fa1180df29e96ac246a5d02f817a6e3bb4b72a904",
            "0x000000000000000000000000ce74630446990acf6cd56facbbd6ee908ee55562",
            "0x0000000000000000000000007392e9e58f202da3877776c41683ac457dfd4cd7"
          ],
          "data": "0x00000000000000000000000000000000000000000000000000000000000000010000000000000000000000000000000000000000000000000000000000000000",
          "blockHash": "0xf09fc525d8db8ab26d56f7df59fbb101731f04dbb5bd789149cc59ef3d858c90",
          "blockNumber": "0x1f17299",
          "blockTimestamp": "0x68f64412",
          "transactionHash": "0x6829453efac451c58161c73d81a8a3d71beb3cd7cefad40ae586fb87b6d28094",
          "transactionIndex": "0x27",
          "logIndex": "0xc9",
          "removed": false
        }
      ],
      "logsBloom": "0x00000000000000000000000000000000000000000000000000000000000000000000000000000000800000000000000000000000000000000000000000000000000000000000000000000000000000000000000000000000000000000000000000000000000000000000000000000000000000000000000400000000000000000000008000000000000000000020000000000000000000000000000000000000000000000000000000000000000000000000000000000000000000000000000000000080001000000000000000000100000004000000004000000000000000000000000000200000000000000000000000000000000008000000004000000000",
      "type": "0x2",
      "transactionHash": "0x6829453efac451c58161c73d81a8a3d71beb3cd7cefad40ae586fb87b6d28094",
      "transactionIndex": "0x27",
      "blockHash": "0xf09fc525d8db8ab26d56f7df59fbb101731f04dbb5bd789149cc59ef3d858c90",
      "blockNumber": "0x1f17299",
      "gasUsed": "0xd659",
      "effectiveGasPrice": "0xf4292",
      "from": "0x1234562eb0cd65e7d08e59f9f18d7c10b5df232a",
      "to": "0xe938d69b23ff0e8ef24442736ecc6ec324022eab",
      "contractAddress": null,
      "l1BaseFeeScalar": "0x44d",
      "l1BlobBaseFee": "0x46117a6",
      "l1BlobBaseFeeScalar": "0xa118b",
      "l1Fee": "0x1441fe7a9",
      "l1GasPrice": "0xa",
      "l1GasUsed": "0x702"
    },
    {
      "status": "0x1",
      "cumulativeGasUsed": "0x541b03",
      "logs": [
        {
          "address": "0xe938d69b23ff0e8ef24442736ecc6ec324022eab",
          "topics": [
            "0x354f0817e377e1e9b2601a5fa1180df29e96ac246a5d02f817a6e3bb4b72a904",
            "0x000000000000000000000000dcc41dee829c1246a936dc5e801cb24303445651",
            "0x0000000000000000000000001fe9a4e25caa2a22fc0b61010fdb0db462fb5b29"
          ],
          "data": "0x00000000000000000000000000000000000000000000000000000000000000010000000000000000000000000000000000000000000000000000000000000000",
          "blockHash": "0xf09fc525d8db8ab26d56f7df59fbb101731f04dbb5bd789149cc59ef3d858c90",
          "blockNumber": "0x1f17299",
          "blockTimestamp": "0x68f64412",
          "transactionHash": "0x9efd97a4767f00f230ff16919dbe641581002a86497d1608a2cb02a01e867db0",
          "transactionIndex": "0x28",
          "logIndex": "0xca",
          "removed": false
        }
      ],
      "logsBloom": "0x00000000000000000000000000000000000000000000000000008000000000000000000000000000800000000000000000000000000000000000004000000001000000000000000000000080000000000000000000000000000000000000000000000000000000000000000000000000000000000000000400000000000000000000000000000000000000000020000000000000000000000000000000000000000000000000000000000000000000000000000000000000000000000000000000000080000000000000000000000000000004000000004000000000000000000400040000000000000000000000000000000000000000000000000000000000",
      "type": "0x2",
      "transactionHash": "0x9efd97a4767f00f230ff16919dbe641581002a86497d1608a2cb02a01e867db0",
      "transactionIndex": "0x28",
      "blockHash": "0xf09fc525d8db8ab26d56f7df59fbb101731f04dbb5bd789149cc59ef3d858c90",
      "blockNumber": "0x1f17299",
      "gasUsed": "0xd659",
      "effectiveGasPrice": "0xf4292",
      "from": "0x1234562eb0cd65e7d08e59f9f18d7c10b5df232a",
      "to": "0xe938d69b23ff0e8ef24442736ecc6ec324022eab",
      "contractAddress": null,
      "l1BaseFeeScalar": "0x44d",
      "l1BlobBaseFee": "0x46117a6",
      "l1BlobBaseFeeScalar": "0xa118b",
      "l1Fee": "0x1441fe7a9",
      "l1GasPrice": "0xa",
      "l1GasUsed": "0x702"
    },
    {
      "status": "0x1",
      "cumulativeGasUsed": "0x54f15c",
      "logs": [
        {
          "address": "0xe938d69b23ff0e8ef24442736ecc6ec324022eab",
          "topics": [
            "0x354f0817e377e1e9b2601a5fa1180df29e96ac246a5d02f817a6e3bb4b72a904",
            "0x0000000000000000000000008f5816ca88ed2775305b154625744e36943cc750",
            "0x0000000000000000000000005e1e8043381f3a21a1a64f46073daf7e74fedc1e"
          ],
          "data": "0x00000000000000000000000000000000000000000000000000000000000000010000000000000000000000000000000000000000000000000000000000000000",
          "blockHash": "0xf09fc525d8db8ab26d56f7df59fbb101731f04dbb5bd789149cc59ef3d858c90",
          "blockNumber": "0x1f17299",
          "blockTimestamp": "0x68f64412",
          "transactionHash": "0xf889d3c9bc7358274ef1fef0192c2d4ca71d3cd213fd07c732fe7aae7b7bd75a",
          "transactionIndex": "0x29",
          "logIndex": "0xcb",
          "removed": false
        }
      ],
      "logsBloom": "0x000000000000000000000000000000000000000010000000000000000000000000000000000000008000000000000000000000000000000000000000000000000000000000000400000000000000000000000000000000400000000000000000000000000000000000000000000000000000000000000004000000000000000000000000000000000000000000200000000000000000000000000000000000000000000000000000000000000000000000000800000000000000000000000000000000a0000000000000000000000000000004000000004000000000000000000000000000000000000000000000000001000000000000000000000000000000",
      "type": "0x2",
      "transactionHash": "0xf889d3c9bc7358274ef1fef0192c2d4ca71d3cd213fd07c732fe7aae7b7bd75a",
      "transactionIndex": "0x29",
      "blockHash": "0xf09fc525d8db8ab26d56f7df59fbb101731f04dbb5bd789149cc59ef3d858c90",
      "blockNumber": "0x1f17299",
      "gasUsed": "0xd659",
      "effectiveGasPrice": "0xf4292",
      "from": "0x1234562eb0cd65e7d08e59f9f18d7c10b5df232a",
      "to": "0xe938d69b23ff0e8ef24442736ecc6ec324022eab",
      "contractAddress": null,
      "l1BaseFeeScalar": "0x44d",
      "l1BlobBaseFee": "0x46117a6",
      "l1BlobBaseFeeScalar": "0xa118b",
      "l1Fee": "0x1441fe7a9",
      "l1GasPrice": "0xa",
      "l1GasUsed": "0x702"
    },
    {
      "status": "0x1",
      "cumulativeGasUsed": "0x55c7b5",
      "logs": [
        {
          "address": "0xe938d69b23ff0e8ef24442736ecc6ec324022eab",
          "topics": [
            "0x354f0817e377e1e9b2601a5fa1180df29e96ac246a5d02f817a6e3bb4b72a904",
            "0x0000000000000000000000002bb55f68fb05de13b04e5a2cadbae5a05bce277b",
            "0x00000000000000000000000006c1e044d5beb614faa6128001f519e6c693a044"
          ],
          "data": "0x00000000000000000000000000000000000000000000000000000000000000010000000000000000000000000000000000000000000000000000000000000000",
          "blockHash": "0xf09fc525d8db8ab26d56f7df59fbb101731f04dbb5bd789149cc59ef3d858c90",
          "blockNumber": "0x1f17299",
          "blockTimestamp": "0x68f64412",
          "transactionHash": "0xaa09f4610c41740f17d919470e344b8eb1e3a6ab566948ebe151052d1c09c476",
          "transactionIndex": "0x2a",
          "logIndex": "0xcc",
          "removed": false
        }
      ],
      "logsBloom": "0x00000000000000010000000000000004000000800000000000000000000000000000000000000000800000000000000000000000000000000000000000000000000000000000000000000000000000000000000000000000000000000000000000000000000000000000000000000000000000000001000400000000000000000000000000000000000000000020000000000000000000000000000000000000000000000000000000000000000000000000000000000000000000000000000000000080000000000000000000000000000004000000004000002000000000000000000000000000000000000000000000000000040000000000000000000000",
      "type": "0x2",
      "transactionHash": "0xaa09f4610c41740f17d919470e344b8eb1e3a6ab566948ebe151052d1c09c476",
      "transactionIndex": "0x2a",
      "blockHash": "0xf09fc525d8db8ab26d56f7df59fbb101731f04dbb5bd789149cc59ef3d858c90",
      "blockNumber": "0x1f17299",
      "gasUsed": "0xd659",
      "effectiveGasPrice": "0xf4292",
      "from": "0x1234562eb0cd65e7d08e59f9f18d7c10b5df232a",
      "to": "0xe938d69b23ff0e8ef24442736ecc6ec324022eab",
      "contractAddress": null,
      "l1BaseFeeScalar": "0x44d",
      "l1BlobBaseFee": "0x46117a6",
      "l1BlobBaseFeeScalar": "0xa118b",
      "l1Fee": "0x1441fe7a9",
      "l1GasPrice": "0xa",
      "l1GasUsed": "0x702"
    },
    {
      "status": "0x1",
      "cumulativeGasUsed": "0x569e0e",
      "logs": [
        {
          "address": "0xe938d69b23ff0e8ef24442736ecc6ec324022eab",
          "topics": [
            "0x354f0817e377e1e9b2601a5fa1180df29e96ac246a5d02f817a6e3bb4b72a904",
            "0x000000000000000000000000a022fd1966577144fcb5ed8ad5a134861ae5e138",
            "0x00000000000000000000000085b8dc34c7af35bac8a45cff53353f39e6f732a2"
          ],
          "data": "0x00000000000000000000000000000000000000000000000000000000000000010000000000000000000000000000000000000000000000000000000000000000",
          "blockHash": "0xf09fc525d8db8ab26d56f7df59fbb101731f04dbb5bd789149cc59ef3d858c90",
          "blockNumber": "0x1f17299",
          "blockTimestamp": "0x68f64412",
          "transactionHash": "0x932d97a1b272b1159ff911894880375c940ad29d5901c11aee44a7094dc0891e",
          "transactionIndex": "0x2b",
          "logIndex": "0xcd",
          "removed": false
        }
      ],
      "logsBloom": "0x00000000000000000000000000000000000000000000000000000000000000000000000000000000800000000000000000000000000000000000000000000000000000000000000000000000000000000000000000000000000000010000000000040000000000000000000000000000000000000000000400000000000000000000000000000000000000000020000080040000000000000000000000000000000000000000000000000000000000000000000000000000000000000000000000000080000000000000000000000008000004000000004001000000000000000000000000000000000000000000000000000000000000000000000000000000",
      "type": "0x2",
      "transactionHash": "0x932d97a1b272b1159ff911894880375c940ad29d5901c11aee44a7094dc0891e",
      "transactionIndex": "0x2b",
      "blockHash": "0xf09fc525d8db8ab26d56f7df59fbb101731f04dbb5bd789149cc59ef3d858c90",
      "blockNumber": "0x1f17299",
      "gasUsed": "0xd659",
      "effectiveGasPrice": "0xf4292",
      "from": "0x1234562eb0cd65e7d08e59f9f18d7c10b5df232a",
      "to": "0xe938d69b23ff0e8ef24442736ecc6ec324022eab",
      "contractAddress": null,
      "l1BaseFeeScalar": "0x44d",
      "l1BlobBaseFee": "0x46117a6",
      "l1BlobBaseFeeScalar": "0xa118b",
      "l1Fee": "0x1441fe7a9",
      "l1GasPrice": "0xa",
      "l1GasUsed": "0x702"
    },
    {
      "status": "0x1",
      "cumulativeGasUsed": "0x6b197c",
      "logs": [
        {
          "address": "0xe938d69b23ff0e8ef24442736ecc6ec324022eab",
          "topics": [
            "0x354f0817e377e1e9b2601a5fa1180df29e96ac246a5d02f817a6e3bb4b72a904",
            "0x000000000000000000000000ec4c46f46191d77c3d8ba3ddfafe71b58e2089af",
            "0x0000000000000000000000007392e9e58f202da3877776c41683ac457dfd4cd7"
          ],
          "data": "0x00000000000000000000000000000000000000000000000000000000000000010000000000000000000000000000000000000000000000000000000000000000",
          "blockHash": "0xf09fc525d8db8ab26d56f7df59fbb101731f04dbb5bd789149cc59ef3d858c90",
          "blockNumber": "0x1f17299",
          "blockTimestamp": "0x68f64412",
          "transactionHash": "0x9ddeec582801b6b394ab33b24b042a3edde1ce63074ae284963189077987a019",
          "transactionIndex": "0x32",
          "logIndex": "0xff",
          "removed": false
        }
      ],
      "logsBloom": "0x00000000000020000000000000000000000000000000000000000001000000000000000000000000800000000000000000000000000000000000000000000000000000000000000000000000000000000000000000000000000000000000000000000000000000000000000000000000000000000000000400000000000000000000000000000000000000000020000000000000000000000000000000000000000000000000000000000000000000000000000000000000000000000000000000000480001000000000000000000100000004000000004000000000000000000000000000000000000000000000000000000000000000000000004000000000",
      "type": "0x2",
      "transactionHash": "0x9ddeec582801b6b394ab33b24b042a3edde1ce63074ae284963189077987a019",
      "transactionIndex": "0x32",
      "blockHash": "0xf09fc525d8db8ab26d56f7df59fbb101731f04dbb5bd789149cc59ef3d858c90",
      "blockNumber": "0x1f17299",
      "gasUsed": "0xd659",
      "effectiveGasPrice": "0xf4292",
      "from": "0x1234562eb0cd65e7d08e59f9f18d7c10b5df232a",
      "to": "0xe938d69b23ff0e8ef24442736ecc6ec324022eab",
      "contractAddress": null,
      "l1BaseFeeScalar": "0x44d",
      "l1BlobBaseFee": "0x46117a6",
      "l1BlobBaseFeeScalar": "0xa118b",
      "l1Fee": "0x1441fe7a9",
      "l1GasPrice": "0xa",
      "l1GasUsed": "0x702"
    },
    {
      "status": "0x1",
      "cumulativeGasUsed": "0x6befd5",
      "logs": [
        {
          "address": "0xe938d69b23ff0e8ef24442736ecc6ec324022eab",
          "topics": [
            "0x354f0817e377e1e9b2601a5fa1180df29e96ac246a5d02f817a6e3bb4b72a904",
            "0x000000000000000000000000e47eba0dbf716d99482fb071ca04adf4fccd6b1f",
            "0x0000000000000000000000001fe9a4e25caa2a22fc0b61010fdb0db462fb5b29"
          ],
          "data": "0x00000000000000000000000000000000000000000000000000000000000000010000000000000000000000000000000000000000000000000000000000000000",
          "blockHash": "0xf09fc525d8db8ab26d56f7df59fbb101731f04dbb5bd789149cc59ef3d858c90",
          "blockNumber": "0x1f17299",
          "blockTimestamp": "0x68f64412",
          "transactionHash": "0x9d44b26c5878acb013bc13c4b4ed13e4e8abc8e1f047ff3dc2f9f2b8f62d3176",
          "transactionIndex": "0x33",
          "logIndex": "0x100",
          "removed": false
        }
      ],
      "logsBloom": "0x00000000000000000000000000000000000000000000000000008000000000000000000000000000800000004002000000000000000000000000000000000001000000000000000000000080800000000000000000000000000000000000000000000000000000000000000000000000000000000000000400000000000000000000000000000000000000000020000000000000000000000000000000000000000000000000000000000000000000000000000000000000000000000000000000000080000000000000000000000000000004000000004000000000000000000000000000000000000000000000000000000000000000000000000000000000",
      "type": "0x2",
      "transactionHash": "0x9d44b26c5878acb013bc13c4b4ed13e4e8abc8e1f047ff3dc2f9f2b8f62d3176",
      "transactionIndex": "0x33",
      "blockHash": "0xf09fc525d8db8ab26d56f7df59fbb101731f04dbb5bd789149cc59ef3d858c90",
      "blockNumber": "0x1f17299",
      "gasUsed": "0xd659",
      "effectiveGasPrice": "0xf4292",
      "from": "0x1234562eb0cd65e7d08e59f9f18d7c10b5df232a",
      "to": "0xe938d69b23ff0e8ef24442736ecc6ec324022eab",
      "contractAddress": null,
      "l1BaseFeeScalar": "0x44d",
      "l1BlobBaseFee": "0x46117a6",
      "l1BlobBaseFeeScalar": "0xa118b",
      "l1Fee": "0x1441fe7a9",
      "l1GasPrice": "0xa",
      "l1GasUsed": "0x702"
    },
    {
      "status": "0x1",
      "cumulativeGasUsed": "0x6cc62e",
      "logs": [
        {
          "address": "0xe938d69b23ff0e8ef24442736ecc6ec324022eab",
          "topics": [
            "0x354f0817e377e1e9b2601a5fa1180df29e96ac246a5d02f817a6e3bb4b72a904",
            "0x0000000000000000000000004e3a466bba553ace4cd3a6149d574f3f034b5269",
            "0x0000000000000000000000005e1e8043381f3a21a1a64f46073daf7e74fedc1e"
          ],
          "data": "0x00000000000000000000000000000000000000000000000000000000000000010000000000000000000000000000000000000000000000000000000000000000",
          "blockHash": "0xf09fc525d8db8ab26d56f7df59fbb101731f04dbb5bd789149cc59ef3d858c90",
          "blockNumber": "0x1f17299",
          "blockTimestamp": "0x68f64412",
          "transactionHash": "0x968eec285967146c08c865fcb676654c00d920a0da0a43b64e9581732d818a1d",
          "transactionIndex": "0x34",
          "logIndex": "0x101",
          "removed": false
        }
      ],
      "logsBloom": "0x000000000000000000000000000000000000000000000000000000000000000000000000000000008000000000000000000000000000000000000000000000000000000000000400000000000000000000000000000000000000000000100000002000000000000000000000000000000000000000000004000000000000000000000000000000000000000000200000000000000000000000000000000000000000000000000000000000000000000000000000010000000000000000000000000000a0000000000000000000000000000004000000004000000000000000000000000000000000000000000000000001000000000000000000000000000000",
      "type": "0x2",
      "transactionHash": "0x968eec285967146c08c865fcb676654c00d920a0da0a43b64e9581732d818a1d",
      "transactionIndex": "0x34",
      "blockHash": "0xf09fc525d8db8ab26d56f7df59fbb101731f04dbb5bd789149cc59ef3d858c90",
      "blockNumber": "0x1f17299",
      "gasUsed": "0xd659",
      "effectiveGasPrice": "0xf4292",
      "from": "0x1234562eb0cd65e7d08e59f9f18d7c10b5df232a",
      "to": "0xe938d69b23ff0e8ef24442736ecc6ec324022eab",
      "contractAddress": null,
      "l1BaseFeeScalar": "0x44d",
      "l1BlobBaseFee": "0x46117a6",
      "l1BlobBaseFeeScalar": "0xa118b",
      "l1Fee": "0x1441fe7a9",
      "l1GasPrice": "0xa",
      "l1GasUsed": "0x702"
    },
    {
      "status": "0x1",
      "cumulativeGasUsed": "0x6d9c87",
      "logs": [
        {
          "address": "0xe938d69b23ff0e8ef24442736ecc6ec324022eab",
          "topics": [
            "0x354f0817e377e1e9b2601a5fa1180df29e96ac246a5d02f817a6e3bb4b72a904",
            "0x000000000000000000000000751a0e0147d10b8c21804ac88dcfa6837312ea35",
            "0x00000000000000000000000006c1e044d5beb614faa6128001f519e6c693a044"
          ],
          "data": "0x00000000000000000000000000000000000000000000000000000000000000010000000000000000000000000000000000000000000000000000000000000000",
          "blockHash": "0xf09fc525d8db8ab26d56f7df59fbb101731f04dbb5bd789149cc59ef3d858c90",
          "blockNumber": "0x1f17299",
          "blockTimestamp": "0x68f64412",
          "transactionHash": "0xb0d866ea50a90d8c77c7b324edcd5376cf667774fe340c716d37ff57680ec9d1",
          "transactionIndex": "0x35",
          "logIndex": "0x102",
          "removed": false
        }
      ],
      "logsBloom": "0x00000000000000010000000000000000000000800000000000000000000000000000040000000000800000000000000000000000000000000000000000000000000000000000000000000000000000000000000000000000000000000000000000001000000000000000000000000000000000000400000400000000000000000000000000000000000000000020000000000000000000000000000000000000000000000000000000000000000000000000000000000000000000000000000000000080000000000000000000000000000004000000004000000000000000000000000000000000000000000000000000000000040000000000000000000000",
      "type": "0x2",
      "transactionHash": "0xb0d866ea50a90d8c77c7b324edcd5376cf667774fe340c716d37ff57680ec9d1",
      "transactionIndex": "0x35",
      "blockHash": "0xf09fc525d8db8ab26d56f7df59fbb101731f04dbb5bd789149cc59ef3d858c90",
      "blockNumber": "0x1f17299",
      "gasUsed": "0xd659",
      "effectiveGasPrice": "0xf4292",
      "from": "0x1234562eb0cd65e7d08e59f9f18d7c10b5df232a",
      "to": "0xe938d69b23ff0e8ef24442736ecc6ec324022eab",
      "contractAddress": null,
      "l1BaseFeeScalar": "0x44d",
      "l1BlobBaseFee": "0x46117a6",
      "l1BlobBaseFeeScalar": "0xa118b",
      "l1Fee": "0x1441fe7a9",
      "l1GasPrice": "0xa",
      "l1GasUsed": "0x702"
    },
    {
      "status": "0x1",
      "cumulativeGasUsed": "0x6e72e0",
      "logs": [
        {
          "address": "0xe938d69b23ff0e8ef24442736ecc6ec324022eab",
          "topics": [
            "0x354f0817e377e1e9b2601a5fa1180df29e96ac246a5d02f817a6e3bb4b72a904",
            "0x000000000000000000000000d8d362badb84cc1f97a00273ddc8845fd4148c80",
            "0x00000000000000000000000085b8dc34c7af35bac8a45cff53353f39e6f732a2"
          ],
          "data": "0x00000000000000000000000000000000000000000000000000000000000000010000000000000000000000000000000000000000000000000000000000000000",
          "blockHash": "0xf09fc525d8db8ab26d56f7df59fbb101731f04dbb5bd789149cc59ef3d858c90",
          "blockNumber": "0x1f17299",
          "blockTimestamp": "0x68f64412",
          "transactionHash": "0xcfa6dc144ff07de01ea1c1c18b473a82e34257deff9555f172e02415ebc0a50b",
          "transactionIndex": "0x36",
          "logIndex": "0x103",
          "removed": false
        }
      ],
      "logsBloom": "0x00000000000000000000000000000000000000000000000000000000000000000000000000000000800000000000000000000000000000000000000000000000000002000000000000000000000000000000000000000000000000000000000000040000000000000400000000000000000000000000000400000000000000000000000000000000000000000020000000040000000000000000000000000000000000000000000000000000000000000000000000000000000000000000000000000080000000000000000000000000000004000000004001000000000000000000000000200000000000000000000000000000000000000000000000000000",
      "type": "0x2",
      "transactionHash": "0xcfa6dc144ff07de01ea1c1c18b473a82e34257deff9555f172e02415ebc0a50b",
      "transactionIndex": "0x36",
      "blockHash": "0xf09fc525d8db8ab26d56f7df59fbb101731f04dbb5bd789149cc59ef3d858c90",
      "blockNumber": "0x1f17299",
      "gasUsed": "0xd659",
      "effectiveGasPrice": "0xf4292",
      "from": "0x1234562eb0cd65e7d08e59f9f18d7c10b5df232a",
      "to": "0xe938d69b23ff0e8ef24442736ecc6ec324022eab",
      "contractAddress": null,
      "l1BaseFeeScalar": "0x44d",
      "l1BlobBaseFee": "0x46117a6",
      "l1BlobBaseFeeScalar": "0xa118b",
      "l1Fee": "0x1441fe7a9",
      "l1GasPrice": "0xa",
      "l1GasUsed": "0x702"
    },
    {
      "status": "0x1",
      "cumulativeGasUsed": "0x6f4939",
      "logs": [
        {
          "address": "0xe938d69b23ff0e8ef24442736ecc6ec324022eab",
          "topics": [
            "0x354f0817e377e1e9b2601a5fa1180df29e96ac246a5d02f817a6e3bb4b72a904",
            "0x0000000000000000000000001061473a78f6eb0a0bcbde060a5eea9d4273bb59",
            "0x0000000000000000000000007392e9e58f202da3877776c41683ac457dfd4cd7"
          ],
          "data": "0x00000000000000000000000000000000000000000000000000000000000000010000000000000000000000000000000000000000000000000000000000000000",
          "blockHash": "0xf09fc525d8db8ab26d56f7df59fbb101731f04dbb5bd789149cc59ef3d858c90",
          "blockNumber": "0x1f17299",
          "blockTimestamp": "0x68f64412",
          "transactionHash": "0x96002e96eceaa8d946fbdc7acfa00674230990af9134103c81c5efdb85f95960",
          "transactionIndex": "0x37",
          "logIndex": "0x104",
          "removed": false
        }
      ],
      "logsBloom": "0x00000000000000000000000000000000000000000000000000000000000000000000000000000000800000000000000000000000000000000000000000000000000000000000000000000000000000000002000000000000000000000000000000000000000000000000000000000000000000000000000400000000000000000000000000000000000000000020000000000000000000000000000000000080000000000000000000000000000000000000000000000000000000000000000000000080001000000000000000000100000004000000004000000100000000000000000000000000000000000000000000000000000000000000004000000000",
      "type": "0x2",
      "transactionHash": "0x96002e96eceaa8d946fbdc7acfa00674230990af9134103c81c5efdb85f95960",
      "transactionIndex": "0x37",
      "blockHash": "0xf09fc525d8db8ab26d56f7df59fbb101731f04dbb5bd789149cc59ef3d858c90",
      "blockNumber": "0x1f17299",
      "gasUsed": "0xd659",
      "effectiveGasPrice": "0xf4292",
      "from": "0x1234562eb0cd65e7d08e59f9f18d7c10b5df232a",
      "to": "0xe938d69b23ff0e8ef24442736ecc6ec324022eab",
      "contractAddress": null,
      "l1BaseFeeScalar": "0x44d",
      "l1BlobBaseFee": "0x46117a6",
      "l1BlobBaseFeeScalar": "0xa118b",
      "l1Fee": "0x1441fe7a9",
      "l1GasPrice": "0xa",
      "l1GasUsed": "0x702"
    },
    {
      "status": "0x1",
      "cumulativeGasUsed": "0x701f92",
      "logs": [
        {
          "address": "0xe938d69b23ff0e8ef24442736ecc6ec324022eab",
          "topics": [
            "0x354f0817e377e1e9b2601a5fa1180df29e96ac246a5d02f817a6e3bb4b72a904",
            "0x000000000000000000000000824fb936d24b2baaf92fe87fd65ff22d01439ece",
            "0x0000000000000000000000001fe9a4e25caa2a22fc0b61010fdb0db462fb5b29"
          ],
          "data": "0x00000000000000000000000000000000000000000000000000000000000000010000000000000000000000000000000000000000000000000000000000000000",
          "blockHash": "0xf09fc525d8db8ab26d56f7df59fbb101731f04dbb5bd789149cc59ef3d858c90",
          "blockNumber": "0x1f17299",
          "blockTimestamp": "0x68f64412",
          "transactionHash": "0x50f5aa82b83484387bdbb60c6e31d8b1d3e48191e8ce6097bf0f9ce0f3ea10ef",
          "transactionIndex": "0x38",
          "logIndex": "0x105",
          "removed": false
        }
      ],
      "logsBloom": "0x00000000000000000000000000000000000000000000000000008000000000000000000000000000800000000000000000000000000000000000000000000001000000000000000000000080000000000000000000000000002000000000000000000000000000000000000000000000000000000000000400000000000000000000000000000000000000008020000000000000000000000000000000000000000000000000000000000000000000000000000000000000000000080000000000000080000000000000000000000000000004000000004000000000000000000000000000000000000000000000000000000000000000000000000000000000",
      "type": "0x2",
      "transactionHash": "0x50f5aa82b83484387bdbb60c6e31d8b1d3e48191e8ce6097bf0f9ce0f3ea10ef",
      "transactionIndex": "0x38",
      "blockHash": "0xf09fc525d8db8ab26d56f7df59fbb101731f04dbb5bd789149cc59ef3d858c90",
      "blockNumber": "0x1f17299",
      "gasUsed": "0xd659",
      "effectiveGasPrice": "0xf4292",
      "from": "0x1234562eb0cd65e7d08e59f9f18d7c10b5df232a",
      "to": "0xe938d69b23ff0e8ef24442736ecc6ec324022eab",
      "contractAddress": null,
      "l1BaseFeeScalar": "0x44d",
      "l1BlobBaseFee": "0x46117a6",
      "l1BlobBaseFeeScalar": "0xa118b",
      "l1Fee": "0x1441fe7a9",
      "l1GasPrice": "0xa",
      "l1GasUsed": "0x702"
    },
    {
      "status": "0x1",
      "cumulativeGasUsed": "0x7a6e2b",
      "logs": [
        {
          "address": "0xe938d69b23ff0e8ef24442736ecc6ec324022eab",
          "topics": [
            "0x354f0817e377e1e9b2601a5fa1180df29e96ac246a5d02f817a6e3bb4b72a904",
            "0x000000000000000000000000012bd7cd0acc8cb696306b1ab7a537e85ef2056f",
            "0x0000000000000000000000005e1e8043381f3a21a1a64f46073daf7e74fedc1e"
          ],
          "data": "0x00000000000000000000000000000000000000000000000000000000000000010000000000000000000000000000000000000000000000000000000000000000",
          "blockHash": "0xf09fc525d8db8ab26d56f7df59fbb101731f04dbb5bd789149cc59ef3d858c90",
          "blockNumber": "0x1f17299",
          "blockTimestamp": "0x68f64412",
          "transactionHash": "0x30f66bc5feed29d4cae81f32880be20f6708f0a8d7947c285038f8ac3041037f",
          "transactionIndex": "0x45",
          "logIndex": "0x114",
          "removed": false
        }
      ],
      "logsBloom": "0x000000000000000000000000000000000000000000000000000000000000000000000000000000008000000000000000000000000000000000000001000000000000000000000400000000000000000000000000000000000000000000000000000000000000000000000000000000040000000000000004000000000000000000000000000000000000000000200000000000000000000000000000000000000000000000000000000000000000000000000000000000000000000000000000000000a0000000000000000000000000000004000000004000000000000000000004000000000000000000000000000001000000000000000000000000000000",
      "type": "0x2",
      "transactionHash": "0x30f66bc5feed29d4cae81f32880be20f6708f0a8d7947c285038f8ac3041037f",
      "transactionIndex": "0x45",
      "blockHash": "0xf09fc525d8db8ab26d56f7df59fbb101731f04dbb5bd789149cc59ef3d858c90",
      "blockNumber": "0x1f17299",
      "gasUsed": "0xd659",
      "effectiveGasPrice": "0xf4292",
      "from": "0x1234562eb0cd65e7d08e59f9f18d7c10b5df232a",
      "to": "0xe938d69b23ff0e8ef24442736ecc6ec324022eab",
      "contractAddress": null,
      "l1BaseFeeScalar": "0x44d",
      "l1BlobBaseFee": "0x46117a6",
      "l1BlobBaseFeeScalar": "0xa118b",
      "l1Fee": "0x1441fe7a9",
      "l1GasPrice": "0xa",
      "l1GasUsed": "0x702"
    },
    {
      "status": "0x1",
      "cumulativeGasUsed": "0x9ddee",
      "logs": [
        {
          "address": "0xe938d69b23ff0e8ef24442736ecc6ec324022eab",
          "topics": [
            "0x354f0817e377e1e9b2601a5fa1180df29e96ac246a5d02f817a6e3bb4b72a904",
            "0x0000000000000000000000004d8346f2f33ffbc7fa2e46becf83c978943e69c8",
            "0x00000000000000000000000006c1e044d5beb614faa6128001f519e6c693a044"
          ],
          "data": "0x00000000000000000000000000000000000000000000000000000000000000010000000000000000000000000000000000000000000000000000000000000000",
          "blockHash": "0x5d4ffe83bfbf53d6bcbdc1ae2087bd4b05eb33541b401d66d7d43c93e61b2df2",
          "blockNumber": "0x1f1729a",
          "blockTimestamp": "0x68f64414",
          "transactionHash": "0xea537d93d86e034c1a6b73421fae3de3e0a74079e0ca2afaaca24474655d630b",
          "transactionIndex": "0xa",
          "logIndex": "0xd",
          "removed": false
        }
      ],
      "logsBloom": "0x00000000000000010000000000000000000000800000000000000000000000000000000000000000800000000000000000000000000000000000000000000000000000000000000000000000000000000000000000000000000000000000000004000000000000000000000000000000000000000000000400000000000000000000000000000000000000000020000000000000000000000000000010000000000000000000000000000000000000000000000000000000000000000000000000000080000000001000000000000000000004000000004000000000000000000000000000000000000000000000000000000000040000000000000000000000",
      "type": "0x2",
      "transactionHash": "0xea537d93d86e034c1a6b73421fae3de3e0a74079e0ca2afaaca24474655d630b",
      "transactionIndex": "0xa",
      "blockHash": "0x5d4ffe83bfbf53d6bcbdc1ae2087bd4b05eb33541b401d66d7d43c93e61b2df2",
      "blockNumber": "0x1f1729a",
      "gasUsed": "0xd659",
      "effectiveGasPrice": "0xf4292",
      "from": "0x1234562eb0cd65e7d08e59f9f18d7c10b5df232a",
      "to": "0xe938d69b23ff0e8ef24442736ecc6ec324022eab",
      "contractAddress": null,
      "l1BaseFeeScalar": "0x44d",
      "l1BlobBaseFee": "0x46117a6",
      "l1BlobBaseFeeScalar": "0xa118b",
      "l1Fee": "0x1441fe7a9",
      "l1GasPrice": "0xa",
      "l1GasUsed": "0x702"
    },
    {
      "status": "0x1",
      "cumulativeGasUsed": "0x299826",
      "logs": [
        {
          "address": "0xe938d69b23ff0e8ef24442736ecc6ec324022eab",
          "topics": [
            "0x354f0817e377e1e9b2601a5fa1180df29e96ac246a5d02f817a6e3bb4b72a904",
            "0x0000000000000000000000002db087d43fc8402ade0706807d32d6ef72411ebd",
            "0x00000000000000000000000085b8dc34c7af35bac8a45cff53353f39e6f732a2"
          ],
          "data": "0x00000000000000000000000000000000000000000000000000000000000000010000000000000000000000000000000000000000000000000000000000000000",
          "blockHash": "0x6edc4171bd18b323863d8573ab9669f7b9ed6bf5f6ca46b226b0998692d7d5bb",
          "blockNumber": "0x1f1729b",
          "blockTimestamp": "0x68f64416",
          "transactionHash": "0x75d4e66857b9671f162ba95f869e784dc3048b09812fbb3cb9f85cc80eb71351",
          "transactionIndex": "0xc",
          "logIndex": "0x34",
          "removed": false
        }
      ],
      "logsBloom": "0x00000000000000000000000000000000000000000000000000000000000000000000000000000000800000000000000000000000000000000000000000000000000000000000000000000000000000000100000000000000000000000000000000040000000000000000000000000000000000000000000400000000000000000000000000000000000000000020000000040000040000000000000000000000000000000000000000000000000000000000000000000000000000000000000000000080000000000000000000002000000004000000004001000000000000000000000000000000000000000000000000000000000000000000000000000000",
      "type": "0x2",
      "transactionHash": "0x75d4e66857b9671f162ba95f869e784dc3048b09812fbb3cb9f85cc80eb71351",
      "transactionIndex": "0xc",
      "blockHash": "0x6edc4171bd18b323863d8573ab9669f7b9ed6bf5f6ca46b226b0998692d7d5bb",
      "blockNumber": "0x1f1729b",
      "gasUsed": "0xd659",
      "effectiveGasPrice": "0xf4293",
      "from": "0x1234562eb0cd65e7d08e59f9f18d7c10b5df232a",
      "to": "0xe938d69b23ff0e8ef24442736ecc6ec324022eab",
      "contractAddress": null,
      "l1BaseFeeScalar": "0x44d",
      "l1BlobBaseFee": "0x46117a6",
      "l1BlobBaseFeeScalar": "0xa118b",
      "l1Fee": "0x1441fe7a9",
      "l1GasPrice": "0xa",
      "l1GasUsed": "0x702"
    },
    {
      "status": "0x1",
      "cumulativeGasUsed": "0x2a6e7f",
      "logs": [
        {
          "address": "0xe938d69b23ff0e8ef24442736ecc6ec324022eab",
          "topics": [
            "0x354f0817e377e1e9b2601a5fa1180df29e96ac246a5d02f817a6e3bb4b72a904",
            "0x000000000000000000000000d14bd87b18da3ec84a9e098df1c808d9cb7a9852",
            "0x0000000000000000000000007392e9e58f202da3877776c41683ac457dfd4cd7"
          ],
          "data": "0x00000000000000000000000000000000000000000000000000000000000000010000000000000000000000000000000000000000000000000000000000000000",
          "blockHash": "0x6edc4171bd18b323863d8573ab9669f7b9ed6bf5f6ca46b226b0998692d7d5bb",
          "blockNumber": "0x1f1729b",
          "blockTimestamp": "0x68f64416",
          "transactionHash": "0x96a0dc8247e69901442052064d6864fb24fd05d0144fd17447afc946192a8f4b",
          "transactionIndex": "0xd",
          "logIndex": "0x35",
          "removed": false
        }
      ],
      "logsBloom": "0x00000000000000000000000000000000000000000000000000000000000000000000000000000000800000000000000000000000000000000000000000000000000000000000000000000000000000000000000000000000000000000000000000000000000000000000000000000000000000000000000400000000000000000000000000000000000000000020000000000000000000000000000000000000000000000000000000000000000000002000000000000000000000000000000000000080001000000000000000000100000004000000004000000000000000000000000004000000000000800000000000000000000000000000004000000000",
      "type": "0x2",
      "transactionHash": "0x96a0dc8247e69901442052064d6864fb24fd05d0144fd17447afc946192a8f4b",
      "transactionIndex": "0xd",
      "blockHash": "0x6edc4171bd18b323863d8573ab9669f7b9ed6bf5f6ca46b226b0998692d7d5bb",
      "blockNumber": "0x1f1729b",
      "gasUsed": "0xd659",
      "effectiveGasPrice": "0xf4293",
      "from": "0x1234562eb0cd65e7d08e59f9f18d7c10b5df232a",
      "to": "0xe938d69b23ff0e8ef24442736ecc6ec324022eab",
      "contractAddress": null,
      "l1BaseFeeScalar": "0x44d",
      "l1BlobBaseFee": "0x46117a6",
      "l1BlobBaseFeeScalar": "0xa118b",
      "l1Fee": "0x1441fe7a9",
      "l1GasPrice": "0xa",
      "l1GasUsed": "0x702"
    }
  ],
  "libraries": [],
  "pending": [],
  "returns": {},
  "timestamp": 1760969764990,
  "chain": 84532,
  "commit": "11bb562"
}