{
  "transactions": [
    {
      "hash": "0xda37bbc24930694a776bb9fe75f7594027a2a9a6354b1aa0d697150df24c13f8",
      "transactionType": "CREATE",
      "contractName": "KubiStreamerDonation",
      "contractAddress": "0x4ab4a2290cb651065d346299425b2d45eef9d75d",
      "function": null,
      "arguments": [
        "0x94cC0AaC535CCDB3C01d6787D6413C739ae12bc4",
        "0x1234b50310fF79958509d1a9C8a92458ED1496D1",
        "250",
        "0x123454Ce54DEBE2cEbCe95740E9e0f65DFf9DBE2"
      ],
      "transaction": {
        "from": "0x1234562eb0cd65e7d08e59f9f18d7c10b5df232a",
        "gas": "0x40a336",
        "value": "0x0",
        "input": "0x60a080604052346101f757608081613a08803803809161001f8285610288565b8339810103126101f757610032816102bf565b9061003f602082016102bf565b604082015161ffff8116928382036101f757606061005d91016102bf565b5f80546001600160a01b0319163390811782556040519296917f8be0079c531659141344cd1fd0a4f28419497f9722a3daafe3b4186f6b6457e08180a3600180556001600160a01b03169384158015610277575b8015610266575b610257576103e81061024857600380546001600160a01b0319168517905563c45a015560e01b8152602081600481875afa908115610203575f9161020e575b5060018060a01b031691600460208154958560018060a01b03198816178355604051928380926312a9293f60e21b82525afa908115610203575f916101c5575b50608052600280546001600160a01b03199081166001600160a01b03938416179091556001600160b01b03199094169290921760a09190911b61ffff60a01b161760045560058054909216921691909117905560405161373490816102d48239608051818181610a7001528181610aa201528181610bf001528181612c60015281816132d6015261367c0152f35b90506020813d6020116101fb575b816101e060209383610288565b810103126101f7576101f1906102bf565b5f610137565b5f80fd5b3d91506101d3565b6040513d5f823e3d90fd5b90506020813d602011610240575b8161022960209383610288565b810103126101f75761023a906102bf565b5f6100f7565b3d915061021c565b63cd4e616760e01b5f5260045ffd5b63d92e233d60e01b5f5260045ffd5b506001600160a01b038616156100b8565b506001600160a01b038416156100b1565b601f909101601f19168101906001600160401b038211908210176102ab57604052565b634e487b7160e01b5f52604160045260245ffd5b51906001600160a01b03821682036101f75756fe6080806040526004361015610034575b50361561002557631021348160e01b5f5260045ffd5b631021348160e01b5f5260045ffd5b5f3560e01c9081630c495f9614611a7f57508063168b63d8146119ee57806324a9d853146119ca57806325d86ced1461191f57806329575f6a146118f75780633b3b2d8c14611892578063412736571461178757806345ea4a9c14611747578063469048401461171f57806356d5d4751461141b57806376cd0ac11461133c5780637a6f1dcc146111bf5780637b955ebd146111365780637f507f3f146110d8578063833ccb3514611054578063876a46ff14610f2657806388ba16ab14610ef75780638da5cb5b14610ed05780639ab2f6b914610e4e578063a0d2d83014610c76578063a9563e4f14610c1f578063ad5c464814610bdb578063b0e0c12814610b5f578063b45faa7614610a16578063c45a0155146109ee578063cd1b7d6c1461093d578063d55be8c614610921578063d8c71a92146108f5578063ddb2a096146108a0578063e051e81a14610846578063e165fe3d146107ef578063e1f433471461071b578063e34d4ceb146106c6578063e9a4529114610654578063ec287506146105db578063ee5e4fa314610581578063ee68870614610503578063f019e6ed146104e1578063f2708684146104bb578063f2fde38b14610439578063f54efd77146103cd578063f6fe94b01461028d578063f887ea40146102655763fef0c4a114610224575f61000f565b34610261576020366003190112610261576001600160a01b03610245611c58565b165f526006602052602060ff60405f2054166040519015158152f35b5f80fd5b34610261575f366003190112610261576003546040516001600160a01b039091168152602090f35b34610261576060366003190112610261576102a6611c58565b6102ae611c6e565b906102b7611caf565b6001600160a01b039091169133831415806103b8575b806103a4575b610395576001600160a01b03165f8181526006602052604090205460ff161561038657825f52600e6020528060405f2093815f52600185016020526103278460405f209060ff801983541691151516179055565b7f160aca386eecd6b8deb0127ecafcd60a1081e3f9dfa75de2cfd22ea186e8d3f1602060405195159586158152a381610372575b5061036257005b80546001600160a01b0319169055005b82546001600160a01b03161490508261035b565b633ba12a1560e11b5f5260045ffd5b63641410b160e11b5f5260045ffd5b505f546001600160a01b03163314156102d3565b506002546001600160a01b03163314156102cd565b3461026157602036600319011261026157600435801515809103610261575f546001600160a01b031633141580610424575b6104155760ff8019600c5416911617600c555f80f35b63127f16f360e31b5f5260045ffd5b506002546001600160a01b03163314156103ff565b3461026157602036600319011261026157610452611c58565b5f546001600160a01b03811691338390036104ac576001600160a01b03169182156102615782907f8be0079c531659141344cd1fd0a4f28419497f9722a3daafe3b4186f6b6457e05f80a36001600160a01b031916175f55005b635fc483c560e01b5f5260045ffd5b34610261575f36600319011261026157602063ffffffff600c5460081c16604051908152f35b34610261575f36600319011261026157602060ff600c54166040519015158152f35b346102615760403660031901126102615761051c611c58565b610524611c6e565b9060018060a01b035f54163314158061056c575b610415576001600160a01b039081165f908152600d6020526040902080546001600160a01b03191692909116919091179055005b506002546001600160a01b0316331415610538565b346102615760403660031901126102615761059a611c58565b6105a2611c6e565b9060018060a01b03165f52600e602052600160405f20019060018060a01b03165f52602052602060ff60405f2054166040519015158152f35b3461026157610140366003190112610261576105f636611d36565b610601303314611de6565b61060a81612cc1565b60018060a01b0360a08201511690608060018060a01b036020830151169101516040519182526020820152600160408201525f5160206136df5f395f51905f5260606101243592a3005b346102615760403660031901126102615761066d611c58565b610675611c6e565b336001600160a01b0383161415806106b1575b8061069d575b6103955761069b916123ad565b005b505f546001600160a01b031633141561068e565b506002546001600160a01b0316331415610688565b34610261576040366003190112610261576106df611dd3565b63ffffffff6106ec611c6e565b91165f52600a60205260405f209060018060a01b03165f52602052602060ff60405f2054166040519015158152f35b3461026157606036600319011261026157610734611dd3565b61073c611c6e565b610744611caf565b9060018060a01b035f5416331415806107da575b610415576001600160a01b03169182156107cb57602063ffffffff7f4d49d3f3f3e2ec61b682ac1aa8adb9e1945c29b4df4aab45492b365a611b7b9f921692835f52600a825260405f20855f5282526107c08160405f209060ff801983541691151516179055565b6040519015158152a3005b63d92e233d60e01b5f5260045ffd5b506002546001600160a01b0316331415610758565b3461026157604036600319011261026157610808611c58565b610810611c6e565b6001600160a01b039182165f908152600e6020908152604080832093851683526002909301815290829020549151919092168152f35b34610261576020366003190112610261576001600160a01b03610867611c58565b165f526008602052606060405f20600181549101546040519160ff81161515835260018060a01b039060081c1660208301526040820152f35b34610261576020366003190112610261576001600160a01b036108c1611c58565b165f908152600e6020908152604091829020805460049091015483516001600160a01b039283168152911691810191909152f35b34610261575f36600319011261026157600c5460405160289190911c6001600160a01b03168152602090f35b34610261575f3660031901126102615760206040516103e88152f35b346102615760403660031901126102615760043561ffff811680820361026157610965611c6e565b9060018060a01b035f5416331415806109d9575b610415576103e8106109ca576001600160a01b03169081156107cb576004805461ffff60a01b191660a09290921b61ffff60a01b16919091179055600580546001600160a01b031916919091179055005b63cd4e616760e01b5f5260045ffd5b506002546001600160a01b0316331415610979565b34610261575f366003190112610261576004546040516001600160a01b039091168152602090f35b3461026157606036600319011261026157610a2f611c58565b610a37611c6e565b6044359162ffffff83168303610261575f546001600160a01b031633141580610b4a575b610415576001600160a01b038116610b4457507f0000000000000000000000000000000000000000000000000000000000000000905b6001600160a01b038116610b3e57507f0000000000000000000000000000000000000000000000000000000000000000905b6001600160a01b03169081158015610b2d575b6107cb575f8281526007602081815260408084206001600160a01b03959095168452938152838320805462ffffff9790971662ffffff19978816811790915591815283832094835293909352208054909216179055005b506001600160a01b03811615610ad6565b90610ac3565b90610a91565b506002546001600160a01b0316331415610a5b565b346102615761016036600319011261026157610b7a36611d36565b610b82611c84565b610b8d303314611de6565b610b978183612d98565b608060018060a01b0360a0840151169201516040519160018060a01b031682526020820152600160408201525f5160206136df5f395f51905f5260606101443592a3005b34610261575f366003190112610261576040517f00000000000000000000000000000000000000000000000000000000000000006001600160a01b03168152602090f35b3461026157604036600319011261026157610c38611c58565b610c40611c6e565b9060018060a01b03165f52600760205260405f209060018060a01b03165f52602052602062ffffff60405f205416604051908152f35b3461026157604036600319011261026157610c8f611c58565b610c97611c6e565b906001600160a01b03163381141580610e39575b80610e25575b610395575f818152600e60205260409020916001600160a01b031680156107cb575f8181526003840160208190526040909120546001600160a01b0316938415610df2576001600160a01b038581165f9081526002830160205260409020541683145b15610de35760049160018060a01b0386165f526002820160205260405f206001600160601b0360a01b8154169055835f5260205260405f206001600160601b0360a01b8154169055019060018060a01b0382541614610da9575b506040515f81526001600160a01b03909216917f07efacf833c0332f419c637a012a52fe4647777ec52b15b904c88856048dc94f90602090a3005b80546001600160a01b03191690556040515f81526001600160a01b0383169082905f5160206136bf5f395f51905f5290602090a382610d6e565b634209c0e360e01b5f5260045ffd5b5f8080526002820160205260409020549094906001600160a01b03168303610e1e57505f936001610d14565b935f610d14565b505f546001600160a01b0316331415610cb1565b506002546001600160a01b0316331415610cab565b34610261576020366003190112610261576004355f52600b60205260c060405f2060ff60018060a01b038254169160018060a01b036001820154169060018060a01b03600282015416600460038301549201549260405195865260208601526040850152606084015263ffffffff8116608084015260201c16151560a0820152f35b34610261575f366003190112610261575f546040516001600160a01b039091168152602090f35b34610261576020366003190112610261576004355f526009602052602060ff60405f2054166040519015158152f35b3461026157602036600319011261026157600435610f476001805414611e3d565b6002600155805f52600b60205260405f20906003820191825490811561104557600481019182549260ff8460201c166110365782546001600160a01b03163314158061101f575b61101057600261100793610fe1926401000000007f6a2135e02ec806883835dbb59b92ede322c4f615397756ef4d0599c3cb3638549764ff00000000191617905501913360018060a01b03845416612a99565b549354604080516001600160a01b03909616865260208601919091523394918291820190565b0390a360018055005b630ecab8eb60e11b5f5260045ffd5b5060018301546001600160a01b0316331415610f8e565b63075d85e360e01b5f5260045ffd5b637bafa6c960e01b5f5260045ffd5b346102615760203660031901126102615761106d611c58565b5f546001600160a01b0316331415806110c3575b610415576001600160a01b038116156107cb57600c805465010000000000600160c81b03191660289290921b65010000000000600160c81b0316919091179055005b506002546001600160a01b0316331415611081565b60c0366003190112610261576110ec611c58565b6110f4611c6e565b60643591906001600160a01b0383168303610261576111309261111a6001805414611e3d565b600260015560a435926084359260443591611ed6565b60018055005b34610261576020366003190112610261576001600160a01b03611157611c58565b165f908152600e6020526040902060048101546001600160a01b0316908161119a57505f905b604080516001600160a01b03928316815292909116602083015290f35b6001600160a01b038281165f908152600392909201602052604090912054169061117d565b34610261576040366003190112610261576111d8611c58565b6111e0611c6e565b6001600160a01b03909116903382141580611327575b80611313575b610395576001600160a01b03169081156107cb57815f52600860205260405f205460ff8116156113045760081c6001600160a01b03169182156112f5575f828152600e602090815260408083206001600160a01b0387811680865260028301855283862080546001600160a01b0319908116891790915587875260038401865293909520805490931690941790915560040180547f07efacf833c0332f419c637a012a52fe4647777ec52b15b904c88856048dc94f94929316156112c5575b50604051908152a3005b816001600160601b0360a01b82541617905584845f5160206136bf5f395f51905f5284604051858152a3856112bb565b63634bb5e960e11b5f5260045ffd5b63ab68eff560e01b5f5260045ffd5b505f546001600160a01b03163314156111fc565b506002546001600160a01b03163314156111f6565b3461026157604036600319011261026157611355611c58565b61135d611c6e565b906001600160a01b03163381141580611406575b806113f2575b610395576001600160a01b0382165f9081526006602052604090205460ff1615610386575f52600e60205260405f209060018060a01b0381165f526001820160205260ff60405f205416156113e35781546001600160a01b0319166001600160a01b0391909116179055005b631a1a638d60e01b5f5260045ffd5b505f546001600160a01b0316331415611377565b506002546001600160a01b0316331415611371565b3461026157606036600319011261026157611434611dd3565b6044359067ffffffffffffffff8211610261573660238301121561026157816004013567ffffffffffffffff81116102615760248301818401366024820111610261576114846001805414611e3d565b6002600155604051602081019063ffffffff86169563ffffffff60e01b9060e01b1682526024356024820152848460448301376114d36020604483888101438382015203018084520182611d14565b51902092835f52600960205260ff60405f20541661171057608090845f52600960205260405f20600160ff198254161790551061170157608090859003126102615761151e90611c9b565b9161152b60448501611c9b565b92608461153a60648701611c9b565b6001600160a01b0395861696928616959190920135911685156107cb5781156116f257805f52600660205260ff60405f2054161561038657604080516001600160a01b0383168152602081018490529081018590528690869085907f2385c9e581aa6338749593a091fc45991adb2cabe5e070614a388e318f52807090606090a46115c884838389896127a7565b156115d35760018055005b6040519260c084019380851067ffffffffffffffff8611176116de576040948552868152602080820189815282870185815260608401878152608085019586525f60a086018181528b8252600b8652908a9020955186546001600160a01b03199081166001600160a01b0392831617885594516001880180548716918316919091179055925160028701805490951690841617909355516003850155935160049093018054915164ffffffffff1990921663ffffffff90941693909317901515821b64ff0000000016179091558451919092168152908101919091527f1eba772d6e32861ac84f6d651181b2bc327724ca4854e984f7f2fa458ae165449190a4808080808080611130565b634e487b7160e01b5f52604160045260245ffd5b631f2a200560e01b5f5260045ffd5b63772496b160e01b5f5260045ffd5b637b04260960e01b5f5260045ffd5b34610261575f366003190112610261576005546040516001600160a01b039091168152602090f35b34610261576020366003190112610261576001600160a01b03611768611c58565b165f52600d602052602060018060a01b0360405f205416604051908152f35b34610261576020366003190112610261576117a0611c58565b5f546001600160a01b03163314158061187d575b610415576001600160a01b031680156107cb57600380546001600160a01b03198116831790915560405163c45a015560e01b8152602081600481865afa908115611872575f91611843575b50600480546001600160a01b0319166001600160a01b03928316179055167fca394f95d8dbf1e8b2e76b9a8da90cacce1da85181a65508dab13212dc1df53b5f80a3005b611865915060203d60201161186b575b61185d8183611d14565b810190611e1e565b836117ff565b503d611853565b6040513d5f823e3d90fd5b506002546001600160a01b03163314156117b4565b34610261576020366003190112610261576118ab611dd3565b5f546001600160a01b0316331415806118e2575b6104155764ffffffff00600c549160081b169064ffffffff00191617600c555f80f35b506002546001600160a01b03163314156118bf565b34610261575f366003190112610261576002546040516001600160a01b039091168152602090f35b3461026157604036600319011261026157611938611c58565b6024359081151590818303610261575f546001600160a01b0316331415806119b5575b610415577fac90355684e2710fa34c2c7d500018678b146ea2d56ddc331c63d242ee8bf385916119ac60209260018060a01b031694855f526006845260405f209060ff801983541691151516179055565b604051908152a2005b506002546001600160a01b031633141561195b565b34610261575f36600319011261026157602061ffff60045460a01c16604051908152f35b346102615761018036600319011261026157611a0936611d36565b611a11611c84565b610144356001600160a01b038116810361026157611a3b90611a34303314611de6565b8284612461565b608060018060a01b0360a0840151169201516040519160018060a01b031682526020820152600160408201525f5160206136df5f395f51905f5260606101643592a3005b3461026157608036600319011261026157611a98611c58565b90611aa1611c6e565b611aa9611caf565b916064359360018060a01b035f541633141580611c43575b610415576001600160a01b03169283156107cb5715611ba857506001600160a01b03169182156112f557825f52600660205260ff60405f20541615611b995760407f354f0817e377e1e9b2601a5fa1180df29e96ac246a5d02f817a6e3bb4b72a904918151611b2f81611cbe565b6001815260016020820187815284830190848252875f526008602052611b67865f2094511515859060ff801983541691151516179055565b518354906101008460a81b039060081b16906101008460a81b03191617835551910155815190600182526020820152a3005b634c3347d160e01b5f5260045ffd5b90505f9250611bb681611cbe565b82815260016020820184815260408301908582528486526008602052611bef6040872094511515859060ff801983541691151516179055565b518354906101008460a81b039060081b16906101008460a81b031916178355519101557f354f0817e377e1e9b2601a5fa1180df29e96ac246a5d02f817a6e3bb4b72a90460408051848152846020820152a3005b506002546001600160a01b0316331415611ac1565b600435906001600160a01b038216820361026157565b602435906001600160a01b038216820361026157565b61012435906001600160a01b038216820361026157565b35906001600160a01b038216820361026157565b60443590811515820361026157565b6060810190811067ffffffffffffffff8211176116de57604052565b610120810190811067ffffffffffffffff8211176116de57604052565b610100810190811067ffffffffffffffff8211176116de57604052565b90601f8019910116810190811067ffffffffffffffff8211176116de57604052565b6101209060031901126102615760405190611d5082611cda565b816004356001600160a01b03811681036102615781526024356001600160a01b038116810361026157602082015260443560408201526064356060820152608435608082015260a4356001600160a01b03811681036102615760a082015260c43560c082015260e43560e082015261010435908115158203610261576101000152565b6004359063ffffffff8216820361026157565b15611ded57565b60405162461bcd60e51b815260206004820152600960248201526827b7363c9039b2b63360b91b6044820152606490fd5b9081602091031261026157516001600160a01b03811681036102615790565b15611e4457565b60405162461bcd60e51b815260206004820152600a6024820152695245454e5452414e435960b01b6044820152606490fd5b91908203918211611e8357565b634e487b7160e01b5f52601160045260245ffd5b3d15611ed1573d9067ffffffffffffffff82116116de5760405191611ec6601f8201601f191660200184611d14565b82523d5f602084013e565b606090565b9490926001600160a01b03169081156107cb5742811061239e576001600160a01b038416948515938415612398575034925b83156116f2578415612392575f5b6001600160a01b03165f9081526006602052604090205460ff161561038657841593846122dd575b61ffff60045460a01c168082029082820403611e8357612710900490611f648282611e76565b958261228c575b600c549060ff8216159081612284575b506120d2575b50825f52600e60205260405f20986040519a611f9c8c611cda565b6001600160a01b03168b5260208b015260408a015260608901526080880193845260a088015260c087015260e08601526101008501829052611fde8585612b4f565b916001600160a01b038216908161207a575b505050505f1461207557505f5b6001600160a01b03165f90815260018201602052604090205460ff1661206b57546001600160a01b0316801561205c57805f52600660205260ff60405f2054161561204d5761204b91612d98565b565b633fbb49c960e01b5f5260045ffd5b63555096e560e11b5f5260045ffd5b5061204b90612cc1565b611ffd565b6040915f526008602052815f20600183519161209583611cbe565b805460ff811615158452828060a01b039060081c166020840152015492839101525110156120c4578080611ff0565b925092505061204b92612461565b5f8a8152600d60205260409020546001600160a01b031690811515908161226e575b5015611f815793505050959492935060209150612112848287613560565b604051908282019760018060a01b03169586895287604084015260608301528460808301526080825261214660a083611d14565b600c545f60a4604051809b81968295635853cc1360e11b845263ffffffff8160081c16600485015260018060a01b039060281c1660248401528a6044840152608060648401525180918160848501528484015e8181018301849052601f01601f191681010301925af1948515611872575f95612218575b50600c54604080516001600160a01b03909316835260208301939093529181019490945260081c63ffffffff16927f42a428e9d6cac8b93fb5138b57dbb1a7aac86d8a8b8ddec567cac4caab9eb0299080606081015b0390a4565b919094506020823d602011612266575b8161223560209383611d14565b81010312610261579051937f42a428e9d6cac8b93fb5138b57dbb1a7aac86d8a8b8ddec567cac4caab9eb0296121bd565b3d9150612228565b60281c6001600160a01b0316151590505f6120f4565b90505f611f7b565b87156122c0575f8080808660018060a01b03600554165af16122ac611e97565b50611f6b5763671f7c4960e11b5f5260045ffd5b6005546122d89084906001600160a01b03168c612a99565b611f6b565b30156107cb576040516323b872dd60e01b81526001600160a01b038a166004820152306024820152604481018290526020816064815f8d5af1908115611872575f91612363575b50611f3e5760405162461bcd60e51b81526020600482015260126024820152711514905394d1915497d19493d357d190525360721b6044820152606490fd5b612385915060203d60201161238b575b61237d8183611d14565b810190612a81565b5f612324565b503d612373565b85611f16565b92611f08565b631ab7da6b60e01b5f5260045ffd5b6001600160a01b039081165f818152600e6020526040902092909116801561243257805f52600860205260ff60405f20541615611304575f8181526003840160205260409020546001600160a01b0316928315610de35760040180546001600160a01b031916821790556040519081525f5160206136bf5f395f51905f5290602090a3565b5060045f92016001600160601b0360a01b81541690555f5160206136bf5f395f51905f526020604051848152a3565b915f9160018060a01b03811691825f52600860205260405f206040519061248782611cbe565b8054916040600160ff85161593841584526020840195828060a01b039060081c168652015491015261130457516001600160a01b03169081156112f5576001600160a01b0316810361273057805f52600660205260ff60405f20541615611b99576124f281866130ad565b60a0860180516040516370a0823160e01b81526001600160a01b03909116600482015290949190602081602481865afa908115611872575f916126fe575b5061253b85856134b3565b612546828686613560565b85516001600160a01b0316833b156102615760405163d699618560e01b81526001600160a01b03919091166004820152602481018390525f8160448183885af18015611872576126e9575b5061259c85856134b3565b85516040516370a0823160e01b81526001600160a01b03909116600482015290602082602481875afa80156126de5788906126aa575b6125dc9250611e76565b95861561269b5760c0880151871061268d5750905f51602061369f5f395f51905f529392917f8f7a6fecbaab1e04e31f80b9da6e08d7f55f854f660a910ddc7cce65036babd5604060018060a01b03885116928151908152896020820152a4845192516020808701516040808901516060998a01518251918252938101939093526001600160a01b039485169083015296810195909552426080860152948116948116939216918060a08101612213565b6250c9b760e01b8152600490fd5b63360fef3560e01b8152600490fd5b506020823d6020116126d6575b816126c460209383611d14565b81010312610261576125dc91516125d2565b3d91506126b7565b6040513d8a823e3d90fd5b6126f69197505f90611d14565b5f955f612591565b90506020813d602011612728575b8161271960209383611d14565b8101031261026157515f612530565b3d915061270c565b632693f30360e11b5f5260045ffd5b80516001600160a01b03908116835260208083015182169084015260408083015190840152606080830151908401526080808301519084015260a0808301519091169083015260c0808201519083015260e08082015190830152610100908101511515910152565b6001600160a01b0382165f818152600e6020526040812042610e1081019893979295929491908910611e8357604051916127e083611cda565b60018060a01b03169687835260018060a01b0316988960208401528560408401525f606084015260808301908682528960a08501525f60c085015260e08401525f6101008401526128318383612b4f565b6001600160a01b0390911691826129b7575b505050885f526001810160205260ff60405f20541661296757546001600160a01b031680151580612951575b6128db57505091855f51602061369f5f395f51905f5294926128948360a0968b612a99565b5f5160206136df5f395f51905f5260606040518b815285602082015260016040820152a36040519181835260208301528660408301526060820152426080820152a4600190565b949750955050925050303b1561294d5760405163161c182560e31b81529261290790600485019061273f565b6101248301526101448201528180826101648183305af19182612934575b505061292e5790565b50600190565b8161293e91611d14565b61294957815f612925565b5080fd5b8380fd5b50808652600660205260ff60408720541661286f565b509550509250509250303b156129b3576040516376143a8360e11b81529161299390600484019061273f565b6101248201528180826101448183305af1918261293457505061292e5790565b8280fd5b604090835f526008602052815f2060018351916129d383611cbe565b805460ff811615158452828060a01b039060081c16602084015201549283910152511015612a02575b80612843565b303b15610261576040516302d16c7b60e31b815291612a24600484018661273f565b6101248301526001600160a01b031661014482015261016481018590525f816101848183305af19081612a6c575b50612a5e575f806129fc565b505050505050505050600190565b612a799197505f90611d14565b5f955f612a52565b90816020910312610261575180151581036102615790565b916001600160a01b038216156107cb5760405163a9059cbb60e01b81526001600160a01b0390921660048301526024820152906020908290815f816044810103926001600160a01b03165af1908115611872575f91612b30575b5015612afb57565b60405162461bcd60e51b815260206004820152600d60248201526c1514905394d1915497d1905253609a1b6044820152606490fd5b612b49915060203d60201161238b5761237d8183611d14565b5f612af3565b6101008201519092919015612caf57505f5b6001600160a01b03811615612c2b576001600160a01b038181165f90815260028501602052604090205416612b95816135c1565b612c265750505b60048201546001600160a01b0316612bb3816135c1565b612c03575081546001600160a01b03169182612bd2575b505f91508190565b6001600160a01b038381165f90815260029290920160205260409091205416612bfa816135c1565b15612bca579190565b6001600160a01b038082165f908152600390940160205260409093205490921690565b925090565b505f8080526002830160208190526040909120546001600160a01b0316612c51816135c1565b612ca757506001600160a01b037f00000000000000000000000000000000000000000000000000000000000000008181165f90815260209390935260409092205416612c9c816135c1565b612c26575050612b9c565b92505f919050565b602001516001600160a01b0316612b61565b61010081015115612d6c575f80808060018060a01b0360a0860151166080860151905af1612ced611e97565b5015612d5d575b805160a0828101516020808501516040808701516060808901516080998a01518451938452958301526001600160a01b03938416928201839052810193909352429683019690965291821693909116915f51602061369f5f395f51905f52919081908101612213565b632b3b0c0960e11b5f5260045ffd5b602081015160a08201516080830151612d939290916001600160a01b039081169116612a99565b612cf4565b906101008201511515805f1461309a575f5b60808401519060c085015160a086019360018060a01b0385511691612dd360e08901519461366b565b93612ddd8861366b565b9460018060a01b031693845f52600760205260405f2060018060a01b0387165f5260205262ffffff60405f205416801561308b5760048054604051630b4c774160e11b81529182018890526001600160a01b0398891660248301819052604483018490529860209183916064918391165afa908115611872575f9161306c575b506001600160a01b03161561305e5760405196612e7988611cf7565b86885260208801526040870152606086015260808501528460a085015260c08401525f60e08401525f14612f8d575060035460405163414bf38960e01b81529260209284926001600160a01b03169183918290612ed99060048301613602565b03925af18015611872575f90612f4e575b5f51602061369f5f395f51905f529150925b845192516020808701516040808901516060998a01518251918252938101939093526001600160a01b039485169083015296810195909552426080860152948116948116939216918060a08101612213565b506020813d602011612f85575b81612f6860209383611d14565b81010312610261575f51602061369f5f395f51905f529051612eea565b3d9150612f5b565b9390612fec602091612fc05f95612fae60018060a01b03600354168a6134b3565b6003546001600160a01b031689613560565b60035460405163414bf38960e01b81529586936001600160a01b03909216928492839160048301613602565b03925af1918215611872575f92613028575b506130235f51602061369f5f395f51905f52929460018060a01b0360035416906134b3565b612efc565b91506020823d602011613056575b8161304360209383611d14565b8101031261026157905190613023612ffe565b3d9150613036565b6231a7b960e41b5f5260045ffd5b613085915060203d60201161186b5761185d8183611d14565b5f612e5d565b630db08e3d60e01b5f5260045ffd5b60208301516001600160a01b0316612daa565b5f916101008201516132d45760208201516001600160a01b039081169290821683146132c9576130ef6130e960e060808401519301519461366b565b9261366b565b9160018060a01b03169283855260076020526040852060018060a01b0384165f5260205262ffffff60405f20541680156132ba5760048054604051630b4c774160e11b81529182018790526001600160a01b0395861660248301819052604483018490529560209183916064918391165afa9081156132af578791613290575b506001600160a01b03161561328257926131e76020936132139388966040519461319886611cf7565b89865287860152604085015230606085015260808401528060a08401528560c08401528560e08401526131d560018060a01b0360035416886134b3565b6003546001600160a01b031687613560565b60035460405163414bf38960e01b81529485936001600160a01b03909216928492839160048301613602565b03925af19283156132765792613240575b5060035461323d916001600160a01b03909116906134b3565b90565b9091506020813d60201161326e575b8161325c60209383611d14565b8101031261026157519061323d613224565b3d915061324f565b604051903d90823e3d90fd5b6231a7b960e41b8652600486fd5b6132a9915060203d60201161186b5761185d8183611d14565b5f61316f565b6040513d89823e3d90fd5b630db08e3d60e01b8652600486fd5b608001519392505050565b7f00000000000000000000000000000000000000000000000000000000000000006001600160a01b0381811692908116831461346d5761331f9060e06080860151950151925061366b565b82855260076020526040852060018060a01b0382165f5260205262ffffff60405f2054169081156132ba5760048054604051630b4c774160e11b81529182018690526001600160a01b0392831660248301819052604483018590529260209183916064918391165afa9081156132af57879161344e575b506001600160a01b03161561328257916020939161340b93604051936133bb85611cf7565b845285840152604083015230606083015260808201528360a08201528460c08201528460e082015260018060a01b03600354169060405194858094819363414bf38960e01b835260048301613602565b03925af1918215613276579161341f575090565b90506020813d602011613446575b8161343a60209383611d14565b81010312610261575190565b3d915061342d565b613467915060203d60201161186b5761185d8183611d14565b5f613396565b5050915060800190815190803b15610261575f90600460405180948193630d0e30db60e41b83525af18015611872576134a557505190565b5f6134af91611d14565b5190565b906001600160a01b031680156107cb5760405163095ea7b360e01b815260048101919091525f602482018190529091602091839160449183916001600160a01b03165af1908115611872575f91613541575b501561350d57565b60405162461bcd60e51b815260206004820152600c60248201526b1054141493d59157d190525360a21b6044820152606490fd5b61355a915060203d60201161238b5761237d8183611d14565b5f613505565b916001600160a01b038216156107cb5760405163095ea7b360e01b81526001600160a01b0390921660048301526024820152906020908290815f816044810103926001600160a01b03165af1908115611872575f9161354157501561350d57565b6001600160a01b031680156135fd575f52600860205260405f205460ff811690816135ea575090565b60081c6001600160a01b03161515919050565b505f90565b81516001600160a01b03908116825260208084015182169083015260408084015162ffffff16908301526060808401518216908301526080808401519083015260a0808401519083015260c0808401519083015260e09283015116918101919091526101000190565b6001600160a01b03811661323d57507f00000000000000000000000000000000000000000000000000000000000000009056fe49735f6dfce36092e4e60b47019be07f553ede2d89c84c80a84ad06883a2477752ce92b576c9e725f458101a8593fe331d4d2964c77a20f2b608b39cd95cf7890b84237232bded30e1bbcacdfefe53e938b8581b540301f72506f32b3af37c88a264697066735822122013d3c17e7b2874e20bd3d8bb8728334a27755953766849c8f770a30fdcbe5cf264736f6c634300081e003300000000000000000000000094cc0aac535ccdb3c01d6787d6413c739ae12bc40000000000000000000000001234b50310ff79958509d1a9c8a92458ed1496d100000000000000000000000000000000000000000000000000000000000000fa000000000000000000000000123454ce54debe2cebce95740e9e0f65dff9dbe2",
        "nonce": "0xbf8e",
        "chainId": "0x14a34"
      },
      "additionalContracts": [],
      "isFixedGasLimit": false
    },
    {
      "hash": "0x015d7bef3f4c89d6f802a3207c300c72f23b631a1f2d6da1345a80ace1c47ffb",
      "transactionType": "CALL",
      "contractName": "KubiStreamerDonation",
      "contractAddress": "0x4ab4a2290cb651065d346299425b2d45eef9d75d",
      "function": "setGlobalWhitelist(address,bool)",
      "arguments": [
        "0x33c6f26dA09502E6540043f030aE1F87f109cc99",
        "true"
      ],
      "transaction": {
        "from": "0x1234562eb0cd65e7d08e59f9f18d7c10b5df232a",
        "to": "0x4ab4a2290cb651065d346299425b2d45eef9d75d",
        "gas": "0x1013c",
        "value": "0x0",
        "input": "0x25d86ced00000000000000000000000033c6f26da09502e6540043f030ae1f87f109cc990000000000000000000000000000000000000000000000000000000000000001",
        "nonce": "0xbf8f",
        "chainId": "0x14a34"
      },
      "additionalContracts": [],
      "isFixedGasLimit": false
    },
    {
      "hash": "0x38918156386278564e814f0bc97cc86b10ccd5124fe721446196971f3e23cecf",
      "transactionType": "CALL",
      "contractName": "KubiStreamerDonation",
      "contractAddress": "0x4ab4a2290cb651065d346299425b2d45eef9d75d",
      "function": "setGlobalWhitelist(address,bool)",
      "arguments": [
        "0x7CB382Ce1AA40FA9F9A59a632090c05Dc28caE7b",
        "true"
      ],
      "transaction": {
        "from": "0x1234562eb0cd65e7d08e59f9f18d7c10b5df232a",
        "to": "0x4ab4a2290cb651065d346299425b2d45eef9d75d",
        "gas": "0x11071",
        "value": "0x0",
        "input": "0x25d86ced0000000000000000000000007cb382ce1aa40fa9f9a59a632090c05dc28cae7b0000000000000000000000000000000000000000000000000000000000000001",
        "nonce": "0xbf90",
        "chainId": "0x14a34"
      },
      "additionalContracts": [],
      "isFixedGasLimit": false
    },
    {
      "hash": "0x66ef31f01f12a926e504f9b5cab7d40331898c7a5194f43010fddaf035aaf08a",
      "transactionType": "CALL",
      "contractName": "KubiStreamerDonation",
      "contractAddress": "0x4ab4a2290cb651065d346299425b2d45eef9d75d",
      "function": "setGlobalWhitelist(address,bool)",
      "arguments": [
        "0xB288Ba5B5b80Dd0Fd83541ef2e5922f71121Fa13",
        "true"
      ],
      "transaction": {
        "from": "0x1234562eb0cd65e7d08e59f9f18d7c10b5df232a",
        "to": "0x4ab4a2290cb651065d346299425b2d45eef9d75d",
        "gas": "0x11071",
        "value": "0x0",
        "input": "0x25d86ced000000000000000000000000b288ba5b5b80dd0fd83541ef2e5922f71121fa130000000000000000000000000000000000000000000000000000000000000001",
        "nonce": "0xbf91",
        "chainId": "0x14a34"
      },
      "additionalContracts": [],
      "isFixedGasLimit": false
    },
    {
      "hash": "0x2e81ae66d0e56697b7972d1e87e240abf1bcba364f471ad4fbd9a8a33bb904e0",
      "transactionType": "CALL",
      "contractName": "KubiStreamerDonation",
      "contractAddress": "0x4ab4a2290cb651065d346299425b2d45eef9d75d",
      "function": "setGlobalWhitelist(address,bool)",
      "arguments": [
        "0xC4a53c466Cfb62AecED03008B0162baaf36E0B03",
        "true"
      ],
      "transaction": {
        "from": "0x1234562eb0cd65e7d08e59f9f18d7c10b5df232a",
        "to": "0x4ab4a2290cb651065d346299425b2d45eef9d75d",
        "gas": "0x11071",
        "value": "0x0",
        "input": "0x25d86ced000000000000000000000000c4a53c466cfb62aeced03008b0162baaf36e0b030000000000000000000000000000000000000000000000000000000000000001",
        "nonce": "0xbf92",
        "chainId": "0x14a34"
      },
      "additionalContracts": [],
      "isFixedGasLimit": false
    },
    {
      "hash": "0x612daf6ec675fdbbaab5480091f34ed90b70ad381cd0810ca2e6d488224d9ac2",
      "transactionType": "CALL",
      "contractName": "KubiStreamerDonation",
      "contractAddress": "0x4ab4a2290cb651065d346299425b2d45eef9d75d",
      "function": "setGlobalWhitelist(address,bool)",
      "arguments": [
        "0x70Db6eFB75c898Ad1e194FDA2B8C6e73dbC944d6",
        "true"
      ],
      "transaction": {
        "from": "0x1234562eb0cd65e7d08e59f9f18d7c10b5df232a",
        "to": "0x4ab4a2290cb651065d346299425b2d45eef9d75d",
        "gas": "0x11071",
        "value": "0x0",
        "input": "0x25d86ced00000000000000000000000070db6efb75c898ad1e194fda2b8c6e73dbc944d60000000000000000000000000000000000000000000000000000000000000001",
        "nonce": "0xbf93",
        "chainId": "0x14a34"
      },
      "additionalContracts": [],
      "isFixedGasLimit": false
    },
    {
      "hash": "0xb45628dd70a038d49a70bf32677591163f8e8ec69d278b3ade3b708573cb68ac",
      "transactionType": "CALL",
      "contractName": "KubiStreamerDonation",
      "contractAddress": "0x4ab4a2290cb651065d346299425b2d45eef9d75d",
      "function": "setGlobalWhitelist(address,bool)",
      "arguments": [
        "0xEE589FBF85128abA6f42696dB2F28eA9EBddE173",
        "true"
      ],
      "transaction": {
        "from": "0x1234562eb0cd65e7d08e59f9f18d7c10b5df232a",
        "to": "0x4ab4a2290cb651065d346299425b2d45eef9d75d",
        "gas": "0x11071",
        "value": "0x0",
        "input": "0x25d86ced000000000000000000000000ee589fbf85128aba6f42696db2f28ea9ebdde1730000000000000000000000000000000000000000000000000000000000000001",
        "nonce": "0xbf94",
        "chainId": "0x14a34"
      },
      "additionalContracts": [],
      "isFixedGasLimit": false
    },
    {
      "hash": "0x54576f35f67dc67891b4186acd6fa4aee4a20cba6f2772f5b8f1223d057df74c",
      "transactionType": "CALL",
      "contractName": "KubiStreamerDonation",
      "contractAddress": "0x4ab4a2290cb651065d346299425b2d45eef9d75d",
      "function": "setGlobalWhitelist(address,bool)",
      "arguments": [
        "0x2C036be74942c597e4d81D7050008dDc11becCEb",
        "true"
      ],
      "transaction": {
        "from": "0x1234562eb0cd65e7d08e59f9f18d7c10b5df232a",
        "to": "0x4ab4a2290cb651065d346299425b2d45eef9d75d",
        "gas": "0x1013c",
        "value": "0x0",
        "input": "0x25d86ced0000000000000000000000002c036be74942c597e4d81d7050008ddc11becceb0000000000000000000000000000000000000000000000000000000000000001",
        "nonce": "0xbf95",
        "chainId": "0x14a34"
      },
      "additionalContracts": [],
      "isFixedGasLimit": false
    },
    {
      "hash": "0xaee55ce01d8868d628d5a1bdbbe6e5237b12c73793d1f1ef50b11ab9a7749d75",
      "transactionType": "CALL",
      "contractName": "KubiStreamerDonation",
      "contractAddress": "0x4ab4a2290cb651065d346299425b2d45eef9d75d",
      "function": "setGlobalWhitelist(address,bool)",
      "arguments": [
        "0x90CdcBF4c4bc78dC440252211EFd744d0A4Dc4A1",
        "true"
      ],
      "transaction": {
        "from": "0x1234562eb0cd65e7d08e59f9f18d7c10b5df232a",
        "to": "0x4ab4a2290cb651065d346299425b2d45eef9d75d",
        "gas": "0x11071",
        "value": "0x0",
        "input": "0x25d86ced00000000000000000000000090cdcbf4c4bc78dc440252211efd744d0a4dc4a10000000000000000000000000000000000000000000000000000000000000001",
        "nonce": "0xbf96",
        "chainId": "0x14a34"
      },
      "additionalContracts": [],
      "isFixedGasLimit": false
    },
    {
      "hash": "0xc2d5935b48b43574a9fcb25d4064bf715e3803b817288179fa4750be4570dd4f",
      "transactionType": "CALL",
      "contractName": "KubiStreamerDonation",
      "contractAddress": "0x4ab4a2290cb651065d346299425b2d45eef9d75d",
      "function": "setGlobalWhitelist(address,bool)",
      "arguments": [
        "0xced6Ceb47301F268d57fF07879DF45Fda80e6974",
        "true"
      ],
      "transaction": {
        "from": "0x1234562eb0cd65e7d08e59f9f18d7c10b5df232a",
        "to": "0x4ab4a2290cb651065d346299425b2d45eef9d75d",
        "gas": "0x11071",
        "value": "0x0",
        "input": "0x25d86ced000000000000000000000000ced6ceb47301f268d57ff07879df45fda80e69740000000000000000000000000000000000000000000000000000000000000001",
        "nonce": "0xbf97",
        "chainId": "0x14a34"
      },
      "additionalContracts": [],
      "isFixedGasLimit": false
    },
    {
      "hash": "0x2a7b0725efa29f124c4515400af2e0039b35e036f87a8a778f187ba752a66394",
      "transactionType": "CALL",
      "contractName": "KubiStreamerDonation",
      "contractAddress": "0x4ab4a2290cb651065d346299425b2d45eef9d75d",
      "function": "setGlobalWhitelist(address,bool)",
      "arguments": [
        "0x782Ba48189AF93a0CF42766058DE83291f384bF3",
        "true"
      ],
      "transaction": {
        "from": "0x1234562eb0cd65e7d08e59f9f18d7c10b5df232a",
        "to": "0x4ab4a2290cb651065d346299425b2d45eef9d75d",
        "gas": "0x11071",
        "value": "0x0",
        "input": "0x25d86ced000000000000000000000000782ba48189af93a0cf42766058de83291f384bf30000000000000000000000000000000000000000000000000000000000000001",
        "nonce": "0xbf98",
        "chainId": "0x14a34"
      },
      "additionalContracts": [],
      "isFixedGasLimit": false
    }
  ],
  "receipts": [
    {
      "status": "0x1",
      "cumulativeGasUsed": "0x330d9e",
      "logs": [
        {
          "address": "0x4ab4a2290cb651065d346299425b2d45eef9d75d",
          "topics": [
            "0x8be0079c531659141344cd1fd0a4f28419497f9722a3daafe3b4186f6b6457e0",
            "0x0000000000000000000000000000000000000000000000000000000000000000",
            "0x0000000000000000000000001234562eb0cd65e7d08e59f9f18d7c10b5df232a"
          ],
          "data": "0x",
          "blockHash": "0xdaa1cfd7699b954e5a5c84a3d97d3446300591a387a616f6f04f0e0e77852e21",
          "blockNumber": "0x2249e18",
          "blockTimestamp": "0x695c9b10",
          "transactionHash": "0x2a7b0725efa29f124c4515400af2e0039b35e036f87a8a778f187ba752a66394",
          "transactionIndex": "0x2",
          "logIndex": "0x1",
          "removed": false
        }
      ],
      "logsBloom": "0x00000000000000000000000000000000000000000000000000800000000000000000000000000000000000000100000000000000000000000000000000000000000000000000000020000000000000000001000000000000000000000000000000000000020000000000000000000800000000000000000200000000000000400000000000000000000000000000000000000000000200000000000000000000020000000000000000000000000000000000000000000000000000000000000000000000000000000000000000000000000000000000000000000000000020000000000000000800000000000000000000000000000000000000000000000000",
      "type": "0x2",
      "transactionHash": "0x2a7b0725efa29f124c4515400af2e0039b35e036f87a8a778f187ba752a66394",
      "transactionIndex": "0x2",
      "blockHash": "0xdaa1cfd7699b954e5a5c84a3d97d3446300591a387a616f6f04f0e0e77852e21",
      "blockNumber": "0x2249e18",
      "gasUsed": "0x31b8a0",
      "effectiveGasPrice": "0x124f80",
      "blobGasUsed": "0x25edc8",
      "from": "0x1234562eb0cd65e7d08e59f9f18d7c10b5df232a",
      "to": null,
      "contractAddress": "0x4ab4a2290cb651065d346299425b2d45eef9d75d",
      "daFootprintGasScalar": "0x138",
      "l1BaseFeeScalar": "0x44d",
      "l1BlobBaseFee": "0x1",
      "l1BlobBaseFeeScalar": "0xa118b",
      "l1Fee": "0x50",
      "l1GasPrice": "0x8",
      "l1GasUsed": "0x1f1fb"
    },
    {
      "status": "0x1",
      "cumulativeGasUsed": "0x33c7db",
      "logs": [
        {
          "address": "0x4ab4a2290cb651065d346299425b2d45eef9d75d",
          "topics": [
            "0xac90355684e2710fa34c2c7d500018678b146ea2d56ddc331c63d242ee8bf385",
            "0x00000000000000000000000033c6f26da09502e6540043f030ae1f87f109cc99"
          ],
          "data": "0x0000000000000000000000000000000000000000000000000000000000000001",
          "blockHash": "0xdaa1cfd7699b954e5a5c84a3d97d3446300591a387a616f6f04f0e0e77852e21",
          "blockNumber": "0x2249e18",
          "blockTimestamp": "0x695c9b10",
          "transactionHash": "0xaee55ce01d8868d628d5a1bdbbe6e5237b12c73793d1f1ef50b11ab9a7749d75",
          "transactionIndex": "0x3",
          "logIndex": "0x2",
          "removed": false
        }
      ],
      "logsBloom": "0x00000000000000000200000000000000000000000000000000000000000000000000000000000000000000000100000000000000000000000010000000000000000000000000000000000000000000000000000000000000000000000000000000000000000000000000000000000000000000000008000200000000002000000000000000000000000010000000000000000200000000000000000000000000000000000000000000000000000000000000000000000000000000000000000000000000000000000000000000000000000000000000000000000000000000000000000000000800000000000000000000000000000000000000000000000000",
      "type": "0x2",
      "transactionHash": "0xaee55ce01d8868d628d5a1bdbbe6e5237b12c73793d1f1ef50b11ab9a7749d75",
      "transactionIndex": "0x3",
      "blockHash": "0xdaa1cfd7699b954e5a5c84a3d97d3446300591a387a616f6f04f0e0e77852e21",
      "blockNumber": "0x2249e18",
      "gasUsed": "0xba3d",
      "effectiveGasPrice": "0x124f80",
      "blobGasUsed": "0x79e0",
      "from": "0x1234562eb0cd65e7d08e59f9f18d7c10b5df232a",
      "to": "0x4ab4a2290cb651065d346299425b2d45eef9d75d",
      "contractAddress": null,
      "daFootprintGasScalar": "0x138",
      "l1BaseFeeScalar": "0x44d",
      "l1BlobBaseFee": "0x1",
      "l1BlobBaseFeeScalar": "0xa118b",
      "l1Fee": "0x50",
      "l1GasPrice": "0x8",
      "l1GasUsed": "0x640"
    },
    {
      "status": "0x1",
      "cumulativeGasUsed": "0x348224",
      "logs": [
        {
          "address": "0x4ab4a2290cb651065d346299425b2d45eef9d75d",
          "topics": [
            "0xac90355684e2710fa34c2c7d500018678b146ea2d56ddc331c63d242ee8bf385",
            "0x0000000000000000000000007cb382ce1aa40fa9f9a59a632090c05dc28cae7b"
          ],
          "data": "0x0000000000000000000000000000000000000000000000000000000000000001",
          "blockHash": "0xdaa1cfd7699b954e5a5c84a3d97d3446300591a387a616f6f04f0e0e77852e21",
          "blockNumber": "0x2249e18",
          "blockTimestamp": "0x695c9b10",
          "transactionHash": "0xda37bbc24930694a776bb9fe75f7594027a2a9a6354b1aa0d697150df24c13f8",
          "transactionIndex": "0x4",
          "logIndex": "0x3",
          "removed": false
        }
      ],
      "logsBloom": "0x00000000000000000200000000000000000000000000000000000000000000000000000000000000000800000100000000000000000000000010000000000000000000000000000000000000000000000000004000000000000002000000000000000000000000000000000000000000000000000000000200000000002000000000000000000000000000000000000000000000000000000000000000000000000000000000000000000000000000000000000000000000000000000000000000000000000000000000000000000000000000000000000000000000000000000000000000000800000000000000000000000000000000000000000000000000",
      "type": "0x2",
      "transactionHash": "0xda37bbc24930694a776bb9fe75f7594027a2a9a6354b1aa0d697150df24c13f8",
      "transactionIndex": "0x4",
      "blockHash": "0xdaa1cfd7699b954e5a5c84a3d97d3446300591a387a616f6f04f0e0e77852e21",
      "blockNumber": "0x2249e18",
      "gasUsed": "0xba49",
      "effectiveGasPrice": "0x124f80",
      "blobGasUsed": "0x79e0",
      "from": "0x1234562eb0cd65e7d08e59f9f18d7c10b5df232a",
      "to": "0x4ab4a2290cb651065d346299425b2d45eef9d75d",
      "contractAddress": null,
      "daFootprintGasScalar": "0x138",
      "l1BaseFeeScalar": "0x44d",
      "l1BlobBaseFee": "0x1",
      "l1BlobBaseFeeScalar": "0xa118b",
      "l1Fee": "0x50",
      "l1GasPrice": "0x8",
      "l1GasUsed": "0x640"
    },
    {
      "status": "0x1",
      "cumulativeGasUsed": "0x353c6d",
      "logs": [
        {
          "address": "0x4ab4a2290cb651065d346299425b2d45eef9d75d",
          "topics": [
            "0xac90355684e2710fa34c2c7d500018678b146ea2d56ddc331c63d242ee8bf385",
            "0x000000000000000000000000b288ba5b5b80dd0fd83541ef2e5922f71121fa13"
          ],
          "data": "0x0000000000000000000000000000000000000000000000000000000000000001",
          "blockHash": "0xdaa1cfd7699b954e5a5c84a3d97d3446300591a387a616f6f04f0e0e77852e21",
          "blockNumber": "0x2249e18",
          "blockTimestamp": "0x695c9b10",
          "transactionHash": "0x38918156386278564e814f0bc97cc86b10ccd5124fe721446196971f3e23cecf",
          "transactionIndex": "0x5",
          "logIndex": "0x4",
          "removed": false
        }
      ],
      "logsBloom": "0x00000000000000000200000000000000000000000000000000000000000000000000000000000000000000000100000000000000000000000010000000000000000000000000000000000000000000000000000000000000000000000000000000000000000000000000000000000000000000000000000200000000002000000000000000000000000000000000000000000000000000000002000000000400000000000000000000000000000000000000000000000000000000000000000000000000000000000000000000000000000000000000000000000000000000000000000000000800000000000000000000000000000000800000000000000000",
      "type": "0x2",
      "transactionHash": "0x38918156386278564e814f0bc97cc86b10ccd5124fe721446196971f3e23cecf",
      "transactionIndex": "0x5",
      "blockHash": "0xdaa1cfd7699b954e5a5c84a3d97d3446300591a387a616f6f04f0e0e77852e21",
      "blockNumber": "0x2249e18",
      "gasUsed": "0xba49",
      "effectiveGasPrice": "0x124f80",
      "blobGasUsed": "0x79e0",
      "from": "0x1234562eb0cd65e7d08e59f9f18d7c10b5df232a",
      "to": "0x4ab4a2290cb651065d346299425b2d45eef9d75d",
      "contractAddress": null,
      "daFootprintGasScalar": "0x138",
      "l1BaseFeeScalar": "0x44d",
      "l1BlobBaseFee": "0x1",
      "l1BlobBaseFeeScalar": "0xa118b",
      "l1Fee": "0x50",
      "l1GasPrice": "0x8",
      "l1GasUsed": "0x640"
    },
    {
      "status": "0x1",
      "cumulativeGasUsed": "0x35f6b6",
      "logs": [
        {
          "address": "0x4ab4a2290cb651065d346299425b2d45eef9d75d",
          "topics": [
            "0xac90355684e2710fa34c2c7d500018678b146ea2d56ddc331c63d242ee8bf385",
            "0x000000000000000000000000c4a53c466cfb62aeced03008b0162baaf36e0b03"
          ],
          "data": "0x0000000000000000000000000000000000000000000000000000000000000001",
          "blockHash": "0xdaa1cfd7699b954e5a5c84a3d97d3446300591a387a616f6f04f0e0e77852e21",
          "blockNumber": "0x2249e18",
          "blockTimestamp": "0x695c9b10",
          "transactionHash": "0x2e81ae66d0e56697b7972d1e87e240abf1bcba364f471ad4fbd9a8a33bb904e0",
          "transactionIndex": "0x6",
          "logIndex": "0x5",
          "removed": false
        }
      ],
      "logsBloom": "0x00000000000000000200000000000000000000000000000000000000000000000000000000000000000000000100000000000000000000000010000000000000000000000000000000000000000000000000000000000000000000000000000000000004000000000000000000000000000000000000000200000000002000000000000000000000000000040000000000000000000000000000000000000000000000000000400000000000000000000000000000000000000000000000000000000000000000000000000000000000000000000000000000000000000000000000000000000800000000000000000000000000000000000000000000000000",
      "type": "0x2",
      "transactionHash": "0x2e81ae66d0e56697b7972d1e87e240abf1bcba364f471ad4fbd9a8a33bb904e0",
      "transactionIndex": "0x6",
      "blockHash": "0xdaa1cfd7699b954e5a5c84a3d97d3446300591a387a616f6f04f0e0e77852e21",
      "blockNumber": "0x2249e18",
      "gasUsed": "0xba49",
      "effectiveGasPrice": "0x124f80",
      "blobGasUsed": "0x79e0",
      "from": "0x1234562eb0cd65e7d08e59f9f18d7c10b5df232a",
      "to": "0x4ab4a2290cb651065d346299425b2d45eef9d75d",
      "contractAddress": null,
      "daFootprintGasScalar": "0x138",
      "l1BaseFeeScalar": "0x44d",
      "l1BlobBaseFee": "0x1",
      "l1BlobBaseFeeScalar": "0xa118b",
      "l1Fee": "0x50",
      "l1GasPrice": "0x8",
      "l1GasUsed": "0x640"
    },
    {
      "status": "0x1",
      "cumulativeGasUsed": "0x36b0ff",
      "logs": [
        {
          "address": "0x4ab4a2290cb651065d346299425b2d45eef9d75d",
          "topics": [
            "0xac90355684e2710fa34c2c7d500018678b146ea2d56ddc331c63d242ee8bf385",
            "0x00000000000000000000000070db6efb75c898ad1e194fda2b8c6e73dbc944d6"
          ],
          "data": "0x0000000000000000000000000000000000000000000000000000000000000001",
          "blockHash": "0xdaa1cfd7699b954e5a5c84a3d97d3446300591a387a616f6f04f0e0e77852e21",
          "blockNumber": "0x2249e18",
          "blockTimestamp": "0x695c9b10",
          "transactionHash": "0xb45628dd70a038d49a70bf32677591163f8e8ec69d278b3ade3b708573cb68ac",
          "transactionIndex": "0x7",
          "logIndex": "0x6",
          "removed": false
        }
      ],
      "logsBloom": "0x00000000000000000200000000000000000000000000000000000000000000000000000000000000000000000100000000080000000000000010000000000000000000000000000000000000000000000000000000000000000000000000000000000000000000000000000000000000000000000000000200000000002000000000000000000000000000000000000000000000000400000000000000000000000000000000000000000000000000000000000000000000000000000000000000000000000000000000000000000000000000000000000000080000000000000000000000000800000000000000000000000000000000000000000000000000",
      "type": "0x2",
      "transactionHash": "0xb45628dd70a038d49a70bf32677591163f8e8ec69d278b3ade3b708573cb68ac",
      "transactionIndex": "0x7",
      "blockHash": "0xdaa1cfd7699b954e5a5c84a3d97d3446300591a387a616f6f04f0e0e77852e21",
      "blockNumber": "0x2249e18",
      "gasUsed": "0xba49",
      "effectiveGasPrice": "0x124f80",
      "blobGasUsed": "0x79e0",
      "from": "0x1234562eb0cd65e7d08e59f9f18d7c10b5df232a",
      "to": "0x4ab4a2290cb651065d346299425b2d45eef9d75d",
      "contractAddress": null,
      "daFootprintGasScalar": "0x138",
      "l1BaseFeeScalar": "0x44d",
      "l1BlobBaseFee": "0x1",
      "l1BlobBaseFeeScalar": "0xa118b",
      "l1Fee": "0x50",
      "l1GasPrice": "0x8",
      "l1GasUsed": "0x640"
    },
    {
      "status": "0x1",
      "cumulativeGasUsed": "0x376b48",
      "logs": [
        {
          "address": "0x4ab4a2290cb651065d346299425b2d45eef9d75d",
          "topics": [
            "0xac90355684e2710fa34c2c7d500018678b146ea2d56ddc331c63d242ee8bf385",
            "0x000000000000000000000000ee589fbf85128aba6f42696db2f28ea9ebdde173"
          ],
          "data": "0x0000000000000000000000000000000000000000000000000000000000000001",
          "blockHash": "0xdaa1cfd7699b954e5a5c84a3d97d3446300591a387a616f6f04f0e0e77852e21",
          "blockNumber": "0x2249e18",
          "blockTimestamp": "0x695c9b10",
          "transactionHash": "0x015d7bef3f4c89d6f802a3207c300c72f23b631a1f2d6da1345a80ace1c47ffb",
          "transactionIndex": "0x8",
          "logIndex": "0x7",
          "removed": false
        }
      ],
      "logsBloom": "0x00000000000000000200000020000000000000000000000000000000000000000000000000000000000000000100000000000000000000000010000000000000000000000000000000000000000000000000000000000000000000000000000000000000000000000000000000000000000000000000000200000000002000000000000000000000000000000000000000000000000000000000000000000000000000000000000000000000000000000000000000000000000000000000000000000000000000000000000000000000000000000000400000000000000000000000000000000800000000000080000000000000000000000000000000000000",
      "type": "0x2",
      "transactionHash": "0x015d7bef3f4c89d6f802a3207c300c72f23b631a1f2d6da1345a80ace1c47ffb",
      "transactionIndex": "0x8",
      "blockHash": "0xdaa1cfd7699b954e5a5c84a3d97d3446300591a387a616f6f04f0e0e77852e21",
      "blockNumber": "0x2249e18",
      "gasUsed": "0xba49",
      "effectiveGasPrice": "0x124f80",
      "blobGasUsed": "0x79e0",
      "from": "0x1234562eb0cd65e7d08e59f9f18d7c10b5df232a",
      "to": "0x4ab4a2290cb651065d346299425b2d45eef9d75d",
      "contractAddress": null,
      "daFootprintGasScalar": "0x138",
      "l1BaseFeeScalar": "0x44d",
      "l1BlobBaseFee": "0x1",
      "l1BlobBaseFeeScalar": "0xa118b",
      "l1Fee": "0x50",
      "l1GasPrice": "0x8",
      "l1GasUsed": "0x640"
    },
    {
      "status": "0x1",
      "cumulativeGasUsed": "0x382585",
      "logs": [
        {
          "address": "0x4ab4a2290cb651065d346299425b2d45eef9d75d",
          "topics": [
            "0xac90355684e2710fa34c2c7d500018678b146ea2d56ddc331c63d242ee8bf385",
            "0x0000000000000000000000002c036be74942c597e4d81d7050008ddc11becceb"
          ],
          "data": "0x0000000000000000000000000000000000000000000000000000000000000001",
          "blockHash": "0xdaa1cfd7699b954e5a5c84a3d97d3446300591a387a616f6f04f0e0e77852e21",
          "blockNumber": "0x2249e18",
          "blockTimestamp": "0x695c9b10",
          "transactionHash": "0x612daf6ec675fdbbaab5480091f34ed90b70ad381cd0810ca2e6d488224d9ac2",
          "transactionIndex": "0x9",
          "logIndex": "0x8",
          "removed": false
        }
      ],
      "logsBloom": "0x00000000000000000200000000000000000000000000000000000000000000000000000000000000000000000100000000000000000000000010000000000000000000000000000000000000000000000000000000000000000010000000000000000000000000000000000000000000000000000000000200000000002000000000000000000000000000000000000000000000000000000000000000000000000000000000000000000000000000008000000000000000000000000000000000000000000000000000000000000000000000000000000000000000000000000000000000000800000000000000000000000000000000000000000000000002",
      "type": "0x2",
      "transactionHash": "0x612daf6ec675fdbbaab5480091f34ed90b70ad381cd0810ca2e6d488224d9ac2",
      "transactionIndex": "0x9",
      "blockHash": "0xdaa1cfd7699b954e5a5c84a3d97d3446300591a387a616f6f04f0e0e77852e21",
      "blockNumber": "0x2249e18",
      "gasUsed": "0xba3d",
      "effectiveGasPrice": "0x124f80",
      "blobGasUsed": "0x79e0",
      "from": "0x1234562eb0cd65e7d08e59f9f18d7c10b5df232a",
      "to": "0x4ab4a2290cb651065d346299425b2d45eef9d75d",
      "contractAddress": null,
      "daFootprintGasScalar": "0x138",
      "l1BaseFeeScalar": "0x44d",
      "l1BlobBaseFee": "0x1",
      "l1BlobBaseFeeScalar": "0xa118b",
      "l1Fee": "0x50",
      "l1GasPrice": "0x8",
      "l1GasUsed": "0x640"
    },
    {
      "status": "0x1",
      "cumulativeGasUsed": "0x38dfce",
      "logs": [
        {
          "address": "0x4ab4a2290cb651065d346299425b2d45eef9d75d",
          "topics": [
            "0xac90355684e2710fa34c2c7d500018678b146ea2d56ddc331c63d242ee8bf385",
            "0x00000000000000000000000090cdcbf4c4bc78dc440252211efd744d0a4dc4a1"
          ],
          "data": "0x0000000000000000000000000000000000000000000000000000000000000001",
          "blockHash": "0xdaa1cfd7699b954e5a5c84a3d97d3446300591a387a616f6f04f0e0e77852e21",
          "blockNumber": "0x2249e18",
          "blockTimestamp": "0x695c9b10",
          "transactionHash": "0xc2d5935b48b43574a9fcb25d4064bf715e3803b817288179fa4750be4570dd4f",
          "transactionIndex": "0xa",
          "logIndex": "0x9",
          "removed": false
        }
      ],
      "logsBloom": "0x00000000000000000200000000000000000000000000000010000000000000000000000000000000000000000100000000000000000000200010000000000000000000000000000000000000000000000000000000000000000000000000000000000000000000000000000000000000000000000000000200000000002000000000000000000000000000000000000000000000000000000000000000000000000000000000000000000000000000000000000000000000000000000000000000000000000000000000000000000000000000000000000000000000000000000000000000000800000000080000000000000000000000000000000000000000",
      "type": "0x2",
      "transactionHash": "0xc2d5935b48b43574a9fcb25d4064bf715e3803b817288179fa4750be4570dd4f",
      "transactionIndex": "0xa",
      "blockHash": "0xdaa1cfd7699b954e5a5c84a3d97d3446300591a387a616f6f04f0e0e77852e21",
      "blockNumber": "0x2249e18",
      "gasUsed": "0xba49",
      "effectiveGasPrice": "0x124f80",
      "blobGasUsed": "0x79e0",
      "from": "0x1234562eb0cd65e7d08e59f9f18d7c10b5df232a",
      "to": "0x4ab4a2290cb651065d346299425b2d45eef9d75d",
      "contractAddress": null,
      "daFootprintGasScalar": "0x138",
      "l1BaseFeeScalar": "0x44d",
      "l1BlobBaseFee": "0x1",
      "l1BlobBaseFeeScalar": "0xa118b",
      "l1Fee": "0x50",
      "l1GasPrice": "0x8",
      "l1GasUsed": "0x640"
    },
    {
      "status": "0x1",
      "cumulativeGasUsed": "0x399a17",
      "logs": [
        {
          "address": "0x4ab4a2290cb651065d346299425b2d45eef9d75d",
          "topics": [
            "0xac90355684e2710fa34c2c7d500018678b146ea2d56ddc331c63d242ee8bf385",
            "0x000000000000000000000000ced6ceb47301f268d57ff07879df45fda80e6974"
          ],
          "data": "0x0000000000000000000000000000000000000000000000000000000000000001",
          "blockHash": "0xdaa1cfd7699b954e5a5c84a3d97d3446300591a387a616f6f04f0e0e77852e21",
          "blockNumber": "0x2249e18",
          "blockTimestamp": "0x695c9b10",
          "transactionHash": "0x54576f35f67dc67891b4186acd6fa4aee4a20cba6f2772f5b8f1223d057df74c",
          "transactionIndex": "0xb",
          "logIndex": "0xa",
          "removed": false
        }
      ],
      "logsBloom": "0x00000000000000000200000800000000000000000000000000000000000000000000000000000000000000000180000000000000000000000010000000000000000000000000000000000000000000000000000000000000000000000000000000000000000000000000000000000000000000000000000200000000002000000000000000000000000000000000000000000000000000000000000000000000000000000000000000000000000000000000000000000000000000000000000000000000000000000000000000000000000000000000002000000000000000000000000000000800000000000000000000000000000000000000000000000000",
      "type": "0x2",
      "transactionHash": "0x54576f35f67dc67891b4186acd6fa4aee4a20cba6f2772f5b8f1223d057df74c",
      "transactionIndex": "0xb",
      "blockHash": "0xdaa1cfd7699b954e5a5c84a3d97d3446300591a387a616f6f04f0e0e77852e21",
      "blockNumber": "0x2249e18",
      "gasUsed": "0xba49",
      "effectiveGasPrice": "0x124f80",
      "blobGasUsed": "0x79e0",
      "from": "0x1234562eb0cd65e7d08e59f9f18d7c10b5df232a",
      "to": "0x4ab4a2290cb651065d346299425b2d45eef9d75d",
      "contractAddress": null,
      "daFootprintGasScalar": "0x138",
      "l1BaseFeeScalar": "0x44d",
      "l1BlobBaseFee": "0x1",
      "l1BlobBaseFeeScalar": "0xa118b",
      "l1Fee": "0x50",
      "l1GasPrice": "0x8",
      "l1GasUsed": "0x640"
    },
    {
      "status": "0x1",
      "cumulativeGasUsed": "0x3a5460",
      "logs": [
        {
          "address": "0x4ab4a2290cb651065d346299425b2d45eef9d75d",
          "topics": [
            "0xac90355684e2710fa34c2c7d500018678b146ea2d56ddc331c63d242ee8bf385",
            "0x000000000000000000000000782ba48189af93a0cf42766058de83291f384bf3"
          ],
          "data": "0x0000000000000000000000000000000000000000000000000000000000000001",
          "blockHash": "0xdaa1cfd7699b954e5a5c84a3d97d3446300591a387a616f6f04f0e0e77852e21",
          "blockNumber": "0x2249e18",
          "blockTimestamp": "0x695c9b10",
          "transactionHash": "0x66ef31f01f12a926e504f9b5cab7d40331898c7a5194f43010fddaf035aaf08a",
          "transactionIndex": "0xc",
          "logIndex": "0xb",
          "removed": false
        }
      ],
      "logsBloom": "0x00000000000000000200000000000000000020000000000000000000000000000000000000000000000000000100000000000000000000000010000000000000000000000000000000000000000000000000000000000000000000000000000000000000000000000000000000000000000000000000000200000000002000000000000100000000000000000000000000000000000000000000000000000000000000000000000000008000000000000000000000000000000000000000000000000000000000000000000000000000000000000000000000000000000000000000000000000800000000000000000000000000000000000000000000000000",
      "type": "0x2",
      "transactionHash": "0x66ef31f01f12a926e504f9b5cab7d40331898c7a5194f43010fddaf035aaf08a",
      "transactionIndex": "0xc",
      "blockHash": "0xdaa1cfd7699b954e5a5c84a3d97d3446300591a387a616f6f04f0e0e77852e21",
      "blockNumber": "0x2249e18",
      "gasUsed": "0xba49",
      "effectiveGasPrice": "0x124f80",
      "blobGasUsed": "0x79e0",
      "from": "0x1234562eb0cd65e7d08e59f9f18d7c10b5df232a",
      "to": "0x4ab4a2290cb651065d346299425b2d45eef9d75d",
      "contractAddress": null,
      "daFootprintGasScalar": "0x138",
      "l1BaseFeeScalar": "0x44d",
      "l1BlobBaseFee": "0x1",
      "l1BlobBaseFeeScalar": "0xa118b",
      "l1Fee": "0x50",
      "l1GasPrice": "0x8",
      "l1GasUsed": "0x640"
    }
  ],
  "libraries": [],
  "pending": [],
  "returns": {},
  "timestamp": 1767676706714,
  "chain": 84532,
  "commit": "5ab44b9"
}