{
  "transactions": [
    {
      "hash": "0x6f5091e3bf6939b7bf3454611e63fd903bf218c3ca6ea4c2a17f969dcfc7ab4a",
      "transactionType": "CALL",
      "contractName": null,
      "contractAddress": "0xdb26ba8581979dc4e11218735f821af5171fb737",
      "function": "setIsHubChain(bool)",
      "arguments": [
        "true"
      ],
      "transaction": {
        "from": "0x1234562eb0cd65e7d08e59f9f18d7c10b5df232a",
        "to": "0xdb26ba8581979dc4e11218735f821af5171fb737",
        "gas": "0xca76b40",
        "value": "0x0",
        "input": "0xf54efd770000000000000000000000000000000000000000000000000000000000000001",
        "nonce": "0x3af",
        "chainId": "0x138b"
      },
      "additionalContracts": [],
      "isFixedGasLimit": false
    },
    {
      "hash": "0x819dca87bb3c23d40f7eaf04d4ab2fae64857446b04333d0531bfce62cf7599c",
      "transactionType": "CALL",
      "contractName": null,
      "contractAddress": "0xdb26ba8581979dc4e11218735f821af5171fb737",
      "function": "setTrustedRemoteToken(uint32,address,bool)",
      "arguments": [
        "84532",
        "0x33c6f26dA09502E6540043f030aE1F87f109cc99",
        "true"
      ],
      "transaction": {
        "from": "0x1234562eb0cd65e7d08e59f9f18d7c10b5df232a",
        "to": "0xdb26ba8581979dc4e11218735f821af5171fb737",
        "gas": "0xd5332bc",
        "value": "0x0",
        "input": "0xe1f433470000000000000000000000000000000000000000000000000000000000014a3400000000000000000000000033c6f26da09502e6540043f030ae1f87f109cc990000000000000000000000000000000000000000000000000000000000000001",
        "nonce": "0x3b0",
        "chainId": "0x138b"
      },
      "additionalContracts": [],
      "isFixedGasLimit": false
    },
    {
      "hash": "0xf1353697af1e5d33640e208c3e48314e75d996d56f5adc040a28cb68ccba5a81",
      "transactionType": "CALL",
      "contractName": null,
      "contractAddress": "0xdb26ba8581979dc4e11218735f821af5171fb737",
      "function": "setTrustedRemoteToken(uint32,address,bool)",
      "arguments": [
        "84532",
        "0x7CB382Ce1AA40FA9F9A59a632090c05Dc28caE7b",
        "true"
      ],
      "transaction": {
        "from": "0x1234562eb0cd65e7d08e59f9f18d7c10b5df232a",
        "to": "0xdb26ba8581979dc4e11218735f821af5171fb737",
        "gas": "0xd540890",
        "value": "0x0",
        "input": "0xe1f433470000000000000000000000000000000000000000000000000000000000014a340000000000000000000000007cb382ce1aa40fa9f9a59a632090c05dc28cae7b0000000000000000000000000000000000000000000000000000000000000001",
        "nonce": "0x3b1",
        "chainId": "0x138b"
      },
      "additionalContracts": [],
      "isFixedGasLimit": false
    },
    {
      "hash": "0x062f21bf80420c836b25782da035c1ed4a1586cfdce37180ccb79cc09f2775d8",
      "transactionType": "CALL",
      "contractName": null,
      "contractAddress": "0xdb26ba8581979dc4e11218735f821af5171fb737",
      "function": "setTrustedRemoteToken(uint32,address,bool)",
      "arguments": [
        "84532",
        "0xB288Ba5B5b80Dd0Fd83541ef2e5922f71121Fa13",
        "true"
      ],
      "transaction": {
        "from": "0x1234562eb0cd65e7d08e59f9f18d7c10b5df232a",
        "to": "0xdb26ba8581979dc4e11218735f821af5171fb737",
        "gas": "0xd540890",
        "value": "0x0",
        "input": "0xe1f433470000000000000000000000000000000000000000000000000000000000014a34000000000000000000000000b288ba5b5b80dd0fd83541ef2e5922f71121fa130000000000000000000000000000000000000000000000000000000000000001",
        "nonce": "0x3b2",
        "chainId": "0x138b"
      },
      "additionalContracts": [],
      "isFixedGasLimit": false
    },
    {
      "hash": "0xb7ce8b0553894035520acce934adf4ffa33d551eea87505afa6fe310d8070c5e",
      "transactionType": "CALL",
      "contractName": null,
      "contractAddress": "0xdb26ba8581979dc4e11218735f821af5171fb737",
      "function": "setTrustedRemoteToken(uint32,address,bool)",
      "arguments": [
        "84532",
        "0xC4a53c466Cfb62AecED03008B0162baaf36E0B03",
        "true"
      ],
      "transaction": {
        "from": "0x1234562eb0cd65e7d08e59f9f18d7c10b5df232a",
        "to": "0xdb26ba8581979dc4e11218735f821af5171fb737",
        "gas": "0xd540890",
        "value": "0x0",
        "input": "0xe1f433470000000000000000000000000000000000000000000000000000000000014a34000000000000000000000000c4a53c466cfb62aeced03008b0162baaf36e0b030000000000000000000000000000000000000000000000000000000000000001",
        "nonce": "0x3b3",
        "chainId": "0x138b"
      },
      "additionalContracts": [],
      "isFixedGasLimit": false
    },
    {
      "hash": "0x6ffb5627d143a993efbf2bdd72ab9ee316f20c3ca8058da0e4816cc7d43ae3bd",
      "transactionType": "CALL",
      "contractName": null,
      "contractAddress": "0xdb26ba8581979dc4e11218735f821af5171fb737",
      "function": "setTrustedRemoteToken(uint32,address,bool)",
      "arguments": [
        "84532",
        "0x70Db6eFB75c898Ad1e194FDA2B8C6e73dbC944d6",
        "true"
      ],
      "transaction": {
        "from": "0x1234562eb0cd65e7d08e59f9f18d7c10b5df232a",
        "to": "0xdb26ba8581979dc4e11218735f821af5171fb737",
        "gas": "0xd540890",
        "value": "0x0",
        "input": "0xe1f433470000000000000000000000000000000000000000000000000000000000014a3400000000000000000000000070db6efb75c898ad1e194fda2b8c6e73dbc944d60000000000000000000000000000000000000000000000000000000000000001",
        "nonce": "0x3b4",
        "chainId": "0x138b"
      },
      "additionalContracts": [],
      "isFixedGasLimit": false
    },
    {
      "hash": "0x99694c6d8808d08a5d7864dd4468d4d1c4c62b53e9759765b9ad83aceedeba79",
      "transactionType": "CALL",
      "contractName": null,
      "contractAddress": "0xdb26ba8581979dc4e11218735f821af5171fb737",
      "function": "setTrustedRemoteToken(uint32,address,bool)",
      "arguments": [
        "84532",
        "0xEE589FBF85128abA6f42696dB2F28eA9EBddE173",
        "true"
      ],
      "transaction": {
        "from": "0x1234562eb0cd65e7d08e59f9f18d7c10b5df232a",
        "to": "0xdb26ba8581979dc4e11218735f821af5171fb737",
        "gas": "0xd540890",
        "value": "0x0",
        "input": "0xe1f433470000000000000000000000000000000000000000000000000000000000014a34000000000000000000000000ee589fbf85128aba6f42696db2f28ea9ebdde1730000000000000000000000000000000000000000000000000000000000000001",
        "nonce": "0x3b5",
        "chainId": "0x138b"
      },
      "additionalContracts": [],
      "isFixedGasLimit": false
    },
    {
      "hash": "0x95fd161400776093783042b05e5a9b6ca43dc98d5d27680069a142bbea11423e",
      "transactionType": "CALL",
      "contractName": null,
      "contractAddress": "0xdb26ba8581979dc4e11218735f821af5171fb737",
      "function": "setTrustedRemoteToken(uint32,address,bool)",
      "arguments": [
        "84532",
        "0x2C036be74942c597e4d81D7050008dDc11becCEb",
        "true"
      ],
      "transaction": {
        "from": "0x1234562eb0cd65e7d08e59f9f18d7c10b5df232a",
        "to": "0xdb26ba8581979dc4e11218735f821af5171fb737",
        "gas": "0xd5332bc",
        "value": "0x0",
        "input": "0xe1f433470000000000000000000000000000000000000000000000000000000000014a340000000000000000000000002c036be74942c597e4d81d7050008ddc11becceb0000000000000000000000000000000000000000000000000000000000000001",
        "nonce": "0x3b6",
        "chainId": "0x138b"
      },
      "additionalContracts": [],
      "isFixedGasLimit": false
    },
    {
      "hash": "0xf4aa801a6f9bd051e933ebc490d9605f02e9e1eeaa60f7dd69754844c37950bf",
      "transactionType": "CALL",
      "contractName": null,
      "contractAddress": "0xdb26ba8581979dc4e11218735f821af5171fb737",
      "function": "setTrustedRemoteToken(uint32,address,bool)",
      "arguments": [
        "84532",
        "0x90CdcBF4c4bc78dC440252211EFd744d0A4Dc4A1",
        "true"
      ],
      "transaction": {
        "from": "0x1234562eb0cd65e7d08e59f9f18d7c10b5df232a",
        "to": "0xdb26ba8581979dc4e11218735f821af5171fb737",
        "gas": "0xd540890",
        "value": "0x0",
        "input": "0xe1f433470000000000000000000000000000000000000000000000000000000000014a3400000000000000000000000090cdcbf4c4bc78dc440252211efd744d0a4dc4a10000000000000000000000000000000000000000000000000000000000000001",
        "nonce": "0x3b7",
        "chainId": "0x138b"
      },
      "additionalContracts": [],
      "isFixedGasLimit": false
    },
    {
      "hash": "0xa60fa19ac37d137913c7bfcd06d9b915e619637fecfee67d88bb492812e8274c",
      "transactionType": "CALL",
      "contractName": null,
      "contractAddress": "0xdb26ba8581979dc4e11218735f821af5171fb737",
      "function": "setTrustedRemoteToken(uint32,address,bool)",
      "arguments": [
        "84532",
        "0xced6Ceb47301F268d57fF07879DF45Fda80e6974",
        "true"
      ],
      "transaction": {
        "from": "0x1234562eb0cd65e7d08e59f9f18d7c10b5df232a",
        "to": "0xdb26ba8581979dc4e11218735f821af5171fb737",
        "gas": "0xd540890",
        "value": "0x0",
        "input": "0xe1f433470000000000000000000000000000000000000000000000000000000000014a34000000000000000000000000ced6ceb47301f268d57ff07879df45fda80e69740000000000000000000000000000000000000000000000000000000000000001",
        "nonce": "0x3b8",
        "chainId": "0x138b"
      },
      "additionalContracts": [],
      "isFixedGasLimit": false
    },
    {
      "hash": "0xac34a475ed44771864c4d3fdb13a84ca2498af51cfdcd55b141f472876db514d",
      "transactionType": "CALL",
      "contractName": null,
      "contractAddress": "0xdb26ba8581979dc4e11218735f821af5171fb737",
      "function": "setTrustedRemoteToken(uint32,address,bool)",
      "arguments": [
        "84532",
        "0x782Ba48189AF93a0CF42766058DE83291f384bF3",
        "true"
      ],
      "transaction": {
        "from": "0x1234562eb0cd65e7d08e59f9f18d7c10b5df232a",
        "to": "0xdb26ba8581979dc4e11218735f821af5171fb737",
        "gas": "0xd540890",
        "value": "0x0",
        "input": "0xe1f433470000000000000000000000000000000000000000000000000000000000014a34000000000000000000000000782ba48189af93a0cf42766058de83291f384bf30000000000000000000000000000000000000000000000000000000000000001",
        "nonce": "0x3b9",
        "chainId": "0x138b"
      },
      "additionalContracts": [],
      "isFixedGasLimit": false
    },
    {
      "hash": "0x0247657065b4c56a58db82c8afcb99a57ad75ca08cdfa445c2e1886612dcdf66",
      "transactionType": "CALL",
      "contractName": null,
      "contractAddress": "0xdb26ba8581979dc4e11218735f821af5171fb737",
      "function": "setGlobalWhitelist(address,bool)",
      "arguments": [
        "0x33c6f26dA09502E6540043f030aE1F87f109cc99",
        "true"
      ],
      "transaction": {
        "from": "0x1234562eb0cd65e7d08e59f9f18d7c10b5df232a",
        "to": "0xdb26ba8581979dc4e11218735f821af5171fb737",
        "gas": "0x7bb181d",
        "value": "0x0",
        "input": "0x25d86ced00000000000000000000000033c6f26da09502e6540043f030ae1f87f109cc990000000000000000000000000000000000000000000000000000000000000001",
        "nonce": "0x3ba",
        "chainId": "0x138b"
      },
      "additionalContracts": [],
      "isFixedGasLimit": false
    },
    {
      "hash": "0x400a1d2915e79f450f516d494e05353e5c777da3f6526360d4d25bbf0eacf08e",
      "transactionType": "CALL",
      "contractName": null,
      "contractAddress": "0xdb26ba8581979dc4e11218735f821af5171fb737",
      "function": "setGlobalWhitelist(address,bool)",
      "arguments": [
        "0x7CB382Ce1AA40FA9F9A59a632090c05Dc28caE7b",
        "true"
      ],
      "transaction": {
        "from": "0x1234562eb0cd65e7d08e59f9f18d7c10b5df232a",
        "to": "0xdb26ba8581979dc4e11218735f821af5171fb737",
        "gas": "0x7bbf2fd",
        "value": "0x0",
        "input": "0x25d86ced0000000000000000000000007cb382ce1aa40fa9f9a59a632090c05dc28cae7b0000000000000000000000000000000000000000000000000000000000000001",
        "nonce": "0x3bb",
        "chainId": "0x138b"
      },
      "additionalContracts": [],
      "isFixedGasLimit": false
    },
    {
      "hash": "0x441c42b36e586939a553f0f0364c7804c82d79338cdd64269e86a6034f829db5",
      "transactionType": "CALL",
      "contractName": null,
      "contractAddress": "0xdb26ba8581979dc4e11218735f821af5171fb737",
      "function": "setGlobalWhitelist(address,bool)",
      "arguments": [
        "0xB288Ba5B5b80Dd0Fd83541ef2e5922f71121Fa13",
        "true"
      ],
      "transaction": {
        "from": "0x1234562eb0cd65e7d08e59f9f18d7c10b5df232a",
        "to": "0xdb26ba8581979dc4e11218735f821af5171fb737",
        "gas": "0x7bbf2fd",
        "value": "0x0",
        "input": "0x25d86ced000000000000000000000000b288ba5b5b80dd0fd83541ef2e5922f71121fa130000000000000000000000000000000000000000000000000000000000000001",
        "nonce": "0x3bc",
        "chainId": "0x138b"
      },
      "additionalContracts": [],
      "isFixedGasLimit": false
    },
    {
      "hash": "0xc14e02e44318965eb5070a0d32977814c316f16c3702cef66a40f1423e464f5c",
      "transactionType": "CALL",
      "contractName": null,
      "contractAddress": "0xdb26ba8581979dc4e11218735f821af5171fb737",
      "function": "setGlobalWhitelist(address,bool)",
      "arguments": [
        "0xC4a53c466Cfb62AecED03008B0162baaf36E0B03",
        "true"
      ],
      "transaction": {
        "from": "0x1234562eb0cd65e7d08e59f9f18d7c10b5df232a",
        "to": "0xdb26ba8581979dc4e11218735f821af5171fb737",
        "gas": "0x7bbf2fd",
        "value": "0x0",
        "input": "0x25d86ced000000000000000000000000c4a53c466cfb62aeced03008b0162baaf36e0b030000000000000000000000000000000000000000000000000000000000000001",
        "nonce": "0x3bd",
        "chainId": "0x138b"
      },
      "additionalContracts": [],
      "isFixedGasLimit": false
    },
    {
      "hash": "0x5ac1fd7a015c941a7b08aabe73e778c00ac7f0c6d12b7c93e04c087ccbf1c00c",
      "transactionType": "CALL",
      "contractName": null,
      "contractAddress": "0xdb26ba8581979dc4e11218735f821af5171fb737",
      "function": "setGlobalWhitelist(address,bool)",
      "arguments": [
        "0x70Db6eFB75c898Ad1e194FDA2B8C6e73dbC944d6",
        "true"
      ],
      "transaction": {
        "from": "0x1234562eb0cd65e7d08e59f9f18d7c10b5df232a",
        "to": "0xdb26ba8581979dc4e11218735f821af5171fb737",
        "gas": "0x7bbf2fd",
        "value": "0x0",
        "input": "0x25d86ced00000000000000000000000070db6efb75c898ad1e194fda2b8c6e73dbc944d60000000000000000000000000000000000000000000000000000000000000001",
        "nonce": "0x3be",
        "chainId": "0x138b"
      },
      "additionalContracts": [],
      "isFixedGasLimit": false
    },
    {
      "hash": "0x165c9a9c1cf2fdc2ec3091b2f4d8c55c0340bf0b961e38baaf56e132e9555e6b",
      "transactionType": "CALL",
      "contractName": null,
      "contractAddress": "0xdb26ba8581979dc4e11218735f821af5171fb737",
      "function": "setGlobalWhitelist(address,bool)",
      "arguments": [
        "0xEE589FBF85128abA6f42696dB2F28eA9EBddE173",
        "true"
      ],
      "transaction": {
        "from": "0x1234562eb0cd65e7d08e59f9f18d7c10b5df232a",
        "to": "0xdb26ba8581979dc4e11218735f821af5171fb737",
        "gas": "0x7bbf2fd",
        "value": "0x0",
        "input": "0x25d86ced000000000000000000000000ee589fbf85128aba6f42696db2f28ea9ebdde1730000000000000000000000000000000000000000000000000000000000000001",
        "nonce": "0x3bf",
        "chainId": "0x138b"
      },
      "additionalContracts": [],
      "isFixedGasLimit": false
    },
    {
      "hash": "0x42702cab42f87f3337aabdda1795aac0aed10907ead7cc969a7bb4def87b7fbe",
      "transactionType": "CALL",
      "contractName": null,
      "contractAddress": "0xdb26ba8581979dc4e11218735f821af5171fb737",
      "function": "setGlobalWhitelist(address,bool)",
      "arguments": [
        "0x2C036be74942c597e4d81D7050008dDc11becCEb",
        "true"
      ],
      "transaction": {
        "from": "0x1234562eb0cd65e7d08e59f9f18d7c10b5df232a",
        "to": "0xdb26ba8581979dc4e11218735f821af5171fb737",
        "gas": "0x7bb181d",
        "value": "0x0",
        "input": "0x25d86ced0000000000000000000000002c036be74942c597e4d81d7050008ddc11becceb0000000000000000000000000000000000000000000000000000000000000001",
        "nonce": "0x3c0",
        "chainId": "0x138b"
      },
      "additionalContracts": [],
      "isFixedGasLimit": false
    },
    {
      "hash": "0x7d6f709ad084b506332475c750b1e6a2a5667c30fd12a8b2bfbc12089032ea43",
      "transactionType": "CALL",
      "contractName": null,
      "contractAddress": "0xdb26ba8581979dc4e11218735f821af5171fb737",
      "function": "setGlobalWhitelist(address,bool)",
      "arguments": [
        "0x90CdcBF4c4bc78dC440252211EFd744d0A4Dc4A1",
        "true"
      ],
      "transaction": {
        "from": "0x1234562eb0cd65e7d08e59f9f18d7c10b5df232a",
        "to": "0xdb26ba8581979dc4e11218735f821af5171fb737",
        "gas": "0x7bbf2fd",
        "value": "0x0",
        "input": "0x25d86ced00000000000000000000000090cdcbf4c4bc78dc440252211efd744d0a4dc4a10000000000000000000000000000000000000000000000000000000000000001",
        "nonce": "0x3c1",
        "chainId": "0x138b"
      },
      "additionalContracts": [],
      "isFixedGasLimit": false
    },
    {
      "hash": "0xf8c48743c75a6ed7706b7c6514e7c2904be0ab37ab84bd5a9eefebb685d2b31c",
      "transactionType": "CALL",
      "contractName": null,
      "contractAddress": "0xdb26ba8581979dc4e11218735f821af5171fb737",
      "function": "setGlobalWhitelist(address,bool)",
      "arguments": [
        "0xced6Ceb47301F268d57fF07879DF45Fda80e6974",
        "true"
      ],
      "transaction": {
        "from": "0x1234562eb0cd65e7d08e59f9f18d7c10b5df232a",
        "to": "0xdb26ba8581979dc4e11218735f821af5171fb737",
        "gas": "0x7bbf2fd",
        "value": "0x0",
        "input": "0x25d86ced000000000000000000000000ced6ceb47301f268d57ff07879df45fda80e69740000000000000000000000000000000000000000000000000000000000000001",
        "nonce": "0x3c2",
        "chainId": "0x138b"
      },
      "additionalContracts": [],
      "isFixedGasLimit": false
    },
    {
      "hash": "0x15dbc3a66c65fa21dab2c3a94b5b4c9dac5b9904c38b258b14dfa4b0b2e8450a",
      "transactionType": "CALL",
      "contractName": null,
      "contractAddress": "0xdb26ba8581979dc4e11218735f821af5171fb737",
      "function": "setGlobalWhitelist(address,bool)",
      "arguments": [
        "0x782Ba48189AF93a0CF42766058DE83291f384bF3",
        "true"
      ],
      "transaction": {
        "from": "0x1234562eb0cd65e7d08e59f9f18d7c10b5df232a",
        "to": "0xdb26ba8581979dc4e11218735f821af5171fb737",
        "gas": "0x7bbf2fd",
        "value": "0x0",
        "input": "0x25d86ced000000000000000000000000782ba48189af93a0cf42766058de83291f384bf30000000000000000000000000000000000000000000000000000000000000001",
        "nonce": "0x3c3",
        "chainId": "0x138b"
      },
      "additionalContracts": [],
      "isFixedGasLimit": false
    }
  ],
  "receipts": [
    {
      "status": "0x1",
      "cumulativeGasUsed": "0x80cfabd",
      "logs": [],
      "logsBloom": "0x00000000000000000000000000000000000000000000000000000000000000000000000000000000000000000000000000000000000000000000000000000000000000000000000000000000000000000000000000000000000000000000000000000000000000000000000000000000000000000000000000000000000000000000000000000000000000000000000000000000000000000000000000000000000000000000000000000000000000000000000000000000000000000000000000000000000000000000000000000000000000000000000000000000000000000000000000000000000000000000000000000000000000000000000000000000",
      "type": "0x2",
      "transactionHash": "0x6f5091e3bf6939b7bf3454611e63fd903bf218c3ca6ea4c2a17f969dcfc7ab4a",
      "transactionIndex": "0x1",
      "blockHash": "0xf69c0cf0d722f8870953353199329d27db78cb0c02444774d131d7c1f2a28838",
      "blockNumber": "0x1f88de6",
      "gasUsed": "0x80c2df0",
      "effectiveGasPrice": "0x132b3a0",
      "from": "0x1234562eb0cd65e7d08e59f9f18d7c10b5df232a",
      "to": "0xdb26ba8581979dc4e11218735f821af5171fb737",
      "contractAddress": null,
      "l1Fee": "0x7ce10",
      "l1FeeScalar": "0.01",
      "l1GasPrice": "0x8",
      "l1GasUsed": "0x89c",
      "tokenRatio": "0xb55"
    },
    {
      "status": "0x1",
      "cumulativeGasUsed": "0x87a2b91",
      "logs": [
        {
          "address": "0xdb26ba8581979dc4e11218735f821af5171fb737",
          "topics": [
            "0x4d49d3f3f3e2ec61b682ac1aa8adb9e1945c29b4df4aab45492b365a611b7b9f",
            "0x0000000000000000000000000000000000000000000000000000000000014a34",
            "0x00000000000000000000000033c6f26da09502e6540043f030ae1f87f109cc99"
          ],
          "data": "0x0000000000000000000000000000000000000000000000000000000000000001",
          "blockHash": "0x9bdeb0ff5cc32e28a50b3de51079f0f0bb92ff79af907e0f4f1b9b743aedfd15",
          "blockNumber": "0x1f88dea",
          "blockTimestamp": "0x695c9eb5",
          "transactionHash": "0x819dca87bb3c23d40f7eaf04d4ab2fae64857446b04333d0531bfce62cf7599c",
          "transactionIndex": "0x1",
          "logIndex": "0x0",
          "removed": false
        }
      ],
      "logsBloom": "0x00000000000200000000000000000000000000000000000000000000000000000002000000000000000000000000000000000000000000000000000000000000000000000000000000400000000004000000000000800000000000000000002000000000000000000000008000000000000000000008000000000000000000000000000000000000000010000000000000000200000000000000000000000000000000000000000000000000000000000000000000000000000000000000000000000000000000000000000000000000000000000000000000000000000001000000000000000000000000200000000000000000000000000000000000000000",
      "type": "0x2",
      "transactionHash": "0x819dca87bb3c23d40f7eaf04d4ab2fae64857446b04333d0531bfce62cf7599c",
      "transactionIndex": "0x1",
      "blockHash": "0x9bdeb0ff5cc32e28a50b3de51079f0f0bb92ff79af907e0f4f1b9b743aedfd15",
      "blockNumber": "0x1f88dea",
      "gasUsed": "0x8797498",
      "effectiveGasPrice": "0x132b3a0",
      "from": "0x1234562eb0cd65e7d08e59f9f18d7c10b5df232a",
      "to": "0xdb26ba8581979dc4e11218735f821af5171fb737",
      "contractAddress": null,
      "l1Fee": "0x9bedc",
      "l1FeeScalar": "0.01",
      "l1GasPrice": "0x8",
      "l1GasUsed": "0xac0",
      "tokenRatio": "0xb55"
    },
    {
      "status": "0x1",
      "cumulativeGasUsed": "0x3a3a8309",
      "logs": [
        {
          "address": "0xdb26ba8581979dc4e11218735f821af5171fb737",
          "topics": [
            "0x4d49d3f3f3e2ec61b682ac1aa8adb9e1945c29b4df4aab45492b365a611b7b9f",
            "0x0000000000000000000000000000000000000000000000000000000000014a34",
            "0x0000000000000000000000007cb382ce1aa40fa9f9a59a632090c05dc28cae7b"
          ],
          "data": "0x0000000000000000000000000000000000000000000000000000000000000001",
          "blockHash": "0xadc5b50c44e30dabd420452e4bf0e30e5d0021eaf583873decd6242188b98311",
          "blockNumber": "0x1f88ded",
          "blockTimestamp": "0x695c9ebb",
          "transactionHash": "0xf1353697af1e5d33640e208c3e48314e75d996d56f5adc040a28cb68ccba5a81",
          "transactionIndex": "0x2",
          "logIndex": "0xd",
          "removed": false
        }
      ],
      "logsBloom": "0x00000000000200000000000000000000000000000000000000000000000000000002000000000000000800000000000000000000000000000000000000000000000000000000000000400000000004000000004000800000000002000000002000000000000000000000008000000000000000000000000000000000000000000000000000000000000000000000000000000000000000000000000000000000000000000000000000000000000000000000000000000000000000000000000000000000000000000000000000000000000000000000000000000000000001000000000000000000000000200000000000000000000000000000000000000000",
      "type": "0x2",
      "transactionHash": "0xf1353697af1e5d33640e208c3e48314e75d996d56f5adc040a28cb68ccba5a81",
      "transactionIndex": "0x2",
      "blockHash": "0xadc5b50c44e30dabd420452e4bf0e30e5d0021eaf583873decd6242188b98311",
      "blockNumber": "0x1f88ded",
      "gasUsed": "0x879fb19",
      "effectiveGasPrice": "0x132b3a0",
      "from": "0x1234562eb0cd65e7d08e59f9f18d7c10b5df232a",
      "to": "0xdb26ba8581979dc4e11218735f821af5171fb737",
      "contractAddress": null,
      "l1Fee": "0x9c9bd",
      "l1FeeScalar": "0.01",
      "l1GasPrice": "0x8",
      "l1GasUsed": "0xacc",
      "tokenRatio": "0xb55"
    },
    {
      "status": "0x1",
      "cumulativeGasUsed": "0x87ab212",
      "logs": [
        {
          "address": "0xdb26ba8581979dc4e11218735f821af5171fb737",
          "topics": [
            "0x4d49d3f3f3e2ec61b682ac1aa8adb9e1945c29b4df4aab45492b365a611b7b9f",
            "0x0000000000000000000000000000000000000000000000000000000000014a34",
            "0x000000000000000000000000b288ba5b5b80dd0fd83541ef2e5922f71121fa13"
          ],
          "data": "0x0000000000000000000000000000000000000000000000000000000000000001",
          "blockHash": "0x6a0bb5e4778b750fc06126a5516205b1a4246965d41472cbd8097dab82942e94",
          "blockNumber": "0x1f88df1",
          "blockTimestamp": "0x695c9ec3",
          "transactionHash": "0x062f21bf80420c836b25782da035c1ed4a1586cfdce37180ccb79cc09f2775d8",
          "transactionIndex": "0x1",
          "logIndex": "0x0",
          "removed": false
        }
      ],
      "logsBloom": "0x00000000000200000000000000000000000000000000000000000000000000000002000000000000000000000000000000000000000000000000000000000000000000000000000000400000000004000000000000800000000000000000002000000000000000000000008000000000000000000000000000000000000000000000000000000000000000000000000000000000000000000002000000000400000000000000000000000000000000000000000000000000000000000000000000000000000000000000000000000000000000000000000000000000000001000000000000000000000000200000000000000000000000800000000000000000",
      "type": "0x2",
      "transactionHash": "0x062f21bf80420c836b25782da035c1ed4a1586cfdce37180ccb79cc09f2775d8",
      "transactionIndex": "0x1",
      "blockHash": "0x6a0bb5e4778b750fc06126a5516205b1a4246965d41472cbd8097dab82942e94",
      "blockNumber": "0x1f88df1",
      "gasUsed": "0x879fb19",
      "effectiveGasPrice": "0x132b3a0",
      "from": "0x1234562eb0cd65e7d08e59f9f18d7c10b5df232a",
      "to": "0xdb26ba8581979dc4e11218735f821af5171fb737",
      "contractAddress": null,
      "l1Fee": "0x9bedc",
      "l1FeeScalar": "0.01",
      "l1GasPrice": "0x8",
      "l1GasUsed": "0xac0",
      "tokenRatio": "0xb55"
    },
    {
      "status": "0x1",
      "cumulativeGasUsed": "0x87ab206",
      "logs": [
        {
          "address": "0xdb26ba8581979dc4e11218735f821af5171fb737",
          "topics": [
            "0x4d49d3f3f3e2ec61b682ac1aa8adb9e1945c29b4df4aab45492b365a611b7b9f",
            "0x0000000000000000000000000000000000000000000000000000000000014a34",
            "0x000000000000000000000000c4a53c466cfb62aeced03008b0162baaf36e0b03"
          ],
          "data": "0x0000000000000000000000000000000000000000000000000000000000000001",
          "blockHash": "0x4dde74b847db1d6a45eeca0dd81519cf9be83ebb8afafc3c86ae94db79e9b158",
          "blockNumber": "0x1f88df5",
          "blockTimestamp": "0x695c9ecb",
          "transactionHash": "0xb7ce8b0553894035520acce934adf4ffa33d551eea87505afa6fe310d8070c5e",
          "transactionIndex": "0x1",
          "logIndex": "0x0",
          "removed": false
        }
      ],
      "logsBloom": "0x00000000000200000000000000000000000000000000000000000000000000000002000000000000000000000000000000000000000000000000000000000000000000000000000000400000000004000000000000800000000000000000002000000004000000000000008000000000000000000000000000000000000000000000000000000000000000040000000000000000000000000000000000000000000000000000400000000000000000000000000000000000000000000000000000000000000000000000000000000000000000000000000000000000000001000000000000000000000000200000000000000000000000000000000000000000",
      "type": "0x2",
      "transactionHash": "0xb7ce8b0553894035520acce934adf4ffa33d551eea87505afa6fe310d8070c5e",
      "transactionIndex": "0x1",
      "blockHash": "0x4dde74b847db1d6a45eeca0dd81519cf9be83ebb8afafc3c86ae94db79e9b158",
      "blockNumber": "0x1f88df5",
      "gasUsed": "0x879fb19",
      "effectiveGasPrice": "0x132b3a0",
      "from": "0x1234562eb0cd65e7d08e59f9f18d7c10b5df232a",
      "to": "0xdb26ba8581979dc4e11218735f821af5171fb737",
      "contractAddress": null,
      "l1Fee": "0x9bb3b",
      "l1FeeScalar": "0.01",
      "l1GasPrice": "0x8",
      "l1GasUsed": "0xabc",
      "tokenRatio": "0xb55"
    },
    {
      "status": "0x1",
      "cumulativeGasUsed": "0x87ac7da",
      "logs": [
        {
          "address": "0xdb26ba8581979dc4e11218735f821af5171fb737",
          "topics": [
            "0x4d49d3f3f3e2ec61b682ac1aa8adb9e1945c29b4df4aab45492b365a611b7b9f",
            "0x0000000000000000000000000000000000000000000000000000000000014a34",
            "0x00000000000000000000000070db6efb75c898ad1e194fda2b8c6e73dbc944d6"
          ],
          "data": "0x0000000000000000000000000000000000000000000000000000000000000001",
          "blockHash": "0xaa20698697fff15226cef6495786e9c65ed5720a080d787beab78c97f06d58fd",
          "blockNumber": "0x1f88df8",
          "blockTimestamp": "0x695c9ed1",
          "transactionHash": "0x6ffb5627d143a993efbf2bdd72ab9ee316f20c3ca8058da0e4816cc7d43ae3bd",
          "transactionIndex": "0x1",
          "logIndex": "0x0",
          "removed": false
        }
      ],
      "logsBloom": "0x00000000000200000000000000000000000000000000000000000000000000000002000000000000000000000000000000080000000000000000000000000000000000000000000000400000000004000000000000800000000000000000002000000000000000000000008000000000000000000000000000000000000000000000000000000000000000000000000000000000000400000000000000000000000000000000000000000000000000000000000000000000000000000000000000000000000000000000000000000000000000000000000000080000000001000000000000000000000000200000000000000000000000000000000000000000",
      "type": "0x2",
      "transactionHash": "0x6ffb5627d143a993efbf2bdd72ab9ee316f20c3ca8058da0e4816cc7d43ae3bd",
      "transactionIndex": "0x1",
      "blockHash": "0xaa20698697fff15226cef6495786e9c65ed5720a080d787beab78c97f06d58fd",
      "blockNumber": "0x1f88df8",
      "gasUsed": "0x879fb19",
      "effectiveGasPrice": "0x132b3a0",
      "from": "0x1234562eb0cd65e7d08e59f9f18d7c10b5df232a",
      "to": "0xdb26ba8581979dc4e11218735f821af5171fb737",
      "contractAddress": null,
      "l1Fee": "0x9c9bd",
      "l1FeeScalar": "0.01",
      "l1GasPrice": "0x8",
      "l1GasUsed": "0xacc",
      "tokenRatio": "0xb55"
    },
    {
      "status": "0x1",
      "cumulativeGasUsed": "0x3a3a4031",
      "logs": [
        {
          "address": "0xdb26ba8581979dc4e11218735f821af5171fb737",
          "topics": [
            "0x4d49d3f3f3e2ec61b682ac1aa8adb9e1945c29b4df4aab45492b365a611b7b9f",
            "0x0000000000000000000000000000000000000000000000000000000000014a34",
            "0x000000000000000000000000ee589fbf85128aba6f42696db2f28ea9ebdde173"
          ],
          "data": "0x0000000000000000000000000000000000000000000000000000000000000001",
          "blockHash": "0xd6a9477229cbadc54b3d6f5a4282f9b401f2b7af0925831fdbe7534234733b93",
          "blockNumber": "0x1f88dfb",
          "blockTimestamp": "0x695c9ed7",
          "transactionHash": "0x99694c6d8808d08a5d7864dd4468d4d1c4c62b53e9759765b9ad83aceedeba79",
          "transactionIndex": "0x2",
          "logIndex": "0xd",
          "removed": false
        }
      ],
      "logsBloom": "0x00000000000200000000000020000000000000000000000000000000000000000002000000000000000000000000000000000000000000000000000000000000000000000000000000400000000004000000000000800000000000000000002000000000000000000000008000000000000000000000000000000000000000000000000000000000000000000000000000000000000000000000000000000000000000000000000000000000000000000000000000000000000000000000000000000000000000000000000000000000000000000000400000000000000001000000000000000000000000200080000000000000000000000000000000000000",
      "type": "0x2",
      "transactionHash": "0x99694c6d8808d08a5d7864dd4468d4d1c4c62b53e9759765b9ad83aceedeba79",
      "transactionIndex": "0x2",
      "blockHash": "0xd6a9477229cbadc54b3d6f5a4282f9b401f2b7af0925831fdbe7534234733b93",
      "blockNumber": "0x1f88dfb",
      "gasUsed": "0x879fb19",
      "effectiveGasPrice": "0x132b3a0",
      "from": "0x1234562eb0cd65e7d08e59f9f18d7c10b5df232a",
      "to": "0xdb26ba8581979dc4e11218735f821af5171fb737",
      "contractAddress": null,
      "l1Fee": "0x9c9bd",
      "l1FeeScalar": "0.01",
      "l1GasPrice": "0x8",
      "l1GasUsed": "0xacc",
      "tokenRatio": "0xb55"
    },
    {
      "status": "0x1",
      "cumulativeGasUsed": "0x87a4165",
      "logs": [
        {
          "address": "0xdb26ba8581979dc4e11218735f821af5171fb737",
          "topics": [
            "0x4d49d3f3f3e2ec61b682ac1aa8adb9e1945c29b4df4aab45492b365a611b7b9f",
            "0x0000000000000000000000000000000000000000000000000000000000014a34",
            "0x0000000000000000000000002c036be74942c597e4d81d7050008ddc11becceb"
          ],
          "data": "0x0000000000000000000000000000000000000000000000000000000000000001",
          "blockHash": "0xcd25199bb6b4b17173bd41b494c2afc0dc03709f7ba730779206bbe48b5ad3e4",
          "blockNumber": "0x1f88dfe",
          "blockTimestamp": "0x695c9edd",
          "transactionHash": "0x95fd161400776093783042b05e5a9b6ca43dc98d5d27680069a142bbea11423e",
          "transactionIndex": "0x1",
          "logIndex": "0x0",
          "removed": false
        }
      ],
      "logsBloom": "0x00000000000200000000000000000000000000000000000000000000000000000002000000000000000000000000000000000000000000000000000000000000000000000000000000400000000004000000000000800000000010000000002000000000000000000000008000000000000000000000000000000000000000000000000000000000000000000000000000000000000000000000000000000000000000000000000000000000000000008000000000000000000000000000000000000000000000000000000000000000000000000000000000000000000001000000000000000000000000200000000000000000000000000000000000000002",
      "type": "0x2",
      "transactionHash": "0x95fd161400776093783042b05e5a9b6ca43dc98d5d27680069a142bbea11423e",
      "transactionIndex": "0x1",
      "blockHash": "0xcd25199bb6b4b17173bd41b494c2afc0dc03709f7ba730779206bbe48b5ad3e4",
      "blockNumber": "0x1f88dfe",
      "gasUsed": "0x8797498",
      "effectiveGasPrice": "0x132b3a0",
      "from": "0x1234562eb0cd65e7d08e59f9f18d7c10b5df232a",
      "to": "0xdb26ba8581979dc4e11218735f821af5171fb737",
      "contractAddress": null,
      "l1Fee": "0x9b3fb",
      "l1FeeScalar": "0.01",
      "l1GasPrice": "0x8",
      "l1GasUsed": "0xab4",
      "tokenRatio": "0xb55"
    },
    {
      "status": "0x1",
      "cumulativeGasUsed": "0x87ab212",
      "logs": [
        {
          "address": "0xdb26ba8581979dc4e11218735f821af5171fb737",
          "topics": [
            "0x4d49d3f3f3e2ec61b682ac1aa8adb9e1945c29b4df4aab45492b365a611b7b9f",
            "0x0000000000000000000000000000000000000000000000000000000000014a34",
            "0x00000000000000000000000090cdcbf4c4bc78dc440252211efd744d0a4dc4a1"
          ],
          "data": "0x0000000000000000000000000000000000000000000000000000000000000001",
          "blockHash": "0x023d0fa3d568ec01a565be481640415913646250a2ce681e98749b572b84750c",
          "blockNumber": "0x1f88e03",
          "blockTimestamp": "0x695c9ee7",
          "transactionHash": "0xf4aa801a6f9bd051e933ebc490d9605f02e9e1eeaa60f7dd69754844c37950bf",
          "transactionIndex": "0x1",
          "logIndex": "0x0",
          "removed": false
        }
      ],
      "logsBloom": "0x00000000000200000000000000000000000000000000000010000000000000000002000000000000000000000000000000000000000000200000000000000000000000000000000000400000000004000000000000800000000000000000002000000000000000000000008000000000000000000000000000000000000000000000000000000000000000000000000000000000000000000000000000000000000000000000000000000000000000000000000000000000000000000000000000000000000000000000000000000000000000000000000000000000000001000000000000000000000000280000000000000000000000000000000000000000",
      "type": "0x2",
      "transactionHash": "0xf4aa801a6f9bd051e933ebc490d9605f02e9e1eeaa60f7dd69754844c37950bf",
      "transactionIndex": "0x1",
      "blockHash": "0x023d0fa3d568ec01a565be481640415913646250a2ce681e98749b572b84750c",
      "blockNumber": "0x1f88e03",
      "gasUsed": "0x879fb19",
      "effectiveGasPrice": "0x132b3a0",
      "from": "0x1234562eb0cd65e7d08e59f9f18d7c10b5df232a",
      "to": "0xdb26ba8581979dc4e11218735f821af5171fb737",
      "contractAddress": null,
      "l1Fee": "0x9c9bd",
      "l1FeeScalar": "0.01",
      "l1GasPrice": "0x8",
      "l1GasUsed": "0xacc",
      "tokenRatio": "0xb55"
    },
    {
      "status": "0x1",
      "cumulativeGasUsed": "0x87ab212",
      "logs": [
        {
          "address": "0xdb26ba8581979dc4e11218735f821af5171fb737",
          "topics": [
            "0x4d49d3f3f3e2ec61b682ac1aa8adb9e1945c29b4df4aab45492b365a611b7b9f",
            "0x0000000000000000000000000000000000000000000000000000000000014a34",
            "0x000000000000000000000000ced6ceb47301f268d57ff07879df45fda80e6974"
          ],
          "data": "0x0000000000000000000000000000000000000000000000000000000000000001",
          "blockHash": "0x060ce3a8c553f7c0b6a20ec95a02d1fb7f3bd32aa696295e244aa544b1144190",
          "blockNumber": "0x1f88e06",
          "blockTimestamp": "0x695c9eed",
          "transactionHash": "0xa60fa19ac37d137913c7bfcd06d9b915e619637fecfee67d88bb492812e8274c",
          "transactionIndex": "0x1",
          "logIndex": "0x0",
          "removed": false
        }
      ],
      "logsBloom": "0x00000000000200000000000800000000000000000000000000000000000000000002000000000000000000000080000000000000000000000000000000000000000000000000000000400000000004000000000000800000000000000000002000000000000000000000008000000000000000000000000000000000000000000000000000000000000000000000000000000000000000000000000000000000000000000000000000000000000000000000000000000000000000000000000000000000000000000000000000000000000000000000002000000000000001000000000000000000000000200000000000000000000000000000000000000000",
      "type": "0x2",
      "transactionHash": "0xa60fa19ac37d137913c7bfcd06d9b915e619637fecfee67d88bb492812e8274c",
      "transactionIndex": "0x1",
      "blockHash": "0x060ce3a8c553f7c0b6a20ec95a02d1fb7f3bd32aa696295e244aa544b1144190",
      "blockNumber": "0x1f88e06",
      "gasUsed": "0x879fb19",
      "effectiveGasPrice": "0x132b3a0",
      "from": "0x1234562eb0cd65e7d08e59f9f18d7c10b5df232a",
      "to": "0xdb26ba8581979dc4e11218735f821af5171fb737",
      "contractAddress": null,
      "l1Fee": "0x9c9bd",
      "l1FeeScalar": "0.01",
      "l1GasPrice": "0x8",
      "l1GasUsed": "0xacc",
      "tokenRatio": "0xb55"
    },
    {
      "status": "0x1",
      "cumulativeGasUsed": "0x8787143",
      "logs": [
        {
          "address": "0xdb26ba8581979dc4e11218735f821af5171fb737",
          "topics": [
            "0x4d49d3f3f3e2ec61b682ac1aa8adb9e1945c29b4df4aab45492b365a611b7b9f",
            "0x0000000000000000000000000000000000000000000000000000000000014a34",
            "0x000000000000000000000000782ba48189af93a0cf42766058de83291f384bf3"
          ],
          "data": "0x0000000000000000000000000000000000000000000000000000000000000001",
          "blockHash": "0x016dc46a3cb9b21009c085a0a6ab6a1944393c51be32ab9a6348638ed6ca8500",
          "blockNumber": "0x1f88e09",
          "blockTimestamp": "0x695c9ef3",
          "transactionHash": "0xac34a475ed44771864c4d3fdb13a84ca2498af51cfdcd55b141f472876db514d",
          "transactionIndex": "0x1",
          "logIndex": "0x0",
          "removed": false
        }
      ],
      "logsBloom": "0x00000000000200000000000000000000000020000000000000000000000000000002000000000000000000000000000000000000000000000000000000000000000000000000000000400000000004000000000000800000000000000000002000000000000000000000008000000000000000000000000000000000000000000000000100000000000000000000000000000000000000000000000000000000000000000000000000008000000000000000000000000000000000000000000000000000000000000000000000000000000000000000000000000000000001000000000000000000000000200000000000000000000000000000000000000000",
      "type": "0x2",
      "transactionHash": "0xac34a475ed44771864c4d3fdb13a84ca2498af51cfdcd55b141f472876db514d",
      "transactionIndex": "0x1",
      "blockHash": "0x016dc46a3cb9b21009c085a0a6ab6a1944393c51be32ab9a6348638ed6ca8500",
      "blockNumber": "0x1f88e09",
      "gasUsed": "0x877ba4a",
      "effectiveGasPrice": "0x132b3a0",
      "from": "0x1234562eb0cd65e7d08e59f9f18d7c10b5df232a",
      "to": "0xdb26ba8581979dc4e11218735f821af5171fb737",
      "contractAddress": null,
      "l1Fee": "0x9c725",
      "l1FeeScalar": "0.01",
      "l1GasPrice": "0x8",
      "l1GasUsed": "0xacc",
      "tokenRatio": "0xb52"
    },
    {
      "status": "0x1",
      "cumulativeGasUsed": "0x4cd0c78",
      "logs": [
        {
          "address": "0xdb26ba8581979dc4e11218735f821af5171fb737",
          "topics": [
            "0xac90355684e2710fa34c2c7d500018678b146ea2d56ddc331c63d242ee8bf385",
            "0x00000000000000000000000033c6f26da09502e6540043f030ae1f87f109cc99"
          ],
          "data": "0x0000000000000000000000000000000000000000000000000000000000000001",
          "blockHash": "0x9935815cbd21a34ddb24f2cb024168825c2f17a671b473505c58b7e9277ad1e1",
          "blockNumber": "0x1f88e0c",
          "blockTimestamp": "0x695c9ef9",
          "transactionHash": "0x0247657065b4c56a58db82c8afcb99a57ad75ca08cdfa445c2e1886612dcdf66",
          "transactionIndex": "0x1",
          "logIndex": "0x0",
          "removed": false
        }
      ],
      "logsBloom": "0x00000000000000000200000000000000000000000000000000000000000000000002000000000000000000000000000000000000000000000010000000000000000000000000000000000000000000000000000000000000000000000000002000000000000000000000000000000000000000000008000000000000002000000000000000000000000010000000000000000200000000000000000000000000000000000000000000000000000000000000000000000000000000000000000000000000000000000000000000000000000000000000000000000000000000000000000000000000000000200000000000000000000000000000000000000000",
      "type": "0x2",
      "transactionHash": "0x0247657065b4c56a58db82c8afcb99a57ad75ca08cdfa445c2e1886612dcdf66",
      "transactionIndex": "0x1",
      "blockHash": "0x9935815cbd21a34ddb24f2cb024168825c2f17a671b473505c58b7e9277ad1e1",
      "blockNumber": "0x1f88e0c",
      "gasUsed": "0x4cc557f",
      "effectiveGasPrice": "0x132b3a0",
      "from": "0x1234562eb0cd65e7d08e59f9f18d7c10b5df232a",
      "to": "0xdb26ba8581979dc4e11218735f821af5171fb737",
      "contractAddress": null,
      "l1Fee": "0x927c1",
      "l1FeeScalar": "0.01",
      "l1GasPrice": "0x8",
      "l1GasUsed": "0xa1c",
      "tokenRatio": "0xb52"
    },
    {
      "status": "0x1",
      "cumulativeGasUsed": "0x4cd8c8d",
      "logs": [
        {
          "address": "0xdb26ba8581979dc4e11218735f821af5171fb737",
          "topics": [
            "0xac90355684e2710fa34c2c7d500018678b146ea2d56ddc331c63d242ee8bf385",
            "0x0000000000000000000000007cb382ce1aa40fa9f9a59a632090c05dc28cae7b"
          ],
          "data": "0x0000000000000000000000000000000000000000000000000000000000000001",
          "blockHash": "0xb59ee8a01d2a7588b0ca60e82737d2e53fff61655339217cc61f091432ceeecf",
          "blockNumber": "0x1f88e10",
          "blockTimestamp": "0x695c9f01",
          "transactionHash": "0x400a1d2915e79f450f516d494e05353e5c777da3f6526360d4d25bbf0eacf08e",
          "transactionIndex": "0x1",
          "logIndex": "0x0",
          "removed": false
        }
      ],
      "logsBloom": "0x00000000000000000200000000000000000000000000000000000000000000000002000000000000000800000000000000000000000000000010000000000000000000000000000000000000000000000000004000000000000002000000002000000000000000000000000000000000000000000000000000000000002000000000000000000000000000000000000000000000000000000000000000000000000000000000000000000000000000000000000000000000000000000000000000000000000000000000000000000000000000000000000000000000000000000000000000000000000000200000000000000000000000000000000000000000",
      "type": "0x2",
      "transactionHash": "0x400a1d2915e79f450f516d494e05353e5c777da3f6526360d4d25bbf0eacf08e",
      "transactionIndex": "0x1",
      "blockHash": "0xb59ee8a01d2a7588b0ca60e82737d2e53fff61655339217cc61f091432ceeecf",
      "blockNumber": "0x1f88e10",
      "gasUsed": "0x4ccd594",
      "effectiveGasPrice": "0x132b3a0",
      "from": "0x1234562eb0cd65e7d08e59f9f18d7c10b5df232a",
      "to": "0xdb26ba8581979dc4e11218735f821af5171fb737",
      "contractAddress": null,
      "l1Fee": "0x927c1",
      "l1FeeScalar": "0.01",
      "l1GasPrice": "0x8",
      "l1GasUsed": "0xa1c",
      "tokenRatio": "0xb52"
    },
    {
      "status": "0x1",
      "cumulativeGasUsed": "0x4cd8c8d",
      "logs": [
        {
          "address": "0xdb26ba8581979dc4e11218735f821af5171fb737",
          "topics": [
            "0xac90355684e2710fa34c2c7d500018678b146ea2d56ddc331c63d242ee8bf385",
            "0x000000000000000000000000b288ba5b5b80dd0fd83541ef2e5922f71121fa13"
          ],
          "data": "0x0000000000000000000000000000000000000000000000000000000000000001",
          "blockHash": "0x3c11fc67d75ccd5e26854bf87bb42034b13828ab8267e906bf371ccd72625ef8",
          "blockNumber": "0x1f88e14",
          "blockTimestamp": "0x695c9f09",
          "transactionHash": "0x441c42b36e586939a553f0f0364c7804c82d79338cdd64269e86a6034f829db5",
          "transactionIndex": "0x1",
          "logIndex": "0x0",
          "removed": false
        }
      ],
      "logsBloom": "0x00000000000000000200000000000000000000000000000000000000000000000002000000000000000000000000000000000000000000000010000000000000000000000000000000000000000000000000000000000000000000000000002000000000000000000000000000000000000000000000000000000000002000000000000000000000000000000000000000000000000000000002000000000400000000000000000000000000000000000000000000000000000000000000000000000000000000000000000000000000000000000000000000000000000000000000000000000000000000200000000000000000000000800000000000000000",
      "type": "0x2",
      "transactionHash": "0x441c42b36e586939a553f0f0364c7804c82d79338cdd64269e86a6034f829db5",
      "transactionIndex": "0x1",
      "blockHash": "0x3c11fc67d75ccd5e26854bf87bb42034b13828ab8267e906bf371ccd72625ef8",
      "blockNumber": "0x1f88e14",
      "gasUsed": "0x4ccd594",
      "effectiveGasPrice": "0x132b3a0",
      "from": "0x1234562eb0cd65e7d08e59f9f18d7c10b5df232a",
      "to": "0xdb26ba8581979dc4e11218735f821af5171fb737",
      "contractAddress": null,
      "l1Fee": "0x927c1",
      "l1FeeScalar": "0.01",
      "l1GasPrice": "0x8",
      "l1GasUsed": "0xa1c",
      "tokenRatio": "0xb52"
    },
    {
      "status": "0x1",
      "cumulativeGasUsed": "0x4cdcf59",
      "logs": [
        {
          "address": "0xdb26ba8581979dc4e11218735f821af5171fb737",
          "topics": [
            "0xac90355684e2710fa34c2c7d500018678b146ea2d56ddc331c63d242ee8bf385",
            "0x000000000000000000000000c4a53c466cfb62aeced03008b0162baaf36e0b03"
          ],
          "data": "0x0000000000000000000000000000000000000000000000000000000000000001",
          "blockHash": "0xac45fe3feb66e757831c3e60a022b1efec8ad38c567667890b9957db3e355499",
          "blockNumber": "0x1f88e17",
          "blockTimestamp": "0x695c9f0f",
          "transactionHash": "0xc14e02e44318965eb5070a0d32977814c316f16c3702cef66a40f1423e464f5c",
          "transactionIndex": "0x1",
          "logIndex": "0x0",
          "removed": false
        }
      ],
      "logsBloom": "0x00000000000000000200000000000000000000000000000000000000000000000002000000000000000000000000000000000000000000000010000000000000000000000000000000000000000000000000000000000000000000000000002000000004000000000000000000000000000000000000000000000000002000000000000000000000000000040000000000000000000000000000000000000000000000000000400000000000000000000000000000000000000000000000000000000000000000000000000000000000000000000000000000000000000000000000000000000000000000200000000000000000000000000000000000000000",
      "type": "0x2",
      "transactionHash": "0xc14e02e44318965eb5070a0d32977814c316f16c3702cef66a40f1423e464f5c",
      "transactionIndex": "0x1",
      "blockHash": "0xac45fe3feb66e757831c3e60a022b1efec8ad38c567667890b9957db3e355499",
      "blockNumber": "0x1f88e17",
      "gasUsed": "0x4ccd594",
      "effectiveGasPrice": "0x132b3a0",
      "from": "0x1234562eb0cd65e7d08e59f9f18d7c10b5df232a",
      "to": "0xdb26ba8581979dc4e11218735f821af5171fb737",
      "contractAddress": null,
      "l1Fee": "0x932a0",
      "l1FeeScalar": "0.01",
      "l1GasPrice": "0x8",
      "l1GasUsed": "0xa28",
      "tokenRatio": "0xb52"
    },
    {
      "status": "0x1",
      "cumulativeGasUsed": "0x4cd8c8d",
      "logs": [
        {
          "address": "0xdb26ba8581979dc4e11218735f821af5171fb737",
          "topics": [
            "0xac90355684e2710fa34c2c7d500018678b146ea2d56ddc331c63d242ee8bf385",
            "0x00000000000000000000000070db6efb75c898ad1e194fda2b8c6e73dbc944d6"
          ],
          "data": "0x0000000000000000000000000000000000000000000000000000000000000001",
          "blockHash": "0xbb9960497f3ade3f08509b230d40d2e433c25eda57f28f66f7ba4f727a0287ee",
          "blockNumber": "0x1f88e1a",
          "blockTimestamp": "0x695c9f15",
          "transactionHash": "0x5ac1fd7a015c941a7b08aabe73e778c00ac7f0c6d12b7c93e04c087ccbf1c00c",
          "transactionIndex": "0x1",
          "logIndex": "0x0",
          "removed": false
        }
      ],
      "logsBloom": "0x00000000000000000200000000000000000000000000000000000000000000000002000000000000000000000000000000080000000000000010000000000000000000000000000000000000000000000000000000000000000000000000002000000000000000000000000000000000000000000000000000000000002000000000000000000000000000000000000000000000000400000000000000000000000000000000000000000000000000000000000000000000000000000000000000000000000000000000000000000000000000000000000000080000000000000000000000000000000000200000000000000000000000000000000000000000",
      "type": "0x2",
      "transactionHash": "0x5ac1fd7a015c941a7b08aabe73e778c00ac7f0c6d12b7c93e04c087ccbf1c00c",
      "transactionIndex": "0x1",
      "blockHash": "0xbb9960497f3ade3f08509b230d40d2e433c25eda57f28f66f7ba4f727a0287ee",
      "blockNumber": "0x1f88e1a",
      "gasUsed": "0x4ccd594",
      "effectiveGasPrice": "0x132b3a0",
      "from": "0x1234562eb0cd65e7d08e59f9f18d7c10b5df232a",
      "to": "0xdb26ba8581979dc4e11218735f821af5171fb737",
      "contractAddress": null,
      "l1Fee": "0x927c1",
      "l1FeeScalar": "0.01",
      "l1GasPrice": "0x8",
      "l1GasUsed": "0xa1c",
      "tokenRatio": "0xb52"
    },
    {
      "status": "0x1",
      "cumulativeGasUsed": "0x4cdcf59",
      "logs": [
        {
          "address": "0xdb26ba8581979dc4e11218735f821af5171fb737",
          "topics": [
            "0xac90355684e2710fa34c2c7d500018678b146ea2d56ddc331c63d242ee8bf385",
            "0x000000000000000000000000ee589fbf85128aba6f42696db2f28ea9ebdde173"
          ],
          "data": "0x0000000000000000000000000000000000000000000000000000000000000001",
          "blockHash": "0x911f866902ef9dcd2343a0a637fd81df2d6795bc08f7ffe85ee889a035d12fbe",
          "blockNumber": "0x1f88e1d",
          "blockTimestamp": "0x695c9f1b",
          "transactionHash": "0x165c9a9c1cf2fdc2ec3091b2f4d8c55c0340bf0b961e38baaf56e132e9555e6b",
          "transactionIndex": "0x1",
          "logIndex": "0x0",
          "removed": false
        }
      ],
      "logsBloom": "0x00000000000000000200000020000000000000000000000000000000000000000002000000000000000000000000000000000000000000000010000000000000000000000000000000000000000000000000000000000000000000000000002000000000000000000000000000000000000000000000000000000000002000000000000000000000000000000000000000000000000000000000000000000000000000000000000000000000000000000000000000000000000000000000000000000000000000000000000000000000000000000000400000000000000000000000000000000000000000200080000000000000000000000000000000000000",
      "type": "0x2",
      "transactionHash": "0x165c9a9c1cf2fdc2ec3091b2f4d8c55c0340bf0b961e38baaf56e132e9555e6b",
      "transactionIndex": "0x1",
      "blockHash": "0x911f866902ef9dcd2343a0a637fd81df2d6795bc08f7ffe85ee889a035d12fbe",
      "blockNumber": "0x1f88e1d",
      "gasUsed": "0x4ccd594",
      "effectiveGasPrice": "0x132b3a0",
      "from": "0x1234562eb0cd65e7d08e59f9f18d7c10b5df232a",
      "to": "0xdb26ba8581979dc4e11218735f821af5171fb737",
      "contractAddress": null,
      "l1Fee": "0x932a0",
      "l1FeeScalar": "0.01",
      "l1GasPrice": "0x8",
      "l1GasUsed": "0xa28",
      "tokenRatio": "0xb52"
    },
    {
      "status": "0x1",
      "cumulativeGasUsed": "0x4cd0c78",
      "logs": [
        {
          "address": "0xdb26ba8581979dc4e11218735f821af5171fb737",
          "topics": [
            "0xac90355684e2710fa34c2c7d500018678b146ea2d56ddc331c63d242ee8bf385",
            "0x0000000000000000000000002c036be74942c597e4d81d7050008ddc11becceb"
          ],
          "data": "0x0000000000000000000000000000000000000000000000000000000000000001",
          "blockHash": "0x50851fc7625e8a800cc37af101950a62708c58b791b8c37ea583d0093a818e16",
          "blockNumber": "0x1f88e21",
          "blockTimestamp": "0x695c9f23",
          "transactionHash": "0x42702cab42f87f3337aabdda1795aac0aed10907ead7cc969a7bb4def87b7fbe",
          "transactionIndex": "0x1",
          "logIndex": "0x0",
          "removed": false
        }
      ],
      "logsBloom": "0x00000000000000000200000000000000000000000000000000000000000000000002000000000000000000000000000000000000000000000010000000000000000000000000000000000000000000000000000000000000000010000000002000000000000000000000000000000000000000000000000000000000002000000000000000000000000000000000000000000000000000000000000000000000000000000000000000000000000000008000000000000000000000000000000000000000000000000000000000000000000000000000000000000000000000000000000000000000000000200000000000000000000000000000000000000002",
      "type": "0x2",
      "transactionHash": "0x42702cab42f87f3337aabdda1795aac0aed10907ead7cc969a7bb4def87b7fbe",
      "transactionIndex": "0x1",
      "blockHash": "0x50851fc7625e8a800cc37af101950a62708c58b791b8c37ea583d0093a818e16",
      "blockNumber": "0x1f88e21",
      "gasUsed": "0x4cc557f",
      "effectiveGasPrice": "0x132b3a0",
      "from": "0x1234562eb0cd65e7d08e59f9f18d7c10b5df232a",
      "to": "0xdb26ba8581979dc4e11218735f821af5171fb737",
      "contractAddress": null,
      "l1Fee": "0x91ce3",
      "l1FeeScalar": "0.01",
      "l1GasPrice": "0x8",
      "l1GasUsed": "0xa10",
      "tokenRatio": "0xb52"
    },
    {
      "status": "0x1",
      "cumulativeGasUsed": "0x4cd8c8d",
      "logs": [
        {
          "address": "0xdb26ba8581979dc4e11218735f821af5171fb737",
          "topics": [
            "0xac90355684e2710fa34c2c7d500018678b146ea2d56ddc331c63d242ee8bf385",
            "0x00000000000000000000000090cdcbf4c4bc78dc440252211efd744d0a4dc4a1"
          ],
          "data": "0x0000000000000000000000000000000000000000000000000000000000000001",
          "blockHash": "0xf2890159a0b1905f3fee0b9a046af431e7613610f2d30951ab2672cca89d1578",
          "blockNumber": "0x1f88e25",
          "blockTimestamp": "0x695c9f2b",
          "transactionHash": "0x7d6f709ad084b506332475c750b1e6a2a5667c30fd12a8b2bfbc12089032ea43",
          "transactionIndex": "0x1",
          "logIndex": "0x0",
          "removed": false
        }
      ],
      "logsBloom": "0x00000000000000000200000000000000000000000000000010000000000000000002000000000000000000000000000000000000000000200010000000000000000000000000000000000000000000000000000000000000000000000000002000000000000000000000000000000000000000000000000000000000002000000000000000000000000000000000000000000000000000000000000000000000000000000000000000000000000000000000000000000000000000000000000000000000000000000000000000000000000000000000000000000000000000000000000000000000000000280000000000000000000000000000000000000000",
      "type": "0x2",
      "transactionHash": "0x7d6f709ad084b506332475c750b1e6a2a5667c30fd12a8b2bfbc12089032ea43",
      "transactionIndex": "0x1",
      "blockHash": "0xf2890159a0b1905f3fee0b9a046af431e7613610f2d30951ab2672cca89d1578",
      "blockNumber": "0x1f88e25",
      "gasUsed": "0x4ccd594",
      "effectiveGasPrice": "0x132b3a0",
      "from": "0x1234562eb0cd65e7d08e59f9f18d7c10b5df232a",
      "to": "0xdb26ba8581979dc4e11218735f821af5171fb737",
      "contractAddress": null,
      "l1Fee": "0x927c1",
      "l1FeeScalar": "0.01",
      "l1GasPrice": "0x8",
      "l1GasUsed": "0xa1c",
      "tokenRatio": "0xb52"
    },
    {
      "status": "0x1",
      "cumulativeGasUsed": "0x4cdcf4d",
      "logs": [
        {
          "address": "0xdb26ba8581979dc4e11218735f821af5171fb737",
          "topics": [
            "0xac90355684e2710fa34c2c7d500018678b146ea2d56ddc331c63d242ee8bf385",
            "0x000000000000000000000000ced6ceb47301f268d57ff07879df45fda80e6974"
          ],
          "data": "0x0000000000000000000000000000000000000000000000000000000000000001",
          "blockHash": "0xffdb1860f978539669962ea63dc99d2f11d884ca87a28fb21a3f1390f4a81acd",
          "blockNumber": "0x1f88e29",
          "blockTimestamp": "0x695c9f33",
          "transactionHash": "0xf8c48743c75a6ed7706b7c6514e7c2904be0ab37ab84bd5a9eefebb685d2b31c",
          "transactionIndex": "0x1",
          "logIndex": "0x0",
          "removed": false
        }
      ],
      "logsBloom": "0x00000000000000000200000800000000000000000000000000000000000000000002000000000000000000000080000000000000000000000010000000000000000000000000000000000000000000000000000000000000000000000000002000000000000000000000000000000000000000000000000000000000002000000000000000000000000000000000000000000000000000000000000000000000000000000000000000000000000000000000000000000000000000000000000000000000000000000000000000000000000000000000002000000000000000000000000000000000000000200000000000000000000000000000000000000000",
      "type": "0x2",
      "transactionHash": "0xf8c48743c75a6ed7706b7c6514e7c2904be0ab37ab84bd5a9eefebb685d2b31c",
      "transactionIndex": "0x1",
      "blockHash": "0xffdb1860f978539669962ea63dc99d2f11d884ca87a28fb21a3f1390f4a81acd",
      "blockNumber": "0x1f88e29",
      "gasUsed": "0x4ccd594",
      "effectiveGasPrice": "0x132b3a0",
      "from": "0x1234562eb0cd65e7d08e59f9f18d7c10b5df232a",
      "to": "0xdb26ba8581979dc4e11218735f821af5171fb737",
      "contractAddress": null,
      "l1Fee": "0x927c1",
      "l1FeeScalar": "0.01",
      "l1GasPrice": "0x8",
      "l1GasUsed": "0xa1c",
      "tokenRatio": "0xb52"
    },
    {
      "status": "0x1",
      "cumulativeGasUsed": "0x4cd8c81",
      "logs": [
        {
          "address": "0xdb26ba8581979dc4e11218735f821af5171fb737",
          "topics": [
            "0xac90355684e2710fa34c2c7d500018678b146ea2d56ddc331c63d242ee8bf385",
            "0x000000000000000000000000782ba48189af93a0cf42766058de83291f384bf3"
          ],
          "data": "0x0000000000000000000000000000000000000000000000000000000000000001",
          "blockHash": "0x10f9dea6af21e1d938e8f9aec91022b66b6f78f8d9342c4f4da472d411930f49",
          "blockNumber": "0x1f88e2c",
          "blockTimestamp": "0x695c9f39",
          "transactionHash": "0x15dbc3a66c65fa21dab2c3a94b5b4c9dac5b9904c38b258b14dfa4b0b2e8450a",
          "transactionIndex": "0x1",
          "logIndex": "0x0",
          "removed": false
        }
      ],
      "logsBloom": "0x00000000000000000200000000000000000020000000000000000000000000000002000000000000000000000000000000000000000000000010000000000000000000000000000000000000000000000000000000000000000000000000002000000000000000000000000000000000000000000000000000000000002000000000000100000000000000000000000000000000000000000000000000000000000000000000000000008000000000000000000000000000000000000000000000000000000000000000000000000000000000000000000000000000000000000000000000000000000000200000000000000000000000000000000000000000",
      "type": "0x2",
      "transactionHash": "0x15dbc3a66c65fa21dab2c3a94b5b4c9dac5b9904c38b258b14dfa4b0b2e8450a",
      "transactionIndex": "0x1",
      "blockHash": "0x10f9dea6af21e1d938e8f9aec91022b66b6f78f8d9342c4f4da472d411930f49",
      "blockNumber": "0x1f88e2c",
      "gasUsed": "0x4ccd594",
      "effectiveGasPrice": "0x132b3a0",
      "from": "0x1234562eb0cd65e7d08e59f9f18d7c10b5df232a",
      "to": "0xdb26ba8581979dc4e11218735f821af5171fb737",
      "contractAddress": null,
      "l1Fee": "0x932a0",
      "l1FeeScalar": "0.01",
      "l1GasPrice": "0x8",
      "l1GasUsed": "0xa28",
      "tokenRatio": "0xb52"
    }
  ],
  "libraries": [],
  "pending": [],
  "returns": {},
  "timestamp": 1767677755811,
  "chain": 5003,
  "commit": "5ab44b9"
}