{
  "transactions": [
    {
      "hash": "0x7e57ac6bc5199d31dfed67aa4988fc652d124a7702b6b619e0a1717a5d157868",
      "transactionType": "CALL",
      "contractName": null,
      "contractAddress": "0x888361c3362712ba6bb442cbf714038fce0d9e49",
      "function": "setIsHubChain(bool)",
      "arguments": [
        "true"
      ],
      "transaction": {
        "from": "0x1234562eb0cd65e7d08e59f9f18d7c10b5df232a",
        "to": "0x888361c3362712ba6bb442cbf714038fce0d9e49",
        "gas": "0x7dc9c60",
        "value": "0x0",
        "input": "0xf54efd770000000000000000000000000000000000000000000000000000000000000001",
        "nonce": "0x340",
        "chainId": "0x138b"
      },
      "additionalContracts": [],
      "isFixedGasLimit": false
    },
    {
      "hash": "0xb0747b87d9ffa26def52f1fbb95387f2f12e5cbf5c8c7fe14e16ccb098b10fd9",
      "transactionType": "CALL",
      "contractName": null,
      "contractAddress": "0x888361c3362712ba6bb442cbf714038fce0d9e49",
      "function": "setTrustedRemoteToken(uint32,address,bool)",
      "arguments": [
        "84532",
        "0x33c6f26dA09502E6540043f030aE1F87f109cc99",
        "true"
      ],
      "transaction": {
        "from": "0x1234562eb0cd65e7d08e59f9f18d7c10b5df232a",
        "to": "0x888361c3362712ba6bb442cbf714038fce0d9e49",
        "gas": "0x7f7d779",
        "value": "0x0",
        "input": "0xe1f433470000000000000000000000000000000000000000000000000000000000014a3400000000000000000000000033c6f26da09502e6540043f030ae1f87f109cc990000000000000000000000000000000000000000000000000000000000000001",
        "nonce": "0x341",
        "chainId": "0x138b"
      },
      "additionalContracts": [],
      "isFixedGasLimit": false
    },
    {
      "hash": "0x691a7ddb38eafa5f122a32f2ebef3604bd411f06afd8f3f09c9db1ea97de7da6",
      "transactionType": "CALL",
      "contractName": null,
      "contractAddress": "0x888361c3362712ba6bb442cbf714038fce0d9e49",
      "function": "setTrustedRemoteToken(uint32,address,bool)",
      "arguments": [
        "84532",
        "0x7CB382Ce1AA40FA9F9A59a632090c05Dc28caE7b",
        "true"
      ],
      "transaction": {
        "from": "0x1234562eb0cd65e7d08e59f9f18d7c10b5df232a",
        "to": "0x888361c3362712ba6bb442cbf714038fce0d9e49",
        "gas": "0x7f8aee7",
        "value": "0x0",
        "input": "0xe1f433470000000000000000000000000000000000000000000000000000000000014a340000000000000000000000007cb382ce1aa40fa9f9a59a632090c05dc28cae7b0000000000000000000000000000000000000000000000000000000000000001",
        "nonce": "0x342",
        "chainId": "0x138b"
      },
      "additionalContracts": [],
      "isFixedGasLimit": false
    },
    {
      "hash": "0x75ab92887b4069fa88512e0c54062be5894a967fc2285b1db93b6717eee3cc3f",
      "transactionType": "CALL",
      "contractName": null,
      "contractAddress": "0x888361c3362712ba6bb442cbf714038fce0d9e49",
      "function": "setTrustedRemoteToken(uint32,address,bool)",
      "arguments": [
        "84532",
        "0xB288Ba5B5b80Dd0Fd83541ef2e5922f71121Fa13",
        "true"
      ],
      "transaction": {
        "from": "0x1234562eb0cd65e7d08e59f9f18d7c10b5df232a",
        "to": "0x888361c3362712ba6bb442cbf714038fce0d9e49",
        "gas": "0x7f8aee7",
        "value": "0x0",
        "input": "0xe1f433470000000000000000000000000000000000000000000000000000000000014a34000000000000000000000000b288ba5b5b80dd0fd83541ef2e5922f71121fa130000000000000000000000000000000000000000000000000000000000000001",
        "nonce": "0x343",
        "chainId": "0x138b"
      },
      "additionalContracts": [],
      "isFixedGasLimit": false
    },
    {
      "hash": "0x9913ad7aa391facc0aaf9c724cbe9899cee05cb9ff1d287321dcee8cfd4273da",
      "transactionType": "CALL",
      "contractName": null,
      "contractAddress": "0x888361c3362712ba6bb442cbf714038fce0d9e49",
      "function": "setTrustedRemoteToken(uint32,address,bool)",
      "arguments": [
        "84532",
        "0xC4a53c466Cfb62AecED03008B0162baaf36E0B03",
        "true"
      ],
      "transaction": {
        "from": "0x1234562eb0cd65e7d08e59f9f18d7c10b5df232a",
        "to": "0x888361c3362712ba6bb442cbf714038fce0d9e49",
        "gas": "0x7f8aee7",
        "value": "0x0",
        "input": "0xe1f433470000000000000000000000000000000000000000000000000000000000014a34000000000000000000000000c4a53c466cfb62aeced03008b0162baaf36e0b030000000000000000000000000000000000000000000000000000000000000001",
        "nonce": "0x344",
        "chainId": "0x138b"
      },
      "additionalContracts": [],
      "isFixedGasLimit": false
    },
    {
      "hash": "0xd762f7e84eda519d2150242e25fbda20b69ddce2ad539c1e60da769c3bb92c23",
      "transactionType": "CALL",
      "contractName": null,
      "contractAddress": "0x888361c3362712ba6bb442cbf714038fce0d9e49",
      "function": "setTrustedRemoteToken(uint32,address,bool)",
      "arguments": [
        "84532",
        "0x70Db6eFB75c898Ad1e194FDA2B8C6e73dbC944d6",
        "true"
      ],
      "transaction": {
        "from": "0x1234562eb0cd65e7d08e59f9f18d7c10b5df232a",
        "to": "0x888361c3362712ba6bb442cbf714038fce0d9e49",
        "gas": "0x7f8aee7",
        "value": "0x0",
        "input": "0xe1f433470000000000000000000000000000000000000000000000000000000000014a3400000000000000000000000070db6efb75c898ad1e194fda2b8c6e73dbc944d60000000000000000000000000000000000000000000000000000000000000001",
        "nonce": "0x345",
        "chainId": "0x138b"
      },
      "additionalContracts": [],
      "isFixedGasLimit": false
    },
    {
      "hash": "0xccc53df3f0b5c3ab26a31d28507389c368e7f9381e2915d0a25a948a4f48dcae",
      "transactionType": "CALL",
      "contractName": null,
      "contractAddress": "0x888361c3362712ba6bb442cbf714038fce0d9e49",
      "function": "setTrustedRemoteToken(uint32,address,bool)",
      "arguments": [
        "84532",
        "0xEE589FBF85128abA6f42696dB2F28eA9EBddE173",
        "true"
      ],
      "transaction": {
        "from": "0x1234562eb0cd65e7d08e59f9f18d7c10b5df232a",
        "to": "0x888361c3362712ba6bb442cbf714038fce0d9e49",
        "gas": "0x7f8aee7",
        "value": "0x0",
        "input": "0xe1f433470000000000000000000000000000000000000000000000000000000000014a34000000000000000000000000ee589fbf85128aba6f42696db2f28ea9ebdde1730000000000000000000000000000000000000000000000000000000000000001",
        "nonce": "0x346",
        "chainId": "0x138b"
      },
      "additionalContracts": [],
      "isFixedGasLimit": false
    },
    {
      "hash": "0xd0a905fe4b9aaf84d3f8c7cd3880a4cfd5cc7f8f9c160b1979604cda1a1737d1",
      "transactionType": "CALL",
      "contractName": null,
      "contractAddress": "0x888361c3362712ba6bb442cbf714038fce0d9e49",
      "function": "setTrustedRemoteToken(uint32,address,bool)",
      "arguments": [
        "84532",
        "0x2C036be74942c597e4d81D7050008dDc11becCEb",
        "true"
      ],
      "transaction": {
        "from": "0x1234562eb0cd65e7d08e59f9f18d7c10b5df232a",
        "to": "0x888361c3362712ba6bb442cbf714038fce0d9e49",
        "gas": "0x7f7d779",
        "value": "0x0",
        "input": "0xe1f433470000000000000000000000000000000000000000000000000000000000014a340000000000000000000000002c036be74942c597e4d81d7050008ddc11becceb0000000000000000000000000000000000000000000000000000000000000001",
        "nonce": "0x347",
        "chainId": "0x138b"
      },
      "additionalContracts": [],
      "isFixedGasLimit": false
    },
    {
      "hash": "0x1fea2b0aa6c96045b03c1eeaeb4eceadad64d83d430f2304d264af16b5947827",
      "transactionType": "CALL",
      "contractName": null,
      "contractAddress": "0x888361c3362712ba6bb442cbf714038fce0d9e49",
      "function": "setTrustedRemoteToken(uint32,address,bool)",
      "arguments": [
        "84532",
        "0x90CdcBF4c4bc78dC440252211EFd744d0A4Dc4A1",
        "true"
      ],
      "transaction": {
        "from": "0x1234562eb0cd65e7d08e59f9f18d7c10b5df232a",
        "to": "0x888361c3362712ba6bb442cbf714038fce0d9e49",
        "gas": "0x7f8aee7",
        "value": "0x0",
        "input": "0xe1f433470000000000000000000000000000000000000000000000000000000000014a3400000000000000000000000090cdcbf4c4bc78dc440252211efd744d0a4dc4a10000000000000000000000000000000000000000000000000000000000000001",
        "nonce": "0x348",
        "chainId": "0x138b"
      },
      "additionalContracts": [],
      "isFixedGasLimit": false
    },
    {
      "hash": "0x0d6733800bedb122bfacb4d63c2866191514a7d7a3c3cc14ffee49256946ce48",
      "transactionType": "CALL",
      "contractName": null,
      "contractAddress": "0x888361c3362712ba6bb442cbf714038fce0d9e49",
      "function": "setTrustedRemoteToken(uint32,address,bool)",
      "arguments": [
        "84532",
        "0xced6Ceb47301F268d57fF07879DF45Fda80e6974",
        "true"
      ],
      "transaction": {
        "from": "0x1234562eb0cd65e7d08e59f9f18d7c10b5df232a",
        "to": "0x888361c3362712ba6bb442cbf714038fce0d9e49",
        "gas": "0x7f8aee7",
        "value": "0x0",
        "input": "0xe1f433470000000000000000000000000000000000000000000000000000000000014a34000000000000000000000000ced6ceb47301f268d57ff07879df45fda80e69740000000000000000000000000000000000000000000000000000000000000001",
        "nonce": "0x349",
        "chainId": "0x138b"
      },
      "additionalContracts": [],
      "isFixedGasLimit": false
    },
    {
      "hash": "0xdb5ac1c8268442491c1520ea87ee54b336a2bfd8822b7fb30bc184555d27cb1f",
      "transactionType": "CALL",
      "contractName": null,
      "contractAddress": "0x888361c3362712ba6bb442cbf714038fce0d9e49",
      "function": "setTrustedRemoteToken(uint32,address,bool)",
      "arguments": [
        "84532",
        "0x782Ba48189AF93a0CF42766058DE83291f384bF3",
        "true"
      ],
      "transaction": {
        "from": "0x1234562eb0cd65e7d08e59f9f18d7c10b5df232a",
        "to": "0x888361c3362712ba6bb442cbf714038fce0d9e49",
        "gas": "0x7f8aee7",
        "value": "0x0",
        "input": "0xe1f433470000000000000000000000000000000000000000000000000000000000014a34000000000000000000000000782ba48189af93a0cf42766058de83291f384bf30000000000000000000000000000000000000000000000000000000000000001",
        "nonce": "0x34a",
        "chainId": "0x138b"
      },
      "additionalContracts": [],
      "isFixedGasLimit": false
    },
    {
      "hash": "0x42cfb929ad0b69b8ddd29a37f9d06d6727972e34bf9de6fe2649f45d407d786c",
      "transactionType": "CALL",
      "contractName": null,
      "contractAddress": "0x888361c3362712ba6bb442cbf714038fce0d9e49",
      "function": "setGlobalWhitelist(address,bool)",
      "arguments": [
        "0x33c6f26dA09502E6540043f030aE1F87f109cc99",
        "true"
      ],
      "transaction": {
        "from": "0x1234562eb0cd65e7d08e59f9f18d7c10b5df232a",
        "to": "0x888361c3362712ba6bb442cbf714038fce0d9e49",
        "gas": "0x7ba69c1",
        "value": "0x0",
        "input": "0x25d86ced00000000000000000000000033c6f26da09502e6540043f030ae1f87f109cc990000000000000000000000000000000000000000000000000000000000000001",
        "nonce": "0x34b",
        "chainId": "0x138b"
      },
      "additionalContracts": [],
      "isFixedGasLimit": false
    },
    {
      "hash": "0x4617d6fffd2ac0bc81f3fdf26d4b49932a848f46cf12ef6aa3f76d0b447c4baf",
      "transactionType": "CALL",
      "contractName": null,
      "contractAddress": "0x888361c3362712ba6bb442cbf714038fce0d9e49",
      "function": "setGlobalWhitelist(address,bool)",
      "arguments": [
        "0x7CB382Ce1AA40FA9F9A59a632090c05Dc28caE7b",
        "true"
      ],
      "transaction": {
        "from": "0x1234562eb0cd65e7d08e59f9f18d7c10b5df232a",
        "to": "0x888361c3362712ba6bb442cbf714038fce0d9e49",
        "gas": "0x7bb448b",
        "value": "0x0",
        "input": "0x25d86ced0000000000000000000000007cb382ce1aa40fa9f9a59a632090c05dc28cae7b0000000000000000000000000000000000000000000000000000000000000001",
        "nonce": "0x34c",
        "chainId": "0x138b"
      },
      "additionalContracts": [],
      "isFixedGasLimit": false
    },
    {
      "hash": "0x51529dc7b041a3e783386b2249b0ab6ff3750a7aff81acef129a4fb9aa6317cb",
      "transactionType": "CALL",
      "contractName": null,
      "contractAddress": "0x888361c3362712ba6bb442cbf714038fce0d9e49",
      "function": "setGlobalWhitelist(address,bool)",
      "arguments": [
        "0xB288Ba5B5b80Dd0Fd83541ef2e5922f71121Fa13",
        "true"
      ],
      "transaction": {
        "from": "0x1234562eb0cd65e7d08e59f9f18d7c10b5df232a",
        "to": "0x888361c3362712ba6bb442cbf714038fce0d9e49",
        "gas": "0x7bb448b",
        "value": "0x0",
        "input": "0x25d86ced000000000000000000000000b288ba5b5b80dd0fd83541ef2e5922f71121fa130000000000000000000000000000000000000000000000000000000000000001",
        "nonce": "0x34d",
        "chainId": "0x138b"
      },
      "additionalContracts": [],
      "isFixedGasLimit": false
    },
    {
      "hash": "0x7ee138899fef771d3c2f0343a3da096618639f3aa13616ebe7a7443431c8e3c5",
      "transactionType": "CALL",
      "contractName": null,
      "contractAddress": "0x888361c3362712ba6bb442cbf714038fce0d9e49",
      "function": "setGlobalWhitelist(address,bool)",
      "arguments": [
        "0xC4a53c466Cfb62AecED03008B0162baaf36E0B03",
        "true"
      ],
      "transaction": {
        "from": "0x1234562eb0cd65e7d08e59f9f18d7c10b5df232a",
        "to": "0x888361c3362712ba6bb442cbf714038fce0d9e49",
        "gas": "0x7bb448b",
        "value": "0x0",
        "input": "0x25d86ced000000000000000000000000c4a53c466cfb62aeced03008b0162baaf36e0b030000000000000000000000000000000000000000000000000000000000000001",
        "nonce": "0x34e",
        "chainId": "0x138b"
      },
      "additionalContracts": [],
      "isFixedGasLimit": false
    },
    {
      "hash": "0x24f650198686e369f5f5fe57dd235907fb0b971e0d38afe88f5180b5d32f1672",
      "transactionType": "CALL",
      "contractName": null,
      "contractAddress": "0x888361c3362712ba6bb442cbf714038fce0d9e49",
      "function": "setGlobalWhitelist(address,bool)",
      "arguments": [
        "0x70Db6eFB75c898Ad1e194FDA2B8C6e73dbC944d6",
        "true"
      ],
      "transaction": {
        "from": "0x1234562eb0cd65e7d08e59f9f18d7c10b5df232a",
        "to": "0x888361c3362712ba6bb442cbf714038fce0d9e49",
        "gas": "0x7bb448b",
        "value": "0x0",
        "input": "0x25d86ced00000000000000000000000070db6efb75c898ad1e194fda2b8c6e73dbc944d60000000000000000000000000000000000000000000000000000000000000001",
        "nonce": "0x34f",
        "chainId": "0x138b"
      },
      "additionalContracts": [],
      "isFixedGasLimit": false
    },
    {
      "hash": "0xca610ba075ef4da1a29e3e21469b77b965ffdffd135198d8a1303585b5330c21",
      "transactionType": "CALL",
      "contractName": null,
      "contractAddress": "0x888361c3362712ba6bb442cbf714038fce0d9e49",
      "function": "setGlobalWhitelist(address,bool)",
      "arguments": [
        "0xEE589FBF85128abA6f42696dB2F28eA9EBddE173",
        "true"
      ],
      "transaction": {
        "from": "0x1234562eb0cd65e7d08e59f9f18d7c10b5df232a",
        "to": "0x888361c3362712ba6bb442cbf714038fce0d9e49",
        "gas": "0x7bb448b",
        "value": "0x0",
        "input": "0x25d86ced000000000000000000000000ee589fbf85128aba6f42696db2f28ea9ebdde1730000000000000000000000000000000000000000000000000000000000000001",
        "nonce": "0x350",
        "chainId": "0x138b"
      },
      "additionalContracts": [],
      "isFixedGasLimit": false
    },
    {
      "hash": "0x8a56f5a0246bf5d2814a3a7a46986c9a38990d42703d38b267d135e21c75277a",
      "transactionType": "CALL",
      "contractName": null,
      "contractAddress": "0x888361c3362712ba6bb442cbf714038fce0d9e49",
      "function": "setGlobalWhitelist(address,bool)",
      "arguments": [
        "0x2C036be74942c597e4d81D7050008dDc11becCEb",
        "true"
      ],
      "transaction": {
        "from": "0x1234562eb0cd65e7d08e59f9f18d7c10b5df232a",
        "to": "0x888361c3362712ba6bb442cbf714038fce0d9e49",
        "gas": "0x7ba69c1",
        "value": "0x0",
        "input": "0x25d86ced0000000000000000000000002c036be74942c597e4d81d7050008ddc11becceb0000000000000000000000000000000000000000000000000000000000000001",
        "nonce": "0x351",
        "chainId": "0x138b"
      },
      "additionalContracts": [],
      "isFixedGasLimit": false
    },
    {
      "hash": "0xabcddd03bd55faf28d4d591b295f2e6fd6e0e0ca3641199b201a8186aedc72bc",
      "transactionType": "CALL",
      "contractName": null,
      "contractAddress": "0x888361c3362712ba6bb442cbf714038fce0d9e49",
      "function": "setGlobalWhitelist(address,bool)",
      "arguments": [
        "0x90CdcBF4c4bc78dC440252211EFd744d0A4Dc4A1",
        "true"
      ],
      "transaction": {
        "from": "0x1234562eb0cd65e7d08e59f9f18d7c10b5df232a",
        "to": "0x888361c3362712ba6bb442cbf714038fce0d9e49",
        "gas": "0x7bb448b",
        "value": "0x0",
        "input": "0x25d86ced00000000000000000000000090cdcbf4c4bc78dc440252211efd744d0a4dc4a10000000000000000000000000000000000000000000000000000000000000001",
        "nonce": "0x352",
        "chainId": "0x138b"
      },
      "additionalContracts": [],
      "isFixedGasLimit": false
    },
    {
      "hash": "0x595ceecd962e57fa3ddd230867ca5dafe0765fbc17a227a793755a598da450e4",
      "transactionType": "CALL",
      "contractName": null,
      "contractAddress": "0x888361c3362712ba6bb442cbf714038fce0d9e49",
      "function": "setGlobalWhitelist(address,bool)",
      "arguments": [
        "0xced6Ceb47301F268d57fF07879DF45Fda80e6974",
        "true"
      ],
      "transaction": {
        "from": "0x1234562eb0cd65e7d08e59f9f18d7c10b5df232a",
        "to": "0x888361c3362712ba6bb442cbf714038fce0d9e49",
        "gas": "0x7bb448b",
        "value": "0x0",
        "input": "0x25d86ced000000000000000000000000ced6ceb47301f268d57ff07879df45fda80e69740000000000000000000000000000000000000000000000000000000000000001",
        "nonce": "0x353",
        "chainId": "0x138b"
      },
      "additionalContracts": [],
      "isFixedGasLimit": false
    },
    {
      "hash": "0x7acf17970addcd1d4a6ccb2d175b3d2b280fa9cd57f01d697b5616e4340f1b87",
      "transactionType": "CALL",
      "contractName": null,
      "contractAddress": "0x888361c3362712ba6bb442cbf714038fce0d9e49",
      "function": "setGlobalWhitelist(address,bool)",
      "arguments": [
        "0x782Ba48189AF93a0CF42766058DE83291f384bF3",
        "true"
      ],
      "transaction": {
        "from": "0x1234562eb0cd65e7d08e59f9f18d7c10b5df232a",
        "to": "0x888361c3362712ba6bb442cbf714038fce0d9e49",
        "gas": "0x7bb448b",
        "value": "0x0",
        "input": "0x25d86ced000000000000000000000000782ba48189af93a0cf42766058de83291f384bf30000000000000000000000000000000000000000000000000000000000000001",
        "nonce": "0x354",
        "chainId": "0x138b"
      },
      "additionalContracts": [],
      "isFixedGasLimit": false
    }
  ],
  "receipts": [
    {
      "status": "0x1",
      "cumulativeGasUsed": "0x49aa0ed",
      "logs": [],
      "logsBloom": "0x00000000000000000000000000000000000000000000000000000000000000000000000000000000000000000000000000000000000000000000000000000000000000000000000000000000000000000000000000000000000000000000000000000000000000000000000000000000000000000000000000000000000000000000000000000000000000000000000000000000000000000000000000000000000000000000000000000000000000000000000000000000000000000000000000000000000000000000000000000000000000000000000000000000000000000000000000000000000000000000000000000000000000000000000000000000",
      "type": "0x2",
      "transactionHash": "0x7e57ac6bc5199d31dfed67aa4988fc652d124a7702b6b619e0a1717a5d157868",
      "transactionIndex": "0x1",
      "blockHash": "0x902d5d495d9f0b3d5a9237a97271546fb2a8e6b56e3c19dcc9bf8cf2d7baee20",
      "blockNumber": "0x1f87189",
      "gasUsed": "0x499e9f4",
      "effectiveGasPrice": "0x1312d01",
      "from": "0x1234562eb0cd65e7d08e59f9f18d7c10b5df232a",
      "to": "0x888361c3362712ba6bb442cbf714038fce0d9e49",
      "contractAddress": null,
      "l1Fee": "0x7acc0",
      "l1FeeScalar": "0.01",
      "l1GasPrice": "0x8",
      "l1GasUsed": "0x878",
      "tokenRatio": "0xb54"
    },
    {
      "status": "0x1",
      "cumulativeGasUsed": "0xbe7b07e",
      "logs": [
        {
          "address": "0x888361c3362712ba6bb442cbf714038fce0d9e49",
          "topics": [
            "0x4d49d3f3f3e2ec61b682ac1aa8adb9e1945c29b4df4aab45492b365a611b7b9f",
            "0x0000000000000000000000000000000000000000000000000000000000014a34",
            "0x00000000000000000000000033c6f26da09502e6540043f030ae1f87f109cc99"
          ],
          "data": "0x0000000000000000000000000000000000000000000000000000000000000001",
          "blockHash": "0x4166cac77a63b1b6dcd436e39a2737ad243892168b0b0ae11681a9ac11559d74",
          "blockNumber": "0x1f8718d",
          "blockTimestamp": "0x695c65fb",
          "transactionHash": "0xb0747b87d9ffa26def52f1fbb95387f2f12e5cbf5c8c7fe14e16ccb098b10fd9",
          "transactionIndex": "0x2",
          "logIndex": "0x1",
          "removed": false
        }
      ],
      "logsBloom": "0x20000000000200000000000000000000000000000000000000000000000000000000000000000000000000000000000000000000000000000000000000000000000000800000000000400000000004000000000000800000000000000000000000000000000000000000008000000000000000000008000000000000000000000000000000000000000010000000000000000200100000000000000000000000000000000000000000000000000000000000000000000000000000000000000000000000000000000000000000000000000000000000000000000000000001000000000000000000000000000000000000000000000000000000000000000000",
      "type": "0x2",
      "transactionHash": "0xb0747b87d9ffa26def52f1fbb95387f2f12e5cbf5c8c7fe14e16ccb098b10fd9",
      "transactionIndex": "0x2",
      "blockHash": "0x4166cac77a63b1b6dcd436e39a2737ad243892168b0b0ae11681a9ac11559d74",
      "blockNumber": "0x1f8718d",
      "gasUsed": "0x5072411",
      "effectiveGasPrice": "0x1312d01",
      "from": "0x1234562eb0cd65e7d08e59f9f18d7c10b5df232a",
      "to": "0x888361c3362712ba6bb442cbf714038fce0d9e49",
      "contractAddress": null,
      "l1Fee": "0x99280",
      "l1FeeScalar": "0.01",
      "l1GasPrice": "0x8",
      "l1GasUsed": "0xa90",
      "tokenRatio": "0xb54"
    },
    {
      "status": "0x1",
      "cumulativeGasUsed": "0x509b9c4",
      "logs": [
        {
          "address": "0x888361c3362712ba6bb442cbf714038fce0d9e49",
          "topics": [
            "0x4d49d3f3f3e2ec61b682ac1aa8adb9e1945c29b4df4aab45492b365a611b7b9f",
            "0x0000000000000000000000000000000000000000000000000000000000014a34",
            "0x0000000000000000000000007cb382ce1aa40fa9f9a59a632090c05dc28cae7b"
          ],
          "data": "0x0000000000000000000000000000000000000000000000000000000000000001",
          "blockHash": "0xe13b2cfb3ed4aa3b473cde1d276258b06e9816441fd37257fd7d08e892845347",
          "blockNumber": "0x1f87192",
          "blockTimestamp": "0x695c6605",
          "transactionHash": "0x691a7ddb38eafa5f122a32f2ebef3604bd411f06afd8f3f09c9db1ea97de7da6",
          "transactionIndex": "0x1",
          "logIndex": "0x0",
          "removed": false
        }
      ],
      "logsBloom": "0x20000000000200000000000000000000000000000000000000000000000000000000000000000000000800000000000000000000000000000000000000000000000000800000000000400000000004000000004000800000000002000000000000000000000000000000008000000000000000000000000000000000000000000000000000000000000000000000000000000000100000000000000000000000000000000000000000000000000000000000000000000000000000000000000000000000000000000000000000000000000000000000000000000000000001000000000000000000000000000000000000000000000000000000000000000000",
      "type": "0x2",
      "transactionHash": "0x691a7ddb38eafa5f122a32f2ebef3604bd411f06afd8f3f09c9db1ea97de7da6",
      "transactionIndex": "0x1",
      "blockHash": "0xe13b2cfb3ed4aa3b473cde1d276258b06e9816441fd37257fd7d08e892845347",
      "blockNumber": "0x1f87192",
      "gasUsed": "0x50902cb",
      "effectiveGasPrice": "0x1312d01",
      "from": "0x1234562eb0cd65e7d08e59f9f18d7c10b5df232a",
      "to": "0x888361c3362712ba6bb442cbf714038fce0d9e49",
      "contractAddress": null,
      "l1Fee": "0x99feb",
      "l1FeeScalar": "0.01",
      "l1GasPrice": "0x8",
      "l1GasUsed": "0xa9c",
      "tokenRatio": "0xb57"
    },
    {
      "status": "0x1",
      "cumulativeGasUsed": "0x509b9c4",
      "logs": [
        {
          "address": "0x888361c3362712ba6bb442cbf714038fce0d9e49",
          "topics": [
            "0x4d49d3f3f3e2ec61b682ac1aa8adb9e1945c29b4df4aab45492b365a611b7b9f",
            "0x0000000000000000000000000000000000000000000000000000000000014a34",
            "0x000000000000000000000000b288ba5b5b80dd0fd83541ef2e5922f71121fa13"
          ],
          "data": "0x0000000000000000000000000000000000000000000000000000000000000001",
          "blockHash": "0x78fe8c5a963652287fb07713ab520d6f7b60f38d393846da20b213cb122cb762",
          "blockNumber": "0x1f87195",
          "blockTimestamp": "0x695c660b",
          "transactionHash": "0x75ab92887b4069fa88512e0c54062be5894a967fc2285b1db93b6717eee3cc3f",
          "transactionIndex": "0x1",
          "logIndex": "0x0",
          "removed": false
        }
      ],
      "logsBloom": "0x20000000000200000000000000000000000000000000000000000000000000000000000000000000000000000000000000000000000000000000000000000000000000800000000000400000000004000000000000800000000000000000000000000000000000000000008000000000000000000000000000000000000000000000000000000000000000000000000000000000100000000002000000000400000000000000000000000000000000000000000000000000000000000000000000000000000000000000000000000000000000000000000000000000000001000000000000000000000000000000000000000000000000800000000000000000",
      "type": "0x2",
      "transactionHash": "0x75ab92887b4069fa88512e0c54062be5894a967fc2285b1db93b6717eee3cc3f",
      "transactionIndex": "0x1",
      "blockHash": "0x78fe8c5a963652287fb07713ab520d6f7b60f38d393846da20b213cb122cb762",
      "blockNumber": "0x1f87195",
      "gasUsed": "0x50902cb",
      "effectiveGasPrice": "0x1312d01",
      "from": "0x1234562eb0cd65e7d08e59f9f18d7c10b5df232a",
      "to": "0x888361c3362712ba6bb442cbf714038fce0d9e49",
      "contractAddress": null,
      "l1Fee": "0x99508",
      "l1FeeScalar": "0.01",
      "l1GasPrice": "0x8",
      "l1GasUsed": "0xa90",
      "tokenRatio": "0xb57"
    },
    {
      "status": "0x1",
      "cumulativeGasUsed": "0x509cf98",
      "logs": [
        {
          "address": "0x888361c3362712ba6bb442cbf714038fce0d9e49",
          "topics": [
            "0x4d49d3f3f3e2ec61b682ac1aa8adb9e1945c29b4df4aab45492b365a611b7b9f",
            "0x0000000000000000000000000000000000000000000000000000000000014a34",
            "0x000000000000000000000000c4a53c466cfb62aeced03008b0162baaf36e0b03"
          ],
          "data": "0x0000000000000000000000000000000000000000000000000000000000000001",
          "blockHash": "0xa826d3ecb5c27a99d9e85bf2c9d0d790d51189294427918159f6a98725f66e2d",
          "blockNumber": "0x1f87199",
          "blockTimestamp": "0x695c6613",
          "transactionHash": "0x9913ad7aa391facc0aaf9c724cbe9899cee05cb9ff1d287321dcee8cfd4273da",
          "transactionIndex": "0x1",
          "logIndex": "0x0",
          "removed": false
        }
      ],
      "logsBloom": "0x20000000000200000000000000000000000000000000000000000000000000000000000000000000000000000000000000000000000000000000000000000000000000800000000000400000000004000000000000800000000000000000000000000004000000000000008000000000000000000000000000000000000000000000000000000000000000040000000000000000100000000000000000000000000000000000400000000000000000000000000000000000000000000000000000000000000000000000000000000000000000000000000000000000000001000000000000000000000000000000000000000000000000000000000000000000",
      "type": "0x2",
      "transactionHash": "0x9913ad7aa391facc0aaf9c724cbe9899cee05cb9ff1d287321dcee8cfd4273da",
      "transactionIndex": "0x1",
      "blockHash": "0xa826d3ecb5c27a99d9e85bf2c9d0d790d51189294427918159f6a98725f66e2d",
      "blockNumber": "0x1f87199",
      "gasUsed": "0x50902cb",
      "effectiveGasPrice": "0x1312d01",
      "from": "0x1234562eb0cd65e7d08e59f9f18d7c10b5df232a",
      "to": "0x888361c3362712ba6bb442cbf714038fce0d9e49",
      "contractAddress": null,
      "l1Fee": "0x99508",
      "l1FeeScalar": "0.01",
      "l1GasPrice": "0x8",
      "l1GasUsed": "0xa90",
      "tokenRatio": "0xb57"
    },
    {
      "status": "0x1",
      "cumulativeGasUsed": "0x509b9c4",
      "logs": [
        {
          "address": "0x888361c3362712ba6bb442cbf714038fce0d9e49",
          "topics": [
            "0x4d49d3f3f3e2ec61b682ac1aa8adb9e1945c29b4df4aab45492b365a611b7b9f",
            "0x0000000000000000000000000000000000000000000000000000000000014a34",
            "0x00000000000000000000000070db6efb75c898ad1e194fda2b8c6e73dbc944d6"
          ],
          "data": "0x0000000000000000000000000000000000000000000000000000000000000001",
          "blockHash": "0xf2fd56e2e5ab105949d45a0da144aac18bed07237357a34b0be8307c9dd9dac0",
          "blockNumber": "0x1f8719d",
          "blockTimestamp": "0x695c661b",
          "transactionHash": "0xd762f7e84eda519d2150242e25fbda20b69ddce2ad539c1e60da769c3bb92c23",
          "transactionIndex": "0x1",
          "logIndex": "0x0",
          "removed": false
        }
      ],
      "logsBloom": "0x20000000000200000000000000000000000000000000000000000000000000000000000000000000000000000000000000080000000000000000000000000000000000800000000000400000000004000000000000800000000000000000000000000000000000000000008000000000000000000000000000000000000000000000000000000000000000000000000000000000100400000000000000000000000000000000000000000000000000000000000000000000000000000000000000000000000000000000000000000000000000000000000000080000000001000000000000000000000000000000000000000000000000000000000000000000",
      "type": "0x2",
      "transactionHash": "0xd762f7e84eda519d2150242e25fbda20b69ddce2ad539c1e60da769c3bb92c23",
      "transactionIndex": "0x1",
      "blockHash": "0xf2fd56e2e5ab105949d45a0da144aac18bed07237357a34b0be8307c9dd9dac0",
      "blockNumber": "0x1f8719d",
      "gasUsed": "0x50902cb",
      "effectiveGasPrice": "0x1312d01",
      "from": "0x1234562eb0cd65e7d08e59f9f18d7c10b5df232a",
      "to": "0x888361c3362712ba6bb442cbf714038fce0d9e49",
      "contractAddress": null,
      "l1Fee": "0x99508",
      "l1FeeScalar": "0.01",
      "l1GasPrice": "0x8",
      "l1GasUsed": "0xa90",
      "tokenRatio": "0xb57"
    },
    {
      "status": "0x1",
      "cumulativeGasUsed": "0x509b9b8",
      "logs": [
        {
          "address": "0x888361c3362712ba6bb442cbf714038fce0d9e49",
          "topics": [
            "0x4d49d3f3f3e2ec61b682ac1aa8adb9e1945c29b4df4aab45492b365a611b7b9f",
            "0x0000000000000000000000000000000000000000000000000000000000014a34",
            "0x000000000000000000000000ee589fbf85128aba6f42696db2f28ea9ebdde173"
          ],
          "data": "0x0000000000000000000000000000000000000000000000000000000000000001",
          "blockHash": "0x685c167e120ecb85cc63162c743d104593c19f460b035a54716258d4136d4fbd",
          "blockNumber": "0x1f871a1",
          "blockTimestamp": "0x695c6623",
          "transactionHash": "0xccc53df3f0b5c3ab26a31d28507389c368e7f9381e2915d0a25a948a4f48dcae",
          "transactionIndex": "0x1",
          "logIndex": "0x0",
          "removed": false
        }
      ],
      "logsBloom": "0x20000000000200000000000020000000000000000000000000000000000000000000000000000000000000000000000000000000000000000000000000000000000000800000000000400000000004000000000000800000000000000000000000000000000000000000008000000000000000000000000000000000000000000000000000000000000000000000000000000000100000000000000000000000000000000000000000000000000000000000000000000000000000000000000000000000000000000000000000000000000000000000400000000000000001000000000000000000000000000080000000000000000000000000000000000000",
      "type": "0x2",
      "transactionHash": "0xccc53df3f0b5c3ab26a31d28507389c368e7f9381e2915d0a25a948a4f48dcae",
      "transactionIndex": "0x1",
      "blockHash": "0x685c167e120ecb85cc63162c743d104593c19f460b035a54716258d4136d4fbd",
      "blockNumber": "0x1f871a1",
      "gasUsed": "0x50902cb",
      "effectiveGasPrice": "0x1312d01",
      "from": "0x1234562eb0cd65e7d08e59f9f18d7c10b5df232a",
      "to": "0x888361c3362712ba6bb442cbf714038fce0d9e49",
      "contractAddress": null,
      "l1Fee": "0x99feb",
      "l1FeeScalar": "0.01",
      "l1GasPrice": "0x8",
      "l1GasUsed": "0xa9c",
      "tokenRatio": "0xb57"
    },
    {
      "status": "0x1",
      "cumulativeGasUsed": "0x5094752",
      "logs": [
        {
          "address": "0x888361c3362712ba6bb442cbf714038fce0d9e49",
          "topics": [
            "0x4d49d3f3f3e2ec61b682ac1aa8adb9e1945c29b4df4aab45492b365a611b7b9f",
            "0x0000000000000000000000000000000000000000000000000000000000014a34",
            "0x0000000000000000000000002c036be74942c597e4d81d7050008ddc11becceb"
          ],
          "data": "0x0000000000000000000000000000000000000000000000000000000000000001",
          "blockHash": "0xa73e89294764a5e7005500d8b6d054c9e152d06f1080d1923d7f9f9031681a63",
          "blockNumber": "0x1f871a5",
          "blockTimestamp": "0x695c662b",
          "transactionHash": "0xd0a905fe4b9aaf84d3f8c7cd3880a4cfd5cc7f8f9c160b1979604cda1a1737d1",
          "transactionIndex": "0x1",
          "logIndex": "0x0",
          "removed": false
        }
      ],
      "logsBloom": "0x20000000000200000000000000000000000000000000000000000000000000000000000000000000000000000000000000000000000000000000000000000000000000800000000000400000000004000000000000800000000010000000000000000000000000000000008000000000000000000000000000000000000000000000000000000000000000000000000000000000100000000000000000000000000000000000000000000000000000008000000000000000000000000000000000000000000000000000000000000000000000000000000000000000000001000000000000000000000000000000000000000000000000000000000000000002",
      "type": "0x2",
      "transactionHash": "0xd0a905fe4b9aaf84d3f8c7cd3880a4cfd5cc7f8f9c160b1979604cda1a1737d1",
      "transactionIndex": "0x1",
      "blockHash": "0xa73e89294764a5e7005500d8b6d054c9e152d06f1080d1923d7f9f9031681a63",
      "blockNumber": "0x1f871a5",
      "gasUsed": "0x5087a85",
      "effectiveGasPrice": "0x1312d01",
      "from": "0x1234562eb0cd65e7d08e59f9f18d7c10b5df232a",
      "to": "0x888361c3362712ba6bb442cbf714038fce0d9e49",
      "contractAddress": null,
      "l1Fee": "0x99508",
      "l1FeeScalar": "0.01",
      "l1GasPrice": "0x8",
      "l1GasUsed": "0xa90",
      "tokenRatio": "0xb57"
    },
    {
      "status": "0x1",
      "cumulativeGasUsed": "0x509b9c4",
      "logs": [
        {
          "address": "0x888361c3362712ba6bb442cbf714038fce0d9e49",
          "topics": [
            "0x4d49d3f3f3e2ec61b682ac1aa8adb9e1945c29b4df4aab45492b365a611b7b9f",
            "0x0000000000000000000000000000000000000000000000000000000000014a34",
            "0x00000000000000000000000090cdcbf4c4bc78dc440252211efd744d0a4dc4a1"
          ],
          "data": "0x0000000000000000000000000000000000000000000000000000000000000001",
          "blockHash": "0x31151a90b863eedf61b1e697c27dc650e756921d74147b96807cdac447101536",
          "blockNumber": "0x1f871a8",
          "blockTimestamp": "0x695c6631",
          "transactionHash": "0x1fea2b0aa6c96045b03c1eeaeb4eceadad64d83d430f2304d264af16b5947827",
          "transactionIndex": "0x1",
          "logIndex": "0x0",
          "removed": false
        }
      ],
      "logsBloom": "0x20000000000200000000000000000000000000000000000010000000000000000000000000000000000000000000000000000000000000200000000000000000000000800000000000400000000004000000000000800000000000000000000000000000000000000000008000000000000000000000000000000000000000000000000000000000000000000000000000000000100000000000000000000000000000000000000000000000000000000000000000000000000000000000000000000000000000000000000000000000000000000000000000000000000001000000000000000000000000080000000000000000000000000000000000000000",
      "type": "0x2",
      "transactionHash": "0x1fea2b0aa6c96045b03c1eeaeb4eceadad64d83d430f2304d264af16b5947827",
      "transactionIndex": "0x1",
      "blockHash": "0x31151a90b863eedf61b1e697c27dc650e756921d74147b96807cdac447101536",
      "blockNumber": "0x1f871a8",
      "gasUsed": "0x50902cb",
      "effectiveGasPrice": "0x1312d01",
      "from": "0x1234562eb0cd65e7d08e59f9f18d7c10b5df232a",
      "to": "0x888361c3362712ba6bb442cbf714038fce0d9e49",
      "contractAddress": null,
      "l1Fee": "0x99feb",
      "l1FeeScalar": "0.01",
      "l1GasPrice": "0x8",
      "l1GasUsed": "0xa9c",
      "tokenRatio": "0xb57"
    },
    {
      "status": "0x1",
      "cumulativeGasUsed": "0x509fc90",
      "logs": [
        {
          "address": "0x888361c3362712ba6bb442cbf714038fce0d9e49",
          "topics": [
            "0x4d49d3f3f3e2ec61b682ac1aa8adb9e1945c29b4df4aab45492b365a611b7b9f",
            "0x0000000000000000000000000000000000000000000000000000000000014a34",
            "0x000000000000000000000000ced6ceb47301f268d57ff07879df45fda80e6974"
          ],
          "data": "0x0000000000000000000000000000000000000000000000000000000000000001",
          "blockHash": "0xa8de8436627c3a731cb11b1e4f065af87757dc9bd365773989468e9b10d8f198",
          "blockNumber": "0x1f871ac",
          "blockTimestamp": "0x695c6639",
          "transactionHash": "0x0d6733800bedb122bfacb4d63c2866191514a7d7a3c3cc14ffee49256946ce48",
          "transactionIndex": "0x1",
          "logIndex": "0x0",
          "removed": false
        }
      ],
      "logsBloom": "0x20000000000200000000000800000000000000000000000000000000000000000000000000000000000000000080000000000000000000000000000000000000000000800000000000400000000004000000000000800000000000000000000000000000000000000000008000000000000000000000000000000000000000000000000000000000000000000000000000000000100000000000000000000000000000000000000000000000000000000000000000000000000000000000000000000000000000000000000000000000000000000000002000000000000001000000000000000000000000000000000000000000000000000000000000000000",
      "type": "0x2",
      "transactionHash": "0x0d6733800bedb122bfacb4d63c2866191514a7d7a3c3cc14ffee49256946ce48",
      "transactionIndex": "0x1",
      "blockHash": "0xa8de8436627c3a731cb11b1e4f065af87757dc9bd365773989468e9b10d8f198",
      "blockNumber": "0x1f871ac",
      "gasUsed": "0x50902cb",
      "effectiveGasPrice": "0x1312d01",
      "from": "0x1234562eb0cd65e7d08e59f9f18d7c10b5df232a",
      "to": "0x888361c3362712ba6bb442cbf714038fce0d9e49",
      "contractAddress": null,
      "l1Fee": "0x99feb",
      "l1FeeScalar": "0.01",
      "l1GasPrice": "0x8",
      "l1GasUsed": "0xa9c",
      "tokenRatio": "0xb57"
    },
    {
      "status": "0x1",
      "cumulativeGasUsed": "0x509b9c4",
      "logs": [
        {
          "address": "0x888361c3362712ba6bb442cbf714038fce0d9e49",
          "topics": [
            "0x4d49d3f3f3e2ec61b682ac1aa8adb9e1945c29b4df4aab45492b365a611b7b9f",
            "0x0000000000000000000000000000000000000000000000000000000000014a34",
            "0x000000000000000000000000782ba48189af93a0cf42766058de83291f384bf3"
          ],
          "data": "0x0000000000000000000000000000000000000000000000000000000000000001",
          "blockHash": "0x989ca3e4575a3ea01eaf6a9c9e5aefc272b6c36d42371a08a0ebce8db21b94c7",
          "blockNumber": "0x1f871b0",
          "blockTimestamp": "0x695c6641",
          "transactionHash": "0xdb5ac1c8268442491c1520ea87ee54b336a2bfd8822b7fb30bc184555d27cb1f",
          "transactionIndex": "0x1",
          "logIndex": "0x0",
          "removed": false
        }
      ],
      "logsBloom": "0x20000000000200000000000000000000000020000000000000000000000000000000000000000000000000000000000000000000000000000000000000000000000000800000000000400000000004000000000000800000000000000000000000000000000000000000008000000000000000000000000000000000000000000000000100000000000000000000000000000000100000000000000000000000000000000000000000008000000000000000000000000000000000000000000000000000000000000000000000000000000000000000000000000000000001000000000000000000000000000000000000000000000000000000000000000000",
      "type": "0x2",
      "transactionHash": "0xdb5ac1c8268442491c1520ea87ee54b336a2bfd8822b7fb30bc184555d27cb1f",
      "transactionIndex": "0x1",
      "blockHash": "0x989ca3e4575a3ea01eaf6a9c9e5aefc272b6c36d42371a08a0ebce8db21b94c7",
      "blockNumber": "0x1f871b0",
      "gasUsed": "0x50902cb",
      "effectiveGasPrice": "0x1312d01",
      "from": "0x1234562eb0cd65e7d08e59f9f18d7c10b5df232a",
      "to": "0x888361c3362712ba6bb442cbf714038fce0d9e49",
      "contractAddress": null,
      "l1Fee": "0x99feb",
      "l1FeeScalar": "0.01",
      "l1GasPrice": "0x8",
      "l1GasUsed": "0xa9c",
      "tokenRatio": "0xb57"
    },
    {
      "status": "0x1",
      "cumulativeGasUsed": "0x4cf280a",
      "logs": [
        {
          "address": "0x888361c3362712ba6bb442cbf714038fce0d9e49",
          "topics": [
            "0xac90355684e2710fa34c2c7d500018678b146ea2d56ddc331c63d242ee8bf385",
            "0x00000000000000000000000033c6f26da09502e6540043f030ae1f87f109cc99"
          ],
          "data": "0x0000000000000000000000000000000000000000000000000000000000000001",
          "blockHash": "0x79d3b68370d7e5144a82078a005012ba94b032f6985a3232e0f6d51eff33b61e",
          "blockNumber": "0x1f871b4",
          "blockTimestamp": "0x695c6649",
          "transactionHash": "0x42cfb929ad0b69b8ddd29a37f9d06d6727972e34bf9de6fe2649f45d407d786c",
          "transactionIndex": "0x1",
          "logIndex": "0x0",
          "removed": false
        }
      ],
      "logsBloom": "0x20000000000000000200000000000000000000000000000000000000000000000000000000000000000000000000000000000000000000000010000000000000000000800000000000000000000000000000000000000000000000000000000000000000000000000000000000000000000000000008000000000000002000000000000000000000000010000000000000000200100000000000000000000000000000000000000000000000000000000000000000000000000000000000000000000000000000000000000000000000000000000000000000000000000000000000000000000000000000000000000000000000000000000000000000000000",
      "type": "0x2",
      "transactionHash": "0x42cfb929ad0b69b8ddd29a37f9d06d6727972e34bf9de6fe2649f45d407d786c",
      "transactionIndex": "0x1",
      "blockHash": "0x79d3b68370d7e5144a82078a005012ba94b032f6985a3232e0f6d51eff33b61e",
      "blockNumber": "0x1f871b4",
      "gasUsed": "0x4ce7111",
      "effectiveGasPrice": "0x1312d01",
      "from": "0x1234562eb0cd65e7d08e59f9f18d7c10b5df232a",
      "to": "0x888361c3362712ba6bb442cbf714038fce0d9e49",
      "contractAddress": null,
      "l1Fee": "0x90041",
      "l1FeeScalar": "0.01",
      "l1GasPrice": "0x8",
      "l1GasUsed": "0x9ec",
      "tokenRatio": "0xb57"
    },
    {
      "status": "0x1",
      "cumulativeGasUsed": "0x4cd3a17",
      "logs": [
        {
          "address": "0x888361c3362712ba6bb442cbf714038fce0d9e49",
          "topics": [
            "0xac90355684e2710fa34c2c7d500018678b146ea2d56ddc331c63d242ee8bf385",
            "0x0000000000000000000000007cb382ce1aa40fa9f9a59a632090c05dc28cae7b"
          ],
          "data": "0x0000000000000000000000000000000000000000000000000000000000000001",
          "blockHash": "0xd4e7217c790c855f803cbd9f0345e6d09065ba3d77d0b03098e43dd179b0ee1f",
          "blockNumber": "0x1f871b7",
          "blockTimestamp": "0x695c664f",
          "transactionHash": "0x4617d6fffd2ac0bc81f3fdf26d4b49932a848f46cf12ef6aa3f76d0b447c4baf",
          "transactionIndex": "0x1",
          "logIndex": "0x0",
          "removed": false
        }
      ],
      "logsBloom": "0x20000000000000000200000000000000000000000000000000000000000000000000000000000000000800000000000000000000000000000010000000000000000000800000000000000000000000000000004000000000000002000000000000000000000000000000000000000000000000000000000000000000002000000000000000000000000000000000000000000000100000000000000000000000000000000000000000000000000000000000000000000000000000000000000000000000000000000000000000000000000000000000000000000000000000000000000000000000000000000000000000000000000000000000000000000000",
      "type": "0x2",
      "transactionHash": "0x4617d6fffd2ac0bc81f3fdf26d4b49932a848f46cf12ef6aa3f76d0b447c4baf",
      "transactionIndex": "0x1",
      "blockHash": "0xd4e7217c790c855f803cbd9f0345e6d09065ba3d77d0b03098e43dd179b0ee1f",
      "blockNumber": "0x1f871b7",
      "gasUsed": "0x4cc6d4a",
      "effectiveGasPrice": "0x1312d01",
      "from": "0x1234562eb0cd65e7d08e59f9f18d7c10b5df232a",
      "to": "0x888361c3362712ba6bb442cbf714038fce0d9e49",
      "contractAddress": null,
      "l1Fee": "0x9065b",
      "l1FeeScalar": "0.01",
      "l1GasPrice": "0x8",
      "l1GasUsed": "0x9f8",
      "tokenRatio": "0xb51"
    },
    {
      "status": "0x1",
      "cumulativeGasUsed": "0x4cd24e5",
      "logs": [
        {
          "address": "0x888361c3362712ba6bb442cbf714038fce0d9e49",
          "topics": [
            "0xac90355684e2710fa34c2c7d500018678b146ea2d56ddc331c63d242ee8bf385",
            "0x000000000000000000000000b288ba5b5b80dd0fd83541ef2e5922f71121fa13"
          ],
          "data": "0x0000000000000000000000000000000000000000000000000000000000000001",
          "blockHash": "0x148de6f22d0b4802c46aa65dfd2fcaca3c0ebf021602df4a145b752374e8db7a",
          "blockNumber": "0x1f871bb",
          "blockTimestamp": "0x695c6657",
          "transactionHash": "0x51529dc7b041a3e783386b2249b0ab6ff3750a7aff81acef129a4fb9aa6317cb",
          "transactionIndex": "0x1",
          "logIndex": "0x0",
          "removed": false
        }
      ],
      "logsBloom": "0x20000000000000000200000000000000000000000000000000000000000000000000000000000000000000000000000000000000000000000010000000000000000000800000000000000000000000000000000000000000000000000000000000000000000000000000000000000000000000000000000000000000002000000000000000000000000000000000000000000000100000000002000000000400000000000000000000000000000000000000000000000000000000000000000000000000000000000000000000000000000000000000000000000000000000000000000000000000000000000000000000000000000000800000000000000000",
      "type": "0x2",
      "transactionHash": "0x51529dc7b041a3e783386b2249b0ab6ff3750a7aff81acef129a4fb9aa6317cb",
      "transactionIndex": "0x1",
      "blockHash": "0x148de6f22d0b4802c46aa65dfd2fcaca3c0ebf021602df4a145b752374e8db7a",
      "blockNumber": "0x1f871bb",
      "gasUsed": "0x4cc6dec",
      "effectiveGasPrice": "0x1312d01",
      "from": "0x1234562eb0cd65e7d08e59f9f18d7c10b5df232a",
      "to": "0x888361c3362712ba6bb442cbf714038fce0d9e49",
      "contractAddress": null,
      "l1Fee": "0x9065b",
      "l1FeeScalar": "0.01",
      "l1GasPrice": "0x8",
      "l1GasUsed": "0x9f8",
      "tokenRatio": "0xb51"
    },
    {
      "status": "0x1",
      "cumulativeGasUsed": "0x4cd24e5",
      "logs": [
        {
          "address": "0x888361c3362712ba6bb442cbf714038fce0d9e49",
          "topics": [
            "0xac90355684e2710fa34c2c7d500018678b146ea2d56ddc331c63d242ee8bf385",
            "0x000000000000000000000000c4a53c466cfb62aeced03008b0162baaf36e0b03"
          ],
          "data": "0x0000000000000000000000000000000000000000000000000000000000000001",
          "blockHash": "0x99d84faf979b8ee39c6c1654fb8d1af3be6e27f9e2e1810b9df050e2fdec5864",
          "blockNumber": "0x1f871bf",
          "blockTimestamp": "0x695c665f",
          "transactionHash": "0x7ee138899fef771d3c2f0343a3da096618639f3aa13616ebe7a7443431c8e3c5",
          "transactionIndex": "0x1",
          "logIndex": "0x0",
          "removed": false
        }
      ],
      "logsBloom": "0x20000000000000000200000000000000000000000000000000000000000000000000000000000000000000000000000000000000000000000010000000000000000000800000000000000000000000000000000000000000000000000000000000000004000000000000000000000000000000000000000000000000002000000000000000000000000000040000000000000000100000000000000000000000000000000000400000000000000000000000000000000000000000000000000000000000000000000000000000000000000000000000000000000000000000000000000000000000000000000000000000000000000000000000000000000000",
      "type": "0x2",
      "transactionHash": "0x7ee138899fef771d3c2f0343a3da096618639f3aa13616ebe7a7443431c8e3c5",
      "transactionIndex": "0x1",
      "blockHash": "0x99d84faf979b8ee39c6c1654fb8d1af3be6e27f9e2e1810b9df050e2fdec5864",
      "blockNumber": "0x1f871bf",
      "gasUsed": "0x4cc6dec",
      "effectiveGasPrice": "0x1312d01",
      "from": "0x1234562eb0cd65e7d08e59f9f18d7c10b5df232a",
      "to": "0x888361c3362712ba6bb442cbf714038fce0d9e49",
      "contractAddress": null,
      "l1Fee": "0x8fb7e",
      "l1FeeScalar": "0.01",
      "l1GasPrice": "0x8",
      "l1GasUsed": "0x9ec",
      "tokenRatio": "0xb51"
    },
    {
      "status": "0x1",
      "cumulativeGasUsed": "0x4cf85b3",
      "logs": [
        {
          "address": "0x888361c3362712ba6bb442cbf714038fce0d9e49",
          "topics": [
            "0xac90355684e2710fa34c2c7d500018678b146ea2d56ddc331c63d242ee8bf385",
            "0x00000000000000000000000070db6efb75c898ad1e194fda2b8c6e73dbc944d6"
          ],
          "data": "0x0000000000000000000000000000000000000000000000000000000000000001",
          "blockHash": "0x6223c6d9e034a5388b26d751057138eaa64681a34721be00cd0a1df1060b9f7f",
          "blockNumber": "0x1f871c4",
          "blockTimestamp": "0x695c6669",
          "transactionHash": "0x24f650198686e369f5f5fe57dd235907fb0b971e0d38afe88f5180b5d32f1672",
          "transactionIndex": "0x1",
          "logIndex": "0x0",
          "removed": false
        }
      ],
      "logsBloom": "0x20000000000000000200000000000000000000000000000000000000000000000000000000000000000000000000000000080000000000000010000000000000000000800000000000000000000000000000000000000000000000000000000000000000000000000000000000000000000000000000000000000000002000000000000000000000000000000000000000000000100400000000000000000000000000000000000000000000000000000000000000000000000000000000000000000000000000000000000000000000000000000000000000080000000000000000000000000000000000000000000000000000000000000000000000000000",
      "type": "0x2",
      "transactionHash": "0x24f650198686e369f5f5fe57dd235907fb0b971e0d38afe88f5180b5d32f1672",
      "transactionIndex": "0x1",
      "blockHash": "0x6223c6d9e034a5388b26d751057138eaa64681a34721be00cd0a1df1060b9f7f",
      "blockNumber": "0x1f871c4",
      "gasUsed": "0x4ce8bee",
      "effectiveGasPrice": "0x1312d01",
      "from": "0x1234562eb0cd65e7d08e59f9f18d7c10b5df232a",
      "to": "0x888361c3362712ba6bb442cbf714038fce0d9e49",
      "contractAddress": null,
      "l1Fee": "0x90a58",
      "l1FeeScalar": "0.01",
      "l1GasPrice": "0x8",
      "l1GasUsed": "0x9f8",
      "tokenRatio": "0xb56"
    },
    {
      "status": "0x1",
      "cumulativeGasUsed": "0x4cf409f",
      "logs": [
        {
          "address": "0x888361c3362712ba6bb442cbf714038fce0d9e49",
          "topics": [
            "0xac90355684e2710fa34c2c7d500018678b146ea2d56ddc331c63d242ee8bf385",
            "0x000000000000000000000000ee589fbf85128aba6f42696db2f28ea9ebdde173"
          ],
          "data": "0x0000000000000000000000000000000000000000000000000000000000000001",
          "blockHash": "0xc729fbcac44c6ca7daf0fb600d6c098ab80fd2bf0480001d0c8f736dfbd7cb1d",
          "blockNumber": "0x1f871c7",
          "blockTimestamp": "0x695c666f",
          "transactionHash": "0xca610ba075ef4da1a29e3e21469b77b965ffdffd135198d8a1303585b5330c21",
          "transactionIndex": "0x1",
          "logIndex": "0x0",
          "removed": false
        }
      ],
      "logsBloom": "0x20000000000000000200000020000000000000000000000000000000000000000000000000000000000000000000000000000000000000000010000000000000000000800000000000000000000000000000000000000000000000000000000000000000000000000000000000000000000000000000000000000000002000000000000000000000000000000000000000000000100000000000000000000000000000000000000000000000000000000000000000000000000000000000000000000000000000000000000000000000000000000000400000000000000000000000000000000000000000000080000000000000000000000000000000000000",
      "type": "0x2",
      "transactionHash": "0xca610ba075ef4da1a29e3e21469b77b965ffdffd135198d8a1303585b5330c21",
      "transactionIndex": "0x1",
      "blockHash": "0xc729fbcac44c6ca7daf0fb600d6c098ab80fd2bf0480001d0c8f736dfbd7cb1d",
      "blockNumber": "0x1f871c7",
      "gasUsed": "0x4ce89a6",
      "effectiveGasPrice": "0x1312d01",
      "from": "0x1234562eb0cd65e7d08e59f9f18d7c10b5df232a",
      "to": "0x888361c3362712ba6bb442cbf714038fce0d9e49",
      "contractAddress": null,
      "l1Fee": "0x90a58",
      "l1FeeScalar": "0.01",
      "l1GasPrice": "0x8",
      "l1GasUsed": "0x9f8",
      "tokenRatio": "0xb56"
    },
    {
      "status": "0x1",
      "cumulativeGasUsed": "0x4d06c3e",
      "logs": [
        {
          "address": "0x888361c3362712ba6bb442cbf714038fce0d9e49",
          "topics": [
            "0xac90355684e2710fa34c2c7d500018678b146ea2d56ddc331c63d242ee8bf385",
            "0x0000000000000000000000002c036be74942c597e4d81d7050008ddc11becceb"
          ],
          "data": "0x0000000000000000000000000000000000000000000000000000000000000001",
          "blockHash": "0xdc4f7c511da65cd399f2ab0119121730cd34cb94756002a6d575d45da18a1054",
          "blockNumber": "0x1f871cb",
          "blockTimestamp": "0x695c6677",
          "transactionHash": "0x8a56f5a0246bf5d2814a3a7a46986c9a38990d42703d38b267d135e21c75277a",
          "transactionIndex": "0x1",
          "logIndex": "0x0",
          "removed": false
        }
      ],
      "logsBloom": "0x20000000000000000200000000000000000000000000000000000000000000000000000000000000000000000000000000000000000000000010000000000000000000800000000000000000000000000000000000000000000010000000000000000000000000000000000000000000000000000000000000000000002000000000000000000000000000000000000000000000100000000000000000000000000000000000000000000000000000008000000000000000000000000000000000000000000000000000000000000000000000000000000000000000000000000000000000000000000000000000000000000000000000000000000000000002",
      "type": "0x2",
      "transactionHash": "0x8a56f5a0246bf5d2814a3a7a46986c9a38990d42703d38b267d135e21c75277a",
      "transactionIndex": "0x1",
      "blockHash": "0xdc4f7c511da65cd399f2ab0119121730cd34cb94756002a6d575d45da18a1054",
      "blockNumber": "0x1f871cb",
      "gasUsed": "0x4cfb545",
      "effectiveGasPrice": "0x1312d01",
      "from": "0x1234562eb0cd65e7d08e59f9f18d7c10b5df232a",
      "to": "0x888361c3362712ba6bb442cbf714038fce0d9e49",
      "contractAddress": null,
      "l1Fee": "0x902a3",
      "l1FeeScalar": "0.01",
      "l1GasPrice": "0x8",
      "l1GasUsed": "0x9ec",
      "tokenRatio": "0xb5a"
    },
    {
      "status": "0x1",
      "cumulativeGasUsed": "0x4d10822",
      "logs": [
        {
          "address": "0x888361c3362712ba6bb442cbf714038fce0d9e49",
          "topics": [
            "0xac90355684e2710fa34c2c7d500018678b146ea2d56ddc331c63d242ee8bf385",
            "0x00000000000000000000000090cdcbf4c4bc78dc440252211efd744d0a4dc4a1"
          ],
          "data": "0x0000000000000000000000000000000000000000000000000000000000000001",
          "blockHash": "0x54b5ec0acbf5f5303ac6d2132b9cd176f8e148cbb3359bed7e5c11c667a0e7a7",
          "blockNumber": "0x1f871cf",
          "blockTimestamp": "0x695c667f",
          "transactionHash": "0xabcddd03bd55faf28d4d591b295f2e6fd6e0e0ca3641199b201a8186aedc72bc",
          "transactionIndex": "0x1",
          "logIndex": "0x0",
          "removed": false
        }
      ],
      "logsBloom": "0x20000000000000000200000000000000000000000000000010000000000000000000000000000000000000000000000000000000000000200010000000000000000000800000000000000000000000000000000000000000000000000000000000000000000000000000000000000000000000000000000000000000002000000000000000000000000000000000000000000000100000000000000000000000000000000000000000000000000000000000000000000000000000000000000000000000000000000000000000000000000000000000000000000000000000000000000000000000000000080000000000000000000000000000000000000000",
      "type": "0x2",
      "transactionHash": "0xabcddd03bd55faf28d4d591b295f2e6fd6e0e0ca3641199b201a8186aedc72bc",
      "transactionIndex": "0x1",
      "blockHash": "0x54b5ec0acbf5f5303ac6d2132b9cd176f8e148cbb3359bed7e5c11c667a0e7a7",
      "blockNumber": "0x1f871cf",
      "gasUsed": "0x4d03b61",
      "effectiveGasPrice": "0x1312d01",
      "from": "0x1234562eb0cd65e7d08e59f9f18d7c10b5df232a",
      "to": "0x888361c3362712ba6bb442cbf714038fce0d9e49",
      "contractAddress": null,
      "l1Fee": "0x90d88",
      "l1FeeScalar": "0.01",
      "l1GasPrice": "0x8",
      "l1GasUsed": "0x9f8",
      "tokenRatio": "0xb5a"
    },
    {
      "status": "0x1",
      "cumulativeGasUsed": "0x4d0f24e",
      "logs": [
        {
          "address": "0x888361c3362712ba6bb442cbf714038fce0d9e49",
          "topics": [
            "0xac90355684e2710fa34c2c7d500018678b146ea2d56ddc331c63d242ee8bf385",
            "0x000000000000000000000000ced6ceb47301f268d57ff07879df45fda80e6974"
          ],
          "data": "0x0000000000000000000000000000000000000000000000000000000000000001",
          "blockHash": "0x374cd345693eb3e42545c927eed914dea8fb34aa065f614f9f379794191ecbe5",
          "blockNumber": "0x1f871d2",
          "blockTimestamp": "0x695c6685",
          "transactionHash": "0x595ceecd962e57fa3ddd230867ca5dafe0765fbc17a227a793755a598da450e4",
          "transactionIndex": "0x1",
          "logIndex": "0x0",
          "removed": false
        }
      ],
      "logsBloom": "0x20000000000000000200000800000000000000000000000000000000000000000000000000000000000000000080000000000000000000000010000000000000000000800000000000000000000000000000000000000000000000000000000000000000000000000000000000000000000000000000000000000000002000000000000000000000000000000000000000000000100000000000000000000000000000000000000000000000000000000000000000000000000000000000000000000000000000000000000000000000000000000000002000000000000000000000000000000000000000000000000000000000000000000000000000000000",
      "type": "0x2",
      "transactionHash": "0x595ceecd962e57fa3ddd230867ca5dafe0765fbc17a227a793755a598da450e4",
      "transactionIndex": "0x1",
      "blockHash": "0x374cd345693eb3e42545c927eed914dea8fb34aa065f614f9f379794191ecbe5",
      "blockNumber": "0x1f871d2",
      "gasUsed": "0x4d03b61",
      "effectiveGasPrice": "0x1312d01",
      "from": "0x1234562eb0cd65e7d08e59f9f18d7c10b5df232a",
      "to": "0x888361c3362712ba6bb442cbf714038fce0d9e49",
      "contractAddress": null,
      "l1Fee": "0x902a3",
      "l1FeeScalar": "0.01",
      "l1GasPrice": "0x8",
      "l1GasUsed": "0x9ec",
      "tokenRatio": "0xb5a"
    },
    {
      "status": "0x1",
      "cumulativeGasUsed": "0x4d2794c",
      "logs": [
        {
          "address": "0x888361c3362712ba6bb442cbf714038fce0d9e49",
          "topics": [
            "0xac90355684e2710fa34c2c7d500018678b146ea2d56ddc331c63d242ee8bf385",
            "0x000000000000000000000000782ba48189af93a0cf42766058de83291f384bf3"
          ],
          "data": "0x0000000000000000000000000000000000000000000000000000000000000001",
          "blockHash": "0xf5a42cf20187d25938e50aa5d726567bd478f672dd9d46e6fac65bb93cb9b9cd",
          "blockNumber": "0x1f871d6",
          "blockTimestamp": "0x695c668d",
          "transactionHash": "0x7acf17970addcd1d4a6ccb2d175b3d2b280fa9cd57f01d697b5616e4340f1b87",
          "transactionIndex": "0x1",
          "logIndex": "0x0",
          "removed": false
        }
      ],
      "logsBloom": "0x20000000000000000200000000000000000020000000000000000000000000000000000000000000000000000000000000000000000000000010000000000000000000800000000000000000000000000000000000000000000000000000000000000000000000000000000000000000000000000000000000000000002000000000000100000000000000000000000000000000100000000000000000000000000000000000000000008000000000000000000000000000000000000000000000000000000000000000000000000000000000000000000000000000000000000000000000000000000000000000000000000000000000000000000000000000",
      "type": "0x2",
      "transactionHash": "0x7acf17970addcd1d4a6ccb2d175b3d2b280fa9cd57f01d697b5616e4340f1b87",
      "transactionIndex": "0x1",
      "blockHash": "0xf5a42cf20187d25938e50aa5d726567bd478f672dd9d46e6fac65bb93cb9b9cd",
      "blockNumber": "0x1f871d6",
      "gasUsed": "0x4d17f93",
      "effectiveGasPrice": "0x1312d01",
      "from": "0x1234562eb0cd65e7d08e59f9f18d7c10b5df232a",
      "to": "0x888361c3362712ba6bb442cbf714038fce0d9e49",
      "contractAddress": null,
      "l1Fee": "0x90fed",
      "l1FeeScalar": "0.01",
      "l1GasPrice": "0x8",
      "l1GasUsed": "0x9f8",
      "tokenRatio": "0xb5d"
    }
  ],
  "libraries": [],
  "pending": [],
  "returns": {},
  "timestamp": 1767663249348,
  "chain": 5003,
  "commit": "cd2a7c9"
}