{
  "transactions": [
    {
      "hash": "0xeb9fe3bdf63561060c2e4ab79cde6e47d0e09aa895831399bfe1b2160d3d3343",
      "transactionType": "CALL",
      "contractName": null,
      "contractAddress": "0x888361c3362712ba6bb442cbf714038fce0d9e49",
      "function": "setIsHubChain(bool)",
      "arguments": [
        "true"
      ],
      "transaction": {
        "from": "0x1234562eb0cd65e7d08e59f9f18d7c10b5df232a",
        "to": "0x888361c3362712ba6bb442cbf714038fce0d9e49",
        "gas": "0xc9e1548",
        "value": "0x0",
        "input": "0xf54efd770000000000000000000000000000000000000000000000000000000000000001",
        "nonce": "0x32b",
        "chainId": "0x138b"
      },
      "additionalContracts": [],
      "isFixedGasLimit": false
    },
    {
      "hash": "0x10c2fc123a4a4fc3f8547b6a1b70e4599d8cd4388e27d1df5a931215e584bee8",
      "transactionType": "CALL",
      "contractName": null,
      "contractAddress": "0x888361c3362712ba6bb442cbf714038fce0d9e49",
      "function": "setTrustedRemoteToken(uint32,address,bool)",
      "arguments": [
        "84532",
        "0x33c6f26dA09502E6540043f030aE1F87f109cc99",
        "true"
      ],
      "transaction": {
        "from": "0x1234562eb0cd65e7d08e59f9f18d7c10b5df232a",
        "to": "0x888361c3362712ba6bb442cbf714038fce0d9e49",
        "gas": "0xd4972a9",
        "value": "0x0",
        "input": "0xe1f433470000000000000000000000000000000000000000000000000000000000014a3400000000000000000000000033c6f26da09502e6540043f030ae1f87f109cc990000000000000000000000000000000000000000000000000000000000000001",
        "nonce": "0x32c",
        "chainId": "0x138b"
      },
      "additionalContracts": [],
      "isFixedGasLimit": false
    },
    {
      "hash": "0x37a6146d0d61704c41eb431828794e04acbaf5c28cf3a504a7adb29d5fbfffed",
      "transactionType": "CALL",
      "contractName": null,
      "contractAddress": "0x888361c3362712ba6bb442cbf714038fce0d9e49",
      "function": "setTrustedRemoteToken(uint32,address,bool)",
      "arguments": [
        "84532",
        "0x7CB382Ce1AA40FA9F9A59a632090c05Dc28caE7b",
        "true"
      ],
      "transaction": {
        "from": "0x1234562eb0cd65e7d08e59f9f18d7c10b5df232a",
        "to": "0x888361c3362712ba6bb442cbf714038fce0d9e49",
        "gas": "0xd4a47f7",
        "value": "0x0",
        "input": "0xe1f433470000000000000000000000000000000000000000000000000000000000014a340000000000000000000000007cb382ce1aa40fa9f9a59a632090c05dc28cae7b0000000000000000000000000000000000000000000000000000000000000001",
        "nonce": "0x32d",
        "chainId": "0x138b"
      },
      "additionalContracts": [],
      "isFixedGasLimit": false
    },
    {
      "hash": "0xee8dc0fd4e9783df284376ed3254088f3d19ea0ea7eae4516993369b61d73f4b",
      "transactionType": "CALL",
      "contractName": null,
      "contractAddress": "0x888361c3362712ba6bb442cbf714038fce0d9e49",
      "function": "setTrustedRemoteToken(uint32,address,bool)",
      "arguments": [
        "84532",
        "0xB288Ba5B5b80Dd0Fd83541ef2e5922f71121Fa13",
        "true"
      ],
      "transaction": {
        "from": "0x1234562eb0cd65e7d08e59f9f18d7c10b5df232a",
        "to": "0x888361c3362712ba6bb442cbf714038fce0d9e49",
        "gas": "0xd4a47f7",
        "value": "0x0",
        "input": "0xe1f433470000000000000000000000000000000000000000000000000000000000014a34000000000000000000000000b288ba5b5b80dd0fd83541ef2e5922f71121fa130000000000000000000000000000000000000000000000000000000000000001",
        "nonce": "0x32e",
        "chainId": "0x138b"
      },
      "additionalContracts": [],
      "isFixedGasLimit": false
    },
    {
      "hash": "0x0ddb90cd7d19162f026e8201bdf2880db9fd1713854298ded7128e4899b7beba",
      "transactionType": "CALL",
      "contractName": null,
      "contractAddress": "0x888361c3362712ba6bb442cbf714038fce0d9e49",
      "function": "setTrustedRemoteToken(uint32,address,bool)",
      "arguments": [
        "84532",
        "0xC4a53c466Cfb62AecED03008B0162baaf36E0B03",
        "true"
      ],
      "transaction": {
        "from": "0x1234562eb0cd65e7d08e59f9f18d7c10b5df232a",
        "to": "0x888361c3362712ba6bb442cbf714038fce0d9e49",
        "gas": "0xd4a47f7",
        "value": "0x0",
        "input": "0xe1f433470000000000000000000000000000000000000000000000000000000000014a34000000000000000000000000c4a53c466cfb62aeced03008b0162baaf36e0b030000000000000000000000000000000000000000000000000000000000000001",
        "nonce": "0x32f",
        "chainId": "0x138b"
      },
      "additionalContracts": [],
      "isFixedGasLimit": false
    },
    {
      "hash": "0x8488fe2d5aba52e4e086615eb0fd4578b09f85d507499d8c99d4b8f82340d68c",
      "transactionType": "CALL",
      "contractName": null,
      "contractAddress": "0x888361c3362712ba6bb442cbf714038fce0d9e49",
      "function": "setTrustedRemoteToken(uint32,address,bool)",
      "arguments": [
        "84532",
        "0x70Db6eFB75c898Ad1e194FDA2B8C6e73dbC944d6",
        "true"
      ],
      "transaction": {
        "from": "0x1234562eb0cd65e7d08e59f9f18d7c10b5df232a",
        "to": "0x888361c3362712ba6bb442cbf714038fce0d9e49",
        "gas": "0xd4a47f7",
        "value": "0x0",
        "input": "0xe1f433470000000000000000000000000000000000000000000000000000000000014a3400000000000000000000000070db6efb75c898ad1e194fda2b8c6e73dbc944d60000000000000000000000000000000000000000000000000000000000000001",
        "nonce": "0x330",
        "chainId": "0x138b"
      },
      "additionalContracts": [],
      "isFixedGasLimit": false
    },
    {
      "hash": "0x2782d5f9a0e92a3f508e45fa24606058d08e3c05d0730fecc4fd30c50a57817d",
      "transactionType": "CALL",
      "contractName": null,
      "contractAddress": "0x888361c3362712ba6bb442cbf714038fce0d9e49",
      "function": "setTrustedRemoteToken(uint32,address,bool)",
      "arguments": [
        "84532",
        "0xEE589FBF85128abA6f42696dB2F28eA9EBddE173",
        "true"
      ],
      "transaction": {
        "from": "0x1234562eb0cd65e7d08e59f9f18d7c10b5df232a",
        "to": "0x888361c3362712ba6bb442cbf714038fce0d9e49",
        "gas": "0xd4a47f7",
        "value": "0x0",
        "input": "0xe1f433470000000000000000000000000000000000000000000000000000000000014a34000000000000000000000000ee589fbf85128aba6f42696db2f28ea9ebdde1730000000000000000000000000000000000000000000000000000000000000001",
        "nonce": "0x331",
        "chainId": "0x138b"
      },
      "additionalContracts": [],
      "isFixedGasLimit": false
    },
    {
      "hash": "0xdadc14cff5adfc8487ab9399c27d51465114691af82ef779189b82f4fe7ed446",
      "transactionType": "CALL",
      "contractName": null,
      "contractAddress": "0x888361c3362712ba6bb442cbf714038fce0d9e49",
      "function": "setTrustedRemoteToken(uint32,address,bool)",
      "arguments": [
        "84532",
        "0x2C036be74942c597e4d81D7050008dDc11becCEb",
        "true"
      ],
      "transaction": {
        "from": "0x1234562eb0cd65e7d08e59f9f18d7c10b5df232a",
        "to": "0x888361c3362712ba6bb442cbf714038fce0d9e49",
        "gas": "0xd4972a9",
        "value": "0x0",
        "input": "0xe1f433470000000000000000000000000000000000000000000000000000000000014a340000000000000000000000002c036be74942c597e4d81d7050008ddc11becceb0000000000000000000000000000000000000000000000000000000000000001",
        "nonce": "0x332",
        "chainId": "0x138b"
      },
      "additionalContracts": [],
      "isFixedGasLimit": false
    },
    {
      "hash": "0x25712b76a56f1f3512db75f609aaac24b78923689bb8caf4aed68a5001f326e0",
      "transactionType": "CALL",
      "contractName": null,
      "contractAddress": "0x888361c3362712ba6bb442cbf714038fce0d9e49",
      "function": "setTrustedRemoteToken(uint32,address,bool)",
      "arguments": [
        "84532",
        "0x90CdcBF4c4bc78dC440252211EFd744d0A4Dc4A1",
        "true"
      ],
      "transaction": {
        "from": "0x1234562eb0cd65e7d08e59f9f18d7c10b5df232a",
        "to": "0x888361c3362712ba6bb442cbf714038fce0d9e49",
        "gas": "0xd4a47f7",
        "value": "0x0",
        "input": "0xe1f433470000000000000000000000000000000000000000000000000000000000014a3400000000000000000000000090cdcbf4c4bc78dc440252211efd744d0a4dc4a10000000000000000000000000000000000000000000000000000000000000001",
        "nonce": "0x333",
        "chainId": "0x138b"
      },
      "additionalContracts": [],
      "isFixedGasLimit": false
    },
    {
      "hash": "0x82414529c2192a0943a88c36ff79bff1c31fc9494a1ffd3e65efc8de95bd6d41",
      "transactionType": "CALL",
      "contractName": null,
      "contractAddress": "0x888361c3362712ba6bb442cbf714038fce0d9e49",
      "function": "setTrustedRemoteToken(uint32,address,bool)",
      "arguments": [
        "84532",
        "0xced6Ceb47301F268d57fF07879DF45Fda80e6974",
        "true"
      ],
      "transaction": {
        "from": "0x1234562eb0cd65e7d08e59f9f18d7c10b5df232a",
        "to": "0x888361c3362712ba6bb442cbf714038fce0d9e49",
        "gas": "0xd4a47f7",
        "value": "0x0",
        "input": "0xe1f433470000000000000000000000000000000000000000000000000000000000014a34000000000000000000000000ced6ceb47301f268d57ff07879df45fda80e69740000000000000000000000000000000000000000000000000000000000000001",
        "nonce": "0x334",
        "chainId": "0x138b"
      },
      "additionalContracts": [],
      "isFixedGasLimit": false
    },
    {
      "hash": "0x7995defed939016317789e814dfe92fe6a6a81211267df1c30baeb6ca0a1307c",
      "transactionType": "CALL",
      "contractName": null,
      "contractAddress": "0x888361c3362712ba6bb442cbf714038fce0d9e49",
      "function": "setTrustedRemoteToken(uint32,address,bool)",
      "arguments": [
        "84532",
        "0x782Ba48189AF93a0CF42766058DE83291f384bF3",
        "true"
      ],
      "transaction": {
        "from": "0x1234562eb0cd65e7d08e59f9f18d7c10b5df232a",
        "to": "0x888361c3362712ba6bb442cbf714038fce0d9e49",
        "gas": "0xd4a47f7",
        "value": "0x0",
        "input": "0xe1f433470000000000000000000000000000000000000000000000000000000000014a34000000000000000000000000782ba48189af93a0cf42766058de83291f384bf30000000000000000000000000000000000000000000000000000000000000001",
        "nonce": "0x335",
        "chainId": "0x138b"
      },
      "additionalContracts": [],
      "isFixedGasLimit": false
    },
    {
      "hash": "0x946a7ab7e0e8298036c707285463595a5a120635c437c56f646ae6bc8595a1e1",
      "transactionType": "CALL",
      "contractName": null,
      "contractAddress": "0x888361c3362712ba6bb442cbf714038fce0d9e49",
      "function": "setGlobalWhitelist(address,bool)",
      "arguments": [
        "0x33c6f26dA09502E6540043f030aE1F87f109cc99",
        "true"
      ],
      "transaction": {
        "from": "0x1234562eb0cd65e7d08e59f9f18d7c10b5df232a",
        "to": "0x888361c3362712ba6bb442cbf714038fce0d9e49",
        "gas": "0x7b653cc",
        "value": "0x0",
        "input": "0x25d86ced00000000000000000000000033c6f26da09502e6540043f030ae1f87f109cc990000000000000000000000000000000000000000000000000000000000000001",
        "nonce": "0x336",
        "chainId": "0x138b"
      },
      "additionalContracts": [],
      "isFixedGasLimit": false
    },
    {
      "hash": "0xb32c9132a846c7179c8af9ca5dabfb43c32c49a95f73ae85254e76af3f0c009a",
      "transactionType": "CALL",
      "contractName": null,
      "contractAddress": "0x888361c3362712ba6bb442cbf714038fce0d9e49",
      "function": "setGlobalWhitelist(address,bool)",
      "arguments": [
        "0x7CB382Ce1AA40FA9F9A59a632090c05Dc28caE7b",
        "true"
      ],
      "transaction": {
        "from": "0x1234562eb0cd65e7d08e59f9f18d7c10b5df232a",
        "to": "0x888361c3362712ba6bb442cbf714038fce0d9e49",
        "gas": "0x7b72e26",
        "value": "0x0",
        "input": "0x25d86ced0000000000000000000000007cb382ce1aa40fa9f9a59a632090c05dc28cae7b0000000000000000000000000000000000000000000000000000000000000001",
        "nonce": "0x337",
        "chainId": "0x138b"
      },
      "additionalContracts": [],
      "isFixedGasLimit": false
    },
    {
      "hash": "0x701bec7975b5e20e4342567697de68d3a9ecb0845b30d2989ae3362a67bc51f2",
      "transactionType": "CALL",
      "contractName": null,
      "contractAddress": "0x888361c3362712ba6bb442cbf714038fce0d9e49",
      "function": "setGlobalWhitelist(address,bool)",
      "arguments": [
        "0xB288Ba5B5b80Dd0Fd83541ef2e5922f71121Fa13",
        "true"
      ],
      "transaction": {
        "from": "0x1234562eb0cd65e7d08e59f9f18d7c10b5df232a",
        "to": "0x888361c3362712ba6bb442cbf714038fce0d9e49",
        "gas": "0x7b72e26",
        "value": "0x0",
        "input": "0x25d86ced000000000000000000000000b288ba5b5b80dd0fd83541ef2e5922f71121fa130000000000000000000000000000000000000000000000000000000000000001",
        "nonce": "0x338",
        "chainId": "0x138b"
      },
      "additionalContracts": [],
      "isFixedGasLimit": false
    },
    {
      "hash": "0x40c6b31229b9c505558212c620e51d1e7653fa1392c6d695d0efe3f689a98e0a",
      "transactionType": "CALL",
      "contractName": null,
      "contractAddress": "0x888361c3362712ba6bb442cbf714038fce0d9e49",
      "function": "setGlobalWhitelist(address,bool)",
      "arguments": [
        "0xC4a53c466Cfb62AecED03008B0162baaf36E0B03",
        "true"
      ],
      "transaction": {
        "from": "0x1234562eb0cd65e7d08e59f9f18d7c10b5df232a",
        "to": "0x888361c3362712ba6bb442cbf714038fce0d9e49",
        "gas": "0x7b72e26",
        "value": "0x0",
        "input": "0x25d86ced000000000000000000000000c4a53c466cfb62aeced03008b0162baaf36e0b030000000000000000000000000000000000000000000000000000000000000001",
        "nonce": "0x339",
        "chainId": "0x138b"
      },
      "additionalContracts": [],
      "isFixedGasLimit": false
    },
    {
      "hash": "0x30b0b470b1ad9508f8b79c8beb1df33e3e3f4950a5fb3fdffe68e135d10b0016",
      "transactionType": "CALL",
      "contractName": null,
      "contractAddress": "0x888361c3362712ba6bb442cbf714038fce0d9e49",
      "function": "setGlobalWhitelist(address,bool)",
      "arguments": [
        "0x70Db6eFB75c898Ad1e194FDA2B8C6e73dbC944d6",
        "true"
      ],
      "transaction": {
        "from": "0x1234562eb0cd65e7d08e59f9f18d7c10b5df232a",
        "to": "0x888361c3362712ba6bb442cbf714038fce0d9e49",
        "gas": "0x7b72e26",
        "value": "0x0",
        "input": "0x25d86ced00000000000000000000000070db6efb75c898ad1e194fda2b8c6e73dbc944d60000000000000000000000000000000000000000000000000000000000000001",
        "nonce": "0x33a",
        "chainId": "0x138b"
      },
      "additionalContracts": [],
      "isFixedGasLimit": false
    },
    {
      "hash": "0xe22ad04f0f3994c40ba7a85ee8f2de2d903ce1ee67346487dfcffbed63d2b950",
      "transactionType": "CALL",
      "contractName": null,
      "contractAddress": "0x888361c3362712ba6bb442cbf714038fce0d9e49",
      "function": "setGlobalWhitelist(address,bool)",
      "arguments": [
        "0xEE589FBF85128abA6f42696dB2F28eA9EBddE173",
        "true"
      ],
      "transaction": {
        "from": "0x1234562eb0cd65e7d08e59f9f18d7c10b5df232a",
        "to": "0x888361c3362712ba6bb442cbf714038fce0d9e49",
        "gas": "0x7b72e26",
        "value": "0x0",
        "input": "0x25d86ced000000000000000000000000ee589fbf85128aba6f42696db2f28ea9ebdde1730000000000000000000000000000000000000000000000000000000000000001",
        "nonce": "0x33b",
        "chainId": "0x138b"
      },
      "additionalContracts": [],
      "isFixedGasLimit": false
    },
    {
      "hash": "0x0da7783901f6ac807fa37c84d81166ea7a38cb7427fa48681b70e572d43eaa5d",
      "transactionType": "CALL",
      "contractName": null,
      "contractAddress": "0x888361c3362712ba6bb442cbf714038fce0d9e49",
      "function": "setGlobalWhitelist(address,bool)",
      "arguments": [
        "0x2C036be74942c597e4d81D7050008dDc11becCEb",
        "true"
      ],
      "transaction": {
        "from": "0x1234562eb0cd65e7d08e59f9f18d7c10b5df232a",
        "to": "0x888361c3362712ba6bb442cbf714038fce0d9e49",
        "gas": "0x7b653cc",
        "value": "0x0",
        "input": "0x25d86ced0000000000000000000000002c036be74942c597e4d81d7050008ddc11becceb0000000000000000000000000000000000000000000000000000000000000001",
        "nonce": "0x33c",
        "chainId": "0x138b"
      },
      "additionalContracts": [],
      "isFixedGasLimit": false
    },
    {
      "hash": "0xe60df85715617e94471fbdf0591048c6a40bb87bb5e20ee5ec6f00d219ffa2f5",
      "transactionType": "CALL",
      "contractName": null,
      "contractAddress": "0x888361c3362712ba6bb442cbf714038fce0d9e49",
      "function": "setGlobalWhitelist(address,bool)",
      "arguments": [
        "0x90CdcBF4c4bc78dC440252211EFd744d0A4Dc4A1",
        "true"
      ],
      "transaction": {
        "from": "0x1234562eb0cd65e7d08e59f9f18d7c10b5df232a",
        "to": "0x888361c3362712ba6bb442cbf714038fce0d9e49",
        "gas": "0x7b72e26",
        "value": "0x0",
        "input": "0x25d86ced00000000000000000000000090cdcbf4c4bc78dc440252211efd744d0a4dc4a10000000000000000000000000000000000000000000000000000000000000001",
        "nonce": "0x33d",
        "chainId": "0x138b"
      },
      "additionalContracts": [],
      "isFixedGasLimit": false
    },
    {
      "hash": "0xfeac647a8fb4da2956d35569257031136f310e0dd2601b66e9fddc3d713be31f",
      "transactionType": "CALL",
      "contractName": null,
      "contractAddress": "0x888361c3362712ba6bb442cbf714038fce0d9e49",
      "function": "setGlobalWhitelist(address,bool)",
      "arguments": [
        "0xced6Ceb47301F268d57fF07879DF45Fda80e6974",
        "true"
      ],
      "transaction": {
        "from": "0x1234562eb0cd65e7d08e59f9f18d7c10b5df232a",
        "to": "0x888361c3362712ba6bb442cbf714038fce0d9e49",
        "gas": "0x7b72e26",
        "value": "0x0",
        "input": "0x25d86ced000000000000000000000000ced6ceb47301f268d57ff07879df45fda80e69740000000000000000000000000000000000000000000000000000000000000001",
        "nonce": "0x33e",
        "chainId": "0x138b"
      },
      "additionalContracts": [],
      "isFixedGasLimit": false
    },
    {
      "hash": "0x5abbd9548531ffeb60768a4762b003e9d696a432d9ab86686a5479aabee6819e",
      "transactionType": "CALL",
      "contractName": null,
      "contractAddress": "0x888361c3362712ba6bb442cbf714038fce0d9e49",
      "function": "setGlobalWhitelist(address,bool)",
      "arguments": [
        "0x782Ba48189AF93a0CF42766058DE83291f384bF3",
        "true"
      ],
      "transaction": {
        "from": "0x1234562eb0cd65e7d08e59f9f18d7c10b5df232a",
        "to": "0x888361c3362712ba6bb442cbf714038fce0d9e49",
        "gas": "0x7b72e26",
        "value": "0x0",
        "input": "0x25d86ced000000000000000000000000782ba48189af93a0cf42766058de83291f384bf30000000000000000000000000000000000000000000000000000000000000001",
        "nonce": "0x33f",
        "chainId": "0x138b"
      },
      "additionalContracts": [],
      "isFixedGasLimit": false
    }
  ],
  "receipts": [
    {
      "status": "0x1",
      "cumulativeGasUsed": "0x806fa57",
      "logs": [],
      "logsBloom": "0x00000000000000000000000000000000000000000000000000000000000000000000000000000000000000000000000000000000000000000000000000000000000000000000000000000000000000000000000000000000000000000000000000000000000000000000000000000000000000000000000000000000000000000000000000000000000000000000000000000000000000000000000000000000000000000000000000000000000000000000000000000000000000000000000000000000000000000000000000000000000000000000000000000000000000000000000000000000000000000000000000000000000000000000000000000000",
      "type": "0x2",
      "transactionHash": "0xeb9fe3bdf63561060c2e4ab79cde6e47d0e09aa895831399bfe1b2160d3d3343",
      "transactionIndex": "0x1",
      "blockHash": "0xf89edcb66b2d6f7112f716b39f801283bff0a7b10250fdc42df184646df1142b",
      "blockNumber": "0x1f870d1",
      "gasUsed": "0x806435e",
      "effectiveGasPrice": "0x1312d01",
      "from": "0x1234562eb0cd65e7d08e59f9f18d7c10b5df232a",
      "to": "0x888361c3362712ba6bb442cbf714038fce0d9e49",
      "contractAddress": null,
      "l1Fee": "0x7a8af",
      "l1FeeScalar": "0.01",
      "l1GasPrice": "0x8",
      "l1GasUsed": "0x878",
      "tokenRatio": "0xb4e"
    },
    {
      "status": "0x1",
      "cumulativeGasUsed": "0x873f232",
      "logs": [
        {
          "address": "0x888361c3362712ba6bb442cbf714038fce0d9e49",
          "topics": [
            "0x4d49d3f3f3e2ec61b682ac1aa8adb9e1945c29b4df4aab45492b365a611b7b9f",
            "0x0000000000000000000000000000000000000000000000000000000000014a34",
            "0x00000000000000000000000033c6f26da09502e6540043f030ae1f87f109cc99"
          ],
          "data": "0x0000000000000000000000000000000000000000000000000000000000000001",
          "blockHash": "0x01ad4caf2f03ce301aef81a71241ce5766c64273a061cfd40d8bf41f289753ca",
          "blockNumber": "0x1f870d5",
          "blockTimestamp": "0x695c648b",
          "transactionHash": "0x10c2fc123a4a4fc3f8547b6a1b70e4599d8cd4388e27d1df5a931215e584bee8",
          "transactionIndex": "0x1",
          "logIndex": "0x0",
          "removed": false
        }
      ],
      "logsBloom": "0x20000000000200000000000000000000000000000000000000000000000000000000000000000000000000000000000000000000000000000000000000000000000000800000000000400000000004000000000000800000000000000000000000000000000000000000008000000000000000000008000000000000000000000000000000000000000010000000000000000200100000000000000000000000000000000000000000000000000000000000000000000000000000000000000000000000000000000000000000000000000000000000000000000000000001000000000000000000000000000000000000000000000000000000000000000000",
      "type": "0x2",
      "transactionHash": "0x10c2fc123a4a4fc3f8547b6a1b70e4599d8cd4388e27d1df5a931215e584bee8",
      "transactionIndex": "0x1",
      "blockHash": "0x01ad4caf2f03ce301aef81a71241ce5766c64273a061cfd40d8bf41f289753ca",
      "blockNumber": "0x1f870d5",
      "gasUsed": "0x8733b39",
      "effectiveGasPrice": "0x1312d01",
      "from": "0x1234562eb0cd65e7d08e59f9f18d7c10b5df232a",
      "to": "0x888361c3362712ba6bb442cbf714038fce0d9e49",
      "contractAddress": null,
      "l1Fee": "0x98293",
      "l1FeeScalar": "0.01",
      "l1GasPrice": "0x8",
      "l1GasUsed": "0xa84",
      "tokenRatio": "0xb4e"
    },
    {
      "status": "0x1",
      "cumulativeGasUsed": "0xf508a5a",
      "logs": [
        {
          "address": "0x888361c3362712ba6bb442cbf714038fce0d9e49",
          "topics": [
            "0x4d49d3f3f3e2ec61b682ac1aa8adb9e1945c29b4df4aab45492b365a611b7b9f",
            "0x0000000000000000000000000000000000000000000000000000000000014a34",
            "0x0000000000000000000000007cb382ce1aa40fa9f9a59a632090c05dc28cae7b"
          ],
          "data": "0x0000000000000000000000000000000000000000000000000000000000000001",
          "blockHash": "0xdd9355c0d976938d01b7f9970af0b2fb99940b0d3614e74d09866bc690a04148",
          "blockNumber": "0x1f870d8",
          "blockTimestamp": "0x695c6491",
          "transactionHash": "0x37a6146d0d61704c41eb431828794e04acbaf5c28cf3a504a7adb29d5fbfffed",
          "transactionIndex": "0x2",
          "logIndex": "0x1",
          "removed": false
        }
      ],
      "logsBloom": "0x20000000000200000000000000000000000000000000000000000000000000000000000000000000000800000000000000000000000000000000000000000000000000800000000000400000000004000000004000800000000002000000000000000000000000000000008000000000000000000000000000000000000000000000000000000000000000000000000000000000100000000000000000000000000000000000000000000000000000000000000000000000000000000000000000000000000000000000000000000000000000000000000000000000000001000000000000000000000000000000000000000000000000000000000000000000",
      "type": "0x2",
      "transactionHash": "0x37a6146d0d61704c41eb431828794e04acbaf5c28cf3a504a7adb29d5fbfffed",
      "transactionIndex": "0x2",
      "blockHash": "0xdd9355c0d976938d01b7f9970af0b2fb99940b0d3614e74d09866bc690a04148",
      "blockNumber": "0x1f870d8",
      "gasUsed": "0x873c165",
      "effectiveGasPrice": "0x1312d01",
      "from": "0x1234562eb0cd65e7d08e59f9f18d7c10b5df232a",
      "to": "0x888361c3362712ba6bb442cbf714038fce0d9e49",
      "contractAddress": null,
      "l1Fee": "0x99848",
      "l1FeeScalar": "0.01",
      "l1GasPrice": "0x8",
      "l1GasUsed": "0xa9c",
      "tokenRatio": "0xb4e"
    },
    {
      "status": "0x1",
      "cumulativeGasUsed": "0x874785e",
      "logs": [
        {
          "address": "0x888361c3362712ba6bb442cbf714038fce0d9e49",
          "topics": [
            "0x4d49d3f3f3e2ec61b682ac1aa8adb9e1945c29b4df4aab45492b365a611b7b9f",
            "0x0000000000000000000000000000000000000000000000000000000000014a34",
            "0x000000000000000000000000b288ba5b5b80dd0fd83541ef2e5922f71121fa13"
          ],
          "data": "0x0000000000000000000000000000000000000000000000000000000000000001",
          "blockHash": "0x0b982a4d20ceab788fc44970a4290fbeb8ba61e3caccb168011a7830f9fc1627",
          "blockNumber": "0x1f870db",
          "blockTimestamp": "0x695c6497",
          "transactionHash": "0xee8dc0fd4e9783df284376ed3254088f3d19ea0ea7eae4516993369b61d73f4b",
          "transactionIndex": "0x1",
          "logIndex": "0x0",
          "removed": false
        }
      ],
      "logsBloom": "0x20000000000200000000000000000000000000000000000000000000000000000000000000000000000000000000000000000000000000000000000000000000000000800000000000400000000004000000000000800000000000000000000000000000000000000000008000000000000000000000000000000000000000000000000000000000000000000000000000000000100000000002000000000400000000000000000000000000000000000000000000000000000000000000000000000000000000000000000000000000000000000000000000000000000001000000000000000000000000000000000000000000000000800000000000000000",
      "type": "0x2",
      "transactionHash": "0xee8dc0fd4e9783df284376ed3254088f3d19ea0ea7eae4516993369b61d73f4b",
      "transactionIndex": "0x1",
      "blockHash": "0x0b982a4d20ceab788fc44970a4290fbeb8ba61e3caccb168011a7830f9fc1627",
      "blockNumber": "0x1f870db",
      "gasUsed": "0x873c165",
      "effectiveGasPrice": "0x1312d01",
      "from": "0x1234562eb0cd65e7d08e59f9f18d7c10b5df232a",
      "to": "0x888361c3362712ba6bb442cbf714038fce0d9e49",
      "contractAddress": null,
      "l1Fee": "0x98d6e",
      "l1FeeScalar": "0.01",
      "l1GasPrice": "0x8",
      "l1GasUsed": "0xa90",
      "tokenRatio": "0xb4e"
    },
    {
      "status": "0x1",
      "cumulativeGasUsed": "0x8748e32",
      "logs": [
        {
          "address": "0x888361c3362712ba6bb442cbf714038fce0d9e49",
          "topics": [
            "0x4d49d3f3f3e2ec61b682ac1aa8adb9e1945c29b4df4aab45492b365a611b7b9f",
            "0x0000000000000000000000000000000000000000000000000000000000014a34",
            "0x000000000000000000000000c4a53c466cfb62aeced03008b0162baaf36e0b03"
          ],
          "data": "0x0000000000000000000000000000000000000000000000000000000000000001",
          "blockHash": "0x8a1d6374f7f39a15cffedde87c61c605467b4f08c0b34a10b687f67732c55c7b",
          "blockNumber": "0x1f870df",
          "blockTimestamp": "0x695c649f",
          "transactionHash": "0x0ddb90cd7d19162f026e8201bdf2880db9fd1713854298ded7128e4899b7beba",
          "transactionIndex": "0x1",
          "logIndex": "0x0",
          "removed": false
        }
      ],
      "logsBloom": "0x20000000000200000000000000000000000000000000000000000000000000000000000000000000000000000000000000000000000000000000000000000000000000800000000000400000000004000000000000800000000000000000000000000004000000000000008000000000000000000000000000000000000000000000000000000000000000040000000000000000100000000000000000000000000000000000400000000000000000000000000000000000000000000000000000000000000000000000000000000000000000000000000000000000000001000000000000000000000000000000000000000000000000000000000000000000",
      "type": "0x2",
      "transactionHash": "0x0ddb90cd7d19162f026e8201bdf2880db9fd1713854298ded7128e4899b7beba",
      "transactionIndex": "0x1",
      "blockHash": "0x8a1d6374f7f39a15cffedde87c61c605467b4f08c0b34a10b687f67732c55c7b",
      "blockNumber": "0x1f870df",
      "gasUsed": "0x873c165",
      "effectiveGasPrice": "0x1312d01",
      "from": "0x1234562eb0cd65e7d08e59f9f18d7c10b5df232a",
      "to": "0x888361c3362712ba6bb442cbf714038fce0d9e49",
      "contractAddress": null,
      "l1Fee": "0x99848",
      "l1FeeScalar": "0.01",
      "l1GasPrice": "0x8",
      "l1GasUsed": "0xa9c",
      "tokenRatio": "0xb4e"
    },
    {
      "status": "0x1",
      "cumulativeGasUsed": "0x874785e",
      "logs": [
        {
          "address": "0x888361c3362712ba6bb442cbf714038fce0d9e49",
          "topics": [
            "0x4d49d3f3f3e2ec61b682ac1aa8adb9e1945c29b4df4aab45492b365a611b7b9f",
            "0x0000000000000000000000000000000000000000000000000000000000014a34",
            "0x00000000000000000000000070db6efb75c898ad1e194fda2b8c6e73dbc944d6"
          ],
          "data": "0x0000000000000000000000000000000000000000000000000000000000000001",
          "blockHash": "0xbdc96271f8737896e583ebe75ebdd367e3ea13c234a2942c8fa7ee065d785d2c",
          "blockNumber": "0x1f870e3",
          "blockTimestamp": "0x695c64a7",
          "transactionHash": "0x8488fe2d5aba52e4e086615eb0fd4578b09f85d507499d8c99d4b8f82340d68c",
          "transactionIndex": "0x1",
          "logIndex": "0x0",
          "removed": false
        }
      ],
      "logsBloom": "0x20000000000200000000000000000000000000000000000000000000000000000000000000000000000000000000000000080000000000000000000000000000000000800000000000400000000004000000000000800000000000000000000000000000000000000000008000000000000000000000000000000000000000000000000000000000000000000000000000000000100400000000000000000000000000000000000000000000000000000000000000000000000000000000000000000000000000000000000000000000000000000000000000080000000001000000000000000000000000000000000000000000000000000000000000000000",
      "type": "0x2",
      "transactionHash": "0x8488fe2d5aba52e4e086615eb0fd4578b09f85d507499d8c99d4b8f82340d68c",
      "transactionIndex": "0x1",
      "blockHash": "0xbdc96271f8737896e583ebe75ebdd367e3ea13c234a2942c8fa7ee065d785d2c",
      "blockNumber": "0x1f870e3",
      "gasUsed": "0x873c165",
      "effectiveGasPrice": "0x1312d01",
      "from": "0x1234562eb0cd65e7d08e59f9f18d7c10b5df232a",
      "to": "0x888361c3362712ba6bb442cbf714038fce0d9e49",
      "contractAddress": null,
      "l1Fee": "0x99848",
      "l1FeeScalar": "0.01",
      "l1GasPrice": "0x8",
      "l1GasUsed": "0xa9c",
      "tokenRatio": "0xb4e"
    },
    {
      "status": "0x1",
      "cumulativeGasUsed": "0x872399b",
      "logs": [
        {
          "address": "0x888361c3362712ba6bb442cbf714038fce0d9e49",
          "topics": [
            "0x4d49d3f3f3e2ec61b682ac1aa8adb9e1945c29b4df4aab45492b365a611b7b9f",
            "0x0000000000000000000000000000000000000000000000000000000000014a34",
            "0x000000000000000000000000ee589fbf85128aba6f42696db2f28ea9ebdde173"
          ],
          "data": "0x0000000000000000000000000000000000000000000000000000000000000001",
          "blockHash": "0x7c6ac0f15eb2241906582cb88a66dc860a28e9ccb410bf87486d84a77502ee94",
          "blockNumber": "0x1f870e7",
          "blockTimestamp": "0x695c64af",
          "transactionHash": "0x2782d5f9a0e92a3f508e45fa24606058d08e3c05d0730fecc4fd30c50a57817d",
          "transactionIndex": "0x1",
          "logIndex": "0x0",
          "removed": false
        }
      ],
      "logsBloom": "0x20000000000200000000000020000000000000000000000000000000000000000000000000000000000000000000000000000000000000000000000000000000000000800000000000400000000004000000000000800000000000000000000000000000000000000000008000000000000000000000000000000000000000000000000000000000000000000000000000000000100000000000000000000000000000000000000000000000000000000000000000000000000000000000000000000000000000000000000000000000000000000000400000000000000001000000000000000000000000000080000000000000000000000000000000000000",
      "type": "0x2",
      "transactionHash": "0x2782d5f9a0e92a3f508e45fa24606058d08e3c05d0730fecc4fd30c50a57817d",
      "transactionIndex": "0x1",
      "blockHash": "0x7c6ac0f15eb2241906582cb88a66dc860a28e9ccb410bf87486d84a77502ee94",
      "blockNumber": "0x1f870e7",
      "gasUsed": "0x87182a2",
      "effectiveGasPrice": "0x1312d01",
      "from": "0x1234562eb0cd65e7d08e59f9f18d7c10b5df232a",
      "to": "0x888361c3362712ba6bb442cbf714038fce0d9e49",
      "contractAddress": null,
      "l1Fee": "0x995bc",
      "l1FeeScalar": "0.01",
      "l1GasPrice": "0x8",
      "l1GasUsed": "0xa9c",
      "tokenRatio": "0xb4b"
    },
    {
      "status": "0x1",
      "cumulativeGasUsed": "0x871b625",
      "logs": [
        {
          "address": "0x888361c3362712ba6bb442cbf714038fce0d9e49",
          "topics": [
            "0x4d49d3f3f3e2ec61b682ac1aa8adb9e1945c29b4df4aab45492b365a611b7b9f",
            "0x0000000000000000000000000000000000000000000000000000000000014a34",
            "0x0000000000000000000000002c036be74942c597e4d81d7050008ddc11becceb"
          ],
          "data": "0x0000000000000000000000000000000000000000000000000000000000000001",
          "blockHash": "0x0c65d4e7dc2fa1801a448663b5f8621ee5ef2538d8995fcd68c75d17b334b0f5",
          "blockNumber": "0x1f870ea",
          "blockTimestamp": "0x695c64b5",
          "transactionHash": "0xdadc14cff5adfc8487ab9399c27d51465114691af82ef779189b82f4fe7ed446",
          "transactionIndex": "0x1",
          "logIndex": "0x0",
          "removed": false
        }
      ],
      "logsBloom": "0x20000000000200000000000000000000000000000000000000000000000000000000000000000000000000000000000000000000000000000000000000000000000000800000000000400000000004000000000000800000000010000000000000000000000000000000008000000000000000000000000000000000000000000000000000000000000000000000000000000000100000000000000000000000000000000000000000000000000000008000000000000000000000000000000000000000000000000000000000000000000000000000000000000000000001000000000000000000000000000000000000000000000000000000000000000002",
      "type": "0x2",
      "transactionHash": "0xdadc14cff5adfc8487ab9399c27d51465114691af82ef779189b82f4fe7ed446",
      "transactionIndex": "0x1",
      "blockHash": "0x0c65d4e7dc2fa1801a448663b5f8621ee5ef2538d8995fcd68c75d17b334b0f5",
      "blockNumber": "0x1f870ea",
      "gasUsed": "0x870ff2c",
      "effectiveGasPrice": "0x1312d01",
      "from": "0x1234562eb0cd65e7d08e59f9f18d7c10b5df232a",
      "to": "0x888361c3362712ba6bb442cbf714038fce0d9e49",
      "contractAddress": null,
      "l1Fee": "0x98ae5",
      "l1FeeScalar": "0.01",
      "l1GasPrice": "0x8",
      "l1GasUsed": "0xa90",
      "tokenRatio": "0xb4b"
    },
    {
      "status": "0x1",
      "cumulativeGasUsed": "0x8723c2d",
      "logs": [
        {
          "address": "0x888361c3362712ba6bb442cbf714038fce0d9e49",
          "topics": [
            "0x4d49d3f3f3e2ec61b682ac1aa8adb9e1945c29b4df4aab45492b365a611b7b9f",
            "0x0000000000000000000000000000000000000000000000000000000000014a34",
            "0x00000000000000000000000090cdcbf4c4bc78dc440252211efd744d0a4dc4a1"
          ],
          "data": "0x0000000000000000000000000000000000000000000000000000000000000001",
          "blockHash": "0xffae854b3cd63652663aecbedbacc839ad6829c8db2c943aa87836e6e73848ae",
          "blockNumber": "0x1f870ee",
          "blockTimestamp": "0x695c64bd",
          "transactionHash": "0x25712b76a56f1f3512db75f609aaac24b78923689bb8caf4aed68a5001f326e0",
          "transactionIndex": "0x1",
          "logIndex": "0x0",
          "removed": false
        }
      ],
      "logsBloom": "0x20000000000200000000000000000000000000000000000010000000000000000000000000000000000000000000000000000000000000200000000000000000000000800000000000400000000004000000000000800000000000000000000000000000000000000000008000000000000000000000000000000000000000000000000000000000000000000000000000000000100000000000000000000000000000000000000000000000000000000000000000000000000000000000000000000000000000000000000000000000000000000000000000000000000001000000000000000000000000080000000000000000000000000000000000000000",
      "type": "0x2",
      "transactionHash": "0x25712b76a56f1f3512db75f609aaac24b78923689bb8caf4aed68a5001f326e0",
      "transactionIndex": "0x1",
      "blockHash": "0xffae854b3cd63652663aecbedbacc839ad6829c8db2c943aa87836e6e73848ae",
      "blockNumber": "0x1f870ee",
      "gasUsed": "0x8718534",
      "effectiveGasPrice": "0x1312d01",
      "from": "0x1234562eb0cd65e7d08e59f9f18d7c10b5df232a",
      "to": "0x888361c3362712ba6bb442cbf714038fce0d9e49",
      "contractAddress": null,
      "l1Fee": "0x995bc",
      "l1FeeScalar": "0.01",
      "l1GasPrice": "0x8",
      "l1GasUsed": "0xa9c",
      "tokenRatio": "0xb4b"
    },
    {
      "status": "0x1",
      "cumulativeGasUsed": "0x8727ef9",
      "logs": [
        {
          "address": "0x888361c3362712ba6bb442cbf714038fce0d9e49",
          "topics": [
            "0x4d49d3f3f3e2ec61b682ac1aa8adb9e1945c29b4df4aab45492b365a611b7b9f",
            "0x0000000000000000000000000000000000000000000000000000000000014a34",
            "0x000000000000000000000000ced6ceb47301f268d57ff07879df45fda80e6974"
          ],
          "data": "0x0000000000000000000000000000000000000000000000000000000000000001",
          "blockHash": "0xa1d0ea5e73f9f03b9cbf3d864baea44508891138b2fc0096c9cdd6e4d86d3002",
          "blockNumber": "0x1f870f2",
          "blockTimestamp": "0x695c64c5",
          "transactionHash": "0x82414529c2192a0943a88c36ff79bff1c31fc9494a1ffd3e65efc8de95bd6d41",
          "transactionIndex": "0x1",
          "logIndex": "0x0",
          "removed": false
        }
      ],
      "logsBloom": "0x20000000000200000000000800000000000000000000000000000000000000000000000000000000000000000080000000000000000000000000000000000000000000800000000000400000000004000000000000800000000000000000000000000000000000000000008000000000000000000000000000000000000000000000000000000000000000000000000000000000100000000000000000000000000000000000000000000000000000000000000000000000000000000000000000000000000000000000000000000000000000000000002000000000000001000000000000000000000000000000000000000000000000000000000000000000",
      "type": "0x2",
      "transactionHash": "0x82414529c2192a0943a88c36ff79bff1c31fc9494a1ffd3e65efc8de95bd6d41",
      "transactionIndex": "0x1",
      "blockHash": "0xa1d0ea5e73f9f03b9cbf3d864baea44508891138b2fc0096c9cdd6e4d86d3002",
      "blockNumber": "0x1f870f2",
      "gasUsed": "0x8718534",
      "effectiveGasPrice": "0x1312d01",
      "from": "0x1234562eb0cd65e7d08e59f9f18d7c10b5df232a",
      "to": "0x888361c3362712ba6bb442cbf714038fce0d9e49",
      "contractAddress": null,
      "l1Fee": "0x98ae5",
      "l1FeeScalar": "0.01",
      "l1GasPrice": "0x8",
      "l1GasUsed": "0xa90",
      "tokenRatio": "0xb4b"
    },
    {
      "status": "0x1",
      "cumulativeGasUsed": "0x8723c2d",
      "logs": [
        {
          "address": "0x888361c3362712ba6bb442cbf714038fce0d9e49",
          "topics": [
            "0x4d49d3f3f3e2ec61b682ac1aa8adb9e1945c29b4df4aab45492b365a611b7b9f",
            "0x0000000000000000000000000000000000000000000000000000000000014a34",
            "0x000000000000000000000000782ba48189af93a0cf42766058de83291f384bf3"
          ],
          "data": "0x0000000000000000000000000000000000000000000000000000000000000001",
          "blockHash": "0x71f9e37c719cfdd8d82c7f2d42067a4fc10f0b861b6168333f5942b4c166f9dd",
          "blockNumber": "0x1f870f6",
          "blockTimestamp": "0x695c64cd",
          "transactionHash": "0x7995defed939016317789e814dfe92fe6a6a81211267df1c30baeb6ca0a1307c",
          "transactionIndex": "0x1",
          "logIndex": "0x0",
          "removed": false
        }
      ],
      "logsBloom": "0x20000000000200000000000000000000000020000000000000000000000000000000000000000000000000000000000000000000000000000000000000000000000000800000000000400000000004000000000000800000000000000000000000000000000000000000008000000000000000000000000000000000000000000000000100000000000000000000000000000000100000000000000000000000000000000000000000008000000000000000000000000000000000000000000000000000000000000000000000000000000000000000000000000000000001000000000000000000000000000000000000000000000000000000000000000000",
      "type": "0x2",
      "transactionHash": "0x7995defed939016317789e814dfe92fe6a6a81211267df1c30baeb6ca0a1307c",
      "transactionIndex": "0x1",
      "blockHash": "0x71f9e37c719cfdd8d82c7f2d42067a4fc10f0b861b6168333f5942b4c166f9dd",
      "blockNumber": "0x1f870f6",
      "gasUsed": "0x8718534",
      "effectiveGasPrice": "0x1312d01",
      "from": "0x1234562eb0cd65e7d08e59f9f18d7c10b5df232a",
      "to": "0x888361c3362712ba6bb442cbf714038fce0d9e49",
      "contractAddress": null,
      "l1Fee": "0x995bc",
      "l1FeeScalar": "0.01",
      "l1GasPrice": "0x8",
      "l1GasUsed": "0xa9c",
      "tokenRatio": "0xb4b"
    },
    {
      "status": "0x1",
      "cumulativeGasUsed": "0x4ca145c",
      "logs": [
        {
          "address": "0x888361c3362712ba6bb442cbf714038fce0d9e49",
          "topics": [
            "0xac90355684e2710fa34c2c7d500018678b146ea2d56ddc331c63d242ee8bf385",
            "0x00000000000000000000000033c6f26da09502e6540043f030ae1f87f109cc99"
          ],
          "data": "0x0000000000000000000000000000000000000000000000000000000000000001",
          "blockHash": "0xcd9fa0896fa92110db458873ee1a23dcad2eb640c91c6c88e5c03cfdfd3cbe87",
          "blockNumber": "0x1f870fa",
          "blockTimestamp": "0x695c64d5",
          "transactionHash": "0x946a7ab7e0e8298036c707285463595a5a120635c437c56f646ae6bc8595a1e1",
          "transactionIndex": "0x1",
          "logIndex": "0x0",
          "removed": false
        }
      ],
      "logsBloom": "0x20000000000000000200000000000000000000000000000000000000000000000000000000000000000000000000000000000000000000000010000000000000000000800000000000000000000000000000000000000000000000000000000000000000000000000000000000000000000000000008000000000000002000000000000000000000000010000000000000000200100000000000000000000000000000000000000000000000000000000000000000000000000000000000000000000000000000000000000000000000000000000000000000000000000000000000000000000000000000000000000000000000000000000000000000000000",
      "type": "0x2",
      "transactionHash": "0x946a7ab7e0e8298036c707285463595a5a120635c437c56f646ae6bc8595a1e1",
      "transactionIndex": "0x1",
      "blockHash": "0xcd9fa0896fa92110db458873ee1a23dcad2eb640c91c6c88e5c03cfdfd3cbe87",
      "blockNumber": "0x1f870fa",
      "gasUsed": "0x4c95d63",
      "effectiveGasPrice": "0x1312d01",
      "from": "0x1234562eb0cd65e7d08e59f9f18d7c10b5df232a",
      "to": "0x888361c3362712ba6bb442cbf714038fce0d9e49",
      "contractAddress": null,
      "l1Fee": "0x8f6bb",
      "l1FeeScalar": "0.01",
      "l1GasPrice": "0x8",
      "l1GasUsed": "0x9ec",
      "tokenRatio": "0xb4b"
    },
    {
      "status": "0x1",
      "cumulativeGasUsed": "0x4cad6e0",
      "logs": [
        {
          "address": "0x888361c3362712ba6bb442cbf714038fce0d9e49",
          "topics": [
            "0xac90355684e2710fa34c2c7d500018678b146ea2d56ddc331c63d242ee8bf385",
            "0x0000000000000000000000007cb382ce1aa40fa9f9a59a632090c05dc28cae7b"
          ],
          "data": "0x0000000000000000000000000000000000000000000000000000000000000001",
          "blockHash": "0xeca53747fcbb33a8b96fd48e5296eda5de04f3cbf46e42822e01151eeb119dca",
          "blockNumber": "0x1f870fe",
          "blockTimestamp": "0x695c64dd",
          "transactionHash": "0xb32c9132a846c7179c8af9ca5dabfb43c32c49a95f73ae85254e76af3f0c009a",
          "transactionIndex": "0x1",
          "logIndex": "0x0",
          "removed": false
        }
      ],
      "logsBloom": "0x20000000000000000200000000000000000000000000000000000000000000000000000000000000000800000000000000000000000000000010000000000000000000800000000000000000000000000000004000000000000002000000000000000000000000000000000000000000000000000000000000000000002000000000000000000000000000000000000000000000100000000000000000000000000000000000000000000000000000000000000000000000000000000000000000000000000000000000000000000000000000000000000000000000000000000000000000000000000000000000000000000000000000000000000000000000",
      "type": "0x2",
      "transactionHash": "0xb32c9132a846c7179c8af9ca5dabfb43c32c49a95f73ae85254e76af3f0c009a",
      "transactionIndex": "0x1",
      "blockHash": "0xeca53747fcbb33a8b96fd48e5296eda5de04f3cbf46e42822e01151eeb119dca",
      "blockNumber": "0x1f870fe",
      "gasUsed": "0x4c9dd27",
      "effectiveGasPrice": "0x1312d01",
      "from": "0x1234562eb0cd65e7d08e59f9f18d7c10b5df232a",
      "to": "0x888361c3362712ba6bb442cbf714038fce0d9e49",
      "contractAddress": null,
      "l1Fee": "0x90192",
      "l1FeeScalar": "0.01",
      "l1GasPrice": "0x8",
      "l1GasUsed": "0x9f8",
      "tokenRatio": "0xb4b"
    },
    {
      "status": "0x1",
      "cumulativeGasUsed": "0xad8d372",
      "logs": [
        {
          "address": "0x888361c3362712ba6bb442cbf714038fce0d9e49",
          "topics": [
            "0xac90355684e2710fa34c2c7d500018678b146ea2d56ddc331c63d242ee8bf385",
            "0x000000000000000000000000b288ba5b5b80dd0fd83541ef2e5922f71121fa13"
          ],
          "data": "0x0000000000000000000000000000000000000000000000000000000000000001",
          "blockHash": "0x2fea8176f71173fd56e6a89224754cf86d8d8b0fa90ceef51994162699bf278a",
          "blockNumber": "0x1f87102",
          "blockTimestamp": "0x695c64e5",
          "transactionHash": "0x701bec7975b5e20e4342567697de68d3a9ecb0845b30d2989ae3362a67bc51f2",
          "transactionIndex": "0x2",
          "logIndex": "0x1",
          "removed": false
        }
      ],
      "logsBloom": "0x20000000000000000200000000000000000000000000000000000000000000000000000000000000000000000000000000000000000000000010000000000000000000800000000000000000000000000000000000000000000000000000000000000000000000000000000000000000000000000000000000000000002000000000000000000000000000000000000000000000100000000002000000000400000000000000000000000000000000000000000000000000000000000000000000000000000000000000000000000000000000000000000000000000000000000000000000000000000000000000000000000000000000800000000000000000",
      "type": "0x2",
      "transactionHash": "0x701bec7975b5e20e4342567697de68d3a9ecb0845b30d2989ae3362a67bc51f2",
      "transactionIndex": "0x2",
      "blockHash": "0x2fea8176f71173fd56e6a89224754cf86d8d8b0fa90ceef51994162699bf278a",
      "blockNumber": "0x1f87102",
      "gasUsed": "0x4cb29f5",
      "effectiveGasPrice": "0x1312d01",
      "from": "0x1234562eb0cd65e7d08e59f9f18d7c10b5df232a",
      "to": "0x888361c3362712ba6bb442cbf714038fce0d9e49",
      "contractAddress": null,
      "l1Fee": "0x903f7",
      "l1FeeScalar": "0.01",
      "l1GasPrice": "0x8",
      "l1GasUsed": "0x9f8",
      "tokenRatio": "0xb4e"
    },
    {
      "status": "0x1",
      "cumulativeGasUsed": "0xb5bf8ad",
      "logs": [
        {
          "address": "0x888361c3362712ba6bb442cbf714038fce0d9e49",
          "topics": [
            "0xac90355684e2710fa34c2c7d500018678b146ea2d56ddc331c63d242ee8bf385",
            "0x000000000000000000000000c4a53c466cfb62aeced03008b0162baaf36e0b03"
          ],
          "data": "0x0000000000000000000000000000000000000000000000000000000000000001",
          "blockHash": "0x9000348b2d7168ea7337d9901de164b02cb0fa4e732643501f2bc60b4b334365",
          "blockNumber": "0x1f87105",
          "blockTimestamp": "0x695c64eb",
          "transactionHash": "0x40c6b31229b9c505558212c620e51d1e7653fa1392c6d695d0efe3f689a98e0a",
          "transactionIndex": "0x2",
          "logIndex": "0x0",
          "removed": false
        }
      ],
      "logsBloom": "0x20000000000000000200000000000000000000000000000000000000000000000000000000000000000000000000000000000000000000000010000000000000000000800000000000000000000000000000000000000000000000000000000000000004000000000000000000000000000000000000000000000000002000000000000000000000000000040000000000000000100000000000000000000000000000000000400000000000000000000000000000000000000000000000000000000000000000000000000000000000000000000000000000000000000000000000000000000000000000000000000000000000000000000000000000000000",
      "type": "0x2",
      "transactionHash": "0x40c6b31229b9c505558212c620e51d1e7653fa1392c6d695d0efe3f689a98e0a",
      "transactionIndex": "0x2",
      "blockHash": "0x9000348b2d7168ea7337d9901de164b02cb0fa4e732643501f2bc60b4b334365",
      "blockNumber": "0x1f87105",
      "gasUsed": "0x4cb2c0c",
      "effectiveGasPrice": "0x1312d01",
      "from": "0x1234562eb0cd65e7d08e59f9f18d7c10b5df232a",
      "to": "0x888361c3362712ba6bb442cbf714038fce0d9e49",
      "contractAddress": null,
      "l1Fee": "0x903f7",
      "l1FeeScalar": "0.01",
      "l1GasPrice": "0x8",
      "l1GasUsed": "0x9f8",
      "tokenRatio": "0xb4e"
    },
    {
      "status": "0x1",
      "cumulativeGasUsed": "0x4cbf8d9",
      "logs": [
        {
          "address": "0x888361c3362712ba6bb442cbf714038fce0d9e49",
          "topics": [
            "0xac90355684e2710fa34c2c7d500018678b146ea2d56ddc331c63d242ee8bf385",
            "0x00000000000000000000000070db6efb75c898ad1e194fda2b8c6e73dbc944d6"
          ],
          "data": "0x0000000000000000000000000000000000000000000000000000000000000001",
          "blockHash": "0xe4a1b98c55674ff394b879a615a338028d34d0a57358fef48b2b5f391ef43be4",
          "blockNumber": "0x1f87109",
          "blockTimestamp": "0x695c64f3",
          "transactionHash": "0x30b0b470b1ad9508f8b79c8beb1df33e3e3f4950a5fb3fdffe68e135d10b0016",
          "transactionIndex": "0x1",
          "logIndex": "0x0",
          "removed": false
        }
      ],
      "logsBloom": "0x20000000000000000200000000000000000000000000000000000000000000000000000000000000000000000000000000080000000000000010000000000000000000800000000000000000000000000000000000000000000000000000000000000000000000000000000000000000000000000000000000000000002000000000000000000000000000000000000000000000100400000000000000000000000000000000000000000000000000000000000000000000000000000000000000000000000000000000000000000000000000000000000000080000000000000000000000000000000000000000000000000000000000000000000000000000",
      "type": "0x2",
      "transactionHash": "0x30b0b470b1ad9508f8b79c8beb1df33e3e3f4950a5fb3fdffe68e135d10b0016",
      "transactionIndex": "0x1",
      "blockHash": "0xe4a1b98c55674ff394b879a615a338028d34d0a57358fef48b2b5f391ef43be4",
      "blockNumber": "0x1f87109",
      "gasUsed": "0x4cb2c0c",
      "effectiveGasPrice": "0x1312d01",
      "from": "0x1234562eb0cd65e7d08e59f9f18d7c10b5df232a",
      "to": "0x888361c3362712ba6bb442cbf714038fce0d9e49",
      "contractAddress": null,
      "l1Fee": "0x903f7",
      "l1FeeScalar": "0.01",
      "l1GasPrice": "0x8",
      "l1GasUsed": "0x9f8",
      "tokenRatio": "0xb4e"
    },
    {
      "status": "0x1",
      "cumulativeGasUsed": "0x4cbe305",
      "logs": [
        {
          "address": "0x888361c3362712ba6bb442cbf714038fce0d9e49",
          "topics": [
            "0xac90355684e2710fa34c2c7d500018678b146ea2d56ddc331c63d242ee8bf385",
            "0x000000000000000000000000ee589fbf85128aba6f42696db2f28ea9ebdde173"
          ],
          "data": "0x0000000000000000000000000000000000000000000000000000000000000001",
          "blockHash": "0xd06ec3f49bed25593daf4bdd9c589a69a83d030dfd4e15fe2cd5e615177f999e",
          "blockNumber": "0x1f8710d",
          "blockTimestamp": "0x695c64fb",
          "transactionHash": "0xe22ad04f0f3994c40ba7a85ee8f2de2d903ce1ee67346487dfcffbed63d2b950",
          "transactionIndex": "0x1",
          "logIndex": "0x0",
          "removed": false
        }
      ],
      "logsBloom": "0x20000000000000000200000020000000000000000000000000000000000000000000000000000000000000000000000000000000000000000010000000000000000000800000000000000000000000000000000000000000000000000000000000000000000000000000000000000000000000000000000000000000002000000000000000000000000000000000000000000000100000000000000000000000000000000000000000000000000000000000000000000000000000000000000000000000000000000000000000000000000000000000400000000000000000000000000000000000000000000080000000000000000000000000000000000000",
      "type": "0x2",
      "transactionHash": "0xe22ad04f0f3994c40ba7a85ee8f2de2d903ce1ee67346487dfcffbed63d2b950",
      "transactionIndex": "0x1",
      "blockHash": "0xd06ec3f49bed25593daf4bdd9c589a69a83d030dfd4e15fe2cd5e615177f999e",
      "blockNumber": "0x1f8710d",
      "gasUsed": "0x4cb2c0c",
      "effectiveGasPrice": "0x1312d01",
      "from": "0x1234562eb0cd65e7d08e59f9f18d7c10b5df232a",
      "to": "0x888361c3362712ba6bb442cbf714038fce0d9e49",
      "contractAddress": null,
      "l1Fee": "0x903f7",
      "l1FeeScalar": "0.01",
      "l1GasPrice": "0x8",
      "l1GasUsed": "0x9f8",
      "tokenRatio": "0xb4e"
    },
    {
      "status": "0x1",
      "cumulativeGasUsed": "0x4cb57cd",
      "logs": [
        {
          "address": "0x888361c3362712ba6bb442cbf714038fce0d9e49",
          "topics": [
            "0xac90355684e2710fa34c2c7d500018678b146ea2d56ddc331c63d242ee8bf385",
            "0x0000000000000000000000002c036be74942c597e4d81d7050008ddc11becceb"
          ],
          "data": "0x0000000000000000000000000000000000000000000000000000000000000001",
          "blockHash": "0x25b71aaedb78760743add5f49a6c010a76e3ac1add9da91baf44b34532ecb528",
          "blockNumber": "0x1f87111",
          "blockTimestamp": "0x695c6503",
          "transactionHash": "0x0da7783901f6ac807fa37c84d81166ea7a38cb7427fa48681b70e572d43eaa5d",
          "transactionIndex": "0x1",
          "logIndex": "0x0",
          "removed": false
        }
      ],
      "logsBloom": "0x20000000000000000200000000000000000000000000000000000000000000000000000000000000000000000000000000000000000000000010000000000000000000800000000000000000000000000000000000000000000010000000000000000000000000000000000000000000000000000000000000000000002000000000000000000000000000000000000000000000100000000000000000000000000000000000000000000000000000008000000000000000000000000000000000000000000000000000000000000000000000000000000000000000000000000000000000000000000000000000000000000000000000000000000000000002",
      "type": "0x2",
      "transactionHash": "0x0da7783901f6ac807fa37c84d81166ea7a38cb7427fa48681b70e572d43eaa5d",
      "transactionIndex": "0x1",
      "blockHash": "0x25b71aaedb78760743add5f49a6c010a76e3ac1add9da91baf44b34532ecb528",
      "blockNumber": "0x1f87111",
      "gasUsed": "0x4caa0d4",
      "effectiveGasPrice": "0x1312d01",
      "from": "0x1234562eb0cd65e7d08e59f9f18d7c10b5df232a",
      "to": "0x888361c3362712ba6bb442cbf714038fce0d9e49",
      "contractAddress": null,
      "l1Fee": "0x8f91c",
      "l1FeeScalar": "0.01",
      "l1GasPrice": "0x8",
      "l1GasUsed": "0x9ec",
      "tokenRatio": "0xb4e"
    },
    {
      "status": "0x1",
      "cumulativeGasUsed": "0xba80ad5",
      "logs": [
        {
          "address": "0x888361c3362712ba6bb442cbf714038fce0d9e49",
          "topics": [
            "0xac90355684e2710fa34c2c7d500018678b146ea2d56ddc331c63d242ee8bf385",
            "0x00000000000000000000000090cdcbf4c4bc78dc440252211efd744d0a4dc4a1"
          ],
          "data": "0x0000000000000000000000000000000000000000000000000000000000000001",
          "blockHash": "0x09c29e58d5aaf102ef0faf4df9f4804144f8f6ef17721cbd33db6d1004b47085",
          "blockNumber": "0x1f87115",
          "blockTimestamp": "0x695c650b",
          "transactionHash": "0xe60df85715617e94471fbdf0591048c6a40bb87bb5e20ee5ec6f00d219ffa2f5",
          "transactionIndex": "0x2",
          "logIndex": "0x1",
          "removed": false
        }
      ],
      "logsBloom": "0x20000000000000000200000000000000000000000000000010000000000000000000000000000000000000000000000000000000000000200010000000000000000000800000000000000000000000000000000000000000000000000000000000000000000000000000000000000000000000000000000000000000002000000000000000000000000000000000000000000000100000000000000000000000000000000000000000000000000000000000000000000000000000000000000000000000000000000000000000000000000000000000000000000000000000000000000000000000000000080000000000000000000000000000000000000000",
      "type": "0x2",
      "transactionHash": "0xe60df85715617e94471fbdf0591048c6a40bb87bb5e20ee5ec6f00d219ffa2f5",
      "transactionIndex": "0x2",
      "blockHash": "0x09c29e58d5aaf102ef0faf4df9f4804144f8f6ef17721cbd33db6d1004b47085",
      "blockNumber": "0x1f87115",
      "gasUsed": "0x4cb2c0c",
      "effectiveGasPrice": "0x1312d01",
      "from": "0x1234562eb0cd65e7d08e59f9f18d7c10b5df232a",
      "to": "0x888361c3362712ba6bb442cbf714038fce0d9e49",
      "contractAddress": null,
      "l1Fee": "0x903f7",
      "l1FeeScalar": "0.01",
      "l1GasPrice": "0x8",
      "l1GasUsed": "0x9f8",
      "tokenRatio": "0xb4e"
    },
    {
      "status": "0x1",
      "cumulativeGasUsed": "0x4cbe305",
      "logs": [
        {
          "address": "0x888361c3362712ba6bb442cbf714038fce0d9e49",
          "topics": [
            "0xac90355684e2710fa34c2c7d500018678b146ea2d56ddc331c63d242ee8bf385",
            "0x000000000000000000000000ced6ceb47301f268d57ff07879df45fda80e6974"
          ],
          "data": "0x0000000000000000000000000000000000000000000000000000000000000001",
          "blockHash": "0x26f43924bcf8410321de722216716707964216d746338a5a954865a6ede0595d",
          "blockNumber": "0x1f87119",
          "blockTimestamp": "0x695c6513",
          "transactionHash": "0xfeac647a8fb4da2956d35569257031136f310e0dd2601b66e9fddc3d713be31f",
          "transactionIndex": "0x1",
          "logIndex": "0x0",
          "removed": false
        }
      ],
      "logsBloom": "0x20000000000000000200000800000000000000000000000000000000000000000000000000000000000000000080000000000000000000000010000000000000000000800000000000000000000000000000000000000000000000000000000000000000000000000000000000000000000000000000000000000000002000000000000000000000000000000000000000000000100000000000000000000000000000000000000000000000000000000000000000000000000000000000000000000000000000000000000000000000000000000000002000000000000000000000000000000000000000000000000000000000000000000000000000000000",
      "type": "0x2",
      "transactionHash": "0xfeac647a8fb4da2956d35569257031136f310e0dd2601b66e9fddc3d713be31f",
      "transactionIndex": "0x1",
      "blockHash": "0x26f43924bcf8410321de722216716707964216d746338a5a954865a6ede0595d",
      "blockNumber": "0x1f87119",
      "gasUsed": "0x4cb2c0c",
      "effectiveGasPrice": "0x1312d01",
      "from": "0x1234562eb0cd65e7d08e59f9f18d7c10b5df232a",
      "to": "0x888361c3362712ba6bb442cbf714038fce0d9e49",
      "contractAddress": null,
      "l1Fee": "0x903f7",
      "l1FeeScalar": "0.01",
      "l1GasPrice": "0x8",
      "l1GasUsed": "0x9f8",
      "tokenRatio": "0xb4e"
    },
    {
      "status": "0x1",
      "cumulativeGasUsed": "0x14bc1719",
      "logs": [
        {
          "address": "0x888361c3362712ba6bb442cbf714038fce0d9e49",
          "topics": [
            "0xac90355684e2710fa34c2c7d500018678b146ea2d56ddc331c63d242ee8bf385",
            "0x000000000000000000000000782ba48189af93a0cf42766058de83291f384bf3"
          ],
          "data": "0x0000000000000000000000000000000000000000000000000000000000000001",
          "blockHash": "0x9eab1387fda11a90b7f66a585d8bb46eaf60579f3ce7b90590cac93abd2a1342",
          "blockNumber": "0x1f8711d",
          "blockTimestamp": "0x695c651b",
          "transactionHash": "0x5abbd9548531ffeb60768a4762b003e9d696a432d9ab86686a5479aabee6819e",
          "transactionIndex": "0x2",
          "logIndex": "0x3",
          "removed": false
        }
      ],
      "logsBloom": "0x20000000000000000200000000000000000020000000000000000000000000000000000000000000000000000000000000000000000000000010000000000000000000800000000000000000000000000000000000000000000000000000000000000000000000000000000000000000000000000000000000000000002000000000000100000000000000000000000000000000100000000000000000000000000000000000000000008000000000000000000000000000000000000000000000000000000000000000000000000000000000000000000000000000000000000000000000000000000000000000000000000000000000000000000000000000",
      "type": "0x2",
      "transactionHash": "0x5abbd9548531ffeb60768a4762b003e9d696a432d9ab86686a5479aabee6819e",
      "transactionIndex": "0x2",
      "blockHash": "0x9eab1387fda11a90b7f66a585d8bb46eaf60579f3ce7b90590cac93abd2a1342",
      "blockNumber": "0x1f8711d",
      "gasUsed": "0x4cb2c0c",
      "effectiveGasPrice": "0x1312d01",
      "from": "0x1234562eb0cd65e7d08e59f9f18d7c10b5df232a",
      "to": "0x888361c3362712ba6bb442cbf714038fce0d9e49",
      "contractAddress": null,
      "l1Fee": "0x8f91c",
      "l1FeeScalar": "0.01",
      "l1GasPrice": "0x8",
      "l1GasUsed": "0x9ec",
      "tokenRatio": "0xb4e"
    }
  ],
  "libraries": [],
  "pending": [],
  "returns": {},
  "timestamp": 1767662882508,
  "chain": 5003,
  "commit": "cd2a7c9"
}