{
  "transactions": [
    {
      "hash": "0x851bdf16649d1de499f5df7958d6a834f3d33ee83327242036efa11f4ac8d85e",
      "transactionType": "CALL",
      "contractName": null,
      "contractAddress": "0xf3607a98c7a4c0a41f62c1492a771c47c4ed62dc",
      "function": "setIsHubChain(bool)",
      "arguments": [
        "false"
      ],
      "transaction": {
        "from": "0x1234562eb0cd65e7d08e59f9f18d7c10b5df232a",
        "to": "0xf3607a98c7a4c0a41f62c1492a771c47c4ed62dc",
        "gas": "0x8f8d",
        "value": "0x0",
        "input": "0xf54efd770000000000000000000000000000000000000000000000000000000000000000",
        "nonce": "0xbf57",
        "chainId": "0x14a34"
      },
      "additionalContracts": [],
      "isFixedGasLimit": false
    },
    {
      "hash": "0x10b151719f16d88c574422570c68b33bf5da30b38d02ba1b6a283275cbd65ee5",
      "transactionType": "CALL",
      "contractName": null,
      "contractAddress": "0xf3607a98c7a4c0a41f62c1492a771c47c4ed62dc",
      "function": "setHubChainDomainId(uint32)",
      "arguments": [
        "5003"
      ],
      "transaction": {
        "from": "0x1234562eb0cd65e7d08e59f9f18d7c10b5df232a",
        "to": "0xf3607a98c7a4c0a41f62c1492a771c47c4ed62dc",
        "gas": "0x8bd3",
        "value": "0x0",
        "input": "0x3b3b2d8c000000000000000000000000000000000000000000000000000000000000138b",
        "nonce": "0xbf58",
        "chainId": "0x14a34"
      },
      "additionalContracts": [],
      "isFixedGasLimit": false
    },
    {
      "hash": "0xcb091c14a4a458d076e97c6b8d6b20c7e59b5b78e7be59c89020166f86388d2d",
      "transactionType": "CALL",
      "contractName": null,
      "contractAddress": "0xf3607a98c7a4c0a41f62c1492a771c47c4ed62dc",
      "function": "setHubContractAddress(address)",
      "arguments": [
        "0x888361c3362712Ba6BB442cbF714038fCe0d9e49"
      ],
      "transaction": {
        "from": "0x1234562eb0cd65e7d08e59f9f18d7c10b5df232a",
        "to": "0xf3607a98c7a4c0a41f62c1492a771c47c4ed62dc",
        "gas": "0x9d7f",
        "value": "0x0",
        "input": "0x833ccb35000000000000000000000000888361c3362712ba6bb442cbf714038fce0d9e49",
        "nonce": "0xbf59",
        "chainId": "0x14a34"
      },
      "additionalContracts": [],
      "isFixedGasLimit": false
    },
    {
      "hash": "0xe5d01e8f6325a6d4bbb68860c1eb9f3287e63e3c60de1473ca6f6b3f9a855ea5",
      "transactionType": "CALL",
      "contractName": null,
      "contractAddress": "0xf3607a98c7a4c0a41f62c1492a771c47c4ed62dc",
      "function": "setTokenToHypToken(address,address)",
      "arguments": [
        "0x33c6f26dA09502E6540043f030aE1F87f109cc99",
        "0x33c6f26dA09502E6540043f030aE1F87f109cc99"
      ],
      "transaction": {
        "from": "0x1234562eb0cd65e7d08e59f9f18d7c10b5df232a",
        "to": "0xf3607a98c7a4c0a41f62c1492a771c47c4ed62dc",
        "gas": "0x936e",
        "value": "0x0",
        "input": "0xee68870600000000000000000000000033c6f26da09502e6540043f030ae1f87f109cc9900000000000000000000000033c6f26da09502e6540043f030ae1f87f109cc99",
        "nonce": "0xbf5a",
        "chainId": "0x14a34"
      },
      "additionalContracts": [],
      "isFixedGasLimit": false
    },
    {
      "hash": "0x5b6e5b304c245a93601c6942990c4951fa9cd14449a921d1e1ca2f49c297dbf7",
      "transactionType": "CALL",
      "contractName": null,
      "contractAddress": "0xf3607a98c7a4c0a41f62c1492a771c47c4ed62dc",
      "function": "setTokenToHypToken(address,address)",
      "arguments": [
        "0x7CB382Ce1AA40FA9F9A59a632090c05Dc28caE7b",
        "0x7CB382Ce1AA40FA9F9A59a632090c05Dc28caE7b"
      ],
      "transaction": {
        "from": "0x1234562eb0cd65e7d08e59f9f18d7c10b5df232a",
        "to": "0xf3607a98c7a4c0a41f62c1492a771c47c4ed62dc",
        "gas": "0x9390",
        "value": "0x0",
        "input": "0xee6887060000000000000000000000007cb382ce1aa40fa9f9a59a632090c05dc28cae7b0000000000000000000000007cb382ce1aa40fa9f9a59a632090c05dc28cae7b",
        "nonce": "0xbf5b",
        "chainId": "0x14a34"
      },
      "additionalContracts": [],
      "isFixedGasLimit": false
    },
    {
      "hash": "0x08299ba17cbae9b3a1866e25eba616bc14d12653c91351596b22952f28939328",
      "transactionType": "CALL",
      "contractName": null,
      "contractAddress": "0xf3607a98c7a4c0a41f62c1492a771c47c4ed62dc",
      "function": "setTokenToHypToken(address,address)",
      "arguments": [
        "0xB288Ba5B5b80Dd0Fd83541ef2e5922f71121Fa13",
        "0xB288Ba5B5b80Dd0Fd83541ef2e5922f71121Fa13"
      ],
      "transaction": {
        "from": "0x1234562eb0cd65e7d08e59f9f18d7c10b5df232a",
        "to": "0xf3607a98c7a4c0a41f62c1492a771c47c4ed62dc",
        "gas": "0x9390",
        "value": "0x0",
        "input": "0xee688706000000000000000000000000b288ba5b5b80dd0fd83541ef2e5922f71121fa13000000000000000000000000b288ba5b5b80dd0fd83541ef2e5922f71121fa13",
        "nonce": "0xbf5c",
        "chainId": "0x14a34"
      },
      "additionalContracts": [],
      "isFixedGasLimit": false
    },
    {
      "hash": "0x8e8d764976bb57e7b2b9d013e81301c37b3c6f48a614b8191e273486ded290b4",
      "transactionType": "CALL",
      "contractName": null,
      "contractAddress": "0xf3607a98c7a4c0a41f62c1492a771c47c4ed62dc",
      "function": "setTokenToHypToken(address,address)",
      "arguments": [
        "0xC4a53c466Cfb62AecED03008B0162baaf36E0B03",
        "0xC4a53c466Cfb62AecED03008B0162baaf36E0B03"
      ],
      "transaction": {
        "from": "0x1234562eb0cd65e7d08e59f9f18d7c10b5df232a",
        "to": "0xf3607a98c7a4c0a41f62c1492a771c47c4ed62dc",
        "gas": "0x9390",
        "value": "0x0",
        "input": "0xee688706000000000000000000000000c4a53c466cfb62aeced03008b0162baaf36e0b03000000000000000000000000c4a53c466cfb62aeced03008b0162baaf36e0b03",
        "nonce": "0xbf5d",
        "chainId": "0x14a34"
      },
      "additionalContracts": [],
      "isFixedGasLimit": false
    },
    {
      "hash": "0x565381e282b4b204b1aa547818668fca4d9ae3ca64f693f70f9c2b5ff22227c7",
      "transactionType": "CALL",
      "contractName": null,
      "contractAddress": "0xf3607a98c7a4c0a41f62c1492a771c47c4ed62dc",
      "function": "setTokenToHypToken(address,address)",
      "arguments": [
        "0x70Db6eFB75c898Ad1e194FDA2B8C6e73dbC944d6",
        "0x70Db6eFB75c898Ad1e194FDA2B8C6e73dbC944d6"
      ],
      "transaction": {
        "from": "0x1234562eb0cd65e7d08e59f9f18d7c10b5df232a",
        "to": "0xf3607a98c7a4c0a41f62c1492a771c47c4ed62dc",
        "gas": "0x9390",
        "value": "0x0",
        "input": "0xee68870600000000000000000000000070db6efb75c898ad1e194fda2b8c6e73dbc944d600000000000000000000000070db6efb75c898ad1e194fda2b8c6e73dbc944d6",
        "nonce": "0xbf5e",
        "chainId": "0x14a34"
      },
      "additionalContracts": [],
      "isFixedGasLimit": false
    },
    {
      "hash": "0xae81b973c5db1e16fda3130733595f96134af79696c6ac436ed60517f993f65f",
      "transactionType": "CALL",
      "contractName": null,
      "contractAddress": "0xf3607a98c7a4c0a41f62c1492a771c47c4ed62dc",
      "function": "setTokenToHypToken(address,address)",
      "arguments": [
        "0xEE589FBF85128abA6f42696dB2F28eA9EBddE173",
        "0xEE589FBF85128abA6f42696dB2F28eA9EBddE173"
      ],
      "transaction": {
        "from": "0x1234562eb0cd65e7d08e59f9f18d7c10b5df232a",
        "to": "0xf3607a98c7a4c0a41f62c1492a771c47c4ed62dc",
        "gas": "0x9390",
        "value": "0x0",
        "input": "0xee688706000000000000000000000000ee589fbf85128aba6f42696db2f28ea9ebdde173000000000000000000000000ee589fbf85128aba6f42696db2f28ea9ebdde173",
        "nonce": "0xbf5f",
        "chainId": "0x14a34"
      },
      "additionalContracts": [],
      "isFixedGasLimit": false
    },
    {
      "hash": "0x94f61df706152a76b43c24db5ac62229f4c649c8ffd54f15db38e3a0fbe0f6e1",
      "transactionType": "CALL",
      "contractName": null,
      "contractAddress": "0xf3607a98c7a4c0a41f62c1492a771c47c4ed62dc",
      "function": "setTokenToHypToken(address,address)",
      "arguments": [
        "0x2C036be74942c597e4d81D7050008dDc11becCEb",
        "0x2C036be74942c597e4d81D7050008dDc11becCEb"
      ],
      "transaction": {
        "from": "0x1234562eb0cd65e7d08e59f9f18d7c10b5df232a",
        "to": "0xf3607a98c7a4c0a41f62c1492a771c47c4ed62dc",
        "gas": "0x936e",
        "value": "0x0",
        "input": "0xee6887060000000000000000000000002c036be74942c597e4d81d7050008ddc11becceb0000000000000000000000002c036be74942c597e4d81d7050008ddc11becceb",
        "nonce": "0xbf60",
        "chainId": "0x14a34"
      },
      "additionalContracts": [],
      "isFixedGasLimit": false
    },
    {
      "hash": "0x08837573dd08884a30435f5af72b972c4078b47290a499d5710715dab0954a6d",
      "transactionType": "CALL",
      "contractName": null,
      "contractAddress": "0xf3607a98c7a4c0a41f62c1492a771c47c4ed62dc",
      "function": "setTokenToHypToken(address,address)",
      "arguments": [
        "0x90CdcBF4c4bc78dC440252211EFd744d0A4Dc4A1",
        "0x90CdcBF4c4bc78dC440252211EFd744d0A4Dc4A1"
      ],
      "transaction": {
        "from": "0x1234562eb0cd65e7d08e59f9f18d7c10b5df232a",
        "to": "0xf3607a98c7a4c0a41f62c1492a771c47c4ed62dc",
        "gas": "0x9390",
        "value": "0x0",
        "input": "0xee68870600000000000000000000000090cdcbf4c4bc78dc440252211efd744d0a4dc4a100000000000000000000000090cdcbf4c4bc78dc440252211efd744d0a4dc4a1",
        "nonce": "0xbf61",
        "chainId": "0x14a34"
      },
      "additionalContracts": [],
      "isFixedGasLimit": false
    },
    {
      "hash": "0xd96bd18fb70e9c437e7d0a4f9e6a670f81643524b7a34397b888b076dcf7a3a8",
      "transactionType": "CALL",
      "contractName": null,
      "contractAddress": "0xf3607a98c7a4c0a41f62c1492a771c47c4ed62dc",
      "function": "setTokenToHypToken(address,address)",
      "arguments": [
        "0xced6Ceb47301F268d57fF07879DF45Fda80e6974",
        "0xced6Ceb47301F268d57fF07879DF45Fda80e6974"
      ],
      "transaction": {
        "from": "0x1234562eb0cd65e7d08e59f9f18d7c10b5df232a",
        "to": "0xf3607a98c7a4c0a41f62c1492a771c47c4ed62dc",
        "gas": "0x9390",
        "value": "0x0",
        "input": "0xee688706000000000000000000000000ced6ceb47301f268d57ff07879df45fda80e6974000000000000000000000000ced6ceb47301f268d57ff07879df45fda80e6974",
        "nonce": "0xbf62",
        "chainId": "0x14a34"
      },
      "additionalContracts": [],
      "isFixedGasLimit": false
    },
    {
      "hash": "0xde24c07e5592842df655518a640766419e4447745a6131e759469afa658ce6bc",
      "transactionType": "CALL",
      "contractName": null,
      "contractAddress": "0xf3607a98c7a4c0a41f62c1492a771c47c4ed62dc",
      "function": "setTokenToHypToken(address,address)",
      "arguments": [
        "0x782Ba48189AF93a0CF42766058DE83291f384bF3",
        "0x782Ba48189AF93a0CF42766058DE83291f384bF3"
      ],
      "transaction": {
        "from": "0x1234562eb0cd65e7d08e59f9f18d7c10b5df232a",
        "to": "0xf3607a98c7a4c0a41f62c1492a771c47c4ed62dc",
        "gas": "0x9390",
        "value": "0x0",
        "input": "0xee688706000000000000000000000000782ba48189af93a0cf42766058de83291f384bf3000000000000000000000000782ba48189af93a0cf42766058de83291f384bf3",
        "nonce": "0xbf63",
        "chainId": "0x14a34"
      },
      "additionalContracts": [],
      "isFixedGasLimit": false
    },
    {
      "hash": "0xcf9b96391897610b2ea0779e0f10861bedb1930a4b7ef891fea399b99e023f97",
      "transactionType": "CALL",
      "contractName": null,
      "contractAddress": "0xf3607a98c7a4c0a41f62c1492a771c47c4ed62dc",
      "function": "setGlobalWhitelist(address,bool)",
      "arguments": [
        "0x33c6f26dA09502E6540043f030aE1F87f109cc99",
        "true"
      ],
      "transaction": {
        "from": "0x1234562eb0cd65e7d08e59f9f18d7c10b5df232a",
        "to": "0xf3607a98c7a4c0a41f62c1492a771c47c4ed62dc",
        "gas": "0x9eaf",
        "value": "0x0",
        "input": "0x25d86ced00000000000000000000000033c6f26da09502e6540043f030ae1f87f109cc990000000000000000000000000000000000000000000000000000000000000001",
        "nonce": "0xbf64",
        "chainId": "0x14a34"
      },
      "additionalContracts": [],
      "isFixedGasLimit": false
    },
    {
      "hash": "0x321696f3c7009cb6dd2fe2fb0fdb35d35ecc25fc14513a57179515a2bb5551e9",
      "transactionType": "CALL",
      "contractName": null,
      "contractAddress": "0xf3607a98c7a4c0a41f62c1492a771c47c4ed62dc",
      "function": "setGlobalWhitelist(address,bool)",
      "arguments": [
        "0x7CB382Ce1AA40FA9F9A59a632090c05Dc28caE7b",
        "true"
      ],
      "transaction": {
        "from": "0x1234562eb0cd65e7d08e59f9f18d7c10b5df232a",
        "to": "0xf3607a98c7a4c0a41f62c1492a771c47c4ed62dc",
        "gas": "0x95ee",
        "value": "0x0",
        "input": "0x25d86ced0000000000000000000000007cb382ce1aa40fa9f9a59a632090c05dc28cae7b0000000000000000000000000000000000000000000000000000000000000001",
        "nonce": "0xbf65",
        "chainId": "0x14a34"
      },
      "additionalContracts": [],
      "isFixedGasLimit": false
    },
    {
      "hash": "0x4ee38567d5b6cbec86f8b6c672ac8c3bab3c0008ae1c80b99b57f65c1c18b158",
      "transactionType": "CALL",
      "contractName": null,
      "contractAddress": "0xf3607a98c7a4c0a41f62c1492a771c47c4ed62dc",
      "function": "setGlobalWhitelist(address,bool)",
      "arguments": [
        "0xB288Ba5B5b80Dd0Fd83541ef2e5922f71121Fa13",
        "true"
      ],
      "transaction": {
        "from": "0x1234562eb0cd65e7d08e59f9f18d7c10b5df232a",
        "to": "0xf3607a98c7a4c0a41f62c1492a771c47c4ed62dc",
        "gas": "0x95ee",
        "value": "0x0",
        "input": "0x25d86ced000000000000000000000000b288ba5b5b80dd0fd83541ef2e5922f71121fa130000000000000000000000000000000000000000000000000000000000000001",
        "nonce": "0xbf66",
        "chainId": "0x14a34"
      },
      "additionalContracts": [],
      "isFixedGasLimit": false
    },
    {
      "hash": "0xaffd7a0f2bfc503789ee8407769ecb82f2d6fd6f8bf7d34a04e43f5f836a40bd",
      "transactionType": "CALL",
      "contractName": null,
      "contractAddress": "0xf3607a98c7a4c0a41f62c1492a771c47c4ed62dc",
      "function": "setGlobalWhitelist(address,bool)",
      "arguments": [
        "0xC4a53c466Cfb62AecED03008B0162baaf36E0B03",
        "true"
      ],
      "transaction": {
        "from": "0x1234562eb0cd65e7d08e59f9f18d7c10b5df232a",
        "to": "0xf3607a98c7a4c0a41f62c1492a771c47c4ed62dc",
        "gas": "0x95ee",
        "value": "0x0",
        "input": "0x25d86ced000000000000000000000000c4a53c466cfb62aeced03008b0162baaf36e0b030000000000000000000000000000000000000000000000000000000000000001",
        "nonce": "0xbf67",
        "chainId": "0x14a34"
      },
      "additionalContracts": [],
      "isFixedGasLimit": false
    },
    {
      "hash": "0x18136b8c02767607b2c2ee0df4c3101a595fa3185f6cf882fe493a8f527865f2",
      "transactionType": "CALL",
      "contractName": null,
      "contractAddress": "0xf3607a98c7a4c0a41f62c1492a771c47c4ed62dc",
      "function": "setGlobalWhitelist(address,bool)",
      "arguments": [
        "0x70Db6eFB75c898Ad1e194FDA2B8C6e73dbC944d6",
        "true"
      ],
      "transaction": {
        "from": "0x1234562eb0cd65e7d08e59f9f18d7c10b5df232a",
        "to": "0xf3607a98c7a4c0a41f62c1492a771c47c4ed62dc",
        "gas": "0x95ee",
        "value": "0x0",
        "input": "0x25d86ced00000000000000000000000070db6efb75c898ad1e194fda2b8c6e73dbc944d60000000000000000000000000000000000000000000000000000000000000001",
        "nonce": "0xbf68",
        "chainId": "0x14a34"
      },
      "additionalContracts": [],
      "isFixedGasLimit": false
    },
    {
      "hash": "0x02cf67aa257fb300e8abcc8f112958cfc2032858411041c563c78194c8264ead",
      "transactionType": "CALL",
      "contractName": null,
      "contractAddress": "0xf3607a98c7a4c0a41f62c1492a771c47c4ed62dc",
      "function": "setGlobalWhitelist(address,bool)",
      "arguments": [
        "0xEE589FBF85128abA6f42696dB2F28eA9EBddE173",
        "true"
      ],
      "transaction": {
        "from": "0x1234562eb0cd65e7d08e59f9f18d7c10b5df232a",
        "to": "0xf3607a98c7a4c0a41f62c1492a771c47c4ed62dc",
        "gas": "0x95ee",
        "value": "0x0",
        "input": "0x25d86ced000000000000000000000000ee589fbf85128aba6f42696db2f28ea9ebdde1730000000000000000000000000000000000000000000000000000000000000001",
        "nonce": "0xbf69",
        "chainId": "0x14a34"
      },
      "additionalContracts": [],
      "isFixedGasLimit": false
    },
    {
      "hash": "0x0b80fecf007e85f33a9e3d0e364b9a73e60167d74fb7251010d56fd030ad2c3b",
      "transactionType": "CALL",
      "contractName": null,
      "contractAddress": "0xf3607a98c7a4c0a41f62c1492a771c47c4ed62dc",
      "function": "setGlobalWhitelist(address,bool)",
      "arguments": [
        "0x2C036be74942c597e4d81D7050008dDc11becCEb",
        "true"
      ],
      "transaction": {
        "from": "0x1234562eb0cd65e7d08e59f9f18d7c10b5df232a",
        "to": "0xf3607a98c7a4c0a41f62c1492a771c47c4ed62dc",
        "gas": "0x9eaf",
        "value": "0x0",
        "input": "0x25d86ced0000000000000000000000002c036be74942c597e4d81d7050008ddc11becceb0000000000000000000000000000000000000000000000000000000000000001",
        "nonce": "0xbf6a",
        "chainId": "0x14a34"
      },
      "additionalContracts": [],
      "isFixedGasLimit": false
    },
    {
      "hash": "0xb36ce72e30e9ae19a60d8df186aff38f666d8e2638bd594993893f07207d55c1",
      "transactionType": "CALL",
      "contractName": null,
      "contractAddress": "0xf3607a98c7a4c0a41f62c1492a771c47c4ed62dc",
      "function": "setGlobalWhitelist(address,bool)",
      "arguments": [
        "0x90CdcBF4c4bc78dC440252211EFd744d0A4Dc4A1",
        "true"
      ],
      "transaction": {
        "from": "0x1234562eb0cd65e7d08e59f9f18d7c10b5df232a",
        "to": "0xf3607a98c7a4c0a41f62c1492a771c47c4ed62dc",
        "gas": "0x95ee",
        "value": "0x0",
        "input": "0x25d86ced00000000000000000000000090cdcbf4c4bc78dc440252211efd744d0a4dc4a10000000000000000000000000000000000000000000000000000000000000001",
        "nonce": "0xbf6b",
        "chainId": "0x14a34"
      },
      "additionalContracts": [],
      "isFixedGasLimit": false
    },
    {
      "hash": "0xb64b80fe004a6d3d9043294635466e57ed0b09e520728197485f7857ed64ab1e",
      "transactionType": "CALL",
      "contractName": null,
      "contractAddress": "0xf3607a98c7a4c0a41f62c1492a771c47c4ed62dc",
      "function": "setGlobalWhitelist(address,bool)",
      "arguments": [
        "0xced6Ceb47301F268d57fF07879DF45Fda80e6974",
        "true"
      ],
      "transaction": {
        "from": "0x1234562eb0cd65e7d08e59f9f18d7c10b5df232a",
        "to": "0xf3607a98c7a4c0a41f62c1492a771c47c4ed62dc",
        "gas": "0x95ee",
        "value": "0x0",
        "input": "0x25d86ced000000000000000000000000ced6ceb47301f268d57ff07879df45fda80e69740000000000000000000000000000000000000000000000000000000000000001",
        "nonce": "0xbf6c",
        "chainId": "0x14a34"
      },
      "additionalContracts": [],
      "isFixedGasLimit": false
    },
    {
      "hash": "0xcbb8ceb21508ea7390d1340e8ce241099a561511bb6f71dc9978047258122ce4",
      "transactionType": "CALL",
      "contractName": null,
      "contractAddress": "0xf3607a98c7a4c0a41f62c1492a771c47c4ed62dc",
      "function": "setGlobalWhitelist(address,bool)",
      "arguments": [
        "0x782Ba48189AF93a0CF42766058DE83291f384bF3",
        "true"
      ],
      "transaction": {
        "from": "0x1234562eb0cd65e7d08e59f9f18d7c10b5df232a",
        "to": "0xf3607a98c7a4c0a41f62c1492a771c47c4ed62dc",
        "gas": "0x95ee",
        "value": "0x0",
        "input": "0x25d86ced000000000000000000000000782ba48189af93a0cf42766058de83291f384bf30000000000000000000000000000000000000000000000000000000000000001",
        "nonce": "0xbf6d",
        "chainId": "0x14a34"
      },
      "additionalContracts": [],
      "isFixedGasLimit": false
    }
  ],
  "receipts": [
    {
      "status": "0x1",
      "cumulativeGasUsed": "0x1dcda0",
      "logs": [],
      "logsBloom": "0x00000000000000000000000000000000000000000000000000000000000000000000000000000000000000000000000000000000000000000000000000000000000000000000000000000000000000000000000000000000000000000000000000000000000000000000000000000000000000000000000000000000000000000000000000000000000000000000000000000000000000000000000000000000000000000000000000000000000000000000000000000000000000000000000000000000000000000000000000000000000000000000000000000000000000000000000000000000000000000000000000000000000000000000000000000000",
      "type": "0x2",
      "transactionHash": "0xb36ce72e30e9ae19a60d8df186aff38f666d8e2638bd594993893f07207d55c1",
      "transactionIndex": "0x8",
      "blockHash": "0xe61a22105493876cc8a95180ae5d1757625563b8a8544b88bbf324a528790a47",
      "blockNumber": "0x22483e6",
      "gasUsed": "0x67ef",
      "effectiveGasPrice": "0x124f80",
      "blobGasUsed": "0x79e0",
      "from": "0x1234562eb0cd65e7d08e59f9f18d7c10b5df232a",
      "to": "0xf3607a98c7a4c0a41f62c1492a771c47c4ed62dc",
      "contractAddress": null,
      "daFootprintGasScalar": "0x138",
      "l1BaseFeeScalar": "0x44d",
      "l1BlobBaseFee": "0x1",
      "l1BlobBaseFeeScalar": "0xa118b",
      "l1Fee": "0x50",
      "l1GasPrice": "0x8",
      "l1GasUsed": "0x640"
    },
    {
      "status": "0x1",
      "cumulativeGasUsed": "0x1e32dc",
      "logs": [],
      "logsBloom": "0x00000000000000000000000000000000000000000000000000000000000000000000000000000000000000000000000000000000000000000000000000000000000000000000000000000000000000000000000000000000000000000000000000000000000000000000000000000000000000000000000000000000000000000000000000000000000000000000000000000000000000000000000000000000000000000000000000000000000000000000000000000000000000000000000000000000000000000000000000000000000000000000000000000000000000000000000000000000000000000000000000000000000000000000000000000000",
      "type": "0x2",
      "transactionHash": "0xaffd7a0f2bfc503789ee8407769ecb82f2d6fd6f8bf7d34a04e43f5f836a40bd",
      "transactionIndex": "0x9",
      "blockHash": "0x99b65e1eae86624d33b632b5a478acccee8da295b97dd83ea95652575365bf23",
      "blockNumber": "0x22483e6",
      "gasUsed": "0x653c",
      "effectiveGasPrice": "0x124f80",
      "blobGasUsed": "0x79e0",
      "from": "0x1234562eb0cd65e7d08e59f9f18d7c10b5df232a",
      "to": "0xf3607a98c7a4c0a41f62c1492a771c47c4ed62dc",
      "contractAddress": null,
      "daFootprintGasScalar": "0x138",
      "l1BaseFeeScalar": "0x44d",
      "l1BlobBaseFee": "0x1",
      "l1BlobBaseFeeScalar": "0xa118b",
      "l1Fee": "0x50",
      "l1GasPrice": "0x8",
      "l1GasUsed": "0x640"
    },
    {
      "status": "0x1",
      "cumulativeGasUsed": "0x1ea4e3",
      "logs": [],
      "logsBloom": "0x00000000000000000000000000000000000000000000000000000000000000000000000000000000000000000000000000000000000000000000000000000000000000000000000000000000000000000000000000000000000000000000000000000000000000000000000000000000000000000000000000000000000000000000000000000000000000000000000000000000000000000000000000000000000000000000000000000000000000000000000000000000000000000000000000000000000000000000000000000000000000000000000000000000000000000000000000000000000000000000000000000000000000000000000000000000",
      "type": "0x2",
      "transactionHash": "0xcb091c14a4a458d076e97c6b8d6b20c7e59b5b78e7be59c89020166f86388d2d",
      "transactionIndex": "0xa",
      "blockHash": "0x99b65e1eae86624d33b632b5a478acccee8da295b97dd83ea95652575365bf23",
      "blockNumber": "0x22483e6",
      "gasUsed": "0x7207",
      "effectiveGasPrice": "0x124f80",
      "blobGasUsed": "0x79e0",
      "from": "0x1234562eb0cd65e7d08e59f9f18d7c10b5df232a",
      "to": "0xf3607a98c7a4c0a41f62c1492a771c47c4ed62dc",
      "contractAddress": null,
      "daFootprintGasScalar": "0x138",
      "l1BaseFeeScalar": "0x44d",
      "l1BlobBaseFee": "0x1",
      "l1BlobBaseFeeScalar": "0xa118b",
      "l1Fee": "0x50",
      "l1GasPrice": "0x8",
      "l1GasUsed": "0x640"
    },
    {
      "status": "0x1",
      "cumulativeGasUsed": "0x1f0fa1",
      "logs": [],
      "logsBloom": "0x00000000000000000000000000000000000000000000000000000000000000000000000000000000000000000000000000000000000000000000000000000000000000000000000000000000000000000000000000000000000000000000000000000000000000000000000000000000000000000000000000000000000000000000000000000000000000000000000000000000000000000000000000000000000000000000000000000000000000000000000000000000000000000000000000000000000000000000000000000000000000000000000000000000000000000000000000000000000000000000000000000000000000000000000000000000",
      "type": "0x2",
      "transactionHash": "0x851bdf16649d1de499f5df7958d6a834f3d33ee83327242036efa11f4ac8d85e",
      "transactionIndex": "0xb",
      "blockHash": "0x99b65e1eae86624d33b632b5a478acccee8da295b97dd83ea95652575365bf23",
      "blockNumber": "0x22483e6",
      "gasUsed": "0x6abe",
      "effectiveGasPrice": "0x124f80",
      "blobGasUsed": "0x79e0",
      "from": "0x1234562eb0cd65e7d08e59f9f18d7c10b5df232a",
      "to": "0xf3607a98c7a4c0a41f62c1492a771c47c4ed62dc",
      "contractAddress": null,
      "daFootprintGasScalar": "0x138",
      "l1BaseFeeScalar": "0x44d",
      "l1BlobBaseFee": "0x1",
      "l1BlobBaseFeeScalar": "0xa118b",
      "l1Fee": "0x50",
      "l1GasPrice": "0x8",
      "l1GasUsed": "0x640"
    },
    {
      "status": "0x1",
      "cumulativeGasUsed": "0x1f7a77",
      "logs": [],
      "logsBloom": "0x00000000000000000000000000000000000000000000000000000000000000000000000000000000000000000000000000000000000000000000000000000000000000000000000000000000000000000000000000000000000000000000000000000000000000000000000000000000000000000000000000000000000000000000000000000000000000000000000000000000000000000000000000000000000000000000000000000000000000000000000000000000000000000000000000000000000000000000000000000000000000000000000000000000000000000000000000000000000000000000000000000000000000000000000000000000",
      "type": "0x2",
      "transactionHash": "0x08837573dd08884a30435f5af72b972c4078b47290a499d5710715dab0954a6d",
      "transactionIndex": "0xc",
      "blockHash": "0x99b65e1eae86624d33b632b5a478acccee8da295b97dd83ea95652575365bf23",
      "blockNumber": "0x22483e6",
      "gasUsed": "0x6ad6",
      "effectiveGasPrice": "0x124f80",
      "blobGasUsed": "0x79e0",
      "from": "0x1234562eb0cd65e7d08e59f9f18d7c10b5df232a",
      "to": "0xf3607a98c7a4c0a41f62c1492a771c47c4ed62dc",
      "contractAddress": null,
      "daFootprintGasScalar": "0x138",
      "l1BaseFeeScalar": "0x44d",
      "l1BlobBaseFee": "0x1",
      "l1BlobBaseFeeScalar": "0xa118b",
      "l1Fee": "0x50",
      "l1GasPrice": "0x8",
      "l1GasUsed": "0x640"
    },
    {
      "status": "0x1",
      "cumulativeGasUsed": "0x1fe54d",
      "logs": [],
      "logsBloom": "0x00000000000000000000000000000000000000000000000000000000000000000000000000000000000000000000000000000000000000000000000000000000000000000000000000000000000000000000000000000000000000000000000000000000000000000000000000000000000000000000000000000000000000000000000000000000000000000000000000000000000000000000000000000000000000000000000000000000000000000000000000000000000000000000000000000000000000000000000000000000000000000000000000000000000000000000000000000000000000000000000000000000000000000000000000000000",
      "type": "0x2",
      "transactionHash": "0xae81b973c5db1e16fda3130733595f96134af79696c6ac436ed60517f993f65f",
      "transactionIndex": "0xd",
      "blockHash": "0x99b65e1eae86624d33b632b5a478acccee8da295b97dd83ea95652575365bf23",
      "blockNumber": "0x22483e6",
      "gasUsed": "0x6ad6",
      "effectiveGasPrice": "0x124f80",
      "blobGasUsed": "0x79e0",
      "from": "0x1234562eb0cd65e7d08e59f9f18d7c10b5df232a",
      "to": "0xf3607a98c7a4c0a41f62c1492a771c47c4ed62dc",
      "contractAddress": null,
      "daFootprintGasScalar": "0x138",
      "l1BaseFeeScalar": "0x44d",
      "l1BlobBaseFee": "0x1",
      "l1BlobBaseFeeScalar": "0xa118b",
      "l1Fee": "0x50",
      "l1GasPrice": "0x8",
      "l1GasUsed": "0x640"
    },
    {
      "status": "0x1",
      "cumulativeGasUsed": "0x205023",
      "logs": [],
      "logsBloom": "0x00000000000000000000000000000000000000000000000000000000000000000000000000000000000000000000000000000000000000000000000000000000000000000000000000000000000000000000000000000000000000000000000000000000000000000000000000000000000000000000000000000000000000000000000000000000000000000000000000000000000000000000000000000000000000000000000000000000000000000000000000000000000000000000000000000000000000000000000000000000000000000000000000000000000000000000000000000000000000000000000000000000000000000000000000000000",
      "type": "0x2",
      "transactionHash": "0x02cf67aa257fb300e8abcc8f112958cfc2032858411041c563c78194c8264ead",
      "transactionIndex": "0xe",
      "blockHash": "0x99b65e1eae86624d33b632b5a478acccee8da295b97dd83ea95652575365bf23",
      "blockNumber": "0x22483e6",
      "gasUsed": "0x6ad6",
      "effectiveGasPrice": "0x124f80",
      "blobGasUsed": "0x79e0",
      "from": "0x1234562eb0cd65e7d08e59f9f18d7c10b5df232a",
      "to": "0xf3607a98c7a4c0a41f62c1492a771c47c4ed62dc",
      "contractAddress": null,
      "daFootprintGasScalar": "0x138",
      "l1BaseFeeScalar": "0x44d",
      "l1BlobBaseFee": "0x1",
      "l1BlobBaseFeeScalar": "0xa118b",
      "l1Fee": "0x50",
      "l1GasPrice": "0x8",
      "l1GasUsed": "0x640"
    },
    {
      "status": "0x1",
      "cumulativeGasUsed": "0x20baf9",
      "logs": [],
      "logsBloom": "0x00000000000000000000000000000000000000000000000000000000000000000000000000000000000000000000000000000000000000000000000000000000000000000000000000000000000000000000000000000000000000000000000000000000000000000000000000000000000000000000000000000000000000000000000000000000000000000000000000000000000000000000000000000000000000000000000000000000000000000000000000000000000000000000000000000000000000000000000000000000000000000000000000000000000000000000000000000000000000000000000000000000000000000000000000000000",
      "type": "0x2",
      "transactionHash": "0x4ee38567d5b6cbec86f8b6c672ac8c3bab3c0008ae1c80b99b57f65c1c18b158",
      "transactionIndex": "0xf",
      "blockHash": "0x99b65e1eae86624d33b632b5a478acccee8da295b97dd83ea95652575365bf23",
      "blockNumber": "0x22483e6",
      "gasUsed": "0x6ad6",
      "effectiveGasPrice": "0x124f80",
      "blobGasUsed": "0x79e0",
      "from": "0x1234562eb0cd65e7d08e59f9f18d7c10b5df232a",
      "to": "0xf3607a98c7a4c0a41f62c1492a771c47c4ed62dc",
      "contractAddress": null,
      "daFootprintGasScalar": "0x138",
      "l1BaseFeeScalar": "0x44d",
      "l1BlobBaseFee": "0x1",
      "l1BlobBaseFeeScalar": "0xa118b",
      "l1Fee": "0x50",
      "l1GasPrice": "0x8",
      "l1GasUsed": "0x640"
    },
    {
      "status": "0x1",
      "cumulativeGasUsed": "0x2125cf",
      "logs": [],
      "logsBloom": "0x00000000000000000000000000000000000000000000000000000000000000000000000000000000000000000000000000000000000000000000000000000000000000000000000000000000000000000000000000000000000000000000000000000000000000000000000000000000000000000000000000000000000000000000000000000000000000000000000000000000000000000000000000000000000000000000000000000000000000000000000000000000000000000000000000000000000000000000000000000000000000000000000000000000000000000000000000000000000000000000000000000000000000000000000000000000",
      "type": "0x2",
      "transactionHash": "0xcf9b96391897610b2ea0779e0f10861bedb1930a4b7ef891fea399b99e023f97",
      "transactionIndex": "0x10",
      "blockHash": "0x99b65e1eae86624d33b632b5a478acccee8da295b97dd83ea95652575365bf23",
      "blockNumber": "0x22483e6",
      "gasUsed": "0x6ad6",
      "effectiveGasPrice": "0x124f80",
      "blobGasUsed": "0x79e0",
      "from": "0x1234562eb0cd65e7d08e59f9f18d7c10b5df232a",
      "to": "0xf3607a98c7a4c0a41f62c1492a771c47c4ed62dc",
      "contractAddress": null,
      "daFootprintGasScalar": "0x138",
      "l1BaseFeeScalar": "0x44d",
      "l1BlobBaseFee": "0x1",
      "l1BlobBaseFeeScalar": "0xa118b",
      "l1Fee": "0x50",
      "l1GasPrice": "0x8",
      "l1GasUsed": "0x640"
    },
    {
      "status": "0x1",
      "cumulativeGasUsed": "0x21908d",
      "logs": [],
      "logsBloom": "0x00000000000000000000000000000000000000000000000000000000000000000000000000000000000000000000000000000000000000000000000000000000000000000000000000000000000000000000000000000000000000000000000000000000000000000000000000000000000000000000000000000000000000000000000000000000000000000000000000000000000000000000000000000000000000000000000000000000000000000000000000000000000000000000000000000000000000000000000000000000000000000000000000000000000000000000000000000000000000000000000000000000000000000000000000000000",
      "type": "0x2",
      "transactionHash": "0x5b6e5b304c245a93601c6942990c4951fa9cd14449a921d1e1ca2f49c297dbf7",
      "transactionIndex": "0x11",
      "blockHash": "0x99b65e1eae86624d33b632b5a478acccee8da295b97dd83ea95652575365bf23",
      "blockNumber": "0x22483e6",
      "gasUsed": "0x6abe",
      "effectiveGasPrice": "0x124f80",
      "blobGasUsed": "0x79e0",
      "from": "0x1234562eb0cd65e7d08e59f9f18d7c10b5df232a",
      "to": "0xf3607a98c7a4c0a41f62c1492a771c47c4ed62dc",
      "contractAddress": null,
      "daFootprintGasScalar": "0x138",
      "l1BaseFeeScalar": "0x44d",
      "l1BlobBaseFee": "0x1",
      "l1BlobBaseFeeScalar": "0xa118b",
      "l1Fee": "0x50",
      "l1GasPrice": "0x8",
      "l1GasUsed": "0x640"
    },
    {
      "status": "0x1",
      "cumulativeGasUsed": "0x21fb63",
      "logs": [],
      "logsBloom": "0x00000000000000000000000000000000000000000000000000000000000000000000000000000000000000000000000000000000000000000000000000000000000000000000000000000000000000000000000000000000000000000000000000000000000000000000000000000000000000000000000000000000000000000000000000000000000000000000000000000000000000000000000000000000000000000000000000000000000000000000000000000000000000000000000000000000000000000000000000000000000000000000000000000000000000000000000000000000000000000000000000000000000000000000000000000000",
      "type": "0x2",
      "transactionHash": "0xd96bd18fb70e9c437e7d0a4f9e6a670f81643524b7a34397b888b076dcf7a3a8",
      "transactionIndex": "0x12",
      "blockHash": "0x22a5691ef5c325a1f53272af595f7fc2f9e23ffba4ced292692d57c76d817066",
      "blockNumber": "0x22483e6",
      "gasUsed": "0x6ad6",
      "effectiveGasPrice": "0x124f80",
      "blobGasUsed": "0x79e0",
      "from": "0x1234562eb0cd65e7d08e59f9f18d7c10b5df232a",
      "to": "0xf3607a98c7a4c0a41f62c1492a771c47c4ed62dc",
      "contractAddress": null,
      "daFootprintGasScalar": "0x138",
      "l1BaseFeeScalar": "0x44d",
      "l1BlobBaseFee": "0x1",
      "l1BlobBaseFeeScalar": "0xa118b",
      "l1Fee": "0x50",
      "l1GasPrice": "0x8",
      "l1GasUsed": "0x640"
    },
    {
      "status": "0x1",
      "cumulativeGasUsed": "0x226639",
      "logs": [],
      "logsBloom": "0x00000000000000000000000000000000000000000000000000000000000000000000000000000000000000000000000000000000000000000000000000000000000000000000000000000000000000000000000000000000000000000000000000000000000000000000000000000000000000000000000000000000000000000000000000000000000000000000000000000000000000000000000000000000000000000000000000000000000000000000000000000000000000000000000000000000000000000000000000000000000000000000000000000000000000000000000000000000000000000000000000000000000000000000000000000000",
      "type": "0x2",
      "transactionHash": "0x94f61df706152a76b43c24db5ac62229f4c649c8ffd54f15db38e3a0fbe0f6e1",
      "transactionIndex": "0x13",
      "blockHash": "0x22a5691ef5c325a1f53272af595f7fc2f9e23ffba4ced292692d57c76d817066",
      "blockNumber": "0x22483e6",
      "gasUsed": "0x6ad6",
      "effectiveGasPrice": "0x124f80",
      "blobGasUsed": "0x79e0",
      "from": "0x1234562eb0cd65e7d08e59f9f18d7c10b5df232a",
      "to": "0xf3607a98c7a4c0a41f62c1492a771c47c4ed62dc",
      "contractAddress": null,
      "daFootprintGasScalar": "0x138",
      "l1BaseFeeScalar": "0x44d",
      "l1BlobBaseFee": "0x1",
      "l1BlobBaseFeeScalar": "0xa118b",
      "l1Fee": "0x50",
      "l1GasPrice": "0x8",
      "l1GasUsed": "0x640"
    },
    {
      "status": "0x1",
      "cumulativeGasUsed": "0x22d10f",
      "logs": [],
      "logsBloom": "0x00000000000000000000000000000000000000000000000000000000000000000000000000000000000000000000000000000000000000000000000000000000000000000000000000000000000000000000000000000000000000000000000000000000000000000000000000000000000000000000000000000000000000000000000000000000000000000000000000000000000000000000000000000000000000000000000000000000000000000000000000000000000000000000000000000000000000000000000000000000000000000000000000000000000000000000000000000000000000000000000000000000000000000000000000000000",
      "type": "0x2",
      "transactionHash": "0x10b151719f16d88c574422570c68b33bf5da30b38d02ba1b6a283275cbd65ee5",
      "transactionIndex": "0x14",
      "blockHash": "0x22a5691ef5c325a1f53272af595f7fc2f9e23ffba4ced292692d57c76d817066",
      "blockNumber": "0x22483e6",
      "gasUsed": "0x6ad6",
      "effectiveGasPrice": "0x124f80",
      "blobGasUsed": "0x79e0",
      "from": "0x1234562eb0cd65e7d08e59f9f18d7c10b5df232a",
      "to": "0xf3607a98c7a4c0a41f62c1492a771c47c4ed62dc",
      "contractAddress": null,
      "daFootprintGasScalar": "0x138",
      "l1BaseFeeScalar": "0x44d",
      "l1BlobBaseFee": "0x1",
      "l1BlobBaseFeeScalar": "0xa118b",
      "l1Fee": "0x50",
      "l1GasPrice": "0x8",
      "l1GasUsed": "0x640"
    },
    {
      "status": "0x1",
      "cumulativeGasUsed": "0x233d90",
      "logs": [
        {
          "address": "0xf3607a98c7a4c0a41f62c1492a771c47c4ed62dc",
          "topics": [
            "0xac90355684e2710fa34c2c7d500018678b146ea2d56ddc331c63d242ee8bf385",
            "0x00000000000000000000000033c6f26da09502e6540043f030ae1f87f109cc99"
          ],
          "data": "0x0000000000000000000000000000000000000000000000000000000000000001",
          "blockHash": "0x22a5691ef5c325a1f53272af595f7fc2f9e23ffba4ced292692d57c76d817066",
          "blockNumber": "0x22483e6",
          "blockTimestamp": "0x695c66ac",
          "transactionHash": "0x08299ba17cbae9b3a1866e25eba616bc14d12653c91351596b22952f28939328",
          "transactionIndex": "0x15",
          "logIndex": "0x32",
          "removed": false
        }
      ],
      "logsBloom": "0x00000000000000000200000000000000000000000000000000000000000000000000000000000000000000000000000000000000000000000010000000000000000000000000000000000000000000000000000000000000000000000000000000000000000000000000000000000000000000000008000000000000002000000000000000000000000010000000000000000200000000000000040000000000080000000000000000000000000000000000000000000000000000000000000000000000000000000000000000000000000000000000000000000000000000000000000000800000000000000000000000000000000000000000000000000000",
      "type": "0x2",
      "transactionHash": "0x08299ba17cbae9b3a1866e25eba616bc14d12653c91351596b22952f28939328",
      "transactionIndex": "0x15",
      "blockHash": "0x22a5691ef5c325a1f53272af595f7fc2f9e23ffba4ced292692d57c76d817066",
      "blockNumber": "0x22483e6",
      "gasUsed": "0x6c81",
      "effectiveGasPrice": "0x124f80",
      "blobGasUsed": "0x79e0",
      "from": "0x1234562eb0cd65e7d08e59f9f18d7c10b5df232a",
      "to": "0xf3607a98c7a4c0a41f62c1492a771c47c4ed62dc",
      "contractAddress": null,
      "daFootprintGasScalar": "0x138",
      "l1BaseFeeScalar": "0x44d",
      "l1BlobBaseFee": "0x1",
      "l1BlobBaseFeeScalar": "0xa118b",
      "l1Fee": "0x50",
      "l1GasPrice": "0x8",
      "l1GasUsed": "0x640"
    },
    {
      "status": "0x1",
      "cumulativeGasUsed": "0x23aa1d",
      "logs": [
        {
          "address": "0xf3607a98c7a4c0a41f62c1492a771c47c4ed62dc",
          "topics": [
            "0xac90355684e2710fa34c2c7d500018678b146ea2d56ddc331c63d242ee8bf385",
            "0x0000000000000000000000007cb382ce1aa40fa9f9a59a632090c05dc28cae7b"
          ],
          "data": "0x0000000000000000000000000000000000000000000000000000000000000001",
          "blockHash": "0x22a5691ef5c325a1f53272af595f7fc2f9e23ffba4ced292692d57c76d817066",
          "blockNumber": "0x22483e6",
          "blockTimestamp": "0x695c66ac",
          "transactionHash": "0x321696f3c7009cb6dd2fe2fb0fdb35d35ecc25fc14513a57179515a2bb5551e9",
          "transactionIndex": "0x16",
          "logIndex": "0x33",
          "removed": false
        }
      ],
      "logsBloom": "0x00000000000000000200000000000000000000000000000000000000000000000000000000000000000800000000000000000000000000000010000000000000000000000000000000000000000000000000004000000000000002000000000000000000000000000000000000000000000000000000000000000000002000000000000000000000000000000000000000000000000000000000040000000000080000000000000000000000000000000000000000000000000000000000000000000000000000000000000000000000000000000000000000000000000000000000000000800000000000000000000000000000000000000000000000000000",
      "type": "0x2",
      "transactionHash": "0x321696f3c7009cb6dd2fe2fb0fdb35d35ecc25fc14513a57179515a2bb5551e9",
      "transactionIndex": "0x16",
      "blockHash": "0x22a5691ef5c325a1f53272af595f7fc2f9e23ffba4ced292692d57c76d817066",
      "blockNumber": "0x22483e6",
      "gasUsed": "0x6c8d",
      "effectiveGasPrice": "0x124f80",
      "blobGasUsed": "0x79e0",
      "from": "0x1234562eb0cd65e7d08e59f9f18d7c10b5df232a",
      "to": "0xf3607a98c7a4c0a41f62c1492a771c47c4ed62dc",
      "contractAddress": null,
      "daFootprintGasScalar": "0x138",
      "l1BaseFeeScalar": "0x44d",
      "l1BlobBaseFee": "0x1",
      "l1BlobBaseFeeScalar": "0xa118b",
      "l1Fee": "0x50",
      "l1GasPrice": "0x8",
      "l1GasUsed": "0x640"
    },
    {
      "status": "0x1",
      "cumulativeGasUsed": "0x2416aa",
      "logs": [
        {
          "address": "0xf3607a98c7a4c0a41f62c1492a771c47c4ed62dc",
          "topics": [
            "0xac90355684e2710fa34c2c7d500018678b146ea2d56ddc331c63d242ee8bf385",
            "0x000000000000000000000000b288ba5b5b80dd0fd83541ef2e5922f71121fa13"
          ],
          "data": "0x0000000000000000000000000000000000000000000000000000000000000001",
          "blockHash": "0x22a5691ef5c325a1f53272af595f7fc2f9e23ffba4ced292692d57c76d817066",
          "blockNumber": "0x22483e6",
          "blockTimestamp": "0x695c66ac",
          "transactionHash": "0xe5d01e8f6325a6d4bbb68860c1eb9f3287e63e3c60de1473ca6f6b3f9a855ea5",
          "transactionIndex": "0x17",
          "logIndex": "0x34",
          "removed": false
        }
      ],
      "logsBloom": "0x00000000000000000200000000000000000000000000000000000000000000000000000000000000000000000000000000000000000000000010000000000000000000000000000000000000000000000000000000000000000000000000000000000000000000000000000000000000000000000000000000000000002000000000000000000000000000000000000000000000000000000002040000000400080000000000000000000000000000000000000000000000000000000000000000000000000000000000000000000000000000000000000000000000000000000000000000800000000000000000000000000000000000800000000000000000",
      "type": "0x2",
      "transactionHash": "0xe5d01e8f6325a6d4bbb68860c1eb9f3287e63e3c60de1473ca6f6b3f9a855ea5",
      "transactionIndex": "0x17",
      "blockHash": "0x22a5691ef5c325a1f53272af595f7fc2f9e23ffba4ced292692d57c76d817066",
      "blockNumber": "0x22483e6",
      "gasUsed": "0x6c8d",
      "effectiveGasPrice": "0x124f80",
      "blobGasUsed": "0x79e0",
      "from": "0x1234562eb0cd65e7d08e59f9f18d7c10b5df232a",
      "to": "0xf3607a98c7a4c0a41f62c1492a771c47c4ed62dc",
      "contractAddress": null,
      "daFootprintGasScalar": "0x138",
      "l1BaseFeeScalar": "0x44d",
      "l1BlobBaseFee": "0x1",
      "l1BlobBaseFeeScalar": "0xa118b",
      "l1Fee": "0x50",
      "l1GasPrice": "0x8",
      "l1GasUsed": "0x640"
    },
    {
      "status": "0x1",
      "cumulativeGasUsed": "0x248337",
      "logs": [
        {
          "address": "0xf3607a98c7a4c0a41f62c1492a771c47c4ed62dc",
          "topics": [
            "0xac90355684e2710fa34c2c7d500018678b146ea2d56ddc331c63d242ee8bf385",
            "0x000000000000000000000000c4a53c466cfb62aeced03008b0162baaf36e0b03"
          ],
          "data": "0x0000000000000000000000000000000000000000000000000000000000000001",
          "blockHash": "0x22a5691ef5c325a1f53272af595f7fc2f9e23ffba4ced292692d57c76d817066",
          "blockNumber": "0x22483e6",
          "blockTimestamp": "0x695c66ac",
          "transactionHash": "0xde24c07e5592842df655518a640766419e4447745a6131e759469afa658ce6bc",
          "transactionIndex": "0x18",
          "logIndex": "0x35",
          "removed": false
        }
      ],
      "logsBloom": "0x00000000000000000200000000000000000000000000000000000000000000000000000000000000000000000000000000000000000000000010000000000000000000000000000000000000000000000000000000000000000000000000000000000004000000000000000000000000000000000000000000000000002000000000000000000000000000040000000000000000000000000000040000000000080000000000400000000000000000000000000000000000000000000000000000000000000000000000000000000000000000000000000000000000000000000000000000800000000000000000000000000000000000000000000000000000",
      "type": "0x2",
      "transactionHash": "0xde24c07e5592842df655518a640766419e4447745a6131e759469afa658ce6bc",
      "transactionIndex": "0x18",
      "blockHash": "0x22a5691ef5c325a1f53272af595f7fc2f9e23ffba4ced292692d57c76d817066",
      "blockNumber": "0x22483e6",
      "gasUsed": "0x6c8d",
      "effectiveGasPrice": "0x124f80",
      "blobGasUsed": "0x79e0",
      "from": "0x1234562eb0cd65e7d08e59f9f18d7c10b5df232a",
      "to": "0xf3607a98c7a4c0a41f62c1492a771c47c4ed62dc",
      "contractAddress": null,
      "daFootprintGasScalar": "0x138",
      "l1BaseFeeScalar": "0x44d",
      "l1BlobBaseFee": "0x1",
      "l1BlobBaseFeeScalar": "0xa118b",
      "l1Fee": "0x50",
      "l1GasPrice": "0x8",
      "l1GasUsed": "0x640"
    },
    {
      "status": "0x1",
      "cumulativeGasUsed": "0x24efc4",
      "logs": [
        {
          "address": "0xf3607a98c7a4c0a41f62c1492a771c47c4ed62dc",
          "topics": [
            "0xac90355684e2710fa34c2c7d500018678b146ea2d56ddc331c63d242ee8bf385",
            "0x00000000000000000000000070db6efb75c898ad1e194fda2b8c6e73dbc944d6"
          ],
          "data": "0x0000000000000000000000000000000000000000000000000000000000000001",
          "blockHash": "0x22a5691ef5c325a1f53272af595f7fc2f9e23ffba4ced292692d57c76d817066",
          "blockNumber": "0x22483e6",
          "blockTimestamp": "0x695c66ac",
          "transactionHash": "0xb64b80fe004a6d3d9043294635466e57ed0b09e520728197485f7857ed64ab1e",
          "transactionIndex": "0x19",
          "logIndex": "0x36",
          "removed": false
        }
      ],
      "logsBloom": "0x00000000000000000200000000000000000000000000000000000000000000000000000000000000000000000000000000080000000000000010000000000000000000000000000000000000000000000000000000000000000000000000000000000000000000000000000000000000000000000000000000000000002000000000000000000000000000000000000000000000000400000000040000000000080000000000000000000000000000000000000000000000000000000000000000000000000000000000000000000000000000000000000000080000000000000000000000800000000000000000000000000000000000000000000000000000",
      "type": "0x2",
      "transactionHash": "0xb64b80fe004a6d3d9043294635466e57ed0b09e520728197485f7857ed64ab1e",
      "transactionIndex": "0x19",
      "blockHash": "0x22a5691ef5c325a1f53272af595f7fc2f9e23ffba4ced292692d57c76d817066",
      "blockNumber": "0x22483e6",
      "gasUsed": "0x6c8d",
      "effectiveGasPrice": "0x124f80",
      "blobGasUsed": "0x79e0",
      "from": "0x1234562eb0cd65e7d08e59f9f18d7c10b5df232a",
      "to": "0xf3607a98c7a4c0a41f62c1492a771c47c4ed62dc",
      "contractAddress": null,
      "daFootprintGasScalar": "0x138",
      "l1BaseFeeScalar": "0x44d",
      "l1BlobBaseFee": "0x1",
      "l1BlobBaseFeeScalar": "0xa118b",
      "l1Fee": "0x50",
      "l1GasPrice": "0x8",
      "l1GasUsed": "0x640"
    },
    {
      "status": "0x1",
      "cumulativeGasUsed": "0x255c51",
      "logs": [
        {
          "address": "0xf3607a98c7a4c0a41f62c1492a771c47c4ed62dc",
          "topics": [
            "0xac90355684e2710fa34c2c7d500018678b146ea2d56ddc331c63d242ee8bf385",
            "0x000000000000000000000000ee589fbf85128aba6f42696db2f28ea9ebdde173"
          ],
          "data": "0x0000000000000000000000000000000000000000000000000000000000000001",
          "blockHash": "0x22a5691ef5c325a1f53272af595f7fc2f9e23ffba4ced292692d57c76d817066",
          "blockNumber": "0x22483e6",
          "blockTimestamp": "0x695c66ac",
          "transactionHash": "0x8e8d764976bb57e7b2b9d013e81301c37b3c6f48a614b8191e273486ded290b4",
          "transactionIndex": "0x1a",
          "logIndex": "0x37",
          "removed": false
        }
      ],
      "logsBloom": "0x00000000000000000200000020000000000000000000000000000000000000000000000000000000000000000000000000000000000000000010000000000000000000000000000000000000000000000000000000000000000000000000000000000000000000000000000000000000000000000000000000000000002000000000000000000000000000000000000000000000000000000000040000000000080000000000000000000000000000000000000000000000000000000000000000000000000000000000000000000000000000000000400000000000000000000000000000800000000000000080000000000000000000000000000000000000",
      "type": "0x2",
      "transactionHash": "0x8e8d764976bb57e7b2b9d013e81301c37b3c6f48a614b8191e273486ded290b4",
      "transactionIndex": "0x1a",
      "blockHash": "0x22a5691ef5c325a1f53272af595f7fc2f9e23ffba4ced292692d57c76d817066",
      "blockNumber": "0x22483e6",
      "gasUsed": "0x6c8d",
      "effectiveGasPrice": "0x124f80",
      "blobGasUsed": "0x79e0",
      "from": "0x1234562eb0cd65e7d08e59f9f18d7c10b5df232a",
      "to": "0xf3607a98c7a4c0a41f62c1492a771c47c4ed62dc",
      "contractAddress": null,
      "daFootprintGasScalar": "0x138",
      "l1BaseFeeScalar": "0x44d",
      "l1BlobBaseFee": "0x1",
      "l1BlobBaseFeeScalar": "0xa118b",
      "l1Fee": "0x50",
      "l1GasPrice": "0x8",
      "l1GasUsed": "0x640"
    },
    {
      "status": "0x1",
      "cumulativeGasUsed": "0x25c8d2",
      "logs": [
        {
          "address": "0xf3607a98c7a4c0a41f62c1492a771c47c4ed62dc",
          "topics": [
            "0xac90355684e2710fa34c2c7d500018678b146ea2d56ddc331c63d242ee8bf385",
            "0x0000000000000000000000002c036be74942c597e4d81d7050008ddc11becceb"
          ],
          "data": "0x0000000000000000000000000000000000000000000000000000000000000001",
          "blockHash": "0x22a5691ef5c325a1f53272af595f7fc2f9e23ffba4ced292692d57c76d817066",
          "blockNumber": "0x22483e6",
          "blockTimestamp": "0x695c66ac",
          "transactionHash": "0x18136b8c02767607b2c2ee0df4c3101a595fa3185f6cf882fe493a8f527865f2",
          "transactionIndex": "0x1b",
          "logIndex": "0x38",
          "removed": false
        }
      ],
      "logsBloom": "0x00000000000000000200000000000000000000000000000000000000000000000000000000000000000000000000000000000000000000000010000000000000000000000000000000000000000000000000000000000000000010000000000000000000000000000000000000000000000000000000000000000000002000000000000000000000000000000000000000000000000000000000040000000000080000000000000000000000000000008000000000000000000000000000000000000000000000000000000000000000000000000000000000000000000000000000000000800000000000000000000000000000000000000000000000000002",
      "type": "0x2",
      "transactionHash": "0x18136b8c02767607b2c2ee0df4c3101a595fa3185f6cf882fe493a8f527865f2",
      "transactionIndex": "0x1b",
      "blockHash": "0x22a5691ef5c325a1f53272af595f7fc2f9e23ffba4ced292692d57c76d817066",
      "blockNumber": "0x22483e6",
      "gasUsed": "0x6c81",
      "effectiveGasPrice": "0x124f80",
      "blobGasUsed": "0x79e0",
      "from": "0x1234562eb0cd65e7d08e59f9f18d7c10b5df232a",
      "to": "0xf3607a98c7a4c0a41f62c1492a771c47c4ed62dc",
      "contractAddress": null,
      "daFootprintGasScalar": "0x138",
      "l1BaseFeeScalar": "0x44d",
      "l1BlobBaseFee": "0x1",
      "l1BlobBaseFeeScalar": "0xa118b",
      "l1Fee": "0x50",
      "l1GasPrice": "0x8",
      "l1GasUsed": "0x640"
    },
    {
      "status": "0x1",
      "cumulativeGasUsed": "0x26355f",
      "logs": [
        {
          "address": "0xf3607a98c7a4c0a41f62c1492a771c47c4ed62dc",
          "topics": [
            "0xac90355684e2710fa34c2c7d500018678b146ea2d56ddc331c63d242ee8bf385",
            "0x00000000000000000000000090cdcbf4c4bc78dc440252211efd744d0a4dc4a1"
          ],
          "data": "0x0000000000000000000000000000000000000000000000000000000000000001",
          "blockHash": "0x22a5691ef5c325a1f53272af595f7fc2f9e23ffba4ced292692d57c76d817066",
          "blockNumber": "0x22483e6",
          "blockTimestamp": "0x695c66ac",
          "transactionHash": "0x0b80fecf007e85f33a9e3d0e364b9a73e60167d74fb7251010d56fd030ad2c3b",
          "transactionIndex": "0x1c",
          "logIndex": "0x39",
          "removed": false
        }
      ],
      "logsBloom": "0x00000000000000000200000000000000000000000000000010000000000000000000000000000000000000000000000000000000000000200010000000000000000000000000000000000000000000000000000000000000000000000000000000000000000000000000000000000000000000000000000000000000002000000000000000000000000000000000000000000000000000000000040000000000080000000000000000000000000000000000000000000000000000000000000000000000000000000000000000000000000000000000000000000000000000000000000000800000000000080000000000000000000000000000000000000000",
      "type": "0x2",
      "transactionHash": "0x0b80fecf007e85f33a9e3d0e364b9a73e60167d74fb7251010d56fd030ad2c3b",
      "transactionIndex": "0x1c",
      "blockHash": "0x22a5691ef5c325a1f53272af595f7fc2f9e23ffba4ced292692d57c76d817066",
      "blockNumber": "0x22483e6",
      "gasUsed": "0x6c8d",
      "effectiveGasPrice": "0x124f80",
      "blobGasUsed": "0x79e0",
      "from": "0x1234562eb0cd65e7d08e59f9f18d7c10b5df232a",
      "to": "0xf3607a98c7a4c0a41f62c1492a771c47c4ed62dc",
      "contractAddress": null,
      "daFootprintGasScalar": "0x138",
      "l1BaseFeeScalar": "0x44d",
      "l1BlobBaseFee": "0x1",
      "l1BlobBaseFeeScalar": "0xa118b",
      "l1Fee": "0x50",
      "l1GasPrice": "0x8",
      "l1GasUsed": "0x640"
    },
    {
      "status": "0x1",
      "cumulativeGasUsed": "0x26a1ec",
      "logs": [
        {
          "address": "0xf3607a98c7a4c0a41f62c1492a771c47c4ed62dc",
          "topics": [
            "0xac90355684e2710fa34c2c7d500018678b146ea2d56ddc331c63d242ee8bf385",
            "0x000000000000000000000000ced6ceb47301f268d57ff07879df45fda80e6974"
          ],
          "data": "0x0000000000000000000000000000000000000000000000000000000000000001",
          "blockHash": "0x22a5691ef5c325a1f53272af595f7fc2f9e23ffba4ced292692d57c76d817066",
          "blockNumber": "0x22483e6",
          "blockTimestamp": "0x695c66ac",
          "transactionHash": "0x565381e282b4b204b1aa547818668fca4d9ae3ca64f693f70f9c2b5ff22227c7",
          "transactionIndex": "0x1d",
          "logIndex": "0x3a",
          "removed": false
        }
      ],
      "logsBloom": "0x00000000000000000200000800000000000000000000000000000000000000000000000000000000000000000080000000000000000000000010000000000000000000000000000000000000000000000000000000000000000000000000000000000000000000000000000000000000000000000000000000000000002000000000000000000000000000000000000000000000000000000000040000000000080000000000000000000000000000000000000000000000000000000000000000000000000000000000000000000000000000000000002000000000000000000000000000800000000000000000000000000000000000000000000000000000",
      "type": "0x2",
      "transactionHash": "0x565381e282b4b204b1aa547818668fca4d9ae3ca64f693f70f9c2b5ff22227c7",
      "transactionIndex": "0x1d",
      "blockHash": "0x22a5691ef5c325a1f53272af595f7fc2f9e23ffba4ced292692d57c76d817066",
      "blockNumber": "0x22483e6",
      "gasUsed": "0x6c8d",
      "effectiveGasPrice": "0x124f80",
      "blobGasUsed": "0x79e0",
      "from": "0x1234562eb0cd65e7d08e59f9f18d7c10b5df232a",
      "to": "0xf3607a98c7a4c0a41f62c1492a771c47c4ed62dc",
      "contractAddress": null,
      "daFootprintGasScalar": "0x138",
      "l1BaseFeeScalar": "0x44d",
      "l1BlobBaseFee": "0x1",
      "l1BlobBaseFeeScalar": "0xa118b",
      "l1Fee": "0x50",
      "l1GasPrice": "0x8",
      "l1GasUsed": "0x640"
    },
    {
      "status": "0x1",
      "cumulativeGasUsed": "0x270e79",
      "logs": [
        {
          "address": "0xf3607a98c7a4c0a41f62c1492a771c47c4ed62dc",
          "topics": [
            "0xac90355684e2710fa34c2c7d500018678b146ea2d56ddc331c63d242ee8bf385",
            "0x000000000000000000000000782ba48189af93a0cf42766058de83291f384bf3"
          ],
          "data": "0x0000000000000000000000000000000000000000000000000000000000000001",
          "blockHash": "0x22a5691ef5c325a1f53272af595f7fc2f9e23ffba4ced292692d57c76d817066",
          "blockNumber": "0x22483e6",
          "blockTimestamp": "0x695c66ac",
          "transactionHash": "0xcbb8ceb21508ea7390d1340e8ce241099a561511bb6f71dc9978047258122ce4",
          "transactionIndex": "0x1e",
          "logIndex": "0x3b",
          "removed": false
        }
      ],
      "logsBloom": "0x00000000000000000200000000000000000020000000000000000000000000000000000000000000000000000000000000000000000000000010000000000000000000000000000000000000000000000000000000000000000000000000000000000000000000000000000000000000000000000000000000000000002000000000000100000000000000000000000000000000000000000000040000000000080000000000000000008000000000000000000000000000000000000000000000000000000000000000000000000000000000000000000000000000000000000000000000800000000000000000000000000000000000000000000000000000",
      "type": "0x2",
      "transactionHash": "0xcbb8ceb21508ea7390d1340e8ce241099a561511bb6f71dc9978047258122ce4",
      "transactionIndex": "0x1e",
      "blockHash": "0x22a5691ef5c325a1f53272af595f7fc2f9e23ffba4ced292692d57c76d817066",
      "blockNumber": "0x22483e6",
      "gasUsed": "0x6c8d",
      "effectiveGasPrice": "0x124f80",
      "blobGasUsed": "0x79e0",
      "from": "0x1234562eb0cd65e7d08e59f9f18d7c10b5df232a",
      "to": "0xf3607a98c7a4c0a41f62c1492a771c47c4ed62dc",
      "contractAddress": null,
      "daFootprintGasScalar": "0x138",
      "l1BaseFeeScalar": "0x44d",
      "l1BlobBaseFee": "0x1",
      "l1BlobBaseFeeScalar": "0xa118b",
      "l1Fee": "0x50",
      "l1GasPrice": "0x8",
      "l1GasUsed": "0x640"
    }
  ],
  "libraries": [],
  "pending": [],
  "returns": {},
  "timestamp": 1767663276145,
  "chain": 84532,
  "commit": "cd2a7c9"
}