{
  "transactions": [
    {
      "hash": "0x3ea218a7d72920fdb6c4c8d07f78832d5eb3b6e301cdc5adf31453635b2206d7",
      "transactionType": "CALL",
      "contractName": null,
      "contractAddress": "0xf3607a98c7a4c0a41f62c1492a771c47c4ed62dc",
      "function": "setIsHubChain(bool)",
      "arguments": [
        "false"
      ],
      "transaction": {
        "from": "0x1234562eb0cd65e7d08e59f9f18d7c10b5df232a",
        "to": "0xf3607a98c7a4c0a41f62c1492a771c47c4ed62dc",
        "gas": "0x8f8d",
        "value": "0x0",
        "input": "0xf54efd770000000000000000000000000000000000000000000000000000000000000000",
        "nonce": "0xbf40",
        "chainId": "0x14a34"
      },
      "additionalContracts": [],
      "isFixedGasLimit": false
    },
    {
      "hash": "0x14aa137f654a16d7d60f8d0e1c870c5d7345810e0c4549493dd3445a880c4948",
      "transactionType": "CALL",
      "contractName": null,
      "contractAddress": "0xf3607a98c7a4c0a41f62c1492a771c47c4ed62dc",
      "function": "setHubChainDomainId(uint32)",
      "arguments": [
        "5003"
      ],
      "transaction": {
        "from": "0x1234562eb0cd65e7d08e59f9f18d7c10b5df232a",
        "to": "0xf3607a98c7a4c0a41f62c1492a771c47c4ed62dc",
        "gas": "0xf732",
        "value": "0x0",
        "input": "0x3b3b2d8c000000000000000000000000000000000000000000000000000000000000138b",
        "nonce": "0xbf41",
        "chainId": "0x14a34"
      },
      "additionalContracts": [],
      "isFixedGasLimit": false
    },
    {
      "hash": "0x4a37cb987fd15e0ec55bcfb14c7d3849f3ec7902c65629c2354ae42f3c6195ed",
      "transactionType": "CALL",
      "contractName": null,
      "contractAddress": "0xf3607a98c7a4c0a41f62c1492a771c47c4ed62dc",
      "function": "setHubContractAddress(address)",
      "arguments": [
        "0xb26CaE027663328bd21f32Ef9A6512477D07a8D6"
      ],
      "transaction": {
        "from": "0x1234562eb0cd65e7d08e59f9f18d7c10b5df232a",
        "to": "0xf3607a98c7a4c0a41f62c1492a771c47c4ed62dc",
        "gas": "0x9d7f",
        "value": "0x0",
        "input": "0x833ccb35000000000000000000000000b26cae027663328bd21f32ef9a6512477d07a8d6",
        "nonce": "0xbf42",
        "chainId": "0x14a34"
      },
      "additionalContracts": [],
      "isFixedGasLimit": false
    },
    {
      "hash": "0x3bef44cb5c31fb56859b216a3b248a68a5683ac890bd1c95f564ddf01ccb2b09",
      "transactionType": "CALL",
      "contractName": null,
      "contractAddress": "0xf3607a98c7a4c0a41f62c1492a771c47c4ed62dc",
      "function": "setTokenToHypToken(address,address)",
      "arguments": [
        "0x33c6f26dA09502E6540043f030aE1F87f109cc99",
        "0x33c6f26dA09502E6540043f030aE1F87f109cc99"
      ],
      "transaction": {
        "from": "0x1234562eb0cd65e7d08e59f9f18d7c10b5df232a",
        "to": "0xf3607a98c7a4c0a41f62c1492a771c47c4ed62dc",
        "gas": "0x10dcb",
        "value": "0x0",
        "input": "0xee68870600000000000000000000000033c6f26da09502e6540043f030ae1f87f109cc9900000000000000000000000033c6f26da09502e6540043f030ae1f87f109cc99",
        "nonce": "0xbf43",
        "chainId": "0x14a34"
      },
      "additionalContracts": [],
      "isFixedGasLimit": false
    },
    {
      "hash": "0x67b0a4574d7af919f93e97bf30f64c7edaa2c189afcce1fb3945a180eb1c6c8e",
      "transactionType": "CALL",
      "contractName": null,
      "contractAddress": "0xf3607a98c7a4c0a41f62c1492a771c47c4ed62dc",
      "function": "setTokenToHypToken(address,address)",
      "arguments": [
        "0x7CB382Ce1AA40FA9F9A59a632090c05Dc28caE7b",
        "0x7CB382Ce1AA40FA9F9A59a632090c05Dc28caE7b"
      ],
      "transaction": {
        "from": "0x1234562eb0cd65e7d08e59f9f18d7c10b5df232a",
        "to": "0xf3607a98c7a4c0a41f62c1492a771c47c4ed62dc",
        "gas": "0x10dee",
        "value": "0x0",
        "input": "0xee6887060000000000000000000000007cb382ce1aa40fa9f9a59a632090c05dc28cae7b0000000000000000000000007cb382ce1aa40fa9f9a59a632090c05dc28cae7b",
        "nonce": "0xbf44",
        "chainId": "0x14a34"
      },
      "additionalContracts": [],
      "isFixedGasLimit": false
    },
    {
      "hash": "0x8bb55be321fe65455b0a1c12192a71335046621d8775be8aa0101b20976061f3",
      "transactionType": "CALL",
      "contractName": null,
      "contractAddress": "0xf3607a98c7a4c0a41f62c1492a771c47c4ed62dc",
      "function": "setTokenToHypToken(address,address)",
      "arguments": [
        "0xB288Ba5B5b80Dd0Fd83541ef2e5922f71121Fa13",
        "0xB288Ba5B5b80Dd0Fd83541ef2e5922f71121Fa13"
      ],
      "transaction": {
        "from": "0x1234562eb0cd65e7d08e59f9f18d7c10b5df232a",
        "to": "0xf3607a98c7a4c0a41f62c1492a771c47c4ed62dc",
        "gas": "0x10dee",
        "value": "0x0",
        "input": "0xee688706000000000000000000000000b288ba5b5b80dd0fd83541ef2e5922f71121fa13000000000000000000000000b288ba5b5b80dd0fd83541ef2e5922f71121fa13",
        "nonce": "0xbf45",
        "chainId": "0x14a34"
      },
      "additionalContracts": [],
      "isFixedGasLimit": false
    },
    {
      "hash": "0xba624c760244fc5871f0a41c6394a3597b47258977dc1f8df443bf25eb0e503b",
      "transactionType": "CALL",
      "contractName": null,
      "contractAddress": "0xf3607a98c7a4c0a41f62c1492a771c47c4ed62dc",
      "function": "setTokenToHypToken(address,address)",
      "arguments": [
        "0xC4a53c466Cfb62AecED03008B0162baaf36E0B03",
        "0xC4a53c466Cfb62AecED03008B0162baaf36E0B03"
      ],
      "transaction": {
        "from": "0x1234562eb0cd65e7d08e59f9f18d7c10b5df232a",
        "to": "0xf3607a98c7a4c0a41f62c1492a771c47c4ed62dc",
        "gas": "0x10dee",
        "value": "0x0",
        "input": "0xee688706000000000000000000000000c4a53c466cfb62aeced03008b0162baaf36e0b03000000000000000000000000c4a53c466cfb62aeced03008b0162baaf36e0b03",
        "nonce": "0xbf46",
        "chainId": "0x14a34"
      },
      "additionalContracts": [],
      "isFixedGasLimit": false
    },
    {
      "hash": "0xdefe26b148ebf10427c1461d3031b67d570dffb519cd0271c669a19006c591c1",
      "transactionType": "CALL",
      "contractName": null,
      "contractAddress": "0xf3607a98c7a4c0a41f62c1492a771c47c4ed62dc",
      "function": "setTokenToHypToken(address,address)",
      "arguments": [
        "0x70Db6eFB75c898Ad1e194FDA2B8C6e73dbC944d6",
        "0x70Db6eFB75c898Ad1e194FDA2B8C6e73dbC944d6"
      ],
      "transaction": {
        "from": "0x1234562eb0cd65e7d08e59f9f18d7c10b5df232a",
        "to": "0xf3607a98c7a4c0a41f62c1492a771c47c4ed62dc",
        "gas": "0x10dee",
        "value": "0x0",
        "input": "0xee68870600000000000000000000000070db6efb75c898ad1e194fda2b8c6e73dbc944d600000000000000000000000070db6efb75c898ad1e194fda2b8c6e73dbc944d6",
        "nonce": "0xbf47",
        "chainId": "0x14a34"
      },
      "additionalContracts": [],
      "isFixedGasLimit": false
    },
    {
      "hash": "0xb41cf542d713b849c8a204c5295cc8f8491d330ef7677a7837595e6d54387741",
      "transactionType": "CALL",
      "contractName": null,
      "contractAddress": "0xf3607a98c7a4c0a41f62c1492a771c47c4ed62dc",
      "function": "setTokenToHypToken(address,address)",
      "arguments": [
        "0xEE589FBF85128abA6f42696dB2F28eA9EBddE173",
        "0xEE589FBF85128abA6f42696dB2F28eA9EBddE173"
      ],
      "transaction": {
        "from": "0x1234562eb0cd65e7d08e59f9f18d7c10b5df232a",
        "to": "0xf3607a98c7a4c0a41f62c1492a771c47c4ed62dc",
        "gas": "0x10dee",
        "value": "0x0",
        "input": "0xee688706000000000000000000000000ee589fbf85128aba6f42696db2f28ea9ebdde173000000000000000000000000ee589fbf85128aba6f42696db2f28ea9ebdde173",
        "nonce": "0xbf48",
        "chainId": "0x14a34"
      },
      "additionalContracts": [],
      "isFixedGasLimit": false
    },
    {
      "hash": "0x55989f2ec602f771640e12d9900c8952093b6c55bb9a33527d96f63c91d49d0c",
      "transactionType": "CALL",
      "contractName": null,
      "contractAddress": "0xf3607a98c7a4c0a41f62c1492a771c47c4ed62dc",
      "function": "setTokenToHypToken(address,address)",
      "arguments": [
        "0x2C036be74942c597e4d81D7050008dDc11becCEb",
        "0x2C036be74942c597e4d81D7050008dDc11becCEb"
      ],
      "transaction": {
        "from": "0x1234562eb0cd65e7d08e59f9f18d7c10b5df232a",
        "to": "0xf3607a98c7a4c0a41f62c1492a771c47c4ed62dc",
        "gas": "0x10dcb",
        "value": "0x0",
        "input": "0xee6887060000000000000000000000002c036be74942c597e4d81d7050008ddc11becceb0000000000000000000000002c036be74942c597e4d81d7050008ddc11becceb",
        "nonce": "0xbf49",
        "chainId": "0x14a34"
      },
      "additionalContracts": [],
      "isFixedGasLimit": false
    },
    {
      "hash": "0x1615d436d27dd19033b04504d6e4cd9b5ddf975090092468754b9686675834d3",
      "transactionType": "CALL",
      "contractName": null,
      "contractAddress": "0xf3607a98c7a4c0a41f62c1492a771c47c4ed62dc",
      "function": "setTokenToHypToken(address,address)",
      "arguments": [
        "0x90CdcBF4c4bc78dC440252211EFd744d0A4Dc4A1",
        "0x90CdcBF4c4bc78dC440252211EFd744d0A4Dc4A1"
      ],
      "transaction": {
        "from": "0x1234562eb0cd65e7d08e59f9f18d7c10b5df232a",
        "to": "0xf3607a98c7a4c0a41f62c1492a771c47c4ed62dc",
        "gas": "0x10dee",
        "value": "0x0",
        "input": "0xee68870600000000000000000000000090cdcbf4c4bc78dc440252211efd744d0a4dc4a100000000000000000000000090cdcbf4c4bc78dc440252211efd744d0a4dc4a1",
        "nonce": "0xbf4a",
        "chainId": "0x14a34"
      },
      "additionalContracts": [],
      "isFixedGasLimit": false
    },
    {
      "hash": "0x9c19283971c42a522f772fea21fd73004b0315a8b903e09cd1320d70bba1f6e3",
      "transactionType": "CALL",
      "contractName": null,
      "contractAddress": "0xf3607a98c7a4c0a41f62c1492a771c47c4ed62dc",
      "function": "setTokenToHypToken(address,address)",
      "arguments": [
        "0xced6Ceb47301F268d57fF07879DF45Fda80e6974",
        "0xced6Ceb47301F268d57fF07879DF45Fda80e6974"
      ],
      "transaction": {
        "from": "0x1234562eb0cd65e7d08e59f9f18d7c10b5df232a",
        "to": "0xf3607a98c7a4c0a41f62c1492a771c47c4ed62dc",
        "gas": "0x10dee",
        "value": "0x0",
        "input": "0xee688706000000000000000000000000ced6ceb47301f268d57ff07879df45fda80e6974000000000000000000000000ced6ceb47301f268d57ff07879df45fda80e6974",
        "nonce": "0xbf4b",
        "chainId": "0x14a34"
      },
      "additionalContracts": [],
      "isFixedGasLimit": false
    },
    {
      "hash": "0xe899388ce5062b5a9e11cc7e1a13b972369bed18f101ecf91b2f540efb5b288d",
      "transactionType": "CALL",
      "contractName": null,
      "contractAddress": "0xf3607a98c7a4c0a41f62c1492a771c47c4ed62dc",
      "function": "setTokenToHypToken(address,address)",
      "arguments": [
        "0x782Ba48189AF93a0CF42766058DE83291f384bF3",
        "0x782Ba48189AF93a0CF42766058DE83291f384bF3"
      ],
      "transaction": {
        "from": "0x1234562eb0cd65e7d08e59f9f18d7c10b5df232a",
        "to": "0xf3607a98c7a4c0a41f62c1492a771c47c4ed62dc",
        "gas": "0x10dee",
        "value": "0x0",
        "input": "0xee688706000000000000000000000000782ba48189af93a0cf42766058de83291f384bf3000000000000000000000000782ba48189af93a0cf42766058de83291f384bf3",
        "nonce": "0xbf4c",
        "chainId": "0x14a34"
      },
      "additionalContracts": [],
      "isFixedGasLimit": false
    },
    {
      "hash": "0x516090940842d4c0aef5b46b15c8c6053ce9641001e23662bf9f80812b0f7c96",
      "transactionType": "CALL",
      "contractName": null,
      "contractAddress": "0xf3607a98c7a4c0a41f62c1492a771c47c4ed62dc",
      "function": "setGlobalWhitelist(address,bool)",
      "arguments": [
        "0x33c6f26dA09502E6540043f030aE1F87f109cc99",
        "true"
      ],
      "transaction": {
        "from": "0x1234562eb0cd65e7d08e59f9f18d7c10b5df232a",
        "to": "0xf3607a98c7a4c0a41f62c1492a771c47c4ed62dc",
        "gas": "0x9eaf",
        "value": "0x0",
        "input": "0x25d86ced00000000000000000000000033c6f26da09502e6540043f030ae1f87f109cc990000000000000000000000000000000000000000000000000000000000000001",
        "nonce": "0xbf4d",
        "chainId": "0x14a34"
      },
      "additionalContracts": [],
      "isFixedGasLimit": false
    },
    {
      "hash": "0xbcee687806e43f58d4b762ebb84645d4af4c13c56f46b4c23e9bb1230af075ea",
      "transactionType": "CALL",
      "contractName": null,
      "contractAddress": "0xf3607a98c7a4c0a41f62c1492a771c47c4ed62dc",
      "function": "setGlobalWhitelist(address,bool)",
      "arguments": [
        "0x7CB382Ce1AA40FA9F9A59a632090c05Dc28caE7b",
        "true"
      ],
      "transaction": {
        "from": "0x1234562eb0cd65e7d08e59f9f18d7c10b5df232a",
        "to": "0xf3607a98c7a4c0a41f62c1492a771c47c4ed62dc",
        "gas": "0x95ee",
        "value": "0x0",
        "input": "0x25d86ced0000000000000000000000007cb382ce1aa40fa9f9a59a632090c05dc28cae7b0000000000000000000000000000000000000000000000000000000000000001",
        "nonce": "0xbf4e",
        "chainId": "0x14a34"
      },
      "additionalContracts": [],
      "isFixedGasLimit": false
    },
    {
      "hash": "0x22626e3f68f750b75d7356e297a6e67732629272f16784efcecd0c44698ae75f",
      "transactionType": "CALL",
      "contractName": null,
      "contractAddress": "0xf3607a98c7a4c0a41f62c1492a771c47c4ed62dc",
      "function": "setGlobalWhitelist(address,bool)",
      "arguments": [
        "0xB288Ba5B5b80Dd0Fd83541ef2e5922f71121Fa13",
        "true"
      ],
      "transaction": {
        "from": "0x1234562eb0cd65e7d08e59f9f18d7c10b5df232a",
        "to": "0xf3607a98c7a4c0a41f62c1492a771c47c4ed62dc",
        "gas": "0x95ee",
        "value": "0x0",
        "input": "0x25d86ced000000000000000000000000b288ba5b5b80dd0fd83541ef2e5922f71121fa130000000000000000000000000000000000000000000000000000000000000001",
        "nonce": "0xbf4f",
        "chainId": "0x14a34"
      },
      "additionalContracts": [],
      "isFixedGasLimit": false
    },
    {
      "hash": "0x4e5da1a8c4de93608bdc0890edf295c04fb97d5c1ead03f7bc7245b3f7460ab3",
      "transactionType": "CALL",
      "contractName": null,
      "contractAddress": "0xf3607a98c7a4c0a41f62c1492a771c47c4ed62dc",
      "function": "setGlobalWhitelist(address,bool)",
      "arguments": [
        "0xC4a53c466Cfb62AecED03008B0162baaf36E0B03",
        "true"
      ],
      "transaction": {
        "from": "0x1234562eb0cd65e7d08e59f9f18d7c10b5df232a",
        "to": "0xf3607a98c7a4c0a41f62c1492a771c47c4ed62dc",
        "gas": "0x95ee",
        "value": "0x0",
        "input": "0x25d86ced000000000000000000000000c4a53c466cfb62aeced03008b0162baaf36e0b030000000000000000000000000000000000000000000000000000000000000001",
        "nonce": "0xbf50",
        "chainId": "0x14a34"
      },
      "additionalContracts": [],
      "isFixedGasLimit": false
    },
    {
      "hash": "0x20f89dbf367a927140199c5cd9816ab911ecc9e07b863d9594d197df8a80d6ac",
      "transactionType": "CALL",
      "contractName": null,
      "contractAddress": "0xf3607a98c7a4c0a41f62c1492a771c47c4ed62dc",
      "function": "setGlobalWhitelist(address,bool)",
      "arguments": [
        "0x70Db6eFB75c898Ad1e194FDA2B8C6e73dbC944d6",
        "true"
      ],
      "transaction": {
        "from": "0x1234562eb0cd65e7d08e59f9f18d7c10b5df232a",
        "to": "0xf3607a98c7a4c0a41f62c1492a771c47c4ed62dc",
        "gas": "0x95ee",
        "value": "0x0",
        "input": "0x25d86ced00000000000000000000000070db6efb75c898ad1e194fda2b8c6e73dbc944d60000000000000000000000000000000000000000000000000000000000000001",
        "nonce": "0xbf51",
        "chainId": "0x14a34"
      },
      "additionalContracts": [],
      "isFixedGasLimit": false
    },
    {
      "hash": "0x2f94a2baddc92b105f8837db717f8ab7be01c101f92eb290abbf158f41f0679e",
      "transactionType": "CALL",
      "contractName": null,
      "contractAddress": "0xf3607a98c7a4c0a41f62c1492a771c47c4ed62dc",
      "function": "setGlobalWhitelist(address,bool)",
      "arguments": [
        "0xEE589FBF85128abA6f42696dB2F28eA9EBddE173",
        "true"
      ],
      "transaction": {
        "from": "0x1234562eb0cd65e7d08e59f9f18d7c10b5df232a",
        "to": "0xf3607a98c7a4c0a41f62c1492a771c47c4ed62dc",
        "gas": "0x95ee",
        "value": "0x0",
        "input": "0x25d86ced000000000000000000000000ee589fbf85128aba6f42696db2f28ea9ebdde1730000000000000000000000000000000000000000000000000000000000000001",
        "nonce": "0xbf52",
        "chainId": "0x14a34"
      },
      "additionalContracts": [],
      "isFixedGasLimit": false
    },
    {
      "hash": "0xa5f8ada130663f844aa73ec213ca577fc7cc6adfda9c95d942286d22d8c9cc8f",
      "transactionType": "CALL",
      "contractName": null,
      "contractAddress": "0xf3607a98c7a4c0a41f62c1492a771c47c4ed62dc",
      "function": "setGlobalWhitelist(address,bool)",
      "arguments": [
        "0x2C036be74942c597e4d81D7050008dDc11becCEb",
        "true"
      ],
      "transaction": {
        "from": "0x1234562eb0cd65e7d08e59f9f18d7c10b5df232a",
        "to": "0xf3607a98c7a4c0a41f62c1492a771c47c4ed62dc",
        "gas": "0x9eaf",
        "value": "0x0",
        "input": "0x25d86ced0000000000000000000000002c036be74942c597e4d81d7050008ddc11becceb0000000000000000000000000000000000000000000000000000000000000001",
        "nonce": "0xbf53",
        "chainId": "0x14a34"
      },
      "additionalContracts": [],
      "isFixedGasLimit": false
    },
    {
      "hash": "0x3d03536967564d4d389144e88dbc6575b932f69a593241f371aa49f3c419d99b",
      "transactionType": "CALL",
      "contractName": null,
      "contractAddress": "0xf3607a98c7a4c0a41f62c1492a771c47c4ed62dc",
      "function": "setGlobalWhitelist(address,bool)",
      "arguments": [
        "0x90CdcBF4c4bc78dC440252211EFd744d0A4Dc4A1",
        "true"
      ],
      "transaction": {
        "from": "0x1234562eb0cd65e7d08e59f9f18d7c10b5df232a",
        "to": "0xf3607a98c7a4c0a41f62c1492a771c47c4ed62dc",
        "gas": "0x95ee",
        "value": "0x0",
        "input": "0x25d86ced00000000000000000000000090cdcbf4c4bc78dc440252211efd744d0a4dc4a10000000000000000000000000000000000000000000000000000000000000001",
        "nonce": "0xbf54",
        "chainId": "0x14a34"
      },
      "additionalContracts": [],
      "isFixedGasLimit": false
    },
    {
      "hash": "0x211bc498d16f1855b0f9f4ac1482b1aa7b54bf24abdf214973e8bf7b4434895d",
      "transactionType": "CALL",
      "contractName": null,
      "contractAddress": "0xf3607a98c7a4c0a41f62c1492a771c47c4ed62dc",
      "function": "setGlobalWhitelist(address,bool)",
      "arguments": [
        "0xced6Ceb47301F268d57fF07879DF45Fda80e6974",
        "true"
      ],
      "transaction": {
        "from": "0x1234562eb0cd65e7d08e59f9f18d7c10b5df232a",
        "to": "0xf3607a98c7a4c0a41f62c1492a771c47c4ed62dc",
        "gas": "0x95ee",
        "value": "0x0",
        "input": "0x25d86ced000000000000000000000000ced6ceb47301f268d57ff07879df45fda80e69740000000000000000000000000000000000000000000000000000000000000001",
        "nonce": "0xbf55",
        "chainId": "0x14a34"
      },
      "additionalContracts": [],
      "isFixedGasLimit": false
    },
    {
      "hash": "0x3db513fd0c6bf8389f9475fc6f2b5582a4c205361006f64f88b274cd02b91c91",
      "transactionType": "CALL",
      "contractName": null,
      "contractAddress": "0xf3607a98c7a4c0a41f62c1492a771c47c4ed62dc",
      "function": "setGlobalWhitelist(address,bool)",
      "arguments": [
        "0x782Ba48189AF93a0CF42766058DE83291f384bF3",
        "true"
      ],
      "transaction": {
        "from": "0x1234562eb0cd65e7d08e59f9f18d7c10b5df232a",
        "to": "0xf3607a98c7a4c0a41f62c1492a771c47c4ed62dc",
        "gas": "0x95ee",
        "value": "0x0",
        "input": "0x25d86ced000000000000000000000000782ba48189af93a0cf42766058de83291f384bf30000000000000000000000000000000000000000000000000000000000000001",
        "nonce": "0xbf56",
        "chainId": "0x14a34"
      },
      "additionalContracts": [],
      "isFixedGasLimit": false
    }
  ],
  "receipts": [
    {
      "status": "0x1",
      "cumulativeGasUsed": "0x2a2150",
      "logs": [],
      "logsBloom": "0x00000000000000000000000000000000000000000000000000000000000000000000000000000000000000000000000000000000000000000000000000000000000000000000000000000000000000000000000000000000000000000000000000000000000000000000000000000000000000000000000000000000000000000000000000000000000000000000000000000000000000000000000000000000000000000000000000000000000000000000000000000000000000000000000000000000000000000000000000000000000000000000000000000000000000000000000000000000000000000000000000000000000000000000000000000000",
      "type": "0x2",
      "transactionHash": "0xdefe26b148ebf10427c1461d3031b67d570dffb519cd0271c669a19006c591c1",
      "transactionIndex": "0xc",
      "blockHash": "0xa21e5b63914ef38d6149f1c7d0341b150c2f7aa079a67f589e649d192725c4f6",
      "blockNumber": "0x2248331",
      "gasUsed": "0x67ef",
      "effectiveGasPrice": "0x124f80",
      "blobGasUsed": "0x79e0",
      "from": "0x1234562eb0cd65e7d08e59f9f18d7c10b5df232a",
      "to": "0xf3607a98c7a4c0a41f62c1492a771c47c4ed62dc",
      "contractAddress": null,
      "daFootprintGasScalar": "0x138",
      "l1BaseFeeScalar": "0x44d",
      "l1BlobBaseFee": "0x1",
      "l1BlobBaseFeeScalar": "0xa118b",
      "l1Fee": "0x50",
      "l1GasPrice": "0x8",
      "l1GasUsed": "0x640"
    },
    {
      "status": "0x1",
      "cumulativeGasUsed": "0x2ad448",
      "logs": [],
      "logsBloom": "0x00000000000000000000000000000000000000000000000000000000000000000000000000000000000000000000000000000000000000000000000000000000000000000000000000000000000000000000000000000000000000000000000000000000000000000000000000000000000000000000000000000000000000000000000000000000000000000000000000000000000000000000000000000000000000000000000000000000000000000000000000000000000000000000000000000000000000000000000000000000000000000000000000000000000000000000000000000000000000000000000000000000000000000000000000000000",
      "type": "0x2",
      "transactionHash": "0x55989f2ec602f771640e12d9900c8952093b6c55bb9a33527d96f63c91d49d0c",
      "transactionIndex": "0xd",
      "blockHash": "0xa21e5b63914ef38d6149f1c7d0341b150c2f7aa079a67f589e649d192725c4f6",
      "blockNumber": "0x2248331",
      "gasUsed": "0xb2f8",
      "effectiveGasPrice": "0x124f80",
      "blobGasUsed": "0x79e0",
      "from": "0x1234562eb0cd65e7d08e59f9f18d7c10b5df232a",
      "to": "0xf3607a98c7a4c0a41f62c1492a771c47c4ed62dc",
      "contractAddress": null,
      "daFootprintGasScalar": "0x138",
      "l1BaseFeeScalar": "0x44d",
      "l1BlobBaseFee": "0x1",
      "l1BlobBaseFeeScalar": "0xa118b",
      "l1Fee": "0x50",
      "l1GasPrice": "0x8",
      "l1GasUsed": "0x640"
    },
    {
      "status": "0x1",
      "cumulativeGasUsed": "0x2b464f",
      "logs": [],
      "logsBloom": "0x00000000000000000000000000000000000000000000000000000000000000000000000000000000000000000000000000000000000000000000000000000000000000000000000000000000000000000000000000000000000000000000000000000000000000000000000000000000000000000000000000000000000000000000000000000000000000000000000000000000000000000000000000000000000000000000000000000000000000000000000000000000000000000000000000000000000000000000000000000000000000000000000000000000000000000000000000000000000000000000000000000000000000000000000000000000",
      "type": "0x2",
      "transactionHash": "0xba624c760244fc5871f0a41c6394a3597b47258977dc1f8df443bf25eb0e503b",
      "transactionIndex": "0xe",
      "blockHash": "0xa21e5b63914ef38d6149f1c7d0341b150c2f7aa079a67f589e649d192725c4f6",
      "blockNumber": "0x2248331",
      "gasUsed": "0x7207",
      "effectiveGasPrice": "0x124f80",
      "blobGasUsed": "0x79e0",
      "from": "0x1234562eb0cd65e7d08e59f9f18d7c10b5df232a",
      "to": "0xf3607a98c7a4c0a41f62c1492a771c47c4ed62dc",
      "contractAddress": null,
      "daFootprintGasScalar": "0x138",
      "l1BaseFeeScalar": "0x44d",
      "l1BlobBaseFee": "0x1",
      "l1BlobBaseFeeScalar": "0xa118b",
      "l1Fee": "0x50",
      "l1GasPrice": "0x8",
      "l1GasUsed": "0x640"
    },
    {
      "status": "0x1",
      "cumulativeGasUsed": "0x2bfec9",
      "logs": [],
      "logsBloom": "0x00000000000000000000000000000000000000000000000000000000000000000000000000000000000000000000000000000000000000000000000000000000000000000000000000000000000000000000000000000000000000000000000000000000000000000000000000000000000000000000000000000000000000000000000000000000000000000000000000000000000000000000000000000000000000000000000000000000000000000000000000000000000000000000000000000000000000000000000000000000000000000000000000000000000000000000000000000000000000000000000000000000000000000000000000000000",
      "type": "0x2",
      "transactionHash": "0x14aa137f654a16d7d60f8d0e1c870c5d7345810e0c4549493dd3445a880c4948",
      "transactionIndex": "0xf",
      "blockHash": "0xa21e5b63914ef38d6149f1c7d0341b150c2f7aa079a67f589e649d192725c4f6",
      "blockNumber": "0x2248331",
      "gasUsed": "0xb87a",
      "effectiveGasPrice": "0x124f80",
      "blobGasUsed": "0x79e0",
      "from": "0x1234562eb0cd65e7d08e59f9f18d7c10b5df232a",
      "to": "0xf3607a98c7a4c0a41f62c1492a771c47c4ed62dc",
      "contractAddress": null,
      "daFootprintGasScalar": "0x138",
      "l1BaseFeeScalar": "0x44d",
      "l1BlobBaseFee": "0x1",
      "l1BlobBaseFeeScalar": "0xa118b",
      "l1Fee": "0x50",
      "l1GasPrice": "0x8",
      "l1GasUsed": "0x640"
    },
    {
      "status": "0x1",
      "cumulativeGasUsed": "0x2cb75b",
      "logs": [],
      "logsBloom": "0x00000000000000000000000000000000000000000000000000000000000000000000000000000000000000000000000000000000000000000000000000000000000000000000000000000000000000000000000000000000000000000000000000000000000000000000000000000000000000000000000000000000000000000000000000000000000000000000000000000000000000000000000000000000000000000000000000000000000000000000000000000000000000000000000000000000000000000000000000000000000000000000000000000000000000000000000000000000000000000000000000000000000000000000000000000000",
      "type": "0x2",
      "transactionHash": "0x516090940842d4c0aef5b46b15c8c6053ce9641001e23662bf9f80812b0f7c96",
      "transactionIndex": "0x10",
      "blockHash": "0xa21e5b63914ef38d6149f1c7d0341b150c2f7aa079a67f589e649d192725c4f6",
      "blockNumber": "0x2248331",
      "gasUsed": "0xb892",
      "effectiveGasPrice": "0x124f80",
      "blobGasUsed": "0x79e0",
      "from": "0x1234562eb0cd65e7d08e59f9f18d7c10b5df232a",
      "to": "0xf3607a98c7a4c0a41f62c1492a771c47c4ed62dc",
      "contractAddress": null,
      "daFootprintGasScalar": "0x138",
      "l1BaseFeeScalar": "0x44d",
      "l1BlobBaseFee": "0x1",
      "l1BlobBaseFeeScalar": "0xa118b",
      "l1Fee": "0x50",
      "l1GasPrice": "0x8",
      "l1GasUsed": "0x640"
    },
    {
      "status": "0x1",
      "cumulativeGasUsed": "0x2d6fed",
      "logs": [],
      "logsBloom": "0x00000000000000000000000000000000000000000000000000000000000000000000000000000000000000000000000000000000000000000000000000000000000000000000000000000000000000000000000000000000000000000000000000000000000000000000000000000000000000000000000000000000000000000000000000000000000000000000000000000000000000000000000000000000000000000000000000000000000000000000000000000000000000000000000000000000000000000000000000000000000000000000000000000000000000000000000000000000000000000000000000000000000000000000000000000000",
      "type": "0x2",
      "transactionHash": "0x3ea218a7d72920fdb6c4c8d07f78832d5eb3b6e301cdc5adf31453635b2206d7",
      "transactionIndex": "0x11",
      "blockHash": "0xa21e5b63914ef38d6149f1c7d0341b150c2f7aa079a67f589e649d192725c4f6",
      "blockNumber": "0x2248331",
      "gasUsed": "0xb892",
      "effectiveGasPrice": "0x124f80",
      "blobGasUsed": "0x79e0",
      "from": "0x1234562eb0cd65e7d08e59f9f18d7c10b5df232a",
      "to": "0xf3607a98c7a4c0a41f62c1492a771c47c4ed62dc",
      "contractAddress": null,
      "daFootprintGasScalar": "0x138",
      "l1BaseFeeScalar": "0x44d",
      "l1BlobBaseFee": "0x1",
      "l1BlobBaseFeeScalar": "0xa118b",
      "l1Fee": "0x50",
      "l1GasPrice": "0x8",
      "l1GasUsed": "0x640"
    },
    {
      "status": "0x1",
      "cumulativeGasUsed": "0x2e287f",
      "logs": [],
      "logsBloom": "0x00000000000000000000000000000000000000000000000000000000000000000000000000000000000000000000000000000000000000000000000000000000000000000000000000000000000000000000000000000000000000000000000000000000000000000000000000000000000000000000000000000000000000000000000000000000000000000000000000000000000000000000000000000000000000000000000000000000000000000000000000000000000000000000000000000000000000000000000000000000000000000000000000000000000000000000000000000000000000000000000000000000000000000000000000000000",
      "type": "0x2",
      "transactionHash": "0x4a37cb987fd15e0ec55bcfb14c7d3849f3ec7902c65629c2354ae42f3c6195ed",
      "transactionIndex": "0x12",
      "blockHash": "0xa21e5b63914ef38d6149f1c7d0341b150c2f7aa079a67f589e649d192725c4f6",
      "blockNumber": "0x2248331",
      "gasUsed": "0xb892",
      "effectiveGasPrice": "0x124f80",
      "blobGasUsed": "0x79e0",
      "from": "0x1234562eb0cd65e7d08e59f9f18d7c10b5df232a",
      "to": "0xf3607a98c7a4c0a41f62c1492a771c47c4ed62dc",
      "contractAddress": null,
      "daFootprintGasScalar": "0x138",
      "l1BaseFeeScalar": "0x44d",
      "l1BlobBaseFee": "0x1",
      "l1BlobBaseFeeScalar": "0xa118b",
      "l1Fee": "0x50",
      "l1GasPrice": "0x8",
      "l1GasUsed": "0x640"
    },
    {
      "status": "0x1",
      "cumulativeGasUsed": "0x2ee111",
      "logs": [],
      "logsBloom": "0x00000000000000000000000000000000000000000000000000000000000000000000000000000000000000000000000000000000000000000000000000000000000000000000000000000000000000000000000000000000000000000000000000000000000000000000000000000000000000000000000000000000000000000000000000000000000000000000000000000000000000000000000000000000000000000000000000000000000000000000000000000000000000000000000000000000000000000000000000000000000000000000000000000000000000000000000000000000000000000000000000000000000000000000000000000000",
      "type": "0x2",
      "transactionHash": "0x8bb55be321fe65455b0a1c12192a71335046621d8775be8aa0101b20976061f3",
      "transactionIndex": "0x13",
      "blockHash": "0xa21e5b63914ef38d6149f1c7d0341b150c2f7aa079a67f589e649d192725c4f6",
      "blockNumber": "0x2248331",
      "gasUsed": "0xb892",
      "effectiveGasPrice": "0x124f80",
      "blobGasUsed": "0x79e0",
      "from": "0x1234562eb0cd65e7d08e59f9f18d7c10b5df232a",
      "to": "0xf3607a98c7a4c0a41f62c1492a771c47c4ed62dc",
      "contractAddress": null,
      "daFootprintGasScalar": "0x138",
      "l1BaseFeeScalar": "0x44d",
      "l1BlobBaseFee": "0x1",
      "l1BlobBaseFeeScalar": "0xa118b",
      "l1Fee": "0x50",
      "l1GasPrice": "0x8",
      "l1GasUsed": "0x640"
    },
    {
      "status": "0x1",
      "cumulativeGasUsed": "0x2f99a3",
      "logs": [],
      "logsBloom": "0x00000000000000000000000000000000000000000000000000000000000000000000000000000000000000000000000000000000000000000000000000000000000000000000000000000000000000000000000000000000000000000000000000000000000000000000000000000000000000000000000000000000000000000000000000000000000000000000000000000000000000000000000000000000000000000000000000000000000000000000000000000000000000000000000000000000000000000000000000000000000000000000000000000000000000000000000000000000000000000000000000000000000000000000000000000000",
      "type": "0x2",
      "transactionHash": "0x67b0a4574d7af919f93e97bf30f64c7edaa2c189afcce1fb3945a180eb1c6c8e",
      "transactionIndex": "0x14",
      "blockHash": "0xa21e5b63914ef38d6149f1c7d0341b150c2f7aa079a67f589e649d192725c4f6",
      "blockNumber": "0x2248331",
      "gasUsed": "0xb892",
      "effectiveGasPrice": "0x124f80",
      "blobGasUsed": "0x79e0",
      "from": "0x1234562eb0cd65e7d08e59f9f18d7c10b5df232a",
      "to": "0xf3607a98c7a4c0a41f62c1492a771c47c4ed62dc",
      "contractAddress": null,
      "daFootprintGasScalar": "0x138",
      "l1BaseFeeScalar": "0x44d",
      "l1BlobBaseFee": "0x1",
      "l1BlobBaseFeeScalar": "0xa118b",
      "l1Fee": "0x50",
      "l1GasPrice": "0x8",
      "l1GasUsed": "0x640"
    },
    {
      "status": "0x1",
      "cumulativeGasUsed": "0x30521d",
      "logs": [],
      "logsBloom": "0x00000000000000000000000000000000000000000000000000000000000000000000000000000000000000000000000000000000000000000000000000000000000000000000000000000000000000000000000000000000000000000000000000000000000000000000000000000000000000000000000000000000000000000000000000000000000000000000000000000000000000000000000000000000000000000000000000000000000000000000000000000000000000000000000000000000000000000000000000000000000000000000000000000000000000000000000000000000000000000000000000000000000000000000000000000000",
      "type": "0x2",
      "transactionHash": "0xb41cf542d713b849c8a204c5295cc8f8491d330ef7677a7837595e6d54387741",
      "transactionIndex": "0x15",
      "blockHash": "0xa21e5b63914ef38d6149f1c7d0341b150c2f7aa079a67f589e649d192725c4f6",
      "blockNumber": "0x2248331",
      "gasUsed": "0xb87a",
      "effectiveGasPrice": "0x124f80",
      "blobGasUsed": "0x79e0",
      "from": "0x1234562eb0cd65e7d08e59f9f18d7c10b5df232a",
      "to": "0xf3607a98c7a4c0a41f62c1492a771c47c4ed62dc",
      "contractAddress": null,
      "daFootprintGasScalar": "0x138",
      "l1BaseFeeScalar": "0x44d",
      "l1BlobBaseFee": "0x1",
      "l1BlobBaseFeeScalar": "0xa118b",
      "l1Fee": "0x50",
      "l1GasPrice": "0x8",
      "l1GasUsed": "0x640"
    },
    {
      "status": "0x1",
      "cumulativeGasUsed": "0x310aaf",
      "logs": [],
      "logsBloom": "0x00000000000000000000000000000000000000000000000000000000000000000000000000000000000000000000000000000000000000000000000000000000000000000000000000000000000000000000000000000000000000000000000000000000000000000000000000000000000000000000000000000000000000000000000000000000000000000000000000000000000000000000000000000000000000000000000000000000000000000000000000000000000000000000000000000000000000000000000000000000000000000000000000000000000000000000000000000000000000000000000000000000000000000000000000000000",
      "type": "0x2",
      "transactionHash": "0x3bef44cb5c31fb56859b216a3b248a68a5683ac890bd1c95f564ddf01ccb2b09",
      "transactionIndex": "0x16",
      "blockHash": "0xa21e5b63914ef38d6149f1c7d0341b150c2f7aa079a67f589e649d192725c4f6",
      "blockNumber": "0x2248331",
      "gasUsed": "0xb892",
      "effectiveGasPrice": "0x124f80",
      "blobGasUsed": "0x79e0",
      "from": "0x1234562eb0cd65e7d08e59f9f18d7c10b5df232a",
      "to": "0xf3607a98c7a4c0a41f62c1492a771c47c4ed62dc",
      "contractAddress": null,
      "daFootprintGasScalar": "0x138",
      "l1BaseFeeScalar": "0x44d",
      "l1BlobBaseFee": "0x1",
      "l1BlobBaseFeeScalar": "0xa118b",
      "l1Fee": "0x50",
      "l1GasPrice": "0x8",
      "l1GasUsed": "0x640"
    },
    {
      "status": "0x1",
      "cumulativeGasUsed": "0x31c341",
      "logs": [],
      "logsBloom": "0x00000000000000000000000000000000000000000000000000000000000000000000000000000000000000000000000000000000000000000000000000000000000000000000000000000000000000000000000000000000000000000000000000000000000000000000000000000000000000000000000000000000000000000000000000000000000000000000000000000000000000000000000000000000000000000000000000000000000000000000000000000000000000000000000000000000000000000000000000000000000000000000000000000000000000000000000000000000000000000000000000000000000000000000000000000000",
      "type": "0x2",
      "transactionHash": "0x22626e3f68f750b75d7356e297a6e67732629272f16784efcecd0c44698ae75f",
      "transactionIndex": "0x17",
      "blockHash": "0xa21e5b63914ef38d6149f1c7d0341b150c2f7aa079a67f589e649d192725c4f6",
      "blockNumber": "0x2248331",
      "gasUsed": "0xb892",
      "effectiveGasPrice": "0x124f80",
      "blobGasUsed": "0x79e0",
      "from": "0x1234562eb0cd65e7d08e59f9f18d7c10b5df232a",
      "to": "0xf3607a98c7a4c0a41f62c1492a771c47c4ed62dc",
      "contractAddress": null,
      "daFootprintGasScalar": "0x138",
      "l1BaseFeeScalar": "0x44d",
      "l1BlobBaseFee": "0x1",
      "l1BlobBaseFeeScalar": "0xa118b",
      "l1Fee": "0x50",
      "l1GasPrice": "0x8",
      "l1GasUsed": "0x640"
    },
    {
      "status": "0x1",
      "cumulativeGasUsed": "0x327bd3",
      "logs": [],
      "logsBloom": "0x00000000000000000000000000000000000000000000000000000000000000000000000000000000000000000000000000000000000000000000000000000000000000000000000000000000000000000000000000000000000000000000000000000000000000000000000000000000000000000000000000000000000000000000000000000000000000000000000000000000000000000000000000000000000000000000000000000000000000000000000000000000000000000000000000000000000000000000000000000000000000000000000000000000000000000000000000000000000000000000000000000000000000000000000000000000",
      "type": "0x2",
      "transactionHash": "0xbcee687806e43f58d4b762ebb84645d4af4c13c56f46b4c23e9bb1230af075ea",
      "transactionIndex": "0x18",
      "blockHash": "0xa21e5b63914ef38d6149f1c7d0341b150c2f7aa079a67f589e649d192725c4f6",
      "blockNumber": "0x2248331",
      "gasUsed": "0xb892",
      "effectiveGasPrice": "0x124f80",
      "blobGasUsed": "0x79e0",
      "from": "0x1234562eb0cd65e7d08e59f9f18d7c10b5df232a",
      "to": "0xf3607a98c7a4c0a41f62c1492a771c47c4ed62dc",
      "contractAddress": null,
      "daFootprintGasScalar": "0x138",
      "l1BaseFeeScalar": "0x44d",
      "l1BlobBaseFee": "0x1",
      "l1BlobBaseFeeScalar": "0xa118b",
      "l1Fee": "0x50",
      "l1GasPrice": "0x8",
      "l1GasUsed": "0x640"
    },
    {
      "status": "0x1",
      "cumulativeGasUsed": "0x32e854",
      "logs": [
        {
          "address": "0xf3607a98c7a4c0a41f62c1492a771c47c4ed62dc",
          "topics": [
            "0xac90355684e2710fa34c2c7d500018678b146ea2d56ddc331c63d242ee8bf385",
            "0x00000000000000000000000033c6f26da09502e6540043f030ae1f87f109cc99"
          ],
          "data": "0x0000000000000000000000000000000000000000000000000000000000000001",
          "blockHash": "0xa21e5b63914ef38d6149f1c7d0341b150c2f7aa079a67f589e649d192725c4f6",
          "blockNumber": "0x2248331",
          "blockTimestamp": "0x695c6542",
          "transactionHash": "0x211bc498d16f1855b0f9f4ac1482b1aa7b54bf24abdf214973e8bf7b4434895d",
          "transactionIndex": "0x19",
          "logIndex": "0x64",
          "removed": false
        }
      ],
      "logsBloom": "0x00000000000000000200000000000000000000000000000000000000000000000000000000000000000000000000000000000000000000000010000000000000000000000000000000000000000000000000000000000000000000000000000000000000000000000000000000000000000000000008000000000000002000000000000000000000000010000000000000000200000000000000040000000000080000000000000000000000000000000000000000000000000000000000000000000000000000000000000000000000000000000000000000000000000000000000000000800000000000000000000000000000000000000000000000000000",
      "type": "0x2",
      "transactionHash": "0x211bc498d16f1855b0f9f4ac1482b1aa7b54bf24abdf214973e8bf7b4434895d",
      "transactionIndex": "0x19",
      "blockHash": "0xa21e5b63914ef38d6149f1c7d0341b150c2f7aa079a67f589e649d192725c4f6",
      "blockNumber": "0x2248331",
      "gasUsed": "0x6c81",
      "effectiveGasPrice": "0x124f80",
      "blobGasUsed": "0x79e0",
      "from": "0x1234562eb0cd65e7d08e59f9f18d7c10b5df232a",
      "to": "0xf3607a98c7a4c0a41f62c1492a771c47c4ed62dc",
      "contractAddress": null,
      "daFootprintGasScalar": "0x138",
      "l1BaseFeeScalar": "0x44d",
      "l1BlobBaseFee": "0x1",
      "l1BlobBaseFeeScalar": "0xa118b",
      "l1Fee": "0x50",
      "l1GasPrice": "0x8",
      "l1GasUsed": "0x640"
    },
    {
      "status": "0x1",
      "cumulativeGasUsed": "0x3354e1",
      "logs": [
        {
          "address": "0xf3607a98c7a4c0a41f62c1492a771c47c4ed62dc",
          "topics": [
            "0xac90355684e2710fa34c2c7d500018678b146ea2d56ddc331c63d242ee8bf385",
            "0x0000000000000000000000007cb382ce1aa40fa9f9a59a632090c05dc28cae7b"
          ],
          "data": "0x0000000000000000000000000000000000000000000000000000000000000001",
          "blockHash": "0xa21e5b63914ef38d6149f1c7d0341b150c2f7aa079a67f589e649d192725c4f6",
          "blockNumber": "0x2248331",
          "blockTimestamp": "0x695c6542",
          "transactionHash": "0x4e5da1a8c4de93608bdc0890edf295c04fb97d5c1ead03f7bc7245b3f7460ab3",
          "transactionIndex": "0x1a",
          "logIndex": "0x65",
          "removed": false
        }
      ],
      "logsBloom": "0x00000000000000000200000000000000000000000000000000000000000000000000000000000000000800000000000000000000000000000010000000000000000000000000000000000000000000000000004000000000000002000000000000000000000000000000000000000000000000000000000000000000002000000000000000000000000000000000000000000000000000000000040000000000080000000000000000000000000000000000000000000000000000000000000000000000000000000000000000000000000000000000000000000000000000000000000000800000000000000000000000000000000000000000000000000000",
      "type": "0x2",
      "transactionHash": "0x4e5da1a8c4de93608bdc0890edf295c04fb97d5c1ead03f7bc7245b3f7460ab3",
      "transactionIndex": "0x1a",
      "blockHash": "0xa21e5b63914ef38d6149f1c7d0341b150c2f7aa079a67f589e649d192725c4f6",
      "blockNumber": "0x2248331",
      "gasUsed": "0x6c8d",
      "effectiveGasPrice": "0x124f80",
      "blobGasUsed": "0x79e0",
      "from": "0x1234562eb0cd65e7d08e59f9f18d7c10b5df232a",
      "to": "0xf3607a98c7a4c0a41f62c1492a771c47c4ed62dc",
      "contractAddress": null,
      "daFootprintGasScalar": "0x138",
      "l1BaseFeeScalar": "0x44d",
      "l1BlobBaseFee": "0x1",
      "l1BlobBaseFeeScalar": "0xa118b",
      "l1Fee": "0x50",
      "l1GasPrice": "0x8",
      "l1GasUsed": "0x640"
    },
    {
      "status": "0x1",
      "cumulativeGasUsed": "0x33c16e",
      "logs": [
        {
          "address": "0xf3607a98c7a4c0a41f62c1492a771c47c4ed62dc",
          "topics": [
            "0xac90355684e2710fa34c2c7d500018678b146ea2d56ddc331c63d242ee8bf385",
            "0x000000000000000000000000b288ba5b5b80dd0fd83541ef2e5922f71121fa13"
          ],
          "data": "0x0000000000000000000000000000000000000000000000000000000000000001",
          "blockHash": "0xa21e5b63914ef38d6149f1c7d0341b150c2f7aa079a67f589e649d192725c4f6",
          "blockNumber": "0x2248331",
          "blockTimestamp": "0x695c6542",
          "transactionHash": "0x1615d436d27dd19033b04504d6e4cd9b5ddf975090092468754b9686675834d3",
          "transactionIndex": "0x1b",
          "logIndex": "0x66",
          "removed": false
        }
      ],
      "logsBloom": "0x00000000000000000200000000000000000000000000000000000000000000000000000000000000000000000000000000000000000000000010000000000000000000000000000000000000000000000000000000000000000000000000000000000000000000000000000000000000000000000000000000000000002000000000000000000000000000000000000000000000000000000002040000000400080000000000000000000000000000000000000000000000000000000000000000000000000000000000000000000000000000000000000000000000000000000000000000800000000000000000000000000000000000800000000000000000",
      "type": "0x2",
      "transactionHash": "0x1615d436d27dd19033b04504d6e4cd9b5ddf975090092468754b9686675834d3",
      "transactionIndex": "0x1b",
      "blockHash": "0xa21e5b63914ef38d6149f1c7d0341b150c2f7aa079a67f589e649d192725c4f6",
      "blockNumber": "0x2248331",
      "gasUsed": "0x6c8d",
      "effectiveGasPrice": "0x124f80",
      "blobGasUsed": "0x79e0",
      "from": "0x1234562eb0cd65e7d08e59f9f18d7c10b5df232a",
      "to": "0xf3607a98c7a4c0a41f62c1492a771c47c4ed62dc",
      "contractAddress": null,
      "daFootprintGasScalar": "0x138",
      "l1BaseFeeScalar": "0x44d",
      "l1BlobBaseFee": "0x1",
      "l1BlobBaseFeeScalar": "0xa118b",
      "l1Fee": "0x50",
      "l1GasPrice": "0x8",
      "l1GasUsed": "0x640"
    },
    {
      "status": "0x1",
      "cumulativeGasUsed": "0x351e63",
      "logs": [
        {
          "address": "0xf3607a98c7a4c0a41f62c1492a771c47c4ed62dc",
          "topics": [
            "0xac90355684e2710fa34c2c7d500018678b146ea2d56ddc331c63d242ee8bf385",
            "0x000000000000000000000000c4a53c466cfb62aeced03008b0162baaf36e0b03"
          ],
          "data": "0x0000000000000000000000000000000000000000000000000000000000000001",
          "blockHash": "0xb603b8af52f8c6d2800e5181bf2db3666879f12ecae51f24a75fbb4b73064b11",
          "blockNumber": "0x2248331",
          "blockTimestamp": "0x695c6542",
          "transactionHash": "0x3db513fd0c6bf8389f9475fc6f2b5582a4c205361006f64f88b274cd02b91c91",
          "transactionIndex": "0x1d",
          "logIndex": "0x67",
          "removed": false
        }
      ],
      "logsBloom": "0x00000000000000000200000000000000000000000000000000000000000000000000000000000000000000000000000000000000000000000010000000000000000000000000000000000000000000000000000000000000000000000000000000000004000000000000000000000000000000000000000000000000002000000000000000000000000000040000000000000000000000000000040000000000080000000000400000000000000000000000000000000000000000000000000000000000000000000000000000000000000000000000000000000000000000000000000000800000000000000000000000000000000000000000000000000000",
      "type": "0x2",
      "transactionHash": "0x3db513fd0c6bf8389f9475fc6f2b5582a4c205361006f64f88b274cd02b91c91",
      "transactionIndex": "0x1d",
      "blockHash": "0xb603b8af52f8c6d2800e5181bf2db3666879f12ecae51f24a75fbb4b73064b11",
      "blockNumber": "0x2248331",
      "gasUsed": "0x6c8d",
      "effectiveGasPrice": "0x124f80",
      "blobGasUsed": "0x79e0",
      "from": "0x1234562eb0cd65e7d08e59f9f18d7c10b5df232a",
      "to": "0xf3607a98c7a4c0a41f62c1492a771c47c4ed62dc",
      "contractAddress": null,
      "daFootprintGasScalar": "0x138",
      "l1BaseFeeScalar": "0x44d",
      "l1BlobBaseFee": "0x1",
      "l1BlobBaseFeeScalar": "0xa118b",
      "l1Fee": "0x50",
      "l1GasPrice": "0x8",
      "l1GasUsed": "0x640"
    },
    {
      "status": "0x1",
      "cumulativeGasUsed": "0x358af0",
      "logs": [
        {
          "address": "0xf3607a98c7a4c0a41f62c1492a771c47c4ed62dc",
          "topics": [
            "0xac90355684e2710fa34c2c7d500018678b146ea2d56ddc331c63d242ee8bf385",
            "0x00000000000000000000000070db6efb75c898ad1e194fda2b8c6e73dbc944d6"
          ],
          "data": "0x0000000000000000000000000000000000000000000000000000000000000001",
          "blockHash": "0xa21e5b63914ef38d6149f1c7d0341b150c2f7aa079a67f589e649d192725c4f6",
          "blockNumber": "0x2248331",
          "blockTimestamp": "0x695c6542",
          "transactionHash": "0x9c19283971c42a522f772fea21fd73004b0315a8b903e09cd1320d70bba1f6e3",
          "transactionIndex": "0x1e",
          "logIndex": "0x68",
          "removed": false
        }
      ],
      "logsBloom": "0x00000000000000000200000000000000000000000000000000000000000000000000000000000000000000000000000000080000000000000010000000000000000000000000000000000000000000000000000000000000000000000000000000000000000000000000000000000000000000000000000000000000002000000000000000000000000000000000000000000000000400000000040000000000080000000000000000000000000000000000000000000000000000000000000000000000000000000000000000000000000000000000000000080000000000000000000000800000000000000000000000000000000000000000000000000000",
      "type": "0x2",
      "transactionHash": "0x9c19283971c42a522f772fea21fd73004b0315a8b903e09cd1320d70bba1f6e3",
      "transactionIndex": "0x1e",
      "blockHash": "0xa21e5b63914ef38d6149f1c7d0341b150c2f7aa079a67f589e649d192725c4f6",
      "blockNumber": "0x2248331",
      "gasUsed": "0x6c8d",
      "effectiveGasPrice": "0x124f80",
      "blobGasUsed": "0x79e0",
      "from": "0x1234562eb0cd65e7d08e59f9f18d7c10b5df232a",
      "to": "0xf3607a98c7a4c0a41f62c1492a771c47c4ed62dc",
      "contractAddress": null,
      "daFootprintGasScalar": "0x138",
      "l1BaseFeeScalar": "0x44d",
      "l1BlobBaseFee": "0x1",
      "l1BlobBaseFeeScalar": "0xa118b",
      "l1Fee": "0x50",
      "l1GasPrice": "0x8",
      "l1GasUsed": "0x640"
    },
    {
      "status": "0x1",
      "cumulativeGasUsed": "0x35f77d",
      "logs": [
        {
          "address": "0xf3607a98c7a4c0a41f62c1492a771c47c4ed62dc",
          "topics": [
            "0xac90355684e2710fa34c2c7d500018678b146ea2d56ddc331c63d242ee8bf385",
            "0x000000000000000000000000ee589fbf85128aba6f42696db2f28ea9ebdde173"
          ],
          "data": "0x0000000000000000000000000000000000000000000000000000000000000001",
          "blockHash": "0xa21e5b63914ef38d6149f1c7d0341b150c2f7aa079a67f589e649d192725c4f6",
          "blockNumber": "0x2248331",
          "blockTimestamp": "0x695c6542",
          "transactionHash": "0x3d03536967564d4d389144e88dbc6575b932f69a593241f371aa49f3c419d99b",
          "transactionIndex": "0x1f",
          "logIndex": "0x69",
          "removed": false
        }
      ],
      "logsBloom": "0x00000000000000000200000020000000000000000000000000000000000000000000000000000000000000000000000000000000000000000010000000000000000000000000000000000000000000000000000000000000000000000000000000000000000000000000000000000000000000000000000000000000002000000000000000000000000000000000000000000000000000000000040000000000080000000000000000000000000000000000000000000000000000000000000000000000000000000000000000000000000000000000400000000000000000000000000000800000000000000080000000000000000000000000000000000000",
      "type": "0x2",
      "transactionHash": "0x3d03536967564d4d389144e88dbc6575b932f69a593241f371aa49f3c419d99b",
      "transactionIndex": "0x1f",
      "blockHash": "0xa21e5b63914ef38d6149f1c7d0341b150c2f7aa079a67f589e649d192725c4f6",
      "blockNumber": "0x2248331",
      "gasUsed": "0x6c8d",
      "effectiveGasPrice": "0x124f80",
      "blobGasUsed": "0x79e0",
      "from": "0x1234562eb0cd65e7d08e59f9f18d7c10b5df232a",
      "to": "0xf3607a98c7a4c0a41f62c1492a771c47c4ed62dc",
      "contractAddress": null,
      "daFootprintGasScalar": "0x138",
      "l1BaseFeeScalar": "0x44d",
      "l1BlobBaseFee": "0x1",
      "l1BlobBaseFeeScalar": "0xa118b",
      "l1Fee": "0x50",
      "l1GasPrice": "0x8",
      "l1GasUsed": "0x640"
    },
    {
      "status": "0x1",
      "cumulativeGasUsed": "0x3663fe",
      "logs": [
        {
          "address": "0xf3607a98c7a4c0a41f62c1492a771c47c4ed62dc",
          "topics": [
            "0xac90355684e2710fa34c2c7d500018678b146ea2d56ddc331c63d242ee8bf385",
            "0x0000000000000000000000002c036be74942c597e4d81d7050008ddc11becceb"
          ],
          "data": "0x0000000000000000000000000000000000000000000000000000000000000001",
          "blockHash": "0xa21e5b63914ef38d6149f1c7d0341b150c2f7aa079a67f589e649d192725c4f6",
          "blockNumber": "0x2248331",
          "blockTimestamp": "0x695c6542",
          "transactionHash": "0xa5f8ada130663f844aa73ec213ca577fc7cc6adfda9c95d942286d22d8c9cc8f",
          "transactionIndex": "0x20",
          "logIndex": "0x6a",
          "removed": false
        }
      ],
      "logsBloom": "0x00000000000000000200000000000000000000000000000000000000000000000000000000000000000000000000000000000000000000000010000000000000000000000000000000000000000000000000000000000000000010000000000000000000000000000000000000000000000000000000000000000000002000000000000000000000000000000000000000000000000000000000040000000000080000000000000000000000000000008000000000000000000000000000000000000000000000000000000000000000000000000000000000000000000000000000000000800000000000000000000000000000000000000000000000000002",
      "type": "0x2",
      "transactionHash": "0xa5f8ada130663f844aa73ec213ca577fc7cc6adfda9c95d942286d22d8c9cc8f",
      "transactionIndex": "0x20",
      "blockHash": "0xa21e5b63914ef38d6149f1c7d0341b150c2f7aa079a67f589e649d192725c4f6",
      "blockNumber": "0x2248331",
      "gasUsed": "0x6c81",
      "effectiveGasPrice": "0x124f80",
      "blobGasUsed": "0x79e0",
      "from": "0x1234562eb0cd65e7d08e59f9f18d7c10b5df232a",
      "to": "0xf3607a98c7a4c0a41f62c1492a771c47c4ed62dc",
      "contractAddress": null,
      "daFootprintGasScalar": "0x138",
      "l1BaseFeeScalar": "0x44d",
      "l1BlobBaseFee": "0x1",
      "l1BlobBaseFeeScalar": "0xa118b",
      "l1Fee": "0x50",
      "l1GasPrice": "0x8",
      "l1GasUsed": "0x640"
    },
    {
      "status": "0x1",
      "cumulativeGasUsed": "0x36d08b",
      "logs": [
        {
          "address": "0xf3607a98c7a4c0a41f62c1492a771c47c4ed62dc",
          "topics": [
            "0xac90355684e2710fa34c2c7d500018678b146ea2d56ddc331c63d242ee8bf385",
            "0x00000000000000000000000090cdcbf4c4bc78dc440252211efd744d0a4dc4a1"
          ],
          "data": "0x0000000000000000000000000000000000000000000000000000000000000001",
          "blockHash": "0xa21e5b63914ef38d6149f1c7d0341b150c2f7aa079a67f589e649d192725c4f6",
          "blockNumber": "0x2248331",
          "blockTimestamp": "0x695c6542",
          "transactionHash": "0xe899388ce5062b5a9e11cc7e1a13b972369bed18f101ecf91b2f540efb5b288d",
          "transactionIndex": "0x21",
          "logIndex": "0x6b",
          "removed": false
        }
      ],
      "logsBloom": "0x00000000000000000200000000000000000000000000000010000000000000000000000000000000000000000000000000000000000000200010000000000000000000000000000000000000000000000000000000000000000000000000000000000000000000000000000000000000000000000000000000000000002000000000000000000000000000000000000000000000000000000000040000000000080000000000000000000000000000000000000000000000000000000000000000000000000000000000000000000000000000000000000000000000000000000000000000800000000000080000000000000000000000000000000000000000",
      "type": "0x2",
      "transactionHash": "0xe899388ce5062b5a9e11cc7e1a13b972369bed18f101ecf91b2f540efb5b288d",
      "transactionIndex": "0x21",
      "blockHash": "0xa21e5b63914ef38d6149f1c7d0341b150c2f7aa079a67f589e649d192725c4f6",
      "blockNumber": "0x2248331",
      "gasUsed": "0x6c8d",
      "effectiveGasPrice": "0x124f80",
      "blobGasUsed": "0x79e0",
      "from": "0x1234562eb0cd65e7d08e59f9f18d7c10b5df232a",
      "to": "0xf3607a98c7a4c0a41f62c1492a771c47c4ed62dc",
      "contractAddress": null,
      "daFootprintGasScalar": "0x138",
      "l1BaseFeeScalar": "0x44d",
      "l1BlobBaseFee": "0x1",
      "l1BlobBaseFeeScalar": "0xa118b",
      "l1Fee": "0x50",
      "l1GasPrice": "0x8",
      "l1GasUsed": "0x640"
    },
    {
      "status": "0x1",
      "cumulativeGasUsed": "0x373d18",
      "logs": [
        {
          "address": "0xf3607a98c7a4c0a41f62c1492a771c47c4ed62dc",
          "topics": [
            "0xac90355684e2710fa34c2c7d500018678b146ea2d56ddc331c63d242ee8bf385",
            "0x000000000000000000000000ced6ceb47301f268d57ff07879df45fda80e6974"
          ],
          "data": "0x0000000000000000000000000000000000000000000000000000000000000001",
          "blockHash": "0xa21e5b63914ef38d6149f1c7d0341b150c2f7aa079a67f589e649d192725c4f6",
          "blockNumber": "0x2248331",
          "blockTimestamp": "0x695c6542",
          "transactionHash": "0x20f89dbf367a927140199c5cd9816ab911ecc9e07b863d9594d197df8a80d6ac",
          "transactionIndex": "0x22",
          "logIndex": "0x6c",
          "removed": false
        }
      ],
      "logsBloom": "0x00000000000000000200000800000000000000000000000000000000000000000000000000000000000000000080000000000000000000000010000000000000000000000000000000000000000000000000000000000000000000000000000000000000000000000000000000000000000000000000000000000000002000000000000000000000000000000000000000000000000000000000040000000000080000000000000000000000000000000000000000000000000000000000000000000000000000000000000000000000000000000000002000000000000000000000000000800000000000000000000000000000000000000000000000000000",
      "type": "0x2",
      "transactionHash": "0x20f89dbf367a927140199c5cd9816ab911ecc9e07b863d9594d197df8a80d6ac",
      "transactionIndex": "0x22",
      "blockHash": "0xa21e5b63914ef38d6149f1c7d0341b150c2f7aa079a67f589e649d192725c4f6",
      "blockNumber": "0x2248331",
      "gasUsed": "0x6c8d",
      "effectiveGasPrice": "0x124f80",
      "blobGasUsed": "0x79e0",
      "from": "0x1234562eb0cd65e7d08e59f9f18d7c10b5df232a",
      "to": "0xf3607a98c7a4c0a41f62c1492a771c47c4ed62dc",
      "contractAddress": null,
      "daFootprintGasScalar": "0x138",
      "l1BaseFeeScalar": "0x44d",
      "l1BlobBaseFee": "0x1",
      "l1BlobBaseFeeScalar": "0xa118b",
      "l1Fee": "0x50",
      "l1GasPrice": "0x8",
      "l1GasUsed": "0x640"
    },
    {
      "status": "0x1",
      "cumulativeGasUsed": "0x37a9a5",
      "logs": [
        {
          "address": "0xf3607a98c7a4c0a41f62c1492a771c47c4ed62dc",
          "topics": [
            "0xac90355684e2710fa34c2c7d500018678b146ea2d56ddc331c63d242ee8bf385",
            "0x000000000000000000000000782ba48189af93a0cf42766058de83291f384bf3"
          ],
          "data": "0x0000000000000000000000000000000000000000000000000000000000000001",
          "blockHash": "0xa21e5b63914ef38d6149f1c7d0341b150c2f7aa079a67f589e649d192725c4f6",
          "blockNumber": "0x2248331",
          "blockTimestamp": "0x695c6542",
          "transactionHash": "0x2f94a2baddc92b105f8837db717f8ab7be01c101f92eb290abbf158f41f0679e",
          "transactionIndex": "0x23",
          "logIndex": "0x6d",
          "removed": false
        }
      ],
      "logsBloom": "0x00000000000000000200000000000000000020000000000000000000000000000000000000000000000000000000000000000000000000000010000000000000000000000000000000000000000000000000000000000000000000000000000000000000000000000000000000000000000000000000000000000000002000000000000100000000000000000000000000000000000000000000040000000000080000000000000000008000000000000000000000000000000000000000000000000000000000000000000000000000000000000000000000000000000000000000000000800000000000000000000000000000000000000000000000000000",
      "type": "0x2",
      "transactionHash": "0x2f94a2baddc92b105f8837db717f8ab7be01c101f92eb290abbf158f41f0679e",
      "transactionIndex": "0x23",
      "blockHash": "0xa21e5b63914ef38d6149f1c7d0341b150c2f7aa079a67f589e649d192725c4f6",
      "blockNumber": "0x2248331",
      "gasUsed": "0x6c8d",
      "effectiveGasPrice": "0x124f80",
      "blobGasUsed": "0x79e0",
      "from": "0x1234562eb0cd65e7d08e59f9f18d7c10b5df232a",
      "to": "0xf3607a98c7a4c0a41f62c1492a771c47c4ed62dc",
      "contractAddress": null,
      "daFootprintGasScalar": "0x138",
      "l1BaseFeeScalar": "0x44d",
      "l1BlobBaseFee": "0x1",
      "l1BlobBaseFeeScalar": "0xa118b",
      "l1Fee": "0x50",
      "l1GasPrice": "0x8",
      "l1GasUsed": "0x640"
    }
  ],
  "libraries": [],
  "pending": [],
  "returns": {},
  "timestamp": 1767662913892,
  "chain": 84532,
  "commit": "cd2a7c9"
}