{
  "transactions": [
    {
      "hash": "0x3ab1893acf26b33232b8b1c5f7958fdf7c585cb8e10d2d5b95d6210014077917",
      "transactionType": "CALL",
      "contractName": null,
      "contractAddress": "0x4ab4a2290cb651065d346299425b2d45eef9d75d",
      "function": "setIsHubChain(bool)",
      "arguments": [
        "false"
      ],
      "transaction": {
        "from": "0x1234562eb0cd65e7d08e59f9f18d7c10b5df232a",
        "to": "0x4ab4a2290cb651065d346299425b2d45eef9d75d",
        "gas": "0x8fac",
        "value": "0x0",
        "input": "0xf54efd770000000000000000000000000000000000000000000000000000000000000000",
        "nonce": "0xbf99",
        "chainId": "0x14a34"
      },
      "additionalContracts": [],
      "isFixedGasLimit": false
    },
    {
      "hash": "0xc441ca703eb7ae598e20e4c4ffb6d5a5b3c1eb4c18921662e6f2bd4e716020b7",
      "transactionType": "CALL",
      "contractName": null,
      "contractAddress": "0x4ab4a2290cb651065d346299425b2d45eef9d75d",
      "function": "setHubChainDomainId(uint32)",
      "arguments": [
        "5003"
      ],
      "transaction": {
        "from": "0x1234562eb0cd65e7d08e59f9f18d7c10b5df232a",
        "to": "0x4ab4a2290cb651065d346299425b2d45eef9d75d",
        "gas": "0xf732",
        "value": "0x0",
        "input": "0x3b3b2d8c000000000000000000000000000000000000000000000000000000000000138b",
        "nonce": "0xbf9a",
        "chainId": "0x14a34"
      },
      "additionalContracts": [],
      "isFixedGasLimit": false
    },
    {
      "hash": "0x2fcb1b2bdf7b80260d2e2c9869188f8ec8bedaeb5f400b44c295663db4f3fea8",
      "transactionType": "CALL",
      "contractName": null,
      "contractAddress": "0x4ab4a2290cb651065d346299425b2d45eef9d75d",
      "function": "setHubContractAddress(address)",
      "arguments": [
        "0x888361c3362712Ba6BB442cbF714038fCe0d9e49"
      ],
      "transaction": {
        "from": "0x1234562eb0cd65e7d08e59f9f18d7c10b5df232a",
        "to": "0x4ab4a2290cb651065d346299425b2d45eef9d75d",
        "gas": "0x9d9d",
        "value": "0x0",
        "input": "0x833ccb35000000000000000000000000888361c3362712ba6bb442cbf714038fce0d9e49",
        "nonce": "0xbf9b",
        "chainId": "0x14a34"
      },
      "additionalContracts": [],
      "isFixedGasLimit": false
    },
    {
      "hash": "0xd8651a3a26bbfd9c37c60218194ed39cd531f716408dd3c84c70484e5b22212a",
      "transactionType": "CALL",
      "contractName": null,
      "contractAddress": "0x4ab4a2290cb651065d346299425b2d45eef9d75d",
      "function": "setTokenToHypToken(address,address)",
      "arguments": [
        "0x33c6f26dA09502E6540043f030aE1F87f109cc99",
        "0x33c6f26dA09502E6540043f030aE1F87f109cc99"
      ],
      "transaction": {
        "from": "0x1234562eb0cd65e7d08e59f9f18d7c10b5df232a",
        "to": "0x4ab4a2290cb651065d346299425b2d45eef9d75d",
        "gas": "0xfeed",
        "value": "0x0",
        "input": "0xee68870600000000000000000000000033c6f26da09502e6540043f030ae1f87f109cc9900000000000000000000000033c6f26da09502e6540043f030ae1f87f109cc99",
        "nonce": "0xbf9c",
        "chainId": "0x14a34"
      },
      "additionalContracts": [],
      "isFixedGasLimit": false
    },
    {
      "hash": "0xc4e814bbe3a9046d199d95c9ca9bed568589e4a4d2ae5629b030938e7cca77ee",
      "transactionType": "CALL",
      "contractName": null,
      "contractAddress": "0x4ab4a2290cb651065d346299425b2d45eef9d75d",
      "function": "setTokenToHypToken(address,address)",
      "arguments": [
        "0x7CB382Ce1AA40FA9F9A59a632090c05Dc28caE7b",
        "0x7CB382Ce1AA40FA9F9A59a632090c05Dc28caE7b"
      ],
      "transaction": {
        "from": "0x1234562eb0cd65e7d08e59f9f18d7c10b5df232a",
        "to": "0x4ab4a2290cb651065d346299425b2d45eef9d75d",
        "gas": "0xff0d",
        "value": "0x0",
        "input": "0xee6887060000000000000000000000007cb382ce1aa40fa9f9a59a632090c05dc28cae7b0000000000000000000000007cb382ce1aa40fa9f9a59a632090c05dc28cae7b",
        "nonce": "0xbf9d",
        "chainId": "0x14a34"
      },
      "additionalContracts": [],
      "isFixedGasLimit": false
    },
    {
      "hash": "0x9991598bd32a8bdeec49bab7f37b58c06690e283294034cf4cfc356e7b7a7dc5",
      "transactionType": "CALL",
      "contractName": null,
      "contractAddress": "0x4ab4a2290cb651065d346299425b2d45eef9d75d",
      "function": "setTokenToHypToken(address,address)",
      "arguments": [
        "0xB288Ba5B5b80Dd0Fd83541ef2e5922f71121Fa13",
        "0xB288Ba5B5b80Dd0Fd83541ef2e5922f71121Fa13"
      ],
      "transaction": {
        "from": "0x1234562eb0cd65e7d08e59f9f18d7c10b5df232a",
        "to": "0x4ab4a2290cb651065d346299425b2d45eef9d75d",
        "gas": "0xff0d",
        "value": "0x0",
        "input": "0xee688706000000000000000000000000b288ba5b5b80dd0fd83541ef2e5922f71121fa13000000000000000000000000b288ba5b5b80dd0fd83541ef2e5922f71121fa13",
        "nonce": "0xbf9e",
        "chainId": "0x14a34"
      },
      "additionalContracts": [],
      "isFixedGasLimit": false
    },
    {
      "hash": "0x1eb77812e1a2faf43751d3ecdaaf68f3bbef148d1e08f1d8231b7560550d1feb",
      "transactionType": "CALL",
      "contractName": null,
      "contractAddress": "0x4ab4a2290cb651065d346299425b2d45eef9d75d",
      "function": "setTokenToHypToken(address,address)",
      "arguments": [
        "0xC4a53c466Cfb62AecED03008B0162baaf36E0B03",
        "0xC4a53c466Cfb62AecED03008B0162baaf36E0B03"
      ],
      "transaction": {
        "from": "0x1234562eb0cd65e7d08e59f9f18d7c10b5df232a",
        "to": "0x4ab4a2290cb651065d346299425b2d45eef9d75d",
        "gas": "0xff0d",
        "value": "0x0",
        "input": "0xee688706000000000000000000000000c4a53c466cfb62aeced03008b0162baaf36e0b03000000000000000000000000c4a53c466cfb62aeced03008b0162baaf36e0b03",
        "nonce": "0xbf9f",
        "chainId": "0x14a34"
      },
      "additionalContracts": [],
      "isFixedGasLimit": false
    },
    {
      "hash": "0xcf7600ba39e0e4bcc064a634f8c3cbc5a58b16879ff3c344391910c007ad2ab4",
      "transactionType": "CALL",
      "contractName": null,
      "contractAddress": "0x4ab4a2290cb651065d346299425b2d45eef9d75d",
      "function": "setTokenToHypToken(address,address)",
      "arguments": [
        "0x70Db6eFB75c898Ad1e194FDA2B8C6e73dbC944d6",
        "0x70Db6eFB75c898Ad1e194FDA2B8C6e73dbC944d6"
      ],
      "transaction": {
        "from": "0x1234562eb0cd65e7d08e59f9f18d7c10b5df232a",
        "to": "0x4ab4a2290cb651065d346299425b2d45eef9d75d",
        "gas": "0xff0d",
        "value": "0x0",
        "input": "0xee68870600000000000000000000000070db6efb75c898ad1e194fda2b8c6e73dbc944d600000000000000000000000070db6efb75c898ad1e194fda2b8c6e73dbc944d6",
        "nonce": "0xbfa0",
        "chainId": "0x14a34"
      },
      "additionalContracts": [],
      "isFixedGasLimit": false
    },
    {
      "hash": "0x068fe7dffb66356597ef421a2643de67b3f43ca019d589b44c7370cd1e3f28ba",
      "transactionType": "CALL",
      "contractName": null,
      "contractAddress": "0x4ab4a2290cb651065d346299425b2d45eef9d75d",
      "function": "setTokenToHypToken(address,address)",
      "arguments": [
        "0xEE589FBF85128abA6f42696dB2F28eA9EBddE173",
        "0xEE589FBF85128abA6f42696dB2F28eA9EBddE173"
      ],
      "transaction": {
        "from": "0x1234562eb0cd65e7d08e59f9f18d7c10b5df232a",
        "to": "0x4ab4a2290cb651065d346299425b2d45eef9d75d",
        "gas": "0xff0d",
        "value": "0x0",
        "input": "0xee688706000000000000000000000000ee589fbf85128aba6f42696db2f28ea9ebdde173000000000000000000000000ee589fbf85128aba6f42696db2f28ea9ebdde173",
        "nonce": "0xbfa1",
        "chainId": "0x14a34"
      },
      "additionalContracts": [],
      "isFixedGasLimit": false
    },
    {
      "hash": "0xa1633b15a405b03c78e3fa415f01d600796490df925bde5fef13081590a26fe5",
      "transactionType": "CALL",
      "contractName": null,
      "contractAddress": "0x4ab4a2290cb651065d346299425b2d45eef9d75d",
      "function": "setTokenToHypToken(address,address)",
      "arguments": [
        "0x2C036be74942c597e4d81D7050008dDc11becCEb",
        "0x2C036be74942c597e4d81D7050008dDc11becCEb"
      ],
      "transaction": {
        "from": "0x1234562eb0cd65e7d08e59f9f18d7c10b5df232a",
        "to": "0x4ab4a2290cb651065d346299425b2d45eef9d75d",
        "gas": "0xfeed",
        "value": "0x0",
        "input": "0xee6887060000000000000000000000002c036be74942c597e4d81d7050008ddc11becceb0000000000000000000000002c036be74942c597e4d81d7050008ddc11becceb",
        "nonce": "0xbfa2",
        "chainId": "0x14a34"
      },
      "additionalContracts": [],
      "isFixedGasLimit": false
    },
    {
      "hash": "0x58dd45c167ab2dedd3a910f1b15e8d63122fcc56cc8f8152a0522e8099c2cc1a",
      "transactionType": "CALL",
      "contractName": null,
      "contractAddress": "0x4ab4a2290cb651065d346299425b2d45eef9d75d",
      "function": "setTokenToHypToken(address,address)",
      "arguments": [
        "0x90CdcBF4c4bc78dC440252211EFd744d0A4Dc4A1",
        "0x90CdcBF4c4bc78dC440252211EFd744d0A4Dc4A1"
      ],
      "transaction": {
        "from": "0x1234562eb0cd65e7d08e59f9f18d7c10b5df232a",
        "to": "0x4ab4a2290cb651065d346299425b2d45eef9d75d",
        "gas": "0xff0d",
        "value": "0x0",
        "input": "0xee68870600000000000000000000000090cdcbf4c4bc78dc440252211efd744d0a4dc4a100000000000000000000000090cdcbf4c4bc78dc440252211efd744d0a4dc4a1",
        "nonce": "0xbfa3",
        "chainId": "0x14a34"
      },
      "additionalContracts": [],
      "isFixedGasLimit": false
    },
    {
      "hash": "0x223e792acc11df191a22815b7ecc7ca1d889b7a0c5df41d9f559d5bba60a04f4",
      "transactionType": "CALL",
      "contractName": null,
      "contractAddress": "0x4ab4a2290cb651065d346299425b2d45eef9d75d",
      "function": "setTokenToHypToken(address,address)",
      "arguments": [
        "0xced6Ceb47301F268d57fF07879DF45Fda80e6974",
        "0xced6Ceb47301F268d57fF07879DF45Fda80e6974"
      ],
      "transaction": {
        "from": "0x1234562eb0cd65e7d08e59f9f18d7c10b5df232a",
        "to": "0x4ab4a2290cb651065d346299425b2d45eef9d75d",
        "gas": "0xff0d",
        "value": "0x0",
        "input": "0xee688706000000000000000000000000ced6ceb47301f268d57ff07879df45fda80e6974000000000000000000000000ced6ceb47301f268d57ff07879df45fda80e6974",
        "nonce": "0xbfa4",
        "chainId": "0x14a34"
      },
      "additionalContracts": [],
      "isFixedGasLimit": false
    },
    {
      "hash": "0x77b3e836c16168fb5111556477676a6a486213012f5d5b097437f91844a291a5",
      "transactionType": "CALL",
      "contractName": null,
      "contractAddress": "0x4ab4a2290cb651065d346299425b2d45eef9d75d",
      "function": "setTokenToHypToken(address,address)",
      "arguments": [
        "0x782Ba48189AF93a0CF42766058DE83291f384bF3",
        "0x782Ba48189AF93a0CF42766058DE83291f384bF3"
      ],
      "transaction": {
        "from": "0x1234562eb0cd65e7d08e59f9f18d7c10b5df232a",
        "to": "0x4ab4a2290cb651065d346299425b2d45eef9d75d",
        "gas": "0xff0d",
        "value": "0x0",
        "input": "0xee688706000000000000000000000000782ba48189af93a0cf42766058de83291f384bf3000000000000000000000000782ba48189af93a0cf42766058de83291f384bf3",
        "nonce": "0xbfa5",
        "chainId": "0x14a34"
      },
      "additionalContracts": [],
      "isFixedGasLimit": false
    },
    {
      "hash": "0x6b731e980c24f0ce3ee15f3757966cd6cd667a9bdd9b51ac028b247095670e2c",
      "transactionType": "CALL",
      "contractName": null,
      "contractAddress": "0x4ab4a2290cb651065d346299425b2d45eef9d75d",
      "function": "setGlobalWhitelist(address,bool)",
      "arguments": [
        "0x33c6f26dA09502E6540043f030aE1F87f109cc99",
        "true"
      ],
      "transaction": {
        "from": "0x1234562eb0cd65e7d08e59f9f18d7c10b5df232a",
        "to": "0x4ab4a2290cb651065d346299425b2d45eef9d75d",
        "gas": "0x9eaf",
        "value": "0x0",
        "input": "0x25d86ced00000000000000000000000033c6f26da09502e6540043f030ae1f87f109cc990000000000000000000000000000000000000000000000000000000000000001",
        "nonce": "0xbfa6",
        "chainId": "0x14a34"
      },
      "additionalContracts": [],
      "isFixedGasLimit": false
    },
    {
      "hash": "0xa703d81038813b5bd5673121438eb39cec09aff58ac414133a803634580adc82",
      "transactionType": "CALL",
      "contractName": null,
      "contractAddress": "0x4ab4a2290cb651065d346299425b2d45eef9d75d",
      "function": "setGlobalWhitelist(address,bool)",
      "arguments": [
        "0x7CB382Ce1AA40FA9F9A59a632090c05Dc28caE7b",
        "true"
      ],
      "transaction": {
        "from": "0x1234562eb0cd65e7d08e59f9f18d7c10b5df232a",
        "to": "0x4ab4a2290cb651065d346299425b2d45eef9d75d",
        "gas": "0x95ee",
        "value": "0x0",
        "input": "0x25d86ced0000000000000000000000007cb382ce1aa40fa9f9a59a632090c05dc28cae7b0000000000000000000000000000000000000000000000000000000000000001",
        "nonce": "0xbfa7",
        "chainId": "0x14a34"
      },
      "additionalContracts": [],
      "isFixedGasLimit": false
    },
    {
      "hash": "0x3e7c399fa704591d2707e378d69285a58c0c4557acd7abcba8e4750f03936451",
      "transactionType": "CALL",
      "contractName": null,
      "contractAddress": "0x4ab4a2290cb651065d346299425b2d45eef9d75d",
      "function": "setGlobalWhitelist(address,bool)",
      "arguments": [
        "0xB288Ba5B5b80Dd0Fd83541ef2e5922f71121Fa13",
        "true"
      ],
      "transaction": {
        "from": "0x1234562eb0cd65e7d08e59f9f18d7c10b5df232a",
        "to": "0x4ab4a2290cb651065d346299425b2d45eef9d75d",
        "gas": "0x95ee",
        "value": "0x0",
        "input": "0x25d86ced000000000000000000000000b288ba5b5b80dd0fd83541ef2e5922f71121fa130000000000000000000000000000000000000000000000000000000000000001",
        "nonce": "0xbfa8",
        "chainId": "0x14a34"
      },
      "additionalContracts": [],
      "isFixedGasLimit": false
    },
    {
      "hash": "0x6ace407b602817e9a8aae2d0389d2bc3758557a941078480aab75123e86f14b2",
      "transactionType": "CALL",
      "contractName": null,
      "contractAddress": "0x4ab4a2290cb651065d346299425b2d45eef9d75d",
      "function": "setGlobalWhitelist(address,bool)",
      "arguments": [
        "0xC4a53c466Cfb62AecED03008B0162baaf36E0B03",
        "true"
      ],
      "transaction": {
        "from": "0x1234562eb0cd65e7d08e59f9f18d7c10b5df232a",
        "to": "0x4ab4a2290cb651065d346299425b2d45eef9d75d",
        "gas": "0x95ee",
        "value": "0x0",
        "input": "0x25d86ced000000000000000000000000c4a53c466cfb62aeced03008b0162baaf36e0b030000000000000000000000000000000000000000000000000000000000000001",
        "nonce": "0xbfa9",
        "chainId": "0x14a34"
      },
      "additionalContracts": [],
      "isFixedGasLimit": false
    },
    {
      "hash": "0x84670924980335ee498073c27ca3f0025d282adaa8fcf4e1099f7aa8f904333e",
      "transactionType": "CALL",
      "contractName": null,
      "contractAddress": "0x4ab4a2290cb651065d346299425b2d45eef9d75d",
      "function": "setGlobalWhitelist(address,bool)",
      "arguments": [
        "0x70Db6eFB75c898Ad1e194FDA2B8C6e73dbC944d6",
        "true"
      ],
      "transaction": {
        "from": "0x1234562eb0cd65e7d08e59f9f18d7c10b5df232a",
        "to": "0x4ab4a2290cb651065d346299425b2d45eef9d75d",
        "gas": "0x95ee",
        "value": "0x0",
        "input": "0x25d86ced00000000000000000000000070db6efb75c898ad1e194fda2b8c6e73dbc944d60000000000000000000000000000000000000000000000000000000000000001",
        "nonce": "0xbfaa",
        "chainId": "0x14a34"
      },
      "additionalContracts": [],
      "isFixedGasLimit": false
    },
    {
      "hash": "0xce0e029a06fed65c44abb389308e6be06340cb5a5b517d882febf7a3f527b8bc",
      "transactionType": "CALL",
      "contractName": null,
      "contractAddress": "0x4ab4a2290cb651065d346299425b2d45eef9d75d",
      "function": "setGlobalWhitelist(address,bool)",
      "arguments": [
        "0xEE589FBF85128abA6f42696dB2F28eA9EBddE173",
        "true"
      ],
      "transaction": {
        "from": "0x1234562eb0cd65e7d08e59f9f18d7c10b5df232a",
        "to": "0x4ab4a2290cb651065d346299425b2d45eef9d75d",
        "gas": "0x95ee",
        "value": "0x0",
        "input": "0x25d86ced000000000000000000000000ee589fbf85128aba6f42696db2f28ea9ebdde1730000000000000000000000000000000000000000000000000000000000000001",
        "nonce": "0xbfab",
        "chainId": "0x14a34"
      },
      "additionalContracts": [],
      "isFixedGasLimit": false
    },
    {
      "hash": "0x7573b93c1a4e2ddedf5a860d671260723a958591f19f4ce016c814795ee91be5",
      "transactionType": "CALL",
      "contractName": null,
      "contractAddress": "0x4ab4a2290cb651065d346299425b2d45eef9d75d",
      "function": "setGlobalWhitelist(address,bool)",
      "arguments": [
        "0x2C036be74942c597e4d81D7050008dDc11becCEb",
        "true"
      ],
      "transaction": {
        "from": "0x1234562eb0cd65e7d08e59f9f18d7c10b5df232a",
        "to": "0x4ab4a2290cb651065d346299425b2d45eef9d75d",
        "gas": "0x9eaf",
        "value": "0x0",
        "input": "0x25d86ced0000000000000000000000002c036be74942c597e4d81d7050008ddc11becceb0000000000000000000000000000000000000000000000000000000000000001",
        "nonce": "0xbfac",
        "chainId": "0x14a34"
      },
      "additionalContracts": [],
      "isFixedGasLimit": false
    },
    {
      "hash": "0xcf2ce804608f5e11d3529a5655dfea6c32c64ecee746d4d4cadbcb476a99c544",
      "transactionType": "CALL",
      "contractName": null,
      "contractAddress": "0x4ab4a2290cb651065d346299425b2d45eef9d75d",
      "function": "setGlobalWhitelist(address,bool)",
      "arguments": [
        "0x90CdcBF4c4bc78dC440252211EFd744d0A4Dc4A1",
        "true"
      ],
      "transaction": {
        "from": "0x1234562eb0cd65e7d08e59f9f18d7c10b5df232a",
        "to": "0x4ab4a2290cb651065d346299425b2d45eef9d75d",
        "gas": "0x95ee",
        "value": "0x0",
        "input": "0x25d86ced00000000000000000000000090cdcbf4c4bc78dc440252211efd744d0a4dc4a10000000000000000000000000000000000000000000000000000000000000001",
        "nonce": "0xbfad",
        "chainId": "0x14a34"
      },
      "additionalContracts": [],
      "isFixedGasLimit": false
    },
    {
      "hash": "0x55cff5a05cef49637fd8326b63de71dff33007ca55819fe2c308d20b50293b9d",
      "transactionType": "CALL",
      "contractName": null,
      "contractAddress": "0x4ab4a2290cb651065d346299425b2d45eef9d75d",
      "function": "setGlobalWhitelist(address,bool)",
      "arguments": [
        "0xced6Ceb47301F268d57fF07879DF45Fda80e6974",
        "true"
      ],
      "transaction": {
        "from": "0x1234562eb0cd65e7d08e59f9f18d7c10b5df232a",
        "to": "0x4ab4a2290cb651065d346299425b2d45eef9d75d",
        "gas": "0x95ee",
        "value": "0x0",
        "input": "0x25d86ced000000000000000000000000ced6ceb47301f268d57ff07879df45fda80e69740000000000000000000000000000000000000000000000000000000000000001",
        "nonce": "0xbfae",
        "chainId": "0x14a34"
      },
      "additionalContracts": [],
      "isFixedGasLimit": false
    },
    {
      "hash": "0x3757d290995e791f9c213f4004e8ed1388c7bb0545603edef79b60a99112a04c",
      "transactionType": "CALL",
      "contractName": null,
      "contractAddress": "0x4ab4a2290cb651065d346299425b2d45eef9d75d",
      "function": "setGlobalWhitelist(address,bool)",
      "arguments": [
        "0x782Ba48189AF93a0CF42766058DE83291f384bF3",
        "true"
      ],
      "transaction": {
        "from": "0x1234562eb0cd65e7d08e59f9f18d7c10b5df232a",
        "to": "0x4ab4a2290cb651065d346299425b2d45eef9d75d",
        "gas": "0x95ee",
        "value": "0x0",
        "input": "0x25d86ced000000000000000000000000782ba48189af93a0cf42766058de83291f384bf30000000000000000000000000000000000000000000000000000000000000001",
        "nonce": "0xbfaf",
        "chainId": "0x14a34"
      },
      "additionalContracts": [],
      "isFixedGasLimit": false
    }
  ],
  "receipts": [
    {
      "status": "0x1",
      "cumulativeGasUsed": "0x483cb1",
      "logs": [],
      "logsBloom": "0x00000000000000000000000000000000000000000000000000000000000000000000000000000000000000000000000000000000000000000000000000000000000000000000000000000000000000000000000000000000000000000000000000000000000000000000000000000000000000000000000000000000000000000000000000000000000000000000000000000000000000000000000000000000000000000000000000000000000000000000000000000000000000000000000000000000000000000000000000000000000000000000000000000000000000000000000000000000000000000000000000000000000000000000000000000000",
      "type": "0x2",
      "transactionHash": "0x3ab1893acf26b33232b8b1c5f7958fdf7c585cb8e10d2d5b95d6210014077917",
      "transactionIndex": "0x1c",
      "blockHash": "0xb0665d7a1f04323cfb997fb7f53ac34df504c72d16b252716a8c9d4118d617f4",
      "blockNumber": "0x2249e34",
      "gasUsed": "0x6805",
      "effectiveGasPrice": "0x124f80",
      "blobGasUsed": "0x79e0",
      "from": "0x1234562eb0cd65e7d08e59f9f18d7c10b5df232a",
      "to": "0x4ab4a2290cb651065d346299425b2d45eef9d75d",
      "contractAddress": null,
      "daFootprintGasScalar": "0x138",
      "l1BaseFeeScalar": "0x44d",
      "l1BlobBaseFee": "0x1",
      "l1BlobBaseFeeScalar": "0xa118b",
      "l1Fee": "0x50",
      "l1GasPrice": "0x8",
      "l1GasUsed": "0x640"
    },
    {
      "status": "0x1",
      "cumulativeGasUsed": "0x48efa9",
      "logs": [],
      "logsBloom": "0x00000000000000000000000000000000000000000000000000000000000000000000000000000000000000000000000000000000000000000000000000000000000000000000000000000000000000000000000000000000000000000000000000000000000000000000000000000000000000000000000000000000000000000000000000000000000000000000000000000000000000000000000000000000000000000000000000000000000000000000000000000000000000000000000000000000000000000000000000000000000000000000000000000000000000000000000000000000000000000000000000000000000000000000000000000000",
      "type": "0x2",
      "transactionHash": "0x2fcb1b2bdf7b80260d2e2c9869188f8ec8bedaeb5f400b44c295663db4f3fea8",
      "transactionIndex": "0x1d",
      "blockHash": "0xb0665d7a1f04323cfb997fb7f53ac34df504c72d16b252716a8c9d4118d617f4",
      "blockNumber": "0x2249e34",
      "gasUsed": "0xb2f8",
      "effectiveGasPrice": "0x124f80",
      "blobGasUsed": "0x79e0",
      "from": "0x1234562eb0cd65e7d08e59f9f18d7c10b5df232a",
      "to": "0x4ab4a2290cb651065d346299425b2d45eef9d75d",
      "contractAddress": null,
      "daFootprintGasScalar": "0x138",
      "l1BaseFeeScalar": "0x44d",
      "l1BlobBaseFee": "0x1",
      "l1BlobBaseFeeScalar": "0xa118b",
      "l1Fee": "0x50",
      "l1GasPrice": "0x8",
      "l1GasUsed": "0x640"
    },
    {
      "status": "0x1",
      "cumulativeGasUsed": "0x4961c6",
      "logs": [],
      "logsBloom": "0x00000000000000000000000000000000000000000000000000000000000000000000000000000000000000000000000000000000000000000000000000000000000000000000000000000000000000000000000000000000000000000000000000000000000000000000000000000000000000000000000000000000000000000000000000000000000000000000000000000000000000000000000000000000000000000000000000000000000000000000000000000000000000000000000000000000000000000000000000000000000000000000000000000000000000000000000000000000000000000000000000000000000000000000000000000000",
      "type": "0x2",
      "transactionHash": "0xc4e814bbe3a9046d199d95c9ca9bed568589e4a4d2ae5629b030938e7cca77ee",
      "transactionIndex": "0x1e",
      "blockHash": "0xb0665d7a1f04323cfb997fb7f53ac34df504c72d16b252716a8c9d4118d617f4",
      "blockNumber": "0x2249e34",
      "gasUsed": "0x721d",
      "effectiveGasPrice": "0x124f80",
      "blobGasUsed": "0x79e0",
      "from": "0x1234562eb0cd65e7d08e59f9f18d7c10b5df232a",
      "to": "0x4ab4a2290cb651065d346299425b2d45eef9d75d",
      "contractAddress": null,
      "daFootprintGasScalar": "0x138",
      "l1BaseFeeScalar": "0x44d",
      "l1BlobBaseFee": "0x1",
      "l1BlobBaseFeeScalar": "0xa118b",
      "l1Fee": "0x50",
      "l1GasPrice": "0x8",
      "l1GasUsed": "0x640"
    },
    {
      "status": "0x1",
      "cumulativeGasUsed": "0x4a1a56",
      "logs": [],
      "logsBloom": "0x00000000000000000000000000000000000000000000000000000000000000000000000000000000000000000000000000000000000000000000000000000000000000000000000000000000000000000000000000000000000000000000000000000000000000000000000000000000000000000000000000000000000000000000000000000000000000000000000000000000000000000000000000000000000000000000000000000000000000000000000000000000000000000000000000000000000000000000000000000000000000000000000000000000000000000000000000000000000000000000000000000000000000000000000000000000",
      "type": "0x2",
      "transactionHash": "0x9991598bd32a8bdeec49bab7f37b58c06690e283294034cf4cfc356e7b7a7dc5",
      "transactionIndex": "0x1f",
      "blockHash": "0xb0665d7a1f04323cfb997fb7f53ac34df504c72d16b252716a8c9d4118d617f4",
      "blockNumber": "0x2249e34",
      "gasUsed": "0xb890",
      "effectiveGasPrice": "0x124f80",
      "blobGasUsed": "0x79e0",
      "from": "0x1234562eb0cd65e7d08e59f9f18d7c10b5df232a",
      "to": "0x4ab4a2290cb651065d346299425b2d45eef9d75d",
      "contractAddress": null,
      "daFootprintGasScalar": "0x138",
      "l1BaseFeeScalar": "0x44d",
      "l1BlobBaseFee": "0x1",
      "l1BlobBaseFeeScalar": "0xa118b",
      "l1Fee": "0x50",
      "l1GasPrice": "0x8",
      "l1GasUsed": "0x640"
    },
    {
      "status": "0x1",
      "cumulativeGasUsed": "0x4ad2fe",
      "logs": [],
      "logsBloom": "0x00000000000000000000000000000000000000000000000000000000000000000000000000000000000000000000000000000000000000000000000000000000000000000000000000000000000000000000000000000000000000000000000000000000000000000000000000000000000000000000000000000000000000000000000000000000000000000000000000000000000000000000000000000000000000000000000000000000000000000000000000000000000000000000000000000000000000000000000000000000000000000000000000000000000000000000000000000000000000000000000000000000000000000000000000000000",
      "type": "0x2",
      "transactionHash": "0xcf7600ba39e0e4bcc064a634f8c3cbc5a58b16879ff3c344391910c007ad2ab4",
      "transactionIndex": "0x20",
      "blockHash": "0xb0665d7a1f04323cfb997fb7f53ac34df504c72d16b252716a8c9d4118d617f4",
      "blockNumber": "0x2249e34",
      "gasUsed": "0xb8a8",
      "effectiveGasPrice": "0x124f80",
      "blobGasUsed": "0x79e0",
      "from": "0x1234562eb0cd65e7d08e59f9f18d7c10b5df232a",
      "to": "0x4ab4a2290cb651065d346299425b2d45eef9d75d",
      "contractAddress": null,
      "daFootprintGasScalar": "0x138",
      "l1BaseFeeScalar": "0x44d",
      "l1BlobBaseFee": "0x1",
      "l1BlobBaseFeeScalar": "0xa118b",
      "l1Fee": "0x50",
      "l1GasPrice": "0x8",
      "l1GasUsed": "0x640"
    },
    {
      "status": "0x1",
      "cumulativeGasUsed": "0x4b8ba6",
      "logs": [],
      "logsBloom": "0x00000000000000000000000000000000000000000000000000000000000000000000000000000000000000000000000000000000000000000000000000000000000000000000000000000000000000000000000000000000000000000000000000000000000000000000000000000000000000000000000000000000000000000000000000000000000000000000000000000000000000000000000000000000000000000000000000000000000000000000000000000000000000000000000000000000000000000000000000000000000000000000000000000000000000000000000000000000000000000000000000000000000000000000000000000000",
      "type": "0x2",
      "transactionHash": "0xc441ca703eb7ae598e20e4c4ffb6d5a5b3c1eb4c18921662e6f2bd4e716020b7",
      "transactionIndex": "0x21",
      "blockHash": "0xb0665d7a1f04323cfb997fb7f53ac34df504c72d16b252716a8c9d4118d617f4",
      "blockNumber": "0x2249e34",
      "gasUsed": "0xb8a8",
      "effectiveGasPrice": "0x124f80",
      "blobGasUsed": "0x79e0",
      "from": "0x1234562eb0cd65e7d08e59f9f18d7c10b5df232a",
      "to": "0x4ab4a2290cb651065d346299425b2d45eef9d75d",
      "contractAddress": null,
      "daFootprintGasScalar": "0x138",
      "l1BaseFeeScalar": "0x44d",
      "l1BlobBaseFee": "0x1",
      "l1BlobBaseFeeScalar": "0xa118b",
      "l1Fee": "0x50",
      "l1GasPrice": "0x8",
      "l1GasUsed": "0x640"
    },
    {
      "status": "0x1",
      "cumulativeGasUsed": "0x4c444e",
      "logs": [],
      "logsBloom": "0x00000000000000000000000000000000000000000000000000000000000000000000000000000000000000000000000000000000000000000000000000000000000000000000000000000000000000000000000000000000000000000000000000000000000000000000000000000000000000000000000000000000000000000000000000000000000000000000000000000000000000000000000000000000000000000000000000000000000000000000000000000000000000000000000000000000000000000000000000000000000000000000000000000000000000000000000000000000000000000000000000000000000000000000000000000000",
      "type": "0x2",
      "transactionHash": "0x068fe7dffb66356597ef421a2643de67b3f43ca019d589b44c7370cd1e3f28ba",
      "transactionIndex": "0x22",
      "blockHash": "0xb0665d7a1f04323cfb997fb7f53ac34df504c72d16b252716a8c9d4118d617f4",
      "blockNumber": "0x2249e34",
      "gasUsed": "0xb8a8",
      "effectiveGasPrice": "0x124f80",
      "blobGasUsed": "0x79e0",
      "from": "0x1234562eb0cd65e7d08e59f9f18d7c10b5df232a",
      "to": "0x4ab4a2290cb651065d346299425b2d45eef9d75d",
      "contractAddress": null,
      "daFootprintGasScalar": "0x138",
      "l1BaseFeeScalar": "0x44d",
      "l1BlobBaseFee": "0x1",
      "l1BlobBaseFeeScalar": "0xa118b",
      "l1Fee": "0x50",
      "l1GasPrice": "0x8",
      "l1GasUsed": "0x640"
    },
    {
      "status": "0x1",
      "cumulativeGasUsed": "0x4cfcf6",
      "logs": [],
      "logsBloom": "0x00000000000000000000000000000000000000000000000000000000000000000000000000000000000000000000000000000000000000000000000000000000000000000000000000000000000000000000000000000000000000000000000000000000000000000000000000000000000000000000000000000000000000000000000000000000000000000000000000000000000000000000000000000000000000000000000000000000000000000000000000000000000000000000000000000000000000000000000000000000000000000000000000000000000000000000000000000000000000000000000000000000000000000000000000000000",
      "type": "0x2",
      "transactionHash": "0x7573b93c1a4e2ddedf5a860d671260723a958591f19f4ce016c814795ee91be5",
      "transactionIndex": "0x23",
      "blockHash": "0xb0665d7a1f04323cfb997fb7f53ac34df504c72d16b252716a8c9d4118d617f4",
      "blockNumber": "0x2249e34",
      "gasUsed": "0xb8a8",
      "effectiveGasPrice": "0x124f80",
      "blobGasUsed": "0x79e0",
      "from": "0x1234562eb0cd65e7d08e59f9f18d7c10b5df232a",
      "to": "0x4ab4a2290cb651065d346299425b2d45eef9d75d",
      "contractAddress": null,
      "daFootprintGasScalar": "0x138",
      "l1BaseFeeScalar": "0x44d",
      "l1BlobBaseFee": "0x1",
      "l1BlobBaseFeeScalar": "0xa118b",
      "l1Fee": "0x50",
      "l1GasPrice": "0x8",
      "l1GasUsed": "0x640"
    },
    {
      "status": "0x1",
      "cumulativeGasUsed": "0x4db59e",
      "logs": [],
      "logsBloom": "0x00000000000000000000000000000000000000000000000000000000000000000000000000000000000000000000000000000000000000000000000000000000000000000000000000000000000000000000000000000000000000000000000000000000000000000000000000000000000000000000000000000000000000000000000000000000000000000000000000000000000000000000000000000000000000000000000000000000000000000000000000000000000000000000000000000000000000000000000000000000000000000000000000000000000000000000000000000000000000000000000000000000000000000000000000000000",
      "type": "0x2",
      "transactionHash": "0xa1633b15a405b03c78e3fa415f01d600796490df925bde5fef13081590a26fe5",
      "transactionIndex": "0x24",
      "blockHash": "0xb0665d7a1f04323cfb997fb7f53ac34df504c72d16b252716a8c9d4118d617f4",
      "blockNumber": "0x2249e34",
      "gasUsed": "0xb8a8",
      "effectiveGasPrice": "0x124f80",
      "blobGasUsed": "0x79e0",
      "from": "0x1234562eb0cd65e7d08e59f9f18d7c10b5df232a",
      "to": "0x4ab4a2290cb651065d346299425b2d45eef9d75d",
      "contractAddress": null,
      "daFootprintGasScalar": "0x138",
      "l1BaseFeeScalar": "0x44d",
      "l1BlobBaseFee": "0x1",
      "l1BlobBaseFeeScalar": "0xa118b",
      "l1Fee": "0x50",
      "l1GasPrice": "0x8",
      "l1GasUsed": "0x640"
    },
    {
      "status": "0x1",
      "cumulativeGasUsed": "0x4e6e2e",
      "logs": [],
      "logsBloom": "0x00000000000000000000000000000000000000000000000000000000000000000000000000000000000000000000000000000000000000000000000000000000000000000000000000000000000000000000000000000000000000000000000000000000000000000000000000000000000000000000000000000000000000000000000000000000000000000000000000000000000000000000000000000000000000000000000000000000000000000000000000000000000000000000000000000000000000000000000000000000000000000000000000000000000000000000000000000000000000000000000000000000000000000000000000000000",
      "type": "0x2",
      "transactionHash": "0xcf2ce804608f5e11d3529a5655dfea6c32c64ecee746d4d4cadbcb476a99c544",
      "transactionIndex": "0x25",
      "blockHash": "0xb0665d7a1f04323cfb997fb7f53ac34df504c72d16b252716a8c9d4118d617f4",
      "blockNumber": "0x2249e34",
      "gasUsed": "0xb890",
      "effectiveGasPrice": "0x124f80",
      "blobGasUsed": "0x79e0",
      "from": "0x1234562eb0cd65e7d08e59f9f18d7c10b5df232a",
      "to": "0x4ab4a2290cb651065d346299425b2d45eef9d75d",
      "contractAddress": null,
      "daFootprintGasScalar": "0x138",
      "l1BaseFeeScalar": "0x44d",
      "l1BlobBaseFee": "0x1",
      "l1BlobBaseFeeScalar": "0xa118b",
      "l1Fee": "0x50",
      "l1GasPrice": "0x8",
      "l1GasUsed": "0x640"
    },
    {
      "status": "0x1",
      "cumulativeGasUsed": "0x4f26d6",
      "logs": [],
      "logsBloom": "0x00000000000000000000000000000000000000000000000000000000000000000000000000000000000000000000000000000000000000000000000000000000000000000000000000000000000000000000000000000000000000000000000000000000000000000000000000000000000000000000000000000000000000000000000000000000000000000000000000000000000000000000000000000000000000000000000000000000000000000000000000000000000000000000000000000000000000000000000000000000000000000000000000000000000000000000000000000000000000000000000000000000000000000000000000000000",
      "type": "0x2",
      "transactionHash": "0x84670924980335ee498073c27ca3f0025d282adaa8fcf4e1099f7aa8f904333e",
      "transactionIndex": "0x26",
      "blockHash": "0xb0665d7a1f04323cfb997fb7f53ac34df504c72d16b252716a8c9d4118d617f4",
      "blockNumber": "0x2249e34",
      "gasUsed": "0xb8a8",
      "effectiveGasPrice": "0x124f80",
      "blobGasUsed": "0x79e0",
      "from": "0x1234562eb0cd65e7d08e59f9f18d7c10b5df232a",
      "to": "0x4ab4a2290cb651065d346299425b2d45eef9d75d",
      "contractAddress": null,
      "daFootprintGasScalar": "0x138",
      "l1BaseFeeScalar": "0x44d",
      "l1BlobBaseFee": "0x1",
      "l1BlobBaseFeeScalar": "0xa118b",
      "l1Fee": "0x50",
      "l1GasPrice": "0x8",
      "l1GasUsed": "0x640"
    },
    {
      "status": "0x1",
      "cumulativeGasUsed": "0x4fdf7e",
      "logs": [],
      "logsBloom": "0x00000000000000000000000000000000000000000000000000000000000000000000000000000000000000000000000000000000000000000000000000000000000000000000000000000000000000000000000000000000000000000000000000000000000000000000000000000000000000000000000000000000000000000000000000000000000000000000000000000000000000000000000000000000000000000000000000000000000000000000000000000000000000000000000000000000000000000000000000000000000000000000000000000000000000000000000000000000000000000000000000000000000000000000000000000000",
      "type": "0x2",
      "transactionHash": "0x77b3e836c16168fb5111556477676a6a486213012f5d5b097437f91844a291a5",
      "transactionIndex": "0x27",
      "blockHash": "0xb0665d7a1f04323cfb997fb7f53ac34df504c72d16b252716a8c9d4118d617f4",
      "blockNumber": "0x2249e34",
      "gasUsed": "0xb8a8",
      "effectiveGasPrice": "0x124f80",
      "blobGasUsed": "0x79e0",
      "from": "0x1234562eb0cd65e7d08e59f9f18d7c10b5df232a",
      "to": "0x4ab4a2290cb651065d346299425b2d45eef9d75d",
      "contractAddress": null,
      "daFootprintGasScalar": "0x138",
      "l1BaseFeeScalar": "0x44d",
      "l1BlobBaseFee": "0x1",
      "l1BlobBaseFeeScalar": "0xa118b",
      "l1Fee": "0x50",
      "l1GasPrice": "0x8",
      "l1GasUsed": "0x640"
    },
    {
      "status": "0x1",
      "cumulativeGasUsed": "0x509826",
      "logs": [],
      "logsBloom": "0x00000000000000000000000000000000000000000000000000000000000000000000000000000000000000000000000000000000000000000000000000000000000000000000000000000000000000000000000000000000000000000000000000000000000000000000000000000000000000000000000000000000000000000000000000000000000000000000000000000000000000000000000000000000000000000000000000000000000000000000000000000000000000000000000000000000000000000000000000000000000000000000000000000000000000000000000000000000000000000000000000000000000000000000000000000000",
      "type": "0x2",
      "transactionHash": "0xa703d81038813b5bd5673121438eb39cec09aff58ac414133a803634580adc82",
      "transactionIndex": "0x28",
      "blockHash": "0xb0665d7a1f04323cfb997fb7f53ac34df504c72d16b252716a8c9d4118d617f4",
      "blockNumber": "0x2249e34",
      "gasUsed": "0xb8a8",
      "effectiveGasPrice": "0x124f80",
      "blobGasUsed": "0x79e0",
      "from": "0x1234562eb0cd65e7d08e59f9f18d7c10b5df232a",
      "to": "0x4ab4a2290cb651065d346299425b2d45eef9d75d",
      "contractAddress": null,
      "daFootprintGasScalar": "0x138",
      "l1BaseFeeScalar": "0x44d",
      "l1BlobBaseFee": "0x1",
      "l1BlobBaseFeeScalar": "0xa118b",
      "l1Fee": "0x50",
      "l1GasPrice": "0x8",
      "l1GasUsed": "0x640"
    },
    {
      "status": "0x1",
      "cumulativeGasUsed": "0x5104a7",
      "logs": [
        {
          "address": "0x4ab4a2290cb651065d346299425b2d45eef9d75d",
          "topics": [
            "0xac90355684e2710fa34c2c7d500018678b146ea2d56ddc331c63d242ee8bf385",
            "0x00000000000000000000000033c6f26da09502e6540043f030ae1f87f109cc99"
          ],
          "data": "0x0000000000000000000000000000000000000000000000000000000000000001",
          "blockHash": "0xb0665d7a1f04323cfb997fb7f53ac34df504c72d16b252716a8c9d4118d617f4",
          "blockNumber": "0x2249e34",
          "blockTimestamp": "0x695c9b48",
          "transactionHash": "0xce0e029a06fed65c44abb389308e6be06340cb5a5b517d882febf7a3f527b8bc",
          "transactionIndex": "0x29",
          "logIndex": "0x90",
          "removed": false
        }
      ],
      "logsBloom": "0x00000000000000000200000000000000000000000000000000000000000000000000000000000000000000000100000000000000000000000010000000000000000000000000000000000000000000000000000000000000000000000000000000000000000000000000000000000000000000000008000200000000002000000000000000000000000010000000000000000200000000000000000000000000000000000000000000000000000000000000000000000000000000000000000000000000000000000000000000000000000000000000000000000000000000000000000000000800000000000000000000000000000000000000000000000000",
      "type": "0x2",
      "transactionHash": "0xce0e029a06fed65c44abb389308e6be06340cb5a5b517d882febf7a3f527b8bc",
      "transactionIndex": "0x29",
      "blockHash": "0xb0665d7a1f04323cfb997fb7f53ac34df504c72d16b252716a8c9d4118d617f4",
      "blockNumber": "0x2249e34",
      "gasUsed": "0x6c81",
      "effectiveGasPrice": "0x124f80",
      "blobGasUsed": "0x79e0",
      "from": "0x1234562eb0cd65e7d08e59f9f18d7c10b5df232a",
      "to": "0x4ab4a2290cb651065d346299425b2d45eef9d75d",
      "contractAddress": null,
      "daFootprintGasScalar": "0x138",
      "l1BaseFeeScalar": "0x44d",
      "l1BlobBaseFee": "0x1",
      "l1BlobBaseFeeScalar": "0xa118b",
      "l1Fee": "0x50",
      "l1GasPrice": "0x8",
      "l1GasUsed": "0x640"
    },
    {
      "status": "0x1",
      "cumulativeGasUsed": "0x517134",
      "logs": [
        {
          "address": "0x4ab4a2290cb651065d346299425b2d45eef9d75d",
          "topics": [
            "0xac90355684e2710fa34c2c7d500018678b146ea2d56ddc331c63d242ee8bf385",
            "0x0000000000000000000000007cb382ce1aa40fa9f9a59a632090c05dc28cae7b"
          ],
          "data": "0x0000000000000000000000000000000000000000000000000000000000000001",
          "blockHash": "0xb0665d7a1f04323cfb997fb7f53ac34df504c72d16b252716a8c9d4118d617f4",
          "blockNumber": "0x2249e34",
          "blockTimestamp": "0x695c9b48",
          "transactionHash": "0x55cff5a05cef49637fd8326b63de71dff33007ca55819fe2c308d20b50293b9d",
          "transactionIndex": "0x2a",
          "logIndex": "0x91",
          "removed": false
        }
      ],
      "logsBloom": "0x00000000000000000200000000000000000000000000000000000000000000000000000000000000000800000100000000000000000000000010000000000000000000000000000000000000000000000000004000000000000002000000000000000000000000000000000000000000000000000000000200000000002000000000000000000000000000000000000000000000000000000000000000000000000000000000000000000000000000000000000000000000000000000000000000000000000000000000000000000000000000000000000000000000000000000000000000000800000000000000000000000000000000000000000000000000",
      "type": "0x2",
      "transactionHash": "0x55cff5a05cef49637fd8326b63de71dff33007ca55819fe2c308d20b50293b9d",
      "transactionIndex": "0x2a",
      "blockHash": "0xb0665d7a1f04323cfb997fb7f53ac34df504c72d16b252716a8c9d4118d617f4",
      "blockNumber": "0x2249e34",
      "gasUsed": "0x6c8d",
      "effectiveGasPrice": "0x124f80",
      "blobGasUsed": "0x79e0",
      "from": "0x1234562eb0cd65e7d08e59f9f18d7c10b5df232a",
      "to": "0x4ab4a2290cb651065d346299425b2d45eef9d75d",
      "contractAddress": null,
      "daFootprintGasScalar": "0x138",
      "l1BaseFeeScalar": "0x44d",
      "l1BlobBaseFee": "0x1",
      "l1BlobBaseFeeScalar": "0xa118b",
      "l1Fee": "0x50",
      "l1GasPrice": "0x8",
      "l1GasUsed": "0x640"
    },
    {
      "status": "0x1",
      "cumulativeGasUsed": "0x51ddc1",
      "logs": [
        {
          "address": "0x4ab4a2290cb651065d346299425b2d45eef9d75d",
          "topics": [
            "0xac90355684e2710fa34c2c7d500018678b146ea2d56ddc331c63d242ee8bf385",
            "0x000000000000000000000000b288ba5b5b80dd0fd83541ef2e5922f71121fa13"
          ],
          "data": "0x0000000000000000000000000000000000000000000000000000000000000001",
          "blockHash": "0xb0665d7a1f04323cfb997fb7f53ac34df504c72d16b252716a8c9d4118d617f4",
          "blockNumber": "0x2249e34",
          "blockTimestamp": "0x695c9b48",
          "transactionHash": "0x6ace407b602817e9a8aae2d0389d2bc3758557a941078480aab75123e86f14b2",
          "transactionIndex": "0x2b",
          "logIndex": "0x92",
          "removed": false
        }
      ],
      "logsBloom": "0x00000000000000000200000000000000000000000000000000000000000000000000000000000000000000000100000000000000000000000010000000000000000000000000000000000000000000000000000000000000000000000000000000000000000000000000000000000000000000000000000200000000002000000000000000000000000000000000000000000000000000000002000000000400000000000000000000000000000000000000000000000000000000000000000000000000000000000000000000000000000000000000000000000000000000000000000000000800000000000000000000000000000000800000000000000000",
      "type": "0x2",
      "transactionHash": "0x6ace407b602817e9a8aae2d0389d2bc3758557a941078480aab75123e86f14b2",
      "transactionIndex": "0x2b",
      "blockHash": "0xb0665d7a1f04323cfb997fb7f53ac34df504c72d16b252716a8c9d4118d617f4",
      "blockNumber": "0x2249e34",
      "gasUsed": "0x6c8d",
      "effectiveGasPrice": "0x124f80",
      "blobGasUsed": "0x79e0",
      "from": "0x1234562eb0cd65e7d08e59f9f18d7c10b5df232a",
      "to": "0x4ab4a2290cb651065d346299425b2d45eef9d75d",
      "contractAddress": null,
      "daFootprintGasScalar": "0x138",
      "l1BaseFeeScalar": "0x44d",
      "l1BlobBaseFee": "0x1",
      "l1BlobBaseFeeScalar": "0xa118b",
      "l1Fee": "0x50",
      "l1GasPrice": "0x8",
      "l1GasUsed": "0x640"
    },
    {
      "status": "0x1",
      "cumulativeGasUsed": "0x524a4e",
      "logs": [
        {
          "address": "0x4ab4a2290cb651065d346299425b2d45eef9d75d",
          "topics": [
            "0xac90355684e2710fa34c2c7d500018678b146ea2d56ddc331c63d242ee8bf385",
            "0x000000000000000000000000c4a53c466cfb62aeced03008b0162baaf36e0b03"
          ],
          "data": "0x0000000000000000000000000000000000000000000000000000000000000001",
          "blockHash": "0xb0665d7a1f04323cfb997fb7f53ac34df504c72d16b252716a8c9d4118d617f4",
          "blockNumber": "0x2249e34",
          "blockTimestamp": "0x695c9b48",
          "transactionHash": "0x3e7c399fa704591d2707e378d69285a58c0c4557acd7abcba8e4750f03936451",
          "transactionIndex": "0x2c",
          "logIndex": "0x93",
          "removed": false
        }
      ],
      "logsBloom": "0x00000000000000000200000000000000000000000000000000000000000000000000000000000000000000000100000000000000000000000010000000000000000000000000000000000000000000000000000000000000000000000000000000000004000000000000000000000000000000000000000200000000002000000000000000000000000000040000000000000000000000000000000000000000000000000000400000000000000000000000000000000000000000000000000000000000000000000000000000000000000000000000000000000000000000000000000000000800000000000000000000000000000000000000000000000000",
      "type": "0x2",
      "transactionHash": "0x3e7c399fa704591d2707e378d69285a58c0c4557acd7abcba8e4750f03936451",
      "transactionIndex": "0x2c",
      "blockHash": "0xb0665d7a1f04323cfb997fb7f53ac34df504c72d16b252716a8c9d4118d617f4",
      "blockNumber": "0x2249e34",
      "gasUsed": "0x6c8d",
      "effectiveGasPrice": "0x124f80",
      "blobGasUsed": "0x79e0",
      "from": "0x1234562eb0cd65e7d08e59f9f18d7c10b5df232a",
      "to": "0x4ab4a2290cb651065d346299425b2d45eef9d75d",
      "contractAddress": null,
      "daFootprintGasScalar": "0x138",
      "l1BaseFeeScalar": "0x44d",
      "l1BlobBaseFee": "0x1",
      "l1BlobBaseFeeScalar": "0xa118b",
      "l1Fee": "0x50",
      "l1GasPrice": "0x8",
      "l1GasUsed": "0x640"
    },
    {
      "status": "0x1",
      "cumulativeGasUsed": "0x52b6db",
      "logs": [
        {
          "address": "0x4ab4a2290cb651065d346299425b2d45eef9d75d",
          "topics": [
            "0xac90355684e2710fa34c2c7d500018678b146ea2d56ddc331c63d242ee8bf385",
            "0x00000000000000000000000070db6efb75c898ad1e194fda2b8c6e73dbc944d6"
          ],
          "data": "0x0000000000000000000000000000000000000000000000000000000000000001",
          "blockHash": "0xb0665d7a1f04323cfb997fb7f53ac34df504c72d16b252716a8c9d4118d617f4",
          "blockNumber": "0x2249e34",
          "blockTimestamp": "0x695c9b48",
          "transactionHash": "0x6b731e980c24f0ce3ee15f3757966cd6cd667a9bdd9b51ac028b247095670e2c",
          "transactionIndex": "0x2d",
          "logIndex": "0x94",
          "removed": false
        }
      ],
      "logsBloom": "0x00000000000000000200000000000000000000000000000000000000000000000000000000000000000000000100000000080000000000000010000000000000000000000000000000000000000000000000000000000000000000000000000000000000000000000000000000000000000000000000000200000000002000000000000000000000000000000000000000000000000400000000000000000000000000000000000000000000000000000000000000000000000000000000000000000000000000000000000000000000000000000000000000080000000000000000000000000800000000000000000000000000000000000000000000000000",
      "type": "0x2",
      "transactionHash": "0x6b731e980c24f0ce3ee15f3757966cd6cd667a9bdd9b51ac028b247095670e2c",
      "transactionIndex": "0x2d",
      "blockHash": "0xb0665d7a1f04323cfb997fb7f53ac34df504c72d16b252716a8c9d4118d617f4",
      "blockNumber": "0x2249e34",
      "gasUsed": "0x6c8d",
      "effectiveGasPrice": "0x124f80",
      "blobGasUsed": "0x79e0",
      "from": "0x1234562eb0cd65e7d08e59f9f18d7c10b5df232a",
      "to": "0x4ab4a2290cb651065d346299425b2d45eef9d75d",
      "contractAddress": null,
      "daFootprintGasScalar": "0x138",
      "l1BaseFeeScalar": "0x44d",
      "l1BlobBaseFee": "0x1",
      "l1BlobBaseFeeScalar": "0xa118b",
      "l1Fee": "0x50",
      "l1GasPrice": "0x8",
      "l1GasUsed": "0x640"
    },
    {
      "status": "0x1",
      "cumulativeGasUsed": "0x532368",
      "logs": [
        {
          "address": "0x4ab4a2290cb651065d346299425b2d45eef9d75d",
          "topics": [
            "0xac90355684e2710fa34c2c7d500018678b146ea2d56ddc331c63d242ee8bf385",
            "0x000000000000000000000000ee589fbf85128aba6f42696db2f28ea9ebdde173"
          ],
          "data": "0x0000000000000000000000000000000000000000000000000000000000000001",
          "blockHash": "0xb0665d7a1f04323cfb997fb7f53ac34df504c72d16b252716a8c9d4118d617f4",
          "blockNumber": "0x2249e34",
          "blockTimestamp": "0x695c9b48",
          "transactionHash": "0xd8651a3a26bbfd9c37c60218194ed39cd531f716408dd3c84c70484e5b22212a",
          "transactionIndex": "0x2e",
          "logIndex": "0x95",
          "removed": false
        }
      ],
      "logsBloom": "0x00000000000000000200000020000000000000000000000000000000000000000000000000000000000000000100000000000000000000000010000000000000000000000000000000000000000000000000000000000000000000000000000000000000000000000000000000000000000000000000000200000000002000000000000000000000000000000000000000000000000000000000000000000000000000000000000000000000000000000000000000000000000000000000000000000000000000000000000000000000000000000000400000000000000000000000000000000800000000000080000000000000000000000000000000000000",
      "type": "0x2",
      "transactionHash": "0xd8651a3a26bbfd9c37c60218194ed39cd531f716408dd3c84c70484e5b22212a",
      "transactionIndex": "0x2e",
      "blockHash": "0xb0665d7a1f04323cfb997fb7f53ac34df504c72d16b252716a8c9d4118d617f4",
      "blockNumber": "0x2249e34",
      "gasUsed": "0x6c8d",
      "effectiveGasPrice": "0x124f80",
      "blobGasUsed": "0x79e0",
      "from": "0x1234562eb0cd65e7d08e59f9f18d7c10b5df232a",
      "to": "0x4ab4a2290cb651065d346299425b2d45eef9d75d",
      "contractAddress": null,
      "daFootprintGasScalar": "0x138",
      "l1BaseFeeScalar": "0x44d",
      "l1BlobBaseFee": "0x1",
      "l1BlobBaseFeeScalar": "0xa118b",
      "l1Fee": "0x50",
      "l1GasPrice": "0x8",
      "l1GasUsed": "0x640"
    },
    {
      "status": "0x1",
      "cumulativeGasUsed": "0x538fe9",
      "logs": [
        {
          "address": "0x4ab4a2290cb651065d346299425b2d45eef9d75d",
          "topics": [
            "0xac90355684e2710fa34c2c7d500018678b146ea2d56ddc331c63d242ee8bf385",
            "0x0000000000000000000000002c036be74942c597e4d81d7050008ddc11becceb"
          ],
          "data": "0x0000000000000000000000000000000000000000000000000000000000000001",
          "blockHash": "0xb0665d7a1f04323cfb997fb7f53ac34df504c72d16b252716a8c9d4118d617f4",
          "blockNumber": "0x2249e34",
          "blockTimestamp": "0x695c9b48",
          "transactionHash": "0x1eb77812e1a2faf43751d3ecdaaf68f3bbef148d1e08f1d8231b7560550d1feb",
          "transactionIndex": "0x2f",
          "logIndex": "0x96",
          "removed": false
        }
      ],
      "logsBloom": "0x00000000000000000200000000000000000000000000000000000000000000000000000000000000000000000100000000000000000000000010000000000000000000000000000000000000000000000000000000000000000010000000000000000000000000000000000000000000000000000000000200000000002000000000000000000000000000000000000000000000000000000000000000000000000000000000000000000000000000008000000000000000000000000000000000000000000000000000000000000000000000000000000000000000000000000000000000000800000000000000000000000000000000000000000000000002",
      "type": "0x2",
      "transactionHash": "0x1eb77812e1a2faf43751d3ecdaaf68f3bbef148d1e08f1d8231b7560550d1feb",
      "transactionIndex": "0x2f",
      "blockHash": "0xb0665d7a1f04323cfb997fb7f53ac34df504c72d16b252716a8c9d4118d617f4",
      "blockNumber": "0x2249e34",
      "gasUsed": "0x6c81",
      "effectiveGasPrice": "0x124f80",
      "blobGasUsed": "0x79e0",
      "from": "0x1234562eb0cd65e7d08e59f9f18d7c10b5df232a",
      "to": "0x4ab4a2290cb651065d346299425b2d45eef9d75d",
      "contractAddress": null,
      "daFootprintGasScalar": "0x138",
      "l1BaseFeeScalar": "0x44d",
      "l1BlobBaseFee": "0x1",
      "l1BlobBaseFeeScalar": "0xa118b",
      "l1Fee": "0x50",
      "l1GasPrice": "0x8",
      "l1GasUsed": "0x640"
    },
    {
      "status": "0x1",
      "cumulativeGasUsed": "0x53fc76",
      "logs": [
        {
          "address": "0x4ab4a2290cb651065d346299425b2d45eef9d75d",
          "topics": [
            "0xac90355684e2710fa34c2c7d500018678b146ea2d56ddc331c63d242ee8bf385",
            "0x00000000000000000000000090cdcbf4c4bc78dc440252211efd744d0a4dc4a1"
          ],
          "data": "0x0000000000000000000000000000000000000000000000000000000000000001",
          "blockHash": "0xb0665d7a1f04323cfb997fb7f53ac34df504c72d16b252716a8c9d4118d617f4",
          "blockNumber": "0x2249e34",
          "blockTimestamp": "0x695c9b48",
          "transactionHash": "0x58dd45c167ab2dedd3a910f1b15e8d63122fcc56cc8f8152a0522e8099c2cc1a",
          "transactionIndex": "0x30",
          "logIndex": "0x97",
          "removed": false
        }
      ],
      "logsBloom": "0x00000000000000000200000000000000000000000000000010000000000000000000000000000000000000000100000000000000000000200010000000000000000000000000000000000000000000000000000000000000000000000000000000000000000000000000000000000000000000000000000200000000002000000000000000000000000000000000000000000000000000000000000000000000000000000000000000000000000000000000000000000000000000000000000000000000000000000000000000000000000000000000000000000000000000000000000000000800000000080000000000000000000000000000000000000000",
      "type": "0x2",
      "transactionHash": "0x58dd45c167ab2dedd3a910f1b15e8d63122fcc56cc8f8152a0522e8099c2cc1a",
      "transactionIndex": "0x30",
      "blockHash": "0xb0665d7a1f04323cfb997fb7f53ac34df504c72d16b252716a8c9d4118d617f4",
      "blockNumber": "0x2249e34",
      "gasUsed": "0x6c8d",
      "effectiveGasPrice": "0x124f80",
      "blobGasUsed": "0x79e0",
      "from": "0x1234562eb0cd65e7d08e59f9f18d7c10b5df232a",
      "to": "0x4ab4a2290cb651065d346299425b2d45eef9d75d",
      "contractAddress": null,
      "daFootprintGasScalar": "0x138",
      "l1BaseFeeScalar": "0x44d",
      "l1BlobBaseFee": "0x1",
      "l1BlobBaseFeeScalar": "0xa118b",
      "l1Fee": "0x50",
      "l1GasPrice": "0x8",
      "l1GasUsed": "0x640"
    },
    {
      "status": "0x1",
      "cumulativeGasUsed": "0x546903",
      "logs": [
        {
          "address": "0x4ab4a2290cb651065d346299425b2d45eef9d75d",
          "topics": [
            "0xac90355684e2710fa34c2c7d500018678b146ea2d56ddc331c63d242ee8bf385",
            "0x000000000000000000000000ced6ceb47301f268d57ff07879df45fda80e6974"
          ],
          "data": "0x0000000000000000000000000000000000000000000000000000000000000001",
          "blockHash": "0xb0665d7a1f04323cfb997fb7f53ac34df504c72d16b252716a8c9d4118d617f4",
          "blockNumber": "0x2249e34",
          "blockTimestamp": "0x695c9b48",
          "transactionHash": "0x3757d290995e791f9c213f4004e8ed1388c7bb0545603edef79b60a99112a04c",
          "transactionIndex": "0x31",
          "logIndex": "0x98",
          "removed": false
        }
      ],
      "logsBloom": "0x00000000000000000200000800000000000000000000000000000000000000000000000000000000000000000180000000000000000000000010000000000000000000000000000000000000000000000000000000000000000000000000000000000000000000000000000000000000000000000000000200000000002000000000000000000000000000000000000000000000000000000000000000000000000000000000000000000000000000000000000000000000000000000000000000000000000000000000000000000000000000000000002000000000000000000000000000000800000000000000000000000000000000000000000000000000",
      "type": "0x2",
      "transactionHash": "0x3757d290995e791f9c213f4004e8ed1388c7bb0545603edef79b60a99112a04c",
      "transactionIndex": "0x31",
      "blockHash": "0xb0665d7a1f04323cfb997fb7f53ac34df504c72d16b252716a8c9d4118d617f4",
      "blockNumber": "0x2249e34",
      "gasUsed": "0x6c8d",
      "effectiveGasPrice": "0x124f80",
      "blobGasUsed": "0x79e0",
      "from": "0x1234562eb0cd65e7d08e59f9f18d7c10b5df232a",
      "to": "0x4ab4a2290cb651065d346299425b2d45eef9d75d",
      "contractAddress": null,
      "daFootprintGasScalar": "0x138",
      "l1BaseFeeScalar": "0x44d",
      "l1BlobBaseFee": "0x1",
      "l1BlobBaseFeeScalar": "0xa118b",
      "l1Fee": "0x50",
      "l1GasPrice": "0x8",
      "l1GasUsed": "0x640"
    },
    {
      "status": "0x1",
      "cumulativeGasUsed": "0x54d590",
      "logs": [
        {
          "address": "0x4ab4a2290cb651065d346299425b2d45eef9d75d",
          "topics": [
            "0xac90355684e2710fa34c2c7d500018678b146ea2d56ddc331c63d242ee8bf385",
            "0x000000000000000000000000782ba48189af93a0cf42766058de83291f384bf3"
          ],
          "data": "0x0000000000000000000000000000000000000000000000000000000000000001",
          "blockHash": "0xb0665d7a1f04323cfb997fb7f53ac34df504c72d16b252716a8c9d4118d617f4",
          "blockNumber": "0x2249e34",
          "blockTimestamp": "0x695c9b48",
          "transactionHash": "0x223e792acc11df191a22815b7ecc7ca1d889b7a0c5df41d9f559d5bba60a04f4",
          "transactionIndex": "0x32",
          "logIndex": "0x99",
          "removed": false
        }
      ],
      "logsBloom": "0x00000000000000000200000000000000000020000000000000000000000000000000000000000000000000000100000000000000000000000010000000000000000000000000000000000000000000000000000000000000000000000000000000000000000000000000000000000000000000000000000200000000002000000000000100000000000000000000000000000000000000000000000000000000000000000000000000008000000000000000000000000000000000000000000000000000000000000000000000000000000000000000000000000000000000000000000000000800000000000000000000000000000000000000000000000000",
      "type": "0x2",
      "transactionHash": "0x223e792acc11df191a22815b7ecc7ca1d889b7a0c5df41d9f559d5bba60a04f4",
      "transactionIndex": "0x32",
      "blockHash": "0xb0665d7a1f04323cfb997fb7f53ac34df504c72d16b252716a8c9d4118d617f4",
      "blockNumber": "0x2249e34",
      "gasUsed": "0x6c8d",
      "effectiveGasPrice": "0x124f80",
      "blobGasUsed": "0x79e0",
      "from": "0x1234562eb0cd65e7d08e59f9f18d7c10b5df232a",
      "to": "0x4ab4a2290cb651065d346299425b2d45eef9d75d",
      "contractAddress": null,
      "daFootprintGasScalar": "0x138",
      "l1BaseFeeScalar": "0x44d",
      "l1BlobBaseFee": "0x1",
      "l1BlobBaseFeeScalar": "0xa118b",
      "l1Fee": "0x50",
      "l1GasPrice": "0x8",
      "l1GasUsed": "0x640"
    }
  ],
  "libraries": [],
  "pending": [],
  "returns": {},
  "timestamp": 1767676745581,
  "chain": 84532,
  "commit": "5ab44b9"
}