{
  "transactions": [
    {
      "hash": "0x82b67e1a6e4f323f95d55708758f41c11998df463fde9bd3ef85530d10aa3e4a",
      "transactionType": "CREATE",
      "contractName": "MockSwapRouter",
      "contractAddress": "0x493be13415bf36d997f40aac50c264d855c7f869",
      "function": null,
      "arguments": [
        "0xf4dDf7D2F7dD24b4A0a24Bc6B91A2DE5e8873B6c",
        "0x19f5557E23e9914A18239990f6C70D68FDF0deD5"
      ],
      "transaction": {
        "from": "0x1234562eb0cd65e7d08e59f9f18d7c10b5df232a",
        "gas": "0xb26fa62a",
        "value": "0x0",
        "input": "0x60c0346100b257601f610b3f38819003918201601f19168301916001600160401b038311848410176100b65780849260409485528339810103126100b257610052602061004b836100ca565b92016100ca565b5f80546001600160a01b03191633908117825560405193917f8be0079c531659141344cd1fd0a4f28419497f9722a3daafe3b4186f6b6457e08180a360805260a052610a6090816100df8239608051816101f3015260a051816104540152f35b5f80fd5b634e487b7160e01b5f52604160045260245ffd5b51906001600160a01b03821682036100b25756fe6080604052600436101561001a575b3615610018575f80fd5b005b5f3560e01c80631dbec117146106e257806328af4ca41461064d578063338b5dea1461061b578063414bf3891461049c5780634aa06652146104835780634aa4a4fc1461043f578063503fa44f146103ef578063782aaeea1461037457806382912eb7146102bf5780638da5cb5b146102985780639e281a9814610256578063baaa61be14610222578063c45a0155146101de578063eedc966a146101495763f2fde38b0361000e5734610136576020366003190112610136576100dc610739565b5f546001600160a01b038116913383900361013a576001600160a01b03169182156101365782907f8be0079c531659141344cd1fd0a4f28419497f9722a3daafe3b4186f6b6457e05f80a36001600160a01b031916175f55005b5f80fd5b635fc483c560e01b5f5260045ffd5b3461013657602036600319011261013657602460206001600160a01b0361016e610739565b16604051928380926370a0823160e01b82523060048301525afa80156101d3575f906101a0575b602090604051908152f35b506020813d6020116101cb575b816101ba60209383610850565b810103126101365760209051610195565b3d91506101ad565b6040513d5f823e3d90fd5b34610136575f366003190112610136576040517f00000000000000000000000000000000000000000000000000000000000000006001600160a01b03168152602090f35b3461013657604036600319011261013657602061024e610240610739565b61024861074f565b90610818565b604051908152f35b346101365760403660031901126101365761026f610739565b5f546001600160a01b0316330361013a57610018906024359033906001600160a01b031661097b565b34610136575f366003190112610136575f546040516001600160a01b039091168152602090f35b34610136576080366003190112610136576102d8610739565b6102e061074f565b5f546064359260443592916001600160a01b0316330361013a576001600160a01b039081165f8181526002602081815260408084209690951680845295815284832087905590815283822083835281529083902086905591519384529391927f59a196fe84b02ac66eaa374ec156916370441ddfce08830f5b33dfbdb057791a92908490869085908590a3604051908152a3005b346101365761038236610765565b5f549092906001600160a01b0316330361013a576001600160a01b039081165f8181526002602090815260408083209590941680835294815290839020859055915193845291927f59a196fe84b02ac66eaa374ec156916370441ddfce08830f5b33dfbdb057791a9190a3005b3461013657604036600319011261013657610408610739565b61041061074f565b6001600160a01b039182165f908152600260209081526040808320949093168252928352819020549051908152f35b34610136575f366003190112610136576040517f00000000000000000000000000000000000000000000000000000000000000006001600160a01b03168152602090f35b3461013657602061024e61049636610765565b916107e1565b6101003660031901126101365760843542116105e0576001600160a01b036104c261079f565b165f52600160205260405f206104d66107b5565b60018060a01b03165f5260205260ff60405f205416156105d1576001600160a01b0361050061079f565b1661051260a43580923090339061089e565b61052c8161051e61079f565b6105266107b5565b906107e1565b60c43581106105c25760209161055b826001600160a01b0361054c6107b5565b166105556107cb565b9061097b565b61056361079f565b907fee4825a7988c5519a874be79f2a84d13d02cfe5f74cad97cda2d5b55d2b13bfa606061058f6107b5565b6105976107cb565b604080519586528886018890526001600160a01b0391821690860152908116941692a3604051908152f35b6342301c2360e01b5f5260045ffd5b637e99d8bb60e01b5f5260045ffd5b60405162461bcd60e51b8152602060048201526013602482015272151c985b9cd858dd1a5bdb881d1bdbc81bdb19606a1b6044820152606490fd5b3461013657604036600319011261013657610018610637610739565b60243590309033906001600160a01b031661089e565b3461013657606036600319011261013657610666610739565b61066e61074f565b90604435908115158203610136575f546001600160a01b0316330361013a576001600160a01b039081165f818152600160208181526040808420979095168352958652838220805495151560ff1660ff19968716811790915590865283822092825291909452922080549091169091179055005b34610136576040366003190112610136576106fb610739565b61070361074f565b9060018060a01b03165f52600160205260405f209060018060a01b03165f52602052602060ff60405f2054166040519015158152f35b600435906001600160a01b038216820361013657565b602435906001600160a01b038216820361013657565b6060906003190112610136576004356001600160a01b038116810361013657906024356001600160a01b0381168103610136579060443590565b6004356001600160a01b03811681036101365790565b6024356001600160a01b03811681036101365790565b6064356001600160a01b03811681036101365790565b906107eb91610818565b9081810291818304149015171561080457612710900490565b634e487b7160e01b5f52601160045260245ffd5b60018060a01b03165f52600260205260405f209060018060a01b03165f5260205260405f205480155f1461084d575061271090565b90565b90601f8019910116810190811067ffffffffffffffff82111761087257604052565b634e487b7160e01b5f52604160045260245ffd5b90816020910312610136575180151581036101365790565b90916001600160a01b031690811561096c576040516323b872dd60e01b81526001600160a01b0393841660048201526024810192909252604482019390935291602091839160649183915f91165af19081156101d3575f9161093d575b501561090357565b60405162461bcd60e51b81526020600482015260126024820152711514905394d1915497d19493d357d190525360721b6044820152606490fd5b61095f915060203d602011610965575b6109578183610850565b810190610886565b5f6108fb565b503d61094d565b63d92e233d60e01b5f5260045ffd5b916001600160a01b0390911690811561096c5760405163a9059cbb60e01b81526004810192909252602482015290602090829060449082905f906001600160a01b03165af19081156101d3575f91610a0b575b50156109d657565b60405162461bcd60e51b815260206004820152600d60248201526c1514905394d1915497d1905253609a1b6044820152606490fd5b610a24915060203d602011610965576109578183610850565b5f6109ce56fea264697066735822122058e36fca79c31cf4d9ec319d30f974defa5742287bcbd48d2514213bf8cc102a64736f6c634300081e0033000000000000000000000000f4ddf7d2f7dd24b4a0a24bc6b91a2de5e8873b6c00000000000000000000000019f5557e23e9914a18239990f6c70d68fdf0ded5",
        "nonce": "0x3e6",
        "chainId": "0x138b"
      },
      "additionalContracts": [],
      "isFixedGasLimit": false
    },
    {
      "hash": "0xcc8d87e4f171f4145d42003bbc0c3bd54ffa8cc088fe16cc50fa10e9683d3b01",
      "transactionType": "CALL",
      "contractName": "MockSwapRouter",
      "contractAddress": "0x493be13415bf36d997f40aac50c264d855c7f869",
      "function": "setSwapEnabled(address,address,bool)",
      "arguments": [
        "0x33c6f26dA09502E6540043f030aE1F87f109cc99",
        "0x7CB382Ce1AA40FA9F9A59a632090c05Dc28caE7b",
        "true"
      ],
      "transaction": {
        "from": "0x1234562eb0cd65e7d08e59f9f18d7c10b5df232a",
        "to": "0x493be13415bf36d997f40aac50c264d855c7f869",
        "gas": "0x65b13ce",
        "value": "0x0",
        "input": "0x28af4ca400000000000000000000000033c6f26da09502e6540043f030ae1f87f109cc990000000000000000000000007cb382ce1aa40fa9f9a59a632090c05dc28cae7b0000000000000000000000000000000000000000000000000000000000000001",
        "nonce": "0x3e7",
        "chainId": "0x138b"
      },
      "additionalContracts": [],
      "isFixedGasLimit": false
    },
    {
      "hash": "0x0a59534068f7385f1f30d8dff03d1eba8a1c8400f552f0f7e6ee5de17ccc2905",
      "transactionType": "CALL",
      "contractName": "MockSwapRouter",
      "contractAddress": "0x493be13415bf36d997f40aac50c264d855c7f869",
      "function": "setSwapEnabled(address,address,bool)",
      "arguments": [
        "0x33c6f26dA09502E6540043f030aE1F87f109cc99",
        "0xB288Ba5B5b80Dd0Fd83541ef2e5922f71121Fa13",
        "true"
      ],
      "transaction": {
        "from": "0x1234562eb0cd65e7d08e59f9f18d7c10b5df232a",
        "to": "0x493be13415bf36d997f40aac50c264d855c7f869",
        "gas": "0x65b13ce",
        "value": "0x0",
        "input": "0x28af4ca400000000000000000000000033c6f26da09502e6540043f030ae1f87f109cc99000000000000000000000000b288ba5b5b80dd0fd83541ef2e5922f71121fa130000000000000000000000000000000000000000000000000000000000000001",
        "nonce": "0x3e8",
        "chainId": "0x138b"
      },
      "additionalContracts": [],
      "isFixedGasLimit": false
    },
    {
      "hash": "0xa576e88b2dcc8d888f1b94977fe3a506949ea7456fdab9c72b72aa7bd4dc83d9",
      "transactionType": "CALL",
      "contractName": "MockSwapRouter",
      "contractAddress": "0x493be13415bf36d997f40aac50c264d855c7f869",
      "function": "setSwapEnabled(address,address,bool)",
      "arguments": [
        "0x33c6f26dA09502E6540043f030aE1F87f109cc99",
        "0xC4a53c466Cfb62AecED03008B0162baaf36E0B03",
        "true"
      ],
      "transaction": {
        "from": "0x1234562eb0cd65e7d08e59f9f18d7c10b5df232a",
        "to": "0x493be13415bf36d997f40aac50c264d855c7f869",
        "gas": "0x65b13ce",
        "value": "0x0",
        "input": "0x28af4ca400000000000000000000000033c6f26da09502e6540043f030ae1f87f109cc99000000000000000000000000c4a53c466cfb62aeced03008b0162baaf36e0b030000000000000000000000000000000000000000000000000000000000000001",
        "nonce": "0x3e9",
        "chainId": "0x138b"
      },
      "additionalContracts": [],
      "isFixedGasLimit": false
    },
    {
      "hash": "0x87722ca4367db9aee9e9be3336629b0fbc7d5030cc714b560e845a256a59e9a2",
      "transactionType": "CALL",
      "contractName": "MockSwapRouter",
      "contractAddress": "0x493be13415bf36d997f40aac50c264d855c7f869",
      "function": "setSwapEnabled(address,address,bool)",
      "arguments": [
        "0x33c6f26dA09502E6540043f030aE1F87f109cc99",
        "0x70Db6eFB75c898Ad1e194FDA2B8C6e73dbC944d6",
        "true"
      ],
      "transaction": {
        "from": "0x1234562eb0cd65e7d08e59f9f18d7c10b5df232a",
        "to": "0x493be13415bf36d997f40aac50c264d855c7f869",
        "gas": "0x65b13ce",
        "value": "0x0",
        "input": "0x28af4ca400000000000000000000000033c6f26da09502e6540043f030ae1f87f109cc9900000000000000000000000070db6efb75c898ad1e194fda2b8c6e73dbc944d60000000000000000000000000000000000000000000000000000000000000001",
        "nonce": "0x3ea",
        "chainId": "0x138b"
      },
      "additionalContracts": [],
      "isFixedGasLimit": false
    },
    {
      "hash": "0x4e7fbb4eb9b78e626bde3eeaafa379ad4f817399060891ca90826b858262809d",
      "transactionType": "CALL",
      "contractName": "MockSwapRouter",
      "contractAddress": "0x493be13415bf36d997f40aac50c264d855c7f869",
      "function": "setSwapEnabled(address,address,bool)",
      "arguments": [
        "0x33c6f26dA09502E6540043f030aE1F87f109cc99",
        "0xEE589FBF85128abA6f42696dB2F28eA9EBddE173",
        "true"
      ],
      "transaction": {
        "from": "0x1234562eb0cd65e7d08e59f9f18d7c10b5df232a",
        "to": "0x493be13415bf36d997f40aac50c264d855c7f869",
        "gas": "0x65b13ce",
        "value": "0x0",
        "input": "0x28af4ca400000000000000000000000033c6f26da09502e6540043f030ae1f87f109cc99000000000000000000000000ee589fbf85128aba6f42696db2f28ea9ebdde1730000000000000000000000000000000000000000000000000000000000000001",
        "nonce": "0x3eb",
        "chainId": "0x138b"
      },
      "additionalContracts": [],
      "isFixedGasLimit": false
    },
    {
      "hash": "0x13d577f243127a6aef6f93ce003112a09201fd176190c63b35dcb1ec9cad2e6c",
      "transactionType": "CALL",
      "contractName": "MockSwapRouter",
      "contractAddress": "0x493be13415bf36d997f40aac50c264d855c7f869",
      "function": "setSwapEnabled(address,address,bool)",
      "arguments": [
        "0x33c6f26dA09502E6540043f030aE1F87f109cc99",
        "0x2C036be74942c597e4d81D7050008dDc11becCEb",
        "true"
      ],
      "transaction": {
        "from": "0x1234562eb0cd65e7d08e59f9f18d7c10b5df232a",
        "to": "0x493be13415bf36d997f40aac50c264d855c7f869",
        "gas": "0x658fbf9",
        "value": "0x0",
        "input": "0x28af4ca400000000000000000000000033c6f26da09502e6540043f030ae1f87f109cc990000000000000000000000002c036be74942c597e4d81d7050008ddc11becceb0000000000000000000000000000000000000000000000000000000000000001",
        "nonce": "0x3ec",
        "chainId": "0x138b"
      },
      "additionalContracts": [],
      "isFixedGasLimit": false
    },
    {
      "hash": "0x940ade5f2b34675d2e8513566a47b4ede94929d4d28386f7a36924b020d30174",
      "transactionType": "CALL",
      "contractName": "MockSwapRouter",
      "contractAddress": "0x493be13415bf36d997f40aac50c264d855c7f869",
      "function": "setSwapEnabled(address,address,bool)",
      "arguments": [
        "0x33c6f26dA09502E6540043f030aE1F87f109cc99",
        "0x90CdcBF4c4bc78dC440252211EFd744d0A4Dc4A1",
        "true"
      ],
      "transaction": {
        "from": "0x1234562eb0cd65e7d08e59f9f18d7c10b5df232a",
        "to": "0x493be13415bf36d997f40aac50c264d855c7f869",
        "gas": "0x65b13ce",
        "value": "0x0",
        "input": "0x28af4ca400000000000000000000000033c6f26da09502e6540043f030ae1f87f109cc9900000000000000000000000090cdcbf4c4bc78dc440252211efd744d0a4dc4a10000000000000000000000000000000000000000000000000000000000000001",
        "nonce": "0x3ed",
        "chainId": "0x138b"
      },
      "additionalContracts": [],
      "isFixedGasLimit": false
    },
    {
      "hash": "0x562e12398806069ab7b2dfe33338e73c8bb4ba0cc21fdd81229abec42ef1392a",
      "transactionType": "CALL",
      "contractName": "MockSwapRouter",
      "contractAddress": "0x493be13415bf36d997f40aac50c264d855c7f869",
      "function": "setSwapEnabled(address,address,bool)",
      "arguments": [
        "0x33c6f26dA09502E6540043f030aE1F87f109cc99",
        "0xced6Ceb47301F268d57fF07879DF45Fda80e6974",
        "true"
      ],
      "transaction": {
        "from": "0x1234562eb0cd65e7d08e59f9f18d7c10b5df232a",
        "to": "0x493be13415bf36d997f40aac50c264d855c7f869",
        "gas": "0x65b13ce",
        "value": "0x0",
        "input": "0x28af4ca400000000000000000000000033c6f26da09502e6540043f030ae1f87f109cc99000000000000000000000000ced6ceb47301f268d57ff07879df45fda80e69740000000000000000000000000000000000000000000000000000000000000001",
        "nonce": "0x3ee",
        "chainId": "0x138b"
      },
      "additionalContracts": [],
      "isFixedGasLimit": false
    },
    {
      "hash": "0x9fd01708934ef491a7062d3ec447d62b222ef99829079cdf377edb68849a6f7f",
      "transactionType": "CALL",
      "contractName": "MockSwapRouter",
      "contractAddress": "0x493be13415bf36d997f40aac50c264d855c7f869",
      "function": "setSwapEnabled(address,address,bool)",
      "arguments": [
        "0x33c6f26dA09502E6540043f030aE1F87f109cc99",
        "0x782Ba48189AF93a0CF42766058DE83291f384bF3",
        "true"
      ],
      "transaction": {
        "from": "0x1234562eb0cd65e7d08e59f9f18d7c10b5df232a",
        "to": "0x493be13415bf36d997f40aac50c264d855c7f869",
        "gas": "0x65b13ce",
        "value": "0x0",
        "input": "0x28af4ca400000000000000000000000033c6f26da09502e6540043f030ae1f87f109cc99000000000000000000000000782ba48189af93a0cf42766058de83291f384bf30000000000000000000000000000000000000000000000000000000000000001",
        "nonce": "0x3ef",
        "chainId": "0x138b"
      },
      "additionalContracts": [],
      "isFixedGasLimit": false
    },
    {
      "hash": null,
      "transactionType": "CALL",
      "contractName": "MockSwapRouter",
      "contractAddress": "0x493be13415bf36d997f40aac50c264d855c7f869",
      "function": "setSwapEnabled(address,address,bool)",
      "arguments": [
        "0x7CB382Ce1AA40FA9F9A59a632090c05Dc28caE7b",
        "0xB288Ba5B5b80Dd0Fd83541ef2e5922f71121Fa13",
        "true"
      ],
      "transaction": {
        "from": "0x1234562eb0cd65e7d08e59f9f18d7c10b5df232a",
        "to": "0x493be13415bf36d997f40aac50c264d855c7f869",
        "gas": "0x65d2ba5",
        "value": "0x0",
        "input": "0x28af4ca40000000000000000000000007cb382ce1aa40fa9f9a59a632090c05dc28cae7b000000000000000000000000b288ba5b5b80dd0fd83541ef2e5922f71121fa130000000000000000000000000000000000000000000000000000000000000001",
        "nonce": "0x3f0",
        "chainId": "0x138b"
      },
      "additionalContracts": [],
      "isFixedGasLimit": false
    },
    {
      "hash": null,
      "transactionType": "CALL",
      "contractName": "MockSwapRouter",
      "contractAddress": "0x493be13415bf36d997f40aac50c264d855c7f869",
      "function": "setSwapEnabled(address,address,bool)",
      "arguments": [
        "0x7CB382Ce1AA40FA9F9A59a632090c05Dc28caE7b",
        "0xC4a53c466Cfb62AecED03008B0162baaf36E0B03",
        "true"
      ],
      "transaction": {
        "from": "0x1234562eb0cd65e7d08e59f9f18d7c10b5df232a",
        "to": "0x493be13415bf36d997f40aac50c264d855c7f869",
        "gas": "0x65d2ba5",
        "value": "0x0",
        "input": "0x28af4ca40000000000000000000000007cb382ce1aa40fa9f9a59a632090c05dc28cae7b000000000000000000000000c4a53c466cfb62aeced03008b0162baaf36e0b030000000000000000000000000000000000000000000000000000000000000001",
        "nonce": "0x3f1",
        "chainId": "0x138b"
      },
      "additionalContracts": [],
      "isFixedGasLimit": false
    },
    {
      "hash": null,
      "transactionType": "CALL",
      "contractName": "MockSwapRouter",
      "contractAddress": "0x493be13415bf36d997f40aac50c264d855c7f869",
      "function": "setSwapEnabled(address,address,bool)",
      "arguments": [
        "0x7CB382Ce1AA40FA9F9A59a632090c05Dc28caE7b",
        "0x70Db6eFB75c898Ad1e194FDA2B8C6e73dbC944d6",
        "true"
      ],
      "transaction": {
        "from": "0x1234562eb0cd65e7d08e59f9f18d7c10b5df232a",
        "to": "0x493be13415bf36d997f40aac50c264d855c7f869",
        "gas": "0x65d2ba5",
        "value": "0x0",
        "input": "0x28af4ca40000000000000000000000007cb382ce1aa40fa9f9a59a632090c05dc28cae7b00000000000000000000000070db6efb75c898ad1e194fda2b8c6e73dbc944d60000000000000000000000000000000000000000000000000000000000000001",
        "nonce": "0x3f2",
        "chainId": "0x138b"
      },
      "additionalContracts": [],
      "isFixedGasLimit": false
    },
    {
      "hash": null,
      "transactionType": "CALL",
      "contractName": "MockSwapRouter",
      "contractAddress": "0x493be13415bf36d997f40aac50c264d855c7f869",
      "function": "setSwapEnabled(address,address,bool)",
      "arguments": [
        "0x7CB382Ce1AA40FA9F9A59a632090c05Dc28caE7b",
        "0xEE589FBF85128abA6f42696dB2F28eA9EBddE173",
        "true"
      ],
      "transaction": {
        "from": "0x1234562eb0cd65e7d08e59f9f18d7c10b5df232a",
        "to": "0x493be13415bf36d997f40aac50c264d855c7f869",
        "gas": "0x65d2ba5",
        "value": "0x0",
        "input": "0x28af4ca40000000000000000000000007cb382ce1aa40fa9f9a59a632090c05dc28cae7b000000000000000000000000ee589fbf85128aba6f42696db2f28ea9ebdde1730000000000000000000000000000000000000000000000000000000000000001",
        "nonce": "0x3f3",
        "chainId": "0x138b"
      },
      "additionalContracts": [],
      "isFixedGasLimit": false
    },
    {
      "hash": null,
      "transactionType": "CALL",
      "contractName": "MockSwapRouter",
      "contractAddress": "0x493be13415bf36d997f40aac50c264d855c7f869",
      "function": "setSwapEnabled(address,address,bool)",
      "arguments": [
        "0x7CB382Ce1AA40FA9F9A59a632090c05Dc28caE7b",
        "0x2C036be74942c597e4d81D7050008dDc11becCEb",
        "true"
      ],
      "transaction": {
        "from": "0x1234562eb0cd65e7d08e59f9f18d7c10b5df232a",
        "to": "0x493be13415bf36d997f40aac50c264d855c7f869",
        "gas": "0x65b13ce",
        "value": "0x0",
        "input": "0x28af4ca40000000000000000000000007cb382ce1aa40fa9f9a59a632090c05dc28cae7b0000000000000000000000002c036be74942c597e4d81d7050008ddc11becceb0000000000000000000000000000000000000000000000000000000000000001",
        "nonce": "0x3f4",
        "chainId": "0x138b"
      },
      "additionalContracts": [],
      "isFixedGasLimit": false
    },
    {
      "hash": null,
      "transactionType": "CALL",
      "contractName": "MockSwapRouter",
      "contractAddress": "0x493be13415bf36d997f40aac50c264d855c7f869",
      "function": "setSwapEnabled(address,address,bool)",
      "arguments": [
        "0x7CB382Ce1AA40FA9F9A59a632090c05Dc28caE7b",
        "0x90CdcBF4c4bc78dC440252211EFd744d0A4Dc4A1",
        "true"
      ],
      "transaction": {
        "from": "0x1234562eb0cd65e7d08e59f9f18d7c10b5df232a",
        "to": "0x493be13415bf36d997f40aac50c264d855c7f869",
        "gas": "0x65d2ba5",
        "value": "0x0",
        "input": "0x28af4ca40000000000000000000000007cb382ce1aa40fa9f9a59a632090c05dc28cae7b00000000000000000000000090cdcbf4c4bc78dc440252211efd744d0a4dc4a10000000000000000000000000000000000000000000000000000000000000001",
        "nonce": "0x3f5",
        "chainId": "0x138b"
      },
      "additionalContracts": [],
      "isFixedGasLimit": false
    },
    {
      "hash": null,
      "transactionType": "CALL",
      "contractName": "MockSwapRouter",
      "contractAddress": "0x493be13415bf36d997f40aac50c264d855c7f869",
      "function": "setSwapEnabled(address,address,bool)",
      "arguments": [
        "0x7CB382Ce1AA40FA9F9A59a632090c05Dc28caE7b",
        "0xced6Ceb47301F268d57fF07879DF45Fda80e6974",
        "true"
      ],
      "transaction": {
        "from": "0x1234562eb0cd65e7d08e59f9f18d7c10b5df232a",
        "to": "0x493be13415bf36d997f40aac50c264d855c7f869",
        "gas": "0x65d2ba5",
        "value": "0x0",
        "input": "0x28af4ca40000000000000000000000007cb382ce1aa40fa9f9a59a632090c05dc28cae7b000000000000000000000000ced6ceb47301f268d57ff07879df45fda80e69740000000000000000000000000000000000000000000000000000000000000001",
        "nonce": "0x3f6",
        "chainId": "0x138b"
      },
      "additionalContracts": [],
      "isFixedGasLimit": false
    },
    {
      "hash": null,
      "transactionType": "CALL",
      "contractName": "MockSwapRouter",
      "contractAddress": "0x493be13415bf36d997f40aac50c264d855c7f869",
      "function": "setSwapEnabled(address,address,bool)",
      "arguments": [
        "0x7CB382Ce1AA40FA9F9A59a632090c05Dc28caE7b",
        "0x782Ba48189AF93a0CF42766058DE83291f384bF3",
        "true"
      ],
      "transaction": {
        "from": "0x1234562eb0cd65e7d08e59f9f18d7c10b5df232a",
        "to": "0x493be13415bf36d997f40aac50c264d855c7f869",
        "gas": "0x65d2ba5",
        "value": "0x0",
        "input": "0x28af4ca40000000000000000000000007cb382ce1aa40fa9f9a59a632090c05dc28cae7b000000000000000000000000782ba48189af93a0cf42766058de83291f384bf30000000000000000000000000000000000000000000000000000000000000001",
        "nonce": "0x3f7",
        "chainId": "0x138b"
      },
      "additionalContracts": [],
      "isFixedGasLimit": false
    },
    {
      "hash": null,
      "transactionType": "CALL",
      "contractName": "MockSwapRouter",
      "contractAddress": "0x493be13415bf36d997f40aac50c264d855c7f869",
      "function": "setSwapEnabled(address,address,bool)",
      "arguments": [
        "0xB288Ba5B5b80Dd0Fd83541ef2e5922f71121Fa13",
        "0xC4a53c466Cfb62AecED03008B0162baaf36E0B03",
        "true"
      ],
      "transaction": {
        "from": "0x1234562eb0cd65e7d08e59f9f18d7c10b5df232a",
        "to": "0x493be13415bf36d997f40aac50c264d855c7f869",
        "gas": "0x65d2ba5",
        "value": "0x0",
        "input": "0x28af4ca4000000000000000000000000b288ba5b5b80dd0fd83541ef2e5922f71121fa13000000000000000000000000c4a53c466cfb62aeced03008b0162baaf36e0b030000000000000000000000000000000000000000000000000000000000000001",
        "nonce": "0x3f8",
        "chainId": "0x138b"
      },
      "additionalContracts": [],
      "isFixedGasLimit": false
    },
    {
      "hash": null,
      "transactionType": "CALL",
      "contractName": "MockSwapRouter",
      "contractAddress": "0x493be13415bf36d997f40aac50c264d855c7f869",
      "function": "setSwapEnabled(address,address,bool)",
      "arguments": [
        "0xB288Ba5B5b80Dd0Fd83541ef2e5922f71121Fa13",
        "0x70Db6eFB75c898Ad1e194FDA2B8C6e73dbC944d6",
        "true"
      ],
      "transaction": {
        "from": "0x1234562eb0cd65e7d08e59f9f18d7c10b5df232a",
        "to": "0x493be13415bf36d997f40aac50c264d855c7f869",
        "gas": "0x65d2ba5",
        "value": "0x0",
        "input": "0x28af4ca4000000000000000000000000b288ba5b5b80dd0fd83541ef2e5922f71121fa1300000000000000000000000070db6efb75c898ad1e194fda2b8c6e73dbc944d60000000000000000000000000000000000000000000000000000000000000001",
        "nonce": "0x3f9",
        "chainId": "0x138b"
      },
      "additionalContracts": [],
      "isFixedGasLimit": false
    },
    {
      "hash": null,
      "transactionType": "CALL",
      "contractName": "MockSwapRouter",
      "contractAddress": "0x493be13415bf36d997f40aac50c264d855c7f869",
      "function": "setSwapEnabled(address,address,bool)",
      "arguments": [
        "0xB288Ba5B5b80Dd0Fd83541ef2e5922f71121Fa13",
        "0xEE589FBF85128abA6f42696dB2F28eA9EBddE173",
        "true"
      ],
      "transaction": {
        "from": "0x1234562eb0cd65e7d08e59f9f18d7c10b5df232a",
        "to": "0x493be13415bf36d997f40aac50c264d855c7f869",
        "gas": "0x65d2ba5",
        "value": "0x0",
        "input": "0x28af4ca4000000000000000000000000b288ba5b5b80dd0fd83541ef2e5922f71121fa13000000000000000000000000ee589fbf85128aba6f42696db2f28ea9ebdde1730000000000000000000000000000000000000000000000000000000000000001",
        "nonce": "0x3fa",
        "chainId": "0x138b"
      },
      "additionalContracts": [],
      "isFixedGasLimit": false
    },
    {
      "hash": null,
      "transactionType": "CALL",
      "contractName": "MockSwapRouter",
      "contractAddress": "0x493be13415bf36d997f40aac50c264d855c7f869",
      "function": "setSwapEnabled(address,address,bool)",
      "arguments": [
        "0xB288Ba5B5b80Dd0Fd83541ef2e5922f71121Fa13",
        "0x2C036be74942c597e4d81D7050008dDc11becCEb",
        "true"
      ],
      "transaction": {
        "from": "0x1234562eb0cd65e7d08e59f9f18d7c10b5df232a",
        "to": "0x493be13415bf36d997f40aac50c264d855c7f869",
        "gas": "0x65b13ce",
        "value": "0x0",
        "input": "0x28af4ca4000000000000000000000000b288ba5b5b80dd0fd83541ef2e5922f71121fa130000000000000000000000002c036be74942c597e4d81d7050008ddc11becceb0000000000000000000000000000000000000000000000000000000000000001",
        "nonce": "0x3fb",
        "chainId": "0x138b"
      },
      "additionalContracts": [],
      "isFixedGasLimit": false
    },
    {
      "hash": null,
      "transactionType": "CALL",
      "contractName": "MockSwapRouter",
      "contractAddress": "0x493be13415bf36d997f40aac50c264d855c7f869",
      "function": "setSwapEnabled(address,address,bool)",
      "arguments": [
        "0xB288Ba5B5b80Dd0Fd83541ef2e5922f71121Fa13",
        "0x90CdcBF4c4bc78dC440252211EFd744d0A4Dc4A1",
        "true"
      ],
      "transaction": {
        "from": "0x1234562eb0cd65e7d08e59f9f18d7c10b5df232a",
        "to": "0x493be13415bf36d997f40aac50c264d855c7f869",
        "gas": "0x65d2ba5",
        "value": "0x0",
        "input": "0x28af4ca4000000000000000000000000b288ba5b5b80dd0fd83541ef2e5922f71121fa1300000000000000000000000090cdcbf4c4bc78dc440252211efd744d0a4dc4a10000000000000000000000000000000000000000000000000000000000000001",
        "nonce": "0x3fc",
        "chainId": "0x138b"
      },
      "additionalContracts": [],
      "isFixedGasLimit": false
    },
    {
      "hash": null,
      "transactionType": "CALL",
      "contractName": "MockSwapRouter",
      "contractAddress": "0x493be13415bf36d997f40aac50c264d855c7f869",
      "function": "setSwapEnabled(address,address,bool)",
      "arguments": [
        "0xB288Ba5B5b80Dd0Fd83541ef2e5922f71121Fa13",
        "0xced6Ceb47301F268d57fF07879DF45Fda80e6974",
        "true"
      ],
      "transaction": {
        "from": "0x1234562eb0cd65e7d08e59f9f18d7c10b5df232a",
        "to": "0x493be13415bf36d997f40aac50c264d855c7f869",
        "gas": "0x65d2ba5",
        "value": "0x0",
        "input": "0x28af4ca4000000000000000000000000b288ba5b5b80dd0fd83541ef2e5922f71121fa13000000000000000000000000ced6ceb47301f268d57ff07879df45fda80e69740000000000000000000000000000000000000000000000000000000000000001",
        "nonce": "0x3fd",
        "chainId": "0x138b"
      },
      "additionalContracts": [],
      "isFixedGasLimit": false
    },
    {
      "hash": null,
      "transactionType": "CALL",
      "contractName": "MockSwapRouter",
      "contractAddress": "0x493be13415bf36d997f40aac50c264d855c7f869",
      "function": "setSwapEnabled(address,address,bool)",
      "arguments": [
        "0xB288Ba5B5b80Dd0Fd83541ef2e5922f71121Fa13",
        "0x782Ba48189AF93a0CF42766058DE83291f384bF3",
        "true"
      ],
      "transaction": {
        "from": "0x1234562eb0cd65e7d08e59f9f18d7c10b5df232a",
        "to": "0x493be13415bf36d997f40aac50c264d855c7f869",
        "gas": "0x65d2ba5",
        "value": "0x0",
        "input": "0x28af4ca4000000000000000000000000b288ba5b5b80dd0fd83541ef2e5922f71121fa13000000000000000000000000782ba48189af93a0cf42766058de83291f384bf30000000000000000000000000000000000000000000000000000000000000001",
        "nonce": "0x3fe",
        "chainId": "0x138b"
      },
      "additionalContracts": [],
      "isFixedGasLimit": false
    },
    {
      "hash": null,
      "transactionType": "CALL",
      "contractName": "MockSwapRouter",
      "contractAddress": "0x493be13415bf36d997f40aac50c264d855c7f869",
      "function": "setSwapEnabled(address,address,bool)",
      "arguments": [
        "0xC4a53c466Cfb62AecED03008B0162baaf36E0B03",
        "0x70Db6eFB75c898Ad1e194FDA2B8C6e73dbC944d6",
        "true"
      ],
      "transaction": {
        "from": "0x1234562eb0cd65e7d08e59f9f18d7c10b5df232a",
        "to": "0x493be13415bf36d997f40aac50c264d855c7f869",
        "gas": "0x65d2ba5",
        "value": "0x0",
        "input": "0x28af4ca4000000000000000000000000c4a53c466cfb62aeced03008b0162baaf36e0b0300000000000000000000000070db6efb75c898ad1e194fda2b8c6e73dbc944d60000000000000000000000000000000000000000000000000000000000000001",
        "nonce": "0x3ff",
        "chainId": "0x138b"
      },
      "additionalContracts": [],
      "isFixedGasLimit": false
    },
    {
      "hash": null,
      "transactionType": "CALL",
      "contractName": "MockSwapRouter",
      "contractAddress": "0x493be13415bf36d997f40aac50c264d855c7f869",
      "function": "setSwapEnabled(address,address,bool)",
      "arguments": [
        "0xC4a53c466Cfb62AecED03008B0162baaf36E0B03",
        "0xEE589FBF85128abA6f42696dB2F28eA9EBddE173",
        "true"
      ],
      "transaction": {
        "from": "0x1234562eb0cd65e7d08e59f9f18d7c10b5df232a",
        "to": "0x493be13415bf36d997f40aac50c264d855c7f869",
        "gas": "0x65d2ba5",
        "value": "0x0",
        "input": "0x28af4ca4000000000000000000000000c4a53c466cfb62aeced03008b0162baaf36e0b03000000000000000000000000ee589fbf85128aba6f42696db2f28ea9ebdde1730000000000000000000000000000000000000000000000000000000000000001",
        "nonce": "0x400",
        "chainId": "0x138b"
      },
      "additionalContracts": [],
      "isFixedGasLimit": false
    },
    {
      "hash": null,
      "transactionType": "CALL",
      "contractName": "MockSwapRouter",
      "contractAddress": "0x493be13415bf36d997f40aac50c264d855c7f869",
      "function": "setSwapEnabled(address,address,bool)",
      "arguments": [
        "0xC4a53c466Cfb62AecED03008B0162baaf36E0B03",
        "0x2C036be74942c597e4d81D7050008dDc11becCEb",
        "true"
      ],
      "transaction": {
        "from": "0x1234562eb0cd65e7d08e59f9f18d7c10b5df232a",
        "to": "0x493be13415bf36d997f40aac50c264d855c7f869",
        "gas": "0x65b13ce",
        "value": "0x0",
        "input": "0x28af4ca4000000000000000000000000c4a53c466cfb62aeced03008b0162baaf36e0b030000000000000000000000002c036be74942c597e4d81d7050008ddc11becceb0000000000000000000000000000000000000000000000000000000000000001",
        "nonce": "0x401",
        "chainId": "0x138b"
      },
      "additionalContracts": [],
      "isFixedGasLimit": false
    },
    {
      "hash": null,
      "transactionType": "CALL",
      "contractName": "MockSwapRouter",
      "contractAddress": "0x493be13415bf36d997f40aac50c264d855c7f869",
      "function": "setSwapEnabled(address,address,bool)",
      "arguments": [
        "0xC4a53c466Cfb62AecED03008B0162baaf36E0B03",
        "0x90CdcBF4c4bc78dC440252211EFd744d0A4Dc4A1",
        "true"
      ],
      "transaction": {
        "from": "0x1234562eb0cd65e7d08e59f9f18d7c10b5df232a",
        "to": "0x493be13415bf36d997f40aac50c264d855c7f869",
        "gas": "0x65d2ba5",
        "value": "0x0",
        "input": "0x28af4ca4000000000000000000000000c4a53c466cfb62aeced03008b0162baaf36e0b0300000000000000000000000090cdcbf4c4bc78dc440252211efd744d0a4dc4a10000000000000000000000000000000000000000000000000000000000000001",
        "nonce": "0x402",
        "chainId": "0x138b"
      },
      "additionalContracts": [],
      "isFixedGasLimit": false
    },
    {
      "hash": null,
      "transactionType": "CALL",
      "contractName": "MockSwapRouter",
      "contractAddress": "0x493be13415bf36d997f40aac50c264d855c7f869",
      "function": "setSwapEnabled(address,address,bool)",
      "arguments": [
        "0xC4a53c466Cfb62AecED03008B0162baaf36E0B03",
        "0xced6Ceb47301F268d57fF07879DF45Fda80e6974",
        "true"
      ],
      "transaction": {
        "from": "0x1234562eb0cd65e7d08e59f9f18d7c10b5df232a",
        "to": "0x493be13415bf36d997f40aac50c264d855c7f869",
        "gas": "0x65d2ba5",
        "value": "0x0",
        "input": "0x28af4ca4000000000000000000000000c4a53c466cfb62aeced03008b0162baaf36e0b03000000000000000000000000ced6ceb47301f268d57ff07879df45fda80e69740000000000000000000000000000000000000000000000000000000000000001",
        "nonce": "0x403",
        "chainId": "0x138b"
      },
      "additionalContracts": [],
      "isFixedGasLimit": false
    },
    {
      "hash": null,
      "transactionType": "CALL",
      "contractName": "MockSwapRouter",
      "contractAddress": "0x493be13415bf36d997f40aac50c264d855c7f869",
      "function": "setSwapEnabled(address,address,bool)",
      "arguments": [
        "0xC4a53c466Cfb62AecED03008B0162baaf36E0B03",
        "0x782Ba48189AF93a0CF42766058DE83291f384bF3",
        "true"
      ],
      "transaction": {
        "from": "0x1234562eb0cd65e7d08e59f9f18d7c10b5df232a",
        "to": "0x493be13415bf36d997f40aac50c264d855c7f869",
        "gas": "0x65d2ba5",
        "value": "0x0",
        "input": "0x28af4ca4000000000000000000000000c4a53c466cfb62aeced03008b0162baaf36e0b03000000000000000000000000782ba48189af93a0cf42766058de83291f384bf30000000000000000000000000000000000000000000000000000000000000001",
        "nonce": "0x404",
        "chainId": "0x138b"
      },
      "additionalContracts": [],
      "isFixedGasLimit": false
    },
    {
      "hash": null,
      "transactionType": "CALL",
      "contractName": "MockSwapRouter",
      "contractAddress": "0x493be13415bf36d997f40aac50c264d855c7f869",
      "function": "setSwapEnabled(address,address,bool)",
      "arguments": [
        "0x70Db6eFB75c898Ad1e194FDA2B8C6e73dbC944d6",
        "0xEE589FBF85128abA6f42696dB2F28eA9EBddE173",
        "true"
      ],
      "transaction": {
        "from": "0x1234562eb0cd65e7d08e59f9f18d7c10b5df232a",
        "to": "0x493be13415bf36d997f40aac50c264d855c7f869",
        "gas": "0x65d2ba5",
        "value": "0x0",
        "input": "0x28af4ca400000000000000000000000070db6efb75c898ad1e194fda2b8c6e73dbc944d6000000000000000000000000ee589fbf85128aba6f42696db2f28ea9ebdde1730000000000000000000000000000000000000000000000000000000000000001",
        "nonce": "0x405",
        "chainId": "0x138b"
      },
      "additionalContracts": [],
      "isFixedGasLimit": false
    },
    {
      "hash": null,
      "transactionType": "CALL",
      "contractName": "MockSwapRouter",
      "contractAddress": "0x493be13415bf36d997f40aac50c264d855c7f869",
      "function": "setSwapEnabled(address,address,bool)",
      "arguments": [
        "0x70Db6eFB75c898Ad1e194FDA2B8C6e73dbC944d6",
        "0x2C036be74942c597e4d81D7050008dDc11becCEb",
        "true"
      ],
      "transaction": {
        "from": "0x1234562eb0cd65e7d08e59f9f18d7c10b5df232a",
        "to": "0x493be13415bf36d997f40aac50c264d855c7f869",
        "gas": "0x65b13ce",
        "value": "0x0",
        "input": "0x28af4ca400000000000000000000000070db6efb75c898ad1e194fda2b8c6e73dbc944d60000000000000000000000002c036be74942c597e4d81d7050008ddc11becceb0000000000000000000000000000000000000000000000000000000000000001",
        "nonce": "0x406",
        "chainId": "0x138b"
      },
      "additionalContracts": [],
      "isFixedGasLimit": false
    },
    {
      "hash": null,
      "transactionType": "CALL",
      "contractName": "MockSwapRouter",
      "contractAddress": "0x493be13415bf36d997f40aac50c264d855c7f869",
      "function": "setSwapEnabled(address,address,bool)",
      "arguments": [
        "0x70Db6eFB75c898Ad1e194FDA2B8C6e73dbC944d6",
        "0x90CdcBF4c4bc78dC440252211EFd744d0A4Dc4A1",
        "true"
      ],
      "transaction": {
        "from": "0x1234562eb0cd65e7d08e59f9f18d7c10b5df232a",
        "to": "0x493be13415bf36d997f40aac50c264d855c7f869",
        "gas": "0x65d2ba5",
        "value": "0x0",
        "input": "0x28af4ca400000000000000000000000070db6efb75c898ad1e194fda2b8c6e73dbc944d600000000000000000000000090cdcbf4c4bc78dc440252211efd744d0a4dc4a10000000000000000000000000000000000000000000000000000000000000001",
        "nonce": "0x407",
        "chainId": "0x138b"
      },
      "additionalContracts": [],
      "isFixedGasLimit": false
    },
    {
      "hash": null,
      "transactionType": "CALL",
      "contractName": "MockSwapRouter",
      "contractAddress": "0x493be13415bf36d997f40aac50c264d855c7f869",
      "function": "setSwapEnabled(address,address,bool)",
      "arguments": [
        "0x70Db6eFB75c898Ad1e194FDA2B8C6e73dbC944d6",
        "0xced6Ceb47301F268d57fF07879DF45Fda80e6974",
        "true"
      ],
      "transaction": {
        "from": "0x1234562eb0cd65e7d08e59f9f18d7c10b5df232a",
        "to": "0x493be13415bf36d997f40aac50c264d855c7f869",
        "gas": "0x65d2ba5",
        "value": "0x0",
        "input": "0x28af4ca400000000000000000000000070db6efb75c898ad1e194fda2b8c6e73dbc944d6000000000000000000000000ced6ceb47301f268d57ff07879df45fda80e69740000000000000000000000000000000000000000000000000000000000000001",
        "nonce": "0x408",
        "chainId": "0x138b"
      },
      "additionalContracts": [],
      "isFixedGasLimit": false
    },
    {
      "hash": null,
      "transactionType": "CALL",
      "contractName": "MockSwapRouter",
      "contractAddress": "0x493be13415bf36d997f40aac50c264d855c7f869",
      "function": "setSwapEnabled(address,address,bool)",
      "arguments": [
        "0x70Db6eFB75c898Ad1e194FDA2B8C6e73dbC944d6",
        "0x782Ba48189AF93a0CF42766058DE83291f384bF3",
        "true"
      ],
      "transaction": {
        "from": "0x1234562eb0cd65e7d08e59f9f18d7c10b5df232a",
        "to": "0x493be13415bf36d997f40aac50c264d855c7f869",
        "gas": "0x65d2ba5",
        "value": "0x0",
        "input": "0x28af4ca400000000000000000000000070db6efb75c898ad1e194fda2b8c6e73dbc944d6000000000000000000000000782ba48189af93a0cf42766058de83291f384bf30000000000000000000000000000000000000000000000000000000000000001",
        "nonce": "0x409",
        "chainId": "0x138b"
      },
      "additionalContracts": [],
      "isFixedGasLimit": false
    },
    {
      "hash": null,
      "transactionType": "CALL",
      "contractName": "MockSwapRouter",
      "contractAddress": "0x493be13415bf36d997f40aac50c264d855c7f869",
      "function": "setSwapEnabled(address,address,bool)",
      "arguments": [
        "0xEE589FBF85128abA6f42696dB2F28eA9EBddE173",
        "0x2C036be74942c597e4d81D7050008dDc11becCEb",
        "true"
      ],
      "transaction": {
        "from": "0x1234562eb0cd65e7d08e59f9f18d7c10b5df232a",
        "to": "0x493be13415bf36d997f40aac50c264d855c7f869",
        "gas": "0x65b13ce",
        "value": "0x0",
        "input": "0x28af4ca4000000000000000000000000ee589fbf85128aba6f42696db2f28ea9ebdde1730000000000000000000000002c036be74942c597e4d81d7050008ddc11becceb0000000000000000000000000000000000000000000000000000000000000001",
        "nonce": "0x40a",
        "chainId": "0x138b"
      },
      "additionalContracts": [],
      "isFixedGasLimit": false
    },
    {
      "hash": null,
      "transactionType": "CALL",
      "contractName": "MockSwapRouter",
      "contractAddress": "0x493be13415bf36d997f40aac50c264d855c7f869",
      "function": "setSwapEnabled(address,address,bool)",
      "arguments": [
        "0xEE589FBF85128abA6f42696dB2F28eA9EBddE173",
        "0x90CdcBF4c4bc78dC440252211EFd744d0A4Dc4A1",
        "true"
      ],
      "transaction": {
        "from": "0x1234562eb0cd65e7d08e59f9f18d7c10b5df232a",
        "to": "0x493be13415bf36d997f40aac50c264d855c7f869",
        "gas": "0x65d2ba5",
        "value": "0x0",
        "input": "0x28af4ca4000000000000000000000000ee589fbf85128aba6f42696db2f28ea9ebdde17300000000000000000000000090cdcbf4c4bc78dc440252211efd744d0a4dc4a10000000000000000000000000000000000000000000000000000000000000001",
        "nonce": "0x40b",
        "chainId": "0x138b"
      },
      "additionalContracts": [],
      "isFixedGasLimit": false
    },
    {
      "hash": null,
      "transactionType": "CALL",
      "contractName": "MockSwapRouter",
      "contractAddress": "0x493be13415bf36d997f40aac50c264d855c7f869",
      "function": "setSwapEnabled(address,address,bool)",
      "arguments": [
        "0xEE589FBF85128abA6f42696dB2F28eA9EBddE173",
        "0xced6Ceb47301F268d57fF07879DF45Fda80e6974",
        "true"
      ],
      "transaction": {
        "from": "0x1234562eb0cd65e7d08e59f9f18d7c10b5df232a",
        "to": "0x493be13415bf36d997f40aac50c264d855c7f869",
        "gas": "0x65d2ba5",
        "value": "0x0",
        "input": "0x28af4ca4000000000000000000000000ee589fbf85128aba6f42696db2f28ea9ebdde173000000000000000000000000ced6ceb47301f268d57ff07879df45fda80e69740000000000000000000000000000000000000000000000000000000000000001",
        "nonce": "0x40c",
        "chainId": "0x138b"
      },
      "additionalContracts": [],
      "isFixedGasLimit": false
    },
    {
      "hash": null,
      "transactionType": "CALL",
      "contractName": "MockSwapRouter",
      "contractAddress": "0x493be13415bf36d997f40aac50c264d855c7f869",
      "function": "setSwapEnabled(address,address,bool)",
      "arguments": [
        "0xEE589FBF85128abA6f42696dB2F28eA9EBddE173",
        "0x782Ba48189AF93a0CF42766058DE83291f384bF3",
        "true"
      ],
      "transaction": {
        "from": "0x1234562eb0cd65e7d08e59f9f18d7c10b5df232a",
        "to": "0x493be13415bf36d997f40aac50c264d855c7f869",
        "gas": "0x65d2ba5",
        "value": "0x0",
        "input": "0x28af4ca4000000000000000000000000ee589fbf85128aba6f42696db2f28ea9ebdde173000000000000000000000000782ba48189af93a0cf42766058de83291f384bf30000000000000000000000000000000000000000000000000000000000000001",
        "nonce": "0x40d",
        "chainId": "0x138b"
      },
      "additionalContracts": [],
      "isFixedGasLimit": false
    },
    {
      "hash": null,
      "transactionType": "CALL",
      "contractName": "MockSwapRouter",
      "contractAddress": "0x493be13415bf36d997f40aac50c264d855c7f869",
      "function": "setSwapEnabled(address,address,bool)",
      "arguments": [
        "0x2C036be74942c597e4d81D7050008dDc11becCEb",
        "0x90CdcBF4c4bc78dC440252211EFd744d0A4Dc4A1",
        "true"
      ],
      "transaction": {
        "from": "0x1234562eb0cd65e7d08e59f9f18d7c10b5df232a",
        "to": "0x493be13415bf36d997f40aac50c264d855c7f869",
        "gas": "0x65b13ce",
        "value": "0x0",
        "input": "0x28af4ca40000000000000000000000002c036be74942c597e4d81d7050008ddc11becceb00000000000000000000000090cdcbf4c4bc78dc440252211efd744d0a4dc4a10000000000000000000000000000000000000000000000000000000000000001",
        "nonce": "0x40e",
        "chainId": "0x138b"
      },
      "additionalContracts": [],
      "isFixedGasLimit": false
    },
    {
      "hash": null,
      "transactionType": "CALL",
      "contractName": "MockSwapRouter",
      "contractAddress": "0x493be13415bf36d997f40aac50c264d855c7f869",
      "function": "setSwapEnabled(address,address,bool)",
      "arguments": [
        "0x2C036be74942c597e4d81D7050008dDc11becCEb",
        "0xced6Ceb47301F268d57fF07879DF45Fda80e6974",
        "true"
      ],
      "transaction": {
        "from": "0x1234562eb0cd65e7d08e59f9f18d7c10b5df232a",
        "to": "0x493be13415bf36d997f40aac50c264d855c7f869",
        "gas": "0x65b13ce",
        "value": "0x0",
        "input": "0x28af4ca40000000000000000000000002c036be74942c597e4d81d7050008ddc11becceb000000000000000000000000ced6ceb47301f268d57ff07879df45fda80e69740000000000000000000000000000000000000000000000000000000000000001",
        "nonce": "0x40f",
        "chainId": "0x138b"
      },
      "additionalContracts": [],
      "isFixedGasLimit": false
    },
    {
      "hash": null,
      "transactionType": "CALL",
      "contractName": "MockSwapRouter",
      "contractAddress": "0x493be13415bf36d997f40aac50c264d855c7f869",
      "function": "setSwapEnabled(address,address,bool)",
      "arguments": [
        "0x2C036be74942c597e4d81D7050008dDc11becCEb",
        "0x782Ba48189AF93a0CF42766058DE83291f384bF3",
        "true"
      ],
      "transaction": {
        "from": "0x1234562eb0cd65e7d08e59f9f18d7c10b5df232a",
        "to": "0x493be13415bf36d997f40aac50c264d855c7f869",
        "gas": "0x65b13ce",
        "value": "0x0",
        "input": "0x28af4ca40000000000000000000000002c036be74942c597e4d81d7050008ddc11becceb000000000000000000000000782ba48189af93a0cf42766058de83291f384bf30000000000000000000000000000000000000000000000000000000000000001",
        "nonce": "0x410",
        "chainId": "0x138b"
      },
      "additionalContracts": [],
      "isFixedGasLimit": false
    },
    {
      "hash": null,
      "transactionType": "CALL",
      "contractName": "MockSwapRouter",
      "contractAddress": "0x493be13415bf36d997f40aac50c264d855c7f869",
      "function": "setSwapEnabled(address,address,bool)",
      "arguments": [
        "0x90CdcBF4c4bc78dC440252211EFd744d0A4Dc4A1",
        "0xced6Ceb47301F268d57fF07879DF45Fda80e6974",
        "true"
      ],
      "transaction": {
        "from": "0x1234562eb0cd65e7d08e59f9f18d7c10b5df232a",
        "to": "0x493be13415bf36d997f40aac50c264d855c7f869",
        "gas": "0x65d2ba5",
        "value": "0x0",
        "input": "0x28af4ca400000000000000000000000090cdcbf4c4bc78dc440252211efd744d0a4dc4a1000000000000000000000000ced6ceb47301f268d57ff07879df45fda80e69740000000000000000000000000000000000000000000000000000000000000001",
        "nonce": "0x411",
        "chainId": "0x138b"
      },
      "additionalContracts": [],
      "isFixedGasLimit": false
    },
    {
      "hash": null,
      "transactionType": "CALL",
      "contractName": "MockSwapRouter",
      "contractAddress": "0x493be13415bf36d997f40aac50c264d855c7f869",
      "function": "setSwapEnabled(address,address,bool)",
      "arguments": [
        "0x90CdcBF4c4bc78dC440252211EFd744d0A4Dc4A1",
        "0x782Ba48189AF93a0CF42766058DE83291f384bF3",
        "true"
      ],
      "transaction": {
        "from": "0x1234562eb0cd65e7d08e59f9f18d7c10b5df232a",
        "to": "0x493be13415bf36d997f40aac50c264d855c7f869",
        "gas": "0x65d2ba5",
        "value": "0x0",
        "input": "0x28af4ca400000000000000000000000090cdcbf4c4bc78dc440252211efd744d0a4dc4a1000000000000000000000000782ba48189af93a0cf42766058de83291f384bf30000000000000000000000000000000000000000000000000000000000000001",
        "nonce": "0x412",
        "chainId": "0x138b"
      },
      "additionalContracts": [],
      "isFixedGasLimit": false
    },
    {
      "hash": null,
      "transactionType": "CALL",
      "contractName": "MockSwapRouter",
      "contractAddress": "0x493be13415bf36d997f40aac50c264d855c7f869",
      "function": "setSwapEnabled(address,address,bool)",
      "arguments": [
        "0xced6Ceb47301F268d57fF07879DF45Fda80e6974",
        "0x782Ba48189AF93a0CF42766058DE83291f384bF3",
        "true"
      ],
      "transaction": {
        "from": "0x1234562eb0cd65e7d08e59f9f18d7c10b5df232a",
        "to": "0x493be13415bf36d997f40aac50c264d855c7f869",
        "gas": "0x65d2ba5",
        "value": "0x0",
        "input": "0x28af4ca4000000000000000000000000ced6ceb47301f268d57ff07879df45fda80e6974000000000000000000000000782ba48189af93a0cf42766058de83291f384bf30000000000000000000000000000000000000000000000000000000000000001",
        "nonce": "0x413",
        "chainId": "0x138b"
      },
      "additionalContracts": [],
      "isFixedGasLimit": false
    },
    {
      "hash": null,
      "transactionType": "CALL",
      "contractName": null,
      "contractAddress": "0xdb26ba8581979dc4e11218735f821af5171fb737",
      "function": "setSwapRouter(address)",
      "arguments": [
        "0x493Be13415bf36D997f40Aac50C264d855c7f869"
      ],
      "transaction": {
        "from": "0x1234562eb0cd65e7d08e59f9f18d7c10b5df232a",
        "to": "0xdb26ba8581979dc4e11218735f821af5171fb737",
        "gas": "0xc2fe",
        "value": "0x0",
        "input": "0x41273657000000000000000000000000493be13415bf36d997f40aac50c264d855c7f869",
        "nonce": "0x414",
        "chainId": "0x138b"
      },
      "additionalContracts": [],
      "isFixedGasLimit": false
    }
  ],
  "receipts": [
    {
      "status": "0x1",
      "cumulativeGasUsed": "0x717c029f",
      "logs": [
        {
          "address": "0x493be13415bf36d997f40aac50c264d855c7f869",
          "topics": [
            "0x8be0079c531659141344cd1fd0a4f28419497f9722a3daafe3b4186f6b6457e0",
            "0x0000000000000000000000000000000000000000000000000000000000000000",
            "0x0000000000000000000000001234562eb0cd65e7d08e59f9f18d7c10b5df232a"
          ],
          "data": "0x",
          "blockHash": "0x0aba74f804c674bac8f63f881c3320fccfb780fd259f528ae28b7e7d47664cdd",
          "blockNumber": "0x1f89008",
          "blockTimestamp": "0x695ca2f1",
          "transactionHash": "0x82b67e1a6e4f323f95d55708758f41c11998df463fde9bd3ef85530d10aa3e4a",
          "transactionIndex": "0x1",
          "logIndex": "0x0",
          "removed": false
        }
      ],
      "logsBloom": "0x00000000000000000000000000000000000000000000000000800000000000000000000000000000000000000000000000000000000000000000000000000000000000000000000020000000000000000005000000000000000000000000000000000000020000000000000000000800000000000000000000000000000800400000000000000000000000000000000000000000000200000000000000000000020000000000000000000000000000000000000000000000000000000000000000000000000000000000000000000000000000000000000000000000000020000000000000000000000000000000000000000100000000000000000000000000",
      "type": "0x2",
      "transactionHash": "0x82b67e1a6e4f323f95d55708758f41c11998df463fde9bd3ef85530d10aa3e4a",
      "transactionIndex": "0x1",
      "blockHash": "0x0aba74f804c674bac8f63f881c3320fccfb780fd259f528ae28b7e7d47664cdd",
      "blockNumber": "0x1f89008",
      "gasUsed": "0x717b35d2",
      "effectiveGasPrice": "0x132b3a0",
      "from": "0x1234562eb0cd65e7d08e59f9f18d7c10b5df232a",
      "to": null,
      "contractAddress": "0x493be13415bf36d997f40aac50c264d855c7f869",
      "l1Fee": "0xa88f15",
      "l1FeeScalar": "0.01",
      "l1GasPrice": "0x8",
      "l1GasUsed": "0xb97c",
      "tokenRatio": "0xb5c"
    },
    {
      "status": "0x1",
      "cumulativeGasUsed": "0xbf4db7d",
      "logs": [],
      "logsBloom": "0x00000000000000000000000000000000000000000000000000000000000000000000000000000000000000000000000000000000000000000000000000000000000000000000000000000000000000000000000000000000000000000000000000000000000000000000000000000000000000000000000000000000000000000000000000000000000000000000000000000000000000000000000000000000000000000000000000000000000000000000000000000000000000000000000000000000000000000000000000000000000000000000000000000000000000000000000000000000000000000000000000000000000000000000000000000000",
      "type": "0x2",
      "transactionHash": "0xcc8d87e4f171f4145d42003bbc0c3bd54ffa8cc088fe16cc50fa10e9683d3b01",
      "transactionIndex": "0x1",
      "blockHash": "0x9d7fa874bb0225dcb957d5c8cbacb25f6158b685aeea06adbc4975987a0e4b49",
      "blockNumber": "0x1f8900a",
      "gasUsed": "0xbf42484",
      "effectiveGasPrice": "0x132b3a0",
      "from": "0x1234562eb0cd65e7d08e59f9f18d7c10b5df232a",
      "to": "0x493be13415bf36d997f40aac50c264d855c7f869",
      "contractAddress": null,
      "l1Fee": "0xa7e43",
      "l1FeeScalar": "0.01",
      "l1GasPrice": "0x8",
      "l1GasUsed": "0xb8c",
      "tokenRatio": "0xb5c"
    },
    {
      "status": "0x1",
      "cumulativeGasUsed": "0xbf4db7d",
      "logs": [],
      "logsBloom": "0x00000000000000000000000000000000000000000000000000000000000000000000000000000000000000000000000000000000000000000000000000000000000000000000000000000000000000000000000000000000000000000000000000000000000000000000000000000000000000000000000000000000000000000000000000000000000000000000000000000000000000000000000000000000000000000000000000000000000000000000000000000000000000000000000000000000000000000000000000000000000000000000000000000000000000000000000000000000000000000000000000000000000000000000000000000000",
      "type": "0x2",
      "transactionHash": "0x0a59534068f7385f1f30d8dff03d1eba8a1c8400f552f0f7e6ee5de17ccc2905",
      "transactionIndex": "0x1",
      "blockHash": "0x4a66e7a6bb8acbee5729aa3feeed5a666c9511a13e70d9b9e4f03ef64ae78837",
      "blockNumber": "0x1f8900c",
      "gasUsed": "0xbf42484",
      "effectiveGasPrice": "0x132b3a0",
      "from": "0x1234562eb0cd65e7d08e59f9f18d7c10b5df232a",
      "to": "0x493be13415bf36d997f40aac50c264d855c7f869",
      "contractAddress": null,
      "l1Fee": "0xa7e43",
      "l1FeeScalar": "0.01",
      "l1GasPrice": "0x8",
      "l1GasUsed": "0xb8c",
      "tokenRatio": "0xb5c"
    },
    {
      "status": "0x1",
      "cumulativeGasUsed": "0xbf4f151",
      "logs": [],
      "logsBloom": "0x00000000000000000000000000000000000000000000000000000000000000000000000000000000000000000000000000000000000000000000000000000000000000000000000000000000000000000000000000000000000000000000000000000000000000000000000000000000000000000000000000000000000000000000000000000000000000000000000000000000000000000000000000000000000000000000000000000000000000000000000000000000000000000000000000000000000000000000000000000000000000000000000000000000000000000000000000000000000000000000000000000000000000000000000000000000",
      "type": "0x2",
      "transactionHash": "0xa576e88b2dcc8d888f1b94977fe3a506949ea7456fdab9c72b72aa7bd4dc83d9",
      "transactionIndex": "0x1",
      "blockHash": "0xa368cd3b021888eb8809f0d8bfc9dbe1e5f7c2c7ed0223fe2960f8ee63c07a69",
      "blockNumber": "0x1f8900e",
      "gasUsed": "0xbf42484",
      "effectiveGasPrice": "0x132b3a0",
      "from": "0x1234562eb0cd65e7d08e59f9f18d7c10b5df232a",
      "to": "0x493be13415bf36d997f40aac50c264d855c7f869",
      "contractAddress": null,
      "l1Fee": "0xa7e43",
      "l1FeeScalar": "0.01",
      "l1GasPrice": "0x8",
      "l1GasUsed": "0xb8c",
      "tokenRatio": "0xb5c"
    },
    {
      "status": "0x1",
      "cumulativeGasUsed": "0xbf4db7d",
      "logs": [],
      "logsBloom": "0x00000000000000000000000000000000000000000000000000000000000000000000000000000000000000000000000000000000000000000000000000000000000000000000000000000000000000000000000000000000000000000000000000000000000000000000000000000000000000000000000000000000000000000000000000000000000000000000000000000000000000000000000000000000000000000000000000000000000000000000000000000000000000000000000000000000000000000000000000000000000000000000000000000000000000000000000000000000000000000000000000000000000000000000000000000000",
      "type": "0x2",
      "transactionHash": "0x87722ca4367db9aee9e9be3336629b0fbc7d5030cc714b560e845a256a59e9a2",
      "transactionIndex": "0x1",
      "blockHash": "0x50e35fed7a6a009cd7dd4e74d5f6b28a4c23f8ca1a10c2269e4c823cc8c26c2a",
      "blockNumber": "0x1f89010",
      "gasUsed": "0xbf42484",
      "effectiveGasPrice": "0x132b3a0",
      "from": "0x1234562eb0cd65e7d08e59f9f18d7c10b5df232a",
      "to": "0x493be13415bf36d997f40aac50c264d855c7f869",
      "contractAddress": null,
      "l1Fee": "0xa735c",
      "l1FeeScalar": "0.01",
      "l1GasPrice": "0x8",
      "l1GasUsed": "0xb80",
      "tokenRatio": "0xb5c"
    },
    {
      "status": "0x1",
      "cumulativeGasUsed": "0xbf4db7d",
      "logs": [],
      "logsBloom": "0x00000000000000000000000000000000000000000000000000000000000000000000000000000000000000000000000000000000000000000000000000000000000000000000000000000000000000000000000000000000000000000000000000000000000000000000000000000000000000000000000000000000000000000000000000000000000000000000000000000000000000000000000000000000000000000000000000000000000000000000000000000000000000000000000000000000000000000000000000000000000000000000000000000000000000000000000000000000000000000000000000000000000000000000000000000000",
      "type": "0x2",
      "transactionHash": "0x4e7fbb4eb9b78e626bde3eeaafa379ad4f817399060891ca90826b858262809d",
      "transactionIndex": "0x1",
      "blockHash": "0x6024a2a5d28aa7f03aaedded8568b81b730b8b17f5b3c11d8cafee1cdcf1a98c",
      "blockNumber": "0x1f89012",
      "gasUsed": "0xbf42484",
      "effectiveGasPrice": "0x132b3a0",
      "from": "0x1234562eb0cd65e7d08e59f9f18d7c10b5df232a",
      "to": "0x493be13415bf36d997f40aac50c264d855c7f869",
      "contractAddress": null,
      "l1Fee": "0xa7e43",
      "l1FeeScalar": "0.01",
      "l1GasPrice": "0x8",
      "l1GasUsed": "0xb8c",
      "tokenRatio": "0xb5c"
    },
    {
      "status": "0x1",
      "cumulativeGasUsed": "0xbf46a7e",
      "logs": [],
      "logsBloom": "0x00000000000000000000000000000000000000000000000000000000000000000000000000000000000000000000000000000000000000000000000000000000000000000000000000000000000000000000000000000000000000000000000000000000000000000000000000000000000000000000000000000000000000000000000000000000000000000000000000000000000000000000000000000000000000000000000000000000000000000000000000000000000000000000000000000000000000000000000000000000000000000000000000000000000000000000000000000000000000000000000000000000000000000000000000000000",
      "type": "0x2",
      "transactionHash": "0x13d577f243127a6aef6f93ce003112a09201fd176190c63b35dcb1ec9cad2e6c",
      "transactionIndex": "0x1",
      "blockHash": "0x602f520316aaf83f162466b6fd5e0b8b4e341501e165abc98a61d8b3da65d41c",
      "blockNumber": "0x1f89014",
      "gasUsed": "0xbf39db1",
      "effectiveGasPrice": "0x132b3a0",
      "from": "0x1234562eb0cd65e7d08e59f9f18d7c10b5df232a",
      "to": "0x493be13415bf36d997f40aac50c264d855c7f869",
      "contractAddress": null,
      "l1Fee": "0xa735c",
      "l1FeeScalar": "0.01",
      "l1GasPrice": "0x8",
      "l1GasUsed": "0xb80",
      "tokenRatio": "0xb5c"
    },
    {
      "status": "0x1",
      "cumulativeGasUsed": "0xbf4db7d",
      "logs": [],
      "logsBloom": "0x00000000000000000000000000000000000000000000000000000000000000000000000000000000000000000000000000000000000000000000000000000000000000000000000000000000000000000000000000000000000000000000000000000000000000000000000000000000000000000000000000000000000000000000000000000000000000000000000000000000000000000000000000000000000000000000000000000000000000000000000000000000000000000000000000000000000000000000000000000000000000000000000000000000000000000000000000000000000000000000000000000000000000000000000000000000",
      "type": "0x2",
      "transactionHash": "0x940ade5f2b34675d2e8513566a47b4ede94929d4d28386f7a36924b020d30174",
      "transactionIndex": "0x1",
      "blockHash": "0x672f11d3a99e2acab5835aa39e78b131e498ff66da46bcd77c56ddca9d8efb22",
      "blockNumber": "0x1f89016",
      "gasUsed": "0xbf42484",
      "effectiveGasPrice": "0x132b3a0",
      "from": "0x1234562eb0cd65e7d08e59f9f18d7c10b5df232a",
      "to": "0x493be13415bf36d997f40aac50c264d855c7f869",
      "contractAddress": null,
      "l1Fee": "0xa735c",
      "l1FeeScalar": "0.01",
      "l1GasPrice": "0x8",
      "l1GasUsed": "0xb80",
      "tokenRatio": "0xb5c"
    },
    {
      "status": "0x1",
      "cumulativeGasUsed": "0xbf4db7d",
      "logs": [],
      "logsBloom": "0x00000000000000000000000000000000000000000000000000000000000000000000000000000000000000000000000000000000000000000000000000000000000000000000000000000000000000000000000000000000000000000000000000000000000000000000000000000000000000000000000000000000000000000000000000000000000000000000000000000000000000000000000000000000000000000000000000000000000000000000000000000000000000000000000000000000000000000000000000000000000000000000000000000000000000000000000000000000000000000000000000000000000000000000000000000000",
      "type": "0x2",
      "transactionHash": "0x562e12398806069ab7b2dfe33338e73c8bb4ba0cc21fdd81229abec42ef1392a",
      "transactionIndex": "0x1",
      "blockHash": "0xff033bf85f350378c3e7f71b31b02b1aa9cd7d9f7904027a7df22db3f81aeb5b",
      "blockNumber": "0x1f89018",
      "gasUsed": "0xbf42484",
      "effectiveGasPrice": "0x132b3a0",
      "from": "0x1234562eb0cd65e7d08e59f9f18d7c10b5df232a",
      "to": "0x493be13415bf36d997f40aac50c264d855c7f869",
      "contractAddress": null,
      "l1Fee": "0xa735c",
      "l1FeeScalar": "0.01",
      "l1GasPrice": "0x8",
      "l1GasUsed": "0xb80",
      "tokenRatio": "0xb5c"
    }
  ],
  "libraries": [],
  "pending": [
    "0x9fd01708934ef491a7062d3ec447d62b222ef99829079cdf377edb68849a6f7f"
  ],
  "returns": {},
  "timestamp": 1767678742091,
  "chain": 5003,
  "commit": "188670f"
}