{
  "transactions": [
    {
      "hash": "0xf60a53136c3240b162a40cfe7ffc3b7028366a32aedc3bf3dce89e3b45b34b1f",
      "transactionType": "CREATE",
      "contractName": "MockSwapRouter",
      "contractAddress": "0xc8f83c65d3f2987c2ac3abc7650f47af8093ba80",
      "function": null,
      "arguments": [
        "0xf4dDf7D2F7dD24b4A0a24Bc6B91A2DE5e8873B6c",
        "0x19f5557E23e9914A18239990f6C70D68FDF0deD5"
      ],
      "transaction": {
        "from": "0x1234562eb0cd65e7d08e59f9f18d7c10b5df232a",
        "gas": "0x883bf75f",
        "value": "0x0",
        "input": "0x60c0346100b257601f61087a38819003918201601f19168301916001600160401b038311848410176100b65780849260409485528339810103126100b257610052602061004b836100ca565b92016100ca565b5f80546001600160a01b03191633908117825560405193917f8be0079c531659141344cd1fd0a4f28419497f9722a3daafe3b4186f6b6457e08180a360805260a05261079b90816100df8239608051816101bc015260a051816102690152f35b5f80fd5b634e487b7160e01b5f52604160045260245ffd5b51906001600160a01b03821682036100b25756fe6080604052600436101561001a575b3615610018575f80fd5b005b5f3560e01c80631dbec117146104c657806328af4ca414610431578063338b5dea146103ff578063414bf389146102985780634aa4a4fc146102545780638da5cb5b1461022d5780639e281a98146101eb578063c45a0155146101a7578063eedc966a146101125763f2fde38b0361000e57346100ff5760203660031901126100ff576100a561051d565b5f546001600160a01b0381169133839003610103576001600160a01b03169182156100ff5782907f8be0079c531659141344cd1fd0a4f28419497f9722a3daafe3b4186f6b6457e05f80a36001600160a01b031916175f55005b5f80fd5b635fc483c560e01b5f5260045ffd5b346100ff5760203660031901126100ff57602460206001600160a01b0361013761051d565b16604051928380926370a0823160e01b82523060048301525afa801561019c575f90610169575b602090604051908152f35b506020813d602011610194575b816101836020938361058b565b810103126100ff576020905161015e565b3d9150610176565b6040513d5f823e3d90fd5b346100ff575f3660031901126100ff576040517f00000000000000000000000000000000000000000000000000000000000000006001600160a01b03168152602090f35b346100ff5760403660031901126100ff5761020461051d565b5f546001600160a01b0316330361010357610018906024359033906001600160a01b03166106b6565b346100ff575f3660031901126100ff575f546040516001600160a01b039091168152602090f35b346100ff575f3660031901126100ff576040517f00000000000000000000000000000000000000000000000000000000000000006001600160a01b03168152602090f35b6101003660031901126100ff5760843542116103c4576001600160a01b036102be610549565b165f52600160205260405f206102d261055f565b60018060a01b03165f5260205260ff60405f205416156103b5576001600160a01b036102fc610549565b1661030e60a4358092309033906105d9565b60c43581106103a65760209061033d816001600160a01b0361032e61055f565b16610337610575565b906106b6565b610345610549565b61034d61055f565b7fee4825a7988c5519a874be79f2a84d13d02cfe5f74cad97cda2d5b55d2b13bfa6060610378610575565b604080518781528881018890526001600160a01b0392831691810191909152938116941692a3604051908152f35b6342301c2360e01b5f5260045ffd5b637e99d8bb60e01b5f5260045ffd5b60405162461bcd60e51b8152602060048201526013602482015272151c985b9cd858dd1a5bdb881d1bdbc81bdb19606a1b6044820152606490fd5b346100ff5760403660031901126100ff5761001861041b61051d565b60243590309033906001600160a01b03166105d9565b346100ff5760603660031901126100ff5761044a61051d565b610452610533565b906044359081151582036100ff575f546001600160a01b03163303610103576001600160a01b039081165f818152600160208181526040808420979095168352958652838220805495151560ff1660ff19968716811790915590865283822092825291909452922080549091169091179055005b346100ff5760403660031901126100ff576104df61051d565b6104e7610533565b9060018060a01b03165f52600160205260405f209060018060a01b03165f52602052602060ff60405f2054166040519015158152f35b600435906001600160a01b03821682036100ff57565b602435906001600160a01b03821682036100ff57565b6004356001600160a01b03811681036100ff5790565b6024356001600160a01b03811681036100ff5790565b6064356001600160a01b03811681036100ff5790565b90601f8019910116810190811067ffffffffffffffff8211176105ad57604052565b634e487b7160e01b5f52604160045260245ffd5b908160209103126100ff575180151581036100ff5790565b90916001600160a01b03169081156106a7576040516323b872dd60e01b81526001600160a01b0393841660048201526024810192909252604482019390935291602091839160649183915f91165af190811561019c575f91610678575b501561063e57565b60405162461bcd60e51b81526020600482015260126024820152711514905394d1915497d19493d357d190525360721b6044820152606490fd5b61069a915060203d6020116106a0575b610692818361058b565b8101906105c1565b5f610636565b503d610688565b63d92e233d60e01b5f5260045ffd5b916001600160a01b039091169081156106a75760405163a9059cbb60e01b81526004810192909252602482015290602090829060449082905f906001600160a01b03165af190811561019c575f91610746575b501561071157565b60405162461bcd60e51b815260206004820152600d60248201526c1514905394d1915497d1905253609a1b6044820152606490fd5b61075f915060203d6020116106a057610692818361058b565b5f61070956fea264697066735822122043c6b677b222ba3ad6a25b52fb2f9a6d2c8e551cf5790746a41f8b1063e703d664736f6c634300081e0033000000000000000000000000f4ddf7d2f7dd24b4a0a24bc6b91a2de5e8873b6c00000000000000000000000019f5557e23e9914a18239990f6c70d68fdf0ded5",
        "nonce": "0x380",
        "chainId": "0x138b"
      },
      "additionalContracts": [],
      "isFixedGasLimit": false
    },
    {
      "hash": "0x265b4a3c55034a312a07722964415467ea1426a7974ec589b545a526604c4113",
      "transactionType": "CALL",
      "contractName": "MockSwapRouter",
      "contractAddress": "0xc8f83c65d3f2987c2ac3abc7650f47af8093ba80",
      "function": "setSwapEnabled(address,address,bool)",
      "arguments": [
        "0x33c6f26dA09502E6540043f030aE1F87f109cc99",
        "0x7CB382Ce1AA40FA9F9A59a632090c05Dc28caE7b",
        "true"
      ],
      "transaction": {
        "from": "0x1234562eb0cd65e7d08e59f9f18d7c10b5df232a",
        "to": "0xc8f83c65d3f2987c2ac3abc7650f47af8093ba80",
        "gas": "0x657292a",
        "value": "0x0",
        "input": "0x28af4ca400000000000000000000000033c6f26da09502e6540043f030ae1f87f109cc990000000000000000000000007cb382ce1aa40fa9f9a59a632090c05dc28cae7b0000000000000000000000000000000000000000000000000000000000000001",
        "nonce": "0x381",
        "chainId": "0x138b"
      },
      "additionalContracts": [],
      "isFixedGasLimit": false
    },
    {
      "hash": "0xaacc84b318dcc51a35b284b19c14bcfd2f342fef096713775fb00a332aae7230",
      "transactionType": "CALL",
      "contractName": "MockSwapRouter",
      "contractAddress": "0xc8f83c65d3f2987c2ac3abc7650f47af8093ba80",
      "function": "setSwapEnabled(address,address,bool)",
      "arguments": [
        "0x33c6f26dA09502E6540043f030aE1F87f109cc99",
        "0xB288Ba5B5b80Dd0Fd83541ef2e5922f71121Fa13",
        "true"
      ],
      "transaction": {
        "from": "0x1234562eb0cd65e7d08e59f9f18d7c10b5df232a",
        "to": "0xc8f83c65d3f2987c2ac3abc7650f47af8093ba80",
        "gas": "0x657292a",
        "value": "0x0",
        "input": "0x28af4ca400000000000000000000000033c6f26da09502e6540043f030ae1f87f109cc99000000000000000000000000b288ba5b5b80dd0fd83541ef2e5922f71121fa130000000000000000000000000000000000000000000000000000000000000001",
        "nonce": "0x382",
        "chainId": "0x138b"
      },
      "additionalContracts": [],
      "isFixedGasLimit": false
    },
    {
      "hash": "0x3eb2aae5fd82acd8e2346bbd2e48875a1276e8d801d9122586ccc4f77e5f5784",
      "transactionType": "CALL",
      "contractName": "MockSwapRouter",
      "contractAddress": "0xc8f83c65d3f2987c2ac3abc7650f47af8093ba80",
      "function": "setSwapEnabled(address,address,bool)",
      "arguments": [
        "0x33c6f26dA09502E6540043f030aE1F87f109cc99",
        "0xC4a53c466Cfb62AecED03008B0162baaf36E0B03",
        "true"
      ],
      "transaction": {
        "from": "0x1234562eb0cd65e7d08e59f9f18d7c10b5df232a",
        "to": "0xc8f83c65d3f2987c2ac3abc7650f47af8093ba80",
        "gas": "0x657292a",
        "value": "0x0",
        "input": "0x28af4ca400000000000000000000000033c6f26da09502e6540043f030ae1f87f109cc99000000000000000000000000c4a53c466cfb62aeced03008b0162baaf36e0b030000000000000000000000000000000000000000000000000000000000000001",
        "nonce": "0x383",
        "chainId": "0x138b"
      },
      "additionalContracts": [],
      "isFixedGasLimit": false
    },
    {
      "hash": "0xf53399ff678d920a95ff2596c4e7a8d252bd2916e28823fd282ff0f66cb7df59",
      "transactionType": "CALL",
      "contractName": "MockSwapRouter",
      "contractAddress": "0xc8f83c65d3f2987c2ac3abc7650f47af8093ba80",
      "function": "setSwapEnabled(address,address,bool)",
      "arguments": [
        "0x33c6f26dA09502E6540043f030aE1F87f109cc99",
        "0x70Db6eFB75c898Ad1e194FDA2B8C6e73dbC944d6",
        "true"
      ],
      "transaction": {
        "from": "0x1234562eb0cd65e7d08e59f9f18d7c10b5df232a",
        "to": "0xc8f83c65d3f2987c2ac3abc7650f47af8093ba80",
        "gas": "0x657292a",
        "value": "0x0",
        "input": "0x28af4ca400000000000000000000000033c6f26da09502e6540043f030ae1f87f109cc9900000000000000000000000070db6efb75c898ad1e194fda2b8c6e73dbc944d60000000000000000000000000000000000000000000000000000000000000001",
        "nonce": "0x384",
        "chainId": "0x138b"
      },
      "additionalContracts": [],
      "isFixedGasLimit": false
    },
    {
      "hash": "0x96bef516f48aa755bdcbe8ee795fa84b3f5b7313188c95b1d48e445d1d7ba2a0",
      "transactionType": "CALL",
      "contractName": "MockSwapRouter",
      "contractAddress": "0xc8f83c65d3f2987c2ac3abc7650f47af8093ba80",
      "function": "setSwapEnabled(address,address,bool)",
      "arguments": [
        "0x33c6f26dA09502E6540043f030aE1F87f109cc99",
        "0xEE589FBF85128abA6f42696dB2F28eA9EBddE173",
        "true"
      ],
      "transaction": {
        "from": "0x1234562eb0cd65e7d08e59f9f18d7c10b5df232a",
        "to": "0xc8f83c65d3f2987c2ac3abc7650f47af8093ba80",
        "gas": "0x657292a",
        "value": "0x0",
        "input": "0x28af4ca400000000000000000000000033c6f26da09502e6540043f030ae1f87f109cc99000000000000000000000000ee589fbf85128aba6f42696db2f28ea9ebdde1730000000000000000000000000000000000000000000000000000000000000001",
        "nonce": "0x385",
        "chainId": "0x138b"
      },
      "additionalContracts": [],
      "isFixedGasLimit": false
    },
    {
      "hash": "0xf35a6dd622e73df25ae6b9a9c99dbc935e53411d3669e921792b359cfeecd7ce",
      "transactionType": "CALL",
      "contractName": "MockSwapRouter",
      "contractAddress": "0xc8f83c65d3f2987c2ac3abc7650f47af8093ba80",
      "function": "setSwapEnabled(address,address,bool)",
      "arguments": [
        "0x33c6f26dA09502E6540043f030aE1F87f109cc99",
        "0x2C036be74942c597e4d81D7050008dDc11becCEb",
        "true"
      ],
      "transaction": {
        "from": "0x1234562eb0cd65e7d08e59f9f18d7c10b5df232a",
        "to": "0xc8f83c65d3f2987c2ac3abc7650f47af8093ba80",
        "gas": "0x655129f",
        "value": "0x0",
        "input": "0x28af4ca400000000000000000000000033c6f26da09502e6540043f030ae1f87f109cc990000000000000000000000002c036be74942c597e4d81d7050008ddc11becceb0000000000000000000000000000000000000000000000000000000000000001",
        "nonce": "0x386",
        "chainId": "0x138b"
      },
      "additionalContracts": [],
      "isFixedGasLimit": false
    },
    {
      "hash": "0x9477334f45bfd34164380e3c8a89d14471bbf1dd466b8758aa1842abdceda98b",
      "transactionType": "CALL",
      "contractName": "MockSwapRouter",
      "contractAddress": "0xc8f83c65d3f2987c2ac3abc7650f47af8093ba80",
      "function": "setSwapEnabled(address,address,bool)",
      "arguments": [
        "0x33c6f26dA09502E6540043f030aE1F87f109cc99",
        "0x90CdcBF4c4bc78dC440252211EFd744d0A4Dc4A1",
        "true"
      ],
      "transaction": {
        "from": "0x1234562eb0cd65e7d08e59f9f18d7c10b5df232a",
        "to": "0xc8f83c65d3f2987c2ac3abc7650f47af8093ba80",
        "gas": "0x657292a",
        "value": "0x0",
        "input": "0x28af4ca400000000000000000000000033c6f26da09502e6540043f030ae1f87f109cc9900000000000000000000000090cdcbf4c4bc78dc440252211efd744d0a4dc4a10000000000000000000000000000000000000000000000000000000000000001",
        "nonce": "0x387",
        "chainId": "0x138b"
      },
      "additionalContracts": [],
      "isFixedGasLimit": false
    },
    {
      "hash": "0x7529ec7ecfae7950b5c4120444c9a9f6396ef09092d797fe469aedb0e30930ed",
      "transactionType": "CALL",
      "contractName": "MockSwapRouter",
      "contractAddress": "0xc8f83c65d3f2987c2ac3abc7650f47af8093ba80",
      "function": "setSwapEnabled(address,address,bool)",
      "arguments": [
        "0x33c6f26dA09502E6540043f030aE1F87f109cc99",
        "0xced6Ceb47301F268d57fF07879DF45Fda80e6974",
        "true"
      ],
      "transaction": {
        "from": "0x1234562eb0cd65e7d08e59f9f18d7c10b5df232a",
        "to": "0xc8f83c65d3f2987c2ac3abc7650f47af8093ba80",
        "gas": "0x657292a",
        "value": "0x0",
        "input": "0x28af4ca400000000000000000000000033c6f26da09502e6540043f030ae1f87f109cc99000000000000000000000000ced6ceb47301f268d57ff07879df45fda80e69740000000000000000000000000000000000000000000000000000000000000001",
        "nonce": "0x388",
        "chainId": "0x138b"
      },
      "additionalContracts": [],
      "isFixedGasLimit": false
    },
    {
      "hash": "0x195504b87b8b09f83d5cb922afa06d8843dc27bf135c3b65882cb36e0a54e11d",
      "transactionType": "CALL",
      "contractName": "MockSwapRouter",
      "contractAddress": "0xc8f83c65d3f2987c2ac3abc7650f47af8093ba80",
      "function": "setSwapEnabled(address,address,bool)",
      "arguments": [
        "0x33c6f26dA09502E6540043f030aE1F87f109cc99",
        "0x782Ba48189AF93a0CF42766058DE83291f384bF3",
        "true"
      ],
      "transaction": {
        "from": "0x1234562eb0cd65e7d08e59f9f18d7c10b5df232a",
        "to": "0xc8f83c65d3f2987c2ac3abc7650f47af8093ba80",
        "gas": "0x657292a",
        "value": "0x0",
        "input": "0x28af4ca400000000000000000000000033c6f26da09502e6540043f030ae1f87f109cc99000000000000000000000000782ba48189af93a0cf42766058de83291f384bf30000000000000000000000000000000000000000000000000000000000000001",
        "nonce": "0x389",
        "chainId": "0x138b"
      },
      "additionalContracts": [],
      "isFixedGasLimit": false
    },
    {
      "hash": "0x0d55c9f8660d7b2429c1d6d5ab70bc2a2af86c80a247e5d111db8eb3a904c470",
      "transactionType": "CALL",
      "contractName": "MockSwapRouter",
      "contractAddress": "0xc8f83c65d3f2987c2ac3abc7650f47af8093ba80",
      "function": "setSwapEnabled(address,address,bool)",
      "arguments": [
        "0x7CB382Ce1AA40FA9F9A59a632090c05Dc28caE7b",
        "0xB288Ba5B5b80Dd0Fd83541ef2e5922f71121Fa13",
        "true"
      ],
      "transaction": {
        "from": "0x1234562eb0cd65e7d08e59f9f18d7c10b5df232a",
        "to": "0xc8f83c65d3f2987c2ac3abc7650f47af8093ba80",
        "gas": "0x6593fb7",
        "value": "0x0",
        "input": "0x28af4ca40000000000000000000000007cb382ce1aa40fa9f9a59a632090c05dc28cae7b000000000000000000000000b288ba5b5b80dd0fd83541ef2e5922f71121fa130000000000000000000000000000000000000000000000000000000000000001",
        "nonce": "0x38a",
        "chainId": "0x138b"
      },
      "additionalContracts": [],
      "isFixedGasLimit": false
    },
    {
      "hash": "0x83133174b3763bf7d64436a7d29f6eb7eb7b4c9b03f905dc7fec0ff9e0677cb2",
      "transactionType": "CALL",
      "contractName": "MockSwapRouter",
      "contractAddress": "0xc8f83c65d3f2987c2ac3abc7650f47af8093ba80",
      "function": "setSwapEnabled(address,address,bool)",
      "arguments": [
        "0x7CB382Ce1AA40FA9F9A59a632090c05Dc28caE7b",
        "0xC4a53c466Cfb62AecED03008B0162baaf36E0B03",
        "true"
      ],
      "transaction": {
        "from": "0x1234562eb0cd65e7d08e59f9f18d7c10b5df232a",
        "to": "0xc8f83c65d3f2987c2ac3abc7650f47af8093ba80",
        "gas": "0x6593fb7",
        "value": "0x0",
        "input": "0x28af4ca40000000000000000000000007cb382ce1aa40fa9f9a59a632090c05dc28cae7b000000000000000000000000c4a53c466cfb62aeced03008b0162baaf36e0b030000000000000000000000000000000000000000000000000000000000000001",
        "nonce": "0x38b",
        "chainId": "0x138b"
      },
      "additionalContracts": [],
      "isFixedGasLimit": false
    },
    {
      "hash": "0x9d1791fd412371c002a50eb9aacc48a772f2178960ff33d887962a71949ad5a7",
      "transactionType": "CALL",
      "contractName": "MockSwapRouter",
      "contractAddress": "0xc8f83c65d3f2987c2ac3abc7650f47af8093ba80",
      "function": "setSwapEnabled(address,address,bool)",
      "arguments": [
        "0x7CB382Ce1AA40FA9F9A59a632090c05Dc28caE7b",
        "0x70Db6eFB75c898Ad1e194FDA2B8C6e73dbC944d6",
        "true"
      ],
      "transaction": {
        "from": "0x1234562eb0cd65e7d08e59f9f18d7c10b5df232a",
        "to": "0xc8f83c65d3f2987c2ac3abc7650f47af8093ba80",
        "gas": "0x6593fb7",
        "value": "0x0",
        "input": "0x28af4ca40000000000000000000000007cb382ce1aa40fa9f9a59a632090c05dc28cae7b00000000000000000000000070db6efb75c898ad1e194fda2b8c6e73dbc944d60000000000000000000000000000000000000000000000000000000000000001",
        "nonce": "0x38c",
        "chainId": "0x138b"
      },
      "additionalContracts": [],
      "isFixedGasLimit": false
    },
    {
      "hash": "0xc0345fbf423bc2615dcb0492da25f9da4b263f2c676f0c8d624e22fa701d07cf",
      "transactionType": "CALL",
      "contractName": "MockSwapRouter",
      "contractAddress": "0xc8f83c65d3f2987c2ac3abc7650f47af8093ba80",
      "function": "setSwapEnabled(address,address,bool)",
      "arguments": [
        "0x7CB382Ce1AA40FA9F9A59a632090c05Dc28caE7b",
        "0xEE589FBF85128abA6f42696dB2F28eA9EBddE173",
        "true"
      ],
      "transaction": {
        "from": "0x1234562eb0cd65e7d08e59f9f18d7c10b5df232a",
        "to": "0xc8f83c65d3f2987c2ac3abc7650f47af8093ba80",
        "gas": "0x6593fb7",
        "value": "0x0",
        "input": "0x28af4ca40000000000000000000000007cb382ce1aa40fa9f9a59a632090c05dc28cae7b000000000000000000000000ee589fbf85128aba6f42696db2f28ea9ebdde1730000000000000000000000000000000000000000000000000000000000000001",
        "nonce": "0x38d",
        "chainId": "0x138b"
      },
      "additionalContracts": [],
      "isFixedGasLimit": false
    },
    {
      "hash": "0x068228712c4a2f6b0a547fa452445d0f10fdc601a1bb7a6b235310092a1e360f",
      "transactionType": "CALL",
      "contractName": "MockSwapRouter",
      "contractAddress": "0xc8f83c65d3f2987c2ac3abc7650f47af8093ba80",
      "function": "setSwapEnabled(address,address,bool)",
      "arguments": [
        "0x7CB382Ce1AA40FA9F9A59a632090c05Dc28caE7b",
        "0x2C036be74942c597e4d81D7050008dDc11becCEb",
        "true"
      ],
      "transaction": {
        "from": "0x1234562eb0cd65e7d08e59f9f18d7c10b5df232a",
        "to": "0xc8f83c65d3f2987c2ac3abc7650f47af8093ba80",
        "gas": "0x657292a",
        "value": "0x0",
        "input": "0x28af4ca40000000000000000000000007cb382ce1aa40fa9f9a59a632090c05dc28cae7b0000000000000000000000002c036be74942c597e4d81d7050008ddc11becceb0000000000000000000000000000000000000000000000000000000000000001",
        "nonce": "0x38e",
        "chainId": "0x138b"
      },
      "additionalContracts": [],
      "isFixedGasLimit": false
    },
    {
      "hash": "0xd8b56147082cdb46caf3e919e2f6c259e4437f271cd7cf5bab79eddcc6bfd63f",
      "transactionType": "CALL",
      "contractName": "MockSwapRouter",
      "contractAddress": "0xc8f83c65d3f2987c2ac3abc7650f47af8093ba80",
      "function": "setSwapEnabled(address,address,bool)",
      "arguments": [
        "0x7CB382Ce1AA40FA9F9A59a632090c05Dc28caE7b",
        "0x90CdcBF4c4bc78dC440252211EFd744d0A4Dc4A1",
        "true"
      ],
      "transaction": {
        "from": "0x1234562eb0cd65e7d08e59f9f18d7c10b5df232a",
        "to": "0xc8f83c65d3f2987c2ac3abc7650f47af8093ba80",
        "gas": "0x6593fb7",
        "value": "0x0",
        "input": "0x28af4ca40000000000000000000000007cb382ce1aa40fa9f9a59a632090c05dc28cae7b00000000000000000000000090cdcbf4c4bc78dc440252211efd744d0a4dc4a10000000000000000000000000000000000000000000000000000000000000001",
        "nonce": "0x38f",
        "chainId": "0x138b"
      },
      "additionalContracts": [],
      "isFixedGasLimit": false
    },
    {
      "hash": "0x47d1491a379a794ac1ba580e3af48d445da2f2a2ee32bb83c3800b5359837a1d",
      "transactionType": "CALL",
      "contractName": "MockSwapRouter",
      "contractAddress": "0xc8f83c65d3f2987c2ac3abc7650f47af8093ba80",
      "function": "setSwapEnabled(address,address,bool)",
      "arguments": [
        "0x7CB382Ce1AA40FA9F9A59a632090c05Dc28caE7b",
        "0xced6Ceb47301F268d57fF07879DF45Fda80e6974",
        "true"
      ],
      "transaction": {
        "from": "0x1234562eb0cd65e7d08e59f9f18d7c10b5df232a",
        "to": "0xc8f83c65d3f2987c2ac3abc7650f47af8093ba80",
        "gas": "0x6593fb7",
        "value": "0x0",
        "input": "0x28af4ca40000000000000000000000007cb382ce1aa40fa9f9a59a632090c05dc28cae7b000000000000000000000000ced6ceb47301f268d57ff07879df45fda80e69740000000000000000000000000000000000000000000000000000000000000001",
        "nonce": "0x390",
        "chainId": "0x138b"
      },
      "additionalContracts": [],
      "isFixedGasLimit": false
    },
    {
      "hash": "0xd47f716cdb7578ca1e47c8d020af0dd247652d60685d309cb17c0638a36f75cd",
      "transactionType": "CALL",
      "contractName": "MockSwapRouter",
      "contractAddress": "0xc8f83c65d3f2987c2ac3abc7650f47af8093ba80",
      "function": "setSwapEnabled(address,address,bool)",
      "arguments": [
        "0x7CB382Ce1AA40FA9F9A59a632090c05Dc28caE7b",
        "0x782Ba48189AF93a0CF42766058DE83291f384bF3",
        "true"
      ],
      "transaction": {
        "from": "0x1234562eb0cd65e7d08e59f9f18d7c10b5df232a",
        "to": "0xc8f83c65d3f2987c2ac3abc7650f47af8093ba80",
        "gas": "0x6593fb7",
        "value": "0x0",
        "input": "0x28af4ca40000000000000000000000007cb382ce1aa40fa9f9a59a632090c05dc28cae7b000000000000000000000000782ba48189af93a0cf42766058de83291f384bf30000000000000000000000000000000000000000000000000000000000000001",
        "nonce": "0x391",
        "chainId": "0x138b"
      },
      "additionalContracts": [],
      "isFixedGasLimit": false
    },
    {
      "hash": "0x1d10e7bdd1b0bc177f133670b6dc5095d02c6eee1e10e2fafd0f261fc075ab83",
      "transactionType": "CALL",
      "contractName": "MockSwapRouter",
      "contractAddress": "0xc8f83c65d3f2987c2ac3abc7650f47af8093ba80",
      "function": "setSwapEnabled(address,address,bool)",
      "arguments": [
        "0xB288Ba5B5b80Dd0Fd83541ef2e5922f71121Fa13",
        "0xC4a53c466Cfb62AecED03008B0162baaf36E0B03",
        "true"
      ],
      "transaction": {
        "from": "0x1234562eb0cd65e7d08e59f9f18d7c10b5df232a",
        "to": "0xc8f83c65d3f2987c2ac3abc7650f47af8093ba80",
        "gas": "0x6593fb7",
        "value": "0x0",
        "input": "0x28af4ca4000000000000000000000000b288ba5b5b80dd0fd83541ef2e5922f71121fa13000000000000000000000000c4a53c466cfb62aeced03008b0162baaf36e0b030000000000000000000000000000000000000000000000000000000000000001",
        "nonce": "0x392",
        "chainId": "0x138b"
      },
      "additionalContracts": [],
      "isFixedGasLimit": false
    },
    {
      "hash": "0xa6a28a1fc349a50681e9673e262516d316566783b6faaed80bf1e9a79d4d8b06",
      "transactionType": "CALL",
      "contractName": "MockSwapRouter",
      "contractAddress": "0xc8f83c65d3f2987c2ac3abc7650f47af8093ba80",
      "function": "setSwapEnabled(address,address,bool)",
      "arguments": [
        "0xB288Ba5B5b80Dd0Fd83541ef2e5922f71121Fa13",
        "0x70Db6eFB75c898Ad1e194FDA2B8C6e73dbC944d6",
        "true"
      ],
      "transaction": {
        "from": "0x1234562eb0cd65e7d08e59f9f18d7c10b5df232a",
        "to": "0xc8f83c65d3f2987c2ac3abc7650f47af8093ba80",
        "gas": "0x6593fb7",
        "value": "0x0",
        "input": "0x28af4ca4000000000000000000000000b288ba5b5b80dd0fd83541ef2e5922f71121fa1300000000000000000000000070db6efb75c898ad1e194fda2b8c6e73dbc944d60000000000000000000000000000000000000000000000000000000000000001",
        "nonce": "0x393",
        "chainId": "0x138b"
      },
      "additionalContracts": [],
      "isFixedGasLimit": false
    },
    {
      "hash": "0xd36ed00cb2db0453e5703c14cd241c7308cb7ebb5452a80f88299616c09cef52",
      "transactionType": "CALL",
      "contractName": "MockSwapRouter",
      "contractAddress": "0xc8f83c65d3f2987c2ac3abc7650f47af8093ba80",
      "function": "setSwapEnabled(address,address,bool)",
      "arguments": [
        "0xB288Ba5B5b80Dd0Fd83541ef2e5922f71121Fa13",
        "0xEE589FBF85128abA6f42696dB2F28eA9EBddE173",
        "true"
      ],
      "transaction": {
        "from": "0x1234562eb0cd65e7d08e59f9f18d7c10b5df232a",
        "to": "0xc8f83c65d3f2987c2ac3abc7650f47af8093ba80",
        "gas": "0x6593fb7",
        "value": "0x0",
        "input": "0x28af4ca4000000000000000000000000b288ba5b5b80dd0fd83541ef2e5922f71121fa13000000000000000000000000ee589fbf85128aba6f42696db2f28ea9ebdde1730000000000000000000000000000000000000000000000000000000000000001",
        "nonce": "0x394",
        "chainId": "0x138b"
      },
      "additionalContracts": [],
      "isFixedGasLimit": false
    },
    {
      "hash": "0x0e8eb482f4c1785def7b7de39d31d6d159db02938a67ea2a02c4e93a0b056332",
      "transactionType": "CALL",
      "contractName": "MockSwapRouter",
      "contractAddress": "0xc8f83c65d3f2987c2ac3abc7650f47af8093ba80",
      "function": "setSwapEnabled(address,address,bool)",
      "arguments": [
        "0xB288Ba5B5b80Dd0Fd83541ef2e5922f71121Fa13",
        "0x2C036be74942c597e4d81D7050008dDc11becCEb",
        "true"
      ],
      "transaction": {
        "from": "0x1234562eb0cd65e7d08e59f9f18d7c10b5df232a",
        "to": "0xc8f83c65d3f2987c2ac3abc7650f47af8093ba80",
        "gas": "0x657292a",
        "value": "0x0",
        "input": "0x28af4ca4000000000000000000000000b288ba5b5b80dd0fd83541ef2e5922f71121fa130000000000000000000000002c036be74942c597e4d81d7050008ddc11becceb0000000000000000000000000000000000000000000000000000000000000001",
        "nonce": "0x395",
        "chainId": "0x138b"
      },
      "additionalContracts": [],
      "isFixedGasLimit": false
    },
    {
      "hash": "0xcd59f3c6204a4b6e5889e7c2cd63e7d26efed74189aa67e2d3688e00b7bb7b23",
      "transactionType": "CALL",
      "contractName": "MockSwapRouter",
      "contractAddress": "0xc8f83c65d3f2987c2ac3abc7650f47af8093ba80",
      "function": "setSwapEnabled(address,address,bool)",
      "arguments": [
        "0xB288Ba5B5b80Dd0Fd83541ef2e5922f71121Fa13",
        "0x90CdcBF4c4bc78dC440252211EFd744d0A4Dc4A1",
        "true"
      ],
      "transaction": {
        "from": "0x1234562eb0cd65e7d08e59f9f18d7c10b5df232a",
        "to": "0xc8f83c65d3f2987c2ac3abc7650f47af8093ba80",
        "gas": "0x6593fb7",
        "value": "0x0",
        "input": "0x28af4ca4000000000000000000000000b288ba5b5b80dd0fd83541ef2e5922f71121fa1300000000000000000000000090cdcbf4c4bc78dc440252211efd744d0a4dc4a10000000000000000000000000000000000000000000000000000000000000001",
        "nonce": "0x396",
        "chainId": "0x138b"
      },
      "additionalContracts": [],
      "isFixedGasLimit": false
    },
    {
      "hash": "0x4a3f841788d51ed265c5a7746916b3acd01c518676b17c5a8405b1ebbdac1588",
      "transactionType": "CALL",
      "contractName": "MockSwapRouter",
      "contractAddress": "0xc8f83c65d3f2987c2ac3abc7650f47af8093ba80",
      "function": "setSwapEnabled(address,address,bool)",
      "arguments": [
        "0xB288Ba5B5b80Dd0Fd83541ef2e5922f71121Fa13",
        "0xced6Ceb47301F268d57fF07879DF45Fda80e6974",
        "true"
      ],
      "transaction": {
        "from": "0x1234562eb0cd65e7d08e59f9f18d7c10b5df232a",
        "to": "0xc8f83c65d3f2987c2ac3abc7650f47af8093ba80",
        "gas": "0x6593fb7",
        "value": "0x0",
        "input": "0x28af4ca4000000000000000000000000b288ba5b5b80dd0fd83541ef2e5922f71121fa13000000000000000000000000ced6ceb47301f268d57ff07879df45fda80e69740000000000000000000000000000000000000000000000000000000000000001",
        "nonce": "0x397",
        "chainId": "0x138b"
      },
      "additionalContracts": [],
      "isFixedGasLimit": false
    },
    {
      "hash": "0x92169beab81c8e935c63a1b58ad6dfb0ce4670f82024c53a29e4c53e749fda79",
      "transactionType": "CALL",
      "contractName": "MockSwapRouter",
      "contractAddress": "0xc8f83c65d3f2987c2ac3abc7650f47af8093ba80",
      "function": "setSwapEnabled(address,address,bool)",
      "arguments": [
        "0xB288Ba5B5b80Dd0Fd83541ef2e5922f71121Fa13",
        "0x782Ba48189AF93a0CF42766058DE83291f384bF3",
        "true"
      ],
      "transaction": {
        "from": "0x1234562eb0cd65e7d08e59f9f18d7c10b5df232a",
        "to": "0xc8f83c65d3f2987c2ac3abc7650f47af8093ba80",
        "gas": "0x6593fb7",
        "value": "0x0",
        "input": "0x28af4ca4000000000000000000000000b288ba5b5b80dd0fd83541ef2e5922f71121fa13000000000000000000000000782ba48189af93a0cf42766058de83291f384bf30000000000000000000000000000000000000000000000000000000000000001",
        "nonce": "0x398",
        "chainId": "0x138b"
      },
      "additionalContracts": [],
      "isFixedGasLimit": false
    },
    {
      "hash": "0x6ea02d65069def6f564fc483e2375ccb1a1a62d6278a0bb80baac6f3d4084438",
      "transactionType": "CALL",
      "contractName": "MockSwapRouter",
      "contractAddress": "0xc8f83c65d3f2987c2ac3abc7650f47af8093ba80",
      "function": "setSwapEnabled(address,address,bool)",
      "arguments": [
        "0xC4a53c466Cfb62AecED03008B0162baaf36E0B03",
        "0x70Db6eFB75c898Ad1e194FDA2B8C6e73dbC944d6",
        "true"
      ],
      "transaction": {
        "from": "0x1234562eb0cd65e7d08e59f9f18d7c10b5df232a",
        "to": "0xc8f83c65d3f2987c2ac3abc7650f47af8093ba80",
        "gas": "0x6593fb7",
        "value": "0x0",
        "input": "0x28af4ca4000000000000000000000000c4a53c466cfb62aeced03008b0162baaf36e0b0300000000000000000000000070db6efb75c898ad1e194fda2b8c6e73dbc944d60000000000000000000000000000000000000000000000000000000000000001",
        "nonce": "0x399",
        "chainId": "0x138b"
      },
      "additionalContracts": [],
      "isFixedGasLimit": false
    },
    {
      "hash": "0x5822d4aea13a8461ec008426a39b673fcd62c2f53633b547aa7f85b3c51bcac8",
      "transactionType": "CALL",
      "contractName": "MockSwapRouter",
      "contractAddress": "0xc8f83c65d3f2987c2ac3abc7650f47af8093ba80",
      "function": "setSwapEnabled(address,address,bool)",
      "arguments": [
        "0xC4a53c466Cfb62AecED03008B0162baaf36E0B03",
        "0xEE589FBF85128abA6f42696dB2F28eA9EBddE173",
        "true"
      ],
      "transaction": {
        "from": "0x1234562eb0cd65e7d08e59f9f18d7c10b5df232a",
        "to": "0xc8f83c65d3f2987c2ac3abc7650f47af8093ba80",
        "gas": "0x6593fb7",
        "value": "0x0",
        "input": "0x28af4ca4000000000000000000000000c4a53c466cfb62aeced03008b0162baaf36e0b03000000000000000000000000ee589fbf85128aba6f42696db2f28ea9ebdde1730000000000000000000000000000000000000000000000000000000000000001",
        "nonce": "0x39a",
        "chainId": "0x138b"
      },
      "additionalContracts": [],
      "isFixedGasLimit": false
    },
    {
      "hash": "0x6249dfe24d8e1b4382ede9c11ea1f5d5030482047da913f3b7b32ac405ee1acf",
      "transactionType": "CALL",
      "contractName": "MockSwapRouter",
      "contractAddress": "0xc8f83c65d3f2987c2ac3abc7650f47af8093ba80",
      "function": "setSwapEnabled(address,address,bool)",
      "arguments": [
        "0xC4a53c466Cfb62AecED03008B0162baaf36E0B03",
        "0x2C036be74942c597e4d81D7050008dDc11becCEb",
        "true"
      ],
      "transaction": {
        "from": "0x1234562eb0cd65e7d08e59f9f18d7c10b5df232a",
        "to": "0xc8f83c65d3f2987c2ac3abc7650f47af8093ba80",
        "gas": "0x657292a",
        "value": "0x0",
        "input": "0x28af4ca4000000000000000000000000c4a53c466cfb62aeced03008b0162baaf36e0b030000000000000000000000002c036be74942c597e4d81d7050008ddc11becceb0000000000000000000000000000000000000000000000000000000000000001",
        "nonce": "0x39b",
        "chainId": "0x138b"
      },
      "additionalContracts": [],
      "isFixedGasLimit": false
    },
    {
      "hash": "0x1f106cf9051781aa0aa8cea57c39d909c8995e048c7885f8c7e59a6bf8629d7c",
      "transactionType": "CALL",
      "contractName": "MockSwapRouter",
      "contractAddress": "0xc8f83c65d3f2987c2ac3abc7650f47af8093ba80",
      "function": "setSwapEnabled(address,address,bool)",
      "arguments": [
        "0xC4a53c466Cfb62AecED03008B0162baaf36E0B03",
        "0x90CdcBF4c4bc78dC440252211EFd744d0A4Dc4A1",
        "true"
      ],
      "transaction": {
        "from": "0x1234562eb0cd65e7d08e59f9f18d7c10b5df232a",
        "to": "0xc8f83c65d3f2987c2ac3abc7650f47af8093ba80",
        "gas": "0x6593fb7",
        "value": "0x0",
        "input": "0x28af4ca4000000000000000000000000c4a53c466cfb62aeced03008b0162baaf36e0b0300000000000000000000000090cdcbf4c4bc78dc440252211efd744d0a4dc4a10000000000000000000000000000000000000000000000000000000000000001",
        "nonce": "0x39c",
        "chainId": "0x138b"
      },
      "additionalContracts": [],
      "isFixedGasLimit": false
    },
    {
      "hash": "0x1f76712902db8e4689380ebb0c35d2c7b7c914335a1ca1bf1f590d5dc4104697",
      "transactionType": "CALL",
      "contractName": "MockSwapRouter",
      "contractAddress": "0xc8f83c65d3f2987c2ac3abc7650f47af8093ba80",
      "function": "setSwapEnabled(address,address,bool)",
      "arguments": [
        "0xC4a53c466Cfb62AecED03008B0162baaf36E0B03",
        "0xced6Ceb47301F268d57fF07879DF45Fda80e6974",
        "true"
      ],
      "transaction": {
        "from": "0x1234562eb0cd65e7d08e59f9f18d7c10b5df232a",
        "to": "0xc8f83c65d3f2987c2ac3abc7650f47af8093ba80",
        "gas": "0x6593fb7",
        "value": "0x0",
        "input": "0x28af4ca4000000000000000000000000c4a53c466cfb62aeced03008b0162baaf36e0b03000000000000000000000000ced6ceb47301f268d57ff07879df45fda80e69740000000000000000000000000000000000000000000000000000000000000001",
        "nonce": "0x39d",
        "chainId": "0x138b"
      },
      "additionalContracts": [],
      "isFixedGasLimit": false
    },
    {
      "hash": "0x9b5d497846ab970c98a2bba070e589188ac610cfe736fab009454af9faff6731",
      "transactionType": "CALL",
      "contractName": "MockSwapRouter",
      "contractAddress": "0xc8f83c65d3f2987c2ac3abc7650f47af8093ba80",
      "function": "setSwapEnabled(address,address,bool)",
      "arguments": [
        "0xC4a53c466Cfb62AecED03008B0162baaf36E0B03",
        "0x782Ba48189AF93a0CF42766058DE83291f384bF3",
        "true"
      ],
      "transaction": {
        "from": "0x1234562eb0cd65e7d08e59f9f18d7c10b5df232a",
        "to": "0xc8f83c65d3f2987c2ac3abc7650f47af8093ba80",
        "gas": "0x6593fb7",
        "value": "0x0",
        "input": "0x28af4ca4000000000000000000000000c4a53c466cfb62aeced03008b0162baaf36e0b03000000000000000000000000782ba48189af93a0cf42766058de83291f384bf30000000000000000000000000000000000000000000000000000000000000001",
        "nonce": "0x39e",
        "chainId": "0x138b"
      },
      "additionalContracts": [],
      "isFixedGasLimit": false
    },
    {
      "hash": "0xa6d9e57ea0eaf0976db9d4465e779e27190a7360b2e383da94cc2842236c1458",
      "transactionType": "CALL",
      "contractName": "MockSwapRouter",
      "contractAddress": "0xc8f83c65d3f2987c2ac3abc7650f47af8093ba80",
      "function": "setSwapEnabled(address,address,bool)",
      "arguments": [
        "0x70Db6eFB75c898Ad1e194FDA2B8C6e73dbC944d6",
        "0xEE589FBF85128abA6f42696dB2F28eA9EBddE173",
        "true"
      ],
      "transaction": {
        "from": "0x1234562eb0cd65e7d08e59f9f18d7c10b5df232a",
        "to": "0xc8f83c65d3f2987c2ac3abc7650f47af8093ba80",
        "gas": "0x6593fb7",
        "value": "0x0",
        "input": "0x28af4ca400000000000000000000000070db6efb75c898ad1e194fda2b8c6e73dbc944d6000000000000000000000000ee589fbf85128aba6f42696db2f28ea9ebdde1730000000000000000000000000000000000000000000000000000000000000001",
        "nonce": "0x39f",
        "chainId": "0x138b"
      },
      "additionalContracts": [],
      "isFixedGasLimit": false
    },
    {
      "hash": "0xe168723b6ee3f4a59e8e1c777c4e173a7459c4bcf2bdc2361063f9d19a87f090",
      "transactionType": "CALL",
      "contractName": "MockSwapRouter",
      "contractAddress": "0xc8f83c65d3f2987c2ac3abc7650f47af8093ba80",
      "function": "setSwapEnabled(address,address,bool)",
      "arguments": [
        "0x70Db6eFB75c898Ad1e194FDA2B8C6e73dbC944d6",
        "0x2C036be74942c597e4d81D7050008dDc11becCEb",
        "true"
      ],
      "transaction": {
        "from": "0x1234562eb0cd65e7d08e59f9f18d7c10b5df232a",
        "to": "0xc8f83c65d3f2987c2ac3abc7650f47af8093ba80",
        "gas": "0x657292a",
        "value": "0x0",
        "input": "0x28af4ca400000000000000000000000070db6efb75c898ad1e194fda2b8c6e73dbc944d60000000000000000000000002c036be74942c597e4d81d7050008ddc11becceb0000000000000000000000000000000000000000000000000000000000000001",
        "nonce": "0x3a0",
        "chainId": "0x138b"
      },
      "additionalContracts": [],
      "isFixedGasLimit": false
    },
    {
      "hash": "0x0034050738f61a89112586bfc0c3c0889ed2a0e940f211fe47bf09b3f4295d1f",
      "transactionType": "CALL",
      "contractName": "MockSwapRouter",
      "contractAddress": "0xc8f83c65d3f2987c2ac3abc7650f47af8093ba80",
      "function": "setSwapEnabled(address,address,bool)",
      "arguments": [
        "0x70Db6eFB75c898Ad1e194FDA2B8C6e73dbC944d6",
        "0x90CdcBF4c4bc78dC440252211EFd744d0A4Dc4A1",
        "true"
      ],
      "transaction": {
        "from": "0x1234562eb0cd65e7d08e59f9f18d7c10b5df232a",
        "to": "0xc8f83c65d3f2987c2ac3abc7650f47af8093ba80",
        "gas": "0x6593fb7",
        "value": "0x0",
        "input": "0x28af4ca400000000000000000000000070db6efb75c898ad1e194fda2b8c6e73dbc944d600000000000000000000000090cdcbf4c4bc78dc440252211efd744d0a4dc4a10000000000000000000000000000000000000000000000000000000000000001",
        "nonce": "0x3a1",
        "chainId": "0x138b"
      },
      "additionalContracts": [],
      "isFixedGasLimit": false
    },
    {
      "hash": "0x154949ee395140e98b0f989e20461281467ed9d98dad0f6d4b8ed4500c7cae2b",
      "transactionType": "CALL",
      "contractName": "MockSwapRouter",
      "contractAddress": "0xc8f83c65d3f2987c2ac3abc7650f47af8093ba80",
      "function": "setSwapEnabled(address,address,bool)",
      "arguments": [
        "0x70Db6eFB75c898Ad1e194FDA2B8C6e73dbC944d6",
        "0xced6Ceb47301F268d57fF07879DF45Fda80e6974",
        "true"
      ],
      "transaction": {
        "from": "0x1234562eb0cd65e7d08e59f9f18d7c10b5df232a",
        "to": "0xc8f83c65d3f2987c2ac3abc7650f47af8093ba80",
        "gas": "0x6593fb7",
        "value": "0x0",
        "input": "0x28af4ca400000000000000000000000070db6efb75c898ad1e194fda2b8c6e73dbc944d6000000000000000000000000ced6ceb47301f268d57ff07879df45fda80e69740000000000000000000000000000000000000000000000000000000000000001",
        "nonce": "0x3a2",
        "chainId": "0x138b"
      },
      "additionalContracts": [],
      "isFixedGasLimit": false
    },
    {
      "hash": "0x788f368bf6ae2c0e4d1f81917bba23268099d1b78d7e48dc0fff61eb3fb54ade",
      "transactionType": "CALL",
      "contractName": "MockSwapRouter",
      "contractAddress": "0xc8f83c65d3f2987c2ac3abc7650f47af8093ba80",
      "function": "setSwapEnabled(address,address,bool)",
      "arguments": [
        "0x70Db6eFB75c898Ad1e194FDA2B8C6e73dbC944d6",
        "0x782Ba48189AF93a0CF42766058DE83291f384bF3",
        "true"
      ],
      "transaction": {
        "from": "0x1234562eb0cd65e7d08e59f9f18d7c10b5df232a",
        "to": "0xc8f83c65d3f2987c2ac3abc7650f47af8093ba80",
        "gas": "0x6593fb7",
        "value": "0x0",
        "input": "0x28af4ca400000000000000000000000070db6efb75c898ad1e194fda2b8c6e73dbc944d6000000000000000000000000782ba48189af93a0cf42766058de83291f384bf30000000000000000000000000000000000000000000000000000000000000001",
        "nonce": "0x3a3",
        "chainId": "0x138b"
      },
      "additionalContracts": [],
      "isFixedGasLimit": false
    },
    {
      "hash": "0xed54cf4b1547bddaea8c0b996ae5a43b0131490acb4158473c63dd5556d1f9af",
      "transactionType": "CALL",
      "contractName": "MockSwapRouter",
      "contractAddress": "0xc8f83c65d3f2987c2ac3abc7650f47af8093ba80",
      "function": "setSwapEnabled(address,address,bool)",
      "arguments": [
        "0xEE589FBF85128abA6f42696dB2F28eA9EBddE173",
        "0x2C036be74942c597e4d81D7050008dDc11becCEb",
        "true"
      ],
      "transaction": {
        "from": "0x1234562eb0cd65e7d08e59f9f18d7c10b5df232a",
        "to": "0xc8f83c65d3f2987c2ac3abc7650f47af8093ba80",
        "gas": "0x657292a",
        "value": "0x0",
        "input": "0x28af4ca4000000000000000000000000ee589fbf85128aba6f42696db2f28ea9ebdde1730000000000000000000000002c036be74942c597e4d81d7050008ddc11becceb0000000000000000000000000000000000000000000000000000000000000001",
        "nonce": "0x3a4",
        "chainId": "0x138b"
      },
      "additionalContracts": [],
      "isFixedGasLimit": false
    },
    {
      "hash": "0xe600c1104466aac8145af26b086fb11abe8ac945d46f2860ac4139f01b3e523a",
      "transactionType": "CALL",
      "contractName": "MockSwapRouter",
      "contractAddress": "0xc8f83c65d3f2987c2ac3abc7650f47af8093ba80",
      "function": "setSwapEnabled(address,address,bool)",
      "arguments": [
        "0xEE589FBF85128abA6f42696dB2F28eA9EBddE173",
        "0x90CdcBF4c4bc78dC440252211EFd744d0A4Dc4A1",
        "true"
      ],
      "transaction": {
        "from": "0x1234562eb0cd65e7d08e59f9f18d7c10b5df232a",
        "to": "0xc8f83c65d3f2987c2ac3abc7650f47af8093ba80",
        "gas": "0x6593fb7",
        "value": "0x0",
        "input": "0x28af4ca4000000000000000000000000ee589fbf85128aba6f42696db2f28ea9ebdde17300000000000000000000000090cdcbf4c4bc78dc440252211efd744d0a4dc4a10000000000000000000000000000000000000000000000000000000000000001",
        "nonce": "0x3a5",
        "chainId": "0x138b"
      },
      "additionalContracts": [],
      "isFixedGasLimit": false
    },
    {
      "hash": "0x9734e2f55d467e960391641b8faab0ccbb4eabff9c54ea663c78fc899e602732",
      "transactionType": "CALL",
      "contractName": "MockSwapRouter",
      "contractAddress": "0xc8f83c65d3f2987c2ac3abc7650f47af8093ba80",
      "function": "setSwapEnabled(address,address,bool)",
      "arguments": [
        "0xEE589FBF85128abA6f42696dB2F28eA9EBddE173",
        "0xced6Ceb47301F268d57fF07879DF45Fda80e6974",
        "true"
      ],
      "transaction": {
        "from": "0x1234562eb0cd65e7d08e59f9f18d7c10b5df232a",
        "to": "0xc8f83c65d3f2987c2ac3abc7650f47af8093ba80",
        "gas": "0x6593fb7",
        "value": "0x0",
        "input": "0x28af4ca4000000000000000000000000ee589fbf85128aba6f42696db2f28ea9ebdde173000000000000000000000000ced6ceb47301f268d57ff07879df45fda80e69740000000000000000000000000000000000000000000000000000000000000001",
        "nonce": "0x3a6",
        "chainId": "0x138b"
      },
      "additionalContracts": [],
      "isFixedGasLimit": false
    },
    {
      "hash": "0x64211cb0f1b66643fe8b541dd3a0ba8778928669e423989d66e8a3815cf6f723",
      "transactionType": "CALL",
      "contractName": "MockSwapRouter",
      "contractAddress": "0xc8f83c65d3f2987c2ac3abc7650f47af8093ba80",
      "function": "setSwapEnabled(address,address,bool)",
      "arguments": [
        "0xEE589FBF85128abA6f42696dB2F28eA9EBddE173",
        "0x782Ba48189AF93a0CF42766058DE83291f384bF3",
        "true"
      ],
      "transaction": {
        "from": "0x1234562eb0cd65e7d08e59f9f18d7c10b5df232a",
        "to": "0xc8f83c65d3f2987c2ac3abc7650f47af8093ba80",
        "gas": "0x6593fb7",
        "value": "0x0",
        "input": "0x28af4ca4000000000000000000000000ee589fbf85128aba6f42696db2f28ea9ebdde173000000000000000000000000782ba48189af93a0cf42766058de83291f384bf30000000000000000000000000000000000000000000000000000000000000001",
        "nonce": "0x3a7",
        "chainId": "0x138b"
      },
      "additionalContracts": [],
      "isFixedGasLimit": false
    },
    {
      "hash": "0xc6171c229a0da5c0674c760f17c47e550bb10e2292f853fbc25a8e228c00072f",
      "transactionType": "CALL",
      "contractName": "MockSwapRouter",
      "contractAddress": "0xc8f83c65d3f2987c2ac3abc7650f47af8093ba80",
      "function": "setSwapEnabled(address,address,bool)",
      "arguments": [
        "0x2C036be74942c597e4d81D7050008dDc11becCEb",
        "0x90CdcBF4c4bc78dC440252211EFd744d0A4Dc4A1",
        "true"
      ],
      "transaction": {
        "from": "0x1234562eb0cd65e7d08e59f9f18d7c10b5df232a",
        "to": "0xc8f83c65d3f2987c2ac3abc7650f47af8093ba80",
        "gas": "0x657292a",
        "value": "0x0",
        "input": "0x28af4ca40000000000000000000000002c036be74942c597e4d81d7050008ddc11becceb00000000000000000000000090cdcbf4c4bc78dc440252211efd744d0a4dc4a10000000000000000000000000000000000000000000000000000000000000001",
        "nonce": "0x3a8",
        "chainId": "0x138b"
      },
      "additionalContracts": [],
      "isFixedGasLimit": false
    },
    {
      "hash": "0xf5d998ad216dafa6095685cc081e341653a45f462ef698b049fe31f68d29ab5c",
      "transactionType": "CALL",
      "contractName": "MockSwapRouter",
      "contractAddress": "0xc8f83c65d3f2987c2ac3abc7650f47af8093ba80",
      "function": "setSwapEnabled(address,address,bool)",
      "arguments": [
        "0x2C036be74942c597e4d81D7050008dDc11becCEb",
        "0xced6Ceb47301F268d57fF07879DF45Fda80e6974",
        "true"
      ],
      "transaction": {
        "from": "0x1234562eb0cd65e7d08e59f9f18d7c10b5df232a",
        "to": "0xc8f83c65d3f2987c2ac3abc7650f47af8093ba80",
        "gas": "0x657292a",
        "value": "0x0",
        "input": "0x28af4ca40000000000000000000000002c036be74942c597e4d81d7050008ddc11becceb000000000000000000000000ced6ceb47301f268d57ff07879df45fda80e69740000000000000000000000000000000000000000000000000000000000000001",
        "nonce": "0x3a9",
        "chainId": "0x138b"
      },
      "additionalContracts": [],
      "isFixedGasLimit": false
    },
    {
      "hash": "0x431858f0da294d9203dfd84c0552b1d9a7be08dac7123b06ade704f3e42b0dd6",
      "transactionType": "CALL",
      "contractName": "MockSwapRouter",
      "contractAddress": "0xc8f83c65d3f2987c2ac3abc7650f47af8093ba80",
      "function": "setSwapEnabled(address,address,bool)",
      "arguments": [
        "0x2C036be74942c597e4d81D7050008dDc11becCEb",
        "0x782Ba48189AF93a0CF42766058DE83291f384bF3",
        "true"
      ],
      "transaction": {
        "from": "0x1234562eb0cd65e7d08e59f9f18d7c10b5df232a",
        "to": "0xc8f83c65d3f2987c2ac3abc7650f47af8093ba80",
        "gas": "0x657292a",
        "value": "0x0",
        "input": "0x28af4ca40000000000000000000000002c036be74942c597e4d81d7050008ddc11becceb000000000000000000000000782ba48189af93a0cf42766058de83291f384bf30000000000000000000000000000000000000000000000000000000000000001",
        "nonce": "0x3aa",
        "chainId": "0x138b"
      },
      "additionalContracts": [],
      "isFixedGasLimit": false
    },
    {
      "hash": "0x79ad4f48f28cc9171043415080affc127b4302a5ddee2948a3497fce9d3f784f",
      "transactionType": "CALL",
      "contractName": "MockSwapRouter",
      "contractAddress": "0xc8f83c65d3f2987c2ac3abc7650f47af8093ba80",
      "function": "setSwapEnabled(address,address,bool)",
      "arguments": [
        "0x90CdcBF4c4bc78dC440252211EFd744d0A4Dc4A1",
        "0xced6Ceb47301F268d57fF07879DF45Fda80e6974",
        "true"
      ],
      "transaction": {
        "from": "0x1234562eb0cd65e7d08e59f9f18d7c10b5df232a",
        "to": "0xc8f83c65d3f2987c2ac3abc7650f47af8093ba80",
        "gas": "0x6593fb7",
        "value": "0x0",
        "input": "0x28af4ca400000000000000000000000090cdcbf4c4bc78dc440252211efd744d0a4dc4a1000000000000000000000000ced6ceb47301f268d57ff07879df45fda80e69740000000000000000000000000000000000000000000000000000000000000001",
        "nonce": "0x3ab",
        "chainId": "0x138b"
      },
      "additionalContracts": [],
      "isFixedGasLimit": false
    },
    {
      "hash": "0x1097ac8e3d8badb0aad3acc4017eb259ec686315c054e8fffb5563b87e92e009",
      "transactionType": "CALL",
      "contractName": "MockSwapRouter",
      "contractAddress": "0xc8f83c65d3f2987c2ac3abc7650f47af8093ba80",
      "function": "setSwapEnabled(address,address,bool)",
      "arguments": [
        "0x90CdcBF4c4bc78dC440252211EFd744d0A4Dc4A1",
        "0x782Ba48189AF93a0CF42766058DE83291f384bF3",
        "true"
      ],
      "transaction": {
        "from": "0x1234562eb0cd65e7d08e59f9f18d7c10b5df232a",
        "to": "0xc8f83c65d3f2987c2ac3abc7650f47af8093ba80",
        "gas": "0x6593fb7",
        "value": "0x0",
        "input": "0x28af4ca400000000000000000000000090cdcbf4c4bc78dc440252211efd744d0a4dc4a1000000000000000000000000782ba48189af93a0cf42766058de83291f384bf30000000000000000000000000000000000000000000000000000000000000001",
        "nonce": "0x3ac",
        "chainId": "0x138b"
      },
      "additionalContracts": [],
      "isFixedGasLimit": false
    },
    {
      "hash": "0xb1808cad2956747552d1b4c5691e1c87832bf3a1a62194433a7adbdcc7109881",
      "transactionType": "CALL",
      "contractName": "MockSwapRouter",
      "contractAddress": "0xc8f83c65d3f2987c2ac3abc7650f47af8093ba80",
      "function": "setSwapEnabled(address,address,bool)",
      "arguments": [
        "0xced6Ceb47301F268d57fF07879DF45Fda80e6974",
        "0x782Ba48189AF93a0CF42766058DE83291f384bF3",
        "true"
      ],
      "transaction": {
        "from": "0x1234562eb0cd65e7d08e59f9f18d7c10b5df232a",
        "to": "0xc8f83c65d3f2987c2ac3abc7650f47af8093ba80",
        "gas": "0x6593fb7",
        "value": "0x0",
        "input": "0x28af4ca4000000000000000000000000ced6ceb47301f268d57ff07879df45fda80e6974000000000000000000000000782ba48189af93a0cf42766058de83291f384bf30000000000000000000000000000000000000000000000000000000000000001",
        "nonce": "0x3ad",
        "chainId": "0x138b"
      },
      "additionalContracts": [],
      "isFixedGasLimit": false
    },
    {
      "hash": "0x58bc539246e54d2a8a52836dc1968f7a1d45aca83f231f44fb08e16518bf2dd5",
      "transactionType": "CALL",
      "contractName": null,
      "contractAddress": "0xdb26ba8581979dc4e11218735f821af5171fb737",
      "function": "setSwapRouter(address)",
      "arguments": [
        "0xc8F83c65d3f2987C2aC3aBC7650F47AF8093bA80"
      ],
      "transaction": {
        "from": "0x1234562eb0cd65e7d08e59f9f18d7c10b5df232a",
        "to": "0xdb26ba8581979dc4e11218735f821af5171fb737",
        "gas": "0xc266",
        "value": "0x0",
        "input": "0x41273657000000000000000000000000c8f83c65d3f2987c2ac3abc7650f47af8093ba80",
        "nonce": "0x3ae",
        "chainId": "0x138b"
      },
      "additionalContracts": [],
      "isFixedGasLimit": false
    }
  ],
  "receipts": [
    {
      "status": "0x1",
      "cumulativeGasUsed": "0x56a50b13",
      "logs": [
        {
          "address": "0xc8f83c65d3f2987c2ac3abc7650f47af8093ba80",
          "topics": [
            "0x8be0079c531659141344cd1fd0a4f28419497f9722a3daafe3b4186f6b6457e0",
            "0x0000000000000000000000000000000000000000000000000000000000000000",
            "0x0000000000000000000000001234562eb0cd65e7d08e59f9f18d7c10b5df232a"
          ],
          "data": "0x",
          "blockHash": "0x3704320db8a1769ecd398cc4ca3e42f22d55f31cba5136b5d13748882720d0e7",
          "blockNumber": "0x1f88d29",
          "blockTimestamp": "0x695c9d33",
          "transactionHash": "0xf60a53136c3240b162a40cfe7ffc3b7028366a32aedc3bf3dce89e3b45b34b1f",
          "transactionIndex": "0x1",
          "logIndex": "0x0",
          "removed": false
        }
      ],
      "logsBloom": "0x00000000000000000000000000000000000000000000000000800000000000000000000000000000000000000000000000000000000000000000000000000000000000000000000020000000000000000001000000000000000000000000000000000000020000000000000000000800000000000000000000000000000000400000000000000000000000000000000000000000000200000000000000000000020000000000000000000000000000000000000000000000000000010000000000000000000000000000000000000000000000000000000000000000008020000000000000000000000000000000000000000000000000040000000000000000",
      "type": "0x2",
      "transactionHash": "0xf60a53136c3240b162a40cfe7ffc3b7028366a32aedc3bf3dce89e3b45b34b1f",
      "transactionIndex": "0x1",
      "blockHash": "0x3704320db8a1769ecd398cc4ca3e42f22d55f31cba5136b5d13748882720d0e7",
      "blockNumber": "0x1f88d29",
      "gasUsed": "0x56a45426",
      "effectiveGasPrice": "0x132b3a0",
      "from": "0x1234562eb0cd65e7d08e59f9f18d7c10b5df232a",
      "to": null,
      "contractAddress": "0xc8f83c65d3f2987c2ac3abc7650f47af8093ba80",
      "l1Fee": "0x7ee052",
      "l1FeeScalar": "0.01",
      "l1GasPrice": "0x8",
      "l1GasUsed": "0x8bf4",
      "tokenRatio": "0xb55"
    },
    {
      "status": "0x1",
      "cumulativeGasUsed": "0xbed7ca4",
      "logs": [],
      "logsBloom": "0x00000000000000000000000000000000000000000000000000000000000000000000000000000000000000000000000000000000000000000000000000000000000000000000000000000000000000000000000000000000000000000000000000000000000000000000000000000000000000000000000000000000000000000000000000000000000000000000000000000000000000000000000000000000000000000000000000000000000000000000000000000000000000000000000000000000000000000000000000000000000000000000000000000000000000000000000000000000000000000000000000000000000000000000000000000000",
      "type": "0x2",
      "transactionHash": "0x265b4a3c55034a312a07722964415467ea1426a7974ec589b545a526604c4113",
      "transactionIndex": "0x1",
      "blockHash": "0xbf329ccda40daeead8e71dad05bd50a725387e831a76684d0530dbe45c2d29b3",
      "blockNumber": "0x1f88d2b",
      "gasUsed": "0xbecc5b7",
      "effectiveGasPrice": "0x132b3a0",
      "from": "0x1234562eb0cd65e7d08e59f9f18d7c10b5df232a",
      "to": "0xc8f83c65d3f2987c2ac3abc7650f47af8093ba80",
      "contractAddress": null,
      "l1Fee": "0xa77cc",
      "l1FeeScalar": "0.01",
      "l1GasPrice": "0x8",
      "l1GasUsed": "0xb8c",
      "tokenRatio": "0xb55"
    },
    {
      "status": "0x1",
      "cumulativeGasUsed": "0xbedbf7c",
      "logs": [],
      "logsBloom": "0x00000000000000000000000000000000000000000000000000000000000000000000000000000000000000000000000000000000000000000000000000000000000000000000000000000000000000000000000000000000000000000000000000000000000000000000000000000000000000000000000000000000000000000000000000000000000000000000000000000000000000000000000000000000000000000000000000000000000000000000000000000000000000000000000000000000000000000000000000000000000000000000000000000000000000000000000000000000000000000000000000000000000000000000000000000000",
      "type": "0x2",
      "transactionHash": "0xaacc84b318dcc51a35b284b19c14bcfd2f342fef096713775fb00a332aae7230",
      "transactionIndex": "0x1",
      "blockHash": "0x8f0737821fdfd06825f8a2e674c9376f736704945ab36e25397d76484adcea78",
      "blockNumber": "0x1f88d2d",
      "gasUsed": "0xbecc5b7",
      "effectiveGasPrice": "0x132b3a0",
      "from": "0x1234562eb0cd65e7d08e59f9f18d7c10b5df232a",
      "to": "0xc8f83c65d3f2987c2ac3abc7650f47af8093ba80",
      "contractAddress": null,
      "l1Fee": "0xa6ceb",
      "l1FeeScalar": "0.01",
      "l1GasPrice": "0x8",
      "l1GasUsed": "0xb80",
      "tokenRatio": "0xb55"
    },
    {
      "status": "0x1",
      "cumulativeGasUsed": "0xbed7cb0",
      "logs": [],
      "logsBloom": "0x00000000000000000000000000000000000000000000000000000000000000000000000000000000000000000000000000000000000000000000000000000000000000000000000000000000000000000000000000000000000000000000000000000000000000000000000000000000000000000000000000000000000000000000000000000000000000000000000000000000000000000000000000000000000000000000000000000000000000000000000000000000000000000000000000000000000000000000000000000000000000000000000000000000000000000000000000000000000000000000000000000000000000000000000000000000",
      "type": "0x2",
      "transactionHash": "0x3eb2aae5fd82acd8e2346bbd2e48875a1276e8d801d9122586ccc4f77e5f5784",
      "transactionIndex": "0x1",
      "blockHash": "0xc2cce27a2a75937c15e06a27215f6bfe2874af1bdb3f989d7839837ff9f07566",
      "blockNumber": "0x1f88d2f",
      "gasUsed": "0xbecc5b7",
      "effectiveGasPrice": "0x132b3a0",
      "from": "0x1234562eb0cd65e7d08e59f9f18d7c10b5df232a",
      "to": "0xc8f83c65d3f2987c2ac3abc7650f47af8093ba80",
      "contractAddress": null,
      "l1Fee": "0xa77cc",
      "l1FeeScalar": "0.01",
      "l1GasPrice": "0x8",
      "l1GasUsed": "0xb8c",
      "tokenRatio": "0xb55"
    },
    {
      "status": "0x1",
      "cumulativeGasUsed": "0xbed7cb0",
      "logs": [],
      "logsBloom": "0x00000000000000000000000000000000000000000000000000000000000000000000000000000000000000000000000000000000000000000000000000000000000000000000000000000000000000000000000000000000000000000000000000000000000000000000000000000000000000000000000000000000000000000000000000000000000000000000000000000000000000000000000000000000000000000000000000000000000000000000000000000000000000000000000000000000000000000000000000000000000000000000000000000000000000000000000000000000000000000000000000000000000000000000000000000000",
      "type": "0x2",
      "transactionHash": "0xf53399ff678d920a95ff2596c4e7a8d252bd2916e28823fd282ff0f66cb7df59",
      "transactionIndex": "0x1",
      "blockHash": "0x0eb9ef0055a25cf0e10be7a69499e5bd83c5a98468c3da8d0e005c5b724b0de4",
      "blockNumber": "0x1f88d31",
      "gasUsed": "0xbecc5b7",
      "effectiveGasPrice": "0x132b3a0",
      "from": "0x1234562eb0cd65e7d08e59f9f18d7c10b5df232a",
      "to": "0xc8f83c65d3f2987c2ac3abc7650f47af8093ba80",
      "contractAddress": null,
      "l1Fee": "0xa77cc",
      "l1FeeScalar": "0.01",
      "l1GasPrice": "0x8",
      "l1GasUsed": "0xb8c",
      "tokenRatio": "0xb55"
    },
    {
      "status": "0x1",
      "cumulativeGasUsed": "0xbed7cb0",
      "logs": [],
      "logsBloom": "0x00000000000000000000000000000000000000000000000000000000000000000000000000000000000000000000000000000000000000000000000000000000000000000000000000000000000000000000000000000000000000000000000000000000000000000000000000000000000000000000000000000000000000000000000000000000000000000000000000000000000000000000000000000000000000000000000000000000000000000000000000000000000000000000000000000000000000000000000000000000000000000000000000000000000000000000000000000000000000000000000000000000000000000000000000000000",
      "type": "0x2",
      "transactionHash": "0x96bef516f48aa755bdcbe8ee795fa84b3f5b7313188c95b1d48e445d1d7ba2a0",
      "transactionIndex": "0x1",
      "blockHash": "0x240162fdfcfc634c89a3080dcd101b20e16357ae83019fd54aa41c8a53576e6e",
      "blockNumber": "0x1f88d33",
      "gasUsed": "0xbecc5b7",
      "effectiveGasPrice": "0x132b3a0",
      "from": "0x1234562eb0cd65e7d08e59f9f18d7c10b5df232a",
      "to": "0xc8f83c65d3f2987c2ac3abc7650f47af8093ba80",
      "contractAddress": null,
      "l1Fee": "0xa77cc",
      "l1FeeScalar": "0.01",
      "l1GasPrice": "0x8",
      "l1GasUsed": "0xb8c",
      "tokenRatio": "0xb55"
    },
    {
      "status": "0x1",
      "cumulativeGasUsed": "0xbecf631",
      "logs": [],
      "logsBloom": "0x00000000000000000000000000000000000000000000000000000000000000000000000000000000000000000000000000000000000000000000000000000000000000000000000000000000000000000000000000000000000000000000000000000000000000000000000000000000000000000000000000000000000000000000000000000000000000000000000000000000000000000000000000000000000000000000000000000000000000000000000000000000000000000000000000000000000000000000000000000000000000000000000000000000000000000000000000000000000000000000000000000000000000000000000000000000",
      "type": "0x2",
      "transactionHash": "0xf35a6dd622e73df25ae6b9a9c99dbc935e53411d3669e921792b359cfeecd7ce",
      "transactionIndex": "0x1",
      "blockHash": "0x68fdc566f5525aaaa1acf65be895ae81dc66e51e872f91ae09e6530044c8992b",
      "blockNumber": "0x1f88d35",
      "gasUsed": "0xbec3f38",
      "effectiveGasPrice": "0x132b3a0",
      "from": "0x1234562eb0cd65e7d08e59f9f18d7c10b5df232a",
      "to": "0xc8f83c65d3f2987c2ac3abc7650f47af8093ba80",
      "contractAddress": null,
      "l1Fee": "0xa6ceb",
      "l1FeeScalar": "0.01",
      "l1GasPrice": "0x8",
      "l1GasUsed": "0xb80",
      "tokenRatio": "0xb55"
    },
    {
      "status": "0x1",
      "cumulativeGasUsed": "0x12cd4ab1",
      "logs": [],
      "logsBloom": "0x00000000000000000000000000000000000000000000000000000000000000000000000000000000000000000000000000000000000000000000000000000000000000000000000000000000000000000000000000000000000000000000000000000000000000000000000000000000000000000000000000000000000000000000000000000000000000000000000000000000000000000000000000000000000000000000000000000000000000000000000000000000000000000000000000000000000000000000000000000000000000000000000000000000000000000000000000000000000000000000000000000000000000000000000000000000",
      "type": "0x2",
      "transactionHash": "0x9477334f45bfd34164380e3c8a89d14471bbf1dd466b8758aa1842abdceda98b",
      "transactionIndex": "0x2",
      "blockHash": "0x9b81c933be4e6ad3287cfe3af3ea135101ff9a03de7f54c1ec7bbfbc7387f6e7",
      "blockNumber": "0x1f88d37",
      "gasUsed": "0xbecc5b7",
      "effectiveGasPrice": "0x132b3a0",
      "from": "0x1234562eb0cd65e7d08e59f9f18d7c10b5df232a",
      "to": "0xc8f83c65d3f2987c2ac3abc7650f47af8093ba80",
      "contractAddress": null,
      "l1Fee": "0xa77cc",
      "l1FeeScalar": "0.01",
      "l1GasPrice": "0x8",
      "l1GasUsed": "0xb8c",
      "tokenRatio": "0xb55"
    },
    {
      "status": "0x1",
      "cumulativeGasUsed": "0xbedbf7c",
      "logs": [],
      "logsBloom": "0x00000000000000000000000000000000000000000000000000000000000000000000000000000000000000000000000000000000000000000000000000000000000000000000000000000000000000000000000000000000000000000000000000000000000000000000000000000000000000000000000000000000000000000000000000000000000000000000000000000000000000000000000000000000000000000000000000000000000000000000000000000000000000000000000000000000000000000000000000000000000000000000000000000000000000000000000000000000000000000000000000000000000000000000000000000000",
      "type": "0x2",
      "transactionHash": "0x7529ec7ecfae7950b5c4120444c9a9f6396ef09092d797fe469aedb0e30930ed",
      "transactionIndex": "0x1",
      "blockHash": "0xf0dc085e6853f260178219a27174f9e6429e00764563295b6bad62fda19fffdb",
      "blockNumber": "0x1f88d39",
      "gasUsed": "0xbecc5b7",
      "effectiveGasPrice": "0x132b3a0",
      "from": "0x1234562eb0cd65e7d08e59f9f18d7c10b5df232a",
      "to": "0xc8f83c65d3f2987c2ac3abc7650f47af8093ba80",
      "contractAddress": null,
      "l1Fee": "0xa6ceb",
      "l1FeeScalar": "0.01",
      "l1GasPrice": "0x8",
      "l1GasUsed": "0xb80",
      "tokenRatio": "0xb55"
    },
    {
      "status": "0x1",
      "cumulativeGasUsed": "0x22059e23",
      "logs": [],
      "logsBloom": "0x00000000000000000000000000000000000000000000000000000000000000000000000000000000000000000000000000000000000000000000000000000000000000000000000000000000000000000000000000000000000000000000000000000000000000000000000000000000000000000000000000000000000000000000000000000000000000000000000000000000000000000000000000000000000000000000000000000000000000000000000000000000000000000000000000000000000000000000000000000000000000000000000000000000000000000000000000000000000000000000000000000000000000000000000000000000",
      "type": "0x2",
      "transactionHash": "0x195504b87b8b09f83d5cb922afa06d8843dc27bf135c3b65882cb36e0a54e11d",
      "transactionIndex": "0x2",
      "blockHash": "0x07ce999ddc66e5fe0c0dc187db0557dd28e3407571b3845050e23c780d44a605",
      "blockNumber": "0x1f88d3b",
      "gasUsed": "0xbecc5b7",
      "effectiveGasPrice": "0x132b3a0",
      "from": "0x1234562eb0cd65e7d08e59f9f18d7c10b5df232a",
      "to": "0xc8f83c65d3f2987c2ac3abc7650f47af8093ba80",
      "contractAddress": null,
      "l1Fee": "0xa77cc",
      "l1FeeScalar": "0.01",
      "l1GasPrice": "0x8",
      "l1GasUsed": "0xb8c",
      "tokenRatio": "0xb55"
    },
    {
      "status": "0x1",
      "cumulativeGasUsed": "0xbee0330",
      "logs": [],
      "logsBloom": "0x00000000000000000000000000000000000000000000000000000000000000000000000000000000000000000000000000000000000000000000000000000000000000000000000000000000000000000000000000000000000000000000000000000000000000000000000000000000000000000000000000000000000000000000000000000000000000000000000000000000000000000000000000000000000000000000000000000000000000000000000000000000000000000000000000000000000000000000000000000000000000000000000000000000000000000000000000000000000000000000000000000000000000000000000000000000",
      "type": "0x2",
      "transactionHash": "0x0d55c9f8660d7b2429c1d6d5ab70bc2a2af86c80a247e5d111db8eb3a904c470",
      "transactionIndex": "0x1",
      "blockHash": "0x6db9086f5fd3f2313cbc3040c866ccb2456a4843bd5b2f1a2a0f3a8b443c3cc5",
      "blockNumber": "0x1f88d3d",
      "gasUsed": "0xbed4c37",
      "effectiveGasPrice": "0x132b3a0",
      "from": "0x1234562eb0cd65e7d08e59f9f18d7c10b5df232a",
      "to": "0xc8f83c65d3f2987c2ac3abc7650f47af8093ba80",
      "contractAddress": null,
      "l1Fee": "0xa82ad",
      "l1FeeScalar": "0.01",
      "l1GasPrice": "0x8",
      "l1GasUsed": "0xb98",
      "tokenRatio": "0xb55"
    },
    {
      "status": "0x1",
      "cumulativeGasUsed": "0x3dbe28a7",
      "logs": [],
      "logsBloom": "0x00000000000000000000000000000000000000000000000000000000000000000000000000000000000000000000000000000000000000000000000000000000000000000000000000000000000000000000000000000000000000000000000000000000000000000000000000000000000000000000000000000000000000000000000000000000000000000000000000000000000000000000000000000000000000000000000000000000000000000000000000000000000000000000000000000000000000000000000000000000000000000000000000000000000000000000000000000000000000000000000000000000000000000000000000000000",
      "type": "0x2",
      "transactionHash": "0x83133174b3763bf7d64436a7d29f6eb7eb7b4c9b03f905dc7fec0ff9e0677cb2",
      "transactionIndex": "0x2",
      "blockHash": "0x993d00e49d394739bb4d7af26ecf8c5be6efe3351e53aa5235a6ebf20e06ab11",
      "blockNumber": "0x1f88d4b",
      "gasUsed": "0xbf0740c",
      "effectiveGasPrice": "0x132b3a0",
      "from": "0x1234562eb0cd65e7d08e59f9f18d7c10b5df232a",
      "to": "0xc8f83c65d3f2987c2ac3abc7650f47af8093ba80",
      "contractAddress": null,
      "l1Fee": "0xa7a91",
      "l1FeeScalar": "0.01",
      "l1GasPrice": "0x8",
      "l1GasUsed": "0xb8c",
      "tokenRatio": "0xb58"
    },
    {
      "status": "0x1",
      "cumulativeGasUsed": "0x4f4df68d",
      "logs": [],
      "logsBloom": "0x00000000000000000000000000000000000000000000000000000000000000000000000000000000000000000000000000000000000000000000000000000000000000000000000000000000000000000000000000000000000000000000000000000000000000000000000000000000000000000000000000000000000000000000000000000000000000000000000000000000000000000000000000000000000000000000000000000000000000000000000000000000000000000000000000000000000000000000000000000000000000000000000000000000000000000000000000000000000000000000000000000000000000000000000000000000",
      "type": "0x2",
      "transactionHash": "0x9d1791fd412371c002a50eb9aacc48a772f2178960ff33d887962a71949ad5a7",
      "transactionIndex": "0x2",
      "blockHash": "0x457aa0a629fd7119cc92a3967d67f988504401acc69dda601323720262555bc6",
      "blockNumber": "0x1f88d4d",
      "gasUsed": "0xbf077e8",
      "effectiveGasPrice": "0x132b3a0",
      "from": "0x1234562eb0cd65e7d08e59f9f18d7c10b5df232a",
      "to": "0xc8f83c65d3f2987c2ac3abc7650f47af8093ba80",
      "contractAddress": null,
      "l1Fee": "0xa8575",
      "l1FeeScalar": "0.01",
      "l1GasPrice": "0x8",
      "l1GasUsed": "0xb98",
      "tokenRatio": "0xb58"
    },
    {
      "status": "0x1",
      "cumulativeGasUsed": "0xbf12ee1",
      "logs": [],
      "logsBloom": "0x00000000000000000000000000000000000000000000000000000000000000000000000000000000000000000000000000000000000000000000000000000000000000000000000000000000000000000000000000000000000000000000000000000000000000000000000000000000000000000000000000000000000000000000000000000000000000000000000000000000000000000000000000000000000000000000000000000000000000000000000000000000000000000000000000000000000000000000000000000000000000000000000000000000000000000000000000000000000000000000000000000000000000000000000000000000",
      "type": "0x2",
      "transactionHash": "0xc0345fbf423bc2615dcb0492da25f9da4b263f2c676f0c8d624e22fa701d07cf",
      "transactionIndex": "0x1",
      "blockHash": "0x8f94ef1a9c0691b4fa3dda8b14013b4e3fe7ef89c40bde1bfd18c25213c976c7",
      "blockNumber": "0x1f88d4f",
      "gasUsed": "0xbf077e8",
      "effectiveGasPrice": "0x132b3a0",
      "from": "0x1234562eb0cd65e7d08e59f9f18d7c10b5df232a",
      "to": "0xc8f83c65d3f2987c2ac3abc7650f47af8093ba80",
      "contractAddress": null,
      "l1Fee": "0xa6fae",
      "l1FeeScalar": "0.01",
      "l1GasPrice": "0x8",
      "l1GasUsed": "0xb80",
      "tokenRatio": "0xb58"
    },
    {
      "status": "0x1",
      "cumulativeGasUsed": "0xbf0eb0b",
      "logs": [],
      "logsBloom": "0x00000000000000000000000000000000000000000000000000000000000000000000000000000000000000000000000000000000000000000000000000000000000000000000000000000000000000000000000000000000000000000000000000000000000000000000000000000000000000000000000000000000000000000000000000000000000000000000000000000000000000000000000000000000000000000000000000000000000000000000000000000000000000000000000000000000000000000000000000000000000000000000000000000000000000000000000000000000000000000000000000000000000000000000000000000000",
      "type": "0x2",
      "transactionHash": "0x068228712c4a2f6b0a547fa452445d0f10fdc601a1bb7a6b235310092a1e360f",
      "transactionIndex": "0x1",
      "blockHash": "0xfc402e7c874e070ef210fdc9ecd1eabe7796ce841c5a4f33d1f59caae38ab5b3",
      "blockNumber": "0x1f88d51",
      "gasUsed": "0xbeff146",
      "effectiveGasPrice": "0x132b3a0",
      "from": "0x1234562eb0cd65e7d08e59f9f18d7c10b5df232a",
      "to": "0xc8f83c65d3f2987c2ac3abc7650f47af8093ba80",
      "contractAddress": null,
      "l1Fee": "0xa7a91",
      "l1FeeScalar": "0.01",
      "l1GasPrice": "0x8",
      "l1GasUsed": "0xb8c",
      "tokenRatio": "0xb58"
    },
    {
      "status": "0x1",
      "cumulativeGasUsed": "0xbf12ee1",
      "logs": [],
      "logsBloom": "0x00000000000000000000000000000000000000000000000000000000000000000000000000000000000000000000000000000000000000000000000000000000000000000000000000000000000000000000000000000000000000000000000000000000000000000000000000000000000000000000000000000000000000000000000000000000000000000000000000000000000000000000000000000000000000000000000000000000000000000000000000000000000000000000000000000000000000000000000000000000000000000000000000000000000000000000000000000000000000000000000000000000000000000000000000000000",
      "type": "0x2",
      "transactionHash": "0xd8b56147082cdb46caf3e919e2f6c259e4437f271cd7cf5bab79eddcc6bfd63f",
      "transactionIndex": "0x1",
      "blockHash": "0x5928624bc325b11dc568e907d4aff73bf5b47f5ed6aed2dedf8cd6a086581167",
      "blockNumber": "0x1f88d53",
      "gasUsed": "0xbf077e8",
      "effectiveGasPrice": "0x132b3a0",
      "from": "0x1234562eb0cd65e7d08e59f9f18d7c10b5df232a",
      "to": "0xc8f83c65d3f2987c2ac3abc7650f47af8093ba80",
      "contractAddress": null,
      "l1Fee": "0xa8575",
      "l1FeeScalar": "0.01",
      "l1GasPrice": "0x8",
      "l1GasUsed": "0xb98",
      "tokenRatio": "0xb58"
    },
    {
      "status": "0x1",
      "cumulativeGasUsed": "0xbf12ee1",
      "logs": [],
      "logsBloom": "0x00000000000000000000000000000000000000000000000000000000000000000000000000000000000000000000000000000000000000000000000000000000000000000000000000000000000000000000000000000000000000000000000000000000000000000000000000000000000000000000000000000000000000000000000000000000000000000000000000000000000000000000000000000000000000000000000000000000000000000000000000000000000000000000000000000000000000000000000000000000000000000000000000000000000000000000000000000000000000000000000000000000000000000000000000000000",
      "type": "0x2",
      "transactionHash": "0x47d1491a379a794ac1ba580e3af48d445da2f2a2ee32bb83c3800b5359837a1d",
      "transactionIndex": "0x1",
      "blockHash": "0x7a1e3f75e2ce77848a57fa4f47abe307b9c124aa97db660f64d9549af0ceadb0",
      "blockNumber": "0x1f88d55",
      "gasUsed": "0xbf077e8",
      "effectiveGasPrice": "0x132b3a0",
      "from": "0x1234562eb0cd65e7d08e59f9f18d7c10b5df232a",
      "to": "0xc8f83c65d3f2987c2ac3abc7650f47af8093ba80",
      "contractAddress": null,
      "l1Fee": "0xa7a91",
      "l1FeeScalar": "0.01",
      "l1GasPrice": "0x8",
      "l1GasUsed": "0xb8c",
      "tokenRatio": "0xb58"
    },
    {
      "status": "0x1",
      "cumulativeGasUsed": "0xbf171ad",
      "logs": [],
      "logsBloom": "0x00000000000000000000000000000000000000000000000000000000000000000000000000000000000000000000000000000000000000000000000000000000000000000000000000000000000000000000000000000000000000000000000000000000000000000000000000000000000000000000000000000000000000000000000000000000000000000000000000000000000000000000000000000000000000000000000000000000000000000000000000000000000000000000000000000000000000000000000000000000000000000000000000000000000000000000000000000000000000000000000000000000000000000000000000000000",
      "type": "0x2",
      "transactionHash": "0xd47f716cdb7578ca1e47c8d020af0dd247652d60685d309cb17c0638a36f75cd",
      "transactionIndex": "0x1",
      "blockHash": "0xe2194eb229e92cd19d78e7a9aae4d0574835b2ca9a99df357a01b7d66d2cfde6",
      "blockNumber": "0x1f88d57",
      "gasUsed": "0xbf077e8",
      "effectiveGasPrice": "0x132b3a0",
      "from": "0x1234562eb0cd65e7d08e59f9f18d7c10b5df232a",
      "to": "0xc8f83c65d3f2987c2ac3abc7650f47af8093ba80",
      "contractAddress": null,
      "l1Fee": "0xa8575",
      "l1FeeScalar": "0.01",
      "l1GasPrice": "0x8",
      "l1GasUsed": "0xb98",
      "tokenRatio": "0xb58"
    },
    {
      "status": "0x1",
      "cumulativeGasUsed": "0xbf12ee1",
      "logs": [],
      "logsBloom": "0x00000000000000000000000000000000000000000000000000000000000000000000000000000000000000000000000000000000000000000000000000000000000000000000000000000000000000000000000000000000000000000000000000000000000000000000000000000000000000000000000000000000000000000000000000000000000000000000000000000000000000000000000000000000000000000000000000000000000000000000000000000000000000000000000000000000000000000000000000000000000000000000000000000000000000000000000000000000000000000000000000000000000000000000000000000000",
      "type": "0x2",
      "transactionHash": "0x1d10e7bdd1b0bc177f133670b6dc5095d02c6eee1e10e2fafd0f261fc075ab83",
      "transactionIndex": "0x1",
      "blockHash": "0xca2930cd7f5e76bf2992f266ef6c52b88c323e948bf9942367d2ea72bfd758dd",
      "blockNumber": "0x1f88d59",
      "gasUsed": "0xbf077e8",
      "effectiveGasPrice": "0x132b3a0",
      "from": "0x1234562eb0cd65e7d08e59f9f18d7c10b5df232a",
      "to": "0xc8f83c65d3f2987c2ac3abc7650f47af8093ba80",
      "contractAddress": null,
      "l1Fee": "0xa8575",
      "l1FeeScalar": "0.01",
      "l1GasPrice": "0x8",
      "l1GasUsed": "0xb98",
      "tokenRatio": "0xb58"
    },
    {
      "status": "0x1",
      "cumulativeGasUsed": "0x4f6b1058",
      "logs": [],
      "logsBloom": "0x00000000000000000000000000000000000000000000000000000000000000000000000000000000000000000000000000000000000000000000000000000000000000000000000000000000000000000000000000000000000000000000000000000000000000000000000000000000000000000000000000000000000000000000000000000000000000000000000000000000000000000000000000000000000000000000000000000000000000000000000000000000000000000000000000000000000000000000000000000000000000000000000000000000000000000000000000000000000000000000000000000000000000000000000000000000",
      "type": "0x2",
      "transactionHash": "0xa6a28a1fc349a50681e9673e262516d316566783b6faaed80bf1e9a79d4d8b06",
      "transactionIndex": "0x4",
      "blockHash": "0xb1b9d1f64eb5116b97bb1ef19389248150e29add0e90896ac49b45a9d39a417d",
      "blockNumber": "0x1f88d5b",
      "gasUsed": "0xbf077e8",
      "effectiveGasPrice": "0x132b3a0",
      "from": "0x1234562eb0cd65e7d08e59f9f18d7c10b5df232a",
      "to": "0xc8f83c65d3f2987c2ac3abc7650f47af8093ba80",
      "contractAddress": null,
      "l1Fee": "0xa8575",
      "l1FeeScalar": "0.01",
      "l1GasPrice": "0x8",
      "l1GasUsed": "0xb98",
      "tokenRatio": "0xb58"
    },
    {
      "status": "0x1",
      "cumulativeGasUsed": "0xbf171ad",
      "logs": [],
      "logsBloom": "0x00000000000000000000000000000000000000000000000000000000000000000000000000000000000000000000000000000000000000000000000000000000000000000000000000000000000000000000000000000000000000000000000000000000000000000000000000000000000000000000000000000000000000000000000000000000000000000000000000000000000000000000000000000000000000000000000000000000000000000000000000000000000000000000000000000000000000000000000000000000000000000000000000000000000000000000000000000000000000000000000000000000000000000000000000000000",
      "type": "0x2",
      "transactionHash": "0xd36ed00cb2db0453e5703c14cd241c7308cb7ebb5452a80f88299616c09cef52",
      "transactionIndex": "0x1",
      "blockHash": "0x5ff5ecf1181cfcb328cff061c9270c98d6931189f213da62548d081e3ce2f92c",
      "blockNumber": "0x1f88d5d",
      "gasUsed": "0xbf077e8",
      "effectiveGasPrice": "0x132b3a0",
      "from": "0x1234562eb0cd65e7d08e59f9f18d7c10b5df232a",
      "to": "0xc8f83c65d3f2987c2ac3abc7650f47af8093ba80",
      "contractAddress": null,
      "l1Fee": "0xa7a91",
      "l1FeeScalar": "0.01",
      "l1GasPrice": "0x8",
      "l1GasUsed": "0xb8c",
      "tokenRatio": "0xb58"
    },
    {
      "status": "0x1",
      "cumulativeGasUsed": "0xbf0a83f",
      "logs": [],
      "logsBloom": "0x00000000000000000000000000000000000000000000000000000000000000000000000000000000000000000000000000000000000000000000000000000000000000000000000000000000000000000000000000000000000000000000000000000000000000000000000000000000000000000000000000000000000000000000000000000000000000000000000000000000000000000000000000000000000000000000000000000000000000000000000000000000000000000000000000000000000000000000000000000000000000000000000000000000000000000000000000000000000000000000000000000000000000000000000000000000",
      "type": "0x2",
      "transactionHash": "0x0e8eb482f4c1785def7b7de39d31d6d159db02938a67ea2a02c4e93a0b056332",
      "transactionIndex": "0x1",
      "blockHash": "0x82381a414ae689e68ccf5f756fd15473609225acc89e525c8dbfc86b139a90a7",
      "blockNumber": "0x1f88d5f",
      "gasUsed": "0xbeff146",
      "effectiveGasPrice": "0x132b3a0",
      "from": "0x1234562eb0cd65e7d08e59f9f18d7c10b5df232a",
      "to": "0xc8f83c65d3f2987c2ac3abc7650f47af8093ba80",
      "contractAddress": null,
      "l1Fee": "0xa7a91",
      "l1FeeScalar": "0.01",
      "l1GasPrice": "0x8",
      "l1GasUsed": "0xb8c",
      "tokenRatio": "0xb58"
    },
    {
      "status": "0x1",
      "cumulativeGasUsed": "0xbf12ee1",
      "logs": [],
      "logsBloom": "0x00000000000000000000000000000000000000000000000000000000000000000000000000000000000000000000000000000000000000000000000000000000000000000000000000000000000000000000000000000000000000000000000000000000000000000000000000000000000000000000000000000000000000000000000000000000000000000000000000000000000000000000000000000000000000000000000000000000000000000000000000000000000000000000000000000000000000000000000000000000000000000000000000000000000000000000000000000000000000000000000000000000000000000000000000000000",
      "type": "0x2",
      "transactionHash": "0xcd59f3c6204a4b6e5889e7c2cd63e7d26efed74189aa67e2d3688e00b7bb7b23",
      "transactionIndex": "0x1",
      "blockHash": "0xe7ef2ee6e538097143331c06087fab0daf6490e6bf9de245f983e35df8024c21",
      "blockNumber": "0x1f88d61",
      "gasUsed": "0xbf077e8",
      "effectiveGasPrice": "0x132b3a0",
      "from": "0x1234562eb0cd65e7d08e59f9f18d7c10b5df232a",
      "to": "0xc8f83c65d3f2987c2ac3abc7650f47af8093ba80",
      "contractAddress": null,
      "l1Fee": "0xa7a91",
      "l1FeeScalar": "0.01",
      "l1GasPrice": "0x8",
      "l1GasUsed": "0xb8c",
      "tokenRatio": "0xb58"
    },
    {
      "status": "0x1",
      "cumulativeGasUsed": "0xbf171ad",
      "logs": [],
      "logsBloom": "0x00000000000000000000000000000000000000000000000000000000000000000000000000000000000000000000000000000000000000000000000000000000000000000000000000000000000000000000000000000000000000000000000000000000000000000000000000000000000000000000000000000000000000000000000000000000000000000000000000000000000000000000000000000000000000000000000000000000000000000000000000000000000000000000000000000000000000000000000000000000000000000000000000000000000000000000000000000000000000000000000000000000000000000000000000000000",
      "type": "0x2",
      "transactionHash": "0x4a3f841788d51ed265c5a7746916b3acd01c518676b17c5a8405b1ebbdac1588",
      "transactionIndex": "0x1",
      "blockHash": "0x86452f7fb553559f045d1d229c5a469e23443e18caffa331f26d4b271217a8d7",
      "blockNumber": "0x1f88d63",
      "gasUsed": "0xbf077e8",
      "effectiveGasPrice": "0x132b3a0",
      "from": "0x1234562eb0cd65e7d08e59f9f18d7c10b5df232a",
      "to": "0xc8f83c65d3f2987c2ac3abc7650f47af8093ba80",
      "contractAddress": null,
      "l1Fee": "0xa8575",
      "l1FeeScalar": "0.01",
      "l1GasPrice": "0x8",
      "l1GasUsed": "0xb98",
      "tokenRatio": "0xb58"
    },
    {
      "status": "0x1",
      "cumulativeGasUsed": "0xbf12ee1",
      "logs": [],
      "logsBloom": "0x00000000000000000000000000000000000000000000000000000000000000000000000000000000000000000000000000000000000000000000000000000000000000000000000000000000000000000000000000000000000000000000000000000000000000000000000000000000000000000000000000000000000000000000000000000000000000000000000000000000000000000000000000000000000000000000000000000000000000000000000000000000000000000000000000000000000000000000000000000000000000000000000000000000000000000000000000000000000000000000000000000000000000000000000000000000",
      "type": "0x2",
      "transactionHash": "0x92169beab81c8e935c63a1b58ad6dfb0ce4670f82024c53a29e4c53e749fda79",
      "transactionIndex": "0x1",
      "blockHash": "0x78e309f63fc9a7c263c6fc9a90e75f40a7e7eb90775e1fc40d144e4a6ef12883",
      "blockNumber": "0x1f88d65",
      "gasUsed": "0xbf077e8",
      "effectiveGasPrice": "0x132b3a0",
      "from": "0x1234562eb0cd65e7d08e59f9f18d7c10b5df232a",
      "to": "0xc8f83c65d3f2987c2ac3abc7650f47af8093ba80",
      "contractAddress": null,
      "l1Fee": "0xa8575",
      "l1FeeScalar": "0.01",
      "l1GasPrice": "0x8",
      "l1GasUsed": "0xb98",
      "tokenRatio": "0xb58"
    },
    {
      "status": "0x1",
      "cumulativeGasUsed": "0xbf12ee1",
      "logs": [],
      "logsBloom": "0x00000000000000000000000000000000000000000000000000000000000000000000000000000000000000000000000000000000000000000000000000000000000000000000000000000000000000000000000000000000000000000000000000000000000000000000000000000000000000000000000000000000000000000000000000000000000000000000000000000000000000000000000000000000000000000000000000000000000000000000000000000000000000000000000000000000000000000000000000000000000000000000000000000000000000000000000000000000000000000000000000000000000000000000000000000000",
      "type": "0x2",
      "transactionHash": "0x6ea02d65069def6f564fc483e2375ccb1a1a62d6278a0bb80baac6f3d4084438",
      "transactionIndex": "0x1",
      "blockHash": "0xd875c7ee36327e59b5116c2a10f4d0322b189a9d1bc0161b7e1d5cc31517955f",
      "blockNumber": "0x1f88d67",
      "gasUsed": "0xbf077e8",
      "effectiveGasPrice": "0x132b3a0",
      "from": "0x1234562eb0cd65e7d08e59f9f18d7c10b5df232a",
      "to": "0xc8f83c65d3f2987c2ac3abc7650f47af8093ba80",
      "contractAddress": null,
      "l1Fee": "0xa8575",
      "l1FeeScalar": "0.01",
      "l1GasPrice": "0x8",
      "l1GasUsed": "0xb98",
      "tokenRatio": "0xb58"
    },
    {
      "status": "0x1",
      "cumulativeGasUsed": "0xbf171ad",
      "logs": [],
      "logsBloom": "0x00000000000000000000000000000000000000000000000000000000000000000000000000000000000000000000000000000000000000000000000000000000000000000000000000000000000000000000000000000000000000000000000000000000000000000000000000000000000000000000000000000000000000000000000000000000000000000000000000000000000000000000000000000000000000000000000000000000000000000000000000000000000000000000000000000000000000000000000000000000000000000000000000000000000000000000000000000000000000000000000000000000000000000000000000000000",
      "type": "0x2",
      "transactionHash": "0x5822d4aea13a8461ec008426a39b673fcd62c2f53633b547aa7f85b3c51bcac8",
      "transactionIndex": "0x1",
      "blockHash": "0x00166c6c5e9225746705008d6e5331e0ff30a1b13d12ec4dd751d48cc3852977",
      "blockNumber": "0x1f88d69",
      "gasUsed": "0xbf077e8",
      "effectiveGasPrice": "0x132b3a0",
      "from": "0x1234562eb0cd65e7d08e59f9f18d7c10b5df232a",
      "to": "0xc8f83c65d3f2987c2ac3abc7650f47af8093ba80",
      "contractAddress": null,
      "l1Fee": "0xa8575",
      "l1FeeScalar": "0.01",
      "l1GasPrice": "0x8",
      "l1GasUsed": "0xb98",
      "tokenRatio": "0xb58"
    },
    {
      "status": "0x1",
      "cumulativeGasUsed": "0xbf0a83f",
      "logs": [],
      "logsBloom": "0x00000000000000000000000000000000000000000000000000000000000000000000000000000000000000000000000000000000000000000000000000000000000000000000000000000000000000000000000000000000000000000000000000000000000000000000000000000000000000000000000000000000000000000000000000000000000000000000000000000000000000000000000000000000000000000000000000000000000000000000000000000000000000000000000000000000000000000000000000000000000000000000000000000000000000000000000000000000000000000000000000000000000000000000000000000000",
      "type": "0x2",
      "transactionHash": "0x6249dfe24d8e1b4382ede9c11ea1f5d5030482047da913f3b7b32ac405ee1acf",
      "transactionIndex": "0x1",
      "blockHash": "0x938e2da7283527b8fafe1dd93ee2146d6e6cc954e2153313ecae818a10960957",
      "blockNumber": "0x1f88d6b",
      "gasUsed": "0xbeff146",
      "effectiveGasPrice": "0x132b3a0",
      "from": "0x1234562eb0cd65e7d08e59f9f18d7c10b5df232a",
      "to": "0xc8f83c65d3f2987c2ac3abc7650f47af8093ba80",
      "contractAddress": null,
      "l1Fee": "0xa7a91",
      "l1FeeScalar": "0.01",
      "l1GasPrice": "0x8",
      "l1GasUsed": "0xb8c",
      "tokenRatio": "0xb58"
    },
    {
      "status": "0x1",
      "cumulativeGasUsed": "0xbf12ee1",
      "logs": [],
      "logsBloom": "0x00000000000000000000000000000000000000000000000000000000000000000000000000000000000000000000000000000000000000000000000000000000000000000000000000000000000000000000000000000000000000000000000000000000000000000000000000000000000000000000000000000000000000000000000000000000000000000000000000000000000000000000000000000000000000000000000000000000000000000000000000000000000000000000000000000000000000000000000000000000000000000000000000000000000000000000000000000000000000000000000000000000000000000000000000000000",
      "type": "0x2",
      "transactionHash": "0x1f106cf9051781aa0aa8cea57c39d909c8995e048c7885f8c7e59a6bf8629d7c",
      "transactionIndex": "0x1",
      "blockHash": "0xd8030a167dcc39f25a1f63b0864ef233472998233c674b7102b3b12611ff818d",
      "blockNumber": "0x1f88d6d",
      "gasUsed": "0xbf077e8",
      "effectiveGasPrice": "0x132b3a0",
      "from": "0x1234562eb0cd65e7d08e59f9f18d7c10b5df232a",
      "to": "0xc8f83c65d3f2987c2ac3abc7650f47af8093ba80",
      "contractAddress": null,
      "l1Fee": "0xa8575",
      "l1FeeScalar": "0.01",
      "l1GasPrice": "0x8",
      "l1GasUsed": "0xb98",
      "tokenRatio": "0xb58"
    },
    {
      "status": "0x1",
      "cumulativeGasUsed": "0xbf171ad",
      "logs": [],
      "logsBloom": "0x00000000000000000000000000000000000000000000000000000000000000000000000000000000000000000000000000000000000000000000000000000000000000000000000000000000000000000000000000000000000000000000000000000000000000000000000000000000000000000000000000000000000000000000000000000000000000000000000000000000000000000000000000000000000000000000000000000000000000000000000000000000000000000000000000000000000000000000000000000000000000000000000000000000000000000000000000000000000000000000000000000000000000000000000000000000",
      "type": "0x2",
      "transactionHash": "0x1f76712902db8e4689380ebb0c35d2c7b7c914335a1ca1bf1f590d5dc4104697",
      "transactionIndex": "0x1",
      "blockHash": "0x056ea911aa929704fae1b00a6749037ca7ab5f78792dd6d99854ad9a7835eea9",
      "blockNumber": "0x1f88d6f",
      "gasUsed": "0xbf077e8",
      "effectiveGasPrice": "0x132b3a0",
      "from": "0x1234562eb0cd65e7d08e59f9f18d7c10b5df232a",
      "to": "0xc8f83c65d3f2987c2ac3abc7650f47af8093ba80",
      "contractAddress": null,
      "l1Fee": "0xa7a91",
      "l1FeeScalar": "0.01",
      "l1GasPrice": "0x8",
      "l1GasUsed": "0xb8c",
      "tokenRatio": "0xb58"
    },
    {
      "status": "0x1",
      "cumulativeGasUsed": "0xbf12ee1",
      "logs": [],
      "logsBloom": "0x00000000000000000000000000000000000000000000000000000000000000000000000000000000000000000000000000000000000000000000000000000000000000000000000000000000000000000000000000000000000000000000000000000000000000000000000000000000000000000000000000000000000000000000000000000000000000000000000000000000000000000000000000000000000000000000000000000000000000000000000000000000000000000000000000000000000000000000000000000000000000000000000000000000000000000000000000000000000000000000000000000000000000000000000000000000",
      "type": "0x2",
      "transactionHash": "0x9b5d497846ab970c98a2bba070e589188ac610cfe736fab009454af9faff6731",
      "transactionIndex": "0x1",
      "blockHash": "0xbbe6243293ff8ec98bbd8815a2022d3a64cff4962ce7ed3c44e7ee215bdd3017",
      "blockNumber": "0x1f88d71",
      "gasUsed": "0xbf077e8",
      "effectiveGasPrice": "0x132b3a0",
      "from": "0x1234562eb0cd65e7d08e59f9f18d7c10b5df232a",
      "to": "0xc8f83c65d3f2987c2ac3abc7650f47af8093ba80",
      "contractAddress": null,
      "l1Fee": "0xa8575",
      "l1FeeScalar": "0.01",
      "l1GasPrice": "0x8",
      "l1GasUsed": "0xb98",
      "tokenRatio": "0xb58"
    },
    {
      "status": "0x1",
      "cumulativeGasUsed": "0xbee085c",
      "logs": [],
      "logsBloom": "0x00000000000000000000000000000000000000000000000000000000000000000000000000000000000000000000000000000000000000000000000000000000000000000000000000000000000000000000000000000000000000000000000000000000000000000000000000000000000000000000000000000000000000000000000000000000000000000000000000000000000000000000000000000000000000000000000000000000000000000000000000000000000000000000000000000000000000000000000000000000000000000000000000000000000000000000000000000000000000000000000000000000000000000000000000000000",
      "type": "0x2",
      "transactionHash": "0xa6d9e57ea0eaf0976db9d4465e779e27190a7360b2e383da94cc2842236c1458",
      "transactionIndex": "0x1",
      "blockHash": "0xf21f3fa153cb09273c1b15c416aca11fd947bb4639e01eaaf153e19de9fcc99a",
      "blockNumber": "0x1f88d73",
      "gasUsed": "0xbed5163",
      "effectiveGasPrice": "0x132b3a0",
      "from": "0x1234562eb0cd65e7d08e59f9f18d7c10b5df232a",
      "to": "0xc8f83c65d3f2987c2ac3abc7650f47af8093ba80",
      "contractAddress": null,
      "l1Fee": "0xa82ad",
      "l1FeeScalar": "0.01",
      "l1GasPrice": "0x8",
      "l1GasUsed": "0xb98",
      "tokenRatio": "0xb55"
    },
    {
      "status": "0x1",
      "cumulativeGasUsed": "0xbedbf7c",
      "logs": [],
      "logsBloom": "0x00000000000000000000000000000000000000000000000000000000000000000000000000000000000000000000000000000000000000000000000000000000000000000000000000000000000000000000000000000000000000000000000000000000000000000000000000000000000000000000000000000000000000000000000000000000000000000000000000000000000000000000000000000000000000000000000000000000000000000000000000000000000000000000000000000000000000000000000000000000000000000000000000000000000000000000000000000000000000000000000000000000000000000000000000000000",
      "type": "0x2",
      "transactionHash": "0xe168723b6ee3f4a59e8e1c777c4e173a7459c4bcf2bdc2361063f9d19a87f090",
      "transactionIndex": "0x1",
      "blockHash": "0x23dafd25c7318e664183f2807ca42eca1e7358b5c6c558cf8afb25096a687e5e",
      "blockNumber": "0x1f88d75",
      "gasUsed": "0xbecc5b7",
      "effectiveGasPrice": "0x132b3a0",
      "from": "0x1234562eb0cd65e7d08e59f9f18d7c10b5df232a",
      "to": "0xc8f83c65d3f2987c2ac3abc7650f47af8093ba80",
      "contractAddress": null,
      "l1Fee": "0xa6ceb",
      "l1FeeScalar": "0.01",
      "l1GasPrice": "0x8",
      "l1GasUsed": "0xb80",
      "tokenRatio": "0xb55"
    },
    {
      "status": "0x1",
      "cumulativeGasUsed": "0xbee0330",
      "logs": [],
      "logsBloom": "0x00000000000000000000000000000000000000000000000000000000000000000000000000000000000000000000000000000000000000000000000000000000000000000000000000000000000000000000000000000000000000000000000000000000000000000000000000000000000000000000000000000000000000000000000000000000000000000000000000000000000000000000000000000000000000000000000000000000000000000000000000000000000000000000000000000000000000000000000000000000000000000000000000000000000000000000000000000000000000000000000000000000000000000000000000000000",
      "type": "0x2",
      "transactionHash": "0x0034050738f61a89112586bfc0c3c0889ed2a0e940f211fe47bf09b3f4295d1f",
      "transactionIndex": "0x1",
      "blockHash": "0xf824fbb242a5ecefea2538bb5f4052af0f34a4e705263379bc8d260f6f2ea7a9",
      "blockNumber": "0x1f88d77",
      "gasUsed": "0xbed4c37",
      "effectiveGasPrice": "0x132b3a0",
      "from": "0x1234562eb0cd65e7d08e59f9f18d7c10b5df232a",
      "to": "0xc8f83c65d3f2987c2ac3abc7650f47af8093ba80",
      "contractAddress": null,
      "l1Fee": "0xa82ad",
      "l1FeeScalar": "0.01",
      "l1GasPrice": "0x8",
      "l1GasUsed": "0xb98",
      "tokenRatio": "0xb55"
    },
    {
      "status": "0x1",
      "cumulativeGasUsed": "0xbee0330",
      "logs": [],
      "logsBloom": "0x00000000000000000000000000000000000000000000000000000000000000000000000000000000000000000000000000000000000000000000000000000000000000000000000000000000000000000000000000000000000000000000000000000000000000000000000000000000000000000000000000000000000000000000000000000000000000000000000000000000000000000000000000000000000000000000000000000000000000000000000000000000000000000000000000000000000000000000000000000000000000000000000000000000000000000000000000000000000000000000000000000000000000000000000000000000",
      "type": "0x2",
      "transactionHash": "0x154949ee395140e98b0f989e20461281467ed9d98dad0f6d4b8ed4500c7cae2b",
      "transactionIndex": "0x1",
      "blockHash": "0x8d14ddd74d6393acb3583c903d04890d095370d35a4252160a492bafdcc53ef3",
      "blockNumber": "0x1f88d79",
      "gasUsed": "0xbed4c37",
      "effectiveGasPrice": "0x132b3a0",
      "from": "0x1234562eb0cd65e7d08e59f9f18d7c10b5df232a",
      "to": "0xc8f83c65d3f2987c2ac3abc7650f47af8093ba80",
      "contractAddress": null,
      "l1Fee": "0xa82ad",
      "l1FeeScalar": "0.01",
      "l1GasPrice": "0x8",
      "l1GasUsed": "0xb98",
      "tokenRatio": "0xb55"
    },
    {
      "status": "0x1",
      "cumulativeGasUsed": "0xbee45fc",
      "logs": [],
      "logsBloom": "0x00000000000000000000000000000000000000000000000000000000000000000000000000000000000000000000000000000000000000000000000000000000000000000000000000000000000000000000000000000000000000000000000000000000000000000000000000000000000000000000000000000000000000000000000000000000000000000000000000000000000000000000000000000000000000000000000000000000000000000000000000000000000000000000000000000000000000000000000000000000000000000000000000000000000000000000000000000000000000000000000000000000000000000000000000000000",
      "type": "0x2",
      "transactionHash": "0x788f368bf6ae2c0e4d1f81917bba23268099d1b78d7e48dc0fff61eb3fb54ade",
      "transactionIndex": "0x1",
      "blockHash": "0xbf6cdcfed0beca12015e531cbc67767e2f44e4cafdfe294f0c4fad92f3ac4529",
      "blockNumber": "0x1f88d7b",
      "gasUsed": "0xbed4c37",
      "effectiveGasPrice": "0x132b3a0",
      "from": "0x1234562eb0cd65e7d08e59f9f18d7c10b5df232a",
      "to": "0xc8f83c65d3f2987c2ac3abc7650f47af8093ba80",
      "contractAddress": null,
      "l1Fee": "0xa82ad",
      "l1FeeScalar": "0.01",
      "l1GasPrice": "0x8",
      "l1GasUsed": "0xb98",
      "tokenRatio": "0xb55"
    },
    {
      "status": "0x1",
      "cumulativeGasUsed": "0xbed7cb0",
      "logs": [],
      "logsBloom": "0x00000000000000000000000000000000000000000000000000000000000000000000000000000000000000000000000000000000000000000000000000000000000000000000000000000000000000000000000000000000000000000000000000000000000000000000000000000000000000000000000000000000000000000000000000000000000000000000000000000000000000000000000000000000000000000000000000000000000000000000000000000000000000000000000000000000000000000000000000000000000000000000000000000000000000000000000000000000000000000000000000000000000000000000000000000000",
      "type": "0x2",
      "transactionHash": "0xed54cf4b1547bddaea8c0b996ae5a43b0131490acb4158473c63dd5556d1f9af",
      "transactionIndex": "0x1",
      "blockHash": "0xdc464cafb0189beb49735dba09bd8e1a231a8d41c6f0a783de3c84e4ddf01f5f",
      "blockNumber": "0x1f88d7e",
      "gasUsed": "0xbecc5b7",
      "effectiveGasPrice": "0x132b3a0",
      "from": "0x1234562eb0cd65e7d08e59f9f18d7c10b5df232a",
      "to": "0xc8f83c65d3f2987c2ac3abc7650f47af8093ba80",
      "contractAddress": null,
      "l1Fee": "0xa77cc",
      "l1FeeScalar": "0.01",
      "l1GasPrice": "0x8",
      "l1GasUsed": "0xb8c",
      "tokenRatio": "0xb55"
    },
    {
      "status": "0x1",
      "cumulativeGasUsed": "0xbee0330",
      "logs": [],
      "logsBloom": "0x00000000000000000000000000000000000000000000000000000000000000000000000000000000000000000000000000000000000000000000000000000000000000000000000000000000000000000000000000000000000000000000000000000000000000000000000000000000000000000000000000000000000000000000000000000000000000000000000000000000000000000000000000000000000000000000000000000000000000000000000000000000000000000000000000000000000000000000000000000000000000000000000000000000000000000000000000000000000000000000000000000000000000000000000000000000",
      "type": "0x2",
      "transactionHash": "0xe600c1104466aac8145af26b086fb11abe8ac945d46f2860ac4139f01b3e523a",
      "transactionIndex": "0x1",
      "blockHash": "0xae24bb86baad549cab426cfa933169e65ecb6cad41297ebc4163d69960ff1ee3",
      "blockNumber": "0x1f88d83",
      "gasUsed": "0xbed4c37",
      "effectiveGasPrice": "0x132b3a0",
      "from": "0x1234562eb0cd65e7d08e59f9f18d7c10b5df232a",
      "to": "0xc8f83c65d3f2987c2ac3abc7650f47af8093ba80",
      "contractAddress": null,
      "l1Fee": "0xa82ad",
      "l1FeeScalar": "0.01",
      "l1GasPrice": "0x8",
      "l1GasUsed": "0xb98",
      "tokenRatio": "0xb55"
    },
    {
      "status": "0x1",
      "cumulativeGasUsed": "0xbee0324",
      "logs": [],
      "logsBloom": "0x00000000000000000000000000000000000000000000000000000000000000000000000000000000000000000000000000000000000000000000000000000000000000000000000000000000000000000000000000000000000000000000000000000000000000000000000000000000000000000000000000000000000000000000000000000000000000000000000000000000000000000000000000000000000000000000000000000000000000000000000000000000000000000000000000000000000000000000000000000000000000000000000000000000000000000000000000000000000000000000000000000000000000000000000000000000",
      "type": "0x2",
      "transactionHash": "0x9734e2f55d467e960391641b8faab0ccbb4eabff9c54ea663c78fc899e602732",
      "transactionIndex": "0x1",
      "blockHash": "0x98295d5e1f3a7d10797be24266ac2299de3f6fa97b764635a3ce1a673f769706",
      "blockNumber": "0x1f88d89",
      "gasUsed": "0xbed4c37",
      "effectiveGasPrice": "0x132b3a0",
      "from": "0x1234562eb0cd65e7d08e59f9f18d7c10b5df232a",
      "to": "0xc8f83c65d3f2987c2ac3abc7650f47af8093ba80",
      "contractAddress": null,
      "l1Fee": "0xa77cc",
      "l1FeeScalar": "0.01",
      "l1GasPrice": "0x8",
      "l1GasUsed": "0xb8c",
      "tokenRatio": "0xb55"
    },
    {
      "status": "0x1",
      "cumulativeGasUsed": "0xbee0324",
      "logs": [],
      "logsBloom": "0x00000000000000000000000000000000000000000000000000000000000000000000000000000000000000000000000000000000000000000000000000000000000000000000000000000000000000000000000000000000000000000000000000000000000000000000000000000000000000000000000000000000000000000000000000000000000000000000000000000000000000000000000000000000000000000000000000000000000000000000000000000000000000000000000000000000000000000000000000000000000000000000000000000000000000000000000000000000000000000000000000000000000000000000000000000000",
      "type": "0x2",
      "transactionHash": "0x64211cb0f1b66643fe8b541dd3a0ba8778928669e423989d66e8a3815cf6f723",
      "transactionIndex": "0x1",
      "blockHash": "0x57ec45574ac0adf4bc8c61825a1079a25ac4af98da00919119cc65cea55403b6",
      "blockNumber": "0x1f88d8d",
      "gasUsed": "0xbed4c37",
      "effectiveGasPrice": "0x132b3a0",
      "from": "0x1234562eb0cd65e7d08e59f9f18d7c10b5df232a",
      "to": "0xc8f83c65d3f2987c2ac3abc7650f47af8093ba80",
      "contractAddress": null,
      "l1Fee": "0xa82ad",
      "l1FeeScalar": "0.01",
      "l1GasPrice": "0x8",
      "l1GasUsed": "0xb98",
      "tokenRatio": "0xb55"
    },
    {
      "status": "0x1",
      "cumulativeGasUsed": "0x20efb4d9",
      "logs": [],
      "logsBloom": "0x00000000000000000000000000000000000000000000000000000000000000000000000000000000000000000000000000000000000000000000000000000000000000000000000000000000000000000000000000000000000000000000000000000000000000000000000000000000000000000000000000000000000000000000000000000000000000000000000000000000000000000000000000000000000000000000000000000000000000000000000000000000000000000000000000000000000000000000000000000000000000000000000000000000000000000000000000000000000000000000000000000000000000000000000000000000",
      "type": "0x2",
      "transactionHash": "0xc6171c229a0da5c0674c760f17c47e550bb10e2292f853fbc25a8e228c00072f",
      "transactionIndex": "0x2",
      "blockHash": "0x8b893d5a72c39bc95b5d234a7fab696c8e8d213331042ead36816a030c47b300",
      "blockNumber": "0x1f88d92",
      "gasUsed": "0xbecc5b7",
      "effectiveGasPrice": "0x132b3a0",
      "from": "0x1234562eb0cd65e7d08e59f9f18d7c10b5df232a",
      "to": "0xc8f83c65d3f2987c2ac3abc7650f47af8093ba80",
      "contractAddress": null,
      "l1Fee": "0xa6ceb",
      "l1FeeScalar": "0.01",
      "l1GasPrice": "0x8",
      "l1GasUsed": "0xb80",
      "tokenRatio": "0xb55"
    },
    {
      "status": "0x1",
      "cumulativeGasUsed": "0xbed9284",
      "logs": [],
      "logsBloom": "0x00000000000000000000000000000000000000000000000000000000000000000000000000000000000000000000000000000000000000000000000000000000000000000000000000000000000000000000000000000000000000000000000000000000000000000000000000000000000000000000000000000000000000000000000000000000000000000000000000000000000000000000000000000000000000000000000000000000000000000000000000000000000000000000000000000000000000000000000000000000000000000000000000000000000000000000000000000000000000000000000000000000000000000000000000000000",
      "type": "0x2",
      "transactionHash": "0xf5d998ad216dafa6095685cc081e341653a45f462ef698b049fe31f68d29ab5c",
      "transactionIndex": "0x1",
      "blockHash": "0x077f4bf0892575c583f606a6b792667f2a254c6a169ca6e246a1a324a4840e8f",
      "blockNumber": "0x1f88d98",
      "gasUsed": "0xbecc5b7",
      "effectiveGasPrice": "0x132b3a0",
      "from": "0x1234562eb0cd65e7d08e59f9f18d7c10b5df232a",
      "to": "0xc8f83c65d3f2987c2ac3abc7650f47af8093ba80",
      "contractAddress": null,
      "l1Fee": "0xa77cc",
      "l1FeeScalar": "0.01",
      "l1GasPrice": "0x8",
      "l1GasUsed": "0xb8c",
      "tokenRatio": "0xb55"
    },
    {
      "status": "0x1",
      "cumulativeGasUsed": "0xbed7cb0",
      "logs": [],
      "logsBloom": "0x00000000000000000000000000000000000000000000000000000000000000000000000000000000000000000000000000000000000000000000000000000000000000000000000000000000000000000000000000000000000000000000000000000000000000000000000000000000000000000000000000000000000000000000000000000000000000000000000000000000000000000000000000000000000000000000000000000000000000000000000000000000000000000000000000000000000000000000000000000000000000000000000000000000000000000000000000000000000000000000000000000000000000000000000000000000",
      "type": "0x2",
      "transactionHash": "0x431858f0da294d9203dfd84c0552b1d9a7be08dac7123b06ade704f3e42b0dd6",
      "transactionIndex": "0x1",
      "blockHash": "0x9587a02f18283a1c6d94cb0e2560c5e5af1163157a8aa590217ea5cd0fe6676f",
      "blockNumber": "0x1f88d9c",
      "gasUsed": "0xbecc5b7",
      "effectiveGasPrice": "0x132b3a0",
      "from": "0x1234562eb0cd65e7d08e59f9f18d7c10b5df232a",
      "to": "0xc8f83c65d3f2987c2ac3abc7650f47af8093ba80",
      "contractAddress": null,
      "l1Fee": "0xa77cc",
      "l1FeeScalar": "0.01",
      "l1GasPrice": "0x8",
      "l1GasUsed": "0xb8c",
      "tokenRatio": "0xb55"
    },
    {
      "status": "0x1",
      "cumulativeGasUsed": "0xbee0330",
      "logs": [],
      "logsBloom": "0x00000000000000000000000000000000000000000000000000000000000000000000000000000000000000000000000000000000000000000000000000000000000000000000000000000000000000000000000000000000000000000000000000000000000000000000000000000000000000000000000000000000000000000000000000000000000000000000000000000000000000000000000000000000000000000000000000000000000000000000000000000000000000000000000000000000000000000000000000000000000000000000000000000000000000000000000000000000000000000000000000000000000000000000000000000000",
      "type": "0x2",
      "transactionHash": "0x79ad4f48f28cc9171043415080affc127b4302a5ddee2948a3497fce9d3f784f",
      "transactionIndex": "0x1",
      "blockHash": "0x7350c8e6506b0941add1a4d688d3bcba3a6cf489e00cbdd0725f957720201014",
      "blockNumber": "0x1f88da1",
      "gasUsed": "0xbed4c37",
      "effectiveGasPrice": "0x132b3a0",
      "from": "0x1234562eb0cd65e7d08e59f9f18d7c10b5df232a",
      "to": "0xc8f83c65d3f2987c2ac3abc7650f47af8093ba80",
      "contractAddress": null,
      "l1Fee": "0xa82ad",
      "l1FeeScalar": "0.01",
      "l1GasPrice": "0x8",
      "l1GasUsed": "0xb98",
      "tokenRatio": "0xb55"
    },
    {
      "status": "0x1",
      "cumulativeGasUsed": "0xbee0330",
      "logs": [],
      "logsBloom": "0x00000000000000000000000000000000000000000000000000000000000000000000000000000000000000000000000000000000000000000000000000000000000000000000000000000000000000000000000000000000000000000000000000000000000000000000000000000000000000000000000000000000000000000000000000000000000000000000000000000000000000000000000000000000000000000000000000000000000000000000000000000000000000000000000000000000000000000000000000000000000000000000000000000000000000000000000000000000000000000000000000000000000000000000000000000000",
      "type": "0x2",
      "transactionHash": "0x1097ac8e3d8badb0aad3acc4017eb259ec686315c054e8fffb5563b87e92e009",
      "transactionIndex": "0x1",
      "blockHash": "0x244f69e4abe86d99bb4ee3c88be3bd22b5a499e5b04b29dc30a1384256b112f8",
      "blockNumber": "0x1f88da7",
      "gasUsed": "0xbed4c37",
      "effectiveGasPrice": "0x132b3a0",
      "from": "0x1234562eb0cd65e7d08e59f9f18d7c10b5df232a",
      "to": "0xc8f83c65d3f2987c2ac3abc7650f47af8093ba80",
      "contractAddress": null,
      "l1Fee": "0xa82ad",
      "l1FeeScalar": "0.01",
      "l1GasPrice": "0x8",
      "l1GasUsed": "0xb98",
      "tokenRatio": "0xb55"
    },
    {
      "status": "0x1",
      "cumulativeGasUsed": "0xbee45fc",
      "logs": [],
      "logsBloom": "0x00000000000000000000000000000000000000000000000000000000000000000000000000000000000000000000000000000000000000000000000000000000000000000000000000000000000000000000000000000000000000000000000000000000000000000000000000000000000000000000000000000000000000000000000000000000000000000000000000000000000000000000000000000000000000000000000000000000000000000000000000000000000000000000000000000000000000000000000000000000000000000000000000000000000000000000000000000000000000000000000000000000000000000000000000000000",
      "type": "0x2",
      "transactionHash": "0xb1808cad2956747552d1b4c5691e1c87832bf3a1a62194433a7adbdcc7109881",
      "transactionIndex": "0x1",
      "blockHash": "0xcaa58d29223ded6c31dc062db7de99c47e63945ddf77bcb290bf6e30a9413e9a",
      "blockNumber": "0x1f88dab",
      "gasUsed": "0xbed4c37",
      "effectiveGasPrice": "0x132b3a0",
      "from": "0x1234562eb0cd65e7d08e59f9f18d7c10b5df232a",
      "to": "0xc8f83c65d3f2987c2ac3abc7650f47af8093ba80",
      "contractAddress": null,
      "l1Fee": "0xa82ad",
      "l1FeeScalar": "0.01",
      "l1GasPrice": "0x8",
      "l1GasUsed": "0xb98",
      "tokenRatio": "0xb55"
    },
    {
      "status": "0x1",
      "cumulativeGasUsed": "0x63bc066",
      "logs": [
        {
          "address": "0xdb26ba8581979dc4e11218735f821af5171fb737",
          "topics": [
            "0xca394f95d8dbf1e8b2e76b9a8da90cacce1da85181a65508dab13212dc1df53b",
            "0x0000000000000000000000002bf7e65df939482869b96a6beb88d3e5bf58fb81",
            "0x000000000000000000000000c8f83c65d3f2987c2ac3abc7650f47af8093ba80"
          ],
          "data": "0x",
          "blockHash": "0x72cd4ae45f8a6535894cef0bb6a4c33c2f5b3bcbb95797f8ba8961e89cd7c97b",
          "blockNumber": "0x1f88db0",
          "blockTimestamp": "0x695c9e41",
          "transactionHash": "0x58bc539246e54d2a8a52836dc1968f7a1d45aca83f231f44fb08e16518bf2dd5",
          "transactionIndex": "0x1",
          "logIndex": "0x0",
          "removed": false
        }
      ],
      "logsBloom": "0x00000000000000000000000000000000000000000000000000000000000000000002000000000000000000000000000000000000000000000000000000000000000000000000000000000000000000000000000000000000000000100000002000000000000040000000000000000000020000000008000000000000000000000400000000000000000000200000000000000000000000000000000000000000000000000000000000000000000000000000000000000000000000010000000000000000000000000000000000000000000000000000000000000000000000000000000000000000000000208000000000000000000000000000008000000000",
      "type": "0x2",
      "transactionHash": "0x58bc539246e54d2a8a52836dc1968f7a1d45aca83f231f44fb08e16518bf2dd5",
      "transactionIndex": "0x1",
      "blockHash": "0x72cd4ae45f8a6535894cef0bb6a4c33c2f5b3bcbb95797f8ba8961e89cd7c97b",
      "blockNumber": "0x1f88db0",
      "gasUsed": "0x63af399",
      "effectiveGasPrice": "0x132b3a0",
      "from": "0x1234562eb0cd65e7d08e59f9f18d7c10b5df232a",
      "to": "0xdb26ba8581979dc4e11218735f821af5171fb737",
      "contractAddress": null,
      "l1Fee": "0x8a7a3",
      "l1FeeScalar": "0.01",
      "l1GasPrice": "0x8",
      "l1GasUsed": "0x98c",
      "tokenRatio": "0xb55"
    }
  ],
  "libraries": [],
  "pending": [],
  "returns": {},
  "timestamp": 1767677532483,
  "chain": 5003,
  "commit": "5ab44b9"
}