{
  "transactions": [
    {
      "hash": "0x48261d3c21d5775ab3c7dd8bc024431f08a73883de08ff49b769cbd04c480e98",
      "transactionType": "CREATE",
      "contractName": "KubiStreamerDonation",
      "contractAddress": "0x0750e6b0ebed961a1e2524fe59b87235434b4dd5",
      "function": null,
      "arguments": [
        "0x2bF7E65df939482869b96A6BEb88d3e5bF58Fb81",
        "0x1234b50310fF79958509d1a9C8a92458ED1496D1",
        "250",
        "0x123454Ce54DEBE2cEbCe95740E9e0f65DFf9DBE2"
      ],
      "transaction": {
        "from": "0x1234562eb0cd65e7d08e59f9f18d7c10b5df232a",
        "gas": "0x328bfff8f",
        "value": "0x0",
        "input": "0x60e0806040523461021a576080816135dc803803809161001f82856102b2565b83398101031261021a57610032816102e9565b9061003f602082016102e9565b9060408101519061ffff82169081830361021a57606061005f91016102e9565b5f80546001600160a01b0319163390811782556040519296917f8be0079c531659141344cd1fd0a4f28419497f9722a3daafe3b4186f6b6457e08180a3600180556001600160a01b031691821580156102a1575b8015610290575b610281576103e81061027257608082905263c45a015560e01b8152602081600481855afa908115610226575f91610231575b506001600160a01b031660a0526040516312a9293f60e21b815290602090829060049082905afa908115610226575f916101e8575b5060c052600280546001600160b01b0319166001600160a01b039384161760a09290921b61ffff60a01b16919091179055600380546001600160a01b031916929091169190911790556040516132de90816102fe82396080518181816102170152818161298501528181612a6201528181612ce00152612f40015260a05181818161086d015281816128e401528181612c570152612ea3015260c0518181816108f60152818161092801528181610a76015281816126fa01528181612df401526132260152f35b90506020813d60201161021e575b81610203602093836102b2565b8101031261021a57610214906102e9565b5f610121565b5f80fd5b3d91506101f6565b6040513d5f823e3d90fd5b90506020813d60201161026a575b8161024c602093836102b2565b8101031261021a576004916102626020926102e9565b9150916100ec565b3d915061023f565b63cd4e616760e01b5f5260045ffd5b63d92e233d60e01b5f5260045ffd5b506001600160a01b038616156100ba565b506001600160a01b038516156100b3565b601f909101601f19168101906001600160401b038211908210176102d557604052565b634e487b7160e01b5f52604160045260245ffd5b51906001600160a01b038216820361021a5756fe6080806040526004361015610034575b50361561002557631021348160e01b5f5260045ffd5b631021348160e01b5f5260045ffd5b5f3560e01c9081630c495f961461170057508063168b63d81461166f57806324a9d8531461164b57806325d86ced146115a057806329575f6a14611578578063469048401461155057806356d5d4751461121d57806376cd0ac11461113e5780637a6f1dcc14610fc15780637b955ebd14610f385780637f507f3f14610eda578063876a46ff14610dac57806388ba16ab14610d7d5780638da5cb5b14610d565780639ab2f6b914610cd4578063a0d2d83014610afc578063a9563e4f14610aa5578063ad5c464814610a61578063b0e0c128146109e5578063b45faa761461089c578063c45a015514610858578063cd1b7d6c146107a7578063d55be8c61461078b578063ddb2a09614610736578063e051e81a146106dc578063e165fe3d14610685578063e1f43347146105a2578063e34d4ceb1461054d578063e9a45291146104db578063ec28750614610462578063ee5e4fa314610408578063f2fde38b14610386578063f6fe94b014610246578063f887ea40146102025763fef0c4a1146101c1575f61000f565b346101fe5760203660031901126101fe576001600160a01b036101e26118d9565b165f526004602052602060ff60405f2054166040519015158152f35b5f80fd5b346101fe575f3660031901126101fe576040517f00000000000000000000000000000000000000000000000000000000000000006001600160a01b03168152602090f35b346101fe5760603660031901126101fe5761025f6118d9565b6102676118ef565b90610270611930565b6001600160a01b03909116913383141580610371575b8061035d575b61034e576001600160a01b03165f8181526004602052604090205460ff161561033f57825f52600a6020528060405f2093815f52600185016020526102e08460405f209060ff801983541691151516179055565b7f160aca386eecd6b8deb0127ecafcd60a1081e3f9dfa75de2cfd22ea186e8d3f1602060405195159586158152a38161032b575b5061031b57005b80546001600160a01b0319169055005b82546001600160a01b031614905082610314565b633ba12a1560e11b5f5260045ffd5b63641410b160e11b5f5260045ffd5b505f546001600160a01b031633141561028c565b506002546001600160a01b0316331415610286565b346101fe5760203660031901126101fe5761039f6118d9565b5f546001600160a01b03811691338390036103f9576001600160a01b03169182156101fe5782907f8be0079c531659141344cd1fd0a4f28419497f9722a3daafe3b4186f6b6457e05f80a36001600160a01b031916175f55005b635fc483c560e01b5f5260045ffd5b346101fe5760403660031901126101fe576104216118d9565b6104296118ef565b9060018060a01b03165f52600a602052600160405f20019060018060a01b03165f52602052602060ff60405f2054166040519015158152f35b346101fe576101403660031901126101fe5761047d366119b7565b610488303314611a67565b6104918161275b565b60018060a01b0360a08201511690608060018060a01b036020830151169101516040519182526020820152600160408201525f5160206132895f395f51905f5260606101243592a3005b346101fe5760403660031901126101fe576104f46118d9565b6104fc6118ef565b336001600160a01b038316141580610538575b80610524575b61034e5761052291611e46565b005b505f546001600160a01b0316331415610515565b506002546001600160a01b031633141561050f565b346101fe5760403660031901126101fe57610566611a54565b63ffffffff6105736118ef565b91165f52600860205260405f209060018060a01b03165f52602052602060ff60405f2054166040519015158152f35b346101fe5760603660031901126101fe576105bb611a54565b6105c36118ef565b6105cb611930565b9060018060a01b035f541633141580610670575b610661576001600160a01b031691821561065257602063ffffffff7f4d49d3f3f3e2ec61b682ac1aa8adb9e1945c29b4df4aab45492b365a611b7b9f921692835f526008825260405f20855f5282526106478160405f209060ff801983541691151516179055565b6040519015158152a3005b63d92e233d60e01b5f5260045ffd5b63127f16f360e31b5f5260045ffd5b506002546001600160a01b03163314156105df565b346101fe5760403660031901126101fe5761069e6118d9565b6106a66118ef565b6001600160a01b039182165f908152600a6020908152604080832093851683526002909301815290829020549151919092168152f35b346101fe5760203660031901126101fe576001600160a01b036106fd6118d9565b165f526006602052606060405f20600181549101546040519160ff81161515835260018060a01b039060081c1660208301526040820152f35b346101fe5760203660031901126101fe576001600160a01b036107576118d9565b165f908152600a6020908152604091829020805460049091015483516001600160a01b039283168152911691810191909152f35b346101fe575f3660031901126101fe5760206040516103e88152f35b346101fe5760403660031901126101fe5760043561ffff81168082036101fe576107cf6118ef565b9060018060a01b035f541633141580610843575b610661576103e810610834576001600160a01b0316908115610652576002805461ffff60a01b191660a09290921b61ffff60a01b16919091179055600380546001600160a01b031916919091179055005b63cd4e616760e01b5f5260045ffd5b506002546001600160a01b03163314156107e3565b346101fe575f3660031901126101fe576040517f00000000000000000000000000000000000000000000000000000000000000006001600160a01b03168152602090f35b346101fe5760603660031901126101fe576108b56118d9565b6108bd6118ef565b6044359162ffffff831683036101fe575f546001600160a01b0316331415806109d0575b610661576001600160a01b0381166109ca57507f0000000000000000000000000000000000000000000000000000000000000000905b6001600160a01b0381166109c457507f0000000000000000000000000000000000000000000000000000000000000000905b6001600160a01b031690811580156109b3575b610652575f8281526005602081815260408084206001600160a01b03959095168452938152838320805462ffffff9790971662ffffff19978816811790915591815283832094835293909352208054909216179055005b506001600160a01b0381161561095c565b90610949565b90610917565b506002546001600160a01b03163314156108e1565b346101fe576101603660031901126101fe57610a00366119b7565b610a08611905565b610a13303314611a67565b610a1d8183612832565b608060018060a01b0360a0840151169201516040519160018060a01b031682526020820152600160408201525f5160206132895f395f51905f5260606101443592a3005b346101fe575f3660031901126101fe576040517f00000000000000000000000000000000000000000000000000000000000000006001600160a01b03168152602090f35b346101fe5760403660031901126101fe57610abe6118d9565b610ac66118ef565b9060018060a01b03165f52600560205260405f209060018060a01b03165f52602052602062ffffff60405f205416604051908152f35b346101fe5760403660031901126101fe57610b156118d9565b610b1d6118ef565b906001600160a01b03163381141580610cbf575b80610cab575b61034e575f818152600a60205260409020916001600160a01b03168015610652575f8181526003840160208190526040909120546001600160a01b0316938415610c78576001600160a01b038581165f9081526002830160205260409020541683145b15610c695760049160018060a01b0386165f526002820160205260405f206001600160601b0360a01b8154169055835f5260205260405f206001600160601b0360a01b8154169055019060018060a01b0382541614610c2f575b506040515f81526001600160a01b03909216917f07efacf833c0332f419c637a012a52fe4647777ec52b15b904c88856048dc94f90602090a3005b80546001600160a01b03191690556040515f81526001600160a01b0383169082905f5160206132695f395f51905f5290602090a382610bf4565b634209c0e360e01b5f5260045ffd5b5f8080526002820160205260409020549094906001600160a01b03168303610ca457505f936001610b9a565b935f610b9a565b505f546001600160a01b0316331415610b37565b506002546001600160a01b0316331415610b31565b346101fe5760203660031901126101fe576004355f52600960205260c060405f2060ff60018060a01b038254169160018060a01b036001820154169060018060a01b03600282015416600460038301549201549260405195865260208601526040850152606084015263ffffffff8116608084015260201c16151560a0820152f35b346101fe575f3660031901126101fe575f546040516001600160a01b039091168152602090f35b346101fe5760203660031901126101fe576004355f526007602052602060ff60405f2054166040519015158152f35b346101fe5760203660031901126101fe57600435610dcd6001805414611a9f565b6002600155805f52600960205260405f209060038201918254908115610ecb57600481019182549260ff8460201c16610ebc5782546001600160a01b031633141580610ea5575b610e96576002610e8d93610e67926401000000007f6a2135e02ec806883835dbb59b92ede322c4f615397756ef4d0599c3cb3638549764ff00000000191617905501913360018060a01b03845416612533565b549354604080516001600160a01b03909616865260208601919091523394918291820190565b0390a360018055005b630ecab8eb60e11b5f5260045ffd5b5060018301546001600160a01b0316331415610e14565b63075d85e360e01b5f5260045ffd5b637bafa6c960e01b5f5260045ffd5b60c03660031901126101fe57610eee6118d9565b610ef66118ef565b60643591906001600160a01b03831683036101fe57610f3292610f1c6001805414611a9f565b600260015560a435926084359260443591611b38565b60018055005b346101fe5760203660031901126101fe576001600160a01b03610f596118d9565b165f908152600a6020526040902060048101546001600160a01b03169081610f9c57505f905b604080516001600160a01b03928316815292909116602083015290f35b6001600160a01b038281165f9081526003929092016020526040909120541690610f7f565b346101fe5760403660031901126101fe57610fda6118d9565b610fe26118ef565b6001600160a01b03909116903382141580611129575b80611115575b61034e576001600160a01b031690811561065257815f52600660205260405f205460ff8116156111065760081c6001600160a01b03169182156110f7575f828152600a602090815260408083206001600160a01b0387811680865260028301855283862080546001600160a01b0319908116891790915587875260038401865293909520805490931690941790915560040180547f07efacf833c0332f419c637a012a52fe4647777ec52b15b904c88856048dc94f94929316156110c7575b50604051908152a3005b816001600160601b0360a01b82541617905584845f5160206132695f395f51905f5284604051858152a3856110bd565b63634bb5e960e11b5f5260045ffd5b63ab68eff560e01b5f5260045ffd5b505f546001600160a01b0316331415610ffe565b506002546001600160a01b0316331415610ff8565b346101fe5760403660031901126101fe576111576118d9565b61115f6118ef565b906001600160a01b03163381141580611208575b806111f4575b61034e576001600160a01b0382165f9081526004602052604090205460ff161561033f575f52600a60205260405f209060018060a01b0381165f526001820160205260ff60405f205416156111e55781546001600160a01b0319166001600160a01b0391909116179055005b631a1a638d60e01b5f5260045ffd5b505f546001600160a01b0316331415611179565b506002546001600160a01b0316331415611173565b346101fe5760603660031901126101fe57611236611a54565b6024356044359167ffffffffffffffff83116101fe57366023840112156101fe5782600401359067ffffffffffffffff82116101fe576024840190828501903660248301116101fe5761128c6001805414611a9f565b600260015563ffffffff81165f8181526008602090815260408083206001600160a01b038a16845290915290205490959060ff16156115415760405190602082019263ffffffff60e01b9060e01b1683526024820152848460448301376113056020604483888101438382015203018084520182611995565b51902092835f52600760205260ff60405f20541661153257608090845f52600760205260405f20600160ff198254161790551061152357608090859003126101fe576113509061191c565b9161135d6044850161191c565b92608461136c6064870161191c565b6001600160a01b03958616969286169591909201359116851561065257811561151457805f52600460205260ff60405f2054161561033f578585847f2385c9e581aa6338749593a091fc45991adb2cabe5e070614a388e318f5280706060604051868152876020820152896040820152a46113ea8483838989612241565b156113f55760018055005b6040519260c084019380851067ffffffffffffffff861117611500576040948552868152602080820189815282870185815260608401878152608085019586525f60a086018181528b825260098652908a9020955186546001600160a01b03199081166001600160a01b0392831617885594516001880180548716918316919091179055925160028701805490951690841617909355516003850155935160049093018054915164ffffffffff1990921663ffffffff90941693909317901515821b64ff0000000016179091558451919092168152908101919091527f1eba772d6e32861ac84f6d651181b2bc327724ca4854e984f7f2fa458ae165449190a4808080808080610f32565b634e487b7160e01b5f52604160045260245ffd5b631f2a200560e01b5f5260045ffd5b63772496b160e01b5f5260045ffd5b637b04260960e01b5f5260045ffd5b633c7c9f8360e01b5f5260045ffd5b346101fe575f3660031901126101fe576003546040516001600160a01b039091168152602090f35b346101fe575f3660031901126101fe576002546040516001600160a01b039091168152602090f35b346101fe5760403660031901126101fe576115b96118d9565b60243590811515908183036101fe575f546001600160a01b031633141580611636575b610661577fac90355684e2710fa34c2c7d500018678b146ea2d56ddc331c63d242ee8bf3859161162d60209260018060a01b031694855f526004845260405f209060ff801983541691151516179055565b604051908152a2005b506002546001600160a01b03163314156115dc565b346101fe575f3660031901126101fe57602061ffff60025460a01c16604051908152f35b346101fe576101803660031901126101fe5761168a366119b7565b611692611905565b610144356001600160a01b03811681036101fe576116bc906116b5303314611a67565b8284611efa565b608060018060a01b0360a0840151169201516040519160018060a01b031682526020820152600160408201525f5160206132895f395f51905f5260606101643592a3005b346101fe5760803660031901126101fe576117196118d9565b906117226118ef565b61172a611930565b916064359360018060a01b035f5416331415806118c4575b610661576001600160a01b0316928315610652571561182957506001600160a01b03169182156110f757825f52600460205260ff60405f2054161561181a5760407f354f0817e377e1e9b2601a5fa1180df29e96ac246a5d02f817a6e3bb4b72a9049181516117b08161193f565b6001815260016020820187815284830190848252875f5260066020526117e8865f2094511515859060ff801983541691151516179055565b518354906101008460a81b039060081b16906101008460a81b03191617835551910155815190600182526020820152a3005b634c3347d160e01b5f5260045ffd5b90505f92506118378161193f565b828152600160208201848152604083019085825284865260066020526118706040872094511515859060ff801983541691151516179055565b518354906101008460a81b039060081b16906101008460a81b031916178355519101557f354f0817e377e1e9b2601a5fa1180df29e96ac246a5d02f817a6e3bb4b72a90460408051848152846020820152a3005b506002546001600160a01b0316331415611742565b600435906001600160a01b03821682036101fe57565b602435906001600160a01b03821682036101fe57565b61012435906001600160a01b03821682036101fe57565b35906001600160a01b03821682036101fe57565b6044359081151582036101fe57565b6060810190811067ffffffffffffffff82111761150057604052565b610120810190811067ffffffffffffffff82111761150057604052565b610100810190811067ffffffffffffffff82111761150057604052565b90601f8019910116810190811067ffffffffffffffff82111761150057604052565b6101209060031901126101fe57604051906119d18261195b565b816004356001600160a01b03811681036101fe5781526024356001600160a01b03811681036101fe57602082015260443560408201526064356060820152608435608082015260a4356001600160a01b03811681036101fe5760a082015260c43560c082015260e43560e0820152610104359081151582036101fe576101000152565b6004359063ffffffff821682036101fe57565b15611a6e57565b60405162461bcd60e51b815260206004820152600960248201526827b7363c9039b2b63360b91b6044820152606490fd5b15611aa657565b60405162461bcd60e51b815260206004820152600a6024820152695245454e5452414e435960b01b6044820152606490fd5b91908203918211611ae557565b634e487b7160e01b5f52601160045260245ffd5b3d15611b33573d9067ffffffffffffffff82116115005760405191611b28601f8201601f191660200184611995565b82523d5f602084013e565b606090565b9490926001600160a01b031690811561065257428110611e37576001600160a01b038416948515938415611e31575034925b8315611514578415611e2b575f5b6001600160a01b03165f9081526004602052604090205460ff161561033f578415611d6b575b61ffff60025460a01c168085029085820403611ae5576127109004611bc38186611ad8565b9481611d1a575b825f52600a60205260405f20986040519a611be48c61195b565b6001600160a01b03168b5260208b015260408a015260608901526080880193845260a088015260c087015260e08601526101008501829052611c2685856125e9565b916001600160a01b0382169081611cc2575b505050505f14611cbd57505f5b6001600160a01b03165f90815260018201602052604090205460ff16611cb357546001600160a01b03168015611ca457805f52600460205260ff60405f20541615611c9557611c9391612832565b565b633fbb49c960e01b5f5260045ffd5b63555096e560e11b5f5260045ffd5b50611c939061275b565b611c45565b6040915f526006602052815f206001835191611cdd8361193f565b805460ff811615158452828060a01b039060081c16602084015201549283910152511015611d0c578080611c38565b9250925050611c9392611efa565b8615611d4e575f8080808560018060a01b03600354165af1611d3a611af9565b50611bca5763671f7c4960e11b5f5260045ffd5b600354611d669083906001600160a01b03168b612533565b611bca565b3015610652576040516323b872dd60e01b81526001600160a01b0389166004820152306024820152604481018590526020816064815f8c5af1908115611e20575f91611df1575b50611b9e5760405162461bcd60e51b81526020600482015260126024820152711514905394d1915497d19493d357d190525360721b6044820152606490fd5b611e13915060203d602011611e19575b611e0b8183611995565b81019061251b565b5f611db2565b503d611e01565b6040513d5f823e3d90fd5b85611b78565b92611b6a565b631ab7da6b60e01b5f5260045ffd5b6001600160a01b039081165f818152600a60205260409020929091168015611ecb57805f52600660205260ff60405f20541615611106575f8181526003840160205260409020546001600160a01b0316928315610c695760040180546001600160a01b031916821790556040519081525f5160206132695f395f51905f5290602090a3565b5060045f92016001600160601b0360a01b81541690555f5160206132695f395f51905f526020604051848152a3565b915f9160018060a01b03811691825f52600660205260405f2060405190611f208261193f565b8054916040600160ff85161593841584526020840195828060a01b039060081c168652015491015261110657516001600160a01b03169081156110f7576001600160a01b031681036121ca57805f52600460205260ff60405f2054161561181a57611f8b8186612ba7565b60a0860180516040516370a0823160e01b81526001600160a01b03909116600482015290949190602081602481865afa908115611e20575f91612198575b50611fd4858561305d565b611fdf82868661310a565b85516001600160a01b0316833b156101fe5760405163d699618560e01b81526001600160a01b03919091166004820152602481018390525f8160448183885af18015611e2057612183575b50612035858561305d565b85516040516370a0823160e01b81526001600160a01b03909116600482015290602082602481875afa8015612178578890612144575b6120759250611ad8565b9586156121355760c088015187106121275750905f5160206132495f395f51905f529392917f8f7a6fecbaab1e04e31f80b9da6e08d7f55f854f660a910ddc7cce65036babd5604060018060a01b03885116928151908152896020820152a4845192516020808701516040808901516060998a01518251918252938101939093526001600160a01b039485169083015296810195909552426080860152948116948116939216918060a081015b0390a4565b6250c9b760e01b8152600490fd5b63360fef3560e01b8152600490fd5b506020823d602011612170575b8161215e60209383611995565b810103126101fe57612075915161206b565b3d9150612151565b6040513d8a823e3d90fd5b6121909197505f90611995565b5f955f61202a565b90506020813d6020116121c2575b816121b360209383611995565b810103126101fe57515f611fc9565b3d91506121a6565b632693f30360e11b5f5260045ffd5b80516001600160a01b03908116835260208083015182169084015260408083015190840152606080830151908401526080808301519084015260a0808301519091169083015260c0808201519083015260e08082015190830152610100908101511515910152565b6001600160a01b0382165f818152600a6020526040812042610e1081019893979295929491908910611ae5576040519161227a8361195b565b60018060a01b03169687835260018060a01b0316988960208401528560408401525f606084015260808301908682528960a08501525f60c085015260e08401525f6101008401526122cb83836125e9565b6001600160a01b039091169182612451575b505050885f526001810160205260ff60405f20541661240157546001600160a01b0316801515806123eb575b61237557505091855f5160206132495f395f51905f52949261232e8360a0968b612533565b5f5160206132895f395f51905f5260606040518b815285602082015260016040820152a36040519181835260208301528660408301526060820152426080820152a4600190565b949750955050925050303b156123e75760405163161c182560e31b8152926123a19060048501906121d9565b6101248301526101448201528180826101648183305af191826123ce575b50506123c85790565b50600190565b816123d891611995565b6123e357815f6123bf565b5080fd5b8380fd5b50808652600460205260ff604087205416612309565b509550509250509250303b1561244d576040516376143a8360e11b81529161242d9060048401906121d9565b6101248201528180826101448183305af191826123ce5750506123c85790565b8280fd5b604090835f526006602052815f20600183519161246d8361193f565b805460ff811615158452828060a01b039060081c1660208401520154928391015251101561249c575b806122dd565b303b156101fe576040516302d16c7b60e31b8152916124be60048401866121d9565b6101248301526001600160a01b031661014482015261016481018590525f816101848183305af19081612506575b506124f8575f80612496565b505050505050505050600190565b6125139197505f90611995565b5f955f6124ec565b908160209103126101fe575180151581036101fe5790565b916001600160a01b038216156106525760405163a9059cbb60e01b81526001600160a01b0390921660048301526024820152906020908290815f816044810103926001600160a01b03165af1908115611e20575f916125ca575b501561259557565b60405162461bcd60e51b815260206004820152600d60248201526c1514905394d1915497d1905253609a1b6044820152606490fd5b6125e3915060203d602011611e1957611e0b8183611995565b5f61258d565b610100820151909291901561274957505f5b6001600160a01b038116156126c5576001600160a01b038181165f9081526002850160205260409020541661262f8161316b565b6126c05750505b60048201546001600160a01b031661264d8161316b565b61269d575081546001600160a01b0316918261266c575b505f91508190565b6001600160a01b038381165f908152600292909201602052604090912054166126948161316b565b15612664579190565b6001600160a01b038082165f908152600390940160205260409093205490921690565b925090565b505f8080526002830160208190526040909120546001600160a01b03166126eb8161316b565b61274157506001600160a01b037f00000000000000000000000000000000000000000000000000000000000000008181165f908152602093909352604090922054166127368161316b565b6126c0575050612636565b92505f919050565b602001516001600160a01b03166125fb565b61010081015115612806575f80808060018060a01b0360a0860151166080860151905af1612787611af9565b50156127f7575b805160a0828101516020808501516040808701516060808901516080998a01518451938452958301526001600160a01b03938416928201839052810193909352429683019690965291821693909116915f5160206132495f395f51905f52919081908101612122565b632b3b0c0960e11b5f5260045ffd5b602081015160a0820151608083015161282d9290916001600160a01b039081169116612533565b61278e565b906101008201511515805f14612b94575f5b608084015160c085015160a086019360018060a01b038551169161286c60e089015195613215565b9461287688613215565b9560018060a01b031693845f52600560205260405f2060018060a01b0388165f5260205262ffffff60405f2054168015612b8557604051630b4c774160e11b8152600481018790526001600160a01b03988916602482018190526044820183905298602090829060649082907f0000000000000000000000000000000000000000000000000000000000000000165afa908115611e20575f91612b43575b506001600160a01b031615612b35576040519761293089611978565b86895260208901526040880152606087015260808601528360a086015260c08501525f60e08501525f14612a5f575061298191602091604051808095819463414bf38960e01b8352600483016131ac565b03917f00000000000000000000000000000000000000000000000000000000000000006001600160a01b03165af18015611e20575f90612a20575b5f5160206132495f395f51905f529150925b845192516020808701516040808901516060998a01518251918252938101939093526001600160a01b039485169083015296810195909552426080860152948116948116939216918060a08101612122565b506020813d602011612a57575b81612a3a60209383611995565b810103126101fe575f5160206132495f395f51905f5290516129bc565b3d9150612a2d565b937f00000000000000000000000000000000000000000000000000000000000000006001600160a01b0316929091612ac391602091612aa990612aa2878a61305d565b868961310a565b6040518093819263414bf38960e01b8352600483016131ac565b03815f875af1908115611e20575f91612af6575b505f5160206132495f395f51905f5292612af1919561305d565b6129ce565b90506020813d602011612b2d575b81612b1160209383611995565b810103126101fe57515f5160206132495f395f51905f52612ad7565b3d9150612b04565b6231a7b960e41b5f5260045ffd5b90506020813d602011612b7d575b81612b5e60209383611995565b810103126101fe57516001600160a01b03811681036101fe575f612914565b3d9150612b51565b630db08e3d60e01b5f5260045ffd5b60208301516001600160a01b0316612844565b5f90610100810151612df05760208101516001600160a01b03908116939081168414612de557612be9612be360e0608085015194015195613215565b91613215565b9060018060a01b03169384845260056020526040842060018060a01b0383165f5260205262ffffff60405f2054168015612dd657604051630b4c774160e11b8152600481018790526001600160a01b03938416602482018190526044820183905293602090829060649082907f0000000000000000000000000000000000000000000000000000000000000000165afa908115612dcb578691612d85575b506001600160a01b031615612d775791602091612d129360405192612cab84611978565b88845284840152604083015230606083015260808201528360a08201528460c08201528460e0820152612aa960018060a01b037f00000000000000000000000000000000000000000000000000000000000000001694612d0b868961305d565b858861310a565b038186865af1928315612d6b5792612d35575b508192612d32925061305d565b90565b91506020823d602011612d63575b81612d5060209383611995565b810103126101fe57612d32915191612d25565b3d9150612d43565b604051903d90823e3d90fd5b6231a7b960e41b8552600485fd5b90506020813d602011612dc3575b81612da060209383611995565b81010312612dbf57516001600160a01b0381168103612dbf575f612c87565b8580fd5b3d9150612d93565b6040513d88823e3d90fd5b630db08e3d60e01b8552600485fd5b506080015192915050565b90917f00000000000000000000000000000000000000000000000000000000000000006001600160a01b038181169392908116841461301757612e3e9060e060808501519401519250613215565b83855260056020526040852060018060a01b0382165f5260205262ffffff60405f20541690811561300857604051630b4c774160e11b8152600481018690526001600160a01b03918216602482018190526044820184905291602090829060649082907f0000000000000000000000000000000000000000000000000000000000000000165afa908115612ffd578791612fb7575b506001600160a01b031615612fa9579160209391612f3c959360405194612ef986611978565b855285850152604084015230606084015260808301528060a08301528460c08301528460e0830152604051808095819463414bf38960e01b8352600483016131ac565b03917f00000000000000000000000000000000000000000000000000000000000000006001600160a01b03165af1918215612d6b5791612f7a575090565b90506020813d602011612fa1575b81612f9560209383611995565b810103126101fe575190565b3d9150612f88565b6231a7b960e41b8652600486fd5b90506020813d602011612ff5575b81612fd260209383611995565b81010312612ff157516001600160a01b0381168103612ff1575f612ed3565b8680fd5b3d9150612fc5565b6040513d89823e3d90fd5b630db08e3d60e01b8652600486fd5b5050608001805190925090803b156101fe575f90600460405180948193630d0e30db60e41b83525af18015611e205761304f57505190565b5f61305991611995565b5190565b906001600160a01b031680156106525760405163095ea7b360e01b815260048101919091525f602482018190529091602091839160449183916001600160a01b03165af1908115611e20575f916130eb575b50156130b757565b60405162461bcd60e51b815260206004820152600c60248201526b1054141493d59157d190525360a21b6044820152606490fd5b613104915060203d602011611e1957611e0b8183611995565b5f6130af565b916001600160a01b038216156106525760405163095ea7b360e01b81526001600160a01b0390921660048301526024820152906020908290815f816044810103926001600160a01b03165af1908115611e20575f916130eb5750156130b757565b6001600160a01b031680156131a7575f52600660205260405f205460ff81169081613194575090565b60081c6001600160a01b03161515919050565b505f90565b81516001600160a01b03908116825260208084015182169083015260408084015162ffffff16908301526060808401518216908301526080808401519083015260a0808401519083015260c0808401519083015260e09283015116918101919091526101000190565b6001600160a01b038116612d3257507f00000000000000000000000000000000000000000000000000000000000000009056fe49735f6dfce36092e4e60b47019be07f553ede2d89c84c80a84ad06883a2477752ce92b576c9e725f458101a8593fe331d4d2964c77a20f2b608b39cd95cf7890b84237232bded30e1bbcacdfefe53e938b8581b540301f72506f32b3af37c88a26469706673582212206495aad48e8c88b45a755fd2daca947cf4ecaed4e4488db275f63f01fa21857464736f6c634300081e00330000000000000000000000002bf7e65df939482869b96a6beb88d3e5bf58fb810000000000000000000000001234b50310ff79958509d1a9c8a92458ed1496d100000000000000000000000000000000000000000000000000000000000000fa000000000000000000000000123454ce54debe2cebce95740e9e0f65dff9dbe2",
        "nonce": "0x2c7",
        "chainId": "0x138b"
      },
      "additionalContracts": [],
      "isFixedGasLimit": false
    },
    {
      "hash": "0x1701ebd531af386b808f5600c0ec1b8a63eede53b75a65a40dd1b70746c94140",
      "transactionType": "CALL",
      "contractName": "KubiStreamerDonation",
      "contractAddress": "0x0750e6b0ebed961a1e2524fe59b87235434b4dd5",
      "function": "setGlobalWhitelist(address,bool)",
      "arguments": [
        "0x57b78b98b9Dd06E06DE145b83aeDf6F04E4C5500",
        "true"
      ],
      "transaction": {
        "from": "0x1234562eb0cd65e7d08e59f9f18d7c10b5df232a",
        "to": "0x0750e6b0ebed961a1e2524fe59b87235434b4dd5",
        "gas": "0x618bd1c",
        "value": "0x0",
        "input": "0x25d86ced00000000000000000000000057b78b98b9dd06e06de145b83aedf6f04e4c55000000000000000000000000000000000000000000000000000000000000000001",
        "nonce": "0x2c8",
        "chainId": "0x138b"
      },
      "additionalContracts": [],
      "isFixedGasLimit": false
    },
    {
      "hash": "0x586b4719162f32952a9789a258b2e9c1332cc2b3f3328dc54b268555a4c43926",
      "transactionType": "CALL",
      "contractName": "KubiStreamerDonation",
      "contractAddress": "0x0750e6b0ebed961a1e2524fe59b87235434b4dd5",
      "function": "setGlobalWhitelist(address,bool)",
      "arguments": [
        "0x1fE9A4E25cAA2a22FC0B61010fDB0DB462FB5b29",
        "true"
      ],
      "transaction": {
        "from": "0x1234562eb0cd65e7d08e59f9f18d7c10b5df232a",
        "to": "0x0750e6b0ebed961a1e2524fe59b87235434b4dd5",
        "gas": "0x61ad436",
        "value": "0x0",
        "input": "0x25d86ced0000000000000000000000001fe9a4e25caa2a22fc0b61010fdb0db462fb5b290000000000000000000000000000000000000000000000000000000000000001",
        "nonce": "0x2c9",
        "chainId": "0x138b"
      },
      "additionalContracts": [],
      "isFixedGasLimit": false
    },
    {
      "hash": "0x943e76e86ea32e54529451ac4bef0a13e332e03ff4ed9b3f6f83d4599c03b121",
      "transactionType": "CALL",
      "contractName": "KubiStreamerDonation",
      "contractAddress": "0x0750e6b0ebed961a1e2524fe59b87235434b4dd5",
      "function": "setGlobalWhitelist(address,bool)",
      "arguments": [
        "0x5e1E8043381F3A21a1A64f46073daF7E74fEdC1E",
        "true"
      ],
      "transaction": {
        "from": "0x1234562eb0cd65e7d08e59f9f18d7c10b5df232a",
        "to": "0x0750e6b0ebed961a1e2524fe59b87235434b4dd5",
        "gas": "0x61ad436",
        "value": "0x0",
        "input": "0x25d86ced0000000000000000000000005e1e8043381f3a21a1a64f46073daf7e74fedc1e0000000000000000000000000000000000000000000000000000000000000001",
        "nonce": "0x2ca",
        "chainId": "0x138b"
      },
      "additionalContracts": [],
      "isFixedGasLimit": false
    },
    {
      "hash": "0xcdbb18a17bd415198f0ff21646a3415381be952a340de0ec6024807c82639ea4",
      "transactionType": "CALL",
      "contractName": "KubiStreamerDonation",
      "contractAddress": "0x0750e6b0ebed961a1e2524fe59b87235434b4dd5",
      "function": "setGlobalWhitelist(address,bool)",
      "arguments": [
        "0x06C1e044D5BEb614faA6128001F519e6c693a044",
        "true"
      ],
      "transaction": {
        "from": "0x1234562eb0cd65e7d08e59f9f18d7c10b5df232a",
        "to": "0x0750e6b0ebed961a1e2524fe59b87235434b4dd5",
        "gas": "0x61ad436",
        "value": "0x0",
        "input": "0x25d86ced00000000000000000000000006c1e044d5beb614faa6128001f519e6c693a0440000000000000000000000000000000000000000000000000000000000000001",
        "nonce": "0x2cb",
        "chainId": "0x138b"
      },
      "additionalContracts": [],
      "isFixedGasLimit": false
    },
    {
      "hash": "0x2e49af2181c284eb472f9a458631bb4d2aab1bf7615b44889d1a245256673749",
      "transactionType": "CALL",
      "contractName": "KubiStreamerDonation",
      "contractAddress": "0x0750e6b0ebed961a1e2524fe59b87235434b4dd5",
      "function": "setGlobalWhitelist(address,bool)",
      "arguments": [
        "0x85B8Dc34C7Af35baC8a45CfF53353f39E6F732A2",
        "true"
      ],
      "transaction": {
        "from": "0x1234562eb0cd65e7d08e59f9f18d7c10b5df232a",
        "to": "0x0750e6b0ebed961a1e2524fe59b87235434b4dd5",
        "gas": "0x61ad436",
        "value": "0x0",
        "input": "0x25d86ced00000000000000000000000085b8dc34c7af35bac8a45cff53353f39e6f732a20000000000000000000000000000000000000000000000000000000000000001",
        "nonce": "0x2cc",
        "chainId": "0x138b"
      },
      "additionalContracts": [],
      "isFixedGasLimit": false
    },
    {
      "hash": "0xc7d32d17a9c31bee544b0d751fddba0925bad9f46267944a07067a47699fa5dc",
      "transactionType": "CALL",
      "contractName": "KubiStreamerDonation",
      "contractAddress": "0x0750e6b0ebed961a1e2524fe59b87235434b4dd5",
      "function": "setGlobalWhitelist(address,bool)",
      "arguments": [
        "0x7392e9E58f202Da3877776c41683AC457DFd4CD7",
        "true"
      ],
      "transaction": {
        "from": "0x1234562eb0cd65e7d08e59f9f18d7c10b5df232a",
        "to": "0x0750e6b0ebed961a1e2524fe59b87235434b4dd5",
        "gas": "0x61ad436",
        "value": "0x0",
        "input": "0x25d86ced0000000000000000000000007392e9e58f202da3877776c41683ac457dfd4cd70000000000000000000000000000000000000000000000000000000000000001",
        "nonce": "0x2cd",
        "chainId": "0x138b"
      },
      "additionalContracts": [],
      "isFixedGasLimit": false
    },
    {
      "hash": "0xb3ca4f515a3e01191ec08fd7ddcd82af32f5eaec1f9b81a591a0807dfb1650d0",
      "transactionType": "CALL",
      "contractName": "KubiStreamerDonation",
      "contractAddress": "0x0750e6b0ebed961a1e2524fe59b87235434b4dd5",
      "function": "setGlobalWhitelist(address,bool)",
      "arguments": [
        "0xB03a4Cf6EB030BbABd0452300b01C7DCb9584737",
        "true"
      ],
      "transaction": {
        "from": "0x1234562eb0cd65e7d08e59f9f18d7c10b5df232a",
        "to": "0x0750e6b0ebed961a1e2524fe59b87235434b4dd5",
        "gas": "0x61ad436",
        "value": "0x0",
        "input": "0x25d86ced000000000000000000000000b03a4cf6eb030bbabd0452300b01c7dcb95847370000000000000000000000000000000000000000000000000000000000000001",
        "nonce": "0x2ce",
        "chainId": "0x138b"
      },
      "additionalContracts": [],
      "isFixedGasLimit": false
    },
    {
      "hash": "0x087e8769540a68a0be2fb8b710bbfcfc4f4588dbb296fbfaa63b3c385b87e63a",
      "transactionType": "CALL",
      "contractName": "KubiStreamerDonation",
      "contractAddress": "0x0750e6b0ebed961a1e2524fe59b87235434b4dd5",
      "function": "setGlobalWhitelist(address,bool)",
      "arguments": [
        "0x2ffc2F655A26A4def63EFCD59930d1241EE0519a",
        "true"
      ],
      "transaction": {
        "from": "0x1234562eb0cd65e7d08e59f9f18d7c10b5df232a",
        "to": "0x0750e6b0ebed961a1e2524fe59b87235434b4dd5",
        "gas": "0x61ad436",
        "value": "0x0",
        "input": "0x25d86ced0000000000000000000000002ffc2f655a26a4def63efcd59930d1241ee0519a0000000000000000000000000000000000000000000000000000000000000001",
        "nonce": "0x2cf",
        "chainId": "0x138b"
      },
      "additionalContracts": [],
      "isFixedGasLimit": false
    },
    {
      "hash": "0x9c64764f36e80847b7a373b1ce0351cb12182423cb08e2f6fa5b68f41f1b9257",
      "transactionType": "CALL",
      "contractName": "KubiStreamerDonation",
      "contractAddress": "0x0750e6b0ebed961a1e2524fe59b87235434b4dd5",
      "function": "setGlobalWhitelist(address,bool)",
      "arguments": [
        "0x14ac27F376b03b6C05F2189c4f03febB5d76432A",
        "true"
      ],
      "transaction": {
        "from": "0x1234562eb0cd65e7d08e59f9f18d7c10b5df232a",
        "to": "0x0750e6b0ebed961a1e2524fe59b87235434b4dd5",
        "gas": "0x61ad436",
        "value": "0x0",
        "input": "0x25d86ced00000000000000000000000014ac27f376b03b6c05f2189c4f03febb5d76432a0000000000000000000000000000000000000000000000000000000000000001",
        "nonce": "0x2d0",
        "chainId": "0x138b"
      },
      "additionalContracts": [],
      "isFixedGasLimit": false
    },
    {
      "hash": "0xae06d684bec71422e0dc8a0b435ce2158b5fdb721b35b848ae03fe6c09576237",
      "transactionType": "CALL",
      "contractName": "KubiStreamerDonation",
      "contractAddress": "0x0750e6b0ebed961a1e2524fe59b87235434b4dd5",
      "function": "setGlobalWhitelist(address,bool)",
      "arguments": [
        "0xdac9107491b3c59A97d7f45CEfC97353f6aB46b2",
        "true"
      ],
      "transaction": {
        "from": "0x1234562eb0cd65e7d08e59f9f18d7c10b5df232a",
        "to": "0x0750e6b0ebed961a1e2524fe59b87235434b4dd5",
        "gas": "0x61ad436",
        "value": "0x0",
        "input": "0x25d86ced000000000000000000000000dac9107491b3c59a97d7f45cefc97353f6ab46b20000000000000000000000000000000000000000000000000000000000000001",
        "nonce": "0x2d1",
        "chainId": "0x138b"
      },
      "additionalContracts": [],
      "isFixedGasLimit": false
    },
    {
      "hash": "0x6a483ae503e0c18b1431892c65db9566ef280446634e095cfff13189986245f5",
      "transactionType": "CALL",
      "contractName": "KubiStreamerDonation",
      "contractAddress": "0x0750e6b0ebed961a1e2524fe59b87235434b4dd5",
      "function": "setGlobalWhitelist(address,bool)",
      "arguments": [
        "0x9b94108165eF58C9736F2C34B09e3b5b62cF5218",
        "true"
      ],
      "transaction": {
        "from": "0x1234562eb0cd65e7d08e59f9f18d7c10b5df232a",
        "to": "0x0750e6b0ebed961a1e2524fe59b87235434b4dd5",
        "gas": "0x61ad436",
        "value": "0x0",
        "input": "0x25d86ced0000000000000000000000009b94108165ef58c9736f2c34b09e3b5b62cf52180000000000000000000000000000000000000000000000000000000000000001",
        "nonce": "0x2d2",
        "chainId": "0x138b"
      },
      "additionalContracts": [],
      "isFixedGasLimit": false
    },
    {
      "hash": "0x849ec1ea2838291d15bc47df907e925d8e8df191a8db7d42680c5ef01f69f87d",
      "transactionType": "CALL",
      "contractName": "KubiStreamerDonation",
      "contractAddress": "0x0750e6b0ebed961a1e2524fe59b87235434b4dd5",
      "function": "setPoolFee(address,address,uint24)",
      "arguments": [
        "0x57b78b98b9Dd06E06DE145b83aeDf6F04E4C5500",
        "0x1fE9A4E25cAA2a22FC0B61010fDB0DB462FB5b29",
        "3000"
      ],
      "transaction": {
        "from": "0x1234562eb0cd65e7d08e59f9f18d7c10b5df232a",
        "to": "0x0750e6b0ebed961a1e2524fe59b87235434b4dd5",
        "gas": "0x65aedf8",
        "value": "0x0",
        "input": "0xb45faa7600000000000000000000000057b78b98b9dd06e06de145b83aedf6f04e4c55000000000000000000000000001fe9a4e25caa2a22fc0b61010fdb0db462fb5b290000000000000000000000000000000000000000000000000000000000000bb8",
        "nonce": "0x2d3",
        "chainId": "0x138b"
      },
      "additionalContracts": [],
      "isFixedGasLimit": false
    },
    {
      "hash": "0xa6ff289050f0b18ed447300ebe2d7579021624db521d481137a301031cbb964f",
      "transactionType": "CALL",
      "contractName": "KubiStreamerDonation",
      "contractAddress": "0x0750e6b0ebed961a1e2524fe59b87235434b4dd5",
      "function": "setPoolFee(address,address,uint24)",
      "arguments": [
        "0x57b78b98b9Dd06E06DE145b83aeDf6F04E4C5500",
        "0x5e1E8043381F3A21a1A64f46073daF7E74fEdC1E",
        "3000"
      ],
      "transaction": {
        "from": "0x1234562eb0cd65e7d08e59f9f18d7c10b5df232a",
        "to": "0x0750e6b0ebed961a1e2524fe59b87235434b4dd5",
        "gas": "0x65aedf8",
        "value": "0x0",
        "input": "0xb45faa7600000000000000000000000057b78b98b9dd06e06de145b83aedf6f04e4c55000000000000000000000000005e1e8043381f3a21a1a64f46073daf7e74fedc1e0000000000000000000000000000000000000000000000000000000000000bb8",
        "nonce": "0x2d4",
        "chainId": "0x138b"
      },
      "additionalContracts": [],
      "isFixedGasLimit": false
    },
    {
      "hash": "0x1db6c75ef03e76112bf3513508c1586677a9e9960af412dbcb4ad0b76611af9a",
      "transactionType": "CALL",
      "contractName": "KubiStreamerDonation",
      "contractAddress": "0x0750e6b0ebed961a1e2524fe59b87235434b4dd5",
      "function": "setYieldConfig(address,address,bool,uint256)",
      "arguments": [
        "0xAee2A87701aFEF956473d547bD02cD736729D8a7",
        "0x1fE9A4E25cAA2a22FC0B61010fDB0DB462FB5b29",
        "true",
        "0"
      ],
      "transaction": {
        "from": "0x1234562eb0cd65e7d08e59f9f18d7c10b5df232a",
        "to": "0x0750e6b0ebed961a1e2524fe59b87235434b4dd5",
        "gas": "0x67139b6",
        "value": "0x0",
        "input": "0x0c495f96000000000000000000000000aee2a87701afef956473d547bd02cd736729d8a70000000000000000000000001fe9a4e25caa2a22fc0b61010fdb0db462fb5b2900000000000000000000000000000000000000000000000000000000000000010000000000000000000000000000000000000000000000000000000000000000",
        "nonce": "0x2d5",
        "chainId": "0x138b"
      },
      "additionalContracts": [],
      "isFixedGasLimit": false
    },
    {
      "hash": "0x9408b32508474811d7621e6cae8a2b213a21af10ac78d1e4e483795dfb9f1e3a",
      "transactionType": "CALL",
      "contractName": "KubiStreamerDonation",
      "contractAddress": "0x0750e6b0ebed961a1e2524fe59b87235434b4dd5",
      "function": "setYieldConfig(address,address,bool,uint256)",
      "arguments": [
        "0x6aaBE7258f09474e62E8BebB1cf90E15fbAAF777",
        "0x5e1E8043381F3A21a1A64f46073daF7E74fEdC1E",
        "true",
        "0"
      ],
      "transaction": {
        "from": "0x1234562eb0cd65e7d08e59f9f18d7c10b5df232a",
        "to": "0x0750e6b0ebed961a1e2524fe59b87235434b4dd5",
        "gas": "0x67139b6",
        "value": "0x0",
        "input": "0x0c495f960000000000000000000000006aabe7258f09474e62e8bebb1cf90e15fbaaf7770000000000000000000000005e1e8043381f3a21a1a64f46073daf7e74fedc1e00000000000000000000000000000000000000000000000000000000000000010000000000000000000000000000000000000000000000000000000000000000",
        "nonce": "0x2d6",
        "chainId": "0x138b"
      },
      "additionalContracts": [],
      "isFixedGasLimit": false
    },
    {
      "hash": "0xaf560a66917f131648fd1f7ed263c425ee38d6689ca3c035bbfea59b66a7bfc0",
      "transactionType": "CALL",
      "contractName": "KubiStreamerDonation",
      "contractAddress": "0x0750e6b0ebed961a1e2524fe59b87235434b4dd5",
      "function": "setYieldConfig(address,address,bool,uint256)",
      "arguments": [
        "0x5C70fB2a739e9e7Ad5c4311ABF99E0fB65c07eE9",
        "0x06C1e044D5BEb614faA6128001F519e6c693a044",
        "true",
        "0"
      ],
      "transaction": {
        "from": "0x1234562eb0cd65e7d08e59f9f18d7c10b5df232a",
        "to": "0x0750e6b0ebed961a1e2524fe59b87235434b4dd5",
        "gas": "0x67139b6",
        "value": "0x0",
        "input": "0x0c495f960000000000000000000000005c70fb2a739e9e7ad5c4311abf99e0fb65c07ee900000000000000000000000006c1e044d5beb614faa6128001f519e6c693a04400000000000000000000000000000000000000000000000000000000000000010000000000000000000000000000000000000000000000000000000000000000",
        "nonce": "0x2d7",
        "chainId": "0x138b"
      },
      "additionalContracts": [],
      "isFixedGasLimit": false
    },
    {
      "hash": "0x346df5ac30f4f5320ad63c8a8db8d61af52cc13070c955a5c5a5a7a59c471a36",
      "transactionType": "CALL",
      "contractName": "KubiStreamerDonation",
      "contractAddress": "0x0750e6b0ebed961a1e2524fe59b87235434b4dd5",
      "function": "setYieldConfig(address,address,bool,uint256)",
      "arguments": [
        "0xbB6Dd87f1fe0483d9FFA90f7A163Caf21F40BA6c",
        "0x85B8Dc34C7Af35baC8a45CfF53353f39E6F732A2",
        "true",
        "0"
      ],
      "transaction": {
        "from": "0x1234562eb0cd65e7d08e59f9f18d7c10b5df232a",
        "to": "0x0750e6b0ebed961a1e2524fe59b87235434b4dd5",
        "gas": "0x67139b6",
        "value": "0x0",
        "input": "0x0c495f96000000000000000000000000bb6dd87f1fe0483d9ffa90f7a163caf21f40ba6c00000000000000000000000085b8dc34c7af35bac8a45cff53353f39e6f732a200000000000000000000000000000000000000000000000000000000000000010000000000000000000000000000000000000000000000000000000000000000",
        "nonce": "0x2d8",
        "chainId": "0x138b"
      },
      "additionalContracts": [],
      "isFixedGasLimit": false
    },
    {
      "hash": "0xf7f9ba61e5d9d8dd7ff413b09ebeec19a7c10f74bc2171debfad74fa3fc52933",
      "transactionType": "CALL",
      "contractName": "KubiStreamerDonation",
      "contractAddress": "0x0750e6b0ebed961a1e2524fe59b87235434b4dd5",
      "function": "setYieldConfig(address,address,bool,uint256)",
      "arguments": [
        "0xcE74630446990AcF6Cd56facBbd6EE908eE55562",
        "0x7392e9E58f202Da3877776c41683AC457DFd4CD7",
        "true",
        "0"
      ],
      "transaction": {
        "from": "0x1234562eb0cd65e7d08e59f9f18d7c10b5df232a",
        "to": "0x0750e6b0ebed961a1e2524fe59b87235434b4dd5",
        "gas": "0x67139b6",
        "value": "0x0",
        "input": "0x0c495f96000000000000000000000000ce74630446990acf6cd56facbbd6ee908ee555620000000000000000000000007392e9e58f202da3877776c41683ac457dfd4cd700000000000000000000000000000000000000000000000000000000000000010000000000000000000000000000000000000000000000000000000000000000",
        "nonce": "0x2d9",
        "chainId": "0x138b"
      },
      "additionalContracts": [],
      "isFixedGasLimit": false
    },
    {
      "hash": "0xba142ce00dcc2488ffc53cdef78113fdc5b4b3fbbb6f9d039f304680b72df2d8",
      "transactionType": "CALL",
      "contractName": "KubiStreamerDonation",
      "contractAddress": "0x0750e6b0ebed961a1e2524fe59b87235434b4dd5",
      "function": "setYieldConfig(address,address,bool,uint256)",
      "arguments": [
        "0xdCC41dee829C1246a936dC5E801cB24303445651",
        "0x1fE9A4E25cAA2a22FC0B61010fDB0DB462FB5b29",
        "true",
        "0"
      ],
      "transaction": {
        "from": "0x1234562eb0cd65e7d08e59f9f18d7c10b5df232a",
        "to": "0x0750e6b0ebed961a1e2524fe59b87235434b4dd5",
        "gas": "0x67139b6",
        "value": "0x0",
        "input": "0x0c495f96000000000000000000000000dcc41dee829c1246a936dc5e801cb243034456510000000000000000000000001fe9a4e25caa2a22fc0b61010fdb0db462fb5b2900000000000000000000000000000000000000000000000000000000000000010000000000000000000000000000000000000000000000000000000000000000",
        "nonce": "0x2da",
        "chainId": "0x138b"
      },
      "additionalContracts": [],
      "isFixedGasLimit": false
    },
    {
      "hash": "0x01f2f663858d5ab13e1d7a7af39ec1628cee0fc6257890eb4f3ae4e7ff965ab3",
      "transactionType": "CALL",
      "contractName": "KubiStreamerDonation",
      "contractAddress": "0x0750e6b0ebed961a1e2524fe59b87235434b4dd5",
      "function": "setYieldConfig(address,address,bool,uint256)",
      "arguments": [
        "0x8f5816ca88ED2775305b154625744E36943Cc750",
        "0x5e1E8043381F3A21a1A64f46073daF7E74fEdC1E",
        "true",
        "0"
      ],
      "transaction": {
        "from": "0x1234562eb0cd65e7d08e59f9f18d7c10b5df232a",
        "to": "0x0750e6b0ebed961a1e2524fe59b87235434b4dd5",
        "gas": "0x67139b6",
        "value": "0x0",
        "input": "0x0c495f960000000000000000000000008f5816ca88ed2775305b154625744e36943cc7500000000000000000000000005e1e8043381f3a21a1a64f46073daf7e74fedc1e00000000000000000000000000000000000000000000000000000000000000010000000000000000000000000000000000000000000000000000000000000000",
        "nonce": "0x2db",
        "chainId": "0x138b"
      },
      "additionalContracts": [],
      "isFixedGasLimit": false
    },
    {
      "hash": "0x39f7edf97d6ae6f05b72cada663c40ee6987f4df09f3e2b121555bb2ac70ea48",
      "transactionType": "CALL",
      "contractName": "KubiStreamerDonation",
      "contractAddress": "0x0750e6b0ebed961a1e2524fe59b87235434b4dd5",
      "function": "setYieldConfig(address,address,bool,uint256)",
      "arguments": [
        "0x2BB55f68fb05De13B04e5a2cadbAE5A05bCE277B",
        "0x06C1e044D5BEb614faA6128001F519e6c693a044",
        "true",
        "0"
      ],
      "transaction": {
        "from": "0x1234562eb0cd65e7d08e59f9f18d7c10b5df232a",
        "to": "0x0750e6b0ebed961a1e2524fe59b87235434b4dd5",
        "gas": "0x67139b6",
        "value": "0x0",
        "input": "0x0c495f960000000000000000000000002bb55f68fb05de13b04e5a2cadbae5a05bce277b00000000000000000000000006c1e044d5beb614faa6128001f519e6c693a04400000000000000000000000000000000000000000000000000000000000000010000000000000000000000000000000000000000000000000000000000000000",
        "nonce": "0x2dc",
        "chainId": "0x138b"
      },
      "additionalContracts": [],
      "isFixedGasLimit": false
    },
    {
      "hash": "0xebce7b9cc1f61cefc1364ca38dbb795a2abc99bc04505d77004120e94b2af77a",
      "transactionType": "CALL",
      "contractName": "KubiStreamerDonation",
      "contractAddress": "0x0750e6b0ebed961a1e2524fe59b87235434b4dd5",
      "function": "setYieldConfig(address,address,bool,uint256)",
      "arguments": [
        "0xa022FD1966577144fCb5Ed8aD5a134861aE5e138",
        "0x85B8Dc34C7Af35baC8a45CfF53353f39E6F732A2",
        "true",
        "0"
      ],
      "transaction": {
        "from": "0x1234562eb0cd65e7d08e59f9f18d7c10b5df232a",
        "to": "0x0750e6b0ebed961a1e2524fe59b87235434b4dd5",
        "gas": "0x67139b6",
        "value": "0x0",
        "input": "0x0c495f96000000000000000000000000a022fd1966577144fcb5ed8ad5a134861ae5e13800000000000000000000000085b8dc34c7af35bac8a45cff53353f39e6f732a200000000000000000000000000000000000000000000000000000000000000010000000000000000000000000000000000000000000000000000000000000000",
        "nonce": "0x2dd",
        "chainId": "0x138b"
      },
      "additionalContracts": [],
      "isFixedGasLimit": false
    },
    {
      "hash": "0x2aac1e22bfb52eff2652fe4419408d6f6bef7117f62fe13305dd27586526dba7",
      "transactionType": "CALL",
      "contractName": "KubiStreamerDonation",
      "contractAddress": "0x0750e6b0ebed961a1e2524fe59b87235434b4dd5",
      "function": "setYieldConfig(address,address,bool,uint256)",
      "arguments": [
        "0xEC4c46F46191d77C3D8Ba3ddFafe71b58E2089Af",
        "0x7392e9E58f202Da3877776c41683AC457DFd4CD7",
        "true",
        "0"
      ],
      "transaction": {
        "from": "0x1234562eb0cd65e7d08e59f9f18d7c10b5df232a",
        "to": "0x0750e6b0ebed961a1e2524fe59b87235434b4dd5",
        "gas": "0x67139b6",
        "value": "0x0",
        "input": "0x0c495f96000000000000000000000000ec4c46f46191d77c3d8ba3ddfafe71b58e2089af0000000000000000000000007392e9e58f202da3877776c41683ac457dfd4cd700000000000000000000000000000000000000000000000000000000000000010000000000000000000000000000000000000000000000000000000000000000",
        "nonce": "0x2de",
        "chainId": "0x138b"
      },
      "additionalContracts": [],
      "isFixedGasLimit": false
    },
    {
      "hash": "0xb0f783ada41f444db350c0793108f465bd6d88ddaca5ae678cc5a5bb41dda147",
      "transactionType": "CALL",
      "contractName": "KubiStreamerDonation",
      "contractAddress": "0x0750e6b0ebed961a1e2524fe59b87235434b4dd5",
      "function": "setYieldConfig(address,address,bool,uint256)",
      "arguments": [
        "0xE47Eba0dBf716D99482Fb071ca04aDf4FCCd6b1f",
        "0x1fE9A4E25cAA2a22FC0B61010fDB0DB462FB5b29",
        "true",
        "0"
      ],
      "transaction": {
        "from": "0x1234562eb0cd65e7d08e59f9f18d7c10b5df232a",
        "to": "0x0750e6b0ebed961a1e2524fe59b87235434b4dd5",
        "gas": "0x67139b6",
        "value": "0x0",
        "input": "0x0c495f96000000000000000000000000e47eba0dbf716d99482fb071ca04adf4fccd6b1f0000000000000000000000001fe9a4e25caa2a22fc0b61010fdb0db462fb5b2900000000000000000000000000000000000000000000000000000000000000010000000000000000000000000000000000000000000000000000000000000000",
        "nonce": "0x2df",
        "chainId": "0x138b"
      },
      "additionalContracts": [],
      "isFixedGasLimit": false
    },
    {
      "hash": "0x65ebd5c6abe653ad6d4231f0f6355f4168ba9f3c989215b8a4fbe160bb701c3e",
      "transactionType": "CALL",
      "contractName": "KubiStreamerDonation",
      "contractAddress": "0x0750e6b0ebed961a1e2524fe59b87235434b4dd5",
      "function": "setYieldConfig(address,address,bool,uint256)",
      "arguments": [
        "0x4E3A466BbA553Ace4Cd3a6149d574F3f034b5269",
        "0x5e1E8043381F3A21a1A64f46073daF7E74fEdC1E",
        "true",
        "0"
      ],
      "transaction": {
        "from": "0x1234562eb0cd65e7d08e59f9f18d7c10b5df232a",
        "to": "0x0750e6b0ebed961a1e2524fe59b87235434b4dd5",
        "gas": "0x67139b6",
        "value": "0x0",
        "input": "0x0c495f960000000000000000000000004e3a466bba553ace4cd3a6149d574f3f034b52690000000000000000000000005e1e8043381f3a21a1a64f46073daf7e74fedc1e00000000000000000000000000000000000000000000000000000000000000010000000000000000000000000000000000000000000000000000000000000000",
        "nonce": "0x2e0",
        "chainId": "0x138b"
      },
      "additionalContracts": [],
      "isFixedGasLimit": false
    },
    {
      "hash": "0xe183b96880cd011813ae68d6a527c2e4ededbdd3908cbda8130952a531fe3093",
      "transactionType": "CALL",
      "contractName": "KubiStreamerDonation",
      "contractAddress": "0x0750e6b0ebed961a1e2524fe59b87235434b4dd5",
      "function": "setYieldConfig(address,address,bool,uint256)",
      "arguments": [
        "0x751A0E0147d10b8C21804AC88DCfa6837312ea35",
        "0x06C1e044D5BEb614faA6128001F519e6c693a044",
        "true",
        "0"
      ],
      "transaction": {
        "from": "0x1234562eb0cd65e7d08e59f9f18d7c10b5df232a",
        "to": "0x0750e6b0ebed961a1e2524fe59b87235434b4dd5",
        "gas": "0x67139b6",
        "value": "0x0",
        "input": "0x0c495f96000000000000000000000000751a0e0147d10b8c21804ac88dcfa6837312ea3500000000000000000000000006c1e044d5beb614faa6128001f519e6c693a04400000000000000000000000000000000000000000000000000000000000000010000000000000000000000000000000000000000000000000000000000000000",
        "nonce": "0x2e1",
        "chainId": "0x138b"
      },
      "additionalContracts": [],
      "isFixedGasLimit": false
    },
    {
      "hash": "0xf25a5e8c6798b47a6334ab28af02fd3c967fd404147ee2c3b1dd9fc56ed31e57",
      "transactionType": "CALL",
      "contractName": "KubiStreamerDonation",
      "contractAddress": "0x0750e6b0ebed961a1e2524fe59b87235434b4dd5",
      "function": "setYieldConfig(address,address,bool,uint256)",
      "arguments": [
        "0xD8D362BADb84Cc1F97a00273ddC8845FD4148C80",
        "0x85B8Dc34C7Af35baC8a45CfF53353f39E6F732A2",
        "true",
        "0"
      ],
      "transaction": {
        "from": "0x1234562eb0cd65e7d08e59f9f18d7c10b5df232a",
        "to": "0x0750e6b0ebed961a1e2524fe59b87235434b4dd5",
        "gas": "0x67139b6",
        "value": "0x0",
        "input": "0x0c495f96000000000000000000000000d8d362badb84cc1f97a00273ddc8845fd4148c8000000000000000000000000085b8dc34c7af35bac8a45cff53353f39e6f732a200000000000000000000000000000000000000000000000000000000000000010000000000000000000000000000000000000000000000000000000000000000",
        "nonce": "0x2e2",
        "chainId": "0x138b"
      },
      "additionalContracts": [],
      "isFixedGasLimit": false
    },
    {
      "hash": "0x4a1fc461adf5badf367c718c2b15531fc828543bea4a3964703544f48e0930c1",
      "transactionType": "CALL",
      "contractName": "KubiStreamerDonation",
      "contractAddress": "0x0750e6b0ebed961a1e2524fe59b87235434b4dd5",
      "function": "setYieldConfig(address,address,bool,uint256)",
      "arguments": [
        "0x1061473A78f6eb0a0BcBDE060a5EeA9d4273BB59",
        "0x7392e9E58f202Da3877776c41683AC457DFd4CD7",
        "true",
        "0"
      ],
      "transaction": {
        "from": "0x1234562eb0cd65e7d08e59f9f18d7c10b5df232a",
        "to": "0x0750e6b0ebed961a1e2524fe59b87235434b4dd5",
        "gas": "0x67139b6",
        "value": "0x0",
        "input": "0x0c495f960000000000000000000000001061473a78f6eb0a0bcbde060a5eea9d4273bb590000000000000000000000007392e9e58f202da3877776c41683ac457dfd4cd700000000000000000000000000000000000000000000000000000000000000010000000000000000000000000000000000000000000000000000000000000000",
        "nonce": "0x2e3",
        "chainId": "0x138b"
      },
      "additionalContracts": [],
      "isFixedGasLimit": false
    },
    {
      "hash": "0x32f2ce5b95ed8c8f3d1a1dcd22346503f08d63833a4f2d5b0f23ef4c34a62b38",
      "transactionType": "CALL",
      "contractName": "KubiStreamerDonation",
      "contractAddress": "0x0750e6b0ebed961a1e2524fe59b87235434b4dd5",
      "function": "setYieldConfig(address,address,bool,uint256)",
      "arguments": [
        "0x824FB936D24B2BAaF92Fe87FD65fF22d01439ECE",
        "0x1fE9A4E25cAA2a22FC0B61010fDB0DB462FB5b29",
        "true",
        "0"
      ],
      "transaction": {
        "from": "0x1234562eb0cd65e7d08e59f9f18d7c10b5df232a",
        "to": "0x0750e6b0ebed961a1e2524fe59b87235434b4dd5",
        "gas": "0x67139b6",
        "value": "0x0",
        "input": "0x0c495f96000000000000000000000000824fb936d24b2baaf92fe87fd65ff22d01439ece0000000000000000000000001fe9a4e25caa2a22fc0b61010fdb0db462fb5b2900000000000000000000000000000000000000000000000000000000000000010000000000000000000000000000000000000000000000000000000000000000",
        "nonce": "0x2e4",
        "chainId": "0x138b"
      },
      "additionalContracts": [],
      "isFixedGasLimit": false
    },
    {
      "hash": "0xf4af10ded47ceb9b82e8e4649162a97ab15b0b165549c116b27b4c7a67b70c3e",
      "transactionType": "CALL",
      "contractName": "KubiStreamerDonation",
      "contractAddress": "0x0750e6b0ebed961a1e2524fe59b87235434b4dd5",
      "function": "setYieldConfig(address,address,bool,uint256)",
      "arguments": [
        "0x012bd7CD0AcC8cB696306B1aB7a537E85eF2056f",
        "0x5e1E8043381F3A21a1A64f46073daF7E74fEdC1E",
        "true",
        "0"
      ],
      "transaction": {
        "from": "0x1234562eb0cd65e7d08e59f9f18d7c10b5df232a",
        "to": "0x0750e6b0ebed961a1e2524fe59b87235434b4dd5",
        "gas": "0x67139b6",
        "value": "0x0",
        "input": "0x0c495f96000000000000000000000000012bd7cd0acc8cb696306b1ab7a537e85ef2056f0000000000000000000000005e1e8043381f3a21a1a64f46073daf7e74fedc1e00000000000000000000000000000000000000000000000000000000000000010000000000000000000000000000000000000000000000000000000000000000",
        "nonce": "0x2e5",
        "chainId": "0x138b"
      },
      "additionalContracts": [],
      "isFixedGasLimit": false
    },
    {
      "hash": "0xffdd0728725a265f094dbf03acca70a155358501818fb3d4458e800bfc878c19",
      "transactionType": "CALL",
      "contractName": "KubiStreamerDonation",
      "contractAddress": "0x0750e6b0ebed961a1e2524fe59b87235434b4dd5",
      "function": "setYieldConfig(address,address,bool,uint256)",
      "arguments": [
        "0x4d8346F2F33FFBc7fa2E46bECF83C978943e69C8",
        "0x06C1e044D5BEb614faA6128001F519e6c693a044",
        "true",
        "0"
      ],
      "transaction": {
        "from": "0x1234562eb0cd65e7d08e59f9f18d7c10b5df232a",
        "to": "0x0750e6b0ebed961a1e2524fe59b87235434b4dd5",
        "gas": "0x67139b6",
        "value": "0x0",
        "input": "0x0c495f960000000000000000000000004d8346f2f33ffbc7fa2e46becf83c978943e69c800000000000000000000000006c1e044d5beb614faa6128001f519e6c693a04400000000000000000000000000000000000000000000000000000000000000010000000000000000000000000000000000000000000000000000000000000000",
        "nonce": "0x2e6",
        "chainId": "0x138b"
      },
      "additionalContracts": [],
      "isFixedGasLimit": false
    },
    {
      "hash": "0xfc6f88b27b2d6caadd5e3f842e025c8abf2d8ca5b639b7a26844cac2886e5a23",
      "transactionType": "CALL",
      "contractName": "KubiStreamerDonation",
      "contractAddress": "0x0750e6b0ebed961a1e2524fe59b87235434b4dd5",
      "function": "setYieldConfig(address,address,bool,uint256)",
      "arguments": [
        "0x2db087D43Fc8402aDE0706807d32d6EF72411ebd",
        "0x85B8Dc34C7Af35baC8a45CfF53353f39E6F732A2",
        "true",
        "0"
      ],
      "transaction": {
        "from": "0x1234562eb0cd65e7d08e59f9f18d7c10b5df232a",
        "to": "0x0750e6b0ebed961a1e2524fe59b87235434b4dd5",
        "gas": "0x67139b6",
        "value": "0x0",
        "input": "0x0c495f960000000000000000000000002db087d43fc8402ade0706807d32d6ef72411ebd00000000000000000000000085b8dc34c7af35bac8a45cff53353f39e6f732a200000000000000000000000000000000000000000000000000000000000000010000000000000000000000000000000000000000000000000000000000000000",
        "nonce": "0x2e7",
        "chainId": "0x138b"
      },
      "additionalContracts": [],
      "isFixedGasLimit": false
    },
    {
      "hash": "0xc289678c3ee7421f6a5b67ccd668b191372fbc49b721958a297f5acaf9819113",
      "transactionType": "CALL",
      "contractName": "KubiStreamerDonation",
      "contractAddress": "0x0750e6b0ebed961a1e2524fe59b87235434b4dd5",
      "function": "setYieldConfig(address,address,bool,uint256)",
      "arguments": [
        "0xD14bD87b18dA3Ec84a9e098DF1c808d9cb7a9852",
        "0x7392e9E58f202Da3877776c41683AC457DFd4CD7",
        "true",
        "0"
      ],
      "transaction": {
        "from": "0x1234562eb0cd65e7d08e59f9f18d7c10b5df232a",
        "to": "0x0750e6b0ebed961a1e2524fe59b87235434b4dd5",
        "gas": "0x67139b6",
        "value": "0x0",
        "input": "0x0c495f96000000000000000000000000d14bd87b18da3ec84a9e098df1c808d9cb7a98520000000000000000000000007392e9e58f202da3877776c41683ac457dfd4cd700000000000000000000000000000000000000000000000000000000000000010000000000000000000000000000000000000000000000000000000000000000",
        "nonce": "0x2e8",
        "chainId": "0x138b"
      },
      "additionalContracts": [],
      "isFixedGasLimit": false
    }
  ],
  "receipts": [
    {
      "status": "0x1",
      "cumulativeGasUsed": "0x20259b88c",
      "logs": [
        {
          "address": "0x0750e6b0ebed961a1e2524fe59b87235434b4dd5",
          "topics": [
            "0x8be0079c531659141344cd1fd0a4f28419497f9722a3daafe3b4186f6b6457e0",
            "0x0000000000000000000000000000000000000000000000000000000000000000",
            "0x0000000000000000000000001234562eb0cd65e7d08e59f9f18d7c10b5df232a"
          ],
          "data": "0x",
          "blockHash": "0xb531a019d1af6317a652b61f70b3b1feffd8bcf4ff73c9b106c14c93cce6c391",
          "blockNumber": "0x1f78af5",
          "blockTimestamp": "0x695a98cb",
          "transactionHash": "0x48261d3c21d5775ab3c7dd8bc024431f08a73883de08ff49b769cbd04c480e98",
          "transactionIndex": "0x1",
          "logIndex": "0x0",
          "removed": false
        }
      ],
      "logsBloom": "0x00000000000000000000000000000000000000000000000000800000000000000000000000000000000000000000000000000000000000000000000000000000000000000000000020000000000000000001000000000000000000000000000000000000020000000000000000000800400000000000000000000000000000400000000000000000000000000000000000000000000200000000000000000000020000000000000000000000000020000000000000000000000000000000000000000000000000000000000000000000010000000000000000000000000020000000000000000000000000000000000000000000000000000000000000000000",
      "type": "0x2",
      "transactionHash": "0x48261d3c21d5775ab3c7dd8bc024431f08a73883de08ff49b769cbd04c480e98",
      "transactionIndex": "0x1",
      "blockHash": "0xb531a019d1af6317a652b61f70b3b1feffd8bcf4ff73c9b106c14c93cce6c391",
      "blockNumber": "0x1f78af5",
      "gasUsed": "0x20258ebbf",
      "effectiveGasPrice": "0x1312d01",
      "from": "0x1234562eb0cd65e7d08e59f9f18d7c10b5df232a",
      "to": null,
      "contractAddress": "0x0750e6b0ebed961a1e2524fe59b87235434b4dd5",
      "l1Fee": "0x3013bde",
      "l1FeeScalar": "0.01",
      "l1GasPrice": "0x8",
      "l1GasUsed": "0x34fa4",
      "tokenRatio": "0xb58"
    },
    {
      "status": "0x1",
      "cumulativeGasUsed": "0x841a589",
      "logs": [
        {
          "address": "0x0750e6b0ebed961a1e2524fe59b87235434b4dd5",
          "topics": [
            "0xac90355684e2710fa34c2c7d500018678b146ea2d56ddc331c63d242ee8bf385",
            "0x00000000000000000000000057b78b98b9dd06e06de145b83aedf6f04e4c5500"
          ],
          "data": "0x0000000000000000000000000000000000000000000000000000000000000001",
          "blockHash": "0x5824861e310d2c2bf8eb5ec6822b1b2874a8225df37ab0c6606588114d0d2a3c",
          "blockNumber": "0x1f78afc",
          "blockTimestamp": "0x695a98d9",
          "transactionHash": "0x1701ebd531af386b808f5600c0ec1b8a63eede53b75a65a40dd1b70746c94140",
          "transactionIndex": "0x1",
          "logIndex": "0x0",
          "removed": false
        }
      ],
      "logsBloom": "0x00000000000000000200000000000000000000000000000000000000000000000000000000000000000000000000000000000000000000040010000000000000000000000000000000000000000000000000000000000000000000000000000000000000000000000000000000000000400000000000000000000000002000000000000000000000000000000000000000000000000000000000000000000000000000000000000000000000000020000000000000000000000000000000000080020000000000000000000000000000010000000000000000000000000000000000000000000000000000000000000000000000000000000000000000000000",
      "type": "0x2",
      "transactionHash": "0x1701ebd531af386b808f5600c0ec1b8a63eede53b75a65a40dd1b70746c94140",
      "transactionIndex": "0x1",
      "blockHash": "0x5824861e310d2c2bf8eb5ec6822b1b2874a8225df37ab0c6606588114d0d2a3c",
      "blockNumber": "0x1f78afc",
      "gasUsed": "0x840abc4",
      "effectiveGasPrice": "0x1312d01",
      "from": "0x1234562eb0cd65e7d08e59f9f18d7c10b5df232a",
      "to": "0x0750e6b0ebed961a1e2524fe59b87235434b4dd5",
      "contractAddress": null,
      "l1Fee": "0x8f628",
      "l1FeeScalar": "0.01",
      "l1GasPrice": "0x8",
      "l1GasUsed": "0x9e0",
      "tokenRatio": "0xb58"
    },
    {
      "status": "0x1",
      "cumulativeGasUsed": "0x841e960",
      "logs": [
        {
          "address": "0x0750e6b0ebed961a1e2524fe59b87235434b4dd5",
          "topics": [
            "0xac90355684e2710fa34c2c7d500018678b146ea2d56ddc331c63d242ee8bf385",
            "0x0000000000000000000000001fe9a4e25caa2a22fc0b61010fdb0db462fb5b29"
          ],
          "data": "0x0000000000000000000000000000000000000000000000000000000000000001",
          "blockHash": "0xa8c0fe9399bbda826a8d04cdbe2e466bbb9d400c67071de99defe15898115b09",
          "blockNumber": "0x1f78afe",
          "blockTimestamp": "0x695a98dd",
          "transactionHash": "0x586b4719162f32952a9789a258b2e9c1332cc2b3f3328dc54b268555a4c43926",
          "transactionIndex": "0x1",
          "logIndex": "0x0",
          "removed": false
        }
      ],
      "logsBloom": "0x00000000000000000200000000000000000000000000000000008000000000000000000000000000000000000000000000000000000000000010000000000001000000000000000000000080000000000000000000000000000000000000000000000000000000000000000000000000400000000000000000000000002000000000000000000000000000000000000000000000000000000000000000000000000000000000000000000000000020000000000000000000000000000000000000000000000000000000000000000000010000000000000000000000000000000000000000000000000000000000000000000000000000000000000000000000",
      "type": "0x2",
      "transactionHash": "0x586b4719162f32952a9789a258b2e9c1332cc2b3f3328dc54b268555a4c43926",
      "transactionIndex": "0x1",
      "blockHash": "0xa8c0fe9399bbda826a8d04cdbe2e466bbb9d400c67071de99defe15898115b09",
      "blockNumber": "0x1f78afe",
      "gasUsed": "0x8413267",
      "effectiveGasPrice": "0x1312d01",
      "from": "0x1234562eb0cd65e7d08e59f9f18d7c10b5df232a",
      "to": "0x0750e6b0ebed961a1e2524fe59b87235434b4dd5",
      "contractAddress": null,
      "l1Fee": "0x90bf0",
      "l1FeeScalar": "0.01",
      "l1GasPrice": "0x8",
      "l1GasUsed": "0x9f8",
      "tokenRatio": "0xb58"
    },
    {
      "status": "0x1",
      "cumulativeGasUsed": "0x841e960",
      "logs": [
        {
          "address": "0x0750e6b0ebed961a1e2524fe59b87235434b4dd5",
          "topics": [
            "0xac90355684e2710fa34c2c7d500018678b146ea2d56ddc331c63d242ee8bf385",
            "0x0000000000000000000000005e1e8043381f3a21a1a64f46073daf7e74fedc1e"
          ],
          "data": "0x0000000000000000000000000000000000000000000000000000000000000001",
          "blockHash": "0x53cef359f68ada724f09f257e3b7ba470d144a3a463b8d48ba59e113f73b5696",
          "blockNumber": "0x1f78b00",
          "blockTimestamp": "0x695a98e1",
          "transactionHash": "0x943e76e86ea32e54529451ac4bef0a13e332e03ff4ed9b3f6f83d4599c03b121",
          "transactionIndex": "0x1",
          "logIndex": "0x0",
          "removed": false
        }
      ],
      "logsBloom": "0x00000000000000000200000000000000000000000000000000000000000000000000000000000000000000000000000000000000000000000010000000000000000000000000040000000000000000000000000000000000000000000000000000000000000000000000000000000000400000000000000000000000002000000000000000000000000000000000000000000000000000000000000000000000000000000000000000000000000020000000000000000000000000000000000000000020000000000000000000000000010000000000000000000000000000000000000000000000000000000000000001000000000000000000000000000000",
      "type": "0x2",
      "transactionHash": "0x943e76e86ea32e54529451ac4bef0a13e332e03ff4ed9b3f6f83d4599c03b121",
      "transactionIndex": "0x1",
      "blockHash": "0x53cef359f68ada724f09f257e3b7ba470d144a3a463b8d48ba59e113f73b5696",
      "blockNumber": "0x1f78b00",
      "gasUsed": "0x8413267",
      "effectiveGasPrice": "0x1312d01",
      "from": "0x1234562eb0cd65e7d08e59f9f18d7c10b5df232a",
      "to": "0x0750e6b0ebed961a1e2524fe59b87235434b4dd5",
      "contractAddress": null,
      "l1Fee": "0x90bf0",
      "l1FeeScalar": "0.01",
      "l1GasPrice": "0x8",
      "l1GasUsed": "0x9f8",
      "tokenRatio": "0xb58"
    },
    {
      "status": "0x1",
      "cumulativeGasUsed": "0x8422c2c",
      "logs": [
        {
          "address": "0x0750e6b0ebed961a1e2524fe59b87235434b4dd5",
          "topics": [
            "0xac90355684e2710fa34c2c7d500018678b146ea2d56ddc331c63d242ee8bf385",
            "0x00000000000000000000000006c1e044d5beb614faa6128001f519e6c693a044"
          ],
          "data": "0x0000000000000000000000000000000000000000000000000000000000000001",
          "blockHash": "0x03df7d7b0b916718a335f966e02da311f20a6d7d26d861a355dfe42f57c6311f",
          "blockNumber": "0x1f78b02",
          "blockTimestamp": "0x695a98e5",
          "transactionHash": "0xcdbb18a17bd415198f0ff21646a3415381be952a340de0ec6024807c82639ea4",
          "transactionIndex": "0x1",
          "logIndex": "0x0",
          "removed": false
        }
      ],
      "logsBloom": "0x00000000000000010200000000000000000000800000000000000000000000000000000000000000000000000000000000000000000000000010000000000000000000000000000000000000000000000000000000000000000000000000000000000000000000000000000000000000400000000000000000000000002000000000000000000000000000000000000000000000000000000000000000000000000000000000000000000000000020000000000000000000000000000000000000000000000000000000000000000000010000000000000000000000000000000000000000000000000000000000000000000000040000000000000000000000",
      "type": "0x2",
      "transactionHash": "0xcdbb18a17bd415198f0ff21646a3415381be952a340de0ec6024807c82639ea4",
      "transactionIndex": "0x1",
      "blockHash": "0x03df7d7b0b916718a335f966e02da311f20a6d7d26d861a355dfe42f57c6311f",
      "blockNumber": "0x1f78b02",
      "gasUsed": "0x8413267",
      "effectiveGasPrice": "0x1312d01",
      "from": "0x1234562eb0cd65e7d08e59f9f18d7c10b5df232a",
      "to": "0x0750e6b0ebed961a1e2524fe59b87235434b4dd5",
      "contractAddress": null,
      "l1Fee": "0x90bf0",
      "l1FeeScalar": "0.01",
      "l1GasPrice": "0x8",
      "l1GasUsed": "0x9f8",
      "tokenRatio": "0xb58"
    },
    {
      "status": "0x1",
      "cumulativeGasUsed": "0x841e960",
      "logs": [
        {
          "address": "0x0750e6b0ebed961a1e2524fe59b87235434b4dd5",
          "topics": [
            "0xac90355684e2710fa34c2c7d500018678b146ea2d56ddc331c63d242ee8bf385",
            "0x00000000000000000000000085b8dc34c7af35bac8a45cff53353f39e6f732a2"
          ],
          "data": "0x0000000000000000000000000000000000000000000000000000000000000001",
          "blockHash": "0x83dfec9a3ce0aad08d5e8bab4ab6d0f7840abd782b4997e4a7637bf97b799a5b",
          "blockNumber": "0x1f78b04",
          "blockTimestamp": "0x695a98e9",
          "transactionHash": "0x2e49af2181c284eb472f9a458631bb4d2aab1bf7615b44889d1a245256673749",
          "transactionIndex": "0x1",
          "logIndex": "0x0",
          "removed": false
        }
      ],
      "logsBloom": "0x00000000000000000200000000000000000000000000000000000000000000000000000000000000000000000000000000000000000000000010000000000000000000000000000000000000000000000000000000000000000000000000000000040000000000000000000000000000400000000000000000000000002000000000000000000000000000000000000000040000000000000000000000000000000000000000000000000000000020000000000000000000000000000000000000000000000000000000000000000000010000000000000001000000000000000000000000000000000000000000000000000000000000000000000000000000",
      "type": "0x2",
      "transactionHash": "0x2e49af2181c284eb472f9a458631bb4d2aab1bf7615b44889d1a245256673749",
      "transactionIndex": "0x1",
      "blockHash": "0x83dfec9a3ce0aad08d5e8bab4ab6d0f7840abd782b4997e4a7637bf97b799a5b",
      "blockNumber": "0x1f78b04",
      "gasUsed": "0x8413267",
      "effectiveGasPrice": "0x1312d01",
      "from": "0x1234562eb0cd65e7d08e59f9f18d7c10b5df232a",
      "to": "0x0750e6b0ebed961a1e2524fe59b87235434b4dd5",
      "contractAddress": null,
      "l1Fee": "0x8f628",
      "l1FeeScalar": "0.01",
      "l1GasPrice": "0x8",
      "l1GasUsed": "0x9e0",
      "tokenRatio": "0xb58"
    },
    {
      "status": "0x1",
      "cumulativeGasUsed": "0x841e960",
      "logs": [
        {
          "address": "0x0750e6b0ebed961a1e2524fe59b87235434b4dd5",
          "topics": [
            "0xac90355684e2710fa34c2c7d500018678b146ea2d56ddc331c63d242ee8bf385",
            "0x0000000000000000000000007392e9e58f202da3877776c41683ac457dfd4cd7"
          ],
          "data": "0x0000000000000000000000000000000000000000000000000000000000000001",
          "blockHash": "0x4d4e3fcc9ee789c969459b79a69993f8eef1ebd5e36889fd9540e3aa94dd3177",
          "blockNumber": "0x1f78b06",
          "blockTimestamp": "0x695a98ed",
          "transactionHash": "0xc7d32d17a9c31bee544b0d751fddba0925bad9f46267944a07067a47699fa5dc",
          "transactionIndex": "0x1",
          "logIndex": "0x0",
          "removed": false
        }
      ],
      "logsBloom": "0x00000000000000000200000000000000000000000000000000000000000000000000000000000000000000000000000000000000000000000010000000000000000000000000000000000000000000000000000000000000000000000000000000000000000000000000000000000000400000000000000000000000002000000000000000000000000000000000000000000000000000000000000000000000000000000000000000000000000020000000000000000000000000000000000000000000001000000000000000000100010000000000000000000000000000000000000000000000000000000000000000000000000000000000004000000000",
      "type": "0x2",
      "transactionHash": "0xc7d32d17a9c31bee544b0d751fddba0925bad9f46267944a07067a47699fa5dc",
      "transactionIndex": "0x1",
      "blockHash": "0x4d4e3fcc9ee789c969459b79a69993f8eef1ebd5e36889fd9540e3aa94dd3177",
      "blockNumber": "0x1f78b06",
      "gasUsed": "0x8413267",
      "effectiveGasPrice": "0x1312d01",
      "from": "0x1234562eb0cd65e7d08e59f9f18d7c10b5df232a",
      "to": "0x0750e6b0ebed961a1e2524fe59b87235434b4dd5",
      "contractAddress": null,
      "l1Fee": "0x9010c",
      "l1FeeScalar": "0.01",
      "l1GasPrice": "0x8",
      "l1GasUsed": "0x9ec",
      "tokenRatio": "0xb58"
    },
    {
      "status": "0x1",
      "cumulativeGasUsed": "0x8422c20",
      "logs": [
        {
          "address": "0x0750e6b0ebed961a1e2524fe59b87235434b4dd5",
          "topics": [
            "0xac90355684e2710fa34c2c7d500018678b146ea2d56ddc331c63d242ee8bf385",
            "0x000000000000000000000000b03a4cf6eb030bbabd0452300b01c7dcb9584737"
          ],
          "data": "0x0000000000000000000000000000000000000000000000000000000000000001",
          "blockHash": "0x95ad1c59d3bcd51cee4ab3115f513f531c8265fe0fd88ca8b482d10029a5e5d0",
          "blockNumber": "0x1f78b08",
          "blockTimestamp": "0x695a98f1",
          "transactionHash": "0xb3ca4f515a3e01191ec08fd7ddcd82af32f5eaec1f9b81a591a0807dfb1650d0",
          "transactionIndex": "0x1",
          "logIndex": "0x0",
          "removed": false
        }
      ],
      "logsBloom": "0x00000000000000000200000000000000080000000000000000000000000000000000000000000000000000000040000000000000000000000010000000000000000000000000000000000000000000000000000000000000000000000000000000000000000000000000000000000000400000000000000000000000002000000000000000000000000000000000000000000000000000000000000000000000000000000000000000000000000020000000000000000000000000000000000000000000000000000000000000000000010000000000000000000000000000000000000000100000000000000000000000000000000000000000000000000000",
      "type": "0x2",
      "transactionHash": "0xb3ca4f515a3e01191ec08fd7ddcd82af32f5eaec1f9b81a591a0807dfb1650d0",
      "transactionIndex": "0x1",
      "blockHash": "0x95ad1c59d3bcd51cee4ab3115f513f531c8265fe0fd88ca8b482d10029a5e5d0",
      "blockNumber": "0x1f78b08",
      "gasUsed": "0x8413267",
      "effectiveGasPrice": "0x1312d01",
      "from": "0x1234562eb0cd65e7d08e59f9f18d7c10b5df232a",
      "to": "0x0750e6b0ebed961a1e2524fe59b87235434b4dd5",
      "contractAddress": null,
      "l1Fee": "0x90bf0",
      "l1FeeScalar": "0.01",
      "l1GasPrice": "0x8",
      "l1GasUsed": "0x9f8",
      "tokenRatio": "0xb58"
    },
    {
      "status": "0x1",
      "cumulativeGasUsed": "0x841e954",
      "logs": [
        {
          "address": "0x0750e6b0ebed961a1e2524fe59b87235434b4dd5",
          "topics": [
            "0xac90355684e2710fa34c2c7d500018678b146ea2d56ddc331c63d242ee8bf385",
            "0x0000000000000000000000002ffc2f655a26a4def63efcd59930d1241ee0519a"
          ],
          "data": "0x0000000000000000000000000000000000000000000000000000000000000001",
          "blockHash": "0x220520b8d7dce2d0aadf84a7ec8fd23fbf3fad28c61ab3eafa8324965726bf56",
          "blockNumber": "0x1f78b0a",
          "blockTimestamp": "0x695a98f5",
          "transactionHash": "0x087e8769540a68a0be2fb8b710bbfcfc4f4588dbb296fbfaa63b3c385b87e63a",
          "transactionIndex": "0x1",
          "logIndex": "0x0",
          "removed": false
        }
      ],
      "logsBloom": "0x00000000000000000200000000000000000000000000000000000000000000000000000000000000000000000000000000000000000000000010000000000000000000002000000000000000000000000000010000000000000000000000000000000000000000000000000000000000400000000000000000000000002000000000000000000000000000000000000000000000000000000000000000000000000000000000000000000000000020000000000000000000000000000000000000000000000000000000000000000000010000000000000000000000000000000000000000000000000000000000000000000000000000000000000004000000",
      "type": "0x2",
      "transactionHash": "0x087e8769540a68a0be2fb8b710bbfcfc4f4588dbb296fbfaa63b3c385b87e63a",
      "transactionIndex": "0x1",
      "blockHash": "0x220520b8d7dce2d0aadf84a7ec8fd23fbf3fad28c61ab3eafa8324965726bf56",
      "blockNumber": "0x1f78b0a",
      "gasUsed": "0x8413267",
      "effectiveGasPrice": "0x1312d01",
      "from": "0x1234562eb0cd65e7d08e59f9f18d7c10b5df232a",
      "to": "0x0750e6b0ebed961a1e2524fe59b87235434b4dd5",
      "contractAddress": null,
      "l1Fee": "0x90bf0",
      "l1FeeScalar": "0.01",
      "l1GasPrice": "0x8",
      "l1GasUsed": "0x9f8",
      "tokenRatio": "0xb58"
    },
    {
      "status": "0x1",
      "cumulativeGasUsed": "0xf238c56",
      "logs": [
        {
          "address": "0x0750e6b0ebed961a1e2524fe59b87235434b4dd5",
          "topics": [
            "0xac90355684e2710fa34c2c7d500018678b146ea2d56ddc331c63d242ee8bf385",
            "0x00000000000000000000000014ac27f376b03b6c05f2189c4f03febb5d76432a"
          ],
          "data": "0x0000000000000000000000000000000000000000000000000000000000000001",
          "blockHash": "0x332e3bd500bc726af5abd14be68fe714676a8b2a15f30e711664ffee0d0ed862",
          "blockNumber": "0x1f78b0c",
          "blockTimestamp": "0x695a98f9",
          "transactionHash": "0x9c64764f36e80847b7a373b1ce0351cb12182423cb08e2f6fa5b68f41f1b9257",
          "transactionIndex": "0x2",
          "logIndex": "0x1",
          "removed": false
        }
      ],
      "logsBloom": "0x00000000000000000200000000000000000000000000000000000000000000000000000000000000000000000000000000000000000000000010000000000000000000000000000000000000000000000000000000000000000000000000000000000000000000000000000000000000400000000000000000000000002000000000000000000000000000000020000000000000000000000000000000000000000000000004000000000000000020000000000000000000000000000000000000000000000000000000000010000000010000000000000000000000000000000000000000000000000000000000000000000000000000000000000000000000",
      "type": "0x2",
      "transactionHash": "0x9c64764f36e80847b7a373b1ce0351cb12182423cb08e2f6fa5b68f41f1b9257",
      "transactionIndex": "0x2",
      "blockHash": "0x332e3bd500bc726af5abd14be68fe714676a8b2a15f30e711664ffee0d0ed862",
      "blockNumber": "0x1f78b0c",
      "gasUsed": "0x8413267",
      "effectiveGasPrice": "0x1312d01",
      "from": "0x1234562eb0cd65e7d08e59f9f18d7c10b5df232a",
      "to": "0x0750e6b0ebed961a1e2524fe59b87235434b4dd5",
      "contractAddress": null,
      "l1Fee": "0x90bf0",
      "l1FeeScalar": "0.01",
      "l1GasPrice": "0x8",
      "l1GasUsed": "0x9f8",
      "tokenRatio": "0xb58"
    },
    {
      "status": "0x1",
      "cumulativeGasUsed": "0x8422c2c",
      "logs": [
        {
          "address": "0x0750e6b0ebed961a1e2524fe59b87235434b4dd5",
          "topics": [
            "0xac90355684e2710fa34c2c7d500018678b146ea2d56ddc331c63d242ee8bf385",
            "0x000000000000000000000000dac9107491b3c59a97d7f45cefc97353f6ab46b2"
          ],
          "data": "0x0000000000000000000000000000000000000000000000000000000000000001",
          "blockHash": "0x20db1840b2b81065a86f2c9b643d20749061f6435838f44d66dea378275c1cba",
          "blockNumber": "0x1f78b0e",
          "blockTimestamp": "0x695a98fd",
          "transactionHash": "0xae06d684bec71422e0dc8a0b435ce2158b5fdb721b35b848ae03fe6c09576237",
          "transactionIndex": "0x1",
          "logIndex": "0x0",
          "removed": false
        }
      ],
      "logsBloom": "0x00000000000000000200000000000000000000000000000000000000000000000000000000000000000000000000000000000000000000000010000000000000000000000000000000000000000000000000000000000000000000000000000000000000000000000000000000000000400000000000000000000000002000000000000000000000000000000000000000000000000000000000800000000000000000000000000000000000000020000000000000000000000000000000000000000000000000000000000000000000010000000000000000000000000000000000000000000001000000000000000000000000000000000000000000000080",
      "type": "0x2",
      "transactionHash": "0xae06d684bec71422e0dc8a0b435ce2158b5fdb721b35b848ae03fe6c09576237",
      "transactionIndex": "0x1",
      "blockHash": "0x20db1840b2b81065a86f2c9b643d20749061f6435838f44d66dea378275c1cba",
      "blockNumber": "0x1f78b0e",
      "gasUsed": "0x8413267",
      "effectiveGasPrice": "0x1312d01",
      "from": "0x1234562eb0cd65e7d08e59f9f18d7c10b5df232a",
      "to": "0x0750e6b0ebed961a1e2524fe59b87235434b4dd5",
      "contractAddress": null,
      "l1Fee": "0x90bf0",
      "l1FeeScalar": "0.01",
      "l1GasPrice": "0x8",
      "l1GasUsed": "0x9f8",
      "tokenRatio": "0xb58"
    },
    {
      "status": "0x1",
      "cumulativeGasUsed": "0x841e960",
      "logs": [
        {
          "address": "0x0750e6b0ebed961a1e2524fe59b87235434b4dd5",
          "topics": [
            "0xac90355684e2710fa34c2c7d500018678b146ea2d56ddc331c63d242ee8bf385",
            "0x0000000000000000000000009b94108165ef58c9736f2c34b09e3b5b62cf5218"
          ],
          "data": "0x0000000000000000000000000000000000000000000000000000000000000001",
          "blockHash": "0xb194d0c6b7d2d8eb031c959a7c668b4e408b18fef4503367fa81cc399d06691a",
          "blockNumber": "0x1f78b10",
          "blockTimestamp": "0x695a9901",
          "transactionHash": "0x6a483ae503e0c18b1431892c65db9566ef280446634e095cfff13189986245f5",
          "transactionIndex": "0x1",
          "logIndex": "0x0",
          "removed": false
        }
      ],
      "logsBloom": "0x00000000000000000200000000000000000000000000000000000000000000000000000000000000000000000000000000000000000000000010000000000000000000000000000000000000000000000000000000000000000000000000000000000000000000000000000000000000400000000000000000000000002000000000000280000000000000000000000000000000000000000000000000000000000000000000000000000000000020000000000000000000000000000000000000000000001000000000000000000000010000000000000000000000000000000000000000000000000000000000000000000000000000000000000000000000",
      "type": "0x2",
      "transactionHash": "0x6a483ae503e0c18b1431892c65db9566ef280446634e095cfff13189986245f5",
      "transactionIndex": "0x1",
      "blockHash": "0xb194d0c6b7d2d8eb031c959a7c668b4e408b18fef4503367fa81cc399d06691a",
      "blockNumber": "0x1f78b10",
      "gasUsed": "0x8413267",
      "effectiveGasPrice": "0x1312d01",
      "from": "0x1234562eb0cd65e7d08e59f9f18d7c10b5df232a",
      "to": "0x0750e6b0ebed961a1e2524fe59b87235434b4dd5",
      "contractAddress": null,
      "l1Fee": "0x90bf0",
      "l1FeeScalar": "0.01",
      "l1GasPrice": "0x8",
      "l1GasUsed": "0x9f8",
      "tokenRatio": "0xb58"
    },
    {
      "status": "0x1",
      "cumulativeGasUsed": "0xc0bd07c",
      "logs": [],
      "logsBloom": "0x00000000000000000000000000000000000000000000000000000000000000000000000000000000000000000000000000000000000000000000000000000000000000000000000000000000000000000000000000000000000000000000000000000000000000000000000000000000000000000000000000000000000000000000000000000000000000000000000000000000000000000000000000000000000000000000000000000000000000000000000000000000000000000000000000000000000000000000000000000000000000000000000000000000000000000000000000000000000000000000000000000000000000000000000000000000",
      "type": "0x2",
      "transactionHash": "0x849ec1ea2838291d15bc47df907e925d8e8df191a8db7d42680c5ef01f69f87d",
      "transactionIndex": "0x1",
      "blockHash": "0x00f642c44e89f1b2916bb1167b990f746ab87ccbe40f294a402a3e71ba32a1e0",
      "blockNumber": "0x1f78b12",
      "gasUsed": "0xc0b1983",
      "effectiveGasPrice": "0x1312d01",
      "from": "0x1234562eb0cd65e7d08e59f9f18d7c10b5df232a",
      "to": "0x0750e6b0ebed961a1e2524fe59b87235434b4dd5",
      "contractAddress": null,
      "l1Fee": "0xa4f02",
      "l1FeeScalar": "0.01",
      "l1GasPrice": "0x8",
      "l1GasUsed": "0xb5c",
      "tokenRatio": "0xb58"
    },
    {
      "status": "0x1",
      "cumulativeGasUsed": "0xc0c1348",
      "logs": [],
      "logsBloom": "0x00000000000000000000000000000000000000000000000000000000000000000000000000000000000000000000000000000000000000000000000000000000000000000000000000000000000000000000000000000000000000000000000000000000000000000000000000000000000000000000000000000000000000000000000000000000000000000000000000000000000000000000000000000000000000000000000000000000000000000000000000000000000000000000000000000000000000000000000000000000000000000000000000000000000000000000000000000000000000000000000000000000000000000000000000000000",
      "type": "0x2",
      "transactionHash": "0xa6ff289050f0b18ed447300ebe2d7579021624db521d481137a301031cbb964f",
      "transactionIndex": "0x1",
      "blockHash": "0xa1d641993808724d79d356966b1c8789fd6189e8b406ef649cc61ebe5d5d2528",
      "blockNumber": "0x1f78b14",
      "gasUsed": "0xc0b1983",
      "effectiveGasPrice": "0x1312d01",
      "from": "0x1234562eb0cd65e7d08e59f9f18d7c10b5df232a",
      "to": "0x0750e6b0ebed961a1e2524fe59b87235434b4dd5",
      "contractAddress": null,
      "l1Fee": "0xa59e6",
      "l1FeeScalar": "0.01",
      "l1GasPrice": "0x8",
      "l1GasUsed": "0xb68",
      "tokenRatio": "0xb58"
    },
    {
      "status": "0x1",
      "cumulativeGasUsed": "0x94f1d16",
      "logs": [
        {
          "address": "0x0750e6b0ebed961a1e2524fe59b87235434b4dd5",
          "topics": [
            "0x354f0817e377e1e9b2601a5fa1180df29e96ac246a5d02f817a6e3bb4b72a904",
            "0x000000000000000000000000aee2a87701afef956473d547bd02cd736729d8a7",
            "0x0000000000000000000000001fe9a4e25caa2a22fc0b61010fdb0db462fb5b29"
          ],
          "data": "0x00000000000000000000000000000000000000000000000000000000000000010000000000000000000000000000000000000000000000000000000000000000",
          "blockHash": "0xf6ba4991b680ca203e30baf0406446f94b6923f394a12f25ce1e76a8b24263a2",
          "blockNumber": "0x1f78b16",
          "blockTimestamp": "0x695a990d",
          "transactionHash": "0x1db6c75ef03e76112bf3513508c1586677a9e9960af412dbcb4ad0b76611af9a",
          "transactionIndex": "0x1",
          "logIndex": "0x0",
          "removed": false
        }
      ],
      "logsBloom": "0x00000000000000000000000000000000000000000000000000008000000000000000000000000000800000000000000000000000000000000000000000000001000000000000000000000080000000000000000000000000000000000000000000000000000000000000000000000000400000000000000000000000000000000000000000000020000000000020000000000000000000000000000000000000000000000000000000000000000020000000000000000000000000000000000000000000000000002000000000000000010004000000000000000000000000000000000000000000000100000000000000000000000000000000000000000000",
      "type": "0x2",
      "transactionHash": "0x1db6c75ef03e76112bf3513508c1586677a9e9960af412dbcb4ad0b76611af9a",
      "transactionIndex": "0x1",
      "blockHash": "0xf6ba4991b680ca203e30baf0406446f94b6923f394a12f25ce1e76a8b24263a2",
      "blockNumber": "0x1f78b16",
      "gasUsed": "0x94e661d",
      "effectiveGasPrice": "0x1312d01",
      "from": "0x1234562eb0cd65e7d08e59f9f18d7c10b5df232a",
      "to": "0x0750e6b0ebed961a1e2524fe59b87235434b4dd5",
      "contractAddress": null,
      "l1Fee": "0xac32b",
      "l1FeeScalar": "0.01",
      "l1GasPrice": "0x8",
      "l1GasUsed": "0xbdc",
      "tokenRatio": "0xb58"
    },
    {
      "status": "0x1",
      "cumulativeGasUsed": "0x94f1d16",
      "logs": [
        {
          "address": "0x0750e6b0ebed961a1e2524fe59b87235434b4dd5",
          "topics": [
            "0x354f0817e377e1e9b2601a5fa1180df29e96ac246a5d02f817a6e3bb4b72a904",
            "0x0000000000000000000000006aabe7258f09474e62e8bebb1cf90e15fbaaf777",
            "0x0000000000000000000000005e1e8043381f3a21a1a64f46073daf7e74fedc1e"
          ],
          "data": "0x00000000000000000000000000000000000000000000000000000000000000010000000000000000000000000000000000000000000000000000000000000000",
          "blockHash": "0x438486510fdda9cd9bcf4a834cd4b36406b062058713eb440023a2f3c9f42660",
          "blockNumber": "0x1f78b18",
          "blockTimestamp": "0x695a9911",
          "transactionHash": "0x9408b32508474811d7621e6cae8a2b213a21af10ac78d1e4e483795dfb9f1e3a",
          "transactionIndex": "0x1",
          "logIndex": "0x0",
          "removed": false
        }
      ],
      "logsBloom": "0x00000000000000000000000000000000000000000000000000000000000000000000000000000000800000000000000000000000000000000000000000000000004000000000040000000000000000100000000000000000000000000000000000000000000000000000000000000000400000000000000000000000000000000000000020000000000000000020000000000000000000000000000000000000000000000000000000000000000020000000000000000000000000000000000000000020000000000000000000000000010004000000000000000000000000000000000000000000000000000000000001000000000000000000000000000000",
      "type": "0x2",
      "transactionHash": "0x9408b32508474811d7621e6cae8a2b213a21af10ac78d1e4e483795dfb9f1e3a",
      "transactionIndex": "0x1",
      "blockHash": "0x438486510fdda9cd9bcf4a834cd4b36406b062058713eb440023a2f3c9f42660",
      "blockNumber": "0x1f78b18",
      "gasUsed": "0x94e661d",
      "effectiveGasPrice": "0x1312d01",
      "from": "0x1234562eb0cd65e7d08e59f9f18d7c10b5df232a",
      "to": "0x0750e6b0ebed961a1e2524fe59b87235434b4dd5",
      "contractAddress": null,
      "l1Fee": "0xace0f",
      "l1FeeScalar": "0.01",
      "l1GasPrice": "0x8",
      "l1GasUsed": "0xbe8",
      "tokenRatio": "0xb58"
    },
    {
      "status": "0x1",
      "cumulativeGasUsed": "0x94f5fe2",
      "logs": [
        {
          "address": "0x0750e6b0ebed961a1e2524fe59b87235434b4dd5",
          "topics": [
            "0x354f0817e377e1e9b2601a5fa1180df29e96ac246a5d02f817a6e3bb4b72a904",
            "0x0000000000000000000000005c70fb2a739e9e7ad5c4311abf99e0fb65c07ee9",
            "0x00000000000000000000000006c1e044d5beb614faa6128001f519e6c693a044"
          ],
          "data": "0x00000000000000000000000000000000000000000000000000000000000000010000000000000000000000000000000000000000000000000000000000000000",
          "blockHash": "0x2d21c2fb44118923ce75b277e64ffc90009de4fea0a7d5a2f9557ba338dcf130",
          "blockNumber": "0x1f78b1a",
          "blockTimestamp": "0x695a9915",
          "transactionHash": "0xaf560a66917f131648fd1f7ed263c425ee38d6689ca3c035bbfea59b66a7bfc0",
          "transactionIndex": "0x1",
          "logIndex": "0x0",
          "removed": false
        }
      ],
      "logsBloom": "0x00000000000000010000000000000000000000800000000000000000000000000000000000000000800000000000000000000000000000000000000000000000000000000000000000000000000000000000000000000000000000000000000000000000000000000000000000000000400000000000000000000000000000000000000000000000000000000020080000000000000000000000000000000000000000000000000000000000000020000000000008000000000000000000000000000000000000000000000000000000010004000000000000000000000000000000000000000000000000000000000000000000040000000000000000000000",
      "type": "0x2",
      "transactionHash": "0xaf560a66917f131648fd1f7ed263c425ee38d6689ca3c035bbfea59b66a7bfc0",
      "transactionIndex": "0x1",
      "blockHash": "0x2d21c2fb44118923ce75b277e64ffc90009de4fea0a7d5a2f9557ba338dcf130",
      "blockNumber": "0x1f78b1a",
      "gasUsed": "0x94e661d",
      "effectiveGasPrice": "0x1312d01",
      "from": "0x1234562eb0cd65e7d08e59f9f18d7c10b5df232a",
      "to": "0x0750e6b0ebed961a1e2524fe59b87235434b4dd5",
      "contractAddress": null,
      "l1Fee": "0xace0f",
      "l1FeeScalar": "0.01",
      "l1GasPrice": "0x8",
      "l1GasUsed": "0xbe8",
      "tokenRatio": "0xb58"
    },
    {
      "status": "0x1",
      "cumulativeGasUsed": "0x197f696e",
      "logs": [
        {
          "address": "0x0750e6b0ebed961a1e2524fe59b87235434b4dd5",
          "topics": [
            "0x354f0817e377e1e9b2601a5fa1180df29e96ac246a5d02f817a6e3bb4b72a904",
            "0x000000000000000000000000bb6dd87f1fe0483d9ffa90f7a163caf21f40ba6c",
            "0x00000000000000000000000085b8dc34c7af35bac8a45cff53353f39e6f732a2"
          ],
          "data": "0x00000000000000000000000000000000000000000000000000000000000000010000000000000000000000000000000000000000000000000000000000000000",
          "blockHash": "0xc52b5cd35016ac41c1128d1087efae8db0a1d36475308c2c0e71be48efe867a3",
          "blockNumber": "0x1f78b1c",
          "blockTimestamp": "0x695a9919",
          "transactionHash": "0x346df5ac30f4f5320ad63c8a8db8d61af52cc13070c955a5c5a5a7a59c471a36",
          "transactionIndex": "0x2",
          "logIndex": "0x3",
          "removed": false
        }
      ],
      "logsBloom": "0x00000000000000000000000000000000000000000000000000000000000000000000000000000000800040000000000000000000000000000000000000000000000000000010000000000000000000000000000000000000000000000000000000040000000000000000000000000000400000000000000000000000000000000000000000000000008000000020000000040000000000000000000000000000000000000000000000000000000020000000000000000000000000000000000000000000000000000000000000000000010004000000000001000000000000000000000000000000000000000000000000000000000000000000000000000000",
      "type": "0x2",
      "transactionHash": "0x346df5ac30f4f5320ad63c8a8db8d61af52cc13070c955a5c5a5a7a59c471a36",
      "transactionIndex": "0x2",
      "blockHash": "0xc52b5cd35016ac41c1128d1087efae8db0a1d36475308c2c0e71be48efe867a3",
      "blockNumber": "0x1f78b1c",
      "gasUsed": "0x94e661d",
      "effectiveGasPrice": "0x1312d01",
      "from": "0x1234562eb0cd65e7d08e59f9f18d7c10b5df232a",
      "to": "0x0750e6b0ebed961a1e2524fe59b87235434b4dd5",
      "contractAddress": null,
      "l1Fee": "0xace0f",
      "l1FeeScalar": "0.01",
      "l1GasPrice": "0x8",
      "l1GasUsed": "0xbe8",
      "tokenRatio": "0xb58"
    },
    {
      "status": "0x1",
      "cumulativeGasUsed": "0x94f1d16",
      "logs": [
        {
          "address": "0x0750e6b0ebed961a1e2524fe59b87235434b4dd5",
          "topics": [
            "0x354f0817e377e1e9b2601a5fa1180df29e96ac246a5d02f817a6e3bb4b72a904",
            "0x000000000000000000000000ce74630446990acf6cd56facbbd6ee908ee55562",
            "0x0000000000000000000000007392e9e58f202da3877776c41683ac457dfd4cd7"
          ],
          "data": "0x00000000000000000000000000000000000000000000000000000000000000010000000000000000000000000000000000000000000000000000000000000000",
          "blockHash": "0xc5d25760a41f73e632f73976ef6d3455df6d4a75284527a56fae642f6b1e8d65",
          "blockNumber": "0x1f78b1e",
          "blockTimestamp": "0x695a991d",
          "transactionHash": "0xf7f9ba61e5d9d8dd7ff413b09ebeec19a7c10f74bc2171debfad74fa3fc52933",
          "transactionIndex": "0x1",
          "logIndex": "0x0",
          "removed": false
        }
      ],
      "logsBloom": "0x00000000000000000000000000000000000000000000000000000000000000000000000000000000800000000000000000000000000000000000000000000000000000000000000000000000000000000000000000000000000000000000000000000000000000000000000000000000400000000000000000000000000000000000008000000000000000000020000000000000000000000000000000000000000000000000000000000000000020000000000000000000000000000000000000000000001000000000000000000100010004000000000000000000000000000000000000200000000000000000000000000000000008000000004000000000",
      "type": "0x2",
      "transactionHash": "0xf7f9ba61e5d9d8dd7ff413b09ebeec19a7c10f74bc2171debfad74fa3fc52933",
      "transactionIndex": "0x1",
      "blockHash": "0xc5d25760a41f73e632f73976ef6d3455df6d4a75284527a56fae642f6b1e8d65",
      "blockNumber": "0x1f78b1e",
      "gasUsed": "0x94e661d",
      "effectiveGasPrice": "0x1312d01",
      "from": "0x1234562eb0cd65e7d08e59f9f18d7c10b5df232a",
      "to": "0x0750e6b0ebed961a1e2524fe59b87235434b4dd5",
      "contractAddress": null,
      "l1Fee": "0xab847",
      "l1FeeScalar": "0.01",
      "l1GasPrice": "0x8",
      "l1GasUsed": "0xbd0",
      "tokenRatio": "0xb58"
    },
    {
      "status": "0x1",
      "cumulativeGasUsed": "0x94f5fe2",
      "logs": [
        {
          "address": "0x0750e6b0ebed961a1e2524fe59b87235434b4dd5",
          "topics": [
            "0x354f0817e377e1e9b2601a5fa1180df29e96ac246a5d02f817a6e3bb4b72a904",
            "0x000000000000000000000000dcc41dee829c1246a936dc5e801cb24303445651",
            "0x0000000000000000000000001fe9a4e25caa2a22fc0b61010fdb0db462fb5b29"
          ],
          "data": "0x00000000000000000000000000000000000000000000000000000000000000010000000000000000000000000000000000000000000000000000000000000000",
          "blockHash": "0xc1657cd820bad2b95979401ad46cef62be5a4ff3f865cd334940e3653181b22d",
          "blockNumber": "0x1f78b20",
          "blockTimestamp": "0x695a9921",
          "transactionHash": "0xba142ce00dcc2488ffc53cdef78113fdc5b4b3fbbb6f9d039f304680b72df2d8",
          "transactionIndex": "0x1",
          "logIndex": "0x0",
          "removed": false
        }
      ],
      "logsBloom": "0x00000000000000000000000000000000000000000000000000008000000000000000000000000000800000000000000000000000000000000000004000000001000000000000000000000080000000000000000000000000000000000000000000000000000000000000000000000000400000000000000000000000000000000000000000000000000000000020000000000000000000000000000000000000000000000000000000000000000020000000000000000000000000000000000000000000000000000000000000000000010004000000000000000000000000000400040000000000000000000000000000000000000000000000000000000000",
      "type": "0x2",
      "transactionHash": "0xba142ce00dcc2488ffc53cdef78113fdc5b4b3fbbb6f9d039f304680b72df2d8",
      "transactionIndex": "0x1",
      "blockHash": "0xc1657cd820bad2b95979401ad46cef62be5a4ff3f865cd334940e3653181b22d",
      "blockNumber": "0x1f78b20",
      "gasUsed": "0x94e661d",
      "effectiveGasPrice": "0x1312d01",
      "from": "0x1234562eb0cd65e7d08e59f9f18d7c10b5df232a",
      "to": "0x0750e6b0ebed961a1e2524fe59b87235434b4dd5",
      "contractAddress": null,
      "l1Fee": "0xace0f",
      "l1FeeScalar": "0.01",
      "l1GasPrice": "0x8",
      "l1GasUsed": "0xbe8",
      "tokenRatio": "0xb58"
    },
    {
      "status": "0x1",
      "cumulativeGasUsed": "0x94f1d16",
      "logs": [
        {
          "address": "0x0750e6b0ebed961a1e2524fe59b87235434b4dd5",
          "topics": [
            "0x354f0817e377e1e9b2601a5fa1180df29e96ac246a5d02f817a6e3bb4b72a904",
            "0x0000000000000000000000008f5816ca88ed2775305b154625744e36943cc750",
            "0x0000000000000000000000005e1e8043381f3a21a1a64f46073daf7e74fedc1e"
          ],
          "data": "0x00000000000000000000000000000000000000000000000000000000000000010000000000000000000000000000000000000000000000000000000000000000",
          "blockHash": "0xfa73afd8f5782f9c360edcce75f7e95d07d5a1dd57ce14343b0357cd01eb3afb",
          "blockNumber": "0x1f78b22",
          "blockTimestamp": "0x695a9925",
          "transactionHash": "0x01f2f663858d5ab13e1d7a7af39ec1628cee0fc6257890eb4f3ae4e7ff965ab3",
          "transactionIndex": "0x1",
          "logIndex": "0x0",
          "removed": false
        }
      ],
      "logsBloom": "0x00000000000000000000000000000000000000001000000000000000000000000000000000000000800000000000000000000000000000000000000000000000000000000000040000000000000000000000000000000040000000000000000000000000000000000000000000000000400000000000000000000000000000000000000000000000000000000020000000000000000000000000000000000000000000000000000000000000000020000000080000000000000000000000000000000020000000000000000000000000010004000000000000000000000000000000000000000000000000000000000001000000000000000000000000000000",
      "type": "0x2",
      "transactionHash": "0x01f2f663858d5ab13e1d7a7af39ec1628cee0fc6257890eb4f3ae4e7ff965ab3",
      "transactionIndex": "0x1",
      "blockHash": "0xfa73afd8f5782f9c360edcce75f7e95d07d5a1dd57ce14343b0357cd01eb3afb",
      "blockNumber": "0x1f78b22",
      "gasUsed": "0x94e661d",
      "effectiveGasPrice": "0x1312d01",
      "from": "0x1234562eb0cd65e7d08e59f9f18d7c10b5df232a",
      "to": "0x0750e6b0ebed961a1e2524fe59b87235434b4dd5",
      "contractAddress": null,
      "l1Fee": "0xace0f",
      "l1FeeScalar": "0.01",
      "l1GasPrice": "0x8",
      "l1GasUsed": "0xbe8",
      "tokenRatio": "0xb58"
    },
    {
      "status": "0x1",
      "cumulativeGasUsed": "0x94f1d16",
      "logs": [
        {
          "address": "0x0750e6b0ebed961a1e2524fe59b87235434b4dd5",
          "topics": [
            "0x354f0817e377e1e9b2601a5fa1180df29e96ac246a5d02f817a6e3bb4b72a904",
            "0x0000000000000000000000002bb55f68fb05de13b04e5a2cadbae5a05bce277b",
            "0x00000000000000000000000006c1e044d5beb614faa6128001f519e6c693a044"
          ],
          "data": "0x00000000000000000000000000000000000000000000000000000000000000010000000000000000000000000000000000000000000000000000000000000000",
          "blockHash": "0x70e8583ba06fa6354eb0884bb6ce268e729f0a14659767dbdb17c5033c749ae6",
          "blockNumber": "0x1f78b24",
          "blockTimestamp": "0x695a9929",
          "transactionHash": "0x39f7edf97d6ae6f05b72cada663c40ee6987f4df09f3e2b121555bb2ac70ea48",
          "transactionIndex": "0x1",
          "logIndex": "0x0",
          "removed": false
        }
      ],
      "logsBloom": "0x00000000000000010000000000000004000000800000000000000000000000000000000000000000800000000000000000000000000000000000000000000000000000000000000000000000000000000000000000000000000000000000000000000000000000000000000000000000400000000001000000000000000000000000000000000000000000000020000000000000000000000000000000000000000000000000000000000000000020000000000000000000000000000000000000000000000000000000000000000000010004000000000000002000000000000000000000000000000000000000000000000000040000000000000000000000",
      "type": "0x2",
      "transactionHash": "0x39f7edf97d6ae6f05b72cada663c40ee6987f4df09f3e2b121555bb2ac70ea48",
      "transactionIndex": "0x1",
      "blockHash": "0x70e8583ba06fa6354eb0884bb6ce268e729f0a14659767dbdb17c5033c749ae6",
      "blockNumber": "0x1f78b24",
      "gasUsed": "0x94e661d",
      "effectiveGasPrice": "0x1312d01",
      "from": "0x1234562eb0cd65e7d08e59f9f18d7c10b5df232a",
      "to": "0x0750e6b0ebed961a1e2524fe59b87235434b4dd5",
      "contractAddress": null,
      "l1Fee": "0xace0f",
      "l1FeeScalar": "0.01",
      "l1GasPrice": "0x8",
      "l1GasUsed": "0xbe8",
      "tokenRatio": "0xb58"
    },
    {
      "status": "0x1",
      "cumulativeGasUsed": "0x94f5fd6",
      "logs": [
        {
          "address": "0x0750e6b0ebed961a1e2524fe59b87235434b4dd5",
          "topics": [
            "0x354f0817e377e1e9b2601a5fa1180df29e96ac246a5d02f817a6e3bb4b72a904",
            "0x000000000000000000000000a022fd1966577144fcb5ed8ad5a134861ae5e138",
            "0x00000000000000000000000085b8dc34c7af35bac8a45cff53353f39e6f732a2"
          ],
          "data": "0x00000000000000000000000000000000000000000000000000000000000000010000000000000000000000000000000000000000000000000000000000000000",
          "blockHash": "0x88e775c8c491e171cc175947e31767d8c11495e951dbd450d1e1b559680163b1",
          "blockNumber": "0x1f78b26",
          "blockTimestamp": "0x695a992d",
          "transactionHash": "0xebce7b9cc1f61cefc1364ca38dbb795a2abc99bc04505d77004120e94b2af77a",
          "transactionIndex": "0x1",
          "logIndex": "0x0",
          "removed": false
        }
      ],
      "logsBloom": "0x00000000000000000000000000000000000000000000000000000000000000000000000000000000800000000000000000000000000000000000000000000000000000000000000000000000000000000000000000000000000000010000000000040000000000000000000000000000400000000000000000000000000000000000000000000000000000000020000080040000000000000000000000000000000000000000000000000000000020000000000000000000000000000000000000000000000000000000000000000008010004000000000001000000000000000000000000000000000000000000000000000000000000000000000000000000",
      "type": "0x2",
      "transactionHash": "0xebce7b9cc1f61cefc1364ca38dbb795a2abc99bc04505d77004120e94b2af77a",
      "transactionIndex": "0x1",
      "blockHash": "0x88e775c8c491e171cc175947e31767d8c11495e951dbd450d1e1b559680163b1",
      "blockNumber": "0x1f78b26",
      "gasUsed": "0x94e661d",
      "effectiveGasPrice": "0x1312d01",
      "from": "0x1234562eb0cd65e7d08e59f9f18d7c10b5df232a",
      "to": "0x0750e6b0ebed961a1e2524fe59b87235434b4dd5",
      "contractAddress": null,
      "l1Fee": "0xace0f",
      "l1FeeScalar": "0.01",
      "l1GasPrice": "0x8",
      "l1GasUsed": "0xbe8",
      "tokenRatio": "0xb58"
    },
    {
      "status": "0x1",
      "cumulativeGasUsed": "0x94f1d0a",
      "logs": [
        {
          "address": "0x0750e6b0ebed961a1e2524fe59b87235434b4dd5",
          "topics": [
            "0x354f0817e377e1e9b2601a5fa1180df29e96ac246a5d02f817a6e3bb4b72a904",
            "0x000000000000000000000000ec4c46f46191d77c3d8ba3ddfafe71b58e2089af",
            "0x0000000000000000000000007392e9e58f202da3877776c41683ac457dfd4cd7"
          ],
          "data": "0x00000000000000000000000000000000000000000000000000000000000000010000000000000000000000000000000000000000000000000000000000000000",
          "blockHash": "0xc09ee6ba2cb9a6537cb21353362cb1e5e6270dce5dd1386e6312a9e9a175e01f",
          "blockNumber": "0x1f78b28",
          "blockTimestamp": "0x695a9931",
          "transactionHash": "0x2aac1e22bfb52eff2652fe4419408d6f6bef7117f62fe13305dd27586526dba7",
          "transactionIndex": "0x1",
          "logIndex": "0x0",
          "removed": false
        }
      ],
      "logsBloom": "0x00000000000020000000000000000000000000000000000000000001000000000000000000000000800000000000000000000000000000000000000000000000000000000000000000000000000000000000000000000000000000000000000000000000000000000000000000000000400000000000000000000000000000000000000000000000000000000020000000000000000000000000000000000000000000000000000000000000000020000000000000000000000000000000000000000400001000000000000000000100010004000000000000000000000000000000000000000000000000000000000000000000000000000000004000000000",
      "type": "0x2",
      "transactionHash": "0x2aac1e22bfb52eff2652fe4419408d6f6bef7117f62fe13305dd27586526dba7",
      "transactionIndex": "0x1",
      "blockHash": "0xc09ee6ba2cb9a6537cb21353362cb1e5e6270dce5dd1386e6312a9e9a175e01f",
      "blockNumber": "0x1f78b28",
      "gasUsed": "0x94e661d",
      "effectiveGasPrice": "0x1312d01",
      "from": "0x1234562eb0cd65e7d08e59f9f18d7c10b5df232a",
      "to": "0x0750e6b0ebed961a1e2524fe59b87235434b4dd5",
      "contractAddress": null,
      "l1Fee": "0xac32b",
      "l1FeeScalar": "0.01",
      "l1GasPrice": "0x8",
      "l1GasUsed": "0xbdc",
      "tokenRatio": "0xb58"
    },
    {
      "status": "0x1",
      "cumulativeGasUsed": "0x94f1d0a",
      "logs": [
        {
          "address": "0x0750e6b0ebed961a1e2524fe59b87235434b4dd5",
          "topics": [
            "0x354f0817e377e1e9b2601a5fa1180df29e96ac246a5d02f817a6e3bb4b72a904",
            "0x000000000000000000000000e47eba0dbf716d99482fb071ca04adf4fccd6b1f",
            "0x0000000000000000000000001fe9a4e25caa2a22fc0b61010fdb0db462fb5b29"
          ],
          "data": "0x00000000000000000000000000000000000000000000000000000000000000010000000000000000000000000000000000000000000000000000000000000000",
          "blockHash": "0x514c9a4a60cf2e3b2fcf64f2e988775fcd48c402a7db86ed7ec04647c81790f0",
          "blockNumber": "0x1f78b2a",
          "blockTimestamp": "0x695a9935",
          "transactionHash": "0xb0f783ada41f444db350c0793108f465bd6d88ddaca5ae678cc5a5bb41dda147",
          "transactionIndex": "0x1",
          "logIndex": "0x0",
          "removed": false
        }
      ],
      "logsBloom": "0x00000000000000000000000000000000000000000000000000008000000000000000000000000000800000004002000000000000000000000000000000000001000000000000000000000080800000000000000000000000000000000000000000000000000000000000000000000000400000000000000000000000000000000000000000000000000000000020000000000000000000000000000000000000000000000000000000000000000020000000000000000000000000000000000000000000000000000000000000000000010004000000000000000000000000000000000000000000000000000000000000000000000000000000000000000000",
      "type": "0x2",
      "transactionHash": "0xb0f783ada41f444db350c0793108f465bd6d88ddaca5ae678cc5a5bb41dda147",
      "transactionIndex": "0x1",
      "blockHash": "0x514c9a4a60cf2e3b2fcf64f2e988775fcd48c402a7db86ed7ec04647c81790f0",
      "blockNumber": "0x1f78b2a",
      "gasUsed": "0x94e661d",
      "effectiveGasPrice": "0x1312d01",
      "from": "0x1234562eb0cd65e7d08e59f9f18d7c10b5df232a",
      "to": "0x0750e6b0ebed961a1e2524fe59b87235434b4dd5",
      "contractAddress": null,
      "l1Fee": "0xace0f",
      "l1FeeScalar": "0.01",
      "l1GasPrice": "0x8",
      "l1GasUsed": "0xbe8",
      "tokenRatio": "0xb58"
    },
    {
      "status": "0x1",
      "cumulativeGasUsed": "0x94f5fe2",
      "logs": [
        {
          "address": "0x0750e6b0ebed961a1e2524fe59b87235434b4dd5",
          "topics": [
            "0x354f0817e377e1e9b2601a5fa1180df29e96ac246a5d02f817a6e3bb4b72a904",
            "0x0000000000000000000000004e3a466bba553ace4cd3a6149d574f3f034b5269",
            "0x0000000000000000000000005e1e8043381f3a21a1a64f46073daf7e74fedc1e"
          ],
          "data": "0x00000000000000000000000000000000000000000000000000000000000000010000000000000000000000000000000000000000000000000000000000000000",
          "blockHash": "0x7aaec916fbb7c04e8742a0613a6c8cf783bed6b39f20aec55ce1bcfbd84c0bea",
          "blockNumber": "0x1f78b2c",
          "blockTimestamp": "0x695a9939",
          "transactionHash": "0x65ebd5c6abe653ad6d4231f0f6355f4168ba9f3c989215b8a4fbe160bb701c3e",
          "transactionIndex": "0x1",
          "logIndex": "0x0",
          "removed": false
        }
      ],
      "logsBloom": "0x00000000000000000000000000000000000000000000000000000000000000000000000000000000800000000000000000000000000000000000000000000000000000000000040000000000000000000000000000000000000000000010000000200000000000000000000000000000400000000000000000000000000000000000000000000000000000000020000000000000000000000000000000000000000000000000000000000000000020000000000001000000000000000000000000000020000000000000000000000000010004000000000000000000000000000000000000000000000000000000000001000000000000000000000000000000",
      "type": "0x2",
      "transactionHash": "0x65ebd5c6abe653ad6d4231f0f6355f4168ba9f3c989215b8a4fbe160bb701c3e",
      "transactionIndex": "0x1",
      "blockHash": "0x7aaec916fbb7c04e8742a0613a6c8cf783bed6b39f20aec55ce1bcfbd84c0bea",
      "blockNumber": "0x1f78b2c",
      "gasUsed": "0x94e661d",
      "effectiveGasPrice": "0x1312d01",
      "from": "0x1234562eb0cd65e7d08e59f9f18d7c10b5df232a",
      "to": "0x0750e6b0ebed961a1e2524fe59b87235434b4dd5",
      "contractAddress": null,
      "l1Fee": "0xace0f",
      "l1FeeScalar": "0.01",
      "l1GasPrice": "0x8",
      "l1GasUsed": "0xbe8",
      "tokenRatio": "0xb58"
    },
    {
      "status": "0x1",
      "cumulativeGasUsed": "0x94f1d16",
      "logs": [
        {
          "address": "0x0750e6b0ebed961a1e2524fe59b87235434b4dd5",
          "topics": [
            "0x354f0817e377e1e9b2601a5fa1180df29e96ac246a5d02f817a6e3bb4b72a904",
            "0x000000000000000000000000751a0e0147d10b8c21804ac88dcfa6837312ea35",
            "0x00000000000000000000000006c1e044d5beb614faa6128001f519e6c693a044"
          ],
          "data": "0x00000000000000000000000000000000000000000000000000000000000000010000000000000000000000000000000000000000000000000000000000000000",
          "blockHash": "0xc918adf50bf67293e7e0aee0fb5b63d6e460be945229fb323bf97816afe0e309",
          "blockNumber": "0x1f78b2e",
          "blockTimestamp": "0x695a993d",
          "transactionHash": "0xe183b96880cd011813ae68d6a527c2e4ededbdd3908cbda8130952a531fe3093",
          "transactionIndex": "0x1",
          "logIndex": "0x0",
          "removed": false
        }
      ],
      "logsBloom": "0x00000000000000010000000000000000000000800000000000000000000000000000040000000000800000000000000000000000000000000000000000000000000000000000000000000000000000000000000000000000000000000000000000001000000000000000000000000000400000000400000000000000000000000000000000000000000000000020000000000000000000000000000000000000000000000000000000000000000020000000000000000000000000000000000000000000000000000000000000000000010004000000000000000000000000000000000000000000000000000000000000000000040000000000000000000000",
      "type": "0x2",
      "transactionHash": "0xe183b96880cd011813ae68d6a527c2e4ededbdd3908cbda8130952a531fe3093",
      "transactionIndex": "0x1",
      "blockHash": "0xc918adf50bf67293e7e0aee0fb5b63d6e460be945229fb323bf97816afe0e309",
      "blockNumber": "0x1f78b2e",
      "gasUsed": "0x94e661d",
      "effectiveGasPrice": "0x1312d01",
      "from": "0x1234562eb0cd65e7d08e59f9f18d7c10b5df232a",
      "to": "0x0750e6b0ebed961a1e2524fe59b87235434b4dd5",
      "contractAddress": null,
      "l1Fee": "0xace0f",
      "l1FeeScalar": "0.01",
      "l1GasPrice": "0x8",
      "l1GasUsed": "0xbe8",
      "tokenRatio": "0xb58"
    },
    {
      "status": "0x1",
      "cumulativeGasUsed": "0x94f1d16",
      "logs": [
        {
          "address": "0x0750e6b0ebed961a1e2524fe59b87235434b4dd5",
          "topics": [
            "0x354f0817e377e1e9b2601a5fa1180df29e96ac246a5d02f817a6e3bb4b72a904",
            "0x000000000000000000000000d8d362badb84cc1f97a00273ddc8845fd4148c80",
            "0x00000000000000000000000085b8dc34c7af35bac8a45cff53353f39e6f732a2"
          ],
          "data": "0x00000000000000000000000000000000000000000000000000000000000000010000000000000000000000000000000000000000000000000000000000000000",
          "blockHash": "0x705f573f8596112e92060b4eaadc53af23b2181272a487fd251da0bab2d82027",
          "blockNumber": "0x1f78b30",
          "blockTimestamp": "0x695a9941",
          "transactionHash": "0xf25a5e8c6798b47a6334ab28af02fd3c967fd404147ee2c3b1dd9fc56ed31e57",
          "transactionIndex": "0x1",
          "logIndex": "0x0",
          "removed": false
        }
      ],
      "logsBloom": "0x00000000000000000000000000000000000000000000000000000000000000000000000000000000800000000000000000000000000000000000000000000000000002000000000000000000000000000000000000000000000000000000000000040000000000000400000000000000400000000000000000000000000000000000000000000000000000000020000000040000000000000000000000000000000000000000000000000000000020000000000000000000000000000000000000000000000000000000000000000000010004000000000001000000000000000000000000200000000000000000000000000000000000000000000000000000",
      "type": "0x2",
      "transactionHash": "0xf25a5e8c6798b47a6334ab28af02fd3c967fd404147ee2c3b1dd9fc56ed31e57",
      "transactionIndex": "0x1",
      "blockHash": "0x705f573f8596112e92060b4eaadc53af23b2181272a487fd251da0bab2d82027",
      "blockNumber": "0x1f78b30",
      "gasUsed": "0x94e661d",
      "effectiveGasPrice": "0x1312d01",
      "from": "0x1234562eb0cd65e7d08e59f9f18d7c10b5df232a",
      "to": "0x0750e6b0ebed961a1e2524fe59b87235434b4dd5",
      "contractAddress": null,
      "l1Fee": "0xace0f",
      "l1FeeScalar": "0.01",
      "l1GasPrice": "0x8",
      "l1GasUsed": "0xbe8",
      "tokenRatio": "0xb58"
    },
    {
      "status": "0x1",
      "cumulativeGasUsed": "0x94f5fe2",
      "logs": [
        {
          "address": "0x0750e6b0ebed961a1e2524fe59b87235434b4dd5",
          "topics": [
            "0x354f0817e377e1e9b2601a5fa1180df29e96ac246a5d02f817a6e3bb4b72a904",
            "0x0000000000000000000000001061473a78f6eb0a0bcbde060a5eea9d4273bb59",
            "0x0000000000000000000000007392e9e58f202da3877776c41683ac457dfd4cd7"
          ],
          "data": "0x00000000000000000000000000000000000000000000000000000000000000010000000000000000000000000000000000000000000000000000000000000000",
          "blockHash": "0x1a67468a2b4a1bbda3782f9ffb0ea3272f8e64db105885b8bc4d441de4f93152",
          "blockNumber": "0x1f78b32",
          "blockTimestamp": "0x695a9945",
          "transactionHash": "0x4a1fc461adf5badf367c718c2b15531fc828543bea4a3964703544f48e0930c1",
          "transactionIndex": "0x1",
          "logIndex": "0x0",
          "removed": false
        }
      ],
      "logsBloom": "0x00000000000000000000000000000000000000000000000000000000000000000000000000000000800000000000000000000000000000000000000000000000000000000000000000000000000000000002000000000000000000000000000000000000000000000000000000000000400000000000000000000000000000000000000000000000000000000020000000000000000000000000000000000080000000000000000000000000000020000000000000000000000000000000000000000000001000000000000000000100010004000000000000000100000000000000000000000000000000000000000000000000000000000000004000000000",
      "type": "0x2",
      "transactionHash": "0x4a1fc461adf5badf367c718c2b15531fc828543bea4a3964703544f48e0930c1",
      "transactionIndex": "0x1",
      "blockHash": "0x1a67468a2b4a1bbda3782f9ffb0ea3272f8e64db105885b8bc4d441de4f93152",
      "blockNumber": "0x1f78b32",
      "gasUsed": "0x94e661d",
      "effectiveGasPrice": "0x1312d01",
      "from": "0x1234562eb0cd65e7d08e59f9f18d7c10b5df232a",
      "to": "0x0750e6b0ebed961a1e2524fe59b87235434b4dd5",
      "contractAddress": null,
      "l1Fee": "0xace0f",
      "l1FeeScalar": "0.01",
      "l1GasPrice": "0x8",
      "l1GasUsed": "0xbe8",
      "tokenRatio": "0xb58"
    },
    {
      "status": "0x1",
      "cumulativeGasUsed": "0x94f1d16",
      "logs": [
        {
          "address": "0x0750e6b0ebed961a1e2524fe59b87235434b4dd5",
          "topics": [
            "0x354f0817e377e1e9b2601a5fa1180df29e96ac246a5d02f817a6e3bb4b72a904",
            "0x000000000000000000000000824fb936d24b2baaf92fe87fd65ff22d01439ece",
            "0x0000000000000000000000001fe9a4e25caa2a22fc0b61010fdb0db462fb5b29"
          ],
          "data": "0x00000000000000000000000000000000000000000000000000000000000000010000000000000000000000000000000000000000000000000000000000000000",
          "blockHash": "0x6e3b6c4cb5873f7730b5f8df05b565c465b2be7e09a475776fb12d728a9dc4ff",
          "blockNumber": "0x1f78b34",
          "blockTimestamp": "0x695a9949",
          "transactionHash": "0x32f2ce5b95ed8c8f3d1a1dcd22346503f08d63833a4f2d5b0f23ef4c34a62b38",
          "transactionIndex": "0x1",
          "logIndex": "0x0",
          "removed": false
        }
      ],
      "logsBloom": "0x00000000000000000000000000000000000000000000000000008000000000000000000000000000800000000000000000000000000000000000000000000001000000000000000000000080000000000000000000000000002000000000000000000000000000000000000000000000400000000000000000000000000000000000000000000000000000008020000000000000000000000000000000000000000000000000000000000000000020000000000000000000000000080000000000000000000000000000000000000000010004000000000000000000000000000000000000000000000000000000000000000000000000000000000000000000",
      "type": "0x2",
      "transactionHash": "0x32f2ce5b95ed8c8f3d1a1dcd22346503f08d63833a4f2d5b0f23ef4c34a62b38",
      "transactionIndex": "0x1",
      "blockHash": "0x6e3b6c4cb5873f7730b5f8df05b565c465b2be7e09a475776fb12d728a9dc4ff",
      "blockNumber": "0x1f78b34",
      "gasUsed": "0x94e661d",
      "effectiveGasPrice": "0x1312d01",
      "from": "0x1234562eb0cd65e7d08e59f9f18d7c10b5df232a",
      "to": "0x0750e6b0ebed961a1e2524fe59b87235434b4dd5",
      "contractAddress": null,
      "l1Fee": "0xac32b",
      "l1FeeScalar": "0.01",
      "l1GasPrice": "0x8",
      "l1GasUsed": "0xbdc",
      "tokenRatio": "0xb58"
    },
    {
      "status": "0x1",
      "cumulativeGasUsed": "0x94f1d16",
      "logs": [
        {
          "address": "0x0750e6b0ebed961a1e2524fe59b87235434b4dd5",
          "topics": [
            "0x354f0817e377e1e9b2601a5fa1180df29e96ac246a5d02f817a6e3bb4b72a904",
            "0x000000000000000000000000012bd7cd0acc8cb696306b1ab7a537e85ef2056f",
            "0x0000000000000000000000005e1e8043381f3a21a1a64f46073daf7e74fedc1e"
          ],
          "data": "0x00000000000000000000000000000000000000000000000000000000000000010000000000000000000000000000000000000000000000000000000000000000",
          "blockHash": "0x7615a13906428ccee52c489009d5ad4ab2ecee94de07576ef7115163831e16d6",
          "blockNumber": "0x1f78b36",
          "blockTimestamp": "0x695a994d",
          "transactionHash": "0xf4af10ded47ceb9b82e8e4649162a97ab15b0b165549c116b27b4c7a67b70c3e",
          "transactionIndex": "0x1",
          "logIndex": "0x0",
          "removed": false
        }
      ],
      "logsBloom": "0x00000000000000000000000000000000000000000000000000000000000000000000000000000000800000000000000000000000000000000000000100000000000000000000040000000000000000000000000000000000000000000000000000000000000000000000000000000004400000000000000000000000000000000000000000000000000000000020000000000000000000000000000000000000000000000000000000000000000020000000000000000000000000000000000000000020000000000000000000000000010004000000000000000000000000000004000000000000000000000000000001000000000000000000000000000000",
      "type": "0x2",
      "transactionHash": "0xf4af10ded47ceb9b82e8e4649162a97ab15b0b165549c116b27b4c7a67b70c3e",
      "transactionIndex": "0x1",
      "blockHash": "0x7615a13906428ccee52c489009d5ad4ab2ecee94de07576ef7115163831e16d6",
      "blockNumber": "0x1f78b36",
      "gasUsed": "0x94e661d",
      "effectiveGasPrice": "0x1312d01",
      "from": "0x1234562eb0cd65e7d08e59f9f18d7c10b5df232a",
      "to": "0x0750e6b0ebed961a1e2524fe59b87235434b4dd5",
      "contractAddress": null,
      "l1Fee": "0xac32b",
      "l1FeeScalar": "0.01",
      "l1GasPrice": "0x8",
      "l1GasUsed": "0xbdc",
      "tokenRatio": "0xb58"
    },
    {
      "status": "0x1",
      "cumulativeGasUsed": "0x94f5fe2",
      "logs": [
        {
          "address": "0x0750e6b0ebed961a1e2524fe59b87235434b4dd5",
          "topics": [
            "0x354f0817e377e1e9b2601a5fa1180df29e96ac246a5d02f817a6e3bb4b72a904",
            "0x0000000000000000000000004d8346f2f33ffbc7fa2e46becf83c978943e69c8",
            "0x00000000000000000000000006c1e044d5beb614faa6128001f519e6c693a044"
          ],
          "data": "0x00000000000000000000000000000000000000000000000000000000000000010000000000000000000000000000000000000000000000000000000000000000",
          "blockHash": "0x51383e235528d67009936bb717d9a779cd5d7cdfcd622457632bb15d8ed854e3",
          "blockNumber": "0x1f78b38",
          "blockTimestamp": "0x695a9951",
          "transactionHash": "0xffdd0728725a265f094dbf03acca70a155358501818fb3d4458e800bfc878c19",
          "transactionIndex": "0x1",
          "logIndex": "0x0",
          "removed": false
        }
      ],
      "logsBloom": "0x00000000000000010000000000000000000000800000000000000000000000000000000000000000800000000000000000000000000000000000000000000000000000000000000000000000000000000000000000000000000000000000000004000000000000000000000000000000400000000000000000000000000000000000000000000000000000000020000000000000000000000000000010000000000000000000000000000000000020000000000000000000000000000000000000000000000000001000000000000000010004000000000000000000000000000000000000000000000000000000000000000000040000000000000000000000",
      "type": "0x2",
      "transactionHash": "0xffdd0728725a265f094dbf03acca70a155358501818fb3d4458e800bfc878c19",
      "transactionIndex": "0x1",
      "blockHash": "0x51383e235528d67009936bb717d9a779cd5d7cdfcd622457632bb15d8ed854e3",
      "blockNumber": "0x1f78b38",
      "gasUsed": "0x94e661d",
      "effectiveGasPrice": "0x1312d01",
      "from": "0x1234562eb0cd65e7d08e59f9f18d7c10b5df232a",
      "to": "0x0750e6b0ebed961a1e2524fe59b87235434b4dd5",
      "contractAddress": null,
      "l1Fee": "0xace0f",
      "l1FeeScalar": "0.01",
      "l1GasPrice": "0x8",
      "l1GasUsed": "0xbe8",
      "tokenRatio": "0xb58"
    },
    {
      "status": "0x1",
      "cumulativeGasUsed": "0x94f1d16",
      "logs": [
        {
          "address": "0x0750e6b0ebed961a1e2524fe59b87235434b4dd5",
          "topics": [
            "0x354f0817e377e1e9b2601a5fa1180df29e96ac246a5d02f817a6e3bb4b72a904",
            "0x0000000000000000000000002db087d43fc8402ade0706807d32d6ef72411ebd",
            "0x00000000000000000000000085b8dc34c7af35bac8a45cff53353f39e6f732a2"
          ],
          "data": "0x00000000000000000000000000000000000000000000000000000000000000010000000000000000000000000000000000000000000000000000000000000000",
          "blockHash": "0x0dbd26a6e2c8515cb4244fcdcdb91490a4a5395a68fca23387be41788879f9b8",
          "blockNumber": "0x1f78b3a",
          "blockTimestamp": "0x695a9955",
          "transactionHash": "0xfc6f88b27b2d6caadd5e3f842e025c8abf2d8ca5b639b7a26844cac2886e5a23",
          "transactionIndex": "0x1",
          "logIndex": "0x0",
          "removed": false
        }
      ],
      "logsBloom": "0x00000000000000000000000000000000000000000000000000000000000000000000000000000000800000000000000000000000000000000000000000000000000000000000000000000000000000000100000000000000000000000000000000040000000000000000000000000000400000000000000000000000000000000000000000000000000000000020000000040000040000000000000000000000000000000000000000000000000020000000000000000000000000000000000000000000000000000000000000002000010004000000000001000000000000000000000000000000000000000000000000000000000000000000000000000000",
      "type": "0x2",
      "transactionHash": "0xfc6f88b27b2d6caadd5e3f842e025c8abf2d8ca5b639b7a26844cac2886e5a23",
      "transactionIndex": "0x1",
      "blockHash": "0x0dbd26a6e2c8515cb4244fcdcdb91490a4a5395a68fca23387be41788879f9b8",
      "blockNumber": "0x1f78b3a",
      "gasUsed": "0x94e661d",
      "effectiveGasPrice": "0x1312d01",
      "from": "0x1234562eb0cd65e7d08e59f9f18d7c10b5df232a",
      "to": "0x0750e6b0ebed961a1e2524fe59b87235434b4dd5",
      "contractAddress": null,
      "l1Fee": "0xace0f",
      "l1FeeScalar": "0.01",
      "l1GasPrice": "0x8",
      "l1GasUsed": "0xbe8",
      "tokenRatio": "0xb58"
    },
    {
      "status": "0x1",
      "cumulativeGasUsed": "0x94f1d16",
      "logs": [
        {
          "address": "0x0750e6b0ebed961a1e2524fe59b87235434b4dd5",
          "topics": [
            "0x354f0817e377e1e9b2601a5fa1180df29e96ac246a5d02f817a6e3bb4b72a904",
            "0x000000000000000000000000d14bd87b18da3ec84a9e098df1c808d9cb7a9852",
            "0x0000000000000000000000007392e9e58f202da3877776c41683ac457dfd4cd7"
          ],
          "data": "0x00000000000000000000000000000000000000000000000000000000000000010000000000000000000000000000000000000000000000000000000000000000",
          "blockHash": "0xbb9bc23d744982d7316f97a16ccdbbca5cefcf9dfc64b6ad07c250784dac5521",
          "blockNumber": "0x1f78b3c",
          "blockTimestamp": "0x695a9959",
          "transactionHash": "0xc289678c3ee7421f6a5b67ccd668b191372fbc49b721958a297f5acaf9819113",
          "transactionIndex": "0x1",
          "logIndex": "0x0",
          "removed": false
        }
      ],
      "logsBloom": "0x00000000000000000000000000000000000000000000000000000000000000000000000000000000800000000000000000000000000000000000000000000000000000000000000000000000000000000000000000000000000000000000000000000000000000000000000000000000400000000000000000000000000000000000000000000000000000000020000000000000000000000000000000000000000000000000000000000000000020002000000000000000000000000000000000000000001000000000000000000100010004000000000000000000000000000000000004000000000000800000000000000000000000000000004000000000",
      "type": "0x2",
      "transactionHash": "0xc289678c3ee7421f6a5b67ccd668b191372fbc49b721958a297f5acaf9819113",
      "transactionIndex": "0x1",
      "blockHash": "0xbb9bc23d744982d7316f97a16ccdbbca5cefcf9dfc64b6ad07c250784dac5521",
      "blockNumber": "0x1f78b3c",
      "gasUsed": "0x94e661d",
      "effectiveGasPrice": "0x1312d01",
      "from": "0x1234562eb0cd65e7d08e59f9f18d7c10b5df232a",
      "to": "0x0750e6b0ebed961a1e2524fe59b87235434b4dd5",
      "contractAddress": null,
      "l1Fee": "0xace0f",
      "l1FeeScalar": "0.01",
      "l1GasPrice": "0x8",
      "l1GasUsed": "0xbe8",
      "tokenRatio": "0xb58"
    }
  ],
  "libraries": [],
  "pending": [],
  "returns": {},
  "timestamp": 1767545197551,
  "chain": 5003,
  "commit": "cd2a7c9"
}