{
  "transactions": [
    {
      "hash": "0x0d48103ebcb0d8702320be44f4749a13cc4f53cf1376c43163405bee26c25d0b",
      "transactionType": "CREATE2",
      "contractName": "KubiStreamerDonation",
      "contractAddress": "0xae8ca6c5d6b40bb85ad3e1d5daf19038570aef31",
      "function": null,
      "arguments": [
        "0x2bF7E65df939482869b96A6BEb88d3e5bF58Fb81",
        "0x1234b50310fF79958509d1a9C8a92458ED1496D1",
        "250",
        "0x123454Ce54DEBE2cEbCe95740E9e0f65DFf9DBE2",
        "5003",
        "0x1234562eb0cD65E7D08E59f9f18d7c10B5DF232A"
      ],
      "transaction": {
        "from": "0x1234562eb0cd65e7d08e59f9f18d7c10b5df232a",
        "to": "0x4e59b44847b379578588920ca78fbf26c0b4956c",
        "gas": "0x32a4add79",
        "value": "0x0",
        "input": "0xc13a2a051c9b0e61081babd2583771331418c956319f89b00939e8a9fceebea261010080604052346102585760c0816132ae80380380916100208285610333565b833981010312610258576100338161036a565b906100406020820161036a565b60408201519061ffff8216928383036102585761005f6060820161036a565b60808201519163ffffffff831683036102585760a061007e910161036a565b9460018060a01b03195f5416963388175f5560405190335f5f51602061328e5f395f51905f528180a3600180556001600160a01b03169182158015610322575b8015610311575b8015610300575b6102f1576103e8106102e257608082905263c45a015560e01b8152602081600481855afa908115610296575f916102a1575b506001600160a01b031660a0526040516312a9293f60e21b815290602090829060049082905afa908115610296575f9161025c575b5060c052600280546003805461ffff60a01b191660a09790971b61ffff60a01b1696909617909555600480546001600160a01b0319166001600160a01b0393841617905560e0929092526001600160b01b0319909316918316919091179055168015610258576040519181335f51602061328e5f395f51905f525f80a3336001600160a01b03191617175f55612f0f908161037f823960805181818161020c015281816125d6015281816126b3015281816129720152612bd2015260a0518181816107f701528181612535015281816128e90152612b35015260c051818181610880015281816108b2015281816109840152818161182b01528181611ccc0152818161206d01528181612a860152612e77015260e0518181816106ef01526118a50152f35b5f80fd5b90506020813d60201161028e575b8161027760209383610333565b81010312610258576102889061036a565b5f610133565b3d915061026a565b6040513d5f823e3d90fd5b90506020813d6020116102da575b816102bc60209383610333565b81010312610258576004916102d260209261036a565b9150916100fe565b3d91506102af565b63cd4e616760e01b5f5260045ffd5b63d92e233d60e01b5f5260045ffd5b506001600160a01b038816156100cc565b506001600160a01b038416156100c5565b506001600160a01b038616156100be565b601f909101601f19168101906001600160401b0382119082101761035657604052565b634e487b7160e01b5f52604160045260245ffd5b51906001600160a01b03821682036102585756fe6080806040526004361015610034575b50361561002557631021348160e01b5f5260045ffd5b631021348160e01b5f5260045ffd5b5f3560e01c9081630c495f96146113145750806315b3c54c1461125e57806324a9d8531461123a57806325d86ced1461118f57806329575f6a14611167578063469048401461113f57806356d5d4751461102357806365f6906914610ffe57806376cd0ac114610f1f5780637a6f1dcc14610da25780637b955ebd14610d195780637f507f3f14610c8d578063833ccb3514610c095780638da5cb5b14610be2578063a0d2d83014610a0a578063a9563e4f146109b3578063ad5c46481461096f578063b45faa7614610826578063c45a0155146107e2578063cd1b7d6c14610713578063d3da3330146106d3578063d55be8c6146106b7578063d8c71a921461068f578063ddb2a0961461063a578063e051e81a146105e0578063e165fe3d14610589578063e9a4529114610517578063ee5e4fa3146104bd578063f019e6ed14610498578063f2fde38b14610425578063f54efd771461037b578063f6fe94b01461023b578063f887ea40146101f75763fef0c4a1146101b6575f61000f565b346101f35760203660031901126101f3576001600160a01b036101d76114ed565b165f526005602052602060ff60405f2054166040519015158152f35b5f80fd5b346101f3575f3660031901126101f3576040517f00000000000000000000000000000000000000000000000000000000000000006001600160a01b03168152602090f35b346101f35760603660031901126101f3576102546114ed565b61025c611503565b90610265611519565b6001600160a01b03909116913383141580610366575b80610352575b610343576001600160a01b03165f8181526005602052604090205460ff161561033457825f5260086020528060405f2093815f52600185016020526102d58460405f209060ff801983541691151516179055565b7f160aca386eecd6b8deb0127ecafcd60a1081e3f9dfa75de2cfd22ea186e8d3f1602060405195159586158152a381610320575b5061031057005b80546001600160a01b0319169055005b82546001600160a01b031614905082610309565b633ba12a1560e11b5f5260045ffd5b63641410b160e11b5f5260045ffd5b505f546001600160a01b0316331415610281565b506002546001600160a01b031633141561027b565b346101f35760203660031901126101f3576004358015158091036101f3575f546001600160a01b031633036104165760025460ff8160a81c166103d85761ffff60a01b191660a09190911b60ff60a01b1617600160a81b17600255005b60405162461bcd60e51b81526020600482015260166024820152751a5cd21d5890da185a5b88185b1c9958591e481cd95d60521b6044820152606490fd5b635fc483c560e01b5f5260045ffd5b346101f35760203660031901126101f35761043e6114ed565b5f546001600160a01b0381169133839003610416576001600160a01b03169182156101f35782907f8be0079c531659141344cd1fd0a4f28419497f9722a3daafe3b4186f6b6457e05f80a36001600160a01b031916175f55005b346101f3575f3660031901126101f357602060ff60025460a01c166040519015158152f35b346101f35760403660031901126101f3576104d66114ed565b6104de611503565b9060018060a01b03165f526008602052600160405f20019060018060a01b03165f52602052602060ff60405f2054166040519015158152f35b346101f35760403660031901126101f3576105306114ed565b610538611503565b336001600160a01b038316141580610574575b80610560575b6103435761055e91611b73565b005b505f546001600160a01b0316331415610551565b506002546001600160a01b031633141561054b565b346101f35760403660031901126101f3576105a26114ed565b6105aa611503565b6001600160a01b039182165f90815260086020908152604080832093851683526002909301815290829020549151919092168152f35b346101f35760203660031901126101f3576001600160a01b036106016114ed565b165f526007602052606060405f20600181549101546040519160ff81161515835260018060a01b039060081c1660208301526040820152f35b346101f35760203660031901126101f3576001600160a01b0361065b6114ed565b165f90815260086020908152604091829020805460049091015483516001600160a01b039283168152911691810191909152f35b346101f3575f3660031901126101f3576003546040516001600160a01b039091168152602090f35b346101f3575f3660031901126101f35760206040516103e88152f35b346101f3575f3660031901126101f357602060405163ffffffff7f0000000000000000000000000000000000000000000000000000000000000000168152f35b346101f35760403660031901126101f35760043561ffff81168082036101f35761073b611503565b9060018060a01b035f5416331415806107cd575b6107be576103e8106107af576001600160a01b03169081156107a0576003805461ffff60a01b191660a09290921b61ffff60a01b16919091179055600480546001600160a01b031916919091179055005b63d92e233d60e01b5f5260045ffd5b63cd4e616760e01b5f5260045ffd5b63127f16f360e31b5f5260045ffd5b506002546001600160a01b031633141561074f565b346101f3575f3660031901126101f3576040517f00000000000000000000000000000000000000000000000000000000000000006001600160a01b03168152602090f35b346101f35760603660031901126101f35761083f6114ed565b610847611503565b6044359162ffffff831683036101f3575f546001600160a01b03163314158061095a575b6107be576001600160a01b03811661095457507f0000000000000000000000000000000000000000000000000000000000000000905b6001600160a01b03811661094e57507f0000000000000000000000000000000000000000000000000000000000000000905b6001600160a01b0316908115801561093d575b6107a0575f8281526006602081815260408084206001600160a01b03959095168452938152838320805462ffffff9790971662ffffff19978816811790915591815283832094835293909352208054909216179055005b506001600160a01b038116156108e6565b906108d3565b906108a1565b506002546001600160a01b031633141561086b565b346101f3575f3660031901126101f3576040517f00000000000000000000000000000000000000000000000000000000000000006001600160a01b03168152602090f35b346101f35760403660031901126101f3576109cc6114ed565b6109d4611503565b9060018060a01b03165f52600660205260405f209060018060a01b03165f52602052602062ffffff60405f205416604051908152f35b346101f35760403660031901126101f357610a236114ed565b610a2b611503565b906001600160a01b03163381141580610bcd575b80610bb9575b610343575f818152600860205260409020916001600160a01b031680156107a0575f8181526003840160208190526040909120546001600160a01b0316938415610b86576001600160a01b038581165f9081526002830160205260409020541683145b15610b775760049160018060a01b0386165f526002820160205260405f206001600160601b0360a01b8154169055835f5260205260405f206001600160601b0360a01b8154169055019060018060a01b0382541614610b3d575b506040515f81526001600160a01b03909216917f07efacf833c0332f419c637a012a52fe4647777ec52b15b904c88856048dc94f90602090a3005b80546001600160a01b03191690556040515f81526001600160a01b0383169082905f516020612eba5f395f51905f5290602090a382610b02565b634209c0e360e01b5f5260045ffd5b5f8080526002820160205260409020549094906001600160a01b03168303610bb257505f936001610aa8565b935f610aa8565b505f546001600160a01b0316331415610a45565b506002546001600160a01b0316331415610a3f565b346101f3575f3660031901126101f3575f546040516001600160a01b039091168152602090f35b346101f35760203660031901126101f357610c226114ed565b5f546001600160a01b03163303610416576001600160a01b03168015610c59576001600160601b0360a01b60035416176003555f80f35b60405162461bcd60e51b815260206004820152600c60248201526b5a65726f206164647265737360a01b6044820152606490fd5b60c03660031901126101f357610ca16114ed565b610ca9611503565b60643591906001600160a01b03831683036101f3576001805403610ce757610ce192600260015560a435926084359260443591611627565b60018055005b60405162461bcd60e51b815260206004820152600a6024820152695245454e5452414e435960b01b6044820152606490fd5b346101f35760203660031901126101f3576001600160a01b03610d3a6114ed565b165f90815260086020526040902060048101546001600160a01b03169081610d7d57505f905b604080516001600160a01b03928316815292909116602083015290f35b6001600160a01b038281165f9081526003929092016020526040909120541690610d60565b346101f35760403660031901126101f357610dbb6114ed565b610dc3611503565b6001600160a01b03909116903382141580610f0a575b80610ef6575b610343576001600160a01b03169081156107a057815f52600760205260405f205460ff811615610ee75760081c6001600160a01b0316918215610ed8575f8281526008602090815260408083206001600160a01b0387811680865260028301855283862080546001600160a01b0319908116891790915587875260038401865293909520805490931690941790915560040180547f07efacf833c0332f419c637a012a52fe4647777ec52b15b904c88856048dc94f9492931615610ea8575b50604051908152a3005b816001600160601b0360a01b82541617905584845f516020612eba5f395f51905f5284604051858152a385610e9e565b63634bb5e960e11b5f5260045ffd5b63ab68eff560e01b5f5260045ffd5b505f546001600160a01b0316331415610ddf565b506002546001600160a01b0316331415610dd9565b346101f35760403660031901126101f357610f386114ed565b610f40611503565b906001600160a01b03163381141580610fe9575b80610fd5575b610343576001600160a01b0382165f9081526005602052604090205460ff1615610334575f52600860205260405f209060018060a01b0381165f526001820160205260ff60405f20541615610fc65781546001600160a01b0319166001600160a01b0391909116179055005b631a1a638d60e01b5f5260045ffd5b505f546001600160a01b0316331415610f5a565b506002546001600160a01b0316331415610f54565b346101f3575f3660031901126101f357602060ff60025460a81c166040519015158152f35b346101f35760603660031901126101f35761103c611528565b60443567ffffffffffffffff81116101f357366023820112156101f357806004013567ffffffffffffffff81116101f35781013660248201116101f357335f52600560205260ff60405f2054161561033457602090829003126101f357602401359060018060a01b0382168092036101f35781156107a0576040516370a0823160e01b815230600482015290602082602481335afa918215611134575f92611100575b5081156110f15761055e923391611c27565b631f2a200560e01b5f5260045ffd5b9091506020813d60201161112c575b8161111c602093836115a5565b810103126101f3575190836110df565b3d915061110f565b6040513d5f823e3d90fd5b346101f3575f3660031901126101f3576004546040516001600160a01b039091168152602090f35b346101f3575f3660031901126101f3576002546040516001600160a01b039091168152602090f35b346101f35760403660031901126101f3576111a86114ed565b60243590811515908183036101f3575f546001600160a01b031633141580611225575b6107be577fac90355684e2710fa34c2c7d500018678b146ea2d56ddc331c63d242ee8bf3859161121c60209260018060a01b031694855f526005845260405f209060ff801983541691151516179055565b604051908152a2005b506002546001600160a01b03163314156111cb565b346101f3575f3660031901126101f357602061ffff60035460a01c16604051908152f35b346101f35760803660031901126101f357611277611528565b61127f611503565b6044356001600160a01b03811692918382036101f357606435926001600160a01b038216156107a05783156110f1576020602495604051968780926370a0823160e01b82523060048301525afa8015611134576112e1575b61055e9450611c27565b6020853d60201161130c575b816112fa602093836115a5565b810103126101f35761055e94506112d7565b3d91506112ed565b346101f35760803660031901126101f35761132d6114ed565b90611336611503565b61133e611519565b916064359360018060a01b035f5416331415806114d8575b6107be576001600160a01b03169283156107a0571561143d57506001600160a01b0316918215610ed857825f52600560205260ff60405f2054161561142e5760407f354f0817e377e1e9b2601a5fa1180df29e96ac246a5d02f817a6e3bb4b72a9049181516113c48161153b565b6001815260016020820187815284830190848252875f5260076020526113fc865f2094511515859060ff801983541691151516179055565b518354906101008460a81b039060081b16906101008460a81b03191617835551910155815190600182526020820152a3005b634c3347d160e01b5f5260045ffd5b90505f925061144b8161153b565b828152600160208201848152604083019085825284865260076020526114846040872094511515859060ff801983541691151516179055565b518354906101008460a81b039060081b16906101008460a81b031916178355519101557f354f0817e377e1e9b2601a5fa1180df29e96ac246a5d02f817a6e3bb4b72a90460408051848152846020820152a3005b506002546001600160a01b0316331415611356565b600435906001600160a01b03821682036101f357565b602435906001600160a01b03821682036101f357565b6044359081151582036101f357565b6004359063ffffffff821682036101f357565b6060810190811067ffffffffffffffff82111761155757604052565b634e487b7160e01b5f52604160045260245ffd5b610120810190811067ffffffffffffffff82111761155757604052565b610100810190811067ffffffffffffffff82111761155757604052565b90601f8019910116810190811067ffffffffffffffff82111761155757604052565b919082039182116115d457565b634e487b7160e01b5f52601160045260245ffd5b3d15611622573d9067ffffffffffffffff82116115575760405191611617601f8201601f1916602001846115a5565b82523d5f602084013e565b606090565b9490926001600160a01b03169081156107a057428110611b64576001600160a01b038416948515938415611b5e575034925b83156110f1578415611b58575f5b6001600160a01b03165f9081526005602052604090205460ff1615610334578415611aa3575b61ffff60035460a01c1680850290858204036115d45761271090046116b281866115c7565b9481611a52575b60ff60025460a01c161561181757825f52600860205260405f20986040519a6116e18c61156b565b6001600160a01b03168b5260208b015260408a015260608901526080880193845260a088015260c087015260e086015261010085018290526117238585611f5c565b916001600160a01b03821690816117bf575b505050505f146117ba57505f5b6001600160a01b03165f90815260018201602052604090205460ff166117b057546001600160a01b031680156117a157805f52600560205260ff60405f205416156117925761179091612483565b565b633fbb49c960e01b5f5260045ffd5b63555096e560e11b5f5260045ffd5b50611790906123ac565b611742565b6040915f526007602052815f2060018351916117da8361153b565b805460ff811615158452828060a01b039060081c16602084015201549283910152511015611809578080611735565b9250925050611790926120ce565b50509550505091909350835f14611a4c57507f0000000000000000000000000000000000000000000000000000000000000000905b6040519360208501848152602086526118666040876115a5565b6003546001600160a01b0316908115611a07575f8091848214611a005785905b60405161190b60c4826020810194635853cc1360e11b865263ffffffff7f0000000000000000000000000000000000000000000000000000000000000000169e8f60248401528a60448401528c6064840152608060848401525180918160a48501528484015e87838284010152601f801991011681010301601f1981018352826115a5565b5191885af1916119196115e8565b5082156119a4575b50501561196f57604080516001600160a01b039093168352602083019190915233917f32688e6ceefb585f3047e1032ff7547f8d4eb5c9c052855bc92bbc799d3f730091819081015b0390a4565b60405162461bcd60e51b815260206004820152600d60248201526c109c9a5919d94819985a5b1959609a1b6044820152606490fd5b5f9250829190156119f95783905b604051602081019163206d3a2d60e21b83528960248301526044820152856064820152606481526119e46084826115a5565b5191865af16119f16115e8565b505f80611921565b81906119b2565b8190611886565b60405162461bcd60e51b815260206004820152601c60248201527f48756220636f6e74726163742061646472657373206e6f7420736574000000006044820152606490fd5b9061184c565b8615611a86575f8080808560018060a01b03600454165af1611a726115e8565b506116b95763671f7c4960e11b5f5260045ffd5b600454611a9e9083906001600160a01b03168b611ea6565b6116b9565b30156107a0576040516323b872dd60e01b81526001600160a01b0389166004820152306024820152604481018590526020816064815f8c5af1908115611134575f91611b29575b5061168d5760405162461bcd60e51b81526020600482015260126024820152711514905394d1915497d19493d357d190525360721b6044820152606490fd5b611b4b915060203d602011611b51575b611b4381836115a5565b810190611e8e565b5f611aea565b503d611b39565b85611667565b92611659565b631ab7da6b60e01b5f5260045ffd5b6001600160a01b039081165f818152600860205260409020929091168015611bf857805f52600760205260ff60405f20541615610ee7575f8181526003840160205260409020546001600160a01b0316928315610b775760040180546001600160a01b031916821790556040519081525f516020612eba5f395f51905f5290602090a3565b5060045f92016001600160601b0360a01b81541690555f516020612eba5f395f51905f526020604051848152a3565b929060018060a01b031692835f52600860205260405f20610e104201918242116115d4576040516001600160a01b038616957f0b139925e7430bdd80bd413a6fe6166fce98e3c4ab6c29d85588eaa2f0b99e519560a09563ffffffff9591939290611c918461156b565b5f84528960208501528460408501525f606085015260808401908582528b898601525f60c086015260e08501526101008401906001808a1b037f0000000000000000000000000000000000000000000000000000000000000000168b148252611cfa8585611f5c565b916001808c1b0382169081611e0a575b505050505115155f14611e0557505f5b600180881b03165f526001810160205260ff60405f205416611dce57545f196001871b011680611d85575b50611d4f906123ac565b604051958652602086015260606040860152600f60608601526e6469726563745f66616c6c6261636b60881b60808601521692a3565b805f52600560205260ff60405f20541615611d4557611da391612483565b60405195865260208601526060604086015260046060860152630737761760e41b60808601521692a3565b50611dd8906123ac565b6040519586526020860152606060408601526006606086015265191a5c9958dd60d21b60808601521692a3565b611d1a565b6040915f526007602052815f206001835191611e258361153b565b805460ff8116151584528f8380911b039060081c16602084015201549283910152511015611e54578080611d0a565b9250925050611e62926120ce565b60405195865260208601526060604086015260056060860152641e5a595b1960da1b60808601521692a3565b908160209103126101f3575180151581036101f35790565b916001600160a01b038216156107a05760405163a9059cbb60e01b81526001600160a01b0390921660048301526024820152906020908290815f816044810103926001600160a01b03165af1908115611134575f91611f3d575b5015611f0857565b60405162461bcd60e51b815260206004820152600d60248201526c1514905394d1915497d1905253609a1b6044820152606490fd5b611f56915060203d602011611b5157611b4381836115a5565b5f611f00565b61010082015190929190156120bc57505f5b6001600160a01b03811615612038576001600160a01b038181165f90815260028501602052604090205416611fa2816127f8565b6120335750505b60048201546001600160a01b0316611fc0816127f8565b612010575081546001600160a01b03169182611fdf575b505f91508190565b6001600160a01b038381165f90815260029290920160205260409091205416612007816127f8565b15611fd7579190565b6001600160a01b038082165f908152600390940160205260409093205490921690565b925090565b505f8080526002830160208190526040909120546001600160a01b031661205e816127f8565b6120b457506001600160a01b037f00000000000000000000000000000000000000000000000000000000000000008181165f908152602093909352604090922054166120a9816127f8565b612033575050611fa9565b92505f919050565b602001516001600160a01b0316611f6e565b915f9160018060a01b03811691825f52600760205260405f20604051906120f48261153b565b8054916040600160ff85161593841584526020840195828060a01b039060081c1686520154910152610ee757516001600160a01b0316908115610ed8576001600160a01b0316810361239d57805f52600560205260ff60405f2054161561142e5761215f8186612839565b60a0860180516040516370a0823160e01b81526001600160a01b03909116600482015290949190602081602481865afa908115611134575f9161236b575b506121a88585612cef565b6121b3828686612d9c565b85516001600160a01b0316833b156101f35760405163d699618560e01b81526001600160a01b03919091166004820152602481018390525f8160448183885af1801561113457612356575b506122098585612cef565b85516040516370a0823160e01b81526001600160a01b03909116600482015290602082602481875afa801561234b578890612317575b61224992506115c7565b9586156123085760c088015187106122fa5750905f516020612e9a5f395f51905f529392917f8f7a6fecbaab1e04e31f80b9da6e08d7f55f854f660a910ddc7cce65036babd5604060018060a01b03885116928151908152896020820152a4845192516020808701516040808901516060998a01518251918252938101939093526001600160a01b039485169083015296810195909552426080860152948116948116939216918060a0810161196a565b6250c9b760e01b8152600490fd5b63360fef3560e01b8152600490fd5b506020823d602011612343575b81612331602093836115a5565b810103126101f357612249915161223f565b3d9150612324565b6040513d8a823e3d90fd5b6123639197505f906115a5565b5f955f6121fe565b90506020813d602011612395575b81612386602093836115a5565b810103126101f357515f61219d565b3d9150612379565b632693f30360e11b5f5260045ffd5b61010081015115612457575f80808060018060a01b0360a0860151166080860151905af16123d86115e8565b5015612448575b805160a0828101516020808501516040808701516060808901516080998a01518451938452958301526001600160a01b03938416928201839052810193909352429683019690965291821693909116915f516020612e9a5f395f51905f5291908190810161196a565b632b3b0c0960e11b5f5260045ffd5b602081015160a0820151608083015161247e9290916001600160a01b039081169116611ea6565b6123df565b906101008201511515805f146127e5575f5b608084015160c085015160a086019360018060a01b03855116916124bd60e089015195612e66565b946124c788612e66565b9560018060a01b031693845f52600660205260405f2060018060a01b0388165f5260205262ffffff60405f20541680156127d657604051630b4c774160e11b8152600481018790526001600160a01b03988916602482018190526044820183905298602090829060649082907f0000000000000000000000000000000000000000000000000000000000000000165afa908115611134575f91612794575b506001600160a01b031615612786576040519761258189611588565b86895260208901526040880152606087015260808601528360a086015260c08501525f60e08501525f146126b057506125d291602091604051808095819463414bf38960e01b835260048301612dfd565b03917f00000000000000000000000000000000000000000000000000000000000000006001600160a01b03165af18015611134575f90612671575b5f516020612e9a5f395f51905f529150925b845192516020808701516040808901516060998a01518251918252938101939093526001600160a01b039485169083015296810195909552426080860152948116948116939216918060a0810161196a565b506020813d6020116126a8575b8161268b602093836115a5565b810103126101f3575f516020612e9a5f395f51905f52905161260d565b3d915061267e565b937f00000000000000000000000000000000000000000000000000000000000000006001600160a01b0316929091612714916020916126fa906126f3878a612cef565b8689612d9c565b6040518093819263414bf38960e01b835260048301612dfd565b03815f875af1908115611134575f91612747575b505f516020612e9a5f395f51905f52926127429195612cef565b61261f565b90506020813d60201161277e575b81612762602093836115a5565b810103126101f357515f516020612e9a5f395f51905f52612728565b3d9150612755565b6231a7b960e41b5f5260045ffd5b90506020813d6020116127ce575b816127af602093836115a5565b810103126101f357516001600160a01b03811681036101f3575f612565565b3d91506127a2565b630db08e3d60e01b5f5260045ffd5b60208301516001600160a01b0316612495565b6001600160a01b03168015612834575f52600760205260405f205460ff81169081612821575090565b60081c6001600160a01b03161515919050565b505f90565b5f90610100810151612a825760208101516001600160a01b03908116939081168414612a775761287b61287560e0608085015194015195612e66565b91612e66565b9060018060a01b03169384845260066020526040842060018060a01b0383165f5260205262ffffff60405f2054168015612a6857604051630b4c774160e11b8152600481018790526001600160a01b03938416602482018190526044820183905293602090829060649082907f0000000000000000000000000000000000000000000000000000000000000000165afa908115612a5d578691612a17575b506001600160a01b031615612a0957916020916129a4936040519261293d84611588565b88845284840152604083015230606083015260808201528360a08201528460c08201528460e08201526126fa60018060a01b037f0000000000000000000000000000000000000000000000000000000000000000169461299d8689612cef565b8588612d9c565b038186865af19283156129fd57926129c7575b5081926129c49250612cef565b90565b91506020823d6020116129f5575b816129e2602093836115a5565b810103126101f3576129c49151916129b7565b3d91506129d5565b604051903d90823e3d90fd5b6231a7b960e41b8552600485fd5b90506020813d602011612a55575b81612a32602093836115a5565b81010312612a5157516001600160a01b0381168103612a51575f612919565b8580fd5b3d9150612a25565b6040513d88823e3d90fd5b630db08e3d60e01b8552600485fd5b506080015192915050565b90917f00000000000000000000000000000000000000000000000000000000000000006001600160a01b0381811693929081168414612ca957612ad09060e060808501519401519250612e66565b83855260066020526040852060018060a01b0382165f5260205262ffffff60405f205416908115612c9a57604051630b4c774160e11b8152600481018690526001600160a01b03918216602482018190526044820184905291602090829060649082907f0000000000000000000000000000000000000000000000000000000000000000165afa908115612c8f578791612c49575b506001600160a01b031615612c3b579160209391612bce959360405194612b8b86611588565b855285850152604084015230606084015260808301528060a08301528460c08301528460e0830152604051808095819463414bf38960e01b835260048301612dfd565b03917f00000000000000000000000000000000000000000000000000000000000000006001600160a01b03165af19182156129fd5791612c0c575090565b90506020813d602011612c33575b81612c27602093836115a5565b810103126101f3575190565b3d9150612c1a565b6231a7b960e41b8652600486fd5b90506020813d602011612c87575b81612c64602093836115a5565b81010312612c8357516001600160a01b0381168103612c83575f612b65565b8680fd5b3d9150612c57565b6040513d89823e3d90fd5b630db08e3d60e01b8652600486fd5b5050608001805190925090803b156101f3575f90600460405180948193630d0e30db60e41b83525af1801561113457612ce157505190565b5f612ceb916115a5565b5190565b906001600160a01b031680156107a05760405163095ea7b360e01b815260048101919091525f602482018190529091602091839160449183916001600160a01b03165af1908115611134575f91612d7d575b5015612d4957565b60405162461bcd60e51b815260206004820152600c60248201526b1054141493d59157d190525360a21b6044820152606490fd5b612d96915060203d602011611b5157611b4381836115a5565b5f612d41565b916001600160a01b038216156107a05760405163095ea7b360e01b81526001600160a01b0390921660048301526024820152906020908290815f816044810103926001600160a01b03165af1908115611134575f91612d7d575015612d4957565b81516001600160a01b03908116825260208084015182169083015260408084015162ffffff16908301526060808401518216908301526080808401519083015260a0808401519083015260c0808401519083015260e09283015116918101919091526101000190565b6001600160a01b0381166129c457507f00000000000000000000000000000000000000000000000000000000000000009056fe49735f6dfce36092e4e60b47019be07f553ede2d89c84c80a84ad06883a2477752ce92b576c9e725f458101a8593fe331d4d2964c77a20f2b608b39cd95cf789a26469706673582212209f751bf7c5f43202e1f3ce59e5fb97a17b18b0a8fc975abf353bcf0f9f2ceb4c64736f6c634300081e00338be0079c531659141344cd1fd0a4f28419497f9722a3daafe3b4186f6b6457e00000000000000000000000002bf7e65df939482869b96a6beb88d3e5bf58fb810000000000000000000000001234b50310ff79958509d1a9c8a92458ed1496d100000000000000000000000000000000000000000000000000000000000000fa000000000000000000000000123454ce54debe2cebce95740e9e0f65dff9dbe2000000000000000000000000000000000000000000000000000000000000138b0000000000000000000000001234562eb0cd65e7d08e59f9f18d7c10b5df232a",
        "nonce": "0x196",
        "chainId": "0x138b"
      },
      "additionalContracts": [],
      "isFixedGasLimit": false
    },
    {
      "hash": "0xe79ee0b85cbdc35077379e91b583eb2edcd33fbd988e8f56d7a466c48422c9bb",
      "transactionType": "CALL",
      "contractName": "KubiStreamerDonation",
      "contractAddress": "0xae8ca6c5d6b40bb85ad3e1d5daf19038570aef31",
      "function": "setIsHubChain(bool)",
      "arguments": [
        "true"
      ],
      "transaction": {
        "from": "0x1234562eb0cd65e7d08e59f9f18d7c10b5df232a",
        "to": "0xae8ca6c5d6b40bb85ad3e1d5daf19038570aef31",
        "gas": "0x6316e15",
        "value": "0x0",
        "input": "0xf54efd770000000000000000000000000000000000000000000000000000000000000001",
        "nonce": "0x197",
        "chainId": "0x138b"
      },
      "additionalContracts": [],
      "isFixedGasLimit": false
    },
    {
      "hash": "0x05526013a203b0901dd642d075a55f99185f991fae31bc888f81371c8fce9b26",
      "transactionType": "CALL",
      "contractName": "KubiStreamerDonation",
      "contractAddress": "0xae8ca6c5d6b40bb85ad3e1d5daf19038570aef31",
      "function": "setGlobalWhitelist(address,bool)",
      "arguments": [
        "0x33c6f26dA09502E6540043f030aE1F87f109cc99",
        "true"
      ],
      "transaction": {
        "from": "0x1234562eb0cd65e7d08e59f9f18d7c10b5df232a",
        "to": "0xae8ca6c5d6b40bb85ad3e1d5daf19038570aef31",
        "gas": "0x673071d",
        "value": "0x0",
        "input": "0x25d86ced00000000000000000000000033c6f26da09502e6540043f030ae1f87f109cc990000000000000000000000000000000000000000000000000000000000000001",
        "nonce": "0x198",
        "chainId": "0x138b"
      },
      "additionalContracts": [],
      "isFixedGasLimit": false
    },
    {
      "hash": "0x5c6cf6f9c98ce7a634fa6343dd2ffb2899a5b2f071a968060048e85bbcdab11b",
      "transactionType": "CALL",
      "contractName": "KubiStreamerDonation",
      "contractAddress": "0xae8ca6c5d6b40bb85ad3e1d5daf19038570aef31",
      "function": "setGlobalWhitelist(address,bool)",
      "arguments": [
        "0x7CB382Ce1AA40FA9F9A59a632090c05Dc28caE7b",
        "true"
      ],
      "transaction": {
        "from": "0x1234562eb0cd65e7d08e59f9f18d7c10b5df232a",
        "to": "0xae8ca6c5d6b40bb85ad3e1d5daf19038570aef31",
        "gas": "0x6753d2b",
        "value": "0x0",
        "input": "0x25d86ced0000000000000000000000007cb382ce1aa40fa9f9a59a632090c05dc28cae7b0000000000000000000000000000000000000000000000000000000000000001",
        "nonce": "0x199",
        "chainId": "0x138b"
      },
      "additionalContracts": [],
      "isFixedGasLimit": false
    },
    {
      "hash": "0x529e1d486c22b6370e225cb36223e61cc4db2ffca585f2f247f1ca38450a2874",
      "transactionType": "CALL",
      "contractName": "KubiStreamerDonation",
      "contractAddress": "0xae8ca6c5d6b40bb85ad3e1d5daf19038570aef31",
      "function": "setGlobalWhitelist(address,bool)",
      "arguments": [
        "0xB288Ba5B5b80Dd0Fd83541ef2e5922f71121Fa13",
        "true"
      ],
      "transaction": {
        "from": "0x1234562eb0cd65e7d08e59f9f18d7c10b5df232a",
        "to": "0xae8ca6c5d6b40bb85ad3e1d5daf19038570aef31",
        "gas": "0x6753d2b",
        "value": "0x0",
        "input": "0x25d86ced000000000000000000000000b288ba5b5b80dd0fd83541ef2e5922f71121fa130000000000000000000000000000000000000000000000000000000000000001",
        "nonce": "0x19a",
        "chainId": "0x138b"
      },
      "additionalContracts": [],
      "isFixedGasLimit": false
    },
    {
      "hash": "0x3a9535706a152e67edb0f368efa6369a5b9a2e9249fcafd5cb7df3f3ce910010",
      "transactionType": "CALL",
      "contractName": "KubiStreamerDonation",
      "contractAddress": "0xae8ca6c5d6b40bb85ad3e1d5daf19038570aef31",
      "function": "setGlobalWhitelist(address,bool)",
      "arguments": [
        "0xC4a53c466Cfb62AecED03008B0162baaf36E0B03",
        "true"
      ],
      "transaction": {
        "from": "0x1234562eb0cd65e7d08e59f9f18d7c10b5df232a",
        "to": "0xae8ca6c5d6b40bb85ad3e1d5daf19038570aef31",
        "gas": "0x6753d2b",
        "value": "0x0",
        "input": "0x25d86ced000000000000000000000000c4a53c466cfb62aeced03008b0162baaf36e0b030000000000000000000000000000000000000000000000000000000000000001",
        "nonce": "0x19b",
        "chainId": "0x138b"
      },
      "additionalContracts": [],
      "isFixedGasLimit": false
    },
    {
      "hash": "0x5b987de22559b3a0b48d2afbe51512685a79ec91c1fda29091643fd32204daf1",
      "transactionType": "CALL",
      "contractName": "KubiStreamerDonation",
      "contractAddress": "0xae8ca6c5d6b40bb85ad3e1d5daf19038570aef31",
      "function": "setGlobalWhitelist(address,bool)",
      "arguments": [
        "0x70Db6eFB75c898Ad1e194FDA2B8C6e73dbC944d6",
        "true"
      ],
      "transaction": {
        "from": "0x1234562eb0cd65e7d08e59f9f18d7c10b5df232a",
        "to": "0xae8ca6c5d6b40bb85ad3e1d5daf19038570aef31",
        "gas": "0x6753d2b",
        "value": "0x0",
        "input": "0x25d86ced00000000000000000000000070db6efb75c898ad1e194fda2b8c6e73dbc944d60000000000000000000000000000000000000000000000000000000000000001",
        "nonce": "0x19c",
        "chainId": "0x138b"
      },
      "additionalContracts": [],
      "isFixedGasLimit": false
    },
    {
      "hash": "0x532a9315832f0addb2f663b1310446fba6293b24ae403e1e823df26eff77f6b9",
      "transactionType": "CALL",
      "contractName": "KubiStreamerDonation",
      "contractAddress": "0xae8ca6c5d6b40bb85ad3e1d5daf19038570aef31",
      "function": "setGlobalWhitelist(address,bool)",
      "arguments": [
        "0xEE589FBF85128abA6f42696dB2F28eA9EBddE173",
        "true"
      ],
      "transaction": {
        "from": "0x1234562eb0cd65e7d08e59f9f18d7c10b5df232a",
        "to": "0xae8ca6c5d6b40bb85ad3e1d5daf19038570aef31",
        "gas": "0x6753d2b",
        "value": "0x0",
        "input": "0x25d86ced000000000000000000000000ee589fbf85128aba6f42696db2f28ea9ebdde1730000000000000000000000000000000000000000000000000000000000000001",
        "nonce": "0x19d",
        "chainId": "0x138b"
      },
      "additionalContracts": [],
      "isFixedGasLimit": false
    },
    {
      "hash": "0x802c270b57e0142d4203f235340b8aa1f4ca7dd1f3d05aeb7998c13b2c4d2925",
      "transactionType": "CALL",
      "contractName": "KubiStreamerDonation",
      "contractAddress": "0xae8ca6c5d6b40bb85ad3e1d5daf19038570aef31",
      "function": "setGlobalWhitelist(address,bool)",
      "arguments": [
        "0x2C036be74942c597e4d81D7050008dDc11becCEb",
        "true"
      ],
      "transaction": {
        "from": "0x1234562eb0cd65e7d08e59f9f18d7c10b5df232a",
        "to": "0xae8ca6c5d6b40bb85ad3e1d5daf19038570aef31",
        "gas": "0x673071d",
        "value": "0x0",
        "input": "0x25d86ced0000000000000000000000002c036be74942c597e4d81d7050008ddc11becceb0000000000000000000000000000000000000000000000000000000000000001",
        "nonce": "0x19e",
        "chainId": "0x138b"
      },
      "additionalContracts": [],
      "isFixedGasLimit": false
    },
    {
      "hash": "0x460baffae0336e2b1bca6012d608bb4bbc7d65c860b3e30ac903fa049db69acf",
      "transactionType": "CALL",
      "contractName": "KubiStreamerDonation",
      "contractAddress": "0xae8ca6c5d6b40bb85ad3e1d5daf19038570aef31",
      "function": "setGlobalWhitelist(address,bool)",
      "arguments": [
        "0x90CdcBF4c4bc78dC440252211EFd744d0A4Dc4A1",
        "true"
      ],
      "transaction": {
        "from": "0x1234562eb0cd65e7d08e59f9f18d7c10b5df232a",
        "to": "0xae8ca6c5d6b40bb85ad3e1d5daf19038570aef31",
        "gas": "0x6753d2b",
        "value": "0x0",
        "input": "0x25d86ced00000000000000000000000090cdcbf4c4bc78dc440252211efd744d0a4dc4a10000000000000000000000000000000000000000000000000000000000000001",
        "nonce": "0x19f",
        "chainId": "0x138b"
      },
      "additionalContracts": [],
      "isFixedGasLimit": false
    },
    {
      "hash": "0x581ab1564eb6138d48ecadec440fe0b895d2f80307cfc1751fa252b3c6201627",
      "transactionType": "CALL",
      "contractName": "KubiStreamerDonation",
      "contractAddress": "0xae8ca6c5d6b40bb85ad3e1d5daf19038570aef31",
      "function": "setGlobalWhitelist(address,bool)",
      "arguments": [
        "0xced6Ceb47301F268d57fF07879DF45Fda80e6974",
        "true"
      ],
      "transaction": {
        "from": "0x1234562eb0cd65e7d08e59f9f18d7c10b5df232a",
        "to": "0xae8ca6c5d6b40bb85ad3e1d5daf19038570aef31",
        "gas": "0x6753d2b",
        "value": "0x0",
        "input": "0x25d86ced000000000000000000000000ced6ceb47301f268d57ff07879df45fda80e69740000000000000000000000000000000000000000000000000000000000000001",
        "nonce": "0x1a0",
        "chainId": "0x138b"
      },
      "additionalContracts": [],
      "isFixedGasLimit": false
    },
    {
      "hash": "0x8f1048422d1d4501a2a4de5b1468e7e9143a56309c47baf0ce69b33821e66b6c",
      "transactionType": "CALL",
      "contractName": "KubiStreamerDonation",
      "contractAddress": "0xae8ca6c5d6b40bb85ad3e1d5daf19038570aef31",
      "function": "setGlobalWhitelist(address,bool)",
      "arguments": [
        "0x782Ba48189AF93a0CF42766058DE83291f384bF3",
        "true"
      ],
      "transaction": {
        "from": "0x1234562eb0cd65e7d08e59f9f18d7c10b5df232a",
        "to": "0xae8ca6c5d6b40bb85ad3e1d5daf19038570aef31",
        "gas": "0x6753d2b",
        "value": "0x0",
        "input": "0x25d86ced000000000000000000000000782ba48189af93a0cf42766058de83291f384bf30000000000000000000000000000000000000000000000000000000000000001",
        "nonce": "0x1a1",
        "chainId": "0x138b"
      },
      "additionalContracts": [],
      "isFixedGasLimit": false
    },
    {
      "hash": "0x6d040cdcaeff0141a2cb97c09e0040592337f7226b941e8227596fd5cfd2064c",
      "transactionType": "CALL",
      "contractName": "KubiStreamerDonation",
      "contractAddress": "0xae8ca6c5d6b40bb85ad3e1d5daf19038570aef31",
      "function": "setPoolFee(address,address,uint24)",
      "arguments": [
        "0x7CB382Ce1AA40FA9F9A59a632090c05Dc28caE7b",
        "0xB288Ba5B5b80Dd0Fd83541ef2e5922f71121Fa13",
        "3000"
      ],
      "transaction": {
        "from": "0x1234562eb0cd65e7d08e59f9f18d7c10b5df232a",
        "to": "0xae8ca6c5d6b40bb85ad3e1d5daf19038570aef31",
        "gas": "0x6bb424f",
        "value": "0x0",
        "input": "0xb45faa760000000000000000000000007cb382ce1aa40fa9f9a59a632090c05dc28cae7b000000000000000000000000b288ba5b5b80dd0fd83541ef2e5922f71121fa130000000000000000000000000000000000000000000000000000000000000bb8",
        "nonce": "0x1a2",
        "chainId": "0x138b"
      },
      "additionalContracts": [],
      "isFixedGasLimit": false
    },
    {
      "hash": "0x0ee2fe89e18be05b168fed67396489f6fcfcb27d24c2164d0abdc1a62a5196f7",
      "transactionType": "CALL",
      "contractName": "KubiStreamerDonation",
      "contractAddress": "0xae8ca6c5d6b40bb85ad3e1d5daf19038570aef31",
      "function": "setPoolFee(address,address,uint24)",
      "arguments": [
        "0x7CB382Ce1AA40FA9F9A59a632090c05Dc28caE7b",
        "0xC4a53c466Cfb62AecED03008B0162baaf36E0B03",
        "3000"
      ],
      "transaction": {
        "from": "0x1234562eb0cd65e7d08e59f9f18d7c10b5df232a",
        "to": "0xae8ca6c5d6b40bb85ad3e1d5daf19038570aef31",
        "gas": "0x6bb424f",
        "value": "0x0",
        "input": "0xb45faa760000000000000000000000007cb382ce1aa40fa9f9a59a632090c05dc28cae7b000000000000000000000000c4a53c466cfb62aeced03008b0162baaf36e0b030000000000000000000000000000000000000000000000000000000000000bb8",
        "nonce": "0x1a3",
        "chainId": "0x138b"
      },
      "additionalContracts": [],
      "isFixedGasLimit": false
    },
    {
      "hash": "0x1ea93e88389caacaf37849e56afa7dfca8405e2d64e05c9f4cabb10e2247742f",
      "transactionType": "CALL",
      "contractName": "KubiStreamerDonation",
      "contractAddress": "0xae8ca6c5d6b40bb85ad3e1d5daf19038570aef31",
      "function": "setYieldConfig(address,address,bool,uint256)",
      "arguments": [
        "0x2007Cb1a90E71c18983F1d4091261816E9e9c2dA",
        "0xB288Ba5B5b80Dd0Fd83541ef2e5922f71121Fa13",
        "true",
        "0"
      ],
      "transaction": {
        "from": "0x1234562eb0cd65e7d08e59f9f18d7c10b5df232a",
        "to": "0xae8ca6c5d6b40bb85ad3e1d5daf19038570aef31",
        "gas": "0x6d0a231",
        "value": "0x0",
        "input": "0x0c495f960000000000000000000000002007cb1a90e71c18983f1d4091261816e9e9c2da000000000000000000000000b288ba5b5b80dd0fd83541ef2e5922f71121fa1300000000000000000000000000000000000000000000000000000000000000010000000000000000000000000000000000000000000000000000000000000000",
        "nonce": "0x1a4",
        "chainId": "0x138b"
      },
      "additionalContracts": [],
      "isFixedGasLimit": false
    },
    {
      "hash": "0x5dec676ae93fad4ea782a330506c0e3b57f56e7b175c782b2b553f04ca2720f7",
      "transactionType": "CALL",
      "contractName": "KubiStreamerDonation",
      "contractAddress": "0xae8ca6c5d6b40bb85ad3e1d5daf19038570aef31",
      "function": "setYieldConfig(address,address,bool,uint256)",
      "arguments": [
        "0x04F0aEf9cb921A8Ad848FA8B49aF7fc2E60DbcCb",
        "0xC4a53c466Cfb62AecED03008B0162baaf36E0B03",
        "true",
        "0"
      ],
      "transaction": {
        "from": "0x1234562eb0cd65e7d08e59f9f18d7c10b5df232a",
        "to": "0xae8ca6c5d6b40bb85ad3e1d5daf19038570aef31",
        "gas": "0x6d0a231",
        "value": "0x0",
        "input": "0x0c495f9600000000000000000000000004f0aef9cb921a8ad848fa8b49af7fc2e60dbccb000000000000000000000000c4a53c466cfb62aeced03008b0162baaf36e0b0300000000000000000000000000000000000000000000000000000000000000010000000000000000000000000000000000000000000000000000000000000000",
        "nonce": "0x1a5",
        "chainId": "0x138b"
      },
      "additionalContracts": [],
      "isFixedGasLimit": false
    },
    {
      "hash": "0xca0c0ad330c034b25bb3db66e3f880e9edcde086f7bc4baa0bf0aa665ac6b635",
      "transactionType": "CALL",
      "contractName": "KubiStreamerDonation",
      "contractAddress": "0xae8ca6c5d6b40bb85ad3e1d5daf19038570aef31",
      "function": "setYieldConfig(address,address,bool,uint256)",
      "arguments": [
        "0x8c2B7136dDaF6129cE33f58d3E5475a0ed3F7b3C",
        "0x33c6f26dA09502E6540043f030aE1F87f109cc99",
        "true",
        "0"
      ],
      "transaction": {
        "from": "0x1234562eb0cd65e7d08e59f9f18d7c10b5df232a",
        "to": "0xae8ca6c5d6b40bb85ad3e1d5daf19038570aef31",
        "gas": "0x6ce6c23",
        "value": "0x0",
        "input": "0x0c495f960000000000000000000000008c2b7136ddaf6129ce33f58d3e5475a0ed3f7b3c00000000000000000000000033c6f26da09502e6540043f030ae1f87f109cc9900000000000000000000000000000000000000000000000000000000000000010000000000000000000000000000000000000000000000000000000000000000",
        "nonce": "0x1a6",
        "chainId": "0x138b"
      },
      "additionalContracts": [],
      "isFixedGasLimit": false
    },
    {
      "hash": "0x921d59b4ca1624ea80ab6ac7fa675b2b72c0c6379bde2cd1478c4ad2edc1fee0",
      "transactionType": "CALL",
      "contractName": "KubiStreamerDonation",
      "contractAddress": "0xae8ca6c5d6b40bb85ad3e1d5daf19038570aef31",
      "function": "setYieldConfig(address,address,bool,uint256)",
      "arguments": [
        "0x8e0dCfecDEEBb1da38DD1bbE9418FD7a4bdd4922",
        "0xced6Ceb47301F268d57fF07879DF45Fda80e6974",
        "true",
        "0"
      ],
      "transaction": {
        "from": "0x1234562eb0cd65e7d08e59f9f18d7c10b5df232a",
        "to": "0xae8ca6c5d6b40bb85ad3e1d5daf19038570aef31",
        "gas": "0x6d0a231",
        "value": "0x0",
        "input": "0x0c495f960000000000000000000000008e0dcfecdeebb1da38dd1bbe9418fd7a4bdd4922000000000000000000000000ced6ceb47301f268d57ff07879df45fda80e697400000000000000000000000000000000000000000000000000000000000000010000000000000000000000000000000000000000000000000000000000000000",
        "nonce": "0x1a7",
        "chainId": "0x138b"
      },
      "additionalContracts": [],
      "isFixedGasLimit": false
    },
    {
      "hash": "0x7d3558ba8ba7146e38dc1734f1c704b5f01cc6bec775955ff096a33b73a1ef99",
      "transactionType": "CALL",
      "contractName": "KubiStreamerDonation",
      "contractAddress": "0xae8ca6c5d6b40bb85ad3e1d5daf19038570aef31",
      "function": "setYieldConfig(address,address,bool,uint256)",
      "arguments": [
        "0x89C0fa2BAE88752eC733922daa0c2Ff321bb5279",
        "0x7CB382Ce1AA40FA9F9A59a632090c05Dc28caE7b",
        "true",
        "0"
      ],
      "transaction": {
        "from": "0x1234562eb0cd65e7d08e59f9f18d7c10b5df232a",
        "to": "0xae8ca6c5d6b40bb85ad3e1d5daf19038570aef31",
        "gas": "0x6d0a231",
        "value": "0x0",
        "input": "0x0c495f9600000000000000000000000089c0fa2bae88752ec733922daa0c2ff321bb52790000000000000000000000007cb382ce1aa40fa9f9a59a632090c05dc28cae7b00000000000000000000000000000000000000000000000000000000000000010000000000000000000000000000000000000000000000000000000000000000",
        "nonce": "0x1a8",
        "chainId": "0x138b"
      },
      "additionalContracts": [],
      "isFixedGasLimit": false
    },
    {
      "hash": "0xb82d208f1eccdf154e7bcb06682e1362f68a7a35720d2673ed15753758650b6e",
      "transactionType": "CALL",
      "contractName": "KubiStreamerDonation",
      "contractAddress": "0xae8ca6c5d6b40bb85ad3e1d5daf19038570aef31",
      "function": "setYieldConfig(address,address,bool,uint256)",
      "arguments": [
        "0xa6c9dD702B198Da46f9C5b21bBe65a2a31fdEB63",
        "0xB288Ba5B5b80Dd0Fd83541ef2e5922f71121Fa13",
        "true",
        "0"
      ],
      "transaction": {
        "from": "0x1234562eb0cd65e7d08e59f9f18d7c10b5df232a",
        "to": "0xae8ca6c5d6b40bb85ad3e1d5daf19038570aef31",
        "gas": "0x6d0a231",
        "value": "0x0",
        "input": "0x0c495f96000000000000000000000000a6c9dd702b198da46f9c5b21bbe65a2a31fdeb63000000000000000000000000b288ba5b5b80dd0fd83541ef2e5922f71121fa1300000000000000000000000000000000000000000000000000000000000000010000000000000000000000000000000000000000000000000000000000000000",
        "nonce": "0x1a9",
        "chainId": "0x138b"
      },
      "additionalContracts": [],
      "isFixedGasLimit": false
    },
    {
      "hash": "0x2b6c1e47ac459787c5964e98d422bcd3dfdb27dfa39d2b73a6aa940b3e25f29d",
      "transactionType": "CALL",
      "contractName": "KubiStreamerDonation",
      "contractAddress": "0xae8ca6c5d6b40bb85ad3e1d5daf19038570aef31",
      "function": "setYieldConfig(address,address,bool,uint256)",
      "arguments": [
        "0x5c8b8caa55Af0d10ACc3ec95A614d26C90BD9b62",
        "0xC4a53c466Cfb62AecED03008B0162baaf36E0B03",
        "true",
        "0"
      ],
      "transaction": {
        "from": "0x1234562eb0cd65e7d08e59f9f18d7c10b5df232a",
        "to": "0xae8ca6c5d6b40bb85ad3e1d5daf19038570aef31",
        "gas": "0x6d0a231",
        "value": "0x0",
        "input": "0x0c495f960000000000000000000000005c8b8caa55af0d10acc3ec95a614d26c90bd9b62000000000000000000000000c4a53c466cfb62aeced03008b0162baaf36e0b0300000000000000000000000000000000000000000000000000000000000000010000000000000000000000000000000000000000000000000000000000000000",
        "nonce": "0x1aa",
        "chainId": "0x138b"
      },
      "additionalContracts": [],
      "isFixedGasLimit": false
    },
    {
      "hash": "0x9f8d4f30d13f72d51f059474e2e13f4b8587970e4bf2d71fb4c51f0ffa8daa39",
      "transactionType": "CALL",
      "contractName": "KubiStreamerDonation",
      "contractAddress": "0xae8ca6c5d6b40bb85ad3e1d5daf19038570aef31",
      "function": "setYieldConfig(address,address,bool,uint256)",
      "arguments": [
        "0xfCbFBaf16A7b392F5963232fC3d7bb81238a4Fc1",
        "0x33c6f26dA09502E6540043f030aE1F87f109cc99",
        "true",
        "0"
      ],
      "transaction": {
        "from": "0x1234562eb0cd65e7d08e59f9f18d7c10b5df232a",
        "to": "0xae8ca6c5d6b40bb85ad3e1d5daf19038570aef31",
        "gas": "0x6ce6c23",
        "value": "0x0",
        "input": "0x0c495f96000000000000000000000000fcbfbaf16a7b392f5963232fc3d7bb81238a4fc100000000000000000000000033c6f26da09502e6540043f030ae1f87f109cc9900000000000000000000000000000000000000000000000000000000000000010000000000000000000000000000000000000000000000000000000000000000",
        "nonce": "0x1ab",
        "chainId": "0x138b"
      },
      "additionalContracts": [],
      "isFixedGasLimit": false
    },
    {
      "hash": "0x3691879b8b44106f0ebdc6e1ed9d1a40e93272fc821365e2e382c93828216df1",
      "transactionType": "CALL",
      "contractName": "KubiStreamerDonation",
      "contractAddress": "0xae8ca6c5d6b40bb85ad3e1d5daf19038570aef31",
      "function": "setYieldConfig(address,address,bool,uint256)",
      "arguments": [
        "0x0dF313cE12b511062eCe811e435F0729E7c9746f",
        "0xced6Ceb47301F268d57fF07879DF45Fda80e6974",
        "true",
        "0"
      ],
      "transaction": {
        "from": "0x1234562eb0cd65e7d08e59f9f18d7c10b5df232a",
        "to": "0xae8ca6c5d6b40bb85ad3e1d5daf19038570aef31",
        "gas": "0x6d0a231",
        "value": "0x0",
        "input": "0x0c495f960000000000000000000000000df313ce12b511062ece811e435f0729e7c9746f000000000000000000000000ced6ceb47301f268d57ff07879df45fda80e697400000000000000000000000000000000000000000000000000000000000000010000000000000000000000000000000000000000000000000000000000000000",
        "nonce": "0x1ac",
        "chainId": "0x138b"
      },
      "additionalContracts": [],
      "isFixedGasLimit": false
    },
    {
      "hash": "0x27856b42251d05b44b04857b2ca75e79f5556c3d3b415552649e10de42b62bc4",
      "transactionType": "CALL",
      "contractName": "KubiStreamerDonation",
      "contractAddress": "0xae8ca6c5d6b40bb85ad3e1d5daf19038570aef31",
      "function": "setYieldConfig(address,address,bool,uint256)",
      "arguments": [
        "0xB1eF139d2f4D56B126196D9FF712b67e120c0349",
        "0x7CB382Ce1AA40FA9F9A59a632090c05Dc28caE7b",
        "true",
        "0"
      ],
      "transaction": {
        "from": "0x1234562eb0cd65e7d08e59f9f18d7c10b5df232a",
        "to": "0xae8ca6c5d6b40bb85ad3e1d5daf19038570aef31",
        "gas": "0x6d0a231",
        "value": "0x0",
        "input": "0x0c495f96000000000000000000000000b1ef139d2f4d56b126196d9ff712b67e120c03490000000000000000000000007cb382ce1aa40fa9f9a59a632090c05dc28cae7b00000000000000000000000000000000000000000000000000000000000000010000000000000000000000000000000000000000000000000000000000000000",
        "nonce": "0x1ad",
        "chainId": "0x138b"
      },
      "additionalContracts": [],
      "isFixedGasLimit": false
    },
    {
      "hash": "0xb94e9a41220a2bfbad1e16516d204395ea46df4308b0dcb46f398f3483e7ba83",
      "transactionType": "CALL",
      "contractName": "KubiStreamerDonation",
      "contractAddress": "0xae8ca6c5d6b40bb85ad3e1d5daf19038570aef31",
      "function": "setYieldConfig(address,address,bool,uint256)",
      "arguments": [
        "0x324Db0D78D0225431A2bD49470018b322a006833",
        "0xB288Ba5B5b80Dd0Fd83541ef2e5922f71121Fa13",
        "true",
        "0"
      ],
      "transaction": {
        "from": "0x1234562eb0cd65e7d08e59f9f18d7c10b5df232a",
        "to": "0xae8ca6c5d6b40bb85ad3e1d5daf19038570aef31",
        "gas": "0x6ce6c23",
        "value": "0x0",
        "input": "0x0c495f96000000000000000000000000324db0d78d0225431a2bd49470018b322a006833000000000000000000000000b288ba5b5b80dd0fd83541ef2e5922f71121fa1300000000000000000000000000000000000000000000000000000000000000010000000000000000000000000000000000000000000000000000000000000000",
        "nonce": "0x1ae",
        "chainId": "0x138b"
      },
      "additionalContracts": [],
      "isFixedGasLimit": false
    },
    {
      "hash": "0xd3a81d9a3a87cbb39db94ec0b883cf2e4bb926f921070834e4f063ad9e3de33a",
      "transactionType": "CALL",
      "contractName": "KubiStreamerDonation",
      "contractAddress": "0xae8ca6c5d6b40bb85ad3e1d5daf19038570aef31",
      "function": "setYieldConfig(address,address,bool,uint256)",
      "arguments": [
        "0xbF1dC15Eaa6449d5bf81463578808313F5e208Ee",
        "0xC4a53c466Cfb62AecED03008B0162baaf36E0B03",
        "true",
        "0"
      ],
      "transaction": {
        "from": "0x1234562eb0cd65e7d08e59f9f18d7c10b5df232a",
        "to": "0xae8ca6c5d6b40bb85ad3e1d5daf19038570aef31",
        "gas": "0x6d0a231",
        "value": "0x0",
        "input": "0x0c495f96000000000000000000000000bf1dc15eaa6449d5bf81463578808313f5e208ee000000000000000000000000c4a53c466cfb62aeced03008b0162baaf36e0b0300000000000000000000000000000000000000000000000000000000000000010000000000000000000000000000000000000000000000000000000000000000",
        "nonce": "0x1af",
        "chainId": "0x138b"
      },
      "additionalContracts": [],
      "isFixedGasLimit": false
    },
    {
      "hash": "0x0f91155f3fb6e68992fd6125e1f90ca0b97acd58a23f1d3a488bf9fddfb6724c",
      "transactionType": "CALL",
      "contractName": "KubiStreamerDonation",
      "contractAddress": "0xae8ca6c5d6b40bb85ad3e1d5daf19038570aef31",
      "function": "setYieldConfig(address,address,bool,uint256)",
      "arguments": [
        "0xc79F99285A0f4B640c552090eEab8CAbc4433C1D",
        "0x33c6f26dA09502E6540043f030aE1F87f109cc99",
        "true",
        "0"
      ],
      "transaction": {
        "from": "0x1234562eb0cd65e7d08e59f9f18d7c10b5df232a",
        "to": "0xae8ca6c5d6b40bb85ad3e1d5daf19038570aef31",
        "gas": "0x6ce6c23",
        "value": "0x0",
        "input": "0x0c495f96000000000000000000000000c79f99285a0f4b640c552090eeab8cabc4433c1d00000000000000000000000033c6f26da09502e6540043f030ae1f87f109cc9900000000000000000000000000000000000000000000000000000000000000010000000000000000000000000000000000000000000000000000000000000000",
        "nonce": "0x1b0",
        "chainId": "0x138b"
      },
      "additionalContracts": [],
      "isFixedGasLimit": false
    },
    {
      "hash": "0xc11ba5687f9309b30799fde1ae72501a94277a536d6b7d42b9b0369cf4a7f9f2",
      "transactionType": "CALL",
      "contractName": "KubiStreamerDonation",
      "contractAddress": "0xae8ca6c5d6b40bb85ad3e1d5daf19038570aef31",
      "function": "setYieldConfig(address,address,bool,uint256)",
      "arguments": [
        "0xA5FC97D4eEE36Cf0CF5beE22cF78e74cE9882E81",
        "0xced6Ceb47301F268d57fF07879DF45Fda80e6974",
        "true",
        "0"
      ],
      "transaction": {
        "from": "0x1234562eb0cd65e7d08e59f9f18d7c10b5df232a",
        "to": "0xae8ca6c5d6b40bb85ad3e1d5daf19038570aef31",
        "gas": "0x6d0a231",
        "value": "0x0",
        "input": "0x0c495f96000000000000000000000000a5fc97d4eee36cf0cf5bee22cf78e74ce9882e81000000000000000000000000ced6ceb47301f268d57ff07879df45fda80e697400000000000000000000000000000000000000000000000000000000000000010000000000000000000000000000000000000000000000000000000000000000",
        "nonce": "0x1b1",
        "chainId": "0x138b"
      },
      "additionalContracts": [],
      "isFixedGasLimit": false
    },
    {
      "hash": "0x9a7d06bd897e01d5384344302980e572f9fc1339bc2745396295e343c49c65ab",
      "transactionType": "CALL",
      "contractName": "KubiStreamerDonation",
      "contractAddress": "0xae8ca6c5d6b40bb85ad3e1d5daf19038570aef31",
      "function": "setYieldConfig(address,address,bool,uint256)",
      "arguments": [
        "0xdf3eBc828195ffBc71bB80c467cF70BfDEf0AC1E",
        "0x7CB382Ce1AA40FA9F9A59a632090c05Dc28caE7b",
        "true",
        "0"
      ],
      "transaction": {
        "from": "0x1234562eb0cd65e7d08e59f9f18d7c10b5df232a",
        "to": "0xae8ca6c5d6b40bb85ad3e1d5daf19038570aef31",
        "gas": "0x6d0a231",
        "value": "0x0",
        "input": "0x0c495f96000000000000000000000000df3ebc828195ffbc71bb80c467cf70bfdef0ac1e0000000000000000000000007cb382ce1aa40fa9f9a59a632090c05dc28cae7b00000000000000000000000000000000000000000000000000000000000000010000000000000000000000000000000000000000000000000000000000000000",
        "nonce": "0x1b2",
        "chainId": "0x138b"
      },
      "additionalContracts": [],
      "isFixedGasLimit": false
    },
    {
      "hash": "0x1eacb4c2f4e5d009f0d687a7d79d603b7cbbaf8edcfee10b12d7ac7c36697ea0",
      "transactionType": "CALL",
      "contractName": "KubiStreamerDonation",
      "contractAddress": "0xae8ca6c5d6b40bb85ad3e1d5daf19038570aef31",
      "function": "setYieldConfig(address,address,bool,uint256)",
      "arguments": [
        "0x8edafBaDe92450979DfF2F10449E7917c722AF50",
        "0xB288Ba5B5b80Dd0Fd83541ef2e5922f71121Fa13",
        "true",
        "0"
      ],
      "transaction": {
        "from": "0x1234562eb0cd65e7d08e59f9f18d7c10b5df232a",
        "to": "0xae8ca6c5d6b40bb85ad3e1d5daf19038570aef31",
        "gas": "0x6d0a231",
        "value": "0x0",
        "input": "0x0c495f960000000000000000000000008edafbade92450979dff2f10449e7917c722af50000000000000000000000000b288ba5b5b80dd0fd83541ef2e5922f71121fa1300000000000000000000000000000000000000000000000000000000000000010000000000000000000000000000000000000000000000000000000000000000",
        "nonce": "0x1b3",
        "chainId": "0x138b"
      },
      "additionalContracts": [],
      "isFixedGasLimit": false
    },
    {
      "hash": "0x43add83b0020dce6f18afbd79814625980eed14d63b9b598204941b5d5560601",
      "transactionType": "CALL",
      "contractName": "KubiStreamerDonation",
      "contractAddress": "0xae8ca6c5d6b40bb85ad3e1d5daf19038570aef31",
      "function": "setYieldConfig(address,address,bool,uint256)",
      "arguments": [
        "0xdf5Ca06845d1b2F3ddff5759a493fB5aff68d72d",
        "0xC4a53c466Cfb62AecED03008B0162baaf36E0B03",
        "true",
        "0"
      ],
      "transaction": {
        "from": "0x1234562eb0cd65e7d08e59f9f18d7c10b5df232a",
        "to": "0xae8ca6c5d6b40bb85ad3e1d5daf19038570aef31",
        "gas": "0x6d0a231",
        "value": "0x0",
        "input": "0x0c495f96000000000000000000000000df5ca06845d1b2f3ddff5759a493fb5aff68d72d000000000000000000000000c4a53c466cfb62aeced03008b0162baaf36e0b0300000000000000000000000000000000000000000000000000000000000000010000000000000000000000000000000000000000000000000000000000000000",
        "nonce": "0x1b4",
        "chainId": "0x138b"
      },
      "additionalContracts": [],
      "isFixedGasLimit": false
    },
    {
      "hash": "0x79c81abee964e07b12b161e75e82ad3838c807c9b1a0554f2ece5f0cfdfd6a79",
      "transactionType": "CALL",
      "contractName": "KubiStreamerDonation",
      "contractAddress": "0xae8ca6c5d6b40bb85ad3e1d5daf19038570aef31",
      "function": "setYieldConfig(address,address,bool,uint256)",
      "arguments": [
        "0xBfc03BA44AcA79cFe6732968f99E9DB0B3880828",
        "0x33c6f26dA09502E6540043f030aE1F87f109cc99",
        "true",
        "0"
      ],
      "transaction": {
        "from": "0x1234562eb0cd65e7d08e59f9f18d7c10b5df232a",
        "to": "0xae8ca6c5d6b40bb85ad3e1d5daf19038570aef31",
        "gas": "0x6ce6c23",
        "value": "0x0",
        "input": "0x0c495f96000000000000000000000000bfc03ba44aca79cfe6732968f99e9db0b388082800000000000000000000000033c6f26da09502e6540043f030ae1f87f109cc9900000000000000000000000000000000000000000000000000000000000000010000000000000000000000000000000000000000000000000000000000000000",
        "nonce": "0x1b5",
        "chainId": "0x138b"
      },
      "additionalContracts": [],
      "isFixedGasLimit": false
    },
    {
      "hash": "0xdc8ce2ef0c990ecb5a7f72dac3136df86033155550a2588b068f1bf3d8678be1",
      "transactionType": "CALL",
      "contractName": "KubiStreamerDonation",
      "contractAddress": "0xae8ca6c5d6b40bb85ad3e1d5daf19038570aef31",
      "function": "setYieldConfig(address,address,bool,uint256)",
      "arguments": [
        "0x4E55B3951d334aF5a88474d252f789911E1EFc55",
        "0xced6Ceb47301F268d57fF07879DF45Fda80e6974",
        "true",
        "0"
      ],
      "transaction": {
        "from": "0x1234562eb0cd65e7d08e59f9f18d7c10b5df232a",
        "to": "0xae8ca6c5d6b40bb85ad3e1d5daf19038570aef31",
        "gas": "0x6d0a231",
        "value": "0x0",
        "input": "0x0c495f960000000000000000000000004e55b3951d334af5a88474d252f789911e1efc55000000000000000000000000ced6ceb47301f268d57ff07879df45fda80e697400000000000000000000000000000000000000000000000000000000000000010000000000000000000000000000000000000000000000000000000000000000",
        "nonce": "0x1b6",
        "chainId": "0x138b"
      },
      "additionalContracts": [],
      "isFixedGasLimit": false
    },
    {
      "hash": "0x9f5ab9e94bf07063d4ddc2e6ea59141452d36b08cd3bba436349bae29351913e",
      "transactionType": "CALL",
      "contractName": "KubiStreamerDonation",
      "contractAddress": "0xae8ca6c5d6b40bb85ad3e1d5daf19038570aef31",
      "function": "setYieldConfig(address,address,bool,uint256)",
      "arguments": [
        "0xE54116B3FA1623EB5aAC2ED4628002ceE620E9D8",
        "0x7CB382Ce1AA40FA9F9A59a632090c05Dc28caE7b",
        "true",
        "0"
      ],
      "transaction": {
        "from": "0x1234562eb0cd65e7d08e59f9f18d7c10b5df232a",
        "to": "0xae8ca6c5d6b40bb85ad3e1d5daf19038570aef31",
        "gas": "0x6d0a231",
        "value": "0x0",
        "input": "0x0c495f96000000000000000000000000e54116b3fa1623eb5aac2ed4628002cee620e9d80000000000000000000000007cb382ce1aa40fa9f9a59a632090c05dc28cae7b00000000000000000000000000000000000000000000000000000000000000010000000000000000000000000000000000000000000000000000000000000000",
        "nonce": "0x1b7",
        "chainId": "0x138b"
      },
      "additionalContracts": [],
      "isFixedGasLimit": false
    }
  ],
  "receipts": [
    {
      "status": "0x1",
      "cumulativeGasUsed": "0x1ff4e0c7e",
      "logs": [
        {
          "address": "0xae8ca6c5d6b40bb85ad3e1d5daf19038570aef31",
          "topics": [
            "0x8be0079c531659141344cd1fd0a4f28419497f9722a3daafe3b4186f6b6457e0",
            "0x0000000000000000000000000000000000000000000000000000000000000000",
            "0x0000000000000000000000004e59b44847b379578588920ca78fbf26c0b4956c"
          ],
          "data": "0x",
          "blockHash": "0xba784d12f8e97f4ea3b49d41b7eb2feeab1a82bd2a97b1306b306390893934cf",
          "blockNumber": "0x1f4debd",
          "blockTimestamp": "0x6955405b",
          "transactionHash": "0x0d48103ebcb0d8702320be44f4749a13cc4f53cf1376c43163405bee26c25d0b",
          "transactionIndex": "0x1",
          "logIndex": "0x0",
          "removed": false
        },
        {
          "address": "0xae8ca6c5d6b40bb85ad3e1d5daf19038570aef31",
          "topics": [
            "0x8be0079c531659141344cd1fd0a4f28419497f9722a3daafe3b4186f6b6457e0",
            "0x0000000000000000000000004e59b44847b379578588920ca78fbf26c0b4956c",
            "0x0000000000000000000000001234562eb0cd65e7d08e59f9f18d7c10b5df232a"
          ],
          "data": "0x",
          "blockHash": "0xba784d12f8e97f4ea3b49d41b7eb2feeab1a82bd2a97b1306b306390893934cf",
          "blockNumber": "0x1f4debd",
          "blockTimestamp": "0x6955405b",
          "transactionHash": "0x0d48103ebcb0d8702320be44f4749a13cc4f53cf1376c43163405bee26c25d0b",
          "transactionIndex": "0x1",
          "logIndex": "0x1",
          "removed": false
        }
      ],
      "logsBloom": "0x00000000000000000000000000000000000000000000000000800000000200000000000000000000000000000000000000000000000000000000000000000000000000000000000020000000000000000001000000000000000000000000000000000000020000000000000000000800000000020000000000000000000000400000000000000000000000000000000000000000001200000000000000000000020000000001000000000000000000000000000000000000000000000000000000000000000000000000000000000000000000000000000000000000000020000000000000000000000000000010000080000000000000000000000000000000",
      "type": "0x2",
      "transactionHash": "0x0d48103ebcb0d8702320be44f4749a13cc4f53cf1376c43163405bee26c25d0b",
      "transactionIndex": "0x1",
      "blockHash": "0xba784d12f8e97f4ea3b49d41b7eb2feeab1a82bd2a97b1306b306390893934cf",
      "blockNumber": "0x1f4debd",
      "gasUsed": "0x1ff4d5579",
      "effectiveGasPrice": "0x1312d01",
      "from": "0x1234562eb0cd65e7d08e59f9f18d7c10b5df232a",
      "to": "0x4e59b44847b379578588920ca78fbf26c0b4956c",
      "contractAddress": null,
      "l1Fee": "0xf8368f0cc",
      "l1FeeScalar": "0.01",
      "l1GasPrice": "0x2989",
      "l1GasUsed": "0x31ccc",
      "tokenRatio": "0xc00"
    },
    {
      "status": "0x1",
      "cumulativeGasUsed": "0x55c4d1b",
      "logs": [],
      "logsBloom": "0x00000000000000000000000000000000000000000000000000000000000000000000000000000000000000000000000000000000000000000000000000000000000000000000000000000000000000000000000000000000000000000000000000000000000000000000000000000000000000000000000000000000000000000000000000000000000000000000000000000000000000000000000000000000000000000000000000000000000000000000000000000000000000000000000000000000000000000000000000000000000000000000000000000000000000000000000000000000000000000000000000000000000000000000000000000000",
      "type": "0x2",
      "transactionHash": "0xe79ee0b85cbdc35077379e91b583eb2edcd33fbd988e8f56d7a466c48422c9bb",
      "transactionIndex": "0x1",
      "blockHash": "0x4c6316cdd08ba8a97bb7ca66a58ed79d7a8f68798de7222640e0fb06a3ada7bd",
      "blockNumber": "0x1f4dec1",
      "gasUsed": "0x55b9616",
      "effectiveGasPrice": "0x1312d01",
      "from": "0x1234562eb0cd65e7d08e59f9f18d7c10b5df232a",
      "to": "0xae8ca6c5d6b40bb85ad3e1d5daf19038570aef31",
      "contractAddress": null,
      "l1Fee": "0x2a35c947",
      "l1FeeScalar": "0.01",
      "l1GasPrice": "0x2989",
      "l1GasUsed": "0x878",
      "tokenRatio": "0xc00"
    },
    {
      "status": "0x1",
      "cumulativeGasUsed": "0x8bb9396",
      "logs": [
        {
          "address": "0xae8ca6c5d6b40bb85ad3e1d5daf19038570aef31",
          "topics": [
            "0xac90355684e2710fa34c2c7d500018678b146ea2d56ddc331c63d242ee8bf385",
            "0x00000000000000000000000033c6f26da09502e6540043f030ae1f87f109cc99"
          ],
          "data": "0x0000000000000000000000000000000000000000000000000000000000000001",
          "blockHash": "0x5fa383616ffa02f546e1c5a3edf7dbf408ff50b83aee83fef6a8201635e9c2bb",
          "blockNumber": "0x1f4dec7",
          "blockTimestamp": "0x6955406f",
          "transactionHash": "0x05526013a203b0901dd642d075a55f99185f991fae31bc888f81371c8fce9b26",
          "transactionIndex": "0x1",
          "logIndex": "0x0",
          "removed": false
        }
      ],
      "logsBloom": "0x00000000000000000200000000000000000000000000000000000000000200000000000000000000000000000000000000000000000000000010000000000000000000000000000000000000000000000000000000000000000000000000000000000000000000000000000000000000000000020008000000000000002000000000000000000000000010000000000000000200000000000000000000000000000000000000000000000000000000000000000000000000000000000000000000000000000000000000000000000000000000000000000000000000000000000000000000000000000000000010000000000000000000000000000000000000",
      "type": "0x2",
      "transactionHash": "0x05526013a203b0901dd642d075a55f99185f991fae31bc888f81371c8fce9b26",
      "transactionIndex": "0x1",
      "blockHash": "0x5fa383616ffa02f546e1c5a3edf7dbf408ff50b83aee83fef6a8201635e9c2bb",
      "blockNumber": "0x1f4dec7",
      "gasUsed": "0x8badc91",
      "effectiveGasPrice": "0x1312d01",
      "from": "0x1234562eb0cd65e7d08e59f9f18d7c10b5df232a",
      "to": "0xae8ca6c5d6b40bb85ad3e1d5daf19038570aef31",
      "contractAddress": null,
      "l1Fee": "0x37834ccc",
      "l1FeeScalar": "0.01",
      "l1GasPrice": "0x2ea0",
      "l1GasUsed": "0x9ec",
      "tokenRatio": "0xc00"
    },
    {
      "status": "0x1",
      "cumulativeGasUsed": "0x8bc4ebb",
      "logs": [
        {
          "address": "0xae8ca6c5d6b40bb85ad3e1d5daf19038570aef31",
          "topics": [
            "0xac90355684e2710fa34c2c7d500018678b146ea2d56ddc331c63d242ee8bf385",
            "0x0000000000000000000000007cb382ce1aa40fa9f9a59a632090c05dc28cae7b"
          ],
          "data": "0x0000000000000000000000000000000000000000000000000000000000000001",
          "blockHash": "0x60a3ba93f5994e01c8f2a92a20a132a830e8544720f5852fb9e612f298d8ac49",
          "blockNumber": "0x1f4decb",
          "blockTimestamp": "0x69554077",
          "transactionHash": "0x5c6cf6f9c98ce7a634fa6343dd2ffb2899a5b2f071a968060048e85bbcdab11b",
          "transactionIndex": "0x1",
          "logIndex": "0x0",
          "removed": false
        }
      ],
      "logsBloom": "0x00000000000000000200000000000000000000000000000000000000000200000000000000000000000800000000000000000000000000000010000000000000000000000000000000000000000000000000004000000000000002000000000000000000000000000000000000000000000000020000000000000000002000000000000000000000000000000000000000000000000000000000000000000000000000000000000000000000000000000000000000000000000000000000000000000000000000000000000000000000000000000000000000000000000000000000000000000000000000000010000000000000000000000000000000000000",
      "type": "0x2",
      "transactionHash": "0x5c6cf6f9c98ce7a634fa6343dd2ffb2899a5b2f071a968060048e85bbcdab11b",
      "transactionIndex": "0x1",
      "blockHash": "0x60a3ba93f5994e01c8f2a92a20a132a830e8544720f5852fb9e612f298d8ac49",
      "blockNumber": "0x1f4decb",
      "gasUsed": "0x8bb76fe",
      "effectiveGasPrice": "0x1312d01",
      "from": "0x1234562eb0cd65e7d08e59f9f18d7c10b5df232a",
      "to": "0xae8ca6c5d6b40bb85ad3e1d5daf19038570aef31",
      "contractAddress": null,
      "l1Fee": "0x3ebe0c7a",
      "l1FeeScalar": "0.01",
      "l1GasPrice": "0x3473",
      "l1GasUsed": "0x9f8",
      "tokenRatio": "0xc00"
    },
    {
      "status": "0x1",
      "cumulativeGasUsed": "0x8bc2df7",
      "logs": [
        {
          "address": "0xae8ca6c5d6b40bb85ad3e1d5daf19038570aef31",
          "topics": [
            "0xac90355684e2710fa34c2c7d500018678b146ea2d56ddc331c63d242ee8bf385",
            "0x000000000000000000000000b288ba5b5b80dd0fd83541ef2e5922f71121fa13"
          ],
          "data": "0x0000000000000000000000000000000000000000000000000000000000000001",
          "blockHash": "0xcbf1f22a3184820f1358393b77dc55f2813cc1256ba1c4aa53ba15ce9595a102",
          "blockNumber": "0x1f4decf",
          "blockTimestamp": "0x6955407f",
          "transactionHash": "0x529e1d486c22b6370e225cb36223e61cc4db2ffca585f2f247f1ca38450a2874",
          "transactionIndex": "0x1",
          "logIndex": "0x0",
          "removed": false
        }
      ],
      "logsBloom": "0x00000000000000000200000000000000000000000000000000000000000200000000000000000000000000000000000000000000000000000010000000000000000000000000000000000000000000000000000000000000000000000000000000000000000000000000000000000000000000020000000000000000002000000000000000000000000000000000000000000000000000000002000000000400000000000000000000000000000000000000000000000000000000000000000000000000000000000000000000000000000000000000000000000000000000000000000000000000000000000010000000000000000000800000000000000000",
      "type": "0x2",
      "transactionHash": "0x529e1d486c22b6370e225cb36223e61cc4db2ffca585f2f247f1ca38450a2874",
      "transactionIndex": "0x1",
      "blockHash": "0xcbf1f22a3184820f1358393b77dc55f2813cc1256ba1c4aa53ba15ce9595a102",
      "blockNumber": "0x1f4decf",
      "gasUsed": "0x8bb76fe",
      "effectiveGasPrice": "0x1312d01",
      "from": "0x1234562eb0cd65e7d08e59f9f18d7c10b5df232a",
      "to": "0xae8ca6c5d6b40bb85ad3e1d5daf19038570aef31",
      "contractAddress": null,
      "l1Fee": "0x3ebe0c7a",
      "l1FeeScalar": "0.01",
      "l1GasPrice": "0x3473",
      "l1GasUsed": "0x9f8",
      "tokenRatio": "0xc00"
    },
    {
      "status": "0x1",
      "cumulativeGasUsed": "0x8bc2df7",
      "logs": [
        {
          "address": "0xae8ca6c5d6b40bb85ad3e1d5daf19038570aef31",
          "topics": [
            "0xac90355684e2710fa34c2c7d500018678b146ea2d56ddc331c63d242ee8bf385",
            "0x000000000000000000000000c4a53c466cfb62aeced03008b0162baaf36e0b03"
          ],
          "data": "0x0000000000000000000000000000000000000000000000000000000000000001",
          "blockHash": "0xb3bb2dc53ace4df95976c633408e9e4937d7bee1e26aa222ba1c4a123e1dc69a",
          "blockNumber": "0x1f4ded3",
          "blockTimestamp": "0x69554087",
          "transactionHash": "0x3a9535706a152e67edb0f368efa6369a5b9a2e9249fcafd5cb7df3f3ce910010",
          "transactionIndex": "0x1",
          "logIndex": "0x0",
          "removed": false
        }
      ],
      "logsBloom": "0x00000000000000000200000000000000000000000000000000000000000200000000000000000000000000000000000000000000000000000010000000000000000000000000000000000000000000000000000000000000000000000000000000000004000000000000000000000000000000020000000000000000002000000000000000000000000000040000000000000000000000000000000000000000000000000000400000000000000000000000000000000000000000000000000000000000000000000000000000000000000000000000000000000000000000000000000000000000000000000010000000000000000000000000000000000000",
      "type": "0x2",
      "transactionHash": "0x3a9535706a152e67edb0f368efa6369a5b9a2e9249fcafd5cb7df3f3ce910010",
      "transactionIndex": "0x1",
      "blockHash": "0xb3bb2dc53ace4df95976c633408e9e4937d7bee1e26aa222ba1c4a123e1dc69a",
      "blockNumber": "0x1f4ded3",
      "gasUsed": "0x8bb76fe",
      "effectiveGasPrice": "0x1312d01",
      "from": "0x1234562eb0cd65e7d08e59f9f18d7c10b5df232a",
      "to": "0xae8ca6c5d6b40bb85ad3e1d5daf19038570aef31",
      "contractAddress": null,
      "l1Fee": "0x469428f5",
      "l1FeeScalar": "0.01",
      "l1GasPrice": "0x3b00",
      "l1GasUsed": "0x9f8",
      "tokenRatio": "0xc00"
    },
    {
      "status": "0x1",
      "cumulativeGasUsed": "0x8bc2df7",
      "logs": [
        {
          "address": "0xae8ca6c5d6b40bb85ad3e1d5daf19038570aef31",
          "topics": [
            "0xac90355684e2710fa34c2c7d500018678b146ea2d56ddc331c63d242ee8bf385",
            "0x00000000000000000000000070db6efb75c898ad1e194fda2b8c6e73dbc944d6"
          ],
          "data": "0x0000000000000000000000000000000000000000000000000000000000000001",
          "blockHash": "0x1522aff81659e0ba7379feeb05ae53785efb3826c11eaaffbda1c62defa3c36b",
          "blockNumber": "0x1f4ded6",
          "blockTimestamp": "0x6955408d",
          "transactionHash": "0x5b987de22559b3a0b48d2afbe51512685a79ec91c1fda29091643fd32204daf1",
          "transactionIndex": "0x1",
          "logIndex": "0x0",
          "removed": false
        }
      ],
      "logsBloom": "0x00000000000000000200000000000000000000000000000000000000000200000000000000000000000000000000000000080000000000000010000000000000000000000000000000000000000000000000000000000000000000000000000000000000000000000000000000000000000000020000000000000000002000000000000000000000000000000000000000000000000400000000000000000000000000000000000000000000000000000000000000000000000000000000000000000000000000000000000000000000000000000000000000080000000000000000000000000000000000000010000000000000000000000000000000000000",
      "type": "0x2",
      "transactionHash": "0x5b987de22559b3a0b48d2afbe51512685a79ec91c1fda29091643fd32204daf1",
      "transactionIndex": "0x1",
      "blockHash": "0x1522aff81659e0ba7379feeb05ae53785efb3826c11eaaffbda1c62defa3c36b",
      "blockNumber": "0x1f4ded6",
      "gasUsed": "0x8bb76fe",
      "effectiveGasPrice": "0x1312d01",
      "from": "0x1234562eb0cd65e7d08e59f9f18d7c10b5df232a",
      "to": "0xae8ca6c5d6b40bb85ad3e1d5daf19038570aef31",
      "contractAddress": null,
      "l1Fee": "0x469428f5",
      "l1FeeScalar": "0.01",
      "l1GasPrice": "0x3b00",
      "l1GasUsed": "0x9f8",
      "tokenRatio": "0xc00"
    },
    {
      "status": "0x1",
      "cumulativeGasUsed": "0x8bc2deb",
      "logs": [
        {
          "address": "0xae8ca6c5d6b40bb85ad3e1d5daf19038570aef31",
          "topics": [
            "0xac90355684e2710fa34c2c7d500018678b146ea2d56ddc331c63d242ee8bf385",
            "0x000000000000000000000000ee589fbf85128aba6f42696db2f28ea9ebdde173"
          ],
          "data": "0x0000000000000000000000000000000000000000000000000000000000000001",
          "blockHash": "0x6c2173343e740e91c2626f748f270dc6ea4eab1d161cc97b1cf4c1930e347951",
          "blockNumber": "0x1f4deda",
          "blockTimestamp": "0x69554095",
          "transactionHash": "0x532a9315832f0addb2f663b1310446fba6293b24ae403e1e823df26eff77f6b9",
          "transactionIndex": "0x1",
          "logIndex": "0x0",
          "removed": false
        }
      ],
      "logsBloom": "0x00000000000000000200000020000000000000000000000000000000000200000000000000000000000000000000000000000000000000000010000000000000000000000000000000000000000000000000000000000000000000000000000000000000000000000000000000000000000000020000000000000000002000000000000000000000000000000000000000000000000000000000000000000000000000000000000000000000000000000000000000000000000000000000000000000000000000000000000000000000000000000000400000000000000000000000000000000000000000000090000000000000000000000000000000000000",
      "type": "0x2",
      "transactionHash": "0x532a9315832f0addb2f663b1310446fba6293b24ae403e1e823df26eff77f6b9",
      "transactionIndex": "0x1",
      "blockHash": "0x6c2173343e740e91c2626f748f270dc6ea4eab1d161cc97b1cf4c1930e347951",
      "blockNumber": "0x1f4deda",
      "gasUsed": "0x8bb76fe",
      "effectiveGasPrice": "0x1312d01",
      "from": "0x1234562eb0cd65e7d08e59f9f18d7c10b5df232a",
      "to": "0xae8ca6c5d6b40bb85ad3e1d5daf19038570aef31",
      "contractAddress": null,
      "l1Fee": "0x4f644999",
      "l1FeeScalar": "0.01",
      "l1GasPrice": "0x425e",
      "l1GasUsed": "0x9f8",
      "tokenRatio": "0xc00"
    },
    {
      "status": "0x1",
      "cumulativeGasUsed": "0x8bbd662",
      "logs": [
        {
          "address": "0xae8ca6c5d6b40bb85ad3e1d5daf19038570aef31",
          "topics": [
            "0xac90355684e2710fa34c2c7d500018678b146ea2d56ddc331c63d242ee8bf385",
            "0x0000000000000000000000002c036be74942c597e4d81d7050008ddc11becceb"
          ],
          "data": "0x0000000000000000000000000000000000000000000000000000000000000001",
          "blockHash": "0xf17347fca80004245d54877b4669b9722a25eec882140f4343e5edcadd02da5a",
          "blockNumber": "0x1f4dede",
          "blockTimestamp": "0x6955409d",
          "transactionHash": "0x802c270b57e0142d4203f235340b8aa1f4ca7dd1f3d05aeb7998c13b2c4d2925",
          "transactionIndex": "0x1",
          "logIndex": "0x0",
          "removed": false
        }
      ],
      "logsBloom": "0x00000000000000000200000000000000000000000000000000000000000200000000000000000000000000000000000000000000000000000010000000000000000000000000000000000000000000000000000000000000000010000000000000000000000000000000000000000000000000020000000000000000002000000000000000000000000000000000000000000000000000000000000000000000000000000000000000000000000000008000000000000000000000000000000000000000000000000000000000000000000000000000000000000000000000000000000000000000000000000010000000000000000000000000000000000002",
      "type": "0x2",
      "transactionHash": "0x802c270b57e0142d4203f235340b8aa1f4ca7dd1f3d05aeb7998c13b2c4d2925",
      "transactionIndex": "0x1",
      "blockHash": "0xf17347fca80004245d54877b4669b9722a25eec882140f4343e5edcadd02da5a",
      "blockNumber": "0x1f4dede",
      "gasUsed": "0x8badc91",
      "effectiveGasPrice": "0x1312d01",
      "from": "0x1234562eb0cd65e7d08e59f9f18d7c10b5df232a",
      "to": "0xae8ca6c5d6b40bb85ad3e1d5daf19038570aef31",
      "contractAddress": null,
      "l1Fee": "0x58e33999",
      "l1FeeScalar": "0.01",
      "l1GasPrice": "0x4aa8",
      "l1GasUsed": "0x9ec",
      "tokenRatio": "0xc00"
    },
    {
      "status": "0x1",
      "cumulativeGasUsed": "0x8bc2e03",
      "logs": [
        {
          "address": "0xae8ca6c5d6b40bb85ad3e1d5daf19038570aef31",
          "topics": [
            "0xac90355684e2710fa34c2c7d500018678b146ea2d56ddc331c63d242ee8bf385",
            "0x00000000000000000000000090cdcbf4c4bc78dc440252211efd744d0a4dc4a1"
          ],
          "data": "0x0000000000000000000000000000000000000000000000000000000000000001",
          "blockHash": "0x9c46c370d97b6183dd845adac97d5129a3f5b90c3285d2a554a400cfe589b064",
          "blockNumber": "0x1f4dee2",
          "blockTimestamp": "0x695540a5",
          "transactionHash": "0x460baffae0336e2b1bca6012d608bb4bbc7d65c860b3e30ac903fa049db69acf",
          "transactionIndex": "0x1",
          "logIndex": "0x0",
          "removed": false
        }
      ],
      "logsBloom": "0x00000000000000000200000000000000000000000000000010000000000200000000000000000000000000000000000000000000000000200010000000000000000000000000000000000000000000000000000000000000000000000000000000000000000000000000000000000000000000020000000000000000002000000000000000000000000000000000000000000000000000000000000000000000000000000000000000000000000000000000000000000000000000000000000000000000000000000000000000000000000000000000000000000000000000000000000000000000000000080010000000000000000000000000000000000000",
      "type": "0x2",
      "transactionHash": "0x460baffae0336e2b1bca6012d608bb4bbc7d65c860b3e30ac903fa049db69acf",
      "transactionIndex": "0x1",
      "blockHash": "0x9c46c370d97b6183dd845adac97d5129a3f5b90c3285d2a554a400cfe589b064",
      "blockNumber": "0x1f4dee2",
      "gasUsed": "0x8bb76fe",
      "effectiveGasPrice": "0x1312d01",
      "from": "0x1234562eb0cd65e7d08e59f9f18d7c10b5df232a",
      "to": "0xae8ca6c5d6b40bb85ad3e1d5daf19038570aef31",
      "contractAddress": null,
      "l1Fee": "0x594ebae1",
      "l1FeeScalar": "0.01",
      "l1GasPrice": "0x4aa8",
      "l1GasUsed": "0x9f8",
      "tokenRatio": "0xc00"
    },
    {
      "status": "0x1",
      "cumulativeGasUsed": "0x8bc2e03",
      "logs": [
        {
          "address": "0xae8ca6c5d6b40bb85ad3e1d5daf19038570aef31",
          "topics": [
            "0xac90355684e2710fa34c2c7d500018678b146ea2d56ddc331c63d242ee8bf385",
            "0x000000000000000000000000ced6ceb47301f268d57ff07879df45fda80e6974"
          ],
          "data": "0x0000000000000000000000000000000000000000000000000000000000000001",
          "blockHash": "0x394115dc68bf03a4fffacb9ecdaee12a2a0ad81c81f5ff25582d47fcd1fc992c",
          "blockNumber": "0x1f4dee6",
          "blockTimestamp": "0x695540ad",
          "transactionHash": "0x581ab1564eb6138d48ecadec440fe0b895d2f80307cfc1751fa252b3c6201627",
          "transactionIndex": "0x1",
          "logIndex": "0x0",
          "removed": false
        }
      ],
      "logsBloom": "0x00000000000000000200000800000000000000000000000000000000000200000000000000000000000000000080000000000000000000000010000000000000000000000000000000000000000000000000000000000000000000000000000000000000000000000000000000000000000000020000000000000000002000000000000000000000000000000000000000000000000000000000000000000000000000000000000000000000000000000000000000000000000000000000000000000000000000000000000000000000000000000000002000000000000000000000000000000000000000000010000000000000000000000000000000000000",
      "type": "0x2",
      "transactionHash": "0x581ab1564eb6138d48ecadec440fe0b895d2f80307cfc1751fa252b3c6201627",
      "transactionIndex": "0x1",
      "blockHash": "0x394115dc68bf03a4fffacb9ecdaee12a2a0ad81c81f5ff25582d47fcd1fc992c",
      "blockNumber": "0x1f4dee6",
      "gasUsed": "0x8bb76fe",
      "effectiveGasPrice": "0x1312d01",
      "from": "0x1234562eb0cd65e7d08e59f9f18d7c10b5df232a",
      "to": "0xae8ca6c5d6b40bb85ad3e1d5daf19038570aef31",
      "contractAddress": null,
      "l1Fee": "0x64776000",
      "l1FeeScalar": "0.01",
      "l1GasPrice": "0x53fc",
      "l1GasUsed": "0x9f8",
      "tokenRatio": "0xc00"
    },
    {
      "status": "0x1",
      "cumulativeGasUsed": "0x8bc4ec7",
      "logs": [
        {
          "address": "0xae8ca6c5d6b40bb85ad3e1d5daf19038570aef31",
          "topics": [
            "0xac90355684e2710fa34c2c7d500018678b146ea2d56ddc331c63d242ee8bf385",
            "0x000000000000000000000000782ba48189af93a0cf42766058de83291f384bf3"
          ],
          "data": "0x0000000000000000000000000000000000000000000000000000000000000001",
          "blockHash": "0x9ce4e60fd3f5a246776905a8fe70664bbc31571cc533140fa226957b5f1ec965",
          "blockNumber": "0x1f4dee9",
          "blockTimestamp": "0x695540b3",
          "transactionHash": "0x8f1048422d1d4501a2a4de5b1468e7e9143a56309c47baf0ce69b33821e66b6c",
          "transactionIndex": "0x1",
          "logIndex": "0x0",
          "removed": false
        }
      ],
      "logsBloom": "0x00000000000000000200000000000000000020000000000000000000000200000000000000000000000000000000000000000000000000000010000000000000000000000000000000000000000000000000000000000000000000000000000000000000000000000000000000000000000000020000000000000000002000000000000100000000000000000000000000000000000000000000000000000000000000000000000000008000000000000000000000000000000000000000000000000000000000000000000000000000000000000000000000000000000000000000000000000000000000000010000000000000000000000000000000000000",
      "type": "0x2",
      "transactionHash": "0x8f1048422d1d4501a2a4de5b1468e7e9143a56309c47baf0ce69b33821e66b6c",
      "transactionIndex": "0x1",
      "blockHash": "0x9ce4e60fd3f5a246776905a8fe70664bbc31571cc533140fa226957b5f1ec965",
      "blockNumber": "0x1f4dee9",
      "gasUsed": "0x8bb76fe",
      "effectiveGasPrice": "0x1312d01",
      "from": "0x1234562eb0cd65e7d08e59f9f18d7c10b5df232a",
      "to": "0xae8ca6c5d6b40bb85ad3e1d5daf19038570aef31",
      "contractAddress": null,
      "l1Fee": "0x710480a3",
      "l1FeeScalar": "0.01",
      "l1GasPrice": "0x5e7a",
      "l1GasUsed": "0x9f8",
      "tokenRatio": "0xc00"
    },
    {
      "status": "0x1",
      "cumulativeGasUsed": "0x109510a9",
      "logs": [],
      "logsBloom": "0x00000000000000000000000000000000000000000000000000000000000000000000000000000000000000000000000000000000000000000000000000000000000000000000000000000000000000000000000000000000000000000000000000000000000000000000000000000000000000000000000000000000000000000000000000000000000000000000000000000000000000000000000000000000000000000000000000000000000000000000000000000000000000000000000000000000000000000000000000000000000000000000000000000000000000000000000000000000000000000000000000000000000000000000000000000000",
      "type": "0x2",
      "transactionHash": "0x6d040cdcaeff0141a2cb97c09e0040592337f7226b941e8227596fd5cfd2064c",
      "transactionIndex": "0x2",
      "blockHash": "0xe24efac1839068e7e70269047c2d4932e6f90a87e77adff3419755a8d12ed5da",
      "blockNumber": "0x1f4deec",
      "gasUsed": "0xcbbf67e",
      "effectiveGasPrice": "0x1312d01",
      "from": "0x1234562eb0cd65e7d08e59f9f18d7c10b5df232a",
      "to": "0xae8ca6c5d6b40bb85ad3e1d5daf19038570aef31",
      "contractAddress": null,
      "l1Fee": "0x81d8a23d",
      "l1FeeScalar": "0.01",
      "l1GasPrice": "0x5e7a",
      "l1GasUsed": "0xb74",
      "tokenRatio": "0xc00"
    },
    {
      "status": "0x1",
      "cumulativeGasUsed": "0xcbcad83",
      "logs": [],
      "logsBloom": "0x00000000000000000000000000000000000000000000000000000000000000000000000000000000000000000000000000000000000000000000000000000000000000000000000000000000000000000000000000000000000000000000000000000000000000000000000000000000000000000000000000000000000000000000000000000000000000000000000000000000000000000000000000000000000000000000000000000000000000000000000000000000000000000000000000000000000000000000000000000000000000000000000000000000000000000000000000000000000000000000000000000000000000000000000000000000",
      "type": "0x2",
      "transactionHash": "0x0ee2fe89e18be05b168fed67396489f6fcfcb27d24c2164d0abdc1a62a5196f7",
      "transactionIndex": "0x1",
      "blockHash": "0x3d5a326433eeb1aa2b07712bb2e9a0e122ef9630b932330cbb9fac2d02e15609",
      "blockNumber": "0x1f4def0",
      "gasUsed": "0xcbbf67e",
      "effectiveGasPrice": "0x1312d01",
      "from": "0x1234562eb0cd65e7d08e59f9f18d7c10b5df232a",
      "to": "0xae8ca6c5d6b40bb85ad3e1d5daf19038570aef31",
      "contractAddress": null,
      "l1Fee": "0x81d8a23d",
      "l1FeeScalar": "0.01",
      "l1GasPrice": "0x5e7a",
      "l1GasUsed": "0xb74",
      "tokenRatio": "0xc00"
    },
    {
      "status": "0x1",
      "cumulativeGasUsed": "0xdb14bbb",
      "logs": [
        {
          "address": "0xae8ca6c5d6b40bb85ad3e1d5daf19038570aef31",
          "topics": [
            "0x354f0817e377e1e9b2601a5fa1180df29e96ac246a5d02f817a6e3bb4b72a904",
            "0x0000000000000000000000002007cb1a90e71c18983f1d4091261816e9e9c2da",
            "0x000000000000000000000000b288ba5b5b80dd0fd83541ef2e5922f71121fa13"
          ],
          "data": "0x00000000000000000000000000000000000000000000000000000000000000010000000000000000000000000000000000000000000000000000000000000000",
          "blockHash": "0x26416c46725d23d59fe6e599c05b7baa646643cd116a9d903d7679b471771cd6",
          "blockNumber": "0x1f4def3",
          "blockTimestamp": "0x695540c7",
          "transactionHash": "0x1ea93e88389caacaf37849e56afa7dfca8405e2d64e05c9f4cabb10e2247742f",
          "transactionIndex": "0x2",
          "logIndex": "0x0",
          "removed": false
        }
      ],
      "logsBloom": "0x00004000000000000000000000000000000000000000000000000000000200000000000000000000800000000000000000000000000000000000000000000000000000000000000000000000000000000000000000000000000000000000000000000000000000000000000000000000000000020000000000000000000000000000000000000000000000000020000000000000000000000002000000000400000000000000000000000000000000000000000000000000000000000024000000000000000000000000000000000000000004000000000000000000000000000000000000000000000000000010000000000000000000800000000000000000",
      "type": "0x2",
      "transactionHash": "0x1ea93e88389caacaf37849e56afa7dfca8405e2d64e05c9f4cabb10e2247742f",
      "transactionIndex": "0x2",
      "blockHash": "0x26416c46725d23d59fe6e599c05b7baa646643cd116a9d903d7679b471771cd6",
      "blockNumber": "0x1f4def3",
      "gasUsed": "0x9d83190",
      "effectiveGasPrice": "0x1312d01",
      "from": "0x1234562eb0cd65e7d08e59f9f18d7c10b5df232a",
      "to": "0xae8ca6c5d6b40bb85ad3e1d5daf19038570aef31",
      "contractAddress": null,
      "l1Fee": "0x86fbbf5c",
      "l1FeeScalar": "0.01",
      "l1GasPrice": "0x5e7a",
      "l1GasUsed": "0xbe8",
      "tokenRatio": "0xc00"
    },
    {
      "status": "0x1",
      "cumulativeGasUsed": "0x9d92b61",
      "logs": [
        {
          "address": "0xae8ca6c5d6b40bb85ad3e1d5daf19038570aef31",
          "topics": [
            "0x354f0817e377e1e9b2601a5fa1180df29e96ac246a5d02f817a6e3bb4b72a904",
            "0x00000000000000000000000004f0aef9cb921a8ad848fa8b49af7fc2e60dbccb",
            "0x000000000000000000000000c4a53c466cfb62aeced03008b0162baaf36e0b03"
          ],
          "data": "0x00000000000000000000000000000000000000000000000000000000000000010000000000000000000000000000000000000000000000000000000000000000",
          "blockHash": "0xc019845f852f3fe064ae890115163e6216bf7e61b376149ab5a6e02f3f24c163",
          "blockNumber": "0x1f4def7",
          "blockTimestamp": "0x695540cf",
          "transactionHash": "0x5dec676ae93fad4ea782a330506c0e3b57f56e7b175c782b2b553f04ca2720f7",
          "transactionIndex": "0x1",
          "logIndex": "0x0",
          "removed": false
        }
      ],
      "logsBloom": "0x00000000000000000000000000000000008000000000000000000000000200000000000000000000800000000000000000000000000000000000000000000000000000000000000000000002000000000000000000000000000000000000000000000004000000000000000000000000000000020000000000000000000000000000000000000000000000040020000000000000000000000000000000000000000000000000400000000000000000000000000000000000000000000000000000000000000000000000000000000000000004000000000000000000000000000000000000000000002000000010000000000000000000000000000000000000",
      "type": "0x2",
      "transactionHash": "0x5dec676ae93fad4ea782a330506c0e3b57f56e7b175c782b2b553f04ca2720f7",
      "transactionIndex": "0x1",
      "blockHash": "0xc019845f852f3fe064ae890115163e6216bf7e61b376149ab5a6e02f3f24c163",
      "blockNumber": "0x1f4def7",
      "gasUsed": "0x9d83190",
      "effectiveGasPrice": "0x1312d01",
      "from": "0x1234562eb0cd65e7d08e59f9f18d7c10b5df232a",
      "to": "0xae8ca6c5d6b40bb85ad3e1d5daf19038570aef31",
      "contractAddress": null,
      "l1Fee": "0xa52eb6b8",
      "l1FeeScalar": "0.01",
      "l1GasPrice": "0x739d",
      "l1GasUsed": "0xbe8",
      "tokenRatio": "0xc00"
    },
    {
      "status": "0x1",
      "cumulativeGasUsed": "0x9d85a29",
      "logs": [
        {
          "address": "0xae8ca6c5d6b40bb85ad3e1d5daf19038570aef31",
          "topics": [
            "0x354f0817e377e1e9b2601a5fa1180df29e96ac246a5d02f817a6e3bb4b72a904",
            "0x0000000000000000000000008c2b7136ddaf6129ce33f58d3e5475a0ed3f7b3c",
            "0x00000000000000000000000033c6f26da09502e6540043f030ae1f87f109cc99"
          ],
          "data": "0x00000000000000000000000000000000000000000000000000000000000000010000000000000000000000000000000000000000000000000000000000000000",
          "blockHash": "0x304ff2e940c0ee2866af54109c68aeb79a2e24d52eb2d939e3906b5b31e98d53",
          "blockNumber": "0x1f4defa",
          "blockTimestamp": "0x695540d5",
          "transactionHash": "0xca0c0ad330c034b25bb3db66e3f880e9edcde086f7bc4baa0bf0aa665ac6b635",
          "transactionIndex": "0x1",
          "logIndex": "0x0",
          "removed": false
        }
      ],
      "logsBloom": "0x00000000000000000000000000000000000000000000000000000000000200000000000000000000800000000000000000000000000000000000000000000000000000000000000000000000000000004000000000000000000000000000000000000000000000000000000000000000000000020008000000000000000000000000000000000000000010000020000000000200000000000000000000000000000000000000040000000000000000000000000000000000000000000000000000000000000000000000000000000000000004000000000000000002000000000000000000000000000000000010000000000000000000000000000000000000",
      "type": "0x2",
      "transactionHash": "0xca0c0ad330c034b25bb3db66e3f880e9edcde086f7bc4baa0bf0aa665ac6b635",
      "transactionIndex": "0x1",
      "blockHash": "0x304ff2e940c0ee2866af54109c68aeb79a2e24d52eb2d939e3906b5b31e98d53",
      "blockNumber": "0x1f4defa",
      "gasUsed": "0x9d7a324",
      "effectiveGasPrice": "0x1312d01",
      "from": "0x1234562eb0cd65e7d08e59f9f18d7c10b5df232a",
      "to": "0xae8ca6c5d6b40bb85ad3e1d5daf19038570aef31",
      "contractAddress": null,
      "l1Fee": "0xa3e1bf5c",
      "l1FeeScalar": "0.01",
      "l1GasPrice": "0x739d",
      "l1GasUsed": "0xbd0",
      "tokenRatio": "0xc00"
    },
    {
      "status": "0x1",
      "cumulativeGasUsed": "0x9d8e895",
      "logs": [
        {
          "address": "0xae8ca6c5d6b40bb85ad3e1d5daf19038570aef31",
          "topics": [
            "0x354f0817e377e1e9b2601a5fa1180df29e96ac246a5d02f817a6e3bb4b72a904",
            "0x0000000000000000000000008e0dcfecdeebb1da38dd1bbe9418fd7a4bdd4922",
            "0x000000000000000000000000ced6ceb47301f268d57ff07879df45fda80e6974"
          ],
          "data": "0x00000000000000000000000000000000000000000000000000000000000000010000000000000000000000000000000000000000000000000000000000000000",
          "blockHash": "0x7e702737e5ba33d2b78504fd1f7d08d5cc5531a0c0879d735e163826b14b34c9",
          "blockNumber": "0x1f4defd",
          "blockTimestamp": "0x695540db",
          "transactionHash": "0x921d59b4ca1624ea80ab6ac7fa675b2b72c0c6379bde2cd1478c4ad2edc1fee0",
          "transactionIndex": "0x1",
          "logIndex": "0x0",
          "removed": false
        }
      ],
      "logsBloom": "0x00000000000000000000000800000000000000004000000000000000000200000000000000000000800000000080000000000000000000000000000000000000000000000000000000000000000000000000000000000000000000000000000000000000000000000000000000000000010000020000000000000000000000000000000000000000000000000020000000000000000000000000000000000000000000000000000000000000000000000000000000000000000000000000000000000000000000000000000000000000000004000040002000000000000000000000000000000000000000000010000000000000000000000000000000000000",
      "type": "0x2",
      "transactionHash": "0x921d59b4ca1624ea80ab6ac7fa675b2b72c0c6379bde2cd1478c4ad2edc1fee0",
      "transactionIndex": "0x1",
      "blockHash": "0x7e702737e5ba33d2b78504fd1f7d08d5cc5531a0c0879d735e163826b14b34c9",
      "blockNumber": "0x1f4defd",
      "gasUsed": "0x9d83190",
      "effectiveGasPrice": "0x1312d01",
      "from": "0x1234562eb0cd65e7d08e59f9f18d7c10b5df232a",
      "to": "0xae8ca6c5d6b40bb85ad3e1d5daf19038570aef31",
      "contractAddress": null,
      "l1Fee": "0xb8912c51",
      "l1FeeScalar": "0.01",
      "l1GasPrice": "0x81b1",
      "l1GasUsed": "0xbdc",
      "tokenRatio": "0xc00"
    },
    {
      "status": "0x1",
      "cumulativeGasUsed": "0x9d8e895",
      "logs": [
        {
          "address": "0xae8ca6c5d6b40bb85ad3e1d5daf19038570aef31",
          "topics": [
            "0x354f0817e377e1e9b2601a5fa1180df29e96ac246a5d02f817a6e3bb4b72a904",
            "0x00000000000000000000000089c0fa2bae88752ec733922daa0c2ff321bb5279",
            "0x0000000000000000000000007cb382ce1aa40fa9f9a59a632090c05dc28cae7b"
          ],
          "data": "0x00000000000000000000000000000000000000000000000000000000000000010000000000000000000000000000000000000000000000000000000000000000",
          "blockHash": "0x1364d313ba8738599fd647376d279f85c8eb32c953828dd403738a572410ef45",
          "blockNumber": "0x1f4df01",
          "blockTimestamp": "0x695540e3",
          "transactionHash": "0x7d3558ba8ba7146e38dc1734f1c704b5f01cc6bec775955ff096a33b73a1ef99",
          "transactionIndex": "0x1",
          "logIndex": "0x0",
          "removed": false
        }
      ],
      "logsBloom": "0x00000000000000000000000000000000000000000000000000000000000200000000000000000000800800000000000000000000000000000000000000000000000000000000000000000000000000000000004000000000000002000000000000000400000000000000000000000001000000020000000000000000000000000000000000000000000000000020000000000000000000000000000000000000000000000000000000000000000000000000000000000000000000000400000000000000000000000000000000000000000004000000000000000000000000000000000000000000000000000010000000000000000000000000000000000000",
      "type": "0x2",
      "transactionHash": "0x7d3558ba8ba7146e38dc1734f1c704b5f01cc6bec775955ff096a33b73a1ef99",
      "transactionIndex": "0x1",
      "blockHash": "0x1364d313ba8738599fd647376d279f85c8eb32c953828dd403738a572410ef45",
      "blockNumber": "0x1f4df01",
      "gasUsed": "0x9d83190",
      "effectiveGasPrice": "0x1312d01",
      "from": "0x1234562eb0cd65e7d08e59f9f18d7c10b5df232a",
      "to": "0xae8ca6c5d6b40bb85ad3e1d5daf19038570aef31",
      "contractAddress": null,
      "l1Fee": "0xb8912c51",
      "l1FeeScalar": "0.01",
      "l1GasPrice": "0x81b1",
      "l1GasUsed": "0xbdc",
      "tokenRatio": "0xc00"
    },
    {
      "status": "0x1",
      "cumulativeGasUsed": "0x9d8e895",
      "logs": [
        {
          "address": "0xae8ca6c5d6b40bb85ad3e1d5daf19038570aef31",
          "topics": [
            "0x354f0817e377e1e9b2601a5fa1180df29e96ac246a5d02f817a6e3bb4b72a904",
            "0x000000000000000000000000a6c9dd702b198da46f9c5b21bbe65a2a31fdeb63",
            "0x000000000000000000000000b288ba5b5b80dd0fd83541ef2e5922f71121fa13"
          ],
          "data": "0x00000000000000000000000000000000000000000000000000000000000000010000000000000000000000000000000000000000000000000000000000000000",
          "blockHash": "0xff4b1a75c06f8d60942ed4a93d35f53a61992c0c174db093925de351080feb5b",
          "blockNumber": "0x1f4df05",
          "blockTimestamp": "0x695540eb",
          "transactionHash": "0xb82d208f1eccdf154e7bcb06682e1362f68a7a35720d2673ed15753758650b6e",
          "transactionIndex": "0x1",
          "logIndex": "0x0",
          "removed": false
        }
      ],
      "logsBloom": "0x00000000000000000000000000000000000000000000000000000000000240000000000000000000800000000000000000000000000000000000000000000000000000000000000000000000000000000000000000000000000204000000000000000000000000000000000000000000000000020000000000000000000000000000000000000000000000000020000000000000000000000002000000000400000000000000000000000000000000000000000000000000000000000000000000000000000000000000000000000000000004000000000000000000000000000000000000000000000000000010000000000000000000800000000000000000",
      "type": "0x2",
      "transactionHash": "0xb82d208f1eccdf154e7bcb06682e1362f68a7a35720d2673ed15753758650b6e",
      "transactionIndex": "0x1",
      "blockHash": "0xff4b1a75c06f8d60942ed4a93d35f53a61992c0c174db093925de351080feb5b",
      "blockNumber": "0x1f4df05",
      "gasUsed": "0x9d83190",
      "effectiveGasPrice": "0x1312d01",
      "from": "0x1234562eb0cd65e7d08e59f9f18d7c10b5df232a",
      "to": "0xae8ca6c5d6b40bb85ad3e1d5daf19038570aef31",
      "contractAddress": null,
      "l1Fee": "0xb94bedc2",
      "l1FeeScalar": "0.01",
      "l1GasPrice": "0x81b1",
      "l1GasUsed": "0xbe8",
      "tokenRatio": "0xc00"
    },
    {
      "status": "0x1",
      "cumulativeGasUsed": "0x9d8fe69",
      "logs": [
        {
          "address": "0xae8ca6c5d6b40bb85ad3e1d5daf19038570aef31",
          "topics": [
            "0x354f0817e377e1e9b2601a5fa1180df29e96ac246a5d02f817a6e3bb4b72a904",
            "0x0000000000000000000000005c8b8caa55af0d10acc3ec95a614d26c90bd9b62",
            "0x000000000000000000000000c4a53c466cfb62aeced03008b0162baaf36e0b03"
          ],
          "data": "0x00000000000000000000000000000000000000000000000000000000000000010000000000000000000000000000000000000000000000000000000000000000",
          "blockHash": "0x4d6076ded22d65512d401581fac40e1be2eea0f0dbdf2ffbcbf39e37947433ee",
          "blockNumber": "0x1f4df08",
          "blockTimestamp": "0x695540f1",
          "transactionHash": "0x2b6c1e47ac459787c5964e98d422bcd3dfdb27dfa39d2b73a6aa940b3e25f29d",
          "transactionIndex": "0x1",
          "logIndex": "0x0",
          "removed": false
        }
      ],
      "logsBloom": "0x00000000000000000000000000000000000000000000000000000000080200000000000000000000800000000000000000000000000000000000000000000000000000000000000000000000000000000000000000000000000000000000000008000004000000000000000000000000000000020000000000000000000000000000000000000000000000040020000000000000000000000000000000000000000000000000400000000000000000000000000000000000000000000000000000000000800000000000000000000000000004000000000000000000000000000000000000000000000000000010000000000000000000000000000000000000",
      "type": "0x2",
      "transactionHash": "0x2b6c1e47ac459787c5964e98d422bcd3dfdb27dfa39d2b73a6aa940b3e25f29d",
      "transactionIndex": "0x1",
      "blockHash": "0x4d6076ded22d65512d401581fac40e1be2eea0f0dbdf2ffbcbf39e37947433ee",
      "blockNumber": "0x1f4df08",
      "gasUsed": "0x9d83190",
      "effectiveGasPrice": "0x1312d01",
      "from": "0x1234562eb0cd65e7d08e59f9f18d7c10b5df232a",
      "to": "0xae8ca6c5d6b40bb85ad3e1d5daf19038570aef31",
      "contractAddress": null,
      "l1Fee": "0xe35afd1e",
      "l1FeeScalar": "0.01",
      "l1GasPrice": "0x9f21",
      "l1GasUsed": "0xbe8",
      "tokenRatio": "0xc00"
    },
    {
      "status": "0x1",
      "cumulativeGasUsed": "0x9d85a29",
      "logs": [
        {
          "address": "0xae8ca6c5d6b40bb85ad3e1d5daf19038570aef31",
          "topics": [
            "0x354f0817e377e1e9b2601a5fa1180df29e96ac246a5d02f817a6e3bb4b72a904",
            "0x000000000000000000000000fcbfbaf16a7b392f5963232fc3d7bb81238a4fc1",
            "0x00000000000000000000000033c6f26da09502e6540043f030ae1f87f109cc99"
          ],
          "data": "0x00000000000000000000000000000000000000000000000000000000000000010000000000000000000000000000000000000000000000000000000000000000",
          "blockHash": "0xe600a75515fef94604b8407a91eba59412861012753509c1ea7fd33cbdaefd46",
          "blockNumber": "0x1f4df0c",
          "blockTimestamp": "0x695540f9",
          "transactionHash": "0x9f8d4f30d13f72d51f059474e2e13f4b8587970e4bf2d71fb4c51f0ffa8daa39",
          "transactionIndex": "0x1",
          "logIndex": "0x0",
          "removed": false
        }
      ],
      "logsBloom": "0x00000000000000000000000000000000000000000000000000000000000200000000000000000000800400800000000000000000000000000000000000000000000000000000000000000000000000000000000000000000000000000000000000000000000000000000000000000000000000020008000000000000000000000000000000000000000010000020000000000200000000000000000000000000000000000000000000000000000000000000000000000000000000000000000000000000000000000002000000000000000004000000000000000000000000000000000000000000000000000010000000000000000000000000000000000000",
      "type": "0x2",
      "transactionHash": "0x9f8d4f30d13f72d51f059474e2e13f4b8587970e4bf2d71fb4c51f0ffa8daa39",
      "transactionIndex": "0x1",
      "blockHash": "0xe600a75515fef94604b8407a91eba59412861012753509c1ea7fd33cbdaefd46",
      "blockNumber": "0x1f4df0c",
      "gasUsed": "0x9d7a324",
      "effectiveGasPrice": "0x1312d01",
      "from": "0x1234562eb0cd65e7d08e59f9f18d7c10b5df232a",
      "to": "0xae8ca6c5d6b40bb85ad3e1d5daf19038570aef31",
      "contractAddress": null,
      "l1Fee": "0xe275d7d7",
      "l1FeeScalar": "0.01",
      "l1GasPrice": "0x9f21",
      "l1GasUsed": "0xbdc",
      "tokenRatio": "0xc00"
    },
    {
      "status": "0x1",
      "cumulativeGasUsed": "0x9d8e889",
      "logs": [
        {
          "address": "0xae8ca6c5d6b40bb85ad3e1d5daf19038570aef31",
          "topics": [
            "0x354f0817e377e1e9b2601a5fa1180df29e96ac246a5d02f817a6e3bb4b72a904",
            "0x0000000000000000000000000df313ce12b511062ece811e435f0729e7c9746f",
            "0x000000000000000000000000ced6ceb47301f268d57ff07879df45fda80e6974"
          ],
          "data": "0x00000000000000000000000000000000000000000000000000000000000000010000000000000000000000000000000000000000000000000000000000000000",
          "blockHash": "0xd20e9f39b225d81cd5e6632ac1520648172cb64b73ec48710d55eedbf2667b94",
          "blockNumber": "0x1f4df10",
          "blockTimestamp": "0x69554101",
          "transactionHash": "0x3691879b8b44106f0ebdc6e1ed9d1a40e93272fc821365e2e382c93828216df1",
          "transactionIndex": "0x1",
          "logIndex": "0x0",
          "removed": false
        }
      ],
      "logsBloom": "0x00000000000000000100000800000000000000000000000000000000000200000000000000000000800000000080000000000000002000000000000000000000000000000000000000000000000000000000000000000000000000000000000000000000000000000000000000000000000000020000000000000000000000000001000000000000000000000020000000000000000000000000000000000000000000000000000000000000000000000000000000000000000000000000000000000000000000000000000000000000000004000000002000000000000000000000000000000000000000000010000000000000000000000000000000000000",
      "type": "0x2",
      "transactionHash": "0x3691879b8b44106f0ebdc6e1ed9d1a40e93272fc821365e2e382c93828216df1",
      "transactionIndex": "0x1",
      "blockHash": "0xd20e9f39b225d81cd5e6632ac1520648172cb64b73ec48710d55eedbf2667b94",
      "blockNumber": "0x1f4df10",
      "gasUsed": "0x9d83190",
      "effectiveGasPrice": "0x1312d01",
      "from": "0x1234562eb0cd65e7d08e59f9f18d7c10b5df232a",
      "to": "0xae8ca6c5d6b40bb85ad3e1d5daf19038570aef31",
      "contractAddress": null,
      "l1Fee": "0xe4ce76b8",
      "l1FeeScalar": "0.01",
      "l1GasPrice": "0xa025",
      "l1GasUsed": "0xbe8",
      "tokenRatio": "0xc00"
    },
    {
      "status": "0x1",
      "cumulativeGasUsed": "0x9d8e889",
      "logs": [
        {
          "address": "0xae8ca6c5d6b40bb85ad3e1d5daf19038570aef31",
          "topics": [
            "0x354f0817e377e1e9b2601a5fa1180df29e96ac246a5d02f817a6e3bb4b72a904",
            "0x000000000000000000000000b1ef139d2f4d56b126196d9ff712b67e120c0349",
            "0x0000000000000000000000007cb382ce1aa40fa9f9a59a632090c05dc28cae7b"
          ],
          "data": "0x00000000000000000000000000000000000000000000000000000000000000010000000000000000000000000000000000000000000000000000000000000000",
          "blockHash": "0xfd44209a179d16ae34bc37b65c4da056b295f9bab6e016ad7c83eef059a9326e",
          "blockNumber": "0x1f4df14",
          "blockTimestamp": "0x69554109",
          "transactionHash": "0x27856b42251d05b44b04857b2ca75e79f5556c3d3b415552649e10de42b62bc4",
          "transactionIndex": "0x1",
          "logIndex": "0x0",
          "removed": false
        }
      ],
      "logsBloom": "0x00000000000000000000000000000000000000000000000000000000080200000000000000000000800800000000000000000000000000000000000000000000000000000000000000000000000000000000004000000000000002000000800000000000000000000000000000000000000000020000000000000000000000000000000000000000000000000020000000000000000000000000000000000000000000000000000000000000000000000000000000000000000000000000000000000000000000000000000000000000000004000000000000000000000000000000000000000040000000000010000000000000000000000000000000000000",
      "type": "0x2",
      "transactionHash": "0x27856b42251d05b44b04857b2ca75e79f5556c3d3b415552649e10de42b62bc4",
      "transactionIndex": "0x1",
      "blockHash": "0xfd44209a179d16ae34bc37b65c4da056b295f9bab6e016ad7c83eef059a9326e",
      "blockNumber": "0x1f4df14",
      "gasUsed": "0x9d83190",
      "effectiveGasPrice": "0x1312d01",
      "from": "0x1234562eb0cd65e7d08e59f9f18d7c10b5df232a",
      "to": "0xae8ca6c5d6b40bb85ad3e1d5daf19038570aef31",
      "contractAddress": null,
      "l1Fee": "0xe4ce76b8",
      "l1FeeScalar": "0.01",
      "l1GasPrice": "0xa025",
      "l1GasUsed": "0xbe8",
      "tokenRatio": "0xc00"
    },
    {
      "status": "0x1",
      "cumulativeGasUsed": "0x9d85a1d",
      "logs": [
        {
          "address": "0xae8ca6c5d6b40bb85ad3e1d5daf19038570aef31",
          "topics": [
            "0x354f0817e377e1e9b2601a5fa1180df29e96ac246a5d02f817a6e3bb4b72a904",
            "0x000000000000000000000000324db0d78d0225431a2bd49470018b322a006833",
            "0x000000000000000000000000b288ba5b5b80dd0fd83541ef2e5922f71121fa13"
          ],
          "data": "0x00000000000000000000000000000000000000000000000000000000000000010000000000000000000000000000000000000000000000000000000000000000",
          "blockHash": "0x223341d16b22e4b8383f1188759a79f466ecf3c8cd00b4a9b0b58d357e5f7158",
          "blockNumber": "0x1f4df17",
          "blockTimestamp": "0x6955410f",
          "transactionHash": "0xb94e9a41220a2bfbad1e16516d204395ea46df4308b0dcb46f398f3483e7ba83",
          "transactionIndex": "0x1",
          "logIndex": "0x0",
          "removed": false
        }
      ],
      "logsBloom": "0x00000000000000000000000000000000000000000000000000000000000200000000000000000000800000000000000000000000000000000000000000000000000000000000000000000000000000000000000000000000000000000000000000000000000000000000000000000000000000020000000000000000000000000000000000000000000000000020000000000000000000000002000000000400000000000000000000000000000000000000000000000000000000000000000000000020000000000000000000000000000004000000000000000000000000000000000000080200000000000010000000000000000000800000000000000000",
      "type": "0x2",
      "transactionHash": "0xb94e9a41220a2bfbad1e16516d204395ea46df4308b0dcb46f398f3483e7ba83",
      "transactionIndex": "0x1",
      "blockHash": "0x223341d16b22e4b8383f1188759a79f466ecf3c8cd00b4a9b0b58d357e5f7158",
      "blockNumber": "0x1f4df17",
      "gasUsed": "0x9d7a324",
      "effectiveGasPrice": "0x1312d01",
      "from": "0x1234562eb0cd65e7d08e59f9f18d7c10b5df232a",
      "to": "0xae8ca6c5d6b40bb85ad3e1d5daf19038570aef31",
      "contractAddress": null,
      "l1Fee": "0xe3e7db0a",
      "l1FeeScalar": "0.01",
      "l1GasPrice": "0xa025",
      "l1GasUsed": "0xbdc",
      "tokenRatio": "0xc00"
    },
    {
      "status": "0x1",
      "cumulativeGasUsed": "0x9d8fe69",
      "logs": [
        {
          "address": "0xae8ca6c5d6b40bb85ad3e1d5daf19038570aef31",
          "topics": [
            "0x354f0817e377e1e9b2601a5fa1180df29e96ac246a5d02f817a6e3bb4b72a904",
            "0x000000000000000000000000bf1dc15eaa6449d5bf81463578808313f5e208ee",
            "0x000000000000000000000000c4a53c466cfb62aeced03008b0162baaf36e0b03"
          ],
          "data": "0x00000000000000000000000000000000000000000000000000000000000000010000000000000000000000000000000000000000000000000000000000000000",
          "blockHash": "0x8a135f529093c47b6524062eb78d11611148a626d433b3f166c968e07446329b",
          "blockNumber": "0x1f4df1a",
          "blockTimestamp": "0x69554115",
          "transactionHash": "0xd3a81d9a3a87cbb39db94ec0b883cf2e4bb926f921070834e4f063ad9e3de33a",
          "transactionIndex": "0x1",
          "logIndex": "0x0",
          "removed": false
        }
      ],
      "logsBloom": "0x00000000000000000000000000080000000000000000000000000000000200000000000000000000800000000000000000000000000000000000000000000000000000000000000000000000000000000000000000000000000000000000000000000024000000000000000000000000000000020000010000000000000000000000000000000000000000040020000000000000000000000000000000000000000000000000400000000000000000000000000000000000000000000000000000000000000000000000000000000000000004000000000000000000000000000000000000000000000000000010000000000000000000000000000000000000",
      "type": "0x2",
      "transactionHash": "0xd3a81d9a3a87cbb39db94ec0b883cf2e4bb926f921070834e4f063ad9e3de33a",
      "transactionIndex": "0x1",
      "blockHash": "0x8a135f529093c47b6524062eb78d11611148a626d433b3f166c968e07446329b",
      "blockNumber": "0x1f4df1a",
      "gasUsed": "0x9d83190",
      "effectiveGasPrice": "0x1312d01",
      "from": "0x1234562eb0cd65e7d08e59f9f18d7c10b5df232a",
      "to": "0xae8ca6c5d6b40bb85ad3e1d5daf19038570aef31",
      "contractAddress": null,
      "l1Fee": "0x1218fd614",
      "l1FeeScalar": "0.01",
      "l1GasPrice": "0xcaab",
      "l1GasUsed": "0xbe8",
      "tokenRatio": "0xc00"
    },
    {
      "status": "0x1",
      "cumulativeGasUsed": "0x9d85a29",
      "logs": [
        {
          "address": "0xae8ca6c5d6b40bb85ad3e1d5daf19038570aef31",
          "topics": [
            "0x354f0817e377e1e9b2601a5fa1180df29e96ac246a5d02f817a6e3bb4b72a904",
            "0x000000000000000000000000c79f99285a0f4b640c552090eeab8cabc4433c1d",
            "0x00000000000000000000000033c6f26da09502e6540043f030ae1f87f109cc99"
          ],
          "data": "0x00000000000000000000000000000000000000000000000000000000000000010000000000000000000000000000000000000000000000000000000000000000",
          "blockHash": "0xbff0c140f1ad0b44cc5c5a1ab53293c4982bb9378739ef3dc5318366300be41c",
          "blockNumber": "0x1f4df1d",
          "blockTimestamp": "0x6955411b",
          "transactionHash": "0x0f91155f3fb6e68992fd6125e1f90ca0b97acd58a23f1d3a488bf9fddfb6724c",
          "transactionIndex": "0x1",
          "logIndex": "0x0",
          "removed": false
        }
      ],
      "logsBloom": "0x00000000000000000000000000000000000004000000000000000000000202000000000000000000800000000000000000000000000000000000000000000000000000000000000000000000000000000000000000000000000000000000000000000000000000000000000000000000000000020008000000000000000000000000000000000000000010000020000000000200000000000000000000000000000000000000000000000000000000000000000000000000000000000000000000000000000000000000000000000000000004000000000000000000000000000000000000000000000000000010000000000000000000040000000000000000",
      "type": "0x2",
      "transactionHash": "0x0f91155f3fb6e68992fd6125e1f90ca0b97acd58a23f1d3a488bf9fddfb6724c",
      "transactionIndex": "0x1",
      "blockHash": "0xbff0c140f1ad0b44cc5c5a1ab53293c4982bb9378739ef3dc5318366300be41c",
      "blockNumber": "0x1f4df1d",
      "gasUsed": "0x9d7a324",
      "effectiveGasPrice": "0x1312d01",
      "from": "0x1234562eb0cd65e7d08e59f9f18d7c10b5df232a",
      "to": "0xae8ca6c5d6b40bb85ad3e1d5daf19038570aef31",
      "contractAddress": null,
      "l1Fee": "0x1206bfe8f",
      "l1FeeScalar": "0.01",
      "l1GasPrice": "0xcaab",
      "l1GasUsed": "0xbdc",
      "tokenRatio": "0xc00"
    },
    {
      "status": "0x1",
      "cumulativeGasUsed": "0x1af62c89",
      "logs": [
        {
          "address": "0xae8ca6c5d6b40bb85ad3e1d5daf19038570aef31",
          "topics": [
            "0x354f0817e377e1e9b2601a5fa1180df29e96ac246a5d02f817a6e3bb4b72a904",
            "0x000000000000000000000000a5fc97d4eee36cf0cf5bee22cf78e74ce9882e81",
            "0x000000000000000000000000ced6ceb47301f268d57ff07879df45fda80e6974"
          ],
          "data": "0x00000000000000000000000000000000000000000000000000000000000000010000000000000000000000000000000000000000000000000000000000000000",
          "blockHash": "0x37399bbb8eca7e553529df1aaffde31a3b3e280dabef8f0398b5a69adc08cd76",
          "blockNumber": "0x1f4df21",
          "blockTimestamp": "0x69554123",
          "transactionHash": "0xc11ba5687f9309b30799fde1ae72501a94277a536d6b7d42b9b0369cf4a7f9f2",
          "transactionIndex": "0x2",
          "logIndex": "0x3",
          "removed": false
        }
      ],
      "logsBloom": "0x00000000000000000000000800000000000000000000000000000000000200000000000000000000800000000080000000000000010000000000000000000000000000000000000000000000000000000000000000000000000000000000000000400000000000000000008000000000000000020000000000000000000000000000000000000000000000000020000000000000000000000000000000000000000000000000000000000000000000000000000000000000000000000000000000000000000000000000000000000000000004000000002000000000000000000000000000000000000000000010000000000000000000000000000000000000",
      "type": "0x2",
      "transactionHash": "0xc11ba5687f9309b30799fde1ae72501a94277a536d6b7d42b9b0369cf4a7f9f2",
      "transactionIndex": "0x2",
      "blockHash": "0x37399bbb8eca7e553529df1aaffde31a3b3e280dabef8f0398b5a69adc08cd76",
      "blockNumber": "0x1f4df21",
      "gasUsed": "0x9d83190",
      "effectiveGasPrice": "0x1312d01",
      "from": "0x1234562eb0cd65e7d08e59f9f18d7c10b5df232a",
      "to": "0xae8ca6c5d6b40bb85ad3e1d5daf19038570aef31",
      "contractAddress": null,
      "l1Fee": "0x145c147ae",
      "l1FeeScalar": "0.01",
      "l1GasPrice": "0xe400",
      "l1GasUsed": "0xbe8",
      "tokenRatio": "0xc00"
    },
    {
      "status": "0x1",
      "cumulativeGasUsed": "0x9d9094d",
      "logs": [
        {
          "address": "0xae8ca6c5d6b40bb85ad3e1d5daf19038570aef31",
          "topics": [
            "0x354f0817e377e1e9b2601a5fa1180df29e96ac246a5d02f817a6e3bb4b72a904",
            "0x000000000000000000000000df3ebc828195ffbc71bb80c467cf70bfdef0ac1e",
            "0x0000000000000000000000007cb382ce1aa40fa9f9a59a632090c05dc28cae7b"
          ],
          "data": "0x00000000000000000000000000000000000000000000000000000000000000010000000000000000000000000000000000000000000000000000000000000000",
          "blockHash": "0x71418b756ac6457e2b0a55eae5760d8fc2060cbcf8d9e4c0179e9922de409dc8",
          "blockNumber": "0x1f4df25",
          "blockTimestamp": "0x6955412b",
          "transactionHash": "0x9a7d06bd897e01d5384344302980e572f9fc1339bc2745396295e343c49c65ab",
          "transactionIndex": "0x1",
          "logIndex": "0x0",
          "removed": false
        }
      ],
      "logsBloom": "0x00000000000000000000000000000000000000000000000000000000000200000000000000000000800802000000000000000000000000000000000000000000000000000000000000000000000000000000004000000000000002000000000000000000000000000000000000000000000000020000000000000000000000000000000000000000000000000020000001000000000000000000000000000000000000000000000000000000000000000000000000000000000000000000000000000000000000000400000000000000000004000000000000000000000000000000000000000000000000000010000000000000000000000000000000000000",
      "type": "0x2",
      "transactionHash": "0x9a7d06bd897e01d5384344302980e572f9fc1339bc2745396295e343c49c65ab",
      "transactionIndex": "0x1",
      "blockHash": "0x71418b756ac6457e2b0a55eae5760d8fc2060cbcf8d9e4c0179e9922de409dc8",
      "blockNumber": "0x1f4df25",
      "gasUsed": "0x9d83190",
      "effectiveGasPrice": "0x1312d01",
      "from": "0x1234562eb0cd65e7d08e59f9f18d7c10b5df232a",
      "to": "0xae8ca6c5d6b40bb85ad3e1d5daf19038570aef31",
      "contractAddress": null,
      "l1Fee": "0x16e75275c",
      "l1FeeScalar": "0.01",
      "l1GasPrice": "0x1007d",
      "l1GasUsed": "0xbe8",
      "tokenRatio": "0xc00"
    },
    {
      "status": "0x1",
      "cumulativeGasUsed": "0x9d8e889",
      "logs": [
        {
          "address": "0xae8ca6c5d6b40bb85ad3e1d5daf19038570aef31",
          "topics": [
            "0x354f0817e377e1e9b2601a5fa1180df29e96ac246a5d02f817a6e3bb4b72a904",
            "0x0000000000000000000000008edafbade92450979dff2f10449e7917c722af50",
            "0x000000000000000000000000b288ba5b5b80dd0fd83541ef2e5922f71121fa13"
          ],
          "data": "0x00000000000000000000000000000000000000000000000000000000000000010000000000000000000000000000000000000000000000000000000000000000",
          "blockHash": "0x6c3fcbeb15eaf20cd6eb1978345cb102d3112f494b9d19bbb148a3c80f48636c",
          "blockNumber": "0x1f4df28",
          "blockTimestamp": "0x69554131",
          "transactionHash": "0x1eacb4c2f4e5d009f0d687a7d79d603b7cbbaf8edcfee10b12d7ac7c36697ea0",
          "transactionIndex": "0x1",
          "logIndex": "0x0",
          "removed": false
        }
      ],
      "logsBloom": "0x00000000000000000000000000000000000000000000000000000000000200000000000000000000800000000000000000000000000000000000000000000000000000000000000000000000000000000000000000000000000000000000000800000000000000000000000000000000000000020000000000000000000000000000000000000000000000000020000000000000000000000002000000000400000000000000020000000000000000000000000000000000000000000000000000000000000000000000000000000000000004000000200000000000000000000000000000000000000000000010000000000000000000800000000000000000",
      "type": "0x2",
      "transactionHash": "0x1eacb4c2f4e5d009f0d687a7d79d603b7cbbaf8edcfee10b12d7ac7c36697ea0",
      "transactionIndex": "0x1",
      "blockHash": "0x6c3fcbeb15eaf20cd6eb1978345cb102d3112f494b9d19bbb148a3c80f48636c",
      "blockNumber": "0x1f4df28",
      "gasUsed": "0x9d83190",
      "effectiveGasPrice": "0x1312d01",
      "from": "0x1234562eb0cd65e7d08e59f9f18d7c10b5df232a",
      "to": "0xae8ca6c5d6b40bb85ad3e1d5daf19038570aef31",
      "contractAddress": null,
      "l1Fee": "0x16d03cf85",
      "l1FeeScalar": "0.01",
      "l1GasPrice": "0x1007d",
      "l1GasUsed": "0xbdc",
      "tokenRatio": "0xc00"
    },
    {
      "status": "0x1",
      "cumulativeGasUsed": "0x9d90965",
      "logs": [
        {
          "address": "0xae8ca6c5d6b40bb85ad3e1d5daf19038570aef31",
          "topics": [
            "0x354f0817e377e1e9b2601a5fa1180df29e96ac246a5d02f817a6e3bb4b72a904",
            "0x000000000000000000000000df5ca06845d1b2f3ddff5759a493fb5aff68d72d",
            "0x000000000000000000000000c4a53c466cfb62aeced03008b0162baaf36e0b03"
          ],
          "data": "0x00000000000000000000000000000000000000000000000000000000000000010000000000000000000000000000000000000000000000000000000000000000",
          "blockHash": "0xd12c0fe2c4acc124c9bec3fa8994f08819d55a99ce6b0d798956a2c4db776d86",
          "blockNumber": "0x1f4df2b",
          "blockTimestamp": "0x69554137",
          "transactionHash": "0x43add83b0020dce6f18afbd79814625980eed14d63b9b598204941b5d5560601",
          "transactionIndex": "0x1",
          "logIndex": "0x0",
          "removed": false
        }
      ],
      "logsBloom": "0x00000000000000000000000000000000000000000000000000000000000200000000000000000000800000000000000000000000000000000000000000000000000000002000000000000000000000000000000000000000000000000000000000200004000000000000000000000000000000020000000000000000000000000000000000000000000000040020000000000000000000000000000000000000000000000000400000000000000000000000000000000000000000000000000000000000000000000000000000000000000004000000000000000000000000000000000000000000000000000010000000000000000000002000000000000000",
      "type": "0x2",
      "transactionHash": "0x43add83b0020dce6f18afbd79814625980eed14d63b9b598204941b5d5560601",
      "transactionIndex": "0x1",
      "blockHash": "0xd12c0fe2c4acc124c9bec3fa8994f08819d55a99ce6b0d798956a2c4db776d86",
      "blockNumber": "0x1f4df2b",
      "gasUsed": "0x9d83190",
      "effectiveGasPrice": "0x1312d01",
      "from": "0x1234562eb0cd65e7d08e59f9f18d7c10b5df232a",
      "to": "0xae8ca6c5d6b40bb85ad3e1d5daf19038570aef31",
      "contractAddress": null,
      "l1Fee": "0x19a9f20cc",
      "l1FeeScalar": "0.01",
      "l1GasPrice": "0x12089",
      "l1GasUsed": "0xbdc",
      "tokenRatio": "0xc00"
    },
    {
      "status": "0x1",
      "cumulativeGasUsed": "0x9d85a35",
      "logs": [
        {
          "address": "0xae8ca6c5d6b40bb85ad3e1d5daf19038570aef31",
          "topics": [
            "0x354f0817e377e1e9b2601a5fa1180df29e96ac246a5d02f817a6e3bb4b72a904",
            "0x000000000000000000000000bfc03ba44aca79cfe6732968f99e9db0b3880828",
            "0x00000000000000000000000033c6f26da09502e6540043f030ae1f87f109cc99"
          ],
          "data": "0x00000000000000000000000000000000000000000000000000000000000000010000000000000000000000000000000000000000000000000000000000000000",
          "blockHash": "0xccbfc7396f8c8da17c9e526d381398f0dec9fa8c5b20bd9a7d1a132ad8444328",
          "blockNumber": "0x1f4df2e",
          "blockTimestamp": "0x6955413d",
          "transactionHash": "0x79c81abee964e07b12b161e75e82ad3838c807c9b1a0554f2ece5f0cfdfd6a79",
          "transactionIndex": "0x1",
          "logIndex": "0x0",
          "removed": false
        }
      ],
      "logsBloom": "0x00000000000000000000000000000000000000000000000000000000000200000000000000000000800000000000000000000000000000000000000000000000000000000000000000000000000000000000000000000000000000100000008000000000000000000000000000000000000000020008000000040000000000000000000000000000000010000020000000000200000000000000000000000000000000000000000000000000000000000000000000000000000000000000000000000000000000000000000000000000000004000000000000000000000000000000000000000000000000000010000000000000000000000000000000000000",
      "type": "0x2",
      "transactionHash": "0x79c81abee964e07b12b161e75e82ad3838c807c9b1a0554f2ece5f0cfdfd6a79",
      "transactionIndex": "0x1",
      "blockHash": "0xccbfc7396f8c8da17c9e526d381398f0dec9fa8c5b20bd9a7d1a132ad8444328",
      "blockNumber": "0x1f4df2e",
      "gasUsed": "0x9d7a324",
      "effectiveGasPrice": "0x1312d01",
      "from": "0x1234562eb0cd65e7d08e59f9f18d7c10b5df232a",
      "to": "0xae8ca6c5d6b40bb85ad3e1d5daf19038570aef31",
      "contractAddress": null,
      "l1Fee": "0x19a9f20cc",
      "l1FeeScalar": "0.01",
      "l1GasPrice": "0x12089",
      "l1GasUsed": "0xbdc",
      "tokenRatio": "0xc00"
    },
    {
      "status": "0x1",
      "cumulativeGasUsed": "0x9d90965",
      "logs": [
        {
          "address": "0xae8ca6c5d6b40bb85ad3e1d5daf19038570aef31",
          "topics": [
            "0x354f0817e377e1e9b2601a5fa1180df29e96ac246a5d02f817a6e3bb4b72a904",
            "0x0000000000000000000000004e55b3951d334af5a88474d252f789911e1efc55",
            "0x000000000000000000000000ced6ceb47301f268d57ff07879df45fda80e6974"
          ],
          "data": "0x00000000000000000000000000000000000000000000000000000000000000010000000000000000000000000000000000000000000000000000000000000000",
          "blockHash": "0x5d5544166516a6d492c2dee4221cdd5f060e91f079af47e85e50a7e89389c31b",
          "blockNumber": "0x1f4df31",
          "blockTimestamp": "0x69554143",
          "transactionHash": "0xdc8ce2ef0c990ecb5a7f72dac3136df86033155550a2588b068f1bf3d8678be1",
          "transactionIndex": "0x1",
          "logIndex": "0x0",
          "removed": false
        }
      ],
      "logsBloom": "0x00000000000000000000000800000000000000000000000000000000000200000000000000000000800000000080000000000000000000200000000000000000000000000000000000000000000000000000000000000000000000000000000000000000000000000000000000000000000000020000000000000000000000000000000000000000000000000020000000000000000000000000000004000000000000000000000000000000000000000000000000000000000000000000000000000000000000000000000000000000000004000000002000000000000000000000000000000000000000000010000000000000000000008000000000000000",
      "type": "0x2",
      "transactionHash": "0xdc8ce2ef0c990ecb5a7f72dac3136df86033155550a2588b068f1bf3d8678be1",
      "transactionIndex": "0x1",
      "blockHash": "0x5d5544166516a6d492c2dee4221cdd5f060e91f079af47e85e50a7e89389c31b",
      "blockNumber": "0x1f4df31",
      "gasUsed": "0x9d83190",
      "effectiveGasPrice": "0x1312d01",
      "from": "0x1234562eb0cd65e7d08e59f9f18d7c10b5df232a",
      "to": "0xae8ca6c5d6b40bb85ad3e1d5daf19038570aef31",
      "contractAddress": null,
      "l1Fee": "0x1cdee9266",
      "l1FeeScalar": "0.01",
      "l1GasPrice": "0x14497",
      "l1GasUsed": "0xbdc",
      "tokenRatio": "0xc00"
    },
    {
      "status": "0x1",
      "cumulativeGasUsed": "0x9d8e8a1",
      "logs": [
        {
          "address": "0xae8ca6c5d6b40bb85ad3e1d5daf19038570aef31",
          "topics": [
            "0x354f0817e377e1e9b2601a5fa1180df29e96ac246a5d02f817a6e3bb4b72a904",
            "0x000000000000000000000000e54116b3fa1623eb5aac2ed4628002cee620e9d8",
            "0x0000000000000000000000007cb382ce1aa40fa9f9a59a632090c05dc28cae7b"
          ],
          "data": "0x00000000000000000000000000000000000000000000000000000000000000010000000000000000000000000000000000000000000000000000000000000000",
          "blockHash": "0x381a2e06cf817b73d1fa2d0c1a3bc6d2f63b9441f47b3d20b4e2ef07ed40e1a1",
          "blockNumber": "0x1f4df35",
          "blockTimestamp": "0x6955414b",
          "transactionHash": "0x9f5ab9e94bf07063d4ddc2e6ea59141452d36b08cd3bba436349bae29351913e",
          "transactionIndex": "0x1",
          "logIndex": "0x0",
          "removed": false
        }
      ],
      "logsBloom": "0x00000000000000000000000000000000000000000000000000000000000200000000000000000000800800000000000000000000000000000000000000000000000000000000000000000000000000000000004000000000000002400000000000000000000000000000000000000000000000020000000001000000000000000200000000000000000000000020000000000000000000000000000000000000000000000000000000000000000000000000000000000000000000000000000000000000000000000000000000000000000004000000000000000000000000000000000000000000000000000010000000000000000000000000000000000000",
      "type": "0x2",
      "transactionHash": "0x9f5ab9e94bf07063d4ddc2e6ea59141452d36b08cd3bba436349bae29351913e",
      "transactionIndex": "0x1",
      "blockHash": "0x381a2e06cf817b73d1fa2d0c1a3bc6d2f63b9441f47b3d20b4e2ef07ed40e1a1",
      "blockNumber": "0x1f4df35",
      "gasUsed": "0x9d83190",
      "effectiveGasPrice": "0x1312d01",
      "from": "0x1234562eb0cd65e7d08e59f9f18d7c10b5df232a",
      "to": "0xae8ca6c5d6b40bb85ad3e1d5daf19038570aef31",
      "contractAddress": null,
      "l1Fee": "0x1cdee9266",
      "l1FeeScalar": "0.01",
      "l1GasPrice": "0x14497",
      "l1GasUsed": "0xbdc",
      "tokenRatio": "0xc00"
    }
  ],
  "libraries": [],
  "pending": [],
  "returns": {},
  "timestamp": 1767194959194,
  "chain": 5003,
  "commit": "987b623"
}