{
  "transactions": [
    {
      "hash": "0x701f4e6eefaa26163503daa318efe11abe7c56bb0e0ca4e1b5f59a94fa583037",
      "transactionType": "CREATE",
      "contractName": "KubiStreamerDonation",
      "contractAddress": "0x7a02904448ae5e3983d05ea1e77d5d91410be953",
      "function": null,
      "arguments": [
        "0x2bF7E65df939482869b96A6BEb88d3e5bF58Fb81",
        "0x1234b50310fF79958509d1a9C8a92458ED1496D1",
        "250",
        "0x123454Ce54DEBE2cEbCe95740E9e0f65DFf9DBE2"
      ],
      "transaction": {
        "from": "0x1234562eb0cd65e7d08e59f9f18d7c10b5df232a",
        "gas": "0x51af1e85c",
        "value": "0x0",
        "input": "0x60e060405260018055348015610013575f5ffd5b50604051615d4a380380615d4a83398181016040528101906100359190610498565b335f5f6101000a81548173ffffffffffffffffffffffffffffffffffffffff021916908373ffffffffffffffffffffffffffffffffffffffff1602179055503373ffffffffffffffffffffffffffffffffffffffff165f73ffffffffffffffffffffffffffffffffffffffff167f8be0079c531659141344cd1fd0a4f28419497f9722a3daafe3b4186f6b6457e060405160405180910390a35f73ffffffffffffffffffffffffffffffffffffffff168473ffffffffffffffffffffffffffffffffffffffff16148061013357505f73ffffffffffffffffffffffffffffffffffffffff168373ffffffffffffffffffffffffffffffffffffffff16145b8061016957505f73ffffffffffffffffffffffffffffffffffffffff168173ffffffffffffffffffffffffffffffffffffffff16145b156101a0576040517fd92e233d00000000000000000000000000000000000000000000000000000000815260040160405180910390fd5b6103e861ffff168261ffff1611156101e4576040517fcd4e616700000000000000000000000000000000000000000000000000000000815260040160405180910390fd5b5f8490508073ffffffffffffffffffffffffffffffffffffffff1660808173ffffffffffffffffffffffffffffffffffffffff16815250508073ffffffffffffffffffffffffffffffffffffffff1663c45a01556040518163ffffffff1660e01b8152600401602060405180830381865afa158015610265573d5f5f3e3d5ffd5b505050506040513d601f19601f8201168201806040525081019061028991906104fc565b73ffffffffffffffffffffffffffffffffffffffff1660a08173ffffffffffffffffffffffffffffffffffffffff16815250508073ffffffffffffffffffffffffffffffffffffffff16634aa4a4fc6040518163ffffffff1660e01b8152600401602060405180830381865afa158015610305573d5f5f3e3d5ffd5b505050506040513d601f19601f8201168201806040525081019061032991906104fc565b73ffffffffffffffffffffffffffffffffffffffff1660c08173ffffffffffffffffffffffffffffffffffffffff16815250508360025f6101000a81548173ffffffffffffffffffffffffffffffffffffffff021916908373ffffffffffffffffffffffffffffffffffffffff16021790555082600260146101000a81548161ffff021916908361ffff1602179055508160035f6101000a81548173ffffffffffffffffffffffffffffffffffffffff021916908373ffffffffffffffffffffffffffffffffffffffff1602179055505050505050610527565b5f5ffd5b5f73ffffffffffffffffffffffffffffffffffffffff82169050919050565b5f61043082610407565b9050919050565b61044081610426565b811461044a575f5ffd5b50565b5f8151905061045b81610437565b92915050565b5f61ffff82169050919050565b61047781610461565b8114610481575f5ffd5b50565b5f815190506104928161046e565b92915050565b5f5f5f5f608085870312156104b0576104af610403565b5b5f6104bd8782880161044d565b94505060206104ce8782880161044d565b93505060406104df87828801610484565b92505060606104f08782880161044d565b91505092959194509250565b5f6020828403121561051157610510610403565b5b5f61051e8482850161044d565b91505092915050565b60805160a05160c05161579e6105ac5f395f81816123bc015281816124fa01528181612558015281816138780152818161390301528181614423015281816144760152614bb001525f81816127470152614a8601525f8181613498015281816147610152818161480601528181614851015281816148990152614937015261579e5ff3fe608060405260043610610184575f3560e01c8063b45faa76116100d0578063e165fe3d11610089578063f2fde38b11610063578063f2fde38b146105db578063f6fe94b014610603578063f887ea401461062b578063fef0c4a114610655576101bb565b8063e165fe3d1461053b578063e9a4529114610577578063ee5e4fa31461059f576101bb565b8063b45faa761461041c578063c45a015514610444578063cd1b7d6c1461046e578063d55be8c614610496578063ddb2a096146104c0578063e051e81a146104fd576101bb565b80637a6f1dcc1161013d5780638da5cb5b116101175780638da5cb5b14610364578063a0d2d8301461038e578063a9563e4f146103b6578063ad5c4648146103f2576101bb565b80637a6f1dcc146102e35780637b955ebd1461030b5780637f507f3f14610348576101bb565b80630c495f96146101ed57806324a9d8531461021557806325d86ced1461023f57806329575f6a14610267578063469048401461029157806376cd0ac1146102bb576101bb565b366101bb576040517f1021348100000000000000000000000000000000000000000000000000000000815260040160405180910390fd5b6040517f1021348100000000000000000000000000000000000000000000000000000000815260040160405180910390fd5b3480156101f8575f5ffd5b50610213600480360381019061020e9190614c9d565b610691565b005b348015610220575f5ffd5b50610229610b5d565b6040516102369190614d1d565b60405180910390f35b34801561024a575f5ffd5b5061026560048036038101906102609190614d36565b610b71565b005b348015610272575f5ffd5b5061027b610cf7565b6040516102889190614d83565b60405180910390f35b34801561029c575f5ffd5b506102a5610d1c565b6040516102b29190614d83565b60405180910390f35b3480156102c6575f5ffd5b506102e160048036038101906102dc9190614d9c565b610d41565b005b3480156102ee575f5ffd5b5061030960048036038101906103049190614d9c565b610fe3565b005b348015610316575f5ffd5b50610331600480360381019061032c9190614dda565b611518565b60405161033f929190614e05565b60405180910390f35b610362600480360381019061035d9190614e2c565b611626565b005b34801561036f575f5ffd5b50610378611d44565b6040516103859190614d83565b60405180910390f35b348015610399575f5ffd5b506103b460048036038101906103af9190614d9c565b611d68565b005b3480156103c1575f5ffd5b506103dc60048036038101906103d79190614d9c565b61238e565b6040516103e99190614ed2565b60405180910390f35b3480156103fd575f5ffd5b506104066123ba565b6040516104139190614d83565b60405180910390f35b348015610427575f5ffd5b50610442600480360381019061043d9190614f15565b6123de565b005b34801561044f575f5ffd5b50610458612745565b6040516104659190614fc0565b60405180910390f35b348015610479575f5ffd5b50610494600480360381019061048f9190615003565b612769565b005b3480156104a1575f5ffd5b506104aa612953565b6040516104b79190614d1d565b60405180910390f35b3480156104cb575f5ffd5b506104e660048036038101906104e19190614dda565b612959565b6040516104f4929190614e05565b60405180910390f35b348015610508575f5ffd5b50610523600480360381019061051e9190614dda565b6129ec565b6040516105329392919061505f565b60405180910390f35b348015610546575f5ffd5b50610561600480360381019061055c9190614d9c565b612a76565b60405161056e9190614d83565b60405180910390f35b348015610582575f5ffd5b5061059d60048036038101906105989190614d9c565b612b1a565b005b3480156105aa575f5ffd5b506105c560048036038101906105c09190614d9c565b612f50565b6040516105d29190615094565b60405180910390f35b3480156105e6575f5ffd5b5061060160048036038101906105fc9190614dda565b612fe1565b005b34801561060e575f5ffd5b50610629600480360381019061062491906150ad565b613159565b005b348015610636575f5ffd5b5061063f613496565b60405161064c919061511d565b60405180910390f35b348015610660575f5ffd5b5061067b60048036038101906106769190614dda565b6134ba565b6040516106889190615094565b60405180910390f35b5f5f9054906101000a900473ffffffffffffffffffffffffffffffffffffffff1673ffffffffffffffffffffffffffffffffffffffff163373ffffffffffffffffffffffffffffffffffffffff161415801561073a575060025f9054906101000a900473ffffffffffffffffffffffffffffffffffffffff1673ffffffffffffffffffffffffffffffffffffffff163373ffffffffffffffffffffffffffffffffffffffff1614155b15610771576040517f93f8b79800000000000000000000000000000000000000000000000000000000815260040160405180910390fd5b5f73ffffffffffffffffffffffffffffffffffffffff168473ffffffffffffffffffffffffffffffffffffffff16036107d6576040517fd92e233d00000000000000000000000000000000000000000000000000000000815260040160405180910390fd5b8115610a0f575f73ffffffffffffffffffffffffffffffffffffffff168373ffffffffffffffffffffffffffffffffffffffff1603610841576040517fc6976bd200000000000000000000000000000000000000000000000000000000815260040160405180910390fd5b60045f8473ffffffffffffffffffffffffffffffffffffffff1673ffffffffffffffffffffffffffffffffffffffff1681526020019081526020015f205f9054906101000a900460ff166108c1576040517f4c3347d100000000000000000000000000000000000000000000000000000000815260040160405180910390fd5b60405180606001604052806001151581526020018473ffffffffffffffffffffffffffffffffffffffff1681526020018281525060065f8673ffffffffffffffffffffffffffffffffffffffff1673ffffffffffffffffffffffffffffffffffffffff1681526020019081526020015f205f820151815f015f6101000a81548160ff0219169083151502179055506020820151815f0160016101000a81548173ffffffffffffffffffffffffffffffffffffffff021916908373ffffffffffffffffffffffffffffffffffffffff160217905550604082015181600101559050508273ffffffffffffffffffffffffffffffffffffffff168473ffffffffffffffffffffffffffffffffffffffff167f354f0817e377e1e9b2601a5fa1180df29e96ac246a5d02f817a6e3bb4b72a904600184604051610a02929190615136565b60405180910390a3610b57565b60405180606001604052805f151581526020015f73ffffffffffffffffffffffffffffffffffffffff1681526020015f81525060065f8673ffffffffffffffffffffffffffffffffffffffff1673ffffffffffffffffffffffffffffffffffffffff1681526020019081526020015f205f820151815f015f6101000a81548160ff0219169083151502179055506020820151815f0160016101000a81548173ffffffffffffffffffffffffffffffffffffffff021916908373ffffffffffffffffffffffffffffffffffffffff160217905550604082015181600101559050505f73ffffffffffffffffffffffffffffffffffffffff168473ffffffffffffffffffffffffffffffffffffffff167f354f0817e377e1e9b2601a5fa1180df29e96ac246a5d02f817a6e3bb4b72a9045f5f604051610b4e929190615196565b60405180910390a35b50505050565b600260149054906101000a900461ffff1681565b5f5f9054906101000a900473ffffffffffffffffffffffffffffffffffffffff1673ffffffffffffffffffffffffffffffffffffffff163373ffffffffffffffffffffffffffffffffffffffff1614158015610c1a575060025f9054906101000a900473ffffffffffffffffffffffffffffffffffffffff1673ffffffffffffffffffffffffffffffffffffffff163373ffffffffffffffffffffffffffffffffffffffff1614155b15610c51576040517f93f8b79800000000000000000000000000000000000000000000000000000000815260040160405180910390fd5b8060045f8473ffffffffffffffffffffffffffffffffffffffff1673ffffffffffffffffffffffffffffffffffffffff1681526020019081526020015f205f6101000a81548160ff0219169083151502179055508173ffffffffffffffffffffffffffffffffffffffff167fac90355684e2710fa34c2c7d500018678b146ea2d56ddc331c63d242ee8bf38582604051610ceb9190615094565b60405180910390a25050565b60025f9054906101000a900473ffffffffffffffffffffffffffffffffffffffff1681565b60035f9054906101000a900473ffffffffffffffffffffffffffffffffffffffff1681565b818073ffffffffffffffffffffffffffffffffffffffff163373ffffffffffffffffffffffffffffffffffffffff1614158015610dcb575060025f9054906101000a900473ffffffffffffffffffffffffffffffffffffffff1673ffffffffffffffffffffffffffffffffffffffff163373ffffffffffffffffffffffffffffffffffffffff1614155b8015610e2357505f5f9054906101000a900473ffffffffffffffffffffffffffffffffffffffff1673ffffffffffffffffffffffffffffffffffffffff163373ffffffffffffffffffffffffffffffffffffffff1614155b15610e5a576040517fc828216200000000000000000000000000000000000000000000000000000000815260040160405180910390fd5b60045f8373ffffffffffffffffffffffffffffffffffffffff1673ffffffffffffffffffffffffffffffffffffffff1681526020019081526020015f205f9054906101000a900460ff16610eda576040517f7742542a00000000000000000000000000000000000000000000000000000000815260040160405180910390fd5b5f60075f8573ffffffffffffffffffffffffffffffffffffffff1673ffffffffffffffffffffffffffffffffffffffff1681526020019081526020015f209050806001015f8473ffffffffffffffffffffffffffffffffffffffff1673ffffffffffffffffffffffffffffffffffffffff1681526020019081526020015f205f9054906101000a900460ff16610f9c576040517f1a1a638d00000000000000000000000000000000000000000000000000000000815260040160405180910390fd5b82815f015f6101000a81548173ffffffffffffffffffffffffffffffffffffffff021916908373ffffffffffffffffffffffffffffffffffffffff16021790555050505050565b818073ffffffffffffffffffffffffffffffffffffffff163373ffffffffffffffffffffffffffffffffffffffff161415801561106d575060025f9054906101000a900473ffffffffffffffffffffffffffffffffffffffff1673ffffffffffffffffffffffffffffffffffffffff163373ffffffffffffffffffffffffffffffffffffffff1614155b80156110c557505f5f9054906101000a900473ffffffffffffffffffffffffffffffffffffffff1673ffffffffffffffffffffffffffffffffffffffff163373ffffffffffffffffffffffffffffffffffffffff1614155b156110fc576040517fc828216200000000000000000000000000000000000000000000000000000000815260040160405180910390fd5b5f73ffffffffffffffffffffffffffffffffffffffff168273ffffffffffffffffffffffffffffffffffffffff1603611161576040517fd92e233d00000000000000000000000000000000000000000000000000000000815260040160405180910390fd5b5f60065f8473ffffffffffffffffffffffffffffffffffffffff1673ffffffffffffffffffffffffffffffffffffffff1681526020019081526020015f209050805f015f9054906101000a900460ff166111e7576040517fab68eff500000000000000000000000000000000000000000000000000000000815260040160405180910390fd5b5f815f0160019054906101000a900473ffffffffffffffffffffffffffffffffffffffff1690505f73ffffffffffffffffffffffffffffffffffffffff168173ffffffffffffffffffffffffffffffffffffffff1603611273576040517fc6976bd200000000000000000000000000000000000000000000000000000000815260040160405180910390fd5b5f60075f8773ffffffffffffffffffffffffffffffffffffffff1673ffffffffffffffffffffffffffffffffffffffff1681526020019081526020015f20905084816002015f8473ffffffffffffffffffffffffffffffffffffffff1673ffffffffffffffffffffffffffffffffffffffff1681526020019081526020015f205f6101000a81548173ffffffffffffffffffffffffffffffffffffffff021916908373ffffffffffffffffffffffffffffffffffffffff16021790555081816003015f8773ffffffffffffffffffffffffffffffffffffffff1673ffffffffffffffffffffffffffffffffffffffff1681526020019081526020015f205f6101000a81548173ffffffffffffffffffffffffffffffffffffffff021916908373ffffffffffffffffffffffffffffffffffffffff1602179055505f73ffffffffffffffffffffffffffffffffffffffff16816004015f9054906101000a900473ffffffffffffffffffffffffffffffffffffffff1673ffffffffffffffffffffffffffffffffffffffff16036114ab5784816004015f6101000a81548173ffffffffffffffffffffffffffffffffffffffff021916908373ffffffffffffffffffffffffffffffffffffffff1602179055508173ffffffffffffffffffffffffffffffffffffffff168673ffffffffffffffffffffffffffffffffffffffff167f52ce92b576c9e725f458101a8593fe331d4d2964c77a20f2b608b39cd95cf789876040516114a29190614d83565b60405180910390a35b8173ffffffffffffffffffffffffffffffffffffffff168673ffffffffffffffffffffffffffffffffffffffff167f07efacf833c0332f419c637a012a52fe4647777ec52b15b904c88856048dc94f876040516115089190614d83565b60405180910390a3505050505050565b5f5f5f60075f8573ffffffffffffffffffffffffffffffffffffffff1673ffffffffffffffffffffffffffffffffffffffff1681526020019081526020015f2090505f816004015f9054906101000a900473ffffffffffffffffffffffffffffffffffffffff169050805f73ffffffffffffffffffffffffffffffffffffffff168273ffffffffffffffffffffffffffffffffffffffff161461161957826003015f8373ffffffffffffffffffffffffffffffffffffffff1673ffffffffffffffffffffffffffffffffffffffff1681526020019081526020015f205f9054906101000a900473ffffffffffffffffffffffffffffffffffffffff1661161b565b5f5b935093505050915091565b600180541461166a576040517f08c379a000000000000000000000000000000000000000000000000000000000815260040161166190615217565b60405180910390fd5b60026001819055505f73ffffffffffffffffffffffffffffffffffffffff168373ffffffffffffffffffffffffffffffffffffffff16036116d7576040517fd92e233d00000000000000000000000000000000000000000000000000000000815260040160405180910390fd5b42811015611711576040517f1ab7da6b00000000000000000000000000000000000000000000000000000000815260040160405180910390fd5b5f5f73ffffffffffffffffffffffffffffffffffffffff168673ffffffffffffffffffffffffffffffffffffffff161490505f8161174f5785611751565b345b90505f810361178c576040517f1f2a200500000000000000000000000000000000000000000000000000000000815260040160405180910390fd5b60045f8361179a578861179c565b5f5b73ffffffffffffffffffffffffffffffffffffffff1673ffffffffffffffffffffffffffffffffffffffff1681526020019081526020015f205f9054906101000a900460ff16611818576040517f7742542a00000000000000000000000000000000000000000000000000000000815260040160405180910390fd5b8161184b5761184a8830838a73ffffffffffffffffffffffffffffffffffffffff166134d7909392919063ffffffff16565b5b5f612710600260149054906101000a900461ffff1661ffff168361186f9190615262565b61187991906152d0565b90505f81836118889190615300565b90505f8211156119ac57831561195e575f60035f9054906101000a900473ffffffffffffffffffffffffffffffffffffffff1673ffffffffffffffffffffffffffffffffffffffff16836040516118de90615360565b5f6040518083038185875af1925050503d805f8114611918576040519150601f19603f3d011682016040523d82523d5f602084013e61191d565b606091505b5050905080611958576040517fce3ef89200000000000000000000000000000000000000000000000000000000815260040160405180910390fd5b506119ab565b6119aa60035f9054906101000a900473ffffffffffffffffffffffffffffffffffffffff16838b73ffffffffffffffffffffffffffffffffffffffff166135fe9092919063ffffffff16565b5b5b5f60075f8973ffffffffffffffffffffffffffffffffffffffff1673ffffffffffffffffffffffffffffffffffffffff1681526020019081526020015f2090505f6040518061012001604052808d73ffffffffffffffffffffffffffffffffffffffff1681526020018c73ffffffffffffffffffffffffffffffffffffffff1681526020018681526020018581526020018481526020018a73ffffffffffffffffffffffffffffffffffffffff16815260200189815260200188815260200187151581525090505f5f611a7f8484613722565b915091505f73ffffffffffffffffffffffffffffffffffffffff168273ffffffffffffffffffffffffffffffffffffffff1614611ba3575f60065f8473ffffffffffffffffffffffffffffffffffffffff1673ffffffffffffffffffffffffffffffffffffffff1681526020019081526020015f206040518060600160405290815f82015f9054906101000a900460ff161515151581526020015f820160019054906101000a900473ffffffffffffffffffffffffffffffffffffffff1673ffffffffffffffffffffffffffffffffffffffff1673ffffffffffffffffffffffffffffffffffffffff16815260200160018201548152505090508060400151846080015110611ba157611b93848484613ac1565b505050505050505050611d35565b505b836001015f89611bb3578e611bb5565b5f5b73ffffffffffffffffffffffffffffffffffffffff1673ffffffffffffffffffffffffffffffffffffffff1681526020019081526020015f205f9054906101000a900460ff1615611c1657611c09836140b6565b5050505050505050611d35565b5f845f015f9054906101000a900473ffffffffffffffffffffffffffffffffffffffff1690505f73ffffffffffffffffffffffffffffffffffffffff168173ffffffffffffffffffffffffffffffffffffffff1603611ca1576040517faaa12dca00000000000000000000000000000000000000000000000000000000815260040160405180910390fd5b60045f8273ffffffffffffffffffffffffffffffffffffffff1673ffffffffffffffffffffffffffffffffffffffff1681526020019081526020015f205f9054906101000a900460ff16611d21576040517f3fbb49c900000000000000000000000000000000000000000000000000000000815260040160405180910390fd5b611d2b8482614248565b5050505050505050505b60018081905550505050505050565b5f5f9054906101000a900473ffffffffffffffffffffffffffffffffffffffff1681565b818073ffffffffffffffffffffffffffffffffffffffff163373ffffffffffffffffffffffffffffffffffffffff1614158015611df2575060025f9054906101000a900473ffffffffffffffffffffffffffffffffffffffff1673ffffffffffffffffffffffffffffffffffffffff163373ffffffffffffffffffffffffffffffffffffffff1614155b8015611e4a57505f5f9054906101000a900473ffffffffffffffffffffffffffffffffffffffff1673ffffffffffffffffffffffffffffffffffffffff163373ffffffffffffffffffffffffffffffffffffffff1614155b15611e81576040517fc828216200000000000000000000000000000000000000000000000000000000815260040160405180910390fd5b5f60075f8573ffffffffffffffffffffffffffffffffffffffff1673ffffffffffffffffffffffffffffffffffffffff1681526020019081526020015f2090505f73ffffffffffffffffffffffffffffffffffffffff168373ffffffffffffffffffffffffffffffffffffffff1603611f26576040517fd92e233d00000000000000000000000000000000000000000000000000000000815260040160405180910390fd5b5f816003015f8573ffffffffffffffffffffffffffffffffffffffff1673ffffffffffffffffffffffffffffffffffffffff1681526020019081526020015f205f9054906101000a900473ffffffffffffffffffffffffffffffffffffffff1690505f5f73ffffffffffffffffffffffffffffffffffffffff168273ffffffffffffffffffffffffffffffffffffffff1614612050578473ffffffffffffffffffffffffffffffffffffffff16836002015f8473ffffffffffffffffffffffffffffffffffffffff1673ffffffffffffffffffffffffffffffffffffffff1681526020019081526020015f205f9054906101000a900473ffffffffffffffffffffffffffffffffffffffff1673ffffffffffffffffffffffffffffffffffffffff161490506120f2565b8473ffffffffffffffffffffffffffffffffffffffff16836002015f5f73ffffffffffffffffffffffffffffffffffffffff1673ffffffffffffffffffffffffffffffffffffffff1681526020019081526020015f205f9054906101000a900473ffffffffffffffffffffffffffffffffffffffff1673ffffffffffffffffffffffffffffffffffffffff16036120ed57600190505f91506120f1565b5f90505b5b80612129576040517f4209c0e300000000000000000000000000000000000000000000000000000000815260040160405180910390fd5b5f836002015f8473ffffffffffffffffffffffffffffffffffffffff1673ffffffffffffffffffffffffffffffffffffffff1681526020019081526020015f205f6101000a81548173ffffffffffffffffffffffffffffffffffffffff021916908373ffffffffffffffffffffffffffffffffffffffff1602179055505f836003015f8773ffffffffffffffffffffffffffffffffffffffff1673ffffffffffffffffffffffffffffffffffffffff1681526020019081526020015f205f6101000a81548173ffffffffffffffffffffffffffffffffffffffff021916908373ffffffffffffffffffffffffffffffffffffffff1602179055508473ffffffffffffffffffffffffffffffffffffffff16836004015f9054906101000a900473ffffffffffffffffffffffffffffffffffffffff1673ffffffffffffffffffffffffffffffffffffffff1603612321575f836004015f6101000a81548173ffffffffffffffffffffffffffffffffffffffff021916908373ffffffffffffffffffffffffffffffffffffffff1602179055508173ffffffffffffffffffffffffffffffffffffffff168673ffffffffffffffffffffffffffffffffffffffff167f52ce92b576c9e725f458101a8593fe331d4d2964c77a20f2b608b39cd95cf7895f6040516123189190614d83565b60405180910390a35b8173ffffffffffffffffffffffffffffffffffffffff168673ffffffffffffffffffffffffffffffffffffffff167f07efacf833c0332f419c637a012a52fe4647777ec52b15b904c88856048dc94f5f60405161237e9190614d83565b60405180910390a3505050505050565b6005602052815f5260405f20602052805f5260405f205f915091509054906101000a900462ffffff1681565b7f000000000000000000000000000000000000000000000000000000000000000081565b5f5f9054906101000a900473ffffffffffffffffffffffffffffffffffffffff1673ffffffffffffffffffffffffffffffffffffffff163373ffffffffffffffffffffffffffffffffffffffff1614158015612487575060025f9054906101000a900473ffffffffffffffffffffffffffffffffffffffff1673ffffffffffffffffffffffffffffffffffffffff163373ffffffffffffffffffffffffffffffffffffffff1614155b156124be576040517f93f8b79800000000000000000000000000000000000000000000000000000000815260040160405180910390fd5b5f5f73ffffffffffffffffffffffffffffffffffffffff168473ffffffffffffffffffffffffffffffffffffffff16146124f8578361251a565b7f00000000000000000000000000000000000000000000000000000000000000005b90505f5f73ffffffffffffffffffffffffffffffffffffffff168473ffffffffffffffffffffffffffffffffffffffff16146125565783612578565b7f00000000000000000000000000000000000000000000000000000000000000005b90505f73ffffffffffffffffffffffffffffffffffffffff168273ffffffffffffffffffffffffffffffffffffffff1614806125df57505f73ffffffffffffffffffffffffffffffffffffffff168173ffffffffffffffffffffffffffffffffffffffff16145b15612616576040517fd92e233d00000000000000000000000000000000000000000000000000000000815260040160405180910390fd5b8260055f8473ffffffffffffffffffffffffffffffffffffffff1673ffffffffffffffffffffffffffffffffffffffff1681526020019081526020015f205f8373ffffffffffffffffffffffffffffffffffffffff1673ffffffffffffffffffffffffffffffffffffffff1681526020019081526020015f205f6101000a81548162ffffff021916908362ffffff1602179055508260055f8373ffffffffffffffffffffffffffffffffffffffff1673ffffffffffffffffffffffffffffffffffffffff1681526020019081526020015f205f8473ffffffffffffffffffffffffffffffffffffffff1673ffffffffffffffffffffffffffffffffffffffff1681526020019081526020015f205f6101000a81548162ffffff021916908362ffffff1602179055505050505050565b7f000000000000000000000000000000000000000000000000000000000000000081565b5f5f9054906101000a900473ffffffffffffffffffffffffffffffffffffffff1673ffffffffffffffffffffffffffffffffffffffff163373ffffffffffffffffffffffffffffffffffffffff1614158015612812575060025f9054906101000a900473ffffffffffffffffffffffffffffffffffffffff1673ffffffffffffffffffffffffffffffffffffffff163373ffffffffffffffffffffffffffffffffffffffff1614155b15612849576040517f93f8b79800000000000000000000000000000000000000000000000000000000815260040160405180910390fd5b6103e861ffff168261ffff16111561288d576040517fcd4e616700000000000000000000000000000000000000000000000000000000815260040160405180910390fd5b5f73ffffffffffffffffffffffffffffffffffffffff168173ffffffffffffffffffffffffffffffffffffffff16036128f2576040517fd92e233d00000000000000000000000000000000000000000000000000000000815260040160405180910390fd5b81600260146101000a81548161ffff021916908361ffff1602179055508060035f6101000a81548173ffffffffffffffffffffffffffffffffffffffff021916908373ffffffffffffffffffffffffffffffffffffffff1602179055505050565b6103e881565b5f5f5f60075f8573ffffffffffffffffffffffffffffffffffffffff1673ffffffffffffffffffffffffffffffffffffffff1681526020019081526020015f209050805f015f9054906101000a900473ffffffffffffffffffffffffffffffffffffffff16816004015f9054906101000a900473ffffffffffffffffffffffffffffffffffffffff169250925050915091565b5f5f5f5f60065f8673ffffffffffffffffffffffffffffffffffffffff1673ffffffffffffffffffffffffffffffffffffffff1681526020019081526020015f209050805f015f9054906101000a900460ff16815f0160019054906101000a900473ffffffffffffffffffffffffffffffffffffffff168260010154935093509350509193909250565b5f60075f8473ffffffffffffffffffffffffffffffffffffffff1673ffffffffffffffffffffffffffffffffffffffff1681526020019081526020015f206002015f8373ffffffffffffffffffffffffffffffffffffffff1673ffffffffffffffffffffffffffffffffffffffff1681526020019081526020015f205f9054906101000a900473ffffffffffffffffffffffffffffffffffffffff16905092915050565b818073ffffffffffffffffffffffffffffffffffffffff163373ffffffffffffffffffffffffffffffffffffffff1614158015612ba4575060025f9054906101000a900473ffffffffffffffffffffffffffffffffffffffff1673ffffffffffffffffffffffffffffffffffffffff163373ffffffffffffffffffffffffffffffffffffffff1614155b8015612bfc57505f5f9054906101000a900473ffffffffffffffffffffffffffffffffffffffff1673ffffffffffffffffffffffffffffffffffffffff163373ffffffffffffffffffffffffffffffffffffffff1614155b15612c33576040517fc828216200000000000000000000000000000000000000000000000000000000815260040160405180910390fd5b5f60075f8573ffffffffffffffffffffffffffffffffffffffff1673ffffffffffffffffffffffffffffffffffffffff1681526020019081526020015f2090505f73ffffffffffffffffffffffffffffffffffffffff168373ffffffffffffffffffffffffffffffffffffffff1603612d53575f816004015f6101000a81548173ffffffffffffffffffffffffffffffffffffffff021916908373ffffffffffffffffffffffffffffffffffffffff1602179055505f73ffffffffffffffffffffffffffffffffffffffff168473ffffffffffffffffffffffffffffffffffffffff167f52ce92b576c9e725f458101a8593fe331d4d2964c77a20f2b608b39cd95cf7895f604051612d459190614d83565b60405180910390a350612f4b565b5f60065f8573ffffffffffffffffffffffffffffffffffffffff1673ffffffffffffffffffffffffffffffffffffffff1681526020019081526020015f209050805f015f9054906101000a900460ff16612dd9576040517fab68eff500000000000000000000000000000000000000000000000000000000815260040160405180910390fd5b5f826003015f8673ffffffffffffffffffffffffffffffffffffffff1673ffffffffffffffffffffffffffffffffffffffff1681526020019081526020015f205f9054906101000a900473ffffffffffffffffffffffffffffffffffffffff1690505f73ffffffffffffffffffffffffffffffffffffffff168173ffffffffffffffffffffffffffffffffffffffff1603612ea0576040517f4209c0e300000000000000000000000000000000000000000000000000000000815260040160405180910390fd5b84836004015f6101000a81548173ffffffffffffffffffffffffffffffffffffffff021916908373ffffffffffffffffffffffffffffffffffffffff1602179055508073ffffffffffffffffffffffffffffffffffffffff168673ffffffffffffffffffffffffffffffffffffffff167f52ce92b576c9e725f458101a8593fe331d4d2964c77a20f2b608b39cd95cf78987604051612f3f9190614d83565b60405180910390a35050505b505050565b5f60075f8473ffffffffffffffffffffffffffffffffffffffff1673ffffffffffffffffffffffffffffffffffffffff1681526020019081526020015f206001015f8373ffffffffffffffffffffffffffffffffffffffff1673ffffffffffffffffffffffffffffffffffffffff1681526020019081526020015f205f9054906101000a900460ff16905092915050565b5f5f9054906101000a900473ffffffffffffffffffffffffffffffffffffffff1673ffffffffffffffffffffffffffffffffffffffff163373ffffffffffffffffffffffffffffffffffffffff1614613066576040517f5fc483c500000000000000000000000000000000000000000000000000000000815260040160405180910390fd5b5f73ffffffffffffffffffffffffffffffffffffffff168173ffffffffffffffffffffffffffffffffffffffff160361309d575f5ffd5b8073ffffffffffffffffffffffffffffffffffffffff165f5f9054906101000a900473ffffffffffffffffffffffffffffffffffffffff1673ffffffffffffffffffffffffffffffffffffffff167f8be0079c531659141344cd1fd0a4f28419497f9722a3daafe3b4186f6b6457e060405160405180910390a3805f5f6101000a81548173ffffffffffffffffffffffffffffffffffffffff021916908373ffffffffffffffffffffffffffffffffffffffff16021790555050565b828073ffffffffffffffffffffffffffffffffffffffff163373ffffffffffffffffffffffffffffffffffffffff16141580156131e3575060025f9054906101000a900473ffffffffffffffffffffffffffffffffffffffff1673ffffffffffffffffffffffffffffffffffffffff163373ffffffffffffffffffffffffffffffffffffffff1614155b801561323b57505f5f9054906101000a900473ffffffffffffffffffffffffffffffffffffffff1673ffffffffffffffffffffffffffffffffffffffff163373ffffffffffffffffffffffffffffffffffffffff1614155b15613272576040517fc828216200000000000000000000000000000000000000000000000000000000815260040160405180910390fd5b60045f8473ffffffffffffffffffffffffffffffffffffffff1673ffffffffffffffffffffffffffffffffffffffff1681526020019081526020015f205f9054906101000a900460ff166132f2576040517f7742542a00000000000000000000000000000000000000000000000000000000815260040160405180910390fd5b5f60075f8673ffffffffffffffffffffffffffffffffffffffff1673ffffffffffffffffffffffffffffffffffffffff1681526020019081526020015f20905082816001015f8673ffffffffffffffffffffffffffffffffffffffff1673ffffffffffffffffffffffffffffffffffffffff1681526020019081526020015f205f6101000a81548160ff0219169083151502179055508373ffffffffffffffffffffffffffffffffffffffff168573ffffffffffffffffffffffffffffffffffffffff167f160aca386eecd6b8deb0127ecafcd60a1081e3f9dfa75de2cfd22ea186e8d3f1856040516133e59190615094565b60405180910390a38215801561344857508373ffffffffffffffffffffffffffffffffffffffff16815f015f9054906101000a900473ffffffffffffffffffffffffffffffffffffffff1673ffffffffffffffffffffffffffffffffffffffff16145b1561348f575f815f015f6101000a81548173ffffffffffffffffffffffffffffffffffffffff021916908373ffffffffffffffffffffffffffffffffffffffff1602179055505b5050505050565b7f000000000000000000000000000000000000000000000000000000000000000081565b6004602052805f5260405f205f915054906101000a900460ff1681565b5f73ffffffffffffffffffffffffffffffffffffffff168273ffffffffffffffffffffffffffffffffffffffff160361353c576040517fd92e233d00000000000000000000000000000000000000000000000000000000815260040160405180910390fd5b8373ffffffffffffffffffffffffffffffffffffffff166323b872dd8484846040518463ffffffff1660e01b815260040161357993929190615374565b6020604051808303815f875af1158015613595573d5f5f3e3d5ffd5b505050506040513d601f19601f820116820180604052508101906135b991906153bd565b6135f8576040517f08c379a00000000000000000000000000000000000000000000000000000000081526004016135ef90615432565b60405180910390fd5b50505050565b5f73ffffffffffffffffffffffffffffffffffffffff168273ffffffffffffffffffffffffffffffffffffffff1603613663576040517fd92e233d00000000000000000000000000000000000000000000000000000000815260040160405180910390fd5b8273ffffffffffffffffffffffffffffffffffffffff1663a9059cbb83836040518363ffffffff1660e01b815260040161369e929190615450565b6020604051808303815f875af11580156136ba573d5f5f3e3d5ffd5b505050506040513d601f19601f820116820180604052508101906136de91906153bd565b61371d576040517f08c379a0000000000000000000000000000000000000000000000000000000008152600401613714906154c1565b60405180910390fd5b505050565b5f5f5f83610100015161373957836020015161373b565b5f5b90505f73ffffffffffffffffffffffffffffffffffffffff168173ffffffffffffffffffffffffffffffffffffffff16146137f3575f856002015f8373ffffffffffffffffffffffffffffffffffffffff1673ffffffffffffffffffffffffffffffffffffffff1681526020019081526020015f205f9054906101000a900473ffffffffffffffffffffffffffffffffffffffff1690506137db81614325565b156137ed578082935093505050613aba565b50613931565b5f856002015f5f73ffffffffffffffffffffffffffffffffffffffff1673ffffffffffffffffffffffffffffffffffffffff1681526020019081526020015f205f9054906101000a900473ffffffffffffffffffffffffffffffffffffffff16905061385e81614325565b1561387057805f935093505050613aba565b5f866002015f7f000000000000000000000000000000000000000000000000000000000000000073ffffffffffffffffffffffffffffffffffffffff1673ffffffffffffffffffffffffffffffffffffffff1681526020019081526020015f205f9054906101000a900473ffffffffffffffffffffffffffffffffffffffff1690506138fb81614325565b1561392e57807f000000000000000000000000000000000000000000000000000000000000000094509450505050613aba565b50505b5f856004015f9054906101000a900473ffffffffffffffffffffffffffffffffffffffff16905061396181614325565b156139d6575f866003015f8373ffffffffffffffffffffffffffffffffffffffff1673ffffffffffffffffffffffffffffffffffffffff1681526020019081526020015f205f9054906101000a900473ffffffffffffffffffffffffffffffffffffffff169050818194509450505050613aba565b5f865f015f9054906101000a900473ffffffffffffffffffffffffffffffffffffffff1690505f73ffffffffffffffffffffffffffffffffffffffff168173ffffffffffffffffffffffffffffffffffffffff1614613ab0575f876002015f8373ffffffffffffffffffffffffffffffffffffffff1673ffffffffffffffffffffffffffffffffffffffff1681526020019081526020015f205f9054906101000a900473ffffffffffffffffffffffffffffffffffffffff169050613a9a81614325565b15613aae5780829550955050505050613aba565b505b5f5f945094505050505b9250929050565b5f60065f8473ffffffffffffffffffffffffffffffffffffffff1673ffffffffffffffffffffffffffffffffffffffff1681526020019081526020015f206040518060600160405290815f82015f9054906101000a900460ff161515151581526020015f820160019054906101000a900473ffffffffffffffffffffffffffffffffffffffff1673ffffffffffffffffffffffffffffffffffffffff1673ffffffffffffffffffffffffffffffffffffffff1681526020016001820154815250509050805f0151613bbe576040517fab68eff500000000000000000000000000000000000000000000000000000000815260040160405180910390fd5b5f816020015190505f73ffffffffffffffffffffffffffffffffffffffff168173ffffffffffffffffffffffffffffffffffffffff1603613c2b576040517fc6976bd200000000000000000000000000000000000000000000000000000000815260040160405180910390fd5b8273ffffffffffffffffffffffffffffffffffffffff168173ffffffffffffffffffffffffffffffffffffffff1614613c90576040517f4d27e60600000000000000000000000000000000000000000000000000000000815260040160405180910390fd5b60045f8273ffffffffffffffffffffffffffffffffffffffff1673ffffffffffffffffffffffffffffffffffffffff1681526020019081526020015f205f9054906101000a900460ff16613d10576040517f4c3347d100000000000000000000000000000000000000000000000000000000815260040160405180910390fd5b5f613d1b8683614415565b90505f8590505f8173ffffffffffffffffffffffffffffffffffffffff166370a082318960a001516040518263ffffffff1660e01b8152600401613d5f9190614d83565b602060405180830381865afa158015613d7a573d5f5f3e3d5ffd5b505050506040513d601f19601f82011682018060405250810190613d9e91906154f3565b90505f849050613dcf885f8373ffffffffffffffffffffffffffffffffffffffff166145879092919063ffffffff16565b613dfa88858373ffffffffffffffffffffffffffffffffffffffff166145879092919063ffffffff16565b8773ffffffffffffffffffffffffffffffffffffffff1663d69961858a60a00151866040518363ffffffff1660e01b8152600401613e39929190615450565b5f604051808303815f87803b158015613e50575f5ffd5b505af1158015613e62573d5f5f3e3d5ffd5b50505050613e91885f8373ffffffffffffffffffffffffffffffffffffffff166145879092919063ffffffff16565b5f828473ffffffffffffffffffffffffffffffffffffffff166370a082318c60a001516040518263ffffffff1660e01b8152600401613ed09190614d83565b602060405180830381865afa158015613eeb573d5f5f3e3d5ffd5b505050506040513d601f19601f82011682018060405250810190613f0f91906154f3565b613f199190615300565b90505f8103613f54576040517f360fef3500000000000000000000000000000000000000000000000000000000815260040160405180910390fd5b8960c00151811015613f91576040517e50c9b700000000000000000000000000000000000000000000000000000000815260040160405180910390fd5b8573ffffffffffffffffffffffffffffffffffffffff168973ffffffffffffffffffffffffffffffffffffffff168b60a0015173ffffffffffffffffffffffffffffffffffffffff167f8f7a6fecbaab1e04e31f80b9da6e08d7f55f854f660a910ddc7cce65036babd5888560405161400b92919061551e565b60405180910390a4896020015173ffffffffffffffffffffffffffffffffffffffff168a60a0015173ffffffffffffffffffffffffffffffffffffffff168b5f015173ffffffffffffffffffffffffffffffffffffffff167f49735f6dfce36092e4e60b47019be07f553ede2d89c84c80a84ad06883a247778d604001518e606001518e87426040516140a2959493929190615545565b60405180910390a450505050505050505050565b8061010001511561416e575f8160a0015173ffffffffffffffffffffffffffffffffffffffff1682608001516040516140ee90615360565b5f6040518083038185875af1925050503d805f8114614128576040519150601f19603f3d011682016040523d82523d5f602084013e61412d565b606091505b5050905080614168576040517f5676181200000000000000000000000000000000000000000000000000000000815260040160405180910390fd5b506141a6565b6141a58160a001518260800151836020015173ffffffffffffffffffffffffffffffffffffffff166135fe9092919063ffffffff16565b5b806020015173ffffffffffffffffffffffffffffffffffffffff168160a0015173ffffffffffffffffffffffffffffffffffffffff16825f015173ffffffffffffffffffffffffffffffffffffffff167f49735f6dfce36092e4e60b47019be07f553ede2d89c84c80a84ad06883a2477784604001518560600151866020015187608001514260405161423d959493929190615545565b60405180910390a450565b5f82610100015190505f81614261578360200151614263565b5f5b90505f614285828587608001518860c001518960a001518a60e00151896146ab565b9050846020015173ffffffffffffffffffffffffffffffffffffffff168560a0015173ffffffffffffffffffffffffffffffffffffffff16865f015173ffffffffffffffffffffffffffffffffffffffff167f49735f6dfce36092e4e60b47019be07f553ede2d89c84c80a84ad06883a2477788604001518960600151898742604051614316959493929190615545565b60405180910390a45050505050565b5f5f73ffffffffffffffffffffffffffffffffffffffff168273ffffffffffffffffffffffffffffffffffffffff1603614361575f9050614410565b5f60065f8473ffffffffffffffffffffffffffffffffffffffff1673ffffffffffffffffffffffffffffffffffffffff1681526020019081526020015f209050805f015f9054906101000a900460ff16801561440c57505f73ffffffffffffffffffffffffffffffffffffffff16815f0160019054906101000a900473ffffffffffffffffffffffffffffffffffffffff1673ffffffffffffffffffffffffffffffffffffffff1614155b9150505b919050565b5f82610100015115614520577f000000000000000000000000000000000000000000000000000000000000000073ffffffffffffffffffffffffffffffffffffffff168273ffffffffffffffffffffffffffffffffffffffff1603614501577f000000000000000000000000000000000000000000000000000000000000000073ffffffffffffffffffffffffffffffffffffffff1663d0e30db084608001516040518263ffffffff1660e01b81526004015f604051808303818588803b1580156144de575f5ffd5b505af11580156144f0573d5f5f3e3d5ffd5b505050505082608001519050614581565b6145195f8385608001515f308860e0015160016146ab565b9050614581565b8173ffffffffffffffffffffffffffffffffffffffff16836020015173ffffffffffffffffffffffffffffffffffffffff16036145635782608001519050614581565b61457e83602001518385608001515f308860e001515f6146ab565b90505b92915050565b5f73ffffffffffffffffffffffffffffffffffffffff168273ffffffffffffffffffffffffffffffffffffffff16036145ec576040517fd92e233d00000000000000000000000000000000000000000000000000000000815260040160405180910390fd5b8273ffffffffffffffffffffffffffffffffffffffff1663095ea7b383836040518363ffffffff1660e01b8152600401614627929190615450565b6020604051808303815f875af1158015614643573d5f5f3e3d5ffd5b505050506040513d601f19601f8201168201806040525081019061466791906153bd565b6146a6576040517f08c379a000000000000000000000000000000000000000000000000000000000815260040161469d906155e0565b60405180910390fd5b505050565b5f5f5f5f6146b98b8b61498d565b9250925092505f6040518061010001604052808573ffffffffffffffffffffffffffffffffffffffff1681526020018473ffffffffffffffffffffffffffffffffffffffff1681526020018362ffffff1681526020018973ffffffffffffffffffffffffffffffffffffffff1681526020018881526020018b81526020018a81526020015f73ffffffffffffffffffffffffffffffffffffffff1681525090508515614801577f000000000000000000000000000000000000000000000000000000000000000073ffffffffffffffffffffffffffffffffffffffff1663414bf3898b836040518363ffffffff1660e01b81526004016147b991906156da565b60206040518083038185885af11580156147d5573d5f5f3e3d5ffd5b50505050506040513d601f19601f820116820180604052508101906147fa91906154f3565b945061497e565b61484c7f00000000000000000000000000000000000000000000000000000000000000005f8673ffffffffffffffffffffffffffffffffffffffff166145879092919063ffffffff16565b6148977f00000000000000000000000000000000000000000000000000000000000000008b8673ffffffffffffffffffffffffffffffffffffffff166145879092919063ffffffff16565b7f000000000000000000000000000000000000000000000000000000000000000073ffffffffffffffffffffffffffffffffffffffff1663414bf389826040518263ffffffff1660e01b81526004016148f091906156da565b6020604051808303815f875af115801561490c573d5f5f3e3d5ffd5b505050506040513d601f19601f8201168201806040525081019061493091906154f3565b945061497d7f00000000000000000000000000000000000000000000000000000000000000005f8673ffffffffffffffffffffffffffffffffffffffff166145879092919063ffffffff16565b5b50505050979650505050505050565b5f5f5f61499985614b74565b92506149a484614b74565b915060055f8473ffffffffffffffffffffffffffffffffffffffff1673ffffffffffffffffffffffffffffffffffffffff1681526020019081526020015f205f8373ffffffffffffffffffffffffffffffffffffffff1673ffffffffffffffffffffffffffffffffffffffff1681526020019081526020015f205f9054906101000a900462ffffff1690505f8162ffffff1603614a6d576040517f0db08e3d00000000000000000000000000000000000000000000000000000000815260040160405180910390fd5b5f73ffffffffffffffffffffffffffffffffffffffff167f000000000000000000000000000000000000000000000000000000000000000073ffffffffffffffffffffffffffffffffffffffff16631698ee828585856040518463ffffffff1660e01b8152600401614ae1939291906156f4565b602060405180830381865afa158015614afc573d5f5f3e3d5ffd5b505050506040513d601f19601f82011682018060405250810190614b20919061573d565b73ffffffffffffffffffffffffffffffffffffffff1603614b6d576040517f031a7b9000000000000000000000000000000000000000000000000000000000815260040160405180910390fd5b9250925092565b5f5f73ffffffffffffffffffffffffffffffffffffffff168273ffffffffffffffffffffffffffffffffffffffff1614614bae5781614bd0565b7f00000000000000000000000000000000000000000000000000000000000000005b9050919050565b5f5ffd5b5f73ffffffffffffffffffffffffffffffffffffffff82169050919050565b5f614c0482614bdb565b9050919050565b614c1481614bfa565b8114614c1e575f5ffd5b50565b5f81359050614c2f81614c0b565b92915050565b5f8115159050919050565b614c4981614c35565b8114614c53575f5ffd5b50565b5f81359050614c6481614c40565b92915050565b5f819050919050565b614c7c81614c6a565b8114614c86575f5ffd5b50565b5f81359050614c9781614c73565b92915050565b5f5f5f5f60808587031215614cb557614cb4614bd7565b5b5f614cc287828801614c21565b9450506020614cd387828801614c21565b9350506040614ce487828801614c56565b9250506060614cf587828801614c89565b91505092959194509250565b5f61ffff82169050919050565b614d1781614d01565b82525050565b5f602082019050614d305f830184614d0e565b92915050565b5f5f60408385031215614d4c57614d4b614bd7565b5b5f614d5985828601614c21565b9250506020614d6a85828601614c56565b9150509250929050565b614d7d81614bfa565b82525050565b5f602082019050614d965f830184614d74565b92915050565b5f5f60408385031215614db257614db1614bd7565b5b5f614dbf85828601614c21565b9250506020614dd085828601614c21565b9150509250929050565b5f60208284031215614def57614dee614bd7565b5b5f614dfc84828501614c21565b91505092915050565b5f604082019050614e185f830185614d74565b614e256020830184614d74565b9392505050565b5f5f5f5f5f5f60c08789031215614e4657614e45614bd7565b5b5f614e5389828a01614c21565b9650506020614e6489828a01614c21565b9550506040614e7589828a01614c89565b9450506060614e8689828a01614c21565b9350506080614e9789828a01614c89565b92505060a0614ea889828a01614c89565b9150509295509295509295565b5f62ffffff82169050919050565b614ecc81614eb5565b82525050565b5f602082019050614ee55f830184614ec3565b92915050565b614ef481614eb5565b8114614efe575f5ffd5b50565b5f81359050614f0f81614eeb565b92915050565b5f5f5f60608486031215614f2c57614f2b614bd7565b5b5f614f3986828701614c21565b9350506020614f4a86828701614c21565b9250506040614f5b86828701614f01565b9150509250925092565b5f819050919050565b5f614f88614f83614f7e84614bdb565b614f65565b614bdb565b9050919050565b5f614f9982614f6e565b9050919050565b5f614faa82614f8f565b9050919050565b614fba81614fa0565b82525050565b5f602082019050614fd35f830184614fb1565b92915050565b614fe281614d01565b8114614fec575f5ffd5b50565b5f81359050614ffd81614fd9565b92915050565b5f5f6040838503121561501957615018614bd7565b5b5f61502685828601614fef565b925050602061503785828601614c21565b9150509250929050565b61504a81614c35565b82525050565b61505981614c6a565b82525050565b5f6060820190506150725f830186615041565b61507f6020830185614d74565b61508c6040830184615050565b949350505050565b5f6020820190506150a75f830184615041565b92915050565b5f5f5f606084860312156150c4576150c3614bd7565b5b5f6150d186828701614c21565b93505060206150e286828701614c21565b92505060406150f386828701614c56565b9150509250925092565b5f61510782614f8f565b9050919050565b615117816150fd565b82525050565b5f6020820190506151305f83018461510e565b92915050565b5f6040820190506151495f830185615041565b6151566020830184615050565b9392505050565b5f819050919050565b5f61518061517b6151768461515d565b614f65565b614c6a565b9050919050565b61519081615166565b82525050565b5f6040820190506151a95f830185615041565b6151b66020830184615187565b9392505050565b5f82825260208201905092915050565b7f5245454e5452414e4359000000000000000000000000000000000000000000005f82015250565b5f615201600a836151bd565b915061520c826151cd565b602082019050919050565b5f6020820190508181035f83015261522e816151f5565b9050919050565b7f4e487b71000000000000000000000000000000000000000000000000000000005f52601160045260245ffd5b5f61526c82614c6a565b915061527783614c6a565b925082820261528581614c6a565b9150828204841483151761529c5761529b615235565b5b5092915050565b7f4e487b71000000000000000000000000000000000000000000000000000000005f52601260045260245ffd5b5f6152da82614c6a565b91506152e583614c6a565b9250826152f5576152f46152a3565b5b828204905092915050565b5f61530a82614c6a565b915061531583614c6a565b925082820390508181111561532d5761532c615235565b5b92915050565b5f81905092915050565b50565b5f61534b5f83615333565b91506153568261533d565b5f82019050919050565b5f61536a82615340565b9150819050919050565b5f6060820190506153875f830186614d74565b6153946020830185614d74565b6153a16040830184615050565b949350505050565b5f815190506153b781614c40565b92915050565b5f602082840312156153d2576153d1614bd7565b5b5f6153df848285016153a9565b91505092915050565b7f5452414e534645525f46524f4d5f4641494c00000000000000000000000000005f82015250565b5f61541c6012836151bd565b9150615427826153e8565b602082019050919050565b5f6020820190508181035f83015261544981615410565b9050919050565b5f6040820190506154635f830185614d74565b6154706020830184615050565b9392505050565b7f5452414e534645525f4641494c000000000000000000000000000000000000005f82015250565b5f6154ab600d836151bd565b91506154b682615477565b602082019050919050565b5f6020820190508181035f8301526154d88161549f565b9050919050565b5f815190506154ed81614c73565b92915050565b5f6020828403121561550857615507614bd7565b5b5f615515848285016154df565b91505092915050565b5f6040820190506155315f830185615050565b61553e6020830184615050565b9392505050565b5f60a0820190506155585f830188615050565b6155656020830187615050565b6155726040830186614d74565b61557f6060830185615050565b61558c6080830184615050565b9695505050505050565b7f415050524f56455f4641494c00000000000000000000000000000000000000005f82015250565b5f6155ca600c836151bd565b91506155d582615596565b602082019050919050565b5f6020820190508181035f8301526155f7816155be565b9050919050565b61560781614bfa565b82525050565b61561681614eb5565b82525050565b61562581614c6a565b82525050565b61563481614bdb565b82525050565b61010082015f82015161564f5f8501826155fe565b50602082015161566260208501826155fe565b506040820151615675604085018261560d565b50606082015161568860608501826155fe565b50608082015161569b608085018261561c565b5060a08201516156ae60a085018261561c565b5060c08201516156c160c085018261561c565b5060e08201516156d460e085018261562b565b50505050565b5f610100820190506156ee5f83018461563a565b92915050565b5f6060820190506157075f830186614d74565b6157146020830185614d74565b6157216040830184614ec3565b949350505050565b5f8151905061573781614c0b565b92915050565b5f6020828403121561575257615751614bd7565b5b5f61575f84828501615729565b9150509291505056fea26469706673582212200bbb2eebdd8dac5ff09cc8296cde4756896a43b3385690a5bde5c297a44ec5bc64736f6c634300081e00330000000000000000000000002bf7e65df939482869b96a6beb88d3e5bf58fb810000000000000000000000001234b50310ff79958509d1a9c8a92458ed1496d100000000000000000000000000000000000000000000000000000000000000fa000000000000000000000000123454ce54debe2cebce95740e9e0f65dff9dbe2",
        "nonce": "0xaa",
        "chainId": "0x138b"
      },
      "additionalContracts": [],
      "isFixedGasLimit": false
    },
    {
      "hash": "0x83b12b0242cda52dc143ca3af136c7419b24b1194a913e99efb5eb4ca0ab8a78",
      "transactionType": "CALL",
      "contractName": "KubiStreamerDonation",
      "contractAddress": "0x7a02904448ae5e3983d05ea1e77d5d91410be953",
      "function": "setGlobalWhitelist(address,bool)",
      "arguments": [
        "0x57b78b98b9Dd06E06DE145b83aeDf6F04E4C5500",
        "true"
      ],
      "transaction": {
        "from": "0x1234562eb0cd65e7d08e59f9f18d7c10b5df232a",
        "to": "0x7a02904448ae5e3983d05ea1e77d5d91410be953",
        "gas": "0x5db789c",
        "value": "0x0",
        "input": "0x25d86ced00000000000000000000000057b78b98b9dd06e06de145b83aedf6f04e4c55000000000000000000000000000000000000000000000000000000000000000001",
        "nonce": "0xab",
        "chainId": "0x138b"
      },
      "additionalContracts": [],
      "isFixedGasLimit": false
    },
    {
      "hash": "0x4ea6067080b85aa75714ce3cae0e96a7ccfb53db90bbee02886dcc2605141f7b",
      "transactionType": "CALL",
      "contractName": "KubiStreamerDonation",
      "contractAddress": "0x7a02904448ae5e3983d05ea1e77d5d91410be953",
      "function": "setGlobalWhitelist(address,bool)",
      "arguments": [
        "0x1fE9A4E25cAA2a22FC0B61010fDB0DB462FB5b29",
        "true"
      ],
      "transaction": {
        "from": "0x1234562eb0cd65e7d08e59f9f18d7c10b5df232a",
        "to": "0x7a02904448ae5e3983d05ea1e77d5d91410be953",
        "gas": "0x5dd7ab5",
        "value": "0x0",
        "input": "0x25d86ced0000000000000000000000001fe9a4e25caa2a22fc0b61010fdb0db462fb5b290000000000000000000000000000000000000000000000000000000000000001",
        "nonce": "0xac",
        "chainId": "0x138b"
      },
      "additionalContracts": [],
      "isFixedGasLimit": false
    },
    {
      "hash": "0x0207313de9145b0babe6ea51e0cf6be335c535d1b68f0e44355ba7c622c6c0b5",
      "transactionType": "CALL",
      "contractName": "KubiStreamerDonation",
      "contractAddress": "0x7a02904448ae5e3983d05ea1e77d5d91410be953",
      "function": "setGlobalWhitelist(address,bool)",
      "arguments": [
        "0x5e1E8043381F3A21a1A64f46073daF7E74fEdC1E",
        "true"
      ],
      "transaction": {
        "from": "0x1234562eb0cd65e7d08e59f9f18d7c10b5df232a",
        "to": "0x7a02904448ae5e3983d05ea1e77d5d91410be953",
        "gas": "0x5dd7ab5",
        "value": "0x0",
        "input": "0x25d86ced0000000000000000000000005e1e8043381f3a21a1a64f46073daf7e74fedc1e0000000000000000000000000000000000000000000000000000000000000001",
        "nonce": "0xad",
        "chainId": "0x138b"
      },
      "additionalContracts": [],
      "isFixedGasLimit": false
    },
    {
      "hash": "0x124ed343d98f05436f9f72d0c72ae1fdf501fb01ea96ca6689c2ea4b8a8b4014",
      "transactionType": "CALL",
      "contractName": "KubiStreamerDonation",
      "contractAddress": "0x7a02904448ae5e3983d05ea1e77d5d91410be953",
      "function": "setGlobalWhitelist(address,bool)",
      "arguments": [
        "0x06C1e044D5BEb614faA6128001F519e6c693a044",
        "true"
      ],
      "transaction": {
        "from": "0x1234562eb0cd65e7d08e59f9f18d7c10b5df232a",
        "to": "0x7a02904448ae5e3983d05ea1e77d5d91410be953",
        "gas": "0x5dd7ab5",
        "value": "0x0",
        "input": "0x25d86ced00000000000000000000000006c1e044d5beb614faa6128001f519e6c693a0440000000000000000000000000000000000000000000000000000000000000001",
        "nonce": "0xae",
        "chainId": "0x138b"
      },
      "additionalContracts": [],
      "isFixedGasLimit": false
    },
    {
      "hash": "0x22051e56e6ac05075ffe5c3060c3244f7afd202a8d960d7cbbee82cb1eb24f54",
      "transactionType": "CALL",
      "contractName": "KubiStreamerDonation",
      "contractAddress": "0x7a02904448ae5e3983d05ea1e77d5d91410be953",
      "function": "setGlobalWhitelist(address,bool)",
      "arguments": [
        "0x85B8Dc34C7Af35baC8a45CfF53353f39E6F732A2",
        "true"
      ],
      "transaction": {
        "from": "0x1234562eb0cd65e7d08e59f9f18d7c10b5df232a",
        "to": "0x7a02904448ae5e3983d05ea1e77d5d91410be953",
        "gas": "0x5dd7ab5",
        "value": "0x0",
        "input": "0x25d86ced00000000000000000000000085b8dc34c7af35bac8a45cff53353f39e6f732a20000000000000000000000000000000000000000000000000000000000000001",
        "nonce": "0xaf",
        "chainId": "0x138b"
      },
      "additionalContracts": [],
      "isFixedGasLimit": false
    },
    {
      "hash": "0x11b43fb85338bc6cdd17bab26d67d67bda6a4bd8bcff2a962c0a151b210d33b2",
      "transactionType": "CALL",
      "contractName": "KubiStreamerDonation",
      "contractAddress": "0x7a02904448ae5e3983d05ea1e77d5d91410be953",
      "function": "setGlobalWhitelist(address,bool)",
      "arguments": [
        "0x7392e9E58f202Da3877776c41683AC457DFd4CD7",
        "true"
      ],
      "transaction": {
        "from": "0x1234562eb0cd65e7d08e59f9f18d7c10b5df232a",
        "to": "0x7a02904448ae5e3983d05ea1e77d5d91410be953",
        "gas": "0x5dd7ab5",
        "value": "0x0",
        "input": "0x25d86ced0000000000000000000000007392e9e58f202da3877776c41683ac457dfd4cd70000000000000000000000000000000000000000000000000000000000000001",
        "nonce": "0xb0",
        "chainId": "0x138b"
      },
      "additionalContracts": [],
      "isFixedGasLimit": false
    },
    {
      "hash": "0x74d3f58fd6b51aa5debca2db4c33bc0102dc95f245d902c9c1697627cdeb26db",
      "transactionType": "CALL",
      "contractName": "KubiStreamerDonation",
      "contractAddress": "0x7a02904448ae5e3983d05ea1e77d5d91410be953",
      "function": "setGlobalWhitelist(address,bool)",
      "arguments": [
        "0xB03a4Cf6EB030BbABd0452300b01C7DCb9584737",
        "true"
      ],
      "transaction": {
        "from": "0x1234562eb0cd65e7d08e59f9f18d7c10b5df232a",
        "to": "0x7a02904448ae5e3983d05ea1e77d5d91410be953",
        "gas": "0x5dd7ab5",
        "value": "0x0",
        "input": "0x25d86ced000000000000000000000000b03a4cf6eb030bbabd0452300b01c7dcb95847370000000000000000000000000000000000000000000000000000000000000001",
        "nonce": "0xb1",
        "chainId": "0x138b"
      },
      "additionalContracts": [],
      "isFixedGasLimit": false
    },
    {
      "hash": "0x40dadfebee8b560fdc92bafa57598436e7aa33c4eba816f518168c181741109d",
      "transactionType": "CALL",
      "contractName": "KubiStreamerDonation",
      "contractAddress": "0x7a02904448ae5e3983d05ea1e77d5d91410be953",
      "function": "setGlobalWhitelist(address,bool)",
      "arguments": [
        "0x2ffc2F655A26A4def63EFCD59930d1241EE0519a",
        "true"
      ],
      "transaction": {
        "from": "0x1234562eb0cd65e7d08e59f9f18d7c10b5df232a",
        "to": "0x7a02904448ae5e3983d05ea1e77d5d91410be953",
        "gas": "0x5dd7ab5",
        "value": "0x0",
        "input": "0x25d86ced0000000000000000000000002ffc2f655a26a4def63efcd59930d1241ee0519a0000000000000000000000000000000000000000000000000000000000000001",
        "nonce": "0xb2",
        "chainId": "0x138b"
      },
      "additionalContracts": [],
      "isFixedGasLimit": false
    },
    {
      "hash": "0x0bda552fdd0bf4455f0ff70546cc0487762cd368518f5e0622fd57233847d2d8",
      "transactionType": "CALL",
      "contractName": "KubiStreamerDonation",
      "contractAddress": "0x7a02904448ae5e3983d05ea1e77d5d91410be953",
      "function": "setGlobalWhitelist(address,bool)",
      "arguments": [
        "0x14ac27F376b03b6C05F2189c4f03febB5d76432A",
        "true"
      ],
      "transaction": {
        "from": "0x1234562eb0cd65e7d08e59f9f18d7c10b5df232a",
        "to": "0x7a02904448ae5e3983d05ea1e77d5d91410be953",
        "gas": "0x5dd7ab5",
        "value": "0x0",
        "input": "0x25d86ced00000000000000000000000014ac27f376b03b6c05f2189c4f03febb5d76432a0000000000000000000000000000000000000000000000000000000000000001",
        "nonce": "0xb3",
        "chainId": "0x138b"
      },
      "additionalContracts": [],
      "isFixedGasLimit": false
    },
    {
      "hash": "0xc286028cf14853809d46157175320be387ed04a542e72a059c42dd1a3ceb05b9",
      "transactionType": "CALL",
      "contractName": "KubiStreamerDonation",
      "contractAddress": "0x7a02904448ae5e3983d05ea1e77d5d91410be953",
      "function": "setGlobalWhitelist(address,bool)",
      "arguments": [
        "0xdac9107491b3c59A97d7f45CEfC97353f6aB46b2",
        "true"
      ],
      "transaction": {
        "from": "0x1234562eb0cd65e7d08e59f9f18d7c10b5df232a",
        "to": "0x7a02904448ae5e3983d05ea1e77d5d91410be953",
        "gas": "0x5dd7ab5",
        "value": "0x0",
        "input": "0x25d86ced000000000000000000000000dac9107491b3c59a97d7f45cefc97353f6ab46b20000000000000000000000000000000000000000000000000000000000000001",
        "nonce": "0xb4",
        "chainId": "0x138b"
      },
      "additionalContracts": [],
      "isFixedGasLimit": false
    },
    {
      "hash": "0xb736f013902458f78558361903369431e4e79e4150e69b3aded55665511106f4",
      "transactionType": "CALL",
      "contractName": "KubiStreamerDonation",
      "contractAddress": "0x7a02904448ae5e3983d05ea1e77d5d91410be953",
      "function": "setGlobalWhitelist(address,bool)",
      "arguments": [
        "0x9b94108165eF58C9736F2C34B09e3b5b62cF5218",
        "true"
      ],
      "transaction": {
        "from": "0x1234562eb0cd65e7d08e59f9f18d7c10b5df232a",
        "to": "0x7a02904448ae5e3983d05ea1e77d5d91410be953",
        "gas": "0x5dd7ab5",
        "value": "0x0",
        "input": "0x25d86ced0000000000000000000000009b94108165ef58c9736f2c34b09e3b5b62cf52180000000000000000000000000000000000000000000000000000000000000001",
        "nonce": "0xb5",
        "chainId": "0x138b"
      },
      "additionalContracts": [],
      "isFixedGasLimit": false
    },
    {
      "hash": "0x8564d9e24649ca333c0a81681e54d3f70ab1a513de132e9ae3b47ec27bf40b90",
      "transactionType": "CALL",
      "contractName": "KubiStreamerDonation",
      "contractAddress": "0x7a02904448ae5e3983d05ea1e77d5d91410be953",
      "function": "setPoolFee(address,address,uint24)",
      "arguments": [
        "0x57b78b98b9Dd06E06DE145b83aeDf6F04E4C5500",
        "0x1fE9A4E25cAA2a22FC0B61010fDB0DB462FB5b29",
        "3000"
      ],
      "transaction": {
        "from": "0x1234562eb0cd65e7d08e59f9f18d7c10b5df232a",
        "to": "0x7a02904448ae5e3983d05ea1e77d5d91410be953",
        "gas": "0x61b1047",
        "value": "0x0",
        "input": "0xb45faa7600000000000000000000000057b78b98b9dd06e06de145b83aedf6f04e4c55000000000000000000000000001fe9a4e25caa2a22fc0b61010fdb0db462fb5b290000000000000000000000000000000000000000000000000000000000000bb8",
        "nonce": "0xb6",
        "chainId": "0x138b"
      },
      "additionalContracts": [],
      "isFixedGasLimit": false
    },
    {
      "hash": "0x4c122486768987997a1554e0546f42c6b8067ab87278824d4aa391a6aec00496",
      "transactionType": "CALL",
      "contractName": "KubiStreamerDonation",
      "contractAddress": "0x7a02904448ae5e3983d05ea1e77d5d91410be953",
      "function": "setPoolFee(address,address,uint24)",
      "arguments": [
        "0x57b78b98b9Dd06E06DE145b83aeDf6F04E4C5500",
        "0x5e1E8043381F3A21a1A64f46073daF7E74fEdC1E",
        "3000"
      ],
      "transaction": {
        "from": "0x1234562eb0cd65e7d08e59f9f18d7c10b5df232a",
        "to": "0x7a02904448ae5e3983d05ea1e77d5d91410be953",
        "gas": "0x61b1047",
        "value": "0x0",
        "input": "0xb45faa7600000000000000000000000057b78b98b9dd06e06de145b83aedf6f04e4c55000000000000000000000000005e1e8043381f3a21a1a64f46073daf7e74fedc1e0000000000000000000000000000000000000000000000000000000000000bb8",
        "nonce": "0xb7",
        "chainId": "0x138b"
      },
      "additionalContracts": [],
      "isFixedGasLimit": false
    },
    {
      "hash": "0x6bb941bfe41303f7b0b8feae827a3c365ec469c43d815d2c6b5d76fad5ae8ad7",
      "transactionType": "CALL",
      "contractName": "KubiStreamerDonation",
      "contractAddress": "0x7a02904448ae5e3983d05ea1e77d5d91410be953",
      "function": "setYieldConfig(address,address,bool,uint256)",
      "arguments": [
        "0xAee2A87701aFEF956473d547bD02cD736729D8a7",
        "0x1fE9A4E25cAA2a22FC0B61010fDB0DB462FB5b29",
        "true",
        "0"
      ],
      "transaction": {
        "from": "0x1234562eb0cd65e7d08e59f9f18d7c10b5df232a",
        "to": "0x7a02904448ae5e3983d05ea1e77d5d91410be953",
        "gas": "0x6307bf5",
        "value": "0x0",
        "input": "0x0c495f96000000000000000000000000aee2a87701afef956473d547bd02cd736729d8a70000000000000000000000001fe9a4e25caa2a22fc0b61010fdb0db462fb5b2900000000000000000000000000000000000000000000000000000000000000010000000000000000000000000000000000000000000000000000000000000000",
        "nonce": "0xb8",
        "chainId": "0x138b"
      },
      "additionalContracts": [],
      "isFixedGasLimit": false
    },
    {
      "hash": "0xf2b1a27148e98cf16e881e3a38d418841fd4e70690c7df39d0a776554c570819",
      "transactionType": "CALL",
      "contractName": "KubiStreamerDonation",
      "contractAddress": "0x7a02904448ae5e3983d05ea1e77d5d91410be953",
      "function": "setYieldConfig(address,address,bool,uint256)",
      "arguments": [
        "0x6aaBE7258f09474e62E8BebB1cf90E15fbAAF777",
        "0x5e1E8043381F3A21a1A64f46073daF7E74fEdC1E",
        "true",
        "0"
      ],
      "transaction": {
        "from": "0x1234562eb0cd65e7d08e59f9f18d7c10b5df232a",
        "to": "0x7a02904448ae5e3983d05ea1e77d5d91410be953",
        "gas": "0x6307bf5",
        "value": "0x0",
        "input": "0x0c495f960000000000000000000000006aabe7258f09474e62e8bebb1cf90e15fbaaf7770000000000000000000000005e1e8043381f3a21a1a64f46073daf7e74fedc1e00000000000000000000000000000000000000000000000000000000000000010000000000000000000000000000000000000000000000000000000000000000",
        "nonce": "0xb9",
        "chainId": "0x138b"
      },
      "additionalContracts": [],
      "isFixedGasLimit": false
    },
    {
      "hash": "0xf27d8b6ffe0e0bc6b4a30673ff186bb2c9b6ecd39df614c4c01f73ade7e0f17f",
      "transactionType": "CALL",
      "contractName": "KubiStreamerDonation",
      "contractAddress": "0x7a02904448ae5e3983d05ea1e77d5d91410be953",
      "function": "setYieldConfig(address,address,bool,uint256)",
      "arguments": [
        "0x5C70fB2a739e9e7Ad5c4311ABF99E0fB65c07eE9",
        "0x06C1e044D5BEb614faA6128001F519e6c693a044",
        "true",
        "0"
      ],
      "transaction": {
        "from": "0x1234562eb0cd65e7d08e59f9f18d7c10b5df232a",
        "to": "0x7a02904448ae5e3983d05ea1e77d5d91410be953",
        "gas": "0x6307bf5",
        "value": "0x0",
        "input": "0x0c495f960000000000000000000000005c70fb2a739e9e7ad5c4311abf99e0fb65c07ee900000000000000000000000006c1e044d5beb614faa6128001f519e6c693a04400000000000000000000000000000000000000000000000000000000000000010000000000000000000000000000000000000000000000000000000000000000",
        "nonce": "0xba",
        "chainId": "0x138b"
      },
      "additionalContracts": [],
      "isFixedGasLimit": false
    },
    {
      "hash": "0x91cd680c4d9ecc9456823c9dba681b49b593597ade82e5cd02e1d3560cb685ae",
      "transactionType": "CALL",
      "contractName": "KubiStreamerDonation",
      "contractAddress": "0x7a02904448ae5e3983d05ea1e77d5d91410be953",
      "function": "setYieldConfig(address,address,bool,uint256)",
      "arguments": [
        "0xbB6Dd87f1fe0483d9FFA90f7A163Caf21F40BA6c",
        "0x85B8Dc34C7Af35baC8a45CfF53353f39E6F732A2",
        "true",
        "0"
      ],
      "transaction": {
        "from": "0x1234562eb0cd65e7d08e59f9f18d7c10b5df232a",
        "to": "0x7a02904448ae5e3983d05ea1e77d5d91410be953",
        "gas": "0x6307bf5",
        "value": "0x0",
        "input": "0x0c495f96000000000000000000000000bb6dd87f1fe0483d9ffa90f7a163caf21f40ba6c00000000000000000000000085b8dc34c7af35bac8a45cff53353f39e6f732a200000000000000000000000000000000000000000000000000000000000000010000000000000000000000000000000000000000000000000000000000000000",
        "nonce": "0xbb",
        "chainId": "0x138b"
      },
      "additionalContracts": [],
      "isFixedGasLimit": false
    },
    {
      "hash": "0x45ad78c6cbfc311ed849622312b7c7f54259c845fe9013a5c290d0a06fc0192c",
      "transactionType": "CALL",
      "contractName": "KubiStreamerDonation",
      "contractAddress": "0x7a02904448ae5e3983d05ea1e77d5d91410be953",
      "function": "setYieldConfig(address,address,bool,uint256)",
      "arguments": [
        "0xcE74630446990AcF6Cd56facBbd6EE908eE55562",
        "0x7392e9E58f202Da3877776c41683AC457DFd4CD7",
        "true",
        "0"
      ],
      "transaction": {
        "from": "0x1234562eb0cd65e7d08e59f9f18d7c10b5df232a",
        "to": "0x7a02904448ae5e3983d05ea1e77d5d91410be953",
        "gas": "0x6307bf5",
        "value": "0x0",
        "input": "0x0c495f96000000000000000000000000ce74630446990acf6cd56facbbd6ee908ee555620000000000000000000000007392e9e58f202da3877776c41683ac457dfd4cd700000000000000000000000000000000000000000000000000000000000000010000000000000000000000000000000000000000000000000000000000000000",
        "nonce": "0xbc",
        "chainId": "0x138b"
      },
      "additionalContracts": [],
      "isFixedGasLimit": false
    },
    {
      "hash": "0xcdd15deef75487637daa9dc99408662bba4840f3ed39a72f7b005d72f2745e06",
      "transactionType": "CALL",
      "contractName": "KubiStreamerDonation",
      "contractAddress": "0x7a02904448ae5e3983d05ea1e77d5d91410be953",
      "function": "setYieldConfig(address,address,bool,uint256)",
      "arguments": [
        "0xdCC41dee829C1246a936dC5E801cB24303445651",
        "0x1fE9A4E25cAA2a22FC0B61010fDB0DB462FB5b29",
        "true",
        "0"
      ],
      "transaction": {
        "from": "0x1234562eb0cd65e7d08e59f9f18d7c10b5df232a",
        "to": "0x7a02904448ae5e3983d05ea1e77d5d91410be953",
        "gas": "0x6307bf5",
        "value": "0x0",
        "input": "0x0c495f96000000000000000000000000dcc41dee829c1246a936dc5e801cb243034456510000000000000000000000001fe9a4e25caa2a22fc0b61010fdb0db462fb5b2900000000000000000000000000000000000000000000000000000000000000010000000000000000000000000000000000000000000000000000000000000000",
        "nonce": "0xbd",
        "chainId": "0x138b"
      },
      "additionalContracts": [],
      "isFixedGasLimit": false
    },
    {
      "hash": "0x165c189799d006cdd3a944ccbc97d45146cd4858db7369e517b8d0c9d7682dc1",
      "transactionType": "CALL",
      "contractName": "KubiStreamerDonation",
      "contractAddress": "0x7a02904448ae5e3983d05ea1e77d5d91410be953",
      "function": "setYieldConfig(address,address,bool,uint256)",
      "arguments": [
        "0x8f5816ca88ED2775305b154625744E36943Cc750",
        "0x5e1E8043381F3A21a1A64f46073daF7E74fEdC1E",
        "true",
        "0"
      ],
      "transaction": {
        "from": "0x1234562eb0cd65e7d08e59f9f18d7c10b5df232a",
        "to": "0x7a02904448ae5e3983d05ea1e77d5d91410be953",
        "gas": "0x6307bf5",
        "value": "0x0",
        "input": "0x0c495f960000000000000000000000008f5816ca88ed2775305b154625744e36943cc7500000000000000000000000005e1e8043381f3a21a1a64f46073daf7e74fedc1e00000000000000000000000000000000000000000000000000000000000000010000000000000000000000000000000000000000000000000000000000000000",
        "nonce": "0xbe",
        "chainId": "0x138b"
      },
      "additionalContracts": [],
      "isFixedGasLimit": false
    },
    {
      "hash": "0x51e2d6a3b420fdedae38e387227fb63b5afee25e76a38558b3feaaa854afdc84",
      "transactionType": "CALL",
      "contractName": "KubiStreamerDonation",
      "contractAddress": "0x7a02904448ae5e3983d05ea1e77d5d91410be953",
      "function": "setYieldConfig(address,address,bool,uint256)",
      "arguments": [
        "0x2BB55f68fb05De13B04e5a2cadbAE5A05bCE277B",
        "0x06C1e044D5BEb614faA6128001F519e6c693a044",
        "true",
        "0"
      ],
      "transaction": {
        "from": "0x1234562eb0cd65e7d08e59f9f18d7c10b5df232a",
        "to": "0x7a02904448ae5e3983d05ea1e77d5d91410be953",
        "gas": "0x6307bf5",
        "value": "0x0",
        "input": "0x0c495f960000000000000000000000002bb55f68fb05de13b04e5a2cadbae5a05bce277b00000000000000000000000006c1e044d5beb614faa6128001f519e6c693a04400000000000000000000000000000000000000000000000000000000000000010000000000000000000000000000000000000000000000000000000000000000",
        "nonce": "0xbf",
        "chainId": "0x138b"
      },
      "additionalContracts": [],
      "isFixedGasLimit": false
    },
    {
      "hash": "0x77e3317a858f65d7e603fcf373701fa6a0c2c405ccdf35bc1e4c96d2252b0ccf",
      "transactionType": "CALL",
      "contractName": "KubiStreamerDonation",
      "contractAddress": "0x7a02904448ae5e3983d05ea1e77d5d91410be953",
      "function": "setYieldConfig(address,address,bool,uint256)",
      "arguments": [
        "0xa022FD1966577144fCb5Ed8aD5a134861aE5e138",
        "0x85B8Dc34C7Af35baC8a45CfF53353f39E6F732A2",
        "true",
        "0"
      ],
      "transaction": {
        "from": "0x1234562eb0cd65e7d08e59f9f18d7c10b5df232a",
        "to": "0x7a02904448ae5e3983d05ea1e77d5d91410be953",
        "gas": "0x6307bf5",
        "value": "0x0",
        "input": "0x0c495f96000000000000000000000000a022fd1966577144fcb5ed8ad5a134861ae5e13800000000000000000000000085b8dc34c7af35bac8a45cff53353f39e6f732a200000000000000000000000000000000000000000000000000000000000000010000000000000000000000000000000000000000000000000000000000000000",
        "nonce": "0xc0",
        "chainId": "0x138b"
      },
      "additionalContracts": [],
      "isFixedGasLimit": false
    },
    {
      "hash": "0xc77eff2a67f6beeeb6d72109aec3a99803df016830102d6635d339208ac7f6b2",
      "transactionType": "CALL",
      "contractName": "KubiStreamerDonation",
      "contractAddress": "0x7a02904448ae5e3983d05ea1e77d5d91410be953",
      "function": "setYieldConfig(address,address,bool,uint256)",
      "arguments": [
        "0xEC4c46F46191d77C3D8Ba3ddFafe71b58E2089Af",
        "0x7392e9E58f202Da3877776c41683AC457DFd4CD7",
        "true",
        "0"
      ],
      "transaction": {
        "from": "0x1234562eb0cd65e7d08e59f9f18d7c10b5df232a",
        "to": "0x7a02904448ae5e3983d05ea1e77d5d91410be953",
        "gas": "0x6307bf5",
        "value": "0x0",
        "input": "0x0c495f96000000000000000000000000ec4c46f46191d77c3d8ba3ddfafe71b58e2089af0000000000000000000000007392e9e58f202da3877776c41683ac457dfd4cd700000000000000000000000000000000000000000000000000000000000000010000000000000000000000000000000000000000000000000000000000000000",
        "nonce": "0xc1",
        "chainId": "0x138b"
      },
      "additionalContracts": [],
      "isFixedGasLimit": false
    },
    {
      "hash": "0x40ab7233a935bbd58fabbeb0d063477792a7cabbe51618afe720beb683a4c176",
      "transactionType": "CALL",
      "contractName": "KubiStreamerDonation",
      "contractAddress": "0x7a02904448ae5e3983d05ea1e77d5d91410be953",
      "function": "setYieldConfig(address,address,bool,uint256)",
      "arguments": [
        "0xE47Eba0dBf716D99482Fb071ca04aDf4FCCd6b1f",
        "0x1fE9A4E25cAA2a22FC0B61010fDB0DB462FB5b29",
        "true",
        "0"
      ],
      "transaction": {
        "from": "0x1234562eb0cd65e7d08e59f9f18d7c10b5df232a",
        "to": "0x7a02904448ae5e3983d05ea1e77d5d91410be953",
        "gas": "0x6307bf5",
        "value": "0x0",
        "input": "0x0c495f96000000000000000000000000e47eba0dbf716d99482fb071ca04adf4fccd6b1f0000000000000000000000001fe9a4e25caa2a22fc0b61010fdb0db462fb5b2900000000000000000000000000000000000000000000000000000000000000010000000000000000000000000000000000000000000000000000000000000000",
        "nonce": "0xc2",
        "chainId": "0x138b"
      },
      "additionalContracts": [],
      "isFixedGasLimit": false
    },
    {
      "hash": "0x807ae9a5c8f13b9003f43f42500e9a4fcacfbbd96be4255276146f577fd03770",
      "transactionType": "CALL",
      "contractName": "KubiStreamerDonation",
      "contractAddress": "0x7a02904448ae5e3983d05ea1e77d5d91410be953",
      "function": "setYieldConfig(address,address,bool,uint256)",
      "arguments": [
        "0x4E3A466BbA553Ace4Cd3a6149d574F3f034b5269",
        "0x5e1E8043381F3A21a1A64f46073daF7E74fEdC1E",
        "true",
        "0"
      ],
      "transaction": {
        "from": "0x1234562eb0cd65e7d08e59f9f18d7c10b5df232a",
        "to": "0x7a02904448ae5e3983d05ea1e77d5d91410be953",
        "gas": "0x6307bf5",
        "value": "0x0",
        "input": "0x0c495f960000000000000000000000004e3a466bba553ace4cd3a6149d574f3f034b52690000000000000000000000005e1e8043381f3a21a1a64f46073daf7e74fedc1e00000000000000000000000000000000000000000000000000000000000000010000000000000000000000000000000000000000000000000000000000000000",
        "nonce": "0xc3",
        "chainId": "0x138b"
      },
      "additionalContracts": [],
      "isFixedGasLimit": false
    },
    {
      "hash": "0xe911e94ab723a1843d48bf53d323f0b7be10103ed6593d8efb22a16ece911eb3",
      "transactionType": "CALL",
      "contractName": "KubiStreamerDonation",
      "contractAddress": "0x7a02904448ae5e3983d05ea1e77d5d91410be953",
      "function": "setYieldConfig(address,address,bool,uint256)",
      "arguments": [
        "0x751A0E0147d10b8C21804AC88DCfa6837312ea35",
        "0x06C1e044D5BEb614faA6128001F519e6c693a044",
        "true",
        "0"
      ],
      "transaction": {
        "from": "0x1234562eb0cd65e7d08e59f9f18d7c10b5df232a",
        "to": "0x7a02904448ae5e3983d05ea1e77d5d91410be953",
        "gas": "0x6307bf5",
        "value": "0x0",
        "input": "0x0c495f96000000000000000000000000751a0e0147d10b8c21804ac88dcfa6837312ea3500000000000000000000000006c1e044d5beb614faa6128001f519e6c693a04400000000000000000000000000000000000000000000000000000000000000010000000000000000000000000000000000000000000000000000000000000000",
        "nonce": "0xc4",
        "chainId": "0x138b"
      },
      "additionalContracts": [],
      "isFixedGasLimit": false
    },
    {
      "hash": "0x68450dcc87f2ad9314b9c7f9ed4227c90f69d2dbcb8c8e4f445472d152bbf397",
      "transactionType": "CALL",
      "contractName": "KubiStreamerDonation",
      "contractAddress": "0x7a02904448ae5e3983d05ea1e77d5d91410be953",
      "function": "setYieldConfig(address,address,bool,uint256)",
      "arguments": [
        "0xD8D362BADb84Cc1F97a00273ddC8845FD4148C80",
        "0x85B8Dc34C7Af35baC8a45CfF53353f39E6F732A2",
        "true",
        "0"
      ],
      "transaction": {
        "from": "0x1234562eb0cd65e7d08e59f9f18d7c10b5df232a",
        "to": "0x7a02904448ae5e3983d05ea1e77d5d91410be953",
        "gas": "0x6307bf5",
        "value": "0x0",
        "input": "0x0c495f96000000000000000000000000d8d362badb84cc1f97a00273ddc8845fd4148c8000000000000000000000000085b8dc34c7af35bac8a45cff53353f39e6f732a200000000000000000000000000000000000000000000000000000000000000010000000000000000000000000000000000000000000000000000000000000000",
        "nonce": "0xc5",
        "chainId": "0x138b"
      },
      "additionalContracts": [],
      "isFixedGasLimit": false
    },
    {
      "hash": "0x07b131c51dc6df428df4bdd8509aab2c2eeafef22c978b28b21344c560978130",
      "transactionType": "CALL",
      "contractName": "KubiStreamerDonation",
      "contractAddress": "0x7a02904448ae5e3983d05ea1e77d5d91410be953",
      "function": "setYieldConfig(address,address,bool,uint256)",
      "arguments": [
        "0x1061473A78f6eb0a0BcBDE060a5EeA9d4273BB59",
        "0x7392e9E58f202Da3877776c41683AC457DFd4CD7",
        "true",
        "0"
      ],
      "transaction": {
        "from": "0x1234562eb0cd65e7d08e59f9f18d7c10b5df232a",
        "to": "0x7a02904448ae5e3983d05ea1e77d5d91410be953",
        "gas": "0x6307bf5",
        "value": "0x0",
        "input": "0x0c495f960000000000000000000000001061473a78f6eb0a0bcbde060a5eea9d4273bb590000000000000000000000007392e9e58f202da3877776c41683ac457dfd4cd700000000000000000000000000000000000000000000000000000000000000010000000000000000000000000000000000000000000000000000000000000000",
        "nonce": "0xc6",
        "chainId": "0x138b"
      },
      "additionalContracts": [],
      "isFixedGasLimit": false
    },
    {
      "hash": "0x0d813d65d89691270e92a204213be36999e918de437c942f63dbda9d864d35d0",
      "transactionType": "CALL",
      "contractName": "KubiStreamerDonation",
      "contractAddress": "0x7a02904448ae5e3983d05ea1e77d5d91410be953",
      "function": "setYieldConfig(address,address,bool,uint256)",
      "arguments": [
        "0x824FB936D24B2BAaF92Fe87FD65fF22d01439ECE",
        "0x1fE9A4E25cAA2a22FC0B61010fDB0DB462FB5b29",
        "true",
        "0"
      ],
      "transaction": {
        "from": "0x1234562eb0cd65e7d08e59f9f18d7c10b5df232a",
        "to": "0x7a02904448ae5e3983d05ea1e77d5d91410be953",
        "gas": "0x6307bf5",
        "value": "0x0",
        "input": "0x0c495f96000000000000000000000000824fb936d24b2baaf92fe87fd65ff22d01439ece0000000000000000000000001fe9a4e25caa2a22fc0b61010fdb0db462fb5b2900000000000000000000000000000000000000000000000000000000000000010000000000000000000000000000000000000000000000000000000000000000",
        "nonce": "0xc7",
        "chainId": "0x138b"
      },
      "additionalContracts": [],
      "isFixedGasLimit": false
    },
    {
      "hash": "0x008fb50a0f06cd9a90747fd4d81942771df8b40787eb602f4b0192c876d5cbfa",
      "transactionType": "CALL",
      "contractName": "KubiStreamerDonation",
      "contractAddress": "0x7a02904448ae5e3983d05ea1e77d5d91410be953",
      "function": "setYieldConfig(address,address,bool,uint256)",
      "arguments": [
        "0x012bd7CD0AcC8cB696306B1aB7a537E85eF2056f",
        "0x5e1E8043381F3A21a1A64f46073daF7E74fEdC1E",
        "true",
        "0"
      ],
      "transaction": {
        "from": "0x1234562eb0cd65e7d08e59f9f18d7c10b5df232a",
        "to": "0x7a02904448ae5e3983d05ea1e77d5d91410be953",
        "gas": "0x6307bf5",
        "value": "0x0",
        "input": "0x0c495f96000000000000000000000000012bd7cd0acc8cb696306b1ab7a537e85ef2056f0000000000000000000000005e1e8043381f3a21a1a64f46073daf7e74fedc1e00000000000000000000000000000000000000000000000000000000000000010000000000000000000000000000000000000000000000000000000000000000",
        "nonce": "0xc8",
        "chainId": "0x138b"
      },
      "additionalContracts": [],
      "isFixedGasLimit": false
    },
    {
      "hash": "0x7bc2a4fb6c80e84a12c805bf60b0e8438d8d6ee5e2bdeced98f1bedf370338eb",
      "transactionType": "CALL",
      "contractName": "KubiStreamerDonation",
      "contractAddress": "0x7a02904448ae5e3983d05ea1e77d5d91410be953",
      "function": "setYieldConfig(address,address,bool,uint256)",
      "arguments": [
        "0x4d8346F2F33FFBc7fa2E46bECF83C978943e69C8",
        "0x06C1e044D5BEb614faA6128001F519e6c693a044",
        "true",
        "0"
      ],
      "transaction": {
        "from": "0x1234562eb0cd65e7d08e59f9f18d7c10b5df232a",
        "to": "0x7a02904448ae5e3983d05ea1e77d5d91410be953",
        "gas": "0x6307bf5",
        "value": "0x0",
        "input": "0x0c495f960000000000000000000000004d8346f2f33ffbc7fa2e46becf83c978943e69c800000000000000000000000006c1e044d5beb614faa6128001f519e6c693a04400000000000000000000000000000000000000000000000000000000000000010000000000000000000000000000000000000000000000000000000000000000",
        "nonce": "0xc9",
        "chainId": "0x138b"
      },
      "additionalContracts": [],
      "isFixedGasLimit": false
    },
    {
      "hash": "0xd3c7c08a0a4bd232774a97efac4a77bc3d4b2d94cdb8f6eca57129b77305d7f5",
      "transactionType": "CALL",
      "contractName": "KubiStreamerDonation",
      "contractAddress": "0x7a02904448ae5e3983d05ea1e77d5d91410be953",
      "function": "setYieldConfig(address,address,bool,uint256)",
      "arguments": [
        "0x2db087D43Fc8402aDE0706807d32d6EF72411ebd",
        "0x85B8Dc34C7Af35baC8a45CfF53353f39E6F732A2",
        "true",
        "0"
      ],
      "transaction": {
        "from": "0x1234562eb0cd65e7d08e59f9f18d7c10b5df232a",
        "to": "0x7a02904448ae5e3983d05ea1e77d5d91410be953",
        "gas": "0x6307bf5",
        "value": "0x0",
        "input": "0x0c495f960000000000000000000000002db087d43fc8402ade0706807d32d6ef72411ebd00000000000000000000000085b8dc34c7af35bac8a45cff53353f39e6f732a200000000000000000000000000000000000000000000000000000000000000010000000000000000000000000000000000000000000000000000000000000000",
        "nonce": "0xca",
        "chainId": "0x138b"
      },
      "additionalContracts": [],
      "isFixedGasLimit": false
    },
    {
      "hash": "0xfbf1ad067346f4a2d0a6630463fe9c652aba1b7bd0994d84e4008a8399ff7758",
      "transactionType": "CALL",
      "contractName": "KubiStreamerDonation",
      "contractAddress": "0x7a02904448ae5e3983d05ea1e77d5d91410be953",
      "function": "setYieldConfig(address,address,bool,uint256)",
      "arguments": [
        "0xD14bD87b18dA3Ec84a9e098DF1c808d9cb7a9852",
        "0x7392e9E58f202Da3877776c41683AC457DFd4CD7",
        "true",
        "0"
      ],
      "transaction": {
        "from": "0x1234562eb0cd65e7d08e59f9f18d7c10b5df232a",
        "to": "0x7a02904448ae5e3983d05ea1e77d5d91410be953",
        "gas": "0x6307bf5",
        "value": "0x0",
        "input": "0x0c495f96000000000000000000000000d14bd87b18da3ec84a9e098df1c808d9cb7a98520000000000000000000000007392e9e58f202da3877776c41683ac457dfd4cd700000000000000000000000000000000000000000000000000000000000000010000000000000000000000000000000000000000000000000000000000000000",
        "nonce": "0xcb",
        "chainId": "0x138b"
      },
      "additionalContracts": [],
      "isFixedGasLimit": false
    }
  ],
  "receipts": [
    {
      "status": "0x1",
      "cumulativeGasUsed": "0x33f312edd",
      "logs": [
        {
          "address": "0x7a02904448ae5e3983d05ea1e77d5d91410be953",
          "topics": [
            "0x8be0079c531659141344cd1fd0a4f28419497f9722a3daafe3b4186f6b6457e0",
            "0x0000000000000000000000000000000000000000000000000000000000000000",
            "0x0000000000000000000000001234562eb0cd65e7d08e59f9f18d7c10b5df232a"
          ],
          "data": "0x",
          "blockHash": "0xef53f280e717dcc37a5cf1828bf278020c5b4fadef66deedad9b6867fd48e652",
          "blockNumber": "0x1dfe2aa",
          "blockTimestamp": "0x692b4835",
          "transactionHash": "0x701f4e6eefaa26163503daa318efe11abe7c56bb0e0ca4e1b5f59a94fa583037",
          "transactionIndex": "0x1",
          "logIndex": "0x0",
          "removed": false
        }
      ],
      "logsBloom": "0x00000000000000000000000000000000000000000000000000800000000000000000000000000000000000000000000000000000000000000000000000000000000000000000000020000000000000000001000000000000000000000000000000000000020000000000000000000800000000000002000000000000000000400000000000000000000000000000000000000000000200000000000000000000020000000000000000000000000000000000000000000000000020000000000000000000000000000000000000000000000000000000000000000000000020000000000000000000000000000000000000000000000000000000000000000000",
      "type": "0x2",
      "transactionHash": "0x701f4e6eefaa26163503daa318efe11abe7c56bb0e0ca4e1b5f59a94fa583037",
      "transactionIndex": "0x1",
      "blockHash": "0xef53f280e717dcc37a5cf1828bf278020c5b4fadef66deedad9b6867fd48e652",
      "blockNumber": "0x1dfe2aa",
      "gasUsed": "0x33f303518",
      "effectiveGasPrice": "0x1312d01",
      "from": "0x1234562eb0cd65e7d08e59f9f18d7c10b5df232a",
      "to": null,
      "contractAddress": "0x7a02904448ae5e3983d05ea1e77d5d91410be953",
      "l1Fee": "0x4c362a3",
      "l1FeeScalar": "0.01",
      "l1GasPrice": "0x8",
      "l1GasUsed": "0x57694",
      "tokenRatio": "0xae6"
    },
    {
      "status": "0x1",
      "cumulativeGasUsed": "0x8081693",
      "logs": [
        {
          "address": "0x7a02904448ae5e3983d05ea1e77d5d91410be953",
          "topics": [
            "0xac90355684e2710fa34c2c7d500018678b146ea2d56ddc331c63d242ee8bf385",
            "0x00000000000000000000000057b78b98b9dd06e06de145b83aedf6f04e4c5500"
          ],
          "data": "0x0000000000000000000000000000000000000000000000000000000000000001",
          "blockHash": "0x3a23d8e5d17379d8f00304551ef17502580682eff5929b78a2074c81afe691be",
          "blockNumber": "0x1dfe2ad",
          "blockTimestamp": "0x692b483b",
          "transactionHash": "0x83b12b0242cda52dc143ca3af136c7419b24b1194a913e99efb5eb4ca0ab8a78",
          "transactionIndex": "0x1",
          "logIndex": "0x0",
          "removed": false
        }
      ],
      "logsBloom": "0x00000000000000000200000000000000000000000000000000800000000000000000000000000000000000000000000000000000000000040010000000000000000000000000000000000000000000000000000000000000000000000000000000000000000000000000000000000000000000000002000000000000002000000000000000000000000000000000000000000000000000000000000000000000000000000000000000000000000000000000000000000000000020000000000080020000000000000000000000000000000000000000000000000000000000000000000000000000000000000000000000000000000000000000000000000000",
      "type": "0x2",
      "transactionHash": "0x83b12b0242cda52dc143ca3af136c7419b24b1194a913e99efb5eb4ca0ab8a78",
      "transactionIndex": "0x1",
      "blockHash": "0x3a23d8e5d17379d8f00304551ef17502580682eff5929b78a2074c81afe691be",
      "blockNumber": "0x1dfe2ad",
      "gasUsed": "0x8075f9a",
      "effectiveGasPrice": "0x1312d01",
      "from": "0x1234562eb0cd65e7d08e59f9f18d7c10b5df232a",
      "to": "0x7a02904448ae5e3983d05ea1e77d5d91410be953",
      "contractAddress": null,
      "l1Fee": "0x8989c",
      "l1FeeScalar": "0.01",
      "l1GasPrice": "0x8",
      "l1GasUsed": "0x9dc",
      "tokenRatio": "0xae6"
    },
    {
      "status": "0x1",
      "cumulativeGasUsed": "0x80897e0",
      "logs": [
        {
          "address": "0x7a02904448ae5e3983d05ea1e77d5d91410be953",
          "topics": [
            "0xac90355684e2710fa34c2c7d500018678b146ea2d56ddc331c63d242ee8bf385",
            "0x0000000000000000000000001fe9a4e25caa2a22fc0b61010fdb0db462fb5b29"
          ],
          "data": "0x0000000000000000000000000000000000000000000000000000000000000001",
          "blockHash": "0x2537171787378a4994242766ae76c0598d5ba3239dba5fc5cbf1f8a09b58c9b1",
          "blockNumber": "0x1dfe2b1",
          "blockTimestamp": "0x692b4843",
          "transactionHash": "0x4ea6067080b85aa75714ce3cae0e96a7ccfb53db90bbee02886dcc2605141f7b",
          "transactionIndex": "0x1",
          "logIndex": "0x0",
          "removed": false
        }
      ],
      "logsBloom": "0x00000000000000000200000000000000000000000000000000808000000000000000000000000000000000000000000000000000000000000010000000000001000000000000000000000080000000000000000000000000000000000000000000000000000000000000000000000000000000000002000000000000002000000000000000000000000000000000000000000000000000000000000000000000000000000000000000000000000000000000000000000000000020000000000000000000000000000000000000000000000000000000000000000000000000000000000000000000000000000000000000000000000000000000000000000000",
      "type": "0x2",
      "transactionHash": "0x4ea6067080b85aa75714ce3cae0e96a7ccfb53db90bbee02886dcc2605141f7b",
      "transactionIndex": "0x1",
      "blockHash": "0x2537171787378a4994242766ae76c0598d5ba3239dba5fc5cbf1f8a09b58c9b1",
      "blockNumber": "0x1dfe2b1",
      "gasUsed": "0x807e0f3",
      "effectiveGasPrice": "0x1312d01",
      "from": "0x1234562eb0cd65e7d08e59f9f18d7c10b5df232a",
      "to": "0x7a02904448ae5e3983d05ea1e77d5d91410be953",
      "contractAddress": null,
      "l1Fee": "0x8a313",
      "l1FeeScalar": "0.01",
      "l1GasPrice": "0x8",
      "l1GasUsed": "0x9e8",
      "tokenRatio": "0xae6"
    },
    {
      "status": "0x1",
      "cumulativeGasUsed": "0x80897e0",
      "logs": [
        {
          "address": "0x7a02904448ae5e3983d05ea1e77d5d91410be953",
          "topics": [
            "0xac90355684e2710fa34c2c7d500018678b146ea2d56ddc331c63d242ee8bf385",
            "0x0000000000000000000000005e1e8043381f3a21a1a64f46073daf7e74fedc1e"
          ],
          "data": "0x0000000000000000000000000000000000000000000000000000000000000001",
          "blockHash": "0xae95655a479bf63e79f0d5e70ae59a7e0815411e0142e6a396c14e3d728bdc7f",
          "blockNumber": "0x1dfe2b3",
          "blockTimestamp": "0x692b4847",
          "transactionHash": "0x0207313de9145b0babe6ea51e0cf6be335c535d1b68f0e44355ba7c622c6c0b5",
          "transactionIndex": "0x1",
          "logIndex": "0x0",
          "removed": false
        }
      ],
      "logsBloom": "0x00000000000000000200000000000000000000000000000000800000000000000000000000000000000000000000000000000000000000000010000000000000000000000000040000000000000000000000000000000000000000000000000000000000000000000000000000000000000000000002000000000000002000000000000000000000000000000000000000000000000000000000000000000000000000000000000000000000000000000000000000000000000020000000000000000020000000000000000000000000000000000000000000000000000000000000000000000000000000000000000001000000000000000000000000000000",
      "type": "0x2",
      "transactionHash": "0x0207313de9145b0babe6ea51e0cf6be335c535d1b68f0e44355ba7c622c6c0b5",
      "transactionIndex": "0x1",
      "blockHash": "0xae95655a479bf63e79f0d5e70ae59a7e0815411e0142e6a396c14e3d728bdc7f",
      "blockNumber": "0x1dfe2b3",
      "gasUsed": "0x807e0f3",
      "effectiveGasPrice": "0x1312d01",
      "from": "0x1234562eb0cd65e7d08e59f9f18d7c10b5df232a",
      "to": "0x7a02904448ae5e3983d05ea1e77d5d91410be953",
      "contractAddress": null,
      "l1Fee": "0x8a313",
      "l1FeeScalar": "0.01",
      "l1GasPrice": "0x8",
      "l1GasUsed": "0x9e8",
      "tokenRatio": "0xae6"
    },
    {
      "status": "0x1",
      "cumulativeGasUsed": "0x808daac",
      "logs": [
        {
          "address": "0x7a02904448ae5e3983d05ea1e77d5d91410be953",
          "topics": [
            "0xac90355684e2710fa34c2c7d500018678b146ea2d56ddc331c63d242ee8bf385",
            "0x00000000000000000000000006c1e044d5beb614faa6128001f519e6c693a044"
          ],
          "data": "0x0000000000000000000000000000000000000000000000000000000000000001",
          "blockHash": "0xd25b374ae9b5c5ded3d63e34ce2eb043ed4da47d105d9f60b0e915852c57b3a5",
          "blockNumber": "0x1dfe2b6",
          "blockTimestamp": "0x692b484d",
          "transactionHash": "0x124ed343d98f05436f9f72d0c72ae1fdf501fb01ea96ca6689c2ea4b8a8b4014",
          "transactionIndex": "0x1",
          "logIndex": "0x0",
          "removed": false
        }
      ],
      "logsBloom": "0x00000000000000010200000000000000000000800000000000800000000000000000000000000000000000000000000000000000000000000010000000000000000000000000000000000000000000000000000000000000000000000000000000000000000000000000000000000000000000000002000000000000002000000000000000000000000000000000000000000000000000000000000000000000000000000000000000000000000000000000000000000000000020000000000000000000000000000000000000000000000000000000000000000000000000000000000000000000000000000000000000000000040000000000000000000000",
      "type": "0x2",
      "transactionHash": "0x124ed343d98f05436f9f72d0c72ae1fdf501fb01ea96ca6689c2ea4b8a8b4014",
      "transactionIndex": "0x1",
      "blockHash": "0xd25b374ae9b5c5ded3d63e34ce2eb043ed4da47d105d9f60b0e915852c57b3a5",
      "blockNumber": "0x1dfe2b6",
      "gasUsed": "0x807e0f3",
      "effectiveGasPrice": "0x1312d01",
      "from": "0x1234562eb0cd65e7d08e59f9f18d7c10b5df232a",
      "to": "0x7a02904448ae5e3983d05ea1e77d5d91410be953",
      "contractAddress": null,
      "l1Fee": "0x8a313",
      "l1FeeScalar": "0.01",
      "l1GasPrice": "0x8",
      "l1GasUsed": "0x9e8",
      "tokenRatio": "0xae6"
    },
    {
      "status": "0x1",
      "cumulativeGasUsed": "0x80897e0",
      "logs": [
        {
          "address": "0x7a02904448ae5e3983d05ea1e77d5d91410be953",
          "topics": [
            "0xac90355684e2710fa34c2c7d500018678b146ea2d56ddc331c63d242ee8bf385",
            "0x00000000000000000000000085b8dc34c7af35bac8a45cff53353f39e6f732a2"
          ],
          "data": "0x0000000000000000000000000000000000000000000000000000000000000001",
          "blockHash": "0x8f1df52aa347fc6a27a53aecd4c8873aee748170cc0d35d03de206682cba1e1b",
          "blockNumber": "0x1dfe2b9",
          "blockTimestamp": "0x692b4853",
          "transactionHash": "0x22051e56e6ac05075ffe5c3060c3244f7afd202a8d960d7cbbee82cb1eb24f54",
          "transactionIndex": "0x1",
          "logIndex": "0x0",
          "removed": false
        }
      ],
      "logsBloom": "0x00000000000000000200000000000000000000000000000000800000000000000000000000000000000000000000000000000000000000000010000000000000000000000000000000000000000000000000000000000000000000000000000000040000000000000000000000000000000000000002000000000000002000000000000000000000000000000000000000040000000000000000000000000000000000000000000000000000000000000000000000000000000020000000000000000000000000000000000000000000000000000000000001000000000000000000000000000000000000000000000000000000000000000000000000000000",
      "type": "0x2",
      "transactionHash": "0x22051e56e6ac05075ffe5c3060c3244f7afd202a8d960d7cbbee82cb1eb24f54",
      "transactionIndex": "0x1",
      "blockHash": "0x8f1df52aa347fc6a27a53aecd4c8873aee748170cc0d35d03de206682cba1e1b",
      "blockNumber": "0x1dfe2b9",
      "gasUsed": "0x807e0f3",
      "effectiveGasPrice": "0x1312d01",
      "from": "0x1234562eb0cd65e7d08e59f9f18d7c10b5df232a",
      "to": "0x7a02904448ae5e3983d05ea1e77d5d91410be953",
      "contractAddress": null,
      "l1Fee": "0x8a313",
      "l1FeeScalar": "0.01",
      "l1GasPrice": "0x8",
      "l1GasUsed": "0x9e8",
      "tokenRatio": "0xae6"
    },
    {
      "status": "0x1",
      "cumulativeGasUsed": "0x808daac",
      "logs": [
        {
          "address": "0x7a02904448ae5e3983d05ea1e77d5d91410be953",
          "topics": [
            "0xac90355684e2710fa34c2c7d500018678b146ea2d56ddc331c63d242ee8bf385",
            "0x0000000000000000000000007392e9e58f202da3877776c41683ac457dfd4cd7"
          ],
          "data": "0x0000000000000000000000000000000000000000000000000000000000000001",
          "blockHash": "0xf546b3d7ad99d47d1f5c80c9ef82b1ef786b58b086082fcfd45117babf55b14d",
          "blockNumber": "0x1dfe2bc",
          "blockTimestamp": "0x692b4859",
          "transactionHash": "0x11b43fb85338bc6cdd17bab26d67d67bda6a4bd8bcff2a962c0a151b210d33b2",
          "transactionIndex": "0x1",
          "logIndex": "0x0",
          "removed": false
        }
      ],
      "logsBloom": "0x00000000000000000200000000000000000000000000000000800000000000000000000000000000000000000000000000000000000000000010000000000000000000000000000000000000000000000000000000000000000000000000000000000000000000000000000000000000000000000002000000000000002000000000000000000000000000000000000000000000000000000000000000000000000000000000000000000000000000000000000000000000000020000000000000000000001000000000000000000100000000000000000000000000000000000000000000000000000000000000000000000000000000000000004000000000",
      "type": "0x2",
      "transactionHash": "0x11b43fb85338bc6cdd17bab26d67d67bda6a4bd8bcff2a962c0a151b210d33b2",
      "transactionIndex": "0x1",
      "blockHash": "0xf546b3d7ad99d47d1f5c80c9ef82b1ef786b58b086082fcfd45117babf55b14d",
      "blockNumber": "0x1dfe2bc",
      "gasUsed": "0x807e0f3",
      "effectiveGasPrice": "0x1312d01",
      "from": "0x1234562eb0cd65e7d08e59f9f18d7c10b5df232a",
      "to": "0x7a02904448ae5e3983d05ea1e77d5d91410be953",
      "contractAddress": null,
      "l1Fee": "0x8a313",
      "l1FeeScalar": "0.01",
      "l1GasPrice": "0x8",
      "l1GasUsed": "0x9e8",
      "tokenRatio": "0xae6"
    },
    {
      "status": "0x1",
      "cumulativeGasUsed": "0x80897e0",
      "logs": [
        {
          "address": "0x7a02904448ae5e3983d05ea1e77d5d91410be953",
          "topics": [
            "0xac90355684e2710fa34c2c7d500018678b146ea2d56ddc331c63d242ee8bf385",
            "0x000000000000000000000000b03a4cf6eb030bbabd0452300b01c7dcb9584737"
          ],
          "data": "0x0000000000000000000000000000000000000000000000000000000000000001",
          "blockHash": "0xe0e784d03e02fe3d7f614f74a0a04b0460df18d17688009adc186b453bd6d669",
          "blockNumber": "0x1dfe2c0",
          "blockTimestamp": "0x692b4861",
          "transactionHash": "0x74d3f58fd6b51aa5debca2db4c33bc0102dc95f245d902c9c1697627cdeb26db",
          "transactionIndex": "0x1",
          "logIndex": "0x0",
          "removed": false
        }
      ],
      "logsBloom": "0x00000000000000000200000000000000080000000000000000800000000000000000000000000000000000000040000000000000000000000010000000000000000000000000000000000000000000000000000000000000000000000000000000000000000000000000000000000000000000000002000000000000002000000000000000000000000000000000000000000000000000000000000000000000000000000000000000000000000000000000000000000000000020000000000000000000000000000000000000000000000000000000000000000000000000000000000000100000000000000000000000000000000000000000000000000000",
      "type": "0x2",
      "transactionHash": "0x74d3f58fd6b51aa5debca2db4c33bc0102dc95f245d902c9c1697627cdeb26db",
      "transactionIndex": "0x1",
      "blockHash": "0xe0e784d03e02fe3d7f614f74a0a04b0460df18d17688009adc186b453bd6d669",
      "blockNumber": "0x1dfe2c0",
      "gasUsed": "0x807e0f3",
      "effectiveGasPrice": "0x1312d01",
      "from": "0x1234562eb0cd65e7d08e59f9f18d7c10b5df232a",
      "to": "0x7a02904448ae5e3983d05ea1e77d5d91410be953",
      "contractAddress": null,
      "l1Fee": "0x8a313",
      "l1FeeScalar": "0.01",
      "l1GasPrice": "0x8",
      "l1GasUsed": "0x9e8",
      "tokenRatio": "0xae6"
    },
    {
      "status": "0x1",
      "cumulativeGasUsed": "0x80897ec",
      "logs": [
        {
          "address": "0x7a02904448ae5e3983d05ea1e77d5d91410be953",
          "topics": [
            "0xac90355684e2710fa34c2c7d500018678b146ea2d56ddc331c63d242ee8bf385",
            "0x0000000000000000000000002ffc2f655a26a4def63efcd59930d1241ee0519a"
          ],
          "data": "0x0000000000000000000000000000000000000000000000000000000000000001",
          "blockHash": "0x3ec8b188f3f6785a5c2f69ce577e5fe53f080b57eb8496480c067afa283f57d5",
          "blockNumber": "0x1dfe2c4",
          "blockTimestamp": "0x692b4869",
          "transactionHash": "0x40dadfebee8b560fdc92bafa57598436e7aa33c4eba816f518168c181741109d",
          "transactionIndex": "0x1",
          "logIndex": "0x0",
          "removed": false
        }
      ],
      "logsBloom": "0x00000000000000000200000000000000000000000000000000800000000000000000000000000000000000000000000000000000000000000010000000000000000000002000000000000000000000000000010000000000000000000000000000000000000000000000000000000000000000000002000000000000002000000000000000000000000000000000000000000000000000000000000000000000000000000000000000000000000000000000000000000000000020000000000000000000000000000000000000000000000000000000000000000000000000000000000000000000000000000000000000000000000000000000000004000000",
      "type": "0x2",
      "transactionHash": "0x40dadfebee8b560fdc92bafa57598436e7aa33c4eba816f518168c181741109d",
      "transactionIndex": "0x1",
      "blockHash": "0x3ec8b188f3f6785a5c2f69ce577e5fe53f080b57eb8496480c067afa283f57d5",
      "blockNumber": "0x1dfe2c4",
      "gasUsed": "0x807e0f3",
      "effectiveGasPrice": "0x1312d01",
      "from": "0x1234562eb0cd65e7d08e59f9f18d7c10b5df232a",
      "to": "0x7a02904448ae5e3983d05ea1e77d5d91410be953",
      "contractAddress": null,
      "l1Fee": "0x8a313",
      "l1FeeScalar": "0.01",
      "l1GasPrice": "0x8",
      "l1GasUsed": "0x9e8",
      "tokenRatio": "0xae6"
    },
    {
      "status": "0x1",
      "cumulativeGasUsed": "0x808adc0",
      "logs": [
        {
          "address": "0x7a02904448ae5e3983d05ea1e77d5d91410be953",
          "topics": [
            "0xac90355684e2710fa34c2c7d500018678b146ea2d56ddc331c63d242ee8bf385",
            "0x00000000000000000000000014ac27f376b03b6c05f2189c4f03febb5d76432a"
          ],
          "data": "0x0000000000000000000000000000000000000000000000000000000000000001",
          "blockHash": "0x97e4726b7cdaeaf5ae5d274f008605d578b78a908b912c8b34371422ce104166",
          "blockNumber": "0x1dfe2c7",
          "blockTimestamp": "0x692b486f",
          "transactionHash": "0x0bda552fdd0bf4455f0ff70546cc0487762cd368518f5e0622fd57233847d2d8",
          "transactionIndex": "0x1",
          "logIndex": "0x0",
          "removed": false
        }
      ],
      "logsBloom": "0x00000000000000000200000000000000000000000000000000800000000000000000000000000000000000000000000000000000000000000010000000000000000000000000000000000000000000000000000000000000000000000000000000000000000000000000000000000000000000000002000000000000002000000000000000000000000000000020000000000000000000000000000000000000000000000004000000000000000000000000000000000000000020000000000000000000000000000000000010000000000000000000000000000000000000000000000000000000000000000000000000000000000000000000000000000000",
      "type": "0x2",
      "transactionHash": "0x0bda552fdd0bf4455f0ff70546cc0487762cd368518f5e0622fd57233847d2d8",
      "transactionIndex": "0x1",
      "blockHash": "0x97e4726b7cdaeaf5ae5d274f008605d578b78a908b912c8b34371422ce104166",
      "blockNumber": "0x1dfe2c7",
      "gasUsed": "0x807e0f3",
      "effectiveGasPrice": "0x1312d01",
      "from": "0x1234562eb0cd65e7d08e59f9f18d7c10b5df232a",
      "to": "0x7a02904448ae5e3983d05ea1e77d5d91410be953",
      "contractAddress": null,
      "l1Fee": "0x8a313",
      "l1FeeScalar": "0.01",
      "l1GasPrice": "0x8",
      "l1GasUsed": "0x9e8",
      "tokenRatio": "0xae6"
    },
    {
      "status": "0x1",
      "cumulativeGasUsed": "0x80897ec",
      "logs": [
        {
          "address": "0x7a02904448ae5e3983d05ea1e77d5d91410be953",
          "topics": [
            "0xac90355684e2710fa34c2c7d500018678b146ea2d56ddc331c63d242ee8bf385",
            "0x000000000000000000000000dac9107491b3c59a97d7f45cefc97353f6ab46b2"
          ],
          "data": "0x0000000000000000000000000000000000000000000000000000000000000001",
          "blockHash": "0x2b0ce2ae67d605d0b955af79ca737c8b20a46d505f238914da77a215a8be1ce2",
          "blockNumber": "0x1dfe2ca",
          "blockTimestamp": "0x692b4875",
          "transactionHash": "0xc286028cf14853809d46157175320be387ed04a542e72a059c42dd1a3ceb05b9",
          "transactionIndex": "0x1",
          "logIndex": "0x0",
          "removed": false
        }
      ],
      "logsBloom": "0x00000000000000000200000000000000000000000000000000800000000000000000000000000000000000000000000000000000000000000010000000000000000000000000000000000000000000000000000000000000000000000000000000000000000000000000000000000000000000000002000000000000002000000000000000000000000000000000000000000000000000000000800000000000000000000000000000000000000000000000000000000000000020000000000000000000000000000000000000000000000000000000000000000000000000000000000000000001000000000000000000000000000000000000000000000080",
      "type": "0x2",
      "transactionHash": "0xc286028cf14853809d46157175320be387ed04a542e72a059c42dd1a3ceb05b9",
      "transactionIndex": "0x1",
      "blockHash": "0x2b0ce2ae67d605d0b955af79ca737c8b20a46d505f238914da77a215a8be1ce2",
      "blockNumber": "0x1dfe2ca",
      "gasUsed": "0x807e0f3",
      "effectiveGasPrice": "0x1312d01",
      "from": "0x1234562eb0cd65e7d08e59f9f18d7c10b5df232a",
      "to": "0x7a02904448ae5e3983d05ea1e77d5d91410be953",
      "contractAddress": null,
      "l1Fee": "0x8989c",
      "l1FeeScalar": "0.01",
      "l1GasPrice": "0x8",
      "l1GasUsed": "0x9dc",
      "tokenRatio": "0xae6"
    },
    {
      "status": "0x1",
      "cumulativeGasUsed": "0x808adc0",
      "logs": [
        {
          "address": "0x7a02904448ae5e3983d05ea1e77d5d91410be953",
          "topics": [
            "0xac90355684e2710fa34c2c7d500018678b146ea2d56ddc331c63d242ee8bf385",
            "0x0000000000000000000000009b94108165ef58c9736f2c34b09e3b5b62cf5218"
          ],
          "data": "0x0000000000000000000000000000000000000000000000000000000000000001",
          "blockHash": "0xa9672c4ad823f1d5d99e05e1f195cc954beff83359f71e8d2eacd0f2db40f7a9",
          "blockNumber": "0x1dfe2cd",
          "blockTimestamp": "0x692b487b",
          "transactionHash": "0xb736f013902458f78558361903369431e4e79e4150e69b3aded55665511106f4",
          "transactionIndex": "0x1",
          "logIndex": "0x0",
          "removed": false
        }
      ],
      "logsBloom": "0x00000000000000000200000000000000000000000000000000800000000000000000000000000000000000000000000000000000000000000010000000000000000000000000000000000000000000000000000000000000000000000000000000000000000000000000000000000000000000000002000000000000002000000000000280000000000000000000000000000000000000000000000000000000000000000000000000000000000000000000000000000000000020000000000000000000001000000000000000000000000000000000000000000000000000000000000000000000000000000000000000000000000000000000000000000000",
      "type": "0x2",
      "transactionHash": "0xb736f013902458f78558361903369431e4e79e4150e69b3aded55665511106f4",
      "transactionIndex": "0x1",
      "blockHash": "0xa9672c4ad823f1d5d99e05e1f195cc954beff83359f71e8d2eacd0f2db40f7a9",
      "blockNumber": "0x1dfe2cd",
      "gasUsed": "0x807e0f3",
      "effectiveGasPrice": "0x1312d01",
      "from": "0x1234562eb0cd65e7d08e59f9f18d7c10b5df232a",
      "to": "0x7a02904448ae5e3983d05ea1e77d5d91410be953",
      "contractAddress": null,
      "l1Fee": "0x8989c",
      "l1FeeScalar": "0.01",
      "l1GasPrice": "0x8",
      "l1GasUsed": "0x9dc",
      "tokenRatio": "0xae6"
    },
    {
      "status": "0x1",
      "cumulativeGasUsed": "0xb9f4bfe",
      "logs": [],
      "logsBloom": "0x00000000000000000000000000000000000000000000000000000000000000000000000000000000000000000000000000000000000000000000000000000000000000000000000000000000000000000000000000000000000000000000000000000000000000000000000000000000000000000000000000000000000000000000000000000000000000000000000000000000000000000000000000000000000000000000000000000000000000000000000000000000000000000000000000000000000000000000000000000000000000000000000000000000000000000000000000000000000000000000000000000000000000000000000000000000",
      "type": "0x2",
      "transactionHash": "0x8564d9e24649ca333c0a81681e54d3f70ab1a513de132e9ae3b47ec27bf40b90",
      "transactionIndex": "0x1",
      "blockHash": "0x9406492042227d00c9059e27b2f6a314d18be7b6f15b33780efb05ae307c5af7",
      "blockNumber": "0x1dfe2d0",
      "gasUsed": "0xb9e9505",
      "effectiveGasPrice": "0x1312d01",
      "from": "0x1234562eb0cd65e7d08e59f9f18d7c10b5df232a",
      "to": "0x7a02904448ae5e3983d05ea1e77d5d91410be953",
      "contractAddress": null,
      "l1Fee": "0x9e3ec",
      "l1FeeScalar": "0.01",
      "l1GasPrice": "0x8",
      "l1GasUsed": "0xb58",
      "tokenRatio": "0xae6"
    },
    {
      "status": "0x1",
      "cumulativeGasUsed": "0xb9f8eca",
      "logs": [],
      "logsBloom": "0x00000000000000000000000000000000000000000000000000000000000000000000000000000000000000000000000000000000000000000000000000000000000000000000000000000000000000000000000000000000000000000000000000000000000000000000000000000000000000000000000000000000000000000000000000000000000000000000000000000000000000000000000000000000000000000000000000000000000000000000000000000000000000000000000000000000000000000000000000000000000000000000000000000000000000000000000000000000000000000000000000000000000000000000000000000000",
      "type": "0x2",
      "transactionHash": "0x4c122486768987997a1554e0546f42c6b8067ab87278824d4aa391a6aec00496",
      "transactionIndex": "0x1",
      "blockHash": "0xe8fe133f3f0029a7e34e701f8aafe084da258c87d879347d2ccfc2154202b16b",
      "blockNumber": "0x1dfe2d4",
      "gasUsed": "0xb9e9505",
      "effectiveGasPrice": "0x1312d01",
      "from": "0x1234562eb0cd65e7d08e59f9f18d7c10b5df232a",
      "to": "0x7a02904448ae5e3983d05ea1e77d5d91410be953",
      "contractAddress": null,
      "l1Fee": "0x9e3ec",
      "l1FeeScalar": "0.01",
      "l1GasPrice": "0x8",
      "l1GasUsed": "0xb58",
      "tokenRatio": "0xae6"
    },
    {
      "status": "0x1",
      "cumulativeGasUsed": "0x920c706",
      "logs": [
        {
          "address": "0x7a02904448ae5e3983d05ea1e77d5d91410be953",
          "topics": [
            "0x354f0817e377e1e9b2601a5fa1180df29e96ac246a5d02f817a6e3bb4b72a904",
            "0x000000000000000000000000aee2a87701afef956473d547bd02cd736729d8a7",
            "0x0000000000000000000000001fe9a4e25caa2a22fc0b61010fdb0db462fb5b29"
          ],
          "data": "0x00000000000000000000000000000000000000000000000000000000000000010000000000000000000000000000000000000000000000000000000000000000",
          "blockHash": "0xf9270cf2ce09f00367ed2ba18a3ce34eb36f605fc7543e2b69b7a2e70beac8ad",
          "blockNumber": "0x1dfe2d6",
          "blockTimestamp": "0x692b488d",
          "transactionHash": "0x6bb941bfe41303f7b0b8feae827a3c365ec469c43d815d2c6b5d76fad5ae8ad7",
          "transactionIndex": "0x1",
          "logIndex": "0x0",
          "removed": false
        }
      ],
      "logsBloom": "0x00000000000000000000000000000000000000000000000000808000000000000000000000000000800000000000000000000000000000000000000000000001000000000000000000000080000000000000000000000000000000000000000000000000000000000000000000000000000000000002000000000000000000000000000000000020000000000020000000000000000000000000000000000000000000000000000000000000000000000000000000000000000020000000000000000000000000002000000000000000000004000000000000000000000000000000000000000000000100000000000000000000000000000000000000000000",
      "type": "0x2",
      "transactionHash": "0x6bb941bfe41303f7b0b8feae827a3c365ec469c43d815d2c6b5d76fad5ae8ad7",
      "transactionIndex": "0x1",
      "blockHash": "0xf9270cf2ce09f00367ed2ba18a3ce34eb36f605fc7543e2b69b7a2e70beac8ad",
      "blockNumber": "0x1dfe2d6",
      "gasUsed": "0x920100d",
      "effectiveGasPrice": "0x1312d01",
      "from": "0x1234562eb0cd65e7d08e59f9f18d7c10b5df232a",
      "to": "0x7a02904448ae5e3983d05ea1e77d5d91410be953",
      "contractAddress": null,
      "l1Fee": "0xa5386",
      "l1FeeScalar": "0.01",
      "l1GasPrice": "0x8",
      "l1GasUsed": "0xbd8",
      "tokenRatio": "0xae6"
    },
    {
      "status": "0x1",
      "cumulativeGasUsed": "0x920dcda",
      "logs": [
        {
          "address": "0x7a02904448ae5e3983d05ea1e77d5d91410be953",
          "topics": [
            "0x354f0817e377e1e9b2601a5fa1180df29e96ac246a5d02f817a6e3bb4b72a904",
            "0x0000000000000000000000006aabe7258f09474e62e8bebb1cf90e15fbaaf777",
            "0x0000000000000000000000005e1e8043381f3a21a1a64f46073daf7e74fedc1e"
          ],
          "data": "0x00000000000000000000000000000000000000000000000000000000000000010000000000000000000000000000000000000000000000000000000000000000",
          "blockHash": "0x2ee4beffba941bee3015ae1bdf6afd335b1910073744b17517eb484a4218ed4f",
          "blockNumber": "0x1dfe2d9",
          "blockTimestamp": "0x692b4893",
          "transactionHash": "0xf2b1a27148e98cf16e881e3a38d418841fd4e70690c7df39d0a776554c570819",
          "transactionIndex": "0x1",
          "logIndex": "0x0",
          "removed": false
        }
      ],
      "logsBloom": "0x00000000000000000000000000000000000000000000000000800000000000000000000000000000800000000000000000000000000000000000000000000000004000000000040000000000000000100000000000000000000000000000000000000000000000000000000000000000000000000002000000000000000000000000000020000000000000000020000000000000000000000000000000000000000000000000000000000000000000000000000000000000000020000000000000000020000000000000000000000000000004000000000000000000000000000000000000000000000000000000000001000000000000000000000000000000",
      "type": "0x2",
      "transactionHash": "0xf2b1a27148e98cf16e881e3a38d418841fd4e70690c7df39d0a776554c570819",
      "transactionIndex": "0x1",
      "blockHash": "0x2ee4beffba941bee3015ae1bdf6afd335b1910073744b17517eb484a4218ed4f",
      "blockNumber": "0x1dfe2d9",
      "gasUsed": "0x920100d",
      "effectiveGasPrice": "0x1312d01",
      "from": "0x1234562eb0cd65e7d08e59f9f18d7c10b5df232a",
      "to": "0x7a02904448ae5e3983d05ea1e77d5d91410be953",
      "contractAddress": null,
      "l1Fee": "0xa4910",
      "l1FeeScalar": "0.01",
      "l1GasPrice": "0x8",
      "l1GasUsed": "0xbcc",
      "tokenRatio": "0xae6"
    },
    {
      "status": "0x1",
      "cumulativeGasUsed": "0x920c706",
      "logs": [
        {
          "address": "0x7a02904448ae5e3983d05ea1e77d5d91410be953",
          "topics": [
            "0x354f0817e377e1e9b2601a5fa1180df29e96ac246a5d02f817a6e3bb4b72a904",
            "0x0000000000000000000000005c70fb2a739e9e7ad5c4311abf99e0fb65c07ee9",
            "0x00000000000000000000000006c1e044d5beb614faa6128001f519e6c693a044"
          ],
          "data": "0x00000000000000000000000000000000000000000000000000000000000000010000000000000000000000000000000000000000000000000000000000000000",
          "blockHash": "0xd7634151b6c87eecff1b75f136a9e52f7f54d66c618a7b4965b9ee81ec7d34fd",
          "blockNumber": "0x1dfe2dd",
          "blockTimestamp": "0x692b489b",
          "transactionHash": "0xf27d8b6ffe0e0bc6b4a30673ff186bb2c9b6ecd39df614c4c01f73ade7e0f17f",
          "transactionIndex": "0x1",
          "logIndex": "0x0",
          "removed": false
        }
      ],
      "logsBloom": "0x00000000000000010000000000000000000000800000000000800000000000000000000000000000800000000000000000000000000000000000000000000000000000000000000000000000000000000000000000000000000000000000000000000000000000000000000000000000000000000002000000000000000000000000000000000000000000000020080000000000000000000000000000000000000000000000000000000000000000000000000008000000000020000000000000000000000000000000000000000000000004000000000000000000000000000000000000000000000000000000000000000000040000000000000000000000",
      "type": "0x2",
      "transactionHash": "0xf27d8b6ffe0e0bc6b4a30673ff186bb2c9b6ecd39df614c4c01f73ade7e0f17f",
      "transactionIndex": "0x1",
      "blockHash": "0xd7634151b6c87eecff1b75f136a9e52f7f54d66c618a7b4965b9ee81ec7d34fd",
      "blockNumber": "0x1dfe2dd",
      "gasUsed": "0x920100d",
      "effectiveGasPrice": "0x1312d01",
      "from": "0x1234562eb0cd65e7d08e59f9f18d7c10b5df232a",
      "to": "0x7a02904448ae5e3983d05ea1e77d5d91410be953",
      "contractAddress": null,
      "l1Fee": "0xa5386",
      "l1FeeScalar": "0.01",
      "l1GasPrice": "0x8",
      "l1GasUsed": "0xbd8",
      "tokenRatio": "0xae6"
    },
    {
      "status": "0x1",
      "cumulativeGasUsed": "0x92109d2",
      "logs": [
        {
          "address": "0x7a02904448ae5e3983d05ea1e77d5d91410be953",
          "topics": [
            "0x354f0817e377e1e9b2601a5fa1180df29e96ac246a5d02f817a6e3bb4b72a904",
            "0x000000000000000000000000bb6dd87f1fe0483d9ffa90f7a163caf21f40ba6c",
            "0x00000000000000000000000085b8dc34c7af35bac8a45cff53353f39e6f732a2"
          ],
          "data": "0x00000000000000000000000000000000000000000000000000000000000000010000000000000000000000000000000000000000000000000000000000000000",
          "blockHash": "0xb4a6bf562089ec31eab4268309495392f2073e4fe35a35d3147e4a99f0d72a9c",
          "blockNumber": "0x1dfe2e0",
          "blockTimestamp": "0x692b48a1",
          "transactionHash": "0x91cd680c4d9ecc9456823c9dba681b49b593597ade82e5cd02e1d3560cb685ae",
          "transactionIndex": "0x1",
          "logIndex": "0x0",
          "removed": false
        }
      ],
      "logsBloom": "0x00000000000000000000000000000000000000000000000000800000000000000000000000000000800040000000000000000000000000000000000000000000000000000010000000000000000000000000000000000000000000000000000000040000000000000000000000000000000000000002000000000000000000000000000000000000008000000020000000040000000000000000000000000000000000000000000000000000000000000000000000000000000020000000000000000000000000000000000000000000000004000000000001000000000000000000000000000000000000000000000000000000000000000000000000000000",
      "type": "0x2",
      "transactionHash": "0x91cd680c4d9ecc9456823c9dba681b49b593597ade82e5cd02e1d3560cb685ae",
      "transactionIndex": "0x1",
      "blockHash": "0xb4a6bf562089ec31eab4268309495392f2073e4fe35a35d3147e4a99f0d72a9c",
      "blockNumber": "0x1dfe2e0",
      "gasUsed": "0x920100d",
      "effectiveGasPrice": "0x1312d01",
      "from": "0x1234562eb0cd65e7d08e59f9f18d7c10b5df232a",
      "to": "0x7a02904448ae5e3983d05ea1e77d5d91410be953",
      "contractAddress": null,
      "l1Fee": "0xa5386",
      "l1FeeScalar": "0.01",
      "l1GasPrice": "0x8",
      "l1GasUsed": "0xbd8",
      "tokenRatio": "0xae6"
    },
    {
      "status": "0x1",
      "cumulativeGasUsed": "0x920c706",
      "logs": [
        {
          "address": "0x7a02904448ae5e3983d05ea1e77d5d91410be953",
          "topics": [
            "0x354f0817e377e1e9b2601a5fa1180df29e96ac246a5d02f817a6e3bb4b72a904",
            "0x000000000000000000000000ce74630446990acf6cd56facbbd6ee908ee55562",
            "0x0000000000000000000000007392e9e58f202da3877776c41683ac457dfd4cd7"
          ],
          "data": "0x00000000000000000000000000000000000000000000000000000000000000010000000000000000000000000000000000000000000000000000000000000000",
          "blockHash": "0xd68b0df79722423b143f8506720eaaf3d4f8567fce9dc661006720617d2942d8",
          "blockNumber": "0x1dfe2e4",
          "blockTimestamp": "0x692b48a9",
          "transactionHash": "0x45ad78c6cbfc311ed849622312b7c7f54259c845fe9013a5c290d0a06fc0192c",
          "transactionIndex": "0x1",
          "logIndex": "0x0",
          "removed": false
        }
      ],
      "logsBloom": "0x00000000000000000000000000000000000000000000000000800000000000000000000000000000800000000000000000000000000000000000000000000000000000000000000000000000000000000000000000000000000000000000000000000000000000000000000000000000000000000002000000000000000000000000008000000000000000000020000000000000000000000000000000000000000000000000000000000000000000000000000000000000000020000000000000000000001000000000000000000100000004000000000000000000000000000000000000200000000000000000000000000000000008000000004000000000",
      "type": "0x2",
      "transactionHash": "0x45ad78c6cbfc311ed849622312b7c7f54259c845fe9013a5c290d0a06fc0192c",
      "transactionIndex": "0x1",
      "blockHash": "0xd68b0df79722423b143f8506720eaaf3d4f8567fce9dc661006720617d2942d8",
      "blockNumber": "0x1dfe2e4",
      "gasUsed": "0x920100d",
      "effectiveGasPrice": "0x1312d01",
      "from": "0x1234562eb0cd65e7d08e59f9f18d7c10b5df232a",
      "to": "0x7a02904448ae5e3983d05ea1e77d5d91410be953",
      "contractAddress": null,
      "l1Fee": "0xa5386",
      "l1FeeScalar": "0.01",
      "l1GasPrice": "0x8",
      "l1GasUsed": "0xbd8",
      "tokenRatio": "0xae6"
    },
    {
      "status": "0x1",
      "cumulativeGasUsed": "0x920c706",
      "logs": [
        {
          "address": "0x7a02904448ae5e3983d05ea1e77d5d91410be953",
          "topics": [
            "0x354f0817e377e1e9b2601a5fa1180df29e96ac246a5d02f817a6e3bb4b72a904",
            "0x000000000000000000000000dcc41dee829c1246a936dc5e801cb24303445651",
            "0x0000000000000000000000001fe9a4e25caa2a22fc0b61010fdb0db462fb5b29"
          ],
          "data": "0x00000000000000000000000000000000000000000000000000000000000000010000000000000000000000000000000000000000000000000000000000000000",
          "blockHash": "0x36987512ecb07563dfcc2279a4cd34c73f3574c35a6476e3fadbf415dd57ed56",
          "blockNumber": "0x1dfe2ea",
          "blockTimestamp": "0x692b48b5",
          "transactionHash": "0xcdd15deef75487637daa9dc99408662bba4840f3ed39a72f7b005d72f2745e06",
          "transactionIndex": "0x1",
          "logIndex": "0x0",
          "removed": false
        }
      ],
      "logsBloom": "0x00000000000000000000000000000000000000000000000000808000000000000000000000000000800000000000000000000000000000000000004000000001000000000000000000000080000000000000000000000000000000000000000000000000000000000000000000000000000000000002000000000000000000000000000000000000000000000020000000000000000000000000000000000000000000000000000000000000000000000000000000000000000020000000000000000000000000000000000000000000000004000000000000000000000000000400040000000000000000000000000000000000000000000000000000000000",
      "type": "0x2",
      "transactionHash": "0xcdd15deef75487637daa9dc99408662bba4840f3ed39a72f7b005d72f2745e06",
      "transactionIndex": "0x1",
      "blockHash": "0x36987512ecb07563dfcc2279a4cd34c73f3574c35a6476e3fadbf415dd57ed56",
      "blockNumber": "0x1dfe2ea",
      "gasUsed": "0x920100d",
      "effectiveGasPrice": "0x1312d01",
      "from": "0x1234562eb0cd65e7d08e59f9f18d7c10b5df232a",
      "to": "0x7a02904448ae5e3983d05ea1e77d5d91410be953",
      "contractAddress": null,
      "l1Fee": "0xa4910",
      "l1FeeScalar": "0.01",
      "l1GasPrice": "0x8",
      "l1GasUsed": "0xbcc",
      "tokenRatio": "0xae6"
    },
    {
      "status": "0x1",
      "cumulativeGasUsed": "0x920c706",
      "logs": [
        {
          "address": "0x7a02904448ae5e3983d05ea1e77d5d91410be953",
          "topics": [
            "0x354f0817e377e1e9b2601a5fa1180df29e96ac246a5d02f817a6e3bb4b72a904",
            "0x0000000000000000000000008f5816ca88ed2775305b154625744e36943cc750",
            "0x0000000000000000000000005e1e8043381f3a21a1a64f46073daf7e74fedc1e"
          ],
          "data": "0x00000000000000000000000000000000000000000000000000000000000000010000000000000000000000000000000000000000000000000000000000000000",
          "blockHash": "0xb08f1d34d37972c8c9838302614d6e0875d09852a61184c0f314bc82bfe3a2db",
          "blockNumber": "0x1dfe2ef",
          "blockTimestamp": "0x692b48bf",
          "transactionHash": "0x165c189799d006cdd3a944ccbc97d45146cd4858db7369e517b8d0c9d7682dc1",
          "transactionIndex": "0x1",
          "logIndex": "0x0",
          "removed": false
        }
      ],
      "logsBloom": "0x00000000000000000000000000000000000000001000000000800000000000000000000000000000800000000000000000000000000000000000000000000000000000000000040000000000000000000000000000000040000000000000000000000000000000000000000000000000000000000002000000000000000000000000000000000000000000000020000000000000000000000000000000000000000000000000000000000000000000000000080000000000000020000000000000000020000000000000000000000000000004000000000000000000000000000000000000000000000000000000000001000000000000000000000000000000",
      "type": "0x2",
      "transactionHash": "0x165c189799d006cdd3a944ccbc97d45146cd4858db7369e517b8d0c9d7682dc1",
      "transactionIndex": "0x1",
      "blockHash": "0xb08f1d34d37972c8c9838302614d6e0875d09852a61184c0f314bc82bfe3a2db",
      "blockNumber": "0x1dfe2ef",
      "gasUsed": "0x920100d",
      "effectiveGasPrice": "0x1312d01",
      "from": "0x1234562eb0cd65e7d08e59f9f18d7c10b5df232a",
      "to": "0x7a02904448ae5e3983d05ea1e77d5d91410be953",
      "contractAddress": null,
      "l1Fee": "0xa5386",
      "l1FeeScalar": "0.01",
      "l1GasPrice": "0x8",
      "l1GasUsed": "0xbd8",
      "tokenRatio": "0xae6"
    },
    {
      "status": "0x1",
      "cumulativeGasUsed": "0x920c6fa",
      "logs": [
        {
          "address": "0x7a02904448ae5e3983d05ea1e77d5d91410be953",
          "topics": [
            "0x354f0817e377e1e9b2601a5fa1180df29e96ac246a5d02f817a6e3bb4b72a904",
            "0x0000000000000000000000002bb55f68fb05de13b04e5a2cadbae5a05bce277b",
            "0x00000000000000000000000006c1e044d5beb614faa6128001f519e6c693a044"
          ],
          "data": "0x00000000000000000000000000000000000000000000000000000000000000010000000000000000000000000000000000000000000000000000000000000000",
          "blockHash": "0xefead940a2338b8996021d82a63047def3a787443a17ebab86a9729f908c1156",
          "blockNumber": "0x1dfe2f6",
          "blockTimestamp": "0x692b48cd",
          "transactionHash": "0x51e2d6a3b420fdedae38e387227fb63b5afee25e76a38558b3feaaa854afdc84",
          "transactionIndex": "0x1",
          "logIndex": "0x0",
          "removed": false
        }
      ],
      "logsBloom": "0x00000000000000010000000000000004000000800000000000800000000000000000000000000000800000000000000000000000000000000000000000000000000000000000000000000000000000000000000000000000000000000000000000000000000000000000000000000000000000000003000000000000000000000000000000000000000000000020000000000000000000000000000000000000000000000000000000000000000000000000000000000000000020000000000000000000000000000000000000000000000004000000000000002000000000000000000000000000000000000000000000000000040000000000000000000000",
      "type": "0x2",
      "transactionHash": "0x51e2d6a3b420fdedae38e387227fb63b5afee25e76a38558b3feaaa854afdc84",
      "transactionIndex": "0x1",
      "blockHash": "0xefead940a2338b8996021d82a63047def3a787443a17ebab86a9729f908c1156",
      "blockNumber": "0x1dfe2f6",
      "gasUsed": "0x920100d",
      "effectiveGasPrice": "0x1312d01",
      "from": "0x1234562eb0cd65e7d08e59f9f18d7c10b5df232a",
      "to": "0x7a02904448ae5e3983d05ea1e77d5d91410be953",
      "contractAddress": null,
      "l1Fee": "0xa5386",
      "l1FeeScalar": "0.01",
      "l1GasPrice": "0x8",
      "l1GasUsed": "0xbd8",
      "tokenRatio": "0xae6"
    },
    {
      "status": "0x1",
      "cumulativeGasUsed": "0x920c706",
      "logs": [
        {
          "address": "0x7a02904448ae5e3983d05ea1e77d5d91410be953",
          "topics": [
            "0x354f0817e377e1e9b2601a5fa1180df29e96ac246a5d02f817a6e3bb4b72a904",
            "0x000000000000000000000000a022fd1966577144fcb5ed8ad5a134861ae5e138",
            "0x00000000000000000000000085b8dc34c7af35bac8a45cff53353f39e6f732a2"
          ],
          "data": "0x00000000000000000000000000000000000000000000000000000000000000010000000000000000000000000000000000000000000000000000000000000000",
          "blockHash": "0xb134e36fb32b03cdeedf61a1dc77950627e0a088b4778aa874ff8d05099e0f56",
          "blockNumber": "0x1dfe2fb",
          "blockTimestamp": "0x692b48d7",
          "transactionHash": "0x77e3317a858f65d7e603fcf373701fa6a0c2c405ccdf35bc1e4c96d2252b0ccf",
          "transactionIndex": "0x1",
          "logIndex": "0x0",
          "removed": false
        }
      ],
      "logsBloom": "0x00000000000000000000000000000000000000000000000000800000000000000000000000000000800000000000000000000000000000000000000000000000000000000000000000000000000000000000000000000000000000010000000000040000000000000000000000000000000000000002000000000000000000000000000000000000000000000020000080040000000000000000000000000000000000000000000000000000000000000000000000000000000020000000000000000000000000000000000000000008000004000000000001000000000000000000000000000000000000000000000000000000000000000000000000000000",
      "type": "0x2",
      "transactionHash": "0x77e3317a858f65d7e603fcf373701fa6a0c2c405ccdf35bc1e4c96d2252b0ccf",
      "transactionIndex": "0x1",
      "blockHash": "0xb134e36fb32b03cdeedf61a1dc77950627e0a088b4778aa874ff8d05099e0f56",
      "blockNumber": "0x1dfe2fb",
      "gasUsed": "0x920100d",
      "effectiveGasPrice": "0x1312d01",
      "from": "0x1234562eb0cd65e7d08e59f9f18d7c10b5df232a",
      "to": "0x7a02904448ae5e3983d05ea1e77d5d91410be953",
      "contractAddress": null,
      "l1Fee": "0xa5386",
      "l1FeeScalar": "0.01",
      "l1GasPrice": "0x8",
      "l1GasUsed": "0xbd8",
      "tokenRatio": "0xae6"
    },
    {
      "status": "0x1",
      "cumulativeGasUsed": "0x920c6fa",
      "logs": [
        {
          "address": "0x7a02904448ae5e3983d05ea1e77d5d91410be953",
          "topics": [
            "0x354f0817e377e1e9b2601a5fa1180df29e96ac246a5d02f817a6e3bb4b72a904",
            "0x000000000000000000000000ec4c46f46191d77c3d8ba3ddfafe71b58e2089af",
            "0x0000000000000000000000007392e9e58f202da3877776c41683ac457dfd4cd7"
          ],
          "data": "0x00000000000000000000000000000000000000000000000000000000000000010000000000000000000000000000000000000000000000000000000000000000",
          "blockHash": "0xa7ff4fead8720da12c59ec3079bff0e0d7956eced18151f27e3ff097dd01ff49",
          "blockNumber": "0x1dfe300",
          "blockTimestamp": "0x692b48e1",
          "transactionHash": "0xc77eff2a67f6beeeb6d72109aec3a99803df016830102d6635d339208ac7f6b2",
          "transactionIndex": "0x1",
          "logIndex": "0x0",
          "removed": false
        }
      ],
      "logsBloom": "0x00000000000020000000000000000000000000000000000000800001000000000000000000000000800000000000000000000000000000000000000000000000000000000000000000000000000000000000000000000000000000000000000000000000000000000000000000000000000000000002000000000000000000000000000000000000000000000020000000000000000000000000000000000000000000000000000000000000000000000000000000000000000020000000000000000400001000000000000000000100000004000000000000000000000000000000000000000000000000000000000000000000000000000000004000000000",
      "type": "0x2",
      "transactionHash": "0xc77eff2a67f6beeeb6d72109aec3a99803df016830102d6635d339208ac7f6b2",
      "transactionIndex": "0x1",
      "blockHash": "0xa7ff4fead8720da12c59ec3079bff0e0d7956eced18151f27e3ff097dd01ff49",
      "blockNumber": "0x1dfe300",
      "gasUsed": "0x920100d",
      "effectiveGasPrice": "0x1312d01",
      "from": "0x1234562eb0cd65e7d08e59f9f18d7c10b5df232a",
      "to": "0x7a02904448ae5e3983d05ea1e77d5d91410be953",
      "contractAddress": null,
      "l1Fee": "0xa5386",
      "l1FeeScalar": "0.01",
      "l1GasPrice": "0x8",
      "l1GasUsed": "0xbd8",
      "tokenRatio": "0xae6"
    },
    {
      "status": "0x1",
      "cumulativeGasUsed": "0x920c706",
      "logs": [
        {
          "address": "0x7a02904448ae5e3983d05ea1e77d5d91410be953",
          "topics": [
            "0x354f0817e377e1e9b2601a5fa1180df29e96ac246a5d02f817a6e3bb4b72a904",
            "0x000000000000000000000000e47eba0dbf716d99482fb071ca04adf4fccd6b1f",
            "0x0000000000000000000000001fe9a4e25caa2a22fc0b61010fdb0db462fb5b29"
          ],
          "data": "0x00000000000000000000000000000000000000000000000000000000000000010000000000000000000000000000000000000000000000000000000000000000",
          "blockHash": "0xe20111dc910bf72116d5fdc752ad49141d61c613a74b1f906036eeca9189884a",
          "blockNumber": "0x1dfe306",
          "blockTimestamp": "0x692b48ed",
          "transactionHash": "0x40ab7233a935bbd58fabbeb0d063477792a7cabbe51618afe720beb683a4c176",
          "transactionIndex": "0x1",
          "logIndex": "0x0",
          "removed": false
        }
      ],
      "logsBloom": "0x00000000000000000000000000000000000000000000000000808000000000000000000000000000800000004002000000000000000000000000000000000001000000000000000000000080800000000000000000000000000000000000000000000000000000000000000000000000000000000002000000000000000000000000000000000000000000000020000000000000000000000000000000000000000000000000000000000000000000000000000000000000000020000000000000000000000000000000000000000000000004000000000000000000000000000000000000000000000000000000000000000000000000000000000000000000",
      "type": "0x2",
      "transactionHash": "0x40ab7233a935bbd58fabbeb0d063477792a7cabbe51618afe720beb683a4c176",
      "transactionIndex": "0x1",
      "blockHash": "0xe20111dc910bf72116d5fdc752ad49141d61c613a74b1f906036eeca9189884a",
      "blockNumber": "0x1dfe306",
      "gasUsed": "0x920100d",
      "effectiveGasPrice": "0x1312d01",
      "from": "0x1234562eb0cd65e7d08e59f9f18d7c10b5df232a",
      "to": "0x7a02904448ae5e3983d05ea1e77d5d91410be953",
      "contractAddress": null,
      "l1Fee": "0xa5386",
      "l1FeeScalar": "0.01",
      "l1GasPrice": "0x8",
      "l1GasUsed": "0xbd8",
      "tokenRatio": "0xae6"
    },
    {
      "status": "0x1",
      "cumulativeGasUsed": "0x920c706",
      "logs": [
        {
          "address": "0x7a02904448ae5e3983d05ea1e77d5d91410be953",
          "topics": [
            "0x354f0817e377e1e9b2601a5fa1180df29e96ac246a5d02f817a6e3bb4b72a904",
            "0x0000000000000000000000004e3a466bba553ace4cd3a6149d574f3f034b5269",
            "0x0000000000000000000000005e1e8043381f3a21a1a64f46073daf7e74fedc1e"
          ],
          "data": "0x00000000000000000000000000000000000000000000000000000000000000010000000000000000000000000000000000000000000000000000000000000000",
          "blockHash": "0x745b10c4f57c04174224b6d8bb99d98f505f5bf6bcafbe1d5f1d467dcacd8d07",
          "blockNumber": "0x1dfe30b",
          "blockTimestamp": "0x692b48f7",
          "transactionHash": "0x807ae9a5c8f13b9003f43f42500e9a4fcacfbbd96be4255276146f577fd03770",
          "transactionIndex": "0x1",
          "logIndex": "0x0",
          "removed": false
        }
      ],
      "logsBloom": "0x00000000000000000000000000000000000000000000000000800000000000000000000000000000800000000000000000000000000000000000000000000000000000000000040000000000000000000000000000000000000000000010000000200000000000000000000000000000000000000002000000000000000000000000000000000000000000000020000000000000000000000000000000000000000000000000000000000000000000000000000001000000000020000000000000000020000000000000000000000000000004000000000000000000000000000000000000000000000000000000000001000000000000000000000000000000",
      "type": "0x2",
      "transactionHash": "0x807ae9a5c8f13b9003f43f42500e9a4fcacfbbd96be4255276146f577fd03770",
      "transactionIndex": "0x1",
      "blockHash": "0x745b10c4f57c04174224b6d8bb99d98f505f5bf6bcafbe1d5f1d467dcacd8d07",
      "blockNumber": "0x1dfe30b",
      "gasUsed": "0x920100d",
      "effectiveGasPrice": "0x1312d01",
      "from": "0x1234562eb0cd65e7d08e59f9f18d7c10b5df232a",
      "to": "0x7a02904448ae5e3983d05ea1e77d5d91410be953",
      "contractAddress": null,
      "l1Fee": "0xa4910",
      "l1FeeScalar": "0.01",
      "l1GasPrice": "0x8",
      "l1GasUsed": "0xbcc",
      "tokenRatio": "0xae6"
    },
    {
      "status": "0x1",
      "cumulativeGasUsed": "0x92109c6",
      "logs": [
        {
          "address": "0x7a02904448ae5e3983d05ea1e77d5d91410be953",
          "topics": [
            "0x354f0817e377e1e9b2601a5fa1180df29e96ac246a5d02f817a6e3bb4b72a904",
            "0x000000000000000000000000751a0e0147d10b8c21804ac88dcfa6837312ea35",
            "0x00000000000000000000000006c1e044d5beb614faa6128001f519e6c693a044"
          ],
          "data": "0x00000000000000000000000000000000000000000000000000000000000000010000000000000000000000000000000000000000000000000000000000000000",
          "blockHash": "0x0173ed8644a367c6d05b07d428a9d85b677b8ad8789f591074a65bc97999bd17",
          "blockNumber": "0x1dfe310",
          "blockTimestamp": "0x692b4901",
          "transactionHash": "0xe911e94ab723a1843d48bf53d323f0b7be10103ed6593d8efb22a16ece911eb3",
          "transactionIndex": "0x1",
          "logIndex": "0x0",
          "removed": false
        }
      ],
      "logsBloom": "0x00000000000000010000000000000000000000800000000000800000000000000000040000000000800000000000000000000000000000000000000000000000000000000000000000000000000000000000000000000000000000000000000000001000000000000000000000000000000000000402000000000000000000000000000000000000000000000020000000000000000000000000000000000000000000000000000000000000000000000000000000000000000020000000000000000000000000000000000000000000000004000000000000000000000000000000000000000000000000000000000000000000040000000000000000000000",
      "type": "0x2",
      "transactionHash": "0xe911e94ab723a1843d48bf53d323f0b7be10103ed6593d8efb22a16ece911eb3",
      "transactionIndex": "0x1",
      "blockHash": "0x0173ed8644a367c6d05b07d428a9d85b677b8ad8789f591074a65bc97999bd17",
      "blockNumber": "0x1dfe310",
      "gasUsed": "0x920100d",
      "effectiveGasPrice": "0x1312d01",
      "from": "0x1234562eb0cd65e7d08e59f9f18d7c10b5df232a",
      "to": "0x7a02904448ae5e3983d05ea1e77d5d91410be953",
      "contractAddress": null,
      "l1Fee": "0xa5386",
      "l1FeeScalar": "0.01",
      "l1GasPrice": "0x8",
      "l1GasUsed": "0xbd8",
      "tokenRatio": "0xae6"
    },
    {
      "status": "0x1",
      "cumulativeGasUsed": "0x92109d2",
      "logs": [
        {
          "address": "0x7a02904448ae5e3983d05ea1e77d5d91410be953",
          "topics": [
            "0x354f0817e377e1e9b2601a5fa1180df29e96ac246a5d02f817a6e3bb4b72a904",
            "0x000000000000000000000000d8d362badb84cc1f97a00273ddc8845fd4148c80",
            "0x00000000000000000000000085b8dc34c7af35bac8a45cff53353f39e6f732a2"
          ],
          "data": "0x00000000000000000000000000000000000000000000000000000000000000010000000000000000000000000000000000000000000000000000000000000000",
          "blockHash": "0xc26cc4e21eed44e989a06eb13b8b6ccc0804a03946c8f3bf5da624088d9f59db",
          "blockNumber": "0x1dfe316",
          "blockTimestamp": "0x692b490d",
          "transactionHash": "0x68450dcc87f2ad9314b9c7f9ed4227c90f69d2dbcb8c8e4f445472d152bbf397",
          "transactionIndex": "0x1",
          "logIndex": "0x0",
          "removed": false
        }
      ],
      "logsBloom": "0x00000000000000000000000000000000000000000000000000800000000000000000000000000000800000000000000000000000000000000000000000000000000002000000000000000000000000000000000000000000000000000000000000040000000000000400000000000000000000000002000000000000000000000000000000000000000000000020000000040000000000000000000000000000000000000000000000000000000000000000000000000000000020000000000000000000000000000000000000000000000004000000000001000000000000000000000000200000000000000000000000000000000000000000000000000000",
      "type": "0x2",
      "transactionHash": "0x68450dcc87f2ad9314b9c7f9ed4227c90f69d2dbcb8c8e4f445472d152bbf397",
      "transactionIndex": "0x1",
      "blockHash": "0xc26cc4e21eed44e989a06eb13b8b6ccc0804a03946c8f3bf5da624088d9f59db",
      "blockNumber": "0x1dfe316",
      "gasUsed": "0x920100d",
      "effectiveGasPrice": "0x1312d01",
      "from": "0x1234562eb0cd65e7d08e59f9f18d7c10b5df232a",
      "to": "0x7a02904448ae5e3983d05ea1e77d5d91410be953",
      "contractAddress": null,
      "l1Fee": "0xa5386",
      "l1FeeScalar": "0.01",
      "l1GasPrice": "0x8",
      "l1GasUsed": "0xbd8",
      "tokenRatio": "0xae6"
    },
    {
      "status": "0x1",
      "cumulativeGasUsed": "0x920c706",
      "logs": [
        {
          "address": "0x7a02904448ae5e3983d05ea1e77d5d91410be953",
          "topics": [
            "0x354f0817e377e1e9b2601a5fa1180df29e96ac246a5d02f817a6e3bb4b72a904",
            "0x0000000000000000000000001061473a78f6eb0a0bcbde060a5eea9d4273bb59",
            "0x0000000000000000000000007392e9e58f202da3877776c41683ac457dfd4cd7"
          ],
          "data": "0x00000000000000000000000000000000000000000000000000000000000000010000000000000000000000000000000000000000000000000000000000000000",
          "blockHash": "0x375314930887982fc631cdd9e81d8921420132bf8bb12ed25fa4e6b4175a628d",
          "blockNumber": "0x1dfe319",
          "blockTimestamp": "0x692b4913",
          "transactionHash": "0x07b131c51dc6df428df4bdd8509aab2c2eeafef22c978b28b21344c560978130",
          "transactionIndex": "0x1",
          "logIndex": "0x0",
          "removed": false
        }
      ],
      "logsBloom": "0x00000000000000000000000000000000000000000000000000800000000000000000000000000000800000000000000000000000000000000000000000000000000000000000000000000000000000000002000000000000000000000000000000000000000000000000000000000000000000000002000000000000000000000000000000000000000000000020000000000000000000000000000000000080000000000000000000000000000000000000000000000000000020000000000000000000001000000000000000000100000004000000000000000100000000000000000000000000000000000000000000000000000000000000004000000000",
      "type": "0x2",
      "transactionHash": "0x07b131c51dc6df428df4bdd8509aab2c2eeafef22c978b28b21344c560978130",
      "transactionIndex": "0x1",
      "blockHash": "0x375314930887982fc631cdd9e81d8921420132bf8bb12ed25fa4e6b4175a628d",
      "blockNumber": "0x1dfe319",
      "gasUsed": "0x920100d",
      "effectiveGasPrice": "0x1312d01",
      "from": "0x1234562eb0cd65e7d08e59f9f18d7c10b5df232a",
      "to": "0x7a02904448ae5e3983d05ea1e77d5d91410be953",
      "contractAddress": null,
      "l1Fee": "0xa5386",
      "l1FeeScalar": "0.01",
      "l1GasPrice": "0x8",
      "l1GasUsed": "0xbd8",
      "tokenRatio": "0xae6"
    },
    {
      "status": "0x1",
      "cumulativeGasUsed": "0x92109d2",
      "logs": [
        {
          "address": "0x7a02904448ae5e3983d05ea1e77d5d91410be953",
          "topics": [
            "0x354f0817e377e1e9b2601a5fa1180df29e96ac246a5d02f817a6e3bb4b72a904",
            "0x000000000000000000000000824fb936d24b2baaf92fe87fd65ff22d01439ece",
            "0x0000000000000000000000001fe9a4e25caa2a22fc0b61010fdb0db462fb5b29"
          ],
          "data": "0x00000000000000000000000000000000000000000000000000000000000000010000000000000000000000000000000000000000000000000000000000000000",
          "blockHash": "0x807db37ef41af6947e9387a77db1bd30bc7073fd285f415aec6f9a74fd736caf",
          "blockNumber": "0x1dfe31c",
          "blockTimestamp": "0x692b4919",
          "transactionHash": "0x0d813d65d89691270e92a204213be36999e918de437c942f63dbda9d864d35d0",
          "transactionIndex": "0x1",
          "logIndex": "0x0",
          "removed": false
        }
      ],
      "logsBloom": "0x00000000000000000000000000000000000000000000000000808000000000000000000000000000800000000000000000000000000000000000000000000001000000000000000000000080000000000000000000000000002000000000000000000000000000000000000000000000000000000002000000000000000000000000000000000000000000008020000000000000000000000000000000000000000000000000000000000000000000000000000000000000000020080000000000000000000000000000000000000000000004000000000000000000000000000000000000000000000000000000000000000000000000000000000000000000",
      "type": "0x2",
      "transactionHash": "0x0d813d65d89691270e92a204213be36999e918de437c942f63dbda9d864d35d0",
      "transactionIndex": "0x1",
      "blockHash": "0x807db37ef41af6947e9387a77db1bd30bc7073fd285f415aec6f9a74fd736caf",
      "blockNumber": "0x1dfe31c",
      "gasUsed": "0x920100d",
      "effectiveGasPrice": "0x1312d01",
      "from": "0x1234562eb0cd65e7d08e59f9f18d7c10b5df232a",
      "to": "0x7a02904448ae5e3983d05ea1e77d5d91410be953",
      "contractAddress": null,
      "l1Fee": "0xa5386",
      "l1FeeScalar": "0.01",
      "l1GasPrice": "0x8",
      "l1GasUsed": "0xbd8",
      "tokenRatio": "0xae6"
    },
    {
      "status": "0x1",
      "cumulativeGasUsed": "0x920c706",
      "logs": [
        {
          "address": "0x7a02904448ae5e3983d05ea1e77d5d91410be953",
          "topics": [
            "0x354f0817e377e1e9b2601a5fa1180df29e96ac246a5d02f817a6e3bb4b72a904",
            "0x000000000000000000000000012bd7cd0acc8cb696306b1ab7a537e85ef2056f",
            "0x0000000000000000000000005e1e8043381f3a21a1a64f46073daf7e74fedc1e"
          ],
          "data": "0x00000000000000000000000000000000000000000000000000000000000000010000000000000000000000000000000000000000000000000000000000000000",
          "blockHash": "0x67de8f11d8a326c287923993728db21edac28222d53ac817e50e3d79a2586d54",
          "blockNumber": "0x1dfe31f",
          "blockTimestamp": "0x692b491f",
          "transactionHash": "0x008fb50a0f06cd9a90747fd4d81942771df8b40787eb602f4b0192c876d5cbfa",
          "transactionIndex": "0x1",
          "logIndex": "0x0",
          "removed": false
        }
      ],
      "logsBloom": "0x00000000000000000000000000000000000000000000000000800000000000000000000000000000800000000000000000000000000000000000000100000000000000000000040000000000000000000000000000000000000000000000000000000000000000000000000000000004000000000002000000000000000000000000000000000000000000000020000000000000000000000000000000000000000000000000000000000000000000000000000000000000000020000000000000000020000000000000000000000000000004000000000000000000000000000004000000000000000000000000000001000000000000000000000000000000",
      "type": "0x2",
      "transactionHash": "0x008fb50a0f06cd9a90747fd4d81942771df8b40787eb602f4b0192c876d5cbfa",
      "transactionIndex": "0x1",
      "blockHash": "0x67de8f11d8a326c287923993728db21edac28222d53ac817e50e3d79a2586d54",
      "blockNumber": "0x1dfe31f",
      "gasUsed": "0x920100d",
      "effectiveGasPrice": "0x1312d01",
      "from": "0x1234562eb0cd65e7d08e59f9f18d7c10b5df232a",
      "to": "0x7a02904448ae5e3983d05ea1e77d5d91410be953",
      "contractAddress": null,
      "l1Fee": "0xa5386",
      "l1FeeScalar": "0.01",
      "l1GasPrice": "0x8",
      "l1GasUsed": "0xbd8",
      "tokenRatio": "0xae6"
    },
    {
      "status": "0x1",
      "cumulativeGasUsed": "0x920c706",
      "logs": [
        {
          "address": "0x7a02904448ae5e3983d05ea1e77d5d91410be953",
          "topics": [
            "0x354f0817e377e1e9b2601a5fa1180df29e96ac246a5d02f817a6e3bb4b72a904",
            "0x0000000000000000000000004d8346f2f33ffbc7fa2e46becf83c978943e69c8",
            "0x00000000000000000000000006c1e044d5beb614faa6128001f519e6c693a044"
          ],
          "data": "0x00000000000000000000000000000000000000000000000000000000000000010000000000000000000000000000000000000000000000000000000000000000",
          "blockHash": "0x3b91a8e8bd3aae852ed4707cfcea2d3e2fb73e0350b2d0cb993b322e86c22350",
          "blockNumber": "0x1dfe323",
          "blockTimestamp": "0x692b4927",
          "transactionHash": "0x7bc2a4fb6c80e84a12c805bf60b0e8438d8d6ee5e2bdeced98f1bedf370338eb",
          "transactionIndex": "0x1",
          "logIndex": "0x0",
          "removed": false
        }
      ],
      "logsBloom": "0x00000000000000010000000000000000000000800000000000800000000000000000000000000000800000000000000000000000000000000000000000000000000000000000000000000000000000000000000000000000000000000000000004000000000000000000000000000000000000000002000000000000000000000000000000000000000000000020000000000000000000000000000010000000000000000000000000000000000000000000000000000000000020000000000000000000000000001000000000000000000004000000000000000000000000000000000000000000000000000000000000000000040000000000000000000000",
      "type": "0x2",
      "transactionHash": "0x7bc2a4fb6c80e84a12c805bf60b0e8438d8d6ee5e2bdeced98f1bedf370338eb",
      "transactionIndex": "0x1",
      "blockHash": "0x3b91a8e8bd3aae852ed4707cfcea2d3e2fb73e0350b2d0cb993b322e86c22350",
      "blockNumber": "0x1dfe323",
      "gasUsed": "0x920100d",
      "effectiveGasPrice": "0x1312d01",
      "from": "0x1234562eb0cd65e7d08e59f9f18d7c10b5df232a",
      "to": "0x7a02904448ae5e3983d05ea1e77d5d91410be953",
      "contractAddress": null,
      "l1Fee": "0xa5386",
      "l1FeeScalar": "0.01",
      "l1GasPrice": "0x8",
      "l1GasUsed": "0xbd8",
      "tokenRatio": "0xae6"
    },
    {
      "status": "0x1",
      "cumulativeGasUsed": "0x920dcda",
      "logs": [
        {
          "address": "0x7a02904448ae5e3983d05ea1e77d5d91410be953",
          "topics": [
            "0x354f0817e377e1e9b2601a5fa1180df29e96ac246a5d02f817a6e3bb4b72a904",
            "0x0000000000000000000000002db087d43fc8402ade0706807d32d6ef72411ebd",
            "0x00000000000000000000000085b8dc34c7af35bac8a45cff53353f39e6f732a2"
          ],
          "data": "0x00000000000000000000000000000000000000000000000000000000000000010000000000000000000000000000000000000000000000000000000000000000",
          "blockHash": "0x679e3fa441c03eebfdf26509133633ded18c93cc02eacc44e1dc97272cb5d8d0",
          "blockNumber": "0x1dfe327",
          "blockTimestamp": "0x692b492f",
          "transactionHash": "0xd3c7c08a0a4bd232774a97efac4a77bc3d4b2d94cdb8f6eca57129b77305d7f5",
          "transactionIndex": "0x1",
          "logIndex": "0x0",
          "removed": false
        }
      ],
      "logsBloom": "0x00000000000000000000000000000000000000000000000000800000000000000000000000000000800000000000000000000000000000000000000000000000000000000000000000000000000000000100000000000000000000000000000000040000000000000000000000000000000000000002000000000000000000000000000000000000000000000020000000040000040000000000000000000000000000000000000000000000000000000000000000000000000020000000000000000000000000000000000000002000000004000000000001000000000000000000000000000000000000000000000000000000000000000000000000000000",
      "type": "0x2",
      "transactionHash": "0xd3c7c08a0a4bd232774a97efac4a77bc3d4b2d94cdb8f6eca57129b77305d7f5",
      "transactionIndex": "0x1",
      "blockHash": "0x679e3fa441c03eebfdf26509133633ded18c93cc02eacc44e1dc97272cb5d8d0",
      "blockNumber": "0x1dfe327",
      "gasUsed": "0x920100d",
      "effectiveGasPrice": "0x1312d01",
      "from": "0x1234562eb0cd65e7d08e59f9f18d7c10b5df232a",
      "to": "0x7a02904448ae5e3983d05ea1e77d5d91410be953",
      "contractAddress": null,
      "l1Fee": "0xa5386",
      "l1FeeScalar": "0.01",
      "l1GasPrice": "0x8",
      "l1GasUsed": "0xbd8",
      "tokenRatio": "0xae6"
    },
    {
      "status": "0x1",
      "cumulativeGasUsed": "0x920c706",
      "logs": [
        {
          "address": "0x7a02904448ae5e3983d05ea1e77d5d91410be953",
          "topics": [
            "0x354f0817e377e1e9b2601a5fa1180df29e96ac246a5d02f817a6e3bb4b72a904",
            "0x000000000000000000000000d14bd87b18da3ec84a9e098df1c808d9cb7a9852",
            "0x0000000000000000000000007392e9e58f202da3877776c41683ac457dfd4cd7"
          ],
          "data": "0x00000000000000000000000000000000000000000000000000000000000000010000000000000000000000000000000000000000000000000000000000000000",
          "blockHash": "0x065a9e925b5c33038fe78b0a7fd8f39e69a997e7dccad7cac30bcad96da9bcff",
          "blockNumber": "0x1dfe32a",
          "blockTimestamp": "0x692b4935",
          "transactionHash": "0xfbf1ad067346f4a2d0a6630463fe9c652aba1b7bd0994d84e4008a8399ff7758",
          "transactionIndex": "0x1",
          "logIndex": "0x0",
          "removed": false
        }
      ],
      "logsBloom": "0x00000000000000000000000000000000000000000000000000800000000000000000000000000000800000000000000000000000000000000000000000000000000000000000000000000000000000000000000000000000000000000000000000000000000000000000000000000000000000000002000000000000000000000000000000000000000000000020000000000000000000000000000000000000000000000000000000000000000000002000000000000000000020000000000000000000001000000000000000000100000004000000000000000000000000000000000004000000000000800000000000000000000000000000004000000000",
      "type": "0x2",
      "transactionHash": "0xfbf1ad067346f4a2d0a6630463fe9c652aba1b7bd0994d84e4008a8399ff7758",
      "transactionIndex": "0x1",
      "blockHash": "0x065a9e925b5c33038fe78b0a7fd8f39e69a997e7dccad7cac30bcad96da9bcff",
      "blockNumber": "0x1dfe32a",
      "gasUsed": "0x920100d",
      "effectiveGasPrice": "0x1312d01",
      "from": "0x1234562eb0cd65e7d08e59f9f18d7c10b5df232a",
      "to": "0x7a02904448ae5e3983d05ea1e77d5d91410be953",
      "contractAddress": null,
      "l1Fee": "0xa4910",
      "l1FeeScalar": "0.01",
      "l1GasPrice": "0x8",
      "l1GasUsed": "0xbcc",
      "tokenRatio": "0xae6"
    }
  ],
  "libraries": [],
  "pending": [],
  "returns": {},
  "timestamp": 1764444471151,
  "chain": 5003,
  "commit": "8340d41"
}