{
  "transactions": [
    {
      "hash": "0x8c9c4721b84584afa3ee97829c5822e303c60dcf058024bef5fb288851e331a9",
      "transactionType": "CREATE",
      "contractName": "KubiStreamerDonation",
      "contractAddress": "0x9df8bc805e278f4391891e5c0fc824b5191f5212",
      "function": null,
      "arguments": [
        "0x2bF7E65df939482869b96A6BEb88d3e5bF58Fb81",
        "0x1234b50310fF79958509d1a9C8a92458ED1496D1",
        "250",
        "0x123454Ce54DEBE2cEbCe95740E9e0f65DFf9DBE2"
      ],
      "transaction": {
        "from": "0x1234562eb0cd65e7d08e59f9f18d7c10b5df232a",
        "gas": "0x329dd366b",
        "value": "0x0",
        "input": "0x60e0806040523461021a576080816135dc803803809161001f82856102b2565b83398101031261021a57610032816102e9565b9061003f602082016102e9565b9060408101519061ffff82169081830361021a57606061005f91016102e9565b5f80546001600160a01b0319163390811782556040519296917f8be0079c531659141344cd1fd0a4f28419497f9722a3daafe3b4186f6b6457e08180a3600180556001600160a01b031691821580156102a1575b8015610290575b610281576103e81061027257608082905263c45a015560e01b8152602081600481855afa908115610226575f91610231575b506001600160a01b031660a0526040516312a9293f60e21b815290602090829060049082905afa908115610226575f916101e8575b5060c052600280546001600160b01b0319166001600160a01b039384161760a09290921b61ffff60a01b16919091179055600380546001600160a01b031916929091169190911790556040516132de90816102fe82396080518181816102170152818161298501528181612a6201528181612ce00152612f40015260a05181818161086d015281816128e401528181612c570152612ea3015260c0518181816108f60152818161092801528181610a76015281816126fa01528181612df401526132260152f35b90506020813d60201161021e575b81610203602093836102b2565b8101031261021a57610214906102e9565b5f610121565b5f80fd5b3d91506101f6565b6040513d5f823e3d90fd5b90506020813d60201161026a575b8161024c602093836102b2565b8101031261021a576004916102626020926102e9565b9150916100ec565b3d915061023f565b63cd4e616760e01b5f5260045ffd5b63d92e233d60e01b5f5260045ffd5b506001600160a01b038616156100ba565b506001600160a01b038516156100b3565b601f909101601f19168101906001600160401b038211908210176102d557604052565b634e487b7160e01b5f52604160045260245ffd5b51906001600160a01b038216820361021a5756fe6080806040526004361015610034575b50361561002557631021348160e01b5f5260045ffd5b631021348160e01b5f5260045ffd5b5f3560e01c9081630c495f961461170057508063168b63d81461166f57806324a9d8531461164b57806325d86ced146115a057806329575f6a14611578578063469048401461155057806356d5d4751461121d57806376cd0ac11461113e5780637a6f1dcc14610fc15780637b955ebd14610f385780637f507f3f14610eda578063876a46ff14610dac57806388ba16ab14610d7d5780638da5cb5b14610d565780639ab2f6b914610cd4578063a0d2d83014610afc578063a9563e4f14610aa5578063ad5c464814610a61578063b0e0c128146109e5578063b45faa761461089c578063c45a015514610858578063cd1b7d6c146107a7578063d55be8c61461078b578063ddb2a09614610736578063e051e81a146106dc578063e165fe3d14610685578063e1f43347146105a2578063e34d4ceb1461054d578063e9a45291146104db578063ec28750614610462578063ee5e4fa314610408578063f2fde38b14610386578063f6fe94b014610246578063f887ea40146102025763fef0c4a1146101c1575f61000f565b346101fe5760203660031901126101fe576001600160a01b036101e26118d9565b165f526004602052602060ff60405f2054166040519015158152f35b5f80fd5b346101fe575f3660031901126101fe576040517f00000000000000000000000000000000000000000000000000000000000000006001600160a01b03168152602090f35b346101fe5760603660031901126101fe5761025f6118d9565b6102676118ef565b90610270611930565b6001600160a01b03909116913383141580610371575b8061035d575b61034e576001600160a01b03165f8181526004602052604090205460ff161561033f57825f52600a6020528060405f2093815f52600185016020526102e08460405f209060ff801983541691151516179055565b7f160aca386eecd6b8deb0127ecafcd60a1081e3f9dfa75de2cfd22ea186e8d3f1602060405195159586158152a38161032b575b5061031b57005b80546001600160a01b0319169055005b82546001600160a01b031614905082610314565b633ba12a1560e11b5f5260045ffd5b63641410b160e11b5f5260045ffd5b505f546001600160a01b031633141561028c565b506002546001600160a01b0316331415610286565b346101fe5760203660031901126101fe5761039f6118d9565b5f546001600160a01b03811691338390036103f9576001600160a01b03169182156101fe5782907f8be0079c531659141344cd1fd0a4f28419497f9722a3daafe3b4186f6b6457e05f80a36001600160a01b031916175f55005b635fc483c560e01b5f5260045ffd5b346101fe5760403660031901126101fe576104216118d9565b6104296118ef565b9060018060a01b03165f52600a602052600160405f20019060018060a01b03165f52602052602060ff60405f2054166040519015158152f35b346101fe576101403660031901126101fe5761047d366119b7565b610488303314611a67565b6104918161275b565b60018060a01b0360a08201511690608060018060a01b036020830151169101516040519182526020820152600160408201525f5160206132895f395f51905f5260606101243592a3005b346101fe5760403660031901126101fe576104f46118d9565b6104fc6118ef565b336001600160a01b038316141580610538575b80610524575b61034e5761052291611e46565b005b505f546001600160a01b0316331415610515565b506002546001600160a01b031633141561050f565b346101fe5760403660031901126101fe57610566611a54565b63ffffffff6105736118ef565b91165f52600860205260405f209060018060a01b03165f52602052602060ff60405f2054166040519015158152f35b346101fe5760603660031901126101fe576105bb611a54565b6105c36118ef565b6105cb611930565b9060018060a01b035f541633141580610670575b610661576001600160a01b031691821561065257602063ffffffff7f4d49d3f3f3e2ec61b682ac1aa8adb9e1945c29b4df4aab45492b365a611b7b9f921692835f526008825260405f20855f5282526106478160405f209060ff801983541691151516179055565b6040519015158152a3005b63d92e233d60e01b5f5260045ffd5b63127f16f360e31b5f5260045ffd5b506002546001600160a01b03163314156105df565b346101fe5760403660031901126101fe5761069e6118d9565b6106a66118ef565b6001600160a01b039182165f908152600a6020908152604080832093851683526002909301815290829020549151919092168152f35b346101fe5760203660031901126101fe576001600160a01b036106fd6118d9565b165f526006602052606060405f20600181549101546040519160ff81161515835260018060a01b039060081c1660208301526040820152f35b346101fe5760203660031901126101fe576001600160a01b036107576118d9565b165f908152600a6020908152604091829020805460049091015483516001600160a01b039283168152911691810191909152f35b346101fe575f3660031901126101fe5760206040516103e88152f35b346101fe5760403660031901126101fe5760043561ffff81168082036101fe576107cf6118ef565b9060018060a01b035f541633141580610843575b610661576103e810610834576001600160a01b0316908115610652576002805461ffff60a01b191660a09290921b61ffff60a01b16919091179055600380546001600160a01b031916919091179055005b63cd4e616760e01b5f5260045ffd5b506002546001600160a01b03163314156107e3565b346101fe575f3660031901126101fe576040517f00000000000000000000000000000000000000000000000000000000000000006001600160a01b03168152602090f35b346101fe5760603660031901126101fe576108b56118d9565b6108bd6118ef565b6044359162ffffff831683036101fe575f546001600160a01b0316331415806109d0575b610661576001600160a01b0381166109ca57507f0000000000000000000000000000000000000000000000000000000000000000905b6001600160a01b0381166109c457507f0000000000000000000000000000000000000000000000000000000000000000905b6001600160a01b031690811580156109b3575b610652575f8281526005602081815260408084206001600160a01b03959095168452938152838320805462ffffff9790971662ffffff19978816811790915591815283832094835293909352208054909216179055005b506001600160a01b0381161561095c565b90610949565b90610917565b506002546001600160a01b03163314156108e1565b346101fe576101603660031901126101fe57610a00366119b7565b610a08611905565b610a13303314611a67565b610a1d8183612832565b608060018060a01b0360a0840151169201516040519160018060a01b031682526020820152600160408201525f5160206132895f395f51905f5260606101443592a3005b346101fe575f3660031901126101fe576040517f00000000000000000000000000000000000000000000000000000000000000006001600160a01b03168152602090f35b346101fe5760403660031901126101fe57610abe6118d9565b610ac66118ef565b9060018060a01b03165f52600560205260405f209060018060a01b03165f52602052602062ffffff60405f205416604051908152f35b346101fe5760403660031901126101fe57610b156118d9565b610b1d6118ef565b906001600160a01b03163381141580610cbf575b80610cab575b61034e575f818152600a60205260409020916001600160a01b03168015610652575f8181526003840160208190526040909120546001600160a01b0316938415610c78576001600160a01b038581165f9081526002830160205260409020541683145b15610c695760049160018060a01b0386165f526002820160205260405f206001600160601b0360a01b8154169055835f5260205260405f206001600160601b0360a01b8154169055019060018060a01b0382541614610c2f575b506040515f81526001600160a01b03909216917f07efacf833c0332f419c637a012a52fe4647777ec52b15b904c88856048dc94f90602090a3005b80546001600160a01b03191690556040515f81526001600160a01b0383169082905f5160206132695f395f51905f5290602090a382610bf4565b634209c0e360e01b5f5260045ffd5b5f8080526002820160205260409020549094906001600160a01b03168303610ca457505f936001610b9a565b935f610b9a565b505f546001600160a01b0316331415610b37565b506002546001600160a01b0316331415610b31565b346101fe5760203660031901126101fe576004355f52600960205260c060405f2060ff60018060a01b038254169160018060a01b036001820154169060018060a01b03600282015416600460038301549201549260405195865260208601526040850152606084015263ffffffff8116608084015260201c16151560a0820152f35b346101fe575f3660031901126101fe575f546040516001600160a01b039091168152602090f35b346101fe5760203660031901126101fe576004355f526007602052602060ff60405f2054166040519015158152f35b346101fe5760203660031901126101fe57600435610dcd6001805414611a9f565b6002600155805f52600960205260405f209060038201918254908115610ecb57600481019182549260ff8460201c16610ebc5782546001600160a01b031633141580610ea5575b610e96576002610e8d93610e67926401000000007f6a2135e02ec806883835dbb59b92ede322c4f615397756ef4d0599c3cb3638549764ff00000000191617905501913360018060a01b03845416612533565b549354604080516001600160a01b03909616865260208601919091523394918291820190565b0390a360018055005b630ecab8eb60e11b5f5260045ffd5b5060018301546001600160a01b0316331415610e14565b63075d85e360e01b5f5260045ffd5b637bafa6c960e01b5f5260045ffd5b60c03660031901126101fe57610eee6118d9565b610ef66118ef565b60643591906001600160a01b03831683036101fe57610f3292610f1c6001805414611a9f565b600260015560a435926084359260443591611b38565b60018055005b346101fe5760203660031901126101fe576001600160a01b03610f596118d9565b165f908152600a6020526040902060048101546001600160a01b03169081610f9c57505f905b604080516001600160a01b03928316815292909116602083015290f35b6001600160a01b038281165f9081526003929092016020526040909120541690610f7f565b346101fe5760403660031901126101fe57610fda6118d9565b610fe26118ef565b6001600160a01b03909116903382141580611129575b80611115575b61034e576001600160a01b031690811561065257815f52600660205260405f205460ff8116156111065760081c6001600160a01b03169182156110f7575f828152600a602090815260408083206001600160a01b0387811680865260028301855283862080546001600160a01b0319908116891790915587875260038401865293909520805490931690941790915560040180547f07efacf833c0332f419c637a012a52fe4647777ec52b15b904c88856048dc94f94929316156110c7575b50604051908152a3005b816001600160601b0360a01b82541617905584845f5160206132695f395f51905f5284604051858152a3856110bd565b63634bb5e960e11b5f5260045ffd5b63ab68eff560e01b5f5260045ffd5b505f546001600160a01b0316331415610ffe565b506002546001600160a01b0316331415610ff8565b346101fe5760403660031901126101fe576111576118d9565b61115f6118ef565b906001600160a01b03163381141580611208575b806111f4575b61034e576001600160a01b0382165f9081526004602052604090205460ff161561033f575f52600a60205260405f209060018060a01b0381165f526001820160205260ff60405f205416156111e55781546001600160a01b0319166001600160a01b0391909116179055005b631a1a638d60e01b5f5260045ffd5b505f546001600160a01b0316331415611179565b506002546001600160a01b0316331415611173565b346101fe5760603660031901126101fe57611236611a54565b6024356044359167ffffffffffffffff83116101fe57366023840112156101fe5782600401359067ffffffffffffffff82116101fe576024840190828501903660248301116101fe5761128c6001805414611a9f565b600260015563ffffffff81165f8181526008602090815260408083206001600160a01b038a16845290915290205490959060ff16156115415760405190602082019263ffffffff60e01b9060e01b1683526024820152848460448301376113056020604483888101438382015203018084520182611995565b51902092835f52600760205260ff60405f20541661153257608090845f52600760205260405f20600160ff198254161790551061152357608090859003126101fe576113509061191c565b9161135d6044850161191c565b92608461136c6064870161191c565b6001600160a01b03958616969286169591909201359116851561065257811561151457805f52600460205260ff60405f2054161561033f578585847f2385c9e581aa6338749593a091fc45991adb2cabe5e070614a388e318f5280706060604051868152876020820152896040820152a46113ea8483838989612241565b156113f55760018055005b6040519260c084019380851067ffffffffffffffff861117611500576040948552868152602080820189815282870185815260608401878152608085019586525f60a086018181528b825260098652908a9020955186546001600160a01b03199081166001600160a01b0392831617885594516001880180548716918316919091179055925160028701805490951690841617909355516003850155935160049093018054915164ffffffffff1990921663ffffffff90941693909317901515821b64ff0000000016179091558451919092168152908101919091527f1eba772d6e32861ac84f6d651181b2bc327724ca4854e984f7f2fa458ae165449190a4808080808080610f32565b634e487b7160e01b5f52604160045260245ffd5b631f2a200560e01b5f5260045ffd5b63772496b160e01b5f5260045ffd5b637b04260960e01b5f5260045ffd5b633c7c9f8360e01b5f5260045ffd5b346101fe575f3660031901126101fe576003546040516001600160a01b039091168152602090f35b346101fe575f3660031901126101fe576002546040516001600160a01b039091168152602090f35b346101fe5760403660031901126101fe576115b96118d9565b60243590811515908183036101fe575f546001600160a01b031633141580611636575b610661577fac90355684e2710fa34c2c7d500018678b146ea2d56ddc331c63d242ee8bf3859161162d60209260018060a01b031694855f526004845260405f209060ff801983541691151516179055565b604051908152a2005b506002546001600160a01b03163314156115dc565b346101fe575f3660031901126101fe57602061ffff60025460a01c16604051908152f35b346101fe576101803660031901126101fe5761168a366119b7565b611692611905565b610144356001600160a01b03811681036101fe576116bc906116b5303314611a67565b8284611efa565b608060018060a01b0360a0840151169201516040519160018060a01b031682526020820152600160408201525f5160206132895f395f51905f5260606101643592a3005b346101fe5760803660031901126101fe576117196118d9565b906117226118ef565b61172a611930565b916064359360018060a01b035f5416331415806118c4575b610661576001600160a01b0316928315610652571561182957506001600160a01b03169182156110f757825f52600460205260ff60405f2054161561181a5760407f354f0817e377e1e9b2601a5fa1180df29e96ac246a5d02f817a6e3bb4b72a9049181516117b08161193f565b6001815260016020820187815284830190848252875f5260066020526117e8865f2094511515859060ff801983541691151516179055565b518354906101008460a81b039060081b16906101008460a81b03191617835551910155815190600182526020820152a3005b634c3347d160e01b5f5260045ffd5b90505f92506118378161193f565b828152600160208201848152604083019085825284865260066020526118706040872094511515859060ff801983541691151516179055565b518354906101008460a81b039060081b16906101008460a81b031916178355519101557f354f0817e377e1e9b2601a5fa1180df29e96ac246a5d02f817a6e3bb4b72a90460408051848152846020820152a3005b506002546001600160a01b0316331415611742565b600435906001600160a01b03821682036101fe57565b602435906001600160a01b03821682036101fe57565b61012435906001600160a01b03821682036101fe57565b35906001600160a01b03821682036101fe57565b6044359081151582036101fe57565b6060810190811067ffffffffffffffff82111761150057604052565b610120810190811067ffffffffffffffff82111761150057604052565b610100810190811067ffffffffffffffff82111761150057604052565b90601f8019910116810190811067ffffffffffffffff82111761150057604052565b6101209060031901126101fe57604051906119d18261195b565b816004356001600160a01b03811681036101fe5781526024356001600160a01b03811681036101fe57602082015260443560408201526064356060820152608435608082015260a4356001600160a01b03811681036101fe5760a082015260c43560c082015260e43560e0820152610104359081151582036101fe576101000152565b6004359063ffffffff821682036101fe57565b15611a6e57565b60405162461bcd60e51b815260206004820152600960248201526827b7363c9039b2b63360b91b6044820152606490fd5b15611aa657565b60405162461bcd60e51b815260206004820152600a6024820152695245454e5452414e435960b01b6044820152606490fd5b91908203918211611ae557565b634e487b7160e01b5f52601160045260245ffd5b3d15611b33573d9067ffffffffffffffff82116115005760405191611b28601f8201601f191660200184611995565b82523d5f602084013e565b606090565b9490926001600160a01b031690811561065257428110611e37576001600160a01b038416948515938415611e31575034925b8315611514578415611e2b575f5b6001600160a01b03165f9081526004602052604090205460ff161561033f578415611d6b575b61ffff60025460a01c168085029085820403611ae5576127109004611bc38186611ad8565b9481611d1a575b825f52600a60205260405f20986040519a611be48c61195b565b6001600160a01b03168b5260208b015260408a015260608901526080880193845260a088015260c087015260e08601526101008501829052611c2685856125e9565b916001600160a01b0382169081611cc2575b505050505f14611cbd57505f5b6001600160a01b03165f90815260018201602052604090205460ff16611cb357546001600160a01b03168015611ca457805f52600460205260ff60405f20541615611c9557611c9391612832565b565b633fbb49c960e01b5f5260045ffd5b63555096e560e11b5f5260045ffd5b50611c939061275b565b611c45565b6040915f526006602052815f206001835191611cdd8361193f565b805460ff811615158452828060a01b039060081c16602084015201549283910152511015611d0c578080611c38565b9250925050611c9392611efa565b8615611d4e575f8080808560018060a01b03600354165af1611d3a611af9565b50611bca5763671f7c4960e11b5f5260045ffd5b600354611d669083906001600160a01b03168b612533565b611bca565b3015610652576040516323b872dd60e01b81526001600160a01b0389166004820152306024820152604481018590526020816064815f8c5af1908115611e20575f91611df1575b50611b9e5760405162461bcd60e51b81526020600482015260126024820152711514905394d1915497d19493d357d190525360721b6044820152606490fd5b611e13915060203d602011611e19575b611e0b8183611995565b81019061251b565b5f611db2565b503d611e01565b6040513d5f823e3d90fd5b85611b78565b92611b6a565b631ab7da6b60e01b5f5260045ffd5b6001600160a01b039081165f818152600a60205260409020929091168015611ecb57805f52600660205260ff60405f20541615611106575f8181526003840160205260409020546001600160a01b0316928315610c695760040180546001600160a01b031916821790556040519081525f5160206132695f395f51905f5290602090a3565b5060045f92016001600160601b0360a01b81541690555f5160206132695f395f51905f526020604051848152a3565b915f9160018060a01b03811691825f52600660205260405f2060405190611f208261193f565b8054916040600160ff85161593841584526020840195828060a01b039060081c168652015491015261110657516001600160a01b03169081156110f7576001600160a01b031681036121ca57805f52600460205260ff60405f2054161561181a57611f8b8186612ba7565b60a0860180516040516370a0823160e01b81526001600160a01b03909116600482015290949190602081602481865afa908115611e20575f91612198575b50611fd4858561305d565b611fdf82868661310a565b85516001600160a01b0316833b156101fe5760405163d699618560e01b81526001600160a01b03919091166004820152602481018390525f8160448183885af18015611e2057612183575b50612035858561305d565b85516040516370a0823160e01b81526001600160a01b03909116600482015290602082602481875afa8015612178578890612144575b6120759250611ad8565b9586156121355760c088015187106121275750905f5160206132495f395f51905f529392917f8f7a6fecbaab1e04e31f80b9da6e08d7f55f854f660a910ddc7cce65036babd5604060018060a01b03885116928151908152896020820152a4845192516020808701516040808901516060998a01518251918252938101939093526001600160a01b039485169083015296810195909552426080860152948116948116939216918060a081015b0390a4565b6250c9b760e01b8152600490fd5b63360fef3560e01b8152600490fd5b506020823d602011612170575b8161215e60209383611995565b810103126101fe57612075915161206b565b3d9150612151565b6040513d8a823e3d90fd5b6121909197505f90611995565b5f955f61202a565b90506020813d6020116121c2575b816121b360209383611995565b810103126101fe57515f611fc9565b3d91506121a6565b632693f30360e11b5f5260045ffd5b80516001600160a01b03908116835260208083015182169084015260408083015190840152606080830151908401526080808301519084015260a0808301519091169083015260c0808201519083015260e08082015190830152610100908101511515910152565b6001600160a01b0382165f818152600a6020526040812042610e1081019893979295929491908910611ae5576040519161227a8361195b565b60018060a01b03169687835260018060a01b0316988960208401528560408401525f606084015260808301908682528960a08501525f60c085015260e08401525f6101008401526122cb83836125e9565b6001600160a01b039091169182612451575b505050885f526001810160205260ff60405f20541661240157546001600160a01b0316801515806123eb575b61237557505091855f5160206132495f395f51905f52949261232e8360a0968b612533565b5f5160206132895f395f51905f5260606040518b815285602082015260016040820152a36040519181835260208301528660408301526060820152426080820152a4600190565b949750955050925050303b156123e75760405163161c182560e31b8152926123a19060048501906121d9565b6101248301526101448201528180826101648183305af191826123ce575b50506123c85790565b50600190565b816123d891611995565b6123e357815f6123bf565b5080fd5b8380fd5b50808652600460205260ff604087205416612309565b509550509250509250303b1561244d576040516376143a8360e11b81529161242d9060048401906121d9565b6101248201528180826101448183305af191826123ce5750506123c85790565b8280fd5b604090835f526006602052815f20600183519161246d8361193f565b805460ff811615158452828060a01b039060081c1660208401520154928391015251101561249c575b806122dd565b303b156101fe576040516302d16c7b60e31b8152916124be60048401866121d9565b6101248301526001600160a01b031661014482015261016481018590525f816101848183305af19081612506575b506124f8575f80612496565b505050505050505050600190565b6125139197505f90611995565b5f955f6124ec565b908160209103126101fe575180151581036101fe5790565b916001600160a01b038216156106525760405163a9059cbb60e01b81526001600160a01b0390921660048301526024820152906020908290815f816044810103926001600160a01b03165af1908115611e20575f916125ca575b501561259557565b60405162461bcd60e51b815260206004820152600d60248201526c1514905394d1915497d1905253609a1b6044820152606490fd5b6125e3915060203d602011611e1957611e0b8183611995565b5f61258d565b610100820151909291901561274957505f5b6001600160a01b038116156126c5576001600160a01b038181165f9081526002850160205260409020541661262f8161316b565b6126c05750505b60048201546001600160a01b031661264d8161316b565b61269d575081546001600160a01b0316918261266c575b505f91508190565b6001600160a01b038381165f908152600292909201602052604090912054166126948161316b565b15612664579190565b6001600160a01b038082165f908152600390940160205260409093205490921690565b925090565b505f8080526002830160208190526040909120546001600160a01b03166126eb8161316b565b61274157506001600160a01b037f00000000000000000000000000000000000000000000000000000000000000008181165f908152602093909352604090922054166127368161316b565b6126c0575050612636565b92505f919050565b602001516001600160a01b03166125fb565b61010081015115612806575f80808060018060a01b0360a0860151166080860151905af1612787611af9565b50156127f7575b805160a0828101516020808501516040808701516060808901516080998a01518451938452958301526001600160a01b03938416928201839052810193909352429683019690965291821693909116915f5160206132495f395f51905f52919081908101612122565b632b3b0c0960e11b5f5260045ffd5b602081015160a0820151608083015161282d9290916001600160a01b039081169116612533565b61278e565b906101008201511515805f14612b94575f5b608084015160c085015160a086019360018060a01b038551169161286c60e089015195613215565b9461287688613215565b9560018060a01b031693845f52600560205260405f2060018060a01b0388165f5260205262ffffff60405f2054168015612b8557604051630b4c774160e11b8152600481018790526001600160a01b03988916602482018190526044820183905298602090829060649082907f0000000000000000000000000000000000000000000000000000000000000000165afa908115611e20575f91612b43575b506001600160a01b031615612b35576040519761293089611978565b86895260208901526040880152606087015260808601528360a086015260c08501525f60e08501525f14612a5f575061298191602091604051808095819463414bf38960e01b8352600483016131ac565b03917f00000000000000000000000000000000000000000000000000000000000000006001600160a01b03165af18015611e20575f90612a20575b5f5160206132495f395f51905f529150925b845192516020808701516040808901516060998a01518251918252938101939093526001600160a01b039485169083015296810195909552426080860152948116948116939216918060a08101612122565b506020813d602011612a57575b81612a3a60209383611995565b810103126101fe575f5160206132495f395f51905f5290516129bc565b3d9150612a2d565b937f00000000000000000000000000000000000000000000000000000000000000006001600160a01b0316929091612ac391602091612aa990612aa2878a61305d565b868961310a565b6040518093819263414bf38960e01b8352600483016131ac565b03815f875af1908115611e20575f91612af6575b505f5160206132495f395f51905f5292612af1919561305d565b6129ce565b90506020813d602011612b2d575b81612b1160209383611995565b810103126101fe57515f5160206132495f395f51905f52612ad7565b3d9150612b04565b6231a7b960e41b5f5260045ffd5b90506020813d602011612b7d575b81612b5e60209383611995565b810103126101fe57516001600160a01b03811681036101fe575f612914565b3d9150612b51565b630db08e3d60e01b5f5260045ffd5b60208301516001600160a01b0316612844565b5f90610100810151612df05760208101516001600160a01b03908116939081168414612de557612be9612be360e0608085015194015195613215565b91613215565b9060018060a01b03169384845260056020526040842060018060a01b0383165f5260205262ffffff60405f2054168015612dd657604051630b4c774160e11b8152600481018790526001600160a01b03938416602482018190526044820183905293602090829060649082907f0000000000000000000000000000000000000000000000000000000000000000165afa908115612dcb578691612d85575b506001600160a01b031615612d775791602091612d129360405192612cab84611978565b88845284840152604083015230606083015260808201528360a08201528460c08201528460e0820152612aa960018060a01b037f00000000000000000000000000000000000000000000000000000000000000001694612d0b868961305d565b858861310a565b038186865af1928315612d6b5792612d35575b508192612d32925061305d565b90565b91506020823d602011612d63575b81612d5060209383611995565b810103126101fe57612d32915191612d25565b3d9150612d43565b604051903d90823e3d90fd5b6231a7b960e41b8552600485fd5b90506020813d602011612dc3575b81612da060209383611995565b81010312612dbf57516001600160a01b0381168103612dbf575f612c87565b8580fd5b3d9150612d93565b6040513d88823e3d90fd5b630db08e3d60e01b8552600485fd5b506080015192915050565b90917f00000000000000000000000000000000000000000000000000000000000000006001600160a01b038181169392908116841461301757612e3e9060e060808501519401519250613215565b83855260056020526040852060018060a01b0382165f5260205262ffffff60405f20541690811561300857604051630b4c774160e11b8152600481018690526001600160a01b03918216602482018190526044820184905291602090829060649082907f0000000000000000000000000000000000000000000000000000000000000000165afa908115612ffd578791612fb7575b506001600160a01b031615612fa9579160209391612f3c959360405194612ef986611978565b855285850152604084015230606084015260808301528060a08301528460c08301528460e0830152604051808095819463414bf38960e01b8352600483016131ac565b03917f00000000000000000000000000000000000000000000000000000000000000006001600160a01b03165af1918215612d6b5791612f7a575090565b90506020813d602011612fa1575b81612f9560209383611995565b810103126101fe575190565b3d9150612f88565b6231a7b960e41b8652600486fd5b90506020813d602011612ff5575b81612fd260209383611995565b81010312612ff157516001600160a01b0381168103612ff1575f612ed3565b8680fd5b3d9150612fc5565b6040513d89823e3d90fd5b630db08e3d60e01b8652600486fd5b5050608001805190925090803b156101fe575f90600460405180948193630d0e30db60e41b83525af18015611e205761304f57505190565b5f61305991611995565b5190565b906001600160a01b031680156106525760405163095ea7b360e01b815260048101919091525f602482018190529091602091839160449183916001600160a01b03165af1908115611e20575f916130eb575b50156130b757565b60405162461bcd60e51b815260206004820152600c60248201526b1054141493d59157d190525360a21b6044820152606490fd5b613104915060203d602011611e1957611e0b8183611995565b5f6130af565b916001600160a01b038216156106525760405163095ea7b360e01b81526001600160a01b0390921660048301526024820152906020908290815f816044810103926001600160a01b03165af1908115611e20575f916130eb5750156130b757565b6001600160a01b031680156131a7575f52600660205260405f205460ff81169081613194575090565b60081c6001600160a01b03161515919050565b505f90565b81516001600160a01b03908116825260208084015182169083015260408084015162ffffff16908301526060808401518216908301526080808401519083015260a0808401519083015260c0808401519083015260e09283015116918101919091526101000190565b6001600160a01b038116612d3257507f00000000000000000000000000000000000000000000000000000000000000009056fe49735f6dfce36092e4e60b47019be07f553ede2d89c84c80a84ad06883a2477752ce92b576c9e725f458101a8593fe331d4d2964c77a20f2b608b39cd95cf7890b84237232bded30e1bbcacdfefe53e938b8581b540301f72506f32b3af37c88a26469706673582212206495aad48e8c88b45a755fd2daca947cf4ecaed4e4488db275f63f01fa21857464736f6c634300081e00330000000000000000000000002bf7e65df939482869b96a6beb88d3e5bf58fb810000000000000000000000001234b50310ff79958509d1a9c8a92458ed1496d100000000000000000000000000000000000000000000000000000000000000fa000000000000000000000000123454ce54debe2cebce95740e9e0f65dff9dbe2",
        "nonce": "0x2a5",
        "chainId": "0x138b"
      },
      "additionalContracts": [],
      "isFixedGasLimit": false
    },
    {
      "hash": "0x245fa2dc6ea1c492e6efc85f2bb75cd75a40ce4431ab6ee61723156947d92e0e",
      "transactionType": "CALL",
      "contractName": "KubiStreamerDonation",
      "contractAddress": "0x9df8bc805e278f4391891e5c0fc824b5191f5212",
      "function": "setGlobalWhitelist(address,bool)",
      "arguments": [
        "0x57b78b98b9Dd06E06DE145b83aeDf6F04E4C5500",
        "true"
      ],
      "transaction": {
        "from": "0x1234562eb0cd65e7d08e59f9f18d7c10b5df232a",
        "to": "0x9df8bc805e278f4391891e5c0fc824b5191f5212",
        "gas": "0x61ae372",
        "value": "0x0",
        "input": "0x25d86ced00000000000000000000000057b78b98b9dd06e06de145b83aedf6f04e4c55000000000000000000000000000000000000000000000000000000000000000001",
        "nonce": "0x2a6",
        "chainId": "0x138b"
      },
      "additionalContracts": [],
      "isFixedGasLimit": false
    },
    {
      "hash": "0xccf3e40b764569a2ebd99d603974d8ef2d611d9c80f8691e19ef36ace1e36500",
      "transactionType": "CALL",
      "contractName": "KubiStreamerDonation",
      "contractAddress": "0x9df8bc805e278f4391891e5c0fc824b5191f5212",
      "function": "setGlobalWhitelist(address,bool)",
      "arguments": [
        "0x1fE9A4E25cAA2a22FC0B61010fDB0DB462FB5b29",
        "true"
      ],
      "transaction": {
        "from": "0x1234562eb0cd65e7d08e59f9f18d7c10b5df232a",
        "to": "0x9df8bc805e278f4391891e5c0fc824b5191f5212",
        "gas": "0x61cfb47",
        "value": "0x0",
        "input": "0x25d86ced0000000000000000000000001fe9a4e25caa2a22fc0b61010fdb0db462fb5b290000000000000000000000000000000000000000000000000000000000000001",
        "nonce": "0x2a7",
        "chainId": "0x138b"
      },
      "additionalContracts": [],
      "isFixedGasLimit": false
    },
    {
      "hash": "0x334a59e3e30e50c6a2a104968e17e0499fe4c2eac22bc02d6ee533a9a34e7b10",
      "transactionType": "CALL",
      "contractName": "KubiStreamerDonation",
      "contractAddress": "0x9df8bc805e278f4391891e5c0fc824b5191f5212",
      "function": "setGlobalWhitelist(address,bool)",
      "arguments": [
        "0x5e1E8043381F3A21a1A64f46073daF7E74fEdC1E",
        "true"
      ],
      "transaction": {
        "from": "0x1234562eb0cd65e7d08e59f9f18d7c10b5df232a",
        "to": "0x9df8bc805e278f4391891e5c0fc824b5191f5212",
        "gas": "0x61cfb47",
        "value": "0x0",
        "input": "0x25d86ced0000000000000000000000005e1e8043381f3a21a1a64f46073daf7e74fedc1e0000000000000000000000000000000000000000000000000000000000000001",
        "nonce": "0x2a8",
        "chainId": "0x138b"
      },
      "additionalContracts": [],
      "isFixedGasLimit": false
    },
    {
      "hash": "0x650e1b38278434483e4adc21026ef9ed02adb95d5a081a98687c444967339fdc",
      "transactionType": "CALL",
      "contractName": "KubiStreamerDonation",
      "contractAddress": "0x9df8bc805e278f4391891e5c0fc824b5191f5212",
      "function": "setGlobalWhitelist(address,bool)",
      "arguments": [
        "0x06C1e044D5BEb614faA6128001F519e6c693a044",
        "true"
      ],
      "transaction": {
        "from": "0x1234562eb0cd65e7d08e59f9f18d7c10b5df232a",
        "to": "0x9df8bc805e278f4391891e5c0fc824b5191f5212",
        "gas": "0x61cfb47",
        "value": "0x0",
        "input": "0x25d86ced00000000000000000000000006c1e044d5beb614faa6128001f519e6c693a0440000000000000000000000000000000000000000000000000000000000000001",
        "nonce": "0x2a9",
        "chainId": "0x138b"
      },
      "additionalContracts": [],
      "isFixedGasLimit": false
    },
    {
      "hash": "0x51c089147e9033093203b58d15843116dfb467952e88a14e532408ccf6fea398",
      "transactionType": "CALL",
      "contractName": "KubiStreamerDonation",
      "contractAddress": "0x9df8bc805e278f4391891e5c0fc824b5191f5212",
      "function": "setGlobalWhitelist(address,bool)",
      "arguments": [
        "0x85B8Dc34C7Af35baC8a45CfF53353f39E6F732A2",
        "true"
      ],
      "transaction": {
        "from": "0x1234562eb0cd65e7d08e59f9f18d7c10b5df232a",
        "to": "0x9df8bc805e278f4391891e5c0fc824b5191f5212",
        "gas": "0x61cfb47",
        "value": "0x0",
        "input": "0x25d86ced00000000000000000000000085b8dc34c7af35bac8a45cff53353f39e6f732a20000000000000000000000000000000000000000000000000000000000000001",
        "nonce": "0x2aa",
        "chainId": "0x138b"
      },
      "additionalContracts": [],
      "isFixedGasLimit": false
    },
    {
      "hash": "0x783e110c9878176c28b79e07f35ae475e35d0a80a5878d844cfec1c196bf4296",
      "transactionType": "CALL",
      "contractName": "KubiStreamerDonation",
      "contractAddress": "0x9df8bc805e278f4391891e5c0fc824b5191f5212",
      "function": "setGlobalWhitelist(address,bool)",
      "arguments": [
        "0x7392e9E58f202Da3877776c41683AC457DFd4CD7",
        "true"
      ],
      "transaction": {
        "from": "0x1234562eb0cd65e7d08e59f9f18d7c10b5df232a",
        "to": "0x9df8bc805e278f4391891e5c0fc824b5191f5212",
        "gas": "0x61cfb47",
        "value": "0x0",
        "input": "0x25d86ced0000000000000000000000007392e9e58f202da3877776c41683ac457dfd4cd70000000000000000000000000000000000000000000000000000000000000001",
        "nonce": "0x2ab",
        "chainId": "0x138b"
      },
      "additionalContracts": [],
      "isFixedGasLimit": false
    },
    {
      "hash": "0x254b01d7871598696123dc42acdbf2e2d84ec208b66eff76f95663daa87f5e03",
      "transactionType": "CALL",
      "contractName": "KubiStreamerDonation",
      "contractAddress": "0x9df8bc805e278f4391891e5c0fc824b5191f5212",
      "function": "setGlobalWhitelist(address,bool)",
      "arguments": [
        "0xB03a4Cf6EB030BbABd0452300b01C7DCb9584737",
        "true"
      ],
      "transaction": {
        "from": "0x1234562eb0cd65e7d08e59f9f18d7c10b5df232a",
        "to": "0x9df8bc805e278f4391891e5c0fc824b5191f5212",
        "gas": "0x61cfb47",
        "value": "0x0",
        "input": "0x25d86ced000000000000000000000000b03a4cf6eb030bbabd0452300b01c7dcb95847370000000000000000000000000000000000000000000000000000000000000001",
        "nonce": "0x2ac",
        "chainId": "0x138b"
      },
      "additionalContracts": [],
      "isFixedGasLimit": false
    },
    {
      "hash": "0xab6c1dffc783e4acda727bb632f6961241e1bf0a1569c755ab179bd9950d9479",
      "transactionType": "CALL",
      "contractName": "KubiStreamerDonation",
      "contractAddress": "0x9df8bc805e278f4391891e5c0fc824b5191f5212",
      "function": "setGlobalWhitelist(address,bool)",
      "arguments": [
        "0x2ffc2F655A26A4def63EFCD59930d1241EE0519a",
        "true"
      ],
      "transaction": {
        "from": "0x1234562eb0cd65e7d08e59f9f18d7c10b5df232a",
        "to": "0x9df8bc805e278f4391891e5c0fc824b5191f5212",
        "gas": "0x61cfb47",
        "value": "0x0",
        "input": "0x25d86ced0000000000000000000000002ffc2f655a26a4def63efcd59930d1241ee0519a0000000000000000000000000000000000000000000000000000000000000001",
        "nonce": "0x2ad",
        "chainId": "0x138b"
      },
      "additionalContracts": [],
      "isFixedGasLimit": false
    },
    {
      "hash": "0xa2c1386eb5fc244ce1940362841b362bdd70e016482b3defd45105b6a8067ca1",
      "transactionType": "CALL",
      "contractName": "KubiStreamerDonation",
      "contractAddress": "0x9df8bc805e278f4391891e5c0fc824b5191f5212",
      "function": "setGlobalWhitelist(address,bool)",
      "arguments": [
        "0x14ac27F376b03b6C05F2189c4f03febB5d76432A",
        "true"
      ],
      "transaction": {
        "from": "0x1234562eb0cd65e7d08e59f9f18d7c10b5df232a",
        "to": "0x9df8bc805e278f4391891e5c0fc824b5191f5212",
        "gas": "0x61cfb47",
        "value": "0x0",
        "input": "0x25d86ced00000000000000000000000014ac27f376b03b6c05f2189c4f03febb5d76432a0000000000000000000000000000000000000000000000000000000000000001",
        "nonce": "0x2ae",
        "chainId": "0x138b"
      },
      "additionalContracts": [],
      "isFixedGasLimit": false
    },
    {
      "hash": "0x9971cd5f3db7143d48c9acad0fc72cb074dbfa8fbd2fdba82b83b4bf34114bbb",
      "transactionType": "CALL",
      "contractName": "KubiStreamerDonation",
      "contractAddress": "0x9df8bc805e278f4391891e5c0fc824b5191f5212",
      "function": "setGlobalWhitelist(address,bool)",
      "arguments": [
        "0xdac9107491b3c59A97d7f45CEfC97353f6aB46b2",
        "true"
      ],
      "transaction": {
        "from": "0x1234562eb0cd65e7d08e59f9f18d7c10b5df232a",
        "to": "0x9df8bc805e278f4391891e5c0fc824b5191f5212",
        "gas": "0x61cfb47",
        "value": "0x0",
        "input": "0x25d86ced000000000000000000000000dac9107491b3c59a97d7f45cefc97353f6ab46b20000000000000000000000000000000000000000000000000000000000000001",
        "nonce": "0x2af",
        "chainId": "0x138b"
      },
      "additionalContracts": [],
      "isFixedGasLimit": false
    },
    {
      "hash": "0x0c23f15f3115be630c75815a584fa7cf7ce35ec890d8d643c4d5c84c8eea5090",
      "transactionType": "CALL",
      "contractName": "KubiStreamerDonation",
      "contractAddress": "0x9df8bc805e278f4391891e5c0fc824b5191f5212",
      "function": "setGlobalWhitelist(address,bool)",
      "arguments": [
        "0x9b94108165eF58C9736F2C34B09e3b5b62cF5218",
        "true"
      ],
      "transaction": {
        "from": "0x1234562eb0cd65e7d08e59f9f18d7c10b5df232a",
        "to": "0x9df8bc805e278f4391891e5c0fc824b5191f5212",
        "gas": "0x61cfb47",
        "value": "0x0",
        "input": "0x25d86ced0000000000000000000000009b94108165ef58c9736f2c34b09e3b5b62cf52180000000000000000000000000000000000000000000000000000000000000001",
        "nonce": "0x2b0",
        "chainId": "0x138b"
      },
      "additionalContracts": [],
      "isFixedGasLimit": false
    },
    {
      "hash": "0xec32520fe42131d42522d1d705787595822dd95a7678e573f2d17e2452d0e9ee",
      "transactionType": "CALL",
      "contractName": "KubiStreamerDonation",
      "contractAddress": "0x9df8bc805e278f4391891e5c0fc824b5191f5212",
      "function": "setPoolFee(address,address,uint24)",
      "arguments": [
        "0x57b78b98b9Dd06E06DE145b83aeDf6F04E4C5500",
        "0x1fE9A4E25cAA2a22FC0B61010fDB0DB462FB5b29",
        "3000"
      ],
      "transaction": {
        "from": "0x1234562eb0cd65e7d08e59f9f18d7c10b5df232a",
        "to": "0x9df8bc805e278f4391891e5c0fc824b5191f5212",
        "gas": "0x65d2ba5",
        "value": "0x0",
        "input": "0xb45faa7600000000000000000000000057b78b98b9dd06e06de145b83aedf6f04e4c55000000000000000000000000001fe9a4e25caa2a22fc0b61010fdb0db462fb5b290000000000000000000000000000000000000000000000000000000000000bb8",
        "nonce": "0x2b1",
        "chainId": "0x138b"
      },
      "additionalContracts": [],
      "isFixedGasLimit": false
    },
    {
      "hash": "0xff3935c653af2f6687b382926ee4d9e1528402e95d46ad2a24d7bb83c96a552e",
      "transactionType": "CALL",
      "contractName": "KubiStreamerDonation",
      "contractAddress": "0x9df8bc805e278f4391891e5c0fc824b5191f5212",
      "function": "setPoolFee(address,address,uint24)",
      "arguments": [
        "0x57b78b98b9Dd06E06DE145b83aeDf6F04E4C5500",
        "0x5e1E8043381F3A21a1A64f46073daF7E74fEdC1E",
        "3000"
      ],
      "transaction": {
        "from": "0x1234562eb0cd65e7d08e59f9f18d7c10b5df232a",
        "to": "0x9df8bc805e278f4391891e5c0fc824b5191f5212",
        "gas": "0x65d2ba5",
        "value": "0x0",
        "input": "0xb45faa7600000000000000000000000057b78b98b9dd06e06de145b83aedf6f04e4c55000000000000000000000000005e1e8043381f3a21a1a64f46073daf7e74fedc1e0000000000000000000000000000000000000000000000000000000000000bb8",
        "nonce": "0x2b2",
        "chainId": "0x138b"
      },
      "additionalContracts": [],
      "isFixedGasLimit": false
    },
    {
      "hash": "0x08cd9941ed245c93e085a10552e66ae4bf1787a5882976b6f6f2543b57a1a938",
      "transactionType": "CALL",
      "contractName": "KubiStreamerDonation",
      "contractAddress": "0x9df8bc805e278f4391891e5c0fc824b5191f5212",
      "function": "setYieldConfig(address,address,bool,uint256)",
      "arguments": [
        "0xAee2A87701aFEF956473d547bD02cD736729D8a7",
        "0x1fE9A4E25cAA2a22FC0B61010fDB0DB462FB5b29",
        "true",
        "0"
      ],
      "transaction": {
        "from": "0x1234562eb0cd65e7d08e59f9f18d7c10b5df232a",
        "to": "0x9df8bc805e278f4391891e5c0fc824b5191f5212",
        "gas": "0x6737f40",
        "value": "0x0",
        "input": "0x0c495f96000000000000000000000000aee2a87701afef956473d547bd02cd736729d8a70000000000000000000000001fe9a4e25caa2a22fc0b61010fdb0db462fb5b2900000000000000000000000000000000000000000000000000000000000000010000000000000000000000000000000000000000000000000000000000000000",
        "nonce": "0x2b3",
        "chainId": "0x138b"
      },
      "additionalContracts": [],
      "isFixedGasLimit": false
    },
    {
      "hash": "0x22e517a19417583fb9c68d4061cb1bd7fff780b4c18f85ffd47a3631fb147a00",
      "transactionType": "CALL",
      "contractName": "KubiStreamerDonation",
      "contractAddress": "0x9df8bc805e278f4391891e5c0fc824b5191f5212",
      "function": "setYieldConfig(address,address,bool,uint256)",
      "arguments": [
        "0x6aaBE7258f09474e62E8BebB1cf90E15fbAAF777",
        "0x5e1E8043381F3A21a1A64f46073daF7E74fEdC1E",
        "true",
        "0"
      ],
      "transaction": {
        "from": "0x1234562eb0cd65e7d08e59f9f18d7c10b5df232a",
        "to": "0x9df8bc805e278f4391891e5c0fc824b5191f5212",
        "gas": "0x6737f40",
        "value": "0x0",
        "input": "0x0c495f960000000000000000000000006aabe7258f09474e62e8bebb1cf90e15fbaaf7770000000000000000000000005e1e8043381f3a21a1a64f46073daf7e74fedc1e00000000000000000000000000000000000000000000000000000000000000010000000000000000000000000000000000000000000000000000000000000000",
        "nonce": "0x2b4",
        "chainId": "0x138b"
      },
      "additionalContracts": [],
      "isFixedGasLimit": false
    },
    {
      "hash": "0x68d760e8b28ff336a6240d400d246fa1f80a3572b332b37efad639c0a1013ea1",
      "transactionType": "CALL",
      "contractName": "KubiStreamerDonation",
      "contractAddress": "0x9df8bc805e278f4391891e5c0fc824b5191f5212",
      "function": "setYieldConfig(address,address,bool,uint256)",
      "arguments": [
        "0x5C70fB2a739e9e7Ad5c4311ABF99E0fB65c07eE9",
        "0x06C1e044D5BEb614faA6128001F519e6c693a044",
        "true",
        "0"
      ],
      "transaction": {
        "from": "0x1234562eb0cd65e7d08e59f9f18d7c10b5df232a",
        "to": "0x9df8bc805e278f4391891e5c0fc824b5191f5212",
        "gas": "0x6737f40",
        "value": "0x0",
        "input": "0x0c495f960000000000000000000000005c70fb2a739e9e7ad5c4311abf99e0fb65c07ee900000000000000000000000006c1e044d5beb614faa6128001f519e6c693a04400000000000000000000000000000000000000000000000000000000000000010000000000000000000000000000000000000000000000000000000000000000",
        "nonce": "0x2b5",
        "chainId": "0x138b"
      },
      "additionalContracts": [],
      "isFixedGasLimit": false
    },
    {
      "hash": "0x0994556f2c43c208a95c7881cd4a541cd0c34a348767f6b5973a66dae257a143",
      "transactionType": "CALL",
      "contractName": "KubiStreamerDonation",
      "contractAddress": "0x9df8bc805e278f4391891e5c0fc824b5191f5212",
      "function": "setYieldConfig(address,address,bool,uint256)",
      "arguments": [
        "0xbB6Dd87f1fe0483d9FFA90f7A163Caf21F40BA6c",
        "0x85B8Dc34C7Af35baC8a45CfF53353f39E6F732A2",
        "true",
        "0"
      ],
      "transaction": {
        "from": "0x1234562eb0cd65e7d08e59f9f18d7c10b5df232a",
        "to": "0x9df8bc805e278f4391891e5c0fc824b5191f5212",
        "gas": "0x6737f40",
        "value": "0x0",
        "input": "0x0c495f96000000000000000000000000bb6dd87f1fe0483d9ffa90f7a163caf21f40ba6c00000000000000000000000085b8dc34c7af35bac8a45cff53353f39e6f732a200000000000000000000000000000000000000000000000000000000000000010000000000000000000000000000000000000000000000000000000000000000",
        "nonce": "0x2b6",
        "chainId": "0x138b"
      },
      "additionalContracts": [],
      "isFixedGasLimit": false
    },
    {
      "hash": "0x5f1afe3a9ab555bd3acf05db9a2b484b40438af5c2f81459b8e125fa83221406",
      "transactionType": "CALL",
      "contractName": "KubiStreamerDonation",
      "contractAddress": "0x9df8bc805e278f4391891e5c0fc824b5191f5212",
      "function": "setYieldConfig(address,address,bool,uint256)",
      "arguments": [
        "0xcE74630446990AcF6Cd56facBbd6EE908eE55562",
        "0x7392e9E58f202Da3877776c41683AC457DFd4CD7",
        "true",
        "0"
      ],
      "transaction": {
        "from": "0x1234562eb0cd65e7d08e59f9f18d7c10b5df232a",
        "to": "0x9df8bc805e278f4391891e5c0fc824b5191f5212",
        "gas": "0x6737f40",
        "value": "0x0",
        "input": "0x0c495f96000000000000000000000000ce74630446990acf6cd56facbbd6ee908ee555620000000000000000000000007392e9e58f202da3877776c41683ac457dfd4cd700000000000000000000000000000000000000000000000000000000000000010000000000000000000000000000000000000000000000000000000000000000",
        "nonce": "0x2b7",
        "chainId": "0x138b"
      },
      "additionalContracts": [],
      "isFixedGasLimit": false
    },
    {
      "hash": "0xa567d9a43d34540c9f08657b06fba1a664f6dd72295e67d915b8cda51c68f8f9",
      "transactionType": "CALL",
      "contractName": "KubiStreamerDonation",
      "contractAddress": "0x9df8bc805e278f4391891e5c0fc824b5191f5212",
      "function": "setYieldConfig(address,address,bool,uint256)",
      "arguments": [
        "0xdCC41dee829C1246a936dC5E801cB24303445651",
        "0x1fE9A4E25cAA2a22FC0B61010fDB0DB462FB5b29",
        "true",
        "0"
      ],
      "transaction": {
        "from": "0x1234562eb0cd65e7d08e59f9f18d7c10b5df232a",
        "to": "0x9df8bc805e278f4391891e5c0fc824b5191f5212",
        "gas": "0x6737f40",
        "value": "0x0",
        "input": "0x0c495f96000000000000000000000000dcc41dee829c1246a936dc5e801cb243034456510000000000000000000000001fe9a4e25caa2a22fc0b61010fdb0db462fb5b2900000000000000000000000000000000000000000000000000000000000000010000000000000000000000000000000000000000000000000000000000000000",
        "nonce": "0x2b8",
        "chainId": "0x138b"
      },
      "additionalContracts": [],
      "isFixedGasLimit": false
    },
    {
      "hash": "0x5968ee76c7fdfc24b15ed4149ef4d566424806c15b2d1a032d8eecea58303418",
      "transactionType": "CALL",
      "contractName": "KubiStreamerDonation",
      "contractAddress": "0x9df8bc805e278f4391891e5c0fc824b5191f5212",
      "function": "setYieldConfig(address,address,bool,uint256)",
      "arguments": [
        "0x8f5816ca88ED2775305b154625744E36943Cc750",
        "0x5e1E8043381F3A21a1A64f46073daF7E74fEdC1E",
        "true",
        "0"
      ],
      "transaction": {
        "from": "0x1234562eb0cd65e7d08e59f9f18d7c10b5df232a",
        "to": "0x9df8bc805e278f4391891e5c0fc824b5191f5212",
        "gas": "0x6737f40",
        "value": "0x0",
        "input": "0x0c495f960000000000000000000000008f5816ca88ed2775305b154625744e36943cc7500000000000000000000000005e1e8043381f3a21a1a64f46073daf7e74fedc1e00000000000000000000000000000000000000000000000000000000000000010000000000000000000000000000000000000000000000000000000000000000",
        "nonce": "0x2b9",
        "chainId": "0x138b"
      },
      "additionalContracts": [],
      "isFixedGasLimit": false
    },
    {
      "hash": "0xcf9512fe6a018ffe34d128fff277b7f40eee522b626177f501b462c70fac5562",
      "transactionType": "CALL",
      "contractName": "KubiStreamerDonation",
      "contractAddress": "0x9df8bc805e278f4391891e5c0fc824b5191f5212",
      "function": "setYieldConfig(address,address,bool,uint256)",
      "arguments": [
        "0x2BB55f68fb05De13B04e5a2cadbAE5A05bCE277B",
        "0x06C1e044D5BEb614faA6128001F519e6c693a044",
        "true",
        "0"
      ],
      "transaction": {
        "from": "0x1234562eb0cd65e7d08e59f9f18d7c10b5df232a",
        "to": "0x9df8bc805e278f4391891e5c0fc824b5191f5212",
        "gas": "0x6737f40",
        "value": "0x0",
        "input": "0x0c495f960000000000000000000000002bb55f68fb05de13b04e5a2cadbae5a05bce277b00000000000000000000000006c1e044d5beb614faa6128001f519e6c693a04400000000000000000000000000000000000000000000000000000000000000010000000000000000000000000000000000000000000000000000000000000000",
        "nonce": "0x2ba",
        "chainId": "0x138b"
      },
      "additionalContracts": [],
      "isFixedGasLimit": false
    },
    {
      "hash": "0x6dcf7d0fbad1e6943c48e1694bf180b27edc7351a26c42bf07bd4e189c39a5a8",
      "transactionType": "CALL",
      "contractName": "KubiStreamerDonation",
      "contractAddress": "0x9df8bc805e278f4391891e5c0fc824b5191f5212",
      "function": "setYieldConfig(address,address,bool,uint256)",
      "arguments": [
        "0xa022FD1966577144fCb5Ed8aD5a134861aE5e138",
        "0x85B8Dc34C7Af35baC8a45CfF53353f39E6F732A2",
        "true",
        "0"
      ],
      "transaction": {
        "from": "0x1234562eb0cd65e7d08e59f9f18d7c10b5df232a",
        "to": "0x9df8bc805e278f4391891e5c0fc824b5191f5212",
        "gas": "0x6737f40",
        "value": "0x0",
        "input": "0x0c495f96000000000000000000000000a022fd1966577144fcb5ed8ad5a134861ae5e13800000000000000000000000085b8dc34c7af35bac8a45cff53353f39e6f732a200000000000000000000000000000000000000000000000000000000000000010000000000000000000000000000000000000000000000000000000000000000",
        "nonce": "0x2bb",
        "chainId": "0x138b"
      },
      "additionalContracts": [],
      "isFixedGasLimit": false
    },
    {
      "hash": "0x170374b43aee9257f3be0767cac3bb7ccd081b455d0096053922a58980f2a964",
      "transactionType": "CALL",
      "contractName": "KubiStreamerDonation",
      "contractAddress": "0x9df8bc805e278f4391891e5c0fc824b5191f5212",
      "function": "setYieldConfig(address,address,bool,uint256)",
      "arguments": [
        "0xEC4c46F46191d77C3D8Ba3ddFafe71b58E2089Af",
        "0x7392e9E58f202Da3877776c41683AC457DFd4CD7",
        "true",
        "0"
      ],
      "transaction": {
        "from": "0x1234562eb0cd65e7d08e59f9f18d7c10b5df232a",
        "to": "0x9df8bc805e278f4391891e5c0fc824b5191f5212",
        "gas": "0x6737f40",
        "value": "0x0",
        "input": "0x0c495f96000000000000000000000000ec4c46f46191d77c3d8ba3ddfafe71b58e2089af0000000000000000000000007392e9e58f202da3877776c41683ac457dfd4cd700000000000000000000000000000000000000000000000000000000000000010000000000000000000000000000000000000000000000000000000000000000",
        "nonce": "0x2bc",
        "chainId": "0x138b"
      },
      "additionalContracts": [],
      "isFixedGasLimit": false
    },
    {
      "hash": "0xb46fa53e1d13c1c4d6ddda6139734765797ab6941b6e9adefe62fb28b9a37f56",
      "transactionType": "CALL",
      "contractName": "KubiStreamerDonation",
      "contractAddress": "0x9df8bc805e278f4391891e5c0fc824b5191f5212",
      "function": "setYieldConfig(address,address,bool,uint256)",
      "arguments": [
        "0xE47Eba0dBf716D99482Fb071ca04aDf4FCCd6b1f",
        "0x1fE9A4E25cAA2a22FC0B61010fDB0DB462FB5b29",
        "true",
        "0"
      ],
      "transaction": {
        "from": "0x1234562eb0cd65e7d08e59f9f18d7c10b5df232a",
        "to": "0x9df8bc805e278f4391891e5c0fc824b5191f5212",
        "gas": "0x6737f40",
        "value": "0x0",
        "input": "0x0c495f96000000000000000000000000e47eba0dbf716d99482fb071ca04adf4fccd6b1f0000000000000000000000001fe9a4e25caa2a22fc0b61010fdb0db462fb5b2900000000000000000000000000000000000000000000000000000000000000010000000000000000000000000000000000000000000000000000000000000000",
        "nonce": "0x2bd",
        "chainId": "0x138b"
      },
      "additionalContracts": [],
      "isFixedGasLimit": false
    },
    {
      "hash": "0x4254415513024136bcd76df379ab1177518ee403514094734abad614f31b2599",
      "transactionType": "CALL",
      "contractName": "KubiStreamerDonation",
      "contractAddress": "0x9df8bc805e278f4391891e5c0fc824b5191f5212",
      "function": "setYieldConfig(address,address,bool,uint256)",
      "arguments": [
        "0x4E3A466BbA553Ace4Cd3a6149d574F3f034b5269",
        "0x5e1E8043381F3A21a1A64f46073daF7E74fEdC1E",
        "true",
        "0"
      ],
      "transaction": {
        "from": "0x1234562eb0cd65e7d08e59f9f18d7c10b5df232a",
        "to": "0x9df8bc805e278f4391891e5c0fc824b5191f5212",
        "gas": "0x6737f40",
        "value": "0x0",
        "input": "0x0c495f960000000000000000000000004e3a466bba553ace4cd3a6149d574f3f034b52690000000000000000000000005e1e8043381f3a21a1a64f46073daf7e74fedc1e00000000000000000000000000000000000000000000000000000000000000010000000000000000000000000000000000000000000000000000000000000000",
        "nonce": "0x2be",
        "chainId": "0x138b"
      },
      "additionalContracts": [],
      "isFixedGasLimit": false
    },
    {
      "hash": "0x48253c2b46d819da9c12957fba82c13e3db5396472d6f690de53c2d264bd6a18",
      "transactionType": "CALL",
      "contractName": "KubiStreamerDonation",
      "contractAddress": "0x9df8bc805e278f4391891e5c0fc824b5191f5212",
      "function": "setYieldConfig(address,address,bool,uint256)",
      "arguments": [
        "0x751A0E0147d10b8C21804AC88DCfa6837312ea35",
        "0x06C1e044D5BEb614faA6128001F519e6c693a044",
        "true",
        "0"
      ],
      "transaction": {
        "from": "0x1234562eb0cd65e7d08e59f9f18d7c10b5df232a",
        "to": "0x9df8bc805e278f4391891e5c0fc824b5191f5212",
        "gas": "0x6737f40",
        "value": "0x0",
        "input": "0x0c495f96000000000000000000000000751a0e0147d10b8c21804ac88dcfa6837312ea3500000000000000000000000006c1e044d5beb614faa6128001f519e6c693a04400000000000000000000000000000000000000000000000000000000000000010000000000000000000000000000000000000000000000000000000000000000",
        "nonce": "0x2bf",
        "chainId": "0x138b"
      },
      "additionalContracts": [],
      "isFixedGasLimit": false
    },
    {
      "hash": "0x274a58898361de600c1f6702be8fcf0b6bce210ec9540156f18c0d070929dfaf",
      "transactionType": "CALL",
      "contractName": "KubiStreamerDonation",
      "contractAddress": "0x9df8bc805e278f4391891e5c0fc824b5191f5212",
      "function": "setYieldConfig(address,address,bool,uint256)",
      "arguments": [
        "0xD8D362BADb84Cc1F97a00273ddC8845FD4148C80",
        "0x85B8Dc34C7Af35baC8a45CfF53353f39E6F732A2",
        "true",
        "0"
      ],
      "transaction": {
        "from": "0x1234562eb0cd65e7d08e59f9f18d7c10b5df232a",
        "to": "0x9df8bc805e278f4391891e5c0fc824b5191f5212",
        "gas": "0x6737f40",
        "value": "0x0",
        "input": "0x0c495f96000000000000000000000000d8d362badb84cc1f97a00273ddc8845fd4148c8000000000000000000000000085b8dc34c7af35bac8a45cff53353f39e6f732a200000000000000000000000000000000000000000000000000000000000000010000000000000000000000000000000000000000000000000000000000000000",
        "nonce": "0x2c0",
        "chainId": "0x138b"
      },
      "additionalContracts": [],
      "isFixedGasLimit": false
    },
    {
      "hash": "0x53c72d0c7007a376448e32d88fd8c312b206e266591fe26ebb91244e63cca779",
      "transactionType": "CALL",
      "contractName": "KubiStreamerDonation",
      "contractAddress": "0x9df8bc805e278f4391891e5c0fc824b5191f5212",
      "function": "setYieldConfig(address,address,bool,uint256)",
      "arguments": [
        "0x1061473A78f6eb0a0BcBDE060a5EeA9d4273BB59",
        "0x7392e9E58f202Da3877776c41683AC457DFd4CD7",
        "true",
        "0"
      ],
      "transaction": {
        "from": "0x1234562eb0cd65e7d08e59f9f18d7c10b5df232a",
        "to": "0x9df8bc805e278f4391891e5c0fc824b5191f5212",
        "gas": "0x6737f40",
        "value": "0x0",
        "input": "0x0c495f960000000000000000000000001061473a78f6eb0a0bcbde060a5eea9d4273bb590000000000000000000000007392e9e58f202da3877776c41683ac457dfd4cd700000000000000000000000000000000000000000000000000000000000000010000000000000000000000000000000000000000000000000000000000000000",
        "nonce": "0x2c1",
        "chainId": "0x138b"
      },
      "additionalContracts": [],
      "isFixedGasLimit": false
    },
    {
      "hash": "0xc1120c5ce0f33c60c8c82fcb63bc0ba1fec2e799162edd0a048882bd867fd167",
      "transactionType": "CALL",
      "contractName": "KubiStreamerDonation",
      "contractAddress": "0x9df8bc805e278f4391891e5c0fc824b5191f5212",
      "function": "setYieldConfig(address,address,bool,uint256)",
      "arguments": [
        "0x824FB936D24B2BAaF92Fe87FD65fF22d01439ECE",
        "0x1fE9A4E25cAA2a22FC0B61010fDB0DB462FB5b29",
        "true",
        "0"
      ],
      "transaction": {
        "from": "0x1234562eb0cd65e7d08e59f9f18d7c10b5df232a",
        "to": "0x9df8bc805e278f4391891e5c0fc824b5191f5212",
        "gas": "0x6737f40",
        "value": "0x0",
        "input": "0x0c495f96000000000000000000000000824fb936d24b2baaf92fe87fd65ff22d01439ece0000000000000000000000001fe9a4e25caa2a22fc0b61010fdb0db462fb5b2900000000000000000000000000000000000000000000000000000000000000010000000000000000000000000000000000000000000000000000000000000000",
        "nonce": "0x2c2",
        "chainId": "0x138b"
      },
      "additionalContracts": [],
      "isFixedGasLimit": false
    },
    {
      "hash": "0xa258f06580f422f9d1a68e3445843cee35dc6ba76b19f2faf1bd74a1a97153ae",
      "transactionType": "CALL",
      "contractName": "KubiStreamerDonation",
      "contractAddress": "0x9df8bc805e278f4391891e5c0fc824b5191f5212",
      "function": "setYieldConfig(address,address,bool,uint256)",
      "arguments": [
        "0x012bd7CD0AcC8cB696306B1aB7a537E85eF2056f",
        "0x5e1E8043381F3A21a1A64f46073daF7E74fEdC1E",
        "true",
        "0"
      ],
      "transaction": {
        "from": "0x1234562eb0cd65e7d08e59f9f18d7c10b5df232a",
        "to": "0x9df8bc805e278f4391891e5c0fc824b5191f5212",
        "gas": "0x6737f40",
        "value": "0x0",
        "input": "0x0c495f96000000000000000000000000012bd7cd0acc8cb696306b1ab7a537e85ef2056f0000000000000000000000005e1e8043381f3a21a1a64f46073daf7e74fedc1e00000000000000000000000000000000000000000000000000000000000000010000000000000000000000000000000000000000000000000000000000000000",
        "nonce": "0x2c3",
        "chainId": "0x138b"
      },
      "additionalContracts": [],
      "isFixedGasLimit": false
    },
    {
      "hash": "0xc482afdc1a23ab9bae1637677afb6001a4b96edffa12192af097c030ff9a9d0d",
      "transactionType": "CALL",
      "contractName": "KubiStreamerDonation",
      "contractAddress": "0x9df8bc805e278f4391891e5c0fc824b5191f5212",
      "function": "setYieldConfig(address,address,bool,uint256)",
      "arguments": [
        "0x4d8346F2F33FFBc7fa2E46bECF83C978943e69C8",
        "0x06C1e044D5BEb614faA6128001F519e6c693a044",
        "true",
        "0"
      ],
      "transaction": {
        "from": "0x1234562eb0cd65e7d08e59f9f18d7c10b5df232a",
        "to": "0x9df8bc805e278f4391891e5c0fc824b5191f5212",
        "gas": "0x6737f40",
        "value": "0x0",
        "input": "0x0c495f960000000000000000000000004d8346f2f33ffbc7fa2e46becf83c978943e69c800000000000000000000000006c1e044d5beb614faa6128001f519e6c693a04400000000000000000000000000000000000000000000000000000000000000010000000000000000000000000000000000000000000000000000000000000000",
        "nonce": "0x2c4",
        "chainId": "0x138b"
      },
      "additionalContracts": [],
      "isFixedGasLimit": false
    },
    {
      "hash": "0xa67e51f2c9744138e9759b3eb64923ae17b07d8053d0919ef1da8a2168eee8cf",
      "transactionType": "CALL",
      "contractName": "KubiStreamerDonation",
      "contractAddress": "0x9df8bc805e278f4391891e5c0fc824b5191f5212",
      "function": "setYieldConfig(address,address,bool,uint256)",
      "arguments": [
        "0x2db087D43Fc8402aDE0706807d32d6EF72411ebd",
        "0x85B8Dc34C7Af35baC8a45CfF53353f39E6F732A2",
        "true",
        "0"
      ],
      "transaction": {
        "from": "0x1234562eb0cd65e7d08e59f9f18d7c10b5df232a",
        "to": "0x9df8bc805e278f4391891e5c0fc824b5191f5212",
        "gas": "0x6737f40",
        "value": "0x0",
        "input": "0x0c495f960000000000000000000000002db087d43fc8402ade0706807d32d6ef72411ebd00000000000000000000000085b8dc34c7af35bac8a45cff53353f39e6f732a200000000000000000000000000000000000000000000000000000000000000010000000000000000000000000000000000000000000000000000000000000000",
        "nonce": "0x2c5",
        "chainId": "0x138b"
      },
      "additionalContracts": [],
      "isFixedGasLimit": false
    },
    {
      "hash": "0x43aa7185acfd2304f79517d1197947f476f242e320511f851b70b83bd87c97d2",
      "transactionType": "CALL",
      "contractName": "KubiStreamerDonation",
      "contractAddress": "0x9df8bc805e278f4391891e5c0fc824b5191f5212",
      "function": "setYieldConfig(address,address,bool,uint256)",
      "arguments": [
        "0xD14bD87b18dA3Ec84a9e098DF1c808d9cb7a9852",
        "0x7392e9E58f202Da3877776c41683AC457DFd4CD7",
        "true",
        "0"
      ],
      "transaction": {
        "from": "0x1234562eb0cd65e7d08e59f9f18d7c10b5df232a",
        "to": "0x9df8bc805e278f4391891e5c0fc824b5191f5212",
        "gas": "0x6737f40",
        "value": "0x0",
        "input": "0x0c495f96000000000000000000000000d14bd87b18da3ec84a9e098df1c808d9cb7a98520000000000000000000000007392e9e58f202da3877776c41683ac457dfd4cd700000000000000000000000000000000000000000000000000000000000000010000000000000000000000000000000000000000000000000000000000000000",
        "nonce": "0x2c6",
        "chainId": "0x138b"
      },
      "additionalContracts": [],
      "isFixedGasLimit": false
    }
  ],
  "receipts": [
    {
      "status": "0x1",
      "cumulativeGasUsed": "0x2030efe80",
      "logs": [
        {
          "address": "0x9df8bc805e278f4391891e5c0fc824b5191f5212",
          "topics": [
            "0x8be0079c531659141344cd1fd0a4f28419497f9722a3daafe3b4186f6b6457e0",
            "0x0000000000000000000000000000000000000000000000000000000000000000",
            "0x0000000000000000000000001234562eb0cd65e7d08e59f9f18d7c10b5df232a"
          ],
          "data": "0x",
          "blockHash": "0xa1abd9f4133a58e006b91ecc8533db2a12d21d5673b62d4dcaa9aba5ac9f1e89",
          "blockNumber": "0x1f7891e",
          "blockTimestamp": "0x695a951d",
          "transactionHash": "0x8c9c4721b84584afa3ee97829c5822e303c60dcf058024bef5fb288851e331a9",
          "transactionIndex": "0x1",
          "logIndex": "0x0",
          "removed": false
        }
      ],
      "logsBloom": "0x00000000000000000000000000000000000000000000000000800000000000000000000000000000000000000000000000000000000000000000000000000000000000000000000020000000000000000001000000000000000000000000000000000000020000000000000000000800000000000000000000000000000000400000000000000000000000000000000000000000000200000000000000000000020000000000000000000000000000000000000000000000000080000000000000000000000000000000000000000000000000000000000000000000000020000000000000000400200000000000000000000000000000000000000000000000",
      "type": "0x2",
      "transactionHash": "0x8c9c4721b84584afa3ee97829c5822e303c60dcf058024bef5fb288851e331a9",
      "transactionIndex": "0x1",
      "blockHash": "0xa1abd9f4133a58e006b91ecc8533db2a12d21d5673b62d4dcaa9aba5ac9f1e89",
      "blockNumber": "0x1f7891e",
      "gasUsed": "0x2030e4787",
      "effectiveGasPrice": "0x1331548",
      "from": "0x1234562eb0cd65e7d08e59f9f18d7c10b5df232a",
      "to": null,
      "contractAddress": "0x9df8bc805e278f4391891e5c0fc824b5191f5212",
      "l1Fee": "0x30281a3",
      "l1FeeScalar": "0.01",
      "l1GasPrice": "0x8",
      "l1GasUsed": "0x34fe0",
      "tokenRatio": "0xb5c"
    },
    {
      "status": "0x1",
      "cumulativeGasUsed": "0x844495c",
      "logs": [
        {
          "address": "0x9df8bc805e278f4391891e5c0fc824b5191f5212",
          "topics": [
            "0xac90355684e2710fa34c2c7d500018678b146ea2d56ddc331c63d242ee8bf385",
            "0x00000000000000000000000057b78b98b9dd06e06de145b83aedf6f04e4c5500"
          ],
          "data": "0x0000000000000000000000000000000000000000000000000000000000000001",
          "blockHash": "0x33318f12716b43c90c6accb03c0564243afacb4ba413eaafcfc6ed03a689eba8",
          "blockNumber": "0x1f78920",
          "blockTimestamp": "0x695a9521",
          "transactionHash": "0x245fa2dc6ea1c492e6efc85f2bb75cd75a40ce4431ab6ee61723156947d92e0e",
          "transactionIndex": "0x1",
          "logIndex": "0x0",
          "removed": false
        }
      ],
      "logsBloom": "0x00000000000000000200000000000000000000000000000000000000000000000000000000000000000000000000000000000000000000040010000000000000000000000000000000000000000000000000000000000000000000000000000000000000000000000000000000000000000000000000000000000000002000000000000000000000000000000000000000000000000000000000000000000000000000000000000000000000000000000000000000000000000080000000000080020000000000000000000000000000000000000000000000000000000000000000000000000400200000000000000000000000000000000000000000000000",
      "type": "0x2",
      "transactionHash": "0x245fa2dc6ea1c492e6efc85f2bb75cd75a40ce4431ab6ee61723156947d92e0e",
      "transactionIndex": "0x1",
      "blockHash": "0x33318f12716b43c90c6accb03c0564243afacb4ba413eaafcfc6ed03a689eba8",
      "blockNumber": "0x1f78920",
      "gasUsed": "0x8439263",
      "effectiveGasPrice": "0x1331548",
      "from": "0x1234562eb0cd65e7d08e59f9f18d7c10b5df232a",
      "to": "0x9df8bc805e278f4391891e5c0fc824b5191f5212",
      "contractAddress": null,
      "l1Fee": "0x92fd8",
      "l1FeeScalar": "0.01",
      "l1GasPrice": "0x8",
      "l1GasUsed": "0xa1c",
      "tokenRatio": "0xb5c"
    },
    {
      "status": "0x1",
      "cumulativeGasUsed": "0x84512fb",
      "logs": [
        {
          "address": "0x9df8bc805e278f4391891e5c0fc824b5191f5212",
          "topics": [
            "0xac90355684e2710fa34c2c7d500018678b146ea2d56ddc331c63d242ee8bf385",
            "0x0000000000000000000000001fe9a4e25caa2a22fc0b61010fdb0db462fb5b29"
          ],
          "data": "0x0000000000000000000000000000000000000000000000000000000000000001",
          "blockHash": "0x51d5750bc7154a126e6b3c889f13d230b4b3388ee184bb9c1f22634f2c972a12",
          "blockNumber": "0x1f78922",
          "blockTimestamp": "0x695a9525",
          "transactionHash": "0xccf3e40b764569a2ebd99d603974d8ef2d611d9c80f8691e19ef36ace1e36500",
          "transactionIndex": "0x1",
          "logIndex": "0x0",
          "removed": false
        }
      ],
      "logsBloom": "0x00000000000000000200000000000000000000000000000000008000000000000000000000000000000000000000000000000000000000000010000000000001000000000000000000000080000000000000000000000000000000000000000000000000000000000000000000000000000000000000000000000000002000000000000000000000000000000000000000000000000000000000000000000000000000000000000000000000000000000000000000000000000080000000000000000000000000000000000000000000000000000000000000000000000000000000000000000400200000000000000000000000000000000000000000000000",
      "type": "0x2",
      "transactionHash": "0xccf3e40b764569a2ebd99d603974d8ef2d611d9c80f8691e19ef36ace1e36500",
      "transactionIndex": "0x1",
      "blockHash": "0x51d5750bc7154a126e6b3c889f13d230b4b3388ee184bb9c1f22634f2c972a12",
      "blockNumber": "0x1f78922",
      "gasUsed": "0x8441936",
      "effectiveGasPrice": "0x1331548",
      "from": "0x1234562eb0cd65e7d08e59f9f18d7c10b5df232a",
      "to": "0x9df8bc805e278f4391891e5c0fc824b5191f5212",
      "contractAddress": null,
      "l1Fee": "0x924f0",
      "l1FeeScalar": "0.01",
      "l1GasPrice": "0x8",
      "l1GasUsed": "0xa10",
      "tokenRatio": "0xb5c"
    },
    {
      "status": "0x1",
      "cumulativeGasUsed": "0x84077fe",
      "logs": [
        {
          "address": "0x9df8bc805e278f4391891e5c0fc824b5191f5212",
          "topics": [
            "0xac90355684e2710fa34c2c7d500018678b146ea2d56ddc331c63d242ee8bf385",
            "0x0000000000000000000000005e1e8043381f3a21a1a64f46073daf7e74fedc1e"
          ],
          "data": "0x0000000000000000000000000000000000000000000000000000000000000001",
          "blockHash": "0x2c7b6b4fd09bf752f861f18a03e39400c6b557d4a8ca7a5aeccc57db23bf5ae6",
          "blockNumber": "0x1f78924",
          "blockTimestamp": "0x695a9529",
          "transactionHash": "0x334a59e3e30e50c6a2a104968e17e0499fe4c2eac22bc02d6ee533a9a34e7b10",
          "transactionIndex": "0x1",
          "logIndex": "0x0",
          "removed": false
        }
      ],
      "logsBloom": "0x00000000000000000200000000000000000000000000000000000000000000000000000000000000000000000000000000000000000000000010000000000000000000000000040000000000000000000000000000000000000000000000000000000000000000000000000000000000000000000000000000000000002000000000000000000000000000000000000000000000000000000000000000000000000000000000000000000000000000000000000000000000000080000000000000000020000000000000000000000000000000000000000000000000000000000000000000000400200000000000000001000000000000000000000000000000",
      "type": "0x2",
      "transactionHash": "0x334a59e3e30e50c6a2a104968e17e0499fe4c2eac22bc02d6ee533a9a34e7b10",
      "transactionIndex": "0x1",
      "blockHash": "0x2c7b6b4fd09bf752f861f18a03e39400c6b557d4a8ca7a5aeccc57db23bf5ae6",
      "blockNumber": "0x1f78924",
      "gasUsed": "0x83fc105",
      "effectiveGasPrice": "0x1331548",
      "from": "0x1234562eb0cd65e7d08e59f9f18d7c10b5df232a",
      "to": "0x9df8bc805e278f4391891e5c0fc824b5191f5212",
      "contractAddress": null,
      "l1Fee": "0x92afe",
      "l1FeeScalar": "0.01",
      "l1GasPrice": "0x8",
      "l1GasUsed": "0xa1c",
      "tokenRatio": "0xb56"
    },
    {
      "status": "0x1",
      "cumulativeGasUsed": "0x84077fe",
      "logs": [
        {
          "address": "0x9df8bc805e278f4391891e5c0fc824b5191f5212",
          "topics": [
            "0xac90355684e2710fa34c2c7d500018678b146ea2d56ddc331c63d242ee8bf385",
            "0x00000000000000000000000006c1e044d5beb614faa6128001f519e6c693a044"
          ],
          "data": "0x0000000000000000000000000000000000000000000000000000000000000001",
          "blockHash": "0x60f0091ba7fc6a80087970965f7eeb6cf1c44f19e3a0358ced1323633cc67a27",
          "blockNumber": "0x1f78926",
          "blockTimestamp": "0x695a952d",
          "transactionHash": "0x650e1b38278434483e4adc21026ef9ed02adb95d5a081a98687c444967339fdc",
          "transactionIndex": "0x1",
          "logIndex": "0x0",
          "removed": false
        }
      ],
      "logsBloom": "0x00000000000000010200000000000000000000800000000000000000000000000000000000000000000000000000000000000000000000000010000000000000000000000000000000000000000000000000000000000000000000000000000000000000000000000000000000000000000000000000000000000000002000000000000000000000000000000000000000000000000000000000000000000000000000000000000000000000000000000000000000000000000080000000000000000000000000000000000000000000000000000000000000000000000000000000000000000400200000000000000000000000040000000000000000000000",
      "type": "0x2",
      "transactionHash": "0x650e1b38278434483e4adc21026ef9ed02adb95d5a081a98687c444967339fdc",
      "transactionIndex": "0x1",
      "blockHash": "0x60f0091ba7fc6a80087970965f7eeb6cf1c44f19e3a0358ced1323633cc67a27",
      "blockNumber": "0x1f78926",
      "gasUsed": "0x83fc105",
      "effectiveGasPrice": "0x1331548",
      "from": "0x1234562eb0cd65e7d08e59f9f18d7c10b5df232a",
      "to": "0x9df8bc805e278f4391891e5c0fc824b5191f5212",
      "contractAddress": null,
      "l1Fee": "0x935e0",
      "l1FeeScalar": "0.01",
      "l1GasPrice": "0x8",
      "l1GasUsed": "0xa28",
      "tokenRatio": "0xb56"
    },
    {
      "status": "0x1",
      "cumulativeGasUsed": "0x840baca",
      "logs": [
        {
          "address": "0x9df8bc805e278f4391891e5c0fc824b5191f5212",
          "topics": [
            "0xac90355684e2710fa34c2c7d500018678b146ea2d56ddc331c63d242ee8bf385",
            "0x00000000000000000000000085b8dc34c7af35bac8a45cff53353f39e6f732a2"
          ],
          "data": "0x0000000000000000000000000000000000000000000000000000000000000001",
          "blockHash": "0xe27fa10021afca645837a4223292ce5ac02ca3f2181a4f5a9ffca094aac10426",
          "blockNumber": "0x1f78928",
          "blockTimestamp": "0x695a9531",
          "transactionHash": "0x51c089147e9033093203b58d15843116dfb467952e88a14e532408ccf6fea398",
          "transactionIndex": "0x1",
          "logIndex": "0x0",
          "removed": false
        }
      ],
      "logsBloom": "0x00000000000000000200000000000000000000000000000000000000000000000000000000000000000000000000000000000000000000000010000000000000000000000000000000000000000000000000000000000000000000000000000000040000000000000000000000000000000000000000000000000000002000000000000000000000000000000000000000040000000000000000000000000000000000000000000000000000000000000000000000000000000080000000000000000000000000000000000000000000000000000000000001000000000000000000000000000400200000000000000000000000000000000000000000000000",
      "type": "0x2",
      "transactionHash": "0x51c089147e9033093203b58d15843116dfb467952e88a14e532408ccf6fea398",
      "transactionIndex": "0x1",
      "blockHash": "0xe27fa10021afca645837a4223292ce5ac02ca3f2181a4f5a9ffca094aac10426",
      "blockNumber": "0x1f78928",
      "gasUsed": "0x83fc105",
      "effectiveGasPrice": "0x1331548",
      "from": "0x1234562eb0cd65e7d08e59f9f18d7c10b5df232a",
      "to": "0x9df8bc805e278f4391891e5c0fc824b5191f5212",
      "contractAddress": null,
      "l1Fee": "0x935e0",
      "l1FeeScalar": "0.01",
      "l1GasPrice": "0x8",
      "l1GasUsed": "0xa28",
      "tokenRatio": "0xb56"
    },
    {
      "status": "0x1",
      "cumulativeGasUsed": "0x84077fe",
      "logs": [
        {
          "address": "0x9df8bc805e278f4391891e5c0fc824b5191f5212",
          "topics": [
            "0xac90355684e2710fa34c2c7d500018678b146ea2d56ddc331c63d242ee8bf385",
            "0x0000000000000000000000007392e9e58f202da3877776c41683ac457dfd4cd7"
          ],
          "data": "0x0000000000000000000000000000000000000000000000000000000000000001",
          "blockHash": "0x9430ddaf0c4916809840078f4d453f7cedd8f3e7b2f65dc2b861f623b970c255",
          "blockNumber": "0x1f7892a",
          "blockTimestamp": "0x695a9535",
          "transactionHash": "0x783e110c9878176c28b79e07f35ae475e35d0a80a5878d844cfec1c196bf4296",
          "transactionIndex": "0x1",
          "logIndex": "0x0",
          "removed": false
        }
      ],
      "logsBloom": "0x00000000000000000200000000000000000000000000000000000000000000000000000000000000000000000000000000000000000000000010000000000000000000000000000000000000000000000000000000000000000000000000000000000000000000000000000000000000000000000000000000000000002000000000000000000000000000000000000000000000000000000000000000000000000000000000000000000000000000000000000000000000000080000000000000000000001000000000000000000100000000000000000000000000000000000000000000000400200000000000000000000000000000000000004000000000",
      "type": "0x2",
      "transactionHash": "0x783e110c9878176c28b79e07f35ae475e35d0a80a5878d844cfec1c196bf4296",
      "transactionIndex": "0x1",
      "blockHash": "0x9430ddaf0c4916809840078f4d453f7cedd8f3e7b2f65dc2b861f623b970c255",
      "blockNumber": "0x1f7892a",
      "gasUsed": "0x83fc105",
      "effectiveGasPrice": "0x1331548",
      "from": "0x1234562eb0cd65e7d08e59f9f18d7c10b5df232a",
      "to": "0x9df8bc805e278f4391891e5c0fc824b5191f5212",
      "contractAddress": null,
      "l1Fee": "0x92afe",
      "l1FeeScalar": "0.01",
      "l1GasPrice": "0x8",
      "l1GasUsed": "0xa1c",
      "tokenRatio": "0xb56"
    },
    {
      "status": "0x1",
      "cumulativeGasUsed": "0x84077fe",
      "logs": [
        {
          "address": "0x9df8bc805e278f4391891e5c0fc824b5191f5212",
          "topics": [
            "0xac90355684e2710fa34c2c7d500018678b146ea2d56ddc331c63d242ee8bf385",
            "0x000000000000000000000000b03a4cf6eb030bbabd0452300b01c7dcb9584737"
          ],
          "data": "0x0000000000000000000000000000000000000000000000000000000000000001",
          "blockHash": "0x614cd208b97b81e50180744ce6e84fff350dceca95ea928e3a2b8bfe6699df50",
          "blockNumber": "0x1f7892c",
          "blockTimestamp": "0x695a9539",
          "transactionHash": "0x254b01d7871598696123dc42acdbf2e2d84ec208b66eff76f95663daa87f5e03",
          "transactionIndex": "0x1",
          "logIndex": "0x0",
          "removed": false
        }
      ],
      "logsBloom": "0x00000000000000000200000000000000080000000000000000000000000000000000000000000000000000000040000000000000000000000010000000000000000000000000000000000000000000000000000000000000000000000000000000000000000000000000000000000000000000000000000000000000002000000000000000000000000000000000000000000000000000000000000000000000000000000000000000000000000000000000000000000000000080000000000000000000000000000000000000000000000000000000000000000000000000000000000000100400200000000000000000000000000000000000000000000000",
      "type": "0x2",
      "transactionHash": "0x254b01d7871598696123dc42acdbf2e2d84ec208b66eff76f95663daa87f5e03",
      "transactionIndex": "0x1",
      "blockHash": "0x614cd208b97b81e50180744ce6e84fff350dceca95ea928e3a2b8bfe6699df50",
      "blockNumber": "0x1f7892c",
      "gasUsed": "0x83fc105",
      "effectiveGasPrice": "0x1331548",
      "from": "0x1234562eb0cd65e7d08e59f9f18d7c10b5df232a",
      "to": "0x9df8bc805e278f4391891e5c0fc824b5191f5212",
      "contractAddress": null,
      "l1Fee": "0x935e0",
      "l1FeeScalar": "0.01",
      "l1GasPrice": "0x8",
      "l1GasUsed": "0xa28",
      "tokenRatio": "0xb56"
    },
    {
      "status": "0x1",
      "cumulativeGasUsed": "0x83dcfce",
      "logs": [
        {
          "address": "0x9df8bc805e278f4391891e5c0fc824b5191f5212",
          "topics": [
            "0xac90355684e2710fa34c2c7d500018678b146ea2d56ddc331c63d242ee8bf385",
            "0x0000000000000000000000002ffc2f655a26a4def63efcd59930d1241ee0519a"
          ],
          "data": "0x0000000000000000000000000000000000000000000000000000000000000001",
          "blockHash": "0x3d1a545e965f2d1d03cc85136f259f33f31caa6e1cfb2424697bcc7626b90deb",
          "blockNumber": "0x1f7892e",
          "blockTimestamp": "0x695a953d",
          "transactionHash": "0xab6c1dffc783e4acda727bb632f6961241e1bf0a1569c755ab179bd9950d9479",
          "transactionIndex": "0x1",
          "logIndex": "0x0",
          "removed": false
        }
      ],
      "logsBloom": "0x00000000000000000200000000000000000000000000000000000000000000000000000000000000000000000000000000000000000000000010000000000000000000002000000000000000000000000000010000000000000000000000000000000000000000000000000000000000000000000000000000000000002000000000000000000000000000000000000000000000000000000000000000000000000000000000000000000000000000000000000000000000000080000000000000000000000000000000000000000000000000000000000000000000000000000000000000000400200000000000000000000000000000000000000004000000",
      "type": "0x2",
      "transactionHash": "0xab6c1dffc783e4acda727bb632f6961241e1bf0a1569c755ab179bd9950d9479",
      "transactionIndex": "0x1",
      "blockHash": "0x3d1a545e965f2d1d03cc85136f259f33f31caa6e1cfb2424697bcc7626b90deb",
      "blockNumber": "0x1f7892e",
      "gasUsed": "0x83cd609",
      "effectiveGasPrice": "0x1331548",
      "from": "0x1234562eb0cd65e7d08e59f9f18d7c10b5df232a",
      "to": "0x9df8bc805e278f4391891e5c0fc824b5191f5212",
      "contractAddress": null,
      "l1Fee": "0x932a0",
      "l1FeeScalar": "0.01",
      "l1GasPrice": "0x8",
      "l1GasUsed": "0xa28",
      "tokenRatio": "0xb52"
    },
    {
      "status": "0x1",
      "cumulativeGasUsed": "0x83d8d02",
      "logs": [
        {
          "address": "0x9df8bc805e278f4391891e5c0fc824b5191f5212",
          "topics": [
            "0xac90355684e2710fa34c2c7d500018678b146ea2d56ddc331c63d242ee8bf385",
            "0x00000000000000000000000014ac27f376b03b6c05f2189c4f03febb5d76432a"
          ],
          "data": "0x0000000000000000000000000000000000000000000000000000000000000001",
          "blockHash": "0xaa034c7ceb2f3480d9515d382bddd4cc43c59540374a39d18284dd77eed5ce67",
          "blockNumber": "0x1f78930",
          "blockTimestamp": "0x695a9541",
          "transactionHash": "0xa2c1386eb5fc244ce1940362841b362bdd70e016482b3defd45105b6a8067ca1",
          "transactionIndex": "0x1",
          "logIndex": "0x0",
          "removed": false
        }
      ],
      "logsBloom": "0x00000000000000000200000000000000000000000000000000000000000000000000000000000000000000000000000000000000000000000010000000000000000000000000000000000000000000000000000000000000000000000000000000000000000000000000000000000000000000000000000000000000002000000000000000000000000000000020000000000000000000000000000000000000000000000004000000000000000000000000000000000000000080000000000000000000000000000000000010000000000000000000000000000000000000000000000000000400200000000000000000000000000000000000000000000000",
      "type": "0x2",
      "transactionHash": "0xa2c1386eb5fc244ce1940362841b362bdd70e016482b3defd45105b6a8067ca1",
      "transactionIndex": "0x1",
      "blockHash": "0xaa034c7ceb2f3480d9515d382bddd4cc43c59540374a39d18284dd77eed5ce67",
      "blockNumber": "0x1f78930",
      "gasUsed": "0x83cd609",
      "effectiveGasPrice": "0x1331548",
      "from": "0x1234562eb0cd65e7d08e59f9f18d7c10b5df232a",
      "to": "0x9df8bc805e278f4391891e5c0fc824b5191f5212",
      "contractAddress": null,
      "l1Fee": "0x932a0",
      "l1FeeScalar": "0.01",
      "l1GasPrice": "0x8",
      "l1GasUsed": "0xa28",
      "tokenRatio": "0xb52"
    },
    {
      "status": "0x1",
      "cumulativeGasUsed": "0x83d8d02",
      "logs": [
        {
          "address": "0x9df8bc805e278f4391891e5c0fc824b5191f5212",
          "topics": [
            "0xac90355684e2710fa34c2c7d500018678b146ea2d56ddc331c63d242ee8bf385",
            "0x000000000000000000000000dac9107491b3c59a97d7f45cefc97353f6ab46b2"
          ],
          "data": "0x0000000000000000000000000000000000000000000000000000000000000001",
          "blockHash": "0x39211edbab6ca5403fde829e8120a365fb49736e8ce4bd369fbed7e43875aaaf",
          "blockNumber": "0x1f78932",
          "blockTimestamp": "0x695a9545",
          "transactionHash": "0x9971cd5f3db7143d48c9acad0fc72cb074dbfa8fbd2fdba82b83b4bf34114bbb",
          "transactionIndex": "0x1",
          "logIndex": "0x0",
          "removed": false
        }
      ],
      "logsBloom": "0x00000000000000000200000000000000000000000000000000000000000000000000000000000000000000000000000000000000000000000010000000000000000000000000000000000000000000000000000000000000000000000000000000000000000000000000000000000000000000000000000000000000002000000000000000000000000000000000000000000000000000000000800000000000000000000000000000000000000000000000000000000000000080000000000000000000000000000000000000000000000000000000000000000000000000000000000000000401200000000000000000000000000000000000000000000080",
      "type": "0x2",
      "transactionHash": "0x9971cd5f3db7143d48c9acad0fc72cb074dbfa8fbd2fdba82b83b4bf34114bbb",
      "transactionIndex": "0x1",
      "blockHash": "0x39211edbab6ca5403fde829e8120a365fb49736e8ce4bd369fbed7e43875aaaf",
      "blockNumber": "0x1f78932",
      "gasUsed": "0x83cd609",
      "effectiveGasPrice": "0x1331548",
      "from": "0x1234562eb0cd65e7d08e59f9f18d7c10b5df232a",
      "to": "0x9df8bc805e278f4391891e5c0fc824b5191f5212",
      "contractAddress": null,
      "l1Fee": "0x932a0",
      "l1FeeScalar": "0.01",
      "l1GasPrice": "0x8",
      "l1GasUsed": "0xa28",
      "tokenRatio": "0xb52"
    },
    {
      "status": "0x1",
      "cumulativeGasUsed": "0x83dcfce",
      "logs": [
        {
          "address": "0x9df8bc805e278f4391891e5c0fc824b5191f5212",
          "topics": [
            "0xac90355684e2710fa34c2c7d500018678b146ea2d56ddc331c63d242ee8bf385",
            "0x0000000000000000000000009b94108165ef58c9736f2c34b09e3b5b62cf5218"
          ],
          "data": "0x0000000000000000000000000000000000000000000000000000000000000001",
          "blockHash": "0xe812715b98eb45088cff46a0a93a16c919e1b355507ab9bc201154061492cfe9",
          "blockNumber": "0x1f78934",
          "blockTimestamp": "0x695a9549",
          "transactionHash": "0x0c23f15f3115be630c75815a584fa7cf7ce35ec890d8d643c4d5c84c8eea5090",
          "transactionIndex": "0x1",
          "logIndex": "0x0",
          "removed": false
        }
      ],
      "logsBloom": "0x00000000000000000200000000000000000000000000000000000000000000000000000000000000000000000000000000000000000000000010000000000000000000000000000000000000000000000000000000000000000000000000000000000000000000000000000000000000000000000000000000000000002000000000000280000000000000000000000000000000000000000000000000000000000000000000000000000000000000000000000000000000000080000000000000000000001000000000000000000000000000000000000000000000000000000000000000000400200000000000000000000000000000000000000000000000",
      "type": "0x2",
      "transactionHash": "0x0c23f15f3115be630c75815a584fa7cf7ce35ec890d8d643c4d5c84c8eea5090",
      "transactionIndex": "0x1",
      "blockHash": "0xe812715b98eb45088cff46a0a93a16c919e1b355507ab9bc201154061492cfe9",
      "blockNumber": "0x1f78934",
      "gasUsed": "0x83cd609",
      "effectiveGasPrice": "0x1331548",
      "from": "0x1234562eb0cd65e7d08e59f9f18d7c10b5df232a",
      "to": "0x9df8bc805e278f4391891e5c0fc824b5191f5212",
      "contractAddress": null,
      "l1Fee": "0x927c1",
      "l1FeeScalar": "0.01",
      "l1GasPrice": "0x8",
      "l1GasUsed": "0xa1c",
      "tokenRatio": "0xb52"
    },
    {
      "status": "0x1",
      "cumulativeGasUsed": "0xc05731e",
      "logs": [],
      "logsBloom": "0x00000000000000000000000000000000000000000000000000000000000000000000000000000000000000000000000000000000000000000000000000000000000000000000000000000000000000000000000000000000000000000000000000000000000000000000000000000000000000000000000000000000000000000000000000000000000000000000000000000000000000000000000000000000000000000000000000000000000000000000000000000000000000000000000000000000000000000000000000000000000000000000000000000000000000000000000000000000000000000000000000000000000000000000000000000000",
      "type": "0x2",
      "transactionHash": "0xec32520fe42131d42522d1d705787595822dd95a7678e573f2d17e2452d0e9ee",
      "transactionIndex": "0x1",
      "blockHash": "0x0d6904c01c12d98b78d3aec879bc889e8f96683a803559fdad32da7929d7d8b1",
      "blockNumber": "0x1f78936",
      "gasUsed": "0xc04bc25",
      "effectiveGasPrice": "0x1331548",
      "from": "0x1234562eb0cd65e7d08e59f9f18d7c10b5df232a",
      "to": "0x9df8bc805e278f4391891e5c0fc824b5191f5212",
      "contractAddress": null,
      "l1Fee": "0xa7507",
      "l1FeeScalar": "0.01",
      "l1GasPrice": "0x8",
      "l1GasUsed": "0xb8c",
      "tokenRatio": "0xb52"
    },
    {
      "status": "0x1",
      "cumulativeGasUsed": "0xc05731e",
      "logs": [],
      "logsBloom": "0x00000000000000000000000000000000000000000000000000000000000000000000000000000000000000000000000000000000000000000000000000000000000000000000000000000000000000000000000000000000000000000000000000000000000000000000000000000000000000000000000000000000000000000000000000000000000000000000000000000000000000000000000000000000000000000000000000000000000000000000000000000000000000000000000000000000000000000000000000000000000000000000000000000000000000000000000000000000000000000000000000000000000000000000000000000000",
      "type": "0x2",
      "transactionHash": "0xff3935c653af2f6687b382926ee4d9e1528402e95d46ad2a24d7bb83c96a552e",
      "transactionIndex": "0x1",
      "blockHash": "0x48d62ca0fb0f08bb309a3ee019eb0e0c936616f720fb2cdee18530f0a239b513",
      "blockNumber": "0x1f78938",
      "gasUsed": "0xc04bc25",
      "effectiveGasPrice": "0x1331548",
      "from": "0x1234562eb0cd65e7d08e59f9f18d7c10b5df232a",
      "to": "0x9df8bc805e278f4391891e5c0fc824b5191f5212",
      "contractAddress": null,
      "l1Fee": "0xa7507",
      "l1FeeScalar": "0.01",
      "l1GasPrice": "0x8",
      "l1GasUsed": "0xb8c",
      "tokenRatio": "0xb52"
    },
    {
      "status": "0x1",
      "cumulativeGasUsed": "0x94a7521",
      "logs": [
        {
          "address": "0x9df8bc805e278f4391891e5c0fc824b5191f5212",
          "topics": [
            "0x354f0817e377e1e9b2601a5fa1180df29e96ac246a5d02f817a6e3bb4b72a904",
            "0x000000000000000000000000aee2a87701afef956473d547bd02cd736729d8a7",
            "0x0000000000000000000000001fe9a4e25caa2a22fc0b61010fdb0db462fb5b29"
          ],
          "data": "0x00000000000000000000000000000000000000000000000000000000000000010000000000000000000000000000000000000000000000000000000000000000",
          "blockHash": "0x8415ae83d98effd4b66b94ae756c7c9cdfc45a0344e14cc020147b2dffd92220",
          "blockNumber": "0x1f7893a",
          "blockTimestamp": "0x695a9555",
          "transactionHash": "0x08cd9941ed245c93e085a10552e66ae4bf1787a5882976b6f6f2543b57a1a938",
          "transactionIndex": "0x1",
          "logIndex": "0x0",
          "removed": false
        }
      ],
      "logsBloom": "0x00000000000000000000000000000000000000000000000000008000000000000000000000000000800000000000000000000000000000000000000000000001000000000000000000000080000000000000000000000000000000000000000000000000000000000000000000000000000000000000000000000000000000000000000000000020000000000020000000000000000000000000000000000000000000000000000000000000000000000000000000000000000080000000000000000000000000002000000000000000000004000000000000000000000000000000000000000400200100000000000000000000000000000000000000000000",
      "type": "0x2",
      "transactionHash": "0x08cd9941ed245c93e085a10552e66ae4bf1787a5882976b6f6f2543b57a1a938",
      "transactionIndex": "0x1",
      "blockHash": "0x8415ae83d98effd4b66b94ae756c7c9cdfc45a0344e14cc020147b2dffd92220",
      "blockNumber": "0x1f7893a",
      "gasUsed": "0x9497b5c",
      "effectiveGasPrice": "0x1331548",
      "from": "0x1234562eb0cd65e7d08e59f9f18d7c10b5df232a",
      "to": "0x9df8bc805e278f4391891e5c0fc824b5191f5212",
      "contractAddress": null,
      "l1Fee": "0xaf3d0",
      "l1FeeScalar": "0.01",
      "l1GasPrice": "0x8",
      "l1GasUsed": "0xc18",
      "tokenRatio": "0xb52"
    },
    {
      "status": "0x1",
      "cumulativeGasUsed": "0x94a3255",
      "logs": [
        {
          "address": "0x9df8bc805e278f4391891e5c0fc824b5191f5212",
          "topics": [
            "0x354f0817e377e1e9b2601a5fa1180df29e96ac246a5d02f817a6e3bb4b72a904",
            "0x0000000000000000000000006aabe7258f09474e62e8bebb1cf90e15fbaaf777",
            "0x0000000000000000000000005e1e8043381f3a21a1a64f46073daf7e74fedc1e"
          ],
          "data": "0x00000000000000000000000000000000000000000000000000000000000000010000000000000000000000000000000000000000000000000000000000000000",
          "blockHash": "0x8717718e5d361bedd5c8b698a8c52c692a9b39f9396850850cd8a078163d89b3",
          "blockNumber": "0x1f7893c",
          "blockTimestamp": "0x695a9559",
          "transactionHash": "0x22e517a19417583fb9c68d4061cb1bd7fff780b4c18f85ffd47a3631fb147a00",
          "transactionIndex": "0x1",
          "logIndex": "0x0",
          "removed": false
        }
      ],
      "logsBloom": "0x00000000000000000000000000000000000000000000000000000000000000000000000000000000800000000000000000000000000000000000000000000000004000000000040000000000000000100000000000000000000000000000000000000000000000000000000000000000000000000000000000000000000000000000000020000000000000000020000000000000000000000000000000000000000000000000000000000000000000000000000000000000000080000000000000000020000000000000000000000000000004000000000000000000000000000000000000000400200000000000000001000000000000000000000000000000",
      "type": "0x2",
      "transactionHash": "0x22e517a19417583fb9c68d4061cb1bd7fff780b4c18f85ffd47a3631fb147a00",
      "transactionIndex": "0x1",
      "blockHash": "0x8717718e5d361bedd5c8b698a8c52c692a9b39f9396850850cd8a078163d89b3",
      "blockNumber": "0x1f7893c",
      "gasUsed": "0x9497b5c",
      "effectiveGasPrice": "0x1331548",
      "from": "0x1234562eb0cd65e7d08e59f9f18d7c10b5df232a",
      "to": "0x9df8bc805e278f4391891e5c0fc824b5191f5212",
      "contractAddress": null,
      "l1Fee": "0xaf3d0",
      "l1FeeScalar": "0.01",
      "l1GasPrice": "0x8",
      "l1GasUsed": "0xc18",
      "tokenRatio": "0xb52"
    },
    {
      "status": "0x1",
      "cumulativeGasUsed": "0x94a3255",
      "logs": [
        {
          "address": "0x9df8bc805e278f4391891e5c0fc824b5191f5212",
          "topics": [
            "0x354f0817e377e1e9b2601a5fa1180df29e96ac246a5d02f817a6e3bb4b72a904",
            "0x0000000000000000000000005c70fb2a739e9e7ad5c4311abf99e0fb65c07ee9",
            "0x00000000000000000000000006c1e044d5beb614faa6128001f519e6c693a044"
          ],
          "data": "0x00000000000000000000000000000000000000000000000000000000000000010000000000000000000000000000000000000000000000000000000000000000",
          "blockHash": "0x87b5954e1d722ac9f869e11c75fe60c6439e3e871e2942632fc3ee465aa9c056",
          "blockNumber": "0x1f7893e",
          "blockTimestamp": "0x695a955d",
          "transactionHash": "0x68d760e8b28ff336a6240d400d246fa1f80a3572b332b37efad639c0a1013ea1",
          "transactionIndex": "0x1",
          "logIndex": "0x0",
          "removed": false
        }
      ],
      "logsBloom": "0x00000000000000010000000000000000000000800000000000000000000000000000000000000000800000000000000000000000000000000000000000000000000000000000000000000000000000000000000000000000000000000000000000000000000000000000000000000000000000000000000000000000000000000000000000000000000000000020080000000000000000000000000000000000000000000000000000000000000000000000000008000000000080000000000000000000000000000000000000000000000004000000000000000000000000000000000000000400200000000000000000000000040000000000000000000000",
      "type": "0x2",
      "transactionHash": "0x68d760e8b28ff336a6240d400d246fa1f80a3572b332b37efad639c0a1013ea1",
      "transactionIndex": "0x1",
      "blockHash": "0x87b5954e1d722ac9f869e11c75fe60c6439e3e871e2942632fc3ee465aa9c056",
      "blockNumber": "0x1f7893e",
      "gasUsed": "0x9497b5c",
      "effectiveGasPrice": "0x1331548",
      "from": "0x1234562eb0cd65e7d08e59f9f18d7c10b5df232a",
      "to": "0x9df8bc805e278f4391891e5c0fc824b5191f5212",
      "contractAddress": null,
      "l1Fee": "0xaf3d0",
      "l1FeeScalar": "0.01",
      "l1GasPrice": "0x8",
      "l1GasUsed": "0xc18",
      "tokenRatio": "0xb52"
    },
    {
      "status": "0x1",
      "cumulativeGasUsed": "0x94a7521",
      "logs": [
        {
          "address": "0x9df8bc805e278f4391891e5c0fc824b5191f5212",
          "topics": [
            "0x354f0817e377e1e9b2601a5fa1180df29e96ac246a5d02f817a6e3bb4b72a904",
            "0x000000000000000000000000bb6dd87f1fe0483d9ffa90f7a163caf21f40ba6c",
            "0x00000000000000000000000085b8dc34c7af35bac8a45cff53353f39e6f732a2"
          ],
          "data": "0x00000000000000000000000000000000000000000000000000000000000000010000000000000000000000000000000000000000000000000000000000000000",
          "blockHash": "0x9d42e0c097b2b8cd8a5c9b7f756ab2938e9e14be3c6a5888f680e229cd463a0a",
          "blockNumber": "0x1f78940",
          "blockTimestamp": "0x695a9561",
          "transactionHash": "0x0994556f2c43c208a95c7881cd4a541cd0c34a348767f6b5973a66dae257a143",
          "transactionIndex": "0x1",
          "logIndex": "0x0",
          "removed": false
        }
      ],
      "logsBloom": "0x00000000000000000000000000000000000000000000000000000000000000000000000000000000800040000000000000000000000000000000000000000000000000000010000000000000000000000000000000000000000000000000000000040000000000000000000000000000000000000000000000000000000000000000000000000000008000000020000000040000000000000000000000000000000000000000000000000000000000000000000000000000000080000000000000000000000000000000000000000000000004000000000001000000000000000000000000000400200000000000000000000000000000000000000000000000",
      "type": "0x2",
      "transactionHash": "0x0994556f2c43c208a95c7881cd4a541cd0c34a348767f6b5973a66dae257a143",
      "transactionIndex": "0x1",
      "blockHash": "0x9d42e0c097b2b8cd8a5c9b7f756ab2938e9e14be3c6a5888f680e229cd463a0a",
      "blockNumber": "0x1f78940",
      "gasUsed": "0x9497b5c",
      "effectiveGasPrice": "0x1331548",
      "from": "0x1234562eb0cd65e7d08e59f9f18d7c10b5df232a",
      "to": "0x9df8bc805e278f4391891e5c0fc824b5191f5212",
      "contractAddress": null,
      "l1Fee": "0xaf3d0",
      "l1FeeScalar": "0.01",
      "l1GasPrice": "0x8",
      "l1GasUsed": "0xc18",
      "tokenRatio": "0xb52"
    },
    {
      "status": "0x1",
      "cumulativeGasUsed": "0x9439de5",
      "logs": [
        {
          "address": "0x9df8bc805e278f4391891e5c0fc824b5191f5212",
          "topics": [
            "0x354f0817e377e1e9b2601a5fa1180df29e96ac246a5d02f817a6e3bb4b72a904",
            "0x000000000000000000000000ce74630446990acf6cd56facbbd6ee908ee55562",
            "0x0000000000000000000000007392e9e58f202da3877776c41683ac457dfd4cd7"
          ],
          "data": "0x00000000000000000000000000000000000000000000000000000000000000010000000000000000000000000000000000000000000000000000000000000000",
          "blockHash": "0x46f8afa29340fd7cb600c7f90be7676c8ed7b37f074a8fcc8435e2c764df0006",
          "blockNumber": "0x1f78942",
          "blockTimestamp": "0x695a9565",
          "transactionHash": "0x5f1afe3a9ab555bd3acf05db9a2b484b40438af5c2f81459b8e125fa83221406",
          "transactionIndex": "0x1",
          "logIndex": "0x0",
          "removed": false
        }
      ],
      "logsBloom": "0x00000000000000000000000000000000000000000000000000000000000000000000000000000000800000000000000000000000000000000000000000000000000000000000000000000000000000000000000000000000000000000000000000000000000000000000000000000000000000000000000000000000000000000000008000000000000000000020000000000000000000000000000000000000000000000000000000000000000000000000000000000000000080000000000000000000001000000000000000000100000004000000000000000000000000000000000000200400200000000000000000000000000008000000004000000000",
      "type": "0x2",
      "transactionHash": "0x5f1afe3a9ab555bd3acf05db9a2b484b40438af5c2f81459b8e125fa83221406",
      "transactionIndex": "0x1",
      "blockHash": "0x46f8afa29340fd7cb600c7f90be7676c8ed7b37f074a8fcc8435e2c764df0006",
      "blockNumber": "0x1f78942",
      "gasUsed": "0x942e6ec",
      "effectiveGasPrice": "0x1331548",
      "from": "0x1234562eb0cd65e7d08e59f9f18d7c10b5df232a",
      "to": "0x9df8bc805e278f4391891e5c0fc824b5191f5212",
      "contractAddress": null,
      "l1Fee": "0xaec13",
      "l1FeeScalar": "0.01",
      "l1GasPrice": "0x8",
      "l1GasUsed": "0xc18",
      "tokenRatio": "0xb4a"
    },
    {
      "status": "0x1",
      "cumulativeGasUsed": "0x9439de5",
      "logs": [
        {
          "address": "0x9df8bc805e278f4391891e5c0fc824b5191f5212",
          "topics": [
            "0x354f0817e377e1e9b2601a5fa1180df29e96ac246a5d02f817a6e3bb4b72a904",
            "0x000000000000000000000000dcc41dee829c1246a936dc5e801cb24303445651",
            "0x0000000000000000000000001fe9a4e25caa2a22fc0b61010fdb0db462fb5b29"
          ],
          "data": "0x00000000000000000000000000000000000000000000000000000000000000010000000000000000000000000000000000000000000000000000000000000000",
          "blockHash": "0x5b2c68e63b72c0cf268afd5130f167e09dfa7227a008bcba6eaf378c29d8d304",
          "blockNumber": "0x1f78944",
          "blockTimestamp": "0x695a9569",
          "transactionHash": "0xa567d9a43d34540c9f08657b06fba1a664f6dd72295e67d915b8cda51c68f8f9",
          "transactionIndex": "0x1",
          "logIndex": "0x0",
          "removed": false
        }
      ],
      "logsBloom": "0x00000000000000000000000000000000000000000000000000008000000000000000000000000000800000000000000000000000000000000000004000000001000000000000000000000080000000000000000000000000000000000000000000000000000000000000000000000000000000000000000000000000000000000000000000000000000000000020000000000000000000000000000000000000000000000000000000000000000000000000000000000000000080000000000000000000000000000000000000000000000004000000000000000000000000000400040000000400200000000000000000000000000000000000000000000000",
      "type": "0x2",
      "transactionHash": "0xa567d9a43d34540c9f08657b06fba1a664f6dd72295e67d915b8cda51c68f8f9",
      "transactionIndex": "0x1",
      "blockHash": "0x5b2c68e63b72c0cf268afd5130f167e09dfa7227a008bcba6eaf378c29d8d304",
      "blockNumber": "0x1f78944",
      "gasUsed": "0x942e6ec",
      "effectiveGasPrice": "0x1331548",
      "from": "0x1234562eb0cd65e7d08e59f9f18d7c10b5df232a",
      "to": "0x9df8bc805e278f4391891e5c0fc824b5191f5212",
      "contractAddress": null,
      "l1Fee": "0xaec13",
      "l1FeeScalar": "0.01",
      "l1GasPrice": "0x8",
      "l1GasUsed": "0xc18",
      "tokenRatio": "0xb4a"
    },
    {
      "status": "0x1",
      "cumulativeGasUsed": "0x943e0b1",
      "logs": [
        {
          "address": "0x9df8bc805e278f4391891e5c0fc824b5191f5212",
          "topics": [
            "0x354f0817e377e1e9b2601a5fa1180df29e96ac246a5d02f817a6e3bb4b72a904",
            "0x0000000000000000000000008f5816ca88ed2775305b154625744e36943cc750",
            "0x0000000000000000000000005e1e8043381f3a21a1a64f46073daf7e74fedc1e"
          ],
          "data": "0x00000000000000000000000000000000000000000000000000000000000000010000000000000000000000000000000000000000000000000000000000000000",
          "blockHash": "0x674c90bb091fc453a54e31e9ee4650a022a227efc60c6e5fbf1e6b810f971f7a",
          "blockNumber": "0x1f78946",
          "blockTimestamp": "0x695a956d",
          "transactionHash": "0x5968ee76c7fdfc24b15ed4149ef4d566424806c15b2d1a032d8eecea58303418",
          "transactionIndex": "0x1",
          "logIndex": "0x0",
          "removed": false
        }
      ],
      "logsBloom": "0x00000000000000000000000000000000000000001000000000000000000000000000000000000000800000000000000000000000000000000000000000000000000000000000040000000000000000000000000000000040000000000000000000000000000000000000000000000000000000000000000000000000000000000000000000000000000000000020000000000000000000000000000000000000000000000000000000000000000000000000080000000000000080000000000000000020000000000000000000000000000004000000000000000000000000000000000000000400200000000000000001000000000000000000000000000000",
      "type": "0x2",
      "transactionHash": "0x5968ee76c7fdfc24b15ed4149ef4d566424806c15b2d1a032d8eecea58303418",
      "transactionIndex": "0x1",
      "blockHash": "0x674c90bb091fc453a54e31e9ee4650a022a227efc60c6e5fbf1e6b810f971f7a",
      "blockNumber": "0x1f78946",
      "gasUsed": "0x942e6ec",
      "effectiveGasPrice": "0x1331548",
      "from": "0x1234562eb0cd65e7d08e59f9f18d7c10b5df232a",
      "to": "0x9df8bc805e278f4391891e5c0fc824b5191f5212",
      "contractAddress": null,
      "l1Fee": "0xaec13",
      "l1FeeScalar": "0.01",
      "l1GasPrice": "0x8",
      "l1GasUsed": "0xc18",
      "tokenRatio": "0xb4a"
    },
    {
      "status": "0x1",
      "cumulativeGasUsed": "0x9439de5",
      "logs": [
        {
          "address": "0x9df8bc805e278f4391891e5c0fc824b5191f5212",
          "topics": [
            "0x354f0817e377e1e9b2601a5fa1180df29e96ac246a5d02f817a6e3bb4b72a904",
            "0x0000000000000000000000002bb55f68fb05de13b04e5a2cadbae5a05bce277b",
            "0x00000000000000000000000006c1e044d5beb614faa6128001f519e6c693a044"
          ],
          "data": "0x00000000000000000000000000000000000000000000000000000000000000010000000000000000000000000000000000000000000000000000000000000000",
          "blockHash": "0x3d93b81b45faf962007813fcb6b8d234c6416837ca468026075498da85a24333",
          "blockNumber": "0x1f78948",
          "blockTimestamp": "0x695a9571",
          "transactionHash": "0xcf9512fe6a018ffe34d128fff277b7f40eee522b626177f501b462c70fac5562",
          "transactionIndex": "0x1",
          "logIndex": "0x0",
          "removed": false
        }
      ],
      "logsBloom": "0x00000000000000010000000000000004000000800000000000000000000000000000000000000000800000000000000000000000000000000000000000000000000000000000000000000000000000000000000000000000000000000000000000000000000000000000000000000000000000000001000000000000000000000000000000000000000000000020000000000000000000000000000000000000000000000000000000000000000000000000000000000000000080000000000000000000000000000000000000000000000004000000000000002000000000000000000000000400200000000000000000000000040000000000000000000000",
      "type": "0x2",
      "transactionHash": "0xcf9512fe6a018ffe34d128fff277b7f40eee522b626177f501b462c70fac5562",
      "transactionIndex": "0x1",
      "blockHash": "0x3d93b81b45faf962007813fcb6b8d234c6416837ca468026075498da85a24333",
      "blockNumber": "0x1f78948",
      "gasUsed": "0x942e6ec",
      "effectiveGasPrice": "0x1331548",
      "from": "0x1234562eb0cd65e7d08e59f9f18d7c10b5df232a",
      "to": "0x9df8bc805e278f4391891e5c0fc824b5191f5212",
      "contractAddress": null,
      "l1Fee": "0xae13c",
      "l1FeeScalar": "0.01",
      "l1GasPrice": "0x8",
      "l1GasUsed": "0xc0c",
      "tokenRatio": "0xb4a"
    },
    {
      "status": "0x1",
      "cumulativeGasUsed": "0x9439de5",
      "logs": [
        {
          "address": "0x9df8bc805e278f4391891e5c0fc824b5191f5212",
          "topics": [
            "0x354f0817e377e1e9b2601a5fa1180df29e96ac246a5d02f817a6e3bb4b72a904",
            "0x000000000000000000000000a022fd1966577144fcb5ed8ad5a134861ae5e138",
            "0x00000000000000000000000085b8dc34c7af35bac8a45cff53353f39e6f732a2"
          ],
          "data": "0x00000000000000000000000000000000000000000000000000000000000000010000000000000000000000000000000000000000000000000000000000000000",
          "blockHash": "0x713641c367695b0e19094bdd25762e36ecbb70ebbaafa1f0c7ff80e2887b64a7",
          "blockNumber": "0x1f7894a",
          "blockTimestamp": "0x695a9575",
          "transactionHash": "0x6dcf7d0fbad1e6943c48e1694bf180b27edc7351a26c42bf07bd4e189c39a5a8",
          "transactionIndex": "0x1",
          "logIndex": "0x0",
          "removed": false
        }
      ],
      "logsBloom": "0x00000000000000000000000000000000000000000000000000000000000000000000000000000000800000000000000000000000000000000000000000000000000000000000000000000000000000000000000000000000000000010000000000040000000000000000000000000000000000000000000000000000000000000000000000000000000000000020000080040000000000000000000000000000000000000000000000000000000000000000000000000000000080000000000000000000000000000000000000000008000004000000000001000000000000000000000000000400200000000000000000000000000000000000000000000000",
      "type": "0x2",
      "transactionHash": "0x6dcf7d0fbad1e6943c48e1694bf180b27edc7351a26c42bf07bd4e189c39a5a8",
      "transactionIndex": "0x1",
      "blockHash": "0x713641c367695b0e19094bdd25762e36ecbb70ebbaafa1f0c7ff80e2887b64a7",
      "blockNumber": "0x1f7894a",
      "gasUsed": "0x942e6ec",
      "effectiveGasPrice": "0x1331548",
      "from": "0x1234562eb0cd65e7d08e59f9f18d7c10b5df232a",
      "to": "0x9df8bc805e278f4391891e5c0fc824b5191f5212",
      "contractAddress": null,
      "l1Fee": "0xaec13",
      "l1FeeScalar": "0.01",
      "l1GasPrice": "0x8",
      "l1GasUsed": "0xc18",
      "tokenRatio": "0xb4a"
    },
    {
      "status": "0x1",
      "cumulativeGasUsed": "0x943e0b1",
      "logs": [
        {
          "address": "0x9df8bc805e278f4391891e5c0fc824b5191f5212",
          "topics": [
            "0x354f0817e377e1e9b2601a5fa1180df29e96ac246a5d02f817a6e3bb4b72a904",
            "0x000000000000000000000000ec4c46f46191d77c3d8ba3ddfafe71b58e2089af",
            "0x0000000000000000000000007392e9e58f202da3877776c41683ac457dfd4cd7"
          ],
          "data": "0x00000000000000000000000000000000000000000000000000000000000000010000000000000000000000000000000000000000000000000000000000000000",
          "blockHash": "0x768060497131fb1b72207e5bc9bb9c191bba9868c5b36a2fa7407e15b717dc76",
          "blockNumber": "0x1f7894c",
          "blockTimestamp": "0x695a9579",
          "transactionHash": "0x170374b43aee9257f3be0767cac3bb7ccd081b455d0096053922a58980f2a964",
          "transactionIndex": "0x1",
          "logIndex": "0x0",
          "removed": false
        }
      ],
      "logsBloom": "0x00000000000020000000000000000000000000000000000000000001000000000000000000000000800000000000000000000000000000000000000000000000000000000000000000000000000000000000000000000000000000000000000000000000000000000000000000000000000000000000000000000000000000000000000000000000000000000020000000000000000000000000000000000000000000000000000000000000000000000000000000000000000080000000000000000400001000000000000000000100000004000000000000000000000000000000000000000400200000000000000000000000000000000000004000000000",
      "type": "0x2",
      "transactionHash": "0x170374b43aee9257f3be0767cac3bb7ccd081b455d0096053922a58980f2a964",
      "transactionIndex": "0x1",
      "blockHash": "0x768060497131fb1b72207e5bc9bb9c191bba9868c5b36a2fa7407e15b717dc76",
      "blockNumber": "0x1f7894c",
      "gasUsed": "0x942e6ec",
      "effectiveGasPrice": "0x1331548",
      "from": "0x1234562eb0cd65e7d08e59f9f18d7c10b5df232a",
      "to": "0x9df8bc805e278f4391891e5c0fc824b5191f5212",
      "contractAddress": null,
      "l1Fee": "0xaec13",
      "l1FeeScalar": "0.01",
      "l1GasPrice": "0x8",
      "l1GasUsed": "0xc18",
      "tokenRatio": "0xb4a"
    },
    {
      "status": "0x1",
      "cumulativeGasUsed": "0x9439de5",
      "logs": [
        {
          "address": "0x9df8bc805e278f4391891e5c0fc824b5191f5212",
          "topics": [
            "0x354f0817e377e1e9b2601a5fa1180df29e96ac246a5d02f817a6e3bb4b72a904",
            "0x000000000000000000000000e47eba0dbf716d99482fb071ca04adf4fccd6b1f",
            "0x0000000000000000000000001fe9a4e25caa2a22fc0b61010fdb0db462fb5b29"
          ],
          "data": "0x00000000000000000000000000000000000000000000000000000000000000010000000000000000000000000000000000000000000000000000000000000000",
          "blockHash": "0xd95d67c96522f810596204015fc7a2cd68ddd8f61f02afb28daf57f0ee8cb786",
          "blockNumber": "0x1f7894e",
          "blockTimestamp": "0x695a957d",
          "transactionHash": "0xb46fa53e1d13c1c4d6ddda6139734765797ab6941b6e9adefe62fb28b9a37f56",
          "transactionIndex": "0x1",
          "logIndex": "0x0",
          "removed": false
        }
      ],
      "logsBloom": "0x00000000000000000000000000000000000000000000000000008000000000000000000000000000800000004002000000000000000000000000000000000001000000000000000000000080800000000000000000000000000000000000000000000000000000000000000000000000000000000000000000000000000000000000000000000000000000000020000000000000000000000000000000000000000000000000000000000000000000000000000000000000000080000000000000000000000000000000000000000000000004000000000000000000000000000000000000000400200000000000000000000000000000000000000000000000",
      "type": "0x2",
      "transactionHash": "0xb46fa53e1d13c1c4d6ddda6139734765797ab6941b6e9adefe62fb28b9a37f56",
      "transactionIndex": "0x1",
      "blockHash": "0xd95d67c96522f810596204015fc7a2cd68ddd8f61f02afb28daf57f0ee8cb786",
      "blockNumber": "0x1f7894e",
      "gasUsed": "0x942e6ec",
      "effectiveGasPrice": "0x1331548",
      "from": "0x1234562eb0cd65e7d08e59f9f18d7c10b5df232a",
      "to": "0x9df8bc805e278f4391891e5c0fc824b5191f5212",
      "contractAddress": null,
      "l1Fee": "0xaec13",
      "l1FeeScalar": "0.01",
      "l1GasPrice": "0x8",
      "l1GasUsed": "0xc18",
      "tokenRatio": "0xb4a"
    },
    {
      "status": "0x1",
      "cumulativeGasUsed": "0x9439de5",
      "logs": [
        {
          "address": "0x9df8bc805e278f4391891e5c0fc824b5191f5212",
          "topics": [
            "0x354f0817e377e1e9b2601a5fa1180df29e96ac246a5d02f817a6e3bb4b72a904",
            "0x0000000000000000000000004e3a466bba553ace4cd3a6149d574f3f034b5269",
            "0x0000000000000000000000005e1e8043381f3a21a1a64f46073daf7e74fedc1e"
          ],
          "data": "0x00000000000000000000000000000000000000000000000000000000000000010000000000000000000000000000000000000000000000000000000000000000",
          "blockHash": "0x0fe8111aa2e650d7205d64f940d43fa2e6aa354026c04b6f37d3dc545a91c55e",
          "blockNumber": "0x1f78950",
          "blockTimestamp": "0x695a9581",
          "transactionHash": "0x4254415513024136bcd76df379ab1177518ee403514094734abad614f31b2599",
          "transactionIndex": "0x1",
          "logIndex": "0x0",
          "removed": false
        }
      ],
      "logsBloom": "0x00000000000000000000000000000000000000000000000000000000000000000000000000000000800000000000000000000000000000000000000000000000000000000000040000000000000000000000000000000000000000000010000000200000000000000000000000000000000000000000000000000000000000000000000000000000000000000020000000000000000000000000000000000000000000000000000000000000000000000000000001000000000080000000000000000020000000000000000000000000000004000000000000000000000000000000000000000400200000000000000001000000000000000000000000000000",
      "type": "0x2",
      "transactionHash": "0x4254415513024136bcd76df379ab1177518ee403514094734abad614f31b2599",
      "transactionIndex": "0x1",
      "blockHash": "0x0fe8111aa2e650d7205d64f940d43fa2e6aa354026c04b6f37d3dc545a91c55e",
      "blockNumber": "0x1f78950",
      "gasUsed": "0x942e6ec",
      "effectiveGasPrice": "0x1331548",
      "from": "0x1234562eb0cd65e7d08e59f9f18d7c10b5df232a",
      "to": "0x9df8bc805e278f4391891e5c0fc824b5191f5212",
      "contractAddress": null,
      "l1Fee": "0xaec13",
      "l1FeeScalar": "0.01",
      "l1GasPrice": "0x8",
      "l1GasUsed": "0xc18",
      "tokenRatio": "0xb4a"
    },
    {
      "status": "0x1",
      "cumulativeGasUsed": "0x943e0b1",
      "logs": [
        {
          "address": "0x9df8bc805e278f4391891e5c0fc824b5191f5212",
          "topics": [
            "0x354f0817e377e1e9b2601a5fa1180df29e96ac246a5d02f817a6e3bb4b72a904",
            "0x000000000000000000000000751a0e0147d10b8c21804ac88dcfa6837312ea35",
            "0x00000000000000000000000006c1e044d5beb614faa6128001f519e6c693a044"
          ],
          "data": "0x00000000000000000000000000000000000000000000000000000000000000010000000000000000000000000000000000000000000000000000000000000000",
          "blockHash": "0xce9bc9d6de1ed5f7b9149425e9b2c2542cd13084a6da4b7ba845f126ae0cc067",
          "blockNumber": "0x1f78952",
          "blockTimestamp": "0x695a9585",
          "transactionHash": "0x48253c2b46d819da9c12957fba82c13e3db5396472d6f690de53c2d264bd6a18",
          "transactionIndex": "0x1",
          "logIndex": "0x0",
          "removed": false
        }
      ],
      "logsBloom": "0x00000000000000010000000000000000000000800000000000000000000000000000040000000000800000000000000000000000000000000000000000000000000000000000000000000000000000000000000000000000000000000000000000001000000000000000000000000000000000000400000000000000000000000000000000000000000000000020000000000000000000000000000000000000000000000000000000000000000000000000000000000000000080000000000000000000000000000000000000000000000004000000000000000000000000000000000000000400200000000000000000000000040000000000000000000000",
      "type": "0x2",
      "transactionHash": "0x48253c2b46d819da9c12957fba82c13e3db5396472d6f690de53c2d264bd6a18",
      "transactionIndex": "0x1",
      "blockHash": "0xce9bc9d6de1ed5f7b9149425e9b2c2542cd13084a6da4b7ba845f126ae0cc067",
      "blockNumber": "0x1f78952",
      "gasUsed": "0x942e6ec",
      "effectiveGasPrice": "0x1331548",
      "from": "0x1234562eb0cd65e7d08e59f9f18d7c10b5df232a",
      "to": "0x9df8bc805e278f4391891e5c0fc824b5191f5212",
      "contractAddress": null,
      "l1Fee": "0xaec13",
      "l1FeeScalar": "0.01",
      "l1GasPrice": "0x8",
      "l1GasUsed": "0xc18",
      "tokenRatio": "0xb4a"
    },
    {
      "status": "0x1",
      "cumulativeGasUsed": "0x9439de5",
      "logs": [
        {
          "address": "0x9df8bc805e278f4391891e5c0fc824b5191f5212",
          "topics": [
            "0x354f0817e377e1e9b2601a5fa1180df29e96ac246a5d02f817a6e3bb4b72a904",
            "0x000000000000000000000000d8d362badb84cc1f97a00273ddc8845fd4148c80",
            "0x00000000000000000000000085b8dc34c7af35bac8a45cff53353f39e6f732a2"
          ],
          "data": "0x00000000000000000000000000000000000000000000000000000000000000010000000000000000000000000000000000000000000000000000000000000000",
          "blockHash": "0xbf62488a5aa35abdd1c449f975248f5f283027d96a8cedc32c8b6de5fbaf426b",
          "blockNumber": "0x1f78954",
          "blockTimestamp": "0x695a9589",
          "transactionHash": "0x274a58898361de600c1f6702be8fcf0b6bce210ec9540156f18c0d070929dfaf",
          "transactionIndex": "0x1",
          "logIndex": "0x0",
          "removed": false
        }
      ],
      "logsBloom": "0x00000000000000000000000000000000000000000000000000000000000000000000000000000000800000000000000000000000000000000000000000000000000002000000000000000000000000000000000000000000000000000000000000040000000000000400000000000000000000000000000000000000000000000000000000000000000000000020000000040000000000000000000000000000000000000000000000000000000000000000000000000000000080000000000000000000000000000000000000000000000004000000000001000000000000000000000000200400200000000000000000000000000000000000000000000000",
      "type": "0x2",
      "transactionHash": "0x274a58898361de600c1f6702be8fcf0b6bce210ec9540156f18c0d070929dfaf",
      "transactionIndex": "0x1",
      "blockHash": "0xbf62488a5aa35abdd1c449f975248f5f283027d96a8cedc32c8b6de5fbaf426b",
      "blockNumber": "0x1f78954",
      "gasUsed": "0x942e6ec",
      "effectiveGasPrice": "0x1331548",
      "from": "0x1234562eb0cd65e7d08e59f9f18d7c10b5df232a",
      "to": "0x9df8bc805e278f4391891e5c0fc824b5191f5212",
      "contractAddress": null,
      "l1Fee": "0xaec13",
      "l1FeeScalar": "0.01",
      "l1GasPrice": "0x8",
      "l1GasUsed": "0xc18",
      "tokenRatio": "0xb4a"
    },
    {
      "status": "0x1",
      "cumulativeGasUsed": "0x9439de5",
      "logs": [
        {
          "address": "0x9df8bc805e278f4391891e5c0fc824b5191f5212",
          "topics": [
            "0x354f0817e377e1e9b2601a5fa1180df29e96ac246a5d02f817a6e3bb4b72a904",
            "0x0000000000000000000000001061473a78f6eb0a0bcbde060a5eea9d4273bb59",
            "0x0000000000000000000000007392e9e58f202da3877776c41683ac457dfd4cd7"
          ],
          "data": "0x00000000000000000000000000000000000000000000000000000000000000010000000000000000000000000000000000000000000000000000000000000000",
          "blockHash": "0xfca2170fc80b7383da4181becf7ab347562bc13767d3d392e389577c2fd903bb",
          "blockNumber": "0x1f78956",
          "blockTimestamp": "0x695a958d",
          "transactionHash": "0x53c72d0c7007a376448e32d88fd8c312b206e266591fe26ebb91244e63cca779",
          "transactionIndex": "0x1",
          "logIndex": "0x0",
          "removed": false
        }
      ],
      "logsBloom": "0x00000000000000000000000000000000000000000000000000000000000000000000000000000000800000000000000000000000000000000000000000000000000000000000000000000000000000000002000000000000000000000000000000000000000000000000000000000000000000000000000000000000000000000000000000000000000000000020000000000000000000000000000000000080000000000000000000000000000000000000000000000000000080000000000000000000001000000000000000000100000004000000000000000100000000000000000000000400200000000000000000000000000000000000004000000000",
      "type": "0x2",
      "transactionHash": "0x53c72d0c7007a376448e32d88fd8c312b206e266591fe26ebb91244e63cca779",
      "transactionIndex": "0x1",
      "blockHash": "0xfca2170fc80b7383da4181becf7ab347562bc13767d3d392e389577c2fd903bb",
      "blockNumber": "0x1f78956",
      "gasUsed": "0x942e6ec",
      "effectiveGasPrice": "0x1331548",
      "from": "0x1234562eb0cd65e7d08e59f9f18d7c10b5df232a",
      "to": "0x9df8bc805e278f4391891e5c0fc824b5191f5212",
      "contractAddress": null,
      "l1Fee": "0xaec13",
      "l1FeeScalar": "0.01",
      "l1GasPrice": "0x8",
      "l1GasUsed": "0xc18",
      "tokenRatio": "0xb4a"
    },
    {
      "status": "0x1",
      "cumulativeGasUsed": "0x943e0b1",
      "logs": [
        {
          "address": "0x9df8bc805e278f4391891e5c0fc824b5191f5212",
          "topics": [
            "0x354f0817e377e1e9b2601a5fa1180df29e96ac246a5d02f817a6e3bb4b72a904",
            "0x000000000000000000000000824fb936d24b2baaf92fe87fd65ff22d01439ece",
            "0x0000000000000000000000001fe9a4e25caa2a22fc0b61010fdb0db462fb5b29"
          ],
          "data": "0x00000000000000000000000000000000000000000000000000000000000000010000000000000000000000000000000000000000000000000000000000000000",
          "blockHash": "0x666a5f743de7aab9c301f77ed8542a3093b89417e0b33b305daea8a7c8254448",
          "blockNumber": "0x1f78958",
          "blockTimestamp": "0x695a9591",
          "transactionHash": "0xc1120c5ce0f33c60c8c82fcb63bc0ba1fec2e799162edd0a048882bd867fd167",
          "transactionIndex": "0x1",
          "logIndex": "0x0",
          "removed": false
        }
      ],
      "logsBloom": "0x00000000000000000000000000000000000000000000000000008000000000000000000000000000800000000000000000000000000000000000000000000001000000000000000000000080000000000000000000000000002000000000000000000000000000000000000000000000000000000000000000000000000000000000000000000000000000008020000000000000000000000000000000000000000000000000000000000000000000000000000000000000000080080000000000000000000000000000000000000000000004000000000000000000000000000000000000000400200000000000000000000000000000000000000000000000",
      "type": "0x2",
      "transactionHash": "0xc1120c5ce0f33c60c8c82fcb63bc0ba1fec2e799162edd0a048882bd867fd167",
      "transactionIndex": "0x1",
      "blockHash": "0x666a5f743de7aab9c301f77ed8542a3093b89417e0b33b305daea8a7c8254448",
      "blockNumber": "0x1f78958",
      "gasUsed": "0x942e6ec",
      "effectiveGasPrice": "0x1331548",
      "from": "0x1234562eb0cd65e7d08e59f9f18d7c10b5df232a",
      "to": "0x9df8bc805e278f4391891e5c0fc824b5191f5212",
      "contractAddress": null,
      "l1Fee": "0xaec13",
      "l1FeeScalar": "0.01",
      "l1GasPrice": "0x8",
      "l1GasUsed": "0xc18",
      "tokenRatio": "0xb4a"
    },
    {
      "status": "0x1",
      "cumulativeGasUsed": "0x9439de5",
      "logs": [
        {
          "address": "0x9df8bc805e278f4391891e5c0fc824b5191f5212",
          "topics": [
            "0x354f0817e377e1e9b2601a5fa1180df29e96ac246a5d02f817a6e3bb4b72a904",
            "0x000000000000000000000000012bd7cd0acc8cb696306b1ab7a537e85ef2056f",
            "0x0000000000000000000000005e1e8043381f3a21a1a64f46073daf7e74fedc1e"
          ],
          "data": "0x00000000000000000000000000000000000000000000000000000000000000010000000000000000000000000000000000000000000000000000000000000000",
          "blockHash": "0xcafd1eccb0d69b9e4a961a44d730d29bf9f600168e644125630946cf5b07344c",
          "blockNumber": "0x1f7895a",
          "blockTimestamp": "0x695a9595",
          "transactionHash": "0xa258f06580f422f9d1a68e3445843cee35dc6ba76b19f2faf1bd74a1a97153ae",
          "transactionIndex": "0x1",
          "logIndex": "0x0",
          "removed": false
        }
      ],
      "logsBloom": "0x00000000000000000000000000000000000000000000000000000000000000000000000000000000800000000000000000000000000000000000000100000000000000000000040000000000000000000000000000000000000000000000000000000000000000000000000000000004000000000000000000000000000000000000000000000000000000000020000000000000000000000000000000000000000000000000000000000000000000000000000000000000000080000000000000000020000000000000000000000000000004000000000000000000000000000004000000000400200000000000000001000000000000000000000000000000",
      "type": "0x2",
      "transactionHash": "0xa258f06580f422f9d1a68e3445843cee35dc6ba76b19f2faf1bd74a1a97153ae",
      "transactionIndex": "0x1",
      "blockHash": "0xcafd1eccb0d69b9e4a961a44d730d29bf9f600168e644125630946cf5b07344c",
      "blockNumber": "0x1f7895a",
      "gasUsed": "0x942e6ec",
      "effectiveGasPrice": "0x1331548",
      "from": "0x1234562eb0cd65e7d08e59f9f18d7c10b5df232a",
      "to": "0x9df8bc805e278f4391891e5c0fc824b5191f5212",
      "contractAddress": null,
      "l1Fee": "0xaec13",
      "l1FeeScalar": "0.01",
      "l1GasPrice": "0x8",
      "l1GasUsed": "0xc18",
      "tokenRatio": "0xb4a"
    },
    {
      "status": "0x1",
      "cumulativeGasUsed": "0x9439de5",
      "logs": [
        {
          "address": "0x9df8bc805e278f4391891e5c0fc824b5191f5212",
          "topics": [
            "0x354f0817e377e1e9b2601a5fa1180df29e96ac246a5d02f817a6e3bb4b72a904",
            "0x0000000000000000000000004d8346f2f33ffbc7fa2e46becf83c978943e69c8",
            "0x00000000000000000000000006c1e044d5beb614faa6128001f519e6c693a044"
          ],
          "data": "0x00000000000000000000000000000000000000000000000000000000000000010000000000000000000000000000000000000000000000000000000000000000",
          "blockHash": "0x01e84eea7ff77d991d49079880a171a0d297345dbf2ae11fcc0771986abf6704",
          "blockNumber": "0x1f7895c",
          "blockTimestamp": "0x695a9599",
          "transactionHash": "0xc482afdc1a23ab9bae1637677afb6001a4b96edffa12192af097c030ff9a9d0d",
          "transactionIndex": "0x1",
          "logIndex": "0x0",
          "removed": false
        }
      ],
      "logsBloom": "0x00000000000000010000000000000000000000800000000000000000000000000000000000000000800000000000000000000000000000000000000000000000000000000000000000000000000000000000000000000000000000000000000004000000000000000000000000000000000000000000000000000000000000000000000000000000000000000020000000000000000000000000000010000000000000000000000000000000000000000000000000000000000080000000000000000000000000001000000000000000000004000000000000000000000000000000000000000400200000000000000000000000040000000000000000000000",
      "type": "0x2",
      "transactionHash": "0xc482afdc1a23ab9bae1637677afb6001a4b96edffa12192af097c030ff9a9d0d",
      "transactionIndex": "0x1",
      "blockHash": "0x01e84eea7ff77d991d49079880a171a0d297345dbf2ae11fcc0771986abf6704",
      "blockNumber": "0x1f7895c",
      "gasUsed": "0x942e6ec",
      "effectiveGasPrice": "0x1331548",
      "from": "0x1234562eb0cd65e7d08e59f9f18d7c10b5df232a",
      "to": "0x9df8bc805e278f4391891e5c0fc824b5191f5212",
      "contractAddress": null,
      "l1Fee": "0xaec13",
      "l1FeeScalar": "0.01",
      "l1GasPrice": "0x8",
      "l1GasUsed": "0xc18",
      "tokenRatio": "0xb4a"
    },
    {
      "status": "0x1",
      "cumulativeGasUsed": "0x943e0b1",
      "logs": [
        {
          "address": "0x9df8bc805e278f4391891e5c0fc824b5191f5212",
          "topics": [
            "0x354f0817e377e1e9b2601a5fa1180df29e96ac246a5d02f817a6e3bb4b72a904",
            "0x0000000000000000000000002db087d43fc8402ade0706807d32d6ef72411ebd",
            "0x00000000000000000000000085b8dc34c7af35bac8a45cff53353f39e6f732a2"
          ],
          "data": "0x00000000000000000000000000000000000000000000000000000000000000010000000000000000000000000000000000000000000000000000000000000000",
          "blockHash": "0x429b8d9372f9e8ef5fa6edc86129d7922a69a78c416fd984cb9b72e496380fe0",
          "blockNumber": "0x1f7895e",
          "blockTimestamp": "0x695a959d",
          "transactionHash": "0xa67e51f2c9744138e9759b3eb64923ae17b07d8053d0919ef1da8a2168eee8cf",
          "transactionIndex": "0x1",
          "logIndex": "0x0",
          "removed": false
        }
      ],
      "logsBloom": "0x00000000000000000000000000000000000000000000000000000000000000000000000000000000800000000000000000000000000000000000000000000000000000000000000000000000000000000100000000000000000000000000000000040000000000000000000000000000000000000000000000000000000000000000000000000000000000000020000000040000040000000000000000000000000000000000000000000000000000000000000000000000000080000000000000000000000000000000000000002000000004000000000001000000000000000000000000000400200000000000000000000000000000000000000000000000",
      "type": "0x2",
      "transactionHash": "0xa67e51f2c9744138e9759b3eb64923ae17b07d8053d0919ef1da8a2168eee8cf",
      "transactionIndex": "0x1",
      "blockHash": "0x429b8d9372f9e8ef5fa6edc86129d7922a69a78c416fd984cb9b72e496380fe0",
      "blockNumber": "0x1f7895e",
      "gasUsed": "0x942e6ec",
      "effectiveGasPrice": "0x1331548",
      "from": "0x1234562eb0cd65e7d08e59f9f18d7c10b5df232a",
      "to": "0x9df8bc805e278f4391891e5c0fc824b5191f5212",
      "contractAddress": null,
      "l1Fee": "0xaec13",
      "l1FeeScalar": "0.01",
      "l1GasPrice": "0x8",
      "l1GasUsed": "0xc18",
      "tokenRatio": "0xb4a"
    },
    {
      "status": "0x1",
      "cumulativeGasUsed": "0x946e7ac",
      "logs": [
        {
          "address": "0x9df8bc805e278f4391891e5c0fc824b5191f5212",
          "topics": [
            "0x354f0817e377e1e9b2601a5fa1180df29e96ac246a5d02f817a6e3bb4b72a904",
            "0x000000000000000000000000d14bd87b18da3ec84a9e098df1c808d9cb7a9852",
            "0x0000000000000000000000007392e9e58f202da3877776c41683ac457dfd4cd7"
          ],
          "data": "0x00000000000000000000000000000000000000000000000000000000000000010000000000000000000000000000000000000000000000000000000000000000",
          "blockHash": "0x2d3ed6bb736fed43a4ed8f43622ba1fdd8e405c57c10a98024c266fbe82e7313",
          "blockNumber": "0x1f78960",
          "blockTimestamp": "0x695a95a1",
          "transactionHash": "0x43aa7185acfd2304f79517d1197947f476f242e320511f851b70b83bd87c97d2",
          "transactionIndex": "0x1",
          "logIndex": "0x0",
          "removed": false
        }
      ],
      "logsBloom": "0x00000000000000000000000000000000000000000000000000000000000000000000000000000000800000000000000000000000000000000000000000000000000000000000000000000000000000000000000000000000000000000000000000000000000000000000000000000000000000000000000000000000000000000000000000000000000000000020000000000000000000000000000000000000000000000000000000000000000000002000000000000000000080000000000000000000001000000000000000000100000004000000000000000000000000000000000004000400200000800000000000000000000000000000004000000000",
      "type": "0x2",
      "transactionHash": "0x43aa7185acfd2304f79517d1197947f476f242e320511f851b70b83bd87c97d2",
      "transactionIndex": "0x1",
      "blockHash": "0x2d3ed6bb736fed43a4ed8f43622ba1fdd8e405c57c10a98024c266fbe82e7313",
      "blockNumber": "0x1f78960",
      "gasUsed": "0x94630b3",
      "effectiveGasPrice": "0x1331548",
      "from": "0x1234562eb0cd65e7d08e59f9f18d7c10b5df232a",
      "to": "0x9df8bc805e278f4391891e5c0fc824b5191f5212",
      "contractAddress": null,
      "l1Fee": "0xae517",
      "l1FeeScalar": "0.01",
      "l1GasPrice": "0x8",
      "l1GasUsed": "0xc0c",
      "tokenRatio": "0xb4e"
    }
  ],
  "libraries": [],
  "pending": [],
  "returns": {},
  "timestamp": 1767544225364,
  "chain": 5003,
  "commit": "cd2a7c9"
}