{
  "transactions": [
    {
      "hash": "0xf55abfc90377b6953e016a68471ee66aa08c496b2b290f173375e285c8a308b1",
      "transactionType": "CREATE",
      "contractName": "KubiStreamerDonation",
      "contractAddress": "0x888361c3362712ba6bb442cbf714038fce0d9e49",
      "function": null,
      "arguments": [
        "0x2bF7E65df939482869b96A6BEb88d3e5bF58Fb81",
        "0x1234b50310fF79958509d1a9C8a92458ED1496D1",
        "250",
        "0x123454Ce54DEBE2cEbCe95740E9e0f65DFf9DBE2"
      ],
      "transaction": {
        "from": "0x1234562eb0cd65e7d08e59f9f18d7c10b5df232a",
        "gas": "0x373ab4891",
        "value": "0x0",
        "input": "0x60e0806040523461021a57608081613a50803803809161001f82856102b2565b83398101031261021a57610032816102e9565b9061003f602082016102e9565b9060408101519061ffff82169081830361021a57606061005f91016102e9565b5f80546001600160a01b0319163390811782556040519296917f8be0079c531659141344cd1fd0a4f28419497f9722a3daafe3b4186f6b6457e08180a3600180556001600160a01b031691821580156102a1575b8015610290575b610281576103e81061027257608082905263c45a015560e01b8152602081600481855afa908115610226575f91610231575b506001600160a01b031660a0526040516312a9293f60e21b815290602090829060049082905afa908115610226575f916101e8575b5060c052600280546001600160b01b0319166001600160a01b039384161760a09290921b61ffff60a01b16919091179055600380546001600160a01b0319169290911691909117905560405161375290816102fe823960805181818161026f01528181612df901528181612ed60152818161315401526133b4015260a051818181610a1401528181612d58015281816130cb0152613317015260c051818181610a9d01528181610acf01528181610c1d01528181612b6e01528181613268015261369a0152f35b90506020813d60201161021e575b81610203602093836102b2565b8101031261021a57610214906102e9565b5f610121565b5f80fd5b3d91506101f6565b6040513d5f823e3d90fd5b90506020813d60201161026a575b8161024c602093836102b2565b8101031261021a576004916102626020926102e9565b9150916100ec565b3d915061023f565b63cd4e616760e01b5f5260045ffd5b63d92e233d60e01b5f5260045ffd5b506001600160a01b038616156100ba565b506001600160a01b038516156100b3565b601f909101601f19168101906001600160401b038211908210176102d557604052565b634e487b7160e01b5f52604160045260245ffd5b51906001600160a01b038216820361021a5756fe6080806040526004361015610034575b50361561002557631021348160e01b5f5260045ffd5b631021348160e01b5f5260045ffd5b5f3560e01c9081630c495f96146119a157508063168b63d81461191057806324a9d853146118ec57806325d86ced1461184157806329575f6a146118195780633b3b2d8c146117b457806345ea4a9c14611774578063469048401461174c57806356d5d4751461144857806376cd0ac1146113695780637a6f1dcc146111ec5780637b955ebd146111635780637f507f3f14611105578063833ccb3514611081578063876a46ff14610f5357806388ba16ab14610f245780638da5cb5b14610efd5780639ab2f6b914610e7b578063a0d2d83014610ca3578063a9563e4f14610c4c578063ad5c464814610c08578063b0e0c12814610b8c578063b45faa7614610a43578063c45a0155146109ff578063cd1b7d6c1461094e578063d55be8c614610932578063d8c71a9214610906578063ddb2a096146108b1578063e051e81a14610857578063e165fe3d14610800578063e1f433471461072c578063e34d4ceb146106d7578063e9a4529114610665578063ec287506146105ec578063ee5e4fa314610592578063ee68870614610514578063f019e6ed146104f2578063f2708684146104cc578063f2fde38b1461044a578063f54efd77146103de578063f6fe94b01461029e578063f887ea401461025a5763fef0c4a114610219575f61000f565b34610256576020366003190112610256576001600160a01b0361023a611b7a565b165f526004602052602060ff60405f2054166040519015158152f35b5f80fd5b34610256575f366003190112610256576040517f00000000000000000000000000000000000000000000000000000000000000006001600160a01b03168152602090f35b34610256576060366003190112610256576102b7611b7a565b6102bf611b90565b906102c8611bd1565b6001600160a01b039091169133831415806103c9575b806103b5575b6103a6576001600160a01b03165f8181526004602052604090205460ff161561039757825f52600c6020528060405f2093815f52600185016020526103388460405f209060ff801983541691151516179055565b7f160aca386eecd6b8deb0127ecafcd60a1081e3f9dfa75de2cfd22ea186e8d3f1602060405195159586158152a381610383575b5061037357005b80546001600160a01b0319169055005b82546001600160a01b03161490508261036c565b633ba12a1560e11b5f5260045ffd5b63641410b160e11b5f5260045ffd5b505f546001600160a01b03163314156102e4565b506002546001600160a01b03163314156102de565b3461025657602036600319011261025657600435801515809103610256575f546001600160a01b031633141580610435575b6104265760ff8019600a5416911617600a555f80f35b63127f16f360e31b5f5260045ffd5b506002546001600160a01b0316331415610410565b3461025657602036600319011261025657610463611b7a565b5f546001600160a01b03811691338390036104bd576001600160a01b03169182156102565782907f8be0079c531659141344cd1fd0a4f28419497f9722a3daafe3b4186f6b6457e05f80a36001600160a01b031916175f55005b635fc483c560e01b5f5260045ffd5b34610256575f36600319011261025657602063ffffffff600a5460081c16604051908152f35b34610256575f36600319011261025657602060ff600a54166040519015158152f35b346102565760403660031901126102565761052d611b7a565b610535611b90565b9060018060a01b035f54163314158061057d575b610426576001600160a01b039081165f908152600b6020526040902080546001600160a01b03191692909116919091179055005b506002546001600160a01b0316331415610549565b34610256576040366003190112610256576105ab611b7a565b6105b3611b90565b9060018060a01b03165f52600c602052600160405f20019060018060a01b03165f52602052602060ff60405f2054166040519015158152f35b34610256576101403660031901126102565761060736611c58565b610612303314611d08565b61061b81612bcf565b60018060a01b0360a08201511690608060018060a01b036020830151169101516040519182526020820152600160408201525f5160206136fd5f395f51905f5260606101243592a3005b346102565760403660031901126102565761067e611b7a565b610686611b90565b336001600160a01b0383161415806106c2575b806106ae575b6103a6576106ac916122bb565b005b505f546001600160a01b031633141561069f565b506002546001600160a01b0316331415610699565b34610256576040366003190112610256576106f0611cf5565b63ffffffff6106fd611b90565b91165f52600860205260405f209060018060a01b03165f52602052602060ff60405f2054166040519015158152f35b3461025657606036600319011261025657610745611cf5565b61074d611b90565b610755611bd1565b9060018060a01b035f5416331415806107eb575b610426576001600160a01b03169182156107dc57602063ffffffff7f4d49d3f3f3e2ec61b682ac1aa8adb9e1945c29b4df4aab45492b365a611b7b9f921692835f526008825260405f20855f5282526107d18160405f209060ff801983541691151516179055565b6040519015158152a3005b63d92e233d60e01b5f5260045ffd5b506002546001600160a01b0316331415610769565b3461025657604036600319011261025657610819611b7a565b610821611b90565b6001600160a01b039182165f908152600c6020908152604080832093851683526002909301815290829020549151919092168152f35b34610256576020366003190112610256576001600160a01b03610878611b7a565b165f526006602052606060405f20600181549101546040519160ff81161515835260018060a01b039060081c1660208301526040820152f35b34610256576020366003190112610256576001600160a01b036108d2611b7a565b165f908152600c6020908152604091829020805460049091015483516001600160a01b039283168152911691810191909152f35b34610256575f36600319011261025657600a5460405160289190911c6001600160a01b03168152602090f35b34610256575f3660031901126102565760206040516103e88152f35b346102565760403660031901126102565760043561ffff811680820361025657610976611b90565b9060018060a01b035f5416331415806109ea575b610426576103e8106109db576001600160a01b03169081156107dc576002805461ffff60a01b191660a09290921b61ffff60a01b16919091179055600380546001600160a01b031916919091179055005b63cd4e616760e01b5f5260045ffd5b506002546001600160a01b031633141561098a565b34610256575f366003190112610256576040517f00000000000000000000000000000000000000000000000000000000000000006001600160a01b03168152602090f35b3461025657606036600319011261025657610a5c611b7a565b610a64611b90565b6044359162ffffff83168303610256575f546001600160a01b031633141580610b77575b610426576001600160a01b038116610b7157507f0000000000000000000000000000000000000000000000000000000000000000905b6001600160a01b038116610b6b57507f0000000000000000000000000000000000000000000000000000000000000000905b6001600160a01b03169081158015610b5a575b6107dc575f8281526005602081815260408084206001600160a01b03959095168452938152838320805462ffffff9790971662ffffff19978816811790915591815283832094835293909352208054909216179055005b506001600160a01b03811615610b03565b90610af0565b90610abe565b506002546001600160a01b0316331415610a88565b346102565761016036600319011261025657610ba736611c58565b610baf611ba6565b610bba303314611d08565b610bc48183612ca6565b608060018060a01b0360a0840151169201516040519160018060a01b031682526020820152600160408201525f5160206136fd5f395f51905f5260606101443592a3005b34610256575f366003190112610256576040517f00000000000000000000000000000000000000000000000000000000000000006001600160a01b03168152602090f35b3461025657604036600319011261025657610c65611b7a565b610c6d611b90565b9060018060a01b03165f52600560205260405f209060018060a01b03165f52602052602062ffffff60405f205416604051908152f35b3461025657604036600319011261025657610cbc611b7a565b610cc4611b90565b906001600160a01b03163381141580610e66575b80610e52575b6103a6575f818152600c60205260409020916001600160a01b031680156107dc575f8181526003840160208190526040909120546001600160a01b0316938415610e1f576001600160a01b038581165f9081526002830160205260409020541683145b15610e105760049160018060a01b0386165f526002820160205260405f206001600160601b0360a01b8154169055835f5260205260405f206001600160601b0360a01b8154169055019060018060a01b0382541614610dd6575b506040515f81526001600160a01b03909216917f07efacf833c0332f419c637a012a52fe4647777ec52b15b904c88856048dc94f90602090a3005b80546001600160a01b03191690556040515f81526001600160a01b0383169082905f5160206136dd5f395f51905f5290602090a382610d9b565b634209c0e360e01b5f5260045ffd5b5f8080526002820160205260409020549094906001600160a01b03168303610e4b57505f936001610d41565b935f610d41565b505f546001600160a01b0316331415610cde565b506002546001600160a01b0316331415610cd8565b34610256576020366003190112610256576004355f52600960205260c060405f2060ff60018060a01b038254169160018060a01b036001820154169060018060a01b03600282015416600460038301549201549260405195865260208601526040850152606084015263ffffffff8116608084015260201c16151560a0820152f35b34610256575f366003190112610256575f546040516001600160a01b039091168152602090f35b34610256576020366003190112610256576004355f526007602052602060ff60405f2054166040519015158152f35b3461025657602036600319011261025657600435610f746001805414611d40565b6002600155805f52600960205260405f20906003820191825490811561107257600481019182549260ff8460201c166110635782546001600160a01b03163314158061104c575b61103d5760026110349361100e926401000000007f6a2135e02ec806883835dbb59b92ede322c4f615397756ef4d0599c3cb3638549764ff00000000191617905501913360018060a01b038454166129a7565b549354604080516001600160a01b03909616865260208601919091523394918291820190565b0390a360018055005b630ecab8eb60e11b5f5260045ffd5b5060018301546001600160a01b0316331415610fbb565b63075d85e360e01b5f5260045ffd5b637bafa6c960e01b5f5260045ffd5b346102565760203660031901126102565761109a611b7a565b5f546001600160a01b0316331415806110f0575b610426576001600160a01b038116156107dc57600a805465010000000000600160c81b03191660289290921b65010000000000600160c81b0316919091179055005b506002546001600160a01b03163314156110ae565b60c036600319011261025657611119611b7a565b611121611b90565b60643591906001600160a01b03831683036102565761115d926111476001805414611d40565b600260015560a435926084359260443591611dd9565b60018055005b34610256576020366003190112610256576001600160a01b03611184611b7a565b165f908152600c6020526040902060048101546001600160a01b031690816111c757505f905b604080516001600160a01b03928316815292909116602083015290f35b6001600160a01b038281165f90815260039290920160205260409091205416906111aa565b3461025657604036600319011261025657611205611b7a565b61120d611b90565b6001600160a01b03909116903382141580611354575b80611340575b6103a6576001600160a01b03169081156107dc57815f52600660205260405f205460ff8116156113315760081c6001600160a01b0316918215611322575f828152600c602090815260408083206001600160a01b0387811680865260028301855283862080546001600160a01b0319908116891790915587875260038401865293909520805490931690941790915560040180547f07efacf833c0332f419c637a012a52fe4647777ec52b15b904c88856048dc94f94929316156112f2575b50604051908152a3005b816001600160601b0360a01b82541617905584845f5160206136dd5f395f51905f5284604051858152a3856112e8565b63634bb5e960e11b5f5260045ffd5b63ab68eff560e01b5f5260045ffd5b505f546001600160a01b0316331415611229565b506002546001600160a01b0316331415611223565b3461025657604036600319011261025657611382611b7a565b61138a611b90565b906001600160a01b03163381141580611433575b8061141f575b6103a6576001600160a01b0382165f9081526004602052604090205460ff1615610397575f52600c60205260405f209060018060a01b0381165f526001820160205260ff60405f205416156114105781546001600160a01b0319166001600160a01b0391909116179055005b631a1a638d60e01b5f5260045ffd5b505f546001600160a01b03163314156113a4565b506002546001600160a01b031633141561139e565b3461025657606036600319011261025657611461611cf5565b6044359067ffffffffffffffff8211610256573660238301121561025657816004013567ffffffffffffffff81116102565760248301818401366024820111610256576114b16001805414611d40565b6002600155604051602081019063ffffffff86169563ffffffff60e01b9060e01b1682526024356024820152848460448301376115006020604483888101438382015203018084520182611c36565b51902092835f52600760205260ff60405f20541661173d57608090845f52600760205260405f20600160ff198254161790551061172e57608090859003126102565761154b90611bbd565b9161155860448501611bbd565b92608461156760648701611bbd565b6001600160a01b0395861696928616959190920135911685156107dc57811561171f57805f52600460205260ff60405f2054161561039757604080516001600160a01b0383168152602081018490529081018590528690869085907f2385c9e581aa6338749593a091fc45991adb2cabe5e070614a388e318f52807090606090a46115f584838389896126b5565b156116005760018055005b6040519260c084019380851067ffffffffffffffff86111761170b576040948552868152602080820189815282870185815260608401878152608085019586525f60a086018181528b825260098652908a9020955186546001600160a01b03199081166001600160a01b0392831617885594516001880180548716918316919091179055925160028701805490951690841617909355516003850155935160049093018054915164ffffffffff1990921663ffffffff90941693909317901515821b64ff0000000016179091558451919092168152908101919091527f1eba772d6e32861ac84f6d651181b2bc327724ca4854e984f7f2fa458ae165449190a480808080808061115d565b634e487b7160e01b5f52604160045260245ffd5b631f2a200560e01b5f5260045ffd5b63772496b160e01b5f5260045ffd5b637b04260960e01b5f5260045ffd5b34610256575f366003190112610256576003546040516001600160a01b039091168152602090f35b34610256576020366003190112610256576001600160a01b03611795611b7a565b165f52600b602052602060018060a01b0360405f205416604051908152f35b34610256576020366003190112610256576117cd611cf5565b5f546001600160a01b031633141580611804575b6104265764ffffffff00600a549160081b169064ffffffff00191617600a555f80f35b506002546001600160a01b03163314156117e1565b34610256575f366003190112610256576002546040516001600160a01b039091168152602090f35b346102565760403660031901126102565761185a611b7a565b6024359081151590818303610256575f546001600160a01b0316331415806118d7575b610426577fac90355684e2710fa34c2c7d500018678b146ea2d56ddc331c63d242ee8bf385916118ce60209260018060a01b031694855f526004845260405f209060ff801983541691151516179055565b604051908152a2005b506002546001600160a01b031633141561187d565b34610256575f36600319011261025657602061ffff60025460a01c16604051908152f35b34610256576101803660031901126102565761192b36611c58565b611933611ba6565b610144356001600160a01b03811681036102565761195d90611956303314611d08565b828461236f565b608060018060a01b0360a0840151169201516040519160018060a01b031682526020820152600160408201525f5160206136fd5f395f51905f5260606101643592a3005b34610256576080366003190112610256576119ba611b7a565b906119c3611b90565b6119cb611bd1565b916064359360018060a01b035f541633141580611b65575b610426576001600160a01b03169283156107dc5715611aca57506001600160a01b031691821561132257825f52600460205260ff60405f20541615611abb5760407f354f0817e377e1e9b2601a5fa1180df29e96ac246a5d02f817a6e3bb4b72a904918151611a5181611be0565b6001815260016020820187815284830190848252875f526006602052611a89865f2094511515859060ff801983541691151516179055565b518354906101008460a81b039060081b16906101008460a81b03191617835551910155815190600182526020820152a3005b634c3347d160e01b5f5260045ffd5b90505f9250611ad881611be0565b82815260016020820184815260408301908582528486526006602052611b116040872094511515859060ff801983541691151516179055565b518354906101008460a81b039060081b16906101008460a81b031916178355519101557f354f0817e377e1e9b2601a5fa1180df29e96ac246a5d02f817a6e3bb4b72a90460408051848152846020820152a3005b506002546001600160a01b03163314156119e3565b600435906001600160a01b038216820361025657565b602435906001600160a01b038216820361025657565b61012435906001600160a01b038216820361025657565b35906001600160a01b038216820361025657565b60443590811515820361025657565b6060810190811067ffffffffffffffff82111761170b57604052565b610120810190811067ffffffffffffffff82111761170b57604052565b610100810190811067ffffffffffffffff82111761170b57604052565b90601f8019910116810190811067ffffffffffffffff82111761170b57604052565b6101209060031901126102565760405190611c7282611bfc565b816004356001600160a01b03811681036102565781526024356001600160a01b038116810361025657602082015260443560408201526064356060820152608435608082015260a4356001600160a01b03811681036102565760a082015260c43560c082015260e43560e082015261010435908115158203610256576101000152565b6004359063ffffffff8216820361025657565b15611d0f57565b60405162461bcd60e51b815260206004820152600960248201526827b7363c9039b2b63360b91b6044820152606490fd5b15611d4757565b60405162461bcd60e51b815260206004820152600a6024820152695245454e5452414e435960b01b6044820152606490fd5b91908203918211611d8657565b634e487b7160e01b5f52601160045260245ffd5b3d15611dd4573d9067ffffffffffffffff821161170b5760405191611dc9601f8201601f191660200184611c36565b82523d5f602084013e565b606090565b9490926001600160a01b03169081156107dc574281106122ac576001600160a01b0384169485159384156122a6575034925b831561171f5784156122a0575f5b6001600160a01b03165f9081526004602052604090205460ff161561039757841593846121eb575b61ffff60025460a01c168082029082820403611d8657612710900490611e678282611d79565b958261219a575b600a549060ff8216159081612192575b50611fd5575b50825f52600c60205260405f20986040519a611e9f8c611bfc565b6001600160a01b03168b5260208b015260408a015260608901526080880193845260a088015260c087015260e08601526101008501829052611ee18585612a5d565b916001600160a01b0382169081611f7d575b505050505f14611f7857505f5b6001600160a01b03165f90815260018201602052604090205460ff16611f6e57546001600160a01b03168015611f5f57805f52600460205260ff60405f20541615611f5057611f4e91612ca6565b565b633fbb49c960e01b5f5260045ffd5b63555096e560e11b5f5260045ffd5b50611f4e90612bcf565b611f00565b6040915f526006602052815f206001835191611f9883611be0565b805460ff811615158452828060a01b039060081c16602084015201549283910152511015611fc7578080611ef3565b9250925050611f4e9261236f565b5f8a8152600b60205260409020546001600160a01b031690811515908161217c575b5015611e84579350505095949293506020915061201584828761357e565b604051908282019760018060a01b03169586895287604084015260608301528460808301526080825261204960a083611c36565b600a545f60a4604051809b81968295635853cc1360e11b845263ffffffff8160081c16600485015260018060a01b039060281c1660248401528a6044840152608060648401525180918160848501528484015e8181018301849052601f01601f191681010301925af1948515612171575f9561211b575b50600a54604080516001600160a01b03909316835260208301939093529181019490945260081c63ffffffff16927f42a428e9d6cac8b93fb5138b57dbb1a7aac86d8a8b8ddec567cac4caab9eb0299080606081015b0390a4565b919094506020823d602011612169575b8161213860209383611c36565b81010312610256579051937f42a428e9d6cac8b93fb5138b57dbb1a7aac86d8a8b8ddec567cac4caab9eb0296120c0565b3d915061212b565b6040513d5f823e3d90fd5b60281c6001600160a01b0316151590505f611ff7565b90505f611e7e565b87156121ce575f8080808660018060a01b03600354165af16121ba611d9a565b50611e6e5763671f7c4960e11b5f5260045ffd5b6003546121e69084906001600160a01b03168c6129a7565b611e6e565b30156107dc576040516323b872dd60e01b81526001600160a01b038a166004820152306024820152604481018290526020816064815f8d5af1908115612171575f91612271575b50611e415760405162461bcd60e51b81526020600482015260126024820152711514905394d1915497d19493d357d190525360721b6044820152606490fd5b612293915060203d602011612299575b61228b8183611c36565b81019061298f565b5f612232565b503d612281565b85611e19565b92611e0b565b631ab7da6b60e01b5f5260045ffd5b6001600160a01b039081165f818152600c6020526040902092909116801561234057805f52600660205260ff60405f20541615611331575f8181526003840160205260409020546001600160a01b0316928315610e105760040180546001600160a01b031916821790556040519081525f5160206136dd5f395f51905f5290602090a3565b5060045f92016001600160601b0360a01b81541690555f5160206136dd5f395f51905f526020604051848152a3565b915f9160018060a01b03811691825f52600660205260405f206040519061239582611be0565b8054916040600160ff85161593841584526020840195828060a01b039060081c168652015491015261133157516001600160a01b0316908115611322576001600160a01b0316810361263e57805f52600460205260ff60405f20541615611abb57612400818661301b565b60a0860180516040516370a0823160e01b81526001600160a01b03909116600482015290949190602081602481865afa908115612171575f9161260c575b5061244985856134d1565b61245482868661357e565b85516001600160a01b0316833b156102565760405163d699618560e01b81526001600160a01b03919091166004820152602481018390525f8160448183885af18015612171576125f7575b506124aa85856134d1565b85516040516370a0823160e01b81526001600160a01b03909116600482015290602082602481875afa80156125ec5788906125b8575b6124ea9250611d79565b9586156125a95760c0880151871061259b5750905f5160206136bd5f395f51905f529392917f8f7a6fecbaab1e04e31f80b9da6e08d7f55f854f660a910ddc7cce65036babd5604060018060a01b03885116928151908152896020820152a4845192516020808701516040808901516060998a01518251918252938101939093526001600160a01b039485169083015296810195909552426080860152948116948116939216918060a08101612116565b6250c9b760e01b8152600490fd5b63360fef3560e01b8152600490fd5b506020823d6020116125e4575b816125d260209383611c36565b81010312610256576124ea91516124e0565b3d91506125c5565b6040513d8a823e3d90fd5b6126049197505f90611c36565b5f955f61249f565b90506020813d602011612636575b8161262760209383611c36565b8101031261025657515f61243e565b3d915061261a565b632693f30360e11b5f5260045ffd5b80516001600160a01b03908116835260208083015182169084015260408083015190840152606080830151908401526080808301519084015260a0808301519091169083015260c0808201519083015260e08082015190830152610100908101511515910152565b6001600160a01b0382165f818152600c6020526040812042610e1081019893979295929491908910611d8657604051916126ee83611bfc565b60018060a01b03169687835260018060a01b0316988960208401528560408401525f606084015260808301908682528960a08501525f60c085015260e08401525f61010084015261273f8383612a5d565b6001600160a01b0390911691826128c5575b505050885f526001810160205260ff60405f20541661287557546001600160a01b03168015158061285f575b6127e957505091855f5160206136bd5f395f51905f5294926127a28360a0968b6129a7565b5f5160206136fd5f395f51905f5260606040518b815285602082015260016040820152a36040519181835260208301528660408301526060820152426080820152a4600190565b949750955050925050303b1561285b5760405163161c182560e31b81529261281590600485019061264d565b6101248301526101448201528180826101648183305af19182612842575b505061283c5790565b50600190565b8161284c91611c36565b61285757815f612833565b5080fd5b8380fd5b50808652600460205260ff60408720541661277d565b509550509250509250303b156128c1576040516376143a8360e11b8152916128a190600484019061264d565b6101248201528180826101448183305af1918261284257505061283c5790565b8280fd5b604090835f526006602052815f2060018351916128e183611be0565b805460ff811615158452828060a01b039060081c16602084015201549283910152511015612910575b80612751565b303b15610256576040516302d16c7b60e31b815291612932600484018661264d565b6101248301526001600160a01b031661014482015261016481018590525f816101848183305af1908161297a575b5061296c575f8061290a565b505050505050505050600190565b6129879197505f90611c36565b5f955f612960565b90816020910312610256575180151581036102565790565b916001600160a01b038216156107dc5760405163a9059cbb60e01b81526001600160a01b0390921660048301526024820152906020908290815f816044810103926001600160a01b03165af1908115612171575f91612a3e575b5015612a0957565b60405162461bcd60e51b815260206004820152600d60248201526c1514905394d1915497d1905253609a1b6044820152606490fd5b612a57915060203d6020116122995761228b8183611c36565b5f612a01565b6101008201519092919015612bbd57505f5b6001600160a01b03811615612b39576001600160a01b038181165f90815260028501602052604090205416612aa3816135df565b612b345750505b60048201546001600160a01b0316612ac1816135df565b612b11575081546001600160a01b03169182612ae0575b505f91508190565b6001600160a01b038381165f90815260029290920160205260409091205416612b08816135df565b15612ad8579190565b6001600160a01b038082165f908152600390940160205260409093205490921690565b925090565b505f8080526002830160208190526040909120546001600160a01b0316612b5f816135df565b612bb557506001600160a01b037f00000000000000000000000000000000000000000000000000000000000000008181165f90815260209390935260409092205416612baa816135df565b612b34575050612aaa565b92505f919050565b602001516001600160a01b0316612a6f565b61010081015115612c7a575f80808060018060a01b0360a0860151166080860151905af1612bfb611d9a565b5015612c6b575b805160a0828101516020808501516040808701516060808901516080998a01518451938452958301526001600160a01b03938416928201839052810193909352429683019690965291821693909116915f5160206136bd5f395f51905f52919081908101612116565b632b3b0c0960e11b5f5260045ffd5b602081015160a08201516080830151612ca19290916001600160a01b0390811691166129a7565b612c02565b906101008201511515805f14613008575f5b608084015160c085015160a086019360018060a01b0385511691612ce060e089015195613689565b94612cea88613689565b9560018060a01b031693845f52600560205260405f2060018060a01b0388165f5260205262ffffff60405f2054168015612ff957604051630b4c774160e11b8152600481018790526001600160a01b03988916602482018190526044820183905298602090829060649082907f0000000000000000000000000000000000000000000000000000000000000000165afa908115612171575f91612fb7575b506001600160a01b031615612fa95760405197612da489611c19565b86895260208901526040880152606087015260808601528360a086015260c08501525f60e08501525f14612ed35750612df591602091604051808095819463414bf38960e01b835260048301613620565b03917f00000000000000000000000000000000000000000000000000000000000000006001600160a01b03165af18015612171575f90612e94575b5f5160206136bd5f395f51905f529150925b845192516020808701516040808901516060998a01518251918252938101939093526001600160a01b039485169083015296810195909552426080860152948116948116939216918060a08101612116565b506020813d602011612ecb575b81612eae60209383611c36565b81010312610256575f5160206136bd5f395f51905f529051612e30565b3d9150612ea1565b937f00000000000000000000000000000000000000000000000000000000000000006001600160a01b0316929091612f3791602091612f1d90612f16878a6134d1565b868961357e565b6040518093819263414bf38960e01b835260048301613620565b03815f875af1908115612171575f91612f6a575b505f5160206136bd5f395f51905f5292612f6591956134d1565b612e42565b90506020813d602011612fa1575b81612f8560209383611c36565b8101031261025657515f5160206136bd5f395f51905f52612f4b565b3d9150612f78565b6231a7b960e41b5f5260045ffd5b90506020813d602011612ff1575b81612fd260209383611c36565b8101031261025657516001600160a01b0381168103610256575f612d88565b3d9150612fc5565b630db08e3d60e01b5f5260045ffd5b60208301516001600160a01b0316612cb8565b5f906101008101516132645760208101516001600160a01b039081169390811684146132595761305d61305760e0608085015194015195613689565b91613689565b9060018060a01b03169384845260056020526040842060018060a01b0383165f5260205262ffffff60405f205416801561324a57604051630b4c774160e11b8152600481018790526001600160a01b03938416602482018190526044820183905293602090829060649082907f0000000000000000000000000000000000000000000000000000000000000000165afa90811561323f5786916131f9575b506001600160a01b0316156131eb5791602091613186936040519261311f84611c19565b88845284840152604083015230606083015260808201528360a08201528460c08201528460e0820152612f1d60018060a01b037f0000000000000000000000000000000000000000000000000000000000000000169461317f86896134d1565b858861357e565b038186865af19283156131df57926131a9575b5081926131a692506134d1565b90565b91506020823d6020116131d7575b816131c460209383611c36565b81010312610256576131a6915191613199565b3d91506131b7565b604051903d90823e3d90fd5b6231a7b960e41b8552600485fd5b90506020813d602011613237575b8161321460209383611c36565b8101031261323357516001600160a01b0381168103613233575f6130fb565b8580fd5b3d9150613207565b6040513d88823e3d90fd5b630db08e3d60e01b8552600485fd5b506080015192915050565b90917f00000000000000000000000000000000000000000000000000000000000000006001600160a01b038181169392908116841461348b576132b29060e060808501519401519250613689565b83855260056020526040852060018060a01b0382165f5260205262ffffff60405f20541690811561347c57604051630b4c774160e11b8152600481018690526001600160a01b03918216602482018190526044820184905291602090829060649082907f0000000000000000000000000000000000000000000000000000000000000000165afa90811561347157879161342b575b506001600160a01b03161561341d5791602093916133b095936040519461336d86611c19565b855285850152604084015230606084015260808301528060a08301528460c08301528460e0830152604051808095819463414bf38960e01b835260048301613620565b03917f00000000000000000000000000000000000000000000000000000000000000006001600160a01b03165af19182156131df57916133ee575090565b90506020813d602011613415575b8161340960209383611c36565b81010312610256575190565b3d91506133fc565b6231a7b960e41b8652600486fd5b90506020813d602011613469575b8161344660209383611c36565b8101031261346557516001600160a01b0381168103613465575f613347565b8680fd5b3d9150613439565b6040513d89823e3d90fd5b630db08e3d60e01b8652600486fd5b5050608001805190925090803b15610256575f90600460405180948193630d0e30db60e41b83525af18015612171576134c357505190565b5f6134cd91611c36565b5190565b906001600160a01b031680156107dc5760405163095ea7b360e01b815260048101919091525f602482018190529091602091839160449183916001600160a01b03165af1908115612171575f9161355f575b501561352b57565b60405162461bcd60e51b815260206004820152600c60248201526b1054141493d59157d190525360a21b6044820152606490fd5b613578915060203d6020116122995761228b8183611c36565b5f613523565b916001600160a01b038216156107dc5760405163095ea7b360e01b81526001600160a01b0390921660048301526024820152906020908290815f816044810103926001600160a01b03165af1908115612171575f9161355f57501561352b57565b6001600160a01b0316801561361b575f52600660205260405f205460ff81169081613608575090565b60081c6001600160a01b03161515919050565b505f90565b81516001600160a01b03908116825260208084015182169083015260408084015162ffffff16908301526060808401518216908301526080808401519083015260a0808401519083015260c0808401519083015260e09283015116918101919091526101000190565b6001600160a01b0381166131a657507f00000000000000000000000000000000000000000000000000000000000000009056fe49735f6dfce36092e4e60b47019be07f553ede2d89c84c80a84ad06883a2477752ce92b576c9e725f458101a8593fe331d4d2964c77a20f2b608b39cd95cf7890b84237232bded30e1bbcacdfefe53e938b8581b540301f72506f32b3af37c88a2646970667358221220e86bdd8181ad4b635b8c0a07462ab8ced832638247747c908326d13c12f1e0d864736f6c634300081e00330000000000000000000000002bf7e65df939482869b96a6beb88d3e5bf58fb810000000000000000000000001234b50310ff79958509d1a9c8a92458ed1496d100000000000000000000000000000000000000000000000000000000000000fa000000000000000000000000123454ce54debe2cebce95740e9e0f65dff9dbe2",
        "nonce": "0x30c",
        "chainId": "0x138b"
      },
      "additionalContracts": [],
      "isFixedGasLimit": false
    },
    {
      "hash": "0xf1de61cc1d77ce74ba26185d43ca5db4ce799ca27fb706edeccb9dba7931353b",
      "transactionType": "CALL",
      "contractName": "KubiStreamerDonation",
      "contractAddress": "0x888361c3362712ba6bb442cbf714038fce0d9e49",
      "function": "setGlobalWhitelist(address,bool)",
      "arguments": [
        "0x33c6f26dA09502E6540043f030aE1F87f109cc99",
        "true"
      ],
      "transaction": {
        "from": "0x1234562eb0cd65e7d08e59f9f18d7c10b5df232a",
        "to": "0x888361c3362712ba6bb442cbf714038fce0d9e49",
        "gas": "0x626b647",
        "value": "0x0",
        "input": "0x25d86ced00000000000000000000000033c6f26da09502e6540043f030ae1f87f109cc990000000000000000000000000000000000000000000000000000000000000001",
        "nonce": "0x30d",
        "chainId": "0x138b"
      },
      "additionalContracts": [],
      "isFixedGasLimit": false
    },
    {
      "hash": "0x7d3fd7c49fa9f2fe5202a5898ba391d52d0a0e41e65c5a38d5ba269030170e1e",
      "transactionType": "CALL",
      "contractName": "KubiStreamerDonation",
      "contractAddress": "0x888361c3362712ba6bb442cbf714038fce0d9e49",
      "function": "setGlobalWhitelist(address,bool)",
      "arguments": [
        "0x7CB382Ce1AA40FA9F9A59a632090c05Dc28caE7b",
        "true"
      ],
      "transaction": {
        "from": "0x1234562eb0cd65e7d08e59f9f18d7c10b5df232a",
        "to": "0x888361c3362712ba6bb442cbf714038fce0d9e49",
        "gas": "0x628d22b",
        "value": "0x0",
        "input": "0x25d86ced0000000000000000000000007cb382ce1aa40fa9f9a59a632090c05dc28cae7b0000000000000000000000000000000000000000000000000000000000000001",
        "nonce": "0x30e",
        "chainId": "0x138b"
      },
      "additionalContracts": [],
      "isFixedGasLimit": false
    },
    {
      "hash": "0xebf270bc090927a14f4bd53917b07fed48be86f4d409ab993f9a2326c4588bfa",
      "transactionType": "CALL",
      "contractName": "KubiStreamerDonation",
      "contractAddress": "0x888361c3362712ba6bb442cbf714038fce0d9e49",
      "function": "setGlobalWhitelist(address,bool)",
      "arguments": [
        "0xB288Ba5B5b80Dd0Fd83541ef2e5922f71121Fa13",
        "true"
      ],
      "transaction": {
        "from": "0x1234562eb0cd65e7d08e59f9f18d7c10b5df232a",
        "to": "0x888361c3362712ba6bb442cbf714038fce0d9e49",
        "gas": "0x628d22b",
        "value": "0x0",
        "input": "0x25d86ced000000000000000000000000b288ba5b5b80dd0fd83541ef2e5922f71121fa130000000000000000000000000000000000000000000000000000000000000001",
        "nonce": "0x30f",
        "chainId": "0x138b"
      },
      "additionalContracts": [],
      "isFixedGasLimit": false
    },
    {
      "hash": "0xa19579cc1b746f61e6101ac1f6eb969bbcf5e8c2fd94cc60c993a0bb8ac12819",
      "transactionType": "CALL",
      "contractName": "KubiStreamerDonation",
      "contractAddress": "0x888361c3362712ba6bb442cbf714038fce0d9e49",
      "function": "setGlobalWhitelist(address,bool)",
      "arguments": [
        "0xC4a53c466Cfb62AecED03008B0162baaf36E0B03",
        "true"
      ],
      "transaction": {
        "from": "0x1234562eb0cd65e7d08e59f9f18d7c10b5df232a",
        "to": "0x888361c3362712ba6bb442cbf714038fce0d9e49",
        "gas": "0x628d22b",
        "value": "0x0",
        "input": "0x25d86ced000000000000000000000000c4a53c466cfb62aeced03008b0162baaf36e0b030000000000000000000000000000000000000000000000000000000000000001",
        "nonce": "0x310",
        "chainId": "0x138b"
      },
      "additionalContracts": [],
      "isFixedGasLimit": false
    },
    {
      "hash": "0x404e498f73f84e3d1bf34c3bddc478338d11a5caf1aa04609171a7e9e9800395",
      "transactionType": "CALL",
      "contractName": "KubiStreamerDonation",
      "contractAddress": "0x888361c3362712ba6bb442cbf714038fce0d9e49",
      "function": "setGlobalWhitelist(address,bool)",
      "arguments": [
        "0x70Db6eFB75c898Ad1e194FDA2B8C6e73dbC944d6",
        "true"
      ],
      "transaction": {
        "from": "0x1234562eb0cd65e7d08e59f9f18d7c10b5df232a",
        "to": "0x888361c3362712ba6bb442cbf714038fce0d9e49",
        "gas": "0x628d22b",
        "value": "0x0",
        "input": "0x25d86ced00000000000000000000000070db6efb75c898ad1e194fda2b8c6e73dbc944d60000000000000000000000000000000000000000000000000000000000000001",
        "nonce": "0x311",
        "chainId": "0x138b"
      },
      "additionalContracts": [],
      "isFixedGasLimit": false
    },
    {
      "hash": "0x2675385930716ceb821a889805270c7d4b6f460d1e11117de33ca9784ab34b14",
      "transactionType": "CALL",
      "contractName": "KubiStreamerDonation",
      "contractAddress": "0x888361c3362712ba6bb442cbf714038fce0d9e49",
      "function": "setGlobalWhitelist(address,bool)",
      "arguments": [
        "0xEE589FBF85128abA6f42696dB2F28eA9EBddE173",
        "true"
      ],
      "transaction": {
        "from": "0x1234562eb0cd65e7d08e59f9f18d7c10b5df232a",
        "to": "0x888361c3362712ba6bb442cbf714038fce0d9e49",
        "gas": "0x628d22b",
        "value": "0x0",
        "input": "0x25d86ced000000000000000000000000ee589fbf85128aba6f42696db2f28ea9ebdde1730000000000000000000000000000000000000000000000000000000000000001",
        "nonce": "0x312",
        "chainId": "0x138b"
      },
      "additionalContracts": [],
      "isFixedGasLimit": false
    },
    {
      "hash": "0x63882c7a5fafa242ff02ad97bbd5e32fb0e91f7de100fc721fd75be638916a48",
      "transactionType": "CALL",
      "contractName": "KubiStreamerDonation",
      "contractAddress": "0x888361c3362712ba6bb442cbf714038fce0d9e49",
      "function": "setGlobalWhitelist(address,bool)",
      "arguments": [
        "0x2C036be74942c597e4d81D7050008dDc11becCEb",
        "true"
      ],
      "transaction": {
        "from": "0x1234562eb0cd65e7d08e59f9f18d7c10b5df232a",
        "to": "0x888361c3362712ba6bb442cbf714038fce0d9e49",
        "gas": "0x626b647",
        "value": "0x0",
        "input": "0x25d86ced0000000000000000000000002c036be74942c597e4d81d7050008ddc11becceb0000000000000000000000000000000000000000000000000000000000000001",
        "nonce": "0x313",
        "chainId": "0x138b"
      },
      "additionalContracts": [],
      "isFixedGasLimit": false
    },
    {
      "hash": "0xf86b0aefcb05df2583352e335a86d2e0e57b0e892f4857e3bd6dba740c80b9be",
      "transactionType": "CALL",
      "contractName": "KubiStreamerDonation",
      "contractAddress": "0x888361c3362712ba6bb442cbf714038fce0d9e49",
      "function": "setGlobalWhitelist(address,bool)",
      "arguments": [
        "0x90CdcBF4c4bc78dC440252211EFd744d0A4Dc4A1",
        "true"
      ],
      "transaction": {
        "from": "0x1234562eb0cd65e7d08e59f9f18d7c10b5df232a",
        "to": "0x888361c3362712ba6bb442cbf714038fce0d9e49",
        "gas": "0x628d22b",
        "value": "0x0",
        "input": "0x25d86ced00000000000000000000000090cdcbf4c4bc78dc440252211efd744d0a4dc4a10000000000000000000000000000000000000000000000000000000000000001",
        "nonce": "0x314",
        "chainId": "0x138b"
      },
      "additionalContracts": [],
      "isFixedGasLimit": false
    },
    {
      "hash": "0xf1af4fbdb41dbf7885496256fc80d0cdc178588c95e7811323045ee4cf8edeb8",
      "transactionType": "CALL",
      "contractName": "KubiStreamerDonation",
      "contractAddress": "0x888361c3362712ba6bb442cbf714038fce0d9e49",
      "function": "setGlobalWhitelist(address,bool)",
      "arguments": [
        "0xced6Ceb47301F268d57fF07879DF45Fda80e6974",
        "true"
      ],
      "transaction": {
        "from": "0x1234562eb0cd65e7d08e59f9f18d7c10b5df232a",
        "to": "0x888361c3362712ba6bb442cbf714038fce0d9e49",
        "gas": "0x628d22b",
        "value": "0x0",
        "input": "0x25d86ced000000000000000000000000ced6ceb47301f268d57ff07879df45fda80e69740000000000000000000000000000000000000000000000000000000000000001",
        "nonce": "0x315",
        "chainId": "0x138b"
      },
      "additionalContracts": [],
      "isFixedGasLimit": false
    },
    {
      "hash": "0x7a6a3231c989ae73cf399f5c886548c5e682026c2981877aedfbc0b6eeedb180",
      "transactionType": "CALL",
      "contractName": "KubiStreamerDonation",
      "contractAddress": "0x888361c3362712ba6bb442cbf714038fce0d9e49",
      "function": "setGlobalWhitelist(address,bool)",
      "arguments": [
        "0x782Ba48189AF93a0CF42766058DE83291f384bF3",
        "true"
      ],
      "transaction": {
        "from": "0x1234562eb0cd65e7d08e59f9f18d7c10b5df232a",
        "to": "0x888361c3362712ba6bb442cbf714038fce0d9e49",
        "gas": "0x628d22b",
        "value": "0x0",
        "input": "0x25d86ced000000000000000000000000782ba48189af93a0cf42766058de83291f384bf30000000000000000000000000000000000000000000000000000000000000001",
        "nonce": "0x316",
        "chainId": "0x138b"
      },
      "additionalContracts": [],
      "isFixedGasLimit": false
    },
    {
      "hash": "0x9254e37bf6b30f1f3efc66947eaf99f899774e6ce5a019aa73e8d2fdb46c2267",
      "transactionType": "CALL",
      "contractName": "KubiStreamerDonation",
      "contractAddress": "0x888361c3362712ba6bb442cbf714038fce0d9e49",
      "function": "setYieldConfig(address,address,bool,uint256)",
      "arguments": [
        "0x2007Cb1a90E71c18983F1d4091261816E9e9c2dA",
        "0xB288Ba5B5b80Dd0Fd83541ef2e5922f71121Fa13",
        "true",
        "0"
      ],
      "transaction": {
        "from": "0x1234562eb0cd65e7d08e59f9f18d7c10b5df232a",
        "to": "0x888361c3362712ba6bb442cbf714038fce0d9e49",
        "gas": "0x67ffdb1",
        "value": "0x0",
        "input": "0x0c495f960000000000000000000000002007cb1a90e71c18983f1d4091261816e9e9c2da000000000000000000000000b288ba5b5b80dd0fd83541ef2e5922f71121fa1300000000000000000000000000000000000000000000000000000000000000010000000000000000000000000000000000000000000000000000000000000000",
        "nonce": "0x317",
        "chainId": "0x138b"
      },
      "additionalContracts": [],
      "isFixedGasLimit": false
    },
    {
      "hash": "0x46a16e88b121c727b99f2802c9efbe751b59c9df45c9c38db12c550145dc2699",
      "transactionType": "CALL",
      "contractName": "KubiStreamerDonation",
      "contractAddress": "0x888361c3362712ba6bb442cbf714038fce0d9e49",
      "function": "setYieldConfig(address,address,bool,uint256)",
      "arguments": [
        "0x04F0aEf9cb921A8Ad848FA8B49aF7fc2E60DbcCb",
        "0xC4a53c466Cfb62AecED03008B0162baaf36E0B03",
        "true",
        "0"
      ],
      "transaction": {
        "from": "0x1234562eb0cd65e7d08e59f9f18d7c10b5df232a",
        "to": "0x888361c3362712ba6bb442cbf714038fce0d9e49",
        "gas": "0x67ffdb1",
        "value": "0x0",
        "input": "0x0c495f9600000000000000000000000004f0aef9cb921a8ad848fa8b49af7fc2e60dbccb000000000000000000000000c4a53c466cfb62aeced03008b0162baaf36e0b0300000000000000000000000000000000000000000000000000000000000000010000000000000000000000000000000000000000000000000000000000000000",
        "nonce": "0x318",
        "chainId": "0x138b"
      },
      "additionalContracts": [],
      "isFixedGasLimit": false
    },
    {
      "hash": null,
      "transactionType": "CALL",
      "contractName": "KubiStreamerDonation",
      "contractAddress": "0x888361c3362712ba6bb442cbf714038fce0d9e49",
      "function": "setYieldConfig(address,address,bool,uint256)",
      "arguments": [
        "0x8c2B7136dDaF6129cE33f58d3E5475a0ed3F7b3C",
        "0x33c6f26dA09502E6540043f030aE1F87f109cc99",
        "true",
        "0"
      ],
      "transaction": {
        "from": "0x1234562eb0cd65e7d08e59f9f18d7c10b5df232a",
        "to": "0x888361c3362712ba6bb442cbf714038fce0d9e49",
        "gas": "0x67de1cd",
        "value": "0x0",
        "input": "0x0c495f960000000000000000000000008c2b7136ddaf6129ce33f58d3e5475a0ed3f7b3c00000000000000000000000033c6f26da09502e6540043f030ae1f87f109cc9900000000000000000000000000000000000000000000000000000000000000010000000000000000000000000000000000000000000000000000000000000000",
        "nonce": "0x319",
        "chainId": "0x138b"
      },
      "additionalContracts": [],
      "isFixedGasLimit": false
    },
    {
      "hash": null,
      "transactionType": "CALL",
      "contractName": "KubiStreamerDonation",
      "contractAddress": "0x888361c3362712ba6bb442cbf714038fce0d9e49",
      "function": "setYieldConfig(address,address,bool,uint256)",
      "arguments": [
        "0x8e0dCfecDEEBb1da38DD1bbE9418FD7a4bdd4922",
        "0xced6Ceb47301F268d57fF07879DF45Fda80e6974",
        "true",
        "0"
      ],
      "transaction": {
        "from": "0x1234562eb0cd65e7d08e59f9f18d7c10b5df232a",
        "to": "0x888361c3362712ba6bb442cbf714038fce0d9e49",
        "gas": "0x67ffdb1",
        "value": "0x0",
        "input": "0x0c495f960000000000000000000000008e0dcfecdeebb1da38dd1bbe9418fd7a4bdd4922000000000000000000000000ced6ceb47301f268d57ff07879df45fda80e697400000000000000000000000000000000000000000000000000000000000000010000000000000000000000000000000000000000000000000000000000000000",
        "nonce": "0x31a",
        "chainId": "0x138b"
      },
      "additionalContracts": [],
      "isFixedGasLimit": false
    },
    {
      "hash": null,
      "transactionType": "CALL",
      "contractName": "KubiStreamerDonation",
      "contractAddress": "0x888361c3362712ba6bb442cbf714038fce0d9e49",
      "function": "setYieldConfig(address,address,bool,uint256)",
      "arguments": [
        "0x89C0fa2BAE88752eC733922daa0c2Ff321bb5279",
        "0x7CB382Ce1AA40FA9F9A59a632090c05Dc28caE7b",
        "true",
        "0"
      ],
      "transaction": {
        "from": "0x1234562eb0cd65e7d08e59f9f18d7c10b5df232a",
        "to": "0x888361c3362712ba6bb442cbf714038fce0d9e49",
        "gas": "0x67ffdb1",
        "value": "0x0",
        "input": "0x0c495f9600000000000000000000000089c0fa2bae88752ec733922daa0c2ff321bb52790000000000000000000000007cb382ce1aa40fa9f9a59a632090c05dc28cae7b00000000000000000000000000000000000000000000000000000000000000010000000000000000000000000000000000000000000000000000000000000000",
        "nonce": "0x31b",
        "chainId": "0x138b"
      },
      "additionalContracts": [],
      "isFixedGasLimit": false
    },
    {
      "hash": null,
      "transactionType": "CALL",
      "contractName": "KubiStreamerDonation",
      "contractAddress": "0x888361c3362712ba6bb442cbf714038fce0d9e49",
      "function": "setYieldConfig(address,address,bool,uint256)",
      "arguments": [
        "0xa6c9dD702B198Da46f9C5b21bBe65a2a31fdEB63",
        "0xB288Ba5B5b80Dd0Fd83541ef2e5922f71121Fa13",
        "true",
        "0"
      ],
      "transaction": {
        "from": "0x1234562eb0cd65e7d08e59f9f18d7c10b5df232a",
        "to": "0x888361c3362712ba6bb442cbf714038fce0d9e49",
        "gas": "0x67ffdb1",
        "value": "0x0",
        "input": "0x0c495f96000000000000000000000000a6c9dd702b198da46f9c5b21bbe65a2a31fdeb63000000000000000000000000b288ba5b5b80dd0fd83541ef2e5922f71121fa1300000000000000000000000000000000000000000000000000000000000000010000000000000000000000000000000000000000000000000000000000000000",
        "nonce": "0x31c",
        "chainId": "0x138b"
      },
      "additionalContracts": [],
      "isFixedGasLimit": false
    },
    {
      "hash": null,
      "transactionType": "CALL",
      "contractName": "KubiStreamerDonation",
      "contractAddress": "0x888361c3362712ba6bb442cbf714038fce0d9e49",
      "function": "setYieldConfig(address,address,bool,uint256)",
      "arguments": [
        "0x5c8b8caa55Af0d10ACc3ec95A614d26C90BD9b62",
        "0xC4a53c466Cfb62AecED03008B0162baaf36E0B03",
        "true",
        "0"
      ],
      "transaction": {
        "from": "0x1234562eb0cd65e7d08e59f9f18d7c10b5df232a",
        "to": "0x888361c3362712ba6bb442cbf714038fce0d9e49",
        "gas": "0x67ffdb1",
        "value": "0x0",
        "input": "0x0c495f960000000000000000000000005c8b8caa55af0d10acc3ec95a614d26c90bd9b62000000000000000000000000c4a53c466cfb62aeced03008b0162baaf36e0b0300000000000000000000000000000000000000000000000000000000000000010000000000000000000000000000000000000000000000000000000000000000",
        "nonce": "0x31d",
        "chainId": "0x138b"
      },
      "additionalContracts": [],
      "isFixedGasLimit": false
    },
    {
      "hash": null,
      "transactionType": "CALL",
      "contractName": "KubiStreamerDonation",
      "contractAddress": "0x888361c3362712ba6bb442cbf714038fce0d9e49",
      "function": "setYieldConfig(address,address,bool,uint256)",
      "arguments": [
        "0xfCbFBaf16A7b392F5963232fC3d7bb81238a4Fc1",
        "0x33c6f26dA09502E6540043f030aE1F87f109cc99",
        "true",
        "0"
      ],
      "transaction": {
        "from": "0x1234562eb0cd65e7d08e59f9f18d7c10b5df232a",
        "to": "0x888361c3362712ba6bb442cbf714038fce0d9e49",
        "gas": "0x67de1cd",
        "value": "0x0",
        "input": "0x0c495f96000000000000000000000000fcbfbaf16a7b392f5963232fc3d7bb81238a4fc100000000000000000000000033c6f26da09502e6540043f030ae1f87f109cc9900000000000000000000000000000000000000000000000000000000000000010000000000000000000000000000000000000000000000000000000000000000",
        "nonce": "0x31e",
        "chainId": "0x138b"
      },
      "additionalContracts": [],
      "isFixedGasLimit": false
    },
    {
      "hash": null,
      "transactionType": "CALL",
      "contractName": "KubiStreamerDonation",
      "contractAddress": "0x888361c3362712ba6bb442cbf714038fce0d9e49",
      "function": "setYieldConfig(address,address,bool,uint256)",
      "arguments": [
        "0x0dF313cE12b511062eCe811e435F0729E7c9746f",
        "0xced6Ceb47301F268d57fF07879DF45Fda80e6974",
        "true",
        "0"
      ],
      "transaction": {
        "from": "0x1234562eb0cd65e7d08e59f9f18d7c10b5df232a",
        "to": "0x888361c3362712ba6bb442cbf714038fce0d9e49",
        "gas": "0x67ffdb1",
        "value": "0x0",
        "input": "0x0c495f960000000000000000000000000df313ce12b511062ece811e435f0729e7c9746f000000000000000000000000ced6ceb47301f268d57ff07879df45fda80e697400000000000000000000000000000000000000000000000000000000000000010000000000000000000000000000000000000000000000000000000000000000",
        "nonce": "0x31f",
        "chainId": "0x138b"
      },
      "additionalContracts": [],
      "isFixedGasLimit": false
    },
    {
      "hash": null,
      "transactionType": "CALL",
      "contractName": "KubiStreamerDonation",
      "contractAddress": "0x888361c3362712ba6bb442cbf714038fce0d9e49",
      "function": "setYieldConfig(address,address,bool,uint256)",
      "arguments": [
        "0xB1eF139d2f4D56B126196D9FF712b67e120c0349",
        "0x7CB382Ce1AA40FA9F9A59a632090c05Dc28caE7b",
        "true",
        "0"
      ],
      "transaction": {
        "from": "0x1234562eb0cd65e7d08e59f9f18d7c10b5df232a",
        "to": "0x888361c3362712ba6bb442cbf714038fce0d9e49",
        "gas": "0x67ffdb1",
        "value": "0x0",
        "input": "0x0c495f96000000000000000000000000b1ef139d2f4d56b126196d9ff712b67e120c03490000000000000000000000007cb382ce1aa40fa9f9a59a632090c05dc28cae7b00000000000000000000000000000000000000000000000000000000000000010000000000000000000000000000000000000000000000000000000000000000",
        "nonce": "0x320",
        "chainId": "0x138b"
      },
      "additionalContracts": [],
      "isFixedGasLimit": false
    },
    {
      "hash": null,
      "transactionType": "CALL",
      "contractName": "KubiStreamerDonation",
      "contractAddress": "0x888361c3362712ba6bb442cbf714038fce0d9e49",
      "function": "setYieldConfig(address,address,bool,uint256)",
      "arguments": [
        "0x324Db0D78D0225431A2bD49470018b322a006833",
        "0xB288Ba5B5b80Dd0Fd83541ef2e5922f71121Fa13",
        "true",
        "0"
      ],
      "transaction": {
        "from": "0x1234562eb0cd65e7d08e59f9f18d7c10b5df232a",
        "to": "0x888361c3362712ba6bb442cbf714038fce0d9e49",
        "gas": "0x67de1cd",
        "value": "0x0",
        "input": "0x0c495f96000000000000000000000000324db0d78d0225431a2bd49470018b322a006833000000000000000000000000b288ba5b5b80dd0fd83541ef2e5922f71121fa1300000000000000000000000000000000000000000000000000000000000000010000000000000000000000000000000000000000000000000000000000000000",
        "nonce": "0x321",
        "chainId": "0x138b"
      },
      "additionalContracts": [],
      "isFixedGasLimit": false
    },
    {
      "hash": null,
      "transactionType": "CALL",
      "contractName": "KubiStreamerDonation",
      "contractAddress": "0x888361c3362712ba6bb442cbf714038fce0d9e49",
      "function": "setYieldConfig(address,address,bool,uint256)",
      "arguments": [
        "0xbF1dC15Eaa6449d5bf81463578808313F5e208Ee",
        "0xC4a53c466Cfb62AecED03008B0162baaf36E0B03",
        "true",
        "0"
      ],
      "transaction": {
        "from": "0x1234562eb0cd65e7d08e59f9f18d7c10b5df232a",
        "to": "0x888361c3362712ba6bb442cbf714038fce0d9e49",
        "gas": "0x67ffdb1",
        "value": "0x0",
        "input": "0x0c495f96000000000000000000000000bf1dc15eaa6449d5bf81463578808313f5e208ee000000000000000000000000c4a53c466cfb62aeced03008b0162baaf36e0b0300000000000000000000000000000000000000000000000000000000000000010000000000000000000000000000000000000000000000000000000000000000",
        "nonce": "0x322",
        "chainId": "0x138b"
      },
      "additionalContracts": [],
      "isFixedGasLimit": false
    },
    {
      "hash": null,
      "transactionType": "CALL",
      "contractName": "KubiStreamerDonation",
      "contractAddress": "0x888361c3362712ba6bb442cbf714038fce0d9e49",
      "function": "setYieldConfig(address,address,bool,uint256)",
      "arguments": [
        "0xc79F99285A0f4B640c552090eEab8CAbc4433C1D",
        "0x33c6f26dA09502E6540043f030aE1F87f109cc99",
        "true",
        "0"
      ],
      "transaction": {
        "from": "0x1234562eb0cd65e7d08e59f9f18d7c10b5df232a",
        "to": "0x888361c3362712ba6bb442cbf714038fce0d9e49",
        "gas": "0x67de1cd",
        "value": "0x0",
        "input": "0x0c495f96000000000000000000000000c79f99285a0f4b640c552090eeab8cabc4433c1d00000000000000000000000033c6f26da09502e6540043f030ae1f87f109cc9900000000000000000000000000000000000000000000000000000000000000010000000000000000000000000000000000000000000000000000000000000000",
        "nonce": "0x323",
        "chainId": "0x138b"
      },
      "additionalContracts": [],
      "isFixedGasLimit": false
    },
    {
      "hash": null,
      "transactionType": "CALL",
      "contractName": "KubiStreamerDonation",
      "contractAddress": "0x888361c3362712ba6bb442cbf714038fce0d9e49",
      "function": "setYieldConfig(address,address,bool,uint256)",
      "arguments": [
        "0xA5FC97D4eEE36Cf0CF5beE22cF78e74cE9882E81",
        "0xced6Ceb47301F268d57fF07879DF45Fda80e6974",
        "true",
        "0"
      ],
      "transaction": {
        "from": "0x1234562eb0cd65e7d08e59f9f18d7c10b5df232a",
        "to": "0x888361c3362712ba6bb442cbf714038fce0d9e49",
        "gas": "0x67ffdb1",
        "value": "0x0",
        "input": "0x0c495f96000000000000000000000000a5fc97d4eee36cf0cf5bee22cf78e74ce9882e81000000000000000000000000ced6ceb47301f268d57ff07879df45fda80e697400000000000000000000000000000000000000000000000000000000000000010000000000000000000000000000000000000000000000000000000000000000",
        "nonce": "0x324",
        "chainId": "0x138b"
      },
      "additionalContracts": [],
      "isFixedGasLimit": false
    },
    {
      "hash": null,
      "transactionType": "CALL",
      "contractName": "KubiStreamerDonation",
      "contractAddress": "0x888361c3362712ba6bb442cbf714038fce0d9e49",
      "function": "setYieldConfig(address,address,bool,uint256)",
      "arguments": [
        "0xdf3eBc828195ffBc71bB80c467cF70BfDEf0AC1E",
        "0x7CB382Ce1AA40FA9F9A59a632090c05Dc28caE7b",
        "true",
        "0"
      ],
      "transaction": {
        "from": "0x1234562eb0cd65e7d08e59f9f18d7c10b5df232a",
        "to": "0x888361c3362712ba6bb442cbf714038fce0d9e49",
        "gas": "0x67ffdb1",
        "value": "0x0",
        "input": "0x0c495f96000000000000000000000000df3ebc828195ffbc71bb80c467cf70bfdef0ac1e0000000000000000000000007cb382ce1aa40fa9f9a59a632090c05dc28cae7b00000000000000000000000000000000000000000000000000000000000000010000000000000000000000000000000000000000000000000000000000000000",
        "nonce": "0x325",
        "chainId": "0x138b"
      },
      "additionalContracts": [],
      "isFixedGasLimit": false
    },
    {
      "hash": null,
      "transactionType": "CALL",
      "contractName": "KubiStreamerDonation",
      "contractAddress": "0x888361c3362712ba6bb442cbf714038fce0d9e49",
      "function": "setYieldConfig(address,address,bool,uint256)",
      "arguments": [
        "0x8edafBaDe92450979DfF2F10449E7917c722AF50",
        "0xB288Ba5B5b80Dd0Fd83541ef2e5922f71121Fa13",
        "true",
        "0"
      ],
      "transaction": {
        "from": "0x1234562eb0cd65e7d08e59f9f18d7c10b5df232a",
        "to": "0x888361c3362712ba6bb442cbf714038fce0d9e49",
        "gas": "0x67ffdb1",
        "value": "0x0",
        "input": "0x0c495f960000000000000000000000008edafbade92450979dff2f10449e7917c722af50000000000000000000000000b288ba5b5b80dd0fd83541ef2e5922f71121fa1300000000000000000000000000000000000000000000000000000000000000010000000000000000000000000000000000000000000000000000000000000000",
        "nonce": "0x326",
        "chainId": "0x138b"
      },
      "additionalContracts": [],
      "isFixedGasLimit": false
    },
    {
      "hash": null,
      "transactionType": "CALL",
      "contractName": "KubiStreamerDonation",
      "contractAddress": "0x888361c3362712ba6bb442cbf714038fce0d9e49",
      "function": "setYieldConfig(address,address,bool,uint256)",
      "arguments": [
        "0xdf5Ca06845d1b2F3ddff5759a493fB5aff68d72d",
        "0xC4a53c466Cfb62AecED03008B0162baaf36E0B03",
        "true",
        "0"
      ],
      "transaction": {
        "from": "0x1234562eb0cd65e7d08e59f9f18d7c10b5df232a",
        "to": "0x888361c3362712ba6bb442cbf714038fce0d9e49",
        "gas": "0x67ffdb1",
        "value": "0x0",
        "input": "0x0c495f96000000000000000000000000df5ca06845d1b2f3ddff5759a493fb5aff68d72d000000000000000000000000c4a53c466cfb62aeced03008b0162baaf36e0b0300000000000000000000000000000000000000000000000000000000000000010000000000000000000000000000000000000000000000000000000000000000",
        "nonce": "0x327",
        "chainId": "0x138b"
      },
      "additionalContracts": [],
      "isFixedGasLimit": false
    },
    {
      "hash": null,
      "transactionType": "CALL",
      "contractName": "KubiStreamerDonation",
      "contractAddress": "0x888361c3362712ba6bb442cbf714038fce0d9e49",
      "function": "setYieldConfig(address,address,bool,uint256)",
      "arguments": [
        "0xBfc03BA44AcA79cFe6732968f99E9DB0B3880828",
        "0x33c6f26dA09502E6540043f030aE1F87f109cc99",
        "true",
        "0"
      ],
      "transaction": {
        "from": "0x1234562eb0cd65e7d08e59f9f18d7c10b5df232a",
        "to": "0x888361c3362712ba6bb442cbf714038fce0d9e49",
        "gas": "0x67de1cd",
        "value": "0x0",
        "input": "0x0c495f96000000000000000000000000bfc03ba44aca79cfe6732968f99e9db0b388082800000000000000000000000033c6f26da09502e6540043f030ae1f87f109cc9900000000000000000000000000000000000000000000000000000000000000010000000000000000000000000000000000000000000000000000000000000000",
        "nonce": "0x328",
        "chainId": "0x138b"
      },
      "additionalContracts": [],
      "isFixedGasLimit": false
    },
    {
      "hash": null,
      "transactionType": "CALL",
      "contractName": "KubiStreamerDonation",
      "contractAddress": "0x888361c3362712ba6bb442cbf714038fce0d9e49",
      "function": "setYieldConfig(address,address,bool,uint256)",
      "arguments": [
        "0x4E55B3951d334aF5a88474d252f789911E1EFc55",
        "0xced6Ceb47301F268d57fF07879DF45Fda80e6974",
        "true",
        "0"
      ],
      "transaction": {
        "from": "0x1234562eb0cd65e7d08e59f9f18d7c10b5df232a",
        "to": "0x888361c3362712ba6bb442cbf714038fce0d9e49",
        "gas": "0x67ffdb1",
        "value": "0x0",
        "input": "0x0c495f960000000000000000000000004e55b3951d334af5a88474d252f789911e1efc55000000000000000000000000ced6ceb47301f268d57ff07879df45fda80e697400000000000000000000000000000000000000000000000000000000000000010000000000000000000000000000000000000000000000000000000000000000",
        "nonce": "0x329",
        "chainId": "0x138b"
      },
      "additionalContracts": [],
      "isFixedGasLimit": false
    },
    {
      "hash": null,
      "transactionType": "CALL",
      "contractName": "KubiStreamerDonation",
      "contractAddress": "0x888361c3362712ba6bb442cbf714038fce0d9e49",
      "function": "setYieldConfig(address,address,bool,uint256)",
      "arguments": [
        "0xE54116B3FA1623EB5aAC2ED4628002ceE620E9D8",
        "0x7CB382Ce1AA40FA9F9A59a632090c05Dc28caE7b",
        "true",
        "0"
      ],
      "transaction": {
        "from": "0x1234562eb0cd65e7d08e59f9f18d7c10b5df232a",
        "to": "0x888361c3362712ba6bb442cbf714038fce0d9e49",
        "gas": "0x67ffdb1",
        "value": "0x0",
        "input": "0x0c495f96000000000000000000000000e54116b3fa1623eb5aac2ed4628002cee620e9d80000000000000000000000007cb382ce1aa40fa9f9a59a632090c05dc28cae7b00000000000000000000000000000000000000000000000000000000000000010000000000000000000000000000000000000000000000000000000000000000",
        "nonce": "0x32a",
        "chainId": "0x138b"
      },
      "additionalContracts": [],
      "isFixedGasLimit": false
    }
  ],
  "receipts": [
    {
      "status": "0x1",
      "cumulativeGasUsed": "0x231ff3e36",
      "logs": [
        {
          "address": "0x888361c3362712ba6bb442cbf714038fce0d9e49",
          "topics": [
            "0x8be0079c531659141344cd1fd0a4f28419497f9722a3daafe3b4186f6b6457e0",
            "0x0000000000000000000000000000000000000000000000000000000000000000",
            "0x0000000000000000000000001234562eb0cd65e7d08e59f9f18d7c10b5df232a"
          ],
          "data": "0x",
          "blockHash": "0xaa960aadf34c9fe59706dcfea17c292d172e3c669066128a55f22b3a90621464",
          "blockNumber": "0x1f86f51",
          "blockTimestamp": "0x695c6183",
          "transactionHash": "0xf55abfc90377b6953e016a68471ee66aa08c496b2b290f173375e285c8a308b1",
          "transactionIndex": "0x1",
          "logIndex": "0x0",
          "removed": false
        }
      ],
      "logsBloom": "0x20000000000000000000000000000000000000000000000000800000000000000000000000000000000000000000000000000000000000000000000000000000000000800000000020000000000000000001000000000000000000000000000000000000020000000000000000000800000000000000000000000000000000400000000000000000000000000000000000000000100200000000000000000000020000000000000000000000000000000000000000000000000000000000000000000000000000000000000000000000000000000000000000000000000020000000000000000000000000000000000000000000000000000000000000000000",
      "type": "0x2",
      "transactionHash": "0xf55abfc90377b6953e016a68471ee66aa08c496b2b290f173375e285c8a308b1",
      "transactionIndex": "0x1",
      "blockHash": "0xaa960aadf34c9fe59706dcfea17c292d172e3c669066128a55f22b3a90621464",
      "blockNumber": "0x1f86f51",
      "gasUsed": "0x231fe873d",
      "effectiveGasPrice": "0x132e474",
      "from": "0x1234562eb0cd65e7d08e59f9f18d7c10b5df232a",
      "to": null,
      "contractAddress": "0x888361c3362712ba6bb442cbf714038fce0d9e49",
      "l1Fee": "0x3491a09",
      "l1FeeScalar": "0.01",
      "l1GasPrice": "0x8",
      "l1GasUsed": "0x3969c",
      "tokenRatio": "0xb72"
    },
    {
      "status": "0x1",
      "cumulativeGasUsed": "0x8545bd0",
      "logs": [
        {
          "address": "0x888361c3362712ba6bb442cbf714038fce0d9e49",
          "topics": [
            "0xac90355684e2710fa34c2c7d500018678b146ea2d56ddc331c63d242ee8bf385",
            "0x00000000000000000000000033c6f26da09502e6540043f030ae1f87f109cc99"
          ],
          "data": "0x0000000000000000000000000000000000000000000000000000000000000001",
          "blockHash": "0x2152996a83a52e3818324d9b332a696e2a56b6f5fe7a50ef98286cd0f68de430",
          "blockNumber": "0x1f86f53",
          "blockTimestamp": "0x695c6187",
          "transactionHash": "0xf1de61cc1d77ce74ba26185d43ca5db4ce799ca27fb706edeccb9dba7931353b",
          "transactionIndex": "0x1",
          "logIndex": "0x0",
          "removed": false
        }
      ],
      "logsBloom": "0x20000000000000000200000000000000000000000000000000000000000000000000000000000000000000000000000000000000000000000010000000000000000000800000000000000000000000000000000000000000000000000000000000000000000000000000000000000000000000000008000000000000002000000000000000000000000010000000000000000200100000000000000000000000000000000000000000000000000000000000000000000000000000000000000000000000000000000000000000000000000000000000000000000000000000000000000000000000000000000000000000000000000000000000000000000000",
      "type": "0x2",
      "transactionHash": "0xf1de61cc1d77ce74ba26185d43ca5db4ce799ca27fb706edeccb9dba7931353b",
      "transactionIndex": "0x1",
      "blockHash": "0x2152996a83a52e3818324d9b332a696e2a56b6f5fe7a50ef98286cd0f68de430",
      "blockNumber": "0x1f86f53",
      "gasUsed": "0x8538f03",
      "effectiveGasPrice": "0x132e474",
      "from": "0x1234562eb0cd65e7d08e59f9f18d7c10b5df232a",
      "to": "0x888361c3362712ba6bb442cbf714038fce0d9e49",
      "contractAddress": null,
      "l1Fee": "0x941a3",
      "l1FeeScalar": "0.01",
      "l1GasPrice": "0x8",
      "l1GasUsed": "0xa1c",
      "tokenRatio": "0xb72"
    },
    {
      "status": "0x1",
      "cumulativeGasUsed": "0x857001e",
      "logs": [
        {
          "address": "0x888361c3362712ba6bb442cbf714038fce0d9e49",
          "topics": [
            "0xac90355684e2710fa34c2c7d500018678b146ea2d56ddc331c63d242ee8bf385",
            "0x0000000000000000000000007cb382ce1aa40fa9f9a59a632090c05dc28cae7b"
          ],
          "data": "0x0000000000000000000000000000000000000000000000000000000000000001",
          "blockHash": "0x89c4e6b989b2ed349e611525055d439bae1872e0dcde035749efd0a7557682e5",
          "blockNumber": "0x1f86f55",
          "blockTimestamp": "0x695c618b",
          "transactionHash": "0x7d3fd7c49fa9f2fe5202a5898ba391d52d0a0e41e65c5a38d5ba269030170e1e",
          "transactionIndex": "0x1",
          "logIndex": "0x0",
          "removed": false
        }
      ],
      "logsBloom": "0x20000000000000000200000000000000000000000000000000000000000000000000000000000000000800000000000000000000000000000010000000000000000000800000000000000000000000000000004000000000000002000000000000000000000000000000000000000000000000000000000000000000002000000000000000000000000000000000000000000000100000000000000000000000000000000000000000000000000000000000000000000000000000000000000000000000000000000000000000000000000000000000000000000000000000000000000000000000000000000000000000000000000000000000000000000000",
      "type": "0x2",
      "transactionHash": "0x7d3fd7c49fa9f2fe5202a5898ba391d52d0a0e41e65c5a38d5ba269030170e1e",
      "transactionIndex": "0x1",
      "blockHash": "0x89c4e6b989b2ed349e611525055d439bae1872e0dcde035749efd0a7557682e5",
      "blockNumber": "0x1f86f55",
      "gasUsed": "0x8564925",
      "effectiveGasPrice": "0x132e474",
      "from": "0x1234562eb0cd65e7d08e59f9f18d7c10b5df232a",
      "to": "0x888361c3362712ba6bb442cbf714038fce0d9e49",
      "contractAddress": null,
      "l1Fee": "0x94f10",
      "l1FeeScalar": "0.01",
      "l1GasPrice": "0x8",
      "l1GasUsed": "0xa28",
      "tokenRatio": "0xb75"
    },
    {
      "status": "0x1",
      "cumulativeGasUsed": "0x85702a1",
      "logs": [
        {
          "address": "0x888361c3362712ba6bb442cbf714038fce0d9e49",
          "topics": [
            "0xac90355684e2710fa34c2c7d500018678b146ea2d56ddc331c63d242ee8bf385",
            "0x000000000000000000000000b288ba5b5b80dd0fd83541ef2e5922f71121fa13"
          ],
          "data": "0x0000000000000000000000000000000000000000000000000000000000000001",
          "blockHash": "0xc5e46cb0faff02e318447428b10824d558d6fcdd9cd4957d146a3a52b93e1770",
          "blockNumber": "0x1f86f57",
          "blockTimestamp": "0x695c618f",
          "transactionHash": "0xebf270bc090927a14f4bd53917b07fed48be86f4d409ab993f9a2326c4588bfa",
          "transactionIndex": "0x1",
          "logIndex": "0x0",
          "removed": false
        }
      ],
      "logsBloom": "0x20000000000000000200000000000000000000000000000000000000000000000000000000000000000000000000000000000000000000000010000000000000000000800000000000000000000000000000000000000000000000000000000000000000000000000000000000000000000000000000000000000000002000000000000000000000000000000000000000000000100000000002000000000400000000000000000000000000000000000000000000000000000000000000000000000000000000000000000000000000000000000000000000000000000000000000000000000000000000000000000000000000000000800000000000000000",
      "type": "0x2",
      "transactionHash": "0xebf270bc090927a14f4bd53917b07fed48be86f4d409ab993f9a2326c4588bfa",
      "transactionIndex": "0x1",
      "blockHash": "0xc5e46cb0faff02e318447428b10824d558d6fcdd9cd4957d146a3a52b93e1770",
      "blockNumber": "0x1f86f57",
      "gasUsed": "0x8564ba8",
      "effectiveGasPrice": "0x132e474",
      "from": "0x1234562eb0cd65e7d08e59f9f18d7c10b5df232a",
      "to": "0x888361c3362712ba6bb442cbf714038fce0d9e49",
      "contractAddress": null,
      "l1Fee": "0x94f10",
      "l1FeeScalar": "0.01",
      "l1GasPrice": "0x8",
      "l1GasUsed": "0xa28",
      "tokenRatio": "0xb75"
    },
    {
      "status": "0x1",
      "cumulativeGasUsed": "0x8571875",
      "logs": [
        {
          "address": "0x888361c3362712ba6bb442cbf714038fce0d9e49",
          "topics": [
            "0xac90355684e2710fa34c2c7d500018678b146ea2d56ddc331c63d242ee8bf385",
            "0x000000000000000000000000c4a53c466cfb62aeced03008b0162baaf36e0b03"
          ],
          "data": "0x0000000000000000000000000000000000000000000000000000000000000001",
          "blockHash": "0xf63cd728d78ae151cc14c68153ee2916163d2cd6453aa7df10f434af325665fc",
          "blockNumber": "0x1f86f59",
          "blockTimestamp": "0x695c6193",
          "transactionHash": "0xa19579cc1b746f61e6101ac1f6eb969bbcf5e8c2fd94cc60c993a0bb8ac12819",
          "transactionIndex": "0x1",
          "logIndex": "0x0",
          "removed": false
        }
      ],
      "logsBloom": "0x20000000000000000200000000000000000000000000000000000000000000000000000000000000000000000000000000000000000000000010000000000000000000800000000000000000000000000000000000000000000000000000000000000004000000000000000000000000000000000000000000000000002000000000000000000000000000040000000000000000100000000000000000000000000000000000400000000000000000000000000000000000000000000000000000000000000000000000000000000000000000000000000000000000000000000000000000000000000000000000000000000000000000000000000000000000",
      "type": "0x2",
      "transactionHash": "0xa19579cc1b746f61e6101ac1f6eb969bbcf5e8c2fd94cc60c993a0bb8ac12819",
      "transactionIndex": "0x1",
      "blockHash": "0xf63cd728d78ae151cc14c68153ee2916163d2cd6453aa7df10f434af325665fc",
      "blockNumber": "0x1f86f59",
      "gasUsed": "0x8564ba8",
      "effectiveGasPrice": "0x132e474",
      "from": "0x1234562eb0cd65e7d08e59f9f18d7c10b5df232a",
      "to": "0x888361c3362712ba6bb442cbf714038fce0d9e49",
      "contractAddress": null,
      "l1Fee": "0x94f10",
      "l1FeeScalar": "0.01",
      "l1GasPrice": "0x8",
      "l1GasUsed": "0xa28",
      "tokenRatio": "0xb75"
    },
    {
      "status": "0x1",
      "cumulativeGasUsed": "0x85702a1",
      "logs": [
        {
          "address": "0x888361c3362712ba6bb442cbf714038fce0d9e49",
          "topics": [
            "0xac90355684e2710fa34c2c7d500018678b146ea2d56ddc331c63d242ee8bf385",
            "0x00000000000000000000000070db6efb75c898ad1e194fda2b8c6e73dbc944d6"
          ],
          "data": "0x0000000000000000000000000000000000000000000000000000000000000001",
          "blockHash": "0xd8774daf653c2dd08c33d79f957cc76a9c2927533ffc7de3cb142db30e5d001a",
          "blockNumber": "0x1f86f5b",
          "blockTimestamp": "0x695c6197",
          "transactionHash": "0x404e498f73f84e3d1bf34c3bddc478338d11a5caf1aa04609171a7e9e9800395",
          "transactionIndex": "0x1",
          "logIndex": "0x0",
          "removed": false
        }
      ],
      "logsBloom": "0x20000000000000000200000000000000000000000000000000000000000000000000000000000000000000000000000000080000000000000010000000000000000000800000000000000000000000000000000000000000000000000000000000000000000000000000000000000000000000000000000000000000002000000000000000000000000000000000000000000000100400000000000000000000000000000000000000000000000000000000000000000000000000000000000000000000000000000000000000000000000000000000000000080000000000000000000000000000000000000000000000000000000000000000000000000000",
      "type": "0x2",
      "transactionHash": "0x404e498f73f84e3d1bf34c3bddc478338d11a5caf1aa04609171a7e9e9800395",
      "transactionIndex": "0x1",
      "blockHash": "0xd8774daf653c2dd08c33d79f957cc76a9c2927533ffc7de3cb142db30e5d001a",
      "blockNumber": "0x1f86f5b",
      "gasUsed": "0x8564ba8",
      "effectiveGasPrice": "0x132e474",
      "from": "0x1234562eb0cd65e7d08e59f9f18d7c10b5df232a",
      "to": "0x888361c3362712ba6bb442cbf714038fce0d9e49",
      "contractAddress": null,
      "l1Fee": "0x94f10",
      "l1FeeScalar": "0.01",
      "l1GasPrice": "0x8",
      "l1GasUsed": "0xa28",
      "tokenRatio": "0xb75"
    },
    {
      "status": "0x1",
      "cumulativeGasUsed": "0x84b5959",
      "logs": [
        {
          "address": "0x888361c3362712ba6bb442cbf714038fce0d9e49",
          "topics": [
            "0xac90355684e2710fa34c2c7d500018678b146ea2d56ddc331c63d242ee8bf385",
            "0x000000000000000000000000ee589fbf85128aba6f42696db2f28ea9ebdde173"
          ],
          "data": "0x0000000000000000000000000000000000000000000000000000000000000001",
          "blockHash": "0xdddc04cb660538846ccb379b2c661e430b057fcad5a75256112ce491355d1761",
          "blockNumber": "0x1f87021",
          "blockTimestamp": "0x695c6323",
          "transactionHash": "0x2675385930716ceb821a889805270c7d4b6f460d1e11117de33ca9784ab34b14",
          "transactionIndex": "0x1",
          "logIndex": "0x0",
          "removed": false
        }
      ],
      "logsBloom": "0x20000000000000000200000020000000000000000000000000000000000000000000000000000000000000000000000000000000000000000010000000000000000000800000000000000000000000000000000000000000000000000000000000000000000000000000000000000000000000000000000000000000002000000000000000000000000000000000000000000000100000000000000000000000000000000000000000000000000000000000000000000000000000000000000000000000000000000000000000000000000000000000400000000000000000000000000000000000000000000080000000000000000000000000000000000000",
      "type": "0x2",
      "transactionHash": "0x2675385930716ceb821a889805270c7d4b6f460d1e11117de33ca9784ab34b14",
      "transactionIndex": "0x1",
      "blockHash": "0xdddc04cb660538846ccb379b2c661e430b057fcad5a75256112ce491355d1761",
      "blockNumber": "0x1f87021",
      "gasUsed": "0x84aa260",
      "effectiveGasPrice": "0x1312d01",
      "from": "0x1234562eb0cd65e7d08e59f9f18d7c10b5df232a",
      "to": "0x888361c3362712ba6bb442cbf714038fce0d9e49",
      "contractAddress": null,
      "l1Fee": "0x90b5e",
      "l1FeeScalar": "0.01",
      "l1GasPrice": "0x8",
      "l1GasUsed": "0x9ec",
      "tokenRatio": "0xb65"
    },
    {
      "status": "0x1",
      "cumulativeGasUsed": "0xf34df44",
      "logs": [
        {
          "address": "0x888361c3362712ba6bb442cbf714038fce0d9e49",
          "topics": [
            "0xac90355684e2710fa34c2c7d500018678b146ea2d56ddc331c63d242ee8bf385",
            "0x0000000000000000000000002c036be74942c597e4d81d7050008ddc11becceb"
          ],
          "data": "0x0000000000000000000000000000000000000000000000000000000000000001",
          "blockHash": "0x2e458e5509e5232ebb95660aaa7fb699a97149ed23fa165393f928ac72271cf5",
          "blockNumber": "0x1f87025",
          "blockTimestamp": "0x695c632b",
          "transactionHash": "0x63882c7a5fafa242ff02ad97bbd5e32fb0e91f7de100fc721fd75be638916a48",
          "transactionIndex": "0x2",
          "logIndex": "0x1",
          "removed": false
        }
      ],
      "logsBloom": "0x20000000000000000200000000000000000000000000000000000000000000000000000000000000000000000000000000000000000000000010000000000000000000800000000000000000000000000000000000000000000010000000000000000000000000000000000000000000000000000000000000000000002000000000000000000000000000000000000000000000100000000000000000000000000000000000000000000000000000008000000000000000000000000000000000000000000000000000000000000000000000000000000000000000000000000000000000000000000000000000000000000000000000000000000000000002",
      "type": "0x2",
      "transactionHash": "0x63882c7a5fafa242ff02ad97bbd5e32fb0e91f7de100fc721fd75be638916a48",
      "transactionIndex": "0x2",
      "blockHash": "0x2e458e5509e5232ebb95660aaa7fb699a97149ed23fa165393f928ac72271cf5",
      "blockNumber": "0x1f87025",
      "gasUsed": "0x84a1b25",
      "effectiveGasPrice": "0x1312d01",
      "from": "0x1234562eb0cd65e7d08e59f9f18d7c10b5df232a",
      "to": "0x888361c3362712ba6bb442cbf714038fce0d9e49",
      "contractAddress": null,
      "l1Fee": "0x90b5e",
      "l1FeeScalar": "0.01",
      "l1GasPrice": "0x8",
      "l1GasUsed": "0x9ec",
      "tokenRatio": "0xb65"
    },
    {
      "status": "0x1",
      "cumulativeGasUsed": "0x84b5959",
      "logs": [
        {
          "address": "0x888361c3362712ba6bb442cbf714038fce0d9e49",
          "topics": [
            "0xac90355684e2710fa34c2c7d500018678b146ea2d56ddc331c63d242ee8bf385",
            "0x00000000000000000000000090cdcbf4c4bc78dc440252211efd744d0a4dc4a1"
          ],
          "data": "0x0000000000000000000000000000000000000000000000000000000000000001",
          "blockHash": "0x35a8ffe904253081a9ca8cc0c8b12231c5d8253bee6664536cd6c591b00f5fc5",
          "blockNumber": "0x1f8702a",
          "blockTimestamp": "0x695c6335",
          "transactionHash": "0xf86b0aefcb05df2583352e335a86d2e0e57b0e892f4857e3bd6dba740c80b9be",
          "transactionIndex": "0x1",
          "logIndex": "0x0",
          "removed": false
        }
      ],
      "logsBloom": "0x20000000000000000200000000000000000000000000000010000000000000000000000000000000000000000000000000000000000000200010000000000000000000800000000000000000000000000000000000000000000000000000000000000000000000000000000000000000000000000000000000000000002000000000000000000000000000000000000000000000100000000000000000000000000000000000000000000000000000000000000000000000000000000000000000000000000000000000000000000000000000000000000000000000000000000000000000000000000000080000000000000000000000000000000000000000",
      "type": "0x2",
      "transactionHash": "0xf86b0aefcb05df2583352e335a86d2e0e57b0e892f4857e3bd6dba740c80b9be",
      "transactionIndex": "0x1",
      "blockHash": "0x35a8ffe904253081a9ca8cc0c8b12231c5d8253bee6664536cd6c591b00f5fc5",
      "blockNumber": "0x1f8702a",
      "gasUsed": "0x84aa260",
      "effectiveGasPrice": "0x1312d01",
      "from": "0x1234562eb0cd65e7d08e59f9f18d7c10b5df232a",
      "to": "0x888361c3362712ba6bb442cbf714038fce0d9e49",
      "contractAddress": null,
      "l1Fee": "0x90b5e",
      "l1FeeScalar": "0.01",
      "l1GasPrice": "0x8",
      "l1GasUsed": "0x9ec",
      "tokenRatio": "0xb65"
    },
    {
      "status": "0x1",
      "cumulativeGasUsed": "0x84b5959",
      "logs": [
        {
          "address": "0x888361c3362712ba6bb442cbf714038fce0d9e49",
          "topics": [
            "0xac90355684e2710fa34c2c7d500018678b146ea2d56ddc331c63d242ee8bf385",
            "0x000000000000000000000000ced6ceb47301f268d57ff07879df45fda80e6974"
          ],
          "data": "0x0000000000000000000000000000000000000000000000000000000000000001",
          "blockHash": "0x9a5959ffb2ee1daaa4f2a3943fc45461de0d4fd7ffd60d33e18117c771c6b9f6",
          "blockNumber": "0x1f8702f",
          "blockTimestamp": "0x695c633f",
          "transactionHash": "0xf1af4fbdb41dbf7885496256fc80d0cdc178588c95e7811323045ee4cf8edeb8",
          "transactionIndex": "0x1",
          "logIndex": "0x0",
          "removed": false
        }
      ],
      "logsBloom": "0x20000000000000000200000800000000000000000000000000000000000000000000000000000000000000000080000000000000000000000010000000000000000000800000000000000000000000000000000000000000000000000000000000000000000000000000000000000000000000000000000000000000002000000000000000000000000000000000000000000000100000000000000000000000000000000000000000000000000000000000000000000000000000000000000000000000000000000000000000000000000000000000002000000000000000000000000000000000000000000000000000000000000000000000000000000000",
      "type": "0x2",
      "transactionHash": "0xf1af4fbdb41dbf7885496256fc80d0cdc178588c95e7811323045ee4cf8edeb8",
      "transactionIndex": "0x1",
      "blockHash": "0x9a5959ffb2ee1daaa4f2a3943fc45461de0d4fd7ffd60d33e18117c771c6b9f6",
      "blockNumber": "0x1f8702f",
      "gasUsed": "0x84aa260",
      "effectiveGasPrice": "0x1312d01",
      "from": "0x1234562eb0cd65e7d08e59f9f18d7c10b5df232a",
      "to": "0x888361c3362712ba6bb442cbf714038fce0d9e49",
      "contractAddress": null,
      "l1Fee": "0x9164e",
      "l1FeeScalar": "0.01",
      "l1GasPrice": "0x8",
      "l1GasUsed": "0x9f8",
      "tokenRatio": "0xb65"
    },
    {
      "status": "0x1",
      "cumulativeGasUsed": "0x27ed301d",
      "logs": [
        {
          "address": "0x888361c3362712ba6bb442cbf714038fce0d9e49",
          "topics": [
            "0xac90355684e2710fa34c2c7d500018678b146ea2d56ddc331c63d242ee8bf385",
            "0x000000000000000000000000782ba48189af93a0cf42766058de83291f384bf3"
          ],
          "data": "0x0000000000000000000000000000000000000000000000000000000000000001",
          "blockHash": "0xbe676e25a89211af8ab774bd455c818430c8cc03e9fce5a9196f0b04fffe5887",
          "blockNumber": "0x1f87033",
          "blockTimestamp": "0x695c6347",
          "transactionHash": "0x7a6a3231c989ae73cf399f5c886548c5e682026c2981877aedfbc0b6eeedb180",
          "transactionIndex": "0x2",
          "logIndex": "0x3",
          "removed": false
        }
      ],
      "logsBloom": "0x20000000000000000200000000000000000020000000000000000000000000000000000000000000000000000000000000000000000000000010000000000000000000800000000000000000000000000000000000000000000000000000000000000000000000000000000000000000000000000000000000000000002000000000000100000000000000000000000000000000100000000000000000000000000000000000000000008000000000000000000000000000000000000000000000000000000000000000000000000000000000000000000000000000000000000000000000000000000000000000000000000000000000000000000000000000",
      "type": "0x2",
      "transactionHash": "0x7a6a3231c989ae73cf399f5c886548c5e682026c2981877aedfbc0b6eeedb180",
      "transactionIndex": "0x2",
      "blockHash": "0xbe676e25a89211af8ab774bd455c818430c8cc03e9fce5a9196f0b04fffe5887",
      "blockNumber": "0x1f87033",
      "gasUsed": "0x847ba63",
      "effectiveGasPrice": "0x1312d01",
      "from": "0x1234562eb0cd65e7d08e59f9f18d7c10b5df232a",
      "to": "0x888361c3362712ba6bb442cbf714038fce0d9e49",
      "contractAddress": null,
      "l1Fee": "0x9131e",
      "l1FeeScalar": "0.01",
      "l1GasPrice": "0x8",
      "l1GasUsed": "0x9f8",
      "tokenRatio": "0xb61"
    },
    {
      "status": "0x1",
      "cumulativeGasUsed": "0x956bd74",
      "logs": [
        {
          "address": "0x888361c3362712ba6bb442cbf714038fce0d9e49",
          "topics": [
            "0x354f0817e377e1e9b2601a5fa1180df29e96ac246a5d02f817a6e3bb4b72a904",
            "0x0000000000000000000000002007cb1a90e71c18983f1d4091261816e9e9c2da",
            "0x000000000000000000000000b288ba5b5b80dd0fd83541ef2e5922f71121fa13"
          ],
          "data": "0x00000000000000000000000000000000000000000000000000000000000000010000000000000000000000000000000000000000000000000000000000000000",
          "blockHash": "0xa1d11ac52768f9321ab1deb835e2d1259b1cf8f76b0ff1a6a0340ae68297c508",
          "blockNumber": "0x1f87038",
          "blockTimestamp": "0x695c6351",
          "transactionHash": "0x9254e37bf6b30f1f3efc66947eaf99f899774e6ce5a019aa73e8d2fdb46c2267",
          "transactionIndex": "0x1",
          "logIndex": "0x0",
          "removed": false
        }
      ],
      "logsBloom": "0x20004000000000000000000000000000000000000000000000000000000000000000000000000000800000000000000000000000000000000000000000000000000000800000000000000000000000000000000000000000000000000000000000000000000000000000000000000000000000000000000000000000000000000000000000000000000000000020000000000000100000000002000000000400000000000000000000000000000000000000000000000000000000000024000000000000000000000000000000000000000004000000000000000000000000000000000000000000000000000000000000000000000000800000000000000000",
      "type": "0x2",
      "transactionHash": "0x9254e37bf6b30f1f3efc66947eaf99f899774e6ce5a019aa73e8d2fdb46c2267",
      "transactionIndex": "0x1",
      "blockHash": "0xa1d11ac52768f9321ab1deb835e2d1259b1cf8f76b0ff1a6a0340ae68297c508",
      "blockNumber": "0x1f87038",
      "gasUsed": "0x955c3af",
      "effectiveGasPrice": "0x1312d01",
      "from": "0x1234562eb0cd65e7d08e59f9f18d7c10b5df232a",
      "to": "0x888361c3362712ba6bb442cbf714038fce0d9e49",
      "contractAddress": null,
      "l1Fee": "0xad6a1",
      "l1FeeScalar": "0.01",
      "l1GasPrice": "0x8",
      "l1GasUsed": "0xbe8",
      "tokenRatio": "0xb61"
    }
  ],
  "libraries": [],
  "pending": [
    "0x46a16e88b121c727b99f2802c9efbe751b59c9df45c9c38db12c550145dc2699"
  ],
  "returns": {},
  "timestamp": 1767662435400,
  "chain": 5003,
  "commit": "cd2a7c9"
}